{
  "transactions": [
    {
      "hash": "0x280ca10bc0f0e065c6c459fcf87f504bb14327c98e5aa05a7d72ea493a03a91a",
      "transactionType": "CALL",
      "contractName": null,
      "contractAddress": "0x397f939c3b91a74c321ea7129396492ba9cdce82",
      "function": "approve(address,uint256)",
      "arguments": [
        "0xF6f45CCB5E85D1400067ee66F9e168f83e86124E",
        "10000000000000"
      ],
      "transaction": {
        "from": "0x45dce8e4f2dc005a5f28206a46cb034697eeda8e",
        "to": "0x397f939c3b91a74c321ea7129396492ba9cdce82",
        "gas": "0x12193",
        "value": "0x0",
        "input": "0x095ea7b3000000000000000000000000f6f45ccb5e85d1400067ee66f9e168f83e86124e000000000000000000000000000000000000000000000000000009184e72a000",
        "nonce": "0xab",
        "chainId": "0x82750"
      },
      "additionalContracts": [],
      "isFixedGasLimit": false
    },
    {
      "hash": "0xfacb1ba03d8ed5eafa703b86e2b6b4e5d4a1c2671d805b4b2e38ab8f50f6f367",
      "transactionType": "CALL",
      "contractName": null,
      "contractAddress": "0xf6f45ccb5e85d1400067ee66f9e168f83e86124e",
      "function": "sendOFT(address,uint32,bytes32,uint256)",
      "arguments": [
        "0x397F939C3b91A74C321ea7129396492bA9Cdce82",
        "30274",
        "0x00000000000000000000000045dce8e4f2dc005a5f28206a46cb034697eeda8e",
        "10000000000000"
      ],
      "transaction": {
        "from": "0x45dce8e4f2dc005a5f28206a46cb034697eeda8e",
        "to": "0xf6f45ccb5e85d1400067ee66f9e168f83e86124e",
        "gas": "0xdbed4",
        "value": "0x1515f756270a",
        "input": "0x3e832c90000000000000000000000000397f939c3b91a74c321ea7129396492ba9cdce82000000000000000000000000000000000000000000000000000000000000764200000000000000000000000045dce8e4f2dc005a5f28206a46cb034697eeda8e000000000000000000000000000000000000000000000000000009184e72a000",
        "nonce": "0xac",
        "chainId": "0x82750"
      },
      "additionalContracts": [],
      "isFixedGasLimit": false
    },
    {
      "hash": "0x16955fe485065dee9eca9469af0760d97f162e3ac10356bf4e6a8dcc24ff2d40",
      "transactionType": "CALL",
      "contractName": null,
      "contractAddress": "0xc6b2be25d65760b826d0c852fd35f364250619c2",
      "function": "approve(address,uint256)",
      "arguments": [
        "0xF6f45CCB5E85D1400067ee66F9e168f83e86124E",
        "10000000000000"
      ],
      "transaction": {
        "from": "0x45dce8e4f2dc005a5f28206a46cb034697eeda8e",
        "to": "0xc6b2be25d65760b826d0c852fd35f364250619c2",
        "gas": "0x12175",
        "value": "0x0",
        "input": "0x095ea7b3000000000000000000000000f6f45ccb5e85d1400067ee66f9e168f83e86124e000000000000000000000000000000000000000000000000000009184e72a000",
        "nonce": "0xad",
        "chainId": "0x82750"
      },
      "additionalContracts": [],
      "isFixedGasLimit": false
    },
    {
      "hash": "0x6d087e1bfc447b3a765d67f9bd0b63abb8ecc8b171df8537c8b6a7e1792e015f",
      "transactionType": "CALL",
      "contractName": null,
      "contractAddress": "0xf6f45ccb5e85d1400067ee66f9e168f83e86124e",
      "function": "sendOFT(address,uint32,bytes32,uint256)",
      "arguments": [
        "0xC6B2BE25d65760B826D0C852FD35F364250619c2",
        "30274",
        "0x00000000000000000000000045dce8e4f2dc005a5f28206a46cb034697eeda8e",
        "10000000000000"
      ],
      "transaction": {
        "from": "0x45dce8e4f2dc005a5f28206a46cb034697eeda8e",
        "to": "0xf6f45ccb5e85d1400067ee66f9e168f83e86124e",
        "gas": "0xcf790",
        "value": "0x1515f756270a",
        "input": "0x3e832c90000000000000000000000000c6b2be25d65760b826d0c852fd35f364250619c2000000000000000000000000000000000000000000000000000000000000764200000000000000000000000045dce8e4f2dc005a5f28206a46cb034697eeda8e000000000000000000000000000000000000000000000000000009184e72a000",
        "nonce": "0xae",
        "chainId": "0x82750"
      },
      "additionalContracts": [],
      "isFixedGasLimit": false
    },
    {
      "hash": "0x4e148a59c3c8787951f3a8f9df6819359e3f6d2c723d3f857aa63f5125495eed",
      "transactionType": "CALL",
      "contractName": null,
      "contractAddress": "0x0097cf8ee15800d4f80da8a6ce4df360d9449ed5",
      "function": "approve(address,uint256)",
      "arguments": [
        "0xF6f45CCB5E85D1400067ee66F9e168f83e86124E",
        "10000000000000"
      ],
      "transaction": {
        "from": "0x45dce8e4f2dc005a5f28206a46cb034697eeda8e",
        "to": "0x0097cf8ee15800d4f80da8a6ce4df360d9449ed5",
        "gas": "0x12193",
        "value": "0x0",
        "input": "0x095ea7b3000000000000000000000000f6f45ccb5e85d1400067ee66f9e168f83e86124e000000000000000000000000000000000000000000000000000009184e72a000",
        "nonce": "0xaf",
        "chainId": "0x82750"
      },
      "additionalContracts": [],
      "isFixedGasLimit": false
    },
    {
      "hash": "0xd2d815b5ad0f23aaad74052bdad0e7a1cc45a839e51e0cb4806696a92ef8b32c",
      "transactionType": "CALL",
      "contractName": null,
      "contractAddress": "0xf6f45ccb5e85d1400067ee66f9e168f83e86124e",
      "function": "sendOFT(address,uint32,bytes32,uint256)",
      "arguments": [
        "0x0097Cf8Ee15800d4f80da8A6cE4dF360D9449Ed5",
        "30274",
        "0x00000000000000000000000045dce8e4f2dc005a5f28206a46cb034697eeda8e",
        "10000000000000"
      ],
      "transaction": {
        "from": "0x45dce8e4f2dc005a5f28206a46cb034697eeda8e",
        "to": "0xf6f45ccb5e85d1400067ee66f9e168f83e86124e",
        "gas": "0xcf78e",
        "value": "0x1515f756270a",
        "input": "0x3e832c900000000000000000000000000097cf8ee15800d4f80da8a6ce4df360d9449ed5000000000000000000000000000000000000000000000000000000000000764200000000000000000000000045dce8e4f2dc005a5f28206a46cb034697eeda8e000000000000000000000000000000000000000000000000000009184e72a000",
        "nonce": "0xb0",
        "chainId": "0x82750"
      },
      "additionalContracts": [],
      "isFixedGasLimit": false
    },
    {
      "hash": "0x529466027542033f0253c56a602ef8152c6e2db5b8b051ef93f3095b1a8e051b",
      "transactionType": "CALL",
      "contractName": null,
      "contractAddress": "0x73382eb28f35d80df8c3fe04a3eed71b1afce5de",
      "function": "approve(address,uint256)",
      "arguments": [
        "0xF6f45CCB5E85D1400067ee66F9e168f83e86124E",
        "10000000000000"
      ],
      "transaction": {
        "from": "0x45dce8e4f2dc005a5f28206a46cb034697eeda8e",
        "to": "0x73382eb28f35d80df8c3fe04a3eed71b1afce5de",
        "gas": "0x12193",
        "value": "0x0",
        "input": "0x095ea7b3000000000000000000000000f6f45ccb5e85d1400067ee66f9e168f83e86124e000000000000000000000000000000000000000000000000000009184e72a000",
        "nonce": "0xb1",
        "chainId": "0x82750"
      },
      "additionalContracts": [],
      "isFixedGasLimit": false
    },
    {
      "hash": "0x3201e8bf1e77ab64a6124f54929d473a5196479cfdc000b2998bfca2f749dd30",
      "transactionType": "CALL",
      "contractName": null,
      "contractAddress": "0xf6f45ccb5e85d1400067ee66f9e168f83e86124e",
      "function": "sendOFT(address,uint32,bytes32,uint256)",
      "arguments": [
        "0x73382eb28F35d80Df8C3fe04A3EED71b1aFce5dE",
        "30274",
        "0x00000000000000000000000045dce8e4f2dc005a5f28206a46cb034697eeda8e",
        "10000000000000"
      ],
      "transaction": {
        "from": "0x45dce8e4f2dc005a5f28206a46cb034697eeda8e",
        "to": "0xf6f45ccb5e85d1400067ee66f9e168f83e86124e",
        "gas": "0xcf7af",
        "value": "0x1515f756270a",
        "input": "0x3e832c9000000000000000000000000073382eb28f35d80df8c3fe04a3eed71b1afce5de000000000000000000000000000000000000000000000000000000000000764200000000000000000000000045dce8e4f2dc005a5f28206a46cb034697eeda8e000000000000000000000000000000000000000000000000000009184e72a000",
        "nonce": "0xb2",
        "chainId": "0x82750"
      },
      "additionalContracts": [],
      "isFixedGasLimit": false
    },
    {
      "hash": "0x546bff950efed121f4ae39007371fe2e9c8ed8daca0508545e1e660125e724e6",
      "transactionType": "CALL",
      "contractName": null,
      "contractAddress": "0x879ba0efe1ab0119fefa745a21585fa205b07907",
      "function": "approve(address,uint256)",
      "arguments": [
        "0xF6f45CCB5E85D1400067ee66F9e168f83e86124E",
        "10000000000000"
      ],
      "transaction": {
        "from": "0x45dce8e4f2dc005a5f28206a46cb034697eeda8e",
        "to": "0x879ba0efe1ab0119fefa745a21585fa205b07907",
        "gas": "0x12175",
        "value": "0x0",
        "input": "0x095ea7b3000000000000000000000000f6f45ccb5e85d1400067ee66f9e168f83e86124e000000000000000000000000000000000000000000000000000009184e72a000",
        "nonce": "0xb3",
        "chainId": "0x82750"
      },
      "additionalContracts": [],
      "isFixedGasLimit": false
    },
    {
      "hash": "0x558f6bc394509a01a28a75e0e4980fdab9959536d2f1aa16cc231b98bcd5689e",
      "transactionType": "CALL",
      "contractName": null,
      "contractAddress": "0xf6f45ccb5e85d1400067ee66f9e168f83e86124e",
      "function": "sendOFT(address,uint32,bytes32,uint256)",
      "arguments": [
        "0x879BA0EFE1AB0119FefA745A21585Fa205B07907",
        "30274",
        "0x00000000000000000000000045dce8e4f2dc005a5f28206a46cb034697eeda8e",
        "10000000000000"
      ],
      "transaction": {
        "from": "0x45dce8e4f2dc005a5f28206a46cb034697eeda8e",
        "to": "0xf6f45ccb5e85d1400067ee66f9e168f83e86124e",
        "gas": "0xd5925",
        "value": "0x1515f756270a",
        "input": "0x3e832c90000000000000000000000000879ba0efe1ab0119fefa745a21585fa205b07907000000000000000000000000000000000000000000000000000000000000764200000000000000000000000045dce8e4f2dc005a5f28206a46cb034697eeda8e000000000000000000000000000000000000000000000000000009184e72a000",
        "nonce": "0xb4",
        "chainId": "0x82750"
      },
      "additionalContracts": [],
      "isFixedGasLimit": false
    },
    {
      "hash": "0x93d744454e36f2b2e7388e5acad585a19c267b0baa199156c7d83841e4bfe486",
      "transactionType": "CALL",
      "contractName": null,
      "contractAddress": "0x93cdc5d29293cb6983f059fec6e4ffeb656b6a62",
      "function": "approve(address,uint256)",
      "arguments": [
        "0xF6f45CCB5E85D1400067ee66F9e168f83e86124E",
        "10000000000000"
      ],
      "transaction": {
        "from": "0x45dce8e4f2dc005a5f28206a46cb034697eeda8e",
        "to": "0x93cdc5d29293cb6983f059fec6e4ffeb656b6a62",
        "gas": "0x12193",
        "value": "0x0",
        "input": "0x095ea7b3000000000000000000000000f6f45ccb5e85d1400067ee66f9e168f83e86124e000000000000000000000000000000000000000000000000000009184e72a000",
        "nonce": "0xb5",
        "chainId": "0x82750"
      },
      "additionalContracts": [],
      "isFixedGasLimit": false
    },
    {
      "hash": "0x73739e3a14064ed6daacd98467a1e6c969e8ea0d3bef4722d5485c91868e2f08",
      "transactionType": "CALL",
      "contractName": null,
      "contractAddress": "0xf6f45ccb5e85d1400067ee66f9e168f83e86124e",
      "function": "sendOFT(address,uint32,bytes32,uint256)",
      "arguments": [
        "0x93cDc5d29293Cb6983f059Fec6e4FFEb656b6a62",
        "30274",
        "0x00000000000000000000000045dce8e4f2dc005a5f28206a46cb034697eeda8e",
        "10000000000000"
      ],
      "transaction": {
        "from": "0x45dce8e4f2dc005a5f28206a46cb034697eeda8e",
        "to": "0xf6f45ccb5e85d1400067ee66f9e168f83e86124e",
        "gas": "0xcf7af",
        "value": "0x1515f756270a",
        "input": "0x3e832c9000000000000000000000000093cdc5d29293cb6983f059fec6e4ffeb656b6a62000000000000000000000000000000000000000000000000000000000000764200000000000000000000000045dce8e4f2dc005a5f28206a46cb034697eeda8e000000000000000000000000000000000000000000000000000009184e72a000",
        "nonce": "0xb6",
        "chainId": "0x82750"
      },
      "additionalContracts": [],
      "isFixedGasLimit": false
    }
  ],
  "receipts": [
    {
      "status": "0x1",
      "cumulativeGasUsed": "0xd1a6",
      "logs": [
        {
          "address": "0x397f939c3b91a74c321ea7129396492ba9cdce82",
          "topics": [
            "0x8c5be1e5ebec7d5bd14f71427d1e84f3dd0314c0f7b2291e5b200ac8c7c3b925",
            "0x00000000000000000000000045dce8e4f2dc005a5f28206a46cb034697eeda8e",
            "0x000000000000000000000000f6f45ccb5e85d1400067ee66f9e168f83e86124e"
          ],
          "data": "0x000000000000000000000000000000000000000000000000000009184e72a000",
          "blockHash": "0xc77016fde1ec3305b66756f8ca79fd9d441991e2db53f968b4fa877dcbdc8040",
          "blockNumber": "0x201f6aa",
          "transactionHash": "0x280ca10bc0f0e065c6c459fcf87f504bb14327c98e5aa05a7d72ea493a03a91a",
          "transactionIndex": "0x0",
          "logIndex": "0x0",
          "removed": false
        }
      ],
      "logsBloom": "0x00000000001000000000008200000000000000000000000000000000000000000000000000000000000000000000000000000000000000000000000000200000000000000000000000000000000000000000000000000000000000000000000000000000000000000000000000000000000000000000000000000000000000000000000000000000000000000040100000000000000000000000000000000000020000000000000000000000000000000000000000000000000000000000000000000000000000000000000000000000001000000000000000000000000000000010000000000100000000000000800000000000000000000000200000000000",
      "type": "0x2",
      "transactionHash": "0x280ca10bc0f0e065c6c459fcf87f504bb14327c98e5aa05a7d72ea493a03a91a",
      "transactionIndex": "0x0",
      "blockHash": "0xc77016fde1ec3305b66756f8ca79fd9d441991e2db53f968b4fa877dcbdc8040",
      "blockNumber": "0x201f6aa",
      "gasUsed": "0xd1a6",
      "effectiveGasPrice": "0x1d52c",
      "from": "0x45dce8e4f2dc005a5f28206a46cb034697eeda8e",
      "to": "0x397f939c3b91a74c321ea7129396492ba9cdce82",
      "contractAddress": null,
      "l1Fee": "0x9fd64603f1"
    },
    {
      "status": "0x1",
      "cumulativeGasUsed": "0xa37b0",
      "logs": [
        {
          "address": "0x397f939c3b91a74c321ea7129396492ba9cdce82",
          "topics": [
            "0x8c5be1e5ebec7d5bd14f71427d1e84f3dd0314c0f7b2291e5b200ac8c7c3b925",
            "0x00000000000000000000000045dce8e4f2dc005a5f28206a46cb034697eeda8e",
            "0x000000000000000000000000f6f45ccb5e85d1400067ee66f9e168f83e86124e"
          ],
          "data": "0x0000000000000000000000000000000000000000000000000000000000000000",
          "blockHash": "0xc77016fde1ec3305b66756f8ca79fd9d441991e2db53f968b4fa877dcbdc8040",
          "blockNumber": "0x201f6aa",
          "transactionHash": "0x529466027542033f0253c56a602ef8152c6e2db5b8b051ef93f3095b1a8e051b",
          "transactionIndex": "0x1",
          "logIndex": "0x1",
          "removed": false
        },
        {
          "address": "0x397f939c3b91a74c321ea7129396492ba9cdce82",
          "topics": [
            "0xddf252ad1be2c89b69c2b068fc378daa952ba7f163c4a11628f55a4df523b3ef",
            "0x00000000000000000000000045dce8e4f2dc005a5f28206a46cb034697eeda8e",
            "0x000000000000000000000000f6f45ccb5e85d1400067ee66f9e168f83e86124e"
          ],
          "data": "0x000000000000000000000000000000000000000000000000000009184e72a000",
          "blockHash": "0xc77016fde1ec3305b66756f8ca79fd9d441991e2db53f968b4fa877dcbdc8040",
          "blockNumber": "0x201f6aa",
          "transactionHash": "0x529466027542033f0253c56a602ef8152c6e2db5b8b051ef93f3095b1a8e051b",
          "transactionIndex": "0x1",
          "logIndex": "0x2",
          "removed": false
        },
        {
          "address": "0x397f939c3b91a74c321ea7129396492ba9cdce82",
          "topics": [
            "0x8c5be1e5ebec7d5bd14f71427d1e84f3dd0314c0f7b2291e5b200ac8c7c3b925",
            "0x000000000000000000000000f6f45ccb5e85d1400067ee66f9e168f83e86124e",
            "0x000000000000000000000000397f939c3b91a74c321ea7129396492ba9cdce82"
          ],
          "data": "0x000000000000000000000000000000000000000000000000000009184e72a000",
          "blockHash": "0xc77016fde1ec3305b66756f8ca79fd9d441991e2db53f968b4fa877dcbdc8040",
          "blockNumber": "0x201f6aa",
          "transactionHash": "0x529466027542033f0253c56a602ef8152c6e2db5b8b051ef93f3095b1a8e051b",
          "transactionIndex": "0x1",
          "logIndex": "0x3",
          "removed": false
        },
        {
          "address": "0x397f939c3b91a74c321ea7129396492ba9cdce82",
          "topics": [
            "0xddf252ad1be2c89b69c2b068fc378daa952ba7f163c4a11628f55a4df523b3ef",
            "0x000000000000000000000000f6f45ccb5e85d1400067ee66f9e168f83e86124e",
            "0x0000000000000000000000000000000000000000000000000000000000000000"
          ],
          "data": "0x000000000000000000000000000000000000000000000000000009184e72a000",
          "blockHash": "0xc77016fde1ec3305b66756f8ca79fd9d441991e2db53f968b4fa877dcbdc8040",
          "blockNumber": "0x201f6aa",
          "transactionHash": "0x529466027542033f0253c56a602ef8152c6e2db5b8b051ef93f3095b1a8e051b",
          "transactionIndex": "0x1",
          "logIndex": "0x4",
          "removed": false
        },
        {
          "address": "0x9bbeb2b2184b9313cf5ed4a4ddfea2ef62a2a03b",
          "topics": [
            "0x61ed099e74a97a1d7f8bb0952a88ca8b7b8ebd00c126ea04671f92a81213318a"
          ],
          "data": "0x000000000000000000000000581b26f362ad383f7b51ef8a165efa13dde398a4000000000000000000000000000000000000000000000000000007f9bf1dd6e1",
          "blockHash": "0xc77016fde1ec3305b66756f8ca79fd9d441991e2db53f968b4fa877dcbdc8040",
          "blockNumber": "0x201f6aa",
          "transactionHash": "0x529466027542033f0253c56a602ef8152c6e2db5b8b051ef93f3095b1a8e051b",
          "transactionIndex": "0x1",
          "logIndex": "0x5",
          "removed": false
        },
        {
          "address": "0x9bbeb2b2184b9313cf5ed4a4ddfea2ef62a2a03b",
          "topics": [
            "0x07ea52d82345d6e838192107d8fd7123d9c2ec8e916cd0aad13fd2b60db24644"
          ],
          "data": "0x0000000000000000000000000000000000000000000000000000000000000060000000000000000000000000000000000000000000000000000000000000012000000000000000000000000000000000000000000000000000000000000001400000000000000000000000000000000000000000000000000000000000000005000000000000000000000000446755349101cb20c582c224462c3912d3584dce0000000000000000000000007fe673201724925b5c477d4e1a4bd3e954688cf500000000000000000000000093bb6f93fa90a18e88a27bcfbcb048f7e14733c6000000000000000000000000be0d08a85eebfcc6eda0a843521f7cbb1180d2e2000000000000000000000000df44a1594d3d516f7cdfb4dc275a79a5f6e3db1d00000000000000000000000000000000000000000000000000000000000000000000000000000000000000000000000000000000000000000000000000000005000000000000000000000000000000000000000000000000000000d55662ab3f000000000000000000000000000000000000000000000000000000e85cb05be60000000000000000000000000000000000000000000000000000012af2c04630000000000000000000000000000000000000000000000000000000e85cb05be600000000000000000000000000000000000000000000000000000117ec729589",
          "blockHash": "0xc77016fde1ec3305b66756f8ca79fd9d441991e2db53f968b4fa877dcbdc8040",
          "blockNumber": "0x201f6aa",
          "transactionHash": "0x529466027542033f0253c56a602ef8152c6e2db5b8b051ef93f3095b1a8e051b",
          "transactionIndex": "0x1",
          "logIndex": "0x6",
          "removed": false
        },
        {
          "address": "0x1a44076050125825900e736c501f859c50fe728c",
          "topics": [
            "0x1ab700d4ced0c005b164c0f789fd09fcbb0156d4c2041b8a3bfbcd961cd1567f"
          ],
          "data": "0x000000000000000000000000000000000000000000000000000000000000006000000000000000000000000000000000000000000000000000000000000001800000000000000000000000009bbeb2b2184b9313cf5ed4a4ddfea2ef62a2a03b00000000000000000000000000000000000000000000000000000000000000f901000000000000008e00007606000000000000000000000000397f939c3b91a74c321ea7129396492ba9cdce820000762f00000000000000000000000096a394058e2b84a89bac9667b19661ed003cf5d43cd6ae330f73651c2096dd0a5b82ccfb2528c770173513d9a787c8e43e99862a0000000000000000000000002a2019b30c157db6c1c01306b8025167dbe1803b000000000000000a000000000000000000000000f6f45ccb5e85d1400067ee66f9e168f83e86124e00000000000000000000000045dce8e4f2dc005a5f28206a46cb034697eeda8e000000000000000000000000000000000000000000000000000000000000764200000000000000000000000000000000000000000000000000000000000000000000000000002c0003010011010000000000000000000000000003d090010013030000000000000000000000000000000f42400000000000000000000000000000000000000000",
          "blockHash": "0xc77016fde1ec3305b66756f8ca79fd9d441991e2db53f968b4fa877dcbdc8040",
          "blockNumber": "0x201f6aa",
          "transactionHash": "0x529466027542033f0253c56a602ef8152c6e2db5b8b051ef93f3095b1a8e051b",
          "transactionIndex": "0x1",
          "logIndex": "0x7",
          "removed": false
        },
        {
          "address": "0x397f939c3b91a74c321ea7129396492ba9cdce82",
          "topics": [
            "0x85496b760a4b7f8d66384b9df21b381f5d1b1e79f229a47aaf4c232edc2fe59a",
            "0x3cd6ae330f73651c2096dd0a5b82ccfb2528c770173513d9a787c8e43e99862a",
            "0x000000000000000000000000f6f45ccb5e85d1400067ee66f9e168f83e86124e"
          ],
          "data": "0x000000000000000000000000000000000000000000000000000000000000762f000000000000000000000000000000000000000000000000000009184e72a000000000000000000000000000000000000000000000000000000009184e72a000",
          "blockHash": "0xc77016fde1ec3305b66756f8ca79fd9d441991e2db53f968b4fa877dcbdc8040",
          "blockNumber": "0x201f6aa",
          "transactionHash": "0x529466027542033f0253c56a602ef8152c6e2db5b8b051ef93f3095b1a8e051b",
          "transactionIndex": "0x1",
          "logIndex": "0x8",
          "removed": false
        },
        {
          "address": "0xf6f45ccb5e85d1400067ee66f9e168f83e86124e",
          "topics": [
            "0xbc9ee36b6ca0bdd5b3840e6d329dd19a2490d880c7ce24d9818aa593adfb35be",
            "0x00000000000000000000000045dce8e4f2dc005a5f28206a46cb034697eeda8e",
            "0x0000000000000000000000000000000000000000000000000000000000007642",
            "0x00000000000000000000000045dce8e4f2dc005a5f28206a46cb034697eeda8e"
          ],
          "data": "0x000000000000000000000000397f939c3b91a74c321ea7129396492ba9cdce82000000000000000000000000000000000000000000000000000009184e72a000",
          "blockHash": "0xc77016fde1ec3305b66756f8ca79fd9d441991e2db53f968b4fa877dcbdc8040",
          "blockNumber": "0x201f6aa",
          "transactionHash": "0x529466027542033f0253c56a602ef8152c6e2db5b8b051ef93f3095b1a8e051b",
          "transactionIndex": "0x1",
          "logIndex": "0x9",
          "removed": false
        }
      ],
      "logsBloom": "0x00000000001000000000008200000080000000000000000000000000001000008000000000000000000000000000000000000000000000000000000000200000000002000000000000020008000100000000100000000000000000000000000000000000020000008040000200000800000000000010101000200010000000000000000010000000000000080040100000000000000000000008000000000000020000108000000020100000000000000000000000400000000442000000000000000402000000000000000080000000021000000000000000001000000020000010040000000100000000000000802000000000018000000000200000000000",
      "type": "0x2",
      "transactionHash": "0x529466027542033f0253c56a602ef8152c6e2db5b8b051ef93f3095b1a8e051b",
      "transactionIndex": "0x1",
      "blockHash": "0xc77016fde1ec3305b66756f8ca79fd9d441991e2db53f968b4fa877dcbdc8040",
      "blockNumber": "0x201f6aa",
      "gasUsed": "0x9660a",
      "effectiveGasPrice": "0x1d52c",
      "from": "0x45dce8e4f2dc005a5f28206a46cb034697eeda8e",
      "to": "0xf6f45ccb5e85d1400067ee66f9e168f83e86124e",
      "contractAddress": null,
      "l1Fee": "0xc24724c697"
    },
    {
      "status": "0x1",
      "cumulativeGasUsed": "0xb0940",
      "logs": [
        {
          "address": "0xc6b2be25d65760b826d0c852fd35f364250619c2",
          "topics": [
            "0x8c5be1e5ebec7d5bd14f71427d1e84f3dd0314c0f7b2291e5b200ac8c7c3b925",
            "0x00000000000000000000000045dce8e4f2dc005a5f28206a46cb034697eeda8e",
            "0x000000000000000000000000f6f45ccb5e85d1400067ee66f9e168f83e86124e"
          ],
          "data": "0x000000000000000000000000000000000000000000000000000009184e72a000",
          "blockHash": "0xc77016fde1ec3305b66756f8ca79fd9d441991e2db53f968b4fa877dcbdc8040",
          "blockNumber": "0x201f6aa",
          "transactionHash": "0xfacb1ba03d8ed5eafa703b86e2b6b4e5d4a1c2671d805b4b2e38ab8f50f6f367",
          "transactionIndex": "0x2",
          "logIndex": "0xa",
          "removed": false
        }
      ],
      "logsBloom": "0x00000000001000000000000200000000000000000000000000000000000000000000000000000000000000000000000000000000000800000000000000200000000000000000000000000000000000000000000000000000000000000000000000000000000000000000000000000000000000000000000000000000001000000000000000000000000000000000100000000000000000000000000000000000020000000000000000000000000000000000000000000000000000000000000000000000000010000000000000000000001000000000000000000000000000000010000000000000000000000000800000000000000000000000200000000000",
      "type": "0x2",
      "transactionHash": "0xfacb1ba03d8ed5eafa703b86e2b6b4e5d4a1c2671d805b4b2e38ab8f50f6f367",
      "transactionIndex": "0x2",
      "blockHash": "0xc77016fde1ec3305b66756f8ca79fd9d441991e2db53f968b4fa877dcbdc8040",
      "blockNumber": "0x201f6aa",
      "gasUsed": "0xd190",
      "effectiveGasPrice": "0x1d52c",
      "from": "0x45dce8e4f2dc005a5f28206a46cb034697eeda8e",
      "to": "0xc6b2be25d65760b826d0c852fd35f364250619c2",
      "contractAddress": null,
      "l1Fee": "0x9fd64603f1"
    },
    {
      "status": "0x1",
      "cumulativeGasUsed": "0x146c8f",
      "logs": [
        {
          "address": "0xc6b2be25d65760b826d0c852fd35f364250619c2",
          "topics": [
            "0x8c5be1e5ebec7d5bd14f71427d1e84f3dd0314c0f7b2291e5b200ac8c7c3b925",
            "0x00000000000000000000000045dce8e4f2dc005a5f28206a46cb034697eeda8e",
            "0x000000000000000000000000f6f45ccb5e85d1400067ee66f9e168f83e86124e"
          ],
          "data": "0x0000000000000000000000000000000000000000000000000000000000000000",
          "blockHash": "0xc77016fde1ec3305b66756f8ca79fd9d441991e2db53f968b4fa877dcbdc8040",
          "blockNumber": "0x201f6aa",
          "transactionHash": "0x3201e8bf1e77ab64a6124f54929d473a5196479cfdc000b2998bfca2f749dd30",
          "transactionIndex": "0x3",
          "logIndex": "0xb",
          "removed": false
        },
        {
          "address": "0xc6b2be25d65760b826d0c852fd35f364250619c2",
          "topics": [
            "0xddf252ad1be2c89b69c2b068fc378daa952ba7f163c4a11628f55a4df523b3ef",
            "0x00000000000000000000000045dce8e4f2dc005a5f28206a46cb034697eeda8e",
            "0x000000000000000000000000f6f45ccb5e85d1400067ee66f9e168f83e86124e"
          ],
          "data": "0x000000000000000000000000000000000000000000000000000009184e72a000",
          "blockHash": "0xc77016fde1ec3305b66756f8ca79fd9d441991e2db53f968b4fa877dcbdc8040",
          "blockNumber": "0x201f6aa",
          "transactionHash": "0x3201e8bf1e77ab64a6124f54929d473a5196479cfdc000b2998bfca2f749dd30",
          "transactionIndex": "0x3",
          "logIndex": "0xc",
          "removed": false
        },
        {
          "address": "0xc6b2be25d65760b826d0c852fd35f364250619c2",
          "topics": [
            "0x8c5be1e5ebec7d5bd14f71427d1e84f3dd0314c0f7b2291e5b200ac8c7c3b925",
            "0x000000000000000000000000f6f45ccb5e85d1400067ee66f9e168f83e86124e",
            "0x000000000000000000000000c6b2be25d65760b826d0c852fd35f364250619c2"
          ],
          "data": "0x000000000000000000000000000000000000000000000000000009184e72a000",
          "blockHash": "0xc77016fde1ec3305b66756f8ca79fd9d441991e2db53f968b4fa877dcbdc8040",
          "blockNumber": "0x201f6aa",
          "transactionHash": "0x3201e8bf1e77ab64a6124f54929d473a5196479cfdc000b2998bfca2f749dd30",
          "transactionIndex": "0x3",
          "logIndex": "0xd",
          "removed": false
        },
        {
          "address": "0xc6b2be25d65760b826d0c852fd35f364250619c2",
          "topics": [
            "0xddf252ad1be2c89b69c2b068fc378daa952ba7f163c4a11628f55a4df523b3ef",
            "0x000000000000000000000000f6f45ccb5e85d1400067ee66f9e168f83e86124e",
            "0x0000000000000000000000000000000000000000000000000000000000000000"
          ],
          "data": "0x000000000000000000000000000000000000000000000000000009184e72a000",
          "blockHash": "0xc77016fde1ec3305b66756f8ca79fd9d441991e2db53f968b4fa877dcbdc8040",
          "blockNumber": "0x201f6aa",
          "transactionHash": "0x3201e8bf1e77ab64a6124f54929d473a5196479cfdc000b2998bfca2f749dd30",
          "transactionIndex": "0x3",
          "logIndex": "0xe",
          "removed": false
        },
        {
          "address": "0x9bbeb2b2184b9313cf5ed4a4ddfea2ef62a2a03b",
          "topics": [
            "0x61ed099e74a97a1d7f8bb0952a88ca8b7b8ebd00c126ea04671f92a81213318a"
          ],
          "data": "0x000000000000000000000000581b26f362ad383f7b51ef8a165efa13dde398a4000000000000000000000000000000000000000000000000000007f9bf1dd6e1",
          "blockHash": "0xc77016fde1ec3305b66756f8ca79fd9d441991e2db53f968b4fa877dcbdc8040",
          "blockNumber": "0x201f6aa",
          "transactionHash": "0x3201e8bf1e77ab64a6124f54929d473a5196479cfdc000b2998bfca2f749dd30",
          "transactionIndex": "0x3",
          "logIndex": "0xf",
          "removed": false
        },
        {
          "address": "0x9bbeb2b2184b9313cf5ed4a4ddfea2ef62a2a03b",
          "topics": [
            "0x07ea52d82345d6e838192107d8fd7123d9c2ec8e916cd0aad13fd2b60db24644"
          ],
          "data": "0x0000000000000000000000000000000000000000000000000000000000000060000000000000000000000000000000000000000000000000000000000000012000000000000000000000000000000000000000000000000000000000000001400000000000000000000000000000000000000000000000000000000000000005000000000000000000000000446755349101cb20c582c224462c3912d3584dce0000000000000000000000007fe673201724925b5c477d4e1a4bd3e954688cf500000000000000000000000093bb6f93fa90a18e88a27bcfbcb048f7e14733c6000000000000000000000000be0d08a85eebfcc6eda0a843521f7cbb1180d2e2000000000000000000000000df44a1594d3d516f7cdfb4dc275a79a5f6e3db1d00000000000000000000000000000000000000000000000000000000000000000000000000000000000000000000000000000000000000000000000000000005000000000000000000000000000000000000000000000000000000d55662ab3f000000000000000000000000000000000000000000000000000000e85cb05be60000000000000000000000000000000000000000000000000000012af2c04630000000000000000000000000000000000000000000000000000000e85cb05be600000000000000000000000000000000000000000000000000000117ec729589",
          "blockHash": "0xc77016fde1ec3305b66756f8ca79fd9d441991e2db53f968b4fa877dcbdc8040",
          "blockNumber": "0x201f6aa",
          "transactionHash": "0x3201e8bf1e77ab64a6124f54929d473a5196479cfdc000b2998bfca2f749dd30",
          "transactionIndex": "0x3",
          "logIndex": "0x10",
          "removed": false
        },
        {
          "address": "0x1a44076050125825900e736c501f859c50fe728c",
          "topics": [
            "0x1ab700d4ced0c005b164c0f789fd09fcbb0156d4c2041b8a3bfbcd961cd1567f"
          ],
          "data": "0x000000000000000000000000000000000000000000000000000000000000006000000000000000000000000000000000000000000000000000000000000001800000000000000000000000009bbeb2b2184b9313cf5ed4a4ddfea2ef62a2a03b00000000000000000000000000000000000000000000000000000000000000f901000000000000000200007606000000000000000000000000c6b2be25d65760b826d0c852fd35f364250619c20000762f00000000000000000000000088aa7854d3b2daa5e37e7ce73a1f39669623a36143862654dd98976399a57f3cd01ea509fa5e71b8ca419b3b2b9ca792d218bebf0000000000000000000000002a2019b30c157db6c1c01306b8025167dbe1803b000000000000000a000000000000000000000000f6f45ccb5e85d1400067ee66f9e168f83e86124e00000000000000000000000045dce8e4f2dc005a5f28206a46cb034697eeda8e000000000000000000000000000000000000000000000000000000000000764200000000000000000000000000000000000000000000000000000000000000000000000000002c0003010011010000000000000000000000000003d090010013030000000000000000000000000000000f42400000000000000000000000000000000000000000",
          "blockHash": "0xc77016fde1ec3305b66756f8ca79fd9d441991e2db53f968b4fa877dcbdc8040",
          "blockNumber": "0x201f6aa",
          "transactionHash": "0x3201e8bf1e77ab64a6124f54929d473a5196479cfdc000b2998bfca2f749dd30",
          "transactionIndex": "0x3",
          "logIndex": "0x11",
          "removed": false
        },
        {
          "address": "0xc6b2be25d65760b826d0c852fd35f364250619c2",
          "topics": [
            "0x85496b760a4b7f8d66384b9df21b381f5d1b1e79f229a47aaf4c232edc2fe59a",
            "0x43862654dd98976399a57f3cd01ea509fa5e71b8ca419b3b2b9ca792d218bebf",
            "0x000000000000000000000000f6f45ccb5e85d1400067ee66f9e168f83e86124e"
          ],
          "data": "0x000000000000000000000000000000000000000000000000000000000000762f000000000000000000000000000000000000000000000000000009184e72a000000000000000000000000000000000000000000000000000000009184e72a000",
          "blockHash": "0xc77016fde1ec3305b66756f8ca79fd9d441991e2db53f968b4fa877dcbdc8040",
          "blockNumber": "0x201f6aa",
          "transactionHash": "0x3201e8bf1e77ab64a6124f54929d473a5196479cfdc000b2998bfca2f749dd30",
          "transactionIndex": "0x3",
          "logIndex": "0x12",
          "removed": false
        },
        {
          "address": "0xf6f45ccb5e85d1400067ee66f9e168f83e86124e",
          "topics": [
            "0xbc9ee36b6ca0bdd5b3840e6d329dd19a2490d880c7ce24d9818aa593adfb35be",
            "0x00000000000000000000000045dce8e4f2dc005a5f28206a46cb034697eeda8e",
            "0x0000000000000000000000000000000000000000000000000000000000007642",
            "0x00000000000000000000000045dce8e4f2dc005a5f28206a46cb034697eeda8e"
          ],
          "data": "0x000000000000000000000000c6b2be25d65760b826d0c852fd35f364250619c2000000000000000000000000000000000000000000000000000009184e72a000",
          "blockHash": "0xc77016fde1ec3305b66756f8ca79fd9d441991e2db53f968b4fa877dcbdc8040",
          "blockNumber": "0x201f6aa",
          "transactionHash": "0x3201e8bf1e77ab64a6124f54929d473a5196479cfdc000b2998bfca2f749dd30",
          "transactionIndex": "0x3",
          "logIndex": "0x13",
          "removed": false
        }
      ],
      "logsBloom": "0x00000000001000000000000200000000000000000010000000000000001000000000000000000000000000000000000000000000000800000000004000200000000002000000000000020008000100000000000000000000004000000000000000000000020000008040000200000800000000000010101000000010001000000000000010000000080000080000100000000000200000000008000000000000020000108000000020100000000000000000000000400000000440000000000000000402000010000000000080000000021000000000000000000000000020000010040000000000800000000000802000000000018000000000200000000000",
      "type": "0x2",
      "transactionHash": "0x3201e8bf1e77ab64a6124f54929d473a5196479cfdc000b2998bfca2f749dd30",
      "transactionIndex": "0x3",
      "blockHash": "0xc77016fde1ec3305b66756f8ca79fd9d441991e2db53f968b4fa877dcbdc8040",
      "blockNumber": "0x201f6aa",
      "gasUsed": "0x9634f",
      "effectiveGasPrice": "0x1d52c",
      "from": "0x45dce8e4f2dc005a5f28206a46cb034697eeda8e",
      "to": "0xf6f45ccb5e85d1400067ee66f9e168f83e86124e",
      "contractAddress": null,
      "l1Fee": "0xc24724c697"
    },
    {
      "status": "0x1",
      "cumulativeGasUsed": "0x153e35",
      "logs": [
        {
          "address": "0x0097cf8ee15800d4f80da8a6ce4df360d9449ed5",
          "topics": [
            "0x8c5be1e5ebec7d5bd14f71427d1e84f3dd0314c0f7b2291e5b200ac8c7c3b925",
            "0x00000000000000000000000045dce8e4f2dc005a5f28206a46cb034697eeda8e",
            "0x000000000000000000000000f6f45ccb5e85d1400067ee66f9e168f83e86124e"
          ],
          "data": "0x000000000000000000000000000000000000000000000000000009184e72a000",
          "blockHash": "0xc77016fde1ec3305b66756f8ca79fd9d441991e2db53f968b4fa877dcbdc8040",
          "blockNumber": "0x201f6aa",
          "transactionHash": "0x16955fe485065dee9eca9469af0760d97f162e3ac10356bf4e6a8dcc24ff2d40",
          "transactionIndex": "0x4",
          "logIndex": "0x14",
          "removed": false
        }
      ],
      "logsBloom": "0x00000000001000000000000200000000000000000000000000000000000000000000000000000000000000000000000000000000000000000000000000200000000000000000000000000000000000000000000000000000000000000000000000000000000000000008000000000000000000000000000000000000000000000000000000000000000000000000100000000000000000000000000000000000020006000000000000000000000000000000000000000000000000000000000000000000000000000000000000000000001000000000000000000000000000000010000000000000000000000000800000000000000000000000200000000000",
      "type": "0x2",
      "transactionHash": "0x16955fe485065dee9eca9469af0760d97f162e3ac10356bf4e6a8dcc24ff2d40",
      "transactionIndex": "0x4",
      "blockHash": "0xc77016fde1ec3305b66756f8ca79fd9d441991e2db53f968b4fa877dcbdc8040",
      "blockNumber": "0x201f6aa",
      "gasUsed": "0xd1a6",
      "effectiveGasPrice": "0x1d52c",
      "from": "0x45dce8e4f2dc005a5f28206a46cb034697eeda8e",
      "to": "0x0097cf8ee15800d4f80da8a6ce4df360d9449ed5",
      "contractAddress": null,
      "l1Fee": "0x9fd64603f1"
    },
    {
      "status": "0x1",
      "cumulativeGasUsed": "0x1ea182",
      "logs": [
        {
          "address": "0x0097cf8ee15800d4f80da8a6ce4df360d9449ed5",
          "topics": [
            "0x8c5be1e5ebec7d5bd14f71427d1e84f3dd0314c0f7b2291e5b200ac8c7c3b925",
            "0x00000000000000000000000045dce8e4f2dc005a5f28206a46cb034697eeda8e",
            "0x000000000000000000000000f6f45ccb5e85d1400067ee66f9e168f83e86124e"
          ],
          "data": "0x0000000000000000000000000000000000000000000000000000000000000000",
          "blockHash": "0xc77016fde1ec3305b66756f8ca79fd9d441991e2db53f968b4fa877dcbdc8040",
          "blockNumber": "0x201f6aa",
          "transactionHash": "0x73739e3a14064ed6daacd98467a1e6c969e8ea0d3bef4722d5485c91868e2f08",
          "transactionIndex": "0x5",
          "logIndex": "0x15",
          "removed": false
        },
        {
          "address": "0x0097cf8ee15800d4f80da8a6ce4df360d9449ed5",
          "topics": [
            "0xddf252ad1be2c89b69c2b068fc378daa952ba7f163c4a11628f55a4df523b3ef",
            "0x00000000000000000000000045dce8e4f2dc005a5f28206a46cb034697eeda8e",
            "0x000000000000000000000000f6f45ccb5e85d1400067ee66f9e168f83e86124e"
          ],
          "data": "0x000000000000000000000000000000000000000000000000000009184e72a000",
          "blockHash": "0xc77016fde1ec3305b66756f8ca79fd9d441991e2db53f968b4fa877dcbdc8040",
          "blockNumber": "0x201f6aa",
          "transactionHash": "0x73739e3a14064ed6daacd98467a1e6c969e8ea0d3bef4722d5485c91868e2f08",
          "transactionIndex": "0x5",
          "logIndex": "0x16",
          "removed": false
        },
        {
          "address": "0x0097cf8ee15800d4f80da8a6ce4df360d9449ed5",
          "topics": [
            "0x8c5be1e5ebec7d5bd14f71427d1e84f3dd0314c0f7b2291e5b200ac8c7c3b925",
            "0x000000000000000000000000f6f45ccb5e85d1400067ee66f9e168f83e86124e",
            "0x0000000000000000000000000097cf8ee15800d4f80da8a6ce4df360d9449ed5"
          ],
          "data": "0x000000000000000000000000000000000000000000000000000009184e72a000",
          "blockHash": "0xc77016fde1ec3305b66756f8ca79fd9d441991e2db53f968b4fa877dcbdc8040",
          "blockNumber": "0x201f6aa",
          "transactionHash": "0x73739e3a14064ed6daacd98467a1e6c969e8ea0d3bef4722d5485c91868e2f08",
          "transactionIndex": "0x5",
          "logIndex": "0x17",
          "removed": false
        },
        {
          "address": "0x0097cf8ee15800d4f80da8a6ce4df360d9449ed5",
          "topics": [
            "0xddf252ad1be2c89b69c2b068fc378daa952ba7f163c4a11628f55a4df523b3ef",
            "0x000000000000000000000000f6f45ccb5e85d1400067ee66f9e168f83e86124e",
            "0x0000000000000000000000000000000000000000000000000000000000000000"
          ],
          "data": "0x000000000000000000000000000000000000000000000000000009184e72a000",
          "blockHash": "0xc77016fde1ec3305b66756f8ca79fd9d441991e2db53f968b4fa877dcbdc8040",
          "blockNumber": "0x201f6aa",
          "transactionHash": "0x73739e3a14064ed6daacd98467a1e6c969e8ea0d3bef4722d5485c91868e2f08",
          "transactionIndex": "0x5",
          "logIndex": "0x18",
          "removed": false
        },
        {
          "address": "0x9bbeb2b2184b9313cf5ed4a4ddfea2ef62a2a03b",
          "topics": [
            "0x61ed099e74a97a1d7f8bb0952a88ca8b7b8ebd00c126ea04671f92a81213318a"
          ],
          "data": "0x000000000000000000000000581b26f362ad383f7b51ef8a165efa13dde398a4000000000000000000000000000000000000000000000000000007f9bf1dd6e1",
          "blockHash": "0xc77016fde1ec3305b66756f8ca79fd9d441991e2db53f968b4fa877dcbdc8040",
          "blockNumber": "0x201f6aa",
          "transactionHash": "0x73739e3a14064ed6daacd98467a1e6c969e8ea0d3bef4722d5485c91868e2f08",
          "transactionIndex": "0x5",
          "logIndex": "0x19",
          "removed": false
        },
        {
          "address": "0x9bbeb2b2184b9313cf5ed4a4ddfea2ef62a2a03b",
          "topics": [
            "0x07ea52d82345d6e838192107d8fd7123d9c2ec8e916cd0aad13fd2b60db24644"
          ],
          "data": "0x0000000000000000000000000000000000000000000000000000000000000060000000000000000000000000000000000000000000000000000000000000012000000000000000000000000000000000000000000000000000000000000001400000000000000000000000000000000000000000000000000000000000000005000000000000000000000000446755349101cb20c582c224462c3912d3584dce0000000000000000000000007fe673201724925b5c477d4e1a4bd3e954688cf500000000000000000000000093bb6f93fa90a18e88a27bcfbcb048f7e14733c6000000000000000000000000be0d08a85eebfcc6eda0a843521f7cbb1180d2e2000000000000000000000000df44a1594d3d516f7cdfb4dc275a79a5f6e3db1d00000000000000000000000000000000000000000000000000000000000000000000000000000000000000000000000000000000000000000000000000000005000000000000000000000000000000000000000000000000000000d55662ab3f000000000000000000000000000000000000000000000000000000e85cb05be60000000000000000000000000000000000000000000000000000012af2c04630000000000000000000000000000000000000000000000000000000e85cb05be600000000000000000000000000000000000000000000000000000117ec729589",
          "blockHash": "0xc77016fde1ec3305b66756f8ca79fd9d441991e2db53f968b4fa877dcbdc8040",
          "blockNumber": "0x201f6aa",
          "transactionHash": "0x73739e3a14064ed6daacd98467a1e6c969e8ea0d3bef4722d5485c91868e2f08",
          "transactionIndex": "0x5",
          "logIndex": "0x1a",
          "removed": false
        },
        {
          "address": "0x1a44076050125825900e736c501f859c50fe728c",
          "topics": [
            "0x1ab700d4ced0c005b164c0f789fd09fcbb0156d4c2041b8a3bfbcd961cd1567f"
          ],
          "data": "0x000000000000000000000000000000000000000000000000000000000000006000000000000000000000000000000000000000000000000000000000000001800000000000000000000000009bbeb2b2184b9313cf5ed4a4ddfea2ef62a2a03b00000000000000000000000000000000000000000000000000000000000000f9010000000000000002000076060000000000000000000000000097cf8ee15800d4f80da8a6ce4df360d9449ed50000762f0000000000000000000000009abfe1f8a999b0011ecd6116649aee8d575f56045cd1c968432f9f3147bfc257fa1887d5756ef3f65f5d2973292b05cbf9405a740000000000000000000000002a2019b30c157db6c1c01306b8025167dbe1803b000000000000000a000000000000000000000000f6f45ccb5e85d1400067ee66f9e168f83e86124e00000000000000000000000045dce8e4f2dc005a5f28206a46cb034697eeda8e000000000000000000000000000000000000000000000000000000000000764200000000000000000000000000000000000000000000000000000000000000000000000000002c0003010011010000000000000000000000000003d090010013030000000000000000000000000000000f42400000000000000000000000000000000000000000",
          "blockHash": "0xc77016fde1ec3305b66756f8ca79fd9d441991e2db53f968b4fa877dcbdc8040",
          "blockNumber": "0x201f6aa",
          "transactionHash": "0x73739e3a14064ed6daacd98467a1e6c969e8ea0d3bef4722d5485c91868e2f08",
          "transactionIndex": "0x5",
          "logIndex": "0x1b",
          "removed": false
        },
        {
          "address": "0x0097cf8ee15800d4f80da8a6ce4df360d9449ed5",
          "topics": [
            "0x85496b760a4b7f8d66384b9df21b381f5d1b1e79f229a47aaf4c232edc2fe59a",
            "0x5cd1c968432f9f3147bfc257fa1887d5756ef3f65f5d2973292b05cbf9405a74",
            "0x000000000000000000000000f6f45ccb5e85d1400067ee66f9e168f83e86124e"
          ],
          "data": "0x000000000000000000000000000000000000000000000000000000000000762f000000000000000000000000000000000000000000000000000009184e72a000000000000000000000000000000000000000000000000000000009184e72a000",
          "blockHash": "0xc77016fde1ec3305b66756f8ca79fd9d441991e2db53f968b4fa877dcbdc8040",
          "blockNumber": "0x201f6aa",
          "transactionHash": "0x73739e3a14064ed6daacd98467a1e6c969e8ea0d3bef4722d5485c91868e2f08",
          "transactionIndex": "0x5",
          "logIndex": "0x1c",
          "removed": false
        },
        {
          "address": "0xf6f45ccb5e85d1400067ee66f9e168f83e86124e",
          "topics": [
            "0xbc9ee36b6ca0bdd5b3840e6d329dd19a2490d880c7ce24d9818aa593adfb35be",
            "0x00000000000000000000000045dce8e4f2dc005a5f28206a46cb034697eeda8e",
            "0x0000000000000000000000000000000000000000000000000000000000007642",
            "0x00000000000000000000000045dce8e4f2dc005a5f28206a46cb034697eeda8e"
          ],
          "data": "0x0000000000000000000000000097cf8ee15800d4f80da8a6ce4df360d9449ed5000000000000000000000000000000000000000000000000000009184e72a000",
          "blockHash": "0xc77016fde1ec3305b66756f8ca79fd9d441991e2db53f968b4fa877dcbdc8040",
          "blockNumber": "0x201f6aa",
          "transactionHash": "0x73739e3a14064ed6daacd98467a1e6c969e8ea0d3bef4722d5485c91868e2f08",
          "transactionIndex": "0x5",
          "logIndex": "0x1d",
          "removed": false
        }
      ],
      "logsBloom": "0x00000000001000000000000200000000000000000000000000000000001000000000000000000000000000000000000000000000000000000000000400200000000002000000200000020008000100000000000000000000000000000000000000000000020000008048000200000800000000000010101000000010000000000000000010000000000000080000100000000000000000000008000000000000020006108000000020100000000000000000000000400000000440000000000000000402000000000000000080080000023000000040000000000000000020000010040000000000000000000000802000000000018000000200200000000000",
      "type": "0x2",
      "transactionHash": "0x73739e3a14064ed6daacd98467a1e6c969e8ea0d3bef4722d5485c91868e2f08",
      "transactionIndex": "0x5",
      "blockHash": "0xc77016fde1ec3305b66756f8ca79fd9d441991e2db53f968b4fa877dcbdc8040",
      "blockNumber": "0x201f6aa",
      "gasUsed": "0x9634d",
      "effectiveGasPrice": "0x1d52c",
      "from": "0x45dce8e4f2dc005a5f28206a46cb034697eeda8e",
      "to": "0xf6f45ccb5e85d1400067ee66f9e168f83e86124e",
      "contractAddress": null,
      "l1Fee": "0xc13b23aa29"
    },
    {
      "status": "0x1",
      "cumulativeGasUsed": "0x1f7328",
      "logs": [
        {
          "address": "0x73382eb28f35d80df8c3fe04a3eed71b1afce5de",
          "topics": [
            "0x8c5be1e5ebec7d5bd14f71427d1e84f3dd0314c0f7b2291e5b200ac8c7c3b925",
            "0x00000000000000000000000045dce8e4f2dc005a5f28206a46cb034697eeda8e",
            "0x000000000000000000000000f6f45ccb5e85d1400067ee66f9e168f83e86124e"
          ],
          "data": "0x000000000000000000000000000000000000000000000000000009184e72a000",
          "blockHash": "0xc77016fde1ec3305b66756f8ca79fd9d441991e2db53f968b4fa877dcbdc8040",
          "blockNumber": "0x201f6aa",
          "transactionHash": "0x4e148a59c3c8787951f3a8f9df6819359e3f6d2c723d3f857aa63f5125495eed",
          "transactionIndex": "0x6",
          "logIndex": "0x1e",
          "removed": false
        }
      ],
      "logsBloom": "0x00000000001000000000000200000000000000000000000000000000000000000000000000000000000000000000000000000000000000000000000000200000000000000000000000000000000000000000200000000000000000000000000000000000000000000000000000000000000000000000000000000000000000000000000000000000000000000000100000000000000000000000000000000000020000000000000000000000000000000000000000000000000000000000000000000000000000000000000000000000001000001000000000000000000000000010000000000000008000000000800000000000000000000000200000000000",
      "type": "0x2",
      "transactionHash": "0x4e148a59c3c8787951f3a8f9df6819359e3f6d2c723d3f857aa63f5125495eed",
      "transactionIndex": "0x6",
      "blockHash": "0xc77016fde1ec3305b66756f8ca79fd9d441991e2db53f968b4fa877dcbdc8040",
      "blockNumber": "0x201f6aa",
      "gasUsed": "0xd1a6",
      "effectiveGasPrice": "0x1d52c",
      "from": "0x45dce8e4f2dc005a5f28206a46cb034697eeda8e",
      "to": "0x73382eb28f35d80df8c3fe04a3eed71b1afce5de",
      "contractAddress": null,
      "l1Fee": "0x9fd64603f1"
    },
    {
      "status": "0x1",
      "cumulativeGasUsed": "0x28d68d",
      "logs": [
        {
          "address": "0x73382eb28f35d80df8c3fe04a3eed71b1afce5de",
          "topics": [
            "0x8c5be1e5ebec7d5bd14f71427d1e84f3dd0314c0f7b2291e5b200ac8c7c3b925",
            "0x00000000000000000000000045dce8e4f2dc005a5f28206a46cb034697eeda8e",
            "0x000000000000000000000000f6f45ccb5e85d1400067ee66f9e168f83e86124e"
          ],
          "data": "0x0000000000000000000000000000000000000000000000000000000000000000",
          "blockHash": "0xc77016fde1ec3305b66756f8ca79fd9d441991e2db53f968b4fa877dcbdc8040",
          "blockNumber": "0x201f6aa",
          "transactionHash": "0x6d087e1bfc447b3a765d67f9bd0b63abb8ecc8b171df8537c8b6a7e1792e015f",
          "transactionIndex": "0x7",
          "logIndex": "0x1f",
          "removed": false
        },
        {
          "address": "0x73382eb28f35d80df8c3fe04a3eed71b1afce5de",
          "topics": [
            "0xddf252ad1be2c89b69c2b068fc378daa952ba7f163c4a11628f55a4df523b3ef",
            "0x00000000000000000000000045dce8e4f2dc005a5f28206a46cb034697eeda8e",
            "0x000000000000000000000000f6f45ccb5e85d1400067ee66f9e168f83e86124e"
          ],
          "data": "0x000000000000000000000000000000000000000000000000000009184e72a000",
          "blockHash": "0xc77016fde1ec3305b66756f8ca79fd9d441991e2db53f968b4fa877dcbdc8040",
          "blockNumber": "0x201f6aa",
          "transactionHash": "0x6d087e1bfc447b3a765d67f9bd0b63abb8ecc8b171df8537c8b6a7e1792e015f",
          "transactionIndex": "0x7",
          "logIndex": "0x20",
          "removed": false
        },
        {
          "address": "0x73382eb28f35d80df8c3fe04a3eed71b1afce5de",
          "topics": [
            "0x8c5be1e5ebec7d5bd14f71427d1e84f3dd0314c0f7b2291e5b200ac8c7c3b925",
            "0x000000000000000000000000f6f45ccb5e85d1400067ee66f9e168f83e86124e",
            "0x00000000000000000000000073382eb28f35d80df8c3fe04a3eed71b1afce5de"
          ],
          "data": "0x000000000000000000000000000000000000000000000000000009184e72a000",
          "blockHash": "0xc77016fde1ec3305b66756f8ca79fd9d441991e2db53f968b4fa877dcbdc8040",
          "blockNumber": "0x201f6aa",
          "transactionHash": "0x6d087e1bfc447b3a765d67f9bd0b63abb8ecc8b171df8537c8b6a7e1792e015f",
          "transactionIndex": "0x7",
          "logIndex": "0x21",
          "removed": false
        },
        {
          "address": "0x73382eb28f35d80df8c3fe04a3eed71b1afce5de",
          "topics": [
            "0xddf252ad1be2c89b69c2b068fc378daa952ba7f163c4a11628f55a4df523b3ef",
            "0x000000000000000000000000f6f45ccb5e85d1400067ee66f9e168f83e86124e",
            "0x0000000000000000000000000000000000000000000000000000000000000000"
          ],
          "data": "0x000000000000000000000000000000000000000000000000000009184e72a000",
          "blockHash": "0xc77016fde1ec3305b66756f8ca79fd9d441991e2db53f968b4fa877dcbdc8040",
          "blockNumber": "0x201f6aa",
          "transactionHash": "0x6d087e1bfc447b3a765d67f9bd0b63abb8ecc8b171df8537c8b6a7e1792e015f",
          "transactionIndex": "0x7",
          "logIndex": "0x22",
          "removed": false
        },
        {
          "address": "0x9bbeb2b2184b9313cf5ed4a4ddfea2ef62a2a03b",
          "topics": [
            "0x61ed099e74a97a1d7f8bb0952a88ca8b7b8ebd00c126ea04671f92a81213318a"
          ],
          "data": "0x000000000000000000000000581b26f362ad383f7b51ef8a165efa13dde398a4000000000000000000000000000000000000000000000000000007f9bf1dd6e1",
          "blockHash": "0xc77016fde1ec3305b66756f8ca79fd9d441991e2db53f968b4fa877dcbdc8040",
          "blockNumber": "0x201f6aa",
          "transactionHash": "0x6d087e1bfc447b3a765d67f9bd0b63abb8ecc8b171df8537c8b6a7e1792e015f",
          "transactionIndex": "0x7",
          "logIndex": "0x23",
          "removed": false
        },
        {
          "address": "0x9bbeb2b2184b9313cf5ed4a4ddfea2ef62a2a03b",
          "topics": [
            "0x07ea52d82345d6e838192107d8fd7123d9c2ec8e916cd0aad13fd2b60db24644"
          ],
          "data": "0x0000000000000000000000000000000000000000000000000000000000000060000000000000000000000000000000000000000000000000000000000000012000000000000000000000000000000000000000000000000000000000000001400000000000000000000000000000000000000000000000000000000000000005000000000000000000000000446755349101cb20c582c224462c3912d3584dce0000000000000000000000007fe673201724925b5c477d4e1a4bd3e954688cf500000000000000000000000093bb6f93fa90a18e88a27bcfbcb048f7e14733c6000000000000000000000000be0d08a85eebfcc6eda0a843521f7cbb1180d2e2000000000000000000000000df44a1594d3d516f7cdfb4dc275a79a5f6e3db1d00000000000000000000000000000000000000000000000000000000000000000000000000000000000000000000000000000000000000000000000000000005000000000000000000000000000000000000000000000000000000d55662ab3f000000000000000000000000000000000000000000000000000000e85cb05be60000000000000000000000000000000000000000000000000000012af2c04630000000000000000000000000000000000000000000000000000000e85cb05be600000000000000000000000000000000000000000000000000000117ec729589",
          "blockHash": "0xc77016fde1ec3305b66756f8ca79fd9d441991e2db53f968b4fa877dcbdc8040",
          "blockNumber": "0x201f6aa",
          "transactionHash": "0x6d087e1bfc447b3a765d67f9bd0b63abb8ecc8b171df8537c8b6a7e1792e015f",
          "transactionIndex": "0x7",
          "logIndex": "0x24",
          "removed": false
        },
        {
          "address": "0x1a44076050125825900e736c501f859c50fe728c",
          "topics": [
            "0x1ab700d4ced0c005b164c0f789fd09fcbb0156d4c2041b8a3bfbcd961cd1567f"
          ],
          "data": "0x000000000000000000000000000000000000000000000000000000000000006000000000000000000000000000000000000000000000000000000000000001800000000000000000000000009bbeb2b2184b9313cf5ed4a4ddfea2ef62a2a03b00000000000000000000000000000000000000000000000000000000000000f90100000000000000020000760600000000000000000000000073382eb28f35d80df8c3fe04a3eed71b1afce5de0000762f000000000000000000000000999dfabe3b1cc2ef66eb032eea42fea329bba168f452863c2bea9be5ed868f47b935b97c13b046f2a6b056c6dbe40b24c37c212a0000000000000000000000002a2019b30c157db6c1c01306b8025167dbe1803b000000000000000a000000000000000000000000f6f45ccb5e85d1400067ee66f9e168f83e86124e00000000000000000000000045dce8e4f2dc005a5f28206a46cb034697eeda8e000000000000000000000000000000000000000000000000000000000000764200000000000000000000000000000000000000000000000000000000000000000000000000002c0003010011010000000000000000000000000003d090010013030000000000000000000000000000000f42400000000000000000000000000000000000000000",
          "blockHash": "0xc77016fde1ec3305b66756f8ca79fd9d441991e2db53f968b4fa877dcbdc8040",
          "blockNumber": "0x201f6aa",
          "transactionHash": "0x6d087e1bfc447b3a765d67f9bd0b63abb8ecc8b171df8537c8b6a7e1792e015f",
          "transactionIndex": "0x7",
          "logIndex": "0x25",
          "removed": false
        },
        {
          "address": "0x73382eb28f35d80df8c3fe04a3eed71b1afce5de",
          "topics": [
            "0x85496b760a4b7f8d66384b9df21b381f5d1b1e79f229a47aaf4c232edc2fe59a",
            "0xf452863c2bea9be5ed868f47b935b97c13b046f2a6b056c6dbe40b24c37c212a",
            "0x000000000000000000000000f6f45ccb5e85d1400067ee66f9e168f83e86124e"
          ],
          "data": "0x000000000000000000000000000000000000000000000000000000000000762f000000000000000000000000000000000000000000000000000009184e72a000000000000000000000000000000000000000000000000000000009184e72a000",
          "blockHash": "0xc77016fde1ec3305b66756f8ca79fd9d441991e2db53f968b4fa877dcbdc8040",
          "blockNumber": "0x201f6aa",
          "transactionHash": "0x6d087e1bfc447b3a765d67f9bd0b63abb8ecc8b171df8537c8b6a7e1792e015f",
          "transactionIndex": "0x7",
          "logIndex": "0x26",
          "removed": false
        },
        {
          "address": "0xf6f45ccb5e85d1400067ee66f9e168f83e86124e",
          "topics": [
            "0xbc9ee36b6ca0bdd5b3840e6d329dd19a2490d880c7ce24d9818aa593adfb35be",
            "0x00000000000000000000000045dce8e4f2dc005a5f28206a46cb034697eeda8e",
            "0x0000000000000000000000000000000000000000000000000000000000007642",
            "0x00000000000000000000000045dce8e4f2dc005a5f28206a46cb034697eeda8e"
          ],
          "data": "0x00000000000000000000000073382eb28f35d80df8c3fe04a3eed71b1afce5de000000000000000000000000000000000000000000000000000009184e72a000",
          "blockHash": "0xc77016fde1ec3305b66756f8ca79fd9d441991e2db53f968b4fa877dcbdc8040",
          "blockNumber": "0x201f6aa",
          "transactionHash": "0x6d087e1bfc447b3a765d67f9bd0b63abb8ecc8b171df8537c8b6a7e1792e015f",
          "transactionIndex": "0x7",
          "logIndex": "0x27",
          "removed": false
        }
      ],
      "logsBloom": "0x00080000001000000000000200000000000000000000000000000000001000000000000000000000000000000000000000000004000000000000000000200040000002000000000000020008000100000000200000000000000000000000000000000000020000008040000200000800000000000010101000000010000000000000000010000000000000080000100000000000000000000008000000000081020000108000000020100000000000000000000000400000000440000000000000000402000000000000000080000000021000001000000000000000000020000010040000000000028000000000802000000000018000000000200000000000",
      "type": "0x2",
      "transactionHash": "0x6d087e1bfc447b3a765d67f9bd0b63abb8ecc8b171df8537c8b6a7e1792e015f",
      "transactionIndex": "0x7",
      "blockHash": "0xc77016fde1ec3305b66756f8ca79fd9d441991e2db53f968b4fa877dcbdc8040",
      "blockNumber": "0x201f6aa",
      "gasUsed": "0x96365",
      "effectiveGasPrice": "0x1d52c",
      "from": "0x45dce8e4f2dc005a5f28206a46cb034697eeda8e",
      "to": "0xf6f45ccb5e85d1400067ee66f9e168f83e86124e",
      "contractAddress": null,
      "l1Fee": "0xc24724c697"
    },
    {
      "status": "0x1",
      "cumulativeGasUsed": "0x29a81d",
      "logs": [
        {
          "address": "0x879ba0efe1ab0119fefa745a21585fa205b07907",
          "topics": [
            "0x8c5be1e5ebec7d5bd14f71427d1e84f3dd0314c0f7b2291e5b200ac8c7c3b925",
            "0x00000000000000000000000045dce8e4f2dc005a5f28206a46cb034697eeda8e",
            "0x000000000000000000000000f6f45ccb5e85d1400067ee66f9e168f83e86124e"
          ],
          "data": "0x000000000000000000000000000000000000000000000000000009184e72a000",
          "blockHash": "0xc77016fde1ec3305b66756f8ca79fd9d441991e2db53f968b4fa877dcbdc8040",
          "blockNumber": "0x201f6aa",
          "transactionHash": "0x546bff950efed121f4ae39007371fe2e9c8ed8daca0508545e1e660125e724e6",
          "transactionIndex": "0x8",
          "logIndex": "0x28",
          "removed": false
        }
      ],
      "logsBloom": "0x00000000001000000000000200000000000000000000000000000000000000000000000000000000000000000000000000000000000000020000000000200000001000000000000000000000000000000000000000000000000000000000000000000000000000000000000000000008000000000000000000000000000000000000000000000000000000000000100000000000000000000000000000000000020000000000000000000000000000000000000000000000000000000000000000000000000000000000000000000000001000000000000000000000000000000010000000000000000000000000800000000000000000000000200000000000",
      "type": "0x2",
      "transactionHash": "0x546bff950efed121f4ae39007371fe2e9c8ed8daca0508545e1e660125e724e6",
      "transactionIndex": "0x8",
      "blockHash": "0xc77016fde1ec3305b66756f8ca79fd9d441991e2db53f968b4fa877dcbdc8040",
      "blockNumber": "0x201f6aa",
      "gasUsed": "0xd190",
      "effectiveGasPrice": "0x1d52c",
      "from": "0x45dce8e4f2dc005a5f28206a46cb034697eeda8e",
      "to": "0x879ba0efe1ab0119fefa745a21585fa205b07907",
      "contractAddress": null,
      "l1Fee": "0x9fd64603f1"
    },
    {
      "status": "0x1",
      "cumulativeGasUsed": "0x32c8a0",
      "logs": [
        {
          "address": "0x879ba0efe1ab0119fefa745a21585fa205b07907",
          "topics": [
            "0x8c5be1e5ebec7d5bd14f71427d1e84f3dd0314c0f7b2291e5b200ac8c7c3b925",
            "0x00000000000000000000000045dce8e4f2dc005a5f28206a46cb034697eeda8e",
            "0x000000000000000000000000f6f45ccb5e85d1400067ee66f9e168f83e86124e"
          ],
          "data": "0x0000000000000000000000000000000000000000000000000000000000000000",
          "blockHash": "0xc77016fde1ec3305b66756f8ca79fd9d441991e2db53f968b4fa877dcbdc8040",
          "blockNumber": "0x201f6aa",
          "transactionHash": "0x93d744454e36f2b2e7388e5acad585a19c267b0baa199156c7d83841e4bfe486",
          "transactionIndex": "0x9",
          "logIndex": "0x29",
          "removed": false
        },
        {
          "address": "0x879ba0efe1ab0119fefa745a21585fa205b07907",
          "topics": [
            "0xddf252ad1be2c89b69c2b068fc378daa952ba7f163c4a11628f55a4df523b3ef",
            "0x00000000000000000000000045dce8e4f2dc005a5f28206a46cb034697eeda8e",
            "0x000000000000000000000000f6f45ccb5e85d1400067ee66f9e168f83e86124e"
          ],
          "data": "0x000000000000000000000000000000000000000000000000000009184e72a000",
          "blockHash": "0xc77016fde1ec3305b66756f8ca79fd9d441991e2db53f968b4fa877dcbdc8040",
          "blockNumber": "0x201f6aa",
          "transactionHash": "0x93d744454e36f2b2e7388e5acad585a19c267b0baa199156c7d83841e4bfe486",
          "transactionIndex": "0x9",
          "logIndex": "0x2a",
          "removed": false
        },
        {
          "address": "0x879ba0efe1ab0119fefa745a21585fa205b07907",
          "topics": [
            "0x8c5be1e5ebec7d5bd14f71427d1e84f3dd0314c0f7b2291e5b200ac8c7c3b925",
            "0x000000000000000000000000f6f45ccb5e85d1400067ee66f9e168f83e86124e",
            "0x000000000000000000000000879ba0efe1ab0119fefa745a21585fa205b07907"
          ],
          "data": "0x000000000000000000000000000000000000000000000000000009184e72a000",
          "blockHash": "0xc77016fde1ec3305b66756f8ca79fd9d441991e2db53f968b4fa877dcbdc8040",
          "blockNumber": "0x201f6aa",
          "transactionHash": "0x93d744454e36f2b2e7388e5acad585a19c267b0baa199156c7d83841e4bfe486",
          "transactionIndex": "0x9",
          "logIndex": "0x2b",
          "removed": false
        },
        {
          "address": "0x879ba0efe1ab0119fefa745a21585fa205b07907",
          "topics": [
            "0xddf252ad1be2c89b69c2b068fc378daa952ba7f163c4a11628f55a4df523b3ef",
            "0x000000000000000000000000f6f45ccb5e85d1400067ee66f9e168f83e86124e",
            "0x0000000000000000000000000000000000000000000000000000000000000000"
          ],
          "data": "0x000000000000000000000000000000000000000000000000000009184e72a000",
          "blockHash": "0xc77016fde1ec3305b66756f8ca79fd9d441991e2db53f968b4fa877dcbdc8040",
          "blockNumber": "0x201f6aa",
          "transactionHash": "0x93d744454e36f2b2e7388e5acad585a19c267b0baa199156c7d83841e4bfe486",
          "transactionIndex": "0x9",
          "logIndex": "0x2c",
          "removed": false
        },
        {
          "address": "0x9bbeb2b2184b9313cf5ed4a4ddfea2ef62a2a03b",
          "topics": [
            "0x61ed099e74a97a1d7f8bb0952a88ca8b7b8ebd00c126ea04671f92a81213318a"
          ],
          "data": "0x000000000000000000000000581b26f362ad383f7b51ef8a165efa13dde398a4000000000000000000000000000000000000000000000000000007f9bf1dd6e1",
          "blockHash": "0xc77016fde1ec3305b66756f8ca79fd9d441991e2db53f968b4fa877dcbdc8040",
          "blockNumber": "0x201f6aa",
          "transactionHash": "0x93d744454e36f2b2e7388e5acad585a19c267b0baa199156c7d83841e4bfe486",
          "transactionIndex": "0x9",
          "logIndex": "0x2d",
          "removed": false
        },
        {
          "address": "0x9bbeb2b2184b9313cf5ed4a4ddfea2ef62a2a03b",
          "topics": [
            "0x07ea52d82345d6e838192107d8fd7123d9c2ec8e916cd0aad13fd2b60db24644"
          ],
          "data": "0x0000000000000000000000000000000000000000000000000000000000000060000000000000000000000000000000000000000000000000000000000000012000000000000000000000000000000000000000000000000000000000000001400000000000000000000000000000000000000000000000000000000000000005000000000000000000000000446755349101cb20c582c224462c3912d3584dce0000000000000000000000007fe673201724925b5c477d4e1a4bd3e954688cf500000000000000000000000093bb6f93fa90a18e88a27bcfbcb048f7e14733c6000000000000000000000000be0d08a85eebfcc6eda0a843521f7cbb1180d2e2000000000000000000000000df44a1594d3d516f7cdfb4dc275a79a5f6e3db1d00000000000000000000000000000000000000000000000000000000000000000000000000000000000000000000000000000000000000000000000000000005000000000000000000000000000000000000000000000000000000d55662ab3f000000000000000000000000000000000000000000000000000000e85cb05be60000000000000000000000000000000000000000000000000000012af2c04630000000000000000000000000000000000000000000000000000000e85cb05be600000000000000000000000000000000000000000000000000000117ec729589",
          "blockHash": "0xc77016fde1ec3305b66756f8ca79fd9d441991e2db53f968b4fa877dcbdc8040",
          "blockNumber": "0x201f6aa",
          "transactionHash": "0x93d744454e36f2b2e7388e5acad585a19c267b0baa199156c7d83841e4bfe486",
          "transactionIndex": "0x9",
          "logIndex": "0x2e",
          "removed": false
        },
        {
          "address": "0x1a44076050125825900e736c501f859c50fe728c",
          "topics": [
            "0x1ab700d4ced0c005b164c0f789fd09fcbb0156d4c2041b8a3bfbcd961cd1567f"
          ],
          "data": "0x000000000000000000000000000000000000000000000000000000000000006000000000000000000000000000000000000000000000000000000000000001800000000000000000000000009bbeb2b2184b9313cf5ed4a4ddfea2ef62a2a03b00000000000000000000000000000000000000000000000000000000000000f901000000000000000300007606000000000000000000000000879ba0efe1ab0119fefa745a21585fa205b079070000762f000000000000000000000000d86fbbd0c8715d2c1f40e451e5c3514e65e7576ad3885975a6f4559e39a99e32eb51f4f483c4acd250866c28a1ee9575e2a2ed2f0000000000000000000000002a2019b30c157db6c1c01306b8025167dbe1803b000000000000000a000000000000000000000000f6f45ccb5e85d1400067ee66f9e168f83e86124e00000000000000000000000045dce8e4f2dc005a5f28206a46cb034697eeda8e000000000000000000000000000000000000000000000000000000000000764200000000000000000000000000000000000000000000000000000000000000000000000000002c0003010011010000000000000000000000000003d090010013030000000000000000000000000000000f42400000000000000000000000000000000000000000",
          "blockHash": "0xc77016fde1ec3305b66756f8ca79fd9d441991e2db53f968b4fa877dcbdc8040",
          "blockNumber": "0x201f6aa",
          "transactionHash": "0x93d744454e36f2b2e7388e5acad585a19c267b0baa199156c7d83841e4bfe486",
          "transactionIndex": "0x9",
          "logIndex": "0x2f",
          "removed": false
        },
        {
          "address": "0x879ba0efe1ab0119fefa745a21585fa205b07907",
          "topics": [
            "0x85496b760a4b7f8d66384b9df21b381f5d1b1e79f229a47aaf4c232edc2fe59a",
            "0xd3885975a6f4559e39a99e32eb51f4f483c4acd250866c28a1ee9575e2a2ed2f",
            "0x000000000000000000000000f6f45ccb5e85d1400067ee66f9e168f83e86124e"
          ],
          "data": "0x000000000000000000000000000000000000000000000000000000000000762f000000000000000000000000000000000000000000000000000009184e72a000000000000000000000000000000000000000000000000000000009184e72a000",
          "blockHash": "0xc77016fde1ec3305b66756f8ca79fd9d441991e2db53f968b4fa877dcbdc8040",
          "blockNumber": "0x201f6aa",
          "transactionHash": "0x93d744454e36f2b2e7388e5acad585a19c267b0baa199156c7d83841e4bfe486",
          "transactionIndex": "0x9",
          "logIndex": "0x30",
          "removed": false
        },
        {
          "address": "0xf6f45ccb5e85d1400067ee66f9e168f83e86124e",
          "topics": [
            "0xbc9ee36b6ca0bdd5b3840e6d329dd19a2490d880c7ce24d9818aa593adfb35be",
            "0x00000000000000000000000045dce8e4f2dc005a5f28206a46cb034697eeda8e",
            "0x0000000000000000000000000000000000000000000000000000000000007642",
            "0x00000000000000000000000045dce8e4f2dc005a5f28206a46cb034697eeda8e"
          ],
          "data": "0x000000000000000000000000879ba0efe1ab0119fefa745a21585fa205b07907000000000000000000000000000000000000000000000000000009184e72a000",
          "blockHash": "0xc77016fde1ec3305b66756f8ca79fd9d441991e2db53f968b4fa877dcbdc8040",
          "blockNumber": "0x201f6aa",
          "transactionHash": "0x93d744454e36f2b2e7388e5acad585a19c267b0baa199156c7d83841e4bfe486",
          "transactionIndex": "0x9",
          "logIndex": "0x31",
          "removed": false
        }
      ],
      "logsBloom": "0x00000000001000000000000200000000000000000000000000000000001000000000000000000000000000000000000000000000000000020000000000200000001002000000000800020008080100000000000000000000000000000000000000000000020000008040000200000808000000000010101000000010000000000000000010000000000000080000100000000000000000000008000000000000120000108000000020100000000000000000000000400000000440000400000000000402000000000000000080000000021000000000000000000000000020000010040000001000000000000000802000000000018000000000200002000000",
      "type": "0x2",
      "transactionHash": "0x93d744454e36f2b2e7388e5acad585a19c267b0baa199156c7d83841e4bfe486",
      "transactionIndex": "0x9",
      "blockHash": "0xc77016fde1ec3305b66756f8ca79fd9d441991e2db53f968b4fa877dcbdc8040",
      "blockNumber": "0x201f6aa",
      "gasUsed": "0x92083",
      "effectiveGasPrice": "0x1d52c",
      "from": "0x45dce8e4f2dc005a5f28206a46cb034697eeda8e",
      "to": "0xf6f45ccb5e85d1400067ee66f9e168f83e86124e",
      "contractAddress": null,
      "l1Fee": "0xc24724c697"
    },
    {
      "status": "0x1",
      "cumulativeGasUsed": "0x339a46",
      "logs": [
        {
          "address": "0x93cdc5d29293cb6983f059fec6e4ffeb656b6a62",
          "topics": [
            "0x8c5be1e5ebec7d5bd14f71427d1e84f3dd0314c0f7b2291e5b200ac8c7c3b925",
            "0x00000000000000000000000045dce8e4f2dc005a5f28206a46cb034697eeda8e",
            "0x000000000000000000000000f6f45ccb5e85d1400067ee66f9e168f83e86124e"
          ],
          "data": "0x000000000000000000000000000000000000000000000000000009184e72a000",
          "blockHash": "0xc77016fde1ec3305b66756f8ca79fd9d441991e2db53f968b4fa877dcbdc8040",
          "blockNumber": "0x201f6aa",
          "transactionHash": "0xd2d815b5ad0f23aaad74052bdad0e7a1cc45a839e51e0cb4806696a92ef8b32c",
          "transactionIndex": "0xa",
          "logIndex": "0x32",
          "removed": false
        }
      ],
      "logsBloom": "0x00000000005000000000000200000000000000000000000000000000000000000000000000000000000000000000000000000000000000000000000000200000000000000000000000000000000000000000000000000000000000000000000000000000000000000000000000000000000200000000000000000000000000000000000000000000000000000000100000000000000000000000000000000000020000000000000000000000000000000000000000000000000000000000000000000000000000000000000000000000001000000000000000000000000000000010000000000000000000000000800000400000000000000000200000000000",
      "type": "0x2",
      "transactionHash": "0xd2d815b5ad0f23aaad74052bdad0e7a1cc45a839e51e0cb4806696a92ef8b32c",
      "transactionIndex": "0xa",
      "blockHash": "0xc77016fde1ec3305b66756f8ca79fd9d441991e2db53f968b4fa877dcbdc8040",
      "blockNumber": "0x201f6aa",
      "gasUsed": "0xd1a6",
      "effectiveGasPrice": "0x1d52c",
      "from": "0x45dce8e4f2dc005a5f28206a46cb034697eeda8e",
      "to": "0x93cdc5d29293cb6983f059fec6e4ffeb656b6a62",
      "contractAddress": null,
      "l1Fee": "0x9fd64603f1"
    },
    {
      "status": "0x1",
      "cumulativeGasUsed": "0x3cfdab",
      "logs": [
        {
          "address": "0x93cdc5d29293cb6983f059fec6e4ffeb656b6a62",
          "topics": [
            "0x8c5be1e5ebec7d5bd14f71427d1e84f3dd0314c0f7b2291e5b200ac8c7c3b925",
            "0x00000000000000000000000045dce8e4f2dc005a5f28206a46cb034697eeda8e",
            "0x000000000000000000000000f6f45ccb5e85d1400067ee66f9e168f83e86124e"
          ],
          "data": "0x0000000000000000000000000000000000000000000000000000000000000000",
          "blockHash": "0xc77016fde1ec3305b66756f8ca79fd9d441991e2db53f968b4fa877dcbdc8040",
          "blockNumber": "0x201f6aa",
          "transactionHash": "0x558f6bc394509a01a28a75e0e4980fdab9959536d2f1aa16cc231b98bcd5689e",
          "transactionIndex": "0xb",
          "logIndex": "0x33",
          "removed": false
        },
        {
          "address": "0x93cdc5d29293cb6983f059fec6e4ffeb656b6a62",
          "topics": [
            "0xddf252ad1be2c89b69c2b068fc378daa952ba7f163c4a11628f55a4df523b3ef",
            "0x00000000000000000000000045dce8e4f2dc005a5f28206a46cb034697eeda8e",
            "0x000000000000000000000000f6f45ccb5e85d1400067ee66f9e168f83e86124e"
          ],
          "data": "0x000000000000000000000000000000000000000000000000000009184e72a000",
          "blockHash": "0xc77016fde1ec3305b66756f8ca79fd9d441991e2db53f968b4fa877dcbdc8040",
          "blockNumber": "0x201f6aa",
          "transactionHash": "0x558f6bc394509a01a28a75e0e4980fdab9959536d2f1aa16cc231b98bcd5689e",
          "transactionIndex": "0xb",
          "logIndex": "0x34",
          "removed": false
        },
        {
          "address": "0x93cdc5d29293cb6983f059fec6e4ffeb656b6a62",
          "topics": [
            "0x8c5be1e5ebec7d5bd14f71427d1e84f3dd0314c0f7b2291e5b200ac8c7c3b925",
            "0x000000000000000000000000f6f45ccb5e85d1400067ee66f9e168f83e86124e",
            "0x00000000000000000000000093cdc5d29293cb6983f059fec6e4ffeb656b6a62"
          ],
          "data": "0x000000000000000000000000000000000000000000000000000009184e72a000",
          "blockHash": "0xc77016fde1ec3305b66756f8ca79fd9d441991e2db53f968b4fa877dcbdc8040",
          "blockNumber": "0x201f6aa",
          "transactionHash": "0x558f6bc394509a01a28a75e0e4980fdab9959536d2f1aa16cc231b98bcd5689e",
          "transactionIndex": "0xb",
          "logIndex": "0x35",
          "removed": false
        },
        {
          "address": "0x93cdc5d29293cb6983f059fec6e4ffeb656b6a62",
          "topics": [
            "0xddf252ad1be2c89b69c2b068fc378daa952ba7f163c4a11628f55a4df523b3ef",
            "0x000000000000000000000000f6f45ccb5e85d1400067ee66f9e168f83e86124e",
            "0x0000000000000000000000000000000000000000000000000000000000000000"
          ],
          "data": "0x000000000000000000000000000000000000000000000000000009184e72a000",
          "blockHash": "0xc77016fde1ec3305b66756f8ca79fd9d441991e2db53f968b4fa877dcbdc8040",
          "blockNumber": "0x201f6aa",
          "transactionHash": "0x558f6bc394509a01a28a75e0e4980fdab9959536d2f1aa16cc231b98bcd5689e",
          "transactionIndex": "0xb",
          "logIndex": "0x36",
          "removed": false
        },
        {
          "address": "0x9bbeb2b2184b9313cf5ed4a4ddfea2ef62a2a03b",
          "topics": [
            "0x61ed099e74a97a1d7f8bb0952a88ca8b7b8ebd00c126ea04671f92a81213318a"
          ],
          "data": "0x000000000000000000000000581b26f362ad383f7b51ef8a165efa13dde398a4000000000000000000000000000000000000000000000000000007f9bf1dd6e1",
          "blockHash": "0xc77016fde1ec3305b66756f8ca79fd9d441991e2db53f968b4fa877dcbdc8040",
          "blockNumber": "0x201f6aa",
          "transactionHash": "0x558f6bc394509a01a28a75e0e4980fdab9959536d2f1aa16cc231b98bcd5689e",
          "transactionIndex": "0xb",
          "logIndex": "0x37",
          "removed": false
        },
        {
          "address": "0x9bbeb2b2184b9313cf5ed4a4ddfea2ef62a2a03b",
          "topics": [
            "0x07ea52d82345d6e838192107d8fd7123d9c2ec8e916cd0aad13fd2b60db24644"
          ],
          "data": "0x0000000000000000000000000000000000000000000000000000000000000060000000000000000000000000000000000000000000000000000000000000012000000000000000000000000000000000000000000000000000000000000001400000000000000000000000000000000000000000000000000000000000000005000000000000000000000000446755349101cb20c582c224462c3912d3584dce0000000000000000000000007fe673201724925b5c477d4e1a4bd3e954688cf500000000000000000000000093bb6f93fa90a18e88a27bcfbcb048f7e14733c6000000000000000000000000be0d08a85eebfcc6eda0a843521f7cbb1180d2e2000000000000000000000000df44a1594d3d516f7cdfb4dc275a79a5f6e3db1d00000000000000000000000000000000000000000000000000000000000000000000000000000000000000000000000000000000000000000000000000000005000000000000000000000000000000000000000000000000000000d55662ab3f000000000000000000000000000000000000000000000000000000e85cb05be60000000000000000000000000000000000000000000000000000012af2c04630000000000000000000000000000000000000000000000000000000e85cb05be600000000000000000000000000000000000000000000000000000117ec729589",
          "blockHash": "0xc77016fde1ec3305b66756f8ca79fd9d441991e2db53f968b4fa877dcbdc8040",
          "blockNumber": "0x201f6aa",
          "transactionHash": "0x558f6bc394509a01a28a75e0e4980fdab9959536d2f1aa16cc231b98bcd5689e",
          "transactionIndex": "0xb",
          "logIndex": "0x38",
          "removed": false
        },
        {
          "address": "0x1a44076050125825900e736c501f859c50fe728c",
          "topics": [
            "0x1ab700d4ced0c005b164c0f789fd09fcbb0156d4c2041b8a3bfbcd961cd1567f"
          ],
          "data": "0x000000000000000000000000000000000000000000000000000000000000006000000000000000000000000000000000000000000000000000000000000001800000000000000000000000009bbeb2b2184b9313cf5ed4a4ddfea2ef62a2a03b00000000000000000000000000000000000000000000000000000000000000f90100000000000000020000760600000000000000000000000093cdc5d29293cb6983f059fec6e4ffeb656b6a620000762f00000000000000000000000075c38d46001b0f8108c4136216bd2694982c20fceb0f8bad260bfc125896ab713492c92bcb8df3821615c1ca1ef9a89780553d410000000000000000000000002a2019b30c157db6c1c01306b8025167dbe1803b000000000000000a000000000000000000000000f6f45ccb5e85d1400067ee66f9e168f83e86124e00000000000000000000000045dce8e4f2dc005a5f28206a46cb034697eeda8e000000000000000000000000000000000000000000000000000000000000764200000000000000000000000000000000000000000000000000000000000000000000000000002c0003010011010000000000000000000000000003d090010013030000000000000000000000000000000f42400000000000000000000000000000000000000000",
          "blockHash": "0xc77016fde1ec3305b66756f8ca79fd9d441991e2db53f968b4fa877dcbdc8040",
          "blockNumber": "0x201f6aa",
          "transactionHash": "0x558f6bc394509a01a28a75e0e4980fdab9959536d2f1aa16cc231b98bcd5689e",
          "transactionIndex": "0xb",
          "logIndex": "0x39",
          "removed": false
        },
        {
          "address": "0x93cdc5d29293cb6983f059fec6e4ffeb656b6a62",
          "topics": [
            "0x85496b760a4b7f8d66384b9df21b381f5d1b1e79f229a47aaf4c232edc2fe59a",
            "0xeb0f8bad260bfc125896ab713492c92bcb8df3821615c1ca1ef9a89780553d41",
            "0x000000000000000000000000f6f45ccb5e85d1400067ee66f9e168f83e86124e"
          ],
          "data": "0x000000000000000000000000000000000000000000000000000000000000762f000000000000000000000000000000000000000000000000000009184e72a000000000000000000000000000000000000000000000000000000009184e72a000",
          "blockHash": "0xc77016fde1ec3305b66756f8ca79fd9d441991e2db53f968b4fa877dcbdc8040",
          "blockNumber": "0x201f6aa",
          "transactionHash": "0x558f6bc394509a01a28a75e0e4980fdab9959536d2f1aa16cc231b98bcd5689e",
          "transactionIndex": "0xb",
          "logIndex": "0x3a",
          "removed": false
        },
        {
          "address": "0xf6f45ccb5e85d1400067ee66f9e168f83e86124e",
          "topics": [
            "0xbc9ee36b6ca0bdd5b3840e6d329dd19a2490d880c7ce24d9818aa593adfb35be",
            "0x00000000000000000000000045dce8e4f2dc005a5f28206a46cb034697eeda8e",
            "0x0000000000000000000000000000000000000000000000000000000000007642",
            "0x00000000000000000000000045dce8e4f2dc005a5f28206a46cb034697eeda8e"
          ],
          "data": "0x00000000000000000000000093cdc5d29293cb6983f059fec6e4ffeb656b6a62000000000000000000000000000000000000000000000000000009184e72a000",
          "blockHash": "0xc77016fde1ec3305b66756f8ca79fd9d441991e2db53f968b4fa877dcbdc8040",
          "blockNumber": "0x201f6aa",
          "transactionHash": "0x558f6bc394509a01a28a75e0e4980fdab9959536d2f1aa16cc231b98bcd5689e",
          "transactionIndex": "0xb",
          "logIndex": "0x3b",
          "removed": false
        }
      ],
      "logsBloom": "0x00000000005000200000000200000000000000000000000000000000001000000000000000000000000000000000000000000000000000000000000000200000000002000000000000020008000100000000000000000000000000000000000000000000020000008040000200000800000200000010101000000010000000000000000010000000000000080000100000000000000000000008000000008000020000108000000020100000000000000000000000400000000440000000000000000402000000000000104080000000021000000000010000000000000020000010040000000000000000000000802000400000018000000000600000000000",
      "type": "0x2",
      "transactionHash": "0x558f6bc394509a01a28a75e0e4980fdab9959536d2f1aa16cc231b98bcd5689e",
      "transactionIndex": "0xb",
      "blockHash": "0xc77016fde1ec3305b66756f8ca79fd9d441991e2db53f968b4fa877dcbdc8040",
      "blockNumber": "0x201f6aa",
      "gasUsed": "0x96365",
      "effectiveGasPrice": "0x1d52c",
      "from": "0x45dce8e4f2dc005a5f28206a46cb034697eeda8e",
      "to": "0xf6f45ccb5e85d1400067ee66f9e168f83e86124e",
      "contractAddress": null,
      "l1Fee": "0xc24724c697"
    }
  ],
  "libraries": [],
  "pending": [],
  "returns": {},
  "timestamp": 1778647754632,
  "chain": 534352,
  "commit": "3c1e5d2a"
}