{
  "transactions": [
    {
      "hash": "0xac0f55849daba609f68d7c39fad850e5108d4b4766d18dc25c498b4deeedbcd5",
      "transactionType": "CALL",
      "contractName": null,
      "contractAddress": "0x80eede496655fb9047dd39d9f418d5483ed600df",
      "function": "approve(address,uint256)",
      "arguments": [
        "0x79152c303AD5aE429eDefa4553CB1Ad2c6EE1396",
        "10000000000000"
      ],
      "transaction": {
        "from": "0x45dce8e4f2dc005a5f28206a46cb034697eeda8e",
        "to": "0x80eede496655fb9047dd39d9f418d5483ed600df",
        "gas": "0x132ba",
        "value": "0x0",
        "input": "0x095ea7b300000000000000000000000079152c303ad5ae429edefa4553cb1ad2c6ee1396000000000000000000000000000000000000000000000000000009184e72a000",
        "nonce": "0xa3",
        "chainId": "0xc4"
      },
      "additionalContracts": [],
      "isFixedGasLimit": false
    },
    {
      "hash": "0x1d3511a07bfa4d0fa5035fb7bcf58e11bf7cc6803082c11c260375a35073bc1c",
      "transactionType": "CALL",
      "contractName": null,
      "contractAddress": "0x79152c303ad5ae429edefa4553cb1ad2c6ee1396",
      "function": "sendOFT(address,uint32,bytes32,uint256)",
      "arguments": [
        "0x80Eede496655FB9047dd39d9f418d5483ED600df",
        "30106",
        "0x00000000000000000000000045dce8e4f2dc005a5f28206a46cb034697eeda8e",
        "10000000000000"
      ],
      "transaction": {
        "from": "0x45dce8e4f2dc005a5f28206a46cb034697eeda8e",
        "to": "0x79152c303ad5ae429edefa4553cb1ad2c6ee1396",
        "gas": "0xc8108",
        "value": "0x2f5e5e1183936",
        "input": "0x3e832c9000000000000000000000000080eede496655fb9047dd39d9f418d5483ed600df000000000000000000000000000000000000000000000000000000000000759a00000000000000000000000045dce8e4f2dc005a5f28206a46cb034697eeda8e000000000000000000000000000000000000000000000000000009184e72a000",
        "nonce": "0xa4",
        "chainId": "0xc4"
      },
      "additionalContracts": [],
      "isFixedGasLimit": false
    },
    {
      "hash": "0x2d25a82d01218ce308b8929806ca2aa3c1200f7284435b226c5c6f9c374dc909",
      "transactionType": "CALL",
      "contractName": null,
      "contractAddress": "0x5bff88ca1442c2496f7e475e9e7786383bc070c0",
      "function": "approve(address,uint256)",
      "arguments": [
        "0x79152c303AD5aE429eDefa4553CB1Ad2c6EE1396",
        "10000000000000"
      ],
      "transaction": {
        "from": "0x45dce8e4f2dc005a5f28206a46cb034697eeda8e",
        "to": "0x5bff88ca1442c2496f7e475e9e7786383bc070c0",
        "gas": "0x12191",
        "value": "0x0",
        "input": "0x095ea7b300000000000000000000000079152c303ad5ae429edefa4553cb1ad2c6ee1396000000000000000000000000000000000000000000000000000009184e72a000",
        "nonce": "0xa5",
        "chainId": "0xc4"
      },
      "additionalContracts": [],
      "isFixedGasLimit": false
    },
    {
      "hash": "0x80ae3fcf232d45514dd4f8dcc5b1eb0ee36bce51ccbf2569ab40c8d3cf092488",
      "transactionType": "CALL",
      "contractName": null,
      "contractAddress": "0x79152c303ad5ae429edefa4553cb1ad2c6ee1396",
      "function": "sendOFT(address,uint32,bytes32,uint256)",
      "arguments": [
        "0x5Bff88cA1442c2496f7E475E9e7786383Bc070c0",
        "30106",
        "0x00000000000000000000000045dce8e4f2dc005a5f28206a46cb034697eeda8e",
        "10000000000000"
      ],
      "transaction": {
        "from": "0x45dce8e4f2dc005a5f28206a46cb034697eeda8e",
        "to": "0x79152c303ad5ae429edefa4553cb1ad2c6ee1396",
        "gas": "0xc9739",
        "value": "0x2f5e5e1183936",
        "input": "0x3e832c900000000000000000000000005bff88ca1442c2496f7e475e9e7786383bc070c0000000000000000000000000000000000000000000000000000000000000759a00000000000000000000000045dce8e4f2dc005a5f28206a46cb034697eeda8e000000000000000000000000000000000000000000000000000009184e72a000",
        "nonce": "0xa6",
        "chainId": "0xc4"
      },
      "additionalContracts": [],
      "isFixedGasLimit": false
    },
    {
      "hash": "0x9349ec6641c0d8111870ef937579278f1d5563aa950555bb11b7c3c7f10741ee",
      "transactionType": "CALL",
      "contractName": null,
      "contractAddress": "0x43edd7f3831b08fe70b7555ddd373c8bf65a9050",
      "function": "approve(address,uint256)",
      "arguments": [
        "0x79152c303AD5aE429eDefa4553CB1Ad2c6EE1396",
        "10000000000000"
      ],
      "transaction": {
        "from": "0x45dce8e4f2dc005a5f28206a46cb034697eeda8e",
        "to": "0x43edd7f3831b08fe70b7555ddd373c8bf65a9050",
        "gas": "0x132ba",
        "value": "0x0",
        "input": "0x095ea7b300000000000000000000000079152c303ad5ae429edefa4553cb1ad2c6ee1396000000000000000000000000000000000000000000000000000009184e72a000",
        "nonce": "0xa7",
        "chainId": "0xc4"
      },
      "additionalContracts": [],
      "isFixedGasLimit": false
    },
    {
      "hash": "0xc3f492a10c3630aaf6305e194c0039e6fa8b2d07f0369037a6cfab3945efc972",
      "transactionType": "CALL",
      "contractName": null,
      "contractAddress": "0x79152c303ad5ae429edefa4553cb1ad2c6ee1396",
      "function": "sendOFT(address,uint32,bytes32,uint256)",
      "arguments": [
        "0x43eDD7f3831b08FE70B7555ddD373C8bF65a9050",
        "30106",
        "0x00000000000000000000000045dce8e4f2dc005a5f28206a46cb034697eeda8e",
        "10000000000000"
      ],
      "transaction": {
        "from": "0x45dce8e4f2dc005a5f28206a46cb034697eeda8e",
        "to": "0x79152c303ad5ae429edefa4553cb1ad2c6ee1396",
        "gas": "0xc9758",
        "value": "0x2f5e5e1183936",
        "input": "0x3e832c9000000000000000000000000043edd7f3831b08fe70b7555ddd373c8bf65a9050000000000000000000000000000000000000000000000000000000000000759a00000000000000000000000045dce8e4f2dc005a5f28206a46cb034697eeda8e000000000000000000000000000000000000000000000000000009184e72a000",
        "nonce": "0xa8",
        "chainId": "0xc4"
      },
      "additionalContracts": [],
      "isFixedGasLimit": false
    },
    {
      "hash": "0xf2b05491a9df871de1cd7a2e178879b945f7e42d0762b47d01118b3cd7ecfe43",
      "transactionType": "CALL",
      "contractName": null,
      "contractAddress": "0x3ec3849c33291a9ef4c5db86de593eb4a37fde45",
      "function": "approve(address,uint256)",
      "arguments": [
        "0x79152c303AD5aE429eDefa4553CB1Ad2c6EE1396",
        "10000000000000"
      ],
      "transaction": {
        "from": "0x45dce8e4f2dc005a5f28206a46cb034697eeda8e",
        "to": "0x3ec3849c33291a9ef4c5db86de593eb4a37fde45",
        "gas": "0x132ba",
        "value": "0x0",
        "input": "0x095ea7b300000000000000000000000079152c303ad5ae429edefa4553cb1ad2c6ee1396000000000000000000000000000000000000000000000000000009184e72a000",
        "nonce": "0xa9",
        "chainId": "0xc4"
      },
      "additionalContracts": [],
      "isFixedGasLimit": false
    },
    {
      "hash": "0xc6160c19fd94133720dee112405fd1b243912060d7f73839152a02ee5c0294ce",
      "transactionType": "CALL",
      "contractName": null,
      "contractAddress": "0x79152c303ad5ae429edefa4553cb1ad2c6ee1396",
      "function": "sendOFT(address,uint32,bytes32,uint256)",
      "arguments": [
        "0x3Ec3849C33291a9eF4c5dB86De593EB4A37fDe45",
        "30106",
        "0x00000000000000000000000045dce8e4f2dc005a5f28206a46cb034697eeda8e",
        "10000000000000"
      ],
      "transaction": {
        "from": "0x45dce8e4f2dc005a5f28206a46cb034697eeda8e",
        "to": "0x79152c303ad5ae429edefa4553cb1ad2c6ee1396",
        "gas": "0xdb6a5",
        "value": "0x2f5e5e1183936",
        "input": "0x3e832c900000000000000000000000003ec3849c33291a9ef4c5db86de593eb4a37fde45000000000000000000000000000000000000000000000000000000000000759a00000000000000000000000045dce8e4f2dc005a5f28206a46cb034697eeda8e000000000000000000000000000000000000000000000000000009184e72a000",
        "nonce": "0xaa",
        "chainId": "0xc4"
      },
      "additionalContracts": [],
      "isFixedGasLimit": false
    },
    {
      "hash": "0x99a01aff24f4b589d9b5c2e863dcd42163c7eefb19018cda15860591dc9ea468",
      "transactionType": "CALL",
      "contractName": null,
      "contractAddress": "0x64445f0aecc51e94ad52d8ac56b7190e764e561a",
      "function": "approve(address,uint256)",
      "arguments": [
        "0x79152c303AD5aE429eDefa4553CB1Ad2c6EE1396",
        "10000000000000"
      ],
      "transaction": {
        "from": "0x45dce8e4f2dc005a5f28206a46cb034697eeda8e",
        "to": "0x64445f0aecc51e94ad52d8ac56b7190e764e561a",
        "gas": "0x12191",
        "value": "0x0",
        "input": "0x095ea7b300000000000000000000000079152c303ad5ae429edefa4553cb1ad2c6ee1396000000000000000000000000000000000000000000000000000009184e72a000",
        "nonce": "0xab",
        "chainId": "0xc4"
      },
      "additionalContracts": [],
      "isFixedGasLimit": false
    },
    {
      "hash": "0xa0d6dd2229ab968a30fc4038125836acefe7c2c5b7840159767319caeeb9d9c7",
      "transactionType": "CALL",
      "contractName": null,
      "contractAddress": "0x79152c303ad5ae429edefa4553cb1ad2c6ee1396",
      "function": "sendOFT(address,uint32,bytes32,uint256)",
      "arguments": [
        "0x64445f0aecC51E94aD52d8AC56b7190e764E561a",
        "30106",
        "0x00000000000000000000000045dce8e4f2dc005a5f28206a46cb034697eeda8e",
        "10000000000000"
      ],
      "transaction": {
        "from": "0x45dce8e4f2dc005a5f28206a46cb034697eeda8e",
        "to": "0x79152c303ad5ae429edefa4553cb1ad2c6ee1396",
        "gas": "0xc9739",
        "value": "0x2f5e5e1183936",
        "input": "0x3e832c9000000000000000000000000064445f0aecc51e94ad52d8ac56b7190e764e561a000000000000000000000000000000000000000000000000000000000000759a00000000000000000000000045dce8e4f2dc005a5f28206a46cb034697eeda8e000000000000000000000000000000000000000000000000000009184e72a000",
        "nonce": "0xac",
        "chainId": "0xc4"
      },
      "additionalContracts": [],
      "isFixedGasLimit": false
    },
    {
      "hash": "0x09fbb0edd6d1d708ccad3cf178f69e15071d1c3d22d56d6aa434794bc2975de7",
      "transactionType": "CALL",
      "contractName": null,
      "contractAddress": "0x90581eca9469d8d7f5d3b60f4715027adfcf7927",
      "function": "approve(address,uint256)",
      "arguments": [
        "0x79152c303AD5aE429eDefa4553CB1Ad2c6EE1396",
        "10000000000000"
      ],
      "transaction": {
        "from": "0x45dce8e4f2dc005a5f28206a46cb034697eeda8e",
        "to": "0x90581eca9469d8d7f5d3b60f4715027adfcf7927",
        "gas": "0x132ba",
        "value": "0x0",
        "input": "0x095ea7b300000000000000000000000079152c303ad5ae429edefa4553cb1ad2c6ee1396000000000000000000000000000000000000000000000000000009184e72a000",
        "nonce": "0xad",
        "chainId": "0xc4"
      },
      "additionalContracts": [],
      "isFixedGasLimit": false
    },
    {
      "hash": "0xa6f29c56d40c0f60e647f522b8edf3d527e1ac6d0be1bfa4d9f083cde6eddb21",
      "transactionType": "CALL",
      "contractName": null,
      "contractAddress": "0x79152c303ad5ae429edefa4553cb1ad2c6ee1396",
      "function": "sendOFT(address,uint32,bytes32,uint256)",
      "arguments": [
        "0x90581eCa9469D8D7F5D3B60f4715027aDFCf7927",
        "30106",
        "0x00000000000000000000000045dce8e4f2dc005a5f28206a46cb034697eeda8e",
        "10000000000000"
      ],
      "transaction": {
        "from": "0x45dce8e4f2dc005a5f28206a46cb034697eeda8e",
        "to": "0x79152c303ad5ae429edefa4553cb1ad2c6ee1396",
        "gas": "0xdb6a5",
        "value": "0x2f5e5e1183936",
        "input": "0x3e832c9000000000000000000000000090581eca9469d8d7f5d3b60f4715027adfcf7927000000000000000000000000000000000000000000000000000000000000759a00000000000000000000000045dce8e4f2dc005a5f28206a46cb034697eeda8e000000000000000000000000000000000000000000000000000009184e72a000",
        "nonce": "0xae",
        "chainId": "0xc4"
      },
      "additionalContracts": [],
      "isFixedGasLimit": false
    }
  ],
  "receipts": [
    {
      "status": "0x1",
      "cumulativeGasUsed": "0x2e720e",
      "logs": [
        {
          "address": "0x80eede496655fb9047dd39d9f418d5483ed600df",
          "topics": [
            "0x8c5be1e5ebec7d5bd14f71427d1e84f3dd0314c0f7b2291e5b200ac8c7c3b925",
            "0x00000000000000000000000045dce8e4f2dc005a5f28206a46cb034697eeda8e",
            "0x00000000000000000000000079152c303ad5ae429edefa4553cb1ad2c6ee1396"
          ],
          "data": "0x000000000000000000000000000000000000000000000000000009184e72a000",
          "blockHash": "0xa71be1cd3c632156b52c29d16495c7eeaef22e7ece31bf9f5c8c97b19ade4083",
          "blockNumber": "0x391b1c8",
          "blockTimestamp": "0x6a040754",
          "transactionHash": "0x2d25a82d01218ce308b8929806ca2aa3c1200f7284435b226c5c6f9c374dc909",
          "transactionIndex": "0x8",
          "logIndex": "0x1a",
          "removed": false
        }
      ],
      "logsBloom": "0x00000000000000000000000200000000000000000000000000000000000000000000000000000000000000000800000000000000000000000000000200200001000000000000000000000000000000000000000000000000000000000000000000000000000000000000000000000000000000000000000000000010010000000000000000000000000000000000000000000000000000000000000000000000020000000000000000000000000000000000000000000000000000000000000000000000000000100000000000000000001000000000000000000000000000000010000000000000000000000000800000000000000000000000000000000000",
      "type": "0x2",
      "transactionHash": "0x2d25a82d01218ce308b8929806ca2aa3c1200f7284435b226c5c6f9c374dc909",
      "transactionIndex": "0x8",
      "blockHash": "0xa71be1cd3c632156b52c29d16495c7eeaef22e7ece31bf9f5c8c97b19ade4083",
      "blockNumber": "0x391b1c8",
      "gasUsed": "0xd1bb",
      "effectiveGasPrice": "0x1312d01",
      "blobGasUsed": "0x9c40",
      "from": "0x45dce8e4f2dc005a5f28206a46cb034697eeda8e",
      "to": "0x80eede496655fb9047dd39d9f418d5483ed600df",
      "contractAddress": null,
      "daFootprintGasScalar": "0x190",
      "l1BaseFeeScalar": "0x0",
      "l1BlobBaseFee": "0x4bbabf",
      "l1BlobBaseFeeScalar": "0x0",
      "l1Fee": "0x0",
      "l1GasPrice": "0x51fb418",
      "l1GasUsed": "0x640"
    },
    {
      "status": "0x1",
      "cumulativeGasUsed": "0xa13e0",
      "logs": [
        {
          "address": "0x80eede496655fb9047dd39d9f418d5483ed600df",
          "topics": [
            "0x8c5be1e5ebec7d5bd14f71427d1e84f3dd0314c0f7b2291e5b200ac8c7c3b925",
            "0x00000000000000000000000045dce8e4f2dc005a5f28206a46cb034697eeda8e",
            "0x00000000000000000000000079152c303ad5ae429edefa4553cb1ad2c6ee1396"
          ],
          "data": "0x0000000000000000000000000000000000000000000000000000000000000000",
          "blockHash": "0xb5f6a0d227d5d51deb47166e01ccf02125940da2cc741271c605b6092e605975",
          "blockNumber": "0x391b1c9",
          "blockTimestamp": "0x6a040755",
          "transactionHash": "0x1d3511a07bfa4d0fa5035fb7bcf58e11bf7cc6803082c11c260375a35073bc1c",
          "transactionIndex": "0x2",
          "logIndex": "0x0",
          "removed": false
        },
        {
          "address": "0x80eede496655fb9047dd39d9f418d5483ed600df",
          "topics": [
            "0xddf252ad1be2c89b69c2b068fc378daa952ba7f163c4a11628f55a4df523b3ef",
            "0x00000000000000000000000045dce8e4f2dc005a5f28206a46cb034697eeda8e",
            "0x00000000000000000000000079152c303ad5ae429edefa4553cb1ad2c6ee1396"
          ],
          "data": "0x000000000000000000000000000000000000000000000000000009184e72a000",
          "blockHash": "0xb5f6a0d227d5d51deb47166e01ccf02125940da2cc741271c605b6092e605975",
          "blockNumber": "0x391b1c9",
          "blockTimestamp": "0x6a040755",
          "transactionHash": "0x1d3511a07bfa4d0fa5035fb7bcf58e11bf7cc6803082c11c260375a35073bc1c",
          "transactionIndex": "0x2",
          "logIndex": "0x1",
          "removed": false
        },
        {
          "address": "0x80eede496655fb9047dd39d9f418d5483ed600df",
          "topics": [
            "0x8c5be1e5ebec7d5bd14f71427d1e84f3dd0314c0f7b2291e5b200ac8c7c3b925",
            "0x00000000000000000000000079152c303ad5ae429edefa4553cb1ad2c6ee1396",
            "0x00000000000000000000000080eede496655fb9047dd39d9f418d5483ed600df"
          ],
          "data": "0x000000000000000000000000000000000000000000000000000009184e72a000",
          "blockHash": "0xb5f6a0d227d5d51deb47166e01ccf02125940da2cc741271c605b6092e605975",
          "blockNumber": "0x391b1c9",
          "blockTimestamp": "0x6a040755",
          "transactionHash": "0x1d3511a07bfa4d0fa5035fb7bcf58e11bf7cc6803082c11c260375a35073bc1c",
          "transactionIndex": "0x2",
          "logIndex": "0x2",
          "removed": false
        },
        {
          "address": "0x80eede496655fb9047dd39d9f418d5483ed600df",
          "topics": [
            "0xddf252ad1be2c89b69c2b068fc378daa952ba7f163c4a11628f55a4df523b3ef",
            "0x00000000000000000000000079152c303ad5ae429edefa4553cb1ad2c6ee1396",
            "0x0000000000000000000000000000000000000000000000000000000000000000"
          ],
          "data": "0x000000000000000000000000000000000000000000000000000009184e72a000",
          "blockHash": "0xb5f6a0d227d5d51deb47166e01ccf02125940da2cc741271c605b6092e605975",
          "blockNumber": "0x391b1c9",
          "blockTimestamp": "0x6a040755",
          "transactionHash": "0x1d3511a07bfa4d0fa5035fb7bcf58e11bf7cc6803082c11c260375a35073bc1c",
          "transactionIndex": "0x2",
          "logIndex": "0x3",
          "removed": false
        },
        {
          "address": "0xe1844c5d63a9543023008d332bd3d2e6f1fe1043",
          "topics": [
            "0x61ed099e74a97a1d7f8bb0952a88ca8b7b8ebd00c126ea04671f92a81213318a"
          ],
          "data": "0x000000000000000000000000cce466a522984415bc91338c232d98869193d46e0000000000000000000000000000000000000000000000000000d84f393e3ba2",
          "blockHash": "0xb5f6a0d227d5d51deb47166e01ccf02125940da2cc741271c605b6092e605975",
          "blockNumber": "0x391b1c9",
          "blockTimestamp": "0x6a040755",
          "transactionHash": "0x1d3511a07bfa4d0fa5035fb7bcf58e11bf7cc6803082c11c260375a35073bc1c",
          "transactionIndex": "0x2",
          "logIndex": "0x4",
          "removed": false
        },
        {
          "address": "0xe1844c5d63a9543023008d332bd3d2e6f1fe1043",
          "topics": [
            "0x07ea52d82345d6e838192107d8fd7123d9c2ec8e916cd0aad13fd2b60db24644"
          ],
          "data": "0x0000000000000000000000000000000000000000000000000000000000000060000000000000000000000000000000000000000000000000000000000000012000000000000000000000000000000000000000000000000000000000000001400000000000000000000000000000000000000000000000000000000000000005000000000000000000000000047d9dbe4fc6b5c916f37237f547f9f42809935a00000000000000000000000028af4dadbc5066e994986e8bb105240023dc44b60000000000000000000000002ae36a544b904f2f2960f6fd1a6084b4b11ba3340000000000000000000000009c061c9a4782294eef65ef28cb88233a987f4bdd000000000000000000000000dd7b5e1db4aafd5c8ec3b764efb8ed265aa5445b000000000000000000000000000000000000000000000000000000000000000000000000000000000000000000000000000000000000000000000000000000050000000000000000000000000000000000000000000000000000000024d1dc610000000000000000000000000000000000000000000000000000000023512ab900000000000000000000000000000000000000000000000000000000253fc5fe0000000000000000000000000000000000000000000000000000000023bf14560000000000000000000000000000000000000000000000000000000023bf1456",
          "blockHash": "0xb5f6a0d227d5d51deb47166e01ccf02125940da2cc741271c605b6092e605975",
          "blockNumber": "0x391b1c9",
          "blockTimestamp": "0x6a040755",
          "transactionHash": "0x1d3511a07bfa4d0fa5035fb7bcf58e11bf7cc6803082c11c260375a35073bc1c",
          "transactionIndex": "0x2",
          "logIndex": "0x5",
          "removed": false
        },
        {
          "address": "0x1a44076050125825900e736c501f859c50fe728c",
          "topics": [
            "0x1ab700d4ced0c005b164c0f789fd09fcbb0156d4c2041b8a3bfbcd961cd1567f"
          ],
          "data": "0x00000000000000000000000000000000000000000000000000000000000000600000000000000000000000000000000000000000000000000000000000000180000000000000000000000000e1844c5d63a9543023008d332bd3d2e6f1fe104300000000000000000000000000000000000000000000000000000000000000f901000000000000000c0000764200000000000000000000000080eede496655fb9047dd39d9f418d5483ed600df0000762f00000000000000000000000096a394058e2b84a89bac9667b19661ed003cf5d49f2e41b8c7ec9de0b10967b22f19bdc12fc50928eecd3254aeabc1f70fc3d0a00000000000000000000000002a2019b30c157db6c1c01306b8025167dbe1803b000000000000000a00000000000000000000000079152c303ad5ae429edefa4553cb1ad2c6ee139600000000000000000000000045dce8e4f2dc005a5f28206a46cb034697eeda8e000000000000000000000000000000000000000000000000000000000000759a00000000000000000000000000000000000000000000000000000000000000000000000000002c0003010011010000000000000000000000000003d090010013030000000000000000000000000000000f42400000000000000000000000000000000000000000",
          "blockHash": "0xb5f6a0d227d5d51deb47166e01ccf02125940da2cc741271c605b6092e605975",
          "blockNumber": "0x391b1c9",
          "blockTimestamp": "0x6a040755",
          "transactionHash": "0x1d3511a07bfa4d0fa5035fb7bcf58e11bf7cc6803082c11c260375a35073bc1c",
          "transactionIndex": "0x2",
          "logIndex": "0x6",
          "removed": false
        },
        {
          "address": "0x80eede496655fb9047dd39d9f418d5483ed600df",
          "topics": [
            "0x85496b760a4b7f8d66384b9df21b381f5d1b1e79f229a47aaf4c232edc2fe59a",
            "0x9f2e41b8c7ec9de0b10967b22f19bdc12fc50928eecd3254aeabc1f70fc3d0a0",
            "0x00000000000000000000000079152c303ad5ae429edefa4553cb1ad2c6ee1396"
          ],
          "data": "0x000000000000000000000000000000000000000000000000000000000000762f000000000000000000000000000000000000000000000000000009184e72a000000000000000000000000000000000000000000000000000000009184e72a000",
          "blockHash": "0xb5f6a0d227d5d51deb47166e01ccf02125940da2cc741271c605b6092e605975",
          "blockNumber": "0x391b1c9",
          "blockTimestamp": "0x6a040755",
          "transactionHash": "0x1d3511a07bfa4d0fa5035fb7bcf58e11bf7cc6803082c11c260375a35073bc1c",
          "transactionIndex": "0x2",
          "logIndex": "0x7",
          "removed": false
        },
        {
          "address": "0x79152c303ad5ae429edefa4553cb1ad2c6ee1396",
          "topics": [
            "0xbc9ee36b6ca0bdd5b3840e6d329dd19a2490d880c7ce24d9818aa593adfb35be",
            "0x00000000000000000000000045dce8e4f2dc005a5f28206a46cb034697eeda8e",
            "0x000000000000000000000000000000000000000000000000000000000000759a",
            "0x00000000000000000000000045dce8e4f2dc005a5f28206a46cb034697eeda8e"
          ],
          "data": "0x00000000000000000000000080eede496655fb9047dd39d9f418d5483ed600df000000000000000000000000000000000000000000000000000009184e72a000",
          "blockHash": "0xb5f6a0d227d5d51deb47166e01ccf02125940da2cc741271c605b6092e605975",
          "blockNumber": "0x391b1c9",
          "blockTimestamp": "0x6a040755",
          "transactionHash": "0x1d3511a07bfa4d0fa5035fb7bcf58e11bf7cc6803082c11c260375a35073bc1c",
          "transactionIndex": "0x2",
          "logIndex": "0x8",
          "removed": false
        }
      ],
      "logsBloom": "0x00000000000000000000000200000000020000000000000000000000801000000000080000000400000000000800000000000000000000000000000200201001008002000000000000000008000000000000000000000000000000000000000000000000020000008000000000000800000000000010100000000010010000000000000000000000000000080000000000400000000000000000000000000000020000108000000020100000000000000000000000400000040440000000000080000002000000100000000080000000001000008000000000000000000020000010040020000003000000800000802010000000018000000000000000000000",
      "type": "0x2",
      "transactionHash": "0x1d3511a07bfa4d0fa5035fb7bcf58e11bf7cc6803082c11c260375a35073bc1c",
      "transactionIndex": "0x2",
      "blockHash": "0xb5f6a0d227d5d51deb47166e01ccf02125940da2cc741271c605b6092e605975",
      "blockNumber": "0x391b1c9",
      "gasUsed": "0x90d7e",
      "effectiveGasPrice": "0x1312d01",
      "blobGasUsed": "0xbb80",
      "from": "0x45dce8e4f2dc005a5f28206a46cb034697eeda8e",
      "to": "0x79152c303ad5ae429edefa4553cb1ad2c6ee1396",
      "contractAddress": null,
      "daFootprintGasScalar": "0x190",
      "l1BaseFeeScalar": "0x0",
      "l1BlobBaseFee": "0x4bbabf",
      "l1BlobBaseFeeScalar": "0x0",
      "l1Fee": "0x0",
      "l1GasPrice": "0x51fb418",
      "l1GasUsed": "0x788"
    },
    {
      "status": "0x1",
      "cumulativeGasUsed": "0xb7e76",
      "logs": [
        {
          "address": "0x5bff88ca1442c2496f7e475e9e7786383bc070c0",
          "topics": [
            "0x8c5be1e5ebec7d5bd14f71427d1e84f3dd0314c0f7b2291e5b200ac8c7c3b925",
            "0x00000000000000000000000045dce8e4f2dc005a5f28206a46cb034697eeda8e",
            "0x00000000000000000000000079152c303ad5ae429edefa4553cb1ad2c6ee1396"
          ],
          "data": "0x000000000000000000000000000000000000000000000000000009184e72a000",
          "blockHash": "0xb5f6a0d227d5d51deb47166e01ccf02125940da2cc741271c605b6092e605975",
          "blockNumber": "0x391b1c9",
          "blockTimestamp": "0x6a040755",
          "transactionHash": "0xa6f29c56d40c0f60e647f522b8edf3d527e1ac6d0be1bfa4d9f083cde6eddb21",
          "transactionIndex": "0x4",
          "logIndex": "0xb",
          "removed": false
        }
      ],
      "logsBloom": "0x00000000000000000000000200000000000000000000000000000000000000000000000000000000000000000000000000000000000000000000000000200001000000000000000000000000000000000000000000000000000000000000000000000000000000000000000000000000000000000000000000000010000000000000000000000000000000000000000000000000000000000000000000000000020000000000000000000000000000000000000000000000000000000010000000000000000000100000000000000000001000800000000000000000000000000010000000000000000000000000800000000000000000000000000000000800",
      "type": "0x2",
      "transactionHash": "0xa6f29c56d40c0f60e647f522b8edf3d527e1ac6d0be1bfa4d9f083cde6eddb21",
      "transactionIndex": "0x4",
      "blockHash": "0xb5f6a0d227d5d51deb47166e01ccf02125940da2cc741271c605b6092e605975",
      "blockNumber": "0x391b1c9",
      "gasUsed": "0xd1a5",
      "effectiveGasPrice": "0x1312d01",
      "blobGasUsed": "0x9c40",
      "from": "0x45dce8e4f2dc005a5f28206a46cb034697eeda8e",
      "to": "0x5bff88ca1442c2496f7e475e9e7786383bc070c0",
      "contractAddress": null,
      "daFootprintGasScalar": "0x190",
      "l1BaseFeeScalar": "0x0",
      "l1BlobBaseFee": "0x4bbabf",
      "l1BlobBaseFeeScalar": "0x0",
      "l1Fee": "0x0",
      "l1GasPrice": "0x51fb418",
      "l1GasUsed": "0x640"
    },
    {
      "status": "0x1",
      "cumulativeGasUsed": "0x149c05",
      "logs": [
        {
          "address": "0x5bff88ca1442c2496f7e475e9e7786383bc070c0",
          "topics": [
            "0x8c5be1e5ebec7d5bd14f71427d1e84f3dd0314c0f7b2291e5b200ac8c7c3b925",
            "0x00000000000000000000000045dce8e4f2dc005a5f28206a46cb034697eeda8e",
            "0x00000000000000000000000079152c303ad5ae429edefa4553cb1ad2c6ee1396"
          ],
          "data": "0x0000000000000000000000000000000000000000000000000000000000000000",
          "blockHash": "0xb5f6a0d227d5d51deb47166e01ccf02125940da2cc741271c605b6092e605975",
          "blockNumber": "0x391b1c9",
          "blockTimestamp": "0x6a040755",
          "transactionHash": "0xa0d6dd2229ab968a30fc4038125836acefe7c2c5b7840159767319caeeb9d9c7",
          "transactionIndex": "0x5",
          "logIndex": "0xc",
          "removed": false
        },
        {
          "address": "0x5bff88ca1442c2496f7e475e9e7786383bc070c0",
          "topics": [
            "0xddf252ad1be2c89b69c2b068fc378daa952ba7f163c4a11628f55a4df523b3ef",
            "0x00000000000000000000000045dce8e4f2dc005a5f28206a46cb034697eeda8e",
            "0x00000000000000000000000079152c303ad5ae429edefa4553cb1ad2c6ee1396"
          ],
          "data": "0x000000000000000000000000000000000000000000000000000009184e72a000",
          "blockHash": "0xb5f6a0d227d5d51deb47166e01ccf02125940da2cc741271c605b6092e605975",
          "blockNumber": "0x391b1c9",
          "blockTimestamp": "0x6a040755",
          "transactionHash": "0xa0d6dd2229ab968a30fc4038125836acefe7c2c5b7840159767319caeeb9d9c7",
          "transactionIndex": "0x5",
          "logIndex": "0xd",
          "removed": false
        },
        {
          "address": "0x5bff88ca1442c2496f7e475e9e7786383bc070c0",
          "topics": [
            "0x8c5be1e5ebec7d5bd14f71427d1e84f3dd0314c0f7b2291e5b200ac8c7c3b925",
            "0x00000000000000000000000079152c303ad5ae429edefa4553cb1ad2c6ee1396",
            "0x0000000000000000000000005bff88ca1442c2496f7e475e9e7786383bc070c0"
          ],
          "data": "0x000000000000000000000000000000000000000000000000000009184e72a000",
          "blockHash": "0xb5f6a0d227d5d51deb47166e01ccf02125940da2cc741271c605b6092e605975",
          "blockNumber": "0x391b1c9",
          "blockTimestamp": "0x6a040755",
          "transactionHash": "0xa0d6dd2229ab968a30fc4038125836acefe7c2c5b7840159767319caeeb9d9c7",
          "transactionIndex": "0x5",
          "logIndex": "0xe",
          "removed": false
        },
        {
          "address": "0x5bff88ca1442c2496f7e475e9e7786383bc070c0",
          "topics": [
            "0xddf252ad1be2c89b69c2b068fc378daa952ba7f163c4a11628f55a4df523b3ef",
            "0x00000000000000000000000079152c303ad5ae429edefa4553cb1ad2c6ee1396",
            "0x0000000000000000000000000000000000000000000000000000000000000000"
          ],
          "data": "0x000000000000000000000000000000000000000000000000000009184e72a000",
          "blockHash": "0xb5f6a0d227d5d51deb47166e01ccf02125940da2cc741271c605b6092e605975",
          "blockNumber": "0x391b1c9",
          "blockTimestamp": "0x6a040755",
          "transactionHash": "0xa0d6dd2229ab968a30fc4038125836acefe7c2c5b7840159767319caeeb9d9c7",
          "transactionIndex": "0x5",
          "logIndex": "0xf",
          "removed": false
        },
        {
          "address": "0xe1844c5d63a9543023008d332bd3d2e6f1fe1043",
          "topics": [
            "0x61ed099e74a97a1d7f8bb0952a88ca8b7b8ebd00c126ea04671f92a81213318a"
          ],
          "data": "0x000000000000000000000000cce466a522984415bc91338c232d98869193d46e0000000000000000000000000000000000000000000000000000d84f393e3ba2",
          "blockHash": "0xb5f6a0d227d5d51deb47166e01ccf02125940da2cc741271c605b6092e605975",
          "blockNumber": "0x391b1c9",
          "blockTimestamp": "0x6a040755",
          "transactionHash": "0xa0d6dd2229ab968a30fc4038125836acefe7c2c5b7840159767319caeeb9d9c7",
          "transactionIndex": "0x5",
          "logIndex": "0x10",
          "removed": false
        },
        {
          "address": "0xe1844c5d63a9543023008d332bd3d2e6f1fe1043",
          "topics": [
            "0x07ea52d82345d6e838192107d8fd7123d9c2ec8e916cd0aad13fd2b60db24644"
          ],
          "data": "0x0000000000000000000000000000000000000000000000000000000000000060000000000000000000000000000000000000000000000000000000000000012000000000000000000000000000000000000000000000000000000000000001400000000000000000000000000000000000000000000000000000000000000005000000000000000000000000047d9dbe4fc6b5c916f37237f547f9f42809935a00000000000000000000000028af4dadbc5066e994986e8bb105240023dc44b60000000000000000000000002ae36a544b904f2f2960f6fd1a6084b4b11ba3340000000000000000000000009c061c9a4782294eef65ef28cb88233a987f4bdd000000000000000000000000dd7b5e1db4aafd5c8ec3b764efb8ed265aa5445b000000000000000000000000000000000000000000000000000000000000000000000000000000000000000000000000000000000000000000000000000000050000000000000000000000000000000000000000000000000000000024d1dc610000000000000000000000000000000000000000000000000000000023512ab900000000000000000000000000000000000000000000000000000000253fc5fe0000000000000000000000000000000000000000000000000000000023bf14560000000000000000000000000000000000000000000000000000000023bf1456",
          "blockHash": "0xb5f6a0d227d5d51deb47166e01ccf02125940da2cc741271c605b6092e605975",
          "blockNumber": "0x391b1c9",
          "blockTimestamp": "0x6a040755",
          "transactionHash": "0xa0d6dd2229ab968a30fc4038125836acefe7c2c5b7840159767319caeeb9d9c7",
          "transactionIndex": "0x5",
          "logIndex": "0x11",
          "removed": false
        },
        {
          "address": "0x1a44076050125825900e736c501f859c50fe728c",
          "topics": [
            "0x1ab700d4ced0c005b164c0f789fd09fcbb0156d4c2041b8a3bfbcd961cd1567f"
          ],
          "data": "0x00000000000000000000000000000000000000000000000000000000000000600000000000000000000000000000000000000000000000000000000000000180000000000000000000000000e1844c5d63a9543023008d332bd3d2e6f1fe104300000000000000000000000000000000000000000000000000000000000000f9010000000000000002000076420000000000000000000000005bff88ca1442c2496f7e475e9e7786383bc070c00000762f00000000000000000000000088aa7854d3b2daa5e37e7ce73a1f39669623a361b08034a02bb9310bc2a37decaed78ddc50bc883e69e3b2c6c00ae46471e7cb820000000000000000000000002a2019b30c157db6c1c01306b8025167dbe1803b000000000000000a00000000000000000000000079152c303ad5ae429edefa4553cb1ad2c6ee139600000000000000000000000045dce8e4f2dc005a5f28206a46cb034697eeda8e000000000000000000000000000000000000000000000000000000000000759a00000000000000000000000000000000000000000000000000000000000000000000000000002c0003010011010000000000000000000000000003d090010013030000000000000000000000000000000f42400000000000000000000000000000000000000000",
          "blockHash": "0xb5f6a0d227d5d51deb47166e01ccf02125940da2cc741271c605b6092e605975",
          "blockNumber": "0x391b1c9",
          "blockTimestamp": "0x6a040755",
          "transactionHash": "0xa0d6dd2229ab968a30fc4038125836acefe7c2c5b7840159767319caeeb9d9c7",
          "transactionIndex": "0x5",
          "logIndex": "0x12",
          "removed": false
        },
        {
          "address": "0x5bff88ca1442c2496f7e475e9e7786383bc070c0",
          "topics": [
            "0x85496b760a4b7f8d66384b9df21b381f5d1b1e79f229a47aaf4c232edc2fe59a",
            "0xb08034a02bb9310bc2a37decaed78ddc50bc883e69e3b2c6c00ae46471e7cb82",
            "0x00000000000000000000000079152c303ad5ae429edefa4553cb1ad2c6ee1396"
          ],
          "data": "0x000000000000000000000000000000000000000000000000000000000000762f000000000000000000000000000000000000000000000000000009184e72a000000000000000000000000000000000000000000000000000000009184e72a000",
          "blockHash": "0xb5f6a0d227d5d51deb47166e01ccf02125940da2cc741271c605b6092e605975",
          "blockNumber": "0x391b1c9",
          "blockTimestamp": "0x6a040755",
          "transactionHash": "0xa0d6dd2229ab968a30fc4038125836acefe7c2c5b7840159767319caeeb9d9c7",
          "transactionIndex": "0x5",
          "logIndex": "0x13",
          "removed": false
        },
        {
          "address": "0x79152c303ad5ae429edefa4553cb1ad2c6ee1396",
          "topics": [
            "0xbc9ee36b6ca0bdd5b3840e6d329dd19a2490d880c7ce24d9818aa593adfb35be",
            "0x00000000000000000000000045dce8e4f2dc005a5f28206a46cb034697eeda8e",
            "0x000000000000000000000000000000000000000000000000000000000000759a",
            "0x00000000000000000000000045dce8e4f2dc005a5f28206a46cb034697eeda8e"
          ],
          "data": "0x0000000000000000000000005bff88ca1442c2496f7e475e9e7786383bc070c0000000000000000000000000000000000000000000000000000009184e72a000",
          "blockHash": "0xb5f6a0d227d5d51deb47166e01ccf02125940da2cc741271c605b6092e605975",
          "blockNumber": "0x391b1c9",
          "blockTimestamp": "0x6a040755",
          "transactionHash": "0xa0d6dd2229ab968a30fc4038125836acefe7c2c5b7840159767319caeeb9d9c7",
          "transactionIndex": "0x5",
          "logIndex": "0x14",
          "removed": false
        }
      ],
      "logsBloom": "0x00000000000000000000000200000000020000000000000000000000001000000001000000000000000000000000000000000000000000000000000000201001008002000000000000000008000000000000000000000000000000000000000000000000020000008000000000000800000000000010100000000010000000000000003000000000000000080000000000000000000000000000000000000000020000108000010020100000000000000000000000400000040440000010000000000002000000100000000080000000001000808000000000000000000020000011040000000003000000840000802010000000018000000000000000000800",
      "type": "0x2",
      "transactionHash": "0xa0d6dd2229ab968a30fc4038125836acefe7c2c5b7840159767319caeeb9d9c7",
      "transactionIndex": "0x5",
      "blockHash": "0xb5f6a0d227d5d51deb47166e01ccf02125940da2cc741271c605b6092e605975",
      "blockNumber": "0x391b1c9",
      "gasUsed": "0x91d8f",
      "effectiveGasPrice": "0x1312d01",
      "blobGasUsed": "0xbb80",
      "from": "0x45dce8e4f2dc005a5f28206a46cb034697eeda8e",
      "to": "0x79152c303ad5ae429edefa4553cb1ad2c6ee1396",
      "contractAddress": null,
      "daFootprintGasScalar": "0x190",
      "l1BaseFeeScalar": "0x0",
      "l1BlobBaseFee": "0x4bbabf",
      "l1BlobBaseFeeScalar": "0x0",
      "l1Fee": "0x0",
      "l1GasPrice": "0x51fb418",
      "l1GasUsed": "0x788"
    },
    {
      "status": "0x1",
      "cumulativeGasUsed": "0x18615",
      "logs": [
        {
          "address": "0x43edd7f3831b08fe70b7555ddd373c8bf65a9050",
          "topics": [
            "0x8c5be1e5ebec7d5bd14f71427d1e84f3dd0314c0f7b2291e5b200ac8c7c3b925",
            "0x00000000000000000000000045dce8e4f2dc005a5f28206a46cb034697eeda8e",
            "0x00000000000000000000000079152c303ad5ae429edefa4553cb1ad2c6ee1396"
          ],
          "data": "0x000000000000000000000000000000000000000000000000000009184e72a000",
          "blockHash": "0x558ca96def78a147d8af621cd8f9e094bf40946cf57e21a5828e213132b77f4d",
          "blockNumber": "0x391b1ca",
          "blockTimestamp": "0x6a040756",
          "transactionHash": "0xc6160c19fd94133720dee112405fd1b243912060d7f73839152a02ee5c0294ce",
          "transactionIndex": "0x1",
          "logIndex": "0x0",
          "removed": false
        }
      ],
      "logsBloom": "0x00000000000000000000000200000000000000000000000000000000000000000000000000000000000000000000000000000000000000000000000000200001000000000000000000000000000000000000000000000000000000000000000000000000000000000000000000000000000000000000000000000010000000000000000000000000000000000000000000000000000000000000000000000000020000000000000002000000000000000000000000000000000000000000000000000000000000100000000000000000001000000000000000000000000000000010000000000000000000040000800000000000000000000000000000080000",
      "type": "0x2",
      "transactionHash": "0xc6160c19fd94133720dee112405fd1b243912060d7f73839152a02ee5c0294ce",
      "transactionIndex": "0x1",
      "blockHash": "0x558ca96def78a147d8af621cd8f9e094bf40946cf57e21a5828e213132b77f4d",
      "blockNumber": "0x391b1ca",
      "gasUsed": "0xd1bb",
      "effectiveGasPrice": "0x1312d01",
      "blobGasUsed": "0x9c40",
      "from": "0x45dce8e4f2dc005a5f28206a46cb034697eeda8e",
      "to": "0x43edd7f3831b08fe70b7555ddd373c8bf65a9050",
      "contractAddress": null,
      "daFootprintGasScalar": "0x190",
      "l1BaseFeeScalar": "0x0",
      "l1BlobBaseFee": "0x4bbabf",
      "l1BlobBaseFeeScalar": "0x0",
      "l1Fee": "0x0",
      "l1GasPrice": "0x51fb418",
      "l1GasUsed": "0x640"
    },
    {
      "status": "0x1",
      "cumulativeGasUsed": "0xaa3ba",
      "logs": [
        {
          "address": "0x43edd7f3831b08fe70b7555ddd373c8bf65a9050",
          "topics": [
            "0x8c5be1e5ebec7d5bd14f71427d1e84f3dd0314c0f7b2291e5b200ac8c7c3b925",
            "0x00000000000000000000000045dce8e4f2dc005a5f28206a46cb034697eeda8e",
            "0x00000000000000000000000079152c303ad5ae429edefa4553cb1ad2c6ee1396"
          ],
          "data": "0x0000000000000000000000000000000000000000000000000000000000000000",
          "blockHash": "0x558ca96def78a147d8af621cd8f9e094bf40946cf57e21a5828e213132b77f4d",
          "blockNumber": "0x391b1ca",
          "blockTimestamp": "0x6a040756",
          "transactionHash": "0xac0f55849daba609f68d7c39fad850e5108d4b4766d18dc25c498b4deeedbcd5",
          "transactionIndex": "0x2",
          "logIndex": "0x1",
          "removed": false
        },
        {
          "address": "0x43edd7f3831b08fe70b7555ddd373c8bf65a9050",
          "topics": [
            "0xddf252ad1be2c89b69c2b068fc378daa952ba7f163c4a11628f55a4df523b3ef",
            "0x00000000000000000000000045dce8e4f2dc005a5f28206a46cb034697eeda8e",
            "0x00000000000000000000000079152c303ad5ae429edefa4553cb1ad2c6ee1396"
          ],
          "data": "0x000000000000000000000000000000000000000000000000000009184e72a000",
          "blockHash": "0x558ca96def78a147d8af621cd8f9e094bf40946cf57e21a5828e213132b77f4d",
          "blockNumber": "0x391b1ca",
          "blockTimestamp": "0x6a040756",
          "transactionHash": "0xac0f55849daba609f68d7c39fad850e5108d4b4766d18dc25c498b4deeedbcd5",
          "transactionIndex": "0x2",
          "logIndex": "0x2",
          "removed": false
        },
        {
          "address": "0x43edd7f3831b08fe70b7555ddd373c8bf65a9050",
          "topics": [
            "0x8c5be1e5ebec7d5bd14f71427d1e84f3dd0314c0f7b2291e5b200ac8c7c3b925",
            "0x00000000000000000000000079152c303ad5ae429edefa4553cb1ad2c6ee1396",
            "0x00000000000000000000000043edd7f3831b08fe70b7555ddd373c8bf65a9050"
          ],
          "data": "0x000000000000000000000000000000000000000000000000000009184e72a000",
          "blockHash": "0x558ca96def78a147d8af621cd8f9e094bf40946cf57e21a5828e213132b77f4d",
          "blockNumber": "0x391b1ca",
          "blockTimestamp": "0x6a040756",
          "transactionHash": "0xac0f55849daba609f68d7c39fad850e5108d4b4766d18dc25c498b4deeedbcd5",
          "transactionIndex": "0x2",
          "logIndex": "0x3",
          "removed": false
        },
        {
          "address": "0x43edd7f3831b08fe70b7555ddd373c8bf65a9050",
          "topics": [
            "0xddf252ad1be2c89b69c2b068fc378daa952ba7f163c4a11628f55a4df523b3ef",
            "0x00000000000000000000000079152c303ad5ae429edefa4553cb1ad2c6ee1396",
            "0x0000000000000000000000000000000000000000000000000000000000000000"
          ],
          "data": "0x000000000000000000000000000000000000000000000000000009184e72a000",
          "blockHash": "0x558ca96def78a147d8af621cd8f9e094bf40946cf57e21a5828e213132b77f4d",
          "blockNumber": "0x391b1ca",
          "blockTimestamp": "0x6a040756",
          "transactionHash": "0xac0f55849daba609f68d7c39fad850e5108d4b4766d18dc25c498b4deeedbcd5",
          "transactionIndex": "0x2",
          "logIndex": "0x4",
          "removed": false
        },
        {
          "address": "0xe1844c5d63a9543023008d332bd3d2e6f1fe1043",
          "topics": [
            "0x61ed099e74a97a1d7f8bb0952a88ca8b7b8ebd00c126ea04671f92a81213318a"
          ],
          "data": "0x000000000000000000000000cce466a522984415bc91338c232d98869193d46e0000000000000000000000000000000000000000000000000000d84f393e3ba2",
          "blockHash": "0x558ca96def78a147d8af621cd8f9e094bf40946cf57e21a5828e213132b77f4d",
          "blockNumber": "0x391b1ca",
          "blockTimestamp": "0x6a040756",
          "transactionHash": "0xac0f55849daba609f68d7c39fad850e5108d4b4766d18dc25c498b4deeedbcd5",
          "transactionIndex": "0x2",
          "logIndex": "0x5",
          "removed": false
        },
        {
          "address": "0xe1844c5d63a9543023008d332bd3d2e6f1fe1043",
          "topics": [
            "0x07ea52d82345d6e838192107d8fd7123d9c2ec8e916cd0aad13fd2b60db24644"
          ],
          "data": "0x0000000000000000000000000000000000000000000000000000000000000060000000000000000000000000000000000000000000000000000000000000012000000000000000000000000000000000000000000000000000000000000001400000000000000000000000000000000000000000000000000000000000000005000000000000000000000000047d9dbe4fc6b5c916f37237f547f9f42809935a00000000000000000000000028af4dadbc5066e994986e8bb105240023dc44b60000000000000000000000002ae36a544b904f2f2960f6fd1a6084b4b11ba3340000000000000000000000009c061c9a4782294eef65ef28cb88233a987f4bdd000000000000000000000000dd7b5e1db4aafd5c8ec3b764efb8ed265aa5445b000000000000000000000000000000000000000000000000000000000000000000000000000000000000000000000000000000000000000000000000000000050000000000000000000000000000000000000000000000000000000024d1dc610000000000000000000000000000000000000000000000000000000023512ab900000000000000000000000000000000000000000000000000000000253fc5fe0000000000000000000000000000000000000000000000000000000023bf14560000000000000000000000000000000000000000000000000000000023bf1456",
          "blockHash": "0x558ca96def78a147d8af621cd8f9e094bf40946cf57e21a5828e213132b77f4d",
          "blockNumber": "0x391b1ca",
          "blockTimestamp": "0x6a040756",
          "transactionHash": "0xac0f55849daba609f68d7c39fad850e5108d4b4766d18dc25c498b4deeedbcd5",
          "transactionIndex": "0x2",
          "logIndex": "0x6",
          "removed": false
        },
        {
          "address": "0x1a44076050125825900e736c501f859c50fe728c",
          "topics": [
            "0x1ab700d4ced0c005b164c0f789fd09fcbb0156d4c2041b8a3bfbcd961cd1567f"
          ],
          "data": "0x00000000000000000000000000000000000000000000000000000000000000600000000000000000000000000000000000000000000000000000000000000180000000000000000000000000e1844c5d63a9543023008d332bd3d2e6f1fe104300000000000000000000000000000000000000000000000000000000000000f90100000000000000020000764200000000000000000000000043edd7f3831b08fe70b7555ddd373c8bf65a90500000762f0000000000000000000000009abfe1f8a999b0011ecd6116649aee8d575f5604f343ee3fb54593783b2be582189187edbeaa4133681155983e9d25c8577be8110000000000000000000000002a2019b30c157db6c1c01306b8025167dbe1803b000000000000000a00000000000000000000000079152c303ad5ae429edefa4553cb1ad2c6ee139600000000000000000000000045dce8e4f2dc005a5f28206a46cb034697eeda8e000000000000000000000000000000000000000000000000000000000000759a00000000000000000000000000000000000000000000000000000000000000000000000000002c0003010011010000000000000000000000000003d090010013030000000000000000000000000000000f42400000000000000000000000000000000000000000",
          "blockHash": "0x558ca96def78a147d8af621cd8f9e094bf40946cf57e21a5828e213132b77f4d",
          "blockNumber": "0x391b1ca",
          "blockTimestamp": "0x6a040756",
          "transactionHash": "0xac0f55849daba609f68d7c39fad850e5108d4b4766d18dc25c498b4deeedbcd5",
          "transactionIndex": "0x2",
          "logIndex": "0x7",
          "removed": false
        },
        {
          "address": "0x43edd7f3831b08fe70b7555ddd373c8bf65a9050",
          "topics": [
            "0x85496b760a4b7f8d66384b9df21b381f5d1b1e79f229a47aaf4c232edc2fe59a",
            "0xf343ee3fb54593783b2be582189187edbeaa4133681155983e9d25c8577be811",
            "0x00000000000000000000000079152c303ad5ae429edefa4553cb1ad2c6ee1396"
          ],
          "data": "0x000000000000000000000000000000000000000000000000000000000000762f000000000000000000000000000000000000000000000000000009184e72a000000000000000000000000000000000000000000000000000000009184e72a000",
          "blockHash": "0x558ca96def78a147d8af621cd8f9e094bf40946cf57e21a5828e213132b77f4d",
          "blockNumber": "0x391b1ca",
          "blockTimestamp": "0x6a040756",
          "transactionHash": "0xac0f55849daba609f68d7c39fad850e5108d4b4766d18dc25c498b4deeedbcd5",
          "transactionIndex": "0x2",
          "logIndex": "0x8",
          "removed": false
        },
        {
          "address": "0x79152c303ad5ae429edefa4553cb1ad2c6ee1396",
          "topics": [
            "0xbc9ee36b6ca0bdd5b3840e6d329dd19a2490d880c7ce24d9818aa593adfb35be",
            "0x00000000000000000000000045dce8e4f2dc005a5f28206a46cb034697eeda8e",
            "0x000000000000000000000000000000000000000000000000000000000000759a",
            "0x00000000000000000000000045dce8e4f2dc005a5f28206a46cb034697eeda8e"
          ],
          "data": "0x00000000000000000000000043edd7f3831b08fe70b7555ddd373c8bf65a9050000000000000000000000000000000000000000000000000000009184e72a000",
          "blockHash": "0x558ca96def78a147d8af621cd8f9e094bf40946cf57e21a5828e213132b77f4d",
          "blockNumber": "0x391b1ca",
          "blockTimestamp": "0x6a040756",
          "transactionHash": "0xac0f55849daba609f68d7c39fad850e5108d4b4766d18dc25c498b4deeedbcd5",
          "transactionIndex": "0x2",
          "logIndex": "0x9",
          "removed": false
        }
      ],
      "logsBloom": "0x000000000000000000000002000000000200000000000000000000000010000100000000000000000000000000000000000000000000000000000080002010010080022000000000000000080000000000000000000000000000000000000000000000000200000080000000000008000000000000101000000000100000000000000000000000000000000800000000000000000000000000000001000000000200001080000000221000000000000000000000004000000404400000000200000000020000001000000000800000000010000080000000000000000000200000100400000000030000008c0000802010000000018000000000000000080000",
      "type": "0x2",
      "transactionHash": "0xac0f55849daba609f68d7c39fad850e5108d4b4766d18dc25c498b4deeedbcd5",
      "transactionIndex": "0x2",
      "blockHash": "0x558ca96def78a147d8af621cd8f9e094bf40946cf57e21a5828e213132b77f4d",
      "blockNumber": "0x391b1ca",
      "gasUsed": "0x91da5",
      "effectiveGasPrice": "0x1312d01",
      "blobGasUsed": "0xbb80",
      "from": "0x45dce8e4f2dc005a5f28206a46cb034697eeda8e",
      "to": "0x79152c303ad5ae429edefa4553cb1ad2c6ee1396",
      "contractAddress": null,
      "daFootprintGasScalar": "0x190",
      "l1BaseFeeScalar": "0x0",
      "l1BlobBaseFee": "0x4bbabf",
      "l1BlobBaseFeeScalar": "0x0",
      "l1Fee": "0x0",
      "l1GasPrice": "0x51fb418",
      "l1GasUsed": "0x788"
    },
    {
      "status": "0x1",
      "cumulativeGasUsed": "0xb7575",
      "logs": [
        {
          "address": "0x3ec3849c33291a9ef4c5db86de593eb4a37fde45",
          "topics": [
            "0x8c5be1e5ebec7d5bd14f71427d1e84f3dd0314c0f7b2291e5b200ac8c7c3b925",
            "0x00000000000000000000000045dce8e4f2dc005a5f28206a46cb034697eeda8e",
            "0x00000000000000000000000079152c303ad5ae429edefa4553cb1ad2c6ee1396"
          ],
          "data": "0x000000000000000000000000000000000000000000000000000009184e72a000",
          "blockHash": "0x558ca96def78a147d8af621cd8f9e094bf40946cf57e21a5828e213132b77f4d",
          "blockNumber": "0x391b1ca",
          "blockTimestamp": "0x6a040756",
          "transactionHash": "0x09fbb0edd6d1d708ccad3cf178f69e15071d1c3d22d56d6aa434794bc2975de7",
          "transactionIndex": "0x3",
          "logIndex": "0xa",
          "removed": false
        }
      ],
      "logsBloom": "0x00000000000000000000000200002000000000000000000000000000000000000000000000000000000000000000000000000000000000000000000000200001000000000000000000000000000000000000000000000000000000000000000000000000000000000000000000000000000000000000000000000010000000000000000000000000000000000000000000000000000020000040000000000000020000000000000000000000000000000000000000000000000000000000000000000000000000100000000000000000001000000000000000000000000000000010000000000000000000000000800000000000000000000000000000000000",
      "type": "0x2",
      "transactionHash": "0x09fbb0edd6d1d708ccad3cf178f69e15071d1c3d22d56d6aa434794bc2975de7",
      "transactionIndex": "0x3",
      "blockHash": "0x558ca96def78a147d8af621cd8f9e094bf40946cf57e21a5828e213132b77f4d",
      "blockNumber": "0x391b1ca",
      "gasUsed": "0xd1bb",
      "effectiveGasPrice": "0x1312d01",
      "blobGasUsed": "0x9c40",
      "from": "0x45dce8e4f2dc005a5f28206a46cb034697eeda8e",
      "to": "0x3ec3849c33291a9ef4c5db86de593eb4a37fde45",
      "contractAddress": null,
      "daFootprintGasScalar": "0x190",
      "l1BaseFeeScalar": "0x0",
      "l1BlobBaseFee": "0x4bbabf",
      "l1BlobBaseFeeScalar": "0x0",
      "l1Fee": "0x0",
      "l1GasPrice": "0x51fb418",
      "l1GasUsed": "0x640"
    },
    {
      "status": "0x1",
      "cumulativeGasUsed": "0x156ed7",
      "logs": [
        {
          "address": "0x3ec3849c33291a9ef4c5db86de593eb4a37fde45",
          "topics": [
            "0x8c5be1e5ebec7d5bd14f71427d1e84f3dd0314c0f7b2291e5b200ac8c7c3b925",
            "0x00000000000000000000000045dce8e4f2dc005a5f28206a46cb034697eeda8e",
            "0x00000000000000000000000079152c303ad5ae429edefa4553cb1ad2c6ee1396"
          ],
          "data": "0x0000000000000000000000000000000000000000000000000000000000000000",
          "blockHash": "0x558ca96def78a147d8af621cd8f9e094bf40946cf57e21a5828e213132b77f4d",
          "blockNumber": "0x391b1ca",
          "blockTimestamp": "0x6a040756",
          "transactionHash": "0x99a01aff24f4b589d9b5c2e863dcd42163c7eefb19018cda15860591dc9ea468",
          "transactionIndex": "0x5",
          "logIndex": "0xd",
          "removed": false
        },
        {
          "address": "0x3ec3849c33291a9ef4c5db86de593eb4a37fde45",
          "topics": [
            "0xddf252ad1be2c89b69c2b068fc378daa952ba7f163c4a11628f55a4df523b3ef",
            "0x00000000000000000000000045dce8e4f2dc005a5f28206a46cb034697eeda8e",
            "0x00000000000000000000000079152c303ad5ae429edefa4553cb1ad2c6ee1396"
          ],
          "data": "0x000000000000000000000000000000000000000000000000000009184e72a000",
          "blockHash": "0x558ca96def78a147d8af621cd8f9e094bf40946cf57e21a5828e213132b77f4d",
          "blockNumber": "0x391b1ca",
          "blockTimestamp": "0x6a040756",
          "transactionHash": "0x99a01aff24f4b589d9b5c2e863dcd42163c7eefb19018cda15860591dc9ea468",
          "transactionIndex": "0x5",
          "logIndex": "0xe",
          "removed": false
        },
        {
          "address": "0x3ec3849c33291a9ef4c5db86de593eb4a37fde45",
          "topics": [
            "0x8c5be1e5ebec7d5bd14f71427d1e84f3dd0314c0f7b2291e5b200ac8c7c3b925",
            "0x00000000000000000000000079152c303ad5ae429edefa4553cb1ad2c6ee1396",
            "0x0000000000000000000000003ec3849c33291a9ef4c5db86de593eb4a37fde45"
          ],
          "data": "0x000000000000000000000000000000000000000000000000000009184e72a000",
          "blockHash": "0x558ca96def78a147d8af621cd8f9e094bf40946cf57e21a5828e213132b77f4d",
          "blockNumber": "0x391b1ca",
          "blockTimestamp": "0x6a040756",
          "transactionHash": "0x99a01aff24f4b589d9b5c2e863dcd42163c7eefb19018cda15860591dc9ea468",
          "transactionIndex": "0x5",
          "logIndex": "0xf",
          "removed": false
        },
        {
          "address": "0x3ec3849c33291a9ef4c5db86de593eb4a37fde45",
          "topics": [
            "0xddf252ad1be2c89b69c2b068fc378daa952ba7f163c4a11628f55a4df523b3ef",
            "0x00000000000000000000000079152c303ad5ae429edefa4553cb1ad2c6ee1396",
            "0x0000000000000000000000000000000000000000000000000000000000000000"
          ],
          "data": "0x000000000000000000000000000000000000000000000000000009184e72a000",
          "blockHash": "0x558ca96def78a147d8af621cd8f9e094bf40946cf57e21a5828e213132b77f4d",
          "blockNumber": "0x391b1ca",
          "blockTimestamp": "0x6a040756",
          "transactionHash": "0x99a01aff24f4b589d9b5c2e863dcd42163c7eefb19018cda15860591dc9ea468",
          "transactionIndex": "0x5",
          "logIndex": "0x10",
          "removed": false
        },
        {
          "address": "0xe1844c5d63a9543023008d332bd3d2e6f1fe1043",
          "topics": [
            "0x61ed099e74a97a1d7f8bb0952a88ca8b7b8ebd00c126ea04671f92a81213318a"
          ],
          "data": "0x000000000000000000000000cce466a522984415bc91338c232d98869193d46e0000000000000000000000000000000000000000000000000000d84f393e3ba2",
          "blockHash": "0x558ca96def78a147d8af621cd8f9e094bf40946cf57e21a5828e213132b77f4d",
          "blockNumber": "0x391b1ca",
          "blockTimestamp": "0x6a040756",
          "transactionHash": "0x99a01aff24f4b589d9b5c2e863dcd42163c7eefb19018cda15860591dc9ea468",
          "transactionIndex": "0x5",
          "logIndex": "0x11",
          "removed": false
        },
        {
          "address": "0xe1844c5d63a9543023008d332bd3d2e6f1fe1043",
          "topics": [
            "0x07ea52d82345d6e838192107d8fd7123d9c2ec8e916cd0aad13fd2b60db24644"
          ],
          "data": "0x0000000000000000000000000000000000000000000000000000000000000060000000000000000000000000000000000000000000000000000000000000012000000000000000000000000000000000000000000000000000000000000001400000000000000000000000000000000000000000000000000000000000000005000000000000000000000000047d9dbe4fc6b5c916f37237f547f9f42809935a00000000000000000000000028af4dadbc5066e994986e8bb105240023dc44b60000000000000000000000002ae36a544b904f2f2960f6fd1a6084b4b11ba3340000000000000000000000009c061c9a4782294eef65ef28cb88233a987f4bdd000000000000000000000000dd7b5e1db4aafd5c8ec3b764efb8ed265aa5445b000000000000000000000000000000000000000000000000000000000000000000000000000000000000000000000000000000000000000000000000000000050000000000000000000000000000000000000000000000000000000024d1dc610000000000000000000000000000000000000000000000000000000023512ab900000000000000000000000000000000000000000000000000000000253fc5fe0000000000000000000000000000000000000000000000000000000023bf14560000000000000000000000000000000000000000000000000000000023bf1456",
          "blockHash": "0x558ca96def78a147d8af621cd8f9e094bf40946cf57e21a5828e213132b77f4d",
          "blockNumber": "0x391b1ca",
          "blockTimestamp": "0x6a040756",
          "transactionHash": "0x99a01aff24f4b589d9b5c2e863dcd42163c7eefb19018cda15860591dc9ea468",
          "transactionIndex": "0x5",
          "logIndex": "0x12",
          "removed": false
        },
        {
          "address": "0x1a44076050125825900e736c501f859c50fe728c",
          "topics": [
            "0x1ab700d4ced0c005b164c0f789fd09fcbb0156d4c2041b8a3bfbcd961cd1567f"
          ],
          "data": "0x00000000000000000000000000000000000000000000000000000000000000600000000000000000000000000000000000000000000000000000000000000180000000000000000000000000e1844c5d63a9543023008d332bd3d2e6f1fe104300000000000000000000000000000000000000000000000000000000000000f9010000000000000001000076420000000000000000000000003ec3849c33291a9ef4c5db86de593eb4a37fde450000762f000000000000000000000000999dfabe3b1cc2ef66eb032eea42fea329bba1685d3030be4b022952400845af2c58365c022e37cf4d610b0c88278b209d8d005d0000000000000000000000002a2019b30c157db6c1c01306b8025167dbe1803b000000000000000a00000000000000000000000079152c303ad5ae429edefa4553cb1ad2c6ee139600000000000000000000000045dce8e4f2dc005a5f28206a46cb034697eeda8e000000000000000000000000000000000000000000000000000000000000759a00000000000000000000000000000000000000000000000000000000000000000000000000002c0003010011010000000000000000000000000003d090010013030000000000000000000000000000000f42400000000000000000000000000000000000000000",
          "blockHash": "0x558ca96def78a147d8af621cd8f9e094bf40946cf57e21a5828e213132b77f4d",
          "blockNumber": "0x391b1ca",
          "blockTimestamp": "0x6a040756",
          "transactionHash": "0x99a01aff24f4b589d9b5c2e863dcd42163c7eefb19018cda15860591dc9ea468",
          "transactionIndex": "0x5",
          "logIndex": "0x13",
          "removed": false
        },
        {
          "address": "0x3ec3849c33291a9ef4c5db86de593eb4a37fde45",
          "topics": [
            "0x85496b760a4b7f8d66384b9df21b381f5d1b1e79f229a47aaf4c232edc2fe59a",
            "0x5d3030be4b022952400845af2c58365c022e37cf4d610b0c88278b209d8d005d",
            "0x00000000000000000000000079152c303ad5ae429edefa4553cb1ad2c6ee1396"
          ],
          "data": "0x000000000000000000000000000000000000000000000000000000000000762f000000000000000000000000000000000000000000000000000009184e72a000000000000000000000000000000000000000000000000000000009184e72a000",
          "blockHash": "0x558ca96def78a147d8af621cd8f9e094bf40946cf57e21a5828e213132b77f4d",
          "blockNumber": "0x391b1ca",
          "blockTimestamp": "0x6a040756",
          "transactionHash": "0x99a01aff24f4b589d9b5c2e863dcd42163c7eefb19018cda15860591dc9ea468",
          "transactionIndex": "0x5",
          "logIndex": "0x14",
          "removed": false
        },
        {
          "address": "0x79152c303ad5ae429edefa4553cb1ad2c6ee1396",
          "topics": [
            "0xbc9ee36b6ca0bdd5b3840e6d329dd19a2490d880c7ce24d9818aa593adfb35be",
            "0x00000000000000000000000045dce8e4f2dc005a5f28206a46cb034697eeda8e",
            "0x000000000000000000000000000000000000000000000000000000000000759a",
            "0x00000000000000000000000045dce8e4f2dc005a5f28206a46cb034697eeda8e"
          ],
          "data": "0x0000000000000000000000003ec3849c33291a9ef4c5db86de593eb4a37fde45000000000000000000000000000000000000000000000000000009184e72a000",
          "blockHash": "0x558ca96def78a147d8af621cd8f9e094bf40946cf57e21a5828e213132b77f4d",
          "blockNumber": "0x391b1ca",
          "blockTimestamp": "0x6a040756",
          "transactionHash": "0x99a01aff24f4b589d9b5c2e863dcd42163c7eefb19018cda15860591dc9ea468",
          "transactionIndex": "0x5",
          "logIndex": "0x15",
          "removed": false
        }
      ],
      "logsBloom": "0x00000000000000000000000200002000020000000000000000000000001000000000000000000000000000000000000000000000000000000000000020201021008002000000000000000008000000000000000000000000000000000000000000000000020000008000000000000800000000000010100000000010000000000000000000000000000000080000000000000000000020000040004000000000020000108000000020100000400000000000000000401000040440000000000000000002000000100000000080000000001000008000000000000000000020000010040000000003000000800000802010000000018000000000000000000000",
      "type": "0x2",
      "transactionHash": "0x99a01aff24f4b589d9b5c2e863dcd42163c7eefb19018cda15860591dc9ea468",
      "transactionIndex": "0x5",
      "blockHash": "0x558ca96def78a147d8af621cd8f9e094bf40946cf57e21a5828e213132b77f4d",
      "blockNumber": "0x391b1ca",
      "gasUsed": "0x96071",
      "effectiveGasPrice": "0x1312d01",
      "blobGasUsed": "0xbb80",
      "from": "0x45dce8e4f2dc005a5f28206a46cb034697eeda8e",
      "to": "0x79152c303ad5ae429edefa4553cb1ad2c6ee1396",
      "contractAddress": null,
      "daFootprintGasScalar": "0x190",
      "l1BaseFeeScalar": "0x0",
      "l1BlobBaseFee": "0x4bbabf",
      "l1BlobBaseFeeScalar": "0x0",
      "l1Fee": "0x0",
      "l1GasPrice": "0x51fb418",
      "l1GasUsed": "0x788"
    },
    {
      "status": "0x1",
      "cumulativeGasUsed": "0x16407c",
      "logs": [
        {
          "address": "0x64445f0aecc51e94ad52d8ac56b7190e764e561a",
          "topics": [
            "0x8c5be1e5ebec7d5bd14f71427d1e84f3dd0314c0f7b2291e5b200ac8c7c3b925",
            "0x00000000000000000000000045dce8e4f2dc005a5f28206a46cb034697eeda8e",
            "0x00000000000000000000000079152c303ad5ae429edefa4553cb1ad2c6ee1396"
          ],
          "data": "0x000000000000000000000000000000000000000000000000000009184e72a000",
          "blockHash": "0x558ca96def78a147d8af621cd8f9e094bf40946cf57e21a5828e213132b77f4d",
          "blockNumber": "0x391b1ca",
          "blockTimestamp": "0x6a040756",
          "transactionHash": "0x80ae3fcf232d45514dd4f8dcc5b1eb0ee36bce51ccbf2569ab40c8d3cf092488",
          "transactionIndex": "0x6",
          "logIndex": "0x16",
          "removed": false
        }
      ],
      "logsBloom": "0x00000000000000000000000200000000000000000000000000000000000000000000000000000000000000000000000000000000000000000000000000200001002000000000000000000000000000000000000000000000000000000000000000000000000000000000000000000000000000000000000000000010000000000000000000000000000000000000000000000000000000000000000000000000020000000000000000000008000000000000000000000000000000000000000000000000000000100000000000000000001000000000000000000000000000000010000000000000000000000000800000000008000000000000000000000000",
      "type": "0x2",
      "transactionHash": "0x80ae3fcf232d45514dd4f8dcc5b1eb0ee36bce51ccbf2569ab40c8d3cf092488",
      "transactionIndex": "0x6",
      "blockHash": "0x558ca96def78a147d8af621cd8f9e094bf40946cf57e21a5828e213132b77f4d",
      "blockNumber": "0x391b1ca",
      "gasUsed": "0xd1a5",
      "effectiveGasPrice": "0x1312d01",
      "blobGasUsed": "0x9c40",
      "from": "0x45dce8e4f2dc005a5f28206a46cb034697eeda8e",
      "to": "0x64445f0aecc51e94ad52d8ac56b7190e764e561a",
      "contractAddress": null,
      "daFootprintGasScalar": "0x190",
      "l1BaseFeeScalar": "0x0",
      "l1BlobBaseFee": "0x4bbabf",
      "l1BlobBaseFeeScalar": "0x0",
      "l1Fee": "0x0",
      "l1GasPrice": "0x51fb418",
      "l1GasUsed": "0x640"
    },
    {
      "status": "0x1",
      "cumulativeGasUsed": "0x1f5e0b",
      "logs": [
        {
          "address": "0x64445f0aecc51e94ad52d8ac56b7190e764e561a",
          "topics": [
            "0x8c5be1e5ebec7d5bd14f71427d1e84f3dd0314c0f7b2291e5b200ac8c7c3b925",
            "0x00000000000000000000000045dce8e4f2dc005a5f28206a46cb034697eeda8e",
            "0x00000000000000000000000079152c303ad5ae429edefa4553cb1ad2c6ee1396"
          ],
          "data": "0x0000000000000000000000000000000000000000000000000000000000000000",
          "blockHash": "0x558ca96def78a147d8af621cd8f9e094bf40946cf57e21a5828e213132b77f4d",
          "blockNumber": "0x391b1ca",
          "blockTimestamp": "0x6a040756",
          "transactionHash": "0x9349ec6641c0d8111870ef937579278f1d5563aa950555bb11b7c3c7f10741ee",
          "transactionIndex": "0x7",
          "logIndex": "0x17",
          "removed": false
        },
        {
          "address": "0x64445f0aecc51e94ad52d8ac56b7190e764e561a",
          "topics": [
            "0xddf252ad1be2c89b69c2b068fc378daa952ba7f163c4a11628f55a4df523b3ef",
            "0x00000000000000000000000045dce8e4f2dc005a5f28206a46cb034697eeda8e",
            "0x00000000000000000000000079152c303ad5ae429edefa4553cb1ad2c6ee1396"
          ],
          "data": "0x000000000000000000000000000000000000000000000000000009184e72a000",
          "blockHash": "0x558ca96def78a147d8af621cd8f9e094bf40946cf57e21a5828e213132b77f4d",
          "blockNumber": "0x391b1ca",
          "blockTimestamp": "0x6a040756",
          "transactionHash": "0x9349ec6641c0d8111870ef937579278f1d5563aa950555bb11b7c3c7f10741ee",
          "transactionIndex": "0x7",
          "logIndex": "0x18",
          "removed": false
        },
        {
          "address": "0x64445f0aecc51e94ad52d8ac56b7190e764e561a",
          "topics": [
            "0x8c5be1e5ebec7d5bd14f71427d1e84f3dd0314c0f7b2291e5b200ac8c7c3b925",
            "0x00000000000000000000000079152c303ad5ae429edefa4553cb1ad2c6ee1396",
            "0x00000000000000000000000064445f0aecc51e94ad52d8ac56b7190e764e561a"
          ],
          "data": "0x000000000000000000000000000000000000000000000000000009184e72a000",
          "blockHash": "0x558ca96def78a147d8af621cd8f9e094bf40946cf57e21a5828e213132b77f4d",
          "blockNumber": "0x391b1ca",
          "blockTimestamp": "0x6a040756",
          "transactionHash": "0x9349ec6641c0d8111870ef937579278f1d5563aa950555bb11b7c3c7f10741ee",
          "transactionIndex": "0x7",
          "logIndex": "0x19",
          "removed": false
        },
        {
          "address": "0x64445f0aecc51e94ad52d8ac56b7190e764e561a",
          "topics": [
            "0xddf252ad1be2c89b69c2b068fc378daa952ba7f163c4a11628f55a4df523b3ef",
            "0x00000000000000000000000079152c303ad5ae429edefa4553cb1ad2c6ee1396",
            "0x0000000000000000000000000000000000000000000000000000000000000000"
          ],
          "data": "0x000000000000000000000000000000000000000000000000000009184e72a000",
          "blockHash": "0x558ca96def78a147d8af621cd8f9e094bf40946cf57e21a5828e213132b77f4d",
          "blockNumber": "0x391b1ca",
          "blockTimestamp": "0x6a040756",
          "transactionHash": "0x9349ec6641c0d8111870ef937579278f1d5563aa950555bb11b7c3c7f10741ee",
          "transactionIndex": "0x7",
          "logIndex": "0x1a",
          "removed": false
        },
        {
          "address": "0xe1844c5d63a9543023008d332bd3d2e6f1fe1043",
          "topics": [
            "0x61ed099e74a97a1d7f8bb0952a88ca8b7b8ebd00c126ea04671f92a81213318a"
          ],
          "data": "0x000000000000000000000000cce466a522984415bc91338c232d98869193d46e0000000000000000000000000000000000000000000000000000d84f393e3ba2",
          "blockHash": "0x558ca96def78a147d8af621cd8f9e094bf40946cf57e21a5828e213132b77f4d",
          "blockNumber": "0x391b1ca",
          "blockTimestamp": "0x6a040756",
          "transactionHash": "0x9349ec6641c0d8111870ef937579278f1d5563aa950555bb11b7c3c7f10741ee",
          "transactionIndex": "0x7",
          "logIndex": "0x1b",
          "removed": false
        },
        {
          "address": "0xe1844c5d63a9543023008d332bd3d2e6f1fe1043",
          "topics": [
            "0x07ea52d82345d6e838192107d8fd7123d9c2ec8e916cd0aad13fd2b60db24644"
          ],
          "data": "0x0000000000000000000000000000000000000000000000000000000000000060000000000000000000000000000000000000000000000000000000000000012000000000000000000000000000000000000000000000000000000000000001400000000000000000000000000000000000000000000000000000000000000005000000000000000000000000047d9dbe4fc6b5c916f37237f547f9f42809935a00000000000000000000000028af4dadbc5066e994986e8bb105240023dc44b60000000000000000000000002ae36a544b904f2f2960f6fd1a6084b4b11ba3340000000000000000000000009c061c9a4782294eef65ef28cb88233a987f4bdd000000000000000000000000dd7b5e1db4aafd5c8ec3b764efb8ed265aa5445b000000000000000000000000000000000000000000000000000000000000000000000000000000000000000000000000000000000000000000000000000000050000000000000000000000000000000000000000000000000000000024d1dc610000000000000000000000000000000000000000000000000000000023512ab900000000000000000000000000000000000000000000000000000000253fc5fe0000000000000000000000000000000000000000000000000000000023bf14560000000000000000000000000000000000000000000000000000000023bf1456",
          "blockHash": "0x558ca96def78a147d8af621cd8f9e094bf40946cf57e21a5828e213132b77f4d",
          "blockNumber": "0x391b1ca",
          "blockTimestamp": "0x6a040756",
          "transactionHash": "0x9349ec6641c0d8111870ef937579278f1d5563aa950555bb11b7c3c7f10741ee",
          "transactionIndex": "0x7",
          "logIndex": "0x1c",
          "removed": false
        },
        {
          "address": "0x1a44076050125825900e736c501f859c50fe728c",
          "topics": [
            "0x1ab700d4ced0c005b164c0f789fd09fcbb0156d4c2041b8a3bfbcd961cd1567f"
          ],
          "data": "0x00000000000000000000000000000000000000000000000000000000000000600000000000000000000000000000000000000000000000000000000000000180000000000000000000000000e1844c5d63a9543023008d332bd3d2e6f1fe104300000000000000000000000000000000000000000000000000000000000000f90100000000000000030000764200000000000000000000000064445f0aecc51e94ad52d8ac56b7190e764e561a0000762f000000000000000000000000d86fbbd0c8715d2c1f40e451e5c3514e65e7576a6adfa77122ee62c372448f8a238f5f6d4e8acc288b6b7bcb6cd445b23a68aa1a0000000000000000000000002a2019b30c157db6c1c01306b8025167dbe1803b000000000000000a00000000000000000000000079152c303ad5ae429edefa4553cb1ad2c6ee139600000000000000000000000045dce8e4f2dc005a5f28206a46cb034697eeda8e000000000000000000000000000000000000000000000000000000000000759a00000000000000000000000000000000000000000000000000000000000000000000000000002c0003010011010000000000000000000000000003d090010013030000000000000000000000000000000f42400000000000000000000000000000000000000000",
          "blockHash": "0x558ca96def78a147d8af621cd8f9e094bf40946cf57e21a5828e213132b77f4d",
          "blockNumber": "0x391b1ca",
          "blockTimestamp": "0x6a040756",
          "transactionHash": "0x9349ec6641c0d8111870ef937579278f1d5563aa950555bb11b7c3c7f10741ee",
          "transactionIndex": "0x7",
          "logIndex": "0x1d",
          "removed": false
        },
        {
          "address": "0x64445f0aecc51e94ad52d8ac56b7190e764e561a",
          "topics": [
            "0x85496b760a4b7f8d66384b9df21b381f5d1b1e79f229a47aaf4c232edc2fe59a",
            "0x6adfa77122ee62c372448f8a238f5f6d4e8acc288b6b7bcb6cd445b23a68aa1a",
            "0x00000000000000000000000079152c303ad5ae429edefa4553cb1ad2c6ee1396"
          ],
          "data": "0x000000000000000000000000000000000000000000000000000000000000762f000000000000000000000000000000000000000000000000000009184e72a000000000000000000000000000000000000000000000000000000009184e72a000",
          "blockHash": "0x558ca96def78a147d8af621cd8f9e094bf40946cf57e21a5828e213132b77f4d",
          "blockNumber": "0x391b1ca",
          "blockTimestamp": "0x6a040756",
          "transactionHash": "0x9349ec6641c0d8111870ef937579278f1d5563aa950555bb11b7c3c7f10741ee",
          "transactionIndex": "0x7",
          "logIndex": "0x1e",
          "removed": false
        },
        {
          "address": "0x79152c303ad5ae429edefa4553cb1ad2c6ee1396",
          "topics": [
            "0xbc9ee36b6ca0bdd5b3840e6d329dd19a2490d880c7ce24d9818aa593adfb35be",
            "0x00000000000000000000000045dce8e4f2dc005a5f28206a46cb034697eeda8e",
            "0x000000000000000000000000000000000000000000000000000000000000759a",
            "0x00000000000000000000000045dce8e4f2dc005a5f28206a46cb034697eeda8e"
          ],
          "data": "0x00000000000000000000000064445f0aecc51e94ad52d8ac56b7190e764e561a000000000000000000000000000000000000000000000000000009184e72a000",
          "blockHash": "0x558ca96def78a147d8af621cd8f9e094bf40946cf57e21a5828e213132b77f4d",
          "blockNumber": "0x391b1ca",
          "blockTimestamp": "0x6a040756",
          "transactionHash": "0x9349ec6641c0d8111870ef937579278f1d5563aa950555bb11b7c3c7f10741ee",
          "transactionIndex": "0x7",
          "logIndex": "0x1f",
          "removed": false
        }
      ],
      "logsBloom": "0x0000000000000000000000020000000802000000000000000000000000100000000000000000000000000000000000000000000000000000000000000020100100a00200000000000000000800000000000000000000000000000000000000000000000002000000800000000000080000000000001010000000001000000000000000000000000000000008000000000000000000000000000000000000000002000010800008002010000c000000000000000000400000040440000000000000000002000000100000000080000000001000008000000000000000000020000010040000000003000000800000802810000008018000000400000000000002",
      "type": "0x2",
      "transactionHash": "0x9349ec6641c0d8111870ef937579278f1d5563aa950555bb11b7c3c7f10741ee",
      "transactionIndex": "0x7",
      "blockHash": "0x558ca96def78a147d8af621cd8f9e094bf40946cf57e21a5828e213132b77f4d",
      "blockNumber": "0x391b1ca",
      "gasUsed": "0x91d8f",
      "effectiveGasPrice": "0x1312d01",
      "blobGasUsed": "0xbb80",
      "from": "0x45dce8e4f2dc005a5f28206a46cb034697eeda8e",
      "to": "0x79152c303ad5ae429edefa4553cb1ad2c6ee1396",
      "contractAddress": null,
      "daFootprintGasScalar": "0x190",
      "l1BaseFeeScalar": "0x0",
      "l1BlobBaseFee": "0x4bbabf",
      "l1BlobBaseFeeScalar": "0x0",
      "l1Fee": "0x0",
      "l1GasPrice": "0x51fb418",
      "l1GasUsed": "0x788"
    },
    {
      "status": "0x1",
      "cumulativeGasUsed": "0x202fc6",
      "logs": [
        {
          "address": "0x90581eca9469d8d7f5d3b60f4715027adfcf7927",
          "topics": [
            "0x8c5be1e5ebec7d5bd14f71427d1e84f3dd0314c0f7b2291e5b200ac8c7c3b925",
            "0x00000000000000000000000045dce8e4f2dc005a5f28206a46cb034697eeda8e",
            "0x00000000000000000000000079152c303ad5ae429edefa4553cb1ad2c6ee1396"
          ],
          "data": "0x000000000000000000000000000000000000000000000000000009184e72a000",
          "blockHash": "0x558ca96def78a147d8af621cd8f9e094bf40946cf57e21a5828e213132b77f4d",
          "blockNumber": "0x391b1ca",
          "blockTimestamp": "0x6a040756",
          "transactionHash": "0xc3f492a10c3630aaf6305e194c0039e6fa8b2d07f0369037a6cfab3945efc972",
          "transactionIndex": "0x8",
          "logIndex": "0x20",
          "removed": false
        }
      ],
      "logsBloom": "0x00000000000000000000000200000000000000000000000000000000000000000000000000000000000000000000000000000000000000000000000000200001000000000000000000000000000000000000000000000000000000000000000000000000000000000000000000000000000000000000000000000010000000000000000000000004000010000000000000000000000000000000000000000000020000000000000000000000000000000000000000000000000000000000000000000000000000100000000000000000001000000000000000000000000000000010000000000000000000000000800000400000000000000000000000000000",
      "type": "0x2",
      "transactionHash": "0xc3f492a10c3630aaf6305e194c0039e6fa8b2d07f0369037a6cfab3945efc972",
      "transactionIndex": "0x8",
      "blockHash": "0x558ca96def78a147d8af621cd8f9e094bf40946cf57e21a5828e213132b77f4d",
      "blockNumber": "0x391b1ca",
      "gasUsed": "0xd1bb",
      "effectiveGasPrice": "0x1312d01",
      "blobGasUsed": "0x9c40",
      "from": "0x45dce8e4f2dc005a5f28206a46cb034697eeda8e",
      "to": "0x90581eca9469d8d7f5d3b60f4715027adfcf7927",
      "contractAddress": null,
      "daFootprintGasScalar": "0x190",
      "l1BaseFeeScalar": "0x0",
      "l1BlobBaseFee": "0x4bbabf",
      "l1BlobBaseFeeScalar": "0x0",
      "l1Fee": "0x0",
      "l1GasPrice": "0x51fb418",
      "l1GasUsed": "0x640"
    },
    {
      "status": "0x1",
      "cumulativeGasUsed": "0x299037",
      "logs": [
        {
          "address": "0x90581eca9469d8d7f5d3b60f4715027adfcf7927",
          "topics": [
            "0x8c5be1e5ebec7d5bd14f71427d1e84f3dd0314c0f7b2291e5b200ac8c7c3b925",
            "0x00000000000000000000000045dce8e4f2dc005a5f28206a46cb034697eeda8e",
            "0x00000000000000000000000079152c303ad5ae429edefa4553cb1ad2c6ee1396"
          ],
          "data": "0x0000000000000000000000000000000000000000000000000000000000000000",
          "blockHash": "0x558ca96def78a147d8af621cd8f9e094bf40946cf57e21a5828e213132b77f4d",
          "blockNumber": "0x391b1ca",
          "blockTimestamp": "0x6a040756",
          "transactionHash": "0xf2b05491a9df871de1cd7a2e178879b945f7e42d0762b47d01118b3cd7ecfe43",
          "transactionIndex": "0x9",
          "logIndex": "0x21",
          "removed": false
        },
        {
          "address": "0x90581eca9469d8d7f5d3b60f4715027adfcf7927",
          "topics": [
            "0xddf252ad1be2c89b69c2b068fc378daa952ba7f163c4a11628f55a4df523b3ef",
            "0x00000000000000000000000045dce8e4f2dc005a5f28206a46cb034697eeda8e",
            "0x00000000000000000000000079152c303ad5ae429edefa4553cb1ad2c6ee1396"
          ],
          "data": "0x000000000000000000000000000000000000000000000000000009184e72a000",
          "blockHash": "0x558ca96def78a147d8af621cd8f9e094bf40946cf57e21a5828e213132b77f4d",
          "blockNumber": "0x391b1ca",
          "blockTimestamp": "0x6a040756",
          "transactionHash": "0xf2b05491a9df871de1cd7a2e178879b945f7e42d0762b47d01118b3cd7ecfe43",
          "transactionIndex": "0x9",
          "logIndex": "0x22",
          "removed": false
        },
        {
          "address": "0x90581eca9469d8d7f5d3b60f4715027adfcf7927",
          "topics": [
            "0x8c5be1e5ebec7d5bd14f71427d1e84f3dd0314c0f7b2291e5b200ac8c7c3b925",
            "0x00000000000000000000000079152c303ad5ae429edefa4553cb1ad2c6ee1396",
            "0x00000000000000000000000090581eca9469d8d7f5d3b60f4715027adfcf7927"
          ],
          "data": "0x000000000000000000000000000000000000000000000000000009184e72a000",
          "blockHash": "0x558ca96def78a147d8af621cd8f9e094bf40946cf57e21a5828e213132b77f4d",
          "blockNumber": "0x391b1ca",
          "blockTimestamp": "0x6a040756",
          "transactionHash": "0xf2b05491a9df871de1cd7a2e178879b945f7e42d0762b47d01118b3cd7ecfe43",
          "transactionIndex": "0x9",
          "logIndex": "0x23",
          "removed": false
        },
        {
          "address": "0x90581eca9469d8d7f5d3b60f4715027adfcf7927",
          "topics": [
            "0xddf252ad1be2c89b69c2b068fc378daa952ba7f163c4a11628f55a4df523b3ef",
            "0x00000000000000000000000079152c303ad5ae429edefa4553cb1ad2c6ee1396",
            "0x0000000000000000000000000000000000000000000000000000000000000000"
          ],
          "data": "0x000000000000000000000000000000000000000000000000000009184e72a000",
          "blockHash": "0x558ca96def78a147d8af621cd8f9e094bf40946cf57e21a5828e213132b77f4d",
          "blockNumber": "0x391b1ca",
          "blockTimestamp": "0x6a040756",
          "transactionHash": "0xf2b05491a9df871de1cd7a2e178879b945f7e42d0762b47d01118b3cd7ecfe43",
          "transactionIndex": "0x9",
          "logIndex": "0x24",
          "removed": false
        },
        {
          "address": "0xe1844c5d63a9543023008d332bd3d2e6f1fe1043",
          "topics": [
            "0x61ed099e74a97a1d7f8bb0952a88ca8b7b8ebd00c126ea04671f92a81213318a"
          ],
          "data": "0x000000000000000000000000cce466a522984415bc91338c232d98869193d46e0000000000000000000000000000000000000000000000000000d84f393e3ba2",
          "blockHash": "0x558ca96def78a147d8af621cd8f9e094bf40946cf57e21a5828e213132b77f4d",
          "blockNumber": "0x391b1ca",
          "blockTimestamp": "0x6a040756",
          "transactionHash": "0xf2b05491a9df871de1cd7a2e178879b945f7e42d0762b47d01118b3cd7ecfe43",
          "transactionIndex": "0x9",
          "logIndex": "0x25",
          "removed": false
        },
        {
          "address": "0xe1844c5d63a9543023008d332bd3d2e6f1fe1043",
          "topics": [
            "0x07ea52d82345d6e838192107d8fd7123d9c2ec8e916cd0aad13fd2b60db24644"
          ],
          "data": "0x0000000000000000000000000000000000000000000000000000000000000060000000000000000000000000000000000000000000000000000000000000012000000000000000000000000000000000000000000000000000000000000001400000000000000000000000000000000000000000000000000000000000000005000000000000000000000000047d9dbe4fc6b5c916f37237f547f9f42809935a00000000000000000000000028af4dadbc5066e994986e8bb105240023dc44b60000000000000000000000002ae36a544b904f2f2960f6fd1a6084b4b11ba3340000000000000000000000009c061c9a4782294eef65ef28cb88233a987f4bdd000000000000000000000000dd7b5e1db4aafd5c8ec3b764efb8ed265aa5445b000000000000000000000000000000000000000000000000000000000000000000000000000000000000000000000000000000000000000000000000000000050000000000000000000000000000000000000000000000000000000024d1dc610000000000000000000000000000000000000000000000000000000023512ab900000000000000000000000000000000000000000000000000000000253fc5fe0000000000000000000000000000000000000000000000000000000023bf14560000000000000000000000000000000000000000000000000000000023bf1456",
          "blockHash": "0x558ca96def78a147d8af621cd8f9e094bf40946cf57e21a5828e213132b77f4d",
          "blockNumber": "0x391b1ca",
          "blockTimestamp": "0x6a040756",
          "transactionHash": "0xf2b05491a9df871de1cd7a2e178879b945f7e42d0762b47d01118b3cd7ecfe43",
          "transactionIndex": "0x9",
          "logIndex": "0x26",
          "removed": false
        },
        {
          "address": "0x1a44076050125825900e736c501f859c50fe728c",
          "topics": [
            "0x1ab700d4ced0c005b164c0f789fd09fcbb0156d4c2041b8a3bfbcd961cd1567f"
          ],
          "data": "0x00000000000000000000000000000000000000000000000000000000000000600000000000000000000000000000000000000000000000000000000000000180000000000000000000000000e1844c5d63a9543023008d332bd3d2e6f1fe104300000000000000000000000000000000000000000000000000000000000000f90100000000000000010000764200000000000000000000000090581eca9469d8d7f5d3b60f4715027adfcf79270000762f00000000000000000000000075c38d46001b0f8108c4136216bd2694982c20fc7492c83ba4b6e0050209f6867e5a8b67d82b70b73c2984f0b340e102f85efe0f0000000000000000000000002a2019b30c157db6c1c01306b8025167dbe1803b000000000000000a00000000000000000000000079152c303ad5ae429edefa4553cb1ad2c6ee139600000000000000000000000045dce8e4f2dc005a5f28206a46cb034697eeda8e000000000000000000000000000000000000000000000000000000000000759a00000000000000000000000000000000000000000000000000000000000000000000000000002c0003010011010000000000000000000000000003d090010013030000000000000000000000000000000f42400000000000000000000000000000000000000000",
          "blockHash": "0x558ca96def78a147d8af621cd8f9e094bf40946cf57e21a5828e213132b77f4d",
          "blockNumber": "0x391b1ca",
          "blockTimestamp": "0x6a040756",
          "transactionHash": "0xf2b05491a9df871de1cd7a2e178879b945f7e42d0762b47d01118b3cd7ecfe43",
          "transactionIndex": "0x9",
          "logIndex": "0x27",
          "removed": false
        },
        {
          "address": "0x90581eca9469d8d7f5d3b60f4715027adfcf7927",
          "topics": [
            "0x85496b760a4b7f8d66384b9df21b381f5d1b1e79f229a47aaf4c232edc2fe59a",
            "0x7492c83ba4b6e0050209f6867e5a8b67d82b70b73c2984f0b340e102f85efe0f",
            "0x00000000000000000000000079152c303ad5ae429edefa4553cb1ad2c6ee1396"
          ],
          "data": "0x000000000000000000000000000000000000000000000000000000000000762f000000000000000000000000000000000000000000000000000009184e72a000000000000000000000000000000000000000000000000000000009184e72a000",
          "blockHash": "0x558ca96def78a147d8af621cd8f9e094bf40946cf57e21a5828e213132b77f4d",
          "blockNumber": "0x391b1ca",
          "blockTimestamp": "0x6a040756",
          "transactionHash": "0xf2b05491a9df871de1cd7a2e178879b945f7e42d0762b47d01118b3cd7ecfe43",
          "transactionIndex": "0x9",
          "logIndex": "0x28",
          "removed": false
        },
        {
          "address": "0x79152c303ad5ae429edefa4553cb1ad2c6ee1396",
          "topics": [
            "0xbc9ee36b6ca0bdd5b3840e6d329dd19a2490d880c7ce24d9818aa593adfb35be",
            "0x00000000000000000000000045dce8e4f2dc005a5f28206a46cb034697eeda8e",
            "0x000000000000000000000000000000000000000000000000000000000000759a",
            "0x00000000000000000000000045dce8e4f2dc005a5f28206a46cb034697eeda8e"
          ],
          "data": "0x00000000000000000000000090581eca9469d8d7f5d3b60f4715027adfcf7927000000000000000000000000000000000000000000000000000009184e72a000",
          "blockHash": "0x558ca96def78a147d8af621cd8f9e094bf40946cf57e21a5828e213132b77f4d",
          "blockNumber": "0x391b1ca",
          "blockTimestamp": "0x6a040756",
          "transactionHash": "0xf2b05491a9df871de1cd7a2e178879b945f7e42d0762b47d01118b3cd7ecfe43",
          "transactionIndex": "0x9",
          "logIndex": "0x29",
          "removed": false
        }
      ],
      "logsBloom": "0x00000000000000000000000200000000020000000000000000000000001000000000000000000000000000000000000000000040000000000000000000201001008002000000000000000008000000000000000000000000000000000000000000000000020000008000000000000800000000010810100000000010000000000000000000000004000010080008000000000000000000000000000000000000020000108000000020100000000000000000000000400000040440000000000000000002000000100000000080000100001000008000200000000000000020000010040000000003000000800000802010400000018000000000000000000000",
      "type": "0x2",
      "transactionHash": "0xf2b05491a9df871de1cd7a2e178879b945f7e42d0762b47d01118b3cd7ecfe43",
      "transactionIndex": "0x9",
      "blockHash": "0x558ca96def78a147d8af621cd8f9e094bf40946cf57e21a5828e213132b77f4d",
      "blockNumber": "0x391b1ca",
      "gasUsed": "0x96071",
      "effectiveGasPrice": "0x1312d01",
      "blobGasUsed": "0xbb80",
      "from": "0x45dce8e4f2dc005a5f28206a46cb034697eeda8e",
      "to": "0x79152c303ad5ae429edefa4553cb1ad2c6ee1396",
      "contractAddress": null,
      "daFootprintGasScalar": "0x190",
      "l1BaseFeeScalar": "0x0",
      "l1BlobBaseFee": "0x4bbabf",
      "l1BlobBaseFeeScalar": "0x0",
      "l1Fee": "0x0",
      "l1GasPrice": "0x51fb418",
      "l1GasUsed": "0x788"
    }
  ],
  "libraries": [],
  "pending": [],
  "returns": {},
  "timestamp": 1778648919466,
  "chain": 196,
  "commit": "3c1e5d2a"
}