{
  "transactions": [
    {
      "hash": "0xfa1edc098a576b7f8789d8b2b58e9c409c6cf29d430554617ea1e4b23a862359",
      "transactionType": "CALL",
      "contractName": null,
      "contractAddress": "0x80eede496655fb9047dd39d9f418d5483ed600df",
      "function": "approve(address,uint256)",
      "arguments": [
        "0x7a07D606c87b7251c2953A30Fa445d8c5F856C7A",
        "10000000000000"
      ],
      "transaction": {
        "from": "0x45dce8e4f2dc005a5f28206a46cb034697eeda8e",
        "to": "0x80eede496655fb9047dd39d9f418d5483ed600df",
        "gas": "0x132ba",
        "value": "0x0",
        "input": "0x095ea7b30000000000000000000000007a07d606c87b7251c2953a30fa445d8c5f856c7a000000000000000000000000000000000000000000000000000009184e72a000",
        "nonce": "0xbe",
        "chainId": "0xdef1"
      },
      "additionalContracts": [],
      "isFixedGasLimit": false
    },
    {
      "hash": "0x2b6b70c95483c4510faed726b2205ba7c09bdf349dfd2f27dcf43dc156454ccd",
      "transactionType": "CALL",
      "contractName": null,
      "contractAddress": "0x7a07d606c87b7251c2953a30fa445d8c5f856c7a",
      "function": "sendOFT(address,uint32,bytes32,uint256)",
      "arguments": [
        "0x80Eede496655FB9047dd39d9f418d5483ED600df",
        "30183",
        "0x00000000000000000000000045dce8e4f2dc005a5f28206a46cb034697eeda8e",
        "10000000000000"
      ],
      "transaction": {
        "from": "0x45dce8e4f2dc005a5f28206a46cb034697eeda8e",
        "to": "0x7a07d606c87b7251c2953a30fa445d8c5f856c7a",
        "gas": "0xd0d68",
        "value": "0x583d8563c1ee",
        "input": "0x3e832c9000000000000000000000000080eede496655fb9047dd39d9f418d5483ed600df00000000000000000000000000000000000000000000000000000000000075e700000000000000000000000045dce8e4f2dc005a5f28206a46cb034697eeda8e000000000000000000000000000000000000000000000000000009184e72a000",
        "nonce": "0xbf",
        "chainId": "0xdef1"
      },
      "additionalContracts": [],
      "isFixedGasLimit": false
    },
    {
      "hash": "0x69ec8cbcb4f94dff1b2afabc0caaa0e86a4d1178d59af931e8a18fcdc427c24f",
      "transactionType": "CALL",
      "contractName": null,
      "contractAddress": "0x5bff88ca1442c2496f7e475e9e7786383bc070c0",
      "function": "approve(address,uint256)",
      "arguments": [
        "0x7a07D606c87b7251c2953A30Fa445d8c5F856C7A",
        "10000000000000"
      ],
      "transaction": {
        "from": "0x45dce8e4f2dc005a5f28206a46cb034697eeda8e",
        "to": "0x5bff88ca1442c2496f7e475e9e7786383bc070c0",
        "gas": "0x12191",
        "value": "0x0",
        "input": "0x095ea7b30000000000000000000000007a07d606c87b7251c2953a30fa445d8c5f856c7a000000000000000000000000000000000000000000000000000009184e72a000",
        "nonce": "0xc0",
        "chainId": "0xdef1"
      },
      "additionalContracts": [],
      "isFixedGasLimit": false
    },
    {
      "hash": "0x9a6354a2604cce10d3fc3a494daad09a92ff8dbf4c4ebda5f6f8c92da1ac6d43",
      "transactionType": "CALL",
      "contractName": null,
      "contractAddress": "0x7a07d606c87b7251c2953a30fa445d8c5f856c7a",
      "function": "sendOFT(address,uint32,bytes32,uint256)",
      "arguments": [
        "0x5Bff88cA1442c2496f7E475E9e7786383Bc070c0",
        "30183",
        "0x00000000000000000000000045dce8e4f2dc005a5f28206a46cb034697eeda8e",
        "10000000000000"
      ],
      "transaction": {
        "from": "0x45dce8e4f2dc005a5f28206a46cb034697eeda8e",
        "to": "0x7a07d606c87b7251c2953a30fa445d8c5f856c7a",
        "gas": "0xd239a",
        "value": "0x583d8563c1ee",
        "input": "0x3e832c900000000000000000000000005bff88ca1442c2496f7e475e9e7786383bc070c000000000000000000000000000000000000000000000000000000000000075e700000000000000000000000045dce8e4f2dc005a5f28206a46cb034697eeda8e000000000000000000000000000000000000000000000000000009184e72a000",
        "nonce": "0xc1",
        "chainId": "0xdef1"
      },
      "additionalContracts": [],
      "isFixedGasLimit": false
    },
    {
      "hash": "0x2aa0e3372f5e2bb156732b10de756b2c3297af6e1722b9f65557aa02e11fff7f",
      "transactionType": "CALL",
      "contractName": null,
      "contractAddress": "0x43edd7f3831b08fe70b7555ddd373c8bf65a9050",
      "function": "approve(address,uint256)",
      "arguments": [
        "0x7a07D606c87b7251c2953A30Fa445d8c5F856C7A",
        "10000000000000"
      ],
      "transaction": {
        "from": "0x45dce8e4f2dc005a5f28206a46cb034697eeda8e",
        "to": "0x43edd7f3831b08fe70b7555ddd373c8bf65a9050",
        "gas": "0x132ba",
        "value": "0x0",
        "input": "0x095ea7b30000000000000000000000007a07d606c87b7251c2953a30fa445d8c5f856c7a000000000000000000000000000000000000000000000000000009184e72a000",
        "nonce": "0xc2",
        "chainId": "0xdef1"
      },
      "additionalContracts": [],
      "isFixedGasLimit": false
    },
    {
      "hash": "0x5e391401d19de404ec4dffde887b41210e766e3c370a8c7ff76f537ebd08bd53",
      "transactionType": "CALL",
      "contractName": null,
      "contractAddress": "0x7a07d606c87b7251c2953a30fa445d8c5f856c7a",
      "function": "sendOFT(address,uint32,bytes32,uint256)",
      "arguments": [
        "0x43eDD7f3831b08FE70B7555ddD373C8bF65a9050",
        "30183",
        "0x00000000000000000000000045dce8e4f2dc005a5f28206a46cb034697eeda8e",
        "10000000000000"
      ],
      "transaction": {
        "from": "0x45dce8e4f2dc005a5f28206a46cb034697eeda8e",
        "to": "0x7a07d606c87b7251c2953a30fa445d8c5f856c7a",
        "gas": "0xd87e5",
        "value": "0x583d8563c1ee",
        "input": "0x3e832c9000000000000000000000000043edd7f3831b08fe70b7555ddd373c8bf65a905000000000000000000000000000000000000000000000000000000000000075e700000000000000000000000045dce8e4f2dc005a5f28206a46cb034697eeda8e000000000000000000000000000000000000000000000000000009184e72a000",
        "nonce": "0xc3",
        "chainId": "0xdef1"
      },
      "additionalContracts": [],
      "isFixedGasLimit": false
    },
    {
      "hash": "0xb961e5e8e023264e16a07edf86bd8b4439ea37f69bc52d29fc52ec461b89bfbf",
      "transactionType": "CALL",
      "contractName": null,
      "contractAddress": "0x3ec3849c33291a9ef4c5db86de593eb4a37fde45",
      "function": "approve(address,uint256)",
      "arguments": [
        "0x7a07D606c87b7251c2953A30Fa445d8c5F856C7A",
        "10000000000000"
      ],
      "transaction": {
        "from": "0x45dce8e4f2dc005a5f28206a46cb034697eeda8e",
        "to": "0x3ec3849c33291a9ef4c5db86de593eb4a37fde45",
        "gas": "0x132ba",
        "value": "0x0",
        "input": "0x095ea7b30000000000000000000000007a07d606c87b7251c2953a30fa445d8c5f856c7a000000000000000000000000000000000000000000000000000009184e72a000",
        "nonce": "0xc4",
        "chainId": "0xdef1"
      },
      "additionalContracts": [],
      "isFixedGasLimit": false
    },
    {
      "hash": "0xe5f6646f27a6401ecd326110b255375560e134067e0a566160c42d2db6b523a9",
      "transactionType": "CALL",
      "contractName": null,
      "contractAddress": "0x7a07d606c87b7251c2953a30fa445d8c5f856c7a",
      "function": "sendOFT(address,uint32,bytes32,uint256)",
      "arguments": [
        "0x3Ec3849C33291a9eF4c5dB86De593EB4A37fDe45",
        "30183",
        "0x00000000000000000000000045dce8e4f2dc005a5f28206a46cb034697eeda8e",
        "10000000000000"
      ],
      "transaction": {
        "from": "0x45dce8e4f2dc005a5f28206a46cb034697eeda8e",
        "to": "0x7a07d606c87b7251c2953a30fa445d8c5f856c7a",
        "gas": "0xe4b46",
        "value": "0x583d8563c1ee",
        "input": "0x3e832c900000000000000000000000003ec3849c33291a9ef4c5db86de593eb4a37fde4500000000000000000000000000000000000000000000000000000000000075e700000000000000000000000045dce8e4f2dc005a5f28206a46cb034697eeda8e000000000000000000000000000000000000000000000000000009184e72a000",
        "nonce": "0xc5",
        "chainId": "0xdef1"
      },
      "additionalContracts": [],
      "isFixedGasLimit": false
    },
    {
      "hash": "0x4d141789062c3a04e012c2ca441fcd3a1834c9bb1482254f7d15f511581d5252",
      "transactionType": "CALL",
      "contractName": null,
      "contractAddress": "0x64445f0aecc51e94ad52d8ac56b7190e764e561a",
      "function": "approve(address,uint256)",
      "arguments": [
        "0x7a07D606c87b7251c2953A30Fa445d8c5F856C7A",
        "10000000000000"
      ],
      "transaction": {
        "from": "0x45dce8e4f2dc005a5f28206a46cb034697eeda8e",
        "to": "0x64445f0aecc51e94ad52d8ac56b7190e764e561a",
        "gas": "0x12191",
        "value": "0x0",
        "input": "0x095ea7b30000000000000000000000007a07d606c87b7251c2953a30fa445d8c5f856c7a000000000000000000000000000000000000000000000000000009184e72a000",
        "nonce": "0xc6",
        "chainId": "0xdef1"
      },
      "additionalContracts": [],
      "isFixedGasLimit": false
    },
    {
      "hash": "0xd98d45a5a1ca7c45466f07b46fecdf2ed29c4d8f19839b1f1472010a4bab3efb",
      "transactionType": "CALL",
      "contractName": null,
      "contractAddress": "0x7a07d606c87b7251c2953a30fa445d8c5f856c7a",
      "function": "sendOFT(address,uint32,bytes32,uint256)",
      "arguments": [
        "0x64445f0aecC51E94aD52d8AC56b7190e764E561a",
        "30183",
        "0x00000000000000000000000045dce8e4f2dc005a5f28206a46cb034697eeda8e",
        "10000000000000"
      ],
      "transaction": {
        "from": "0x45dce8e4f2dc005a5f28206a46cb034697eeda8e",
        "to": "0x7a07d606c87b7251c2953a30fa445d8c5f856c7a",
        "gas": "0xd239a",
        "value": "0x583d8563c1ee",
        "input": "0x3e832c9000000000000000000000000064445f0aecc51e94ad52d8ac56b7190e764e561a00000000000000000000000000000000000000000000000000000000000075e700000000000000000000000045dce8e4f2dc005a5f28206a46cb034697eeda8e000000000000000000000000000000000000000000000000000009184e72a000",
        "nonce": "0xc7",
        "chainId": "0xdef1"
      },
      "additionalContracts": [],
      "isFixedGasLimit": false
    },
    {
      "hash": "0x5b8f5ebfc4859e73e38c62f508b20714e73b5db826a3e32aa29434a6df679172",
      "transactionType": "CALL",
      "contractName": null,
      "contractAddress": "0x90581eca9469d8d7f5d3b60f4715027adfcf7927",
      "function": "approve(address,uint256)",
      "arguments": [
        "0x7a07D606c87b7251c2953A30Fa445d8c5F856C7A",
        "10000000000000"
      ],
      "transaction": {
        "from": "0x45dce8e4f2dc005a5f28206a46cb034697eeda8e",
        "to": "0x90581eca9469d8d7f5d3b60f4715027adfcf7927",
        "gas": "0x132ba",
        "value": "0x0",
        "input": "0x095ea7b30000000000000000000000007a07d606c87b7251c2953a30fa445d8c5f856c7a000000000000000000000000000000000000000000000000000009184e72a000",
        "nonce": "0xc8",
        "chainId": "0xdef1"
      },
      "additionalContracts": [],
      "isFixedGasLimit": false
    },
    {
      "hash": "0x7864f0c90b09bc44f59390d84afb178c2c2639c4447e8e65acfc775ce2657e93",
      "transactionType": "CALL",
      "contractName": null,
      "contractAddress": "0x7a07d606c87b7251c2953a30fa445d8c5f856c7a",
      "function": "sendOFT(address,uint32,bytes32,uint256)",
      "arguments": [
        "0x90581eCa9469D8D7F5D3B60f4715027aDFCf7927",
        "30183",
        "0x00000000000000000000000045dce8e4f2dc005a5f28206a46cb034697eeda8e",
        "10000000000000"
      ],
      "transaction": {
        "from": "0x45dce8e4f2dc005a5f28206a46cb034697eeda8e",
        "to": "0x7a07d606c87b7251c2953a30fa445d8c5f856c7a",
        "gas": "0xe4b46",
        "value": "0x583d8563c1ee",
        "input": "0x3e832c9000000000000000000000000090581eca9469d8d7f5d3b60f4715027adfcf792700000000000000000000000000000000000000000000000000000000000075e700000000000000000000000045dce8e4f2dc005a5f28206a46cb034697eeda8e000000000000000000000000000000000000000000000000000009184e72a000",
        "nonce": "0xc9",
        "chainId": "0xdef1"
      },
      "additionalContracts": [],
      "isFixedGasLimit": false
    }
  ],
  "receipts": [
    {
      "status": "0x1",
      "cumulativeGasUsed": "0x1f3b7",
      "logs": [
        {
          "address": "0x80eede496655fb9047dd39d9f418d5483ed600df",
          "topics": [
            "0x8c5be1e5ebec7d5bd14f71427d1e84f3dd0314c0f7b2291e5b200ac8c7c3b925",
            "0x00000000000000000000000045dce8e4f2dc005a5f28206a46cb034697eeda8e",
            "0x0000000000000000000000007a07d606c87b7251c2953a30fa445d8c5f856c7a"
          ],
          "data": "0x000000000000000000000000000000000000000000000000000009184e72a000",
          "blockHash": "0x3ec0768d19a45fa2e604a65ba806a3e168903fc5ab9064dc92aebeba12290f46",
          "blockNumber": "0x2b0e5c0",
          "blockTimestamp": "0x6a03fbeb",
          "transactionHash": "0xb961e5e8e023264e16a07edf86bd8b4439ea37f69bc52d29fc52ec461b89bfbf",
          "transactionIndex": "0x2",
          "logIndex": "0x1",
          "removed": false
        }
      ],
      "logsBloom": "0x00000000002000000000002200000000000000000000000000000000000000000000000000000000000000000800000000000000000000000000000200200000000000000000000000000000000000000000000000000000000000000000000000000000000000000000000000000000000000000000000000000000010000000000000000000000000000000000000000000000000000000000000000000000020010000000000000000000000000000000000000000000000000000000000000000000000000000000000000000000001000000000000000000000000000000010000000000000000000000000800000000000000000000000000000000000",
      "type": "0x2",
      "transactionHash": "0xb961e5e8e023264e16a07edf86bd8b4439ea37f69bc52d29fc52ec461b89bfbf",
      "transactionIndex": "0x2",
      "blockHash": "0x3ec0768d19a45fa2e604a65ba806a3e168903fc5ab9064dc92aebeba12290f46",
      "blockNumber": "0x2b0e5c0",
      "gasUsed": "0xd1bb",
      "effectiveGasPrice": "0xf433d",
      "blobGasUsed": "0x9c40",
      "from": "0x45dce8e4f2dc005a5f28206a46cb034697eeda8e",
      "to": "0x80eede496655fb9047dd39d9f418d5483ed600df",
      "contractAddress": null,
      "daFootprintGasScalar": "0x190",
      "l1BaseFeeScalar": "0x1148",
      "l1BlobBaseFee": "0x5f7ce4",
      "l1BlobBaseFeeScalar": "0xc5f4f",
      "l1Fee": "0x5105d80b",
      "l1GasPrice": "0x72c7cc9",
      "l1GasUsed": "0x640"
    },
    {
      "status": "0x1",
      "cumulativeGasUsed": "0xb66d6",
      "logs": [
        {
          "address": "0x80eede496655fb9047dd39d9f418d5483ed600df",
          "topics": [
            "0x8c5be1e5ebec7d5bd14f71427d1e84f3dd0314c0f7b2291e5b200ac8c7c3b925",
            "0x00000000000000000000000045dce8e4f2dc005a5f28206a46cb034697eeda8e",
            "0x0000000000000000000000007a07d606c87b7251c2953a30fa445d8c5f856c7a"
          ],
          "data": "0x0000000000000000000000000000000000000000000000000000000000000000",
          "blockHash": "0x3ec0768d19a45fa2e604a65ba806a3e168903fc5ab9064dc92aebeba12290f46",
          "blockNumber": "0x2b0e5c0",
          "blockTimestamp": "0x6a03fbeb",
          "transactionHash": "0x9a6354a2604cce10d3fc3a494daad09a92ff8dbf4c4ebda5f6f8c92da1ac6d43",
          "transactionIndex": "0x3",
          "logIndex": "0x2",
          "removed": false
        },
        {
          "address": "0x80eede496655fb9047dd39d9f418d5483ed600df",
          "topics": [
            "0xddf252ad1be2c89b69c2b068fc378daa952ba7f163c4a11628f55a4df523b3ef",
            "0x00000000000000000000000045dce8e4f2dc005a5f28206a46cb034697eeda8e",
            "0x0000000000000000000000007a07d606c87b7251c2953a30fa445d8c5f856c7a"
          ],
          "data": "0x000000000000000000000000000000000000000000000000000009184e72a000",
          "blockHash": "0x3ec0768d19a45fa2e604a65ba806a3e168903fc5ab9064dc92aebeba12290f46",
          "blockNumber": "0x2b0e5c0",
          "blockTimestamp": "0x6a03fbeb",
          "transactionHash": "0x9a6354a2604cce10d3fc3a494daad09a92ff8dbf4c4ebda5f6f8c92da1ac6d43",
          "transactionIndex": "0x3",
          "logIndex": "0x3",
          "removed": false
        },
        {
          "address": "0x80eede496655fb9047dd39d9f418d5483ed600df",
          "topics": [
            "0x8c5be1e5ebec7d5bd14f71427d1e84f3dd0314c0f7b2291e5b200ac8c7c3b925",
            "0x0000000000000000000000007a07d606c87b7251c2953a30fa445d8c5f856c7a",
            "0x00000000000000000000000080eede496655fb9047dd39d9f418d5483ed600df"
          ],
          "data": "0x000000000000000000000000000000000000000000000000000009184e72a000",
          "blockHash": "0x3ec0768d19a45fa2e604a65ba806a3e168903fc5ab9064dc92aebeba12290f46",
          "blockNumber": "0x2b0e5c0",
          "blockTimestamp": "0x6a03fbeb",
          "transactionHash": "0x9a6354a2604cce10d3fc3a494daad09a92ff8dbf4c4ebda5f6f8c92da1ac6d43",
          "transactionIndex": "0x3",
          "logIndex": "0x4",
          "removed": false
        },
        {
          "address": "0x80eede496655fb9047dd39d9f418d5483ed600df",
          "topics": [
            "0xddf252ad1be2c89b69c2b068fc378daa952ba7f163c4a11628f55a4df523b3ef",
            "0x0000000000000000000000007a07d606c87b7251c2953a30fa445d8c5f856c7a",
            "0x0000000000000000000000000000000000000000000000000000000000000000"
          ],
          "data": "0x000000000000000000000000000000000000000000000000000009184e72a000",
          "blockHash": "0x3ec0768d19a45fa2e604a65ba806a3e168903fc5ab9064dc92aebeba12290f46",
          "blockNumber": "0x2b0e5c0",
          "blockTimestamp": "0x6a03fbeb",
          "transactionHash": "0x9a6354a2604cce10d3fc3a494daad09a92ff8dbf4c4ebda5f6f8c92da1ac6d43",
          "transactionIndex": "0x3",
          "logIndex": "0x5",
          "removed": false
        },
        {
          "address": "0x76111de813f83aaadbd62773bf41247634e2319a",
          "topics": [
            "0x61ed099e74a97a1d7f8bb0952a88ca8b7b8ebd00c126ea04671f92a81213318a"
          ],
          "data": "0x000000000000000000000000febcf17b11376c724ab5a5229803c6e838b6eae5000000000000000000000000000000000000000000000000000008212e0ef724",
          "blockHash": "0x3ec0768d19a45fa2e604a65ba806a3e168903fc5ab9064dc92aebeba12290f46",
          "blockNumber": "0x2b0e5c0",
          "blockTimestamp": "0x6a03fbeb",
          "transactionHash": "0x9a6354a2604cce10d3fc3a494daad09a92ff8dbf4c4ebda5f6f8c92da1ac6d43",
          "transactionIndex": "0x3",
          "logIndex": "0x6",
          "removed": false
        },
        {
          "address": "0x76111de813f83aaadbd62773bf41247634e2319a",
          "topics": [
            "0x07ea52d82345d6e838192107d8fd7123d9c2ec8e916cd0aad13fd2b60db24644"
          ],
          "data": "0x0000000000000000000000000000000000000000000000000000000000000060000000000000000000000000000000000000000000000000000000000000012000000000000000000000000000000000000000000000000000000000000001400000000000000000000000000000000000000000000000000000000000000005000000000000000000000000174f2ba26f8adeafa82663bcf908288d5dbca6490000000000000000000000001e4ce74ccf5498b19900649d9196e64bab592451000000000000000000000000395b14700812cccc38b8e64f0a06ce2045fe9ba3000000000000000000000000dd7b5e1db4aafd5c8ec3b764efb8ed265aa5445b000000000000000000000000f007f1fef50c0acaf4418741454bcaeaecb96b870000000000000000000000000000000000000000000000000000000000000000000000000000000000000000000000000000000000000000000000000000000500000000000000000000000000000000000000000000000000000162cb92b00c0000000000000000000000000000000000000000000000000000014c376dbe3100000000000000000000000000000000000000000000000000000162cb92b00c0000000000000000000000000000000000000000000000000000014c376dbe3100000000000000000000000000000000000000000000000000000162cb92b00c",
          "blockHash": "0x3ec0768d19a45fa2e604a65ba806a3e168903fc5ab9064dc92aebeba12290f46",
          "blockNumber": "0x2b0e5c0",
          "blockTimestamp": "0x6a03fbeb",
          "transactionHash": "0x9a6354a2604cce10d3fc3a494daad09a92ff8dbf4c4ebda5f6f8c92da1ac6d43",
          "transactionIndex": "0x3",
          "logIndex": "0x7",
          "removed": false
        },
        {
          "address": "0xca29f3a6f966cb2fc0de625f8f325c0c46dbe958",
          "topics": [
            "0x1ab700d4ced0c005b164c0f789fd09fcbb0156d4c2041b8a3bfbcd961cd1567f"
          ],
          "data": "0x0000000000000000000000000000000000000000000000000000000000000060000000000000000000000000000000000000000000000000000000000000018000000000000000000000000076111de813f83aaadbd62773bf41247634e2319a00000000000000000000000000000000000000000000000000000000000000f90100000000000000240000768300000000000000000000000080eede496655fb9047dd39d9f418d5483ed600df0000762f00000000000000000000000096a394058e2b84a89bac9667b19661ed003cf5d43cf578cc8669146c93ff3c237ee806dbe7c867f3370ca104da160791879920500000000000000000000000002a2019b30c157db6c1c01306b8025167dbe1803b000000000000000a0000000000000000000000007a07d606c87b7251c2953a30fa445d8c5f856c7a00000000000000000000000045dce8e4f2dc005a5f28206a46cb034697eeda8e00000000000000000000000000000000000000000000000000000000000075e700000000000000000000000000000000000000000000000000000000000000000000000000002c0003010011010000000000000000000000000003d090010013030000000000000000000000000000000f42400000000000000000000000000000000000000000",
          "blockHash": "0x3ec0768d19a45fa2e604a65ba806a3e168903fc5ab9064dc92aebeba12290f46",
          "blockNumber": "0x2b0e5c0",
          "blockTimestamp": "0x6a03fbeb",
          "transactionHash": "0x9a6354a2604cce10d3fc3a494daad09a92ff8dbf4c4ebda5f6f8c92da1ac6d43",
          "transactionIndex": "0x3",
          "logIndex": "0x8",
          "removed": false
        },
        {
          "address": "0x80eede496655fb9047dd39d9f418d5483ed600df",
          "topics": [
            "0x85496b760a4b7f8d66384b9df21b381f5d1b1e79f229a47aaf4c232edc2fe59a",
            "0x3cf578cc8669146c93ff3c237ee806dbe7c867f3370ca104da16079187992050",
            "0x0000000000000000000000007a07d606c87b7251c2953a30fa445d8c5f856c7a"
          ],
          "data": "0x000000000000000000000000000000000000000000000000000000000000762f000000000000000000000000000000000000000000000000000009184e72a000000000000000000000000000000000000000000000000000000009184e72a000",
          "blockHash": "0x3ec0768d19a45fa2e604a65ba806a3e168903fc5ab9064dc92aebeba12290f46",
          "blockNumber": "0x2b0e5c0",
          "blockTimestamp": "0x6a03fbeb",
          "transactionHash": "0x9a6354a2604cce10d3fc3a494daad09a92ff8dbf4c4ebda5f6f8c92da1ac6d43",
          "transactionIndex": "0x3",
          "logIndex": "0x9",
          "removed": false
        },
        {
          "address": "0x7a07d606c87b7251c2953a30fa445d8c5f856c7a",
          "topics": [
            "0xbc9ee36b6ca0bdd5b3840e6d329dd19a2490d880c7ce24d9818aa593adfb35be",
            "0x00000000000000000000000045dce8e4f2dc005a5f28206a46cb034697eeda8e",
            "0x00000000000000000000000000000000000000000000000000000000000075e7",
            "0x00000000000000000000000045dce8e4f2dc005a5f28206a46cb034697eeda8e"
          ],
          "data": "0x00000000000000000000000080eede496655fb9047dd39d9f418d5483ed600df000000000000000000000000000000000000000000000000000009184e72a000",
          "blockHash": "0x3ec0768d19a45fa2e604a65ba806a3e168903fc5ab9064dc92aebeba12290f46",
          "blockNumber": "0x2b0e5c0",
          "blockTimestamp": "0x6a03fbeb",
          "transactionHash": "0x9a6354a2604cce10d3fc3a494daad09a92ff8dbf4c4ebda5f6f8c92da1ac6d43",
          "transactionIndex": "0x3",
          "logIndex": "0xa",
          "removed": false
        }
      ],
      "logsBloom": "0x00000000002000000000002200000000000000000000000000000000000000200000080000000400000000000800000000400000000000000000000200280000000002000000000200000008000000000000000000000000040000000000008000000000020000008000000000000801000000000002100000010010010000000000000000000080000000080100000000000000000000000000000000000000020010108000000020100000000000000004000000400000000440000000000000000002000000000000000080000000001002000000000000000000000020000010040020000000000000200000802000000000008000000000000000000800",
      "type": "0x2",
      "transactionHash": "0x9a6354a2604cce10d3fc3a494daad09a92ff8dbf4c4ebda5f6f8c92da1ac6d43",
      "transactionIndex": "0x3",
      "blockHash": "0x3ec0768d19a45fa2e604a65ba806a3e168903fc5ab9064dc92aebeba12290f46",
      "blockNumber": "0x2b0e5c0",
      "gasUsed": "0x9731f",
      "effectiveGasPrice": "0xf433d",
      "blobGasUsed": "0xbea0",
      "from": "0x45dce8e4f2dc005a5f28206a46cb034697eeda8e",
      "to": "0x7a07d606c87b7251c2953a30fa445d8c5f856c7a",
      "contractAddress": null,
      "daFootprintGasScalar": "0x190",
      "l1BaseFeeScalar": "0x1148",
      "l1BlobBaseFee": "0x5f7ce4",
      "l1BlobBaseFeeScalar": "0xc5f4f",
      "l1Fee": "0x5105d80b",
      "l1GasPrice": "0x72c7cc9",
      "l1GasUsed": "0x7a3"
    },
    {
      "status": "0x1",
      "cumulativeGasUsed": "0xc387b",
      "logs": [
        {
          "address": "0x5bff88ca1442c2496f7e475e9e7786383bc070c0",
          "topics": [
            "0x8c5be1e5ebec7d5bd14f71427d1e84f3dd0314c0f7b2291e5b200ac8c7c3b925",
            "0x00000000000000000000000045dce8e4f2dc005a5f28206a46cb034697eeda8e",
            "0x0000000000000000000000007a07d606c87b7251c2953a30fa445d8c5f856c7a"
          ],
          "data": "0x000000000000000000000000000000000000000000000000000009184e72a000",
          "blockHash": "0x3ec0768d19a45fa2e604a65ba806a3e168903fc5ab9064dc92aebeba12290f46",
          "blockNumber": "0x2b0e5c0",
          "blockTimestamp": "0x6a03fbeb",
          "transactionHash": "0xd98d45a5a1ca7c45466f07b46fecdf2ed29c4d8f19839b1f1472010a4bab3efb",
          "transactionIndex": "0x4",
          "logIndex": "0xb",
          "removed": false
        }
      ],
      "logsBloom": "0x00000000002000000000002200000000000000000000000000000000000000000000000000000000000000000000000000000000000000000000000000200000000000000000000000000000000000000000000000000000000000000000000000000000000000000000000000000000000000000000000000000000000000000000000000000000000000000000000000000000000000000000000000000000020010000000000000000000000000000000000000000000000000000010000000000000000000000000000000000000001000800000000000000000000000000010000000000000000000000000800000000000000000000000000000000800",
      "type": "0x2",
      "transactionHash": "0xd98d45a5a1ca7c45466f07b46fecdf2ed29c4d8f19839b1f1472010a4bab3efb",
      "transactionIndex": "0x4",
      "blockHash": "0x3ec0768d19a45fa2e604a65ba806a3e168903fc5ab9064dc92aebeba12290f46",
      "blockNumber": "0x2b0e5c0",
      "gasUsed": "0xd1a5",
      "effectiveGasPrice": "0xf433d",
      "blobGasUsed": "0x9c40",
      "from": "0x45dce8e4f2dc005a5f28206a46cb034697eeda8e",
      "to": "0x5bff88ca1442c2496f7e475e9e7786383bc070c0",
      "contractAddress": null,
      "daFootprintGasScalar": "0x190",
      "l1BaseFeeScalar": "0x1148",
      "l1BlobBaseFee": "0x5f7ce4",
      "l1BlobBaseFeeScalar": "0xc5f4f",
      "l1Fee": "0x5105d80b",
      "l1GasPrice": "0x72c7cc9",
      "l1GasUsed": "0x640"
    },
    {
      "status": "0x1",
      "cumulativeGasUsed": "0x15bbab",
      "logs": [
        {
          "address": "0x5bff88ca1442c2496f7e475e9e7786383bc070c0",
          "topics": [
            "0x8c5be1e5ebec7d5bd14f71427d1e84f3dd0314c0f7b2291e5b200ac8c7c3b925",
            "0x00000000000000000000000045dce8e4f2dc005a5f28206a46cb034697eeda8e",
            "0x0000000000000000000000007a07d606c87b7251c2953a30fa445d8c5f856c7a"
          ],
          "data": "0x0000000000000000000000000000000000000000000000000000000000000000",
          "blockHash": "0x3ec0768d19a45fa2e604a65ba806a3e168903fc5ab9064dc92aebeba12290f46",
          "blockNumber": "0x2b0e5c0",
          "blockTimestamp": "0x6a03fbeb",
          "transactionHash": "0x69ec8cbcb4f94dff1b2afabc0caaa0e86a4d1178d59af931e8a18fcdc427c24f",
          "transactionIndex": "0x5",
          "logIndex": "0xc",
          "removed": false
        },
        {
          "address": "0x5bff88ca1442c2496f7e475e9e7786383bc070c0",
          "topics": [
            "0xddf252ad1be2c89b69c2b068fc378daa952ba7f163c4a11628f55a4df523b3ef",
            "0x00000000000000000000000045dce8e4f2dc005a5f28206a46cb034697eeda8e",
            "0x0000000000000000000000007a07d606c87b7251c2953a30fa445d8c5f856c7a"
          ],
          "data": "0x000000000000000000000000000000000000000000000000000009184e72a000",
          "blockHash": "0x3ec0768d19a45fa2e604a65ba806a3e168903fc5ab9064dc92aebeba12290f46",
          "blockNumber": "0x2b0e5c0",
          "blockTimestamp": "0x6a03fbeb",
          "transactionHash": "0x69ec8cbcb4f94dff1b2afabc0caaa0e86a4d1178d59af931e8a18fcdc427c24f",
          "transactionIndex": "0x5",
          "logIndex": "0xd",
          "removed": false
        },
        {
          "address": "0x5bff88ca1442c2496f7e475e9e7786383bc070c0",
          "topics": [
            "0x8c5be1e5ebec7d5bd14f71427d1e84f3dd0314c0f7b2291e5b200ac8c7c3b925",
            "0x0000000000000000000000007a07d606c87b7251c2953a30fa445d8c5f856c7a",
            "0x0000000000000000000000005bff88ca1442c2496f7e475e9e7786383bc070c0"
          ],
          "data": "0x000000000000000000000000000000000000000000000000000009184e72a000",
          "blockHash": "0x3ec0768d19a45fa2e604a65ba806a3e168903fc5ab9064dc92aebeba12290f46",
          "blockNumber": "0x2b0e5c0",
          "blockTimestamp": "0x6a03fbeb",
          "transactionHash": "0x69ec8cbcb4f94dff1b2afabc0caaa0e86a4d1178d59af931e8a18fcdc427c24f",
          "transactionIndex": "0x5",
          "logIndex": "0xe",
          "removed": false
        },
        {
          "address": "0x5bff88ca1442c2496f7e475e9e7786383bc070c0",
          "topics": [
            "0xddf252ad1be2c89b69c2b068fc378daa952ba7f163c4a11628f55a4df523b3ef",
            "0x0000000000000000000000007a07d606c87b7251c2953a30fa445d8c5f856c7a",
            "0x0000000000000000000000000000000000000000000000000000000000000000"
          ],
          "data": "0x000000000000000000000000000000000000000000000000000009184e72a000",
          "blockHash": "0x3ec0768d19a45fa2e604a65ba806a3e168903fc5ab9064dc92aebeba12290f46",
          "blockNumber": "0x2b0e5c0",
          "blockTimestamp": "0x6a03fbeb",
          "transactionHash": "0x69ec8cbcb4f94dff1b2afabc0caaa0e86a4d1178d59af931e8a18fcdc427c24f",
          "transactionIndex": "0x5",
          "logIndex": "0xf",
          "removed": false
        },
        {
          "address": "0x76111de813f83aaadbd62773bf41247634e2319a",
          "topics": [
            "0x61ed099e74a97a1d7f8bb0952a88ca8b7b8ebd00c126ea04671f92a81213318a"
          ],
          "data": "0x000000000000000000000000febcf17b11376c724ab5a5229803c6e838b6eae5000000000000000000000000000000000000000000000000000008212e0ef724",
          "blockHash": "0x3ec0768d19a45fa2e604a65ba806a3e168903fc5ab9064dc92aebeba12290f46",
          "blockNumber": "0x2b0e5c0",
          "blockTimestamp": "0x6a03fbeb",
          "transactionHash": "0x69ec8cbcb4f94dff1b2afabc0caaa0e86a4d1178d59af931e8a18fcdc427c24f",
          "transactionIndex": "0x5",
          "logIndex": "0x10",
          "removed": false
        },
        {
          "address": "0x76111de813f83aaadbd62773bf41247634e2319a",
          "topics": [
            "0x07ea52d82345d6e838192107d8fd7123d9c2ec8e916cd0aad13fd2b60db24644"
          ],
          "data": "0x0000000000000000000000000000000000000000000000000000000000000060000000000000000000000000000000000000000000000000000000000000012000000000000000000000000000000000000000000000000000000000000001400000000000000000000000000000000000000000000000000000000000000005000000000000000000000000174f2ba26f8adeafa82663bcf908288d5dbca6490000000000000000000000001e4ce74ccf5498b19900649d9196e64bab592451000000000000000000000000395b14700812cccc38b8e64f0a06ce2045fe9ba3000000000000000000000000dd7b5e1db4aafd5c8ec3b764efb8ed265aa5445b000000000000000000000000f007f1fef50c0acaf4418741454bcaeaecb96b870000000000000000000000000000000000000000000000000000000000000000000000000000000000000000000000000000000000000000000000000000000500000000000000000000000000000000000000000000000000000162cb92b00c0000000000000000000000000000000000000000000000000000014c376dbe3100000000000000000000000000000000000000000000000000000162cb92b00c0000000000000000000000000000000000000000000000000000014c376dbe3100000000000000000000000000000000000000000000000000000162cb92b00c",
          "blockHash": "0x3ec0768d19a45fa2e604a65ba806a3e168903fc5ab9064dc92aebeba12290f46",
          "blockNumber": "0x2b0e5c0",
          "blockTimestamp": "0x6a03fbeb",
          "transactionHash": "0x69ec8cbcb4f94dff1b2afabc0caaa0e86a4d1178d59af931e8a18fcdc427c24f",
          "transactionIndex": "0x5",
          "logIndex": "0x11",
          "removed": false
        },
        {
          "address": "0xca29f3a6f966cb2fc0de625f8f325c0c46dbe958",
          "topics": [
            "0x1ab700d4ced0c005b164c0f789fd09fcbb0156d4c2041b8a3bfbcd961cd1567f"
          ],
          "data": "0x0000000000000000000000000000000000000000000000000000000000000060000000000000000000000000000000000000000000000000000000000000018000000000000000000000000076111de813f83aaadbd62773bf41247634e2319a00000000000000000000000000000000000000000000000000000000000000f9010000000000000009000076830000000000000000000000005bff88ca1442c2496f7e475e9e7786383bc070c00000762f00000000000000000000000088aa7854d3b2daa5e37e7ce73a1f39669623a361e4b84ba6a818193804e8895e729c4ab56c3cdd810b7db9d22376a857731d59760000000000000000000000002a2019b30c157db6c1c01306b8025167dbe1803b000000000000000a0000000000000000000000007a07d606c87b7251c2953a30fa445d8c5f856c7a00000000000000000000000045dce8e4f2dc005a5f28206a46cb034697eeda8e00000000000000000000000000000000000000000000000000000000000075e700000000000000000000000000000000000000000000000000000000000000000000000000002c0003010011010000000000000000000000000003d090010013030000000000000000000000000000000f42400000000000000000000000000000000000000000",
          "blockHash": "0x3ec0768d19a45fa2e604a65ba806a3e168903fc5ab9064dc92aebeba12290f46",
          "blockNumber": "0x2b0e5c0",
          "blockTimestamp": "0x6a03fbeb",
          "transactionHash": "0x69ec8cbcb4f94dff1b2afabc0caaa0e86a4d1178d59af931e8a18fcdc427c24f",
          "transactionIndex": "0x5",
          "logIndex": "0x12",
          "removed": false
        },
        {
          "address": "0x5bff88ca1442c2496f7e475e9e7786383bc070c0",
          "topics": [
            "0x85496b760a4b7f8d66384b9df21b381f5d1b1e79f229a47aaf4c232edc2fe59a",
            "0xe4b84ba6a818193804e8895e729c4ab56c3cdd810b7db9d22376a857731d5976",
            "0x0000000000000000000000007a07d606c87b7251c2953a30fa445d8c5f856c7a"
          ],
          "data": "0x000000000000000000000000000000000000000000000000000000000000762f000000000000000000000000000000000000000000000000000009184e72a000000000000000000000000000000000000000000000000000000009184e72a000",
          "blockHash": "0x3ec0768d19a45fa2e604a65ba806a3e168903fc5ab9064dc92aebeba12290f46",
          "blockNumber": "0x2b0e5c0",
          "blockTimestamp": "0x6a03fbeb",
          "transactionHash": "0x69ec8cbcb4f94dff1b2afabc0caaa0e86a4d1178d59af931e8a18fcdc427c24f",
          "transactionIndex": "0x5",
          "logIndex": "0x13",
          "removed": false
        },
        {
          "address": "0x7a07d606c87b7251c2953a30fa445d8c5f856c7a",
          "topics": [
            "0xbc9ee36b6ca0bdd5b3840e6d329dd19a2490d880c7ce24d9818aa593adfb35be",
            "0x00000000000000000000000045dce8e4f2dc005a5f28206a46cb034697eeda8e",
            "0x00000000000000000000000000000000000000000000000000000000000075e7",
            "0x00000000000000000000000045dce8e4f2dc005a5f28206a46cb034697eeda8e"
          ],
          "data": "0x0000000000000000000000005bff88ca1442c2496f7e475e9e7786383bc070c0000000000000000000000000000000000000000000000000000009184e72a000",
          "blockHash": "0x3ec0768d19a45fa2e604a65ba806a3e168903fc5ab9064dc92aebeba12290f46",
          "blockNumber": "0x2b0e5c0",
          "blockTimestamp": "0x6a03fbeb",
          "transactionHash": "0x69ec8cbcb4f94dff1b2afabc0caaa0e86a4d1178d59af931e8a18fcdc427c24f",
          "transactionIndex": "0x5",
          "logIndex": "0x14",
          "removed": false
        }
      ],
      "logsBloom": "0x00000000002000000000002200000000000000000000000000000000000000200001000000000000000000000000000000000000000000000000000000280000000002000000000200000008000000200000000000000000040000000000008000000000020200008000000000000801000002000002100000010010000000000000001000000000000000080000000000000000000000000000000000000000020010108000000020100000000000000004000000400000000440000010000000000002000000000000000080000000001002800000000000000000000020000010040000000000000000240000802000000000008000000000000000000800",
      "type": "0x2",
      "transactionHash": "0x69ec8cbcb4f94dff1b2afabc0caaa0e86a4d1178d59af931e8a18fcdc427c24f",
      "transactionIndex": "0x5",
      "blockHash": "0x3ec0768d19a45fa2e604a65ba806a3e168903fc5ab9064dc92aebeba12290f46",
      "blockNumber": "0x2b0e5c0",
      "gasUsed": "0x98330",
      "effectiveGasPrice": "0xf433d",
      "blobGasUsed": "0xbea0",
      "from": "0x45dce8e4f2dc005a5f28206a46cb034697eeda8e",
      "to": "0x7a07d606c87b7251c2953a30fa445d8c5f856c7a",
      "contractAddress": null,
      "daFootprintGasScalar": "0x190",
      "l1BaseFeeScalar": "0x1148",
      "l1BlobBaseFee": "0x5f7ce4",
      "l1BlobBaseFeeScalar": "0xc5f4f",
      "l1Fee": "0x5105d80b",
      "l1GasPrice": "0x72c7cc9",
      "l1GasUsed": "0x7a3"
    },
    {
      "status": "0x1",
      "cumulativeGasUsed": "0x168d66",
      "logs": [
        {
          "address": "0x43edd7f3831b08fe70b7555ddd373c8bf65a9050",
          "topics": [
            "0x8c5be1e5ebec7d5bd14f71427d1e84f3dd0314c0f7b2291e5b200ac8c7c3b925",
            "0x00000000000000000000000045dce8e4f2dc005a5f28206a46cb034697eeda8e",
            "0x0000000000000000000000007a07d606c87b7251c2953a30fa445d8c5f856c7a"
          ],
          "data": "0x000000000000000000000000000000000000000000000000000009184e72a000",
          "blockHash": "0x3ec0768d19a45fa2e604a65ba806a3e168903fc5ab9064dc92aebeba12290f46",
          "blockNumber": "0x2b0e5c0",
          "blockTimestamp": "0x6a03fbeb",
          "transactionHash": "0xe5f6646f27a6401ecd326110b255375560e134067e0a566160c42d2db6b523a9",
          "transactionIndex": "0x6",
          "logIndex": "0x15",
          "removed": false
        }
      ],
      "logsBloom": "0x00000000002000000000002200000000000000000000000000000000000000000000000000000000000000000000000000000000000000000000000000200000000000000000000000000000000000000000000000000000000000000000000000000000000000000000000000000000000000000000000000000000000000000000000000000000000000000000000000000000000000000000000000000000020010000000000002000000000000000000000000000000000000000000000000000000000000000000000000000000001000000000000000000000000000000010000000000000000000040000800000000000000000000000000000080000",
      "type": "0x2",
      "transactionHash": "0xe5f6646f27a6401ecd326110b255375560e134067e0a566160c42d2db6b523a9",
      "transactionIndex": "0x6",
      "blockHash": "0x3ec0768d19a45fa2e604a65ba806a3e168903fc5ab9064dc92aebeba12290f46",
      "blockNumber": "0x2b0e5c0",
      "gasUsed": "0xd1bb",
      "effectiveGasPrice": "0xf433d",
      "blobGasUsed": "0x9c40",
      "from": "0x45dce8e4f2dc005a5f28206a46cb034697eeda8e",
      "to": "0x43edd7f3831b08fe70b7555ddd373c8bf65a9050",
      "contractAddress": null,
      "daFootprintGasScalar": "0x190",
      "l1BaseFeeScalar": "0x1148",
      "l1BlobBaseFee": "0x5f7ce4",
      "l1BlobBaseFeeScalar": "0xc5f4f",
      "l1Fee": "0x5105d80b",
      "l1GasPrice": "0x72c7cc9",
      "l1GasUsed": "0x640"
    },
    {
      "status": "0x1",
      "cumulativeGasUsed": "0x1fcde0",
      "logs": [
        {
          "address": "0x43edd7f3831b08fe70b7555ddd373c8bf65a9050",
          "topics": [
            "0x8c5be1e5ebec7d5bd14f71427d1e84f3dd0314c0f7b2291e5b200ac8c7c3b925",
            "0x00000000000000000000000045dce8e4f2dc005a5f28206a46cb034697eeda8e",
            "0x0000000000000000000000007a07d606c87b7251c2953a30fa445d8c5f856c7a"
          ],
          "data": "0x0000000000000000000000000000000000000000000000000000000000000000",
          "blockHash": "0x3ec0768d19a45fa2e604a65ba806a3e168903fc5ab9064dc92aebeba12290f46",
          "blockNumber": "0x2b0e5c0",
          "blockTimestamp": "0x6a03fbeb",
          "transactionHash": "0x5e391401d19de404ec4dffde887b41210e766e3c370a8c7ff76f537ebd08bd53",
          "transactionIndex": "0x7",
          "logIndex": "0x16",
          "removed": false
        },
        {
          "address": "0x43edd7f3831b08fe70b7555ddd373c8bf65a9050",
          "topics": [
            "0xddf252ad1be2c89b69c2b068fc378daa952ba7f163c4a11628f55a4df523b3ef",
            "0x00000000000000000000000045dce8e4f2dc005a5f28206a46cb034697eeda8e",
            "0x0000000000000000000000007a07d606c87b7251c2953a30fa445d8c5f856c7a"
          ],
          "data": "0x000000000000000000000000000000000000000000000000000009184e72a000",
          "blockHash": "0x3ec0768d19a45fa2e604a65ba806a3e168903fc5ab9064dc92aebeba12290f46",
          "blockNumber": "0x2b0e5c0",
          "blockTimestamp": "0x6a03fbeb",
          "transactionHash": "0x5e391401d19de404ec4dffde887b41210e766e3c370a8c7ff76f537ebd08bd53",
          "transactionIndex": "0x7",
          "logIndex": "0x17",
          "removed": false
        },
        {
          "address": "0x43edd7f3831b08fe70b7555ddd373c8bf65a9050",
          "topics": [
            "0x8c5be1e5ebec7d5bd14f71427d1e84f3dd0314c0f7b2291e5b200ac8c7c3b925",
            "0x0000000000000000000000007a07d606c87b7251c2953a30fa445d8c5f856c7a",
            "0x00000000000000000000000043edd7f3831b08fe70b7555ddd373c8bf65a9050"
          ],
          "data": "0x000000000000000000000000000000000000000000000000000009184e72a000",
          "blockHash": "0x3ec0768d19a45fa2e604a65ba806a3e168903fc5ab9064dc92aebeba12290f46",
          "blockNumber": "0x2b0e5c0",
          "blockTimestamp": "0x6a03fbeb",
          "transactionHash": "0x5e391401d19de404ec4dffde887b41210e766e3c370a8c7ff76f537ebd08bd53",
          "transactionIndex": "0x7",
          "logIndex": "0x18",
          "removed": false
        },
        {
          "address": "0x43edd7f3831b08fe70b7555ddd373c8bf65a9050",
          "topics": [
            "0xddf252ad1be2c89b69c2b068fc378daa952ba7f163c4a11628f55a4df523b3ef",
            "0x0000000000000000000000007a07d606c87b7251c2953a30fa445d8c5f856c7a",
            "0x0000000000000000000000000000000000000000000000000000000000000000"
          ],
          "data": "0x000000000000000000000000000000000000000000000000000009184e72a000",
          "blockHash": "0x3ec0768d19a45fa2e604a65ba806a3e168903fc5ab9064dc92aebeba12290f46",
          "blockNumber": "0x2b0e5c0",
          "blockTimestamp": "0x6a03fbeb",
          "transactionHash": "0x5e391401d19de404ec4dffde887b41210e766e3c370a8c7ff76f537ebd08bd53",
          "transactionIndex": "0x7",
          "logIndex": "0x19",
          "removed": false
        },
        {
          "address": "0x76111de813f83aaadbd62773bf41247634e2319a",
          "topics": [
            "0x61ed099e74a97a1d7f8bb0952a88ca8b7b8ebd00c126ea04671f92a81213318a"
          ],
          "data": "0x000000000000000000000000febcf17b11376c724ab5a5229803c6e838b6eae5000000000000000000000000000000000000000000000000000008212e0ef724",
          "blockHash": "0x3ec0768d19a45fa2e604a65ba806a3e168903fc5ab9064dc92aebeba12290f46",
          "blockNumber": "0x2b0e5c0",
          "blockTimestamp": "0x6a03fbeb",
          "transactionHash": "0x5e391401d19de404ec4dffde887b41210e766e3c370a8c7ff76f537ebd08bd53",
          "transactionIndex": "0x7",
          "logIndex": "0x1a",
          "removed": false
        },
        {
          "address": "0x76111de813f83aaadbd62773bf41247634e2319a",
          "topics": [
            "0x07ea52d82345d6e838192107d8fd7123d9c2ec8e916cd0aad13fd2b60db24644"
          ],
          "data": "0x0000000000000000000000000000000000000000000000000000000000000060000000000000000000000000000000000000000000000000000000000000012000000000000000000000000000000000000000000000000000000000000001400000000000000000000000000000000000000000000000000000000000000005000000000000000000000000174f2ba26f8adeafa82663bcf908288d5dbca6490000000000000000000000001e4ce74ccf5498b19900649d9196e64bab592451000000000000000000000000395b14700812cccc38b8e64f0a06ce2045fe9ba3000000000000000000000000dd7b5e1db4aafd5c8ec3b764efb8ed265aa5445b000000000000000000000000f007f1fef50c0acaf4418741454bcaeaecb96b870000000000000000000000000000000000000000000000000000000000000000000000000000000000000000000000000000000000000000000000000000000500000000000000000000000000000000000000000000000000000162cb92b00c0000000000000000000000000000000000000000000000000000014c376dbe3100000000000000000000000000000000000000000000000000000162cb92b00c0000000000000000000000000000000000000000000000000000014c376dbe3100000000000000000000000000000000000000000000000000000162cb92b00c",
          "blockHash": "0x3ec0768d19a45fa2e604a65ba806a3e168903fc5ab9064dc92aebeba12290f46",
          "blockNumber": "0x2b0e5c0",
          "blockTimestamp": "0x6a03fbeb",
          "transactionHash": "0x5e391401d19de404ec4dffde887b41210e766e3c370a8c7ff76f537ebd08bd53",
          "transactionIndex": "0x7",
          "logIndex": "0x1b",
          "removed": false
        },
        {
          "address": "0xca29f3a6f966cb2fc0de625f8f325c0c46dbe958",
          "topics": [
            "0x1ab700d4ced0c005b164c0f789fd09fcbb0156d4c2041b8a3bfbcd961cd1567f"
          ],
          "data": "0x0000000000000000000000000000000000000000000000000000000000000060000000000000000000000000000000000000000000000000000000000000018000000000000000000000000076111de813f83aaadbd62773bf41247634e2319a00000000000000000000000000000000000000000000000000000000000000f90100000000000000120000768300000000000000000000000043edd7f3831b08fe70b7555ddd373c8bf65a90500000762f0000000000000000000000009abfe1f8a999b0011ecd6116649aee8d575f5604eff71bf1907f52209dd85755159a221dfd6fdd3010363d3f6bab46c9460e0da70000000000000000000000002a2019b30c157db6c1c01306b8025167dbe1803b000000000000000a0000000000000000000000007a07d606c87b7251c2953a30fa445d8c5f856c7a00000000000000000000000045dce8e4f2dc005a5f28206a46cb034697eeda8e00000000000000000000000000000000000000000000000000000000000075e700000000000000000000000000000000000000000000000000000000000000000000000000002c0003010011010000000000000000000000000003d090010013030000000000000000000000000000000f42400000000000000000000000000000000000000000",
          "blockHash": "0x3ec0768d19a45fa2e604a65ba806a3e168903fc5ab9064dc92aebeba12290f46",
          "blockNumber": "0x2b0e5c0",
          "blockTimestamp": "0x6a03fbeb",
          "transactionHash": "0x5e391401d19de404ec4dffde887b41210e766e3c370a8c7ff76f537ebd08bd53",
          "transactionIndex": "0x7",
          "logIndex": "0x1c",
          "removed": false
        },
        {
          "address": "0x43edd7f3831b08fe70b7555ddd373c8bf65a9050",
          "topics": [
            "0x85496b760a4b7f8d66384b9df21b381f5d1b1e79f229a47aaf4c232edc2fe59a",
            "0xeff71bf1907f52209dd85755159a221dfd6fdd3010363d3f6bab46c9460e0da7",
            "0x0000000000000000000000007a07d606c87b7251c2953a30fa445d8c5f856c7a"
          ],
          "data": "0x000000000000000000000000000000000000000000000000000000000000762f000000000000000000000000000000000000000000000000000009184e72a000000000000000000000000000000000000000000000000000000009184e72a000",
          "blockHash": "0x3ec0768d19a45fa2e604a65ba806a3e168903fc5ab9064dc92aebeba12290f46",
          "blockNumber": "0x2b0e5c0",
          "blockTimestamp": "0x6a03fbeb",
          "transactionHash": "0x5e391401d19de404ec4dffde887b41210e766e3c370a8c7ff76f537ebd08bd53",
          "transactionIndex": "0x7",
          "logIndex": "0x1d",
          "removed": false
        },
        {
          "address": "0x7a07d606c87b7251c2953a30fa445d8c5f856c7a",
          "topics": [
            "0xbc9ee36b6ca0bdd5b3840e6d329dd19a2490d880c7ce24d9818aa593adfb35be",
            "0x00000000000000000000000045dce8e4f2dc005a5f28206a46cb034697eeda8e",
            "0x00000000000000000000000000000000000000000000000000000000000075e7",
            "0x00000000000000000000000045dce8e4f2dc005a5f28206a46cb034697eeda8e"
          ],
          "data": "0x00000000000000000000000043edd7f3831b08fe70b7555ddd373c8bf65a9050000000000000000000000000000000000000000000000000000009184e72a000",
          "blockHash": "0x3ec0768d19a45fa2e604a65ba806a3e168903fc5ab9064dc92aebeba12290f46",
          "blockNumber": "0x2b0e5c0",
          "blockTimestamp": "0x6a03fbeb",
          "transactionHash": "0x5e391401d19de404ec4dffde887b41210e766e3c370a8c7ff76f537ebd08bd53",
          "transactionIndex": "0x7",
          "logIndex": "0x1e",
          "removed": false
        }
      ],
      "logsBloom": "0x00000000002000000000002200000000000000000000000000000000000000210000000000000000000000000000000000000000000000000000000000280000000002000000000200000008000000000000000000000000040000000000008000020000020000008000000000000801000000000002100000010010000000000000000000000000000000081000000000000000000000000000000100800000020010108000000022100000000000000004000000400000000440000000020000000002000000000000000080000000001002000000000000000000000020000010040000000000000000240000802000000000008000000000000000080800",
      "type": "0x2",
      "transactionHash": "0x5e391401d19de404ec4dffde887b41210e766e3c370a8c7ff76f537ebd08bd53",
      "transactionIndex": "0x7",
      "blockHash": "0x3ec0768d19a45fa2e604a65ba806a3e168903fc5ab9064dc92aebeba12290f46",
      "blockNumber": "0x2b0e5c0",
      "gasUsed": "0x9407a",
      "effectiveGasPrice": "0xf433d",
      "blobGasUsed": "0xbea0",
      "from": "0x45dce8e4f2dc005a5f28206a46cb034697eeda8e",
      "to": "0x7a07d606c87b7251c2953a30fa445d8c5f856c7a",
      "contractAddress": null,
      "daFootprintGasScalar": "0x190",
      "l1BaseFeeScalar": "0x1148",
      "l1BlobBaseFee": "0x5f7ce4",
      "l1BlobBaseFeeScalar": "0xc5f4f",
      "l1Fee": "0x5105d80b",
      "l1GasPrice": "0x72c7cc9",
      "l1GasUsed": "0x7a3"
    },
    {
      "status": "0x1",
      "cumulativeGasUsed": "0x209f9b",
      "logs": [
        {
          "address": "0x3ec3849c33291a9ef4c5db86de593eb4a37fde45",
          "topics": [
            "0x8c5be1e5ebec7d5bd14f71427d1e84f3dd0314c0f7b2291e5b200ac8c7c3b925",
            "0x00000000000000000000000045dce8e4f2dc005a5f28206a46cb034697eeda8e",
            "0x0000000000000000000000007a07d606c87b7251c2953a30fa445d8c5f856c7a"
          ],
          "data": "0x000000000000000000000000000000000000000000000000000009184e72a000",
          "blockHash": "0x3ec0768d19a45fa2e604a65ba806a3e168903fc5ab9064dc92aebeba12290f46",
          "blockNumber": "0x2b0e5c0",
          "blockTimestamp": "0x6a03fbeb",
          "transactionHash": "0x4d141789062c3a04e012c2ca441fcd3a1834c9bb1482254f7d15f511581d5252",
          "transactionIndex": "0x8",
          "logIndex": "0x1f",
          "removed": false
        }
      ],
      "logsBloom": "0x00000000002000000000002200002000000000000000000000000000000000000000000000000000000000000000000000000000000000000000000000200000000000000000000000000000000000000000000000000000000000000000000000000000000000000000000000000000000000000000000000000000000000000000000000000000000000000000000000000000000020000040000000000000020010000000000000000000000000000000000000000000000000000000000000000000000000000000000000000000001000000000000000000000000000000010000000000000000000000000800000000000000000000000000000000000",
      "type": "0x2",
      "transactionHash": "0x4d141789062c3a04e012c2ca441fcd3a1834c9bb1482254f7d15f511581d5252",
      "transactionIndex": "0x8",
      "blockHash": "0x3ec0768d19a45fa2e604a65ba806a3e168903fc5ab9064dc92aebeba12290f46",
      "blockNumber": "0x2b0e5c0",
      "gasUsed": "0xd1bb",
      "effectiveGasPrice": "0xf433d",
      "blobGasUsed": "0x9c40",
      "from": "0x45dce8e4f2dc005a5f28206a46cb034697eeda8e",
      "to": "0x3ec3849c33291a9ef4c5db86de593eb4a37fde45",
      "contractAddress": null,
      "daFootprintGasScalar": "0x190",
      "l1BaseFeeScalar": "0x1148",
      "l1BlobBaseFee": "0x5f7ce4",
      "l1BlobBaseFeeScalar": "0xc5f4f",
      "l1Fee": "0x5105d80b",
      "l1GasPrice": "0x72c7cc9",
      "l1GasUsed": "0x640"
    },
    {
      "status": "0x1",
      "cumulativeGasUsed": "0x2a65ad",
      "logs": [
        {
          "address": "0x3ec3849c33291a9ef4c5db86de593eb4a37fde45",
          "topics": [
            "0x8c5be1e5ebec7d5bd14f71427d1e84f3dd0314c0f7b2291e5b200ac8c7c3b925",
            "0x00000000000000000000000045dce8e4f2dc005a5f28206a46cb034697eeda8e",
            "0x0000000000000000000000007a07d606c87b7251c2953a30fa445d8c5f856c7a"
          ],
          "data": "0x0000000000000000000000000000000000000000000000000000000000000000",
          "blockHash": "0x3ec0768d19a45fa2e604a65ba806a3e168903fc5ab9064dc92aebeba12290f46",
          "blockNumber": "0x2b0e5c0",
          "blockTimestamp": "0x6a03fbeb",
          "transactionHash": "0xfa1edc098a576b7f8789d8b2b58e9c409c6cf29d430554617ea1e4b23a862359",
          "transactionIndex": "0x9",
          "logIndex": "0x20",
          "removed": false
        },
        {
          "address": "0x3ec3849c33291a9ef4c5db86de593eb4a37fde45",
          "topics": [
            "0xddf252ad1be2c89b69c2b068fc378daa952ba7f163c4a11628f55a4df523b3ef",
            "0x00000000000000000000000045dce8e4f2dc005a5f28206a46cb034697eeda8e",
            "0x0000000000000000000000007a07d606c87b7251c2953a30fa445d8c5f856c7a"
          ],
          "data": "0x000000000000000000000000000000000000000000000000000009184e72a000",
          "blockHash": "0x3ec0768d19a45fa2e604a65ba806a3e168903fc5ab9064dc92aebeba12290f46",
          "blockNumber": "0x2b0e5c0",
          "blockTimestamp": "0x6a03fbeb",
          "transactionHash": "0xfa1edc098a576b7f8789d8b2b58e9c409c6cf29d430554617ea1e4b23a862359",
          "transactionIndex": "0x9",
          "logIndex": "0x21",
          "removed": false
        },
        {
          "address": "0x3ec3849c33291a9ef4c5db86de593eb4a37fde45",
          "topics": [
            "0x8c5be1e5ebec7d5bd14f71427d1e84f3dd0314c0f7b2291e5b200ac8c7c3b925",
            "0x0000000000000000000000007a07d606c87b7251c2953a30fa445d8c5f856c7a",
            "0x0000000000000000000000003ec3849c33291a9ef4c5db86de593eb4a37fde45"
          ],
          "data": "0x000000000000000000000000000000000000000000000000000009184e72a000",
          "blockHash": "0x3ec0768d19a45fa2e604a65ba806a3e168903fc5ab9064dc92aebeba12290f46",
          "blockNumber": "0x2b0e5c0",
          "blockTimestamp": "0x6a03fbeb",
          "transactionHash": "0xfa1edc098a576b7f8789d8b2b58e9c409c6cf29d430554617ea1e4b23a862359",
          "transactionIndex": "0x9",
          "logIndex": "0x22",
          "removed": false
        },
        {
          "address": "0x3ec3849c33291a9ef4c5db86de593eb4a37fde45",
          "topics": [
            "0xddf252ad1be2c89b69c2b068fc378daa952ba7f163c4a11628f55a4df523b3ef",
            "0x0000000000000000000000007a07d606c87b7251c2953a30fa445d8c5f856c7a",
            "0x0000000000000000000000000000000000000000000000000000000000000000"
          ],
          "data": "0x000000000000000000000000000000000000000000000000000009184e72a000",
          "blockHash": "0x3ec0768d19a45fa2e604a65ba806a3e168903fc5ab9064dc92aebeba12290f46",
          "blockNumber": "0x2b0e5c0",
          "blockTimestamp": "0x6a03fbeb",
          "transactionHash": "0xfa1edc098a576b7f8789d8b2b58e9c409c6cf29d430554617ea1e4b23a862359",
          "transactionIndex": "0x9",
          "logIndex": "0x23",
          "removed": false
        },
        {
          "address": "0x76111de813f83aaadbd62773bf41247634e2319a",
          "topics": [
            "0x61ed099e74a97a1d7f8bb0952a88ca8b7b8ebd00c126ea04671f92a81213318a"
          ],
          "data": "0x000000000000000000000000febcf17b11376c724ab5a5229803c6e838b6eae5000000000000000000000000000000000000000000000000000008212e0ef724",
          "blockHash": "0x3ec0768d19a45fa2e604a65ba806a3e168903fc5ab9064dc92aebeba12290f46",
          "blockNumber": "0x2b0e5c0",
          "blockTimestamp": "0x6a03fbeb",
          "transactionHash": "0xfa1edc098a576b7f8789d8b2b58e9c409c6cf29d430554617ea1e4b23a862359",
          "transactionIndex": "0x9",
          "logIndex": "0x24",
          "removed": false
        },
        {
          "address": "0x76111de813f83aaadbd62773bf41247634e2319a",
          "topics": [
            "0x07ea52d82345d6e838192107d8fd7123d9c2ec8e916cd0aad13fd2b60db24644"
          ],
          "data": "0x0000000000000000000000000000000000000000000000000000000000000060000000000000000000000000000000000000000000000000000000000000012000000000000000000000000000000000000000000000000000000000000001400000000000000000000000000000000000000000000000000000000000000005000000000000000000000000174f2ba26f8adeafa82663bcf908288d5dbca6490000000000000000000000001e4ce74ccf5498b19900649d9196e64bab592451000000000000000000000000395b14700812cccc38b8e64f0a06ce2045fe9ba3000000000000000000000000dd7b5e1db4aafd5c8ec3b764efb8ed265aa5445b000000000000000000000000f007f1fef50c0acaf4418741454bcaeaecb96b870000000000000000000000000000000000000000000000000000000000000000000000000000000000000000000000000000000000000000000000000000000500000000000000000000000000000000000000000000000000000162cb92b00c0000000000000000000000000000000000000000000000000000014c376dbe3100000000000000000000000000000000000000000000000000000162cb92b00c0000000000000000000000000000000000000000000000000000014c376dbe3100000000000000000000000000000000000000000000000000000162cb92b00c",
          "blockHash": "0x3ec0768d19a45fa2e604a65ba806a3e168903fc5ab9064dc92aebeba12290f46",
          "blockNumber": "0x2b0e5c0",
          "blockTimestamp": "0x6a03fbeb",
          "transactionHash": "0xfa1edc098a576b7f8789d8b2b58e9c409c6cf29d430554617ea1e4b23a862359",
          "transactionIndex": "0x9",
          "logIndex": "0x25",
          "removed": false
        },
        {
          "address": "0xca29f3a6f966cb2fc0de625f8f325c0c46dbe958",
          "topics": [
            "0x1ab700d4ced0c005b164c0f789fd09fcbb0156d4c2041b8a3bfbcd961cd1567f"
          ],
          "data": "0x0000000000000000000000000000000000000000000000000000000000000060000000000000000000000000000000000000000000000000000000000000018000000000000000000000000076111de813f83aaadbd62773bf41247634e2319a00000000000000000000000000000000000000000000000000000000000000f9010000000000000001000076830000000000000000000000003ec3849c33291a9ef4c5db86de593eb4a37fde450000762f000000000000000000000000999dfabe3b1cc2ef66eb032eea42fea329bba168c186c8c7ce8d34a3ea6dee5da52bd294f59da97f4c8adb5311baf4c4a89833d50000000000000000000000002a2019b30c157db6c1c01306b8025167dbe1803b000000000000000a0000000000000000000000007a07d606c87b7251c2953a30fa445d8c5f856c7a00000000000000000000000045dce8e4f2dc005a5f28206a46cb034697eeda8e00000000000000000000000000000000000000000000000000000000000075e700000000000000000000000000000000000000000000000000000000000000000000000000002c0003010011010000000000000000000000000003d090010013030000000000000000000000000000000f42400000000000000000000000000000000000000000",
          "blockHash": "0x3ec0768d19a45fa2e604a65ba806a3e168903fc5ab9064dc92aebeba12290f46",
          "blockNumber": "0x2b0e5c0",
          "blockTimestamp": "0x6a03fbeb",
          "transactionHash": "0xfa1edc098a576b7f8789d8b2b58e9c409c6cf29d430554617ea1e4b23a862359",
          "transactionIndex": "0x9",
          "logIndex": "0x26",
          "removed": false
        },
        {
          "address": "0x3ec3849c33291a9ef4c5db86de593eb4a37fde45",
          "topics": [
            "0x85496b760a4b7f8d66384b9df21b381f5d1b1e79f229a47aaf4c232edc2fe59a",
            "0xc186c8c7ce8d34a3ea6dee5da52bd294f59da97f4c8adb5311baf4c4a89833d5",
            "0x0000000000000000000000007a07d606c87b7251c2953a30fa445d8c5f856c7a"
          ],
          "data": "0x000000000000000000000000000000000000000000000000000000000000762f000000000000000000000000000000000000000000000000000009184e72a000000000000000000000000000000000000000000000000000000009184e72a000",
          "blockHash": "0x3ec0768d19a45fa2e604a65ba806a3e168903fc5ab9064dc92aebeba12290f46",
          "blockNumber": "0x2b0e5c0",
          "blockTimestamp": "0x6a03fbeb",
          "transactionHash": "0xfa1edc098a576b7f8789d8b2b58e9c409c6cf29d430554617ea1e4b23a862359",
          "transactionIndex": "0x9",
          "logIndex": "0x27",
          "removed": false
        },
        {
          "address": "0x7a07d606c87b7251c2953a30fa445d8c5f856c7a",
          "topics": [
            "0xbc9ee36b6ca0bdd5b3840e6d329dd19a2490d880c7ce24d9818aa593adfb35be",
            "0x00000000000000000000000045dce8e4f2dc005a5f28206a46cb034697eeda8e",
            "0x00000000000000000000000000000000000000000000000000000000000075e7",
            "0x00000000000000000000000045dce8e4f2dc005a5f28206a46cb034697eeda8e"
          ],
          "data": "0x0000000000000000000000003ec3849c33291a9ef4c5db86de593eb4a37fde45000000000000000000000000000000000000000000000000000009184e72a000",
          "blockHash": "0x3ec0768d19a45fa2e604a65ba806a3e168903fc5ab9064dc92aebeba12290f46",
          "blockNumber": "0x2b0e5c0",
          "blockTimestamp": "0x6a03fbeb",
          "transactionHash": "0xfa1edc098a576b7f8789d8b2b58e9c409c6cf29d430554617ea1e4b23a862359",
          "transactionIndex": "0x9",
          "logIndex": "0x28",
          "removed": false
        }
      ],
      "logsBloom": "0x00000000002000000000002200002000080000000000000000000000000000200000000000000000000000000000000000000000000000000000000000280020000002000000000200000008000000000000000000000000040000000000008000000000020000008000000000000801000000000002100000010010000000000000000000000000000000080000000000000001000020000040004000000000020010108000000020100000400000000004000000400000000440000000000000000002000000000000000080000000001002000000000000000000000020000010040000000000000000200000802000000000008000000100000000000800",
      "type": "0x2",
      "transactionHash": "0xfa1edc098a576b7f8789d8b2b58e9c409c6cf29d430554617ea1e4b23a862359",
      "transactionIndex": "0x9",
      "blockHash": "0x3ec0768d19a45fa2e604a65ba806a3e168903fc5ab9064dc92aebeba12290f46",
      "blockNumber": "0x2b0e5c0",
      "gasUsed": "0x9c612",
      "effectiveGasPrice": "0xf433d",
      "blobGasUsed": "0xbea0",
      "from": "0x45dce8e4f2dc005a5f28206a46cb034697eeda8e",
      "to": "0x7a07d606c87b7251c2953a30fa445d8c5f856c7a",
      "contractAddress": null,
      "daFootprintGasScalar": "0x190",
      "l1BaseFeeScalar": "0x1148",
      "l1BlobBaseFee": "0x5f7ce4",
      "l1BlobBaseFeeScalar": "0xc5f4f",
      "l1Fee": "0x5105d80b",
      "l1GasPrice": "0x72c7cc9",
      "l1GasUsed": "0x7a3"
    },
    {
      "status": "0x1",
      "cumulativeGasUsed": "0x2b3752",
      "logs": [
        {
          "address": "0x64445f0aecc51e94ad52d8ac56b7190e764e561a",
          "topics": [
            "0x8c5be1e5ebec7d5bd14f71427d1e84f3dd0314c0f7b2291e5b200ac8c7c3b925",
            "0x00000000000000000000000045dce8e4f2dc005a5f28206a46cb034697eeda8e",
            "0x0000000000000000000000007a07d606c87b7251c2953a30fa445d8c5f856c7a"
          ],
          "data": "0x000000000000000000000000000000000000000000000000000009184e72a000",
          "blockHash": "0x3ec0768d19a45fa2e604a65ba806a3e168903fc5ab9064dc92aebeba12290f46",
          "blockNumber": "0x2b0e5c0",
          "blockTimestamp": "0x6a03fbeb",
          "transactionHash": "0x5b8f5ebfc4859e73e38c62f508b20714e73b5db826a3e32aa29434a6df679172",
          "transactionIndex": "0xa",
          "logIndex": "0x29",
          "removed": false
        }
      ],
      "logsBloom": "0x00000000002000000000002200000000000000000000000000000000000000000000000000000000000000000000000000000000000000000000000000200000002000000000000000000000000000000000000000000000000000000000000000000000000000000000000000000000000000000000000000000000000000000000000000000000000000000000000000000000000000000000000000000000020010000000000000000008000000000000000000000000000000000000000000000000000000000000000000000000001000000000000000000000000000000010000000000000000000000000800000000008000000000000000000000000",
      "type": "0x2",
      "transactionHash": "0x5b8f5ebfc4859e73e38c62f508b20714e73b5db826a3e32aa29434a6df679172",
      "transactionIndex": "0xa",
      "blockHash": "0x3ec0768d19a45fa2e604a65ba806a3e168903fc5ab9064dc92aebeba12290f46",
      "blockNumber": "0x2b0e5c0",
      "gasUsed": "0xd1a5",
      "effectiveGasPrice": "0xf433d",
      "blobGasUsed": "0x9c40",
      "from": "0x45dce8e4f2dc005a5f28206a46cb034697eeda8e",
      "to": "0x64445f0aecc51e94ad52d8ac56b7190e764e561a",
      "contractAddress": null,
      "daFootprintGasScalar": "0x190",
      "l1BaseFeeScalar": "0x1148",
      "l1BlobBaseFee": "0x5f7ce4",
      "l1BlobBaseFeeScalar": "0xc5f4f",
      "l1Fee": "0x5105d80b",
      "l1GasPrice": "0x72c7cc9",
      "l1GasUsed": "0x640"
    },
    {
      "status": "0x1",
      "cumulativeGasUsed": "0x34ba82",
      "logs": [
        {
          "address": "0x64445f0aecc51e94ad52d8ac56b7190e764e561a",
          "topics": [
            "0x8c5be1e5ebec7d5bd14f71427d1e84f3dd0314c0f7b2291e5b200ac8c7c3b925",
            "0x00000000000000000000000045dce8e4f2dc005a5f28206a46cb034697eeda8e",
            "0x0000000000000000000000007a07d606c87b7251c2953a30fa445d8c5f856c7a"
          ],
          "data": "0x0000000000000000000000000000000000000000000000000000000000000000",
          "blockHash": "0x3ec0768d19a45fa2e604a65ba806a3e168903fc5ab9064dc92aebeba12290f46",
          "blockNumber": "0x2b0e5c0",
          "blockTimestamp": "0x6a03fbeb",
          "transactionHash": "0x2aa0e3372f5e2bb156732b10de756b2c3297af6e1722b9f65557aa02e11fff7f",
          "transactionIndex": "0xb",
          "logIndex": "0x2a",
          "removed": false
        },
        {
          "address": "0x64445f0aecc51e94ad52d8ac56b7190e764e561a",
          "topics": [
            "0xddf252ad1be2c89b69c2b068fc378daa952ba7f163c4a11628f55a4df523b3ef",
            "0x00000000000000000000000045dce8e4f2dc005a5f28206a46cb034697eeda8e",
            "0x0000000000000000000000007a07d606c87b7251c2953a30fa445d8c5f856c7a"
          ],
          "data": "0x000000000000000000000000000000000000000000000000000009184e72a000",
          "blockHash": "0x3ec0768d19a45fa2e604a65ba806a3e168903fc5ab9064dc92aebeba12290f46",
          "blockNumber": "0x2b0e5c0",
          "blockTimestamp": "0x6a03fbeb",
          "transactionHash": "0x2aa0e3372f5e2bb156732b10de756b2c3297af6e1722b9f65557aa02e11fff7f",
          "transactionIndex": "0xb",
          "logIndex": "0x2b",
          "removed": false
        },
        {
          "address": "0x64445f0aecc51e94ad52d8ac56b7190e764e561a",
          "topics": [
            "0x8c5be1e5ebec7d5bd14f71427d1e84f3dd0314c0f7b2291e5b200ac8c7c3b925",
            "0x0000000000000000000000007a07d606c87b7251c2953a30fa445d8c5f856c7a",
            "0x00000000000000000000000064445f0aecc51e94ad52d8ac56b7190e764e561a"
          ],
          "data": "0x000000000000000000000000000000000000000000000000000009184e72a000",
          "blockHash": "0x3ec0768d19a45fa2e604a65ba806a3e168903fc5ab9064dc92aebeba12290f46",
          "blockNumber": "0x2b0e5c0",
          "blockTimestamp": "0x6a03fbeb",
          "transactionHash": "0x2aa0e3372f5e2bb156732b10de756b2c3297af6e1722b9f65557aa02e11fff7f",
          "transactionIndex": "0xb",
          "logIndex": "0x2c",
          "removed": false
        },
        {
          "address": "0x64445f0aecc51e94ad52d8ac56b7190e764e561a",
          "topics": [
            "0xddf252ad1be2c89b69c2b068fc378daa952ba7f163c4a11628f55a4df523b3ef",
            "0x0000000000000000000000007a07d606c87b7251c2953a30fa445d8c5f856c7a",
            "0x0000000000000000000000000000000000000000000000000000000000000000"
          ],
          "data": "0x000000000000000000000000000000000000000000000000000009184e72a000",
          "blockHash": "0x3ec0768d19a45fa2e604a65ba806a3e168903fc5ab9064dc92aebeba12290f46",
          "blockNumber": "0x2b0e5c0",
          "blockTimestamp": "0x6a03fbeb",
          "transactionHash": "0x2aa0e3372f5e2bb156732b10de756b2c3297af6e1722b9f65557aa02e11fff7f",
          "transactionIndex": "0xb",
          "logIndex": "0x2d",
          "removed": false
        },
        {
          "address": "0x76111de813f83aaadbd62773bf41247634e2319a",
          "topics": [
            "0x61ed099e74a97a1d7f8bb0952a88ca8b7b8ebd00c126ea04671f92a81213318a"
          ],
          "data": "0x000000000000000000000000febcf17b11376c724ab5a5229803c6e838b6eae5000000000000000000000000000000000000000000000000000008212e0ef724",
          "blockHash": "0x3ec0768d19a45fa2e604a65ba806a3e168903fc5ab9064dc92aebeba12290f46",
          "blockNumber": "0x2b0e5c0",
          "blockTimestamp": "0x6a03fbeb",
          "transactionHash": "0x2aa0e3372f5e2bb156732b10de756b2c3297af6e1722b9f65557aa02e11fff7f",
          "transactionIndex": "0xb",
          "logIndex": "0x2e",
          "removed": false
        },
        {
          "address": "0x76111de813f83aaadbd62773bf41247634e2319a",
          "topics": [
            "0x07ea52d82345d6e838192107d8fd7123d9c2ec8e916cd0aad13fd2b60db24644"
          ],
          "data": "0x0000000000000000000000000000000000000000000000000000000000000060000000000000000000000000000000000000000000000000000000000000012000000000000000000000000000000000000000000000000000000000000001400000000000000000000000000000000000000000000000000000000000000005000000000000000000000000174f2ba26f8adeafa82663bcf908288d5dbca6490000000000000000000000001e4ce74ccf5498b19900649d9196e64bab592451000000000000000000000000395b14700812cccc38b8e64f0a06ce2045fe9ba3000000000000000000000000dd7b5e1db4aafd5c8ec3b764efb8ed265aa5445b000000000000000000000000f007f1fef50c0acaf4418741454bcaeaecb96b870000000000000000000000000000000000000000000000000000000000000000000000000000000000000000000000000000000000000000000000000000000500000000000000000000000000000000000000000000000000000162cb92b00c0000000000000000000000000000000000000000000000000000014c376dbe3100000000000000000000000000000000000000000000000000000162cb92b00c0000000000000000000000000000000000000000000000000000014c376dbe3100000000000000000000000000000000000000000000000000000162cb92b00c",
          "blockHash": "0x3ec0768d19a45fa2e604a65ba806a3e168903fc5ab9064dc92aebeba12290f46",
          "blockNumber": "0x2b0e5c0",
          "blockTimestamp": "0x6a03fbeb",
          "transactionHash": "0x2aa0e3372f5e2bb156732b10de756b2c3297af6e1722b9f65557aa02e11fff7f",
          "transactionIndex": "0xb",
          "logIndex": "0x2f",
          "removed": false
        },
        {
          "address": "0xca29f3a6f966cb2fc0de625f8f325c0c46dbe958",
          "topics": [
            "0x1ab700d4ced0c005b164c0f789fd09fcbb0156d4c2041b8a3bfbcd961cd1567f"
          ],
          "data": "0x0000000000000000000000000000000000000000000000000000000000000060000000000000000000000000000000000000000000000000000000000000018000000000000000000000000076111de813f83aaadbd62773bf41247634e2319a00000000000000000000000000000000000000000000000000000000000000f90100000000000000020000768300000000000000000000000064445f0aecc51e94ad52d8ac56b7190e764e561a0000762f000000000000000000000000d86fbbd0c8715d2c1f40e451e5c3514e65e7576ad506e67fd299117d26d4b0c929408a11b225c4dfd85cd16c0cd8dfadfc06244f0000000000000000000000002a2019b30c157db6c1c01306b8025167dbe1803b000000000000000a0000000000000000000000007a07d606c87b7251c2953a30fa445d8c5f856c7a00000000000000000000000045dce8e4f2dc005a5f28206a46cb034697eeda8e00000000000000000000000000000000000000000000000000000000000075e700000000000000000000000000000000000000000000000000000000000000000000000000002c0003010011010000000000000000000000000003d090010013030000000000000000000000000000000f42400000000000000000000000000000000000000000",
          "blockHash": "0x3ec0768d19a45fa2e604a65ba806a3e168903fc5ab9064dc92aebeba12290f46",
          "blockNumber": "0x2b0e5c0",
          "blockTimestamp": "0x6a03fbeb",
          "transactionHash": "0x2aa0e3372f5e2bb156732b10de756b2c3297af6e1722b9f65557aa02e11fff7f",
          "transactionIndex": "0xb",
          "logIndex": "0x30",
          "removed": false
        },
        {
          "address": "0x64445f0aecc51e94ad52d8ac56b7190e764e561a",
          "topics": [
            "0x85496b760a4b7f8d66384b9df21b381f5d1b1e79f229a47aaf4c232edc2fe59a",
            "0xd506e67fd299117d26d4b0c929408a11b225c4dfd85cd16c0cd8dfadfc06244f",
            "0x0000000000000000000000007a07d606c87b7251c2953a30fa445d8c5f856c7a"
          ],
          "data": "0x000000000000000000000000000000000000000000000000000000000000762f000000000000000000000000000000000000000000000000000009184e72a000000000000000000000000000000000000000000000000000000009184e72a000",
          "blockHash": "0x3ec0768d19a45fa2e604a65ba806a3e168903fc5ab9064dc92aebeba12290f46",
          "blockNumber": "0x2b0e5c0",
          "blockTimestamp": "0x6a03fbeb",
          "transactionHash": "0x2aa0e3372f5e2bb156732b10de756b2c3297af6e1722b9f65557aa02e11fff7f",
          "transactionIndex": "0xb",
          "logIndex": "0x31",
          "removed": false
        },
        {
          "address": "0x7a07d606c87b7251c2953a30fa445d8c5f856c7a",
          "topics": [
            "0xbc9ee36b6ca0bdd5b3840e6d329dd19a2490d880c7ce24d9818aa593adfb35be",
            "0x00000000000000000000000045dce8e4f2dc005a5f28206a46cb034697eeda8e",
            "0x00000000000000000000000000000000000000000000000000000000000075e7",
            "0x00000000000000000000000045dce8e4f2dc005a5f28206a46cb034697eeda8e"
          ],
          "data": "0x00000000000000000000000064445f0aecc51e94ad52d8ac56b7190e764e561a000000000000000000000000000000000000000000000000000009184e72a000",
          "blockHash": "0x3ec0768d19a45fa2e604a65ba806a3e168903fc5ab9064dc92aebeba12290f46",
          "blockNumber": "0x2b0e5c0",
          "blockTimestamp": "0x6a03fbeb",
          "transactionHash": "0x2aa0e3372f5e2bb156732b10de756b2c3297af6e1722b9f65557aa02e11fff7f",
          "transactionIndex": "0xb",
          "logIndex": "0x32",
          "removed": false
        }
      ],
      "logsBloom": "0x0000000000200000000000220000000200000000000000000400000000000020000000000000000000000000000000000000000000000000000000000028000000200200000000020000000800000000000000000000000004000000000000800000000002000000800000000000080100000000000210000001001000000000000000000000000000000008000000000000000000000000000000000000000002001010800000002010000c000000000004000000400000000c40000000000000000002000000000000000080000000001002000000000000000000000020000010040000000000000000200000802800000008008000000000000000000802",
      "type": "0x2",
      "transactionHash": "0x2aa0e3372f5e2bb156732b10de756b2c3297af6e1722b9f65557aa02e11fff7f",
      "transactionIndex": "0xb",
      "blockHash": "0x3ec0768d19a45fa2e604a65ba806a3e168903fc5ab9064dc92aebeba12290f46",
      "blockNumber": "0x2b0e5c0",
      "gasUsed": "0x98330",
      "effectiveGasPrice": "0xf433d",
      "blobGasUsed": "0xbea0",
      "from": "0x45dce8e4f2dc005a5f28206a46cb034697eeda8e",
      "to": "0x7a07d606c87b7251c2953a30fa445d8c5f856c7a",
      "contractAddress": null,
      "daFootprintGasScalar": "0x190",
      "l1BaseFeeScalar": "0x1148",
      "l1BlobBaseFee": "0x5f7ce4",
      "l1BlobBaseFeeScalar": "0xc5f4f",
      "l1Fee": "0x5105d80b",
      "l1GasPrice": "0x72c7cc9",
      "l1GasUsed": "0x7a3"
    },
    {
      "status": "0x1",
      "cumulativeGasUsed": "0x358c3d",
      "logs": [
        {
          "address": "0x90581eca9469d8d7f5d3b60f4715027adfcf7927",
          "topics": [
            "0x8c5be1e5ebec7d5bd14f71427d1e84f3dd0314c0f7b2291e5b200ac8c7c3b925",
            "0x00000000000000000000000045dce8e4f2dc005a5f28206a46cb034697eeda8e",
            "0x0000000000000000000000007a07d606c87b7251c2953a30fa445d8c5f856c7a"
          ],
          "data": "0x000000000000000000000000000000000000000000000000000009184e72a000",
          "blockHash": "0x3ec0768d19a45fa2e604a65ba806a3e168903fc5ab9064dc92aebeba12290f46",
          "blockNumber": "0x2b0e5c0",
          "blockTimestamp": "0x6a03fbeb",
          "transactionHash": "0x7864f0c90b09bc44f59390d84afb178c2c2639c4447e8e65acfc775ce2657e93",
          "transactionIndex": "0xc",
          "logIndex": "0x33",
          "removed": false
        }
      ],
      "logsBloom": "0x00000000002000000000002200000000000000000000000000000000000000000000000000000000000000000000000000000000000000000000000000200000000000000000000000000000000000000000000000000000000000000000000000000000000000000000000000000000000000000000000000000000000000000000000000000004000010000000000000000000000000000000000000000000020010000000000000000000000000000000000000000000000000000000000000000000000000000000000000000000001000000000000000000000000000000010000000000000000000000000800000400000000000000000000000000000",
      "type": "0x2",
      "transactionHash": "0x7864f0c90b09bc44f59390d84afb178c2c2639c4447e8e65acfc775ce2657e93",
      "transactionIndex": "0xc",
      "blockHash": "0x3ec0768d19a45fa2e604a65ba806a3e168903fc5ab9064dc92aebeba12290f46",
      "blockNumber": "0x2b0e5c0",
      "gasUsed": "0xd1bb",
      "effectiveGasPrice": "0xf433d",
      "blobGasUsed": "0x9c40",
      "from": "0x45dce8e4f2dc005a5f28206a46cb034697eeda8e",
      "to": "0x90581eca9469d8d7f5d3b60f4715027adfcf7927",
      "contractAddress": null,
      "daFootprintGasScalar": "0x190",
      "l1BaseFeeScalar": "0x1148",
      "l1BlobBaseFee": "0x5f7ce4",
      "l1BlobBaseFeeScalar": "0xc5f4f",
      "l1Fee": "0x5105d80b",
      "l1GasPrice": "0x72c7cc9",
      "l1GasUsed": "0x640"
    },
    {
      "status": "0x1",
      "cumulativeGasUsed": "0x3f524f",
      "logs": [
        {
          "address": "0x90581eca9469d8d7f5d3b60f4715027adfcf7927",
          "topics": [
            "0x8c5be1e5ebec7d5bd14f71427d1e84f3dd0314c0f7b2291e5b200ac8c7c3b925",
            "0x00000000000000000000000045dce8e4f2dc005a5f28206a46cb034697eeda8e",
            "0x0000000000000000000000007a07d606c87b7251c2953a30fa445d8c5f856c7a"
          ],
          "data": "0x0000000000000000000000000000000000000000000000000000000000000000",
          "blockHash": "0x3ec0768d19a45fa2e604a65ba806a3e168903fc5ab9064dc92aebeba12290f46",
          "blockNumber": "0x2b0e5c0",
          "blockTimestamp": "0x6a03fbeb",
          "transactionHash": "0x2b6b70c95483c4510faed726b2205ba7c09bdf349dfd2f27dcf43dc156454ccd",
          "transactionIndex": "0xd",
          "logIndex": "0x34",
          "removed": false
        },
        {
          "address": "0x90581eca9469d8d7f5d3b60f4715027adfcf7927",
          "topics": [
            "0xddf252ad1be2c89b69c2b068fc378daa952ba7f163c4a11628f55a4df523b3ef",
            "0x00000000000000000000000045dce8e4f2dc005a5f28206a46cb034697eeda8e",
            "0x0000000000000000000000007a07d606c87b7251c2953a30fa445d8c5f856c7a"
          ],
          "data": "0x000000000000000000000000000000000000000000000000000009184e72a000",
          "blockHash": "0x3ec0768d19a45fa2e604a65ba806a3e168903fc5ab9064dc92aebeba12290f46",
          "blockNumber": "0x2b0e5c0",
          "blockTimestamp": "0x6a03fbeb",
          "transactionHash": "0x2b6b70c95483c4510faed726b2205ba7c09bdf349dfd2f27dcf43dc156454ccd",
          "transactionIndex": "0xd",
          "logIndex": "0x35",
          "removed": false
        },
        {
          "address": "0x90581eca9469d8d7f5d3b60f4715027adfcf7927",
          "topics": [
            "0x8c5be1e5ebec7d5bd14f71427d1e84f3dd0314c0f7b2291e5b200ac8c7c3b925",
            "0x0000000000000000000000007a07d606c87b7251c2953a30fa445d8c5f856c7a",
            "0x00000000000000000000000090581eca9469d8d7f5d3b60f4715027adfcf7927"
          ],
          "data": "0x000000000000000000000000000000000000000000000000000009184e72a000",
          "blockHash": "0x3ec0768d19a45fa2e604a65ba806a3e168903fc5ab9064dc92aebeba12290f46",
          "blockNumber": "0x2b0e5c0",
          "blockTimestamp": "0x6a03fbeb",
          "transactionHash": "0x2b6b70c95483c4510faed726b2205ba7c09bdf349dfd2f27dcf43dc156454ccd",
          "transactionIndex": "0xd",
          "logIndex": "0x36",
          "removed": false
        },
        {
          "address": "0x90581eca9469d8d7f5d3b60f4715027adfcf7927",
          "topics": [
            "0xddf252ad1be2c89b69c2b068fc378daa952ba7f163c4a11628f55a4df523b3ef",
            "0x0000000000000000000000007a07d606c87b7251c2953a30fa445d8c5f856c7a",
            "0x0000000000000000000000000000000000000000000000000000000000000000"
          ],
          "data": "0x000000000000000000000000000000000000000000000000000009184e72a000",
          "blockHash": "0x3ec0768d19a45fa2e604a65ba806a3e168903fc5ab9064dc92aebeba12290f46",
          "blockNumber": "0x2b0e5c0",
          "blockTimestamp": "0x6a03fbeb",
          "transactionHash": "0x2b6b70c95483c4510faed726b2205ba7c09bdf349dfd2f27dcf43dc156454ccd",
          "transactionIndex": "0xd",
          "logIndex": "0x37",
          "removed": false
        },
        {
          "address": "0x76111de813f83aaadbd62773bf41247634e2319a",
          "topics": [
            "0x61ed099e74a97a1d7f8bb0952a88ca8b7b8ebd00c126ea04671f92a81213318a"
          ],
          "data": "0x000000000000000000000000febcf17b11376c724ab5a5229803c6e838b6eae5000000000000000000000000000000000000000000000000000008212e0ef724",
          "blockHash": "0x3ec0768d19a45fa2e604a65ba806a3e168903fc5ab9064dc92aebeba12290f46",
          "blockNumber": "0x2b0e5c0",
          "blockTimestamp": "0x6a03fbeb",
          "transactionHash": "0x2b6b70c95483c4510faed726b2205ba7c09bdf349dfd2f27dcf43dc156454ccd",
          "transactionIndex": "0xd",
          "logIndex": "0x38",
          "removed": false
        },
        {
          "address": "0x76111de813f83aaadbd62773bf41247634e2319a",
          "topics": [
            "0x07ea52d82345d6e838192107d8fd7123d9c2ec8e916cd0aad13fd2b60db24644"
          ],
          "data": "0x0000000000000000000000000000000000000000000000000000000000000060000000000000000000000000000000000000000000000000000000000000012000000000000000000000000000000000000000000000000000000000000001400000000000000000000000000000000000000000000000000000000000000005000000000000000000000000174f2ba26f8adeafa82663bcf908288d5dbca6490000000000000000000000001e4ce74ccf5498b19900649d9196e64bab592451000000000000000000000000395b14700812cccc38b8e64f0a06ce2045fe9ba3000000000000000000000000dd7b5e1db4aafd5c8ec3b764efb8ed265aa5445b000000000000000000000000f007f1fef50c0acaf4418741454bcaeaecb96b870000000000000000000000000000000000000000000000000000000000000000000000000000000000000000000000000000000000000000000000000000000500000000000000000000000000000000000000000000000000000162cb92b00c0000000000000000000000000000000000000000000000000000014c376dbe3100000000000000000000000000000000000000000000000000000162cb92b00c0000000000000000000000000000000000000000000000000000014c376dbe3100000000000000000000000000000000000000000000000000000162cb92b00c",
          "blockHash": "0x3ec0768d19a45fa2e604a65ba806a3e168903fc5ab9064dc92aebeba12290f46",
          "blockNumber": "0x2b0e5c0",
          "blockTimestamp": "0x6a03fbeb",
          "transactionHash": "0x2b6b70c95483c4510faed726b2205ba7c09bdf349dfd2f27dcf43dc156454ccd",
          "transactionIndex": "0xd",
          "logIndex": "0x39",
          "removed": false
        },
        {
          "address": "0xca29f3a6f966cb2fc0de625f8f325c0c46dbe958",
          "topics": [
            "0x1ab700d4ced0c005b164c0f789fd09fcbb0156d4c2041b8a3bfbcd961cd1567f"
          ],
          "data": "0x0000000000000000000000000000000000000000000000000000000000000060000000000000000000000000000000000000000000000000000000000000018000000000000000000000000076111de813f83aaadbd62773bf41247634e2319a00000000000000000000000000000000000000000000000000000000000000f90100000000000000010000768300000000000000000000000090581eca9469d8d7f5d3b60f4715027adfcf79270000762f00000000000000000000000075c38d46001b0f8108c4136216bd2694982c20fc0662846353fd70e055b8a451c08b8f61911f796a6898c52f87acab935f91fee10000000000000000000000002a2019b30c157db6c1c01306b8025167dbe1803b000000000000000a0000000000000000000000007a07d606c87b7251c2953a30fa445d8c5f856c7a00000000000000000000000045dce8e4f2dc005a5f28206a46cb034697eeda8e00000000000000000000000000000000000000000000000000000000000075e700000000000000000000000000000000000000000000000000000000000000000000000000002c0003010011010000000000000000000000000003d090010013030000000000000000000000000000000f42400000000000000000000000000000000000000000",
          "blockHash": "0x3ec0768d19a45fa2e604a65ba806a3e168903fc5ab9064dc92aebeba12290f46",
          "blockNumber": "0x2b0e5c0",
          "blockTimestamp": "0x6a03fbeb",
          "transactionHash": "0x2b6b70c95483c4510faed726b2205ba7c09bdf349dfd2f27dcf43dc156454ccd",
          "transactionIndex": "0xd",
          "logIndex": "0x3a",
          "removed": false
        },
        {
          "address": "0x90581eca9469d8d7f5d3b60f4715027adfcf7927",
          "topics": [
            "0x85496b760a4b7f8d66384b9df21b381f5d1b1e79f229a47aaf4c232edc2fe59a",
            "0x0662846353fd70e055b8a451c08b8f61911f796a6898c52f87acab935f91fee1",
            "0x0000000000000000000000007a07d606c87b7251c2953a30fa445d8c5f856c7a"
          ],
          "data": "0x000000000000000000000000000000000000000000000000000000000000762f000000000000000000000000000000000000000000000000000009184e72a000000000000000000000000000000000000000000000000000000009184e72a000",
          "blockHash": "0x3ec0768d19a45fa2e604a65ba806a3e168903fc5ab9064dc92aebeba12290f46",
          "blockNumber": "0x2b0e5c0",
          "blockTimestamp": "0x6a03fbeb",
          "transactionHash": "0x2b6b70c95483c4510faed726b2205ba7c09bdf349dfd2f27dcf43dc156454ccd",
          "transactionIndex": "0xd",
          "logIndex": "0x3b",
          "removed": false
        },
        {
          "address": "0x7a07d606c87b7251c2953a30fa445d8c5f856c7a",
          "topics": [
            "0xbc9ee36b6ca0bdd5b3840e6d329dd19a2490d880c7ce24d9818aa593adfb35be",
            "0x00000000000000000000000045dce8e4f2dc005a5f28206a46cb034697eeda8e",
            "0x00000000000000000000000000000000000000000000000000000000000075e7",
            "0x00000000000000000000000045dce8e4f2dc005a5f28206a46cb034697eeda8e"
          ],
          "data": "0x00000000000000000000000090581eca9469d8d7f5d3b60f4715027adfcf7927000000000000000000000000000000000000000000000000000009184e72a000",
          "blockHash": "0x3ec0768d19a45fa2e604a65ba806a3e168903fc5ab9064dc92aebeba12290f46",
          "blockNumber": "0x2b0e5c0",
          "blockTimestamp": "0x6a03fbeb",
          "transactionHash": "0x2b6b70c95483c4510faed726b2205ba7c09bdf349dfd2f27dcf43dc156454ccd",
          "transactionIndex": "0xd",
          "logIndex": "0x3c",
          "removed": false
        }
      ],
      "logsBloom": "0x00000000002000000000002200000000000000000000000000000000000000200000000000000000000000000000000000000010000000000000000000280000000002000000000200000008000000000000000000000000040200000000008000000000020000008000000000000801000000010002100000010010001000000000000000000004000010080008000000000000000000000000000000000000020010108000000020100000000000000004000000400000000440000000000000000002000000000000000080000100001002000000000000000000000020000010040000000000000000200000802000400000008000000000000000000800",
      "type": "0x2",
      "transactionHash": "0x2b6b70c95483c4510faed726b2205ba7c09bdf349dfd2f27dcf43dc156454ccd",
      "transactionIndex": "0xd",
      "blockHash": "0x3ec0768d19a45fa2e604a65ba806a3e168903fc5ab9064dc92aebeba12290f46",
      "blockNumber": "0x2b0e5c0",
      "gasUsed": "0x9c612",
      "effectiveGasPrice": "0xf433d",
      "blobGasUsed": "0xbea0",
      "from": "0x45dce8e4f2dc005a5f28206a46cb034697eeda8e",
      "to": "0x7a07d606c87b7251c2953a30fa445d8c5f856c7a",
      "contractAddress": null,
      "daFootprintGasScalar": "0x190",
      "l1BaseFeeScalar": "0x1148",
      "l1BlobBaseFee": "0x5f7ce4",
      "l1BlobBaseFeeScalar": "0xc5f4f",
      "l1Fee": "0x5105d80b",
      "l1GasPrice": "0x72c7cc9",
      "l1GasUsed": "0x7a3"
    }
  ],
  "libraries": [],
  "pending": [],
  "returns": {},
  "timestamp": 1778645994993,
  "chain": 57073,
  "commit": "3c1e5d2a"
}