{
  "transactions": [
    {
      "hash": "0x438c064212a6a4b7e793c1dc8245866a42fb1408cdaa5835fbef301b0900f2d3",
      "transactionType": "CALL",
      "contractName": null,
      "contractAddress": "0x80eede496655fb9047dd39d9f418d5483ed600df",
      "function": "approve(address,uint256)",
      "arguments": [
        "0x486CB4788F1bE7cdEf9301a7a637B451df3Cf262",
        "10000000000000"
      ],
      "transaction": {
        "from": "0x45dce8e4f2dc005a5f28206a46cb034697eeda8e",
        "to": "0x80eede496655fb9047dd39d9f418d5483ed600df",
        "gas": "0x132ba",
        "value": "0x0",
        "input": "0x095ea7b3000000000000000000000000486cb4788f1be7cdef9301a7a637b451df3cf262000000000000000000000000000000000000000000000000000009184e72a000",
        "nonce": "0xb4",
        "chainId": "0x868b"
      },
      "additionalContracts": [],
      "isFixedGasLimit": false
    },
    {
      "hash": "0x9eb44cecefbf2ffa2cc7990888e151aff88694bbe2f02652a481265bba7643a4",
      "transactionType": "CALL",
      "contractName": null,
      "contractAddress": "0x486cb4788f1be7cdef9301a7a637b451df3cf262",
      "function": "sendOFT(address,uint32,bytes32,uint256)",
      "arguments": [
        "0x80Eede496655FB9047dd39d9f418d5483ED600df",
        "30339",
        "0x00000000000000000000000045dce8e4f2dc005a5f28206a46cb034697eeda8e",
        "10000000000000"
      ],
      "transaction": {
        "from": "0x45dce8e4f2dc005a5f28206a46cb034697eeda8e",
        "to": "0x486cb4788f1be7cdef9301a7a637b451df3cf262",
        "gas": "0xcfd7b",
        "value": "0x35a74205779a",
        "input": "0x3e832c9000000000000000000000000080eede496655fb9047dd39d9f418d5483ed600df000000000000000000000000000000000000000000000000000000000000768300000000000000000000000045dce8e4f2dc005a5f28206a46cb034697eeda8e000000000000000000000000000000000000000000000000000009184e72a000",
        "nonce": "0xb5",
        "chainId": "0x868b"
      },
      "additionalContracts": [],
      "isFixedGasLimit": false
    },
    {
      "hash": "0x710f528a077a30d307865dfc2138b1b7d9d03e1634ebd98c0cb0fcc7d7b7773b",
      "transactionType": "CALL",
      "contractName": null,
      "contractAddress": "0x5bff88ca1442c2496f7e475e9e7786383bc070c0",
      "function": "approve(address,uint256)",
      "arguments": [
        "0x486CB4788F1bE7cdEf9301a7a637B451df3Cf262",
        "10000000000000"
      ],
      "transaction": {
        "from": "0x45dce8e4f2dc005a5f28206a46cb034697eeda8e",
        "to": "0x5bff88ca1442c2496f7e475e9e7786383bc070c0",
        "gas": "0x12191",
        "value": "0x0",
        "input": "0x095ea7b3000000000000000000000000486cb4788f1be7cdef9301a7a637b451df3cf262000000000000000000000000000000000000000000000000000009184e72a000",
        "nonce": "0xb6",
        "chainId": "0x868b"
      },
      "additionalContracts": [],
      "isFixedGasLimit": false
    },
    {
      "hash": "0xea189fedbec287c6a904d6f5e9dc4945472c5f2b2626ed06290ad2b14c651734",
      "transactionType": "CALL",
      "contractName": null,
      "contractAddress": "0x486cb4788f1be7cdef9301a7a637b451df3cf262",
      "function": "sendOFT(address,uint32,bytes32,uint256)",
      "arguments": [
        "0x5Bff88cA1442c2496f7E475E9e7786383Bc070c0",
        "30339",
        "0x00000000000000000000000045dce8e4f2dc005a5f28206a46cb034697eeda8e",
        "10000000000000"
      ],
      "transaction": {
        "from": "0x45dce8e4f2dc005a5f28206a46cb034697eeda8e",
        "to": "0x486cb4788f1be7cdef9301a7a637b451df3cf262",
        "gas": "0xd13ac",
        "value": "0x35a74205779a",
        "input": "0x3e832c900000000000000000000000005bff88ca1442c2496f7e475e9e7786383bc070c0000000000000000000000000000000000000000000000000000000000000768300000000000000000000000045dce8e4f2dc005a5f28206a46cb034697eeda8e000000000000000000000000000000000000000000000000000009184e72a000",
        "nonce": "0xb7",
        "chainId": "0x868b"
      },
      "additionalContracts": [],
      "isFixedGasLimit": false
    },
    {
      "hash": "0x03132e4d075fb1acbceebd880827aa5e69a6ac15018b13b02fa9564b9cd1779a",
      "transactionType": "CALL",
      "contractName": null,
      "contractAddress": "0x43edd7f3831b08fe70b7555ddd373c8bf65a9050",
      "function": "approve(address,uint256)",
      "arguments": [
        "0x486CB4788F1bE7cdEf9301a7a637B451df3Cf262",
        "10000000000000"
      ],
      "transaction": {
        "from": "0x45dce8e4f2dc005a5f28206a46cb034697eeda8e",
        "to": "0x43edd7f3831b08fe70b7555ddd373c8bf65a9050",
        "gas": "0x132ba",
        "value": "0x0",
        "input": "0x095ea7b3000000000000000000000000486cb4788f1be7cdef9301a7a637b451df3cf262000000000000000000000000000000000000000000000000000009184e72a000",
        "nonce": "0xb8",
        "chainId": "0x868b"
      },
      "additionalContracts": [],
      "isFixedGasLimit": false
    },
    {
      "hash": "0x00cc4a2a59fbf9cb39ea2764cd6f9956624f16eeedd40cfac2c13988a4d0feb6",
      "transactionType": "CALL",
      "contractName": null,
      "contractAddress": "0x486cb4788f1be7cdef9301a7a637b451df3cf262",
      "function": "sendOFT(address,uint32,bytes32,uint256)",
      "arguments": [
        "0x43eDD7f3831b08FE70B7555ddD373C8bF65a9050",
        "30339",
        "0x00000000000000000000000045dce8e4f2dc005a5f28206a46cb034697eeda8e",
        "10000000000000"
      ],
      "transaction": {
        "from": "0x45dce8e4f2dc005a5f28206a46cb034697eeda8e",
        "to": "0x486cb4788f1be7cdef9301a7a637b451df3cf262",
        "gas": "0xd6709",
        "value": "0x35a74205779a",
        "input": "0x3e832c9000000000000000000000000043edd7f3831b08fe70b7555ddd373c8bf65a9050000000000000000000000000000000000000000000000000000000000000768300000000000000000000000045dce8e4f2dc005a5f28206a46cb034697eeda8e000000000000000000000000000000000000000000000000000009184e72a000",
        "nonce": "0xb9",
        "chainId": "0x868b"
      },
      "additionalContracts": [],
      "isFixedGasLimit": false
    },
    {
      "hash": "0x2974fb14907d633f7aef254fba7c4bf3712a18e5a5194f6ede68efe4d0e27968",
      "transactionType": "CALL",
      "contractName": null,
      "contractAddress": "0x3ec3849c33291a9ef4c5db86de593eb4a37fde45",
      "function": "approve(address,uint256)",
      "arguments": [
        "0x486CB4788F1bE7cdEf9301a7a637B451df3Cf262",
        "10000000000000"
      ],
      "transaction": {
        "from": "0x45dce8e4f2dc005a5f28206a46cb034697eeda8e",
        "to": "0x3ec3849c33291a9ef4c5db86de593eb4a37fde45",
        "gas": "0x132ba",
        "value": "0x0",
        "input": "0x095ea7b3000000000000000000000000486cb4788f1be7cdef9301a7a637b451df3cf262000000000000000000000000000000000000000000000000000009184e72a000",
        "nonce": "0xba",
        "chainId": "0x868b"
      },
      "additionalContracts": [],
      "isFixedGasLimit": false
    },
    {
      "hash": "0x041d845e37515366998d594d8f0a6727be41e93056554065a78b50f181e997c8",
      "transactionType": "CALL",
      "contractName": null,
      "contractAddress": "0x486cb4788f1be7cdef9301a7a637b451df3cf262",
      "function": "sendOFT(address,uint32,bytes32,uint256)",
      "arguments": [
        "0x3Ec3849C33291a9eF4c5dB86De593EB4A37fDe45",
        "30339",
        "0x00000000000000000000000045dce8e4f2dc005a5f28206a46cb034697eeda8e",
        "10000000000000"
      ],
      "transaction": {
        "from": "0x45dce8e4f2dc005a5f28206a46cb034697eeda8e",
        "to": "0x486cb4788f1be7cdef9301a7a637b451df3cf262",
        "gas": "0xd13ca",
        "value": "0x35a74205779a",
        "input": "0x3e832c900000000000000000000000003ec3849c33291a9ef4c5db86de593eb4a37fde45000000000000000000000000000000000000000000000000000000000000768300000000000000000000000045dce8e4f2dc005a5f28206a46cb034697eeda8e000000000000000000000000000000000000000000000000000009184e72a000",
        "nonce": "0xbb",
        "chainId": "0x868b"
      },
      "additionalContracts": [],
      "isFixedGasLimit": false
    },
    {
      "hash": "0x982ae7a376ceb64d6fcd90e58a1b1a256c3a2e69b33c4c358ae44fbfc96fddfd",
      "transactionType": "CALL",
      "contractName": null,
      "contractAddress": "0x64445f0aecc51e94ad52d8ac56b7190e764e561a",
      "function": "approve(address,uint256)",
      "arguments": [
        "0x486CB4788F1bE7cdEf9301a7a637B451df3Cf262",
        "10000000000000"
      ],
      "transaction": {
        "from": "0x45dce8e4f2dc005a5f28206a46cb034697eeda8e",
        "to": "0x64445f0aecc51e94ad52d8ac56b7190e764e561a",
        "gas": "0x12191",
        "value": "0x0",
        "input": "0x095ea7b3000000000000000000000000486cb4788f1be7cdef9301a7a637b451df3cf262000000000000000000000000000000000000000000000000000009184e72a000",
        "nonce": "0xbc",
        "chainId": "0x868b"
      },
      "additionalContracts": [],
      "isFixedGasLimit": false
    },
    {
      "hash": "0xfb69b79ae298062bedbd58100baf1a631e334129b16b2f246108a42af0f5347f",
      "transactionType": "CALL",
      "contractName": null,
      "contractAddress": "0x486cb4788f1be7cdef9301a7a637b451df3cf262",
      "function": "sendOFT(address,uint32,bytes32,uint256)",
      "arguments": [
        "0x64445f0aecC51E94aD52d8AC56b7190e764E561a",
        "30339",
        "0x00000000000000000000000045dce8e4f2dc005a5f28206a46cb034697eeda8e",
        "10000000000000"
      ],
      "transaction": {
        "from": "0x45dce8e4f2dc005a5f28206a46cb034697eeda8e",
        "to": "0x486cb4788f1be7cdef9301a7a637b451df3cf262",
        "gas": "0xd13ac",
        "value": "0x35a74205779a",
        "input": "0x3e832c9000000000000000000000000064445f0aecc51e94ad52d8ac56b7190e764e561a000000000000000000000000000000000000000000000000000000000000768300000000000000000000000045dce8e4f2dc005a5f28206a46cb034697eeda8e000000000000000000000000000000000000000000000000000009184e72a000",
        "nonce": "0xbd",
        "chainId": "0x868b"
      },
      "additionalContracts": [],
      "isFixedGasLimit": false
    },
    {
      "hash": "0x6e7a30224c3397184f5bae179ca3c39cf4dd3b401ebf266ec3f23c4176c7747a",
      "transactionType": "CALL",
      "contractName": null,
      "contractAddress": "0x90581eca9469d8d7f5d3b60f4715027adfcf7927",
      "function": "approve(address,uint256)",
      "arguments": [
        "0x486CB4788F1bE7cdEf9301a7a637B451df3Cf262",
        "10000000000000"
      ],
      "transaction": {
        "from": "0x45dce8e4f2dc005a5f28206a46cb034697eeda8e",
        "to": "0x90581eca9469d8d7f5d3b60f4715027adfcf7927",
        "gas": "0x132ba",
        "value": "0x0",
        "input": "0x095ea7b3000000000000000000000000486cb4788f1be7cdef9301a7a637b451df3cf262000000000000000000000000000000000000000000000000000009184e72a000",
        "nonce": "0xbe",
        "chainId": "0x868b"
      },
      "additionalContracts": [],
      "isFixedGasLimit": false
    },
    {
      "hash": "0x3c02dc452c9df21ba0bb967f3f916761e06c183fbf77458d629eb8c6821d15a6",
      "transactionType": "CALL",
      "contractName": null,
      "contractAddress": "0x486cb4788f1be7cdef9301a7a637b451df3cf262",
      "function": "sendOFT(address,uint32,bytes32,uint256)",
      "arguments": [
        "0x90581eCa9469D8D7F5D3B60f4715027aDFCf7927",
        "30339",
        "0x00000000000000000000000045dce8e4f2dc005a5f28206a46cb034697eeda8e",
        "10000000000000"
      ],
      "transaction": {
        "from": "0x45dce8e4f2dc005a5f28206a46cb034697eeda8e",
        "to": "0x486cb4788f1be7cdef9301a7a637b451df3cf262",
        "gas": "0xd13ca",
        "value": "0x35a74205779a",
        "input": "0x3e832c9000000000000000000000000090581eca9469d8d7f5d3b60f4715027adfcf7927000000000000000000000000000000000000000000000000000000000000768300000000000000000000000045dce8e4f2dc005a5f28206a46cb034697eeda8e000000000000000000000000000000000000000000000000000009184e72a000",
        "nonce": "0xbf",
        "chainId": "0x868b"
      },
      "additionalContracts": [],
      "isFixedGasLimit": false
    }
  ],
  "receipts": [
    {
      "status": "0x1",
      "cumulativeGasUsed": "0x1865d",
      "logs": [
        {
          "address": "0x80eede496655fb9047dd39d9f418d5483ed600df",
          "topics": [
            "0x8c5be1e5ebec7d5bd14f71427d1e84f3dd0314c0f7b2291e5b200ac8c7c3b925",
            "0x00000000000000000000000045dce8e4f2dc005a5f28206a46cb034697eeda8e",
            "0x000000000000000000000000486cb4788f1be7cdef9301a7a637b451df3cf262"
          ],
          "data": "0x000000000000000000000000000000000000000000000000000009184e72a000",
          "blockHash": "0x49bb34400afc4eb33f9d1719958f45d06e0782413e7d778f801edf3ffbe1f418",
          "blockNumber": "0x256bd1a",
          "blockTimestamp": "0x6a03f9d3",
          "transactionHash": "0x03132e4d075fb1acbceebd880827aa5e69a6ac15018b13b02fa9564b9cd1779a",
          "transactionIndex": "0x1",
          "logIndex": "0x0",
          "removed": false
        }
      ],
      "logsBloom": "0x00000000000000000000000200000000000000000000000000000000000000000000000000000000000000000800000000000000000000000000000200200000000000000000000000000000000000000000000000000000000000000000000000000000000000000000000000000000000000000000000000000000010000000000000000000000000000000000000000000000000000040000000000000000020000000004000000000000000800000000000000000000000000000000000000000000000000000000000000000000001000000000000000000000000000000010000000000000000000000000800000000000000000000000000000000000",
      "type": "0x2",
      "transactionHash": "0x03132e4d075fb1acbceebd880827aa5e69a6ac15018b13b02fa9564b9cd1779a",
      "transactionIndex": "0x1",
      "blockHash": "0x49bb34400afc4eb33f9d1719958f45d06e0782413e7d778f801edf3ffbe1f418",
      "blockNumber": "0x256bd1a",
      "gasUsed": "0xd1bb",
      "effectiveGasPrice": "0x110",
      "blobGasUsed": "0x9c40",
      "from": "0x45dce8e4f2dc005a5f28206a46cb034697eeda8e",
      "to": "0x80eede496655fb9047dd39d9f418d5483ed600df",
      "contractAddress": null,
      "daFootprintGasScalar": "0x190",
      "l1BaseFeeScalar": "0x186a0",
      "l1BlobBaseFee": "0x3d318e",
      "l1BlobBaseFeeScalar": "0xf79c5",
      "l1Fee": "0x2ae198c8b",
      "l1GasPrice": "0x422f859",
      "l1GasUsed": "0x640"
    },
    {
      "status": "0x1",
      "cumulativeGasUsed": "0xaedf4",
      "logs": [
        {
          "address": "0x80eede496655fb9047dd39d9f418d5483ed600df",
          "topics": [
            "0x8c5be1e5ebec7d5bd14f71427d1e84f3dd0314c0f7b2291e5b200ac8c7c3b925",
            "0x00000000000000000000000045dce8e4f2dc005a5f28206a46cb034697eeda8e",
            "0x000000000000000000000000486cb4788f1be7cdef9301a7a637b451df3cf262"
          ],
          "data": "0x0000000000000000000000000000000000000000000000000000000000000000",
          "blockHash": "0x49bb34400afc4eb33f9d1719958f45d06e0782413e7d778f801edf3ffbe1f418",
          "blockNumber": "0x256bd1a",
          "blockTimestamp": "0x6a03f9d3",
          "transactionHash": "0x438c064212a6a4b7e793c1dc8245866a42fb1408cdaa5835fbef301b0900f2d3",
          "transactionIndex": "0x2",
          "logIndex": "0x1",
          "removed": false
        },
        {
          "address": "0x80eede496655fb9047dd39d9f418d5483ed600df",
          "topics": [
            "0xddf252ad1be2c89b69c2b068fc378daa952ba7f163c4a11628f55a4df523b3ef",
            "0x00000000000000000000000045dce8e4f2dc005a5f28206a46cb034697eeda8e",
            "0x000000000000000000000000486cb4788f1be7cdef9301a7a637b451df3cf262"
          ],
          "data": "0x000000000000000000000000000000000000000000000000000009184e72a000",
          "blockHash": "0x49bb34400afc4eb33f9d1719958f45d06e0782413e7d778f801edf3ffbe1f418",
          "blockNumber": "0x256bd1a",
          "blockTimestamp": "0x6a03f9d3",
          "transactionHash": "0x438c064212a6a4b7e793c1dc8245866a42fb1408cdaa5835fbef301b0900f2d3",
          "transactionIndex": "0x2",
          "logIndex": "0x2",
          "removed": false
        },
        {
          "address": "0x80eede496655fb9047dd39d9f418d5483ed600df",
          "topics": [
            "0x8c5be1e5ebec7d5bd14f71427d1e84f3dd0314c0f7b2291e5b200ac8c7c3b925",
            "0x000000000000000000000000486cb4788f1be7cdef9301a7a637b451df3cf262",
            "0x00000000000000000000000080eede496655fb9047dd39d9f418d5483ed600df"
          ],
          "data": "0x000000000000000000000000000000000000000000000000000009184e72a000",
          "blockHash": "0x49bb34400afc4eb33f9d1719958f45d06e0782413e7d778f801edf3ffbe1f418",
          "blockNumber": "0x256bd1a",
          "blockTimestamp": "0x6a03f9d3",
          "transactionHash": "0x438c064212a6a4b7e793c1dc8245866a42fb1408cdaa5835fbef301b0900f2d3",
          "transactionIndex": "0x2",
          "logIndex": "0x3",
          "removed": false
        },
        {
          "address": "0x80eede496655fb9047dd39d9f418d5483ed600df",
          "topics": [
            "0xddf252ad1be2c89b69c2b068fc378daa952ba7f163c4a11628f55a4df523b3ef",
            "0x000000000000000000000000486cb4788f1be7cdef9301a7a637b451df3cf262",
            "0x0000000000000000000000000000000000000000000000000000000000000000"
          ],
          "data": "0x000000000000000000000000000000000000000000000000000009184e72a000",
          "blockHash": "0x49bb34400afc4eb33f9d1719958f45d06e0782413e7d778f801edf3ffbe1f418",
          "blockNumber": "0x256bd1a",
          "blockTimestamp": "0x6a03f9d3",
          "transactionHash": "0x438c064212a6a4b7e793c1dc8245866a42fb1408cdaa5835fbef301b0900f2d3",
          "transactionIndex": "0x2",
          "logIndex": "0x4",
          "removed": false
        },
        {
          "address": "0x2367325334447c5e1e0f1b3a6fb947b262f58312",
          "topics": [
            "0x61ed099e74a97a1d7f8bb0952a88ca8b7b8ebd00c126ea04671f92a81213318a"
          ],
          "data": "0x0000000000000000000000004208d6e27538189bb48e603d6123a94b8abe0a0b0000000000000000000000000000000000000000000000000000082b3f683b20",
          "blockHash": "0x49bb34400afc4eb33f9d1719958f45d06e0782413e7d778f801edf3ffbe1f418",
          "blockNumber": "0x256bd1a",
          "blockTimestamp": "0x6a03f9d3",
          "transactionHash": "0x438c064212a6a4b7e793c1dc8245866a42fb1408cdaa5835fbef301b0900f2d3",
          "transactionIndex": "0x2",
          "logIndex": "0x5",
          "removed": false
        },
        {
          "address": "0x2367325334447c5e1e0f1b3a6fb947b262f58312",
          "topics": [
            "0x07ea52d82345d6e838192107d8fd7123d9c2ec8e916cd0aad13fd2b60db24644"
          ],
          "data": "0x0000000000000000000000000000000000000000000000000000000000000060000000000000000000000000000000000000000000000000000000000000012000000000000000000000000000000000000000000000000000000000000001400000000000000000000000000000000000000000000000000000000000000005000000000000000000000000315b0e76a510607bb0f706b17716f426d5b385b80000000000000000000000005d8aed4182a8ecc47386e88aa8753dde7423996e000000000000000000000000acde1f22eeab249d3ca6ba8805c8fee9f52a16e7000000000000000000000000cd37ca043f8479064e10635020c65ffc005d36f6000000000000000000000000ce8358bc28dd8296ce8caf1cd2b44787abd6588700000000000000000000000000000000000000000000000000000000000000000000000000000000000000000000000000000000000000000000000000000005000000000000000000000000000000000000000000000000000001810b2b4527000000000000000000000000000000000000000000000000000001688a3a22190000000000000000000000000000000000000000000000000000012b47df4a7600000000000000000000000000000000000000000000000000000112c6ee27680000000000000000000000000000000000000000000000000000012b47df4a76",
          "blockHash": "0x49bb34400afc4eb33f9d1719958f45d06e0782413e7d778f801edf3ffbe1f418",
          "blockNumber": "0x256bd1a",
          "blockTimestamp": "0x6a03f9d3",
          "transactionHash": "0x438c064212a6a4b7e793c1dc8245866a42fb1408cdaa5835fbef301b0900f2d3",
          "transactionIndex": "0x2",
          "logIndex": "0x6",
          "removed": false
        },
        {
          "address": "0x1a44076050125825900e736c501f859c50fe728c",
          "topics": [
            "0x1ab700d4ced0c005b164c0f789fd09fcbb0156d4c2041b8a3bfbcd961cd1567f"
          ],
          "data": "0x000000000000000000000000000000000000000000000000000000000000006000000000000000000000000000000000000000000000000000000000000001800000000000000000000000002367325334447c5e1e0f1b3a6fb947b262f5831200000000000000000000000000000000000000000000000000000000000000f90100000000000000090000763400000000000000000000000080eede496655fb9047dd39d9f418d5483ed600df0000762f00000000000000000000000096a394058e2b84a89bac9667b19661ed003cf5d4d18af6b55bed91551fa562cfa33b6a3eb179fc5bf8c1974aa320c1d30ed3923b0000000000000000000000002a2019b30c157db6c1c01306b8025167dbe1803b000000000000000a000000000000000000000000486cb4788f1be7cdef9301a7a637b451df3cf26200000000000000000000000045dce8e4f2dc005a5f28206a46cb034697eeda8e000000000000000000000000000000000000000000000000000000000000768300000000000000000000000000000000000000000000000000000000000000000000000000002c0003010011010000000000000000000000000003d090010013030000000000000000000000000000000f42400000000000000000000000000000000000000000",
          "blockHash": "0x49bb34400afc4eb33f9d1719958f45d06e0782413e7d778f801edf3ffbe1f418",
          "blockNumber": "0x256bd1a",
          "blockTimestamp": "0x6a03f9d3",
          "transactionHash": "0x438c064212a6a4b7e793c1dc8245866a42fb1408cdaa5835fbef301b0900f2d3",
          "transactionIndex": "0x2",
          "logIndex": "0x7",
          "removed": false
        },
        {
          "address": "0x80eede496655fb9047dd39d9f418d5483ed600df",
          "topics": [
            "0x85496b760a4b7f8d66384b9df21b381f5d1b1e79f229a47aaf4c232edc2fe59a",
            "0xd18af6b55bed91551fa562cfa33b6a3eb179fc5bf8c1974aa320c1d30ed3923b",
            "0x000000000000000000000000486cb4788f1be7cdef9301a7a637b451df3cf262"
          ],
          "data": "0x000000000000000000000000000000000000000000000000000000000000762f000000000000000000000000000000000000000000000000000009184e72a000000000000000000000000000000000000000000000000000000009184e72a000",
          "blockHash": "0x49bb34400afc4eb33f9d1719958f45d06e0782413e7d778f801edf3ffbe1f418",
          "blockNumber": "0x256bd1a",
          "blockTimestamp": "0x6a03f9d3",
          "transactionHash": "0x438c064212a6a4b7e793c1dc8245866a42fb1408cdaa5835fbef301b0900f2d3",
          "transactionIndex": "0x2",
          "logIndex": "0x8",
          "removed": false
        },
        {
          "address": "0x486cb4788f1be7cdef9301a7a637b451df3cf262",
          "topics": [
            "0xbc9ee36b6ca0bdd5b3840e6d329dd19a2490d880c7ce24d9818aa593adfb35be",
            "0x00000000000000000000000045dce8e4f2dc005a5f28206a46cb034697eeda8e",
            "0x0000000000000000000000000000000000000000000000000000000000007683",
            "0x00000000000000000000000045dce8e4f2dc005a5f28206a46cb034697eeda8e"
          ],
          "data": "0x00000000000000000000000080eede496655fb9047dd39d9f418d5483ed600df000000000000000000000000000000000000000000000000000009184e72a000",
          "blockHash": "0x49bb34400afc4eb33f9d1719958f45d06e0782413e7d778f801edf3ffbe1f418",
          "blockNumber": "0x256bd1a",
          "blockTimestamp": "0x6a03f9d3",
          "transactionHash": "0x438c064212a6a4b7e793c1dc8245866a42fb1408cdaa5835fbef301b0900f2d3",
          "transactionIndex": "0x2",
          "logIndex": "0x9",
          "removed": false
        }
      ],
      "logsBloom": "0x00000000000000000000000200000000000200000000000000000000001000000000080000000400000000000800000000000000000000000000000200200000000002000000000000000008000000000000000004000000000000000000000000000000020000008000000000000810000000000010100000010010010000000000000000000000000000080400000000000000200000040000000000002000020000188004000020100000000800000000000000400000000440000000000000000082000000000000004080000000001000010000000000000000000020000010040020000000000000000000802000000020018000000000000000000000",
      "type": "0x2",
      "transactionHash": "0x438c064212a6a4b7e793c1dc8245866a42fb1408cdaa5835fbef301b0900f2d3",
      "transactionIndex": "0x2",
      "blockHash": "0x49bb34400afc4eb33f9d1719958f45d06e0782413e7d778f801edf3ffbe1f418",
      "blockNumber": "0x256bd1a",
      "gasUsed": "0x96797",
      "effectiveGasPrice": "0x110",
      "blobGasUsed": "0xb860",
      "from": "0x45dce8e4f2dc005a5f28206a46cb034697eeda8e",
      "to": "0x486cb4788f1be7cdef9301a7a637b451df3cf262",
      "contractAddress": null,
      "daFootprintGasScalar": "0x190",
      "l1BaseFeeScalar": "0x186a0",
      "l1BlobBaseFee": "0x3d318e",
      "l1BlobBaseFeeScalar": "0xf79c5",
      "l1Fee": "0x32f7d9cf3",
      "l1GasPrice": "0x422f859",
      "l1GasUsed": "0x76d"
    },
    {
      "status": "0x1",
      "cumulativeGasUsed": "0xbbf99",
      "logs": [
        {
          "address": "0x5bff88ca1442c2496f7e475e9e7786383bc070c0",
          "topics": [
            "0x8c5be1e5ebec7d5bd14f71427d1e84f3dd0314c0f7b2291e5b200ac8c7c3b925",
            "0x00000000000000000000000045dce8e4f2dc005a5f28206a46cb034697eeda8e",
            "0x000000000000000000000000486cb4788f1be7cdef9301a7a637b451df3cf262"
          ],
          "data": "0x000000000000000000000000000000000000000000000000000009184e72a000",
          "blockHash": "0x49bb34400afc4eb33f9d1719958f45d06e0782413e7d778f801edf3ffbe1f418",
          "blockNumber": "0x256bd1a",
          "blockTimestamp": "0x6a03f9d3",
          "transactionHash": "0x710f528a077a30d307865dfc2138b1b7d9d03e1634ebd98c0cb0fcc7d7b7773b",
          "transactionIndex": "0x3",
          "logIndex": "0xa",
          "removed": false
        }
      ],
      "logsBloom": "0x00000000000000000000000200000000000000000000000000000000000000000000000000000000000000000000000000000000000000000000000000200000000000000000000000000000000000000000000000000000000000000000000000000000000000000000000000000000000000000000000000000000000000000000000000000000000000000000000000000000000000040000000000000000020000000004000000000000000800000000000000000000000000000010000000000000000000000000000000000000001000800000000000000000000000000010000000000000000000000000800000000000000000000000000000000800",
      "type": "0x2",
      "transactionHash": "0x710f528a077a30d307865dfc2138b1b7d9d03e1634ebd98c0cb0fcc7d7b7773b",
      "transactionIndex": "0x3",
      "blockHash": "0x49bb34400afc4eb33f9d1719958f45d06e0782413e7d778f801edf3ffbe1f418",
      "blockNumber": "0x256bd1a",
      "gasUsed": "0xd1a5",
      "effectiveGasPrice": "0x110",
      "blobGasUsed": "0x9c40",
      "from": "0x45dce8e4f2dc005a5f28206a46cb034697eeda8e",
      "to": "0x5bff88ca1442c2496f7e475e9e7786383bc070c0",
      "contractAddress": null,
      "daFootprintGasScalar": "0x190",
      "l1BaseFeeScalar": "0x186a0",
      "l1BlobBaseFee": "0x3d318e",
      "l1BlobBaseFeeScalar": "0xf79c5",
      "l1Fee": "0x2ae198c8b",
      "l1GasPrice": "0x422f859",
      "l1GasUsed": "0x640"
    },
    {
      "status": "0x1",
      "cumulativeGasUsed": "0x153741",
      "logs": [
        {
          "address": "0x5bff88ca1442c2496f7e475e9e7786383bc070c0",
          "topics": [
            "0x8c5be1e5ebec7d5bd14f71427d1e84f3dd0314c0f7b2291e5b200ac8c7c3b925",
            "0x00000000000000000000000045dce8e4f2dc005a5f28206a46cb034697eeda8e",
            "0x000000000000000000000000486cb4788f1be7cdef9301a7a637b451df3cf262"
          ],
          "data": "0x0000000000000000000000000000000000000000000000000000000000000000",
          "blockHash": "0x49bb34400afc4eb33f9d1719958f45d06e0782413e7d778f801edf3ffbe1f418",
          "blockNumber": "0x256bd1a",
          "blockTimestamp": "0x6a03f9d3",
          "transactionHash": "0x9eb44cecefbf2ffa2cc7990888e151aff88694bbe2f02652a481265bba7643a4",
          "transactionIndex": "0x4",
          "logIndex": "0xb",
          "removed": false
        },
        {
          "address": "0x5bff88ca1442c2496f7e475e9e7786383bc070c0",
          "topics": [
            "0xddf252ad1be2c89b69c2b068fc378daa952ba7f163c4a11628f55a4df523b3ef",
            "0x00000000000000000000000045dce8e4f2dc005a5f28206a46cb034697eeda8e",
            "0x000000000000000000000000486cb4788f1be7cdef9301a7a637b451df3cf262"
          ],
          "data": "0x000000000000000000000000000000000000000000000000000009184e72a000",
          "blockHash": "0x49bb34400afc4eb33f9d1719958f45d06e0782413e7d778f801edf3ffbe1f418",
          "blockNumber": "0x256bd1a",
          "blockTimestamp": "0x6a03f9d3",
          "transactionHash": "0x9eb44cecefbf2ffa2cc7990888e151aff88694bbe2f02652a481265bba7643a4",
          "transactionIndex": "0x4",
          "logIndex": "0xc",
          "removed": false
        },
        {
          "address": "0x5bff88ca1442c2496f7e475e9e7786383bc070c0",
          "topics": [
            "0x8c5be1e5ebec7d5bd14f71427d1e84f3dd0314c0f7b2291e5b200ac8c7c3b925",
            "0x000000000000000000000000486cb4788f1be7cdef9301a7a637b451df3cf262",
            "0x0000000000000000000000005bff88ca1442c2496f7e475e9e7786383bc070c0"
          ],
          "data": "0x000000000000000000000000000000000000000000000000000009184e72a000",
          "blockHash": "0x49bb34400afc4eb33f9d1719958f45d06e0782413e7d778f801edf3ffbe1f418",
          "blockNumber": "0x256bd1a",
          "blockTimestamp": "0x6a03f9d3",
          "transactionHash": "0x9eb44cecefbf2ffa2cc7990888e151aff88694bbe2f02652a481265bba7643a4",
          "transactionIndex": "0x4",
          "logIndex": "0xd",
          "removed": false
        },
        {
          "address": "0x5bff88ca1442c2496f7e475e9e7786383bc070c0",
          "topics": [
            "0xddf252ad1be2c89b69c2b068fc378daa952ba7f163c4a11628f55a4df523b3ef",
            "0x000000000000000000000000486cb4788f1be7cdef9301a7a637b451df3cf262",
            "0x0000000000000000000000000000000000000000000000000000000000000000"
          ],
          "data": "0x000000000000000000000000000000000000000000000000000009184e72a000",
          "blockHash": "0x49bb34400afc4eb33f9d1719958f45d06e0782413e7d778f801edf3ffbe1f418",
          "blockNumber": "0x256bd1a",
          "blockTimestamp": "0x6a03f9d3",
          "transactionHash": "0x9eb44cecefbf2ffa2cc7990888e151aff88694bbe2f02652a481265bba7643a4",
          "transactionIndex": "0x4",
          "logIndex": "0xe",
          "removed": false
        },
        {
          "address": "0x2367325334447c5e1e0f1b3a6fb947b262f58312",
          "topics": [
            "0x61ed099e74a97a1d7f8bb0952a88ca8b7b8ebd00c126ea04671f92a81213318a"
          ],
          "data": "0x0000000000000000000000004208d6e27538189bb48e603d6123a94b8abe0a0b0000000000000000000000000000000000000000000000000000082b3f683b20",
          "blockHash": "0x49bb34400afc4eb33f9d1719958f45d06e0782413e7d778f801edf3ffbe1f418",
          "blockNumber": "0x256bd1a",
          "blockTimestamp": "0x6a03f9d3",
          "transactionHash": "0x9eb44cecefbf2ffa2cc7990888e151aff88694bbe2f02652a481265bba7643a4",
          "transactionIndex": "0x4",
          "logIndex": "0xf",
          "removed": false
        },
        {
          "address": "0x2367325334447c5e1e0f1b3a6fb947b262f58312",
          "topics": [
            "0x07ea52d82345d6e838192107d8fd7123d9c2ec8e916cd0aad13fd2b60db24644"
          ],
          "data": "0x0000000000000000000000000000000000000000000000000000000000000060000000000000000000000000000000000000000000000000000000000000012000000000000000000000000000000000000000000000000000000000000001400000000000000000000000000000000000000000000000000000000000000005000000000000000000000000315b0e76a510607bb0f706b17716f426d5b385b80000000000000000000000005d8aed4182a8ecc47386e88aa8753dde7423996e000000000000000000000000acde1f22eeab249d3ca6ba8805c8fee9f52a16e7000000000000000000000000cd37ca043f8479064e10635020c65ffc005d36f6000000000000000000000000ce8358bc28dd8296ce8caf1cd2b44787abd6588700000000000000000000000000000000000000000000000000000000000000000000000000000000000000000000000000000000000000000000000000000005000000000000000000000000000000000000000000000000000001810b2b4527000000000000000000000000000000000000000000000000000001688a3a22190000000000000000000000000000000000000000000000000000012b47df4a7600000000000000000000000000000000000000000000000000000112c6ee27680000000000000000000000000000000000000000000000000000012b47df4a76",
          "blockHash": "0x49bb34400afc4eb33f9d1719958f45d06e0782413e7d778f801edf3ffbe1f418",
          "blockNumber": "0x256bd1a",
          "blockTimestamp": "0x6a03f9d3",
          "transactionHash": "0x9eb44cecefbf2ffa2cc7990888e151aff88694bbe2f02652a481265bba7643a4",
          "transactionIndex": "0x4",
          "logIndex": "0x10",
          "removed": false
        },
        {
          "address": "0x1a44076050125825900e736c501f859c50fe728c",
          "topics": [
            "0x1ab700d4ced0c005b164c0f789fd09fcbb0156d4c2041b8a3bfbcd961cd1567f"
          ],
          "data": "0x000000000000000000000000000000000000000000000000000000000000006000000000000000000000000000000000000000000000000000000000000001800000000000000000000000002367325334447c5e1e0f1b3a6fb947b262f5831200000000000000000000000000000000000000000000000000000000000000f9010000000000000003000076340000000000000000000000005bff88ca1442c2496f7e475e9e7786383bc070c00000762f00000000000000000000000088aa7854d3b2daa5e37e7ce73a1f39669623a3615f55810f30e88cd555f194b5b6e88d9e1d2b3d0f9e638d1f4696e83928e25b8e0000000000000000000000002a2019b30c157db6c1c01306b8025167dbe1803b000000000000000a000000000000000000000000486cb4788f1be7cdef9301a7a637b451df3cf26200000000000000000000000045dce8e4f2dc005a5f28206a46cb034697eeda8e000000000000000000000000000000000000000000000000000000000000768300000000000000000000000000000000000000000000000000000000000000000000000000002c0003010011010000000000000000000000000003d090010013030000000000000000000000000000000f42400000000000000000000000000000000000000000",
          "blockHash": "0x49bb34400afc4eb33f9d1719958f45d06e0782413e7d778f801edf3ffbe1f418",
          "blockNumber": "0x256bd1a",
          "blockTimestamp": "0x6a03f9d3",
          "transactionHash": "0x9eb44cecefbf2ffa2cc7990888e151aff88694bbe2f02652a481265bba7643a4",
          "transactionIndex": "0x4",
          "logIndex": "0x11",
          "removed": false
        },
        {
          "address": "0x5bff88ca1442c2496f7e475e9e7786383bc070c0",
          "topics": [
            "0x85496b760a4b7f8d66384b9df21b381f5d1b1e79f229a47aaf4c232edc2fe59a",
            "0x5f55810f30e88cd555f194b5b6e88d9e1d2b3d0f9e638d1f4696e83928e25b8e",
            "0x000000000000000000000000486cb4788f1be7cdef9301a7a637b451df3cf262"
          ],
          "data": "0x000000000000000000000000000000000000000000000000000000000000762f000000000000000000000000000000000000000000000000000009184e72a000000000000000000000000000000000000000000000000000000009184e72a000",
          "blockHash": "0x49bb34400afc4eb33f9d1719958f45d06e0782413e7d778f801edf3ffbe1f418",
          "blockNumber": "0x256bd1a",
          "blockTimestamp": "0x6a03f9d3",
          "transactionHash": "0x9eb44cecefbf2ffa2cc7990888e151aff88694bbe2f02652a481265bba7643a4",
          "transactionIndex": "0x4",
          "logIndex": "0x12",
          "removed": false
        },
        {
          "address": "0x486cb4788f1be7cdef9301a7a637b451df3cf262",
          "topics": [
            "0xbc9ee36b6ca0bdd5b3840e6d329dd19a2490d880c7ce24d9818aa593adfb35be",
            "0x00000000000000000000000045dce8e4f2dc005a5f28206a46cb034697eeda8e",
            "0x0000000000000000000000000000000000000000000000000000000000007683",
            "0x00000000000000000000000045dce8e4f2dc005a5f28206a46cb034697eeda8e"
          ],
          "data": "0x0000000000000000000000005bff88ca1442c2496f7e475e9e7786383bc070c0000000000000000000000000000000000000000000000000000009184e72a000",
          "blockHash": "0x49bb34400afc4eb33f9d1719958f45d06e0782413e7d778f801edf3ffbe1f418",
          "blockNumber": "0x256bd1a",
          "blockTimestamp": "0x6a03f9d3",
          "transactionHash": "0x9eb44cecefbf2ffa2cc7990888e151aff88694bbe2f02652a481265bba7643a4",
          "transactionIndex": "0x4",
          "logIndex": "0x13",
          "removed": false
        }
      ],
      "logsBloom": "0x00000000000000000000000200000000000200000000000000000000001000000001000000000000000000000000000000000000000000000000000000200000000002000000000000000008000000000004000000000000000000000000000000000000020000008000000000000810000000000010104000010010000000000000001000000000000000080000000000000000200000040000000080002000020000188004000020100000000800000000000000400000000440000010000000000082000000000000004080000000001000800000000000000000000020000010040000000000000000040000802000000020018000000000000000000800",
      "type": "0x2",
      "transactionHash": "0x9eb44cecefbf2ffa2cc7990888e151aff88694bbe2f02652a481265bba7643a4",
      "transactionIndex": "0x4",
      "blockHash": "0x49bb34400afc4eb33f9d1719958f45d06e0782413e7d778f801edf3ffbe1f418",
      "blockNumber": "0x256bd1a",
      "gasUsed": "0x977a8",
      "effectiveGasPrice": "0x110",
      "blobGasUsed": "0xb860",
      "from": "0x45dce8e4f2dc005a5f28206a46cb034697eeda8e",
      "to": "0x486cb4788f1be7cdef9301a7a637b451df3cf262",
      "contractAddress": null,
      "daFootprintGasScalar": "0x190",
      "l1BaseFeeScalar": "0x186a0",
      "l1BlobBaseFee": "0x3d318e",
      "l1BlobBaseFeeScalar": "0xf79c5",
      "l1Fee": "0x32f7d9cf3",
      "l1GasPrice": "0x422f859",
      "l1GasUsed": "0x76d"
    },
    {
      "status": "0x1",
      "cumulativeGasUsed": "0x1608fc",
      "logs": [
        {
          "address": "0x43edd7f3831b08fe70b7555ddd373c8bf65a9050",
          "topics": [
            "0x8c5be1e5ebec7d5bd14f71427d1e84f3dd0314c0f7b2291e5b200ac8c7c3b925",
            "0x00000000000000000000000045dce8e4f2dc005a5f28206a46cb034697eeda8e",
            "0x000000000000000000000000486cb4788f1be7cdef9301a7a637b451df3cf262"
          ],
          "data": "0x000000000000000000000000000000000000000000000000000009184e72a000",
          "blockHash": "0x49bb34400afc4eb33f9d1719958f45d06e0782413e7d778f801edf3ffbe1f418",
          "blockNumber": "0x256bd1a",
          "blockTimestamp": "0x6a03f9d3",
          "transactionHash": "0x00cc4a2a59fbf9cb39ea2764cd6f9956624f16eeedd40cfac2c13988a4d0feb6",
          "transactionIndex": "0x5",
          "logIndex": "0x14",
          "removed": false
        }
      ],
      "logsBloom": "0x00000000000000000000000200000000000000000000000000000000000000000000000000000000000000000000000000000000000000000000000000200000000000000000000000000000000000000000000000000000000000000000000000000000000000000000000000000000000000000000000000000000000000000000000000000000000000000000000000000000000000040000000000000000020000000004000002000000000800000000000000000000000000000000000000000000000000000000000000000000001000000000000000000000000000000010000000000000000000040000800000000000000000000000000000080000",
      "type": "0x2",
      "transactionHash": "0x00cc4a2a59fbf9cb39ea2764cd6f9956624f16eeedd40cfac2c13988a4d0feb6",
      "transactionIndex": "0x5",
      "blockHash": "0x49bb34400afc4eb33f9d1719958f45d06e0782413e7d778f801edf3ffbe1f418",
      "blockNumber": "0x256bd1a",
      "gasUsed": "0xd1bb",
      "effectiveGasPrice": "0x110",
      "blobGasUsed": "0x9c40",
      "from": "0x45dce8e4f2dc005a5f28206a46cb034697eeda8e",
      "to": "0x43edd7f3831b08fe70b7555ddd373c8bf65a9050",
      "contractAddress": null,
      "daFootprintGasScalar": "0x190",
      "l1BaseFeeScalar": "0x186a0",
      "l1BlobBaseFee": "0x3d318e",
      "l1BlobBaseFeeScalar": "0xf79c5",
      "l1Fee": "0x2ae198c8b",
      "l1GasPrice": "0x422f859",
      "l1GasUsed": "0x640"
    },
    {
      "status": "0x1",
      "cumulativeGasUsed": "0x1f32fe",
      "logs": [
        {
          "address": "0x43edd7f3831b08fe70b7555ddd373c8bf65a9050",
          "topics": [
            "0x8c5be1e5ebec7d5bd14f71427d1e84f3dd0314c0f7b2291e5b200ac8c7c3b925",
            "0x00000000000000000000000045dce8e4f2dc005a5f28206a46cb034697eeda8e",
            "0x000000000000000000000000486cb4788f1be7cdef9301a7a637b451df3cf262"
          ],
          "data": "0x0000000000000000000000000000000000000000000000000000000000000000",
          "blockHash": "0x49bb34400afc4eb33f9d1719958f45d06e0782413e7d778f801edf3ffbe1f418",
          "blockNumber": "0x256bd1a",
          "blockTimestamp": "0x6a03f9d3",
          "transactionHash": "0x982ae7a376ceb64d6fcd90e58a1b1a256c3a2e69b33c4c358ae44fbfc96fddfd",
          "transactionIndex": "0x6",
          "logIndex": "0x15",
          "removed": false
        },
        {
          "address": "0x43edd7f3831b08fe70b7555ddd373c8bf65a9050",
          "topics": [
            "0xddf252ad1be2c89b69c2b068fc378daa952ba7f163c4a11628f55a4df523b3ef",
            "0x00000000000000000000000045dce8e4f2dc005a5f28206a46cb034697eeda8e",
            "0x000000000000000000000000486cb4788f1be7cdef9301a7a637b451df3cf262"
          ],
          "data": "0x000000000000000000000000000000000000000000000000000009184e72a000",
          "blockHash": "0x49bb34400afc4eb33f9d1719958f45d06e0782413e7d778f801edf3ffbe1f418",
          "blockNumber": "0x256bd1a",
          "blockTimestamp": "0x6a03f9d3",
          "transactionHash": "0x982ae7a376ceb64d6fcd90e58a1b1a256c3a2e69b33c4c358ae44fbfc96fddfd",
          "transactionIndex": "0x6",
          "logIndex": "0x16",
          "removed": false
        },
        {
          "address": "0x43edd7f3831b08fe70b7555ddd373c8bf65a9050",
          "topics": [
            "0x8c5be1e5ebec7d5bd14f71427d1e84f3dd0314c0f7b2291e5b200ac8c7c3b925",
            "0x000000000000000000000000486cb4788f1be7cdef9301a7a637b451df3cf262",
            "0x00000000000000000000000043edd7f3831b08fe70b7555ddd373c8bf65a9050"
          ],
          "data": "0x000000000000000000000000000000000000000000000000000009184e72a000",
          "blockHash": "0x49bb34400afc4eb33f9d1719958f45d06e0782413e7d778f801edf3ffbe1f418",
          "blockNumber": "0x256bd1a",
          "blockTimestamp": "0x6a03f9d3",
          "transactionHash": "0x982ae7a376ceb64d6fcd90e58a1b1a256c3a2e69b33c4c358ae44fbfc96fddfd",
          "transactionIndex": "0x6",
          "logIndex": "0x17",
          "removed": false
        },
        {
          "address": "0x43edd7f3831b08fe70b7555ddd373c8bf65a9050",
          "topics": [
            "0xddf252ad1be2c89b69c2b068fc378daa952ba7f163c4a11628f55a4df523b3ef",
            "0x000000000000000000000000486cb4788f1be7cdef9301a7a637b451df3cf262",
            "0x0000000000000000000000000000000000000000000000000000000000000000"
          ],
          "data": "0x000000000000000000000000000000000000000000000000000009184e72a000",
          "blockHash": "0x49bb34400afc4eb33f9d1719958f45d06e0782413e7d778f801edf3ffbe1f418",
          "blockNumber": "0x256bd1a",
          "blockTimestamp": "0x6a03f9d3",
          "transactionHash": "0x982ae7a376ceb64d6fcd90e58a1b1a256c3a2e69b33c4c358ae44fbfc96fddfd",
          "transactionIndex": "0x6",
          "logIndex": "0x18",
          "removed": false
        },
        {
          "address": "0x2367325334447c5e1e0f1b3a6fb947b262f58312",
          "topics": [
            "0x61ed099e74a97a1d7f8bb0952a88ca8b7b8ebd00c126ea04671f92a81213318a"
          ],
          "data": "0x0000000000000000000000004208d6e27538189bb48e603d6123a94b8abe0a0b0000000000000000000000000000000000000000000000000000082b3f683b20",
          "blockHash": "0x49bb34400afc4eb33f9d1719958f45d06e0782413e7d778f801edf3ffbe1f418",
          "blockNumber": "0x256bd1a",
          "blockTimestamp": "0x6a03f9d3",
          "transactionHash": "0x982ae7a376ceb64d6fcd90e58a1b1a256c3a2e69b33c4c358ae44fbfc96fddfd",
          "transactionIndex": "0x6",
          "logIndex": "0x19",
          "removed": false
        },
        {
          "address": "0x2367325334447c5e1e0f1b3a6fb947b262f58312",
          "topics": [
            "0x07ea52d82345d6e838192107d8fd7123d9c2ec8e916cd0aad13fd2b60db24644"
          ],
          "data": "0x0000000000000000000000000000000000000000000000000000000000000060000000000000000000000000000000000000000000000000000000000000012000000000000000000000000000000000000000000000000000000000000001400000000000000000000000000000000000000000000000000000000000000005000000000000000000000000315b0e76a510607bb0f706b17716f426d5b385b80000000000000000000000005d8aed4182a8ecc47386e88aa8753dde7423996e000000000000000000000000acde1f22eeab249d3ca6ba8805c8fee9f52a16e7000000000000000000000000cd37ca043f8479064e10635020c65ffc005d36f6000000000000000000000000ce8358bc28dd8296ce8caf1cd2b44787abd6588700000000000000000000000000000000000000000000000000000000000000000000000000000000000000000000000000000000000000000000000000000005000000000000000000000000000000000000000000000000000001810b2b4527000000000000000000000000000000000000000000000000000001688a3a22190000000000000000000000000000000000000000000000000000012b47df4a7600000000000000000000000000000000000000000000000000000112c6ee27680000000000000000000000000000000000000000000000000000012b47df4a76",
          "blockHash": "0x49bb34400afc4eb33f9d1719958f45d06e0782413e7d778f801edf3ffbe1f418",
          "blockNumber": "0x256bd1a",
          "blockTimestamp": "0x6a03f9d3",
          "transactionHash": "0x982ae7a376ceb64d6fcd90e58a1b1a256c3a2e69b33c4c358ae44fbfc96fddfd",
          "transactionIndex": "0x6",
          "logIndex": "0x1a",
          "removed": false
        },
        {
          "address": "0x1a44076050125825900e736c501f859c50fe728c",
          "topics": [
            "0x1ab700d4ced0c005b164c0f789fd09fcbb0156d4c2041b8a3bfbcd961cd1567f"
          ],
          "data": "0x000000000000000000000000000000000000000000000000000000000000006000000000000000000000000000000000000000000000000000000000000001800000000000000000000000002367325334447c5e1e0f1b3a6fb947b262f5831200000000000000000000000000000000000000000000000000000000000000f90100000000000000080000763400000000000000000000000043edd7f3831b08fe70b7555ddd373c8bf65a90500000762f0000000000000000000000009abfe1f8a999b0011ecd6116649aee8d575f56041904efcb7f49b94b40f1b3d4c3d7da2f0fb4b3fd3b962800f61634ba203e0fed0000000000000000000000002a2019b30c157db6c1c01306b8025167dbe1803b000000000000000a000000000000000000000000486cb4788f1be7cdef9301a7a637b451df3cf26200000000000000000000000045dce8e4f2dc005a5f28206a46cb034697eeda8e000000000000000000000000000000000000000000000000000000000000768300000000000000000000000000000000000000000000000000000000000000000000000000002c0003010011010000000000000000000000000003d090010013030000000000000000000000000000000f42400000000000000000000000000000000000000000",
          "blockHash": "0x49bb34400afc4eb33f9d1719958f45d06e0782413e7d778f801edf3ffbe1f418",
          "blockNumber": "0x256bd1a",
          "blockTimestamp": "0x6a03f9d3",
          "transactionHash": "0x982ae7a376ceb64d6fcd90e58a1b1a256c3a2e69b33c4c358ae44fbfc96fddfd",
          "transactionIndex": "0x6",
          "logIndex": "0x1b",
          "removed": false
        },
        {
          "address": "0x43edd7f3831b08fe70b7555ddd373c8bf65a9050",
          "topics": [
            "0x85496b760a4b7f8d66384b9df21b381f5d1b1e79f229a47aaf4c232edc2fe59a",
            "0x1904efcb7f49b94b40f1b3d4c3d7da2f0fb4b3fd3b962800f61634ba203e0fed",
            "0x000000000000000000000000486cb4788f1be7cdef9301a7a637b451df3cf262"
          ],
          "data": "0x000000000000000000000000000000000000000000000000000000000000762f000000000000000000000000000000000000000000000000000009184e72a000000000000000000000000000000000000000000000000000000009184e72a000",
          "blockHash": "0x49bb34400afc4eb33f9d1719958f45d06e0782413e7d778f801edf3ffbe1f418",
          "blockNumber": "0x256bd1a",
          "blockTimestamp": "0x6a03f9d3",
          "transactionHash": "0x982ae7a376ceb64d6fcd90e58a1b1a256c3a2e69b33c4c358ae44fbfc96fddfd",
          "transactionIndex": "0x6",
          "logIndex": "0x1c",
          "removed": false
        },
        {
          "address": "0x486cb4788f1be7cdef9301a7a637b451df3cf262",
          "topics": [
            "0xbc9ee36b6ca0bdd5b3840e6d329dd19a2490d880c7ce24d9818aa593adfb35be",
            "0x00000000000000000000000045dce8e4f2dc005a5f28206a46cb034697eeda8e",
            "0x0000000000000000000000000000000000000000000000000000000000007683",
            "0x00000000000000000000000045dce8e4f2dc005a5f28206a46cb034697eeda8e"
          ],
          "data": "0x00000000000000000000000043edd7f3831b08fe70b7555ddd373c8bf65a9050000000000000000000000000000000000000000000000000000009184e72a000",
          "blockHash": "0x49bb34400afc4eb33f9d1719958f45d06e0782413e7d778f801edf3ffbe1f418",
          "blockNumber": "0x256bd1a",
          "blockTimestamp": "0x6a03f9d3",
          "transactionHash": "0x982ae7a376ceb64d6fcd90e58a1b1a256c3a2e69b33c4c358ae44fbfc96fddfd",
          "transactionIndex": "0x6",
          "logIndex": "0x1d",
          "removed": false
        }
      ],
      "logsBloom": "0x00000000000000000000000200000000000200000000000000000000001000010000000000000000000000000000000000000000000000000000000000200000000002000000000000000008000000000000000000000000000000000000000000000000020000008000000000000810000000000010100000010010000000000000000000000000001000080000000000000000200000040000000100002000020000188004000022108000000800000000000000400000000440000000020000000082000000000000004080000000001000000000000000000000000020000010040000000000000000040000802000000420018000000000000000080000",
      "type": "0x2",
      "transactionHash": "0x982ae7a376ceb64d6fcd90e58a1b1a256c3a2e69b33c4c358ae44fbfc96fddfd",
      "transactionIndex": "0x6",
      "blockHash": "0x49bb34400afc4eb33f9d1719958f45d06e0782413e7d778f801edf3ffbe1f418",
      "blockNumber": "0x256bd1a",
      "gasUsed": "0x92a02",
      "effectiveGasPrice": "0x110",
      "blobGasUsed": "0xb860",
      "from": "0x45dce8e4f2dc005a5f28206a46cb034697eeda8e",
      "to": "0x486cb4788f1be7cdef9301a7a637b451df3cf262",
      "contractAddress": null,
      "daFootprintGasScalar": "0x190",
      "l1BaseFeeScalar": "0x186a0",
      "l1BlobBaseFee": "0x3d318e",
      "l1BlobBaseFeeScalar": "0xf79c5",
      "l1Fee": "0x32f7d9cf3",
      "l1GasPrice": "0x422f859",
      "l1GasUsed": "0x76d"
    },
    {
      "status": "0x1",
      "cumulativeGasUsed": "0x2004b9",
      "logs": [
        {
          "address": "0x3ec3849c33291a9ef4c5db86de593eb4a37fde45",
          "topics": [
            "0x8c5be1e5ebec7d5bd14f71427d1e84f3dd0314c0f7b2291e5b200ac8c7c3b925",
            "0x00000000000000000000000045dce8e4f2dc005a5f28206a46cb034697eeda8e",
            "0x000000000000000000000000486cb4788f1be7cdef9301a7a637b451df3cf262"
          ],
          "data": "0x000000000000000000000000000000000000000000000000000009184e72a000",
          "blockHash": "0x49bb34400afc4eb33f9d1719958f45d06e0782413e7d778f801edf3ffbe1f418",
          "blockNumber": "0x256bd1a",
          "blockTimestamp": "0x6a03f9d3",
          "transactionHash": "0xea189fedbec287c6a904d6f5e9dc4945472c5f2b2626ed06290ad2b14c651734",
          "transactionIndex": "0x7",
          "logIndex": "0x1e",
          "removed": false
        }
      ],
      "logsBloom": "0x00000000000000000000000200002000000000000000000000000000000000000000000000000000000000000000000000000000000000000000000000200000000000000000000000000000000000000000000000000000000000000000000000000000000000000000000000000000000000000000000000000000000000000000000000000000000000000000000000000000000020040040000000000000020000000004000000000000000800000000000000000000000000000000000000000000000000000000000000000000001000000000000000000000000000000010000000000000000000000000800000000000000000000000000000000000",
      "type": "0x2",
      "transactionHash": "0xea189fedbec287c6a904d6f5e9dc4945472c5f2b2626ed06290ad2b14c651734",
      "transactionIndex": "0x7",
      "blockHash": "0x49bb34400afc4eb33f9d1719958f45d06e0782413e7d778f801edf3ffbe1f418",
      "blockNumber": "0x256bd1a",
      "gasUsed": "0xd1bb",
      "effectiveGasPrice": "0x110",
      "blobGasUsed": "0x9c40",
      "from": "0x45dce8e4f2dc005a5f28206a46cb034697eeda8e",
      "to": "0x3ec3849c33291a9ef4c5db86de593eb4a37fde45",
      "contractAddress": null,
      "daFootprintGasScalar": "0x190",
      "l1BaseFeeScalar": "0x186a0",
      "l1BlobBaseFee": "0x3d318e",
      "l1BlobBaseFeeScalar": "0xf79c5",
      "l1Fee": "0x2ae198c8b",
      "l1GasPrice": "0x422f859",
      "l1GasUsed": "0x640"
    },
    {
      "status": "0x1",
      "cumulativeGasUsed": "0x297c77",
      "logs": [
        {
          "address": "0x3ec3849c33291a9ef4c5db86de593eb4a37fde45",
          "topics": [
            "0x8c5be1e5ebec7d5bd14f71427d1e84f3dd0314c0f7b2291e5b200ac8c7c3b925",
            "0x00000000000000000000000045dce8e4f2dc005a5f28206a46cb034697eeda8e",
            "0x000000000000000000000000486cb4788f1be7cdef9301a7a637b451df3cf262"
          ],
          "data": "0x0000000000000000000000000000000000000000000000000000000000000000",
          "blockHash": "0x49bb34400afc4eb33f9d1719958f45d06e0782413e7d778f801edf3ffbe1f418",
          "blockNumber": "0x256bd1a",
          "blockTimestamp": "0x6a03f9d3",
          "transactionHash": "0x2974fb14907d633f7aef254fba7c4bf3712a18e5a5194f6ede68efe4d0e27968",
          "transactionIndex": "0x8",
          "logIndex": "0x1f",
          "removed": false
        },
        {
          "address": "0x3ec3849c33291a9ef4c5db86de593eb4a37fde45",
          "topics": [
            "0xddf252ad1be2c89b69c2b068fc378daa952ba7f163c4a11628f55a4df523b3ef",
            "0x00000000000000000000000045dce8e4f2dc005a5f28206a46cb034697eeda8e",
            "0x000000000000000000000000486cb4788f1be7cdef9301a7a637b451df3cf262"
          ],
          "data": "0x000000000000000000000000000000000000000000000000000009184e72a000",
          "blockHash": "0x49bb34400afc4eb33f9d1719958f45d06e0782413e7d778f801edf3ffbe1f418",
          "blockNumber": "0x256bd1a",
          "blockTimestamp": "0x6a03f9d3",
          "transactionHash": "0x2974fb14907d633f7aef254fba7c4bf3712a18e5a5194f6ede68efe4d0e27968",
          "transactionIndex": "0x8",
          "logIndex": "0x20",
          "removed": false
        },
        {
          "address": "0x3ec3849c33291a9ef4c5db86de593eb4a37fde45",
          "topics": [
            "0x8c5be1e5ebec7d5bd14f71427d1e84f3dd0314c0f7b2291e5b200ac8c7c3b925",
            "0x000000000000000000000000486cb4788f1be7cdef9301a7a637b451df3cf262",
            "0x0000000000000000000000003ec3849c33291a9ef4c5db86de593eb4a37fde45"
          ],
          "data": "0x000000000000000000000000000000000000000000000000000009184e72a000",
          "blockHash": "0x49bb34400afc4eb33f9d1719958f45d06e0782413e7d778f801edf3ffbe1f418",
          "blockNumber": "0x256bd1a",
          "blockTimestamp": "0x6a03f9d3",
          "transactionHash": "0x2974fb14907d633f7aef254fba7c4bf3712a18e5a5194f6ede68efe4d0e27968",
          "transactionIndex": "0x8",
          "logIndex": "0x21",
          "removed": false
        },
        {
          "address": "0x3ec3849c33291a9ef4c5db86de593eb4a37fde45",
          "topics": [
            "0xddf252ad1be2c89b69c2b068fc378daa952ba7f163c4a11628f55a4df523b3ef",
            "0x000000000000000000000000486cb4788f1be7cdef9301a7a637b451df3cf262",
            "0x0000000000000000000000000000000000000000000000000000000000000000"
          ],
          "data": "0x000000000000000000000000000000000000000000000000000009184e72a000",
          "blockHash": "0x49bb34400afc4eb33f9d1719958f45d06e0782413e7d778f801edf3ffbe1f418",
          "blockNumber": "0x256bd1a",
          "blockTimestamp": "0x6a03f9d3",
          "transactionHash": "0x2974fb14907d633f7aef254fba7c4bf3712a18e5a5194f6ede68efe4d0e27968",
          "transactionIndex": "0x8",
          "logIndex": "0x22",
          "removed": false
        },
        {
          "address": "0x2367325334447c5e1e0f1b3a6fb947b262f58312",
          "topics": [
            "0x61ed099e74a97a1d7f8bb0952a88ca8b7b8ebd00c126ea04671f92a81213318a"
          ],
          "data": "0x0000000000000000000000004208d6e27538189bb48e603d6123a94b8abe0a0b0000000000000000000000000000000000000000000000000000082b3f683b20",
          "blockHash": "0x49bb34400afc4eb33f9d1719958f45d06e0782413e7d778f801edf3ffbe1f418",
          "blockNumber": "0x256bd1a",
          "blockTimestamp": "0x6a03f9d3",
          "transactionHash": "0x2974fb14907d633f7aef254fba7c4bf3712a18e5a5194f6ede68efe4d0e27968",
          "transactionIndex": "0x8",
          "logIndex": "0x23",
          "removed": false
        },
        {
          "address": "0x2367325334447c5e1e0f1b3a6fb947b262f58312",
          "topics": [
            "0x07ea52d82345d6e838192107d8fd7123d9c2ec8e916cd0aad13fd2b60db24644"
          ],
          "data": "0x0000000000000000000000000000000000000000000000000000000000000060000000000000000000000000000000000000000000000000000000000000012000000000000000000000000000000000000000000000000000000000000001400000000000000000000000000000000000000000000000000000000000000005000000000000000000000000315b0e76a510607bb0f706b17716f426d5b385b80000000000000000000000005d8aed4182a8ecc47386e88aa8753dde7423996e000000000000000000000000acde1f22eeab249d3ca6ba8805c8fee9f52a16e7000000000000000000000000cd37ca043f8479064e10635020c65ffc005d36f6000000000000000000000000ce8358bc28dd8296ce8caf1cd2b44787abd6588700000000000000000000000000000000000000000000000000000000000000000000000000000000000000000000000000000000000000000000000000000005000000000000000000000000000000000000000000000000000001810b2b4527000000000000000000000000000000000000000000000000000001688a3a22190000000000000000000000000000000000000000000000000000012b47df4a7600000000000000000000000000000000000000000000000000000112c6ee27680000000000000000000000000000000000000000000000000000012b47df4a76",
          "blockHash": "0x49bb34400afc4eb33f9d1719958f45d06e0782413e7d778f801edf3ffbe1f418",
          "blockNumber": "0x256bd1a",
          "blockTimestamp": "0x6a03f9d3",
          "transactionHash": "0x2974fb14907d633f7aef254fba7c4bf3712a18e5a5194f6ede68efe4d0e27968",
          "transactionIndex": "0x8",
          "logIndex": "0x24",
          "removed": false
        },
        {
          "address": "0x1a44076050125825900e736c501f859c50fe728c",
          "topics": [
            "0x1ab700d4ced0c005b164c0f789fd09fcbb0156d4c2041b8a3bfbcd961cd1567f"
          ],
          "data": "0x000000000000000000000000000000000000000000000000000000000000006000000000000000000000000000000000000000000000000000000000000001800000000000000000000000002367325334447c5e1e0f1b3a6fb947b262f5831200000000000000000000000000000000000000000000000000000000000000f9010000000000000002000076340000000000000000000000003ec3849c33291a9ef4c5db86de593eb4a37fde450000762f000000000000000000000000999dfabe3b1cc2ef66eb032eea42fea329bba16863d7a18955a1d7ca0faeecdd28b8691c600d915e944d5acdd6744b85c6043a8a0000000000000000000000002a2019b30c157db6c1c01306b8025167dbe1803b000000000000000a000000000000000000000000486cb4788f1be7cdef9301a7a637b451df3cf26200000000000000000000000045dce8e4f2dc005a5f28206a46cb034697eeda8e000000000000000000000000000000000000000000000000000000000000768300000000000000000000000000000000000000000000000000000000000000000000000000002c0003010011010000000000000000000000000003d090010013030000000000000000000000000000000f42400000000000000000000000000000000000000000",
          "blockHash": "0x49bb34400afc4eb33f9d1719958f45d06e0782413e7d778f801edf3ffbe1f418",
          "blockNumber": "0x256bd1a",
          "blockTimestamp": "0x6a03f9d3",
          "transactionHash": "0x2974fb14907d633f7aef254fba7c4bf3712a18e5a5194f6ede68efe4d0e27968",
          "transactionIndex": "0x8",
          "logIndex": "0x25",
          "removed": false
        },
        {
          "address": "0x3ec3849c33291a9ef4c5db86de593eb4a37fde45",
          "topics": [
            "0x85496b760a4b7f8d66384b9df21b381f5d1b1e79f229a47aaf4c232edc2fe59a",
            "0x63d7a18955a1d7ca0faeecdd28b8691c600d915e944d5acdd6744b85c6043a8a",
            "0x000000000000000000000000486cb4788f1be7cdef9301a7a637b451df3cf262"
          ],
          "data": "0x000000000000000000000000000000000000000000000000000000000000762f000000000000000000000000000000000000000000000000000009184e72a000000000000000000000000000000000000000000000000000000009184e72a000",
          "blockHash": "0x49bb34400afc4eb33f9d1719958f45d06e0782413e7d778f801edf3ffbe1f418",
          "blockNumber": "0x256bd1a",
          "blockTimestamp": "0x6a03f9d3",
          "transactionHash": "0x2974fb14907d633f7aef254fba7c4bf3712a18e5a5194f6ede68efe4d0e27968",
          "transactionIndex": "0x8",
          "logIndex": "0x26",
          "removed": false
        },
        {
          "address": "0x486cb4788f1be7cdef9301a7a637b451df3cf262",
          "topics": [
            "0xbc9ee36b6ca0bdd5b3840e6d329dd19a2490d880c7ce24d9818aa593adfb35be",
            "0x00000000000000000000000045dce8e4f2dc005a5f28206a46cb034697eeda8e",
            "0x0000000000000000000000000000000000000000000000000000000000007683",
            "0x00000000000000000000000045dce8e4f2dc005a5f28206a46cb034697eeda8e"
          ],
          "data": "0x0000000000000000000000003ec3849c33291a9ef4c5db86de593eb4a37fde45000000000000000000000000000000000000000000000000000009184e72a000",
          "blockHash": "0x49bb34400afc4eb33f9d1719958f45d06e0782413e7d778f801edf3ffbe1f418",
          "blockNumber": "0x256bd1a",
          "blockTimestamp": "0x6a03f9d3",
          "transactionHash": "0x2974fb14907d633f7aef254fba7c4bf3712a18e5a5194f6ede68efe4d0e27968",
          "transactionIndex": "0x8",
          "logIndex": "0x27",
          "removed": false
        }
      ],
      "logsBloom": "0x00000000000000000000000200002000000200000000000000000000001000000000000000000000000000000000000000000000000000000000100000200020000002000000000000000008000000000000000000000000000000000000000000000000020000008000000000000810000000000010100000010010000000000000000000000000000000080000000000000000200020040040004000002001020000188004000020100000400800000000000000400000000440000000000000000082000000000000004080000000001000000000000000000000040020000010040000000000000000000000802000000020018000000000000000000000",
      "type": "0x2",
      "transactionHash": "0x2974fb14907d633f7aef254fba7c4bf3712a18e5a5194f6ede68efe4d0e27968",
      "transactionIndex": "0x8",
      "blockHash": "0x49bb34400afc4eb33f9d1719958f45d06e0782413e7d778f801edf3ffbe1f418",
      "blockNumber": "0x256bd1a",
      "gasUsed": "0x977be",
      "effectiveGasPrice": "0x110",
      "blobGasUsed": "0xb860",
      "from": "0x45dce8e4f2dc005a5f28206a46cb034697eeda8e",
      "to": "0x486cb4788f1be7cdef9301a7a637b451df3cf262",
      "contractAddress": null,
      "daFootprintGasScalar": "0x190",
      "l1BaseFeeScalar": "0x186a0",
      "l1BlobBaseFee": "0x3d318e",
      "l1BlobBaseFeeScalar": "0xf79c5",
      "l1Fee": "0x32f7d9cf3",
      "l1GasPrice": "0x422f859",
      "l1GasUsed": "0x76d"
    },
    {
      "status": "0x1",
      "cumulativeGasUsed": "0x2a4e1c",
      "logs": [
        {
          "address": "0x64445f0aecc51e94ad52d8ac56b7190e764e561a",
          "topics": [
            "0x8c5be1e5ebec7d5bd14f71427d1e84f3dd0314c0f7b2291e5b200ac8c7c3b925",
            "0x00000000000000000000000045dce8e4f2dc005a5f28206a46cb034697eeda8e",
            "0x000000000000000000000000486cb4788f1be7cdef9301a7a637b451df3cf262"
          ],
          "data": "0x000000000000000000000000000000000000000000000000000009184e72a000",
          "blockHash": "0x49bb34400afc4eb33f9d1719958f45d06e0782413e7d778f801edf3ffbe1f418",
          "blockNumber": "0x256bd1a",
          "blockTimestamp": "0x6a03f9d3",
          "transactionHash": "0xfb69b79ae298062bedbd58100baf1a631e334129b16b2f246108a42af0f5347f",
          "transactionIndex": "0x9",
          "logIndex": "0x28",
          "removed": false
        }
      ],
      "logsBloom": "0x00000000000000000000000200000000000000000000000000000000000000000000000000000000000000000000000000000000000000000000000000200000002000000000000000000000000000000000000000000000000000000000000000000000000000000000000000000000000000000000000000000000000000000000000000000000000000000000000000000000000000040000000000000000020000000004000000000008000800000000000000000000000000000000000000000000000000000000000000000000001000000000000000000000000000000010000000000000000000000000800000000008000000000000000000000000",
      "type": "0x2",
      "transactionHash": "0xfb69b79ae298062bedbd58100baf1a631e334129b16b2f246108a42af0f5347f",
      "transactionIndex": "0x9",
      "blockHash": "0x49bb34400afc4eb33f9d1719958f45d06e0782413e7d778f801edf3ffbe1f418",
      "blockNumber": "0x256bd1a",
      "gasUsed": "0xd1a5",
      "effectiveGasPrice": "0x110",
      "blobGasUsed": "0x9c40",
      "from": "0x45dce8e4f2dc005a5f28206a46cb034697eeda8e",
      "to": "0x64445f0aecc51e94ad52d8ac56b7190e764e561a",
      "contractAddress": null,
      "daFootprintGasScalar": "0x190",
      "l1BaseFeeScalar": "0x186a0",
      "l1BlobBaseFee": "0x3d318e",
      "l1BlobBaseFeeScalar": "0xf79c5",
      "l1Fee": "0x2ae198c8b",
      "l1GasPrice": "0x422f859",
      "l1GasUsed": "0x640"
    },
    {
      "status": "0x1",
      "cumulativeGasUsed": "0x3c5498",
      "logs": [
        {
          "address": "0x64445f0aecc51e94ad52d8ac56b7190e764e561a",
          "topics": [
            "0x8c5be1e5ebec7d5bd14f71427d1e84f3dd0314c0f7b2291e5b200ac8c7c3b925",
            "0x00000000000000000000000045dce8e4f2dc005a5f28206a46cb034697eeda8e",
            "0x000000000000000000000000486cb4788f1be7cdef9301a7a637b451df3cf262"
          ],
          "data": "0x0000000000000000000000000000000000000000000000000000000000000000",
          "blockHash": "0x49bb34400afc4eb33f9d1719958f45d06e0782413e7d778f801edf3ffbe1f418",
          "blockNumber": "0x256bd1a",
          "blockTimestamp": "0x6a03f9d3",
          "transactionHash": "0x3c02dc452c9df21ba0bb967f3f916761e06c183fbf77458d629eb8c6821d15a6",
          "transactionIndex": "0xb",
          "logIndex": "0x29",
          "removed": false
        },
        {
          "address": "0x64445f0aecc51e94ad52d8ac56b7190e764e561a",
          "topics": [
            "0xddf252ad1be2c89b69c2b068fc378daa952ba7f163c4a11628f55a4df523b3ef",
            "0x00000000000000000000000045dce8e4f2dc005a5f28206a46cb034697eeda8e",
            "0x000000000000000000000000486cb4788f1be7cdef9301a7a637b451df3cf262"
          ],
          "data": "0x000000000000000000000000000000000000000000000000000009184e72a000",
          "blockHash": "0x49bb34400afc4eb33f9d1719958f45d06e0782413e7d778f801edf3ffbe1f418",
          "blockNumber": "0x256bd1a",
          "blockTimestamp": "0x6a03f9d3",
          "transactionHash": "0x3c02dc452c9df21ba0bb967f3f916761e06c183fbf77458d629eb8c6821d15a6",
          "transactionIndex": "0xb",
          "logIndex": "0x2a",
          "removed": false
        },
        {
          "address": "0x64445f0aecc51e94ad52d8ac56b7190e764e561a",
          "topics": [
            "0x8c5be1e5ebec7d5bd14f71427d1e84f3dd0314c0f7b2291e5b200ac8c7c3b925",
            "0x000000000000000000000000486cb4788f1be7cdef9301a7a637b451df3cf262",
            "0x00000000000000000000000064445f0aecc51e94ad52d8ac56b7190e764e561a"
          ],
          "data": "0x000000000000000000000000000000000000000000000000000009184e72a000",
          "blockHash": "0x49bb34400afc4eb33f9d1719958f45d06e0782413e7d778f801edf3ffbe1f418",
          "blockNumber": "0x256bd1a",
          "blockTimestamp": "0x6a03f9d3",
          "transactionHash": "0x3c02dc452c9df21ba0bb967f3f916761e06c183fbf77458d629eb8c6821d15a6",
          "transactionIndex": "0xb",
          "logIndex": "0x2b",
          "removed": false
        },
        {
          "address": "0x64445f0aecc51e94ad52d8ac56b7190e764e561a",
          "topics": [
            "0xddf252ad1be2c89b69c2b068fc378daa952ba7f163c4a11628f55a4df523b3ef",
            "0x000000000000000000000000486cb4788f1be7cdef9301a7a637b451df3cf262",
            "0x0000000000000000000000000000000000000000000000000000000000000000"
          ],
          "data": "0x000000000000000000000000000000000000000000000000000009184e72a000",
          "blockHash": "0x49bb34400afc4eb33f9d1719958f45d06e0782413e7d778f801edf3ffbe1f418",
          "blockNumber": "0x256bd1a",
          "blockTimestamp": "0x6a03f9d3",
          "transactionHash": "0x3c02dc452c9df21ba0bb967f3f916761e06c183fbf77458d629eb8c6821d15a6",
          "transactionIndex": "0xb",
          "logIndex": "0x2c",
          "removed": false
        },
        {
          "address": "0x2367325334447c5e1e0f1b3a6fb947b262f58312",
          "topics": [
            "0x61ed099e74a97a1d7f8bb0952a88ca8b7b8ebd00c126ea04671f92a81213318a"
          ],
          "data": "0x0000000000000000000000004208d6e27538189bb48e603d6123a94b8abe0a0b0000000000000000000000000000000000000000000000000000082b3f683b20",
          "blockHash": "0x49bb34400afc4eb33f9d1719958f45d06e0782413e7d778f801edf3ffbe1f418",
          "blockNumber": "0x256bd1a",
          "blockTimestamp": "0x6a03f9d3",
          "transactionHash": "0x3c02dc452c9df21ba0bb967f3f916761e06c183fbf77458d629eb8c6821d15a6",
          "transactionIndex": "0xb",
          "logIndex": "0x2d",
          "removed": false
        },
        {
          "address": "0x2367325334447c5e1e0f1b3a6fb947b262f58312",
          "topics": [
            "0x07ea52d82345d6e838192107d8fd7123d9c2ec8e916cd0aad13fd2b60db24644"
          ],
          "data": "0x0000000000000000000000000000000000000000000000000000000000000060000000000000000000000000000000000000000000000000000000000000012000000000000000000000000000000000000000000000000000000000000001400000000000000000000000000000000000000000000000000000000000000005000000000000000000000000315b0e76a510607bb0f706b17716f426d5b385b80000000000000000000000005d8aed4182a8ecc47386e88aa8753dde7423996e000000000000000000000000acde1f22eeab249d3ca6ba8805c8fee9f52a16e7000000000000000000000000cd37ca043f8479064e10635020c65ffc005d36f6000000000000000000000000ce8358bc28dd8296ce8caf1cd2b44787abd6588700000000000000000000000000000000000000000000000000000000000000000000000000000000000000000000000000000000000000000000000000000005000000000000000000000000000000000000000000000000000001810b2b4527000000000000000000000000000000000000000000000000000001688a3a22190000000000000000000000000000000000000000000000000000012b47df4a7600000000000000000000000000000000000000000000000000000112c6ee27680000000000000000000000000000000000000000000000000000012b47df4a76",
          "blockHash": "0x49bb34400afc4eb33f9d1719958f45d06e0782413e7d778f801edf3ffbe1f418",
          "blockNumber": "0x256bd1a",
          "blockTimestamp": "0x6a03f9d3",
          "transactionHash": "0x3c02dc452c9df21ba0bb967f3f916761e06c183fbf77458d629eb8c6821d15a6",
          "transactionIndex": "0xb",
          "logIndex": "0x2e",
          "removed": false
        },
        {
          "address": "0x1a44076050125825900e736c501f859c50fe728c",
          "topics": [
            "0x1ab700d4ced0c005b164c0f789fd09fcbb0156d4c2041b8a3bfbcd961cd1567f"
          ],
          "data": "0x000000000000000000000000000000000000000000000000000000000000006000000000000000000000000000000000000000000000000000000000000001800000000000000000000000002367325334447c5e1e0f1b3a6fb947b262f5831200000000000000000000000000000000000000000000000000000000000000f90100000000000000040000763400000000000000000000000064445f0aecc51e94ad52d8ac56b7190e764e561a0000762f000000000000000000000000d86fbbd0c8715d2c1f40e451e5c3514e65e7576a0e0389a2acd1b106c0938e66293e429b6218a3059c8d25cf8fb2123ca439f3c00000000000000000000000002a2019b30c157db6c1c01306b8025167dbe1803b000000000000000a000000000000000000000000486cb4788f1be7cdef9301a7a637b451df3cf26200000000000000000000000045dce8e4f2dc005a5f28206a46cb034697eeda8e000000000000000000000000000000000000000000000000000000000000768300000000000000000000000000000000000000000000000000000000000000000000000000002c0003010011010000000000000000000000000003d090010013030000000000000000000000000000000f42400000000000000000000000000000000000000000",
          "blockHash": "0x49bb34400afc4eb33f9d1719958f45d06e0782413e7d778f801edf3ffbe1f418",
          "blockNumber": "0x256bd1a",
          "blockTimestamp": "0x6a03f9d3",
          "transactionHash": "0x3c02dc452c9df21ba0bb967f3f916761e06c183fbf77458d629eb8c6821d15a6",
          "transactionIndex": "0xb",
          "logIndex": "0x2f",
          "removed": false
        },
        {
          "address": "0x64445f0aecc51e94ad52d8ac56b7190e764e561a",
          "topics": [
            "0x85496b760a4b7f8d66384b9df21b381f5d1b1e79f229a47aaf4c232edc2fe59a",
            "0x0e0389a2acd1b106c0938e66293e429b6218a3059c8d25cf8fb2123ca439f3c0",
            "0x000000000000000000000000486cb4788f1be7cdef9301a7a637b451df3cf262"
          ],
          "data": "0x000000000000000000000000000000000000000000000000000000000000762f000000000000000000000000000000000000000000000000000009184e72a000000000000000000000000000000000000000000000000000000009184e72a000",
          "blockHash": "0x49bb34400afc4eb33f9d1719958f45d06e0782413e7d778f801edf3ffbe1f418",
          "blockNumber": "0x256bd1a",
          "blockTimestamp": "0x6a03f9d3",
          "transactionHash": "0x3c02dc452c9df21ba0bb967f3f916761e06c183fbf77458d629eb8c6821d15a6",
          "transactionIndex": "0xb",
          "logIndex": "0x30",
          "removed": false
        },
        {
          "address": "0x486cb4788f1be7cdef9301a7a637b451df3cf262",
          "topics": [
            "0xbc9ee36b6ca0bdd5b3840e6d329dd19a2490d880c7ce24d9818aa593adfb35be",
            "0x00000000000000000000000045dce8e4f2dc005a5f28206a46cb034697eeda8e",
            "0x0000000000000000000000000000000000000000000000000000000000007683",
            "0x00000000000000000000000045dce8e4f2dc005a5f28206a46cb034697eeda8e"
          ],
          "data": "0x00000000000000000000000064445f0aecc51e94ad52d8ac56b7190e764e561a000000000000000000000000000000000000000000000000000009184e72a000",
          "blockHash": "0x49bb34400afc4eb33f9d1719958f45d06e0782413e7d778f801edf3ffbe1f418",
          "blockNumber": "0x256bd1a",
          "blockTimestamp": "0x6a03f9d3",
          "transactionHash": "0x3c02dc452c9df21ba0bb967f3f916761e06c183fbf77458d629eb8c6821d15a6",
          "transactionIndex": "0xb",
          "logIndex": "0x31",
          "removed": false
        }
      ],
      "logsBloom": "0x0000000000000000000000020040000000020000000000000000000000140000000000000000000000000000000000000000000000000000000000000020000000200200000000000000000800000000000000000000000000000080000000000000000002000000800000000000081000000000001010000001001000000000000000000000000000000008000000000000000020000004000000000000200002000018800400002010000c000800000000000000400000000440000000000000000082000000000000004080000000001000000000000000000000000020000010040000000000000000000000802800000028018000000000000000000002",
      "type": "0x2",
      "transactionHash": "0x3c02dc452c9df21ba0bb967f3f916761e06c183fbf77458d629eb8c6821d15a6",
      "transactionIndex": "0xb",
      "blockHash": "0x49bb34400afc4eb33f9d1719958f45d06e0782413e7d778f801edf3ffbe1f418",
      "blockNumber": "0x256bd1a",
      "gasUsed": "0x977a8",
      "effectiveGasPrice": "0x110",
      "blobGasUsed": "0xb860",
      "from": "0x45dce8e4f2dc005a5f28206a46cb034697eeda8e",
      "to": "0x486cb4788f1be7cdef9301a7a637b451df3cf262",
      "contractAddress": null,
      "daFootprintGasScalar": "0x190",
      "l1BaseFeeScalar": "0x186a0",
      "l1BlobBaseFee": "0x3d318e",
      "l1BlobBaseFeeScalar": "0xf79c5",
      "l1Fee": "0x32f7d9cf3",
      "l1GasPrice": "0x422f859",
      "l1GasUsed": "0x76d"
    },
    {
      "status": "0x1",
      "cumulativeGasUsed": "0x3d2653",
      "logs": [
        {
          "address": "0x90581eca9469d8d7f5d3b60f4715027adfcf7927",
          "topics": [
            "0x8c5be1e5ebec7d5bd14f71427d1e84f3dd0314c0f7b2291e5b200ac8c7c3b925",
            "0x00000000000000000000000045dce8e4f2dc005a5f28206a46cb034697eeda8e",
            "0x000000000000000000000000486cb4788f1be7cdef9301a7a637b451df3cf262"
          ],
          "data": "0x000000000000000000000000000000000000000000000000000009184e72a000",
          "blockHash": "0x49bb34400afc4eb33f9d1719958f45d06e0782413e7d778f801edf3ffbe1f418",
          "blockNumber": "0x256bd1a",
          "blockTimestamp": "0x6a03f9d3",
          "transactionHash": "0x6e7a30224c3397184f5bae179ca3c39cf4dd3b401ebf266ec3f23c4176c7747a",
          "transactionIndex": "0xc",
          "logIndex": "0x32",
          "removed": false
        }
      ],
      "logsBloom": "0x00000000000000000000000200000000000000000000000000000000000000000000000000000000000000000000000000000000000000000000000000200000000000000000000000000000000000000000000000000000000000000000000000000000000000000000000000000000000000000000000000000000000000000000000000000004000010000000000000000000000000040000000000000000020000000004000000000000000800000000000000000000000000000000000000000000000000000000000000000000001000000000000000000000000000000010000000000000000000000000800000400000000000000000000000000000",
      "type": "0x2",
      "transactionHash": "0x6e7a30224c3397184f5bae179ca3c39cf4dd3b401ebf266ec3f23c4176c7747a",
      "transactionIndex": "0xc",
      "blockHash": "0x49bb34400afc4eb33f9d1719958f45d06e0782413e7d778f801edf3ffbe1f418",
      "blockNumber": "0x256bd1a",
      "gasUsed": "0xd1bb",
      "effectiveGasPrice": "0x110",
      "blobGasUsed": "0x9c40",
      "from": "0x45dce8e4f2dc005a5f28206a46cb034697eeda8e",
      "to": "0x90581eca9469d8d7f5d3b60f4715027adfcf7927",
      "contractAddress": null,
      "daFootprintGasScalar": "0x190",
      "l1BaseFeeScalar": "0x186a0",
      "l1BlobBaseFee": "0x3d318e",
      "l1BlobBaseFeeScalar": "0xf79c5",
      "l1Fee": "0x2ae198c8b",
      "l1GasPrice": "0x422f859",
      "l1GasUsed": "0x640"
    },
    {
      "status": "0x1",
      "cumulativeGasUsed": "0x469e11",
      "logs": [
        {
          "address": "0x90581eca9469d8d7f5d3b60f4715027adfcf7927",
          "topics": [
            "0x8c5be1e5ebec7d5bd14f71427d1e84f3dd0314c0f7b2291e5b200ac8c7c3b925",
            "0x00000000000000000000000045dce8e4f2dc005a5f28206a46cb034697eeda8e",
            "0x000000000000000000000000486cb4788f1be7cdef9301a7a637b451df3cf262"
          ],
          "data": "0x0000000000000000000000000000000000000000000000000000000000000000",
          "blockHash": "0x49bb34400afc4eb33f9d1719958f45d06e0782413e7d778f801edf3ffbe1f418",
          "blockNumber": "0x256bd1a",
          "blockTimestamp": "0x6a03f9d3",
          "transactionHash": "0x041d845e37515366998d594d8f0a6727be41e93056554065a78b50f181e997c8",
          "transactionIndex": "0xd",
          "logIndex": "0x33",
          "removed": false
        },
        {
          "address": "0x90581eca9469d8d7f5d3b60f4715027adfcf7927",
          "topics": [
            "0xddf252ad1be2c89b69c2b068fc378daa952ba7f163c4a11628f55a4df523b3ef",
            "0x00000000000000000000000045dce8e4f2dc005a5f28206a46cb034697eeda8e",
            "0x000000000000000000000000486cb4788f1be7cdef9301a7a637b451df3cf262"
          ],
          "data": "0x000000000000000000000000000000000000000000000000000009184e72a000",
          "blockHash": "0x49bb34400afc4eb33f9d1719958f45d06e0782413e7d778f801edf3ffbe1f418",
          "blockNumber": "0x256bd1a",
          "blockTimestamp": "0x6a03f9d3",
          "transactionHash": "0x041d845e37515366998d594d8f0a6727be41e93056554065a78b50f181e997c8",
          "transactionIndex": "0xd",
          "logIndex": "0x34",
          "removed": false
        },
        {
          "address": "0x90581eca9469d8d7f5d3b60f4715027adfcf7927",
          "topics": [
            "0x8c5be1e5ebec7d5bd14f71427d1e84f3dd0314c0f7b2291e5b200ac8c7c3b925",
            "0x000000000000000000000000486cb4788f1be7cdef9301a7a637b451df3cf262",
            "0x00000000000000000000000090581eca9469d8d7f5d3b60f4715027adfcf7927"
          ],
          "data": "0x000000000000000000000000000000000000000000000000000009184e72a000",
          "blockHash": "0x49bb34400afc4eb33f9d1719958f45d06e0782413e7d778f801edf3ffbe1f418",
          "blockNumber": "0x256bd1a",
          "blockTimestamp": "0x6a03f9d3",
          "transactionHash": "0x041d845e37515366998d594d8f0a6727be41e93056554065a78b50f181e997c8",
          "transactionIndex": "0xd",
          "logIndex": "0x35",
          "removed": false
        },
        {
          "address": "0x90581eca9469d8d7f5d3b60f4715027adfcf7927",
          "topics": [
            "0xddf252ad1be2c89b69c2b068fc378daa952ba7f163c4a11628f55a4df523b3ef",
            "0x000000000000000000000000486cb4788f1be7cdef9301a7a637b451df3cf262",
            "0x0000000000000000000000000000000000000000000000000000000000000000"
          ],
          "data": "0x000000000000000000000000000000000000000000000000000009184e72a000",
          "blockHash": "0x49bb34400afc4eb33f9d1719958f45d06e0782413e7d778f801edf3ffbe1f418",
          "blockNumber": "0x256bd1a",
          "blockTimestamp": "0x6a03f9d3",
          "transactionHash": "0x041d845e37515366998d594d8f0a6727be41e93056554065a78b50f181e997c8",
          "transactionIndex": "0xd",
          "logIndex": "0x36",
          "removed": false
        },
        {
          "address": "0x2367325334447c5e1e0f1b3a6fb947b262f58312",
          "topics": [
            "0x61ed099e74a97a1d7f8bb0952a88ca8b7b8ebd00c126ea04671f92a81213318a"
          ],
          "data": "0x0000000000000000000000004208d6e27538189bb48e603d6123a94b8abe0a0b0000000000000000000000000000000000000000000000000000082b3f683b20",
          "blockHash": "0x49bb34400afc4eb33f9d1719958f45d06e0782413e7d778f801edf3ffbe1f418",
          "blockNumber": "0x256bd1a",
          "blockTimestamp": "0x6a03f9d3",
          "transactionHash": "0x041d845e37515366998d594d8f0a6727be41e93056554065a78b50f181e997c8",
          "transactionIndex": "0xd",
          "logIndex": "0x37",
          "removed": false
        },
        {
          "address": "0x2367325334447c5e1e0f1b3a6fb947b262f58312",
          "topics": [
            "0x07ea52d82345d6e838192107d8fd7123d9c2ec8e916cd0aad13fd2b60db24644"
          ],
          "data": "0x0000000000000000000000000000000000000000000000000000000000000060000000000000000000000000000000000000000000000000000000000000012000000000000000000000000000000000000000000000000000000000000001400000000000000000000000000000000000000000000000000000000000000005000000000000000000000000315b0e76a510607bb0f706b17716f426d5b385b80000000000000000000000005d8aed4182a8ecc47386e88aa8753dde7423996e000000000000000000000000acde1f22eeab249d3ca6ba8805c8fee9f52a16e7000000000000000000000000cd37ca043f8479064e10635020c65ffc005d36f6000000000000000000000000ce8358bc28dd8296ce8caf1cd2b44787abd6588700000000000000000000000000000000000000000000000000000000000000000000000000000000000000000000000000000000000000000000000000000005000000000000000000000000000000000000000000000000000001810b2b4527000000000000000000000000000000000000000000000000000001688a3a22190000000000000000000000000000000000000000000000000000012b47df4a7600000000000000000000000000000000000000000000000000000112c6ee27680000000000000000000000000000000000000000000000000000012b47df4a76",
          "blockHash": "0x49bb34400afc4eb33f9d1719958f45d06e0782413e7d778f801edf3ffbe1f418",
          "blockNumber": "0x256bd1a",
          "blockTimestamp": "0x6a03f9d3",
          "transactionHash": "0x041d845e37515366998d594d8f0a6727be41e93056554065a78b50f181e997c8",
          "transactionIndex": "0xd",
          "logIndex": "0x38",
          "removed": false
        },
        {
          "address": "0x1a44076050125825900e736c501f859c50fe728c",
          "topics": [
            "0x1ab700d4ced0c005b164c0f789fd09fcbb0156d4c2041b8a3bfbcd961cd1567f"
          ],
          "data": "0x000000000000000000000000000000000000000000000000000000000000006000000000000000000000000000000000000000000000000000000000000001800000000000000000000000002367325334447c5e1e0f1b3a6fb947b262f5831200000000000000000000000000000000000000000000000000000000000000f90100000000000000020000763400000000000000000000000090581eca9469d8d7f5d3b60f4715027adfcf79270000762f00000000000000000000000075c38d46001b0f8108c4136216bd2694982c20fc24402214a58434a66d1e8f3a3fa2889788be465607dde7a46ddc08cbd9695f120000000000000000000000002a2019b30c157db6c1c01306b8025167dbe1803b000000000000000a000000000000000000000000486cb4788f1be7cdef9301a7a637b451df3cf26200000000000000000000000045dce8e4f2dc005a5f28206a46cb034697eeda8e000000000000000000000000000000000000000000000000000000000000768300000000000000000000000000000000000000000000000000000000000000000000000000002c0003010011010000000000000000000000000003d090010013030000000000000000000000000000000f42400000000000000000000000000000000000000000",
          "blockHash": "0x49bb34400afc4eb33f9d1719958f45d06e0782413e7d778f801edf3ffbe1f418",
          "blockNumber": "0x256bd1a",
          "blockTimestamp": "0x6a03f9d3",
          "transactionHash": "0x041d845e37515366998d594d8f0a6727be41e93056554065a78b50f181e997c8",
          "transactionIndex": "0xd",
          "logIndex": "0x39",
          "removed": false
        },
        {
          "address": "0x90581eca9469d8d7f5d3b60f4715027adfcf7927",
          "topics": [
            "0x85496b760a4b7f8d66384b9df21b381f5d1b1e79f229a47aaf4c232edc2fe59a",
            "0x24402214a58434a66d1e8f3a3fa2889788be465607dde7a46ddc08cbd9695f12",
            "0x000000000000000000000000486cb4788f1be7cdef9301a7a637b451df3cf262"
          ],
          "data": "0x000000000000000000000000000000000000000000000000000000000000762f000000000000000000000000000000000000000000000000000009184e72a000000000000000000000000000000000000000000000000000000009184e72a000",
          "blockHash": "0x49bb34400afc4eb33f9d1719958f45d06e0782413e7d778f801edf3ffbe1f418",
          "blockNumber": "0x256bd1a",
          "blockTimestamp": "0x6a03f9d3",
          "transactionHash": "0x041d845e37515366998d594d8f0a6727be41e93056554065a78b50f181e997c8",
          "transactionIndex": "0xd",
          "logIndex": "0x3a",
          "removed": false
        },
        {
          "address": "0x486cb4788f1be7cdef9301a7a637b451df3cf262",
          "topics": [
            "0xbc9ee36b6ca0bdd5b3840e6d329dd19a2490d880c7ce24d9818aa593adfb35be",
            "0x00000000000000000000000045dce8e4f2dc005a5f28206a46cb034697eeda8e",
            "0x0000000000000000000000000000000000000000000000000000000000007683",
            "0x00000000000000000000000045dce8e4f2dc005a5f28206a46cb034697eeda8e"
          ],
          "data": "0x00000000000000000000000090581eca9469d8d7f5d3b60f4715027adfcf7927000000000000000000000000000000000000000000000000000009184e72a000",
          "blockHash": "0x49bb34400afc4eb33f9d1719958f45d06e0782413e7d778f801edf3ffbe1f418",
          "blockNumber": "0x256bd1a",
          "blockTimestamp": "0x6a03f9d3",
          "transactionHash": "0x041d845e37515366998d594d8f0a6727be41e93056554065a78b50f181e997c8",
          "transactionIndex": "0xd",
          "logIndex": "0x3b",
          "removed": false
        }
      ],
      "logsBloom": "0x0000000000000000000000020000000000020000000000000000000000100000000000000000000000000000000000000000000000000000000000000020000000000200000000000000000c000000000000000000000000000000000000000000000000020000008000000000000810000000010010100000010010000000000000000000000004000010080008000000000000200002040000000000002000020000188004000020100000000800000000000000400000000440000000000000000082000000000000084080000100001000000000000000000000000020000010040000000000000000000000802000400020018000000000000000000000",
      "type": "0x2",
      "transactionHash": "0x041d845e37515366998d594d8f0a6727be41e93056554065a78b50f181e997c8",
      "transactionIndex": "0xd",
      "blockHash": "0x49bb34400afc4eb33f9d1719958f45d06e0782413e7d778f801edf3ffbe1f418",
      "blockNumber": "0x256bd1a",
      "gasUsed": "0x977be",
      "effectiveGasPrice": "0x110",
      "blobGasUsed": "0xb860",
      "from": "0x45dce8e4f2dc005a5f28206a46cb034697eeda8e",
      "to": "0x486cb4788f1be7cdef9301a7a637b451df3cf262",
      "contractAddress": null,
      "daFootprintGasScalar": "0x190",
      "l1BaseFeeScalar": "0x186a0",
      "l1BlobBaseFee": "0x3d318e",
      "l1BlobBaseFeeScalar": "0xf79c5",
      "l1Fee": "0x32f7d9cf3",
      "l1GasPrice": "0x422f859",
      "l1GasUsed": "0x76d"
    }
  ],
  "libraries": [],
  "pending": [],
  "returns": {},
  "timestamp": 1778645460386,
  "chain": 34443,
  "commit": "3c1e5d2a"
}