{
  "transactions": [
    {
      "hash": "0xb0b969641983fbdfbd8a918b0c85540bf2700e7d8a74185b549d4129385adb53",
      "transactionType": "CALL",
      "contractName": null,
      "contractAddress": "0x80eede496655fb9047dd39d9f418d5483ed600df",
      "function": "approve(address,uint256)",
      "arguments": [
        "0x938d99A81814f66b01010d19DDce92A633441699",
        "10000000000000"
      ],
      "transaction": {
        "from": "0x45dce8e4f2dc005a5f28206a46cb034697eeda8e",
        "to": "0x80eede496655fb9047dd39d9f418d5483ed600df",
        "gas": "0x132ad",
        "value": "0x0",
        "input": "0x095ea7b3000000000000000000000000938d99a81814f66b01010d19ddce92a633441699000000000000000000000000000000000000000000000000000009184e72a000",
        "nonce": "0x9c",
        "chainId": "0x1e0"
      },
      "additionalContracts": [],
      "isFixedGasLimit": false
    },
    {
      "hash": "0xd12d0ae138382da8072dca219409a89a13d38365d3e018c059091a47142bbefb",
      "transactionType": "CALL",
      "contractName": null,
      "contractAddress": "0x938d99a81814f66b01010d19ddce92a633441699",
      "function": "sendOFT(address,uint32,bytes32,uint256)",
      "arguments": [
        "0x80Eede496655FB9047dd39d9f418d5483ED600df",
        "30165",
        "0x00000000000000000000000045dce8e4f2dc005a5f28206a46cb034697eeda8e",
        "10000000000000"
      ],
      "transaction": {
        "from": "0x45dce8e4f2dc005a5f28206a46cb034697eeda8e",
        "to": "0x938d99a81814f66b01010d19ddce92a633441699",
        "gas": "0xe8906",
        "value": "0x4bab982d20851",
        "input": "0x3e832c9000000000000000000000000080eede496655fb9047dd39d9f418d5483ed600df00000000000000000000000000000000000000000000000000000000000075d500000000000000000000000045dce8e4f2dc005a5f28206a46cb034697eeda8e000000000000000000000000000000000000000000000000000009184e72a000",
        "nonce": "0x9d",
        "chainId": "0x1e0"
      },
      "additionalContracts": [],
      "isFixedGasLimit": false
    },
    {
      "hash": "0x089e3f9f55bd77fb4cb54bf7b2243cc232826ce0dfb06eaa1437429a56b034b3",
      "transactionType": "CALL",
      "contractName": null,
      "contractAddress": "0x5bff88ca1442c2496f7e475e9e7786383bc070c0",
      "function": "approve(address,uint256)",
      "arguments": [
        "0x938d99A81814f66b01010d19DDce92A633441699",
        "10000000000000"
      ],
      "transaction": {
        "from": "0x45dce8e4f2dc005a5f28206a46cb034697eeda8e",
        "to": "0x5bff88ca1442c2496f7e475e9e7786383bc070c0",
        "gas": "0x12184",
        "value": "0x0",
        "input": "0x095ea7b3000000000000000000000000938d99a81814f66b01010d19ddce92a633441699000000000000000000000000000000000000000000000000000009184e72a000",
        "nonce": "0x9e",
        "chainId": "0x1e0"
      },
      "additionalContracts": [],
      "isFixedGasLimit": false
    },
    {
      "hash": "0x3488dc0afdc150af78e395cec0018b2672f8b3d10c10e1a8ad19ad6b0bb6e9ff",
      "transactionType": "CALL",
      "contractName": null,
      "contractAddress": "0x938d99a81814f66b01010d19ddce92a633441699",
      "function": "sendOFT(address,uint32,bytes32,uint256)",
      "arguments": [
        "0x5Bff88cA1442c2496f7E475E9e7786383Bc070c0",
        "30165",
        "0x00000000000000000000000045dce8e4f2dc005a5f28206a46cb034697eeda8e",
        "10000000000000"
      ],
      "transaction": {
        "from": "0x45dce8e4f2dc005a5f28206a46cb034697eeda8e",
        "to": "0x938d99a81814f66b01010d19ddce92a633441699",
        "gas": "0xd743b",
        "value": "0x4bab982d20851",
        "input": "0x3e832c900000000000000000000000005bff88ca1442c2496f7e475e9e7786383bc070c000000000000000000000000000000000000000000000000000000000000075d500000000000000000000000045dce8e4f2dc005a5f28206a46cb034697eeda8e000000000000000000000000000000000000000000000000000009184e72a000",
        "nonce": "0x9f",
        "chainId": "0x1e0"
      },
      "additionalContracts": [],
      "isFixedGasLimit": false
    },
    {
      "hash": "0xf7d8ce798f9469cbb39c8ad387f1cdbe2f1d06294d3e3b4176b23bb0d42f98eb",
      "transactionType": "CALL",
      "contractName": null,
      "contractAddress": "0x43edd7f3831b08fe70b7555ddd373c8bf65a9050",
      "function": "approve(address,uint256)",
      "arguments": [
        "0x938d99A81814f66b01010d19DDce92A633441699",
        "10000000000000"
      ],
      "transaction": {
        "from": "0x45dce8e4f2dc005a5f28206a46cb034697eeda8e",
        "to": "0x43edd7f3831b08fe70b7555ddd373c8bf65a9050",
        "gas": "0x132ad",
        "value": "0x0",
        "input": "0x095ea7b3000000000000000000000000938d99a81814f66b01010d19ddce92a633441699000000000000000000000000000000000000000000000000000009184e72a000",
        "nonce": "0xa0",
        "chainId": "0x1e0"
      },
      "additionalContracts": [],
      "isFixedGasLimit": false
    },
    {
      "hash": "0xaa333133c053677523c5ad008d9da6e4ab4602f4723fe7b3bb562265cab99b98",
      "transactionType": "CALL",
      "contractName": null,
      "contractAddress": "0x938d99a81814f66b01010d19ddce92a633441699",
      "function": "sendOFT(address,uint32,bytes32,uint256)",
      "arguments": [
        "0x43eDD7f3831b08FE70B7555ddD373C8bF65a9050",
        "30165",
        "0x00000000000000000000000045dce8e4f2dc005a5f28206a46cb034697eeda8e",
        "10000000000000"
      ],
      "transaction": {
        "from": "0x45dce8e4f2dc005a5f28206a46cb034697eeda8e",
        "to": "0x938d99a81814f66b01010d19ddce92a633441699",
        "gas": "0xd7459",
        "value": "0x4bab982d20851",
        "input": "0x3e832c9000000000000000000000000043edd7f3831b08fe70b7555ddd373c8bf65a905000000000000000000000000000000000000000000000000000000000000075d500000000000000000000000045dce8e4f2dc005a5f28206a46cb034697eeda8e000000000000000000000000000000000000000000000000000009184e72a000",
        "nonce": "0xa1",
        "chainId": "0x1e0"
      },
      "additionalContracts": [],
      "isFixedGasLimit": false
    },
    {
      "hash": "0x7dec2fb2732dda75062c73fce709ac9534c91bfd397d21a49917e2538f3edab0",
      "transactionType": "CALL",
      "contractName": null,
      "contractAddress": "0x3ec3849c33291a9ef4c5db86de593eb4a37fde45",
      "function": "approve(address,uint256)",
      "arguments": [
        "0x938d99A81814f66b01010d19DDce92A633441699",
        "10000000000000"
      ],
      "transaction": {
        "from": "0x45dce8e4f2dc005a5f28206a46cb034697eeda8e",
        "to": "0x3ec3849c33291a9ef4c5db86de593eb4a37fde45",
        "gas": "0x132ad",
        "value": "0x0",
        "input": "0x095ea7b3000000000000000000000000938d99a81814f66b01010d19ddce92a633441699000000000000000000000000000000000000000000000000000009184e72a000",
        "nonce": "0xa2",
        "chainId": "0x1e0"
      },
      "additionalContracts": [],
      "isFixedGasLimit": false
    },
    {
      "hash": "0x0c3c164bae42088e1fe30817611c1aba13c8fa267672b7a2e47d067cfdd9cad6",
      "transactionType": "CALL",
      "contractName": null,
      "contractAddress": "0x938d99a81814f66b01010d19ddce92a633441699",
      "function": "sendOFT(address,uint32,bytes32,uint256)",
      "arguments": [
        "0x3Ec3849C33291a9eF4c5dB86De593EB4A37fDe45",
        "30165",
        "0x00000000000000000000000045dce8e4f2dc005a5f28206a46cb034697eeda8e",
        "10000000000000"
      ],
      "transaction": {
        "from": "0x45dce8e4f2dc005a5f28206a46cb034697eeda8e",
        "to": "0x938d99a81814f66b01010d19ddce92a633441699",
        "gas": "0xd7459",
        "value": "0x4bab982d20851",
        "input": "0x3e832c900000000000000000000000003ec3849c33291a9ef4c5db86de593eb4a37fde4500000000000000000000000000000000000000000000000000000000000075d500000000000000000000000045dce8e4f2dc005a5f28206a46cb034697eeda8e000000000000000000000000000000000000000000000000000009184e72a000",
        "nonce": "0xa3",
        "chainId": "0x1e0"
      },
      "additionalContracts": [],
      "isFixedGasLimit": false
    },
    {
      "hash": "0x16569eb1cf9256857ba5168ad46cf38983732099490d1f4253433f74d2463d1b",
      "transactionType": "CALL",
      "contractName": null,
      "contractAddress": "0x64445f0aecc51e94ad52d8ac56b7190e764e561a",
      "function": "approve(address,uint256)",
      "arguments": [
        "0x938d99A81814f66b01010d19DDce92A633441699",
        "10000000000000"
      ],
      "transaction": {
        "from": "0x45dce8e4f2dc005a5f28206a46cb034697eeda8e",
        "to": "0x64445f0aecc51e94ad52d8ac56b7190e764e561a",
        "gas": "0x12184",
        "value": "0x0",
        "input": "0x095ea7b3000000000000000000000000938d99a81814f66b01010d19ddce92a633441699000000000000000000000000000000000000000000000000000009184e72a000",
        "nonce": "0xa4",
        "chainId": "0x1e0"
      },
      "additionalContracts": [],
      "isFixedGasLimit": false
    },
    {
      "hash": "0x7b630a1e48c2622a78e842d3452724037e0aa61b8042462d189d8506c42e2db2",
      "transactionType": "CALL",
      "contractName": null,
      "contractAddress": "0x938d99a81814f66b01010d19ddce92a633441699",
      "function": "sendOFT(address,uint32,bytes32,uint256)",
      "arguments": [
        "0x64445f0aecC51E94aD52d8AC56b7190e764E561a",
        "30165",
        "0x00000000000000000000000045dce8e4f2dc005a5f28206a46cb034697eeda8e",
        "10000000000000"
      ],
      "transaction": {
        "from": "0x45dce8e4f2dc005a5f28206a46cb034697eeda8e",
        "to": "0x938d99a81814f66b01010d19ddce92a633441699",
        "gas": "0xd743b",
        "value": "0x4bab982d20851",
        "input": "0x3e832c9000000000000000000000000064445f0aecc51e94ad52d8ac56b7190e764e561a00000000000000000000000000000000000000000000000000000000000075d500000000000000000000000045dce8e4f2dc005a5f28206a46cb034697eeda8e000000000000000000000000000000000000000000000000000009184e72a000",
        "nonce": "0xa5",
        "chainId": "0x1e0"
      },
      "additionalContracts": [],
      "isFixedGasLimit": false
    },
    {
      "hash": "0x476b86bbc51bb7952a106c87f6a3256226495fb84e6100b4ec02f994eee119ff",
      "transactionType": "CALL",
      "contractName": null,
      "contractAddress": "0x90581eca9469d8d7f5d3b60f4715027adfcf7927",
      "function": "approve(address,uint256)",
      "arguments": [
        "0x938d99A81814f66b01010d19DDce92A633441699",
        "10000000000000"
      ],
      "transaction": {
        "from": "0x45dce8e4f2dc005a5f28206a46cb034697eeda8e",
        "to": "0x90581eca9469d8d7f5d3b60f4715027adfcf7927",
        "gas": "0x132ad",
        "value": "0x0",
        "input": "0x095ea7b3000000000000000000000000938d99a81814f66b01010d19ddce92a633441699000000000000000000000000000000000000000000000000000009184e72a000",
        "nonce": "0xa6",
        "chainId": "0x1e0"
      },
      "additionalContracts": [],
      "isFixedGasLimit": false
    },
    {
      "hash": "0x61276547490c59dff2969dc2c4730531bfd919d67b9cd2c272240715b0fa946d",
      "transactionType": "CALL",
      "contractName": null,
      "contractAddress": "0x938d99a81814f66b01010d19ddce92a633441699",
      "function": "sendOFT(address,uint32,bytes32,uint256)",
      "arguments": [
        "0x90581eCa9469D8D7F5D3B60f4715027aDFCf7927",
        "30165",
        "0x00000000000000000000000045dce8e4f2dc005a5f28206a46cb034697eeda8e",
        "10000000000000"
      ],
      "transaction": {
        "from": "0x45dce8e4f2dc005a5f28206a46cb034697eeda8e",
        "to": "0x938d99a81814f66b01010d19ddce92a633441699",
        "gas": "0xd7459",
        "value": "0x4bab982d20851",
        "input": "0x3e832c9000000000000000000000000090581eca9469d8d7f5d3b60f4715027adfcf792700000000000000000000000000000000000000000000000000000000000075d500000000000000000000000045dce8e4f2dc005a5f28206a46cb034697eeda8e000000000000000000000000000000000000000000000000000009184e72a000",
        "nonce": "0xa7",
        "chainId": "0x1e0"
      },
      "additionalContracts": [],
      "isFixedGasLimit": false
    }
  ],
  "receipts": [
    {
      "status": "0x1",
      "cumulativeGasUsed": "0x58763e",
      "logs": [
        {
          "address": "0x80eede496655fb9047dd39d9f418d5483ed600df",
          "topics": [
            "0x8c5be1e5ebec7d5bd14f71427d1e84f3dd0314c0f7b2291e5b200ac8c7c3b925",
            "0x00000000000000000000000045dce8e4f2dc005a5f28206a46cb034697eeda8e",
            "0x000000000000000000000000938d99a81814f66b01010d19ddce92a633441699"
          ],
          "data": "0x000000000000000000000000000000000000000000000000000009184e72a000",
          "blockHash": "0xe11247f98ab89ac70487403b640db8c9f1acf428d4db1859c2419495cb5a10e0",
          "blockNumber": "0x1c47766",
          "blockTimestamp": "0x6a03e9a3",
          "transactionHash": "0x3488dc0afdc150af78e395cec0018b2672f8b3d10c10e1a8ad19ad6b0bb6e9ff",
          "transactionIndex": "0x18",
          "logIndex": "0x64",
          "removed": false
        }
      ],
      "logsBloom": "0x00000000000000000000000200000000000000000000000000000000000000000000000000000400000000000800000000000000000000000000000200200000000000000000000000000000000000000002000000000000000000000000000000000000000000200000000000000000000000000000000000000000010000000000000000000000000000000000000000000000000000000000000000000000020000000000000000000000000000000000000000000000000000000000000000000000000000000000000000000000001000000000000000000000000000000010000000000000000000000000800000000000000000000000000000000000",
      "type": "0x2",
      "transactionHash": "0x3488dc0afdc150af78e395cec0018b2672f8b3d10c10e1a8ad19ad6b0bb6e9ff",
      "transactionIndex": "0x18",
      "blockHash": "0xe11247f98ab89ac70487403b640db8c9f1acf428d4db1859c2419495cb5a10e0",
      "blockNumber": "0x1c47766",
      "gasUsed": "0xd1b2",
      "effectiveGasPrice": "0x927c0",
      "blobGasUsed": "0x9c40",
      "from": "0x45dce8e4f2dc005a5f28206a46cb034697eeda8e",
      "to": "0x80eede496655fb9047dd39d9f418d5483ed600df",
      "contractAddress": null,
      "daFootprintGasScalar": "0x190",
      "l1BaseFeeScalar": "0x21f9",
      "l1BlobBaseFee": "0x599b98",
      "l1BlobBaseFeeScalar": "0xdd3ef",
      "l1Fee": "0x78ac6705",
      "l1GasPrice": "0x6647abc",
      "l1GasUsed": "0x640"
    },
    {
      "status": "0x1",
      "cumulativeGasUsed": "0x626689",
      "logs": [
        {
          "address": "0x80eede496655fb9047dd39d9f418d5483ed600df",
          "topics": [
            "0x8c5be1e5ebec7d5bd14f71427d1e84f3dd0314c0f7b2291e5b200ac8c7c3b925",
            "0x00000000000000000000000045dce8e4f2dc005a5f28206a46cb034697eeda8e",
            "0x000000000000000000000000938d99a81814f66b01010d19ddce92a633441699"
          ],
          "data": "0x0000000000000000000000000000000000000000000000000000000000000000",
          "blockHash": "0xe11247f98ab89ac70487403b640db8c9f1acf428d4db1859c2419495cb5a10e0",
          "blockNumber": "0x1c47766",
          "blockTimestamp": "0x6a03e9a3",
          "transactionHash": "0xb0b969641983fbdfbd8a918b0c85540bf2700e7d8a74185b549d4129385adb53",
          "transactionIndex": "0x19",
          "logIndex": "0x65",
          "removed": false
        },
        {
          "address": "0x80eede496655fb9047dd39d9f418d5483ed600df",
          "topics": [
            "0xddf252ad1be2c89b69c2b068fc378daa952ba7f163c4a11628f55a4df523b3ef",
            "0x00000000000000000000000045dce8e4f2dc005a5f28206a46cb034697eeda8e",
            "0x000000000000000000000000938d99a81814f66b01010d19ddce92a633441699"
          ],
          "data": "0x000000000000000000000000000000000000000000000000000009184e72a000",
          "blockHash": "0xe11247f98ab89ac70487403b640db8c9f1acf428d4db1859c2419495cb5a10e0",
          "blockNumber": "0x1c47766",
          "blockTimestamp": "0x6a03e9a3",
          "transactionHash": "0xb0b969641983fbdfbd8a918b0c85540bf2700e7d8a74185b549d4129385adb53",
          "transactionIndex": "0x19",
          "logIndex": "0x66",
          "removed": false
        },
        {
          "address": "0x80eede496655fb9047dd39d9f418d5483ed600df",
          "topics": [
            "0x8c5be1e5ebec7d5bd14f71427d1e84f3dd0314c0f7b2291e5b200ac8c7c3b925",
            "0x000000000000000000000000938d99a81814f66b01010d19ddce92a633441699",
            "0x00000000000000000000000080eede496655fb9047dd39d9f418d5483ed600df"
          ],
          "data": "0x000000000000000000000000000000000000000000000000000009184e72a000",
          "blockHash": "0xe11247f98ab89ac70487403b640db8c9f1acf428d4db1859c2419495cb5a10e0",
          "blockNumber": "0x1c47766",
          "blockTimestamp": "0x6a03e9a3",
          "transactionHash": "0xb0b969641983fbdfbd8a918b0c85540bf2700e7d8a74185b549d4129385adb53",
          "transactionIndex": "0x19",
          "logIndex": "0x67",
          "removed": false
        },
        {
          "address": "0x80eede496655fb9047dd39d9f418d5483ed600df",
          "topics": [
            "0xddf252ad1be2c89b69c2b068fc378daa952ba7f163c4a11628f55a4df523b3ef",
            "0x000000000000000000000000938d99a81814f66b01010d19ddce92a633441699",
            "0x0000000000000000000000000000000000000000000000000000000000000000"
          ],
          "data": "0x000000000000000000000000000000000000000000000000000009184e72a000",
          "blockHash": "0xe11247f98ab89ac70487403b640db8c9f1acf428d4db1859c2419495cb5a10e0",
          "blockNumber": "0x1c47766",
          "blockTimestamp": "0x6a03e9a3",
          "transactionHash": "0xb0b969641983fbdfbd8a918b0c85540bf2700e7d8a74185b549d4129385adb53",
          "transactionIndex": "0x19",
          "logIndex": "0x68",
          "removed": false
        },
        {
          "address": "0xc39161c743d0307eb9bcc9fef03eeb9dc4802de7",
          "topics": [
            "0x61ed099e74a97a1d7f8bb0952a88ca8b7b8ebd00c126ea04671f92a81213318a"
          ],
          "data": "0x000000000000000000000000cce466a522984415bc91338c232d98869193d46e0000000000000000000000000000000000000000000000000000081121b6c570",
          "blockHash": "0xe11247f98ab89ac70487403b640db8c9f1acf428d4db1859c2419495cb5a10e0",
          "blockNumber": "0x1c47766",
          "blockTimestamp": "0x6a03e9a3",
          "transactionHash": "0xb0b969641983fbdfbd8a918b0c85540bf2700e7d8a74185b549d4129385adb53",
          "transactionIndex": "0x19",
          "logIndex": "0x69",
          "removed": false
        },
        {
          "address": "0xc39161c743d0307eb9bcc9fef03eeb9dc4802de7",
          "topics": [
            "0x07ea52d82345d6e838192107d8fd7123d9c2ec8e916cd0aad13fd2b60db24644"
          ],
          "data": "0x00000000000000000000000000000000000000000000000000000000000000600000000000000000000000000000000000000000000000000000000000000120000000000000000000000000000000000000000000000000000000000000014000000000000000000000000000000000000000000000000000000000000000050000000000000000000000006788f52439aca6bff597d3eec2dc9a44b8fee84200000000000000000000000095729ea44326f8add8a9b1d987279dbdc1dd3dff000000000000000000000000dd7b5e1db4aafd5c8ec3b764efb8ed265aa5445b000000000000000000000000e16561b56bdf003b785347d237905bae24f5f973000000000000000000000000e9c24dd582e37faaca7d44c799530688de92da7300000000000000000000000000000000000000000000000000000000000000000000000000000000000000000000000000000000000000000000000000000005000000000000000000000000000000000000000000000000000000ee4af9b456000000000000000000000000000000000000000000000000000001329420ee3a000000000000000000000000000000000000000000000000000000dac85c3615000000000000000000000000000000000000000000000000000001329420ee3a0000000000000000000000000000000000000000000000000000011f11836ff9",
          "blockHash": "0xe11247f98ab89ac70487403b640db8c9f1acf428d4db1859c2419495cb5a10e0",
          "blockNumber": "0x1c47766",
          "blockTimestamp": "0x6a03e9a3",
          "transactionHash": "0xb0b969641983fbdfbd8a918b0c85540bf2700e7d8a74185b549d4129385adb53",
          "transactionIndex": "0x19",
          "logIndex": "0x6a",
          "removed": false
        },
        {
          "address": "0x6f475642a6e85809b1c36fa62763669b1b48dd5b",
          "topics": [
            "0x1ab700d4ced0c005b164c0f789fd09fcbb0156d4c2041b8a3bfbcd961cd1567f"
          ],
          "data": "0x00000000000000000000000000000000000000000000000000000000000000600000000000000000000000000000000000000000000000000000000000000180000000000000000000000000c39161c743d0307eb9bcc9fef03eeb9dc4802de700000000000000000000000000000000000000000000000000000000000000f90100000000000000010000766f00000000000000000000000080eede496655fb9047dd39d9f418d5483ed600df0000762f00000000000000000000000096a394058e2b84a89bac9667b19661ed003cf5d492389c22be1ec89a370893404954623a458cf1ac98391ab383b1a97567bb5ee40000000000000000000000002a2019b30c157db6c1c01306b8025167dbe1803b000000000000000a000000000000000000000000938d99a81814f66b01010d19ddce92a63344169900000000000000000000000045dce8e4f2dc005a5f28206a46cb034697eeda8e00000000000000000000000000000000000000000000000000000000000075d500000000000000000000000000000000000000000000000000000000000000000000000000002c0003010011010000000000000000000000000003d090010013030000000000000000000000000000000f42400000000000000000000000000000000000000000",
          "blockHash": "0xe11247f98ab89ac70487403b640db8c9f1acf428d4db1859c2419495cb5a10e0",
          "blockNumber": "0x1c47766",
          "blockTimestamp": "0x6a03e9a3",
          "transactionHash": "0xb0b969641983fbdfbd8a918b0c85540bf2700e7d8a74185b549d4129385adb53",
          "transactionIndex": "0x19",
          "logIndex": "0x6b",
          "removed": false
        },
        {
          "address": "0x80eede496655fb9047dd39d9f418d5483ed600df",
          "topics": [
            "0x85496b760a4b7f8d66384b9df21b381f5d1b1e79f229a47aaf4c232edc2fe59a",
            "0x92389c22be1ec89a370893404954623a458cf1ac98391ab383b1a97567bb5ee4",
            "0x000000000000000000000000938d99a81814f66b01010d19ddce92a633441699"
          ],
          "data": "0x000000000000000000000000000000000000000000000000000000000000762f000000000000000000000000000000000000000000000000000009184e72a000000000000000000000000000000000000000000000000000000009184e72a000",
          "blockHash": "0xe11247f98ab89ac70487403b640db8c9f1acf428d4db1859c2419495cb5a10e0",
          "blockNumber": "0x1c47766",
          "blockTimestamp": "0x6a03e9a3",
          "transactionHash": "0xb0b969641983fbdfbd8a918b0c85540bf2700e7d8a74185b549d4129385adb53",
          "transactionIndex": "0x19",
          "logIndex": "0x6c",
          "removed": false
        },
        {
          "address": "0x938d99a81814f66b01010d19ddce92a633441699",
          "topics": [
            "0xbc9ee36b6ca0bdd5b3840e6d329dd19a2490d880c7ce24d9818aa593adfb35be",
            "0x00000000000000000000000045dce8e4f2dc005a5f28206a46cb034697eeda8e",
            "0x00000000000000000000000000000000000000000000000000000000000075d5",
            "0x00000000000000000000000045dce8e4f2dc005a5f28206a46cb034697eeda8e"
          ],
          "data": "0x00000000000000000000000080eede496655fb9047dd39d9f418d5483ed600df000000000000000000000000000000000000000000000000000009184e72a000",
          "blockHash": "0xe11247f98ab89ac70487403b640db8c9f1acf428d4db1859c2419495cb5a10e0",
          "blockNumber": "0x1c47766",
          "blockTimestamp": "0x6a03e9a3",
          "transactionHash": "0xb0b969641983fbdfbd8a918b0c85540bf2700e7d8a74185b549d4129385adb53",
          "transactionIndex": "0x19",
          "logIndex": "0x6d",
          "removed": false
        }
      ],
      "logsBloom": "0x00100000000000000000000200002000000000000000000000040000000000000000080000000400000000000800000000000000000000000000000200200400000002000000000000000008000000000142000000000000000000000000000000200000020000208020000000000800000000000000100000000010010000000000000000800000000000080000000000000000000000000000000000000000020000108000000020100000000000000000000002400000000440000000010000000002000000000000000080000000001000000000000010080000000020004010040020000000000000000000802008000000008000000000000000000000",
      "type": "0x2",
      "transactionHash": "0xb0b969641983fbdfbd8a918b0c85540bf2700e7d8a74185b549d4129385adb53",
      "transactionIndex": "0x19",
      "blockHash": "0xe11247f98ab89ac70487403b640db8c9f1acf428d4db1859c2419495cb5a10e0",
      "blockNumber": "0x1c47766",
      "gasUsed": "0x9f04b",
      "effectiveGasPrice": "0x927c0",
      "blobGasUsed": "0xc030",
      "from": "0x45dce8e4f2dc005a5f28206a46cb034697eeda8e",
      "to": "0x938d99a81814f66b01010d19ddce92a633441699",
      "contractAddress": null,
      "daFootprintGasScalar": "0x190",
      "l1BaseFeeScalar": "0x21f9",
      "l1BlobBaseFee": "0x599b98",
      "l1BlobBaseFeeScalar": "0xdd3ef",
      "l1Fee": "0x947a71c7",
      "l1GasPrice": "0x6647abc",
      "l1GasUsed": "0x7b0"
    },
    {
      "status": "0x1",
      "cumulativeGasUsed": "0x633825",
      "logs": [
        {
          "address": "0x5bff88ca1442c2496f7e475e9e7786383bc070c0",
          "topics": [
            "0x8c5be1e5ebec7d5bd14f71427d1e84f3dd0314c0f7b2291e5b200ac8c7c3b925",
            "0x00000000000000000000000045dce8e4f2dc005a5f28206a46cb034697eeda8e",
            "0x000000000000000000000000938d99a81814f66b01010d19ddce92a633441699"
          ],
          "data": "0x000000000000000000000000000000000000000000000000000009184e72a000",
          "blockHash": "0xe11247f98ab89ac70487403b640db8c9f1acf428d4db1859c2419495cb5a10e0",
          "blockNumber": "0x1c47766",
          "blockTimestamp": "0x6a03e9a3",
          "transactionHash": "0xd12d0ae138382da8072dca219409a89a13d38365d3e018c059091a47142bbefb",
          "transactionIndex": "0x1a",
          "logIndex": "0x6e",
          "removed": false
        }
      ],
      "logsBloom": "0x00000000000000000000000200000000000000000000000000000000000000000000000000000400000000000000000000000000000000000000000000200000000000000000000000000000000000000002000000000000000000000000000000000000000000200000000000000000000000000000000000000000000000000000000000000000000000000000000000000000000000000000000000000000020000000000000000000000000000000000000000000000000000000010000000000000000000000000000000000000001000800000000000000000000000000010000000000000000000000000800000000000000000000000000000000800",
      "type": "0x2",
      "transactionHash": "0xd12d0ae138382da8072dca219409a89a13d38365d3e018c059091a47142bbefb",
      "transactionIndex": "0x1a",
      "blockHash": "0xe11247f98ab89ac70487403b640db8c9f1acf428d4db1859c2419495cb5a10e0",
      "blockNumber": "0x1c47766",
      "gasUsed": "0xd19c",
      "effectiveGasPrice": "0x927c0",
      "blobGasUsed": "0x9c40",
      "from": "0x45dce8e4f2dc005a5f28206a46cb034697eeda8e",
      "to": "0x5bff88ca1442c2496f7e475e9e7786383bc070c0",
      "contractAddress": null,
      "daFootprintGasScalar": "0x190",
      "l1BaseFeeScalar": "0x21f9",
      "l1BlobBaseFee": "0x599b98",
      "l1BlobBaseFeeScalar": "0xdd3ef",
      "l1Fee": "0x78ac6705",
      "l1GasPrice": "0x6647abc",
      "l1GasUsed": "0x640"
    },
    {
      "status": "0x1",
      "cumulativeGasUsed": "0x6cf5b5",
      "logs": [
        {
          "address": "0x5bff88ca1442c2496f7e475e9e7786383bc070c0",
          "topics": [
            "0x8c5be1e5ebec7d5bd14f71427d1e84f3dd0314c0f7b2291e5b200ac8c7c3b925",
            "0x00000000000000000000000045dce8e4f2dc005a5f28206a46cb034697eeda8e",
            "0x000000000000000000000000938d99a81814f66b01010d19ddce92a633441699"
          ],
          "data": "0x0000000000000000000000000000000000000000000000000000000000000000",
          "blockHash": "0xe11247f98ab89ac70487403b640db8c9f1acf428d4db1859c2419495cb5a10e0",
          "blockNumber": "0x1c47766",
          "blockTimestamp": "0x6a03e9a3",
          "transactionHash": "0x089e3f9f55bd77fb4cb54bf7b2243cc232826ce0dfb06eaa1437429a56b034b3",
          "transactionIndex": "0x1b",
          "logIndex": "0x6f",
          "removed": false
        },
        {
          "address": "0x5bff88ca1442c2496f7e475e9e7786383bc070c0",
          "topics": [
            "0xddf252ad1be2c89b69c2b068fc378daa952ba7f163c4a11628f55a4df523b3ef",
            "0x00000000000000000000000045dce8e4f2dc005a5f28206a46cb034697eeda8e",
            "0x000000000000000000000000938d99a81814f66b01010d19ddce92a633441699"
          ],
          "data": "0x000000000000000000000000000000000000000000000000000009184e72a000",
          "blockHash": "0xe11247f98ab89ac70487403b640db8c9f1acf428d4db1859c2419495cb5a10e0",
          "blockNumber": "0x1c47766",
          "blockTimestamp": "0x6a03e9a3",
          "transactionHash": "0x089e3f9f55bd77fb4cb54bf7b2243cc232826ce0dfb06eaa1437429a56b034b3",
          "transactionIndex": "0x1b",
          "logIndex": "0x70",
          "removed": false
        },
        {
          "address": "0x5bff88ca1442c2496f7e475e9e7786383bc070c0",
          "topics": [
            "0x8c5be1e5ebec7d5bd14f71427d1e84f3dd0314c0f7b2291e5b200ac8c7c3b925",
            "0x000000000000000000000000938d99a81814f66b01010d19ddce92a633441699",
            "0x0000000000000000000000005bff88ca1442c2496f7e475e9e7786383bc070c0"
          ],
          "data": "0x000000000000000000000000000000000000000000000000000009184e72a000",
          "blockHash": "0xe11247f98ab89ac70487403b640db8c9f1acf428d4db1859c2419495cb5a10e0",
          "blockNumber": "0x1c47766",
          "blockTimestamp": "0x6a03e9a3",
          "transactionHash": "0x089e3f9f55bd77fb4cb54bf7b2243cc232826ce0dfb06eaa1437429a56b034b3",
          "transactionIndex": "0x1b",
          "logIndex": "0x71",
          "removed": false
        },
        {
          "address": "0x5bff88ca1442c2496f7e475e9e7786383bc070c0",
          "topics": [
            "0xddf252ad1be2c89b69c2b068fc378daa952ba7f163c4a11628f55a4df523b3ef",
            "0x000000000000000000000000938d99a81814f66b01010d19ddce92a633441699",
            "0x0000000000000000000000000000000000000000000000000000000000000000"
          ],
          "data": "0x000000000000000000000000000000000000000000000000000009184e72a000",
          "blockHash": "0xe11247f98ab89ac70487403b640db8c9f1acf428d4db1859c2419495cb5a10e0",
          "blockNumber": "0x1c47766",
          "blockTimestamp": "0x6a03e9a3",
          "transactionHash": "0x089e3f9f55bd77fb4cb54bf7b2243cc232826ce0dfb06eaa1437429a56b034b3",
          "transactionIndex": "0x1b",
          "logIndex": "0x72",
          "removed": false
        },
        {
          "address": "0xc39161c743d0307eb9bcc9fef03eeb9dc4802de7",
          "topics": [
            "0x61ed099e74a97a1d7f8bb0952a88ca8b7b8ebd00c126ea04671f92a81213318a"
          ],
          "data": "0x000000000000000000000000cce466a522984415bc91338c232d98869193d46e0000000000000000000000000000000000000000000000000000081121b6c570",
          "blockHash": "0xe11247f98ab89ac70487403b640db8c9f1acf428d4db1859c2419495cb5a10e0",
          "blockNumber": "0x1c47766",
          "blockTimestamp": "0x6a03e9a3",
          "transactionHash": "0x089e3f9f55bd77fb4cb54bf7b2243cc232826ce0dfb06eaa1437429a56b034b3",
          "transactionIndex": "0x1b",
          "logIndex": "0x73",
          "removed": false
        },
        {
          "address": "0xc39161c743d0307eb9bcc9fef03eeb9dc4802de7",
          "topics": [
            "0x07ea52d82345d6e838192107d8fd7123d9c2ec8e916cd0aad13fd2b60db24644"
          ],
          "data": "0x00000000000000000000000000000000000000000000000000000000000000600000000000000000000000000000000000000000000000000000000000000120000000000000000000000000000000000000000000000000000000000000014000000000000000000000000000000000000000000000000000000000000000050000000000000000000000006788f52439aca6bff597d3eec2dc9a44b8fee84200000000000000000000000095729ea44326f8add8a9b1d987279dbdc1dd3dff000000000000000000000000dd7b5e1db4aafd5c8ec3b764efb8ed265aa5445b000000000000000000000000e16561b56bdf003b785347d237905bae24f5f973000000000000000000000000e9c24dd582e37faaca7d44c799530688de92da7300000000000000000000000000000000000000000000000000000000000000000000000000000000000000000000000000000000000000000000000000000005000000000000000000000000000000000000000000000000000000ee4af9b456000000000000000000000000000000000000000000000000000001329420ee3a000000000000000000000000000000000000000000000000000000dac85c3615000000000000000000000000000000000000000000000000000001329420ee3a0000000000000000000000000000000000000000000000000000011f11836ff9",
          "blockHash": "0xe11247f98ab89ac70487403b640db8c9f1acf428d4db1859c2419495cb5a10e0",
          "blockNumber": "0x1c47766",
          "blockTimestamp": "0x6a03e9a3",
          "transactionHash": "0x089e3f9f55bd77fb4cb54bf7b2243cc232826ce0dfb06eaa1437429a56b034b3",
          "transactionIndex": "0x1b",
          "logIndex": "0x74",
          "removed": false
        },
        {
          "address": "0x6f475642a6e85809b1c36fa62763669b1b48dd5b",
          "topics": [
            "0x1ab700d4ced0c005b164c0f789fd09fcbb0156d4c2041b8a3bfbcd961cd1567f"
          ],
          "data": "0x00000000000000000000000000000000000000000000000000000000000000600000000000000000000000000000000000000000000000000000000000000180000000000000000000000000c39161c743d0307eb9bcc9fef03eeb9dc4802de700000000000000000000000000000000000000000000000000000000000000f90100000000000000010000766f0000000000000000000000005bff88ca1442c2496f7e475e9e7786383bc070c00000762f00000000000000000000000088aa7854d3b2daa5e37e7ce73a1f39669623a361b1db07d6ca6fcf776e027662cecfcd28c871a977d55b564703d024dabd026de20000000000000000000000002a2019b30c157db6c1c01306b8025167dbe1803b000000000000000a000000000000000000000000938d99a81814f66b01010d19ddce92a63344169900000000000000000000000045dce8e4f2dc005a5f28206a46cb034697eeda8e00000000000000000000000000000000000000000000000000000000000075d500000000000000000000000000000000000000000000000000000000000000000000000000002c0003010011010000000000000000000000000003d090010013030000000000000000000000000000000f42400000000000000000000000000000000000000000",
          "blockHash": "0xe11247f98ab89ac70487403b640db8c9f1acf428d4db1859c2419495cb5a10e0",
          "blockNumber": "0x1c47766",
          "blockTimestamp": "0x6a03e9a3",
          "transactionHash": "0x089e3f9f55bd77fb4cb54bf7b2243cc232826ce0dfb06eaa1437429a56b034b3",
          "transactionIndex": "0x1b",
          "logIndex": "0x75",
          "removed": false
        },
        {
          "address": "0x5bff88ca1442c2496f7e475e9e7786383bc070c0",
          "topics": [
            "0x85496b760a4b7f8d66384b9df21b381f5d1b1e79f229a47aaf4c232edc2fe59a",
            "0xb1db07d6ca6fcf776e027662cecfcd28c871a977d55b564703d024dabd026de2",
            "0x000000000000000000000000938d99a81814f66b01010d19ddce92a633441699"
          ],
          "data": "0x000000000000000000000000000000000000000000000000000000000000762f000000000000000000000000000000000000000000000000000009184e72a000000000000000000000000000000000000000000000000000000009184e72a000",
          "blockHash": "0xe11247f98ab89ac70487403b640db8c9f1acf428d4db1859c2419495cb5a10e0",
          "blockNumber": "0x1c47766",
          "blockTimestamp": "0x6a03e9a3",
          "transactionHash": "0x089e3f9f55bd77fb4cb54bf7b2243cc232826ce0dfb06eaa1437429a56b034b3",
          "transactionIndex": "0x1b",
          "logIndex": "0x76",
          "removed": false
        },
        {
          "address": "0x938d99a81814f66b01010d19ddce92a633441699",
          "topics": [
            "0xbc9ee36b6ca0bdd5b3840e6d329dd19a2490d880c7ce24d9818aa593adfb35be",
            "0x00000000000000000000000045dce8e4f2dc005a5f28206a46cb034697eeda8e",
            "0x00000000000000000000000000000000000000000000000000000000000075d5",
            "0x00000000000000000000000045dce8e4f2dc005a5f28206a46cb034697eeda8e"
          ],
          "data": "0x0000000000000000000000005bff88ca1442c2496f7e475e9e7786383bc070c0000000000000000000000000000000000000000000000000000009184e72a000",
          "blockHash": "0xe11247f98ab89ac70487403b640db8c9f1acf428d4db1859c2419495cb5a10e0",
          "blockNumber": "0x1c47766",
          "blockTimestamp": "0x6a03e9a3",
          "transactionHash": "0x089e3f9f55bd77fb4cb54bf7b2243cc232826ce0dfb06eaa1437429a56b034b3",
          "transactionIndex": "0x1b",
          "logIndex": "0x77",
          "removed": false
        }
      ],
      "logsBloom": "0x00100000000000000000000200000000000000010000000000040000000000000001000000000400000000000000000000000000000000000000000000200000000002000000000000000008000000000142000000000008000000000000000000200000020000208020000000000801000000000000100000000010000000000000001000800000000000080000000000000000000000000000000000000000020000108000000020100000000000000000000002400000000440000010010000000002000000000000000080000000001000800000000000080000000020004010040000000000000000040000802008000000008000000000000000000800",
      "type": "0x2",
      "transactionHash": "0x089e3f9f55bd77fb4cb54bf7b2243cc232826ce0dfb06eaa1437429a56b034b3",
      "transactionIndex": "0x1b",
      "blockHash": "0xe11247f98ab89ac70487403b640db8c9f1acf428d4db1859c2419495cb5a10e0",
      "blockNumber": "0x1c47766",
      "gasUsed": "0x9bd90",
      "effectiveGasPrice": "0x927c0",
      "blobGasUsed": "0xc030",
      "from": "0x45dce8e4f2dc005a5f28206a46cb034697eeda8e",
      "to": "0x938d99a81814f66b01010d19ddce92a633441699",
      "contractAddress": null,
      "daFootprintGasScalar": "0x190",
      "l1BaseFeeScalar": "0x21f9",
      "l1BlobBaseFee": "0x599b98",
      "l1BlobBaseFeeScalar": "0xdd3ef",
      "l1Fee": "0x947a71c7",
      "l1GasPrice": "0x6647abc",
      "l1GasUsed": "0x7b0"
    },
    {
      "status": "0x1",
      "cumulativeGasUsed": "0x6dc767",
      "logs": [
        {
          "address": "0x43edd7f3831b08fe70b7555ddd373c8bf65a9050",
          "topics": [
            "0x8c5be1e5ebec7d5bd14f71427d1e84f3dd0314c0f7b2291e5b200ac8c7c3b925",
            "0x00000000000000000000000045dce8e4f2dc005a5f28206a46cb034697eeda8e",
            "0x000000000000000000000000938d99a81814f66b01010d19ddce92a633441699"
          ],
          "data": "0x000000000000000000000000000000000000000000000000000009184e72a000",
          "blockHash": "0xe11247f98ab89ac70487403b640db8c9f1acf428d4db1859c2419495cb5a10e0",
          "blockNumber": "0x1c47766",
          "blockTimestamp": "0x6a03e9a3",
          "transactionHash": "0xf7d8ce798f9469cbb39c8ad387f1cdbe2f1d06294d3e3b4176b23bb0d42f98eb",
          "transactionIndex": "0x1c",
          "logIndex": "0x78",
          "removed": false
        }
      ],
      "logsBloom": "0x00000000000000000000000200000000000000000000000000000000000000000000000000000400000000000000000000000000000000000000000000200000000000000000000000000000000000000002000000000000000000000000000000000000000000200000000000000000000000000000000000000000000000000000000000000000000000000000000000000000000000000000000000000000020000000000000002000000000000000000000000000000000000000000000000000000000000000000000000000000001000000000000000000000000000000010000000000000000000040000800000000000000000000000000000080000",
      "type": "0x2",
      "transactionHash": "0xf7d8ce798f9469cbb39c8ad387f1cdbe2f1d06294d3e3b4176b23bb0d42f98eb",
      "transactionIndex": "0x1c",
      "blockHash": "0xe11247f98ab89ac70487403b640db8c9f1acf428d4db1859c2419495cb5a10e0",
      "blockNumber": "0x1c47766",
      "gasUsed": "0xd1b2",
      "effectiveGasPrice": "0x927c0",
      "blobGasUsed": "0x9c40",
      "from": "0x45dce8e4f2dc005a5f28206a46cb034697eeda8e",
      "to": "0x43edd7f3831b08fe70b7555ddd373c8bf65a9050",
      "contractAddress": null,
      "daFootprintGasScalar": "0x190",
      "l1BaseFeeScalar": "0x21f9",
      "l1BlobBaseFee": "0x599b98",
      "l1BlobBaseFeeScalar": "0xdd3ef",
      "l1Fee": "0x78ac6705",
      "l1GasPrice": "0x6647abc",
      "l1GasUsed": "0x640"
    },
    {
      "status": "0x1",
      "cumulativeGasUsed": "0x77850d",
      "logs": [
        {
          "address": "0x43edd7f3831b08fe70b7555ddd373c8bf65a9050",
          "topics": [
            "0x8c5be1e5ebec7d5bd14f71427d1e84f3dd0314c0f7b2291e5b200ac8c7c3b925",
            "0x00000000000000000000000045dce8e4f2dc005a5f28206a46cb034697eeda8e",
            "0x000000000000000000000000938d99a81814f66b01010d19ddce92a633441699"
          ],
          "data": "0x0000000000000000000000000000000000000000000000000000000000000000",
          "blockHash": "0xe11247f98ab89ac70487403b640db8c9f1acf428d4db1859c2419495cb5a10e0",
          "blockNumber": "0x1c47766",
          "blockTimestamp": "0x6a03e9a3",
          "transactionHash": "0x7b630a1e48c2622a78e842d3452724037e0aa61b8042462d189d8506c42e2db2",
          "transactionIndex": "0x1d",
          "logIndex": "0x79",
          "removed": false
        },
        {
          "address": "0x43edd7f3831b08fe70b7555ddd373c8bf65a9050",
          "topics": [
            "0xddf252ad1be2c89b69c2b068fc378daa952ba7f163c4a11628f55a4df523b3ef",
            "0x00000000000000000000000045dce8e4f2dc005a5f28206a46cb034697eeda8e",
            "0x000000000000000000000000938d99a81814f66b01010d19ddce92a633441699"
          ],
          "data": "0x000000000000000000000000000000000000000000000000000009184e72a000",
          "blockHash": "0xe11247f98ab89ac70487403b640db8c9f1acf428d4db1859c2419495cb5a10e0",
          "blockNumber": "0x1c47766",
          "blockTimestamp": "0x6a03e9a3",
          "transactionHash": "0x7b630a1e48c2622a78e842d3452724037e0aa61b8042462d189d8506c42e2db2",
          "transactionIndex": "0x1d",
          "logIndex": "0x7a",
          "removed": false
        },
        {
          "address": "0x43edd7f3831b08fe70b7555ddd373c8bf65a9050",
          "topics": [
            "0x8c5be1e5ebec7d5bd14f71427d1e84f3dd0314c0f7b2291e5b200ac8c7c3b925",
            "0x000000000000000000000000938d99a81814f66b01010d19ddce92a633441699",
            "0x00000000000000000000000043edd7f3831b08fe70b7555ddd373c8bf65a9050"
          ],
          "data": "0x000000000000000000000000000000000000000000000000000009184e72a000",
          "blockHash": "0xe11247f98ab89ac70487403b640db8c9f1acf428d4db1859c2419495cb5a10e0",
          "blockNumber": "0x1c47766",
          "blockTimestamp": "0x6a03e9a3",
          "transactionHash": "0x7b630a1e48c2622a78e842d3452724037e0aa61b8042462d189d8506c42e2db2",
          "transactionIndex": "0x1d",
          "logIndex": "0x7b",
          "removed": false
        },
        {
          "address": "0x43edd7f3831b08fe70b7555ddd373c8bf65a9050",
          "topics": [
            "0xddf252ad1be2c89b69c2b068fc378daa952ba7f163c4a11628f55a4df523b3ef",
            "0x000000000000000000000000938d99a81814f66b01010d19ddce92a633441699",
            "0x0000000000000000000000000000000000000000000000000000000000000000"
          ],
          "data": "0x000000000000000000000000000000000000000000000000000009184e72a000",
          "blockHash": "0xe11247f98ab89ac70487403b640db8c9f1acf428d4db1859c2419495cb5a10e0",
          "blockNumber": "0x1c47766",
          "blockTimestamp": "0x6a03e9a3",
          "transactionHash": "0x7b630a1e48c2622a78e842d3452724037e0aa61b8042462d189d8506c42e2db2",
          "transactionIndex": "0x1d",
          "logIndex": "0x7c",
          "removed": false
        },
        {
          "address": "0xc39161c743d0307eb9bcc9fef03eeb9dc4802de7",
          "topics": [
            "0x61ed099e74a97a1d7f8bb0952a88ca8b7b8ebd00c126ea04671f92a81213318a"
          ],
          "data": "0x000000000000000000000000cce466a522984415bc91338c232d98869193d46e0000000000000000000000000000000000000000000000000000081121b6c570",
          "blockHash": "0xe11247f98ab89ac70487403b640db8c9f1acf428d4db1859c2419495cb5a10e0",
          "blockNumber": "0x1c47766",
          "blockTimestamp": "0x6a03e9a3",
          "transactionHash": "0x7b630a1e48c2622a78e842d3452724037e0aa61b8042462d189d8506c42e2db2",
          "transactionIndex": "0x1d",
          "logIndex": "0x7d",
          "removed": false
        },
        {
          "address": "0xc39161c743d0307eb9bcc9fef03eeb9dc4802de7",
          "topics": [
            "0x07ea52d82345d6e838192107d8fd7123d9c2ec8e916cd0aad13fd2b60db24644"
          ],
          "data": "0x00000000000000000000000000000000000000000000000000000000000000600000000000000000000000000000000000000000000000000000000000000120000000000000000000000000000000000000000000000000000000000000014000000000000000000000000000000000000000000000000000000000000000050000000000000000000000006788f52439aca6bff597d3eec2dc9a44b8fee84200000000000000000000000095729ea44326f8add8a9b1d987279dbdc1dd3dff000000000000000000000000dd7b5e1db4aafd5c8ec3b764efb8ed265aa5445b000000000000000000000000e16561b56bdf003b785347d237905bae24f5f973000000000000000000000000e9c24dd582e37faaca7d44c799530688de92da7300000000000000000000000000000000000000000000000000000000000000000000000000000000000000000000000000000000000000000000000000000005000000000000000000000000000000000000000000000000000000ee4af9b456000000000000000000000000000000000000000000000000000001329420ee3a000000000000000000000000000000000000000000000000000000dac85c3615000000000000000000000000000000000000000000000000000001329420ee3a0000000000000000000000000000000000000000000000000000011f11836ff9",
          "blockHash": "0xe11247f98ab89ac70487403b640db8c9f1acf428d4db1859c2419495cb5a10e0",
          "blockNumber": "0x1c47766",
          "blockTimestamp": "0x6a03e9a3",
          "transactionHash": "0x7b630a1e48c2622a78e842d3452724037e0aa61b8042462d189d8506c42e2db2",
          "transactionIndex": "0x1d",
          "logIndex": "0x7e",
          "removed": false
        },
        {
          "address": "0x6f475642a6e85809b1c36fa62763669b1b48dd5b",
          "topics": [
            "0x1ab700d4ced0c005b164c0f789fd09fcbb0156d4c2041b8a3bfbcd961cd1567f"
          ],
          "data": "0x00000000000000000000000000000000000000000000000000000000000000600000000000000000000000000000000000000000000000000000000000000180000000000000000000000000c39161c743d0307eb9bcc9fef03eeb9dc4802de700000000000000000000000000000000000000000000000000000000000000f90100000000000000010000766f00000000000000000000000043edd7f3831b08fe70b7555ddd373c8bf65a90500000762f0000000000000000000000009abfe1f8a999b0011ecd6116649aee8d575f56048b1f8e5d5e674f59b0260d89bc74185eed0e3f4698c8dab10c3e76920c1964c00000000000000000000000002a2019b30c157db6c1c01306b8025167dbe1803b000000000000000a000000000000000000000000938d99a81814f66b01010d19ddce92a63344169900000000000000000000000045dce8e4f2dc005a5f28206a46cb034697eeda8e00000000000000000000000000000000000000000000000000000000000075d500000000000000000000000000000000000000000000000000000000000000000000000000002c0003010011010000000000000000000000000003d090010013030000000000000000000000000000000f42400000000000000000000000000000000000000000",
          "blockHash": "0xe11247f98ab89ac70487403b640db8c9f1acf428d4db1859c2419495cb5a10e0",
          "blockNumber": "0x1c47766",
          "blockTimestamp": "0x6a03e9a3",
          "transactionHash": "0x7b630a1e48c2622a78e842d3452724037e0aa61b8042462d189d8506c42e2db2",
          "transactionIndex": "0x1d",
          "logIndex": "0x7f",
          "removed": false
        },
        {
          "address": "0x43edd7f3831b08fe70b7555ddd373c8bf65a9050",
          "topics": [
            "0x85496b760a4b7f8d66384b9df21b381f5d1b1e79f229a47aaf4c232edc2fe59a",
            "0x8b1f8e5d5e674f59b0260d89bc74185eed0e3f4698c8dab10c3e76920c1964c0",
            "0x000000000000000000000000938d99a81814f66b01010d19ddce92a633441699"
          ],
          "data": "0x000000000000000000000000000000000000000000000000000000000000762f000000000000000000000000000000000000000000000000000009184e72a000000000000000000000000000000000000000000000000000000009184e72a000",
          "blockHash": "0xe11247f98ab89ac70487403b640db8c9f1acf428d4db1859c2419495cb5a10e0",
          "blockNumber": "0x1c47766",
          "blockTimestamp": "0x6a03e9a3",
          "transactionHash": "0x7b630a1e48c2622a78e842d3452724037e0aa61b8042462d189d8506c42e2db2",
          "transactionIndex": "0x1d",
          "logIndex": "0x80",
          "removed": false
        },
        {
          "address": "0x938d99a81814f66b01010d19ddce92a633441699",
          "topics": [
            "0xbc9ee36b6ca0bdd5b3840e6d329dd19a2490d880c7ce24d9818aa593adfb35be",
            "0x00000000000000000000000045dce8e4f2dc005a5f28206a46cb034697eeda8e",
            "0x00000000000000000000000000000000000000000000000000000000000075d5",
            "0x00000000000000000000000045dce8e4f2dc005a5f28206a46cb034697eeda8e"
          ],
          "data": "0x00000000000000000000000043edd7f3831b08fe70b7555ddd373c8bf65a9050000000000000000000000000000000000000000000000000000009184e72a000",
          "blockHash": "0xe11247f98ab89ac70487403b640db8c9f1acf428d4db1859c2419495cb5a10e0",
          "blockNumber": "0x1c47766",
          "blockTimestamp": "0x6a03e9a3",
          "transactionHash": "0x7b630a1e48c2622a78e842d3452724037e0aa61b8042462d189d8506c42e2db2",
          "transactionIndex": "0x1d",
          "logIndex": "0x81",
          "removed": false
        }
      ],
      "logsBloom": "0x00100000000000000000000200000000000000000000000000040000000000010000000000000400000000000400000000000000000000000000000000200000000002000000000000000008000000000142000000000000000000000000000000200000020000208020000000000800000000000000100000000010000000000000000000800000000000080000000000000000004000000000000100000000020000108000000022100000000000000000000002400000000440000000030000000002020000000000000080000000001000000000000000080000000020004010040000000000000000040000802008000000008000000000000000080000",
      "type": "0x2",
      "transactionHash": "0x7b630a1e48c2622a78e842d3452724037e0aa61b8042462d189d8506c42e2db2",
      "transactionIndex": "0x1d",
      "blockHash": "0xe11247f98ab89ac70487403b640db8c9f1acf428d4db1859c2419495cb5a10e0",
      "blockNumber": "0x1c47766",
      "gasUsed": "0x9bda6",
      "effectiveGasPrice": "0x927c0",
      "blobGasUsed": "0xc030",
      "from": "0x45dce8e4f2dc005a5f28206a46cb034697eeda8e",
      "to": "0x938d99a81814f66b01010d19ddce92a633441699",
      "contractAddress": null,
      "daFootprintGasScalar": "0x190",
      "l1BaseFeeScalar": "0x21f9",
      "l1BlobBaseFee": "0x599b98",
      "l1BlobBaseFeeScalar": "0xdd3ef",
      "l1Fee": "0x947a71c7",
      "l1GasPrice": "0x6647abc",
      "l1GasUsed": "0x7b0"
    },
    {
      "status": "0x1",
      "cumulativeGasUsed": "0x7856bf",
      "logs": [
        {
          "address": "0x3ec3849c33291a9ef4c5db86de593eb4a37fde45",
          "topics": [
            "0x8c5be1e5ebec7d5bd14f71427d1e84f3dd0314c0f7b2291e5b200ac8c7c3b925",
            "0x00000000000000000000000045dce8e4f2dc005a5f28206a46cb034697eeda8e",
            "0x000000000000000000000000938d99a81814f66b01010d19ddce92a633441699"
          ],
          "data": "0x000000000000000000000000000000000000000000000000000009184e72a000",
          "blockHash": "0xe11247f98ab89ac70487403b640db8c9f1acf428d4db1859c2419495cb5a10e0",
          "blockNumber": "0x1c47766",
          "blockTimestamp": "0x6a03e9a3",
          "transactionHash": "0xaa333133c053677523c5ad008d9da6e4ab4602f4723fe7b3bb562265cab99b98",
          "transactionIndex": "0x1e",
          "logIndex": "0x82",
          "removed": false
        }
      ],
      "logsBloom": "0x00000000000000000000000200002000000000000000000000000000000000000000000000000400000000000000000000000000000000000000000000200000000000000000000000000000000000000002000000000000000000000000000000000000000000200000000000000000000000000000000000000000000000000000000000000000000000000000000000000000000020000040000000000000020000000000000000000000000000000000000000000000000000000000000000000000000000000000000000000000001000000000000000000000000000000010000000000000000000000000800000000000000000000000000000000000",
      "type": "0x2",
      "transactionHash": "0xaa333133c053677523c5ad008d9da6e4ab4602f4723fe7b3bb562265cab99b98",
      "transactionIndex": "0x1e",
      "blockHash": "0xe11247f98ab89ac70487403b640db8c9f1acf428d4db1859c2419495cb5a10e0",
      "blockNumber": "0x1c47766",
      "gasUsed": "0xd1b2",
      "effectiveGasPrice": "0x927c0",
      "blobGasUsed": "0x9c40",
      "from": "0x45dce8e4f2dc005a5f28206a46cb034697eeda8e",
      "to": "0x3ec3849c33291a9ef4c5db86de593eb4a37fde45",
      "contractAddress": null,
      "daFootprintGasScalar": "0x190",
      "l1BaseFeeScalar": "0x21f9",
      "l1BlobBaseFee": "0x599b98",
      "l1BlobBaseFeeScalar": "0xdd3ef",
      "l1Fee": "0x78ac6705",
      "l1GasPrice": "0x6647abc",
      "l1GasUsed": "0x640"
    },
    {
      "status": "0x1",
      "cumulativeGasUsed": "0x821465",
      "logs": [
        {
          "address": "0x3ec3849c33291a9ef4c5db86de593eb4a37fde45",
          "topics": [
            "0x8c5be1e5ebec7d5bd14f71427d1e84f3dd0314c0f7b2291e5b200ac8c7c3b925",
            "0x00000000000000000000000045dce8e4f2dc005a5f28206a46cb034697eeda8e",
            "0x000000000000000000000000938d99a81814f66b01010d19ddce92a633441699"
          ],
          "data": "0x0000000000000000000000000000000000000000000000000000000000000000",
          "blockHash": "0xe11247f98ab89ac70487403b640db8c9f1acf428d4db1859c2419495cb5a10e0",
          "blockNumber": "0x1c47766",
          "blockTimestamp": "0x6a03e9a3",
          "transactionHash": "0x16569eb1cf9256857ba5168ad46cf38983732099490d1f4253433f74d2463d1b",
          "transactionIndex": "0x1f",
          "logIndex": "0x83",
          "removed": false
        },
        {
          "address": "0x3ec3849c33291a9ef4c5db86de593eb4a37fde45",
          "topics": [
            "0xddf252ad1be2c89b69c2b068fc378daa952ba7f163c4a11628f55a4df523b3ef",
            "0x00000000000000000000000045dce8e4f2dc005a5f28206a46cb034697eeda8e",
            "0x000000000000000000000000938d99a81814f66b01010d19ddce92a633441699"
          ],
          "data": "0x000000000000000000000000000000000000000000000000000009184e72a000",
          "blockHash": "0xe11247f98ab89ac70487403b640db8c9f1acf428d4db1859c2419495cb5a10e0",
          "blockNumber": "0x1c47766",
          "blockTimestamp": "0x6a03e9a3",
          "transactionHash": "0x16569eb1cf9256857ba5168ad46cf38983732099490d1f4253433f74d2463d1b",
          "transactionIndex": "0x1f",
          "logIndex": "0x84",
          "removed": false
        },
        {
          "address": "0x3ec3849c33291a9ef4c5db86de593eb4a37fde45",
          "topics": [
            "0x8c5be1e5ebec7d5bd14f71427d1e84f3dd0314c0f7b2291e5b200ac8c7c3b925",
            "0x000000000000000000000000938d99a81814f66b01010d19ddce92a633441699",
            "0x0000000000000000000000003ec3849c33291a9ef4c5db86de593eb4a37fde45"
          ],
          "data": "0x000000000000000000000000000000000000000000000000000009184e72a000",
          "blockHash": "0xe11247f98ab89ac70487403b640db8c9f1acf428d4db1859c2419495cb5a10e0",
          "blockNumber": "0x1c47766",
          "blockTimestamp": "0x6a03e9a3",
          "transactionHash": "0x16569eb1cf9256857ba5168ad46cf38983732099490d1f4253433f74d2463d1b",
          "transactionIndex": "0x1f",
          "logIndex": "0x85",
          "removed": false
        },
        {
          "address": "0x3ec3849c33291a9ef4c5db86de593eb4a37fde45",
          "topics": [
            "0xddf252ad1be2c89b69c2b068fc378daa952ba7f163c4a11628f55a4df523b3ef",
            "0x000000000000000000000000938d99a81814f66b01010d19ddce92a633441699",
            "0x0000000000000000000000000000000000000000000000000000000000000000"
          ],
          "data": "0x000000000000000000000000000000000000000000000000000009184e72a000",
          "blockHash": "0xe11247f98ab89ac70487403b640db8c9f1acf428d4db1859c2419495cb5a10e0",
          "blockNumber": "0x1c47766",
          "blockTimestamp": "0x6a03e9a3",
          "transactionHash": "0x16569eb1cf9256857ba5168ad46cf38983732099490d1f4253433f74d2463d1b",
          "transactionIndex": "0x1f",
          "logIndex": "0x86",
          "removed": false
        },
        {
          "address": "0xc39161c743d0307eb9bcc9fef03eeb9dc4802de7",
          "topics": [
            "0x61ed099e74a97a1d7f8bb0952a88ca8b7b8ebd00c126ea04671f92a81213318a"
          ],
          "data": "0x000000000000000000000000cce466a522984415bc91338c232d98869193d46e0000000000000000000000000000000000000000000000000000081121b6c570",
          "blockHash": "0xe11247f98ab89ac70487403b640db8c9f1acf428d4db1859c2419495cb5a10e0",
          "blockNumber": "0x1c47766",
          "blockTimestamp": "0x6a03e9a3",
          "transactionHash": "0x16569eb1cf9256857ba5168ad46cf38983732099490d1f4253433f74d2463d1b",
          "transactionIndex": "0x1f",
          "logIndex": "0x87",
          "removed": false
        },
        {
          "address": "0xc39161c743d0307eb9bcc9fef03eeb9dc4802de7",
          "topics": [
            "0x07ea52d82345d6e838192107d8fd7123d9c2ec8e916cd0aad13fd2b60db24644"
          ],
          "data": "0x00000000000000000000000000000000000000000000000000000000000000600000000000000000000000000000000000000000000000000000000000000120000000000000000000000000000000000000000000000000000000000000014000000000000000000000000000000000000000000000000000000000000000050000000000000000000000006788f52439aca6bff597d3eec2dc9a44b8fee84200000000000000000000000095729ea44326f8add8a9b1d987279dbdc1dd3dff000000000000000000000000dd7b5e1db4aafd5c8ec3b764efb8ed265aa5445b000000000000000000000000e16561b56bdf003b785347d237905bae24f5f973000000000000000000000000e9c24dd582e37faaca7d44c799530688de92da7300000000000000000000000000000000000000000000000000000000000000000000000000000000000000000000000000000000000000000000000000000005000000000000000000000000000000000000000000000000000000ee4af9b456000000000000000000000000000000000000000000000000000001329420ee3a000000000000000000000000000000000000000000000000000000dac85c3615000000000000000000000000000000000000000000000000000001329420ee3a0000000000000000000000000000000000000000000000000000011f11836ff9",
          "blockHash": "0xe11247f98ab89ac70487403b640db8c9f1acf428d4db1859c2419495cb5a10e0",
          "blockNumber": "0x1c47766",
          "blockTimestamp": "0x6a03e9a3",
          "transactionHash": "0x16569eb1cf9256857ba5168ad46cf38983732099490d1f4253433f74d2463d1b",
          "transactionIndex": "0x1f",
          "logIndex": "0x88",
          "removed": false
        },
        {
          "address": "0x6f475642a6e85809b1c36fa62763669b1b48dd5b",
          "topics": [
            "0x1ab700d4ced0c005b164c0f789fd09fcbb0156d4c2041b8a3bfbcd961cd1567f"
          ],
          "data": "0x00000000000000000000000000000000000000000000000000000000000000600000000000000000000000000000000000000000000000000000000000000180000000000000000000000000c39161c743d0307eb9bcc9fef03eeb9dc4802de700000000000000000000000000000000000000000000000000000000000000f90100000000000000010000766f0000000000000000000000003ec3849c33291a9ef4c5db86de593eb4a37fde450000762f000000000000000000000000999dfabe3b1cc2ef66eb032eea42fea329bba168d0b66c5932e98e78ec0fcbd00f751184ccf89aa7f3548466932b26d0ce2f0c640000000000000000000000002a2019b30c157db6c1c01306b8025167dbe1803b000000000000000a000000000000000000000000938d99a81814f66b01010d19ddce92a63344169900000000000000000000000045dce8e4f2dc005a5f28206a46cb034697eeda8e00000000000000000000000000000000000000000000000000000000000075d500000000000000000000000000000000000000000000000000000000000000000000000000002c0003010011010000000000000000000000000003d090010013030000000000000000000000000000000f42400000000000000000000000000000000000000000",
          "blockHash": "0xe11247f98ab89ac70487403b640db8c9f1acf428d4db1859c2419495cb5a10e0",
          "blockNumber": "0x1c47766",
          "blockTimestamp": "0x6a03e9a3",
          "transactionHash": "0x16569eb1cf9256857ba5168ad46cf38983732099490d1f4253433f74d2463d1b",
          "transactionIndex": "0x1f",
          "logIndex": "0x89",
          "removed": false
        },
        {
          "address": "0x3ec3849c33291a9ef4c5db86de593eb4a37fde45",
          "topics": [
            "0x85496b760a4b7f8d66384b9df21b381f5d1b1e79f229a47aaf4c232edc2fe59a",
            "0xd0b66c5932e98e78ec0fcbd00f751184ccf89aa7f3548466932b26d0ce2f0c64",
            "0x000000000000000000000000938d99a81814f66b01010d19ddce92a633441699"
          ],
          "data": "0x000000000000000000000000000000000000000000000000000000000000762f000000000000000000000000000000000000000000000000000009184e72a000000000000000000000000000000000000000000000000000000009184e72a000",
          "blockHash": "0xe11247f98ab89ac70487403b640db8c9f1acf428d4db1859c2419495cb5a10e0",
          "blockNumber": "0x1c47766",
          "blockTimestamp": "0x6a03e9a3",
          "transactionHash": "0x16569eb1cf9256857ba5168ad46cf38983732099490d1f4253433f74d2463d1b",
          "transactionIndex": "0x1f",
          "logIndex": "0x8a",
          "removed": false
        },
        {
          "address": "0x938d99a81814f66b01010d19ddce92a633441699",
          "topics": [
            "0xbc9ee36b6ca0bdd5b3840e6d329dd19a2490d880c7ce24d9818aa593adfb35be",
            "0x00000000000000000000000045dce8e4f2dc005a5f28206a46cb034697eeda8e",
            "0x00000000000000000000000000000000000000000000000000000000000075d5",
            "0x00000000000000000000000045dce8e4f2dc005a5f28206a46cb034697eeda8e"
          ],
          "data": "0x0000000000000000000000003ec3849c33291a9ef4c5db86de593eb4a37fde45000000000000000000000000000000000000000000000000000009184e72a000",
          "blockHash": "0xe11247f98ab89ac70487403b640db8c9f1acf428d4db1859c2419495cb5a10e0",
          "blockNumber": "0x1c47766",
          "blockTimestamp": "0x6a03e9a3",
          "transactionHash": "0x16569eb1cf9256857ba5168ad46cf38983732099490d1f4253433f74d2463d1b",
          "transactionIndex": "0x1f",
          "logIndex": "0x8b",
          "removed": false
        }
      ],
      "logsBloom": "0x00100000000000000000000200002000000000000000000000040000000000001000000000000400000000000000000000000000000000000000000000200020000002000000000000000008000000000142000000000000000000000000000000200000020000208020000000000800000040000000100000000010000000000040000000800000000000080000000000000000000020000040004000000000020000108000000020100000400000000000000002400000000440000000010000000002000000000000000080000000001000000000000000080000000020004010040000000000000000000000802008000000008000000000000000000000",
      "type": "0x2",
      "transactionHash": "0x16569eb1cf9256857ba5168ad46cf38983732099490d1f4253433f74d2463d1b",
      "transactionIndex": "0x1f",
      "blockHash": "0xe11247f98ab89ac70487403b640db8c9f1acf428d4db1859c2419495cb5a10e0",
      "blockNumber": "0x1c47766",
      "gasUsed": "0x9bda6",
      "effectiveGasPrice": "0x927c0",
      "blobGasUsed": "0xc030",
      "from": "0x45dce8e4f2dc005a5f28206a46cb034697eeda8e",
      "to": "0x938d99a81814f66b01010d19ddce92a633441699",
      "contractAddress": null,
      "daFootprintGasScalar": "0x190",
      "l1BaseFeeScalar": "0x21f9",
      "l1BlobBaseFee": "0x599b98",
      "l1BlobBaseFeeScalar": "0xdd3ef",
      "l1Fee": "0x947a71c7",
      "l1GasPrice": "0x6647abc",
      "l1GasUsed": "0x7b0"
    },
    {
      "status": "0x1",
      "cumulativeGasUsed": "0x82e601",
      "logs": [
        {
          "address": "0x64445f0aecc51e94ad52d8ac56b7190e764e561a",
          "topics": [
            "0x8c5be1e5ebec7d5bd14f71427d1e84f3dd0314c0f7b2291e5b200ac8c7c3b925",
            "0x00000000000000000000000045dce8e4f2dc005a5f28206a46cb034697eeda8e",
            "0x000000000000000000000000938d99a81814f66b01010d19ddce92a633441699"
          ],
          "data": "0x000000000000000000000000000000000000000000000000000009184e72a000",
          "blockHash": "0xe11247f98ab89ac70487403b640db8c9f1acf428d4db1859c2419495cb5a10e0",
          "blockNumber": "0x1c47766",
          "blockTimestamp": "0x6a03e9a3",
          "transactionHash": "0x0c3c164bae42088e1fe30817611c1aba13c8fa267672b7a2e47d067cfdd9cad6",
          "transactionIndex": "0x20",
          "logIndex": "0x8c",
          "removed": false
        }
      ],
      "logsBloom": "0x00000000000000000000000200000000000000000000000000000000000000000000000000000400000000000000000000000000000000000000000000200000002000000000000000000000000000000002000000000000000000000000000000000000000000200000000000000000000000000000000000000000000000000000000000000000000000000000000000000000000000000000000000000000020000000000000000000008000000000000000000000000000000000000000000000000000000000000000000000000001000000000000000000000000000000010000000000000000000000000800000000008000000000000000000000000",
      "type": "0x2",
      "transactionHash": "0x0c3c164bae42088e1fe30817611c1aba13c8fa267672b7a2e47d067cfdd9cad6",
      "transactionIndex": "0x20",
      "blockHash": "0xe11247f98ab89ac70487403b640db8c9f1acf428d4db1859c2419495cb5a10e0",
      "blockNumber": "0x1c47766",
      "gasUsed": "0xd19c",
      "effectiveGasPrice": "0x927c0",
      "blobGasUsed": "0x9c40",
      "from": "0x45dce8e4f2dc005a5f28206a46cb034697eeda8e",
      "to": "0x64445f0aecc51e94ad52d8ac56b7190e764e561a",
      "contractAddress": null,
      "daFootprintGasScalar": "0x190",
      "l1BaseFeeScalar": "0x21f9",
      "l1BlobBaseFee": "0x599b98",
      "l1BlobBaseFeeScalar": "0xdd3ef",
      "l1Fee": "0x78ac6705",
      "l1GasPrice": "0x6647abc",
      "l1GasUsed": "0x640"
    },
    {
      "status": "0x1",
      "cumulativeGasUsed": "0x8ca391",
      "logs": [
        {
          "address": "0x64445f0aecc51e94ad52d8ac56b7190e764e561a",
          "topics": [
            "0x8c5be1e5ebec7d5bd14f71427d1e84f3dd0314c0f7b2291e5b200ac8c7c3b925",
            "0x00000000000000000000000045dce8e4f2dc005a5f28206a46cb034697eeda8e",
            "0x000000000000000000000000938d99a81814f66b01010d19ddce92a633441699"
          ],
          "data": "0x0000000000000000000000000000000000000000000000000000000000000000",
          "blockHash": "0xe11247f98ab89ac70487403b640db8c9f1acf428d4db1859c2419495cb5a10e0",
          "blockNumber": "0x1c47766",
          "blockTimestamp": "0x6a03e9a3",
          "transactionHash": "0x7dec2fb2732dda75062c73fce709ac9534c91bfd397d21a49917e2538f3edab0",
          "transactionIndex": "0x21",
          "logIndex": "0x8d",
          "removed": false
        },
        {
          "address": "0x64445f0aecc51e94ad52d8ac56b7190e764e561a",
          "topics": [
            "0xddf252ad1be2c89b69c2b068fc378daa952ba7f163c4a11628f55a4df523b3ef",
            "0x00000000000000000000000045dce8e4f2dc005a5f28206a46cb034697eeda8e",
            "0x000000000000000000000000938d99a81814f66b01010d19ddce92a633441699"
          ],
          "data": "0x000000000000000000000000000000000000000000000000000009184e72a000",
          "blockHash": "0xe11247f98ab89ac70487403b640db8c9f1acf428d4db1859c2419495cb5a10e0",
          "blockNumber": "0x1c47766",
          "blockTimestamp": "0x6a03e9a3",
          "transactionHash": "0x7dec2fb2732dda75062c73fce709ac9534c91bfd397d21a49917e2538f3edab0",
          "transactionIndex": "0x21",
          "logIndex": "0x8e",
          "removed": false
        },
        {
          "address": "0x64445f0aecc51e94ad52d8ac56b7190e764e561a",
          "topics": [
            "0x8c5be1e5ebec7d5bd14f71427d1e84f3dd0314c0f7b2291e5b200ac8c7c3b925",
            "0x000000000000000000000000938d99a81814f66b01010d19ddce92a633441699",
            "0x00000000000000000000000064445f0aecc51e94ad52d8ac56b7190e764e561a"
          ],
          "data": "0x000000000000000000000000000000000000000000000000000009184e72a000",
          "blockHash": "0xe11247f98ab89ac70487403b640db8c9f1acf428d4db1859c2419495cb5a10e0",
          "blockNumber": "0x1c47766",
          "blockTimestamp": "0x6a03e9a3",
          "transactionHash": "0x7dec2fb2732dda75062c73fce709ac9534c91bfd397d21a49917e2538f3edab0",
          "transactionIndex": "0x21",
          "logIndex": "0x8f",
          "removed": false
        },
        {
          "address": "0x64445f0aecc51e94ad52d8ac56b7190e764e561a",
          "topics": [
            "0xddf252ad1be2c89b69c2b068fc378daa952ba7f163c4a11628f55a4df523b3ef",
            "0x000000000000000000000000938d99a81814f66b01010d19ddce92a633441699",
            "0x0000000000000000000000000000000000000000000000000000000000000000"
          ],
          "data": "0x000000000000000000000000000000000000000000000000000009184e72a000",
          "blockHash": "0xe11247f98ab89ac70487403b640db8c9f1acf428d4db1859c2419495cb5a10e0",
          "blockNumber": "0x1c47766",
          "blockTimestamp": "0x6a03e9a3",
          "transactionHash": "0x7dec2fb2732dda75062c73fce709ac9534c91bfd397d21a49917e2538f3edab0",
          "transactionIndex": "0x21",
          "logIndex": "0x90",
          "removed": false
        },
        {
          "address": "0xc39161c743d0307eb9bcc9fef03eeb9dc4802de7",
          "topics": [
            "0x61ed099e74a97a1d7f8bb0952a88ca8b7b8ebd00c126ea04671f92a81213318a"
          ],
          "data": "0x000000000000000000000000cce466a522984415bc91338c232d98869193d46e0000000000000000000000000000000000000000000000000000081121b6c570",
          "blockHash": "0xe11247f98ab89ac70487403b640db8c9f1acf428d4db1859c2419495cb5a10e0",
          "blockNumber": "0x1c47766",
          "blockTimestamp": "0x6a03e9a3",
          "transactionHash": "0x7dec2fb2732dda75062c73fce709ac9534c91bfd397d21a49917e2538f3edab0",
          "transactionIndex": "0x21",
          "logIndex": "0x91",
          "removed": false
        },
        {
          "address": "0xc39161c743d0307eb9bcc9fef03eeb9dc4802de7",
          "topics": [
            "0x07ea52d82345d6e838192107d8fd7123d9c2ec8e916cd0aad13fd2b60db24644"
          ],
          "data": "0x00000000000000000000000000000000000000000000000000000000000000600000000000000000000000000000000000000000000000000000000000000120000000000000000000000000000000000000000000000000000000000000014000000000000000000000000000000000000000000000000000000000000000050000000000000000000000006788f52439aca6bff597d3eec2dc9a44b8fee84200000000000000000000000095729ea44326f8add8a9b1d987279dbdc1dd3dff000000000000000000000000dd7b5e1db4aafd5c8ec3b764efb8ed265aa5445b000000000000000000000000e16561b56bdf003b785347d237905bae24f5f973000000000000000000000000e9c24dd582e37faaca7d44c799530688de92da7300000000000000000000000000000000000000000000000000000000000000000000000000000000000000000000000000000000000000000000000000000005000000000000000000000000000000000000000000000000000000ee4af9b456000000000000000000000000000000000000000000000000000001329420ee3a000000000000000000000000000000000000000000000000000000dac85c3615000000000000000000000000000000000000000000000000000001329420ee3a0000000000000000000000000000000000000000000000000000011f11836ff9",
          "blockHash": "0xe11247f98ab89ac70487403b640db8c9f1acf428d4db1859c2419495cb5a10e0",
          "blockNumber": "0x1c47766",
          "blockTimestamp": "0x6a03e9a3",
          "transactionHash": "0x7dec2fb2732dda75062c73fce709ac9534c91bfd397d21a49917e2538f3edab0",
          "transactionIndex": "0x21",
          "logIndex": "0x92",
          "removed": false
        },
        {
          "address": "0x6f475642a6e85809b1c36fa62763669b1b48dd5b",
          "topics": [
            "0x1ab700d4ced0c005b164c0f789fd09fcbb0156d4c2041b8a3bfbcd961cd1567f"
          ],
          "data": "0x00000000000000000000000000000000000000000000000000000000000000600000000000000000000000000000000000000000000000000000000000000180000000000000000000000000c39161c743d0307eb9bcc9fef03eeb9dc4802de700000000000000000000000000000000000000000000000000000000000000f90100000000000000010000766f00000000000000000000000064445f0aecc51e94ad52d8ac56b7190e764e561a0000762f000000000000000000000000d86fbbd0c8715d2c1f40e451e5c3514e65e7576a519fd8f9f250771ee2bb0f252110cc852e5077ba353e0d54fd7b106e5e94230c0000000000000000000000002a2019b30c157db6c1c01306b8025167dbe1803b000000000000000a000000000000000000000000938d99a81814f66b01010d19ddce92a63344169900000000000000000000000045dce8e4f2dc005a5f28206a46cb034697eeda8e00000000000000000000000000000000000000000000000000000000000075d500000000000000000000000000000000000000000000000000000000000000000000000000002c0003010011010000000000000000000000000003d090010013030000000000000000000000000000000f42400000000000000000000000000000000000000000",
          "blockHash": "0xe11247f98ab89ac70487403b640db8c9f1acf428d4db1859c2419495cb5a10e0",
          "blockNumber": "0x1c47766",
          "blockTimestamp": "0x6a03e9a3",
          "transactionHash": "0x7dec2fb2732dda75062c73fce709ac9534c91bfd397d21a49917e2538f3edab0",
          "transactionIndex": "0x21",
          "logIndex": "0x93",
          "removed": false
        },
        {
          "address": "0x64445f0aecc51e94ad52d8ac56b7190e764e561a",
          "topics": [
            "0x85496b760a4b7f8d66384b9df21b381f5d1b1e79f229a47aaf4c232edc2fe59a",
            "0x519fd8f9f250771ee2bb0f252110cc852e5077ba353e0d54fd7b106e5e94230c",
            "0x000000000000000000000000938d99a81814f66b01010d19ddce92a633441699"
          ],
          "data": "0x000000000000000000000000000000000000000000000000000000000000762f000000000000000000000000000000000000000000000000000009184e72a000000000000000000000000000000000000000000000000000000009184e72a000",
          "blockHash": "0xe11247f98ab89ac70487403b640db8c9f1acf428d4db1859c2419495cb5a10e0",
          "blockNumber": "0x1c47766",
          "blockTimestamp": "0x6a03e9a3",
          "transactionHash": "0x7dec2fb2732dda75062c73fce709ac9534c91bfd397d21a49917e2538f3edab0",
          "transactionIndex": "0x21",
          "logIndex": "0x94",
          "removed": false
        },
        {
          "address": "0x938d99a81814f66b01010d19ddce92a633441699",
          "topics": [
            "0xbc9ee36b6ca0bdd5b3840e6d329dd19a2490d880c7ce24d9818aa593adfb35be",
            "0x00000000000000000000000045dce8e4f2dc005a5f28206a46cb034697eeda8e",
            "0x00000000000000000000000000000000000000000000000000000000000075d5",
            "0x00000000000000000000000045dce8e4f2dc005a5f28206a46cb034697eeda8e"
          ],
          "data": "0x00000000000000000000000064445f0aecc51e94ad52d8ac56b7190e764e561a000000000000000000000000000000000000000000000000000009184e72a000",
          "blockHash": "0xe11247f98ab89ac70487403b640db8c9f1acf428d4db1859c2419495cb5a10e0",
          "blockNumber": "0x1c47766",
          "blockTimestamp": "0x6a03e9a3",
          "transactionHash": "0x7dec2fb2732dda75062c73fce709ac9534c91bfd397d21a49917e2538f3edab0",
          "transactionIndex": "0x21",
          "logIndex": "0x95",
          "removed": false
        }
      ],
      "logsBloom": "0x0010000000000000000000020000000000000000000000000004000000000000000000000000040000000000000000000000000000000000000000000020000000200200000000000000000800000000014200000000000000000008000000000020000002000020802000000000080000000000000010000000001000000000000000000080000000000008000000000000000000000000000000000000000202000010800000002010000c000000000000000002400000000440000000010000000002000000000000000080000000001000000000000000080000000020004010040000000000000000000000802808000008808000000000000000000002",
      "type": "0x2",
      "transactionHash": "0x7dec2fb2732dda75062c73fce709ac9534c91bfd397d21a49917e2538f3edab0",
      "transactionIndex": "0x21",
      "blockHash": "0xe11247f98ab89ac70487403b640db8c9f1acf428d4db1859c2419495cb5a10e0",
      "blockNumber": "0x1c47766",
      "gasUsed": "0x9bd90",
      "effectiveGasPrice": "0x927c0",
      "blobGasUsed": "0xc030",
      "from": "0x45dce8e4f2dc005a5f28206a46cb034697eeda8e",
      "to": "0x938d99a81814f66b01010d19ddce92a633441699",
      "contractAddress": null,
      "daFootprintGasScalar": "0x190",
      "l1BaseFeeScalar": "0x21f9",
      "l1BlobBaseFee": "0x599b98",
      "l1BlobBaseFeeScalar": "0xdd3ef",
      "l1Fee": "0x947a71c7",
      "l1GasPrice": "0x6647abc",
      "l1GasUsed": "0x7b0"
    },
    {
      "status": "0x1",
      "cumulativeGasUsed": "0x8d7543",
      "logs": [
        {
          "address": "0x90581eca9469d8d7f5d3b60f4715027adfcf7927",
          "topics": [
            "0x8c5be1e5ebec7d5bd14f71427d1e84f3dd0314c0f7b2291e5b200ac8c7c3b925",
            "0x00000000000000000000000045dce8e4f2dc005a5f28206a46cb034697eeda8e",
            "0x000000000000000000000000938d99a81814f66b01010d19ddce92a633441699"
          ],
          "data": "0x000000000000000000000000000000000000000000000000000009184e72a000",
          "blockHash": "0xe11247f98ab89ac70487403b640db8c9f1acf428d4db1859c2419495cb5a10e0",
          "blockNumber": "0x1c47766",
          "blockTimestamp": "0x6a03e9a3",
          "transactionHash": "0x476b86bbc51bb7952a106c87f6a3256226495fb84e6100b4ec02f994eee119ff",
          "transactionIndex": "0x22",
          "logIndex": "0x96",
          "removed": false
        }
      ],
      "logsBloom": "0x00000000000000000000000200000000000000000000000000000000000000000000000000000400000000000000000000000000000000000000000000200000000000000000000000000000000000000002000000000000000000000000000000000000000000200000000000000000000000000000000000000000000000000000000000000004000010000000000000000000000000000000000000000000020000000000000000000000000000000000000000000000000000000000000000000000000000000000000000000000001000000000000000000000000000000010000000000000000000000000800000400000000000000000000000000000",
      "type": "0x2",
      "transactionHash": "0x476b86bbc51bb7952a106c87f6a3256226495fb84e6100b4ec02f994eee119ff",
      "transactionIndex": "0x22",
      "blockHash": "0xe11247f98ab89ac70487403b640db8c9f1acf428d4db1859c2419495cb5a10e0",
      "blockNumber": "0x1c47766",
      "gasUsed": "0xd1b2",
      "effectiveGasPrice": "0x927c0",
      "blobGasUsed": "0x9c40",
      "from": "0x45dce8e4f2dc005a5f28206a46cb034697eeda8e",
      "to": "0x90581eca9469d8d7f5d3b60f4715027adfcf7927",
      "contractAddress": null,
      "daFootprintGasScalar": "0x190",
      "l1BaseFeeScalar": "0x21f9",
      "l1BlobBaseFee": "0x599b98",
      "l1BlobBaseFeeScalar": "0xdd3ef",
      "l1Fee": "0x78ac6705",
      "l1GasPrice": "0x6647abc",
      "l1GasUsed": "0x640"
    },
    {
      "status": "0x1",
      "cumulativeGasUsed": "0x9732e9",
      "logs": [
        {
          "address": "0x90581eca9469d8d7f5d3b60f4715027adfcf7927",
          "topics": [
            "0x8c5be1e5ebec7d5bd14f71427d1e84f3dd0314c0f7b2291e5b200ac8c7c3b925",
            "0x00000000000000000000000045dce8e4f2dc005a5f28206a46cb034697eeda8e",
            "0x000000000000000000000000938d99a81814f66b01010d19ddce92a633441699"
          ],
          "data": "0x0000000000000000000000000000000000000000000000000000000000000000",
          "blockHash": "0xe11247f98ab89ac70487403b640db8c9f1acf428d4db1859c2419495cb5a10e0",
          "blockNumber": "0x1c47766",
          "blockTimestamp": "0x6a03e9a3",
          "transactionHash": "0x61276547490c59dff2969dc2c4730531bfd919d67b9cd2c272240715b0fa946d",
          "transactionIndex": "0x23",
          "logIndex": "0x97",
          "removed": false
        },
        {
          "address": "0x90581eca9469d8d7f5d3b60f4715027adfcf7927",
          "topics": [
            "0xddf252ad1be2c89b69c2b068fc378daa952ba7f163c4a11628f55a4df523b3ef",
            "0x00000000000000000000000045dce8e4f2dc005a5f28206a46cb034697eeda8e",
            "0x000000000000000000000000938d99a81814f66b01010d19ddce92a633441699"
          ],
          "data": "0x000000000000000000000000000000000000000000000000000009184e72a000",
          "blockHash": "0xe11247f98ab89ac70487403b640db8c9f1acf428d4db1859c2419495cb5a10e0",
          "blockNumber": "0x1c47766",
          "blockTimestamp": "0x6a03e9a3",
          "transactionHash": "0x61276547490c59dff2969dc2c4730531bfd919d67b9cd2c272240715b0fa946d",
          "transactionIndex": "0x23",
          "logIndex": "0x98",
          "removed": false
        },
        {
          "address": "0x90581eca9469d8d7f5d3b60f4715027adfcf7927",
          "topics": [
            "0x8c5be1e5ebec7d5bd14f71427d1e84f3dd0314c0f7b2291e5b200ac8c7c3b925",
            "0x000000000000000000000000938d99a81814f66b01010d19ddce92a633441699",
            "0x00000000000000000000000090581eca9469d8d7f5d3b60f4715027adfcf7927"
          ],
          "data": "0x000000000000000000000000000000000000000000000000000009184e72a000",
          "blockHash": "0xe11247f98ab89ac70487403b640db8c9f1acf428d4db1859c2419495cb5a10e0",
          "blockNumber": "0x1c47766",
          "blockTimestamp": "0x6a03e9a3",
          "transactionHash": "0x61276547490c59dff2969dc2c4730531bfd919d67b9cd2c272240715b0fa946d",
          "transactionIndex": "0x23",
          "logIndex": "0x99",
          "removed": false
        },
        {
          "address": "0x90581eca9469d8d7f5d3b60f4715027adfcf7927",
          "topics": [
            "0xddf252ad1be2c89b69c2b068fc378daa952ba7f163c4a11628f55a4df523b3ef",
            "0x000000000000000000000000938d99a81814f66b01010d19ddce92a633441699",
            "0x0000000000000000000000000000000000000000000000000000000000000000"
          ],
          "data": "0x000000000000000000000000000000000000000000000000000009184e72a000",
          "blockHash": "0xe11247f98ab89ac70487403b640db8c9f1acf428d4db1859c2419495cb5a10e0",
          "blockNumber": "0x1c47766",
          "blockTimestamp": "0x6a03e9a3",
          "transactionHash": "0x61276547490c59dff2969dc2c4730531bfd919d67b9cd2c272240715b0fa946d",
          "transactionIndex": "0x23",
          "logIndex": "0x9a",
          "removed": false
        },
        {
          "address": "0xc39161c743d0307eb9bcc9fef03eeb9dc4802de7",
          "topics": [
            "0x61ed099e74a97a1d7f8bb0952a88ca8b7b8ebd00c126ea04671f92a81213318a"
          ],
          "data": "0x000000000000000000000000cce466a522984415bc91338c232d98869193d46e0000000000000000000000000000000000000000000000000000081121b6c570",
          "blockHash": "0xe11247f98ab89ac70487403b640db8c9f1acf428d4db1859c2419495cb5a10e0",
          "blockNumber": "0x1c47766",
          "blockTimestamp": "0x6a03e9a3",
          "transactionHash": "0x61276547490c59dff2969dc2c4730531bfd919d67b9cd2c272240715b0fa946d",
          "transactionIndex": "0x23",
          "logIndex": "0x9b",
          "removed": false
        },
        {
          "address": "0xc39161c743d0307eb9bcc9fef03eeb9dc4802de7",
          "topics": [
            "0x07ea52d82345d6e838192107d8fd7123d9c2ec8e916cd0aad13fd2b60db24644"
          ],
          "data": "0x00000000000000000000000000000000000000000000000000000000000000600000000000000000000000000000000000000000000000000000000000000120000000000000000000000000000000000000000000000000000000000000014000000000000000000000000000000000000000000000000000000000000000050000000000000000000000006788f52439aca6bff597d3eec2dc9a44b8fee84200000000000000000000000095729ea44326f8add8a9b1d987279dbdc1dd3dff000000000000000000000000dd7b5e1db4aafd5c8ec3b764efb8ed265aa5445b000000000000000000000000e16561b56bdf003b785347d237905bae24f5f973000000000000000000000000e9c24dd582e37faaca7d44c799530688de92da7300000000000000000000000000000000000000000000000000000000000000000000000000000000000000000000000000000000000000000000000000000005000000000000000000000000000000000000000000000000000000ee4af9b456000000000000000000000000000000000000000000000000000001329420ee3a000000000000000000000000000000000000000000000000000000dac85c3615000000000000000000000000000000000000000000000000000001329420ee3a0000000000000000000000000000000000000000000000000000011f11836ff9",
          "blockHash": "0xe11247f98ab89ac70487403b640db8c9f1acf428d4db1859c2419495cb5a10e0",
          "blockNumber": "0x1c47766",
          "blockTimestamp": "0x6a03e9a3",
          "transactionHash": "0x61276547490c59dff2969dc2c4730531bfd919d67b9cd2c272240715b0fa946d",
          "transactionIndex": "0x23",
          "logIndex": "0x9c",
          "removed": false
        },
        {
          "address": "0x6f475642a6e85809b1c36fa62763669b1b48dd5b",
          "topics": [
            "0x1ab700d4ced0c005b164c0f789fd09fcbb0156d4c2041b8a3bfbcd961cd1567f"
          ],
          "data": "0x00000000000000000000000000000000000000000000000000000000000000600000000000000000000000000000000000000000000000000000000000000180000000000000000000000000c39161c743d0307eb9bcc9fef03eeb9dc4802de700000000000000000000000000000000000000000000000000000000000000f90100000000000000010000766f00000000000000000000000090581eca9469d8d7f5d3b60f4715027adfcf79270000762f00000000000000000000000075c38d46001b0f8108c4136216bd2694982c20fcad2097a8d20d7f15d44c7a06d08cb4db5c93ff61f237f81eb44703bd219da2290000000000000000000000002a2019b30c157db6c1c01306b8025167dbe1803b000000000000000a000000000000000000000000938d99a81814f66b01010d19ddce92a63344169900000000000000000000000045dce8e4f2dc005a5f28206a46cb034697eeda8e00000000000000000000000000000000000000000000000000000000000075d500000000000000000000000000000000000000000000000000000000000000000000000000002c0003010011010000000000000000000000000003d090010013030000000000000000000000000000000f42400000000000000000000000000000000000000000",
          "blockHash": "0xe11247f98ab89ac70487403b640db8c9f1acf428d4db1859c2419495cb5a10e0",
          "blockNumber": "0x1c47766",
          "blockTimestamp": "0x6a03e9a3",
          "transactionHash": "0x61276547490c59dff2969dc2c4730531bfd919d67b9cd2c272240715b0fa946d",
          "transactionIndex": "0x23",
          "logIndex": "0x9d",
          "removed": false
        },
        {
          "address": "0x90581eca9469d8d7f5d3b60f4715027adfcf7927",
          "topics": [
            "0x85496b760a4b7f8d66384b9df21b381f5d1b1e79f229a47aaf4c232edc2fe59a",
            "0xad2097a8d20d7f15d44c7a06d08cb4db5c93ff61f237f81eb44703bd219da229",
            "0x000000000000000000000000938d99a81814f66b01010d19ddce92a633441699"
          ],
          "data": "0x000000000000000000000000000000000000000000000000000000000000762f000000000000000000000000000000000000000000000000000009184e72a000000000000000000000000000000000000000000000000000000009184e72a000",
          "blockHash": "0xe11247f98ab89ac70487403b640db8c9f1acf428d4db1859c2419495cb5a10e0",
          "blockNumber": "0x1c47766",
          "blockTimestamp": "0x6a03e9a3",
          "transactionHash": "0x61276547490c59dff2969dc2c4730531bfd919d67b9cd2c272240715b0fa946d",
          "transactionIndex": "0x23",
          "logIndex": "0x9e",
          "removed": false
        },
        {
          "address": "0x938d99a81814f66b01010d19ddce92a633441699",
          "topics": [
            "0xbc9ee36b6ca0bdd5b3840e6d329dd19a2490d880c7ce24d9818aa593adfb35be",
            "0x00000000000000000000000045dce8e4f2dc005a5f28206a46cb034697eeda8e",
            "0x00000000000000000000000000000000000000000000000000000000000075d5",
            "0x00000000000000000000000045dce8e4f2dc005a5f28206a46cb034697eeda8e"
          ],
          "data": "0x00000000000000000000000090581eca9469d8d7f5d3b60f4715027adfcf7927000000000000000000000000000000000000000000000000000009184e72a000",
          "blockHash": "0xe11247f98ab89ac70487403b640db8c9f1acf428d4db1859c2419495cb5a10e0",
          "blockNumber": "0x1c47766",
          "blockTimestamp": "0x6a03e9a3",
          "transactionHash": "0x61276547490c59dff2969dc2c4730531bfd919d67b9cd2c272240715b0fa946d",
          "transactionIndex": "0x23",
          "logIndex": "0x9f",
          "removed": false
        }
      ],
      "logsBloom": "0x00100000000000000000000200000000000001000000000000040000000000000000000000000400000000000000000000000000000000000000000000200000000002000000000000000008000000000142000000000000000000000000000000200000020000208020000000000800040000010000100000000010000000000000000000800004000010080008000000000000000000000000000000000000020000108000000020100000000000000000000002400000000440000000010000000002000000000000000080000100001000000000000000080000000020004010040000000000000000080000802008400000008000000000000000000000",
      "type": "0x2",
      "transactionHash": "0x61276547490c59dff2969dc2c4730531bfd919d67b9cd2c272240715b0fa946d",
      "transactionIndex": "0x23",
      "blockHash": "0xe11247f98ab89ac70487403b640db8c9f1acf428d4db1859c2419495cb5a10e0",
      "blockNumber": "0x1c47766",
      "gasUsed": "0x9bda6",
      "effectiveGasPrice": "0x927c0",
      "blobGasUsed": "0xc030",
      "from": "0x45dce8e4f2dc005a5f28206a46cb034697eeda8e",
      "to": "0x938d99a81814f66b01010d19ddce92a633441699",
      "contractAddress": null,
      "daFootprintGasScalar": "0x190",
      "l1BaseFeeScalar": "0x21f9",
      "l1BlobBaseFee": "0x599b98",
      "l1BlobBaseFeeScalar": "0xdd3ef",
      "l1Fee": "0x947a71c7",
      "l1GasPrice": "0x6647abc",
      "l1GasUsed": "0x7b0"
    }
  ],
  "libraries": [],
  "pending": [],
  "returns": {},
  "timestamp": 1778641317416,
  "chain": 480,
  "commit": "3c1e5d2a"
}