{
  "transactions": [
    {
      "hash": "0xbcdbe750c49e76972fcb9f5e11b027d99d23b79a79a1b97d7a3c5cb70ba21450",
      "transactionType": "CALL",
      "contractName": null,
      "contractAddress": "0x80eede496655fb9047dd39d9f418d5483ed600df",
      "function": "approve(address,uint256)",
      "arguments": [
        "0xf74D38A26948E9DDa53eD85cF03C6b1188FbB30C",
        "10000000000000"
      ],
      "transaction": {
        "from": "0x45dce8e4f2dc005a5f28206a46cb034697eeda8e",
        "to": "0x80eede496655fb9047dd39d9f418d5483ed600df",
        "gas": "0x132ad",
        "value": "0x0",
        "input": "0x095ea7b3000000000000000000000000f74d38a26948e9dda53ed85cf03c6b1188fbb30c000000000000000000000000000000000000000000000000000009184e72a000",
        "nonce": "0xb6",
        "chainId": "0x89"
      },
      "additionalContracts": [],
      "isFixedGasLimit": false
    },
    {
      "hash": "0x07077a1b6a71096224e1788761cabcd21b9a47537fdd8f658701eb9300cb19a6",
      "transactionType": "CALL",
      "contractName": null,
      "contractAddress": "0xf74d38a26948e9dda53ed85cf03c6b1188fbb30c",
      "function": "sendOFT(address,uint32,bytes32,uint256)",
      "arguments": [
        "0x80Eede496655FB9047dd39d9f418d5483ED600df",
        "30390",
        "0x00000000000000000000000045dce8e4f2dc005a5f28206a46cb034697eeda8e",
        "10000000000000"
      ],
      "transaction": {
        "from": "0x45dce8e4f2dc005a5f28206a46cb034697eeda8e",
        "to": "0xf74d38a26948e9dda53ed85cf03c6b1188fbb30c",
        "gas": "0xcfd21",
        "value": "0x8de2901953501cd",
        "input": "0x3e832c9000000000000000000000000080eede496655fb9047dd39d9f418d5483ed600df00000000000000000000000000000000000000000000000000000000000076b600000000000000000000000045dce8e4f2dc005a5f28206a46cb034697eeda8e000000000000000000000000000000000000000000000000000009184e72a000",
        "nonce": "0xb7",
        "chainId": "0x89"
      },
      "additionalContracts": [],
      "isFixedGasLimit": false
    },
    {
      "hash": "0x55d57a67803505bb03fe5c56162c985984a3ba9bf36b02e3568fcbba3222574a",
      "transactionType": "CALL",
      "contractName": null,
      "contractAddress": "0x5bff88ca1442c2496f7e475e9e7786383bc070c0",
      "function": "approve(address,uint256)",
      "arguments": [
        "0xf74D38A26948E9DDa53eD85cF03C6b1188FbB30C",
        "10000000000000"
      ],
      "transaction": {
        "from": "0x45dce8e4f2dc005a5f28206a46cb034697eeda8e",
        "to": "0x5bff88ca1442c2496f7e475e9e7786383bc070c0",
        "gas": "0x12184",
        "value": "0x0",
        "input": "0x095ea7b3000000000000000000000000f74d38a26948e9dda53ed85cf03c6b1188fbb30c000000000000000000000000000000000000000000000000000009184e72a000",
        "nonce": "0xb8",
        "chainId": "0x89"
      },
      "additionalContracts": [],
      "isFixedGasLimit": false
    },
    {
      "hash": "0x35a3da5919505b1032b7609be7d2a2e18a7925598a23bf19a93202f5fcf591a5",
      "transactionType": "CALL",
      "contractName": null,
      "contractAddress": "0xf74d38a26948e9dda53ed85cf03c6b1188fbb30c",
      "function": "sendOFT(address,uint32,bytes32,uint256)",
      "arguments": [
        "0x5Bff88cA1442c2496f7E475E9e7786383Bc070c0",
        "30390",
        "0x00000000000000000000000045dce8e4f2dc005a5f28206a46cb034697eeda8e",
        "10000000000000"
      ],
      "transaction": {
        "from": "0x45dce8e4f2dc005a5f28206a46cb034697eeda8e",
        "to": "0xf74d38a26948e9dda53ed85cf03c6b1188fbb30c",
        "gas": "0xd1352",
        "value": "0x8de2901953501cd",
        "input": "0x3e832c900000000000000000000000005bff88ca1442c2496f7e475e9e7786383bc070c000000000000000000000000000000000000000000000000000000000000076b600000000000000000000000045dce8e4f2dc005a5f28206a46cb034697eeda8e000000000000000000000000000000000000000000000000000009184e72a000",
        "nonce": "0xb9",
        "chainId": "0x89"
      },
      "additionalContracts": [],
      "isFixedGasLimit": false
    },
    {
      "hash": "0x449d92bd84939a2142cbf58acbb13a0f8508068497b354d50c93088f1a18e459",
      "transactionType": "CALL",
      "contractName": null,
      "contractAddress": "0x43edd7f3831b08fe70b7555ddd373c8bf65a9050",
      "function": "approve(address,uint256)",
      "arguments": [
        "0xf74D38A26948E9DDa53eD85cF03C6b1188FbB30C",
        "10000000000000"
      ],
      "transaction": {
        "from": "0x45dce8e4f2dc005a5f28206a46cb034697eeda8e",
        "to": "0x43edd7f3831b08fe70b7555ddd373c8bf65a9050",
        "gas": "0x132ad",
        "value": "0x0",
        "input": "0x095ea7b3000000000000000000000000f74d38a26948e9dda53ed85cf03c6b1188fbb30c000000000000000000000000000000000000000000000000000009184e72a000",
        "nonce": "0xba",
        "chainId": "0x89"
      },
      "additionalContracts": [],
      "isFixedGasLimit": false
    },
    {
      "hash": "0xe977f78f37ae3cfcf577b60d555666cd8134fb435fdf2e1868e644e1a4dc6ca7",
      "transactionType": "CALL",
      "contractName": null,
      "contractAddress": "0xf74d38a26948e9dda53ed85cf03c6b1188fbb30c",
      "function": "sendOFT(address,uint32,bytes32,uint256)",
      "arguments": [
        "0x43eDD7f3831b08FE70B7555ddD373C8bF65a9050",
        "30390",
        "0x00000000000000000000000045dce8e4f2dc005a5f28206a46cb034697eeda8e",
        "10000000000000"
      ],
      "transaction": {
        "from": "0x45dce8e4f2dc005a5f28206a46cb034697eeda8e",
        "to": "0xf74d38a26948e9dda53ed85cf03c6b1188fbb30c",
        "gas": "0xd76a9",
        "value": "0x8de2901953501cd",
        "input": "0x3e832c9000000000000000000000000043edd7f3831b08fe70b7555ddd373c8bf65a905000000000000000000000000000000000000000000000000000000000000076b600000000000000000000000045dce8e4f2dc005a5f28206a46cb034697eeda8e000000000000000000000000000000000000000000000000000009184e72a000",
        "nonce": "0xbb",
        "chainId": "0x89"
      },
      "additionalContracts": [],
      "isFixedGasLimit": false
    },
    {
      "hash": "0x0828fe46a1bad893bb36dca93dd1ebedd5300b1cbb05c1a0d4c61780d5486336",
      "transactionType": "CALL",
      "contractName": null,
      "contractAddress": "0x3ec3849c33291a9ef4c5db86de593eb4a37fde45",
      "function": "approve(address,uint256)",
      "arguments": [
        "0xf74D38A26948E9DDa53eD85cF03C6b1188FbB30C",
        "10000000000000"
      ],
      "transaction": {
        "from": "0x45dce8e4f2dc005a5f28206a46cb034697eeda8e",
        "to": "0x3ec3849c33291a9ef4c5db86de593eb4a37fde45",
        "gas": "0x132ad",
        "value": "0x0",
        "input": "0x095ea7b3000000000000000000000000f74d38a26948e9dda53ed85cf03c6b1188fbb30c000000000000000000000000000000000000000000000000000009184e72a000",
        "nonce": "0xbc",
        "chainId": "0x89"
      },
      "additionalContracts": [],
      "isFixedGasLimit": false
    },
    {
      "hash": "0xec35f56d89b926a4ee5dc97853ab68f4d1895dc00bb639347183d24e4dfde58c",
      "transactionType": "CALL",
      "contractName": null,
      "contractAddress": "0xf74d38a26948e9dda53ed85cf03c6b1188fbb30c",
      "function": "sendOFT(address,uint32,bytes32,uint256)",
      "arguments": [
        "0x3Ec3849C33291a9eF4c5dB86De593EB4A37fDe45",
        "30390",
        "0x00000000000000000000000045dce8e4f2dc005a5f28206a46cb034697eeda8e",
        "10000000000000"
      ],
      "transaction": {
        "from": "0x45dce8e4f2dc005a5f28206a46cb034697eeda8e",
        "to": "0xf74d38a26948e9dda53ed85cf03c6b1188fbb30c",
        "gas": "0xd1370",
        "value": "0x8de2901953501cd",
        "input": "0x3e832c900000000000000000000000003ec3849c33291a9ef4c5db86de593eb4a37fde4500000000000000000000000000000000000000000000000000000000000076b600000000000000000000000045dce8e4f2dc005a5f28206a46cb034697eeda8e000000000000000000000000000000000000000000000000000009184e72a000",
        "nonce": "0xbd",
        "chainId": "0x89"
      },
      "additionalContracts": [],
      "isFixedGasLimit": false
    },
    {
      "hash": "0x3bc2dc0bccec5502bf27586df6fccdd11555c7baa2c948eeb32273ba4965a95a",
      "transactionType": "CALL",
      "contractName": null,
      "contractAddress": "0x64445f0aecc51e94ad52d8ac56b7190e764e561a",
      "function": "approve(address,uint256)",
      "arguments": [
        "0xf74D38A26948E9DDa53eD85cF03C6b1188FbB30C",
        "10000000000000"
      ],
      "transaction": {
        "from": "0x45dce8e4f2dc005a5f28206a46cb034697eeda8e",
        "to": "0x64445f0aecc51e94ad52d8ac56b7190e764e561a",
        "gas": "0x12184",
        "value": "0x0",
        "input": "0x095ea7b3000000000000000000000000f74d38a26948e9dda53ed85cf03c6b1188fbb30c000000000000000000000000000000000000000000000000000009184e72a000",
        "nonce": "0xbe",
        "chainId": "0x89"
      },
      "additionalContracts": [],
      "isFixedGasLimit": false
    },
    {
      "hash": "0xec559e7850cb0082831d5df8b58414910c30a00f7b6746af75c4834819e1e0ed",
      "transactionType": "CALL",
      "contractName": null,
      "contractAddress": "0xf74d38a26948e9dda53ed85cf03c6b1188fbb30c",
      "function": "sendOFT(address,uint32,bytes32,uint256)",
      "arguments": [
        "0x64445f0aecC51E94aD52d8AC56b7190e764E561a",
        "30390",
        "0x00000000000000000000000045dce8e4f2dc005a5f28206a46cb034697eeda8e",
        "10000000000000"
      ],
      "transaction": {
        "from": "0x45dce8e4f2dc005a5f28206a46cb034697eeda8e",
        "to": "0xf74d38a26948e9dda53ed85cf03c6b1188fbb30c",
        "gas": "0xd7688",
        "value": "0x8de2901953501cd",
        "input": "0x3e832c9000000000000000000000000064445f0aecc51e94ad52d8ac56b7190e764e561a00000000000000000000000000000000000000000000000000000000000076b600000000000000000000000045dce8e4f2dc005a5f28206a46cb034697eeda8e000000000000000000000000000000000000000000000000000009184e72a000",
        "nonce": "0xbf",
        "chainId": "0x89"
      },
      "additionalContracts": [],
      "isFixedGasLimit": false
    },
    {
      "hash": "0xd1a9493d19b46c3f4017a9b0cfa779441a271468693c90dc54773e0acf244dd2",
      "transactionType": "CALL",
      "contractName": null,
      "contractAddress": "0x90581eca9469d8d7f5d3b60f4715027adfcf7927",
      "function": "approve(address,uint256)",
      "arguments": [
        "0xf74D38A26948E9DDa53eD85cF03C6b1188FbB30C",
        "10000000000000"
      ],
      "transaction": {
        "from": "0x45dce8e4f2dc005a5f28206a46cb034697eeda8e",
        "to": "0x90581eca9469d8d7f5d3b60f4715027adfcf7927",
        "gas": "0x132ad",
        "value": "0x0",
        "input": "0x095ea7b3000000000000000000000000f74d38a26948e9dda53ed85cf03c6b1188fbb30c000000000000000000000000000000000000000000000000000009184e72a000",
        "nonce": "0xc0",
        "chainId": "0x89"
      },
      "additionalContracts": [],
      "isFixedGasLimit": false
    },
    {
      "hash": "0x3424ad8a5b33b5f9aba61a5900511c73e7da974990927012fa1424d35e76502f",
      "transactionType": "CALL",
      "contractName": null,
      "contractAddress": "0xf74d38a26948e9dda53ed85cf03c6b1188fbb30c",
      "function": "sendOFT(address,uint32,bytes32,uint256)",
      "arguments": [
        "0x90581eCa9469D8D7F5D3B60f4715027aDFCf7927",
        "30390",
        "0x00000000000000000000000045dce8e4f2dc005a5f28206a46cb034697eeda8e",
        "10000000000000"
      ],
      "transaction": {
        "from": "0x45dce8e4f2dc005a5f28206a46cb034697eeda8e",
        "to": "0xf74d38a26948e9dda53ed85cf03c6b1188fbb30c",
        "gas": "0xe3a0a",
        "value": "0x8de2901953501cd",
        "input": "0x3e832c9000000000000000000000000090581eca9469d8d7f5d3b60f4715027adfcf792700000000000000000000000000000000000000000000000000000000000076b600000000000000000000000045dce8e4f2dc005a5f28206a46cb034697eeda8e000000000000000000000000000000000000000000000000000009184e72a000",
        "nonce": "0xc1",
        "chainId": "0x89"
      },
      "additionalContracts": [],
      "isFixedGasLimit": false
    }
  ],
  "receipts": [
    {
      "status": "0x1",
      "cumulativeGasUsed": "0x1530e1f",
      "logs": [
        {
          "address": "0x80eede496655fb9047dd39d9f418d5483ed600df",
          "topics": [
            "0x8c5be1e5ebec7d5bd14f71427d1e84f3dd0314c0f7b2291e5b200ac8c7c3b925",
            "0x00000000000000000000000045dce8e4f2dc005a5f28206a46cb034697eeda8e",
            "0x000000000000000000000000f74d38a26948e9dda53ed85cf03c6b1188fbb30c"
          ],
          "data": "0x000000000000000000000000000000000000000000000000000009184e72a000",
          "blockHash": "0x8f87916981c58871014a3cdff10be17b2db5333083f7b8c493a023304b897512",
          "blockNumber": "0x52c98ac",
          "blockTimestamp": "0x6a041f29",
          "transactionHash": "0x35a3da5919505b1032b7609be7d2a2e18a7925598a23bf19a93202f5fcf591a5",
          "transactionIndex": "0x92",
          "logIndex": "0x4e0",
          "removed": false
        },
        {
          "address": "0x0000000000000000000000000000000000001010",
          "topics": [
            "0x4dfe1bbbcf077ddc3e01291eea2d5c70c2b422b415d95645b9adcfd678cb1d63",
            "0x0000000000000000000000000000000000000000000000000000000000001010",
            "0x00000000000000000000000045dce8e4f2dc005a5f28206a46cb034697eeda8e",
            "0x0000000000000000000000007ee41d8a25641000661b1ef5e6ae8a00400466b0"
          ],
          "data": "0x00000000000000000000000000000000000000000000000000189fcbf32c4d00000000000000000000000000000000000000000000000000aba9e1da95f282c100000000000000000000000000000000000000000010903deb2e776ae494606d000000000000000000000000000000000000000000000000ab91420ea2c635c100000000000000000000000000000000000000000010903deb471736d7c0ad6d",
          "blockHash": "0x8f87916981c58871014a3cdff10be17b2db5333083f7b8c493a023304b897512",
          "blockNumber": "0x52c98ac",
          "blockTimestamp": "0x6a041f29",
          "transactionHash": "0x35a3da5919505b1032b7609be7d2a2e18a7925598a23bf19a93202f5fcf591a5",
          "transactionIndex": "0x92",
          "logIndex": "0x4e1",
          "removed": false
        }
      ],
      "logsBloom": "0x00000000000000000000000200000000000000000000000000000000000000000000000000000000010000000800000000008000000000000000000200200000000000000000000000000000000000800000000000000000000100000000000000000000000000000000000000000000000000000000000080000000010000000000000000000000020000100400000000000000000000000000000000000000220000000000000000000000000000000000000000000000000000000000004000000000000000000001000000020000001000400000000000100000000000000010000000000000000000000000800000000000000000000000000000100000",
      "type": "0x2",
      "transactionHash": "0x35a3da5919505b1032b7609be7d2a2e18a7925598a23bf19a93202f5fcf591a5",
      "transactionIndex": "0x92",
      "blockHash": "0x8f87916981c58871014a3cdff10be17b2db5333083f7b8c493a023304b897512",
      "blockNumber": "0x52c98ac",
      "gasUsed": "0xd1b2",
      "effectiveGasPrice": "0x583c02f39f",
      "from": "0x45dce8e4f2dc005a5f28206a46cb034697eeda8e",
      "to": "0x80eede496655fb9047dd39d9f418d5483ed600df",
      "contractAddress": null
    },
    {
      "status": "0x1",
      "cumulativeGasUsed": "0x15c7575",
      "logs": [
        {
          "address": "0x0000000000000000000000000000000000001010",
          "topics": [
            "0xe6497e3ee548a3372136af2fcb0696db31fc6cf20260707645068bd3fe97f3c4",
            "0x0000000000000000000000000000000000000000000000000000000000001010",
            "0x00000000000000000000000045dce8e4f2dc005a5f28206a46cb034697eeda8e",
            "0x000000000000000000000000f74d38a26948e9dda53ed85cf03c6b1188fbb30c"
          ],
          "data": "0x00000000000000000000000000000000000000000000000008de2901953501cd000000000000000000000000000000000000000000000000a6e78cb06066c4b4000000000000000000000000000000000000000000000018e5030b7f46793c680000000000000000000000000000000000000000000000009e0963aecb31c2e7000000000000000000000000000000000000000000000018ede13480dbae3e35",
          "blockHash": "0x8f87916981c58871014a3cdff10be17b2db5333083f7b8c493a023304b897512",
          "blockNumber": "0x52c98ac",
          "blockTimestamp": "0x6a041f29",
          "transactionHash": "0x3424ad8a5b33b5f9aba61a5900511c73e7da974990927012fa1424d35e76502f",
          "transactionIndex": "0x93",
          "logIndex": "0x4e2",
          "removed": false
        },
        {
          "address": "0x80eede496655fb9047dd39d9f418d5483ed600df",
          "topics": [
            "0x8c5be1e5ebec7d5bd14f71427d1e84f3dd0314c0f7b2291e5b200ac8c7c3b925",
            "0x00000000000000000000000045dce8e4f2dc005a5f28206a46cb034697eeda8e",
            "0x000000000000000000000000f74d38a26948e9dda53ed85cf03c6b1188fbb30c"
          ],
          "data": "0x0000000000000000000000000000000000000000000000000000000000000000",
          "blockHash": "0x8f87916981c58871014a3cdff10be17b2db5333083f7b8c493a023304b897512",
          "blockNumber": "0x52c98ac",
          "blockTimestamp": "0x6a041f29",
          "transactionHash": "0x3424ad8a5b33b5f9aba61a5900511c73e7da974990927012fa1424d35e76502f",
          "transactionIndex": "0x93",
          "logIndex": "0x4e3",
          "removed": false
        },
        {
          "address": "0x80eede496655fb9047dd39d9f418d5483ed600df",
          "topics": [
            "0xddf252ad1be2c89b69c2b068fc378daa952ba7f163c4a11628f55a4df523b3ef",
            "0x00000000000000000000000045dce8e4f2dc005a5f28206a46cb034697eeda8e",
            "0x000000000000000000000000f74d38a26948e9dda53ed85cf03c6b1188fbb30c"
          ],
          "data": "0x000000000000000000000000000000000000000000000000000009184e72a000",
          "blockHash": "0x8f87916981c58871014a3cdff10be17b2db5333083f7b8c493a023304b897512",
          "blockNumber": "0x52c98ac",
          "blockTimestamp": "0x6a041f29",
          "transactionHash": "0x3424ad8a5b33b5f9aba61a5900511c73e7da974990927012fa1424d35e76502f",
          "transactionIndex": "0x93",
          "logIndex": "0x4e4",
          "removed": false
        },
        {
          "address": "0x80eede496655fb9047dd39d9f418d5483ed600df",
          "topics": [
            "0x8c5be1e5ebec7d5bd14f71427d1e84f3dd0314c0f7b2291e5b200ac8c7c3b925",
            "0x000000000000000000000000f74d38a26948e9dda53ed85cf03c6b1188fbb30c",
            "0x00000000000000000000000080eede496655fb9047dd39d9f418d5483ed600df"
          ],
          "data": "0x000000000000000000000000000000000000000000000000000009184e72a000",
          "blockHash": "0x8f87916981c58871014a3cdff10be17b2db5333083f7b8c493a023304b897512",
          "blockNumber": "0x52c98ac",
          "blockTimestamp": "0x6a041f29",
          "transactionHash": "0x3424ad8a5b33b5f9aba61a5900511c73e7da974990927012fa1424d35e76502f",
          "transactionIndex": "0x93",
          "logIndex": "0x4e5",
          "removed": false
        },
        {
          "address": "0x0000000000000000000000000000000000001010",
          "topics": [
            "0xe6497e3ee548a3372136af2fcb0696db31fc6cf20260707645068bd3fe97f3c4",
            "0x0000000000000000000000000000000000000000000000000000000000001010",
            "0x000000000000000000000000f74d38a26948e9dda53ed85cf03c6b1188fbb30c",
            "0x00000000000000000000000080eede496655fb9047dd39d9f418d5483ed600df"
          ],
          "data": "0x00000000000000000000000000000000000000000000000005b2e353998da0c6000000000000000000000000000000000000000000000018ede13480dbae3e350000000000000000000000000000000000000000000000000000000000000000000000000000000000000000000000000000000000000018e82e512d42209d6f00000000000000000000000000000000000000000000000005b2e353998da0c6",
          "blockHash": "0x8f87916981c58871014a3cdff10be17b2db5333083f7b8c493a023304b897512",
          "blockNumber": "0x52c98ac",
          "blockTimestamp": "0x6a041f29",
          "transactionHash": "0x3424ad8a5b33b5f9aba61a5900511c73e7da974990927012fa1424d35e76502f",
          "transactionIndex": "0x93",
          "logIndex": "0x4e6",
          "removed": false
        },
        {
          "address": "0x80eede496655fb9047dd39d9f418d5483ed600df",
          "topics": [
            "0xddf252ad1be2c89b69c2b068fc378daa952ba7f163c4a11628f55a4df523b3ef",
            "0x000000000000000000000000f74d38a26948e9dda53ed85cf03c6b1188fbb30c",
            "0x0000000000000000000000000000000000000000000000000000000000000000"
          ],
          "data": "0x000000000000000000000000000000000000000000000000000009184e72a000",
          "blockHash": "0x8f87916981c58871014a3cdff10be17b2db5333083f7b8c493a023304b897512",
          "blockNumber": "0x52c98ac",
          "blockTimestamp": "0x6a041f29",
          "transactionHash": "0x3424ad8a5b33b5f9aba61a5900511c73e7da974990927012fa1424d35e76502f",
          "transactionIndex": "0x93",
          "logIndex": "0x4e7",
          "removed": false
        },
        {
          "address": "0x0000000000000000000000000000000000001010",
          "topics": [
            "0xe6497e3ee548a3372136af2fcb0696db31fc6cf20260707645068bd3fe97f3c4",
            "0x0000000000000000000000000000000000000000000000000000000000001010",
            "0x00000000000000000000000080eede496655fb9047dd39d9f418d5483ed600df",
            "0x0000000000000000000000001a44076050125825900e736c501f859c50fe728c"
          ],
          "data": "0x00000000000000000000000000000000000000000000000005b2e353998da0c600000000000000000000000000000000000000000000000005b2e353998da0c60000000000000000000000000000000000000000000000000000000000000000000000000000000000000000000000000000000000000000000000000000000000000000000000000000000000000000000000000000000005b2e353998da0c6",
          "blockHash": "0x8f87916981c58871014a3cdff10be17b2db5333083f7b8c493a023304b897512",
          "blockNumber": "0x52c98ac",
          "blockTimestamp": "0x6a041f29",
          "transactionHash": "0x3424ad8a5b33b5f9aba61a5900511c73e7da974990927012fa1424d35e76502f",
          "transactionIndex": "0x93",
          "logIndex": "0x4e8",
          "removed": false
        },
        {
          "address": "0x6c26c61a97006888ea9e4fa36584c7df57cd9da3",
          "topics": [
            "0x61ed099e74a97a1d7f8bb0952a88ca8b7b8ebd00c126ea04671f92a81213318a"
          ],
          "data": "0x000000000000000000000000cd3f213ad101472e1713c72b1697e727c803885b00000000000000000000000000000000000000000000000002fbf2e4d16f0601",
          "blockHash": "0x8f87916981c58871014a3cdff10be17b2db5333083f7b8c493a023304b897512",
          "blockNumber": "0x52c98ac",
          "blockTimestamp": "0x6a041f29",
          "transactionHash": "0x3424ad8a5b33b5f9aba61a5900511c73e7da974990927012fa1424d35e76502f",
          "transactionIndex": "0x93",
          "logIndex": "0x4e9",
          "removed": false
        },
        {
          "address": "0x6c26c61a97006888ea9e4fa36584c7df57cd9da3",
          "topics": [
            "0x07ea52d82345d6e838192107d8fd7123d9c2ec8e916cd0aad13fd2b60db24644"
          ],
          "data": "0x000000000000000000000000000000000000000000000000000000000000006000000000000000000000000000000000000000000000000000000000000001200000000000000000000000000000000000000000000000000000000000000140000000000000000000000000000000000000000000000000000000000000000500000000000000000000000013feb7234ff60a97af04477d6421415766753ba300000000000000000000000023de2fe932d9043291f870324b74f820e11dc81a00000000000000000000000025e0e650a78e6304a3983fc4b7ffc6544b1beea600000000000000000000000031f748a368a893bdb5abb67ec95f232507601a73000000000000000000000000dab6e6ecb3513a8d2614ad75199b4b264a73105000000000000000000000000000000000000000000000000000000000000000000000000000000000000000000000000000000000000000000000000000000005000000000000000000000000000000000000000000000000009ac3fb3c898ec7000000000000000000000000000000000000000000000000008078281a5929bd000000000000000000000000000000000000000000000000008078281a5929bd0000000000000000000000000000000000000000000000000075f36d3fdf67ba00000000000000000000000000000000000000000000000000a548b6170350ca",
          "blockHash": "0x8f87916981c58871014a3cdff10be17b2db5333083f7b8c493a023304b897512",
          "blockNumber": "0x52c98ac",
          "blockTimestamp": "0x6a041f29",
          "transactionHash": "0x3424ad8a5b33b5f9aba61a5900511c73e7da974990927012fa1424d35e76502f",
          "transactionIndex": "0x93",
          "logIndex": "0x4ea",
          "removed": false
        },
        {
          "address": "0x1a44076050125825900e736c501f859c50fe728c",
          "topics": [
            "0x1ab700d4ced0c005b164c0f789fd09fcbb0156d4c2041b8a3bfbcd961cd1567f"
          ],
          "data": "0x000000000000000000000000000000000000000000000000000000000000006000000000000000000000000000000000000000000000000000000000000001800000000000000000000000006c26c61a97006888ea9e4fa36584c7df57cd9da300000000000000000000000000000000000000000000000000000000000000f90100000000000000800000759d00000000000000000000000080eede496655fb9047dd39d9f418d5483ed600df0000762f00000000000000000000000096a394058e2b84a89bac9667b19661ed003cf5d45002d157b17a933f0684144da4f40ef36c3c281771dd39f8572e7acb2114698b0000000000000000000000002a2019b30c157db6c1c01306b8025167dbe1803b000000000000000a000000000000000000000000f74d38a26948e9dda53ed85cf03c6b1188fbb30c00000000000000000000000045dce8e4f2dc005a5f28206a46cb034697eeda8e00000000000000000000000000000000000000000000000000000000000076b600000000000000000000000000000000000000000000000000000000000000000000000000002c0003010011010000000000000000000000000003d090010013030000000000000000000000000000000f42400000000000000000000000000000000000000000",
          "blockHash": "0x8f87916981c58871014a3cdff10be17b2db5333083f7b8c493a023304b897512",
          "blockNumber": "0x52c98ac",
          "blockTimestamp": "0x6a041f29",
          "transactionHash": "0x3424ad8a5b33b5f9aba61a5900511c73e7da974990927012fa1424d35e76502f",
          "transactionIndex": "0x93",
          "logIndex": "0x4eb",
          "removed": false
        },
        {
          "address": "0x0000000000000000000000000000000000001010",
          "topics": [
            "0xe6497e3ee548a3372136af2fcb0696db31fc6cf20260707645068bd3fe97f3c4",
            "0x0000000000000000000000000000000000000000000000000000000000001010",
            "0x0000000000000000000000001a44076050125825900e736c501f859c50fe728c",
            "0x0000000000000000000000006c26c61a97006888ea9e4fa36584c7df57cd9da3"
          ],
          "data": "0x00000000000000000000000000000000000000000000000005b2e353998da0c600000000000000000000000000000000000000000000000005b2e353998da0c600000000000000000000000000000000000000000000038daf3e9c066f6257e6000000000000000000000000000000000000000000000000000000000000000000000000000000000000000000000000000000000000038db4f17f5a08eff8ac",
          "blockHash": "0x8f87916981c58871014a3cdff10be17b2db5333083f7b8c493a023304b897512",
          "blockNumber": "0x52c98ac",
          "blockTimestamp": "0x6a041f29",
          "transactionHash": "0x3424ad8a5b33b5f9aba61a5900511c73e7da974990927012fa1424d35e76502f",
          "transactionIndex": "0x93",
          "logIndex": "0x4ec",
          "removed": false
        },
        {
          "address": "0x80eede496655fb9047dd39d9f418d5483ed600df",
          "topics": [
            "0x85496b760a4b7f8d66384b9df21b381f5d1b1e79f229a47aaf4c232edc2fe59a",
            "0x5002d157b17a933f0684144da4f40ef36c3c281771dd39f8572e7acb2114698b",
            "0x000000000000000000000000f74d38a26948e9dda53ed85cf03c6b1188fbb30c"
          ],
          "data": "0x000000000000000000000000000000000000000000000000000000000000762f000000000000000000000000000000000000000000000000000009184e72a000000000000000000000000000000000000000000000000000000009184e72a000",
          "blockHash": "0x8f87916981c58871014a3cdff10be17b2db5333083f7b8c493a023304b897512",
          "blockNumber": "0x52c98ac",
          "blockTimestamp": "0x6a041f29",
          "transactionHash": "0x3424ad8a5b33b5f9aba61a5900511c73e7da974990927012fa1424d35e76502f",
          "transactionIndex": "0x93",
          "logIndex": "0x4ed",
          "removed": false
        },
        {
          "address": "0xf74d38a26948e9dda53ed85cf03c6b1188fbb30c",
          "topics": [
            "0xbc9ee36b6ca0bdd5b3840e6d329dd19a2490d880c7ce24d9818aa593adfb35be",
            "0x00000000000000000000000045dce8e4f2dc005a5f28206a46cb034697eeda8e",
            "0x00000000000000000000000000000000000000000000000000000000000076b6",
            "0x00000000000000000000000045dce8e4f2dc005a5f28206a46cb034697eeda8e"
          ],
          "data": "0x00000000000000000000000080eede496655fb9047dd39d9f418d5483ed600df000000000000000000000000000000000000000000000000000009184e72a000",
          "blockHash": "0x8f87916981c58871014a3cdff10be17b2db5333083f7b8c493a023304b897512",
          "blockNumber": "0x52c98ac",
          "blockTimestamp": "0x6a041f29",
          "transactionHash": "0x3424ad8a5b33b5f9aba61a5900511c73e7da974990927012fa1424d35e76502f",
          "transactionIndex": "0x93",
          "logIndex": "0x4ee",
          "removed": false
        },
        {
          "address": "0x0000000000000000000000000000000000001010",
          "topics": [
            "0x4dfe1bbbcf077ddc3e01291eea2d5c70c2b422b415d95645b9adcfd678cb1d63",
            "0x0000000000000000000000000000000000000000000000000000000000001010",
            "0x00000000000000000000000045dce8e4f2dc005a5f28206a46cb034697eeda8e",
            "0x0000000000000000000000007ee41d8a25641000661b1ef5e6ae8a00400466b0"
          ],
          "data": "0x000000000000000000000000000000000000000000000000011ab099b7c48700000000000000000000000000000000000000000000000000ab619b8273004f3300000000000000000000000000000000000000000010903deb471736d7c0ad6d000000000000000000000000000000000000000000000000aa46eae8bb3bc83300000000000000000000000000000000000000000010903dec61c7d08f85346d",
          "blockHash": "0x8f87916981c58871014a3cdff10be17b2db5333083f7b8c493a023304b897512",
          "blockNumber": "0x52c98ac",
          "blockTimestamp": "0x6a041f29",
          "transactionHash": "0x3424ad8a5b33b5f9aba61a5900511c73e7da974990927012fa1424d35e76502f",
          "transactionIndex": "0x93",
          "logIndex": "0x4ef",
          "removed": false
        }
      ],
      "logsBloom": "0x00000000000080000000008200000000000000000000800000000004001000800000084100000400010000100802000000008000000000000000000200200000000082000000000000000008000000800000000000000000000100000000200000000000020000008000000000000800000000000010100080200010010000000000004000000000020000180400000000000000200000000000010000000000220040108000000020100000000000000000000000400000000440000000004000000002000000000001000080020000001000400000801000188000000020000010040020000000000000000000802800000000018000000000000000100000",
      "type": "0x2",
      "transactionHash": "0x3424ad8a5b33b5f9aba61a5900511c73e7da974990927012fa1424d35e76502f",
      "transactionIndex": "0x93",
      "blockHash": "0x8f87916981c58871014a3cdff10be17b2db5333083f7b8c493a023304b897512",
      "blockNumber": "0x52c98ac",
      "gasUsed": "0x96756",
      "effectiveGasPrice": "0x583c02f39f",
      "from": "0x45dce8e4f2dc005a5f28206a46cb034697eeda8e",
      "to": "0xf74d38a26948e9dda53ed85cf03c6b1188fbb30c",
      "contractAddress": null
    },
    {
      "status": "0x1",
      "cumulativeGasUsed": "0x15d4711",
      "logs": [
        {
          "address": "0x5bff88ca1442c2496f7e475e9e7786383bc070c0",
          "topics": [
            "0x8c5be1e5ebec7d5bd14f71427d1e84f3dd0314c0f7b2291e5b200ac8c7c3b925",
            "0x00000000000000000000000045dce8e4f2dc005a5f28206a46cb034697eeda8e",
            "0x000000000000000000000000f74d38a26948e9dda53ed85cf03c6b1188fbb30c"
          ],
          "data": "0x000000000000000000000000000000000000000000000000000009184e72a000",
          "blockHash": "0x8f87916981c58871014a3cdff10be17b2db5333083f7b8c493a023304b897512",
          "blockNumber": "0x52c98ac",
          "blockTimestamp": "0x6a041f29",
          "transactionHash": "0x449d92bd84939a2142cbf58acbb13a0f8508068497b354d50c93088f1a18e459",
          "transactionIndex": "0x94",
          "logIndex": "0x4f0",
          "removed": false
        },
        {
          "address": "0x0000000000000000000000000000000000001010",
          "topics": [
            "0x4dfe1bbbcf077ddc3e01291eea2d5c70c2b422b415d95645b9adcfd678cb1d63",
            "0x0000000000000000000000000000000000000000000000000000000000001010",
            "0x00000000000000000000000045dce8e4f2dc005a5f28206a46cb034697eeda8e",
            "0x0000000000000000000000007ee41d8a25641000661b1ef5e6ae8a00400466b0"
          ],
          "data": "0x00000000000000000000000000000000000000000000000000189d3697b3e6000000000000000000000000000000000000000000000000009f45b89cf4317cfc00000000000000000000000000000000000000000010903dec61c7d08f85346d0000000000000000000000000000000000000000000000009f2d1b665c7d96fc00000000000000000000000000000000000000000010903dec7a650727391a6d",
          "blockHash": "0x8f87916981c58871014a3cdff10be17b2db5333083f7b8c493a023304b897512",
          "blockNumber": "0x52c98ac",
          "blockTimestamp": "0x6a041f29",
          "transactionHash": "0x449d92bd84939a2142cbf58acbb13a0f8508068497b354d50c93088f1a18e459",
          "transactionIndex": "0x94",
          "logIndex": "0x4f1",
          "removed": false
        }
      ],
      "logsBloom": "0x00000000000000000000000200000000000000000000000000000000000000000000000000000000010000000000000000008000000000000000000000200000000000000000000000000000000000800000000000000000000100000000000000000000000000000000000000000000000000000000000080000000000000000000000000000000020000100400000000000000000000000000000000000000220000000000000000000000000000000000000000000000000000000010004000000000000000000001000000020000001000c00000000000100000000000000010000000000000000000000000800000000000000000000000000000100800",
      "type": "0x2",
      "transactionHash": "0x449d92bd84939a2142cbf58acbb13a0f8508068497b354d50c93088f1a18e459",
      "transactionIndex": "0x94",
      "blockHash": "0x8f87916981c58871014a3cdff10be17b2db5333083f7b8c493a023304b897512",
      "blockNumber": "0x52c98ac",
      "gasUsed": "0xd19c",
      "effectiveGasPrice": "0x583c02f39f",
      "from": "0x45dce8e4f2dc005a5f28206a46cb034697eeda8e",
      "to": "0x5bff88ca1442c2496f7e475e9e7786383bc070c0",
      "contractAddress": null
    },
    {
      "status": "0x1",
      "cumulativeGasUsed": "0x166be78",
      "logs": [
        {
          "address": "0x0000000000000000000000000000000000001010",
          "topics": [
            "0xe6497e3ee548a3372136af2fcb0696db31fc6cf20260707645068bd3fe97f3c4",
            "0x0000000000000000000000000000000000000000000000000000000000001010",
            "0x00000000000000000000000045dce8e4f2dc005a5f28206a46cb034697eeda8e",
            "0x000000000000000000000000f74d38a26948e9dda53ed85cf03c6b1188fbb30c"
          ],
          "data": "0x00000000000000000000000000000000000000000000000008de2901953501cd0000000000000000000000000000000000000000000000009a7bc4fc2966632a000000000000000000000000000000000000000000000018e82e512d42209d6f000000000000000000000000000000000000000000000000919d9bfa9431615d000000000000000000000000000000000000000000000018f10c7a2ed7559f3c",
          "blockHash": "0x8f87916981c58871014a3cdff10be17b2db5333083f7b8c493a023304b897512",
          "blockNumber": "0x52c98ac",
          "blockTimestamp": "0x6a041f29",
          "transactionHash": "0x07077a1b6a71096224e1788761cabcd21b9a47537fdd8f658701eb9300cb19a6",
          "transactionIndex": "0x95",
          "logIndex": "0x4f2",
          "removed": false
        },
        {
          "address": "0x5bff88ca1442c2496f7e475e9e7786383bc070c0",
          "topics": [
            "0x8c5be1e5ebec7d5bd14f71427d1e84f3dd0314c0f7b2291e5b200ac8c7c3b925",
            "0x00000000000000000000000045dce8e4f2dc005a5f28206a46cb034697eeda8e",
            "0x000000000000000000000000f74d38a26948e9dda53ed85cf03c6b1188fbb30c"
          ],
          "data": "0x0000000000000000000000000000000000000000000000000000000000000000",
          "blockHash": "0x8f87916981c58871014a3cdff10be17b2db5333083f7b8c493a023304b897512",
          "blockNumber": "0x52c98ac",
          "blockTimestamp": "0x6a041f29",
          "transactionHash": "0x07077a1b6a71096224e1788761cabcd21b9a47537fdd8f658701eb9300cb19a6",
          "transactionIndex": "0x95",
          "logIndex": "0x4f3",
          "removed": false
        },
        {
          "address": "0x5bff88ca1442c2496f7e475e9e7786383bc070c0",
          "topics": [
            "0xddf252ad1be2c89b69c2b068fc378daa952ba7f163c4a11628f55a4df523b3ef",
            "0x00000000000000000000000045dce8e4f2dc005a5f28206a46cb034697eeda8e",
            "0x000000000000000000000000f74d38a26948e9dda53ed85cf03c6b1188fbb30c"
          ],
          "data": "0x000000000000000000000000000000000000000000000000000009184e72a000",
          "blockHash": "0x8f87916981c58871014a3cdff10be17b2db5333083f7b8c493a023304b897512",
          "blockNumber": "0x52c98ac",
          "blockTimestamp": "0x6a041f29",
          "transactionHash": "0x07077a1b6a71096224e1788761cabcd21b9a47537fdd8f658701eb9300cb19a6",
          "transactionIndex": "0x95",
          "logIndex": "0x4f4",
          "removed": false
        },
        {
          "address": "0x5bff88ca1442c2496f7e475e9e7786383bc070c0",
          "topics": [
            "0x8c5be1e5ebec7d5bd14f71427d1e84f3dd0314c0f7b2291e5b200ac8c7c3b925",
            "0x000000000000000000000000f74d38a26948e9dda53ed85cf03c6b1188fbb30c",
            "0x0000000000000000000000005bff88ca1442c2496f7e475e9e7786383bc070c0"
          ],
          "data": "0x000000000000000000000000000000000000000000000000000009184e72a000",
          "blockHash": "0x8f87916981c58871014a3cdff10be17b2db5333083f7b8c493a023304b897512",
          "blockNumber": "0x52c98ac",
          "blockTimestamp": "0x6a041f29",
          "transactionHash": "0x07077a1b6a71096224e1788761cabcd21b9a47537fdd8f658701eb9300cb19a6",
          "transactionIndex": "0x95",
          "logIndex": "0x4f5",
          "removed": false
        },
        {
          "address": "0x0000000000000000000000000000000000001010",
          "topics": [
            "0xe6497e3ee548a3372136af2fcb0696db31fc6cf20260707645068bd3fe97f3c4",
            "0x0000000000000000000000000000000000000000000000000000000000001010",
            "0x000000000000000000000000f74d38a26948e9dda53ed85cf03c6b1188fbb30c",
            "0x0000000000000000000000005bff88ca1442c2496f7e475e9e7786383bc070c0"
          ],
          "data": "0x00000000000000000000000000000000000000000000000005b2e353998da0c6000000000000000000000000000000000000000000000018f10c7a2ed7559f3c0000000000000000000000000000000000000000000000000000000000000000000000000000000000000000000000000000000000000018eb5996db3dc7fe7600000000000000000000000000000000000000000000000005b2e353998da0c6",
          "blockHash": "0x8f87916981c58871014a3cdff10be17b2db5333083f7b8c493a023304b897512",
          "blockNumber": "0x52c98ac",
          "blockTimestamp": "0x6a041f29",
          "transactionHash": "0x07077a1b6a71096224e1788761cabcd21b9a47537fdd8f658701eb9300cb19a6",
          "transactionIndex": "0x95",
          "logIndex": "0x4f6",
          "removed": false
        },
        {
          "address": "0x5bff88ca1442c2496f7e475e9e7786383bc070c0",
          "topics": [
            "0xddf252ad1be2c89b69c2b068fc378daa952ba7f163c4a11628f55a4df523b3ef",
            "0x000000000000000000000000f74d38a26948e9dda53ed85cf03c6b1188fbb30c",
            "0x0000000000000000000000000000000000000000000000000000000000000000"
          ],
          "data": "0x000000000000000000000000000000000000000000000000000009184e72a000",
          "blockHash": "0x8f87916981c58871014a3cdff10be17b2db5333083f7b8c493a023304b897512",
          "blockNumber": "0x52c98ac",
          "blockTimestamp": "0x6a041f29",
          "transactionHash": "0x07077a1b6a71096224e1788761cabcd21b9a47537fdd8f658701eb9300cb19a6",
          "transactionIndex": "0x95",
          "logIndex": "0x4f7",
          "removed": false
        },
        {
          "address": "0x0000000000000000000000000000000000001010",
          "topics": [
            "0xe6497e3ee548a3372136af2fcb0696db31fc6cf20260707645068bd3fe97f3c4",
            "0x0000000000000000000000000000000000000000000000000000000000001010",
            "0x0000000000000000000000005bff88ca1442c2496f7e475e9e7786383bc070c0",
            "0x0000000000000000000000001a44076050125825900e736c501f859c50fe728c"
          ],
          "data": "0x00000000000000000000000000000000000000000000000005b2e353998da0c600000000000000000000000000000000000000000000000005b2e353998da0c60000000000000000000000000000000000000000000000000000000000000000000000000000000000000000000000000000000000000000000000000000000000000000000000000000000000000000000000000000000005b2e353998da0c6",
          "blockHash": "0x8f87916981c58871014a3cdff10be17b2db5333083f7b8c493a023304b897512",
          "blockNumber": "0x52c98ac",
          "blockTimestamp": "0x6a041f29",
          "transactionHash": "0x07077a1b6a71096224e1788761cabcd21b9a47537fdd8f658701eb9300cb19a6",
          "transactionIndex": "0x95",
          "logIndex": "0x4f8",
          "removed": false
        },
        {
          "address": "0x6c26c61a97006888ea9e4fa36584c7df57cd9da3",
          "topics": [
            "0x61ed099e74a97a1d7f8bb0952a88ca8b7b8ebd00c126ea04671f92a81213318a"
          ],
          "data": "0x000000000000000000000000cd3f213ad101472e1713c72b1697e727c803885b00000000000000000000000000000000000000000000000002fbf2e4d16f0601",
          "blockHash": "0x8f87916981c58871014a3cdff10be17b2db5333083f7b8c493a023304b897512",
          "blockNumber": "0x52c98ac",
          "blockTimestamp": "0x6a041f29",
          "transactionHash": "0x07077a1b6a71096224e1788761cabcd21b9a47537fdd8f658701eb9300cb19a6",
          "transactionIndex": "0x95",
          "logIndex": "0x4f9",
          "removed": false
        },
        {
          "address": "0x6c26c61a97006888ea9e4fa36584c7df57cd9da3",
          "topics": [
            "0x07ea52d82345d6e838192107d8fd7123d9c2ec8e916cd0aad13fd2b60db24644"
          ],
          "data": "0x000000000000000000000000000000000000000000000000000000000000006000000000000000000000000000000000000000000000000000000000000001200000000000000000000000000000000000000000000000000000000000000140000000000000000000000000000000000000000000000000000000000000000500000000000000000000000013feb7234ff60a97af04477d6421415766753ba300000000000000000000000023de2fe932d9043291f870324b74f820e11dc81a00000000000000000000000025e0e650a78e6304a3983fc4b7ffc6544b1beea600000000000000000000000031f748a368a893bdb5abb67ec95f232507601a73000000000000000000000000dab6e6ecb3513a8d2614ad75199b4b264a73105000000000000000000000000000000000000000000000000000000000000000000000000000000000000000000000000000000000000000000000000000000005000000000000000000000000000000000000000000000000009ac3fb3c898ec7000000000000000000000000000000000000000000000000008078281a5929bd000000000000000000000000000000000000000000000000008078281a5929bd0000000000000000000000000000000000000000000000000075f36d3fdf67ba00000000000000000000000000000000000000000000000000a548b6170350ca",
          "blockHash": "0x8f87916981c58871014a3cdff10be17b2db5333083f7b8c493a023304b897512",
          "blockNumber": "0x52c98ac",
          "blockTimestamp": "0x6a041f29",
          "transactionHash": "0x07077a1b6a71096224e1788761cabcd21b9a47537fdd8f658701eb9300cb19a6",
          "transactionIndex": "0x95",
          "logIndex": "0x4fa",
          "removed": false
        },
        {
          "address": "0x1a44076050125825900e736c501f859c50fe728c",
          "topics": [
            "0x1ab700d4ced0c005b164c0f789fd09fcbb0156d4c2041b8a3bfbcd961cd1567f"
          ],
          "data": "0x000000000000000000000000000000000000000000000000000000000000006000000000000000000000000000000000000000000000000000000000000001800000000000000000000000006c26c61a97006888ea9e4fa36584c7df57cd9da300000000000000000000000000000000000000000000000000000000000000f901000000000000000a0000759d0000000000000000000000005bff88ca1442c2496f7e475e9e7786383bc070c00000762f00000000000000000000000088aa7854d3b2daa5e37e7ce73a1f39669623a3619db9b7fe63d04e4c21d688e567e3121bd74b88339877c8c32a422d58c7f350470000000000000000000000002a2019b30c157db6c1c01306b8025167dbe1803b000000000000000a000000000000000000000000f74d38a26948e9dda53ed85cf03c6b1188fbb30c00000000000000000000000045dce8e4f2dc005a5f28206a46cb034697eeda8e00000000000000000000000000000000000000000000000000000000000076b600000000000000000000000000000000000000000000000000000000000000000000000000002c0003010011010000000000000000000000000003d090010013030000000000000000000000000000000f42400000000000000000000000000000000000000000",
          "blockHash": "0x8f87916981c58871014a3cdff10be17b2db5333083f7b8c493a023304b897512",
          "blockNumber": "0x52c98ac",
          "blockTimestamp": "0x6a041f29",
          "transactionHash": "0x07077a1b6a71096224e1788761cabcd21b9a47537fdd8f658701eb9300cb19a6",
          "transactionIndex": "0x95",
          "logIndex": "0x4fb",
          "removed": false
        },
        {
          "address": "0x0000000000000000000000000000000000001010",
          "topics": [
            "0xe6497e3ee548a3372136af2fcb0696db31fc6cf20260707645068bd3fe97f3c4",
            "0x0000000000000000000000000000000000000000000000000000000000001010",
            "0x0000000000000000000000001a44076050125825900e736c501f859c50fe728c",
            "0x0000000000000000000000006c26c61a97006888ea9e4fa36584c7df57cd9da3"
          ],
          "data": "0x00000000000000000000000000000000000000000000000005b2e353998da0c600000000000000000000000000000000000000000000000005b2e353998da0c600000000000000000000000000000000000000000000038db4f17f5a08eff8ac000000000000000000000000000000000000000000000000000000000000000000000000000000000000000000000000000000000000038dbaa462ada27d9972",
          "blockHash": "0x8f87916981c58871014a3cdff10be17b2db5333083f7b8c493a023304b897512",
          "blockNumber": "0x52c98ac",
          "blockTimestamp": "0x6a041f29",
          "transactionHash": "0x07077a1b6a71096224e1788761cabcd21b9a47537fdd8f658701eb9300cb19a6",
          "transactionIndex": "0x95",
          "logIndex": "0x4fc",
          "removed": false
        },
        {
          "address": "0x5bff88ca1442c2496f7e475e9e7786383bc070c0",
          "topics": [
            "0x85496b760a4b7f8d66384b9df21b381f5d1b1e79f229a47aaf4c232edc2fe59a",
            "0x9db9b7fe63d04e4c21d688e567e3121bd74b88339877c8c32a422d58c7f35047",
            "0x000000000000000000000000f74d38a26948e9dda53ed85cf03c6b1188fbb30c"
          ],
          "data": "0x000000000000000000000000000000000000000000000000000000000000762f000000000000000000000000000000000000000000000000000009184e72a000000000000000000000000000000000000000000000000000000009184e72a000",
          "blockHash": "0x8f87916981c58871014a3cdff10be17b2db5333083f7b8c493a023304b897512",
          "blockNumber": "0x52c98ac",
          "blockTimestamp": "0x6a041f29",
          "transactionHash": "0x07077a1b6a71096224e1788761cabcd21b9a47537fdd8f658701eb9300cb19a6",
          "transactionIndex": "0x95",
          "logIndex": "0x4fd",
          "removed": false
        },
        {
          "address": "0xf74d38a26948e9dda53ed85cf03c6b1188fbb30c",
          "topics": [
            "0xbc9ee36b6ca0bdd5b3840e6d329dd19a2490d880c7ce24d9818aa593adfb35be",
            "0x00000000000000000000000045dce8e4f2dc005a5f28206a46cb034697eeda8e",
            "0x00000000000000000000000000000000000000000000000000000000000076b6",
            "0x00000000000000000000000045dce8e4f2dc005a5f28206a46cb034697eeda8e"
          ],
          "data": "0x0000000000000000000000005bff88ca1442c2496f7e475e9e7786383bc070c0000000000000000000000000000000000000000000000000000009184e72a000",
          "blockHash": "0x8f87916981c58871014a3cdff10be17b2db5333083f7b8c493a023304b897512",
          "blockNumber": "0x52c98ac",
          "blockTimestamp": "0x6a041f29",
          "transactionHash": "0x07077a1b6a71096224e1788761cabcd21b9a47537fdd8f658701eb9300cb19a6",
          "transactionIndex": "0x95",
          "logIndex": "0x4fe",
          "removed": false
        },
        {
          "address": "0x0000000000000000000000000000000000001010",
          "topics": [
            "0x4dfe1bbbcf077ddc3e01291eea2d5c70c2b422b415d95645b9adcfd678cb1d63",
            "0x0000000000000000000000000000000000000000000000000000000000001010",
            "0x00000000000000000000000045dce8e4f2dc005a5f28206a46cb034697eeda8e",
            "0x0000000000000000000000007ee41d8a25641000661b1ef5e6ae8a00400466b0"
          ],
          "data": "0x000000000000000000000000000000000000000000000000011c939578ec79800000000000000000000000000000000000000000000000009efd79d9f980391800000000000000000000000000000000000000000010903dec7a650727391a6d0000000000000000000000000000000000000000000000009de0e6448093bf9800000000000000000000000000000000000000000010903ded96f89ca02593ed",
          "blockHash": "0x8f87916981c58871014a3cdff10be17b2db5333083f7b8c493a023304b897512",
          "blockNumber": "0x52c98ac",
          "blockTimestamp": "0x6a041f29",
          "transactionHash": "0x07077a1b6a71096224e1788761cabcd21b9a47537fdd8f658701eb9300cb19a6",
          "transactionIndex": "0x95",
          "logIndex": "0x4ff",
          "removed": false
        }
      ],
      "logsBloom": "0x00000000000000000000008200000000000000000000800000000004001000000001004100000000010000100002000000008000000000000000000000200000000082000000000000000008000000800000000000000000000100000000200000080000020000008000000000000800000000000010100080200010000000000000005000000000020000180400002000000000200000000000010000000000220000108000000020100000000000000000000000400000000440000010004000000002000000000001000080020000001000c00000801000188000000020000010040000000000000000040000802800000000018000000000000000100800",
      "type": "0x2",
      "transactionHash": "0x07077a1b6a71096224e1788761cabcd21b9a47537fdd8f658701eb9300cb19a6",
      "transactionIndex": "0x95",
      "blockHash": "0x8f87916981c58871014a3cdff10be17b2db5333083f7b8c493a023304b897512",
      "blockNumber": "0x52c98ac",
      "gasUsed": "0x97767",
      "effectiveGasPrice": "0x583c02f39f",
      "from": "0x45dce8e4f2dc005a5f28206a46cb034697eeda8e",
      "to": "0xf74d38a26948e9dda53ed85cf03c6b1188fbb30c",
      "contractAddress": null
    },
    {
      "status": "0x1",
      "cumulativeGasUsed": "0x167902a",
      "logs": [
        {
          "address": "0x43edd7f3831b08fe70b7555ddd373c8bf65a9050",
          "topics": [
            "0x8c5be1e5ebec7d5bd14f71427d1e84f3dd0314c0f7b2291e5b200ac8c7c3b925",
            "0x00000000000000000000000045dce8e4f2dc005a5f28206a46cb034697eeda8e",
            "0x000000000000000000000000f74d38a26948e9dda53ed85cf03c6b1188fbb30c"
          ],
          "data": "0x000000000000000000000000000000000000000000000000000009184e72a000",
          "blockHash": "0x8f87916981c58871014a3cdff10be17b2db5333083f7b8c493a023304b897512",
          "blockNumber": "0x52c98ac",
          "blockTimestamp": "0x6a041f29",
          "transactionHash": "0xe977f78f37ae3cfcf577b60d555666cd8134fb435fdf2e1868e644e1a4dc6ca7",
          "transactionIndex": "0x96",
          "logIndex": "0x500",
          "removed": false
        },
        {
          "address": "0x0000000000000000000000000000000000001010",
          "topics": [
            "0x4dfe1bbbcf077ddc3e01291eea2d5c70c2b422b415d95645b9adcfd678cb1d63",
            "0x0000000000000000000000000000000000000000000000000000000000001010",
            "0x00000000000000000000000045dce8e4f2dc005a5f28206a46cb034697eeda8e",
            "0x0000000000000000000000007ee41d8a25641000661b1ef5e6ae8a00400466b0"
          ],
          "data": "0x00000000000000000000000000000000000000000000000000189fcbf32c4d0000000000000000000000000000000000000000000000000092dc0d584f45495200000000000000000000000000000000000000000010903ded96f89ca02593ed00000000000000000000000000000000000000000000000092c36d8c5c18fc5200000000000000000000000000000000000000000010903dedaf98689351e0ed",
          "blockHash": "0x8f87916981c58871014a3cdff10be17b2db5333083f7b8c493a023304b897512",
          "blockNumber": "0x52c98ac",
          "blockTimestamp": "0x6a041f29",
          "transactionHash": "0xe977f78f37ae3cfcf577b60d555666cd8134fb435fdf2e1868e644e1a4dc6ca7",
          "transactionIndex": "0x96",
          "logIndex": "0x501",
          "removed": false
        }
      ],
      "logsBloom": "0x00000000000000000000000200000000000000000000000000000000000000000000000000000000010000000000000000008000000000000000000000200000000000000000000000000000000000800000000000000000000100000000000000000000000000000000000000000000000000000000000080000000000000000000000000000000020000100400000000000000000000000000000000000000220000000000000002000000000000000000000000000000000000000000004000000000000000000001000000020000001000400000000000100000000000000010000000000000000000040000800000000000000000000000000000180000",
      "type": "0x2",
      "transactionHash": "0xe977f78f37ae3cfcf577b60d555666cd8134fb435fdf2e1868e644e1a4dc6ca7",
      "transactionIndex": "0x96",
      "blockHash": "0x8f87916981c58871014a3cdff10be17b2db5333083f7b8c493a023304b897512",
      "blockNumber": "0x52c98ac",
      "gasUsed": "0xd1b2",
      "effectiveGasPrice": "0x583c02f39f",
      "from": "0x45dce8e4f2dc005a5f28206a46cb034697eeda8e",
      "to": "0x43edd7f3831b08fe70b7555ddd373c8bf65a9050",
      "contractAddress": null
    },
    {
      "status": "0x1",
      "cumulativeGasUsed": "0x170c4db",
      "logs": [
        {
          "address": "0x0000000000000000000000000000000000001010",
          "topics": [
            "0xe6497e3ee548a3372136af2fcb0696db31fc6cf20260707645068bd3fe97f3c4",
            "0x0000000000000000000000000000000000000000000000000000000000001010",
            "0x00000000000000000000000045dce8e4f2dc005a5f28206a46cb034697eeda8e",
            "0x000000000000000000000000f74d38a26948e9dda53ed85cf03c6b1188fbb30c"
          ],
          "data": "0x00000000000000000000000000000000000000000000000008de2901953501cd0000000000000000000000000000000000000000000000008defd4f0d301f7cd000000000000000000000000000000000000000000000018eb5996db3dc7fe760000000000000000000000000000000000000000000000008511abef3dccf600000000000000000000000000000000000000000000000018f437bfdcd2fd0043",
          "blockHash": "0x8f87916981c58871014a3cdff10be17b2db5333083f7b8c493a023304b897512",
          "blockNumber": "0x52c98ac",
          "blockTimestamp": "0x6a041f29",
          "transactionHash": "0x0828fe46a1bad893bb36dca93dd1ebedd5300b1cbb05c1a0d4c61780d5486336",
          "transactionIndex": "0x97",
          "logIndex": "0x502",
          "removed": false
        },
        {
          "address": "0x43edd7f3831b08fe70b7555ddd373c8bf65a9050",
          "topics": [
            "0x8c5be1e5ebec7d5bd14f71427d1e84f3dd0314c0f7b2291e5b200ac8c7c3b925",
            "0x00000000000000000000000045dce8e4f2dc005a5f28206a46cb034697eeda8e",
            "0x000000000000000000000000f74d38a26948e9dda53ed85cf03c6b1188fbb30c"
          ],
          "data": "0x0000000000000000000000000000000000000000000000000000000000000000",
          "blockHash": "0x8f87916981c58871014a3cdff10be17b2db5333083f7b8c493a023304b897512",
          "blockNumber": "0x52c98ac",
          "blockTimestamp": "0x6a041f29",
          "transactionHash": "0x0828fe46a1bad893bb36dca93dd1ebedd5300b1cbb05c1a0d4c61780d5486336",
          "transactionIndex": "0x97",
          "logIndex": "0x503",
          "removed": false
        },
        {
          "address": "0x43edd7f3831b08fe70b7555ddd373c8bf65a9050",
          "topics": [
            "0xddf252ad1be2c89b69c2b068fc378daa952ba7f163c4a11628f55a4df523b3ef",
            "0x00000000000000000000000045dce8e4f2dc005a5f28206a46cb034697eeda8e",
            "0x000000000000000000000000f74d38a26948e9dda53ed85cf03c6b1188fbb30c"
          ],
          "data": "0x000000000000000000000000000000000000000000000000000009184e72a000",
          "blockHash": "0x8f87916981c58871014a3cdff10be17b2db5333083f7b8c493a023304b897512",
          "blockNumber": "0x52c98ac",
          "blockTimestamp": "0x6a041f29",
          "transactionHash": "0x0828fe46a1bad893bb36dca93dd1ebedd5300b1cbb05c1a0d4c61780d5486336",
          "transactionIndex": "0x97",
          "logIndex": "0x504",
          "removed": false
        },
        {
          "address": "0x43edd7f3831b08fe70b7555ddd373c8bf65a9050",
          "topics": [
            "0x8c5be1e5ebec7d5bd14f71427d1e84f3dd0314c0f7b2291e5b200ac8c7c3b925",
            "0x000000000000000000000000f74d38a26948e9dda53ed85cf03c6b1188fbb30c",
            "0x00000000000000000000000043edd7f3831b08fe70b7555ddd373c8bf65a9050"
          ],
          "data": "0x000000000000000000000000000000000000000000000000000009184e72a000",
          "blockHash": "0x8f87916981c58871014a3cdff10be17b2db5333083f7b8c493a023304b897512",
          "blockNumber": "0x52c98ac",
          "blockTimestamp": "0x6a041f29",
          "transactionHash": "0x0828fe46a1bad893bb36dca93dd1ebedd5300b1cbb05c1a0d4c61780d5486336",
          "transactionIndex": "0x97",
          "logIndex": "0x505",
          "removed": false
        },
        {
          "address": "0x0000000000000000000000000000000000001010",
          "topics": [
            "0xe6497e3ee548a3372136af2fcb0696db31fc6cf20260707645068bd3fe97f3c4",
            "0x0000000000000000000000000000000000000000000000000000000000001010",
            "0x000000000000000000000000f74d38a26948e9dda53ed85cf03c6b1188fbb30c",
            "0x00000000000000000000000043edd7f3831b08fe70b7555ddd373c8bf65a9050"
          ],
          "data": "0x00000000000000000000000000000000000000000000000005b2e353998da0c6000000000000000000000000000000000000000000000018f437bfdcd2fd00430000000000000000000000000000000000000000000000000000000000000000000000000000000000000000000000000000000000000018ee84dc89396f5f7d00000000000000000000000000000000000000000000000005b2e353998da0c6",
          "blockHash": "0x8f87916981c58871014a3cdff10be17b2db5333083f7b8c493a023304b897512",
          "blockNumber": "0x52c98ac",
          "blockTimestamp": "0x6a041f29",
          "transactionHash": "0x0828fe46a1bad893bb36dca93dd1ebedd5300b1cbb05c1a0d4c61780d5486336",
          "transactionIndex": "0x97",
          "logIndex": "0x506",
          "removed": false
        },
        {
          "address": "0x43edd7f3831b08fe70b7555ddd373c8bf65a9050",
          "topics": [
            "0xddf252ad1be2c89b69c2b068fc378daa952ba7f163c4a11628f55a4df523b3ef",
            "0x000000000000000000000000f74d38a26948e9dda53ed85cf03c6b1188fbb30c",
            "0x0000000000000000000000000000000000000000000000000000000000000000"
          ],
          "data": "0x000000000000000000000000000000000000000000000000000009184e72a000",
          "blockHash": "0x8f87916981c58871014a3cdff10be17b2db5333083f7b8c493a023304b897512",
          "blockNumber": "0x52c98ac",
          "blockTimestamp": "0x6a041f29",
          "transactionHash": "0x0828fe46a1bad893bb36dca93dd1ebedd5300b1cbb05c1a0d4c61780d5486336",
          "transactionIndex": "0x97",
          "logIndex": "0x507",
          "removed": false
        },
        {
          "address": "0x0000000000000000000000000000000000001010",
          "topics": [
            "0xe6497e3ee548a3372136af2fcb0696db31fc6cf20260707645068bd3fe97f3c4",
            "0x0000000000000000000000000000000000000000000000000000000000001010",
            "0x00000000000000000000000043edd7f3831b08fe70b7555ddd373c8bf65a9050",
            "0x0000000000000000000000001a44076050125825900e736c501f859c50fe728c"
          ],
          "data": "0x00000000000000000000000000000000000000000000000005b2e353998da0c600000000000000000000000000000000000000000000000005b2e353998da0c60000000000000000000000000000000000000000000000000000000000000000000000000000000000000000000000000000000000000000000000000000000000000000000000000000000000000000000000000000000005b2e353998da0c6",
          "blockHash": "0x8f87916981c58871014a3cdff10be17b2db5333083f7b8c493a023304b897512",
          "blockNumber": "0x52c98ac",
          "blockTimestamp": "0x6a041f29",
          "transactionHash": "0x0828fe46a1bad893bb36dca93dd1ebedd5300b1cbb05c1a0d4c61780d5486336",
          "transactionIndex": "0x97",
          "logIndex": "0x508",
          "removed": false
        },
        {
          "address": "0x6c26c61a97006888ea9e4fa36584c7df57cd9da3",
          "topics": [
            "0x61ed099e74a97a1d7f8bb0952a88ca8b7b8ebd00c126ea04671f92a81213318a"
          ],
          "data": "0x000000000000000000000000cd3f213ad101472e1713c72b1697e727c803885b00000000000000000000000000000000000000000000000002fbf2e4d16f0601",
          "blockHash": "0x8f87916981c58871014a3cdff10be17b2db5333083f7b8c493a023304b897512",
          "blockNumber": "0x52c98ac",
          "blockTimestamp": "0x6a041f29",
          "transactionHash": "0x0828fe46a1bad893bb36dca93dd1ebedd5300b1cbb05c1a0d4c61780d5486336",
          "transactionIndex": "0x97",
          "logIndex": "0x509",
          "removed": false
        },
        {
          "address": "0x6c26c61a97006888ea9e4fa36584c7df57cd9da3",
          "topics": [
            "0x07ea52d82345d6e838192107d8fd7123d9c2ec8e916cd0aad13fd2b60db24644"
          ],
          "data": "0x000000000000000000000000000000000000000000000000000000000000006000000000000000000000000000000000000000000000000000000000000001200000000000000000000000000000000000000000000000000000000000000140000000000000000000000000000000000000000000000000000000000000000500000000000000000000000013feb7234ff60a97af04477d6421415766753ba300000000000000000000000023de2fe932d9043291f870324b74f820e11dc81a00000000000000000000000025e0e650a78e6304a3983fc4b7ffc6544b1beea600000000000000000000000031f748a368a893bdb5abb67ec95f232507601a73000000000000000000000000dab6e6ecb3513a8d2614ad75199b4b264a73105000000000000000000000000000000000000000000000000000000000000000000000000000000000000000000000000000000000000000000000000000000005000000000000000000000000000000000000000000000000009ac3fb3c898ec7000000000000000000000000000000000000000000000000008078281a5929bd000000000000000000000000000000000000000000000000008078281a5929bd0000000000000000000000000000000000000000000000000075f36d3fdf67ba00000000000000000000000000000000000000000000000000a548b6170350ca",
          "blockHash": "0x8f87916981c58871014a3cdff10be17b2db5333083f7b8c493a023304b897512",
          "blockNumber": "0x52c98ac",
          "blockTimestamp": "0x6a041f29",
          "transactionHash": "0x0828fe46a1bad893bb36dca93dd1ebedd5300b1cbb05c1a0d4c61780d5486336",
          "transactionIndex": "0x97",
          "logIndex": "0x50a",
          "removed": false
        },
        {
          "address": "0x1a44076050125825900e736c501f859c50fe728c",
          "topics": [
            "0x1ab700d4ced0c005b164c0f789fd09fcbb0156d4c2041b8a3bfbcd961cd1567f"
          ],
          "data": "0x000000000000000000000000000000000000000000000000000000000000006000000000000000000000000000000000000000000000000000000000000001800000000000000000000000006c26c61a97006888ea9e4fa36584c7df57cd9da300000000000000000000000000000000000000000000000000000000000000f90100000000000000030000759d00000000000000000000000043edd7f3831b08fe70b7555ddd373c8bf65a90500000762f0000000000000000000000009abfe1f8a999b0011ecd6116649aee8d575f560453b97ec60a9a249dba700c6ab895f5f00cdaa1f3e8eb943e6c0393e735abfc310000000000000000000000002a2019b30c157db6c1c01306b8025167dbe1803b000000000000000a000000000000000000000000f74d38a26948e9dda53ed85cf03c6b1188fbb30c00000000000000000000000045dce8e4f2dc005a5f28206a46cb034697eeda8e00000000000000000000000000000000000000000000000000000000000076b600000000000000000000000000000000000000000000000000000000000000000000000000002c0003010011010000000000000000000000000003d090010013030000000000000000000000000000000f42400000000000000000000000000000000000000000",
          "blockHash": "0x8f87916981c58871014a3cdff10be17b2db5333083f7b8c493a023304b897512",
          "blockNumber": "0x52c98ac",
          "blockTimestamp": "0x6a041f29",
          "transactionHash": "0x0828fe46a1bad893bb36dca93dd1ebedd5300b1cbb05c1a0d4c61780d5486336",
          "transactionIndex": "0x97",
          "logIndex": "0x50b",
          "removed": false
        },
        {
          "address": "0x0000000000000000000000000000000000001010",
          "topics": [
            "0xe6497e3ee548a3372136af2fcb0696db31fc6cf20260707645068bd3fe97f3c4",
            "0x0000000000000000000000000000000000000000000000000000000000001010",
            "0x0000000000000000000000001a44076050125825900e736c501f859c50fe728c",
            "0x0000000000000000000000006c26c61a97006888ea9e4fa36584c7df57cd9da3"
          ],
          "data": "0x00000000000000000000000000000000000000000000000005b2e353998da0c600000000000000000000000000000000000000000000000005b2e353998da0c600000000000000000000000000000000000000000000038dbaa462ada27d9972000000000000000000000000000000000000000000000000000000000000000000000000000000000000000000000000000000000000038dc05746013c0b3a38",
          "blockHash": "0x8f87916981c58871014a3cdff10be17b2db5333083f7b8c493a023304b897512",
          "blockNumber": "0x52c98ac",
          "blockTimestamp": "0x6a041f29",
          "transactionHash": "0x0828fe46a1bad893bb36dca93dd1ebedd5300b1cbb05c1a0d4c61780d5486336",
          "transactionIndex": "0x97",
          "logIndex": "0x50c",
          "removed": false
        },
        {
          "address": "0x43edd7f3831b08fe70b7555ddd373c8bf65a9050",
          "topics": [
            "0x85496b760a4b7f8d66384b9df21b381f5d1b1e79f229a47aaf4c232edc2fe59a",
            "0x53b97ec60a9a249dba700c6ab895f5f00cdaa1f3e8eb943e6c0393e735abfc31",
            "0x000000000000000000000000f74d38a26948e9dda53ed85cf03c6b1188fbb30c"
          ],
          "data": "0x000000000000000000000000000000000000000000000000000000000000762f000000000000000000000000000000000000000000000000000009184e72a000000000000000000000000000000000000000000000000000000009184e72a000",
          "blockHash": "0x8f87916981c58871014a3cdff10be17b2db5333083f7b8c493a023304b897512",
          "blockNumber": "0x52c98ac",
          "blockTimestamp": "0x6a041f29",
          "transactionHash": "0x0828fe46a1bad893bb36dca93dd1ebedd5300b1cbb05c1a0d4c61780d5486336",
          "transactionIndex": "0x97",
          "logIndex": "0x50d",
          "removed": false
        },
        {
          "address": "0xf74d38a26948e9dda53ed85cf03c6b1188fbb30c",
          "topics": [
            "0xbc9ee36b6ca0bdd5b3840e6d329dd19a2490d880c7ce24d9818aa593adfb35be",
            "0x00000000000000000000000045dce8e4f2dc005a5f28206a46cb034697eeda8e",
            "0x00000000000000000000000000000000000000000000000000000000000076b6",
            "0x00000000000000000000000045dce8e4f2dc005a5f28206a46cb034697eeda8e"
          ],
          "data": "0x00000000000000000000000043edd7f3831b08fe70b7555ddd373c8bf65a9050000000000000000000000000000000000000000000000000000009184e72a000",
          "blockHash": "0x8f87916981c58871014a3cdff10be17b2db5333083f7b8c493a023304b897512",
          "blockNumber": "0x52c98ac",
          "blockTimestamp": "0x6a041f29",
          "transactionHash": "0x0828fe46a1bad893bb36dca93dd1ebedd5300b1cbb05c1a0d4c61780d5486336",
          "transactionIndex": "0x97",
          "logIndex": "0x50e",
          "removed": false
        },
        {
          "address": "0x0000000000000000000000000000000000001010",
          "topics": [
            "0x4dfe1bbbcf077ddc3e01291eea2d5c70c2b422b415d95645b9adcfd678cb1d63",
            "0x0000000000000000000000000000000000000000000000000000000000001010",
            "0x00000000000000000000000045dce8e4f2dc005a5f28206a46cb034697eeda8e",
            "0x0000000000000000000000007ee41d8a25641000661b1ef5e6ae8a00400466b0"
          ],
          "data": "0x0000000000000000000000000000000000000000000000000114be23d53082800000000000000000000000000000000000000000000000009293c7002c5315c400000000000000000000000000000000000000000010903dedaf98689351e0ed000000000000000000000000000000000000000000000000917f08dc5722934400000000000000000000000000000000000000000010903deec4568c6882636d",
          "blockHash": "0x8f87916981c58871014a3cdff10be17b2db5333083f7b8c493a023304b897512",
          "blockNumber": "0x52c98ac",
          "blockTimestamp": "0x6a041f29",
          "transactionHash": "0x0828fe46a1bad893bb36dca93dd1ebedd5300b1cbb05c1a0d4c61780d5486336",
          "transactionIndex": "0x97",
          "logIndex": "0x50f",
          "removed": false
        }
      ],
      "logsBloom": "0x00000000000000000000008200000000000000000000800000000004001000010000004100000000010000100002000000008000000000000000000000200000000082000000000000000008000000800000000000000000000100000000200000000000020000008040000000000800000000000010100080200010000000040000004000000000020000180400000000000000200000000000010100000000220200108000000022100000000000000000000000400000000440000000024000000002000000000001000080020000001000400000801000188000000020000010040000000000000000040000802800000000018000000000000000180000",
      "type": "0x2",
      "transactionHash": "0x0828fe46a1bad893bb36dca93dd1ebedd5300b1cbb05c1a0d4c61780d5486336",
      "transactionIndex": "0x97",
      "blockHash": "0x8f87916981c58871014a3cdff10be17b2db5333083f7b8c493a023304b897512",
      "blockNumber": "0x52c98ac",
      "gasUsed": "0x934b1",
      "effectiveGasPrice": "0x583c02f39f",
      "from": "0x45dce8e4f2dc005a5f28206a46cb034697eeda8e",
      "to": "0xf74d38a26948e9dda53ed85cf03c6b1188fbb30c",
      "contractAddress": null
    },
    {
      "status": "0x1",
      "cumulativeGasUsed": "0x171968d",
      "logs": [
        {
          "address": "0x3ec3849c33291a9ef4c5db86de593eb4a37fde45",
          "topics": [
            "0x8c5be1e5ebec7d5bd14f71427d1e84f3dd0314c0f7b2291e5b200ac8c7c3b925",
            "0x00000000000000000000000045dce8e4f2dc005a5f28206a46cb034697eeda8e",
            "0x000000000000000000000000f74d38a26948e9dda53ed85cf03c6b1188fbb30c"
          ],
          "data": "0x000000000000000000000000000000000000000000000000000009184e72a000",
          "blockHash": "0x8f87916981c58871014a3cdff10be17b2db5333083f7b8c493a023304b897512",
          "blockNumber": "0x52c98ac",
          "blockTimestamp": "0x6a041f29",
          "transactionHash": "0xec559e7850cb0082831d5df8b58414910c30a00f7b6746af75c4834819e1e0ed",
          "transactionIndex": "0x98",
          "logIndex": "0x510",
          "removed": false
        },
        {
          "address": "0x0000000000000000000000000000000000001010",
          "topics": [
            "0x4dfe1bbbcf077ddc3e01291eea2d5c70c2b422b415d95645b9adcfd678cb1d63",
            "0x0000000000000000000000000000000000000000000000000000000000001010",
            "0x00000000000000000000000045dce8e4f2dc005a5f28206a46cb034697eeda8e",
            "0x0000000000000000000000007ee41d8a25641000661b1ef5e6ae8a00400466b0"
          ],
          "data": "0x00000000000000000000000000000000000000000000000000189fcbf32c4d00000000000000000000000000000000000000000000000000868958b1ef00570800000000000000000000000000000000000000000010903deec4568c6882636d0000000000000000000000000000000000000000000000008670b8e5fbd40a0800000000000000000000000000000000000000000010903deedcf6585baeb06d",
          "blockHash": "0x8f87916981c58871014a3cdff10be17b2db5333083f7b8c493a023304b897512",
          "blockNumber": "0x52c98ac",
          "blockTimestamp": "0x6a041f29",
          "transactionHash": "0xec559e7850cb0082831d5df8b58414910c30a00f7b6746af75c4834819e1e0ed",
          "transactionIndex": "0x98",
          "logIndex": "0x511",
          "removed": false
        }
      ],
      "logsBloom": "0x00000000000000000000000200002000000000000000000000000000000000000000000000000000010000000000000000008000000000000000000000200000000000000000000000000000000000800000000000000000000100000000000000000000000000000000000000000000000000000000000080000000000000000000000000000000020000100400000000000000000020000040000000000000220000000000000000000000000000000000000000000000000000000000004000000000000000000001000000020000001000400000000000100000000000000010000000000000000000000000800000000000000000000000000000100000",
      "type": "0x2",
      "transactionHash": "0xec559e7850cb0082831d5df8b58414910c30a00f7b6746af75c4834819e1e0ed",
      "transactionIndex": "0x98",
      "blockHash": "0x8f87916981c58871014a3cdff10be17b2db5333083f7b8c493a023304b897512",
      "blockNumber": "0x52c98ac",
      "gasUsed": "0xd1b2",
      "effectiveGasPrice": "0x583c02f39f",
      "from": "0x45dce8e4f2dc005a5f28206a46cb034697eeda8e",
      "to": "0x3ec3849c33291a9ef4c5db86de593eb4a37fde45",
      "contractAddress": null
    },
    {
      "status": "0x1",
      "cumulativeGasUsed": "0x17b0e0a",
      "logs": [
        {
          "address": "0x0000000000000000000000000000000000001010",
          "topics": [
            "0xe6497e3ee548a3372136af2fcb0696db31fc6cf20260707645068bd3fe97f3c4",
            "0x0000000000000000000000000000000000000000000000000000000000001010",
            "0x00000000000000000000000045dce8e4f2dc005a5f28206a46cb034697eeda8e",
            "0x000000000000000000000000f74d38a26948e9dda53ed85cf03c6b1188fbb30c"
          ],
          "data": "0x00000000000000000000000000000000000000000000000008de2901953501cd00000000000000000000000000000000000000000000000081bf5324f39bc0ea000000000000000000000000000000000000000000000018ee84dc89396f5f7d00000000000000000000000000000000000000000000000078e12a235e66bf1d000000000000000000000000000000000000000000000018f763058acea4614a",
          "blockHash": "0x8f87916981c58871014a3cdff10be17b2db5333083f7b8c493a023304b897512",
          "blockNumber": "0x52c98ac",
          "blockTimestamp": "0x6a041f29",
          "transactionHash": "0x55d57a67803505bb03fe5c56162c985984a3ba9bf36b02e3568fcbba3222574a",
          "transactionIndex": "0x99",
          "logIndex": "0x512",
          "removed": false
        },
        {
          "address": "0x3ec3849c33291a9ef4c5db86de593eb4a37fde45",
          "topics": [
            "0x8c5be1e5ebec7d5bd14f71427d1e84f3dd0314c0f7b2291e5b200ac8c7c3b925",
            "0x00000000000000000000000045dce8e4f2dc005a5f28206a46cb034697eeda8e",
            "0x000000000000000000000000f74d38a26948e9dda53ed85cf03c6b1188fbb30c"
          ],
          "data": "0x0000000000000000000000000000000000000000000000000000000000000000",
          "blockHash": "0x8f87916981c58871014a3cdff10be17b2db5333083f7b8c493a023304b897512",
          "blockNumber": "0x52c98ac",
          "blockTimestamp": "0x6a041f29",
          "transactionHash": "0x55d57a67803505bb03fe5c56162c985984a3ba9bf36b02e3568fcbba3222574a",
          "transactionIndex": "0x99",
          "logIndex": "0x513",
          "removed": false
        },
        {
          "address": "0x3ec3849c33291a9ef4c5db86de593eb4a37fde45",
          "topics": [
            "0xddf252ad1be2c89b69c2b068fc378daa952ba7f163c4a11628f55a4df523b3ef",
            "0x00000000000000000000000045dce8e4f2dc005a5f28206a46cb034697eeda8e",
            "0x000000000000000000000000f74d38a26948e9dda53ed85cf03c6b1188fbb30c"
          ],
          "data": "0x000000000000000000000000000000000000000000000000000009184e72a000",
          "blockHash": "0x8f87916981c58871014a3cdff10be17b2db5333083f7b8c493a023304b897512",
          "blockNumber": "0x52c98ac",
          "blockTimestamp": "0x6a041f29",
          "transactionHash": "0x55d57a67803505bb03fe5c56162c985984a3ba9bf36b02e3568fcbba3222574a",
          "transactionIndex": "0x99",
          "logIndex": "0x514",
          "removed": false
        },
        {
          "address": "0x3ec3849c33291a9ef4c5db86de593eb4a37fde45",
          "topics": [
            "0x8c5be1e5ebec7d5bd14f71427d1e84f3dd0314c0f7b2291e5b200ac8c7c3b925",
            "0x000000000000000000000000f74d38a26948e9dda53ed85cf03c6b1188fbb30c",
            "0x0000000000000000000000003ec3849c33291a9ef4c5db86de593eb4a37fde45"
          ],
          "data": "0x000000000000000000000000000000000000000000000000000009184e72a000",
          "blockHash": "0x8f87916981c58871014a3cdff10be17b2db5333083f7b8c493a023304b897512",
          "blockNumber": "0x52c98ac",
          "blockTimestamp": "0x6a041f29",
          "transactionHash": "0x55d57a67803505bb03fe5c56162c985984a3ba9bf36b02e3568fcbba3222574a",
          "transactionIndex": "0x99",
          "logIndex": "0x515",
          "removed": false
        },
        {
          "address": "0x0000000000000000000000000000000000001010",
          "topics": [
            "0xe6497e3ee548a3372136af2fcb0696db31fc6cf20260707645068bd3fe97f3c4",
            "0x0000000000000000000000000000000000000000000000000000000000001010",
            "0x000000000000000000000000f74d38a26948e9dda53ed85cf03c6b1188fbb30c",
            "0x0000000000000000000000003ec3849c33291a9ef4c5db86de593eb4a37fde45"
          ],
          "data": "0x00000000000000000000000000000000000000000000000005b2e353998da0c6000000000000000000000000000000000000000000000018f763058acea4614a0000000000000000000000000000000000000000000000000000000000000000000000000000000000000000000000000000000000000018f1b022373516c08400000000000000000000000000000000000000000000000005b2e353998da0c6",
          "blockHash": "0x8f87916981c58871014a3cdff10be17b2db5333083f7b8c493a023304b897512",
          "blockNumber": "0x52c98ac",
          "blockTimestamp": "0x6a041f29",
          "transactionHash": "0x55d57a67803505bb03fe5c56162c985984a3ba9bf36b02e3568fcbba3222574a",
          "transactionIndex": "0x99",
          "logIndex": "0x516",
          "removed": false
        },
        {
          "address": "0x3ec3849c33291a9ef4c5db86de593eb4a37fde45",
          "topics": [
            "0xddf252ad1be2c89b69c2b068fc378daa952ba7f163c4a11628f55a4df523b3ef",
            "0x000000000000000000000000f74d38a26948e9dda53ed85cf03c6b1188fbb30c",
            "0x0000000000000000000000000000000000000000000000000000000000000000"
          ],
          "data": "0x000000000000000000000000000000000000000000000000000009184e72a000",
          "blockHash": "0x8f87916981c58871014a3cdff10be17b2db5333083f7b8c493a023304b897512",
          "blockNumber": "0x52c98ac",
          "blockTimestamp": "0x6a041f29",
          "transactionHash": "0x55d57a67803505bb03fe5c56162c985984a3ba9bf36b02e3568fcbba3222574a",
          "transactionIndex": "0x99",
          "logIndex": "0x517",
          "removed": false
        },
        {
          "address": "0x0000000000000000000000000000000000001010",
          "topics": [
            "0xe6497e3ee548a3372136af2fcb0696db31fc6cf20260707645068bd3fe97f3c4",
            "0x0000000000000000000000000000000000000000000000000000000000001010",
            "0x0000000000000000000000003ec3849c33291a9ef4c5db86de593eb4a37fde45",
            "0x0000000000000000000000001a44076050125825900e736c501f859c50fe728c"
          ],
          "data": "0x00000000000000000000000000000000000000000000000005b2e353998da0c600000000000000000000000000000000000000000000000005b2e353998da0c60000000000000000000000000000000000000000000000000000000000000000000000000000000000000000000000000000000000000000000000000000000000000000000000000000000000000000000000000000000005b2e353998da0c6",
          "blockHash": "0x8f87916981c58871014a3cdff10be17b2db5333083f7b8c493a023304b897512",
          "blockNumber": "0x52c98ac",
          "blockTimestamp": "0x6a041f29",
          "transactionHash": "0x55d57a67803505bb03fe5c56162c985984a3ba9bf36b02e3568fcbba3222574a",
          "transactionIndex": "0x99",
          "logIndex": "0x518",
          "removed": false
        },
        {
          "address": "0x6c26c61a97006888ea9e4fa36584c7df57cd9da3",
          "topics": [
            "0x61ed099e74a97a1d7f8bb0952a88ca8b7b8ebd00c126ea04671f92a81213318a"
          ],
          "data": "0x000000000000000000000000cd3f213ad101472e1713c72b1697e727c803885b00000000000000000000000000000000000000000000000002fbf2e4d16f0601",
          "blockHash": "0x8f87916981c58871014a3cdff10be17b2db5333083f7b8c493a023304b897512",
          "blockNumber": "0x52c98ac",
          "blockTimestamp": "0x6a041f29",
          "transactionHash": "0x55d57a67803505bb03fe5c56162c985984a3ba9bf36b02e3568fcbba3222574a",
          "transactionIndex": "0x99",
          "logIndex": "0x519",
          "removed": false
        },
        {
          "address": "0x6c26c61a97006888ea9e4fa36584c7df57cd9da3",
          "topics": [
            "0x07ea52d82345d6e838192107d8fd7123d9c2ec8e916cd0aad13fd2b60db24644"
          ],
          "data": "0x000000000000000000000000000000000000000000000000000000000000006000000000000000000000000000000000000000000000000000000000000001200000000000000000000000000000000000000000000000000000000000000140000000000000000000000000000000000000000000000000000000000000000500000000000000000000000013feb7234ff60a97af04477d6421415766753ba300000000000000000000000023de2fe932d9043291f870324b74f820e11dc81a00000000000000000000000025e0e650a78e6304a3983fc4b7ffc6544b1beea600000000000000000000000031f748a368a893bdb5abb67ec95f232507601a73000000000000000000000000dab6e6ecb3513a8d2614ad75199b4b264a73105000000000000000000000000000000000000000000000000000000000000000000000000000000000000000000000000000000000000000000000000000000005000000000000000000000000000000000000000000000000009ac3fb3c898ec7000000000000000000000000000000000000000000000000008078281a5929bd000000000000000000000000000000000000000000000000008078281a5929bd0000000000000000000000000000000000000000000000000075f36d3fdf67ba00000000000000000000000000000000000000000000000000a548b6170350ca",
          "blockHash": "0x8f87916981c58871014a3cdff10be17b2db5333083f7b8c493a023304b897512",
          "blockNumber": "0x52c98ac",
          "blockTimestamp": "0x6a041f29",
          "transactionHash": "0x55d57a67803505bb03fe5c56162c985984a3ba9bf36b02e3568fcbba3222574a",
          "transactionIndex": "0x99",
          "logIndex": "0x51a",
          "removed": false
        },
        {
          "address": "0x1a44076050125825900e736c501f859c50fe728c",
          "topics": [
            "0x1ab700d4ced0c005b164c0f789fd09fcbb0156d4c2041b8a3bfbcd961cd1567f"
          ],
          "data": "0x000000000000000000000000000000000000000000000000000000000000006000000000000000000000000000000000000000000000000000000000000001800000000000000000000000006c26c61a97006888ea9e4fa36584c7df57cd9da300000000000000000000000000000000000000000000000000000000000000f90100000000000000030000759d0000000000000000000000003ec3849c33291a9ef4c5db86de593eb4a37fde450000762f000000000000000000000000999dfabe3b1cc2ef66eb032eea42fea329bba168c28155ee72b5128fb907532d77f9b6b6182c46cd202075991573f9847596e1f70000000000000000000000002a2019b30c157db6c1c01306b8025167dbe1803b000000000000000a000000000000000000000000f74d38a26948e9dda53ed85cf03c6b1188fbb30c00000000000000000000000045dce8e4f2dc005a5f28206a46cb034697eeda8e00000000000000000000000000000000000000000000000000000000000076b600000000000000000000000000000000000000000000000000000000000000000000000000002c0003010011010000000000000000000000000003d090010013030000000000000000000000000000000f42400000000000000000000000000000000000000000",
          "blockHash": "0x8f87916981c58871014a3cdff10be17b2db5333083f7b8c493a023304b897512",
          "blockNumber": "0x52c98ac",
          "blockTimestamp": "0x6a041f29",
          "transactionHash": "0x55d57a67803505bb03fe5c56162c985984a3ba9bf36b02e3568fcbba3222574a",
          "transactionIndex": "0x99",
          "logIndex": "0x51b",
          "removed": false
        },
        {
          "address": "0x0000000000000000000000000000000000001010",
          "topics": [
            "0xe6497e3ee548a3372136af2fcb0696db31fc6cf20260707645068bd3fe97f3c4",
            "0x0000000000000000000000000000000000000000000000000000000000001010",
            "0x0000000000000000000000001a44076050125825900e736c501f859c50fe728c",
            "0x0000000000000000000000006c26c61a97006888ea9e4fa36584c7df57cd9da3"
          ],
          "data": "0x00000000000000000000000000000000000000000000000005b2e353998da0c600000000000000000000000000000000000000000000000005b2e353998da0c600000000000000000000000000000000000000000000038dc05746013c0b3a38000000000000000000000000000000000000000000000000000000000000000000000000000000000000000000000000000000000000038dc60a2954d598dafe",
          "blockHash": "0x8f87916981c58871014a3cdff10be17b2db5333083f7b8c493a023304b897512",
          "blockNumber": "0x52c98ac",
          "blockTimestamp": "0x6a041f29",
          "transactionHash": "0x55d57a67803505bb03fe5c56162c985984a3ba9bf36b02e3568fcbba3222574a",
          "transactionIndex": "0x99",
          "logIndex": "0x51c",
          "removed": false
        },
        {
          "address": "0x3ec3849c33291a9ef4c5db86de593eb4a37fde45",
          "topics": [
            "0x85496b760a4b7f8d66384b9df21b381f5d1b1e79f229a47aaf4c232edc2fe59a",
            "0xc28155ee72b5128fb907532d77f9b6b6182c46cd202075991573f9847596e1f7",
            "0x000000000000000000000000f74d38a26948e9dda53ed85cf03c6b1188fbb30c"
          ],
          "data": "0x000000000000000000000000000000000000000000000000000000000000762f000000000000000000000000000000000000000000000000000009184e72a000000000000000000000000000000000000000000000000000000009184e72a000",
          "blockHash": "0x8f87916981c58871014a3cdff10be17b2db5333083f7b8c493a023304b897512",
          "blockNumber": "0x52c98ac",
          "blockTimestamp": "0x6a041f29",
          "transactionHash": "0x55d57a67803505bb03fe5c56162c985984a3ba9bf36b02e3568fcbba3222574a",
          "transactionIndex": "0x99",
          "logIndex": "0x51d",
          "removed": false
        },
        {
          "address": "0xf74d38a26948e9dda53ed85cf03c6b1188fbb30c",
          "topics": [
            "0xbc9ee36b6ca0bdd5b3840e6d329dd19a2490d880c7ce24d9818aa593adfb35be",
            "0x00000000000000000000000045dce8e4f2dc005a5f28206a46cb034697eeda8e",
            "0x00000000000000000000000000000000000000000000000000000000000076b6",
            "0x00000000000000000000000045dce8e4f2dc005a5f28206a46cb034697eeda8e"
          ],
          "data": "0x0000000000000000000000003ec3849c33291a9ef4c5db86de593eb4a37fde45000000000000000000000000000000000000000000000000000009184e72a000",
          "blockHash": "0x8f87916981c58871014a3cdff10be17b2db5333083f7b8c493a023304b897512",
          "blockNumber": "0x52c98ac",
          "blockTimestamp": "0x6a041f29",
          "transactionHash": "0x55d57a67803505bb03fe5c56162c985984a3ba9bf36b02e3568fcbba3222574a",
          "transactionIndex": "0x99",
          "logIndex": "0x51e",
          "removed": false
        },
        {
          "address": "0x0000000000000000000000000000000000001010",
          "topics": [
            "0x4dfe1bbbcf077ddc3e01291eea2d5c70c2b422b415d95645b9adcfd678cb1d63",
            "0x0000000000000000000000000000000000000000000000000000000000001010",
            "0x00000000000000000000000045dce8e4f2dc005a5f28206a46cb034697eeda8e",
            "0x0000000000000000000000007ee41d8a25641000661b1ef5e6ae8a00400466b0"
          ],
          "data": "0x000000000000000000000000000000000000000000000000011c962ad464e08000000000000000000000000000000000000000000000000086411259cc0e237a00000000000000000000000000000000000000000010903deedcf6585baeb06d00000000000000000000000000000000000000000000000085247c2ef7a942fa00000000000000000000000000000000000000000010903deff98c83301390ed",
          "blockHash": "0x8f87916981c58871014a3cdff10be17b2db5333083f7b8c493a023304b897512",
          "blockNumber": "0x52c98ac",
          "blockTimestamp": "0x6a041f29",
          "transactionHash": "0x55d57a67803505bb03fe5c56162c985984a3ba9bf36b02e3568fcbba3222574a",
          "transactionIndex": "0x99",
          "logIndex": "0x51f",
          "removed": false
        }
      ],
      "logsBloom": "0x00000000000000000000008200002000000000000000800000000004001000000000004100000000010000100002000000008000000000000000000000200020000082000000000000000008000000800000000000000000000100000000200000000000020000028000000000000800000000000010100080200010000000000000004000000000020000180400000000000000200020000040014000000000220000108000000020100000400000000000000000400000000440000000004000000002000000000001000080020000001000400000801000188000000020000010040000000000000800000000802800000000018000000000000000100000",
      "type": "0x2",
      "transactionHash": "0x55d57a67803505bb03fe5c56162c985984a3ba9bf36b02e3568fcbba3222574a",
      "transactionIndex": "0x99",
      "blockHash": "0x8f87916981c58871014a3cdff10be17b2db5333083f7b8c493a023304b897512",
      "blockNumber": "0x52c98ac",
      "gasUsed": "0x9777d",
      "effectiveGasPrice": "0x583c02f39f",
      "from": "0x45dce8e4f2dc005a5f28206a46cb034697eeda8e",
      "to": "0xf74d38a26948e9dda53ed85cf03c6b1188fbb30c",
      "contractAddress": null
    },
    {
      "status": "0x1",
      "cumulativeGasUsed": "0x17bdfa6",
      "logs": [
        {
          "address": "0x64445f0aecc51e94ad52d8ac56b7190e764e561a",
          "topics": [
            "0x8c5be1e5ebec7d5bd14f71427d1e84f3dd0314c0f7b2291e5b200ac8c7c3b925",
            "0x00000000000000000000000045dce8e4f2dc005a5f28206a46cb034697eeda8e",
            "0x000000000000000000000000f74d38a26948e9dda53ed85cf03c6b1188fbb30c"
          ],
          "data": "0x000000000000000000000000000000000000000000000000000009184e72a000",
          "blockHash": "0x8f87916981c58871014a3cdff10be17b2db5333083f7b8c493a023304b897512",
          "blockNumber": "0x52c98ac",
          "blockTimestamp": "0x6a041f29",
          "transactionHash": "0xbcdbe750c49e76972fcb9f5e11b027d99d23b79a79a1b97d7a3c5cb70ba21450",
          "transactionIndex": "0x9a",
          "logIndex": "0x520",
          "removed": false
        },
        {
          "address": "0x0000000000000000000000000000000000001010",
          "topics": [
            "0x4dfe1bbbcf077ddc3e01291eea2d5c70c2b422b415d95645b9adcfd678cb1d63",
            "0x0000000000000000000000000000000000000000000000000000000000001010",
            "0x00000000000000000000000045dce8e4f2dc005a5f28206a46cb034697eeda8e",
            "0x0000000000000000000000007ee41d8a25641000661b1ef5e6ae8a00400466b0"
          ],
          "data": "0x00000000000000000000000000000000000000000000000000189d3697b3e6000000000000000000000000000000000000000000000000007a1f9e42f992440a00000000000000000000000000000000000000000010903deff98c83301390ed0000000000000000000000000000000000000000000000007a07010c61de5e0a00000000000000000000000000000000000000000010903df01229b9c7c776ed",
          "blockHash": "0x8f87916981c58871014a3cdff10be17b2db5333083f7b8c493a023304b897512",
          "blockNumber": "0x52c98ac",
          "blockTimestamp": "0x6a041f29",
          "transactionHash": "0xbcdbe750c49e76972fcb9f5e11b027d99d23b79a79a1b97d7a3c5cb70ba21450",
          "transactionIndex": "0x9a",
          "logIndex": "0x521",
          "removed": false
        }
      ],
      "logsBloom": "0x00000000000000000000000200000000000000000000000000000000000000000000000000000000010000000000000000008000000000000000000000200000002000000000000000000000000000800000000000000000000100000000000000000000000000000000000000000000000000000000000080000000000000000000000000000000020000100400000000000000000000000000000000000000220000000000000000000008000000000000000000000000000000000000004000000000000000000001000000020000001000400000000000100000000000000010000000000000000000000000800000000008000000000000000000100000",
      "type": "0x2",
      "transactionHash": "0xbcdbe750c49e76972fcb9f5e11b027d99d23b79a79a1b97d7a3c5cb70ba21450",
      "transactionIndex": "0x9a",
      "blockHash": "0x8f87916981c58871014a3cdff10be17b2db5333083f7b8c493a023304b897512",
      "blockNumber": "0x52c98ac",
      "gasUsed": "0xd19c",
      "effectiveGasPrice": "0x583c02f39f",
      "from": "0x45dce8e4f2dc005a5f28206a46cb034697eeda8e",
      "to": "0x64445f0aecc51e94ad52d8ac56b7190e764e561a",
      "contractAddress": null
    },
    {
      "status": "0x1",
      "cumulativeGasUsed": "0x1851441",
      "logs": [
        {
          "address": "0x0000000000000000000000000000000000001010",
          "topics": [
            "0xe6497e3ee548a3372136af2fcb0696db31fc6cf20260707645068bd3fe97f3c4",
            "0x0000000000000000000000000000000000000000000000000000000000001010",
            "0x00000000000000000000000045dce8e4f2dc005a5f28206a46cb034697eeda8e",
            "0x000000000000000000000000f74d38a26948e9dda53ed85cf03c6b1188fbb30c"
          ],
          "data": "0x00000000000000000000000000000000000000000000000008de2901953501cd000000000000000000000000000000000000000000000000753378d061f149ae000000000000000000000000000000000000000000000018f1b022373516c0840000000000000000000000000000000000000000000000006c554fceccbc47e1000000000000000000000000000000000000000000000018fa8e4b38ca4bc251",
          "blockHash": "0x8f87916981c58871014a3cdff10be17b2db5333083f7b8c493a023304b897512",
          "blockNumber": "0x52c98ac",
          "blockTimestamp": "0x6a041f29",
          "transactionHash": "0xd1a9493d19b46c3f4017a9b0cfa779441a271468693c90dc54773e0acf244dd2",
          "transactionIndex": "0x9b",
          "logIndex": "0x522",
          "removed": false
        },
        {
          "address": "0x64445f0aecc51e94ad52d8ac56b7190e764e561a",
          "topics": [
            "0x8c5be1e5ebec7d5bd14f71427d1e84f3dd0314c0f7b2291e5b200ac8c7c3b925",
            "0x00000000000000000000000045dce8e4f2dc005a5f28206a46cb034697eeda8e",
            "0x000000000000000000000000f74d38a26948e9dda53ed85cf03c6b1188fbb30c"
          ],
          "data": "0x0000000000000000000000000000000000000000000000000000000000000000",
          "blockHash": "0x8f87916981c58871014a3cdff10be17b2db5333083f7b8c493a023304b897512",
          "blockNumber": "0x52c98ac",
          "blockTimestamp": "0x6a041f29",
          "transactionHash": "0xd1a9493d19b46c3f4017a9b0cfa779441a271468693c90dc54773e0acf244dd2",
          "transactionIndex": "0x9b",
          "logIndex": "0x523",
          "removed": false
        },
        {
          "address": "0x64445f0aecc51e94ad52d8ac56b7190e764e561a",
          "topics": [
            "0xddf252ad1be2c89b69c2b068fc378daa952ba7f163c4a11628f55a4df523b3ef",
            "0x00000000000000000000000045dce8e4f2dc005a5f28206a46cb034697eeda8e",
            "0x000000000000000000000000f74d38a26948e9dda53ed85cf03c6b1188fbb30c"
          ],
          "data": "0x000000000000000000000000000000000000000000000000000009184e72a000",
          "blockHash": "0x8f87916981c58871014a3cdff10be17b2db5333083f7b8c493a023304b897512",
          "blockNumber": "0x52c98ac",
          "blockTimestamp": "0x6a041f29",
          "transactionHash": "0xd1a9493d19b46c3f4017a9b0cfa779441a271468693c90dc54773e0acf244dd2",
          "transactionIndex": "0x9b",
          "logIndex": "0x524",
          "removed": false
        },
        {
          "address": "0x64445f0aecc51e94ad52d8ac56b7190e764e561a",
          "topics": [
            "0x8c5be1e5ebec7d5bd14f71427d1e84f3dd0314c0f7b2291e5b200ac8c7c3b925",
            "0x000000000000000000000000f74d38a26948e9dda53ed85cf03c6b1188fbb30c",
            "0x00000000000000000000000064445f0aecc51e94ad52d8ac56b7190e764e561a"
          ],
          "data": "0x000000000000000000000000000000000000000000000000000009184e72a000",
          "blockHash": "0x8f87916981c58871014a3cdff10be17b2db5333083f7b8c493a023304b897512",
          "blockNumber": "0x52c98ac",
          "blockTimestamp": "0x6a041f29",
          "transactionHash": "0xd1a9493d19b46c3f4017a9b0cfa779441a271468693c90dc54773e0acf244dd2",
          "transactionIndex": "0x9b",
          "logIndex": "0x525",
          "removed": false
        },
        {
          "address": "0x0000000000000000000000000000000000001010",
          "topics": [
            "0xe6497e3ee548a3372136af2fcb0696db31fc6cf20260707645068bd3fe97f3c4",
            "0x0000000000000000000000000000000000000000000000000000000000001010",
            "0x000000000000000000000000f74d38a26948e9dda53ed85cf03c6b1188fbb30c",
            "0x00000000000000000000000064445f0aecc51e94ad52d8ac56b7190e764e561a"
          ],
          "data": "0x00000000000000000000000000000000000000000000000005b2e353998da0c6000000000000000000000000000000000000000000000018fa8e4b38ca4bc2510000000000000000000000000000000000000000000000000000000000000000000000000000000000000000000000000000000000000018f4db67e530be218b00000000000000000000000000000000000000000000000005b2e353998da0c6",
          "blockHash": "0x8f87916981c58871014a3cdff10be17b2db5333083f7b8c493a023304b897512",
          "blockNumber": "0x52c98ac",
          "blockTimestamp": "0x6a041f29",
          "transactionHash": "0xd1a9493d19b46c3f4017a9b0cfa779441a271468693c90dc54773e0acf244dd2",
          "transactionIndex": "0x9b",
          "logIndex": "0x526",
          "removed": false
        },
        {
          "address": "0x64445f0aecc51e94ad52d8ac56b7190e764e561a",
          "topics": [
            "0xddf252ad1be2c89b69c2b068fc378daa952ba7f163c4a11628f55a4df523b3ef",
            "0x000000000000000000000000f74d38a26948e9dda53ed85cf03c6b1188fbb30c",
            "0x0000000000000000000000000000000000000000000000000000000000000000"
          ],
          "data": "0x000000000000000000000000000000000000000000000000000009184e72a000",
          "blockHash": "0x8f87916981c58871014a3cdff10be17b2db5333083f7b8c493a023304b897512",
          "blockNumber": "0x52c98ac",
          "blockTimestamp": "0x6a041f29",
          "transactionHash": "0xd1a9493d19b46c3f4017a9b0cfa779441a271468693c90dc54773e0acf244dd2",
          "transactionIndex": "0x9b",
          "logIndex": "0x527",
          "removed": false
        },
        {
          "address": "0x0000000000000000000000000000000000001010",
          "topics": [
            "0xe6497e3ee548a3372136af2fcb0696db31fc6cf20260707645068bd3fe97f3c4",
            "0x0000000000000000000000000000000000000000000000000000000000001010",
            "0x00000000000000000000000064445f0aecc51e94ad52d8ac56b7190e764e561a",
            "0x0000000000000000000000001a44076050125825900e736c501f859c50fe728c"
          ],
          "data": "0x00000000000000000000000000000000000000000000000005b2e353998da0c600000000000000000000000000000000000000000000000005b2e353998da0c60000000000000000000000000000000000000000000000000000000000000000000000000000000000000000000000000000000000000000000000000000000000000000000000000000000000000000000000000000000005b2e353998da0c6",
          "blockHash": "0x8f87916981c58871014a3cdff10be17b2db5333083f7b8c493a023304b897512",
          "blockNumber": "0x52c98ac",
          "blockTimestamp": "0x6a041f29",
          "transactionHash": "0xd1a9493d19b46c3f4017a9b0cfa779441a271468693c90dc54773e0acf244dd2",
          "transactionIndex": "0x9b",
          "logIndex": "0x528",
          "removed": false
        },
        {
          "address": "0x6c26c61a97006888ea9e4fa36584c7df57cd9da3",
          "topics": [
            "0x61ed099e74a97a1d7f8bb0952a88ca8b7b8ebd00c126ea04671f92a81213318a"
          ],
          "data": "0x000000000000000000000000cd3f213ad101472e1713c72b1697e727c803885b00000000000000000000000000000000000000000000000002fbf2e4d16f0601",
          "blockHash": "0x8f87916981c58871014a3cdff10be17b2db5333083f7b8c493a023304b897512",
          "blockNumber": "0x52c98ac",
          "blockTimestamp": "0x6a041f29",
          "transactionHash": "0xd1a9493d19b46c3f4017a9b0cfa779441a271468693c90dc54773e0acf244dd2",
          "transactionIndex": "0x9b",
          "logIndex": "0x529",
          "removed": false
        },
        {
          "address": "0x6c26c61a97006888ea9e4fa36584c7df57cd9da3",
          "topics": [
            "0x07ea52d82345d6e838192107d8fd7123d9c2ec8e916cd0aad13fd2b60db24644"
          ],
          "data": "0x000000000000000000000000000000000000000000000000000000000000006000000000000000000000000000000000000000000000000000000000000001200000000000000000000000000000000000000000000000000000000000000140000000000000000000000000000000000000000000000000000000000000000500000000000000000000000013feb7234ff60a97af04477d6421415766753ba300000000000000000000000023de2fe932d9043291f870324b74f820e11dc81a00000000000000000000000025e0e650a78e6304a3983fc4b7ffc6544b1beea600000000000000000000000031f748a368a893bdb5abb67ec95f232507601a73000000000000000000000000dab6e6ecb3513a8d2614ad75199b4b264a73105000000000000000000000000000000000000000000000000000000000000000000000000000000000000000000000000000000000000000000000000000000005000000000000000000000000000000000000000000000000009ac3fb3c898ec7000000000000000000000000000000000000000000000000008078281a5929bd000000000000000000000000000000000000000000000000008078281a5929bd0000000000000000000000000000000000000000000000000075f36d3fdf67ba00000000000000000000000000000000000000000000000000a548b6170350ca",
          "blockHash": "0x8f87916981c58871014a3cdff10be17b2db5333083f7b8c493a023304b897512",
          "blockNumber": "0x52c98ac",
          "blockTimestamp": "0x6a041f29",
          "transactionHash": "0xd1a9493d19b46c3f4017a9b0cfa779441a271468693c90dc54773e0acf244dd2",
          "transactionIndex": "0x9b",
          "logIndex": "0x52a",
          "removed": false
        },
        {
          "address": "0x1a44076050125825900e736c501f859c50fe728c",
          "topics": [
            "0x1ab700d4ced0c005b164c0f789fd09fcbb0156d4c2041b8a3bfbcd961cd1567f"
          ],
          "data": "0x000000000000000000000000000000000000000000000000000000000000006000000000000000000000000000000000000000000000000000000000000001800000000000000000000000006c26c61a97006888ea9e4fa36584c7df57cd9da300000000000000000000000000000000000000000000000000000000000000f90100000000000000390000759d00000000000000000000000064445f0aecc51e94ad52d8ac56b7190e764e561a0000762f000000000000000000000000d86fbbd0c8715d2c1f40e451e5c3514e65e7576ae2fe8a252341aefe8af072302203c432b3f9850d5badfd5436458a049f6d230a0000000000000000000000002a2019b30c157db6c1c01306b8025167dbe1803b000000000000000a000000000000000000000000f74d38a26948e9dda53ed85cf03c6b1188fbb30c00000000000000000000000045dce8e4f2dc005a5f28206a46cb034697eeda8e00000000000000000000000000000000000000000000000000000000000076b600000000000000000000000000000000000000000000000000000000000000000000000000002c0003010011010000000000000000000000000003d090010013030000000000000000000000000000000f42400000000000000000000000000000000000000000",
          "blockHash": "0x8f87916981c58871014a3cdff10be17b2db5333083f7b8c493a023304b897512",
          "blockNumber": "0x52c98ac",
          "blockTimestamp": "0x6a041f29",
          "transactionHash": "0xd1a9493d19b46c3f4017a9b0cfa779441a271468693c90dc54773e0acf244dd2",
          "transactionIndex": "0x9b",
          "logIndex": "0x52b",
          "removed": false
        },
        {
          "address": "0x0000000000000000000000000000000000001010",
          "topics": [
            "0xe6497e3ee548a3372136af2fcb0696db31fc6cf20260707645068bd3fe97f3c4",
            "0x0000000000000000000000000000000000000000000000000000000000001010",
            "0x0000000000000000000000001a44076050125825900e736c501f859c50fe728c",
            "0x0000000000000000000000006c26c61a97006888ea9e4fa36584c7df57cd9da3"
          ],
          "data": "0x00000000000000000000000000000000000000000000000005b2e353998da0c600000000000000000000000000000000000000000000000005b2e353998da0c600000000000000000000000000000000000000000000038dc60a2954d598dafe000000000000000000000000000000000000000000000000000000000000000000000000000000000000000000000000000000000000038dcbbd0ca86f267bc4",
          "blockHash": "0x8f87916981c58871014a3cdff10be17b2db5333083f7b8c493a023304b897512",
          "blockNumber": "0x52c98ac",
          "blockTimestamp": "0x6a041f29",
          "transactionHash": "0xd1a9493d19b46c3f4017a9b0cfa779441a271468693c90dc54773e0acf244dd2",
          "transactionIndex": "0x9b",
          "logIndex": "0x52c",
          "removed": false
        },
        {
          "address": "0x64445f0aecc51e94ad52d8ac56b7190e764e561a",
          "topics": [
            "0x85496b760a4b7f8d66384b9df21b381f5d1b1e79f229a47aaf4c232edc2fe59a",
            "0xe2fe8a252341aefe8af072302203c432b3f9850d5badfd5436458a049f6d230a",
            "0x000000000000000000000000f74d38a26948e9dda53ed85cf03c6b1188fbb30c"
          ],
          "data": "0x000000000000000000000000000000000000000000000000000000000000762f000000000000000000000000000000000000000000000000000009184e72a000000000000000000000000000000000000000000000000000000009184e72a000",
          "blockHash": "0x8f87916981c58871014a3cdff10be17b2db5333083f7b8c493a023304b897512",
          "blockNumber": "0x52c98ac",
          "blockTimestamp": "0x6a041f29",
          "transactionHash": "0xd1a9493d19b46c3f4017a9b0cfa779441a271468693c90dc54773e0acf244dd2",
          "transactionIndex": "0x9b",
          "logIndex": "0x52d",
          "removed": false
        },
        {
          "address": "0xf74d38a26948e9dda53ed85cf03c6b1188fbb30c",
          "topics": [
            "0xbc9ee36b6ca0bdd5b3840e6d329dd19a2490d880c7ce24d9818aa593adfb35be",
            "0x00000000000000000000000045dce8e4f2dc005a5f28206a46cb034697eeda8e",
            "0x00000000000000000000000000000000000000000000000000000000000076b6",
            "0x00000000000000000000000045dce8e4f2dc005a5f28206a46cb034697eeda8e"
          ],
          "data": "0x00000000000000000000000064445f0aecc51e94ad52d8ac56b7190e764e561a000000000000000000000000000000000000000000000000000009184e72a000",
          "blockHash": "0x8f87916981c58871014a3cdff10be17b2db5333083f7b8c493a023304b897512",
          "blockNumber": "0x52c98ac",
          "blockTimestamp": "0x6a041f29",
          "transactionHash": "0xd1a9493d19b46c3f4017a9b0cfa779441a271468693c90dc54773e0acf244dd2",
          "transactionIndex": "0x9b",
          "logIndex": "0x52e",
          "removed": false
        },
        {
          "address": "0x0000000000000000000000000000000000001010",
          "topics": [
            "0x4dfe1bbbcf077ddc3e01291eea2d5c70c2b422b415d95645b9adcfd678cb1d63",
            "0x0000000000000000000000000000000000000000000000000000000000001010",
            "0x00000000000000000000000045dce8e4f2dc005a5f28206a46cb034697eeda8e",
            "0x0000000000000000000000007ee41d8a25641000661b1ef5e6ae8a00400466b0"
          ],
          "data": "0x0000000000000000000000000000000000000000000000000114bb8e79b81b8000000000000000000000000000000000000000000000000079d75f7ffee1002600000000000000000000000000000000000000000010903df01229b9c7c776ed00000000000000000000000000000000000000000000000078c2a3f18528e4a600000000000000000000000000000000000000000010903df126e548417f926d",
          "blockHash": "0x8f87916981c58871014a3cdff10be17b2db5333083f7b8c493a023304b897512",
          "blockNumber": "0x52c98ac",
          "blockTimestamp": "0x6a041f29",
          "transactionHash": "0xd1a9493d19b46c3f4017a9b0cfa779441a271468693c90dc54773e0acf244dd2",
          "transactionIndex": "0x9b",
          "logIndex": "0x52f",
          "removed": false
        }
      ],
      "logsBloom": "0x0000000000000000000000820000000000000000000080000000000400100000000000410000008001000010000200000000800000000000000000000020000000208200000000000000000800000080000000000000000000010000000020000000000002100000800000000000080000000000001010008020001000000000000000400000000002000018040000000000000020000000000001000000000022000010800000002010000c000000000000000000400000000440000000004000000002000000000801000080020000001000400000801000188000000020000010040000000000000000000000802800000008018000000000000000100002",
      "type": "0x2",
      "transactionHash": "0xd1a9493d19b46c3f4017a9b0cfa779441a271468693c90dc54773e0acf244dd2",
      "transactionIndex": "0x9b",
      "blockHash": "0x8f87916981c58871014a3cdff10be17b2db5333083f7b8c493a023304b897512",
      "blockNumber": "0x52c98ac",
      "gasUsed": "0x9349b",
      "effectiveGasPrice": "0x583c02f39f",
      "from": "0x45dce8e4f2dc005a5f28206a46cb034697eeda8e",
      "to": "0xf74d38a26948e9dda53ed85cf03c6b1188fbb30c",
      "contractAddress": null
    },
    {
      "status": "0x1",
      "cumulativeGasUsed": "0x185e5f3",
      "logs": [
        {
          "address": "0x90581eca9469d8d7f5d3b60f4715027adfcf7927",
          "topics": [
            "0x8c5be1e5ebec7d5bd14f71427d1e84f3dd0314c0f7b2291e5b200ac8c7c3b925",
            "0x00000000000000000000000045dce8e4f2dc005a5f28206a46cb034697eeda8e",
            "0x000000000000000000000000f74d38a26948e9dda53ed85cf03c6b1188fbb30c"
          ],
          "data": "0x000000000000000000000000000000000000000000000000000009184e72a000",
          "blockHash": "0x8f87916981c58871014a3cdff10be17b2db5333083f7b8c493a023304b897512",
          "blockNumber": "0x52c98ac",
          "blockTimestamp": "0x6a041f29",
          "transactionHash": "0xec35f56d89b926a4ee5dc97853ab68f4d1895dc00bb639347183d24e4dfde58c",
          "transactionIndex": "0x9c",
          "logIndex": "0x530",
          "removed": false
        },
        {
          "address": "0x0000000000000000000000000000000000001010",
          "topics": [
            "0x4dfe1bbbcf077ddc3e01291eea2d5c70c2b422b415d95645b9adcfd678cb1d63",
            "0x0000000000000000000000000000000000000000000000000000000000001010",
            "0x00000000000000000000000045dce8e4f2dc005a5f28206a46cb034697eeda8e",
            "0x0000000000000000000000007ee41d8a25641000661b1ef5e6ae8a00400466b0"
          ],
          "data": "0x00000000000000000000000000000000000000000000000000189fcbf32c4d000000000000000000000000000000000000000000000000006dccf8c6e9cf311400000000000000000000000000000000000000000010903df126e548417f926d0000000000000000000000000000000000000000000000006db458faf6a2e41400000000000000000000000000000000000000000010903df13f851434abdf6d",
          "blockHash": "0x8f87916981c58871014a3cdff10be17b2db5333083f7b8c493a023304b897512",
          "blockNumber": "0x52c98ac",
          "blockTimestamp": "0x6a041f29",
          "transactionHash": "0xec35f56d89b926a4ee5dc97853ab68f4d1895dc00bb639347183d24e4dfde58c",
          "transactionIndex": "0x9c",
          "logIndex": "0x531",
          "removed": false
        }
      ],
      "logsBloom": "0x00000000000000000000000200000000000000000000000000000000000000000000000000000000010000000000000000008000000000000000000000200000000000000000000000000000000000800000000000000000000100000000000000000000000000000000000000000000000000000000000080000000000000000000000000000004020010100400000000000000000000000000000000000000220000000000000000000000000000000000000000000000000000000000004000000000000000000001000000020000001000400000000000100000000000000010000000000000000000000000800000400000000000000000000000100000",
      "type": "0x2",
      "transactionHash": "0xec35f56d89b926a4ee5dc97853ab68f4d1895dc00bb639347183d24e4dfde58c",
      "transactionIndex": "0x9c",
      "blockHash": "0x8f87916981c58871014a3cdff10be17b2db5333083f7b8c493a023304b897512",
      "blockNumber": "0x52c98ac",
      "gasUsed": "0xd1b2",
      "effectiveGasPrice": "0x583c02f39f",
      "from": "0x45dce8e4f2dc005a5f28206a46cb034697eeda8e",
      "to": "0x90581eca9469d8d7f5d3b60f4715027adfcf7927",
      "contractAddress": null
    },
    {
      "status": "0x1",
      "cumulativeGasUsed": "0x18fa03c",
      "logs": [
        {
          "address": "0x0000000000000000000000000000000000001010",
          "topics": [
            "0xe6497e3ee548a3372136af2fcb0696db31fc6cf20260707645068bd3fe97f3c4",
            "0x0000000000000000000000000000000000000000000000000000000000001010",
            "0x00000000000000000000000045dce8e4f2dc005a5f28206a46cb034697eeda8e",
            "0x000000000000000000000000f74d38a26948e9dda53ed85cf03c6b1188fbb30c"
          ],
          "data": "0x00000000000000000000000000000000000000000000000008de2901953501cd000000000000000000000000000000000000000000000000689d693a70db7350000000000000000000000000000000000000000000000018f4db67e530be218b0000000000000000000000000000000000000000000000005fbf4038dba67183000000000000000000000000000000000000000000000018fdb990e6c5f32358",
          "blockHash": "0x8f87916981c58871014a3cdff10be17b2db5333083f7b8c493a023304b897512",
          "blockNumber": "0x52c98ac",
          "blockTimestamp": "0x6a041f29",
          "transactionHash": "0x3bc2dc0bccec5502bf27586df6fccdd11555c7baa2c948eeb32273ba4965a95a",
          "transactionIndex": "0x9d",
          "logIndex": "0x532",
          "removed": false
        },
        {
          "address": "0x90581eca9469d8d7f5d3b60f4715027adfcf7927",
          "topics": [
            "0x8c5be1e5ebec7d5bd14f71427d1e84f3dd0314c0f7b2291e5b200ac8c7c3b925",
            "0x00000000000000000000000045dce8e4f2dc005a5f28206a46cb034697eeda8e",
            "0x000000000000000000000000f74d38a26948e9dda53ed85cf03c6b1188fbb30c"
          ],
          "data": "0x0000000000000000000000000000000000000000000000000000000000000000",
          "blockHash": "0x8f87916981c58871014a3cdff10be17b2db5333083f7b8c493a023304b897512",
          "blockNumber": "0x52c98ac",
          "blockTimestamp": "0x6a041f29",
          "transactionHash": "0x3bc2dc0bccec5502bf27586df6fccdd11555c7baa2c948eeb32273ba4965a95a",
          "transactionIndex": "0x9d",
          "logIndex": "0x533",
          "removed": false
        },
        {
          "address": "0x90581eca9469d8d7f5d3b60f4715027adfcf7927",
          "topics": [
            "0xddf252ad1be2c89b69c2b068fc378daa952ba7f163c4a11628f55a4df523b3ef",
            "0x00000000000000000000000045dce8e4f2dc005a5f28206a46cb034697eeda8e",
            "0x000000000000000000000000f74d38a26948e9dda53ed85cf03c6b1188fbb30c"
          ],
          "data": "0x000000000000000000000000000000000000000000000000000009184e72a000",
          "blockHash": "0x8f87916981c58871014a3cdff10be17b2db5333083f7b8c493a023304b897512",
          "blockNumber": "0x52c98ac",
          "blockTimestamp": "0x6a041f29",
          "transactionHash": "0x3bc2dc0bccec5502bf27586df6fccdd11555c7baa2c948eeb32273ba4965a95a",
          "transactionIndex": "0x9d",
          "logIndex": "0x534",
          "removed": false
        },
        {
          "address": "0x90581eca9469d8d7f5d3b60f4715027adfcf7927",
          "topics": [
            "0x8c5be1e5ebec7d5bd14f71427d1e84f3dd0314c0f7b2291e5b200ac8c7c3b925",
            "0x000000000000000000000000f74d38a26948e9dda53ed85cf03c6b1188fbb30c",
            "0x00000000000000000000000090581eca9469d8d7f5d3b60f4715027adfcf7927"
          ],
          "data": "0x000000000000000000000000000000000000000000000000000009184e72a000",
          "blockHash": "0x8f87916981c58871014a3cdff10be17b2db5333083f7b8c493a023304b897512",
          "blockNumber": "0x52c98ac",
          "blockTimestamp": "0x6a041f29",
          "transactionHash": "0x3bc2dc0bccec5502bf27586df6fccdd11555c7baa2c948eeb32273ba4965a95a",
          "transactionIndex": "0x9d",
          "logIndex": "0x535",
          "removed": false
        },
        {
          "address": "0x0000000000000000000000000000000000001010",
          "topics": [
            "0xe6497e3ee548a3372136af2fcb0696db31fc6cf20260707645068bd3fe97f3c4",
            "0x0000000000000000000000000000000000000000000000000000000000001010",
            "0x000000000000000000000000f74d38a26948e9dda53ed85cf03c6b1188fbb30c",
            "0x00000000000000000000000090581eca9469d8d7f5d3b60f4715027adfcf7927"
          ],
          "data": "0x00000000000000000000000000000000000000000000000005b2e353998da0c6000000000000000000000000000000000000000000000018fdb990e6c5f323580000000000000000000000000000000000000000000000000000000000000000000000000000000000000000000000000000000000000018f806ad932c65829200000000000000000000000000000000000000000000000005b2e353998da0c6",
          "blockHash": "0x8f87916981c58871014a3cdff10be17b2db5333083f7b8c493a023304b897512",
          "blockNumber": "0x52c98ac",
          "blockTimestamp": "0x6a041f29",
          "transactionHash": "0x3bc2dc0bccec5502bf27586df6fccdd11555c7baa2c948eeb32273ba4965a95a",
          "transactionIndex": "0x9d",
          "logIndex": "0x536",
          "removed": false
        },
        {
          "address": "0x90581eca9469d8d7f5d3b60f4715027adfcf7927",
          "topics": [
            "0xddf252ad1be2c89b69c2b068fc378daa952ba7f163c4a11628f55a4df523b3ef",
            "0x000000000000000000000000f74d38a26948e9dda53ed85cf03c6b1188fbb30c",
            "0x0000000000000000000000000000000000000000000000000000000000000000"
          ],
          "data": "0x000000000000000000000000000000000000000000000000000009184e72a000",
          "blockHash": "0x8f87916981c58871014a3cdff10be17b2db5333083f7b8c493a023304b897512",
          "blockNumber": "0x52c98ac",
          "blockTimestamp": "0x6a041f29",
          "transactionHash": "0x3bc2dc0bccec5502bf27586df6fccdd11555c7baa2c948eeb32273ba4965a95a",
          "transactionIndex": "0x9d",
          "logIndex": "0x537",
          "removed": false
        },
        {
          "address": "0x0000000000000000000000000000000000001010",
          "topics": [
            "0xe6497e3ee548a3372136af2fcb0696db31fc6cf20260707645068bd3fe97f3c4",
            "0x0000000000000000000000000000000000000000000000000000000000001010",
            "0x00000000000000000000000090581eca9469d8d7f5d3b60f4715027adfcf7927",
            "0x0000000000000000000000001a44076050125825900e736c501f859c50fe728c"
          ],
          "data": "0x00000000000000000000000000000000000000000000000005b2e353998da0c600000000000000000000000000000000000000000000000005b2e353998da0c60000000000000000000000000000000000000000000000000000000000000000000000000000000000000000000000000000000000000000000000000000000000000000000000000000000000000000000000000000000005b2e353998da0c6",
          "blockHash": "0x8f87916981c58871014a3cdff10be17b2db5333083f7b8c493a023304b897512",
          "blockNumber": "0x52c98ac",
          "blockTimestamp": "0x6a041f29",
          "transactionHash": "0x3bc2dc0bccec5502bf27586df6fccdd11555c7baa2c948eeb32273ba4965a95a",
          "transactionIndex": "0x9d",
          "logIndex": "0x538",
          "removed": false
        },
        {
          "address": "0x6c26c61a97006888ea9e4fa36584c7df57cd9da3",
          "topics": [
            "0x61ed099e74a97a1d7f8bb0952a88ca8b7b8ebd00c126ea04671f92a81213318a"
          ],
          "data": "0x000000000000000000000000cd3f213ad101472e1713c72b1697e727c803885b00000000000000000000000000000000000000000000000002fbf2e4d16f0601",
          "blockHash": "0x8f87916981c58871014a3cdff10be17b2db5333083f7b8c493a023304b897512",
          "blockNumber": "0x52c98ac",
          "blockTimestamp": "0x6a041f29",
          "transactionHash": "0x3bc2dc0bccec5502bf27586df6fccdd11555c7baa2c948eeb32273ba4965a95a",
          "transactionIndex": "0x9d",
          "logIndex": "0x539",
          "removed": false
        },
        {
          "address": "0x6c26c61a97006888ea9e4fa36584c7df57cd9da3",
          "topics": [
            "0x07ea52d82345d6e838192107d8fd7123d9c2ec8e916cd0aad13fd2b60db24644"
          ],
          "data": "0x000000000000000000000000000000000000000000000000000000000000006000000000000000000000000000000000000000000000000000000000000001200000000000000000000000000000000000000000000000000000000000000140000000000000000000000000000000000000000000000000000000000000000500000000000000000000000013feb7234ff60a97af04477d6421415766753ba300000000000000000000000023de2fe932d9043291f870324b74f820e11dc81a00000000000000000000000025e0e650a78e6304a3983fc4b7ffc6544b1beea600000000000000000000000031f748a368a893bdb5abb67ec95f232507601a73000000000000000000000000dab6e6ecb3513a8d2614ad75199b4b264a73105000000000000000000000000000000000000000000000000000000000000000000000000000000000000000000000000000000000000000000000000000000005000000000000000000000000000000000000000000000000009ac3fb3c898ec7000000000000000000000000000000000000000000000000008078281a5929bd000000000000000000000000000000000000000000000000008078281a5929bd0000000000000000000000000000000000000000000000000075f36d3fdf67ba00000000000000000000000000000000000000000000000000a548b6170350ca",
          "blockHash": "0x8f87916981c58871014a3cdff10be17b2db5333083f7b8c493a023304b897512",
          "blockNumber": "0x52c98ac",
          "blockTimestamp": "0x6a041f29",
          "transactionHash": "0x3bc2dc0bccec5502bf27586df6fccdd11555c7baa2c948eeb32273ba4965a95a",
          "transactionIndex": "0x9d",
          "logIndex": "0x53a",
          "removed": false
        },
        {
          "address": "0x1a44076050125825900e736c501f859c50fe728c",
          "topics": [
            "0x1ab700d4ced0c005b164c0f789fd09fcbb0156d4c2041b8a3bfbcd961cd1567f"
          ],
          "data": "0x000000000000000000000000000000000000000000000000000000000000006000000000000000000000000000000000000000000000000000000000000001800000000000000000000000006c26c61a97006888ea9e4fa36584c7df57cd9da300000000000000000000000000000000000000000000000000000000000000f90100000000000000010000759d00000000000000000000000090581eca9469d8d7f5d3b60f4715027adfcf79270000762f00000000000000000000000075c38d46001b0f8108c4136216bd2694982c20fc069962a5f4a6ae8bbd5f4c296117ca6d78e05ea83f1d5544a22fce1dabdc031f0000000000000000000000002a2019b30c157db6c1c01306b8025167dbe1803b000000000000000a000000000000000000000000f74d38a26948e9dda53ed85cf03c6b1188fbb30c00000000000000000000000045dce8e4f2dc005a5f28206a46cb034697eeda8e00000000000000000000000000000000000000000000000000000000000076b600000000000000000000000000000000000000000000000000000000000000000000000000002c0003010011010000000000000000000000000003d090010013030000000000000000000000000000000f42400000000000000000000000000000000000000000",
          "blockHash": "0x8f87916981c58871014a3cdff10be17b2db5333083f7b8c493a023304b897512",
          "blockNumber": "0x52c98ac",
          "blockTimestamp": "0x6a041f29",
          "transactionHash": "0x3bc2dc0bccec5502bf27586df6fccdd11555c7baa2c948eeb32273ba4965a95a",
          "transactionIndex": "0x9d",
          "logIndex": "0x53b",
          "removed": false
        },
        {
          "address": "0x0000000000000000000000000000000000001010",
          "topics": [
            "0xe6497e3ee548a3372136af2fcb0696db31fc6cf20260707645068bd3fe97f3c4",
            "0x0000000000000000000000000000000000000000000000000000000000001010",
            "0x0000000000000000000000001a44076050125825900e736c501f859c50fe728c",
            "0x0000000000000000000000006c26c61a97006888ea9e4fa36584c7df57cd9da3"
          ],
          "data": "0x00000000000000000000000000000000000000000000000005b2e353998da0c600000000000000000000000000000000000000000000000005b2e353998da0c600000000000000000000000000000000000000000000038dcbbd0ca86f267bc4000000000000000000000000000000000000000000000000000000000000000000000000000000000000000000000000000000000000038dd16feffc08b41c8a",
          "blockHash": "0x8f87916981c58871014a3cdff10be17b2db5333083f7b8c493a023304b897512",
          "blockNumber": "0x52c98ac",
          "blockTimestamp": "0x6a041f29",
          "transactionHash": "0x3bc2dc0bccec5502bf27586df6fccdd11555c7baa2c948eeb32273ba4965a95a",
          "transactionIndex": "0x9d",
          "logIndex": "0x53c",
          "removed": false
        },
        {
          "address": "0x90581eca9469d8d7f5d3b60f4715027adfcf7927",
          "topics": [
            "0x85496b760a4b7f8d66384b9df21b381f5d1b1e79f229a47aaf4c232edc2fe59a",
            "0x069962a5f4a6ae8bbd5f4c296117ca6d78e05ea83f1d5544a22fce1dabdc031f",
            "0x000000000000000000000000f74d38a26948e9dda53ed85cf03c6b1188fbb30c"
          ],
          "data": "0x000000000000000000000000000000000000000000000000000000000000762f000000000000000000000000000000000000000000000000000009184e72a000000000000000000000000000000000000000000000000000000009184e72a000",
          "blockHash": "0x8f87916981c58871014a3cdff10be17b2db5333083f7b8c493a023304b897512",
          "blockNumber": "0x52c98ac",
          "blockTimestamp": "0x6a041f29",
          "transactionHash": "0x3bc2dc0bccec5502bf27586df6fccdd11555c7baa2c948eeb32273ba4965a95a",
          "transactionIndex": "0x9d",
          "logIndex": "0x53d",
          "removed": false
        },
        {
          "address": "0xf74d38a26948e9dda53ed85cf03c6b1188fbb30c",
          "topics": [
            "0xbc9ee36b6ca0bdd5b3840e6d329dd19a2490d880c7ce24d9818aa593adfb35be",
            "0x00000000000000000000000045dce8e4f2dc005a5f28206a46cb034697eeda8e",
            "0x00000000000000000000000000000000000000000000000000000000000076b6",
            "0x00000000000000000000000045dce8e4f2dc005a5f28206a46cb034697eeda8e"
          ],
          "data": "0x00000000000000000000000090581eca9469d8d7f5d3b60f4715027adfcf7927000000000000000000000000000000000000000000000000000009184e72a000",
          "blockHash": "0x8f87916981c58871014a3cdff10be17b2db5333083f7b8c493a023304b897512",
          "blockNumber": "0x52c98ac",
          "blockTimestamp": "0x6a041f29",
          "transactionHash": "0x3bc2dc0bccec5502bf27586df6fccdd11555c7baa2c948eeb32273ba4965a95a",
          "transactionIndex": "0x9d",
          "logIndex": "0x53e",
          "removed": false
        },
        {
          "address": "0x0000000000000000000000000000000000001010",
          "topics": [
            "0x4dfe1bbbcf077ddc3e01291eea2d5c70c2b422b415d95645b9adcfd678cb1d63",
            "0x0000000000000000000000000000000000000000000000000000000000001010",
            "0x00000000000000000000000045dce8e4f2dc005a5f28206a46cb034697eeda8e",
            "0x0000000000000000000000007ee41d8a25641000661b1ef5e6ae8a00400466b0"
          ],
          "data": "0x00000000000000000000000000000000000000000000000001246e31d3993e800000000000000000000000000000000000000000000000006d84b26ec6dcfd8600000000000000000000000000000000000000000010903df13f851434abdf6d0000000000000000000000000000000000000000000000006c60443cf343bf0600000000000000000000000000000000000000000010903df263f34608451ded",
          "blockHash": "0x8f87916981c58871014a3cdff10be17b2db5333083f7b8c493a023304b897512",
          "blockNumber": "0x52c98ac",
          "blockTimestamp": "0x6a041f29",
          "transactionHash": "0x3bc2dc0bccec5502bf27586df6fccdd11555c7baa2c948eeb32273ba4965a95a",
          "transactionIndex": "0x9d",
          "logIndex": "0x53f",
          "removed": false
        }
      ],
      "logsBloom": "0x00000000000000000000008200000000000000000000800000000004001000000000004100000000010000100002000000008000000000000000400000200000000082000000000000000008000000800000000000000000000100080000200000000000020000008000000000000800000000010010100080200010000000000000004000000004020010180408000000000000200000000000010000000000220000108000000020100000000000000000000000400000000440000000004000000002000000000001000080020100001000400000801000188000000020000010040000000000000000000000802800400000018000000000000000100000",
      "type": "0x2",
      "transactionHash": "0x3bc2dc0bccec5502bf27586df6fccdd11555c7baa2c948eeb32273ba4965a95a",
      "transactionIndex": "0x9d",
      "blockHash": "0x8f87916981c58871014a3cdff10be17b2db5333083f7b8c493a023304b897512",
      "blockNumber": "0x52c98ac",
      "gasUsed": "0x9ba49",
      "effectiveGasPrice": "0x583c02f39f",
      "from": "0x45dce8e4f2dc005a5f28206a46cb034697eeda8e",
      "to": "0xf74d38a26948e9dda53ed85cf03c6b1188fbb30c",
      "contractAddress": null
    }
  ],
  "libraries": [],
  "pending": [],
  "returns": {},
  "timestamp": 1778655018478,
  "chain": 137,
  "commit": "3c1e5d2a"
}