{
  "transactions": [
    {
      "hash": "0x191748e77612f156d559f52d4720dc744b10831cfce7b36b00d5bd2844efe55d",
      "transactionType": "CALL",
      "contractName": null,
      "contractAddress": "0x58e3ee6accd124642ddb5d3f91928816be8d8ed3",
      "function": "approve(address,uint256)",
      "arguments": [
        "0x40F66FFf44DBBee88058185F2cFE287558D7E532",
        "10000000000000"
      ],
      "transaction": {
        "from": "0x45dce8e4f2dc005a5f28206a46cb034697eeda8e",
        "to": "0x58e3ee6accd124642ddb5d3f91928816be8d8ed3",
        "gas": "0x1968b",
        "value": "0x0",
        "input": "0x095ea7b300000000000000000000000040f66fff44dbbee88058185f2cfe287558d7e532000000000000000000000000000000000000000000000000000009184e72a000",
        "nonce": "0x0",
        "chainId": "0x8f"
      },
      "additionalContracts": [],
      "isFixedGasLimit": false
    },
    {
      "hash": "0xa91e0390ab29898c6f67d5580ca564af9b25287349ab7c57853b22ba54498b38",
      "transactionType": "CALL",
      "contractName": null,
      "contractAddress": "0x40f66fff44dbbee88058185f2cfe287558d7e532",
      "function": "sendOFT(address,uint32,bytes32,uint256)",
      "arguments": [
        "0x58E3ee6accd124642dDB5d3f91928816Be8D8ed3",
        "30370",
        "0x00000000000000000000000045dce8e4f2dc005a5f28206a46cb034697eeda8e",
        "10000000000000"
      ],
      "transaction": {
        "from": "0x45dce8e4f2dc005a5f28206a46cb034697eeda8e",
        "to": "0x40f66fff44dbbee88058185f2cfe287558d7e532",
        "gas": "0xcfd8d",
        "value": "0x1d6e99bb575481b1",
        "input": "0x3e832c9000000000000000000000000058e3ee6accd124642ddb5d3f91928816be8d8ed300000000000000000000000000000000000000000000000000000000000076a200000000000000000000000045dce8e4f2dc005a5f28206a46cb034697eeda8e000000000000000000000000000000000000000000000000000009184e72a000",
        "nonce": "0x1",
        "chainId": "0x8f"
      },
      "additionalContracts": [],
      "isFixedGasLimit": false
    },
    {
      "hash": "0x7d2e13b59e9e4bcbac0ce4e970856ead54ae7e129b19973aa9425508557102bc",
      "transactionType": "CALL",
      "contractName": null,
      "contractAddress": "0x137643f7b2c189173867b3391f6629cab46f0f1a",
      "function": "approve(address,uint256)",
      "arguments": [
        "0x40F66FFf44DBBee88058185F2cFE287558D7E532",
        "10000000000000"
      ],
      "transaction": {
        "from": "0x45dce8e4f2dc005a5f28206a46cb034697eeda8e",
        "to": "0x137643f7b2c189173867b3391f6629cab46f0f1a",
        "gas": "0x1968b",
        "value": "0x0",
        "input": "0x095ea7b300000000000000000000000040f66fff44dbbee88058185f2cfe287558d7e532000000000000000000000000000000000000000000000000000009184e72a000",
        "nonce": "0x2",
        "chainId": "0x8f"
      },
      "additionalContracts": [],
      "isFixedGasLimit": false
    },
    {
      "hash": "0x8fac5b6a6360f8e80ff02a21505888861f36c84058585c59b60ec7fe0f46342e",
      "transactionType": "CALL",
      "contractName": null,
      "contractAddress": "0x40f66fff44dbbee88058185f2cfe287558d7e532",
      "function": "sendOFT(address,uint32,bytes32,uint256)",
      "arguments": [
        "0x137643F7b2C189173867b3391f6629caB46F0F1a",
        "30370",
        "0x00000000000000000000000045dce8e4f2dc005a5f28206a46cb034697eeda8e",
        "10000000000000"
      ],
      "transaction": {
        "from": "0x45dce8e4f2dc005a5f28206a46cb034697eeda8e",
        "to": "0x40f66fff44dbbee88058185f2cfe287558d7e532",
        "gas": "0xcf9e5",
        "value": "0x1d6e99bb575481b1",
        "input": "0x3e832c90000000000000000000000000137643f7b2c189173867b3391f6629cab46f0f1a00000000000000000000000000000000000000000000000000000000000076a200000000000000000000000045dce8e4f2dc005a5f28206a46cb034697eeda8e000000000000000000000000000000000000000000000000000009184e72a000",
        "nonce": "0x3",
        "chainId": "0x8f"
      },
      "additionalContracts": [],
      "isFixedGasLimit": false
    },
    {
      "hash": "0xc495340abc692cb248e6a35189a6a1ca47e28b9d7e94b39e40b64f7cbd90c3d4",
      "transactionType": "CALL",
      "contractName": null,
      "contractAddress": "0x288f9d76019469bfeb56bb77d86afa2bf563b75b",
      "function": "approve(address,uint256)",
      "arguments": [
        "0x40F66FFf44DBBee88058185F2cFE287558D7E532",
        "10000000000000"
      ],
      "transaction": {
        "from": "0x45dce8e4f2dc005a5f28206a46cb034697eeda8e",
        "to": "0x288f9d76019469bfeb56bb77d86afa2bf563b75b",
        "gas": "0x1968b",
        "value": "0x0",
        "input": "0x095ea7b300000000000000000000000040f66fff44dbbee88058185f2cfe287558d7e532000000000000000000000000000000000000000000000000000009184e72a000",
        "nonce": "0x4",
        "chainId": "0x8f"
      },
      "additionalContracts": [],
      "isFixedGasLimit": false
    },
    {
      "hash": "0x987c41f4013f78bf0b6c0d6de84d5311a83b76db1d030588fc2b2dfb1ff940ca",
      "transactionType": "CALL",
      "contractName": null,
      "contractAddress": "0x40f66fff44dbbee88058185f2cfe287558d7e532",
      "function": "sendOFT(address,uint32,bytes32,uint256)",
      "arguments": [
        "0x288F9D76019469bfEb56BB77d86aFa2bF563B75B",
        "30370",
        "0x00000000000000000000000045dce8e4f2dc005a5f28206a46cb034697eeda8e",
        "10000000000000"
      ],
      "transaction": {
        "from": "0x45dce8e4f2dc005a5f28206a46cb034697eeda8e",
        "to": "0x40f66fff44dbbee88058185f2cfe287558d7e532",
        "gas": "0xcf9e5",
        "value": "0x1d6e99bb575481b1",
        "input": "0x3e832c90000000000000000000000000288f9d76019469bfeb56bb77d86afa2bf563b75b00000000000000000000000000000000000000000000000000000000000076a200000000000000000000000045dce8e4f2dc005a5f28206a46cb034697eeda8e000000000000000000000000000000000000000000000000000009184e72a000",
        "nonce": "0x5",
        "chainId": "0x8f"
      },
      "additionalContracts": [],
      "isFixedGasLimit": false
    },
    {
      "hash": "0x60bc4418d22fdc91caaf2850092526774da3b6183103ab6c9eb97c80e81c6ac7",
      "transactionType": "CALL",
      "contractName": null,
      "contractAddress": "0x3b4cf37a3335f21c945a40088404c715525fcb29",
      "function": "approve(address,uint256)",
      "arguments": [
        "0x40F66FFf44DBBee88058185F2cFE287558D7E532",
        "10000000000000"
      ],
      "transaction": {
        "from": "0x45dce8e4f2dc005a5f28206a46cb034697eeda8e",
        "to": "0x3b4cf37a3335f21c945a40088404c715525fcb29",
        "gas": "0x1968b",
        "value": "0x0",
        "input": "0x095ea7b300000000000000000000000040f66fff44dbbee88058185f2cfe287558d7e532000000000000000000000000000000000000000000000000000009184e72a000",
        "nonce": "0x6",
        "chainId": "0x8f"
      },
      "additionalContracts": [],
      "isFixedGasLimit": false
    },
    {
      "hash": "0x82a6b3ff2be5fef54aa357b5f5cdace2261e19f7c34e0bd9dd0ec2da64c9ede7",
      "transactionType": "CALL",
      "contractName": null,
      "contractAddress": "0x40f66fff44dbbee88058185f2cfe287558d7e532",
      "function": "sendOFT(address,uint32,bytes32,uint256)",
      "arguments": [
        "0x3B4cf37A3335F21c945a40088404c715525fCb29",
        "30370",
        "0x00000000000000000000000045dce8e4f2dc005a5f28206a46cb034697eeda8e",
        "10000000000000"
      ],
      "transaction": {
        "from": "0x45dce8e4f2dc005a5f28206a46cb034697eeda8e",
        "to": "0x40f66fff44dbbee88058185f2cfe287558d7e532",
        "gas": "0xcf9e5",
        "value": "0x1d6e99bb575481b1",
        "input": "0x3e832c900000000000000000000000003b4cf37a3335f21c945a40088404c715525fcb2900000000000000000000000000000000000000000000000000000000000076a200000000000000000000000045dce8e4f2dc005a5f28206a46cb034697eeda8e000000000000000000000000000000000000000000000000000009184e72a000",
        "nonce": "0x7",
        "chainId": "0x8f"
      },
      "additionalContracts": [],
      "isFixedGasLimit": false
    },
    {
      "hash": "0xbc25553b108eaa0d8183da4b1cc32e6bb914f2ae131774ff520c6fe013eab5d3",
      "transactionType": "CALL",
      "contractName": null,
      "contractAddress": "0x29acc7c504665a5ea95344796f784095f0cfcc58",
      "function": "approve(address,uint256)",
      "arguments": [
        "0x40F66FFf44DBBee88058185F2cFE287558D7E532",
        "10000000000000"
      ],
      "transaction": {
        "from": "0x45dce8e4f2dc005a5f28206a46cb034697eeda8e",
        "to": "0x29acc7c504665a5ea95344796f784095f0cfcc58",
        "gas": "0x1968b",
        "value": "0x0",
        "input": "0x095ea7b300000000000000000000000040f66fff44dbbee88058185f2cfe287558d7e532000000000000000000000000000000000000000000000000000009184e72a000",
        "nonce": "0x8",
        "chainId": "0x8f"
      },
      "additionalContracts": [],
      "isFixedGasLimit": false
    },
    {
      "hash": "0x2378f4d7bf7a961fa437ae8d614ea5f267728bbee7c4792fc5d90ee58686b5d2",
      "transactionType": "CALL",
      "contractName": null,
      "contractAddress": "0x40f66fff44dbbee88058185f2cfe287558d7e532",
      "function": "sendOFT(address,uint32,bytes32,uint256)",
      "arguments": [
        "0x29aCC7c504665A5EA95344796f784095f0cfcC58",
        "30370",
        "0x00000000000000000000000045dce8e4f2dc005a5f28206a46cb034697eeda8e",
        "10000000000000"
      ],
      "transaction": {
        "from": "0x45dce8e4f2dc005a5f28206a46cb034697eeda8e",
        "to": "0x40f66fff44dbbee88058185f2cfe287558d7e532",
        "gas": "0xcf9e5",
        "value": "0x1d6e99bb575481b1",
        "input": "0x3e832c9000000000000000000000000029acc7c504665a5ea95344796f784095f0cfcc5800000000000000000000000000000000000000000000000000000000000076a200000000000000000000000045dce8e4f2dc005a5f28206a46cb034697eeda8e000000000000000000000000000000000000000000000000000009184e72a000",
        "nonce": "0x9",
        "chainId": "0x8f"
      },
      "additionalContracts": [],
      "isFixedGasLimit": false
    },
    {
      "hash": "0xad7c73a01a4a02cb4331804e8c58c80b0d0d33128640429ca73a4ec9e369c76c",
      "transactionType": "CALL",
      "contractName": null,
      "contractAddress": "0xba554f7a47f0792b9fa41a1256d4cf628bb1d028",
      "function": "approve(address,uint256)",
      "arguments": [
        "0x40F66FFf44DBBee88058185F2cFE287558D7E532",
        "10000000000000"
      ],
      "transaction": {
        "from": "0x45dce8e4f2dc005a5f28206a46cb034697eeda8e",
        "to": "0xba554f7a47f0792b9fa41a1256d4cf628bb1d028",
        "gas": "0x1968b",
        "value": "0x0",
        "input": "0x095ea7b300000000000000000000000040f66fff44dbbee88058185f2cfe287558d7e532000000000000000000000000000000000000000000000000000009184e72a000",
        "nonce": "0xa",
        "chainId": "0x8f"
      },
      "additionalContracts": [],
      "isFixedGasLimit": false
    },
    {
      "hash": "0x1341cc2f4e59380a0dc4483434f04adc66184f8ec034212f0fd50a70beb4075c",
      "transactionType": "CALL",
      "contractName": null,
      "contractAddress": "0x40f66fff44dbbee88058185f2cfe287558d7e532",
      "function": "sendOFT(address,uint32,bytes32,uint256)",
      "arguments": [
        "0xBa554F7A47f0792b9fa41A1256d4cf628Bb1D028",
        "30370",
        "0x00000000000000000000000045dce8e4f2dc005a5f28206a46cb034697eeda8e",
        "10000000000000"
      ],
      "transaction": {
        "from": "0x45dce8e4f2dc005a5f28206a46cb034697eeda8e",
        "to": "0x40f66fff44dbbee88058185f2cfe287558d7e532",
        "gas": "0xcf9e5",
        "value": "0x1d6e99bb575481b1",
        "input": "0x3e832c90000000000000000000000000ba554f7a47f0792b9fa41a1256d4cf628bb1d02800000000000000000000000000000000000000000000000000000000000076a200000000000000000000000045dce8e4f2dc005a5f28206a46cb034697eeda8e000000000000000000000000000000000000000000000000000009184e72a000",
        "nonce": "0xb",
        "chainId": "0x8f"
      },
      "additionalContracts": [],
      "isFixedGasLimit": false
    }
  ],
  "receipts": [
    {
      "status": "0x1",
      "cumulativeGasUsed": "0x33ac92",
      "logs": [
        {
          "address": "0x58e3ee6accd124642ddb5d3f91928816be8d8ed3",
          "topics": [
            "0x8c5be1e5ebec7d5bd14f71427d1e84f3dd0314c0f7b2291e5b200ac8c7c3b925",
            "0x00000000000000000000000045dce8e4f2dc005a5f28206a46cb034697eeda8e",
            "0x00000000000000000000000040f66fff44dbbee88058185f2cfe287558d7e532"
          ],
          "data": "0x000000000000000000000000000000000000000000000000000009184e72a000",
          "blockHash": "0x44566e088530567a072371914761ee4f28757818646c44cb6b365c9ad0dcff4b",
          "blockNumber": "0x46d4c08",
          "blockTimestamp": "0x6a0422b2",
          "transactionHash": "0x191748e77612f156d559f52d4720dc744b10831cfce7b36b00d5bd2844efe55d",
          "transactionIndex": "0x4",
          "logIndex": "0x43",
          "removed": false
        }
      ],
      "logsBloom": "0x00000000000000000000000200000000000000000000000000000000100000000000000000000000000000000000000000000000000000000000000000200000000000000000000000000000000000000000000000000000000000000000000000000000000000000000000000000000000000000000000000000000000200000000000000000000000000000000000000000000000000000000000000000000020000000000000000000000000000000000000000000000000000000000000000000000000000000000000020000000101000000000000000000000000000000010000000000000000000000080a00000000000000000000000000000000000",
      "type": "0x2",
      "transactionHash": "0x191748e77612f156d559f52d4720dc744b10831cfce7b36b00d5bd2844efe55d",
      "transactionIndex": "0x4",
      "blockHash": "0x44566e088530567a072371914761ee4f28757818646c44cb6b365c9ad0dcff4b",
      "blockNumber": "0x46d4c08",
      "gasUsed": "0x1968b",
      "effectiveGasPrice": "0x17bfac7c00",
      "from": "0x45dce8e4f2dc005a5f28206a46cb034697eeda8e",
      "to": "0x58e3ee6accd124642ddb5d3f91928816be8d8ed3",
      "contractAddress": null
    },
    {
      "status": "0x1",
      "cumulativeGasUsed": "0x20015f",
      "logs": [
        {
          "address": "0x58e3ee6accd124642ddb5d3f91928816be8d8ed3",
          "topics": [
            "0x8c5be1e5ebec7d5bd14f71427d1e84f3dd0314c0f7b2291e5b200ac8c7c3b925",
            "0x00000000000000000000000045dce8e4f2dc005a5f28206a46cb034697eeda8e",
            "0x00000000000000000000000040f66fff44dbbee88058185f2cfe287558d7e532"
          ],
          "data": "0x0000000000000000000000000000000000000000000000000000000000000000",
          "blockHash": "0x05b08d1b4434614f187d386921ce9eb2eab6b81c0e3c9a132149f5267553e3c8",
          "blockNumber": "0x46d4c0e",
          "blockTimestamp": "0x6a0422b4",
          "transactionHash": "0xa91e0390ab29898c6f67d5580ca564af9b25287349ab7c57853b22ba54498b38",
          "transactionIndex": "0x3",
          "logIndex": "0x5",
          "removed": false
        },
        {
          "address": "0x58e3ee6accd124642ddb5d3f91928816be8d8ed3",
          "topics": [
            "0xddf252ad1be2c89b69c2b068fc378daa952ba7f163c4a11628f55a4df523b3ef",
            "0x00000000000000000000000045dce8e4f2dc005a5f28206a46cb034697eeda8e",
            "0x00000000000000000000000040f66fff44dbbee88058185f2cfe287558d7e532"
          ],
          "data": "0x000000000000000000000000000000000000000000000000000009184e72a000",
          "blockHash": "0x05b08d1b4434614f187d386921ce9eb2eab6b81c0e3c9a132149f5267553e3c8",
          "blockNumber": "0x46d4c0e",
          "blockTimestamp": "0x6a0422b4",
          "transactionHash": "0xa91e0390ab29898c6f67d5580ca564af9b25287349ab7c57853b22ba54498b38",
          "transactionIndex": "0x3",
          "logIndex": "0x6",
          "removed": false
        },
        {
          "address": "0x58e3ee6accd124642ddb5d3f91928816be8d8ed3",
          "topics": [
            "0x8c5be1e5ebec7d5bd14f71427d1e84f3dd0314c0f7b2291e5b200ac8c7c3b925",
            "0x00000000000000000000000040f66fff44dbbee88058185f2cfe287558d7e532",
            "0x00000000000000000000000058e3ee6accd124642ddb5d3f91928816be8d8ed3"
          ],
          "data": "0x000000000000000000000000000000000000000000000000000009184e72a000",
          "blockHash": "0x05b08d1b4434614f187d386921ce9eb2eab6b81c0e3c9a132149f5267553e3c8",
          "blockNumber": "0x46d4c0e",
          "blockTimestamp": "0x6a0422b4",
          "transactionHash": "0xa91e0390ab29898c6f67d5580ca564af9b25287349ab7c57853b22ba54498b38",
          "transactionIndex": "0x3",
          "logIndex": "0x7",
          "removed": false
        },
        {
          "address": "0x58e3ee6accd124642ddb5d3f91928816be8d8ed3",
          "topics": [
            "0xddf252ad1be2c89b69c2b068fc378daa952ba7f163c4a11628f55a4df523b3ef",
            "0x00000000000000000000000040f66fff44dbbee88058185f2cfe287558d7e532",
            "0x0000000000000000000000000000000000000000000000000000000000000000"
          ],
          "data": "0x000000000000000000000000000000000000000000000000000009184e72a000",
          "blockHash": "0x05b08d1b4434614f187d386921ce9eb2eab6b81c0e3c9a132149f5267553e3c8",
          "blockNumber": "0x46d4c0e",
          "blockTimestamp": "0x6a0422b4",
          "transactionHash": "0xa91e0390ab29898c6f67d5580ca564af9b25287349ab7c57853b22ba54498b38",
          "transactionIndex": "0x3",
          "logIndex": "0x8",
          "removed": false
        },
        {
          "address": "0xc39161c743d0307eb9bcc9fef03eeb9dc4802de7",
          "topics": [
            "0x61ed099e74a97a1d7f8bb0952a88ca8b7b8ebd00c126ea04671f92a81213318a"
          ],
          "data": "0x0000000000000000000000004208d6e27538189bb48e603d6123a94b8abe0a0b00000000000000000000000000000000000000000000000008c70916a07d2ad4",
          "blockHash": "0x05b08d1b4434614f187d386921ce9eb2eab6b81c0e3c9a132149f5267553e3c8",
          "blockNumber": "0x46d4c0e",
          "blockTimestamp": "0x6a0422b4",
          "transactionHash": "0xa91e0390ab29898c6f67d5580ca564af9b25287349ab7c57853b22ba54498b38",
          "transactionIndex": "0x3",
          "logIndex": "0x9",
          "removed": false
        },
        {
          "address": "0xc39161c743d0307eb9bcc9fef03eeb9dc4802de7",
          "topics": [
            "0x07ea52d82345d6e838192107d8fd7123d9c2ec8e916cd0aad13fd2b60db24644"
          ],
          "data": "0x0000000000000000000000000000000000000000000000000000000000000060000000000000000000000000000000000000000000000000000000000000012000000000000000000000000000000000000000000000000000000000000001400000000000000000000000000000000000000000000000000000000000000005000000000000000000000000282b3386571f7f794450d5789911a9804fa346b4000000000000000000000000493626c5d852b9b187a9eb709d0b0978a38772380000000000000000000000005ec52fb644072247c3264f0ac3db981cdebe3eca000000000000000000000000acde1f22eeab249d3ca6ba8805c8fee9f52a16e7000000000000000000000000dcdd4628f858b45260c31d6ad076bd2c3d3c2f73000000000000000000000000000000000000000000000000000000000000000000000000000000000000000000000000000000000000000000000000000000050000000000000000000000000000000000000000000000000157f0dbe1e9ea8100000000000000000000000000000000000000000000000001420d90943492a90000000000000000000000000000000000000000000000000157f0dbe1e9ea8100000000000000000000000000000000000000000000000001420d90943492a90000000000000000000000000000000000000000000000000157f0dbe1e9ea81",
          "blockHash": "0x05b08d1b4434614f187d386921ce9eb2eab6b81c0e3c9a132149f5267553e3c8",
          "blockNumber": "0x46d4c0e",
          "blockTimestamp": "0x6a0422b4",
          "transactionHash": "0xa91e0390ab29898c6f67d5580ca564af9b25287349ab7c57853b22ba54498b38",
          "transactionIndex": "0x3",
          "logIndex": "0xa",
          "removed": false
        },
        {
          "address": "0x6f475642a6e85809b1c36fa62763669b1b48dd5b",
          "topics": [
            "0x1ab700d4ced0c005b164c0f789fd09fcbb0156d4c2041b8a3bfbcd961cd1567f"
          ],
          "data": "0x00000000000000000000000000000000000000000000000000000000000000600000000000000000000000000000000000000000000000000000000000000180000000000000000000000000c39161c743d0307eb9bcc9fef03eeb9dc4802de700000000000000000000000000000000000000000000000000000000000000f9010000000000000004000076b600000000000000000000000058e3ee6accd124642ddb5d3f91928816be8d8ed30000762f00000000000000000000000096a394058e2b84a89bac9667b19661ed003cf5d4ffb0a9b8c8120ba9d69892ad1529d9d143f3b6f521352cc5da834aa1bbf214f20000000000000000000000002a2019b30c157db6c1c01306b8025167dbe1803b000000000000000a00000000000000000000000040f66fff44dbbee88058185f2cfe287558d7e53200000000000000000000000045dce8e4f2dc005a5f28206a46cb034697eeda8e00000000000000000000000000000000000000000000000000000000000076a200000000000000000000000000000000000000000000000000000000000000000000000000002c0003010011010000000000000000000000000003d090010013030000000000000000000000000000000f42400000000000000000000000000000000000000000",
          "blockHash": "0x05b08d1b4434614f187d386921ce9eb2eab6b81c0e3c9a132149f5267553e3c8",
          "blockNumber": "0x46d4c0e",
          "blockTimestamp": "0x6a0422b4",
          "transactionHash": "0xa91e0390ab29898c6f67d5580ca564af9b25287349ab7c57853b22ba54498b38",
          "transactionIndex": "0x3",
          "logIndex": "0xb",
          "removed": false
        },
        {
          "address": "0x58e3ee6accd124642ddb5d3f91928816be8d8ed3",
          "topics": [
            "0x85496b760a4b7f8d66384b9df21b381f5d1b1e79f229a47aaf4c232edc2fe59a",
            "0xffb0a9b8c8120ba9d69892ad1529d9d143f3b6f521352cc5da834aa1bbf214f2",
            "0x00000000000000000000000040f66fff44dbbee88058185f2cfe287558d7e532"
          ],
          "data": "0x000000000000000000000000000000000000000000000000000000000000762f000000000000000000000000000000000000000000000000000009184e72a000000000000000000000000000000000000000000000000000000009184e72a000",
          "blockHash": "0x05b08d1b4434614f187d386921ce9eb2eab6b81c0e3c9a132149f5267553e3c8",
          "blockNumber": "0x46d4c0e",
          "blockTimestamp": "0x6a0422b4",
          "transactionHash": "0xa91e0390ab29898c6f67d5580ca564af9b25287349ab7c57853b22ba54498b38",
          "transactionIndex": "0x3",
          "logIndex": "0xc",
          "removed": false
        },
        {
          "address": "0x40f66fff44dbbee88058185f2cfe287558d7e532",
          "topics": [
            "0xbc9ee36b6ca0bdd5b3840e6d329dd19a2490d880c7ce24d9818aa593adfb35be",
            "0x00000000000000000000000045dce8e4f2dc005a5f28206a46cb034697eeda8e",
            "0x00000000000000000000000000000000000000000000000000000000000076a2",
            "0x00000000000000000000000045dce8e4f2dc005a5f28206a46cb034697eeda8e"
          ],
          "data": "0x00000000000000000000000058e3ee6accd124642ddb5d3f91928816be8d8ed3000000000000000000000000000000000000000000000000000009184e72a000",
          "blockHash": "0x05b08d1b4434614f187d386921ce9eb2eab6b81c0e3c9a132149f5267553e3c8",
          "blockNumber": "0x46d4c0e",
          "blockTimestamp": "0x6a0422b4",
          "transactionHash": "0xa91e0390ab29898c6f67d5580ca564af9b25287349ab7c57853b22ba54498b38",
          "transactionIndex": "0x3",
          "logIndex": "0xd",
          "removed": false
        }
      ],
      "logsBloom": "0x001000000000008000000002000000000000000000000000000000001000000040080000000000000000000400000000000000000000022000100000002000000000020000000000000000080000000001400000000000000000000000000000020000000200000080200000000008000020000000001000000000100002000000000000808000000008000800000000000000000000000000000000000000000200001080000000201000000000000000000000004000000004400000000000000000020000000000000000a0000000101000000000000000000000000020004010040000000000000000000080a02000100000008000000000000000000000",
      "type": "0x2",
      "transactionHash": "0xa91e0390ab29898c6f67d5580ca564af9b25287349ab7c57853b22ba54498b38",
      "transactionIndex": "0x3",
      "blockHash": "0x05b08d1b4434614f187d386921ce9eb2eab6b81c0e3c9a132149f5267553e3c8",
      "blockNumber": "0x46d4c0e",
      "gasUsed": "0x1b53fe",
      "effectiveGasPrice": "0x17bfac7c00",
      "from": "0x45dce8e4f2dc005a5f28206a46cb034697eeda8e",
      "to": "0x40f66fff44dbbee88058185f2cfe287558d7e532",
      "contractAddress": null
    },
    {
      "status": "0x1",
      "cumulativeGasUsed": "0x1163cd",
      "logs": [
        {
          "address": "0x137643f7b2c189173867b3391f6629cab46f0f1a",
          "topics": [
            "0x8c5be1e5ebec7d5bd14f71427d1e84f3dd0314c0f7b2291e5b200ac8c7c3b925",
            "0x00000000000000000000000045dce8e4f2dc005a5f28206a46cb034697eeda8e",
            "0x00000000000000000000000040f66fff44dbbee88058185f2cfe287558d7e532"
          ],
          "data": "0x000000000000000000000000000000000000000000000000000009184e72a000",
          "blockHash": "0xa020595c6f460518d2a3bc86e8304242fdef41e0e67f66af250fb0e606228c54",
          "blockNumber": "0x46d4c13",
          "blockTimestamp": "0x6a0422b6",
          "transactionHash": "0x7d2e13b59e9e4bcbac0ce4e970856ead54ae7e129b19973aa9425508557102bc",
          "transactionIndex": "0x4",
          "logIndex": "0xa",
          "removed": false
        }
      ],
      "logsBloom": "0x00000000000000000000000200000000000000000000000000000000000000000000000000000000000000000000000000000000000000000000000000200000000000000000000000000000000000000000000000000000000000000000000000000000000000000000000000000000000080000000000000000000000200000000000000000000000000000000000000000000000000000000000000000000020000000000000000000000000000000000000000000000000000000000000000000000000000000000000020000000001000000000000000000000000000000010000020000000000000000000a00020000000000000000000000000000000",
      "type": "0x2",
      "transactionHash": "0x7d2e13b59e9e4bcbac0ce4e970856ead54ae7e129b19973aa9425508557102bc",
      "transactionIndex": "0x4",
      "blockHash": "0xa020595c6f460518d2a3bc86e8304242fdef41e0e67f66af250fb0e606228c54",
      "blockNumber": "0x46d4c13",
      "gasUsed": "0x1968b",
      "effectiveGasPrice": "0x17bfac7c00",
      "from": "0x45dce8e4f2dc005a5f28206a46cb034697eeda8e",
      "to": "0x137643f7b2c189173867b3391f6629cab46f0f1a",
      "contractAddress": null
    },
    {
      "status": "0x1",
      "cumulativeGasUsed": "0x1f2aaf",
      "logs": [
        {
          "address": "0x137643f7b2c189173867b3391f6629cab46f0f1a",
          "topics": [
            "0x8c5be1e5ebec7d5bd14f71427d1e84f3dd0314c0f7b2291e5b200ac8c7c3b925",
            "0x00000000000000000000000045dce8e4f2dc005a5f28206a46cb034697eeda8e",
            "0x00000000000000000000000040f66fff44dbbee88058185f2cfe287558d7e532"
          ],
          "data": "0x0000000000000000000000000000000000000000000000000000000000000000",
          "blockHash": "0xc9b3813d8f6bcd8dafac91ae5ddbca97102d63739f92ab95ef099364b2258a30",
          "blockNumber": "0x46d4c19",
          "blockTimestamp": "0x6a0422b8",
          "transactionHash": "0x8fac5b6a6360f8e80ff02a21505888861f36c84058585c59b60ec7fe0f46342e",
          "transactionIndex": "0x2",
          "logIndex": "0x5",
          "removed": false
        },
        {
          "address": "0x137643f7b2c189173867b3391f6629cab46f0f1a",
          "topics": [
            "0xddf252ad1be2c89b69c2b068fc378daa952ba7f163c4a11628f55a4df523b3ef",
            "0x00000000000000000000000045dce8e4f2dc005a5f28206a46cb034697eeda8e",
            "0x00000000000000000000000040f66fff44dbbee88058185f2cfe287558d7e532"
          ],
          "data": "0x000000000000000000000000000000000000000000000000000009184e72a000",
          "blockHash": "0xc9b3813d8f6bcd8dafac91ae5ddbca97102d63739f92ab95ef099364b2258a30",
          "blockNumber": "0x46d4c19",
          "blockTimestamp": "0x6a0422b8",
          "transactionHash": "0x8fac5b6a6360f8e80ff02a21505888861f36c84058585c59b60ec7fe0f46342e",
          "transactionIndex": "0x2",
          "logIndex": "0x6",
          "removed": false
        },
        {
          "address": "0x137643f7b2c189173867b3391f6629cab46f0f1a",
          "topics": [
            "0x8c5be1e5ebec7d5bd14f71427d1e84f3dd0314c0f7b2291e5b200ac8c7c3b925",
            "0x00000000000000000000000040f66fff44dbbee88058185f2cfe287558d7e532",
            "0x000000000000000000000000137643f7b2c189173867b3391f6629cab46f0f1a"
          ],
          "data": "0x000000000000000000000000000000000000000000000000000009184e72a000",
          "blockHash": "0xc9b3813d8f6bcd8dafac91ae5ddbca97102d63739f92ab95ef099364b2258a30",
          "blockNumber": "0x46d4c19",
          "blockTimestamp": "0x6a0422b8",
          "transactionHash": "0x8fac5b6a6360f8e80ff02a21505888861f36c84058585c59b60ec7fe0f46342e",
          "transactionIndex": "0x2",
          "logIndex": "0x7",
          "removed": false
        },
        {
          "address": "0x137643f7b2c189173867b3391f6629cab46f0f1a",
          "topics": [
            "0xddf252ad1be2c89b69c2b068fc378daa952ba7f163c4a11628f55a4df523b3ef",
            "0x00000000000000000000000040f66fff44dbbee88058185f2cfe287558d7e532",
            "0x0000000000000000000000000000000000000000000000000000000000000000"
          ],
          "data": "0x000000000000000000000000000000000000000000000000000009184e72a000",
          "blockHash": "0xc9b3813d8f6bcd8dafac91ae5ddbca97102d63739f92ab95ef099364b2258a30",
          "blockNumber": "0x46d4c19",
          "blockTimestamp": "0x6a0422b8",
          "transactionHash": "0x8fac5b6a6360f8e80ff02a21505888861f36c84058585c59b60ec7fe0f46342e",
          "transactionIndex": "0x2",
          "logIndex": "0x8",
          "removed": false
        },
        {
          "address": "0xc39161c743d0307eb9bcc9fef03eeb9dc4802de7",
          "topics": [
            "0x61ed099e74a97a1d7f8bb0952a88ca8b7b8ebd00c126ea04671f92a81213318a"
          ],
          "data": "0x0000000000000000000000004208d6e27538189bb48e603d6123a94b8abe0a0b00000000000000000000000000000000000000000000000008c70916a07d2ad4",
          "blockHash": "0xc9b3813d8f6bcd8dafac91ae5ddbca97102d63739f92ab95ef099364b2258a30",
          "blockNumber": "0x46d4c19",
          "blockTimestamp": "0x6a0422b8",
          "transactionHash": "0x8fac5b6a6360f8e80ff02a21505888861f36c84058585c59b60ec7fe0f46342e",
          "transactionIndex": "0x2",
          "logIndex": "0x9",
          "removed": false
        },
        {
          "address": "0xc39161c743d0307eb9bcc9fef03eeb9dc4802de7",
          "topics": [
            "0x07ea52d82345d6e838192107d8fd7123d9c2ec8e916cd0aad13fd2b60db24644"
          ],
          "data": "0x0000000000000000000000000000000000000000000000000000000000000060000000000000000000000000000000000000000000000000000000000000012000000000000000000000000000000000000000000000000000000000000001400000000000000000000000000000000000000000000000000000000000000005000000000000000000000000282b3386571f7f794450d5789911a9804fa346b4000000000000000000000000493626c5d852b9b187a9eb709d0b0978a38772380000000000000000000000005ec52fb644072247c3264f0ac3db981cdebe3eca000000000000000000000000acde1f22eeab249d3ca6ba8805c8fee9f52a16e7000000000000000000000000dcdd4628f858b45260c31d6ad076bd2c3d3c2f73000000000000000000000000000000000000000000000000000000000000000000000000000000000000000000000000000000000000000000000000000000050000000000000000000000000000000000000000000000000157f0dbe1e9ea8100000000000000000000000000000000000000000000000001420d90943492a90000000000000000000000000000000000000000000000000157f0dbe1e9ea8100000000000000000000000000000000000000000000000001420d90943492a90000000000000000000000000000000000000000000000000157f0dbe1e9ea81",
          "blockHash": "0xc9b3813d8f6bcd8dafac91ae5ddbca97102d63739f92ab95ef099364b2258a30",
          "blockNumber": "0x46d4c19",
          "blockTimestamp": "0x6a0422b8",
          "transactionHash": "0x8fac5b6a6360f8e80ff02a21505888861f36c84058585c59b60ec7fe0f46342e",
          "transactionIndex": "0x2",
          "logIndex": "0xa",
          "removed": false
        },
        {
          "address": "0x6f475642a6e85809b1c36fa62763669b1b48dd5b",
          "topics": [
            "0x1ab700d4ced0c005b164c0f789fd09fcbb0156d4c2041b8a3bfbcd961cd1567f"
          ],
          "data": "0x00000000000000000000000000000000000000000000000000000000000000600000000000000000000000000000000000000000000000000000000000000180000000000000000000000000c39161c743d0307eb9bcc9fef03eeb9dc4802de700000000000000000000000000000000000000000000000000000000000000f9010000000000000003000076b6000000000000000000000000137643f7b2c189173867b3391f6629cab46f0f1a0000762f00000000000000000000000088aa7854d3b2daa5e37e7ce73a1f39669623a36105d0e44875303ccb6530b6e3002e7140ca5cb58c41d0a45a2d5cffbb64499ed70000000000000000000000002a2019b30c157db6c1c01306b8025167dbe1803b000000000000000a00000000000000000000000040f66fff44dbbee88058185f2cfe287558d7e53200000000000000000000000045dce8e4f2dc005a5f28206a46cb034697eeda8e00000000000000000000000000000000000000000000000000000000000076a200000000000000000000000000000000000000000000000000000000000000000000000000002c0003010011010000000000000000000000000003d090010013030000000000000000000000000000000f42400000000000000000000000000000000000000000",
          "blockHash": "0xc9b3813d8f6bcd8dafac91ae5ddbca97102d63739f92ab95ef099364b2258a30",
          "blockNumber": "0x46d4c19",
          "blockTimestamp": "0x6a0422b8",
          "transactionHash": "0x8fac5b6a6360f8e80ff02a21505888861f36c84058585c59b60ec7fe0f46342e",
          "transactionIndex": "0x2",
          "logIndex": "0xb",
          "removed": false
        },
        {
          "address": "0x137643f7b2c189173867b3391f6629cab46f0f1a",
          "topics": [
            "0x85496b760a4b7f8d66384b9df21b381f5d1b1e79f229a47aaf4c232edc2fe59a",
            "0x05d0e44875303ccb6530b6e3002e7140ca5cb58c41d0a45a2d5cffbb64499ed7",
            "0x00000000000000000000000040f66fff44dbbee88058185f2cfe287558d7e532"
          ],
          "data": "0x000000000000000000000000000000000000000000000000000000000000762f000000000000000000000000000000000000000000000000000009184e72a000000000000000000000000000000000000000000000000000000009184e72a000",
          "blockHash": "0xc9b3813d8f6bcd8dafac91ae5ddbca97102d63739f92ab95ef099364b2258a30",
          "blockNumber": "0x46d4c19",
          "blockTimestamp": "0x6a0422b8",
          "transactionHash": "0x8fac5b6a6360f8e80ff02a21505888861f36c84058585c59b60ec7fe0f46342e",
          "transactionIndex": "0x2",
          "logIndex": "0xc",
          "removed": false
        },
        {
          "address": "0x40f66fff44dbbee88058185f2cfe287558d7e532",
          "topics": [
            "0xbc9ee36b6ca0bdd5b3840e6d329dd19a2490d880c7ce24d9818aa593adfb35be",
            "0x00000000000000000000000045dce8e4f2dc005a5f28206a46cb034697eeda8e",
            "0x00000000000000000000000000000000000000000000000000000000000076a2",
            "0x00000000000000000000000045dce8e4f2dc005a5f28206a46cb034697eeda8e"
          ],
          "data": "0x000000000000000000000000137643f7b2c189173867b3391f6629cab46f0f1a000000000000000000000000000000000000000000000000000009184e72a000",
          "blockHash": "0xc9b3813d8f6bcd8dafac91ae5ddbca97102d63739f92ab95ef099364b2258a30",
          "blockNumber": "0x46d4c19",
          "blockTimestamp": "0x6a0422b8",
          "transactionHash": "0x8fac5b6a6360f8e80ff02a21505888861f36c84058585c59b60ec7fe0f46342e",
          "transactionIndex": "0x2",
          "logIndex": "0xd",
          "removed": false
        }
      ],
      "logsBloom": "0x001000000000000000100002000000000000000000000000000000000000000040000000000000000000000400000000000000000000020000100000002000000000020000000000000000080000000001400000000000000000000000000000000002000200000080200000000008000020800000001000000000100002000000000000008000000100000800000000000000000000000000000002000000000200001080000000201000000000000000000000804000000004408000000000000000020000000000000000a0000000001000000000000000000000000020004010040020000000000000000000a02020100000008000000000000000000000",
      "type": "0x2",
      "transactionHash": "0x8fac5b6a6360f8e80ff02a21505888861f36c84058585c59b60ec7fe0f46342e",
      "transactionIndex": "0x2",
      "blockHash": "0xc9b3813d8f6bcd8dafac91ae5ddbca97102d63739f92ab95ef099364b2258a30",
      "blockNumber": "0x46d4c19",
      "gasUsed": "0x1acf8c",
      "effectiveGasPrice": "0x17bfac7c00",
      "from": "0x45dce8e4f2dc005a5f28206a46cb034697eeda8e",
      "to": "0x40f66fff44dbbee88058185f2cfe287558d7e532",
      "contractAddress": null
    },
    {
      "status": "0x1",
      "cumulativeGasUsed": "0x1968b",
      "logs": [
        {
          "address": "0x288f9d76019469bfeb56bb77d86afa2bf563b75b",
          "topics": [
            "0x8c5be1e5ebec7d5bd14f71427d1e84f3dd0314c0f7b2291e5b200ac8c7c3b925",
            "0x00000000000000000000000045dce8e4f2dc005a5f28206a46cb034697eeda8e",
            "0x00000000000000000000000040f66fff44dbbee88058185f2cfe287558d7e532"
          ],
          "data": "0x000000000000000000000000000000000000000000000000000009184e72a000",
          "blockHash": "0x8cb39b3e21eee4014c7af00515c398f82125ae4e5bfa0b5670f3f10d11426e8a",
          "blockNumber": "0x46d4c1d",
          "blockTimestamp": "0x6a0422ba",
          "transactionHash": "0xc495340abc692cb248e6a35189a6a1ca47e28b9d7e94b39e40b64f7cbd90c3d4",
          "transactionIndex": "0x1",
          "logIndex": "0x1",
          "removed": false
        }
      ],
      "logsBloom": "0x00000000000000000000000200000000000000000000000000000000000000000000000000000000000000000000000000000000000000010000000000200000000000000000000000000000000000000000000000000000000000000000000000000000000000000000000001000000000000000000000000000000000200000000000000000000000008000000000000000000000000000000000000000000020000000000000000000000000000000000000000000000000000000000000000000000000000000000000020000000001000000000000000000000000000000010000000000000000000000000a00000000000000000000000000000000000",
      "type": "0x2",
      "transactionHash": "0xc495340abc692cb248e6a35189a6a1ca47e28b9d7e94b39e40b64f7cbd90c3d4",
      "transactionIndex": "0x1",
      "blockHash": "0x8cb39b3e21eee4014c7af00515c398f82125ae4e5bfa0b5670f3f10d11426e8a",
      "blockNumber": "0x46d4c1d",
      "gasUsed": "0x1968b",
      "effectiveGasPrice": "0x17bfac7c00",
      "from": "0x45dce8e4f2dc005a5f28206a46cb034697eeda8e",
      "to": "0x288f9d76019469bfeb56bb77d86afa2bf563b75b",
      "contractAddress": null
    },
    {
      "status": "0x1",
      "cumulativeGasUsed": "0x1acf8c",
      "logs": [
        {
          "address": "0x288f9d76019469bfeb56bb77d86afa2bf563b75b",
          "topics": [
            "0x8c5be1e5ebec7d5bd14f71427d1e84f3dd0314c0f7b2291e5b200ac8c7c3b925",
            "0x00000000000000000000000045dce8e4f2dc005a5f28206a46cb034697eeda8e",
            "0x00000000000000000000000040f66fff44dbbee88058185f2cfe287558d7e532"
          ],
          "data": "0x0000000000000000000000000000000000000000000000000000000000000000",
          "blockHash": "0xd45218dde3100bb8384300c145f77ba81405b63973bb3ef5f4a3d7b92ecede5f",
          "blockNumber": "0x46d4c1e",
          "blockTimestamp": "0x6a0422ba",
          "transactionHash": "0x987c41f4013f78bf0b6c0d6de84d5311a83b76db1d030588fc2b2dfb1ff940ca",
          "transactionIndex": "0x1",
          "logIndex": "0x1",
          "removed": false
        },
        {
          "address": "0x288f9d76019469bfeb56bb77d86afa2bf563b75b",
          "topics": [
            "0xddf252ad1be2c89b69c2b068fc378daa952ba7f163c4a11628f55a4df523b3ef",
            "0x00000000000000000000000045dce8e4f2dc005a5f28206a46cb034697eeda8e",
            "0x00000000000000000000000040f66fff44dbbee88058185f2cfe287558d7e532"
          ],
          "data": "0x000000000000000000000000000000000000000000000000000009184e72a000",
          "blockHash": "0xd45218dde3100bb8384300c145f77ba81405b63973bb3ef5f4a3d7b92ecede5f",
          "blockNumber": "0x46d4c1e",
          "blockTimestamp": "0x6a0422ba",
          "transactionHash": "0x987c41f4013f78bf0b6c0d6de84d5311a83b76db1d030588fc2b2dfb1ff940ca",
          "transactionIndex": "0x1",
          "logIndex": "0x2",
          "removed": false
        },
        {
          "address": "0x288f9d76019469bfeb56bb77d86afa2bf563b75b",
          "topics": [
            "0x8c5be1e5ebec7d5bd14f71427d1e84f3dd0314c0f7b2291e5b200ac8c7c3b925",
            "0x00000000000000000000000040f66fff44dbbee88058185f2cfe287558d7e532",
            "0x000000000000000000000000288f9d76019469bfeb56bb77d86afa2bf563b75b"
          ],
          "data": "0x000000000000000000000000000000000000000000000000000009184e72a000",
          "blockHash": "0xd45218dde3100bb8384300c145f77ba81405b63973bb3ef5f4a3d7b92ecede5f",
          "blockNumber": "0x46d4c1e",
          "blockTimestamp": "0x6a0422ba",
          "transactionHash": "0x987c41f4013f78bf0b6c0d6de84d5311a83b76db1d030588fc2b2dfb1ff940ca",
          "transactionIndex": "0x1",
          "logIndex": "0x3",
          "removed": false
        },
        {
          "address": "0x288f9d76019469bfeb56bb77d86afa2bf563b75b",
          "topics": [
            "0xddf252ad1be2c89b69c2b068fc378daa952ba7f163c4a11628f55a4df523b3ef",
            "0x00000000000000000000000040f66fff44dbbee88058185f2cfe287558d7e532",
            "0x0000000000000000000000000000000000000000000000000000000000000000"
          ],
          "data": "0x000000000000000000000000000000000000000000000000000009184e72a000",
          "blockHash": "0xd45218dde3100bb8384300c145f77ba81405b63973bb3ef5f4a3d7b92ecede5f",
          "blockNumber": "0x46d4c1e",
          "blockTimestamp": "0x6a0422ba",
          "transactionHash": "0x987c41f4013f78bf0b6c0d6de84d5311a83b76db1d030588fc2b2dfb1ff940ca",
          "transactionIndex": "0x1",
          "logIndex": "0x4",
          "removed": false
        },
        {
          "address": "0xc39161c743d0307eb9bcc9fef03eeb9dc4802de7",
          "topics": [
            "0x61ed099e74a97a1d7f8bb0952a88ca8b7b8ebd00c126ea04671f92a81213318a"
          ],
          "data": "0x0000000000000000000000004208d6e27538189bb48e603d6123a94b8abe0a0b00000000000000000000000000000000000000000000000008c70916a07d2ad4",
          "blockHash": "0xd45218dde3100bb8384300c145f77ba81405b63973bb3ef5f4a3d7b92ecede5f",
          "blockNumber": "0x46d4c1e",
          "blockTimestamp": "0x6a0422ba",
          "transactionHash": "0x987c41f4013f78bf0b6c0d6de84d5311a83b76db1d030588fc2b2dfb1ff940ca",
          "transactionIndex": "0x1",
          "logIndex": "0x5",
          "removed": false
        },
        {
          "address": "0xc39161c743d0307eb9bcc9fef03eeb9dc4802de7",
          "topics": [
            "0x07ea52d82345d6e838192107d8fd7123d9c2ec8e916cd0aad13fd2b60db24644"
          ],
          "data": "0x0000000000000000000000000000000000000000000000000000000000000060000000000000000000000000000000000000000000000000000000000000012000000000000000000000000000000000000000000000000000000000000001400000000000000000000000000000000000000000000000000000000000000005000000000000000000000000282b3386571f7f794450d5789911a9804fa346b4000000000000000000000000493626c5d852b9b187a9eb709d0b0978a38772380000000000000000000000005ec52fb644072247c3264f0ac3db981cdebe3eca000000000000000000000000acde1f22eeab249d3ca6ba8805c8fee9f52a16e7000000000000000000000000dcdd4628f858b45260c31d6ad076bd2c3d3c2f73000000000000000000000000000000000000000000000000000000000000000000000000000000000000000000000000000000000000000000000000000000050000000000000000000000000000000000000000000000000157f0dbe1e9ea8100000000000000000000000000000000000000000000000001420d90943492a90000000000000000000000000000000000000000000000000157f0dbe1e9ea8100000000000000000000000000000000000000000000000001420d90943492a90000000000000000000000000000000000000000000000000157f0dbe1e9ea81",
          "blockHash": "0xd45218dde3100bb8384300c145f77ba81405b63973bb3ef5f4a3d7b92ecede5f",
          "blockNumber": "0x46d4c1e",
          "blockTimestamp": "0x6a0422ba",
          "transactionHash": "0x987c41f4013f78bf0b6c0d6de84d5311a83b76db1d030588fc2b2dfb1ff940ca",
          "transactionIndex": "0x1",
          "logIndex": "0x6",
          "removed": false
        },
        {
          "address": "0x6f475642a6e85809b1c36fa62763669b1b48dd5b",
          "topics": [
            "0x1ab700d4ced0c005b164c0f789fd09fcbb0156d4c2041b8a3bfbcd961cd1567f"
          ],
          "data": "0x00000000000000000000000000000000000000000000000000000000000000600000000000000000000000000000000000000000000000000000000000000180000000000000000000000000c39161c743d0307eb9bcc9fef03eeb9dc4802de700000000000000000000000000000000000000000000000000000000000000f9010000000000000002000076b6000000000000000000000000288f9d76019469bfeb56bb77d86afa2bf563b75b0000762f0000000000000000000000009abfe1f8a999b0011ecd6116649aee8d575f56041bd27b1c1236046c8243f783861ac1bbf6451dadde385b5bbd6bcef77527589d0000000000000000000000002a2019b30c157db6c1c01306b8025167dbe1803b000000000000000a00000000000000000000000040f66fff44dbbee88058185f2cfe287558d7e53200000000000000000000000045dce8e4f2dc005a5f28206a46cb034697eeda8e00000000000000000000000000000000000000000000000000000000000076a200000000000000000000000000000000000000000000000000000000000000000000000000002c0003010011010000000000000000000000000003d090010013030000000000000000000000000000000f42400000000000000000000000000000000000000000",
          "blockHash": "0xd45218dde3100bb8384300c145f77ba81405b63973bb3ef5f4a3d7b92ecede5f",
          "blockNumber": "0x46d4c1e",
          "blockTimestamp": "0x6a0422ba",
          "transactionHash": "0x987c41f4013f78bf0b6c0d6de84d5311a83b76db1d030588fc2b2dfb1ff940ca",
          "transactionIndex": "0x1",
          "logIndex": "0x7",
          "removed": false
        },
        {
          "address": "0x288f9d76019469bfeb56bb77d86afa2bf563b75b",
          "topics": [
            "0x85496b760a4b7f8d66384b9df21b381f5d1b1e79f229a47aaf4c232edc2fe59a",
            "0x1bd27b1c1236046c8243f783861ac1bbf6451dadde385b5bbd6bcef77527589d",
            "0x00000000000000000000000040f66fff44dbbee88058185f2cfe287558d7e532"
          ],
          "data": "0x000000000000000000000000000000000000000000000000000000000000762f000000000000000000000000000000000000000000000000000009184e72a000000000000000000000000000000000000000000000000000000009184e72a000",
          "blockHash": "0xd45218dde3100bb8384300c145f77ba81405b63973bb3ef5f4a3d7b92ecede5f",
          "blockNumber": "0x46d4c1e",
          "blockTimestamp": "0x6a0422ba",
          "transactionHash": "0x987c41f4013f78bf0b6c0d6de84d5311a83b76db1d030588fc2b2dfb1ff940ca",
          "transactionIndex": "0x1",
          "logIndex": "0x8",
          "removed": false
        },
        {
          "address": "0x40f66fff44dbbee88058185f2cfe287558d7e532",
          "topics": [
            "0xbc9ee36b6ca0bdd5b3840e6d329dd19a2490d880c7ce24d9818aa593adfb35be",
            "0x00000000000000000000000045dce8e4f2dc005a5f28206a46cb034697eeda8e",
            "0x00000000000000000000000000000000000000000000000000000000000076a2",
            "0x00000000000000000000000045dce8e4f2dc005a5f28206a46cb034697eeda8e"
          ],
          "data": "0x000000000000000000000000288f9d76019469bfeb56bb77d86afa2bf563b75b000000000000000000000000000000000000000000000000000009184e72a000",
          "blockHash": "0xd45218dde3100bb8384300c145f77ba81405b63973bb3ef5f4a3d7b92ecede5f",
          "blockNumber": "0x46d4c1e",
          "blockTimestamp": "0x6a0422ba",
          "transactionHash": "0x987c41f4013f78bf0b6c0d6de84d5311a83b76db1d030588fc2b2dfb1ff940ca",
          "transactionIndex": "0x1",
          "logIndex": "0x9",
          "removed": false
        }
      ],
      "logsBloom": "0x001000000000000000000002000002000000000000000000000000000000000040000000000000000000000400000000000000200000020100100000002000000000020000000000000000080000000001400000000000000002000000000000000000000200000080200000010008000020000000001400000000100002000020000000008000000000080800000000000000000000000000000000000000000200001080000000201000000000000000000000004000000004400000000000004000020000000000000000a0000000001000000000000000000000000020004010040000000000000000000000a02000100000008000000000000000000000",
      "type": "0x2",
      "transactionHash": "0x987c41f4013f78bf0b6c0d6de84d5311a83b76db1d030588fc2b2dfb1ff940ca",
      "transactionIndex": "0x1",
      "blockHash": "0xd45218dde3100bb8384300c145f77ba81405b63973bb3ef5f4a3d7b92ecede5f",
      "blockNumber": "0x46d4c1e",
      "gasUsed": "0x1acf8c",
      "effectiveGasPrice": "0x17bfac7c00",
      "from": "0x45dce8e4f2dc005a5f28206a46cb034697eeda8e",
      "to": "0x40f66fff44dbbee88058185f2cfe287558d7e532",
      "contractAddress": null
    },
    {
      "status": "0x1",
      "cumulativeGasUsed": "0x198ea2",
      "logs": [
        {
          "address": "0x3b4cf37a3335f21c945a40088404c715525fcb29",
          "topics": [
            "0x8c5be1e5ebec7d5bd14f71427d1e84f3dd0314c0f7b2291e5b200ac8c7c3b925",
            "0x00000000000000000000000045dce8e4f2dc005a5f28206a46cb034697eeda8e",
            "0x00000000000000000000000040f66fff44dbbee88058185f2cfe287558d7e532"
          ],
          "data": "0x000000000000000000000000000000000000000000000000000009184e72a000",
          "blockHash": "0x2e148e7c4b2c5d7ac5143d49a5cf518c7abbc1862a6e65fa2ceafc1756657ff2",
          "blockNumber": "0x46d4c22",
          "blockTimestamp": "0x6a0422bc",
          "transactionHash": "0x60bc4418d22fdc91caaf2850092526774da3b6183103ab6c9eb97c80e81c6ac7",
          "transactionIndex": "0x5",
          "logIndex": "0xf",
          "removed": false
        }
      ],
      "logsBloom": "0x00000000000000000000000200000000000000000000000000000000000000000000000000000000000000000000000000000000000000000000000000200000000000000000000080000000000000000000000000000000000000000000000000000000000000000000000000000000000000000000000000000000000200000000000000000000000000000000000000000000000000000000000000000000020000000000000000010000000000000000000000000000000000000000000000000000000000000000400020000000001000000000000000000000000000000010000000000000000000000000a00000000000000000000000000000000000",
      "type": "0x2",
      "transactionHash": "0x60bc4418d22fdc91caaf2850092526774da3b6183103ab6c9eb97c80e81c6ac7",
      "transactionIndex": "0x5",
      "blockHash": "0x2e148e7c4b2c5d7ac5143d49a5cf518c7abbc1862a6e65fa2ceafc1756657ff2",
      "blockNumber": "0x46d4c22",
      "gasUsed": "0x1968b",
      "effectiveGasPrice": "0x17bfac7c00",
      "from": "0x45dce8e4f2dc005a5f28206a46cb034697eeda8e",
      "to": "0x3b4cf37a3335f21c945a40088404c715525fcb29",
      "contractAddress": null
    },
    {
      "status": "0x1",
      "cumulativeGasUsed": "0x571b16",
      "logs": [
        {
          "address": "0x3b4cf37a3335f21c945a40088404c715525fcb29",
          "topics": [
            "0x8c5be1e5ebec7d5bd14f71427d1e84f3dd0314c0f7b2291e5b200ac8c7c3b925",
            "0x00000000000000000000000045dce8e4f2dc005a5f28206a46cb034697eeda8e",
            "0x00000000000000000000000040f66fff44dbbee88058185f2cfe287558d7e532"
          ],
          "data": "0x0000000000000000000000000000000000000000000000000000000000000000",
          "blockHash": "0x2a825b58edf6a17b0f6a4975694b947abeb8b08da0c0a49dc9aba5ce6191f724",
          "blockNumber": "0x46d4c27",
          "blockTimestamp": "0x6a0422be",
          "transactionHash": "0x82a6b3ff2be5fef54aa357b5f5cdace2261e19f7c34e0bd9dd0ec2da64c9ede7",
          "transactionIndex": "0x3",
          "logIndex": "0x21",
          "removed": false
        },
        {
          "address": "0x3b4cf37a3335f21c945a40088404c715525fcb29",
          "topics": [
            "0xddf252ad1be2c89b69c2b068fc378daa952ba7f163c4a11628f55a4df523b3ef",
            "0x00000000000000000000000045dce8e4f2dc005a5f28206a46cb034697eeda8e",
            "0x00000000000000000000000040f66fff44dbbee88058185f2cfe287558d7e532"
          ],
          "data": "0x000000000000000000000000000000000000000000000000000009184e72a000",
          "blockHash": "0x2a825b58edf6a17b0f6a4975694b947abeb8b08da0c0a49dc9aba5ce6191f724",
          "blockNumber": "0x46d4c27",
          "blockTimestamp": "0x6a0422be",
          "transactionHash": "0x82a6b3ff2be5fef54aa357b5f5cdace2261e19f7c34e0bd9dd0ec2da64c9ede7",
          "transactionIndex": "0x3",
          "logIndex": "0x22",
          "removed": false
        },
        {
          "address": "0x3b4cf37a3335f21c945a40088404c715525fcb29",
          "topics": [
            "0x8c5be1e5ebec7d5bd14f71427d1e84f3dd0314c0f7b2291e5b200ac8c7c3b925",
            "0x00000000000000000000000040f66fff44dbbee88058185f2cfe287558d7e532",
            "0x0000000000000000000000003b4cf37a3335f21c945a40088404c715525fcb29"
          ],
          "data": "0x000000000000000000000000000000000000000000000000000009184e72a000",
          "blockHash": "0x2a825b58edf6a17b0f6a4975694b947abeb8b08da0c0a49dc9aba5ce6191f724",
          "blockNumber": "0x46d4c27",
          "blockTimestamp": "0x6a0422be",
          "transactionHash": "0x82a6b3ff2be5fef54aa357b5f5cdace2261e19f7c34e0bd9dd0ec2da64c9ede7",
          "transactionIndex": "0x3",
          "logIndex": "0x23",
          "removed": false
        },
        {
          "address": "0x3b4cf37a3335f21c945a40088404c715525fcb29",
          "topics": [
            "0xddf252ad1be2c89b69c2b068fc378daa952ba7f163c4a11628f55a4df523b3ef",
            "0x00000000000000000000000040f66fff44dbbee88058185f2cfe287558d7e532",
            "0x0000000000000000000000000000000000000000000000000000000000000000"
          ],
          "data": "0x000000000000000000000000000000000000000000000000000009184e72a000",
          "blockHash": "0x2a825b58edf6a17b0f6a4975694b947abeb8b08da0c0a49dc9aba5ce6191f724",
          "blockNumber": "0x46d4c27",
          "blockTimestamp": "0x6a0422be",
          "transactionHash": "0x82a6b3ff2be5fef54aa357b5f5cdace2261e19f7c34e0bd9dd0ec2da64c9ede7",
          "transactionIndex": "0x3",
          "logIndex": "0x24",
          "removed": false
        },
        {
          "address": "0xc39161c743d0307eb9bcc9fef03eeb9dc4802de7",
          "topics": [
            "0x61ed099e74a97a1d7f8bb0952a88ca8b7b8ebd00c126ea04671f92a81213318a"
          ],
          "data": "0x0000000000000000000000004208d6e27538189bb48e603d6123a94b8abe0a0b00000000000000000000000000000000000000000000000008c70916a07d2ad4",
          "blockHash": "0x2a825b58edf6a17b0f6a4975694b947abeb8b08da0c0a49dc9aba5ce6191f724",
          "blockNumber": "0x46d4c27",
          "blockTimestamp": "0x6a0422be",
          "transactionHash": "0x82a6b3ff2be5fef54aa357b5f5cdace2261e19f7c34e0bd9dd0ec2da64c9ede7",
          "transactionIndex": "0x3",
          "logIndex": "0x25",
          "removed": false
        },
        {
          "address": "0xc39161c743d0307eb9bcc9fef03eeb9dc4802de7",
          "topics": [
            "0x07ea52d82345d6e838192107d8fd7123d9c2ec8e916cd0aad13fd2b60db24644"
          ],
          "data": "0x0000000000000000000000000000000000000000000000000000000000000060000000000000000000000000000000000000000000000000000000000000012000000000000000000000000000000000000000000000000000000000000001400000000000000000000000000000000000000000000000000000000000000005000000000000000000000000282b3386571f7f794450d5789911a9804fa346b4000000000000000000000000493626c5d852b9b187a9eb709d0b0978a38772380000000000000000000000005ec52fb644072247c3264f0ac3db981cdebe3eca000000000000000000000000acde1f22eeab249d3ca6ba8805c8fee9f52a16e7000000000000000000000000dcdd4628f858b45260c31d6ad076bd2c3d3c2f73000000000000000000000000000000000000000000000000000000000000000000000000000000000000000000000000000000000000000000000000000000050000000000000000000000000000000000000000000000000157f0dbe1e9ea8100000000000000000000000000000000000000000000000001420d90943492a90000000000000000000000000000000000000000000000000157f0dbe1e9ea8100000000000000000000000000000000000000000000000001420d90943492a90000000000000000000000000000000000000000000000000157f0dbe1e9ea81",
          "blockHash": "0x2a825b58edf6a17b0f6a4975694b947abeb8b08da0c0a49dc9aba5ce6191f724",
          "blockNumber": "0x46d4c27",
          "blockTimestamp": "0x6a0422be",
          "transactionHash": "0x82a6b3ff2be5fef54aa357b5f5cdace2261e19f7c34e0bd9dd0ec2da64c9ede7",
          "transactionIndex": "0x3",
          "logIndex": "0x26",
          "removed": false
        },
        {
          "address": "0x6f475642a6e85809b1c36fa62763669b1b48dd5b",
          "topics": [
            "0x1ab700d4ced0c005b164c0f789fd09fcbb0156d4c2041b8a3bfbcd961cd1567f"
          ],
          "data": "0x00000000000000000000000000000000000000000000000000000000000000600000000000000000000000000000000000000000000000000000000000000180000000000000000000000000c39161c743d0307eb9bcc9fef03eeb9dc4802de700000000000000000000000000000000000000000000000000000000000000f9010000000000000002000076b60000000000000000000000003b4cf37a3335f21c945a40088404c715525fcb290000762f000000000000000000000000999dfabe3b1cc2ef66eb032eea42fea329bba168fe8d0409bf6b35d9ea7bd2cbcdecce4c9bd3c4bcfc459ce30982a37f577c19960000000000000000000000002a2019b30c157db6c1c01306b8025167dbe1803b000000000000000a00000000000000000000000040f66fff44dbbee88058185f2cfe287558d7e53200000000000000000000000045dce8e4f2dc005a5f28206a46cb034697eeda8e00000000000000000000000000000000000000000000000000000000000076a200000000000000000000000000000000000000000000000000000000000000000000000000002c0003010011010000000000000000000000000003d090010013030000000000000000000000000000000f42400000000000000000000000000000000000000000",
          "blockHash": "0x2a825b58edf6a17b0f6a4975694b947abeb8b08da0c0a49dc9aba5ce6191f724",
          "blockNumber": "0x46d4c27",
          "blockTimestamp": "0x6a0422be",
          "transactionHash": "0x82a6b3ff2be5fef54aa357b5f5cdace2261e19f7c34e0bd9dd0ec2da64c9ede7",
          "transactionIndex": "0x3",
          "logIndex": "0x27",
          "removed": false
        },
        {
          "address": "0x3b4cf37a3335f21c945a40088404c715525fcb29",
          "topics": [
            "0x85496b760a4b7f8d66384b9df21b381f5d1b1e79f229a47aaf4c232edc2fe59a",
            "0xfe8d0409bf6b35d9ea7bd2cbcdecce4c9bd3c4bcfc459ce30982a37f577c1996",
            "0x00000000000000000000000040f66fff44dbbee88058185f2cfe287558d7e532"
          ],
          "data": "0x000000000000000000000000000000000000000000000000000000000000762f000000000000000000000000000000000000000000000000000009184e72a000000000000000000000000000000000000000000000000000000009184e72a000",
          "blockHash": "0x2a825b58edf6a17b0f6a4975694b947abeb8b08da0c0a49dc9aba5ce6191f724",
          "blockNumber": "0x46d4c27",
          "blockTimestamp": "0x6a0422be",
          "transactionHash": "0x82a6b3ff2be5fef54aa357b5f5cdace2261e19f7c34e0bd9dd0ec2da64c9ede7",
          "transactionIndex": "0x3",
          "logIndex": "0x28",
          "removed": false
        },
        {
          "address": "0x40f66fff44dbbee88058185f2cfe287558d7e532",
          "topics": [
            "0xbc9ee36b6ca0bdd5b3840e6d329dd19a2490d880c7ce24d9818aa593adfb35be",
            "0x00000000000000000000000045dce8e4f2dc005a5f28206a46cb034697eeda8e",
            "0x00000000000000000000000000000000000000000000000000000000000076a2",
            "0x00000000000000000000000045dce8e4f2dc005a5f28206a46cb034697eeda8e"
          ],
          "data": "0x0000000000000000000000003b4cf37a3335f21c945a40088404c715525fcb29000000000000000000000000000000000000000000000000000009184e72a000",
          "blockHash": "0x2a825b58edf6a17b0f6a4975694b947abeb8b08da0c0a49dc9aba5ce6191f724",
          "blockNumber": "0x46d4c27",
          "blockTimestamp": "0x6a0422be",
          "transactionHash": "0x82a6b3ff2be5fef54aa357b5f5cdace2261e19f7c34e0bd9dd0ec2da64c9ede7",
          "transactionIndex": "0x3",
          "logIndex": "0x29",
          "removed": false
        }
      ],
      "logsBloom": "0x001000000000000000000002000000000000000000000000000000000000000040000000000000000000000400000000000000000000020000100200002000000000020000000000800000080000000001400000000000000000000000000000000000000200000080200000000008008020000000001001000000100002000000000000008000000000000800000000000000000000000000000000000000000200001080000000201104000000000000000000004000000004400000000000000000020000000000004200a0000000001000000000000000000000000020004010040000000000000000000000a02000100000008000000000000000000000",
      "type": "0x2",
      "transactionHash": "0x82a6b3ff2be5fef54aa357b5f5cdace2261e19f7c34e0bd9dd0ec2da64c9ede7",
      "transactionIndex": "0x3",
      "blockHash": "0x2a825b58edf6a17b0f6a4975694b947abeb8b08da0c0a49dc9aba5ce6191f724",
      "blockNumber": "0x46d4c27",
      "gasUsed": "0x1acf8c",
      "effectiveGasPrice": "0x17bfac7c00",
      "from": "0x45dce8e4f2dc005a5f28206a46cb034697eeda8e",
      "to": "0x40f66fff44dbbee88058185f2cfe287558d7e532",
      "contractAddress": null
    },
    {
      "status": "0x1",
      "cumulativeGasUsed": "0xd9e69",
      "logs": [
        {
          "address": "0x29acc7c504665a5ea95344796f784095f0cfcc58",
          "topics": [
            "0x8c5be1e5ebec7d5bd14f71427d1e84f3dd0314c0f7b2291e5b200ac8c7c3b925",
            "0x00000000000000000000000045dce8e4f2dc005a5f28206a46cb034697eeda8e",
            "0x00000000000000000000000040f66fff44dbbee88058185f2cfe287558d7e532"
          ],
          "data": "0x000000000000000000000000000000000000000000000000000009184e72a000",
          "blockHash": "0xccf35c73f7cb725f77514c4e232c2a23f6ce6282f99d0c58240994bea8b7dbe6",
          "blockNumber": "0x46d4c2c",
          "blockTimestamp": "0x6a0422bf",
          "transactionHash": "0xbc25553b108eaa0d8183da4b1cc32e6bb914f2ae131774ff520c6fe013eab5d3",
          "transactionIndex": "0x4",
          "logIndex": "0x6",
          "removed": false
        }
      ],
      "logsBloom": "0x00000000000000000000000200000000000000000000000000000000000000000000000400000000000000000000000000000000001000000000000000200000000000000000000000000000000000000000000000000000000000000000000000000000000000000000000000000000000000000000000000000000000200000000000000000000000000000000000000000000000000002000000000000000020000000000000000000000000000000000000000000000000000000000000000000000000000000000000020000000001000000000000000000000000000000010000000000000000000000000a00000000000000000000000000000000000",
      "type": "0x2",
      "transactionHash": "0xbc25553b108eaa0d8183da4b1cc32e6bb914f2ae131774ff520c6fe013eab5d3",
      "transactionIndex": "0x4",
      "blockHash": "0xccf35c73f7cb725f77514c4e232c2a23f6ce6282f99d0c58240994bea8b7dbe6",
      "blockNumber": "0x46d4c2c",
      "gasUsed": "0x1968b",
      "effectiveGasPrice": "0x17bfac7c00",
      "from": "0x45dce8e4f2dc005a5f28206a46cb034697eeda8e",
      "to": "0x29acc7c504665a5ea95344796f784095f0cfcc58",
      "contractAddress": null
    },
    {
      "status": "0x1",
      "cumulativeGasUsed": "0x381838",
      "logs": [
        {
          "address": "0x29acc7c504665a5ea95344796f784095f0cfcc58",
          "topics": [
            "0x8c5be1e5ebec7d5bd14f71427d1e84f3dd0314c0f7b2291e5b200ac8c7c3b925",
            "0x00000000000000000000000045dce8e4f2dc005a5f28206a46cb034697eeda8e",
            "0x00000000000000000000000040f66fff44dbbee88058185f2cfe287558d7e532"
          ],
          "data": "0x0000000000000000000000000000000000000000000000000000000000000000",
          "blockHash": "0xf7a9aeb5cef31f3b6aa0ff665f27c6f9463950351ea0621de8b644ef755bcb60",
          "blockNumber": "0x46d4c30",
          "blockTimestamp": "0x6a0422c1",
          "transactionHash": "0x2378f4d7bf7a961fa437ae8d614ea5f267728bbee7c4792fc5d90ee58686b5d2",
          "transactionIndex": "0x4",
          "logIndex": "0x13",
          "removed": false
        },
        {
          "address": "0x29acc7c504665a5ea95344796f784095f0cfcc58",
          "topics": [
            "0xddf252ad1be2c89b69c2b068fc378daa952ba7f163c4a11628f55a4df523b3ef",
            "0x00000000000000000000000045dce8e4f2dc005a5f28206a46cb034697eeda8e",
            "0x00000000000000000000000040f66fff44dbbee88058185f2cfe287558d7e532"
          ],
          "data": "0x000000000000000000000000000000000000000000000000000009184e72a000",
          "blockHash": "0xf7a9aeb5cef31f3b6aa0ff665f27c6f9463950351ea0621de8b644ef755bcb60",
          "blockNumber": "0x46d4c30",
          "blockTimestamp": "0x6a0422c1",
          "transactionHash": "0x2378f4d7bf7a961fa437ae8d614ea5f267728bbee7c4792fc5d90ee58686b5d2",
          "transactionIndex": "0x4",
          "logIndex": "0x14",
          "removed": false
        },
        {
          "address": "0x29acc7c504665a5ea95344796f784095f0cfcc58",
          "topics": [
            "0x8c5be1e5ebec7d5bd14f71427d1e84f3dd0314c0f7b2291e5b200ac8c7c3b925",
            "0x00000000000000000000000040f66fff44dbbee88058185f2cfe287558d7e532",
            "0x00000000000000000000000029acc7c504665a5ea95344796f784095f0cfcc58"
          ],
          "data": "0x000000000000000000000000000000000000000000000000000009184e72a000",
          "blockHash": "0xf7a9aeb5cef31f3b6aa0ff665f27c6f9463950351ea0621de8b644ef755bcb60",
          "blockNumber": "0x46d4c30",
          "blockTimestamp": "0x6a0422c1",
          "transactionHash": "0x2378f4d7bf7a961fa437ae8d614ea5f267728bbee7c4792fc5d90ee58686b5d2",
          "transactionIndex": "0x4",
          "logIndex": "0x15",
          "removed": false
        },
        {
          "address": "0x29acc7c504665a5ea95344796f784095f0cfcc58",
          "topics": [
            "0xddf252ad1be2c89b69c2b068fc378daa952ba7f163c4a11628f55a4df523b3ef",
            "0x00000000000000000000000040f66fff44dbbee88058185f2cfe287558d7e532",
            "0x0000000000000000000000000000000000000000000000000000000000000000"
          ],
          "data": "0x000000000000000000000000000000000000000000000000000009184e72a000",
          "blockHash": "0xf7a9aeb5cef31f3b6aa0ff665f27c6f9463950351ea0621de8b644ef755bcb60",
          "blockNumber": "0x46d4c30",
          "blockTimestamp": "0x6a0422c1",
          "transactionHash": "0x2378f4d7bf7a961fa437ae8d614ea5f267728bbee7c4792fc5d90ee58686b5d2",
          "transactionIndex": "0x4",
          "logIndex": "0x16",
          "removed": false
        },
        {
          "address": "0xc39161c743d0307eb9bcc9fef03eeb9dc4802de7",
          "topics": [
            "0x61ed099e74a97a1d7f8bb0952a88ca8b7b8ebd00c126ea04671f92a81213318a"
          ],
          "data": "0x0000000000000000000000004208d6e27538189bb48e603d6123a94b8abe0a0b00000000000000000000000000000000000000000000000008c70916a07d2ad4",
          "blockHash": "0xf7a9aeb5cef31f3b6aa0ff665f27c6f9463950351ea0621de8b644ef755bcb60",
          "blockNumber": "0x46d4c30",
          "blockTimestamp": "0x6a0422c1",
          "transactionHash": "0x2378f4d7bf7a961fa437ae8d614ea5f267728bbee7c4792fc5d90ee58686b5d2",
          "transactionIndex": "0x4",
          "logIndex": "0x17",
          "removed": false
        },
        {
          "address": "0xc39161c743d0307eb9bcc9fef03eeb9dc4802de7",
          "topics": [
            "0x07ea52d82345d6e838192107d8fd7123d9c2ec8e916cd0aad13fd2b60db24644"
          ],
          "data": "0x0000000000000000000000000000000000000000000000000000000000000060000000000000000000000000000000000000000000000000000000000000012000000000000000000000000000000000000000000000000000000000000001400000000000000000000000000000000000000000000000000000000000000005000000000000000000000000282b3386571f7f794450d5789911a9804fa346b4000000000000000000000000493626c5d852b9b187a9eb709d0b0978a38772380000000000000000000000005ec52fb644072247c3264f0ac3db981cdebe3eca000000000000000000000000acde1f22eeab249d3ca6ba8805c8fee9f52a16e7000000000000000000000000dcdd4628f858b45260c31d6ad076bd2c3d3c2f73000000000000000000000000000000000000000000000000000000000000000000000000000000000000000000000000000000000000000000000000000000050000000000000000000000000000000000000000000000000157f0dbe1e9ea8100000000000000000000000000000000000000000000000001420d90943492a90000000000000000000000000000000000000000000000000157f0dbe1e9ea8100000000000000000000000000000000000000000000000001420d90943492a90000000000000000000000000000000000000000000000000157f0dbe1e9ea81",
          "blockHash": "0xf7a9aeb5cef31f3b6aa0ff665f27c6f9463950351ea0621de8b644ef755bcb60",
          "blockNumber": "0x46d4c30",
          "blockTimestamp": "0x6a0422c1",
          "transactionHash": "0x2378f4d7bf7a961fa437ae8d614ea5f267728bbee7c4792fc5d90ee58686b5d2",
          "transactionIndex": "0x4",
          "logIndex": "0x18",
          "removed": false
        },
        {
          "address": "0x6f475642a6e85809b1c36fa62763669b1b48dd5b",
          "topics": [
            "0x1ab700d4ced0c005b164c0f789fd09fcbb0156d4c2041b8a3bfbcd961cd1567f"
          ],
          "data": "0x00000000000000000000000000000000000000000000000000000000000000600000000000000000000000000000000000000000000000000000000000000180000000000000000000000000c39161c743d0307eb9bcc9fef03eeb9dc4802de700000000000000000000000000000000000000000000000000000000000000f9010000000000000002000076b600000000000000000000000029acc7c504665a5ea95344796f784095f0cfcc580000762f000000000000000000000000d86fbbd0c8715d2c1f40e451e5c3514e65e7576a590f7202b81068d1bf10d18acdee6af0cb0dec74c96a62794f69336e6b0a605f0000000000000000000000002a2019b30c157db6c1c01306b8025167dbe1803b000000000000000a00000000000000000000000040f66fff44dbbee88058185f2cfe287558d7e53200000000000000000000000045dce8e4f2dc005a5f28206a46cb034697eeda8e00000000000000000000000000000000000000000000000000000000000076a200000000000000000000000000000000000000000000000000000000000000000000000000002c0003010011010000000000000000000000000003d090010013030000000000000000000000000000000f42400000000000000000000000000000000000000000",
          "blockHash": "0xf7a9aeb5cef31f3b6aa0ff665f27c6f9463950351ea0621de8b644ef755bcb60",
          "blockNumber": "0x46d4c30",
          "blockTimestamp": "0x6a0422c1",
          "transactionHash": "0x2378f4d7bf7a961fa437ae8d614ea5f267728bbee7c4792fc5d90ee58686b5d2",
          "transactionIndex": "0x4",
          "logIndex": "0x19",
          "removed": false
        },
        {
          "address": "0x29acc7c504665a5ea95344796f784095f0cfcc58",
          "topics": [
            "0x85496b760a4b7f8d66384b9df21b381f5d1b1e79f229a47aaf4c232edc2fe59a",
            "0x590f7202b81068d1bf10d18acdee6af0cb0dec74c96a62794f69336e6b0a605f",
            "0x00000000000000000000000040f66fff44dbbee88058185f2cfe287558d7e532"
          ],
          "data": "0x000000000000000000000000000000000000000000000000000000000000762f000000000000000000000000000000000000000000000000000009184e72a000000000000000000000000000000000000000000000000000000009184e72a000",
          "blockHash": "0xf7a9aeb5cef31f3b6aa0ff665f27c6f9463950351ea0621de8b644ef755bcb60",
          "blockNumber": "0x46d4c30",
          "blockTimestamp": "0x6a0422c1",
          "transactionHash": "0x2378f4d7bf7a961fa437ae8d614ea5f267728bbee7c4792fc5d90ee58686b5d2",
          "transactionIndex": "0x4",
          "logIndex": "0x1a",
          "removed": false
        },
        {
          "address": "0x40f66fff44dbbee88058185f2cfe287558d7e532",
          "topics": [
            "0xbc9ee36b6ca0bdd5b3840e6d329dd19a2490d880c7ce24d9818aa593adfb35be",
            "0x00000000000000000000000045dce8e4f2dc005a5f28206a46cb034697eeda8e",
            "0x00000000000000000000000000000000000000000000000000000000000076a2",
            "0x00000000000000000000000045dce8e4f2dc005a5f28206a46cb034697eeda8e"
          ],
          "data": "0x00000000000000000000000029acc7c504665a5ea95344796f784095f0cfcc58000000000000000000000000000000000000000000000000000009184e72a000",
          "blockHash": "0xf7a9aeb5cef31f3b6aa0ff665f27c6f9463950351ea0621de8b644ef755bcb60",
          "blockNumber": "0x46d4c30",
          "blockTimestamp": "0x6a0422c1",
          "transactionHash": "0x2378f4d7bf7a961fa437ae8d614ea5f267728bbee7c4792fc5d90ee58686b5d2",
          "transactionIndex": "0x4",
          "logIndex": "0x1b",
          "removed": false
        }
      ],
      "logsBloom": "0x001000000000000400000002000000000000000000000000000000000000000040000004000000000000000400000000000000000010020800100000002000000000020000000000080000080000000001400000000000000000000000000000000000000200000080200000000008000020010000001000000000100002000000000000008000000000000800000001000000000000000020000000000000000200001080000000201000000000000000000000004000000004400000000000000000020000000004000000a0000000001000000000000000000000000020004010040000000000000000000000a02000100000008000000000000000000000",
      "type": "0x2",
      "transactionHash": "0x2378f4d7bf7a961fa437ae8d614ea5f267728bbee7c4792fc5d90ee58686b5d2",
      "transactionIndex": "0x4",
      "blockHash": "0xf7a9aeb5cef31f3b6aa0ff665f27c6f9463950351ea0621de8b644ef755bcb60",
      "blockNumber": "0x46d4c30",
      "gasUsed": "0x1acf8c",
      "effectiveGasPrice": "0x17bfac7c00",
      "from": "0x45dce8e4f2dc005a5f28206a46cb034697eeda8e",
      "to": "0x40f66fff44dbbee88058185f2cfe287558d7e532",
      "contractAddress": null
    },
    {
      "status": "0x1",
      "cumulativeGasUsed": "0x129b78",
      "logs": [
        {
          "address": "0xba554f7a47f0792b9fa41a1256d4cf628bb1d028",
          "topics": [
            "0x8c5be1e5ebec7d5bd14f71427d1e84f3dd0314c0f7b2291e5b200ac8c7c3b925",
            "0x00000000000000000000000045dce8e4f2dc005a5f28206a46cb034697eeda8e",
            "0x00000000000000000000000040f66fff44dbbee88058185f2cfe287558d7e532"
          ],
          "data": "0x000000000000000000000000000000000000000000000000000009184e72a000",
          "blockHash": "0x6e125ba5a2d0d8019310ecc40c553dd25c3d3082d1c90579b2ec6f54a2a5e4d1",
          "blockNumber": "0x46d4c31",
          "blockTimestamp": "0x6a0422c1",
          "transactionHash": "0xad7c73a01a4a02cb4331804e8c58c80b0d0d33128640429ca73a4ec9e369c76c",
          "transactionIndex": "0x3",
          "logIndex": "0xc",
          "removed": false
        }
      ],
      "logsBloom": "0x00000000000000000000000200000000000000000000000000000000000000000000000000000000000000000000000000000000000000000000000000200000000000000000000000000000000000000000000000000000000000000000000000000000000000000000000004000000000000000000000000000000000200000000000000000000000000000000000000000000000000000000000000000000020000000000000000000000000000000000000000000000000020000000000000000000000000000000000020000000001000000000000000000000000000000010000000000000000000000000a00001000000000000000000000000000000",
      "type": "0x2",
      "transactionHash": "0xad7c73a01a4a02cb4331804e8c58c80b0d0d33128640429ca73a4ec9e369c76c",
      "transactionIndex": "0x3",
      "blockHash": "0x6e125ba5a2d0d8019310ecc40c553dd25c3d3082d1c90579b2ec6f54a2a5e4d1",
      "blockNumber": "0x46d4c31",
      "gasUsed": "0x1968b",
      "effectiveGasPrice": "0x17bfac7c00",
      "from": "0x45dce8e4f2dc005a5f28206a46cb034697eeda8e",
      "to": "0xba554f7a47f0792b9fa41a1256d4cf628bb1d028",
      "contractAddress": null
    },
    {
      "status": "0x1",
      "cumulativeGasUsed": "0x2642aa",
      "logs": [
        {
          "address": "0xba554f7a47f0792b9fa41a1256d4cf628bb1d028",
          "topics": [
            "0x8c5be1e5ebec7d5bd14f71427d1e84f3dd0314c0f7b2291e5b200ac8c7c3b925",
            "0x00000000000000000000000045dce8e4f2dc005a5f28206a46cb034697eeda8e",
            "0x00000000000000000000000040f66fff44dbbee88058185f2cfe287558d7e532"
          ],
          "data": "0x0000000000000000000000000000000000000000000000000000000000000000",
          "blockHash": "0x949d305c5927186bb23e3665a6efd38c8a2237fe08ea28b9fc3a0218eb19457c",
          "blockNumber": "0x46d4c35",
          "blockTimestamp": "0x6a0422c3",
          "transactionHash": "0x1341cc2f4e59380a0dc4483434f04adc66184f8ec034212f0fd50a70beb4075c",
          "transactionIndex": "0x2",
          "logIndex": "0x8",
          "removed": false
        },
        {
          "address": "0xba554f7a47f0792b9fa41a1256d4cf628bb1d028",
          "topics": [
            "0xddf252ad1be2c89b69c2b068fc378daa952ba7f163c4a11628f55a4df523b3ef",
            "0x00000000000000000000000045dce8e4f2dc005a5f28206a46cb034697eeda8e",
            "0x00000000000000000000000040f66fff44dbbee88058185f2cfe287558d7e532"
          ],
          "data": "0x000000000000000000000000000000000000000000000000000009184e72a000",
          "blockHash": "0x949d305c5927186bb23e3665a6efd38c8a2237fe08ea28b9fc3a0218eb19457c",
          "blockNumber": "0x46d4c35",
          "blockTimestamp": "0x6a0422c3",
          "transactionHash": "0x1341cc2f4e59380a0dc4483434f04adc66184f8ec034212f0fd50a70beb4075c",
          "transactionIndex": "0x2",
          "logIndex": "0x9",
          "removed": false
        },
        {
          "address": "0xba554f7a47f0792b9fa41a1256d4cf628bb1d028",
          "topics": [
            "0x8c5be1e5ebec7d5bd14f71427d1e84f3dd0314c0f7b2291e5b200ac8c7c3b925",
            "0x00000000000000000000000040f66fff44dbbee88058185f2cfe287558d7e532",
            "0x000000000000000000000000ba554f7a47f0792b9fa41a1256d4cf628bb1d028"
          ],
          "data": "0x000000000000000000000000000000000000000000000000000009184e72a000",
          "blockHash": "0x949d305c5927186bb23e3665a6efd38c8a2237fe08ea28b9fc3a0218eb19457c",
          "blockNumber": "0x46d4c35",
          "blockTimestamp": "0x6a0422c3",
          "transactionHash": "0x1341cc2f4e59380a0dc4483434f04adc66184f8ec034212f0fd50a70beb4075c",
          "transactionIndex": "0x2",
          "logIndex": "0xa",
          "removed": false
        },
        {
          "address": "0xba554f7a47f0792b9fa41a1256d4cf628bb1d028",
          "topics": [
            "0xddf252ad1be2c89b69c2b068fc378daa952ba7f163c4a11628f55a4df523b3ef",
            "0x00000000000000000000000040f66fff44dbbee88058185f2cfe287558d7e532",
            "0x0000000000000000000000000000000000000000000000000000000000000000"
          ],
          "data": "0x000000000000000000000000000000000000000000000000000009184e72a000",
          "blockHash": "0x949d305c5927186bb23e3665a6efd38c8a2237fe08ea28b9fc3a0218eb19457c",
          "blockNumber": "0x46d4c35",
          "blockTimestamp": "0x6a0422c3",
          "transactionHash": "0x1341cc2f4e59380a0dc4483434f04adc66184f8ec034212f0fd50a70beb4075c",
          "transactionIndex": "0x2",
          "logIndex": "0xb",
          "removed": false
        },
        {
          "address": "0xc39161c743d0307eb9bcc9fef03eeb9dc4802de7",
          "topics": [
            "0x61ed099e74a97a1d7f8bb0952a88ca8b7b8ebd00c126ea04671f92a81213318a"
          ],
          "data": "0x0000000000000000000000004208d6e27538189bb48e603d6123a94b8abe0a0b00000000000000000000000000000000000000000000000008c70916a07d2ad4",
          "blockHash": "0x949d305c5927186bb23e3665a6efd38c8a2237fe08ea28b9fc3a0218eb19457c",
          "blockNumber": "0x46d4c35",
          "blockTimestamp": "0x6a0422c3",
          "transactionHash": "0x1341cc2f4e59380a0dc4483434f04adc66184f8ec034212f0fd50a70beb4075c",
          "transactionIndex": "0x2",
          "logIndex": "0xc",
          "removed": false
        },
        {
          "address": "0xc39161c743d0307eb9bcc9fef03eeb9dc4802de7",
          "topics": [
            "0x07ea52d82345d6e838192107d8fd7123d9c2ec8e916cd0aad13fd2b60db24644"
          ],
          "data": "0x0000000000000000000000000000000000000000000000000000000000000060000000000000000000000000000000000000000000000000000000000000012000000000000000000000000000000000000000000000000000000000000001400000000000000000000000000000000000000000000000000000000000000005000000000000000000000000282b3386571f7f794450d5789911a9804fa346b4000000000000000000000000493626c5d852b9b187a9eb709d0b0978a38772380000000000000000000000005ec52fb644072247c3264f0ac3db981cdebe3eca000000000000000000000000acde1f22eeab249d3ca6ba8805c8fee9f52a16e7000000000000000000000000dcdd4628f858b45260c31d6ad076bd2c3d3c2f73000000000000000000000000000000000000000000000000000000000000000000000000000000000000000000000000000000000000000000000000000000050000000000000000000000000000000000000000000000000157f0dbe1e9ea8100000000000000000000000000000000000000000000000001420d90943492a90000000000000000000000000000000000000000000000000157f0dbe1e9ea8100000000000000000000000000000000000000000000000001420d90943492a90000000000000000000000000000000000000000000000000157f0dbe1e9ea81",
          "blockHash": "0x949d305c5927186bb23e3665a6efd38c8a2237fe08ea28b9fc3a0218eb19457c",
          "blockNumber": "0x46d4c35",
          "blockTimestamp": "0x6a0422c3",
          "transactionHash": "0x1341cc2f4e59380a0dc4483434f04adc66184f8ec034212f0fd50a70beb4075c",
          "transactionIndex": "0x2",
          "logIndex": "0xd",
          "removed": false
        },
        {
          "address": "0x6f475642a6e85809b1c36fa62763669b1b48dd5b",
          "topics": [
            "0x1ab700d4ced0c005b164c0f789fd09fcbb0156d4c2041b8a3bfbcd961cd1567f"
          ],
          "data": "0x00000000000000000000000000000000000000000000000000000000000000600000000000000000000000000000000000000000000000000000000000000180000000000000000000000000c39161c743d0307eb9bcc9fef03eeb9dc4802de700000000000000000000000000000000000000000000000000000000000000f9010000000000000002000076b6000000000000000000000000ba554f7a47f0792b9fa41a1256d4cf628bb1d0280000762f00000000000000000000000075c38d46001b0f8108c4136216bd2694982c20fc7dcbe65ffa5f6e7a3ae45e9902b885642d8573ef12736f90b0dacc69b0c1d3620000000000000000000000002a2019b30c157db6c1c01306b8025167dbe1803b000000000000000a00000000000000000000000040f66fff44dbbee88058185f2cfe287558d7e53200000000000000000000000045dce8e4f2dc005a5f28206a46cb034697eeda8e00000000000000000000000000000000000000000000000000000000000076a200000000000000000000000000000000000000000000000000000000000000000000000000002c0003010011010000000000000000000000000003d090010013030000000000000000000000000000000f42400000000000000000000000000000000000000000",
          "blockHash": "0x949d305c5927186bb23e3665a6efd38c8a2237fe08ea28b9fc3a0218eb19457c",
          "blockNumber": "0x46d4c35",
          "blockTimestamp": "0x6a0422c3",
          "transactionHash": "0x1341cc2f4e59380a0dc4483434f04adc66184f8ec034212f0fd50a70beb4075c",
          "transactionIndex": "0x2",
          "logIndex": "0xe",
          "removed": false
        },
        {
          "address": "0xba554f7a47f0792b9fa41a1256d4cf628bb1d028",
          "topics": [
            "0x85496b760a4b7f8d66384b9df21b381f5d1b1e79f229a47aaf4c232edc2fe59a",
            "0x7dcbe65ffa5f6e7a3ae45e9902b885642d8573ef12736f90b0dacc69b0c1d362",
            "0x00000000000000000000000040f66fff44dbbee88058185f2cfe287558d7e532"
          ],
          "data": "0x000000000000000000000000000000000000000000000000000000000000762f000000000000000000000000000000000000000000000000000009184e72a000000000000000000000000000000000000000000000000000000009184e72a000",
          "blockHash": "0x949d305c5927186bb23e3665a6efd38c8a2237fe08ea28b9fc3a0218eb19457c",
          "blockNumber": "0x46d4c35",
          "blockTimestamp": "0x6a0422c3",
          "transactionHash": "0x1341cc2f4e59380a0dc4483434f04adc66184f8ec034212f0fd50a70beb4075c",
          "transactionIndex": "0x2",
          "logIndex": "0xf",
          "removed": false
        },
        {
          "address": "0x40f66fff44dbbee88058185f2cfe287558d7e532",
          "topics": [
            "0xbc9ee36b6ca0bdd5b3840e6d329dd19a2490d880c7ce24d9818aa593adfb35be",
            "0x00000000000000000000000045dce8e4f2dc005a5f28206a46cb034697eeda8e",
            "0x00000000000000000000000000000000000000000000000000000000000076a2",
            "0x00000000000000000000000045dce8e4f2dc005a5f28206a46cb034697eeda8e"
          ],
          "data": "0x000000000000000000000000ba554f7a47f0792b9fa41a1256d4cf628bb1d028000000000000000000000000000000000000000000000000000009184e72a000",
          "blockHash": "0x949d305c5927186bb23e3665a6efd38c8a2237fe08ea28b9fc3a0218eb19457c",
          "blockNumber": "0x46d4c35",
          "blockTimestamp": "0x6a0422c3",
          "transactionHash": "0x1341cc2f4e59380a0dc4483434f04adc66184f8ec034212f0fd50a70beb4075c",
          "transactionIndex": "0x2",
          "logIndex": "0x10",
          "removed": false
        }
      ],
      "logsBloom": "0x001000000000000000000006000000000000000000000000100000000000000040000000000000000000000400000000000000000000020000100000002000000000020000000080000000080000000021400000000000000000000000000000000000000200000080200000040008000020000000001000000000100002000000000000008000000000000800000000000000000000000000000000000000000200001080000000201000000000000000000000044000000004600000000000000000020000040000000000a0000000001000000000000000000000000020004010040000000000000000000000a02001100000008000000000000000000000",
      "type": "0x2",
      "transactionHash": "0x1341cc2f4e59380a0dc4483434f04adc66184f8ec034212f0fd50a70beb4075c",
      "transactionIndex": "0x2",
      "blockHash": "0x949d305c5927186bb23e3665a6efd38c8a2237fe08ea28b9fc3a0218eb19457c",
      "blockNumber": "0x46d4c35",
      "gasUsed": "0x1acf8c",
      "effectiveGasPrice": "0x17bfac7c00",
      "from": "0x45dce8e4f2dc005a5f28206a46cb034697eeda8e",
      "to": "0x40f66fff44dbbee88058185f2cfe287558d7e532",
      "contractAddress": null
    }
  ],
  "libraries": [],
  "pending": [],
  "returns": {},
  "timestamp": 1778655941011,
  "chain": 143,
  "commit": "3c1e5d2a"
}