{
  "transactions": [
    {
      "hash": "0xaabb92556a974a80d2873aad98dd345cefb998f4e6056b3baf3f276c20a67d04",
      "transactionType": "CALL",
      "contractName": null,
      "contractAddress": "0xe5020a6d073a794b6e7f05678707de47986fb0b6",
      "function": "approve(address,uint256)",
      "arguments": [
        "0x3Ec3849C33291a9eF4c5dB86De593EB4A37fDe45",
        "10000000000000"
      ],
      "transaction": {
        "from": "0x45dce8e4f2dc005a5f28206a46cb034697eeda8e",
        "to": "0xe5020a6d073a794b6e7f05678707de47986fb0b6",
        "gas": "0x132ad",
        "value": "0x0",
        "input": "0x095ea7b30000000000000000000000003ec3849c33291a9ef4c5db86de593eb4a37fde45000000000000000000000000000000000000000000000000000009184e72a000",
        "nonce": "0xca",
        "chainId": "0x2105"
      },
      "additionalContracts": [],
      "isFixedGasLimit": false
    },
    {
      "hash": "0x699907c4a270abd9f489b931743a6527126d8627934ec93847845055b1eb8d8e",
      "transactionType": "CALL",
      "contractName": null,
      "contractAddress": "0x3ec3849c33291a9ef4c5db86de593eb4a37fde45",
      "function": "sendOFT(address,uint32,bytes32,uint256)",
      "arguments": [
        "0xe5020A6d073a794B6E7f05678707dE47986Fb0b6",
        "30111",
        "0x00000000000000000000000045dce8e4f2dc005a5f28206a46cb034697eeda8e",
        "10000000000000"
      ],
      "transaction": {
        "from": "0x45dce8e4f2dc005a5f28206a46cb034697eeda8e",
        "to": "0x3ec3849c33291a9ef4c5db86de593eb4a37fde45",
        "gas": "0xd3143",
        "value": "0x29c0dd91a5ee",
        "input": "0x3e832c90000000000000000000000000e5020a6d073a794b6e7f05678707de47986fb0b6000000000000000000000000000000000000000000000000000000000000759f00000000000000000000000045dce8e4f2dc005a5f28206a46cb034697eeda8e000000000000000000000000000000000000000000000000000009184e72a000",
        "nonce": "0xcb",
        "chainId": "0x2105"
      },
      "additionalContracts": [],
      "isFixedGasLimit": false
    },
    {
      "hash": "0xad640f9e4b1b7f637a6779e312574924b012457c2f7d67c74b0479a4075effe0",
      "transactionType": "CALL",
      "contractName": null,
      "contractAddress": "0x91a3f8a8d7a881fbdfcfecd7a2dc92a46dcfa14e",
      "function": "approve(address,uint256)",
      "arguments": [
        "0x3Ec3849C33291a9eF4c5dB86De593EB4A37fDe45",
        "10000000000000"
      ],
      "transaction": {
        "from": "0x45dce8e4f2dc005a5f28206a46cb034697eeda8e",
        "to": "0x91a3f8a8d7a881fbdfcfecd7a2dc92a46dcfa14e",
        "gas": "0x12184",
        "value": "0x0",
        "input": "0x095ea7b30000000000000000000000003ec3849c33291a9ef4c5db86de593eb4a37fde45000000000000000000000000000000000000000000000000000009184e72a000",
        "nonce": "0xcc",
        "chainId": "0x2105"
      },
      "additionalContracts": [],
      "isFixedGasLimit": false
    },
    {
      "hash": "0x19bff82cabe8319425599c9a85c1560538a8520a09a32b9d184e8bf265fbf681",
      "transactionType": "CALL",
      "contractName": null,
      "contractAddress": "0x3ec3849c33291a9ef4c5db86de593eb4a37fde45",
      "function": "sendOFT(address,uint32,bytes32,uint256)",
      "arguments": [
        "0x91A3f8a8d7a881fBDfcfEcd7A2Dc92a46DCfa14e",
        "30111",
        "0x00000000000000000000000045dce8e4f2dc005a5f28206a46cb034697eeda8e",
        "10000000000000"
      ],
      "transaction": {
        "from": "0x45dce8e4f2dc005a5f28206a46cb034697eeda8e",
        "to": "0x3ec3849c33291a9ef4c5db86de593eb4a37fde45",
        "gas": "0xcd139",
        "value": "0x29c0dd91a5ee",
        "input": "0x3e832c9000000000000000000000000091a3f8a8d7a881fbdfcfecd7a2dc92a46dcfa14e000000000000000000000000000000000000000000000000000000000000759f00000000000000000000000045dce8e4f2dc005a5f28206a46cb034697eeda8e000000000000000000000000000000000000000000000000000009184e72a000",
        "nonce": "0xcd",
        "chainId": "0x2105"
      },
      "additionalContracts": [],
      "isFixedGasLimit": false
    },
    {
      "hash": "0x045b617ffe91e441bd8f730a2b0b8f76a900288ab2aabd292cfed1e4e2ff9ba0",
      "transactionType": "CALL",
      "contractName": null,
      "contractAddress": "0x7eb8d1e4e2d0c8b9beda7a97b305cf49f3eee8da",
      "function": "approve(address,uint256)",
      "arguments": [
        "0x3Ec3849C33291a9eF4c5dB86De593EB4A37fDe45",
        "10000000000000"
      ],
      "transaction": {
        "from": "0x45dce8e4f2dc005a5f28206a46cb034697eeda8e",
        "to": "0x7eb8d1e4e2d0c8b9beda7a97b305cf49f3eee8da",
        "gas": "0x132ad",
        "value": "0x0",
        "input": "0x095ea7b30000000000000000000000003ec3849c33291a9ef4c5db86de593eb4a37fde45000000000000000000000000000000000000000000000000000009184e72a000",
        "nonce": "0xce",
        "chainId": "0x2105"
      },
      "additionalContracts": [],
      "isFixedGasLimit": false
    },
    {
      "hash": "0xab031a41a9b0687423a494b7e9cd23a68b9c6e408b485251dd7db33171284f67",
      "transactionType": "CALL",
      "contractName": null,
      "contractAddress": "0x3ec3849c33291a9ef4c5db86de593eb4a37fde45",
      "function": "sendOFT(address,uint32,bytes32,uint256)",
      "arguments": [
        "0x7eb8d1E4E2D0C8b9bEDA7a97b305cF49F3eeE8dA",
        "30111",
        "0x00000000000000000000000045dce8e4f2dc005a5f28206a46cb034697eeda8e",
        "10000000000000"
      ],
      "transaction": {
        "from": "0x45dce8e4f2dc005a5f28206a46cb034697eeda8e",
        "to": "0x3ec3849c33291a9ef4c5db86de593eb4a37fde45",
        "gas": "0xd925d",
        "value": "0x29c0dd91a5ee",
        "input": "0x3e832c900000000000000000000000007eb8d1e4e2d0c8b9beda7a97b305cf49f3eee8da000000000000000000000000000000000000000000000000000000000000759f00000000000000000000000045dce8e4f2dc005a5f28206a46cb034697eeda8e000000000000000000000000000000000000000000000000000009184e72a000",
        "nonce": "0xcf",
        "chainId": "0x2105"
      },
      "additionalContracts": [],
      "isFixedGasLimit": false
    },
    {
      "hash": "0x54cc231c52de293c5194f6a1db7306b5b75ea6e53a588b7d4ee27740d174af7a",
      "transactionType": "CALL",
      "contractName": null,
      "contractAddress": "0x192e0c7cc9b263d93fa6d472de47bbefe1fb12ba",
      "function": "approve(address,uint256)",
      "arguments": [
        "0x3Ec3849C33291a9eF4c5dB86De593EB4A37fDe45",
        "10000000000000"
      ],
      "transaction": {
        "from": "0x45dce8e4f2dc005a5f28206a46cb034697eeda8e",
        "to": "0x192e0c7cc9b263d93fa6d472de47bbefe1fb12ba",
        "gas": "0x132ad",
        "value": "0x0",
        "input": "0x095ea7b30000000000000000000000003ec3849c33291a9ef4c5db86de593eb4a37fde45000000000000000000000000000000000000000000000000000009184e72a000",
        "nonce": "0xd0",
        "chainId": "0x2105"
      },
      "additionalContracts": [],
      "isFixedGasLimit": false
    },
    {
      "hash": "0x2c1b4ba855d7893214577600fbea0d042a5f3671bc2c67a6b2eed2adc5bb7213",
      "transactionType": "CALL",
      "contractName": null,
      "contractAddress": "0x3ec3849c33291a9ef4c5db86de593eb4a37fde45",
      "function": "sendOFT(address,uint32,bytes32,uint256)",
      "arguments": [
        "0x192e0C7Cc9B263D93fa6d472De47bBefe1Fb12bA",
        "30111",
        "0x00000000000000000000000045dce8e4f2dc005a5f28206a46cb034697eeda8e",
        "10000000000000"
      ],
      "transaction": {
        "from": "0x45dce8e4f2dc005a5f28206a46cb034697eeda8e",
        "to": "0x3ec3849c33291a9ef4c5db86de593eb4a37fde45",
        "gas": "0xd925d",
        "value": "0x29c0dd91a5ee",
        "input": "0x3e832c90000000000000000000000000192e0c7cc9b263d93fa6d472de47bbefe1fb12ba000000000000000000000000000000000000000000000000000000000000759f00000000000000000000000045dce8e4f2dc005a5f28206a46cb034697eeda8e000000000000000000000000000000000000000000000000000009184e72a000",
        "nonce": "0xd1",
        "chainId": "0x2105"
      },
      "additionalContracts": [],
      "isFixedGasLimit": false
    },
    {
      "hash": "0xef51e58551a952c55f81f18e504b95a30abc053baee9d13d8c36340549a7cbab",
      "transactionType": "CALL",
      "contractName": null,
      "contractAddress": "0x0ceac003b0d2479bebec9f4b2ebad0a803759bbf",
      "function": "approve(address,uint256)",
      "arguments": [
        "0x3Ec3849C33291a9eF4c5dB86De593EB4A37fDe45",
        "10000000000000"
      ],
      "transaction": {
        "from": "0x45dce8e4f2dc005a5f28206a46cb034697eeda8e",
        "to": "0x0ceac003b0d2479bebec9f4b2ebad0a803759bbf",
        "gas": "0x12184",
        "value": "0x0",
        "input": "0x095ea7b30000000000000000000000003ec3849c33291a9ef4c5db86de593eb4a37fde45000000000000000000000000000000000000000000000000000009184e72a000",
        "nonce": "0xd2",
        "chainId": "0x2105"
      },
      "additionalContracts": [],
      "isFixedGasLimit": false
    },
    {
      "hash": "0xac1bbda31deb84314e1c8a6d2f461e8bbf540080210f4719ebc8d3e13b6d25bd",
      "transactionType": "CALL",
      "contractName": null,
      "contractAddress": "0x3ec3849c33291a9ef4c5db86de593eb4a37fde45",
      "function": "sendOFT(address,uint32,bytes32,uint256)",
      "arguments": [
        "0x0CEAC003B0d2479BebeC9f4b2EBAd0a803759bbf",
        "30111",
        "0x00000000000000000000000045dce8e4f2dc005a5f28206a46cb034697eeda8e",
        "10000000000000"
      ],
      "transaction": {
        "from": "0x45dce8e4f2dc005a5f28206a46cb034697eeda8e",
        "to": "0x3ec3849c33291a9ef4c5db86de593eb4a37fde45",
        "gas": "0xcd139",
        "value": "0x29c0dd91a5ee",
        "input": "0x3e832c900000000000000000000000000ceac003b0d2479bebec9f4b2ebad0a803759bbf000000000000000000000000000000000000000000000000000000000000759f00000000000000000000000045dce8e4f2dc005a5f28206a46cb034697eeda8e000000000000000000000000000000000000000000000000000009184e72a000",
        "nonce": "0xd3",
        "chainId": "0x2105"
      },
      "additionalContracts": [],
      "isFixedGasLimit": false
    },
    {
      "hash": "0x8a54afe11a919e37e1a239037f44d8e4a4a6b7015de2e8ceb0ee94ec31334be7",
      "transactionType": "CALL",
      "contractName": null,
      "contractAddress": "0xeedd3a0dddf977462a97c1f0ebb89c3fbe8d084b",
      "function": "approve(address,uint256)",
      "arguments": [
        "0x3Ec3849C33291a9eF4c5dB86De593EB4A37fDe45",
        "10000000000000"
      ],
      "transaction": {
        "from": "0x45dce8e4f2dc005a5f28206a46cb034697eeda8e",
        "to": "0xeedd3a0dddf977462a97c1f0ebb89c3fbe8d084b",
        "gas": "0x132ad",
        "value": "0x0",
        "input": "0x095ea7b30000000000000000000000003ec3849c33291a9ef4c5db86de593eb4a37fde45000000000000000000000000000000000000000000000000000009184e72a000",
        "nonce": "0xd4",
        "chainId": "0x2105"
      },
      "additionalContracts": [],
      "isFixedGasLimit": false
    },
    {
      "hash": "0xb4778e4417d049b6403a7b57c2cb5874f4602db2a9121a80615dd9bcd2c2cd17",
      "transactionType": "CALL",
      "contractName": null,
      "contractAddress": "0x3ec3849c33291a9ef4c5db86de593eb4a37fde45",
      "function": "sendOFT(address,uint32,bytes32,uint256)",
      "arguments": [
        "0xEEdd3A0DDDF977462A97C1F0eBb89C3fbe8D084B",
        "30111",
        "0x00000000000000000000000045dce8e4f2dc005a5f28206a46cb034697eeda8e",
        "10000000000000"
      ],
      "transaction": {
        "from": "0x45dce8e4f2dc005a5f28206a46cb034697eeda8e",
        "to": "0x3ec3849c33291a9ef4c5db86de593eb4a37fde45",
        "gas": "0xe55bf",
        "value": "0x29c0dd91a5ee",
        "input": "0x3e832c90000000000000000000000000eedd3a0dddf977462a97c1f0ebb89c3fbe8d084b000000000000000000000000000000000000000000000000000000000000759f00000000000000000000000045dce8e4f2dc005a5f28206a46cb034697eeda8e000000000000000000000000000000000000000000000000000009184e72a000",
        "nonce": "0xd5",
        "chainId": "0x2105"
      },
      "additionalContracts": [],
      "isFixedGasLimit": false
    }
  ],
  "receipts": [
    {
      "status": "0x1",
      "cumulativeGasUsed": "0x8f71e4",
      "logs": [
        {
          "address": "0xe5020a6d073a794b6e7f05678707de47986fb0b6",
          "topics": [
            "0x8c5be1e5ebec7d5bd14f71427d1e84f3dd0314c0f7b2291e5b200ac8c7c3b925",
            "0x00000000000000000000000045dce8e4f2dc005a5f28206a46cb034697eeda8e",
            "0x0000000000000000000000003ec3849c33291a9ef4c5db86de593eb4a37fde45"
          ],
          "data": "0x000000000000000000000000000000000000000000000000000009184e72a000",
          "blockHash": "0xf21acafa9ff45a713d445248e219ae155242ec6e3b1a99e7f80e05fc272bdf31",
          "blockNumber": "0x2bcbd1a",
          "blockTimestamp": "0x6a03d717",
          "transactionHash": "0x19bff82cabe8319425599c9a85c1560538a8520a09a32b9d184e8bf265fbf681",
          "transactionIndex": "0x30",
          "logIndex": "0x122",
          "removed": false
        }
      ],
      "logsBloom": "0x00000000000000000000000280000000000000000000000000000000000000000000000000000000000000000000000000000000000000000000000000200020000000000000000000000000000000000000000000000000000000000000000000000000000000000000000000000000000000000002000000000000000000000000000000000000000000000000000000000000000000000000004000000000020000000000000000000000400000000000000000000000000000000000000000000000000000000000000000000000001000000000000000000000000000000010000000000000000000800000800000000000000000000000000000000000",
      "type": "0x2",
      "transactionHash": "0x19bff82cabe8319425599c9a85c1560538a8520a09a32b9d184e8bf265fbf681",
      "transactionIndex": "0x30",
      "blockHash": "0xf21acafa9ff45a713d445248e219ae155242ec6e3b1a99e7f80e05fc272bdf31",
      "blockNumber": "0x2bcbd1a",
      "gasUsed": "0xd1b2",
      "effectiveGasPrice": "0x4dd1e0",
      "blobGasUsed": "0x39d0",
      "from": "0x45dce8e4f2dc005a5f28206a46cb034697eeda8e",
      "to": "0xe5020a6d073a794b6e7f05678707de47986fb0b6",
      "contractAddress": null,
      "daFootprintGasScalar": "0x94",
      "l1BaseFeeScalar": "0x8dd",
      "l1BlobBaseFee": "0x54679b",
      "l1BlobBaseFeeScalar": "0x101c12",
      "l1Fee": "0x3a694ab6",
      "l1GasPrice": "0x680530e",
      "l1GasUsed": "0x640"
    },
    {
      "status": "0x1",
      "cumulativeGasUsed": "0x98fef8",
      "logs": [
        {
          "address": "0xe5020a6d073a794b6e7f05678707de47986fb0b6",
          "topics": [
            "0x8c5be1e5ebec7d5bd14f71427d1e84f3dd0314c0f7b2291e5b200ac8c7c3b925",
            "0x00000000000000000000000045dce8e4f2dc005a5f28206a46cb034697eeda8e",
            "0x0000000000000000000000003ec3849c33291a9ef4c5db86de593eb4a37fde45"
          ],
          "data": "0x0000000000000000000000000000000000000000000000000000000000000000",
          "blockHash": "0xf21acafa9ff45a713d445248e219ae155242ec6e3b1a99e7f80e05fc272bdf31",
          "blockNumber": "0x2bcbd1a",
          "blockTimestamp": "0x6a03d717",
          "transactionHash": "0x699907c4a270abd9f489b931743a6527126d8627934ec93847845055b1eb8d8e",
          "transactionIndex": "0x31",
          "logIndex": "0x123",
          "removed": false
        },
        {
          "address": "0xe5020a6d073a794b6e7f05678707de47986fb0b6",
          "topics": [
            "0xddf252ad1be2c89b69c2b068fc378daa952ba7f163c4a11628f55a4df523b3ef",
            "0x00000000000000000000000045dce8e4f2dc005a5f28206a46cb034697eeda8e",
            "0x0000000000000000000000003ec3849c33291a9ef4c5db86de593eb4a37fde45"
          ],
          "data": "0x000000000000000000000000000000000000000000000000000009184e72a000",
          "blockHash": "0xf21acafa9ff45a713d445248e219ae155242ec6e3b1a99e7f80e05fc272bdf31",
          "blockNumber": "0x2bcbd1a",
          "blockTimestamp": "0x6a03d717",
          "transactionHash": "0x699907c4a270abd9f489b931743a6527126d8627934ec93847845055b1eb8d8e",
          "transactionIndex": "0x31",
          "logIndex": "0x124",
          "removed": false
        },
        {
          "address": "0xe5020a6d073a794b6e7f05678707de47986fb0b6",
          "topics": [
            "0x8c5be1e5ebec7d5bd14f71427d1e84f3dd0314c0f7b2291e5b200ac8c7c3b925",
            "0x0000000000000000000000003ec3849c33291a9ef4c5db86de593eb4a37fde45",
            "0x000000000000000000000000e5020a6d073a794b6e7f05678707de47986fb0b6"
          ],
          "data": "0x000000000000000000000000000000000000000000000000000009184e72a000",
          "blockHash": "0xf21acafa9ff45a713d445248e219ae155242ec6e3b1a99e7f80e05fc272bdf31",
          "blockNumber": "0x2bcbd1a",
          "blockTimestamp": "0x6a03d717",
          "transactionHash": "0x699907c4a270abd9f489b931743a6527126d8627934ec93847845055b1eb8d8e",
          "transactionIndex": "0x31",
          "logIndex": "0x125",
          "removed": false
        },
        {
          "address": "0xe5020a6d073a794b6e7f05678707de47986fb0b6",
          "topics": [
            "0xddf252ad1be2c89b69c2b068fc378daa952ba7f163c4a11628f55a4df523b3ef",
            "0x0000000000000000000000003ec3849c33291a9ef4c5db86de593eb4a37fde45",
            "0x0000000000000000000000000000000000000000000000000000000000000000"
          ],
          "data": "0x000000000000000000000000000000000000000000000000000009184e72a000",
          "blockHash": "0xf21acafa9ff45a713d445248e219ae155242ec6e3b1a99e7f80e05fc272bdf31",
          "blockNumber": "0x2bcbd1a",
          "blockTimestamp": "0x6a03d717",
          "transactionHash": "0x699907c4a270abd9f489b931743a6527126d8627934ec93847845055b1eb8d8e",
          "transactionIndex": "0x31",
          "logIndex": "0x126",
          "removed": false
        },
        {
          "address": "0xb5320b0b3a13cc860893e2bd79fcd7e13484dda2",
          "topics": [
            "0x61ed099e74a97a1d7f8bb0952a88ca8b7b8ebd00c126ea04671f92a81213318a"
          ],
          "data": "0x0000000000000000000000002cca08ae69e0c44b18a57ab2a87644234daebae4000000000000000000000000000000000000000000000000000008cdfa2933a0",
          "blockHash": "0xf21acafa9ff45a713d445248e219ae155242ec6e3b1a99e7f80e05fc272bdf31",
          "blockNumber": "0x2bcbd1a",
          "blockTimestamp": "0x6a03d717",
          "transactionHash": "0x699907c4a270abd9f489b931743a6527126d8627934ec93847845055b1eb8d8e",
          "transactionIndex": "0x31",
          "logIndex": "0x127",
          "removed": false
        },
        {
          "address": "0xb5320b0b3a13cc860893e2bd79fcd7e13484dda2",
          "topics": [
            "0x07ea52d82345d6e838192107d8fd7123d9c2ec8e916cd0aad13fd2b60db24644"
          ],
          "data": "0x0000000000000000000000000000000000000000000000000000000000000060000000000000000000000000000000000000000000000000000000000000012000000000000000000000000000000000000000000000000000000000000001400000000000000000000000000000000000000000000000000000000000000005000000000000000000000000187cf227f81c287303ee765ee001e151347faaa2000000000000000000000000554833698ae0fb22ecc90b01222903fd62ca4b470000000000000000000000009e059a54699a285714207b43b055483e78faac25000000000000000000000000a7b5189bca84cd304d8553977c7c614329750d99000000000000000000000000cd37ca043f8479064e10635020c65ffc005d36f600000000000000000000000000000000000000000000000000000000000000000000000000000000000000000000000000000000000000000000000000000005000000000000000000000000000000000000000000000000000002dfcc70c300000000000000000000000000000000000000000000000000000002b0f91c56590000000000000000000000000000000000000000000000000000023be8c946b60000000000000000000000000000000000000000000000000000023be8c946b60000000000000000000000000000000000000000000000000000020d1574da0f",
          "blockHash": "0xf21acafa9ff45a713d445248e219ae155242ec6e3b1a99e7f80e05fc272bdf31",
          "blockNumber": "0x2bcbd1a",
          "blockTimestamp": "0x6a03d717",
          "transactionHash": "0x699907c4a270abd9f489b931743a6527126d8627934ec93847845055b1eb8d8e",
          "transactionIndex": "0x31",
          "logIndex": "0x128",
          "removed": false
        },
        {
          "address": "0x1a44076050125825900e736c501f859c50fe728c",
          "topics": [
            "0x1ab700d4ced0c005b164c0f789fd09fcbb0156d4c2041b8a3bfbcd961cd1567f"
          ],
          "data": "0x00000000000000000000000000000000000000000000000000000000000000600000000000000000000000000000000000000000000000000000000000000180000000000000000000000000b5320b0b3a13cc860893e2bd79fcd7e13484dda200000000000000000000000000000000000000000000000000000000000000f9010000000000001710000075e8000000000000000000000000e5020a6d073a794b6e7f05678707de47986fb0b60000762f00000000000000000000000096a394058e2b84a89bac9667b19661ed003cf5d4f87de824348761ea0b7d396f1be5225c107adf06ba8f402a78c45c61b8e9daf20000000000000000000000002a2019b30c157db6c1c01306b8025167dbe1803b000000000000000a0000000000000000000000003ec3849c33291a9ef4c5db86de593eb4a37fde4500000000000000000000000045dce8e4f2dc005a5f28206a46cb034697eeda8e000000000000000000000000000000000000000000000000000000000000759f00000000000000000000000000000000000000000000000000000000000000000000000000002c0003010011010000000000000000000000000003d090010013030000000000000000000000000000000f42400000000000000000000000000000000000000000",
          "blockHash": "0xf21acafa9ff45a713d445248e219ae155242ec6e3b1a99e7f80e05fc272bdf31",
          "blockNumber": "0x2bcbd1a",
          "blockTimestamp": "0x6a03d717",
          "transactionHash": "0x699907c4a270abd9f489b931743a6527126d8627934ec93847845055b1eb8d8e",
          "transactionIndex": "0x31",
          "logIndex": "0x129",
          "removed": false
        },
        {
          "address": "0xe5020a6d073a794b6e7f05678707de47986fb0b6",
          "topics": [
            "0x85496b760a4b7f8d66384b9df21b381f5d1b1e79f229a47aaf4c232edc2fe59a",
            "0xf87de824348761ea0b7d396f1be5225c107adf06ba8f402a78c45c61b8e9daf2",
            "0x0000000000000000000000003ec3849c33291a9ef4c5db86de593eb4a37fde45"
          ],
          "data": "0x000000000000000000000000000000000000000000000000000000000000762f000000000000000000000000000000000000000000000000000009184e72a000000000000000000000000000000000000000000000000000000009184e72a000",
          "blockHash": "0xf21acafa9ff45a713d445248e219ae155242ec6e3b1a99e7f80e05fc272bdf31",
          "blockNumber": "0x2bcbd1a",
          "blockTimestamp": "0x6a03d717",
          "transactionHash": "0x699907c4a270abd9f489b931743a6527126d8627934ec93847845055b1eb8d8e",
          "transactionIndex": "0x31",
          "logIndex": "0x12a",
          "removed": false
        },
        {
          "address": "0x3ec3849c33291a9ef4c5db86de593eb4a37fde45",
          "topics": [
            "0xbc9ee36b6ca0bdd5b3840e6d329dd19a2490d880c7ce24d9818aa593adfb35be",
            "0x00000000000000000000000045dce8e4f2dc005a5f28206a46cb034697eeda8e",
            "0x000000000000000000000000000000000000000000000000000000000000759f",
            "0x00000000000000000000000045dce8e4f2dc005a5f28206a46cb034697eeda8e"
          ],
          "data": "0x000000000000000000000000e5020a6d073a794b6e7f05678707de47986fb0b6000000000000000000000000000000000000000000000000000009184e72a000",
          "blockHash": "0xf21acafa9ff45a713d445248e219ae155242ec6e3b1a99e7f80e05fc272bdf31",
          "blockNumber": "0x2bcbd1a",
          "blockTimestamp": "0x6a03d717",
          "transactionHash": "0x699907c4a270abd9f489b931743a6527126d8627934ec93847845055b1eb8d8e",
          "transactionIndex": "0x31",
          "logIndex": "0x12b",
          "removed": false
        }
      ],
      "logsBloom": "0x00000000000000000000080280002000002000000000000000000000003000400000000000000000000000000000000000000000000000000000000000200020000002000000000000000408800000000000000000000000100000000000000100000000020000008000000000000800000000000012100000000010000000000000000000000000000000080000000000000000000020000044004000000000020000108000000020100000400000000000000000400000000440000000000000000002000000000000000080000000001000000000000000000000000060000018040000000000000000800100802000000000018000000000000000000000",
      "type": "0x2",
      "transactionHash": "0x699907c4a270abd9f489b931743a6527126d8627934ec93847845055b1eb8d8e",
      "transactionIndex": "0x31",
      "blockHash": "0xf21acafa9ff45a713d445248e219ae155242ec6e3b1a99e7f80e05fc272bdf31",
      "blockNumber": "0x2bcbd1a",
      "gasUsed": "0x98d14",
      "effectiveGasPrice": "0x4dd1e0",
      "blobGasUsed": "0x4688",
      "from": "0x45dce8e4f2dc005a5f28206a46cb034697eeda8e",
      "to": "0x3ec3849c33291a9ef4c5db86de593eb4a37fde45",
      "contractAddress": null,
      "daFootprintGasScalar": "0x94",
      "l1BaseFeeScalar": "0x8dd",
      "l1BlobBaseFee": "0x54679b",
      "l1BlobBaseFeeScalar": "0x101c12",
      "l1Fee": "0x4761a7c4",
      "l1GasPrice": "0x680530e",
      "l1GasUsed": "0x7a3"
    },
    {
      "status": "0x1",
      "cumulativeGasUsed": "0x99d094",
      "logs": [
        {
          "address": "0x91a3f8a8d7a881fbdfcfecd7a2dc92a46dcfa14e",
          "topics": [
            "0x8c5be1e5ebec7d5bd14f71427d1e84f3dd0314c0f7b2291e5b200ac8c7c3b925",
            "0x00000000000000000000000045dce8e4f2dc005a5f28206a46cb034697eeda8e",
            "0x0000000000000000000000003ec3849c33291a9ef4c5db86de593eb4a37fde45"
          ],
          "data": "0x000000000000000000000000000000000000000000000000000009184e72a000",
          "blockHash": "0x0000000000000000000000000000000000000000000000000000000000000000",
          "blockNumber": "0x2bcbd1a",
          "blockTimestamp": "0x6a03d717",
          "transactionHash": "0xb4778e4417d049b6403a7b57c2cb5874f4602db2a9121a80615dd9bcd2c2cd17",
          "transactionIndex": "0x32",
          "logIndex": "0x12c",
          "removed": false
        }
      ],
      "logsBloom": "0x00000000000000000000000200000000000000000000000000000000000000000000000000000000000000000000000000000000000000000000000000200020000000200000000000000000000000000000000000000000000000000000000000000000000000000000000000000000000000000000000000000000000000000000000000000000000000000000000000000000000400000000004000000000020000000000000000000000400000000000000000000000000000000000000000000002000000000000000000000000001000000000000000000000000000000010000000000000000000000000800000000000000000000000000000000000",
      "type": "0x2",
      "transactionHash": "0xb4778e4417d049b6403a7b57c2cb5874f4602db2a9121a80615dd9bcd2c2cd17",
      "transactionIndex": "0x32",
      "blockHash": "0x0000000000000000000000000000000000000000000000000000000000000000",
      "blockNumber": "0x2bcbd1a",
      "gasUsed": "0xd19c",
      "effectiveGasPrice": "0x4dd1e0",
      "blobGasUsed": "0x39d0",
      "from": "0x45dce8e4f2dc005a5f28206a46cb034697eeda8e",
      "to": "0x91a3f8a8d7a881fbdfcfecd7a2dc92a46dcfa14e",
      "contractAddress": null,
      "daFootprintGasScalar": "0x94",
      "l1BaseFeeScalar": "0x8dd",
      "l1BlobBaseFee": "0x54679b",
      "l1BlobBaseFeeScalar": "0x101c12",
      "l1Fee": "0x3a694ab6",
      "l1GasPrice": "0x680530e",
      "l1GasUsed": "0x640"
    },
    {
      "status": "0x1",
      "cumulativeGasUsed": "0xa31821",
      "logs": [
        {
          "address": "0x91a3f8a8d7a881fbdfcfecd7a2dc92a46dcfa14e",
          "topics": [
            "0x8c5be1e5ebec7d5bd14f71427d1e84f3dd0314c0f7b2291e5b200ac8c7c3b925",
            "0x00000000000000000000000045dce8e4f2dc005a5f28206a46cb034697eeda8e",
            "0x0000000000000000000000003ec3849c33291a9ef4c5db86de593eb4a37fde45"
          ],
          "data": "0x0000000000000000000000000000000000000000000000000000000000000000",
          "blockHash": "0xf21acafa9ff45a713d445248e219ae155242ec6e3b1a99e7f80e05fc272bdf31",
          "blockNumber": "0x2bcbd1a",
          "blockTimestamp": "0x6a03d717",
          "transactionHash": "0xaabb92556a974a80d2873aad98dd345cefb998f4e6056b3baf3f276c20a67d04",
          "transactionIndex": "0x33",
          "logIndex": "0x12d",
          "removed": false
        },
        {
          "address": "0x91a3f8a8d7a881fbdfcfecd7a2dc92a46dcfa14e",
          "topics": [
            "0xddf252ad1be2c89b69c2b068fc378daa952ba7f163c4a11628f55a4df523b3ef",
            "0x00000000000000000000000045dce8e4f2dc005a5f28206a46cb034697eeda8e",
            "0x0000000000000000000000003ec3849c33291a9ef4c5db86de593eb4a37fde45"
          ],
          "data": "0x000000000000000000000000000000000000000000000000000009184e72a000",
          "blockHash": "0xf21acafa9ff45a713d445248e219ae155242ec6e3b1a99e7f80e05fc272bdf31",
          "blockNumber": "0x2bcbd1a",
          "blockTimestamp": "0x6a03d717",
          "transactionHash": "0xaabb92556a974a80d2873aad98dd345cefb998f4e6056b3baf3f276c20a67d04",
          "transactionIndex": "0x33",
          "logIndex": "0x12e",
          "removed": false
        },
        {
          "address": "0x91a3f8a8d7a881fbdfcfecd7a2dc92a46dcfa14e",
          "topics": [
            "0x8c5be1e5ebec7d5bd14f71427d1e84f3dd0314c0f7b2291e5b200ac8c7c3b925",
            "0x0000000000000000000000003ec3849c33291a9ef4c5db86de593eb4a37fde45",
            "0x00000000000000000000000091a3f8a8d7a881fbdfcfecd7a2dc92a46dcfa14e"
          ],
          "data": "0x000000000000000000000000000000000000000000000000000009184e72a000",
          "blockHash": "0xf21acafa9ff45a713d445248e219ae155242ec6e3b1a99e7f80e05fc272bdf31",
          "blockNumber": "0x2bcbd1a",
          "blockTimestamp": "0x6a03d717",
          "transactionHash": "0xaabb92556a974a80d2873aad98dd345cefb998f4e6056b3baf3f276c20a67d04",
          "transactionIndex": "0x33",
          "logIndex": "0x12f",
          "removed": false
        },
        {
          "address": "0x91a3f8a8d7a881fbdfcfecd7a2dc92a46dcfa14e",
          "topics": [
            "0xddf252ad1be2c89b69c2b068fc378daa952ba7f163c4a11628f55a4df523b3ef",
            "0x0000000000000000000000003ec3849c33291a9ef4c5db86de593eb4a37fde45",
            "0x0000000000000000000000000000000000000000000000000000000000000000"
          ],
          "data": "0x000000000000000000000000000000000000000000000000000009184e72a000",
          "blockHash": "0xf21acafa9ff45a713d445248e219ae155242ec6e3b1a99e7f80e05fc272bdf31",
          "blockNumber": "0x2bcbd1a",
          "blockTimestamp": "0x6a03d717",
          "transactionHash": "0xaabb92556a974a80d2873aad98dd345cefb998f4e6056b3baf3f276c20a67d04",
          "transactionIndex": "0x33",
          "logIndex": "0x130",
          "removed": false
        },
        {
          "address": "0xb5320b0b3a13cc860893e2bd79fcd7e13484dda2",
          "topics": [
            "0x61ed099e74a97a1d7f8bb0952a88ca8b7b8ebd00c126ea04671f92a81213318a"
          ],
          "data": "0x0000000000000000000000002cca08ae69e0c44b18a57ab2a87644234daebae4000000000000000000000000000000000000000000000000000008cdfa2933a0",
          "blockHash": "0xf21acafa9ff45a713d445248e219ae155242ec6e3b1a99e7f80e05fc272bdf31",
          "blockNumber": "0x2bcbd1a",
          "blockTimestamp": "0x6a03d717",
          "transactionHash": "0xaabb92556a974a80d2873aad98dd345cefb998f4e6056b3baf3f276c20a67d04",
          "transactionIndex": "0x33",
          "logIndex": "0x131",
          "removed": false
        },
        {
          "address": "0xb5320b0b3a13cc860893e2bd79fcd7e13484dda2",
          "topics": [
            "0x07ea52d82345d6e838192107d8fd7123d9c2ec8e916cd0aad13fd2b60db24644"
          ],
          "data": "0x0000000000000000000000000000000000000000000000000000000000000060000000000000000000000000000000000000000000000000000000000000012000000000000000000000000000000000000000000000000000000000000001400000000000000000000000000000000000000000000000000000000000000005000000000000000000000000187cf227f81c287303ee765ee001e151347faaa2000000000000000000000000554833698ae0fb22ecc90b01222903fd62ca4b470000000000000000000000009e059a54699a285714207b43b055483e78faac25000000000000000000000000a7b5189bca84cd304d8553977c7c614329750d99000000000000000000000000cd37ca043f8479064e10635020c65ffc005d36f600000000000000000000000000000000000000000000000000000000000000000000000000000000000000000000000000000000000000000000000000000005000000000000000000000000000000000000000000000000000002dfcc70c300000000000000000000000000000000000000000000000000000002b0f91c56590000000000000000000000000000000000000000000000000000023be8c946b60000000000000000000000000000000000000000000000000000023be8c946b60000000000000000000000000000000000000000000000000000020d1574da0f",
          "blockHash": "0xf21acafa9ff45a713d445248e219ae155242ec6e3b1a99e7f80e05fc272bdf31",
          "blockNumber": "0x2bcbd1a",
          "blockTimestamp": "0x6a03d717",
          "transactionHash": "0xaabb92556a974a80d2873aad98dd345cefb998f4e6056b3baf3f276c20a67d04",
          "transactionIndex": "0x33",
          "logIndex": "0x132",
          "removed": false
        },
        {
          "address": "0x1a44076050125825900e736c501f859c50fe728c",
          "topics": [
            "0x1ab700d4ced0c005b164c0f789fd09fcbb0156d4c2041b8a3bfbcd961cd1567f"
          ],
          "data": "0x00000000000000000000000000000000000000000000000000000000000000600000000000000000000000000000000000000000000000000000000000000180000000000000000000000000b5320b0b3a13cc860893e2bd79fcd7e13484dda200000000000000000000000000000000000000000000000000000000000000f9010000000000000031000075e800000000000000000000000091a3f8a8d7a881fbdfcfecd7a2dc92a46dcfa14e0000762f00000000000000000000000088aa7854d3b2daa5e37e7ce73a1f39669623a361e7ec2f3d19951ac7d65706bc81989a9de3b9f145f6d58ab83d43f49e7b8bb34f0000000000000000000000002a2019b30c157db6c1c01306b8025167dbe1803b000000000000000a0000000000000000000000003ec3849c33291a9ef4c5db86de593eb4a37fde4500000000000000000000000045dce8e4f2dc005a5f28206a46cb034697eeda8e000000000000000000000000000000000000000000000000000000000000759f00000000000000000000000000000000000000000000000000000000000000000000000000002c0003010011010000000000000000000000000003d090010013030000000000000000000000000000000f42400000000000000000000000000000000000000000",
          "blockHash": "0xf21acafa9ff45a713d445248e219ae155242ec6e3b1a99e7f80e05fc272bdf31",
          "blockNumber": "0x2bcbd1a",
          "blockTimestamp": "0x6a03d717",
          "transactionHash": "0xaabb92556a974a80d2873aad98dd345cefb998f4e6056b3baf3f276c20a67d04",
          "transactionIndex": "0x33",
          "logIndex": "0x133",
          "removed": false
        },
        {
          "address": "0x91a3f8a8d7a881fbdfcfecd7a2dc92a46dcfa14e",
          "topics": [
            "0x85496b760a4b7f8d66384b9df21b381f5d1b1e79f229a47aaf4c232edc2fe59a",
            "0xe7ec2f3d19951ac7d65706bc81989a9de3b9f145f6d58ab83d43f49e7b8bb34f",
            "0x0000000000000000000000003ec3849c33291a9ef4c5db86de593eb4a37fde45"
          ],
          "data": "0x000000000000000000000000000000000000000000000000000000000000762f000000000000000000000000000000000000000000000000000009184e72a000000000000000000000000000000000000000000000000000000009184e72a000",
          "blockHash": "0xf21acafa9ff45a713d445248e219ae155242ec6e3b1a99e7f80e05fc272bdf31",
          "blockNumber": "0x2bcbd1a",
          "blockTimestamp": "0x6a03d717",
          "transactionHash": "0xaabb92556a974a80d2873aad98dd345cefb998f4e6056b3baf3f276c20a67d04",
          "transactionIndex": "0x33",
          "logIndex": "0x134",
          "removed": false
        },
        {
          "address": "0x3ec3849c33291a9ef4c5db86de593eb4a37fde45",
          "topics": [
            "0xbc9ee36b6ca0bdd5b3840e6d329dd19a2490d880c7ce24d9818aa593adfb35be",
            "0x00000000000000000000000045dce8e4f2dc005a5f28206a46cb034697eeda8e",
            "0x000000000000000000000000000000000000000000000000000000000000759f",
            "0x00000000000000000000000045dce8e4f2dc005a5f28206a46cb034697eeda8e"
          ],
          "data": "0x00000000000000000000000091a3f8a8d7a881fbdfcfecd7a2dc92a46dcfa14e000000000000000000000000000000000000000000000000000009184e72a000",
          "blockHash": "0xf21acafa9ff45a713d445248e219ae155242ec6e3b1a99e7f80e05fc272bdf31",
          "blockNumber": "0x2bcbd1a",
          "blockTimestamp": "0x6a03d717",
          "transactionHash": "0xaabb92556a974a80d2873aad98dd345cefb998f4e6056b3baf3f276c20a67d04",
          "transactionIndex": "0x33",
          "logIndex": "0x135",
          "removed": false
        }
      ],
      "logsBloom": "0x00000000000200000000080200002000006000000000002000004000003000000000000000000000000000000000000000000000000000000000000000200020000002200000000000000408000000000000000000000000000000000000000100000000020000008000000000000800000000000010100000000010000000000000000000000000000000080000000000000000000420000044004000000000020000108000000020100000400000000000000000400000000440000000000000000002000000000000000080000000001000000000000000000000000020000010040000000000000000000004802000000000018000000000000000000000",
      "type": "0x2",
      "transactionHash": "0xaabb92556a974a80d2873aad98dd345cefb998f4e6056b3baf3f276c20a67d04",
      "transactionIndex": "0x33",
      "blockHash": "0xf21acafa9ff45a713d445248e219ae155242ec6e3b1a99e7f80e05fc272bdf31",
      "blockNumber": "0x2bcbd1a",
      "gasUsed": "0x9478d",
      "effectiveGasPrice": "0x4dd1e0",
      "blobGasUsed": "0x4688",
      "from": "0x45dce8e4f2dc005a5f28206a46cb034697eeda8e",
      "to": "0x3ec3849c33291a9ef4c5db86de593eb4a37fde45",
      "contractAddress": null,
      "daFootprintGasScalar": "0x94",
      "l1BaseFeeScalar": "0x8dd",
      "l1BlobBaseFee": "0x54679b",
      "l1BlobBaseFeeScalar": "0x101c12",
      "l1Fee": "0x4761a7c4",
      "l1GasPrice": "0x680530e",
      "l1GasUsed": "0x7a3"
    },
    {
      "status": "0x1",
      "cumulativeGasUsed": "0xa3e9d3",
      "logs": [
        {
          "address": "0x7eb8d1e4e2d0c8b9beda7a97b305cf49f3eee8da",
          "topics": [
            "0x8c5be1e5ebec7d5bd14f71427d1e84f3dd0314c0f7b2291e5b200ac8c7c3b925",
            "0x00000000000000000000000045dce8e4f2dc005a5f28206a46cb034697eeda8e",
            "0x0000000000000000000000003ec3849c33291a9ef4c5db86de593eb4a37fde45"
          ],
          "data": "0x000000000000000000000000000000000000000000000000000009184e72a000",
          "blockHash": "0xf21acafa9ff45a713d445248e219ae155242ec6e3b1a99e7f80e05fc272bdf31",
          "blockNumber": "0x2bcbd1a",
          "blockTimestamp": "0x6a03d717",
          "transactionHash": "0x045b617ffe91e441bd8f730a2b0b8f76a900288ab2aabd292cfed1e4e2ff9ba0",
          "transactionIndex": "0x34",
          "logIndex": "0x136",
          "removed": false
        }
      ],
      "logsBloom": "0x00000000000000000000000200000000000000000000000000000000000000000000000000000000000000000000000000000000000000000000000000200020000000000000000000000000000000000000000000000000000000000000000000000000000000000000000000000000000000000000000000000000000000000000000000000000000000000000000000000000000000000000004000000000020000000000000000000000400000000000000000000000000000020000000000000000000004000000000000000000001000000000000000000000000000000010000000000000000000020000800000000000000000000000000000000000",
      "type": "0x2",
      "transactionHash": "0x045b617ffe91e441bd8f730a2b0b8f76a900288ab2aabd292cfed1e4e2ff9ba0",
      "transactionIndex": "0x34",
      "blockHash": "0xf21acafa9ff45a713d445248e219ae155242ec6e3b1a99e7f80e05fc272bdf31",
      "blockNumber": "0x2bcbd1a",
      "gasUsed": "0xd1b2",
      "effectiveGasPrice": "0x4dd1e0",
      "blobGasUsed": "0x39d0",
      "from": "0x45dce8e4f2dc005a5f28206a46cb034697eeda8e",
      "to": "0x7eb8d1e4e2d0c8b9beda7a97b305cf49f3eee8da",
      "contractAddress": null,
      "daFootprintGasScalar": "0x94",
      "l1BaseFeeScalar": "0x8dd",
      "l1BlobBaseFee": "0x54679b",
      "l1BlobBaseFeeScalar": "0x101c12",
      "l1Fee": "0x3a694ab6",
      "l1GasPrice": "0x680530e",
      "l1GasUsed": "0x640"
    },
    {
      "status": "0x1",
      "cumulativeGasUsed": "0xad3176",
      "logs": [
        {
          "address": "0x7eb8d1e4e2d0c8b9beda7a97b305cf49f3eee8da",
          "topics": [
            "0x8c5be1e5ebec7d5bd14f71427d1e84f3dd0314c0f7b2291e5b200ac8c7c3b925",
            "0x00000000000000000000000045dce8e4f2dc005a5f28206a46cb034697eeda8e",
            "0x0000000000000000000000003ec3849c33291a9ef4c5db86de593eb4a37fde45"
          ],
          "data": "0x0000000000000000000000000000000000000000000000000000000000000000",
          "blockHash": "0x0000000000000000000000000000000000000000000000000000000000000000",
          "blockNumber": "0x2bcbd1a",
          "blockTimestamp": "0x6a03d717",
          "transactionHash": "0x8a54afe11a919e37e1a239037f44d8e4a4a6b7015de2e8ceb0ee94ec31334be7",
          "transactionIndex": "0x35",
          "logIndex": "0x137",
          "removed": false
        },
        {
          "address": "0x7eb8d1e4e2d0c8b9beda7a97b305cf49f3eee8da",
          "topics": [
            "0xddf252ad1be2c89b69c2b068fc378daa952ba7f163c4a11628f55a4df523b3ef",
            "0x00000000000000000000000045dce8e4f2dc005a5f28206a46cb034697eeda8e",
            "0x0000000000000000000000003ec3849c33291a9ef4c5db86de593eb4a37fde45"
          ],
          "data": "0x000000000000000000000000000000000000000000000000000009184e72a000",
          "blockHash": "0x0000000000000000000000000000000000000000000000000000000000000000",
          "blockNumber": "0x2bcbd1a",
          "blockTimestamp": "0x6a03d717",
          "transactionHash": "0x8a54afe11a919e37e1a239037f44d8e4a4a6b7015de2e8ceb0ee94ec31334be7",
          "transactionIndex": "0x35",
          "logIndex": "0x138",
          "removed": false
        },
        {
          "address": "0x7eb8d1e4e2d0c8b9beda7a97b305cf49f3eee8da",
          "topics": [
            "0x8c5be1e5ebec7d5bd14f71427d1e84f3dd0314c0f7b2291e5b200ac8c7c3b925",
            "0x0000000000000000000000003ec3849c33291a9ef4c5db86de593eb4a37fde45",
            "0x0000000000000000000000007eb8d1e4e2d0c8b9beda7a97b305cf49f3eee8da"
          ],
          "data": "0x000000000000000000000000000000000000000000000000000009184e72a000",
          "blockHash": "0x0000000000000000000000000000000000000000000000000000000000000000",
          "blockNumber": "0x2bcbd1a",
          "blockTimestamp": "0x6a03d717",
          "transactionHash": "0x8a54afe11a919e37e1a239037f44d8e4a4a6b7015de2e8ceb0ee94ec31334be7",
          "transactionIndex": "0x35",
          "logIndex": "0x139",
          "removed": false
        },
        {
          "address": "0x7eb8d1e4e2d0c8b9beda7a97b305cf49f3eee8da",
          "topics": [
            "0xddf252ad1be2c89b69c2b068fc378daa952ba7f163c4a11628f55a4df523b3ef",
            "0x0000000000000000000000003ec3849c33291a9ef4c5db86de593eb4a37fde45",
            "0x0000000000000000000000000000000000000000000000000000000000000000"
          ],
          "data": "0x000000000000000000000000000000000000000000000000000009184e72a000",
          "blockHash": "0x0000000000000000000000000000000000000000000000000000000000000000",
          "blockNumber": "0x2bcbd1a",
          "blockTimestamp": "0x6a03d717",
          "transactionHash": "0x8a54afe11a919e37e1a239037f44d8e4a4a6b7015de2e8ceb0ee94ec31334be7",
          "transactionIndex": "0x35",
          "logIndex": "0x13a",
          "removed": false
        },
        {
          "address": "0xb5320b0b3a13cc860893e2bd79fcd7e13484dda2",
          "topics": [
            "0x61ed099e74a97a1d7f8bb0952a88ca8b7b8ebd00c126ea04671f92a81213318a"
          ],
          "data": "0x0000000000000000000000002cca08ae69e0c44b18a57ab2a87644234daebae4000000000000000000000000000000000000000000000000000008cdfa2933a0",
          "blockHash": "0x0000000000000000000000000000000000000000000000000000000000000000",
          "blockNumber": "0x2bcbd1a",
          "blockTimestamp": "0x6a03d717",
          "transactionHash": "0x8a54afe11a919e37e1a239037f44d8e4a4a6b7015de2e8ceb0ee94ec31334be7",
          "transactionIndex": "0x35",
          "logIndex": "0x13b",
          "removed": false
        },
        {
          "address": "0xb5320b0b3a13cc860893e2bd79fcd7e13484dda2",
          "topics": [
            "0x07ea52d82345d6e838192107d8fd7123d9c2ec8e916cd0aad13fd2b60db24644"
          ],
          "data": "0x0000000000000000000000000000000000000000000000000000000000000060000000000000000000000000000000000000000000000000000000000000012000000000000000000000000000000000000000000000000000000000000001400000000000000000000000000000000000000000000000000000000000000005000000000000000000000000187cf227f81c287303ee765ee001e151347faaa2000000000000000000000000554833698ae0fb22ecc90b01222903fd62ca4b470000000000000000000000009e059a54699a285714207b43b055483e78faac25000000000000000000000000a7b5189bca84cd304d8553977c7c614329750d99000000000000000000000000cd37ca043f8479064e10635020c65ffc005d36f600000000000000000000000000000000000000000000000000000000000000000000000000000000000000000000000000000000000000000000000000000005000000000000000000000000000000000000000000000000000002dfcc70c300000000000000000000000000000000000000000000000000000002b0f91c56590000000000000000000000000000000000000000000000000000023be8c946b60000000000000000000000000000000000000000000000000000023be8c946b60000000000000000000000000000000000000000000000000000020d1574da0f",
          "blockHash": "0x0000000000000000000000000000000000000000000000000000000000000000",
          "blockNumber": "0x2bcbd1a",
          "blockTimestamp": "0x6a03d717",
          "transactionHash": "0x8a54afe11a919e37e1a239037f44d8e4a4a6b7015de2e8ceb0ee94ec31334be7",
          "transactionIndex": "0x35",
          "logIndex": "0x13c",
          "removed": false
        },
        {
          "address": "0x1a44076050125825900e736c501f859c50fe728c",
          "topics": [
            "0x1ab700d4ced0c005b164c0f789fd09fcbb0156d4c2041b8a3bfbcd961cd1567f"
          ],
          "data": "0x00000000000000000000000000000000000000000000000000000000000000600000000000000000000000000000000000000000000000000000000000000180000000000000000000000000b5320b0b3a13cc860893e2bd79fcd7e13484dda200000000000000000000000000000000000000000000000000000000000000f9010000000000000083000075e80000000000000000000000007eb8d1e4e2d0c8b9beda7a97b305cf49f3eee8da0000762f0000000000000000000000009abfe1f8a999b0011ecd6116649aee8d575f5604b585d42e977b1e4fc6d94fe7065f353659331a6042b1930a05d068316ab3efef0000000000000000000000002a2019b30c157db6c1c01306b8025167dbe1803b000000000000000a0000000000000000000000003ec3849c33291a9ef4c5db86de593eb4a37fde4500000000000000000000000045dce8e4f2dc005a5f28206a46cb034697eeda8e000000000000000000000000000000000000000000000000000000000000759f00000000000000000000000000000000000000000000000000000000000000000000000000002c0003010011010000000000000000000000000003d090010013030000000000000000000000000000000f42400000000000000000000000000000000000000000",
          "blockHash": "0x0000000000000000000000000000000000000000000000000000000000000000",
          "blockNumber": "0x2bcbd1a",
          "blockTimestamp": "0x6a03d717",
          "transactionHash": "0x8a54afe11a919e37e1a239037f44d8e4a4a6b7015de2e8ceb0ee94ec31334be7",
          "transactionIndex": "0x35",
          "logIndex": "0x13d",
          "removed": false
        },
        {
          "address": "0x7eb8d1e4e2d0c8b9beda7a97b305cf49f3eee8da",
          "topics": [
            "0x85496b760a4b7f8d66384b9df21b381f5d1b1e79f229a47aaf4c232edc2fe59a",
            "0xb585d42e977b1e4fc6d94fe7065f353659331a6042b1930a05d068316ab3efef",
            "0x0000000000000000000000003ec3849c33291a9ef4c5db86de593eb4a37fde45"
          ],
          "data": "0x000000000000000000000000000000000000000000000000000000000000762f000000000000000000000000000000000000000000000000000009184e72a000000000000000000000000000000000000000000000000000000009184e72a000",
          "blockHash": "0x0000000000000000000000000000000000000000000000000000000000000000",
          "blockNumber": "0x2bcbd1a",
          "blockTimestamp": "0x6a03d717",
          "transactionHash": "0x8a54afe11a919e37e1a239037f44d8e4a4a6b7015de2e8ceb0ee94ec31334be7",
          "transactionIndex": "0x35",
          "logIndex": "0x13e",
          "removed": false
        },
        {
          "address": "0x3ec3849c33291a9ef4c5db86de593eb4a37fde45",
          "topics": [
            "0xbc9ee36b6ca0bdd5b3840e6d329dd19a2490d880c7ce24d9818aa593adfb35be",
            "0x00000000000000000000000045dce8e4f2dc005a5f28206a46cb034697eeda8e",
            "0x000000000000000000000000000000000000000000000000000000000000759f",
            "0x00000000000000000000000045dce8e4f2dc005a5f28206a46cb034697eeda8e"
          ],
          "data": "0x0000000000000000000000007eb8d1e4e2d0c8b9beda7a97b305cf49f3eee8da000000000000000000000000000000000000000000000000000009184e72a000",
          "blockHash": "0x0000000000000000000000000000000000000000000000000000000000000000",
          "blockNumber": "0x2bcbd1a",
          "blockTimestamp": "0x6a03d717",
          "transactionHash": "0x8a54afe11a919e37e1a239037f44d8e4a4a6b7015de2e8ceb0ee94ec31334be7",
          "transactionIndex": "0x35",
          "logIndex": "0x13f",
          "removed": false
        }
      ],
      "logsBloom": "0x80000000000000000000080200002000002000000000000000000000003000000000000000000000000000000000000000000000000000000000000000200020000002004000000000000408000000000000000000000000000000000000000100000000020000008000000000000800000000000010100000000010000000100000000000000000000000080000000000000000000020004044004000000000020000108000000020100000400000000000000000400000000440020000008000000002000004000000000080000000001000000000000000000000000020000010040000000000000000020000802000000000418000000000000000000000",
      "type": "0x2",
      "transactionHash": "0x8a54afe11a919e37e1a239037f44d8e4a4a6b7015de2e8ceb0ee94ec31334be7",
      "transactionIndex": "0x35",
      "blockHash": "0x0000000000000000000000000000000000000000000000000000000000000000",
      "blockNumber": "0x2bcbd1a",
      "gasUsed": "0x947a3",
      "effectiveGasPrice": "0x4dd1e0",
      "blobGasUsed": "0x4688",
      "from": "0x45dce8e4f2dc005a5f28206a46cb034697eeda8e",
      "to": "0x3ec3849c33291a9ef4c5db86de593eb4a37fde45",
      "contractAddress": null,
      "daFootprintGasScalar": "0x94",
      "l1BaseFeeScalar": "0x8dd",
      "l1BlobBaseFee": "0x54679b",
      "l1BlobBaseFeeScalar": "0x101c12",
      "l1Fee": "0x3a694ab6",
      "l1GasPrice": "0x680530e",
      "l1GasUsed": "0x7a3"
    },
    {
      "status": "0x1",
      "cumulativeGasUsed": "0xae0328",
      "logs": [
        {
          "address": "0x192e0c7cc9b263d93fa6d472de47bbefe1fb12ba",
          "topics": [
            "0x8c5be1e5ebec7d5bd14f71427d1e84f3dd0314c0f7b2291e5b200ac8c7c3b925",
            "0x00000000000000000000000045dce8e4f2dc005a5f28206a46cb034697eeda8e",
            "0x0000000000000000000000003ec3849c33291a9ef4c5db86de593eb4a37fde45"
          ],
          "data": "0x000000000000000000000000000000000000000000000000000009184e72a000",
          "blockHash": "0x0000000000000000000000000000000000000000000000000000000000000000",
          "blockNumber": "0x2bcbd1a",
          "blockTimestamp": "0x6a03d717",
          "transactionHash": "0xac1bbda31deb84314e1c8a6d2f461e8bbf540080210f4719ebc8d3e13b6d25bd",
          "transactionIndex": "0x36",
          "logIndex": "0x140",
          "removed": false
        }
      ],
      "logsBloom": "0x00000000000000000000000200000000000000000000000000000000000000000000000000000000080000000000000000000000000000000000000000200020000000000000000000000000000000000000000000000000000000000000000000000000000000000000000000000000000000000000400000000000000000000000000000000000000000000000000000000000000000000000004000000000020000000000000000000000400000000000000000000000000000000000000000000000000000000000000000000000001000000000000000000000000000020010000000000000000000000000800000000000000000000000000000000000",
      "type": "0x2",
      "transactionHash": "0xac1bbda31deb84314e1c8a6d2f461e8bbf540080210f4719ebc8d3e13b6d25bd",
      "transactionIndex": "0x36",
      "blockHash": "0x0000000000000000000000000000000000000000000000000000000000000000",
      "blockNumber": "0x2bcbd1a",
      "gasUsed": "0xd1b2",
      "effectiveGasPrice": "0x4dd1e0",
      "blobGasUsed": "0x39d0",
      "from": "0x45dce8e4f2dc005a5f28206a46cb034697eeda8e",
      "to": "0x192e0c7cc9b263d93fa6d472de47bbefe1fb12ba",
      "contractAddress": null,
      "daFootprintGasScalar": "0x94",
      "l1BaseFeeScalar": "0x8dd",
      "l1BlobBaseFee": "0x54679b",
      "l1BlobBaseFeeScalar": "0x101c12",
      "l1Fee": "0x3a694ab6",
      "l1GasPrice": "0x680530e",
      "l1GasUsed": "0x640"
    },
    {
      "status": "0x1",
      "cumulativeGasUsed": "0xb74acb",
      "logs": [
        {
          "address": "0x192e0c7cc9b263d93fa6d472de47bbefe1fb12ba",
          "topics": [
            "0x8c5be1e5ebec7d5bd14f71427d1e84f3dd0314c0f7b2291e5b200ac8c7c3b925",
            "0x00000000000000000000000045dce8e4f2dc005a5f28206a46cb034697eeda8e",
            "0x0000000000000000000000003ec3849c33291a9ef4c5db86de593eb4a37fde45"
          ],
          "data": "0x0000000000000000000000000000000000000000000000000000000000000000",
          "blockHash": "0xf21acafa9ff45a713d445248e219ae155242ec6e3b1a99e7f80e05fc272bdf31",
          "blockNumber": "0x2bcbd1a",
          "blockTimestamp": "0x6a03d717",
          "transactionHash": "0xab031a41a9b0687423a494b7e9cd23a68b9c6e408b485251dd7db33171284f67",
          "transactionIndex": "0x37",
          "logIndex": "0x141",
          "removed": false
        },
        {
          "address": "0x192e0c7cc9b263d93fa6d472de47bbefe1fb12ba",
          "topics": [
            "0xddf252ad1be2c89b69c2b068fc378daa952ba7f163c4a11628f55a4df523b3ef",
            "0x00000000000000000000000045dce8e4f2dc005a5f28206a46cb034697eeda8e",
            "0x0000000000000000000000003ec3849c33291a9ef4c5db86de593eb4a37fde45"
          ],
          "data": "0x000000000000000000000000000000000000000000000000000009184e72a000",
          "blockHash": "0xf21acafa9ff45a713d445248e219ae155242ec6e3b1a99e7f80e05fc272bdf31",
          "blockNumber": "0x2bcbd1a",
          "blockTimestamp": "0x6a03d717",
          "transactionHash": "0xab031a41a9b0687423a494b7e9cd23a68b9c6e408b485251dd7db33171284f67",
          "transactionIndex": "0x37",
          "logIndex": "0x142",
          "removed": false
        },
        {
          "address": "0x192e0c7cc9b263d93fa6d472de47bbefe1fb12ba",
          "topics": [
            "0x8c5be1e5ebec7d5bd14f71427d1e84f3dd0314c0f7b2291e5b200ac8c7c3b925",
            "0x0000000000000000000000003ec3849c33291a9ef4c5db86de593eb4a37fde45",
            "0x000000000000000000000000192e0c7cc9b263d93fa6d472de47bbefe1fb12ba"
          ],
          "data": "0x000000000000000000000000000000000000000000000000000009184e72a000",
          "blockHash": "0xf21acafa9ff45a713d445248e219ae155242ec6e3b1a99e7f80e05fc272bdf31",
          "blockNumber": "0x2bcbd1a",
          "blockTimestamp": "0x6a03d717",
          "transactionHash": "0xab031a41a9b0687423a494b7e9cd23a68b9c6e408b485251dd7db33171284f67",
          "transactionIndex": "0x37",
          "logIndex": "0x143",
          "removed": false
        },
        {
          "address": "0x192e0c7cc9b263d93fa6d472de47bbefe1fb12ba",
          "topics": [
            "0xddf252ad1be2c89b69c2b068fc378daa952ba7f163c4a11628f55a4df523b3ef",
            "0x0000000000000000000000003ec3849c33291a9ef4c5db86de593eb4a37fde45",
            "0x0000000000000000000000000000000000000000000000000000000000000000"
          ],
          "data": "0x000000000000000000000000000000000000000000000000000009184e72a000",
          "blockHash": "0xf21acafa9ff45a713d445248e219ae155242ec6e3b1a99e7f80e05fc272bdf31",
          "blockNumber": "0x2bcbd1a",
          "blockTimestamp": "0x6a03d717",
          "transactionHash": "0xab031a41a9b0687423a494b7e9cd23a68b9c6e408b485251dd7db33171284f67",
          "transactionIndex": "0x37",
          "logIndex": "0x144",
          "removed": false
        },
        {
          "address": "0xb5320b0b3a13cc860893e2bd79fcd7e13484dda2",
          "topics": [
            "0x61ed099e74a97a1d7f8bb0952a88ca8b7b8ebd00c126ea04671f92a81213318a"
          ],
          "data": "0x0000000000000000000000002cca08ae69e0c44b18a57ab2a87644234daebae4000000000000000000000000000000000000000000000000000008cdfa2933a0",
          "blockHash": "0xf21acafa9ff45a713d445248e219ae155242ec6e3b1a99e7f80e05fc272bdf31",
          "blockNumber": "0x2bcbd1a",
          "blockTimestamp": "0x6a03d717",
          "transactionHash": "0xab031a41a9b0687423a494b7e9cd23a68b9c6e408b485251dd7db33171284f67",
          "transactionIndex": "0x37",
          "logIndex": "0x145",
          "removed": false
        },
        {
          "address": "0xb5320b0b3a13cc860893e2bd79fcd7e13484dda2",
          "topics": [
            "0x07ea52d82345d6e838192107d8fd7123d9c2ec8e916cd0aad13fd2b60db24644"
          ],
          "data": "0x0000000000000000000000000000000000000000000000000000000000000060000000000000000000000000000000000000000000000000000000000000012000000000000000000000000000000000000000000000000000000000000001400000000000000000000000000000000000000000000000000000000000000005000000000000000000000000187cf227f81c287303ee765ee001e151347faaa2000000000000000000000000554833698ae0fb22ecc90b01222903fd62ca4b470000000000000000000000009e059a54699a285714207b43b055483e78faac25000000000000000000000000a7b5189bca84cd304d8553977c7c614329750d99000000000000000000000000cd37ca043f8479064e10635020c65ffc005d36f600000000000000000000000000000000000000000000000000000000000000000000000000000000000000000000000000000000000000000000000000000005000000000000000000000000000000000000000000000000000002dfcc70c300000000000000000000000000000000000000000000000000000002b0f91c56590000000000000000000000000000000000000000000000000000023be8c946b60000000000000000000000000000000000000000000000000000023be8c946b60000000000000000000000000000000000000000000000000000020d1574da0f",
          "blockHash": "0xf21acafa9ff45a713d445248e219ae155242ec6e3b1a99e7f80e05fc272bdf31",
          "blockNumber": "0x2bcbd1a",
          "blockTimestamp": "0x6a03d717",
          "transactionHash": "0xab031a41a9b0687423a494b7e9cd23a68b9c6e408b485251dd7db33171284f67",
          "transactionIndex": "0x37",
          "logIndex": "0x146",
          "removed": false
        },
        {
          "address": "0x1a44076050125825900e736c501f859c50fe728c",
          "topics": [
            "0x1ab700d4ced0c005b164c0f789fd09fcbb0156d4c2041b8a3bfbcd961cd1567f"
          ],
          "data": "0x00000000000000000000000000000000000000000000000000000000000000600000000000000000000000000000000000000000000000000000000000000180000000000000000000000000b5320b0b3a13cc860893e2bd79fcd7e13484dda200000000000000000000000000000000000000000000000000000000000000f9010000000000000009000075e8000000000000000000000000192e0c7cc9b263d93fa6d472de47bbefe1fb12ba0000762f000000000000000000000000999dfabe3b1cc2ef66eb032eea42fea329bba168ab3c43c93dc6267c77d029c6fe8140f440fe9f4d5cca4c96116d86755881a0e20000000000000000000000002a2019b30c157db6c1c01306b8025167dbe1803b000000000000000a0000000000000000000000003ec3849c33291a9ef4c5db86de593eb4a37fde4500000000000000000000000045dce8e4f2dc005a5f28206a46cb034697eeda8e000000000000000000000000000000000000000000000000000000000000759f00000000000000000000000000000000000000000000000000000000000000000000000000002c0003010011010000000000000000000000000003d090010013030000000000000000000000000000000f42400000000000000000000000000000000000000000",
          "blockHash": "0xf21acafa9ff45a713d445248e219ae155242ec6e3b1a99e7f80e05fc272bdf31",
          "blockNumber": "0x2bcbd1a",
          "blockTimestamp": "0x6a03d717",
          "transactionHash": "0xab031a41a9b0687423a494b7e9cd23a68b9c6e408b485251dd7db33171284f67",
          "transactionIndex": "0x37",
          "logIndex": "0x147",
          "removed": false
        },
        {
          "address": "0x192e0c7cc9b263d93fa6d472de47bbefe1fb12ba",
          "topics": [
            "0x85496b760a4b7f8d66384b9df21b381f5d1b1e79f229a47aaf4c232edc2fe59a",
            "0xab3c43c93dc6267c77d029c6fe8140f440fe9f4d5cca4c96116d86755881a0e2",
            "0x0000000000000000000000003ec3849c33291a9ef4c5db86de593eb4a37fde45"
          ],
          "data": "0x000000000000000000000000000000000000000000000000000000000000762f000000000000000000000000000000000000000000000000000009184e72a000000000000000000000000000000000000000000000000000000009184e72a000",
          "blockHash": "0xf21acafa9ff45a713d445248e219ae155242ec6e3b1a99e7f80e05fc272bdf31",
          "blockNumber": "0x2bcbd1a",
          "blockTimestamp": "0x6a03d717",
          "transactionHash": "0xab031a41a9b0687423a494b7e9cd23a68b9c6e408b485251dd7db33171284f67",
          "transactionIndex": "0x37",
          "logIndex": "0x148",
          "removed": false
        },
        {
          "address": "0x3ec3849c33291a9ef4c5db86de593eb4a37fde45",
          "topics": [
            "0xbc9ee36b6ca0bdd5b3840e6d329dd19a2490d880c7ce24d9818aa593adfb35be",
            "0x00000000000000000000000045dce8e4f2dc005a5f28206a46cb034697eeda8e",
            "0x000000000000000000000000000000000000000000000000000000000000759f",
            "0x00000000000000000000000045dce8e4f2dc005a5f28206a46cb034697eeda8e"
          ],
          "data": "0x000000000000000000000000192e0c7cc9b263d93fa6d472de47bbefe1fb12ba000000000000000000000000000000000000000000000000000009184e72a000",
          "blockHash": "0xf21acafa9ff45a713d445248e219ae155242ec6e3b1a99e7f80e05fc272bdf31",
          "blockNumber": "0x2bcbd1a",
          "blockTimestamp": "0x6a03d717",
          "transactionHash": "0xab031a41a9b0687423a494b7e9cd23a68b9c6e408b485251dd7db33171284f67",
          "transactionIndex": "0x37",
          "logIndex": "0x149",
          "removed": false
        }
      ],
      "logsBloom": "0x00000000000000000000080200002000002000000000000000000000003000000000000000000000081000000000000000010000000000000000000000200020000002000000000000400408000000000000000000000000000000000000000100000000020400008000000000000800000000000010500000000010000000000000000000100000000000080000000000000000000020000044004000000100020000108000000020100000400000000000000000400000000440000000000000000002000000000000000080000000001000000000000000000000000020020010040000000000000000000000802000000000018000000000000000000000",
      "type": "0x2",
      "transactionHash": "0xab031a41a9b0687423a494b7e9cd23a68b9c6e408b485251dd7db33171284f67",
      "transactionIndex": "0x37",
      "blockHash": "0xf21acafa9ff45a713d445248e219ae155242ec6e3b1a99e7f80e05fc272bdf31",
      "blockNumber": "0x2bcbd1a",
      "gasUsed": "0x947a3",
      "effectiveGasPrice": "0x4dd1e0",
      "blobGasUsed": "0x4688",
      "from": "0x45dce8e4f2dc005a5f28206a46cb034697eeda8e",
      "to": "0x3ec3849c33291a9ef4c5db86de593eb4a37fde45",
      "contractAddress": null,
      "daFootprintGasScalar": "0x94",
      "l1BaseFeeScalar": "0x8dd",
      "l1BlobBaseFee": "0x54679b",
      "l1BlobBaseFeeScalar": "0x101c12",
      "l1Fee": "0x4761a7c4",
      "l1GasPrice": "0x680530e",
      "l1GasUsed": "0x7a3"
    },
    {
      "status": "0x1",
      "cumulativeGasUsed": "0xb81c67",
      "logs": [
        {
          "address": "0x0ceac003b0d2479bebec9f4b2ebad0a803759bbf",
          "topics": [
            "0x8c5be1e5ebec7d5bd14f71427d1e84f3dd0314c0f7b2291e5b200ac8c7c3b925",
            "0x00000000000000000000000045dce8e4f2dc005a5f28206a46cb034697eeda8e",
            "0x0000000000000000000000003ec3849c33291a9ef4c5db86de593eb4a37fde45"
          ],
          "data": "0x000000000000000000000000000000000000000000000000000009184e72a000",
          "blockHash": "0xf21acafa9ff45a713d445248e219ae155242ec6e3b1a99e7f80e05fc272bdf31",
          "blockNumber": "0x2bcbd1a",
          "blockTimestamp": "0x6a03d717",
          "transactionHash": "0x54cc231c52de293c5194f6a1db7306b5b75ea6e53a588b7d4ee27740d174af7a",
          "transactionIndex": "0x38",
          "logIndex": "0x14a",
          "removed": false
        }
      ],
      "logsBloom": "0x00000000000000000000000200000000000000000000000000000000000000000000000000000000000000000000000000000000000000000000000000200020000000000000000000000000000000000000000000000000000000000000000000000000000000000000000000000000000080000000000000100000000000000000000000000000000000000000000000000000000000000000004000000000020008000000000000000000400000000000000000000000000000000000000000000000000000000000000000000000001000000000000000000000000000000010000000000000000000000000800000000000000000000000000000000000",
      "type": "0x2",
      "transactionHash": "0x54cc231c52de293c5194f6a1db7306b5b75ea6e53a588b7d4ee27740d174af7a",
      "transactionIndex": "0x38",
      "blockHash": "0xf21acafa9ff45a713d445248e219ae155242ec6e3b1a99e7f80e05fc272bdf31",
      "blockNumber": "0x2bcbd1a",
      "gasUsed": "0xd19c",
      "effectiveGasPrice": "0x4dd1e0",
      "blobGasUsed": "0x39d0",
      "from": "0x45dce8e4f2dc005a5f28206a46cb034697eeda8e",
      "to": "0x0ceac003b0d2479bebec9f4b2ebad0a803759bbf",
      "contractAddress": null,
      "daFootprintGasScalar": "0x94",
      "l1BaseFeeScalar": "0x8dd",
      "l1BlobBaseFee": "0x54679b",
      "l1BlobBaseFeeScalar": "0x101c12",
      "l1Fee": "0x3a694ab6",
      "l1GasPrice": "0x680530e",
      "l1GasUsed": "0x640"
    },
    {
      "status": "0x1",
      "cumulativeGasUsed": "0xc163f4",
      "logs": [
        {
          "address": "0x0ceac003b0d2479bebec9f4b2ebad0a803759bbf",
          "topics": [
            "0x8c5be1e5ebec7d5bd14f71427d1e84f3dd0314c0f7b2291e5b200ac8c7c3b925",
            "0x00000000000000000000000045dce8e4f2dc005a5f28206a46cb034697eeda8e",
            "0x0000000000000000000000003ec3849c33291a9ef4c5db86de593eb4a37fde45"
          ],
          "data": "0x0000000000000000000000000000000000000000000000000000000000000000",
          "blockHash": "0xf21acafa9ff45a713d445248e219ae155242ec6e3b1a99e7f80e05fc272bdf31",
          "blockNumber": "0x2bcbd1a",
          "blockTimestamp": "0x6a03d717",
          "transactionHash": "0xef51e58551a952c55f81f18e504b95a30abc053baee9d13d8c36340549a7cbab",
          "transactionIndex": "0x39",
          "logIndex": "0x14b",
          "removed": false
        },
        {
          "address": "0x0ceac003b0d2479bebec9f4b2ebad0a803759bbf",
          "topics": [
            "0xddf252ad1be2c89b69c2b068fc378daa952ba7f163c4a11628f55a4df523b3ef",
            "0x00000000000000000000000045dce8e4f2dc005a5f28206a46cb034697eeda8e",
            "0x0000000000000000000000003ec3849c33291a9ef4c5db86de593eb4a37fde45"
          ],
          "data": "0x000000000000000000000000000000000000000000000000000009184e72a000",
          "blockHash": "0xf21acafa9ff45a713d445248e219ae155242ec6e3b1a99e7f80e05fc272bdf31",
          "blockNumber": "0x2bcbd1a",
          "blockTimestamp": "0x6a03d717",
          "transactionHash": "0xef51e58551a952c55f81f18e504b95a30abc053baee9d13d8c36340549a7cbab",
          "transactionIndex": "0x39",
          "logIndex": "0x14c",
          "removed": false
        },
        {
          "address": "0x0ceac003b0d2479bebec9f4b2ebad0a803759bbf",
          "topics": [
            "0x8c5be1e5ebec7d5bd14f71427d1e84f3dd0314c0f7b2291e5b200ac8c7c3b925",
            "0x0000000000000000000000003ec3849c33291a9ef4c5db86de593eb4a37fde45",
            "0x0000000000000000000000000ceac003b0d2479bebec9f4b2ebad0a803759bbf"
          ],
          "data": "0x000000000000000000000000000000000000000000000000000009184e72a000",
          "blockHash": "0xf21acafa9ff45a713d445248e219ae155242ec6e3b1a99e7f80e05fc272bdf31",
          "blockNumber": "0x2bcbd1a",
          "blockTimestamp": "0x6a03d717",
          "transactionHash": "0xef51e58551a952c55f81f18e504b95a30abc053baee9d13d8c36340549a7cbab",
          "transactionIndex": "0x39",
          "logIndex": "0x14d",
          "removed": false
        },
        {
          "address": "0x0ceac003b0d2479bebec9f4b2ebad0a803759bbf",
          "topics": [
            "0xddf252ad1be2c89b69c2b068fc378daa952ba7f163c4a11628f55a4df523b3ef",
            "0x0000000000000000000000003ec3849c33291a9ef4c5db86de593eb4a37fde45",
            "0x0000000000000000000000000000000000000000000000000000000000000000"
          ],
          "data": "0x000000000000000000000000000000000000000000000000000009184e72a000",
          "blockHash": "0xf21acafa9ff45a713d445248e219ae155242ec6e3b1a99e7f80e05fc272bdf31",
          "blockNumber": "0x2bcbd1a",
          "blockTimestamp": "0x6a03d717",
          "transactionHash": "0xef51e58551a952c55f81f18e504b95a30abc053baee9d13d8c36340549a7cbab",
          "transactionIndex": "0x39",
          "logIndex": "0x14e",
          "removed": false
        },
        {
          "address": "0xb5320b0b3a13cc860893e2bd79fcd7e13484dda2",
          "topics": [
            "0x61ed099e74a97a1d7f8bb0952a88ca8b7b8ebd00c126ea04671f92a81213318a"
          ],
          "data": "0x0000000000000000000000002cca08ae69e0c44b18a57ab2a87644234daebae4000000000000000000000000000000000000000000000000000008cdfa2933a0",
          "blockHash": "0xf21acafa9ff45a713d445248e219ae155242ec6e3b1a99e7f80e05fc272bdf31",
          "blockNumber": "0x2bcbd1a",
          "blockTimestamp": "0x6a03d717",
          "transactionHash": "0xef51e58551a952c55f81f18e504b95a30abc053baee9d13d8c36340549a7cbab",
          "transactionIndex": "0x39",
          "logIndex": "0x14f",
          "removed": false
        },
        {
          "address": "0xb5320b0b3a13cc860893e2bd79fcd7e13484dda2",
          "topics": [
            "0x07ea52d82345d6e838192107d8fd7123d9c2ec8e916cd0aad13fd2b60db24644"
          ],
          "data": "0x0000000000000000000000000000000000000000000000000000000000000060000000000000000000000000000000000000000000000000000000000000012000000000000000000000000000000000000000000000000000000000000001400000000000000000000000000000000000000000000000000000000000000005000000000000000000000000187cf227f81c287303ee765ee001e151347faaa2000000000000000000000000554833698ae0fb22ecc90b01222903fd62ca4b470000000000000000000000009e059a54699a285714207b43b055483e78faac25000000000000000000000000a7b5189bca84cd304d8553977c7c614329750d99000000000000000000000000cd37ca043f8479064e10635020c65ffc005d36f600000000000000000000000000000000000000000000000000000000000000000000000000000000000000000000000000000000000000000000000000000005000000000000000000000000000000000000000000000000000002dfcc70c300000000000000000000000000000000000000000000000000000002b0f91c56590000000000000000000000000000000000000000000000000000023be8c946b60000000000000000000000000000000000000000000000000000023be8c946b60000000000000000000000000000000000000000000000000000020d1574da0f",
          "blockHash": "0xf21acafa9ff45a713d445248e219ae155242ec6e3b1a99e7f80e05fc272bdf31",
          "blockNumber": "0x2bcbd1a",
          "blockTimestamp": "0x6a03d717",
          "transactionHash": "0xef51e58551a952c55f81f18e504b95a30abc053baee9d13d8c36340549a7cbab",
          "transactionIndex": "0x39",
          "logIndex": "0x150",
          "removed": false
        },
        {
          "address": "0x1a44076050125825900e736c501f859c50fe728c",
          "topics": [
            "0x1ab700d4ced0c005b164c0f789fd09fcbb0156d4c2041b8a3bfbcd961cd1567f"
          ],
          "data": "0x00000000000000000000000000000000000000000000000000000000000000600000000000000000000000000000000000000000000000000000000000000180000000000000000000000000b5320b0b3a13cc860893e2bd79fcd7e13484dda200000000000000000000000000000000000000000000000000000000000000f9010000000000000a5c000075e80000000000000000000000000ceac003b0d2479bebec9f4b2ebad0a803759bbf0000762f000000000000000000000000d86fbbd0c8715d2c1f40e451e5c3514e65e7576ab31654996645047a1962ec248b00b6de59a1319a30b54f0fd011b20a417c6ec80000000000000000000000002a2019b30c157db6c1c01306b8025167dbe1803b000000000000000a0000000000000000000000003ec3849c33291a9ef4c5db86de593eb4a37fde4500000000000000000000000045dce8e4f2dc005a5f28206a46cb034697eeda8e000000000000000000000000000000000000000000000000000000000000759f00000000000000000000000000000000000000000000000000000000000000000000000000002c0003010011010000000000000000000000000003d090010013030000000000000000000000000000000f42400000000000000000000000000000000000000000",
          "blockHash": "0xf21acafa9ff45a713d445248e219ae155242ec6e3b1a99e7f80e05fc272bdf31",
          "blockNumber": "0x2bcbd1a",
          "blockTimestamp": "0x6a03d717",
          "transactionHash": "0xef51e58551a952c55f81f18e504b95a30abc053baee9d13d8c36340549a7cbab",
          "transactionIndex": "0x39",
          "logIndex": "0x151",
          "removed": false
        },
        {
          "address": "0x0ceac003b0d2479bebec9f4b2ebad0a803759bbf",
          "topics": [
            "0x85496b760a4b7f8d66384b9df21b381f5d1b1e79f229a47aaf4c232edc2fe59a",
            "0xb31654996645047a1962ec248b00b6de59a1319a30b54f0fd011b20a417c6ec8",
            "0x0000000000000000000000003ec3849c33291a9ef4c5db86de593eb4a37fde45"
          ],
          "data": "0x000000000000000000000000000000000000000000000000000000000000762f000000000000000000000000000000000000000000000000000009184e72a000000000000000000000000000000000000000000000000000000009184e72a000",
          "blockHash": "0xf21acafa9ff45a713d445248e219ae155242ec6e3b1a99e7f80e05fc272bdf31",
          "blockNumber": "0x2bcbd1a",
          "blockTimestamp": "0x6a03d717",
          "transactionHash": "0xef51e58551a952c55f81f18e504b95a30abc053baee9d13d8c36340549a7cbab",
          "transactionIndex": "0x39",
          "logIndex": "0x152",
          "removed": false
        },
        {
          "address": "0x3ec3849c33291a9ef4c5db86de593eb4a37fde45",
          "topics": [
            "0xbc9ee36b6ca0bdd5b3840e6d329dd19a2490d880c7ce24d9818aa593adfb35be",
            "0x00000000000000000000000045dce8e4f2dc005a5f28206a46cb034697eeda8e",
            "0x000000000000000000000000000000000000000000000000000000000000759f",
            "0x00000000000000000000000045dce8e4f2dc005a5f28206a46cb034697eeda8e"
          ],
          "data": "0x0000000000000000000000000ceac003b0d2479bebec9f4b2ebad0a803759bbf000000000000000000000000000000000000000000000000000009184e72a000",
          "blockHash": "0xf21acafa9ff45a713d445248e219ae155242ec6e3b1a99e7f80e05fc272bdf31",
          "blockNumber": "0x2bcbd1a",
          "blockTimestamp": "0x6a03d717",
          "transactionHash": "0xef51e58551a952c55f81f18e504b95a30abc053baee9d13d8c36340549a7cbab",
          "transactionIndex": "0x39",
          "logIndex": "0x153",
          "removed": false
        }
      ],
      "logsBloom": "0x00000400000000000000080200002000002000000000000000000000803000040000000000000000000000080000000000000000000000000000000000280020000002000000000000000408000000000000000000000000000000000000000100000000020000008000000000000800000080000010100000100010000000000000000000000000000000080000000000000000000020000044004000000000020008108000000020100000400000000000000000400000000440000000000000000002000000000000000080000000001000000000000000000010000020000010040000000000000000000000802000000000018000000000000000000000",
      "type": "0x2",
      "transactionHash": "0xef51e58551a952c55f81f18e504b95a30abc053baee9d13d8c36340549a7cbab",
      "transactionIndex": "0x39",
      "blockHash": "0xf21acafa9ff45a713d445248e219ae155242ec6e3b1a99e7f80e05fc272bdf31",
      "blockNumber": "0x2bcbd1a",
      "gasUsed": "0x9478d",
      "effectiveGasPrice": "0x4dd1e0",
      "blobGasUsed": "0x4688",
      "from": "0x45dce8e4f2dc005a5f28206a46cb034697eeda8e",
      "to": "0x3ec3849c33291a9ef4c5db86de593eb4a37fde45",
      "contractAddress": null,
      "daFootprintGasScalar": "0x94",
      "l1BaseFeeScalar": "0x8dd",
      "l1BlobBaseFee": "0x54679b",
      "l1BlobBaseFeeScalar": "0x101c12",
      "l1Fee": "0x4761a7c4",
      "l1GasPrice": "0x680530e",
      "l1GasUsed": "0x7a3"
    },
    {
      "status": "0x1",
      "cumulativeGasUsed": "0xc235a6",
      "logs": [
        {
          "address": "0xeedd3a0dddf977462a97c1f0ebb89c3fbe8d084b",
          "topics": [
            "0x8c5be1e5ebec7d5bd14f71427d1e84f3dd0314c0f7b2291e5b200ac8c7c3b925",
            "0x00000000000000000000000045dce8e4f2dc005a5f28206a46cb034697eeda8e",
            "0x0000000000000000000000003ec3849c33291a9ef4c5db86de593eb4a37fde45"
          ],
          "data": "0x000000000000000000000000000000000000000000000000000009184e72a000",
          "blockHash": "0xf21acafa9ff45a713d445248e219ae155242ec6e3b1a99e7f80e05fc272bdf31",
          "blockNumber": "0x2bcbd1a",
          "blockTimestamp": "0x6a03d717",
          "transactionHash": "0x2c1b4ba855d7893214577600fbea0d042a5f3671bc2c67a6b2eed2adc5bb7213",
          "transactionIndex": "0x3a",
          "logIndex": "0x154",
          "removed": false
        }
      ],
      "logsBloom": "0x000000000000000000000002000000000000000000000000000000000000000000000200000000000000000000000000000000000000000000000000002000a0000000000000000000000000000000000000000000000000000000000000000000000000000000000000000000000000000000000000000000000000000000000000000000000000000000000000000000000000000000000000104000000000020000000000000000000000400000000000000000000000000000000000000000000000000000000000000000000000001000000000000000000000000000000010000000000000000000000000800000000000000000000000000000000000",
      "type": "0x2",
      "transactionHash": "0x2c1b4ba855d7893214577600fbea0d042a5f3671bc2c67a6b2eed2adc5bb7213",
      "transactionIndex": "0x3a",
      "blockHash": "0xf21acafa9ff45a713d445248e219ae155242ec6e3b1a99e7f80e05fc272bdf31",
      "blockNumber": "0x2bcbd1a",
      "gasUsed": "0xd1b2",
      "effectiveGasPrice": "0x4dd1e0",
      "blobGasUsed": "0x39d0",
      "from": "0x45dce8e4f2dc005a5f28206a46cb034697eeda8e",
      "to": "0xeedd3a0dddf977462a97c1f0ebb89c3fbe8d084b",
      "contractAddress": null,
      "daFootprintGasScalar": "0x94",
      "l1BaseFeeScalar": "0x8dd",
      "l1BlobBaseFee": "0x54679b",
      "l1BlobBaseFeeScalar": "0x101c12",
      "l1Fee": "0x3a694ab6",
      "l1GasPrice": "0x680530e",
      "l1GasUsed": "0x640"
    },
    {
      "status": "0x1",
      "cumulativeGasUsed": "0xcc02e1",
      "logs": [
        {
          "address": "0xeedd3a0dddf977462a97c1f0ebb89c3fbe8d084b",
          "topics": [
            "0x8c5be1e5ebec7d5bd14f71427d1e84f3dd0314c0f7b2291e5b200ac8c7c3b925",
            "0x00000000000000000000000045dce8e4f2dc005a5f28206a46cb034697eeda8e",
            "0x0000000000000000000000003ec3849c33291a9ef4c5db86de593eb4a37fde45"
          ],
          "data": "0x0000000000000000000000000000000000000000000000000000000000000000",
          "blockHash": "0x0000000000000000000000000000000000000000000000000000000000000000",
          "blockNumber": "0x2bcbd1a",
          "blockTimestamp": "0x6a03d717",
          "transactionHash": "0xad640f9e4b1b7f637a6779e312574924b012457c2f7d67c74b0479a4075effe0",
          "transactionIndex": "0x3b",
          "logIndex": "0x155",
          "removed": false
        },
        {
          "address": "0xeedd3a0dddf977462a97c1f0ebb89c3fbe8d084b",
          "topics": [
            "0xddf252ad1be2c89b69c2b068fc378daa952ba7f163c4a11628f55a4df523b3ef",
            "0x00000000000000000000000045dce8e4f2dc005a5f28206a46cb034697eeda8e",
            "0x0000000000000000000000003ec3849c33291a9ef4c5db86de593eb4a37fde45"
          ],
          "data": "0x000000000000000000000000000000000000000000000000000009184e72a000",
          "blockHash": "0x0000000000000000000000000000000000000000000000000000000000000000",
          "blockNumber": "0x2bcbd1a",
          "blockTimestamp": "0x6a03d717",
          "transactionHash": "0xad640f9e4b1b7f637a6779e312574924b012457c2f7d67c74b0479a4075effe0",
          "transactionIndex": "0x3b",
          "logIndex": "0x156",
          "removed": false
        },
        {
          "address": "0xeedd3a0dddf977462a97c1f0ebb89c3fbe8d084b",
          "topics": [
            "0x8c5be1e5ebec7d5bd14f71427d1e84f3dd0314c0f7b2291e5b200ac8c7c3b925",
            "0x0000000000000000000000003ec3849c33291a9ef4c5db86de593eb4a37fde45",
            "0x000000000000000000000000eedd3a0dddf977462a97c1f0ebb89c3fbe8d084b"
          ],
          "data": "0x000000000000000000000000000000000000000000000000000009184e72a000",
          "blockHash": "0x0000000000000000000000000000000000000000000000000000000000000000",
          "blockNumber": "0x2bcbd1a",
          "blockTimestamp": "0x6a03d717",
          "transactionHash": "0xad640f9e4b1b7f637a6779e312574924b012457c2f7d67c74b0479a4075effe0",
          "transactionIndex": "0x3b",
          "logIndex": "0x157",
          "removed": false
        },
        {
          "address": "0xeedd3a0dddf977462a97c1f0ebb89c3fbe8d084b",
          "topics": [
            "0xddf252ad1be2c89b69c2b068fc378daa952ba7f163c4a11628f55a4df523b3ef",
            "0x0000000000000000000000003ec3849c33291a9ef4c5db86de593eb4a37fde45",
            "0x0000000000000000000000000000000000000000000000000000000000000000"
          ],
          "data": "0x000000000000000000000000000000000000000000000000000009184e72a000",
          "blockHash": "0x0000000000000000000000000000000000000000000000000000000000000000",
          "blockNumber": "0x2bcbd1a",
          "blockTimestamp": "0x6a03d717",
          "transactionHash": "0xad640f9e4b1b7f637a6779e312574924b012457c2f7d67c74b0479a4075effe0",
          "transactionIndex": "0x3b",
          "logIndex": "0x158",
          "removed": false
        },
        {
          "address": "0xb5320b0b3a13cc860893e2bd79fcd7e13484dda2",
          "topics": [
            "0x61ed099e74a97a1d7f8bb0952a88ca8b7b8ebd00c126ea04671f92a81213318a"
          ],
          "data": "0x0000000000000000000000002cca08ae69e0c44b18a57ab2a87644234daebae4000000000000000000000000000000000000000000000000000008cdfa2933a0",
          "blockHash": "0x0000000000000000000000000000000000000000000000000000000000000000",
          "blockNumber": "0x2bcbd1a",
          "blockTimestamp": "0x6a03d717",
          "transactionHash": "0xad640f9e4b1b7f637a6779e312574924b012457c2f7d67c74b0479a4075effe0",
          "transactionIndex": "0x3b",
          "logIndex": "0x159",
          "removed": false
        },
        {
          "address": "0xb5320b0b3a13cc860893e2bd79fcd7e13484dda2",
          "topics": [
            "0x07ea52d82345d6e838192107d8fd7123d9c2ec8e916cd0aad13fd2b60db24644"
          ],
          "data": "0x0000000000000000000000000000000000000000000000000000000000000060000000000000000000000000000000000000000000000000000000000000012000000000000000000000000000000000000000000000000000000000000001400000000000000000000000000000000000000000000000000000000000000005000000000000000000000000187cf227f81c287303ee765ee001e151347faaa2000000000000000000000000554833698ae0fb22ecc90b01222903fd62ca4b470000000000000000000000009e059a54699a285714207b43b055483e78faac25000000000000000000000000a7b5189bca84cd304d8553977c7c614329750d99000000000000000000000000cd37ca043f8479064e10635020c65ffc005d36f600000000000000000000000000000000000000000000000000000000000000000000000000000000000000000000000000000000000000000000000000000005000000000000000000000000000000000000000000000000000002dfcc70c300000000000000000000000000000000000000000000000000000002b0f91c56590000000000000000000000000000000000000000000000000000023be8c946b60000000000000000000000000000000000000000000000000000023be8c946b60000000000000000000000000000000000000000000000000000020d1574da0f",
          "blockHash": "0x0000000000000000000000000000000000000000000000000000000000000000",
          "blockNumber": "0x2bcbd1a",
          "blockTimestamp": "0x6a03d717",
          "transactionHash": "0xad640f9e4b1b7f637a6779e312574924b012457c2f7d67c74b0479a4075effe0",
          "transactionIndex": "0x3b",
          "logIndex": "0x15a",
          "removed": false
        },
        {
          "address": "0x1a44076050125825900e736c501f859c50fe728c",
          "topics": [
            "0x1ab700d4ced0c005b164c0f789fd09fcbb0156d4c2041b8a3bfbcd961cd1567f"
          ],
          "data": "0x00000000000000000000000000000000000000000000000000000000000000600000000000000000000000000000000000000000000000000000000000000180000000000000000000000000b5320b0b3a13cc860893e2bd79fcd7e13484dda200000000000000000000000000000000000000000000000000000000000000f9010000000000000001000075e8000000000000000000000000eedd3a0dddf977462a97c1f0ebb89c3fbe8d084b0000762f00000000000000000000000075c38d46001b0f8108c4136216bd2694982c20fc639889bd836db1b9d79dcfe767c983580e423fd19231fc71a8597375210f1a290000000000000000000000002a2019b30c157db6c1c01306b8025167dbe1803b000000000000000a0000000000000000000000003ec3849c33291a9ef4c5db86de593eb4a37fde4500000000000000000000000045dce8e4f2dc005a5f28206a46cb034697eeda8e000000000000000000000000000000000000000000000000000000000000759f00000000000000000000000000000000000000000000000000000000000000000000000000002c0003010011010000000000000000000000000003d090010013030000000000000000000000000000000f42400000000000000000000000000000000000000000",
          "blockHash": "0x0000000000000000000000000000000000000000000000000000000000000000",
          "blockNumber": "0x2bcbd1a",
          "blockTimestamp": "0x6a03d717",
          "transactionHash": "0xad640f9e4b1b7f637a6779e312574924b012457c2f7d67c74b0479a4075effe0",
          "transactionIndex": "0x3b",
          "logIndex": "0x15b",
          "removed": false
        },
        {
          "address": "0xeedd3a0dddf977462a97c1f0ebb89c3fbe8d084b",
          "topics": [
            "0x85496b760a4b7f8d66384b9df21b381f5d1b1e79f229a47aaf4c232edc2fe59a",
            "0x639889bd836db1b9d79dcfe767c983580e423fd19231fc71a8597375210f1a29",
            "0x0000000000000000000000003ec3849c33291a9ef4c5db86de593eb4a37fde45"
          ],
          "data": "0x000000000000000000000000000000000000000000000000000000000000762f000000000000000000000000000000000000000000000000000009184e72a000000000000000000000000000000000000000000000000000000009184e72a000",
          "blockHash": "0x0000000000000000000000000000000000000000000000000000000000000000",
          "blockNumber": "0x2bcbd1a",
          "blockTimestamp": "0x6a03d717",
          "transactionHash": "0xad640f9e4b1b7f637a6779e312574924b012457c2f7d67c74b0479a4075effe0",
          "transactionIndex": "0x3b",
          "logIndex": "0x15c",
          "removed": false
        },
        {
          "address": "0x3ec3849c33291a9ef4c5db86de593eb4a37fde45",
          "topics": [
            "0xbc9ee36b6ca0bdd5b3840e6d329dd19a2490d880c7ce24d9818aa593adfb35be",
            "0x00000000000000000000000045dce8e4f2dc005a5f28206a46cb034697eeda8e",
            "0x000000000000000000000000000000000000000000000000000000000000759f",
            "0x00000000000000000000000045dce8e4f2dc005a5f28206a46cb034697eeda8e"
          ],
          "data": "0x000000000000000000000000eedd3a0dddf977462a97c1f0ebb89c3fbe8d084b000000000000000000000000000000000000000000000000000009184e72a000",
          "blockHash": "0x0000000000000000000000000000000000000000000000000000000000000000",
          "blockNumber": "0x2bcbd1a",
          "blockTimestamp": "0x6a03d717",
          "transactionHash": "0xad640f9e4b1b7f637a6779e312574924b012457c2f7d67c74b0479a4075effe0",
          "transactionIndex": "0x3b",
          "logIndex": "0x15d",
          "removed": false
        }
      ],
      "logsBloom": "0x000000000200000000000802000020000020000000000000000000000030000000000200000000000000000000000000000000000000000000000000002000a0000002000000000000000408000000000000000000000000000000000000000100000000020000008000000000000800000000000010100100000010000000000000000000000000000000080000000000000000000020000044104000000000020000108000000020100000400000000000000000400000000440000000000000000002000000000000000180000000001000000000000000000000000220000010040000000000000000000000802000000000018001000001000000000000",
      "type": "0x2",
      "transactionHash": "0xad640f9e4b1b7f637a6779e312574924b012457c2f7d67c74b0479a4075effe0",
      "transactionIndex": "0x3b",
      "blockHash": "0x0000000000000000000000000000000000000000000000000000000000000000",
      "blockNumber": "0x2bcbd1a",
      "gasUsed": "0x9cd3b",
      "effectiveGasPrice": "0x4dd1e0",
      "blobGasUsed": "0x4688",
      "from": "0x45dce8e4f2dc005a5f28206a46cb034697eeda8e",
      "to": "0x3ec3849c33291a9ef4c5db86de593eb4a37fde45",
      "contractAddress": null,
      "daFootprintGasScalar": "0x94",
      "l1BaseFeeScalar": "0x8dd",
      "l1BlobBaseFee": "0x54679b",
      "l1BlobBaseFeeScalar": "0x101c12",
      "l1Fee": "0x3a694ab6",
      "l1GasPrice": "0x680530e",
      "l1GasUsed": "0x7a3"
    }
  ],
  "libraries": [],
  "pending": [],
  "returns": {},
  "timestamp": 1778636567167,
  "chain": 8453,
  "commit": "3c1e5d2a"
}