{
  "transactions": [
    {
      "hash": "0xfbdfe40f83a1abb97e5c19ccc5c8e67b0875850a8e23711a452b18699fad8714",
      "transactionType": "CALL",
      "contractName": null,
      "contractAddress": "0x80eede496655fb9047dd39d9f418d5483ed600df",
      "function": "approve(address,uint256)",
      "arguments": [
        "0x8EbB34b1880B2EA5e458082590B3A2c9Ea7C41A2",
        "10000000000000"
      ],
      "transaction": {
        "from": "0x45dce8e4f2dc005a5f28206a46cb034697eeda8e",
        "to": "0x80eede496655fb9047dd39d9f418d5483ed600df",
        "gas": "0x132ad",
        "value": "0x0",
        "input": "0x095ea7b30000000000000000000000008ebb34b1880b2ea5e458082590b3a2c9ea7c41a2000000000000000000000000000000000000000000000000000009184e72a000",
        "nonce": "0xa5",
        "chainId": "0x3e7"
      },
      "additionalContracts": [],
      "isFixedGasLimit": false
    },
    {
      "hash": "0x8892ae4576009de4fb88f8d72a5e43b9e1afca36c901eaca92e216af4a1dd2b5",
      "transactionType": "CALL",
      "contractName": null,
      "contractAddress": "0x8ebb34b1880b2ea5e458082590b3a2c9ea7c41a2",
      "function": "sendOFT(address,uint32,bytes32,uint256)",
      "arguments": [
        "0x80Eede496655FB9047dd39d9f418d5483ED600df",
        "30101",
        "0x00000000000000000000000045dce8e4f2dc005a5f28206a46cb034697eeda8e",
        "10000000000000"
      ],
      "transaction": {
        "from": "0x45dce8e4f2dc005a5f28206a46cb034697eeda8e",
        "to": "0x8ebb34b1880b2ea5e458082590b3a2c9ea7c41a2",
        "gas": "0xd5caf",
        "value": "0x45a4cd0b1f4f39",
        "input": "0x3e832c9000000000000000000000000080eede496655fb9047dd39d9f418d5483ed600df000000000000000000000000000000000000000000000000000000000000759500000000000000000000000045dce8e4f2dc005a5f28206a46cb034697eeda8e000000000000000000000000000000000000000000000000000009184e72a000",
        "nonce": "0xa6",
        "chainId": "0x3e7"
      },
      "additionalContracts": [],
      "isFixedGasLimit": false
    },
    {
      "hash": "0x655dcaed725f5bc12fce543a9a7e816172de03319336ed3fffc44ee860dee0e4",
      "transactionType": "CALL",
      "contractName": null,
      "contractAddress": "0x5bff88ca1442c2496f7e475e9e7786383bc070c0",
      "function": "approve(address,uint256)",
      "arguments": [
        "0x8EbB34b1880B2EA5e458082590B3A2c9Ea7C41A2",
        "10000000000000"
      ],
      "transaction": {
        "from": "0x45dce8e4f2dc005a5f28206a46cb034697eeda8e",
        "to": "0x5bff88ca1442c2496f7e475e9e7786383bc070c0",
        "gas": "0x12184",
        "value": "0x0",
        "input": "0x095ea7b30000000000000000000000008ebb34b1880b2ea5e458082590b3a2c9ea7c41a2000000000000000000000000000000000000000000000000000009184e72a000",
        "nonce": "0xa7",
        "chainId": "0x3e7"
      },
      "additionalContracts": [],
      "isFixedGasLimit": false
    },
    {
      "hash": "0x0754420658aea64d9e37cb50867c1f56bb777a892d2e035638f82e474038acb4",
      "transactionType": "CALL",
      "contractName": null,
      "contractAddress": "0x8ebb34b1880b2ea5e458082590b3a2c9ea7c41a2",
      "function": "sendOFT(address,uint32,bytes32,uint256)",
      "arguments": [
        "0x5Bff88cA1442c2496f7E475E9e7786383Bc070c0",
        "30101",
        "0x00000000000000000000000045dce8e4f2dc005a5f28206a46cb034697eeda8e",
        "10000000000000"
      ],
      "transaction": {
        "from": "0x45dce8e4f2dc005a5f28206a46cb034697eeda8e",
        "to": "0x8ebb34b1880b2ea5e458082590b3a2c9ea7c41a2",
        "gas": "0xdc049",
        "value": "0x45a4cd0b1f4f39",
        "input": "0x3e832c900000000000000000000000005bff88ca1442c2496f7e475e9e7786383bc070c0000000000000000000000000000000000000000000000000000000000000759500000000000000000000000045dce8e4f2dc005a5f28206a46cb034697eeda8e000000000000000000000000000000000000000000000000000009184e72a000",
        "nonce": "0xa8",
        "chainId": "0x3e7"
      },
      "additionalContracts": [],
      "isFixedGasLimit": false
    },
    {
      "hash": "0x3c01bf6ad4a1617225d2bf92ac53f6ab33a371394a2d10047e162c53ae9cfd67",
      "transactionType": "CALL",
      "contractName": null,
      "contractAddress": "0x43edd7f3831b08fe70b7555ddd373c8bf65a9050",
      "function": "approve(address,uint256)",
      "arguments": [
        "0x8EbB34b1880B2EA5e458082590B3A2c9Ea7C41A2",
        "10000000000000"
      ],
      "transaction": {
        "from": "0x45dce8e4f2dc005a5f28206a46cb034697eeda8e",
        "to": "0x43edd7f3831b08fe70b7555ddd373c8bf65a9050",
        "gas": "0x132ad",
        "value": "0x0",
        "input": "0x095ea7b30000000000000000000000008ebb34b1880b2ea5e458082590b3a2c9ea7c41a2000000000000000000000000000000000000000000000000000009184e72a000",
        "nonce": "0xa9",
        "chainId": "0x3e7"
      },
      "additionalContracts": [],
      "isFixedGasLimit": false
    },
    {
      "hash": "0xa0bb3e5faf2340ba686e94a4e1b69c2a17dfe682d14373bcba9b9f62f063dfd4",
      "transactionType": "CALL",
      "contractName": null,
      "contractAddress": "0x8ebb34b1880b2ea5e458082590b3a2c9ea7c41a2",
      "function": "sendOFT(address,uint32,bytes32,uint256)",
      "arguments": [
        "0x43eDD7f3831b08FE70B7555ddD373C8bF65a9050",
        "30101",
        "0x00000000000000000000000045dce8e4f2dc005a5f28206a46cb034697eeda8e",
        "10000000000000"
      ],
      "transaction": {
        "from": "0x45dce8e4f2dc005a5f28206a46cb034697eeda8e",
        "to": "0x8ebb34b1880b2ea5e458082590b3a2c9ea7c41a2",
        "gas": "0xcfcd4",
        "value": "0x45a4cd0b1f4f39",
        "input": "0x3e832c9000000000000000000000000043edd7f3831b08fe70b7555ddd373c8bf65a9050000000000000000000000000000000000000000000000000000000000000759500000000000000000000000045dce8e4f2dc005a5f28206a46cb034697eeda8e000000000000000000000000000000000000000000000000000009184e72a000",
        "nonce": "0xaa",
        "chainId": "0x3e7"
      },
      "additionalContracts": [],
      "isFixedGasLimit": false
    },
    {
      "hash": "0x83dad5ba222c321336691adc7134d0f71f24d25feac513149023f976ee06b9f0",
      "transactionType": "CALL",
      "contractName": null,
      "contractAddress": "0x3ec3849c33291a9ef4c5db86de593eb4a37fde45",
      "function": "approve(address,uint256)",
      "arguments": [
        "0x8EbB34b1880B2EA5e458082590B3A2c9Ea7C41A2",
        "10000000000000"
      ],
      "transaction": {
        "from": "0x45dce8e4f2dc005a5f28206a46cb034697eeda8e",
        "to": "0x3ec3849c33291a9ef4c5db86de593eb4a37fde45",
        "gas": "0x132ad",
        "value": "0x0",
        "input": "0x095ea7b30000000000000000000000008ebb34b1880b2ea5e458082590b3a2c9ea7c41a2000000000000000000000000000000000000000000000000000009184e72a000",
        "nonce": "0xab",
        "chainId": "0x3e7"
      },
      "additionalContracts": [],
      "isFixedGasLimit": false
    },
    {
      "hash": "0xa8485c417c4a7e4a806c408609ba7777f8b9fcdb10deff161aadbdc6c22dbbb3",
      "transactionType": "CALL",
      "contractName": null,
      "contractAddress": "0x8ebb34b1880b2ea5e458082590b3a2c9ea7c41a2",
      "function": "sendOFT(address,uint32,bytes32,uint256)",
      "arguments": [
        "0x3Ec3849C33291a9eF4c5dB86De593EB4A37fDe45",
        "30101",
        "0x00000000000000000000000045dce8e4f2dc005a5f28206a46cb034697eeda8e",
        "10000000000000"
      ],
      "transaction": {
        "from": "0x45dce8e4f2dc005a5f28206a46cb034697eeda8e",
        "to": "0x8ebb34b1880b2ea5e458082590b3a2c9ea7c41a2",
        "gas": "0xcfcd4",
        "value": "0x45a4cd0b1f4f39",
        "input": "0x3e832c900000000000000000000000003ec3849c33291a9ef4c5db86de593eb4a37fde45000000000000000000000000000000000000000000000000000000000000759500000000000000000000000045dce8e4f2dc005a5f28206a46cb034697eeda8e000000000000000000000000000000000000000000000000000009184e72a000",
        "nonce": "0xac",
        "chainId": "0x3e7"
      },
      "additionalContracts": [],
      "isFixedGasLimit": false
    },
    {
      "hash": null,
      "transactionType": "CALL",
      "contractName": null,
      "contractAddress": "0x64445f0aecc51e94ad52d8ac56b7190e764e561a",
      "function": "approve(address,uint256)",
      "arguments": [
        "0x8EbB34b1880B2EA5e458082590B3A2c9Ea7C41A2",
        "10000000000000"
      ],
      "transaction": {
        "from": "0x45dce8e4f2dc005a5f28206a46cb034697eeda8e",
        "to": "0x64445f0aecc51e94ad52d8ac56b7190e764e561a",
        "gas": "0x12184",
        "value": "0x0",
        "input": "0x095ea7b30000000000000000000000008ebb34b1880b2ea5e458082590b3a2c9ea7c41a2000000000000000000000000000000000000000000000000000009184e72a000",
        "nonce": "0xad",
        "chainId": "0x3e7"
      },
      "additionalContracts": [],
      "isFixedGasLimit": false
    },
    {
      "hash": null,
      "transactionType": "CALL",
      "contractName": null,
      "contractAddress": "0x8ebb34b1880b2ea5e458082590b3a2c9ea7c41a2",
      "function": "sendOFT(address,uint32,bytes32,uint256)",
      "arguments": [
        "0x64445f0aecC51E94aD52d8AC56b7190e764E561a",
        "30101",
        "0x00000000000000000000000045dce8e4f2dc005a5f28206a46cb034697eeda8e",
        "10000000000000"
      ],
      "transaction": {
        "from": "0x45dce8e4f2dc005a5f28206a46cb034697eeda8e",
        "to": "0x8ebb34b1880b2ea5e458082590b3a2c9ea7c41a2",
        "gas": "0xdc049",
        "value": "0x45a4cd0b1f4f39",
        "input": "0x3e832c9000000000000000000000000064445f0aecc51e94ad52d8ac56b7190e764e561a000000000000000000000000000000000000000000000000000000000000759500000000000000000000000045dce8e4f2dc005a5f28206a46cb034697eeda8e000000000000000000000000000000000000000000000000000009184e72a000",
        "nonce": "0xae",
        "chainId": "0x3e7"
      },
      "additionalContracts": [],
      "isFixedGasLimit": false
    },
    {
      "hash": null,
      "transactionType": "CALL",
      "contractName": null,
      "contractAddress": "0x90581eca9469d8d7f5d3b60f4715027adfcf7927",
      "function": "approve(address,uint256)",
      "arguments": [
        "0x8EbB34b1880B2EA5e458082590B3A2c9Ea7C41A2",
        "10000000000000"
      ],
      "transaction": {
        "from": "0x45dce8e4f2dc005a5f28206a46cb034697eeda8e",
        "to": "0x90581eca9469d8d7f5d3b60f4715027adfcf7927",
        "gas": "0x132ad",
        "value": "0x0",
        "input": "0x095ea7b30000000000000000000000008ebb34b1880b2ea5e458082590b3a2c9ea7c41a2000000000000000000000000000000000000000000000000000009184e72a000",
        "nonce": "0xaf",
        "chainId": "0x3e7"
      },
      "additionalContracts": [],
      "isFixedGasLimit": false
    },
    {
      "hash": null,
      "transactionType": "CALL",
      "contractName": null,
      "contractAddress": "0x8ebb34b1880b2ea5e458082590b3a2c9ea7c41a2",
      "function": "sendOFT(address,uint32,bytes32,uint256)",
      "arguments": [
        "0x90581eCa9469D8D7F5D3B60f4715027aDFCf7927",
        "30101",
        "0x00000000000000000000000045dce8e4f2dc005a5f28206a46cb034697eeda8e",
        "10000000000000"
      ],
      "transaction": {
        "from": "0x45dce8e4f2dc005a5f28206a46cb034697eeda8e",
        "to": "0x8ebb34b1880b2ea5e458082590b3a2c9ea7c41a2",
        "gas": "0xcfcd4",
        "value": "0x45a4cd0b1f4f39",
        "input": "0x3e832c9000000000000000000000000090581eca9469d8d7f5d3b60f4715027adfcf7927000000000000000000000000000000000000000000000000000000000000759500000000000000000000000045dce8e4f2dc005a5f28206a46cb034697eeda8e000000000000000000000000000000000000000000000000000009184e72a000",
        "nonce": "0xb0",
        "chainId": "0x3e7"
      },
      "additionalContracts": [],
      "isFixedGasLimit": false
    }
  ],
  "receipts": [],
  "libraries": [],
  "pending": [
    "0xfbdfe40f83a1abb97e5c19ccc5c8e67b0875850a8e23711a452b18699fad8714",
    "0x8892ae4576009de4fb88f8d72a5e43b9e1afca36c901eaca92e216af4a1dd2b5",
    "0x655dcaed725f5bc12fce543a9a7e816172de03319336ed3fffc44ee860dee0e4",
    "0x0754420658aea64d9e37cb50867c1f56bb777a892d2e035638f82e474038acb4",
    "0x3c01bf6ad4a1617225d2bf92ac53f6ab33a371394a2d10047e162c53ae9cfd67",
    "0xa0bb3e5faf2340ba686e94a4e1b69c2a17dfe682d14373bcba9b9f62f063dfd4",
    "0x83dad5ba222c321336691adc7134d0f71f24d25feac513149023f976ee06b9f0",
    "0xa8485c417c4a7e4a806c408609ba7777f8b9fcdb10deff161aadbdc6c22dbbb3"
  ],
  "returns": {},
  "timestamp": 1778659055262,
  "chain": 999,
  "commit": "3c1e5d2a"
}