{
  "transactions": [
    {
      "hash": "0x2f1b49b8a30d9f50455bd2e4b6f10dc7f6399f7618e1b4000494907fcfc6aff1",
      "transactionType": "CALL",
      "contractName": null,
      "contractAddress": "0x64445f0aecc51e94ad52d8ac56b7190e764e561a",
      "function": "approve(address,uint256)",
      "arguments": [
        "0x8EbB34b1880B2EA5e458082590B3A2c9Ea7C41A2",
        "10000000000000"
      ],
      "transaction": {
        "from": "0x45dce8e4f2dc005a5f28206a46cb034697eeda8e",
        "to": "0x64445f0aecc51e94ad52d8ac56b7190e764e561a",
        "gas": "0x12184",
        "value": "0x0",
        "input": "0x095ea7b30000000000000000000000008ebb34b1880b2ea5e458082590b3a2c9ea7c41a2000000000000000000000000000000000000000000000000000009184e72a000",
        "nonce": "0xad",
        "chainId": "0x3e7"
      },
      "additionalContracts": [],
      "isFixedGasLimit": false
    },
    {
      "hash": "0x0bdae9606a71076e66d31f12c51ce9e98c83a4aaa81486d8a84cdb16a0e45fdf",
      "transactionType": "CALL",
      "contractName": null,
      "contractAddress": "0x8ebb34b1880b2ea5e458082590b3a2c9ea7c41a2",
      "function": "sendOFT(address,uint32,bytes32,uint256)",
      "arguments": [
        "0x64445f0aecC51E94aD52d8AC56b7190e764E561a",
        "30101",
        "0x00000000000000000000000045dce8e4f2dc005a5f28206a46cb034697eeda8e",
        "10000000000000"
      ],
      "transaction": {
        "from": "0x45dce8e4f2dc005a5f28206a46cb034697eeda8e",
        "to": "0x8ebb34b1880b2ea5e458082590b3a2c9ea7c41a2",
        "gas": "0xdc049",
        "value": "0x45a4cd0b1f4f39",
        "input": "0x3e832c9000000000000000000000000064445f0aecc51e94ad52d8ac56b7190e764e561a000000000000000000000000000000000000000000000000000000000000759500000000000000000000000045dce8e4f2dc005a5f28206a46cb034697eeda8e000000000000000000000000000000000000000000000000000009184e72a000",
        "nonce": "0xae",
        "chainId": "0x3e7"
      },
      "additionalContracts": [],
      "isFixedGasLimit": false
    },
    {
      "hash": "0x848247bbc595f6851d3055cce058f1b3d1ef4b3d6dad7abbc61c1dd437d91889",
      "transactionType": "CALL",
      "contractName": null,
      "contractAddress": "0x90581eca9469d8d7f5d3b60f4715027adfcf7927",
      "function": "approve(address,uint256)",
      "arguments": [
        "0x8EbB34b1880B2EA5e458082590B3A2c9Ea7C41A2",
        "10000000000000"
      ],
      "transaction": {
        "from": "0x45dce8e4f2dc005a5f28206a46cb034697eeda8e",
        "to": "0x90581eca9469d8d7f5d3b60f4715027adfcf7927",
        "gas": "0x132ad",
        "value": "0x0",
        "input": "0x095ea7b30000000000000000000000008ebb34b1880b2ea5e458082590b3a2c9ea7c41a2000000000000000000000000000000000000000000000000000009184e72a000",
        "nonce": "0xaf",
        "chainId": "0x3e7"
      },
      "additionalContracts": [],
      "isFixedGasLimit": false
    },
    {
      "hash": "0x97f302f9cfe51bf3736616ab7c9cebe26d82a103dde28691199111b1cff6d025",
      "transactionType": "CALL",
      "contractName": null,
      "contractAddress": "0x8ebb34b1880b2ea5e458082590b3a2c9ea7c41a2",
      "function": "sendOFT(address,uint32,bytes32,uint256)",
      "arguments": [
        "0x90581eCa9469D8D7F5D3B60f4715027aDFCf7927",
        "30101",
        "0x00000000000000000000000045dce8e4f2dc005a5f28206a46cb034697eeda8e",
        "10000000000000"
      ],
      "transaction": {
        "from": "0x45dce8e4f2dc005a5f28206a46cb034697eeda8e",
        "to": "0x8ebb34b1880b2ea5e458082590b3a2c9ea7c41a2",
        "gas": "0xcfcd4",
        "value": "0x45a4cd0b1f4f39",
        "input": "0x3e832c9000000000000000000000000090581eca9469d8d7f5d3b60f4715027adfcf7927000000000000000000000000000000000000000000000000000000000000759500000000000000000000000045dce8e4f2dc005a5f28206a46cb034697eeda8e000000000000000000000000000000000000000000000000000009184e72a000",
        "nonce": "0xb0",
        "chainId": "0x3e7"
      },
      "additionalContracts": [],
      "isFixedGasLimit": false
    }
  ],
  "receipts": [
    {
      "status": "0x1",
      "cumulativeGasUsed": "0x30741",
      "logs": [
        {
          "address": "0x64445f0aecc51e94ad52d8ac56b7190e764e561a",
          "topics": [
            "0x8c5be1e5ebec7d5bd14f71427d1e84f3dd0314c0f7b2291e5b200ac8c7c3b925",
            "0x00000000000000000000000045dce8e4f2dc005a5f28206a46cb034697eeda8e",
            "0x0000000000000000000000008ebb34b1880b2ea5e458082590b3a2c9ea7c41a2"
          ],
          "data": "0x000000000000000000000000000000000000000000000000000009184e72a000",
          "blockHash": "0x6b86ddd5a453b52a4d566178152f9eddbc71a477f1bd15e66ec1f08044d7122d",
          "blockNumber": "0x215b752",
          "blockTimestamp": "0x6a042fbc",
          "transactionHash": "0x2f1b49b8a30d9f50455bd2e4b6f10dc7f6399f7618e1b4000494907fcfc6aff1",
          "transactionIndex": "0x1",
          "logIndex": "0x5",
          "removed": false
        }
      ],
      "logsBloom": "0x00000000000000000000000200000000000000000000000000000000000000000000000010000000000000000000000000000000000000000000000000200000002000000000000000000000000000000000000000000000000000000000000000000000000000000000000000000000000000000000000000000000000000000000000000000000000000000000000000000000000000000000000001000000020000000000000000000008000000000000000000000000000000000000000000000000000000002000000000000000001000000000000000000000000000000010000000000000000000000000800000000008000000000000000000000000",
      "type": "0x2",
      "transactionHash": "0x2f1b49b8a30d9f50455bd2e4b6f10dc7f6399f7618e1b4000494907fcfc6aff1",
      "transactionIndex": "0x1",
      "blockHash": "0x6b86ddd5a453b52a4d566178152f9eddbc71a477f1bd15e66ec1f08044d7122d",
      "blockNumber": "0x215b752",
      "gasUsed": "0xd19c",
      "effectiveGasPrice": "0x3b9aca00",
      "from": "0x45dce8e4f2dc005a5f28206a46cb034697eeda8e",
      "to": "0x64445f0aecc51e94ad52d8ac56b7190e764e561a",
      "contractAddress": null
    },
    {
      "status": "0x1",
      "cumulativeGasUsed": "0xb37fe",
      "logs": [
        {
          "address": "0x64445f0aecc51e94ad52d8ac56b7190e764e561a",
          "topics": [
            "0x8c5be1e5ebec7d5bd14f71427d1e84f3dd0314c0f7b2291e5b200ac8c7c3b925",
            "0x00000000000000000000000045dce8e4f2dc005a5f28206a46cb034697eeda8e",
            "0x0000000000000000000000008ebb34b1880b2ea5e458082590b3a2c9ea7c41a2"
          ],
          "data": "0x0000000000000000000000000000000000000000000000000000000000000000",
          "blockHash": "0xe8223eae72cb9049eb9f82bdc6a8c66ba764429d42314c98472c5de526f4c72e",
          "blockNumber": "0x215b78f",
          "blockTimestamp": "0x6a042ff8",
          "transactionHash": "0x0bdae9606a71076e66d31f12c51ce9e98c83a4aaa81486d8a84cdb16a0e45fdf",
          "transactionIndex": "0x1",
          "logIndex": "0x2",
          "removed": false
        },
        {
          "address": "0x64445f0aecc51e94ad52d8ac56b7190e764e561a",
          "topics": [
            "0xddf252ad1be2c89b69c2b068fc378daa952ba7f163c4a11628f55a4df523b3ef",
            "0x00000000000000000000000045dce8e4f2dc005a5f28206a46cb034697eeda8e",
            "0x0000000000000000000000008ebb34b1880b2ea5e458082590b3a2c9ea7c41a2"
          ],
          "data": "0x000000000000000000000000000000000000000000000000000009184e72a000",
          "blockHash": "0xe8223eae72cb9049eb9f82bdc6a8c66ba764429d42314c98472c5de526f4c72e",
          "blockNumber": "0x215b78f",
          "blockTimestamp": "0x6a042ff8",
          "transactionHash": "0x0bdae9606a71076e66d31f12c51ce9e98c83a4aaa81486d8a84cdb16a0e45fdf",
          "transactionIndex": "0x1",
          "logIndex": "0x3",
          "removed": false
        },
        {
          "address": "0x64445f0aecc51e94ad52d8ac56b7190e764e561a",
          "topics": [
            "0x8c5be1e5ebec7d5bd14f71427d1e84f3dd0314c0f7b2291e5b200ac8c7c3b925",
            "0x0000000000000000000000008ebb34b1880b2ea5e458082590b3a2c9ea7c41a2",
            "0x00000000000000000000000064445f0aecc51e94ad52d8ac56b7190e764e561a"
          ],
          "data": "0x000000000000000000000000000000000000000000000000000009184e72a000",
          "blockHash": "0xe8223eae72cb9049eb9f82bdc6a8c66ba764429d42314c98472c5de526f4c72e",
          "blockNumber": "0x215b78f",
          "blockTimestamp": "0x6a042ff8",
          "transactionHash": "0x0bdae9606a71076e66d31f12c51ce9e98c83a4aaa81486d8a84cdb16a0e45fdf",
          "transactionIndex": "0x1",
          "logIndex": "0x4",
          "removed": false
        },
        {
          "address": "0x64445f0aecc51e94ad52d8ac56b7190e764e561a",
          "topics": [
            "0xddf252ad1be2c89b69c2b068fc378daa952ba7f163c4a11628f55a4df523b3ef",
            "0x0000000000000000000000008ebb34b1880b2ea5e458082590b3a2c9ea7c41a2",
            "0x0000000000000000000000000000000000000000000000000000000000000000"
          ],
          "data": "0x000000000000000000000000000000000000000000000000000009184e72a000",
          "blockHash": "0xe8223eae72cb9049eb9f82bdc6a8c66ba764429d42314c98472c5de526f4c72e",
          "blockNumber": "0x215b78f",
          "blockTimestamp": "0x6a042ff8",
          "transactionHash": "0x0bdae9606a71076e66d31f12c51ce9e98c83a4aaa81486d8a84cdb16a0e45fdf",
          "transactionIndex": "0x1",
          "logIndex": "0x5",
          "removed": false
        },
        {
          "address": "0xfd76d9cb0bac839725ab79127e7411fe71b1e3ca",
          "topics": [
            "0x61ed099e74a97a1d7f8bb0952a88ca8b7b8ebd00c126ea04671f92a81213318a"
          ],
          "data": "0x00000000000000000000000041bdb4aa4a63a5b2efc531858d3118392b1a1c3d0000000000000000000000000000000000000000000000000001ceb2c4e60d44",
          "blockHash": "0xe8223eae72cb9049eb9f82bdc6a8c66ba764429d42314c98472c5de526f4c72e",
          "blockNumber": "0x215b78f",
          "blockTimestamp": "0x6a042ff8",
          "transactionHash": "0x0bdae9606a71076e66d31f12c51ce9e98c83a4aaa81486d8a84cdb16a0e45fdf",
          "transactionIndex": "0x1",
          "logIndex": "0x6",
          "removed": false
        },
        {
          "address": "0xfd76d9cb0bac839725ab79127e7411fe71b1e3ca",
          "topics": [
            "0x07ea52d82345d6e838192107d8fd7123d9c2ec8e916cd0aad13fd2b60db24644"
          ],
          "data": "0x0000000000000000000000000000000000000000000000000000000000000060000000000000000000000000000000000000000000000000000000000000012000000000000000000000000000000000000000000000000000000000000001400000000000000000000000000000000000000000000000000000000000000005000000000000000000000000082a08f524c043ec7f6b9a42bae79a1990d8499a00000000000000000000000083342ec538df0460e730a8f543fe63063e2d44c40000000000000000000000008e49ef1dfae17e547ca0e7526ffda81fbaca810a000000000000000000000000bb83ecf372cbb6daa629ea9a9a53bec6d601f229000000000000000000000000c097ab8cd7b053326dfe9fb3e3a31a0cce3b526f00000000000000000000000000000000000000000000000000000000000000000000000000000000000000000000000000000000000000000000000000000005000000000000000000000000000000000000000000000000000055af62b928020000000000000000000000000000000000000000000000000000503b723791260000000000000000000000000000000000000000000000000000503b72379126000000000000000000000000000000000000000000000000000055af62b92802000000000000000000000000000000000000000000000000000055af62b92802",
          "blockHash": "0xe8223eae72cb9049eb9f82bdc6a8c66ba764429d42314c98472c5de526f4c72e",
          "blockNumber": "0x215b78f",
          "blockTimestamp": "0x6a042ff8",
          "transactionHash": "0x0bdae9606a71076e66d31f12c51ce9e98c83a4aaa81486d8a84cdb16a0e45fdf",
          "transactionIndex": "0x1",
          "logIndex": "0x7",
          "removed": false
        },
        {
          "address": "0x3a73033c0b1407574c76bdbac67f126f6b4a9aa9",
          "topics": [
            "0x1ab700d4ced0c005b164c0f789fd09fcbb0156d4c2041b8a3bfbcd961cd1567f"
          ],
          "data": "0x00000000000000000000000000000000000000000000000000000000000000600000000000000000000000000000000000000000000000000000000000000180000000000000000000000000fd76d9cb0bac839725ab79127e7411fe71b1e3ca00000000000000000000000000000000000000000000000000000000000000f90100000000000000020000769f00000000000000000000000064445f0aecc51e94ad52d8ac56b7190e764e561a0000762f000000000000000000000000d86fbbd0c8715d2c1f40e451e5c3514e65e7576a61672565eb8284deadebd355f175d6d1a4223e2057e3030f81b72cf081681c0b0000000000000000000000002a2019b30c157db6c1c01306b8025167dbe1803b000000000000000a0000000000000000000000008ebb34b1880b2ea5e458082590b3a2c9ea7c41a200000000000000000000000045dce8e4f2dc005a5f28206a46cb034697eeda8e000000000000000000000000000000000000000000000000000000000000759500000000000000000000000000000000000000000000000000000000000000000000000000002c0003010011010000000000000000000000000003d090010013030000000000000000000000000000000f42400000000000000000000000000000000000000000",
          "blockHash": "0xe8223eae72cb9049eb9f82bdc6a8c66ba764429d42314c98472c5de526f4c72e",
          "blockNumber": "0x215b78f",
          "blockTimestamp": "0x6a042ff8",
          "transactionHash": "0x0bdae9606a71076e66d31f12c51ce9e98c83a4aaa81486d8a84cdb16a0e45fdf",
          "transactionIndex": "0x1",
          "logIndex": "0x8",
          "removed": false
        },
        {
          "address": "0x64445f0aecc51e94ad52d8ac56b7190e764e561a",
          "topics": [
            "0x85496b760a4b7f8d66384b9df21b381f5d1b1e79f229a47aaf4c232edc2fe59a",
            "0x61672565eb8284deadebd355f175d6d1a4223e2057e3030f81b72cf081681c0b",
            "0x0000000000000000000000008ebb34b1880b2ea5e458082590b3a2c9ea7c41a2"
          ],
          "data": "0x000000000000000000000000000000000000000000000000000000000000762f000000000000000000000000000000000000000000000000000009184e72a000000000000000000000000000000000000000000000000000000009184e72a000",
          "blockHash": "0xe8223eae72cb9049eb9f82bdc6a8c66ba764429d42314c98472c5de526f4c72e",
          "blockNumber": "0x215b78f",
          "blockTimestamp": "0x6a042ff8",
          "transactionHash": "0x0bdae9606a71076e66d31f12c51ce9e98c83a4aaa81486d8a84cdb16a0e45fdf",
          "transactionIndex": "0x1",
          "logIndex": "0x9",
          "removed": false
        },
        {
          "address": "0x8ebb34b1880b2ea5e458082590b3a2c9ea7c41a2",
          "topics": [
            "0xbc9ee36b6ca0bdd5b3840e6d329dd19a2490d880c7ce24d9818aa593adfb35be",
            "0x00000000000000000000000045dce8e4f2dc005a5f28206a46cb034697eeda8e",
            "0x0000000000000000000000000000000000000000000000000000000000007595",
            "0x00000000000000000000000045dce8e4f2dc005a5f28206a46cb034697eeda8e"
          ],
          "data": "0x00000000000000000000000064445f0aecc51e94ad52d8ac56b7190e764e561a000000000000000000000000000000000000000000000000000009184e72a000",
          "blockHash": "0xe8223eae72cb9049eb9f82bdc6a8c66ba764429d42314c98472c5de526f4c72e",
          "blockNumber": "0x215b78f",
          "blockTimestamp": "0x6a042ff8",
          "transactionHash": "0x0bdae9606a71076e66d31f12c51ce9e98c83a4aaa81486d8a84cdb16a0e45fdf",
          "transactionIndex": "0x1",
          "logIndex": "0xa",
          "removed": false
        }
      ],
      "logsBloom": "0x0000201000000010000000020000000000000000000000000000000000000000000000001000000000000000000000000000000000000000000000000020000000200200000000000000010800000400000000000000000000000000004000000000000002000001800000000000080000001000000010000000001000000000000000200000000000000008000000000000000200000000000000000100000002000010800000003010000c000000000000000000400000000440000000000000000003000000002000000080000000001000000000000800000000000020000010040000000000000008000000802800000008008000000000000000000006",
      "type": "0x2",
      "transactionHash": "0x0bdae9606a71076e66d31f12c51ce9e98c83a4aaa81486d8a84cdb16a0e45fdf",
      "transactionIndex": "0x1",
      "blockHash": "0xe8223eae72cb9049eb9f82bdc6a8c66ba764429d42314c98472c5de526f4c72e",
      "blockNumber": "0x215b78f",
      "gasUsed": "0x96709",
      "effectiveGasPrice": "0x3b9aca00",
      "from": "0x45dce8e4f2dc005a5f28206a46cb034697eeda8e",
      "to": "0x8ebb34b1880b2ea5e458082590b3a2c9ea7c41a2",
      "contractAddress": null
    },
    {
      "status": "0x1",
      "cumulativeGasUsed": "0xd1b2",
      "logs": [
        {
          "address": "0x90581eca9469d8d7f5d3b60f4715027adfcf7927",
          "topics": [
            "0x8c5be1e5ebec7d5bd14f71427d1e84f3dd0314c0f7b2291e5b200ac8c7c3b925",
            "0x00000000000000000000000045dce8e4f2dc005a5f28206a46cb034697eeda8e",
            "0x0000000000000000000000008ebb34b1880b2ea5e458082590b3a2c9ea7c41a2"
          ],
          "data": "0x000000000000000000000000000000000000000000000000000009184e72a000",
          "blockHash": "0x49051c5a38f1c13159120c2c5cfd173ef1b417a9bc08cb691ab80aa98ff7335e",
          "blockNumber": "0x215b7cc",
          "blockTimestamp": "0x6a043034",
          "transactionHash": "0x848247bbc595f6851d3055cce058f1b3d1ef4b3d6dad7abbc61c1dd437d91889",
          "transactionIndex": "0x0",
          "logIndex": "0x0",
          "removed": false
        }
      ],
      "logsBloom": "0x00000000000000000000000200000000000000000000000000000000000000000000000010000000000000000000000000000000000000000000000000200000000000000000000000000000000000000000000000000000000000000000000000000000000000000000000000000000000000000000000000000000000000000000000000000004000010000000000000000000000000000000000001000000020000000000000000000000000000000000000000000000000000000000000000000000000000002000000000000000001000000000000000000000000000000010000000000000000000000000800000400000000000000000000000000000",
      "type": "0x2",
      "transactionHash": "0x848247bbc595f6851d3055cce058f1b3d1ef4b3d6dad7abbc61c1dd437d91889",
      "transactionIndex": "0x0",
      "blockHash": "0x49051c5a38f1c13159120c2c5cfd173ef1b417a9bc08cb691ab80aa98ff7335e",
      "blockNumber": "0x215b7cc",
      "gasUsed": "0xd1b2",
      "effectiveGasPrice": "0x3b9aca00",
      "from": "0x45dce8e4f2dc005a5f28206a46cb034697eeda8e",
      "to": "0x90581eca9469d8d7f5d3b60f4715027adfcf7927",
      "contractAddress": null
    },
    {
      "status": "0x1",
      "cumulativeGasUsed": "0xb59a8",
      "logs": [
        {
          "address": "0x90581eca9469d8d7f5d3b60f4715027adfcf7927",
          "topics": [
            "0x8c5be1e5ebec7d5bd14f71427d1e84f3dd0314c0f7b2291e5b200ac8c7c3b925",
            "0x00000000000000000000000045dce8e4f2dc005a5f28206a46cb034697eeda8e",
            "0x0000000000000000000000008ebb34b1880b2ea5e458082590b3a2c9ea7c41a2"
          ],
          "data": "0x0000000000000000000000000000000000000000000000000000000000000000",
          "blockHash": "0x795c6572bd1c464267f5a600ff48c0e512e7e98b6c12419effac3788beff7ac5",
          "blockNumber": "0x215b809",
          "blockTimestamp": "0x6a043070",
          "transactionHash": "0x97f302f9cfe51bf3736616ab7c9cebe26d82a103dde28691199111b1cff6d025",
          "transactionIndex": "0x1",
          "logIndex": "0x3",
          "removed": false
        },
        {
          "address": "0x90581eca9469d8d7f5d3b60f4715027adfcf7927",
          "topics": [
            "0xddf252ad1be2c89b69c2b068fc378daa952ba7f163c4a11628f55a4df523b3ef",
            "0x00000000000000000000000045dce8e4f2dc005a5f28206a46cb034697eeda8e",
            "0x0000000000000000000000008ebb34b1880b2ea5e458082590b3a2c9ea7c41a2"
          ],
          "data": "0x000000000000000000000000000000000000000000000000000009184e72a000",
          "blockHash": "0x795c6572bd1c464267f5a600ff48c0e512e7e98b6c12419effac3788beff7ac5",
          "blockNumber": "0x215b809",
          "blockTimestamp": "0x6a043070",
          "transactionHash": "0x97f302f9cfe51bf3736616ab7c9cebe26d82a103dde28691199111b1cff6d025",
          "transactionIndex": "0x1",
          "logIndex": "0x4",
          "removed": false
        },
        {
          "address": "0x90581eca9469d8d7f5d3b60f4715027adfcf7927",
          "topics": [
            "0x8c5be1e5ebec7d5bd14f71427d1e84f3dd0314c0f7b2291e5b200ac8c7c3b925",
            "0x0000000000000000000000008ebb34b1880b2ea5e458082590b3a2c9ea7c41a2",
            "0x00000000000000000000000090581eca9469d8d7f5d3b60f4715027adfcf7927"
          ],
          "data": "0x000000000000000000000000000000000000000000000000000009184e72a000",
          "blockHash": "0x795c6572bd1c464267f5a600ff48c0e512e7e98b6c12419effac3788beff7ac5",
          "blockNumber": "0x215b809",
          "blockTimestamp": "0x6a043070",
          "transactionHash": "0x97f302f9cfe51bf3736616ab7c9cebe26d82a103dde28691199111b1cff6d025",
          "transactionIndex": "0x1",
          "logIndex": "0x5",
          "removed": false
        },
        {
          "address": "0x90581eca9469d8d7f5d3b60f4715027adfcf7927",
          "topics": [
            "0xddf252ad1be2c89b69c2b068fc378daa952ba7f163c4a11628f55a4df523b3ef",
            "0x0000000000000000000000008ebb34b1880b2ea5e458082590b3a2c9ea7c41a2",
            "0x0000000000000000000000000000000000000000000000000000000000000000"
          ],
          "data": "0x000000000000000000000000000000000000000000000000000009184e72a000",
          "blockHash": "0x795c6572bd1c464267f5a600ff48c0e512e7e98b6c12419effac3788beff7ac5",
          "blockNumber": "0x215b809",
          "blockTimestamp": "0x6a043070",
          "transactionHash": "0x97f302f9cfe51bf3736616ab7c9cebe26d82a103dde28691199111b1cff6d025",
          "transactionIndex": "0x1",
          "logIndex": "0x6",
          "removed": false
        },
        {
          "address": "0xfd76d9cb0bac839725ab79127e7411fe71b1e3ca",
          "topics": [
            "0x61ed099e74a97a1d7f8bb0952a88ca8b7b8ebd00c126ea04671f92a81213318a"
          ],
          "data": "0x00000000000000000000000041bdb4aa4a63a5b2efc531858d3118392b1a1c3d0000000000000000000000000000000000000000000000000001ceb2c4e60d44",
          "blockHash": "0x795c6572bd1c464267f5a600ff48c0e512e7e98b6c12419effac3788beff7ac5",
          "blockNumber": "0x215b809",
          "blockTimestamp": "0x6a043070",
          "transactionHash": "0x97f302f9cfe51bf3736616ab7c9cebe26d82a103dde28691199111b1cff6d025",
          "transactionIndex": "0x1",
          "logIndex": "0x7",
          "removed": false
        },
        {
          "address": "0xfd76d9cb0bac839725ab79127e7411fe71b1e3ca",
          "topics": [
            "0x07ea52d82345d6e838192107d8fd7123d9c2ec8e916cd0aad13fd2b60db24644"
          ],
          "data": "0x0000000000000000000000000000000000000000000000000000000000000060000000000000000000000000000000000000000000000000000000000000012000000000000000000000000000000000000000000000000000000000000001400000000000000000000000000000000000000000000000000000000000000005000000000000000000000000082a08f524c043ec7f6b9a42bae79a1990d8499a00000000000000000000000083342ec538df0460e730a8f543fe63063e2d44c40000000000000000000000008e49ef1dfae17e547ca0e7526ffda81fbaca810a000000000000000000000000bb83ecf372cbb6daa629ea9a9a53bec6d601f229000000000000000000000000c097ab8cd7b053326dfe9fb3e3a31a0cce3b526f00000000000000000000000000000000000000000000000000000000000000000000000000000000000000000000000000000000000000000000000000000005000000000000000000000000000000000000000000000000000055af62b928020000000000000000000000000000000000000000000000000000503b723791260000000000000000000000000000000000000000000000000000503b72379126000000000000000000000000000000000000000000000000000055af62b92802000000000000000000000000000000000000000000000000000055af62b92802",
          "blockHash": "0x795c6572bd1c464267f5a600ff48c0e512e7e98b6c12419effac3788beff7ac5",
          "blockNumber": "0x215b809",
          "blockTimestamp": "0x6a043070",
          "transactionHash": "0x97f302f9cfe51bf3736616ab7c9cebe26d82a103dde28691199111b1cff6d025",
          "transactionIndex": "0x1",
          "logIndex": "0x8",
          "removed": false
        },
        {
          "address": "0x3a73033c0b1407574c76bdbac67f126f6b4a9aa9",
          "topics": [
            "0x1ab700d4ced0c005b164c0f789fd09fcbb0156d4c2041b8a3bfbcd961cd1567f"
          ],
          "data": "0x00000000000000000000000000000000000000000000000000000000000000600000000000000000000000000000000000000000000000000000000000000180000000000000000000000000fd76d9cb0bac839725ab79127e7411fe71b1e3ca00000000000000000000000000000000000000000000000000000000000000f90100000000000000020000769f00000000000000000000000090581eca9469d8d7f5d3b60f4715027adfcf79270000762f00000000000000000000000075c38d46001b0f8108c4136216bd2694982c20fc60640b4e5004817c0ca95446c6ab665b1a54db0015dfe427096c9033deee73df0000000000000000000000002a2019b30c157db6c1c01306b8025167dbe1803b000000000000000a0000000000000000000000008ebb34b1880b2ea5e458082590b3a2c9ea7c41a200000000000000000000000045dce8e4f2dc005a5f28206a46cb034697eeda8e000000000000000000000000000000000000000000000000000000000000759500000000000000000000000000000000000000000000000000000000000000000000000000002c0003010011010000000000000000000000000003d090010013030000000000000000000000000000000f42400000000000000000000000000000000000000000",
          "blockHash": "0x795c6572bd1c464267f5a600ff48c0e512e7e98b6c12419effac3788beff7ac5",
          "blockNumber": "0x215b809",
          "blockTimestamp": "0x6a043070",
          "transactionHash": "0x97f302f9cfe51bf3736616ab7c9cebe26d82a103dde28691199111b1cff6d025",
          "transactionIndex": "0x1",
          "logIndex": "0x9",
          "removed": false
        },
        {
          "address": "0x90581eca9469d8d7f5d3b60f4715027adfcf7927",
          "topics": [
            "0x85496b760a4b7f8d66384b9df21b381f5d1b1e79f229a47aaf4c232edc2fe59a",
            "0x60640b4e5004817c0ca95446c6ab665b1a54db0015dfe427096c9033deee73df",
            "0x0000000000000000000000008ebb34b1880b2ea5e458082590b3a2c9ea7c41a2"
          ],
          "data": "0x000000000000000000000000000000000000000000000000000000000000762f000000000000000000000000000000000000000000000000000009184e72a000000000000000000000000000000000000000000000000000000009184e72a000",
          "blockHash": "0x795c6572bd1c464267f5a600ff48c0e512e7e98b6c12419effac3788beff7ac5",
          "blockNumber": "0x215b809",
          "blockTimestamp": "0x6a043070",
          "transactionHash": "0x97f302f9cfe51bf3736616ab7c9cebe26d82a103dde28691199111b1cff6d025",
          "transactionIndex": "0x1",
          "logIndex": "0xa",
          "removed": false
        },
        {
          "address": "0x8ebb34b1880b2ea5e458082590b3a2c9ea7c41a2",
          "topics": [
            "0xbc9ee36b6ca0bdd5b3840e6d329dd19a2490d880c7ce24d9818aa593adfb35be",
            "0x00000000000000000000000045dce8e4f2dc005a5f28206a46cb034697eeda8e",
            "0x0000000000000000000000000000000000000000000000000000000000007595",
            "0x00000000000000000000000045dce8e4f2dc005a5f28206a46cb034697eeda8e"
          ],
          "data": "0x00000000000000000000000090581eca9469d8d7f5d3b60f4715027adfcf7927000000000000000000000000000000000000000000000000000009184e72a000",
          "blockHash": "0x795c6572bd1c464267f5a600ff48c0e512e7e98b6c12419effac3788beff7ac5",
          "blockNumber": "0x215b809",
          "blockTimestamp": "0x6a043070",
          "transactionHash": "0x97f302f9cfe51bf3736616ab7c9cebe26d82a103dde28691199111b1cff6d025",
          "transactionIndex": "0x1",
          "logIndex": "0xb",
          "removed": false
        }
      ],
      "logsBloom": "0x00002010000000100000000200000000000000000000000000000000000000000000000010000000000000000000000000000000000000000000000000200000000002000000000000010108000004000000000000000000000000000000000000000000020000018000000000000800000010010000100004000010000000000000002000000004000010080008000002000000000000000000000001000000020000108000000020100000000000000000000000400000000440000000000000000003000000002000000080000100001000000000000800000000000020000010040000000000000008000000802000400000008000000000000000000004",
      "type": "0x2",
      "transactionHash": "0x97f302f9cfe51bf3736616ab7c9cebe26d82a103dde28691199111b1cff6d025",
      "transactionIndex": "0x1",
      "blockHash": "0x795c6572bd1c464267f5a600ff48c0e512e7e98b6c12419effac3788beff7ac5",
      "blockNumber": "0x215b809",
      "gasUsed": "0x9671f",
      "effectiveGasPrice": "0x3b9aca00",
      "from": "0x45dce8e4f2dc005a5f28206a46cb034697eeda8e",
      "to": "0x8ebb34b1880b2ea5e458082590b3a2c9ea7c41a2",
      "contractAddress": null
    }
  ],
  "libraries": [],
  "pending": [],
  "returns": {},
  "timestamp": 1778659440614,
  "chain": 999,
  "commit": "3c1e5d2a"
}