{
  "transactions": [
    {
      "hash": "0xed78237aac2adb2333d6917edd32882c072be698d02aaa4ca804801d04f5fe54",
      "transactionType": "CALL",
      "contractName": null,
      "contractAddress": "0x80eede496655fb9047dd39d9f418d5483ed600df",
      "function": "approve(address,uint256)",
      "arguments": [
        "0x3a6F28e8DDD232B02C72C491Bd1626F69D2fb329",
        "10000000000000"
      ],
      "transaction": {
        "from": "0x45dce8e4f2dc005a5f28206a46cb034697eeda8e",
        "to": "0x80eede496655fb9047dd39d9f418d5483ed600df",
        "gas": "0x2c3d6",
        "value": "0x0",
        "input": "0x095ea7b30000000000000000000000003a6f28e8ddd232b02c72c491bd1626f69d2fb329000000000000000000000000000000000000000000000000000009184e72a000",
        "nonce": "0xe6",
        "chainId": "0x531"
      },
      "additionalContracts": [],
      "isFixedGasLimit": false
    },
    {
      "hash": "0x6b51cea3027fd911d19530da63118439c369e11215ebb4c9282ee4aeaf123c9d",
      "transactionType": "CALL",
      "contractName": null,
      "contractAddress": "0x3a6f28e8ddd232b02c72c491bd1626f69d2fb329",
      "function": "sendOFT(address,uint32,bytes32,uint256)",
      "arguments": [
        "0x80Eede496655FB9047dd39d9f418d5483ED600df",
        "30211",
        "0x00000000000000000000000045dce8e4f2dc005a5f28206a46cb034697eeda8e",
        "10000000000000"
      ],
      "transaction": {
        "from": "0x45dce8e4f2dc005a5f28206a46cb034697eeda8e",
        "to": "0x3a6f28e8ddd232b02c72c491bd1626f69d2fb329",
        "gas": "0x1dfa30",
        "value": "0x35c575b1c0c1de70",
        "input": "0x3e832c9000000000000000000000000080eede496655fb9047dd39d9f418d5483ed600df000000000000000000000000000000000000000000000000000000000000760300000000000000000000000045dce8e4f2dc005a5f28206a46cb034697eeda8e000000000000000000000000000000000000000000000000000009184e72a000",
        "nonce": "0xe7",
        "chainId": "0x531"
      },
      "additionalContracts": [],
      "isFixedGasLimit": false
    },
    {
      "hash": "0xfa96eb32c9fec2421a5e7c44701140dc0410469e30f44f5c67ee6df6c939042c",
      "transactionType": "CALL",
      "contractName": null,
      "contractAddress": "0x5bff88ca1442c2496f7e475e9e7786383bc070c0",
      "function": "approve(address,uint256)",
      "arguments": [
        "0x3a6F28e8DDD232B02C72C491Bd1626F69D2fb329",
        "10000000000000"
      ],
      "transaction": {
        "from": "0x45dce8e4f2dc005a5f28206a46cb034697eeda8e",
        "to": "0x5bff88ca1442c2496f7e475e9e7786383bc070c0",
        "gas": "0x29c3d",
        "value": "0x0",
        "input": "0x095ea7b30000000000000000000000003a6f28e8ddd232b02c72c491bd1626f69d2fb329000000000000000000000000000000000000000000000000000009184e72a000",
        "nonce": "0xe8",
        "chainId": "0x531"
      },
      "additionalContracts": [],
      "isFixedGasLimit": false
    },
    {
      "hash": "0x0b0650f0c1f559e16a5ba5ee50ea215f2caee45c1b1e658b1473a0c6c840e90d",
      "transactionType": "CALL",
      "contractName": null,
      "contractAddress": "0x3a6f28e8ddd232b02c72c491bd1626f69d2fb329",
      "function": "sendOFT(address,uint32,bytes32,uint256)",
      "arguments": [
        "0x5Bff88cA1442c2496f7E475E9e7786383Bc070c0",
        "30211",
        "0x00000000000000000000000045dce8e4f2dc005a5f28206a46cb034697eeda8e",
        "10000000000000"
      ],
      "transaction": {
        "from": "0x45dce8e4f2dc005a5f28206a46cb034697eeda8e",
        "to": "0x3a6f28e8ddd232b02c72c491bd1626f69d2fb329",
        "gas": "0x1d587b",
        "value": "0x35c575b1c0c1de70",
        "input": "0x3e832c900000000000000000000000005bff88ca1442c2496f7e475e9e7786383bc070c0000000000000000000000000000000000000000000000000000000000000760300000000000000000000000045dce8e4f2dc005a5f28206a46cb034697eeda8e000000000000000000000000000000000000000000000000000009184e72a000",
        "nonce": "0xe9",
        "chainId": "0x531"
      },
      "additionalContracts": [],
      "isFixedGasLimit": false
    },
    {
      "hash": "0xb7c4c6281c48e1111a35d46b6e7ca368682cbbe7a64d854d3d2559a3cb5a47f6",
      "transactionType": "CALL",
      "contractName": null,
      "contractAddress": "0x43edd7f3831b08fe70b7555ddd373c8bf65a9050",
      "function": "approve(address,uint256)",
      "arguments": [
        "0x3a6F28e8DDD232B02C72C491Bd1626F69D2fb329",
        "10000000000000"
      ],
      "transaction": {
        "from": "0x45dce8e4f2dc005a5f28206a46cb034697eeda8e",
        "to": "0x43edd7f3831b08fe70b7555ddd373c8bf65a9050",
        "gas": "0x2c3d6",
        "value": "0x0",
        "input": "0x095ea7b30000000000000000000000003a6f28e8ddd232b02c72c491bd1626f69d2fb329000000000000000000000000000000000000000000000000000009184e72a000",
        "nonce": "0xea",
        "chainId": "0x531"
      },
      "additionalContracts": [],
      "isFixedGasLimit": false
    },
    {
      "hash": "0x27cb55b3d081fd5f66629b99ce42c99af548953ce0bed374737d7943b996fd64",
      "transactionType": "CALL",
      "contractName": null,
      "contractAddress": "0x3a6f28e8ddd232b02c72c491bd1626f69d2fb329",
      "function": "sendOFT(address,uint32,bytes32,uint256)",
      "arguments": [
        "0x43eDD7f3831b08FE70B7555ddD373C8bF65a9050",
        "30211",
        "0x00000000000000000000000045dce8e4f2dc005a5f28206a46cb034697eeda8e",
        "10000000000000"
      ],
      "transaction": {
        "from": "0x45dce8e4f2dc005a5f28206a46cb034697eeda8e",
        "to": "0x3a6f28e8ddd232b02c72c491bd1626f69d2fb329",
        "gas": "0x1f12b0",
        "value": "0x35c575b1c0c1de70",
        "input": "0x3e832c9000000000000000000000000043edd7f3831b08fe70b7555ddd373c8bf65a9050000000000000000000000000000000000000000000000000000000000000760300000000000000000000000045dce8e4f2dc005a5f28206a46cb034697eeda8e000000000000000000000000000000000000000000000000000009184e72a000",
        "nonce": "0xeb",
        "chainId": "0x531"
      },
      "additionalContracts": [],
      "isFixedGasLimit": false
    },
    {
      "hash": "0xea3bffa955faea712f0490874e3a2375b1bcb6c7bcfc2cc2d175a67d8fd2c0c4",
      "transactionType": "CALL",
      "contractName": null,
      "contractAddress": "0x3ec3849c33291a9ef4c5db86de593eb4a37fde45",
      "function": "approve(address,uint256)",
      "arguments": [
        "0x3a6F28e8DDD232B02C72C491Bd1626F69D2fb329",
        "10000000000000"
      ],
      "transaction": {
        "from": "0x45dce8e4f2dc005a5f28206a46cb034697eeda8e",
        "to": "0x3ec3849c33291a9ef4c5db86de593eb4a37fde45",
        "gas": "0x2c3d6",
        "value": "0x0",
        "input": "0x095ea7b30000000000000000000000003a6f28e8ddd232b02c72c491bd1626f69d2fb329000000000000000000000000000000000000000000000000000009184e72a000",
        "nonce": "0xec",
        "chainId": "0x531"
      },
      "additionalContracts": [],
      "isFixedGasLimit": false
    },
    {
      "hash": "0x967d460d3c6ed407ed4dbaa5102ec9f693f8210f27422b8f443cd62782ccca07",
      "transactionType": "CALL",
      "contractName": null,
      "contractAddress": "0x3a6f28e8ddd232b02c72c491bd1626f69d2fb329",
      "function": "sendOFT(address,uint32,bytes32,uint256)",
      "arguments": [
        "0x3Ec3849C33291a9eF4c5dB86De593EB4A37fDe45",
        "30211",
        "0x00000000000000000000000045dce8e4f2dc005a5f28206a46cb034697eeda8e",
        "10000000000000"
      ],
      "transaction": {
        "from": "0x45dce8e4f2dc005a5f28206a46cb034697eeda8e",
        "to": "0x3a6f28e8ddd232b02c72c491bd1626f69d2fb329",
        "gas": "0x1f12b0",
        "value": "0x35c575b1c0c1de70",
        "input": "0x3e832c900000000000000000000000003ec3849c33291a9ef4c5db86de593eb4a37fde45000000000000000000000000000000000000000000000000000000000000760300000000000000000000000045dce8e4f2dc005a5f28206a46cb034697eeda8e000000000000000000000000000000000000000000000000000009184e72a000",
        "nonce": "0xed",
        "chainId": "0x531"
      },
      "additionalContracts": [],
      "isFixedGasLimit": false
    },
    {
      "hash": "0xcfde0fcbf44ec64265d401607d3f80102db79ea85655f9b4005bb5efdaab3b41",
      "transactionType": "CALL",
      "contractName": null,
      "contractAddress": "0x64445f0aecc51e94ad52d8ac56b7190e764e561a",
      "function": "approve(address,uint256)",
      "arguments": [
        "0x3a6F28e8DDD232B02C72C491Bd1626F69D2fb329",
        "10000000000000"
      ],
      "transaction": {
        "from": "0x45dce8e4f2dc005a5f28206a46cb034697eeda8e",
        "to": "0x64445f0aecc51e94ad52d8ac56b7190e764e561a",
        "gas": "0x29c3d",
        "value": "0x0",
        "input": "0x095ea7b30000000000000000000000003a6f28e8ddd232b02c72c491bd1626f69d2fb329000000000000000000000000000000000000000000000000000009184e72a000",
        "nonce": "0xee",
        "chainId": "0x531"
      },
      "additionalContracts": [],
      "isFixedGasLimit": false
    },
    {
      "hash": "0x61c302aa80715de350a74fb19cd11235b4f7da592955e40fb35703730da1f40c",
      "transactionType": "CALL",
      "contractName": null,
      "contractAddress": "0x3a6f28e8ddd232b02c72c491bd1626f69d2fb329",
      "function": "sendOFT(address,uint32,bytes32,uint256)",
      "arguments": [
        "0x64445f0aecC51E94aD52d8AC56b7190e764E561a",
        "30211",
        "0x00000000000000000000000045dce8e4f2dc005a5f28206a46cb034697eeda8e",
        "10000000000000"
      ],
      "transaction": {
        "from": "0x45dce8e4f2dc005a5f28206a46cb034697eeda8e",
        "to": "0x3a6f28e8ddd232b02c72c491bd1626f69d2fb329",
        "gas": "0x1d587b",
        "value": "0x35c575b1c0c1de70",
        "input": "0x3e832c9000000000000000000000000064445f0aecc51e94ad52d8ac56b7190e764e561a000000000000000000000000000000000000000000000000000000000000760300000000000000000000000045dce8e4f2dc005a5f28206a46cb034697eeda8e000000000000000000000000000000000000000000000000000009184e72a000",
        "nonce": "0xef",
        "chainId": "0x531"
      },
      "additionalContracts": [],
      "isFixedGasLimit": false
    },
    {
      "hash": "0x8a025a246287df8ae4e0cfb5cea5ab491086b15ab7f2b78110e3d9119e67d63c",
      "transactionType": "CALL",
      "contractName": null,
      "contractAddress": "0x90581eca9469d8d7f5d3b60f4715027adfcf7927",
      "function": "approve(address,uint256)",
      "arguments": [
        "0x3a6F28e8DDD232B02C72C491Bd1626F69D2fb329",
        "10000000000000"
      ],
      "transaction": {
        "from": "0x45dce8e4f2dc005a5f28206a46cb034697eeda8e",
        "to": "0x90581eca9469d8d7f5d3b60f4715027adfcf7927",
        "gas": "0x2c3d6",
        "value": "0x0",
        "input": "0x095ea7b30000000000000000000000003a6f28e8ddd232b02c72c491bd1626f69d2fb329000000000000000000000000000000000000000000000000000009184e72a000",
        "nonce": "0xf0",
        "chainId": "0x531"
      },
      "additionalContracts": [],
      "isFixedGasLimit": false
    },
    {
      "hash": "0x12f119257b28107dca6409e595c6ea1204a01604ae12a5939f8ec11d79fc5292",
      "transactionType": "CALL",
      "contractName": null,
      "contractAddress": "0x3a6f28e8ddd232b02c72c491bd1626f69d2fb329",
      "function": "sendOFT(address,uint32,bytes32,uint256)",
      "arguments": [
        "0x90581eCa9469D8D7F5D3B60f4715027aDFCf7927",
        "30211",
        "0x00000000000000000000000045dce8e4f2dc005a5f28206a46cb034697eeda8e",
        "10000000000000"
      ],
      "transaction": {
        "from": "0x45dce8e4f2dc005a5f28206a46cb034697eeda8e",
        "to": "0x3a6f28e8ddd232b02c72c491bd1626f69d2fb329",
        "gas": "0x1e2dab",
        "value": "0x35c575b1c0c1de70",
        "input": "0x3e832c9000000000000000000000000090581eca9469d8d7f5d3b60f4715027adfcf7927000000000000000000000000000000000000000000000000000000000000760300000000000000000000000045dce8e4f2dc005a5f28206a46cb034697eeda8e000000000000000000000000000000000000000000000000000009184e72a000",
        "nonce": "0xf1",
        "chainId": "0x531"
      },
      "additionalContracts": [],
      "isFixedGasLimit": false
    }
  ],
  "receipts": [
    {
      "status": "0x1",
      "cumulativeGasUsed": "0x4f2e2",
      "logs": [
        {
          "address": "0x80eede496655fb9047dd39d9f418d5483ed600df",
          "topics": [
            "0x8c5be1e5ebec7d5bd14f71427d1e84f3dd0314c0f7b2291e5b200ac8c7c3b925",
            "0x00000000000000000000000045dce8e4f2dc005a5f28206a46cb034697eeda8e",
            "0x0000000000000000000000003a6f28e8ddd232b02c72c491bd1626f69d2fb329"
          ],
          "data": "0x000000000000000000000000000000000000000000000000000009184e72a000",
          "blockHash": "0x9a6e85296531654065122ac4462178657d452dab1ec2b022b8d3af7a823b2173",
          "blockNumber": "0xc59371b",
          "transactionHash": "0xed78237aac2adb2333d6917edd32882c072be698d02aaa4ca804801d04f5fe54",
          "transactionIndex": "0x1",
          "logIndex": "0x0",
          "removed": false
        }
      ],
      "logsBloom": "0x00000000000000000000000200000000000000000000000000000000000000000000000000000000000000000800000040000000000000000000000200200000000000000000000000000200000000000000000000000000000000000000000000000000000000000000000000000000000000000000000000000000010000000000000000000000000000000000000000000800000000000000000000000000020000000000000000000000000000000000000000000000000000000000000000000000000000000000000000000000001000000000000000000000000000000010000000000000000000000000800000000000000000000000000000000000",
      "type": "0x0",
      "transactionHash": "0xed78237aac2adb2333d6917edd32882c072be698d02aaa4ca804801d04f5fe54",
      "transactionIndex": "0x1",
      "blockHash": "0x9a6e85296531654065122ac4462178657d452dab1ec2b022b8d3af7a823b2173",
      "blockNumber": "0xc59371b",
      "gasUsed": "0x19cdb",
      "effectiveGasPrice": "0xcce416600",
      "from": "0x45dce8e4f2dc005a5f28206a46cb034697eeda8e",
      "to": "0x80eede496655fb9047dd39d9f418d5483ed600df",
      "contractAddress": null
    },
    {
      "status": "0x1",
      "cumulativeGasUsed": "0xb6e07",
      "logs": [
        {
          "address": "0x80eede496655fb9047dd39d9f418d5483ed600df",
          "topics": [
            "0x8c5be1e5ebec7d5bd14f71427d1e84f3dd0314c0f7b2291e5b200ac8c7c3b925",
            "0x00000000000000000000000045dce8e4f2dc005a5f28206a46cb034697eeda8e",
            "0x0000000000000000000000003a6f28e8ddd232b02c72c491bd1626f69d2fb329"
          ],
          "data": "0x0000000000000000000000000000000000000000000000000000000000000000",
          "blockHash": "0x7f56c7a8018a0a56140f3a522f2b8a0ef600c77345d90ed1cbf49c37fc94d87b",
          "blockNumber": "0xc59371f",
          "transactionHash": "0x6b51cea3027fd911d19530da63118439c369e11215ebb4c9282ee4aeaf123c9d",
          "transactionIndex": "0x1",
          "logIndex": "0x4",
          "removed": false
        },
        {
          "address": "0x80eede496655fb9047dd39d9f418d5483ed600df",
          "topics": [
            "0xddf252ad1be2c89b69c2b068fc378daa952ba7f163c4a11628f55a4df523b3ef",
            "0x00000000000000000000000045dce8e4f2dc005a5f28206a46cb034697eeda8e",
            "0x0000000000000000000000003a6f28e8ddd232b02c72c491bd1626f69d2fb329"
          ],
          "data": "0x000000000000000000000000000000000000000000000000000009184e72a000",
          "blockHash": "0x7f56c7a8018a0a56140f3a522f2b8a0ef600c77345d90ed1cbf49c37fc94d87b",
          "blockNumber": "0xc59371f",
          "transactionHash": "0x6b51cea3027fd911d19530da63118439c369e11215ebb4c9282ee4aeaf123c9d",
          "transactionIndex": "0x1",
          "logIndex": "0x5",
          "removed": false
        },
        {
          "address": "0x80eede496655fb9047dd39d9f418d5483ed600df",
          "topics": [
            "0x8c5be1e5ebec7d5bd14f71427d1e84f3dd0314c0f7b2291e5b200ac8c7c3b925",
            "0x0000000000000000000000003a6f28e8ddd232b02c72c491bd1626f69d2fb329",
            "0x00000000000000000000000080eede496655fb9047dd39d9f418d5483ed600df"
          ],
          "data": "0x000000000000000000000000000000000000000000000000000009184e72a000",
          "blockHash": "0x7f56c7a8018a0a56140f3a522f2b8a0ef600c77345d90ed1cbf49c37fc94d87b",
          "blockNumber": "0xc59371f",
          "transactionHash": "0x6b51cea3027fd911d19530da63118439c369e11215ebb4c9282ee4aeaf123c9d",
          "transactionIndex": "0x1",
          "logIndex": "0x6",
          "removed": false
        },
        {
          "address": "0x80eede496655fb9047dd39d9f418d5483ed600df",
          "topics": [
            "0xddf252ad1be2c89b69c2b068fc378daa952ba7f163c4a11628f55a4df523b3ef",
            "0x0000000000000000000000003a6f28e8ddd232b02c72c491bd1626f69d2fb329",
            "0x0000000000000000000000000000000000000000000000000000000000000000"
          ],
          "data": "0x000000000000000000000000000000000000000000000000000009184e72a000",
          "blockHash": "0x7f56c7a8018a0a56140f3a522f2b8a0ef600c77345d90ed1cbf49c37fc94d87b",
          "blockNumber": "0xc59371f",
          "transactionHash": "0x6b51cea3027fd911d19530da63118439c369e11215ebb4c9282ee4aeaf123c9d",
          "transactionIndex": "0x1",
          "logIndex": "0x7",
          "removed": false
        },
        {
          "address": "0xc39161c743d0307eb9bcc9fef03eeb9dc4802de7",
          "topics": [
            "0x61ed099e74a97a1d7f8bb0952a88ca8b7b8ebd00c126ea04671f92a81213318a"
          ],
          "data": "0x000000000000000000000000c097ab8cd7b053326dfe9fb3e3a31a0cce3b526f0000000000000000000000000000000000000000000000000439fe6930c7362e",
          "blockHash": "0x7f56c7a8018a0a56140f3a522f2b8a0ef600c77345d90ed1cbf49c37fc94d87b",
          "blockNumber": "0xc59371f",
          "transactionHash": "0x6b51cea3027fd911d19530da63118439c369e11215ebb4c9282ee4aeaf123c9d",
          "transactionIndex": "0x1",
          "logIndex": "0x8",
          "removed": false
        },
        {
          "address": "0xc39161c743d0307eb9bcc9fef03eeb9dc4802de7",
          "topics": [
            "0x07ea52d82345d6e838192107d8fd7123d9c2ec8e916cd0aad13fd2b60db24644"
          ],
          "data": "0x000000000000000000000000000000000000000000000000000000000000006000000000000000000000000000000000000000000000000000000000000001200000000000000000000000000000000000000000000000000000000000000140000000000000000000000000000000000000000000000000000000000000000500000000000000000000000033051ad47157a50bb49a646256b854c60f707c860000000000000000000000006788f52439aca6bff597d3eec2dc9a44b8fee84200000000000000000000000087048402c32632b7c4d0a892d82bc1160e8b2393000000000000000000000000d24972c11f91c1bb9eaee97ec96bb9c33cf7af24000000000000000000000000e016f0f39fb7dcf14e9412d92f2049668d4d261200000000000000000000000000000000000000000000000000000000000000000000000000000000000000000000000000000000000000000000000000000005000000000000000000000000000000000000000000000000009e1e37a6670ca800000000000000000000000000000000000000000000000000834096aa8e843800000000000000000000000000000000000000000000000000834096aa8e8438000000000000000000000000000000000000000000000000007881897904b40b00000000000000000000000000000000000000000000000000a8dd44d7f0dcd5",
          "blockHash": "0x7f56c7a8018a0a56140f3a522f2b8a0ef600c77345d90ed1cbf49c37fc94d87b",
          "blockNumber": "0xc59371f",
          "transactionHash": "0x6b51cea3027fd911d19530da63118439c369e11215ebb4c9282ee4aeaf123c9d",
          "transactionIndex": "0x1",
          "logIndex": "0x9",
          "removed": false
        },
        {
          "address": "0x1a44076050125825900e736c501f859c50fe728c",
          "topics": [
            "0x1ab700d4ced0c005b164c0f789fd09fcbb0156d4c2041b8a3bfbcd961cd1567f"
          ],
          "data": "0x00000000000000000000000000000000000000000000000000000000000000600000000000000000000000000000000000000000000000000000000000000180000000000000000000000000c39161c743d0307eb9bcc9fef03eeb9dc4802de700000000000000000000000000000000000000000000000000000000000000f90100000000000001940000764800000000000000000000000080eede496655fb9047dd39d9f418d5483ed600df0000762f00000000000000000000000096a394058e2b84a89bac9667b19661ed003cf5d4444d525c93177926a4c917eda92bbbdbf6c851e80b7b0403fb4fe01773f1be710000000000000000000000002a2019b30c157db6c1c01306b8025167dbe1803b000000000000000a0000000000000000000000003a6f28e8ddd232b02c72c491bd1626f69d2fb32900000000000000000000000045dce8e4f2dc005a5f28206a46cb034697eeda8e000000000000000000000000000000000000000000000000000000000000760300000000000000000000000000000000000000000000000000000000000000000000000000002c0003010011010000000000000000000000000003d090010013030000000000000000000000000000000f42400000000000000000000000000000000000000000",
          "blockHash": "0x7f56c7a8018a0a56140f3a522f2b8a0ef600c77345d90ed1cbf49c37fc94d87b",
          "blockNumber": "0xc59371f",
          "transactionHash": "0x6b51cea3027fd911d19530da63118439c369e11215ebb4c9282ee4aeaf123c9d",
          "transactionIndex": "0x1",
          "logIndex": "0xa",
          "removed": false
        },
        {
          "address": "0x80eede496655fb9047dd39d9f418d5483ed600df",
          "topics": [
            "0x85496b760a4b7f8d66384b9df21b381f5d1b1e79f229a47aaf4c232edc2fe59a",
            "0x444d525c93177926a4c917eda92bbbdbf6c851e80b7b0403fb4fe01773f1be71",
            "0x0000000000000000000000003a6f28e8ddd232b02c72c491bd1626f69d2fb329"
          ],
          "data": "0x000000000000000000000000000000000000000000000000000000000000762f000000000000000000000000000000000000000000000000000009184e72a000000000000000000000000000000000000000000000000000000009184e72a000",
          "blockHash": "0x7f56c7a8018a0a56140f3a522f2b8a0ef600c77345d90ed1cbf49c37fc94d87b",
          "blockNumber": "0xc59371f",
          "transactionHash": "0x6b51cea3027fd911d19530da63118439c369e11215ebb4c9282ee4aeaf123c9d",
          "transactionIndex": "0x1",
          "logIndex": "0xb",
          "removed": false
        },
        {
          "address": "0x3a6f28e8ddd232b02c72c491bd1626f69d2fb329",
          "topics": [
            "0xbc9ee36b6ca0bdd5b3840e6d329dd19a2490d880c7ce24d9818aa593adfb35be",
            "0x00000000000000000000000045dce8e4f2dc005a5f28206a46cb034697eeda8e",
            "0x0000000000000000000000000000000000000000000000000000000000007603",
            "0x00000000000000000000000045dce8e4f2dc005a5f28206a46cb034697eeda8e"
          ],
          "data": "0x00000000000000000000000080eede496655fb9047dd39d9f418d5483ed600df000000000000000000000000000000000000000000000000000009184e72a000",
          "blockHash": "0x7f56c7a8018a0a56140f3a522f2b8a0ef600c77345d90ed1cbf49c37fc94d87b",
          "blockNumber": "0xc59371f",
          "transactionHash": "0x6b51cea3027fd911d19530da63118439c369e11215ebb4c9282ee4aeaf123c9d",
          "transactionIndex": "0x1",
          "logIndex": "0xc",
          "removed": false
        }
      ],
      "logsBloom": "0x00100000000400000000000200000000000000000000000000000000001000000000080000000400000000000800000040000000000000000000000200200000000002000000000000000208000000000000000200000000000000000000000000000008020000008020000000000800000000001010100000000010010000000000000000800080000000080000000000000800000000000000000020000000020000108000000020100000000000000000000000400000000440400000000000000002000000000000000080000400001000000000000000000000000020000010040020000000000000000000802008000000018000000000000000000000",
      "type": "0x0",
      "transactionHash": "0x6b51cea3027fd911d19530da63118439c369e11215ebb4c9282ee4aeaf123c9d",
      "transactionIndex": "0x1",
      "blockHash": "0x7f56c7a8018a0a56140f3a522f2b8a0ef600c77345d90ed1cbf49c37fc94d87b",
      "blockNumber": "0xc59371f",
      "gasUsed": "0x96797",
      "effectiveGasPrice": "0xcce416600",
      "from": "0x45dce8e4f2dc005a5f28206a46cb034697eeda8e",
      "to": "0x3a6f28e8ddd232b02c72c491bd1626f69d2fb329",
      "contractAddress": null
    },
    {
      "status": "0x1",
      "cumulativeGasUsed": "0x19cc5",
      "logs": [
        {
          "address": "0x5bff88ca1442c2496f7e475e9e7786383bc070c0",
          "topics": [
            "0x8c5be1e5ebec7d5bd14f71427d1e84f3dd0314c0f7b2291e5b200ac8c7c3b925",
            "0x00000000000000000000000045dce8e4f2dc005a5f28206a46cb034697eeda8e",
            "0x0000000000000000000000003a6f28e8ddd232b02c72c491bd1626f69d2fb329"
          ],
          "data": "0x000000000000000000000000000000000000000000000000000009184e72a000",
          "blockHash": "0x4a83ef03145da4f4cc558b4e09e82a880f92578e25a928b10b4fcffb677681c0",
          "blockNumber": "0xc593723",
          "transactionHash": "0xfa96eb32c9fec2421a5e7c44701140dc0410469e30f44f5c67ee6df6c939042c",
          "transactionIndex": "0x0",
          "logIndex": "0x0",
          "removed": false
        }
      ],
      "logsBloom": "0x00000000000000000000000200000000000000000000000000000000000000000000000000000000000000000000000040000000000000000000000000200000000000000000000000000200000000000000000000000000000000000000000000000000000000000000000000000000000000000000000000000000000000000000000000000000000000000000000000000800000000000000000000000000020000000000000000000000000000000000000000000000000000000010000000000000000000000000000000000000001000800000000000000000000000000010000000000000000000000000800000000000000000000000000000000800",
      "type": "0x0",
      "transactionHash": "0xfa96eb32c9fec2421a5e7c44701140dc0410469e30f44f5c67ee6df6c939042c",
      "transactionIndex": "0x0",
      "blockHash": "0x4a83ef03145da4f4cc558b4e09e82a880f92578e25a928b10b4fcffb677681c0",
      "blockNumber": "0xc593723",
      "gasUsed": "0x19cc5",
      "effectiveGasPrice": "0xcce416600",
      "from": "0x45dce8e4f2dc005a5f28206a46cb034697eeda8e",
      "to": "0x5bff88ca1442c2496f7e475e9e7786383bc070c0",
      "contractAddress": null
    },
    {
      "status": "0x1",
      "cumulativeGasUsed": "0x9871b",
      "logs": [
        {
          "address": "0x5bff88ca1442c2496f7e475e9e7786383bc070c0",
          "topics": [
            "0x8c5be1e5ebec7d5bd14f71427d1e84f3dd0314c0f7b2291e5b200ac8c7c3b925",
            "0x00000000000000000000000045dce8e4f2dc005a5f28206a46cb034697eeda8e",
            "0x0000000000000000000000003a6f28e8ddd232b02c72c491bd1626f69d2fb329"
          ],
          "data": "0x0000000000000000000000000000000000000000000000000000000000000000",
          "blockHash": "0xa3355b7439e6693b64cefb9e676d0f2e00f2153bd011bd652f0a64deaee17100",
          "blockNumber": "0xc593728",
          "transactionHash": "0x0b0650f0c1f559e16a5ba5ee50ea215f2caee45c1b1e658b1473a0c6c840e90d",
          "transactionIndex": "0x1",
          "logIndex": "0x0",
          "removed": false
        },
        {
          "address": "0x5bff88ca1442c2496f7e475e9e7786383bc070c0",
          "topics": [
            "0xddf252ad1be2c89b69c2b068fc378daa952ba7f163c4a11628f55a4df523b3ef",
            "0x00000000000000000000000045dce8e4f2dc005a5f28206a46cb034697eeda8e",
            "0x0000000000000000000000003a6f28e8ddd232b02c72c491bd1626f69d2fb329"
          ],
          "data": "0x000000000000000000000000000000000000000000000000000009184e72a000",
          "blockHash": "0xa3355b7439e6693b64cefb9e676d0f2e00f2153bd011bd652f0a64deaee17100",
          "blockNumber": "0xc593728",
          "transactionHash": "0x0b0650f0c1f559e16a5ba5ee50ea215f2caee45c1b1e658b1473a0c6c840e90d",
          "transactionIndex": "0x1",
          "logIndex": "0x1",
          "removed": false
        },
        {
          "address": "0x5bff88ca1442c2496f7e475e9e7786383bc070c0",
          "topics": [
            "0x8c5be1e5ebec7d5bd14f71427d1e84f3dd0314c0f7b2291e5b200ac8c7c3b925",
            "0x0000000000000000000000003a6f28e8ddd232b02c72c491bd1626f69d2fb329",
            "0x0000000000000000000000005bff88ca1442c2496f7e475e9e7786383bc070c0"
          ],
          "data": "0x000000000000000000000000000000000000000000000000000009184e72a000",
          "blockHash": "0xa3355b7439e6693b64cefb9e676d0f2e00f2153bd011bd652f0a64deaee17100",
          "blockNumber": "0xc593728",
          "transactionHash": "0x0b0650f0c1f559e16a5ba5ee50ea215f2caee45c1b1e658b1473a0c6c840e90d",
          "transactionIndex": "0x1",
          "logIndex": "0x2",
          "removed": false
        },
        {
          "address": "0x5bff88ca1442c2496f7e475e9e7786383bc070c0",
          "topics": [
            "0xddf252ad1be2c89b69c2b068fc378daa952ba7f163c4a11628f55a4df523b3ef",
            "0x0000000000000000000000003a6f28e8ddd232b02c72c491bd1626f69d2fb329",
            "0x0000000000000000000000000000000000000000000000000000000000000000"
          ],
          "data": "0x000000000000000000000000000000000000000000000000000009184e72a000",
          "blockHash": "0xa3355b7439e6693b64cefb9e676d0f2e00f2153bd011bd652f0a64deaee17100",
          "blockNumber": "0xc593728",
          "transactionHash": "0x0b0650f0c1f559e16a5ba5ee50ea215f2caee45c1b1e658b1473a0c6c840e90d",
          "transactionIndex": "0x1",
          "logIndex": "0x3",
          "removed": false
        },
        {
          "address": "0xc39161c743d0307eb9bcc9fef03eeb9dc4802de7",
          "topics": [
            "0x61ed099e74a97a1d7f8bb0952a88ca8b7b8ebd00c126ea04671f92a81213318a"
          ],
          "data": "0x000000000000000000000000c097ab8cd7b053326dfe9fb3e3a31a0cce3b526f0000000000000000000000000000000000000000000000000439fe6930c7362e",
          "blockHash": "0xa3355b7439e6693b64cefb9e676d0f2e00f2153bd011bd652f0a64deaee17100",
          "blockNumber": "0xc593728",
          "transactionHash": "0x0b0650f0c1f559e16a5ba5ee50ea215f2caee45c1b1e658b1473a0c6c840e90d",
          "transactionIndex": "0x1",
          "logIndex": "0x4",
          "removed": false
        },
        {
          "address": "0xc39161c743d0307eb9bcc9fef03eeb9dc4802de7",
          "topics": [
            "0x07ea52d82345d6e838192107d8fd7123d9c2ec8e916cd0aad13fd2b60db24644"
          ],
          "data": "0x000000000000000000000000000000000000000000000000000000000000006000000000000000000000000000000000000000000000000000000000000001200000000000000000000000000000000000000000000000000000000000000140000000000000000000000000000000000000000000000000000000000000000500000000000000000000000033051ad47157a50bb49a646256b854c60f707c860000000000000000000000006788f52439aca6bff597d3eec2dc9a44b8fee84200000000000000000000000087048402c32632b7c4d0a892d82bc1160e8b2393000000000000000000000000d24972c11f91c1bb9eaee97ec96bb9c33cf7af24000000000000000000000000e016f0f39fb7dcf14e9412d92f2049668d4d261200000000000000000000000000000000000000000000000000000000000000000000000000000000000000000000000000000000000000000000000000000005000000000000000000000000000000000000000000000000009e1e37a6670ca800000000000000000000000000000000000000000000000000834096aa8e843800000000000000000000000000000000000000000000000000834096aa8e8438000000000000000000000000000000000000000000000000007881897904b40b00000000000000000000000000000000000000000000000000a8dd44d7f0dcd5",
          "blockHash": "0xa3355b7439e6693b64cefb9e676d0f2e00f2153bd011bd652f0a64deaee17100",
          "blockNumber": "0xc593728",
          "transactionHash": "0x0b0650f0c1f559e16a5ba5ee50ea215f2caee45c1b1e658b1473a0c6c840e90d",
          "transactionIndex": "0x1",
          "logIndex": "0x5",
          "removed": false
        },
        {
          "address": "0x1a44076050125825900e736c501f859c50fe728c",
          "topics": [
            "0x1ab700d4ced0c005b164c0f789fd09fcbb0156d4c2041b8a3bfbcd961cd1567f"
          ],
          "data": "0x00000000000000000000000000000000000000000000000000000000000000600000000000000000000000000000000000000000000000000000000000000180000000000000000000000000c39161c743d0307eb9bcc9fef03eeb9dc4802de700000000000000000000000000000000000000000000000000000000000000f9010000000000000133000076480000000000000000000000005bff88ca1442c2496f7e475e9e7786383bc070c00000762f00000000000000000000000088aa7854d3b2daa5e37e7ce73a1f39669623a361730f0395458b89b4363f9bd01c7b0d9c2efe7f8db59a6f05ed9ff56e616c3cec0000000000000000000000002a2019b30c157db6c1c01306b8025167dbe1803b000000000000000a0000000000000000000000003a6f28e8ddd232b02c72c491bd1626f69d2fb32900000000000000000000000045dce8e4f2dc005a5f28206a46cb034697eeda8e000000000000000000000000000000000000000000000000000000000000760300000000000000000000000000000000000000000000000000000000000000000000000000002c0003010011010000000000000000000000000003d090010013030000000000000000000000000000000f42400000000000000000000000000000000000000000",
          "blockHash": "0xa3355b7439e6693b64cefb9e676d0f2e00f2153bd011bd652f0a64deaee17100",
          "blockNumber": "0xc593728",
          "transactionHash": "0x0b0650f0c1f559e16a5ba5ee50ea215f2caee45c1b1e658b1473a0c6c840e90d",
          "transactionIndex": "0x1",
          "logIndex": "0x6",
          "removed": false
        },
        {
          "address": "0x5bff88ca1442c2496f7e475e9e7786383bc070c0",
          "topics": [
            "0x85496b760a4b7f8d66384b9df21b381f5d1b1e79f229a47aaf4c232edc2fe59a",
            "0x730f0395458b89b4363f9bd01c7b0d9c2efe7f8db59a6f05ed9ff56e616c3cec",
            "0x0000000000000000000000003a6f28e8ddd232b02c72c491bd1626f69d2fb329"
          ],
          "data": "0x000000000000000000000000000000000000000000000000000000000000762f000000000000000000000000000000000000000000000000000009184e72a000000000000000000000000000000000000000000000000000000009184e72a000",
          "blockHash": "0xa3355b7439e6693b64cefb9e676d0f2e00f2153bd011bd652f0a64deaee17100",
          "blockNumber": "0xc593728",
          "transactionHash": "0x0b0650f0c1f559e16a5ba5ee50ea215f2caee45c1b1e658b1473a0c6c840e90d",
          "transactionIndex": "0x1",
          "logIndex": "0x7",
          "removed": false
        },
        {
          "address": "0x3a6f28e8ddd232b02c72c491bd1626f69d2fb329",
          "topics": [
            "0xbc9ee36b6ca0bdd5b3840e6d329dd19a2490d880c7ce24d9818aa593adfb35be",
            "0x00000000000000000000000045dce8e4f2dc005a5f28206a46cb034697eeda8e",
            "0x0000000000000000000000000000000000000000000000000000000000007603",
            "0x00000000000000000000000045dce8e4f2dc005a5f28206a46cb034697eeda8e"
          ],
          "data": "0x0000000000000000000000005bff88ca1442c2496f7e475e9e7786383bc070c0000000000000000000000000000000000000000000000000000009184e72a000",
          "blockHash": "0xa3355b7439e6693b64cefb9e676d0f2e00f2153bd011bd652f0a64deaee17100",
          "blockNumber": "0xc593728",
          "transactionHash": "0x0b0650f0c1f559e16a5ba5ee50ea215f2caee45c1b1e658b1473a0c6c840e90d",
          "transactionIndex": "0x1",
          "logIndex": "0x8",
          "removed": false
        }
      ],
      "logsBloom": "0x00100000000400000000000200000000000000000000000000000000001000000001000000000000000000000000000040000000000000000000000000200000000002000000000000000208000000000000000200000000000001000000000000000008020000008020000000000800000000000010100000000010000000000000001000800080000000080000000000000800000000000000000000000000020000108000000020100000000800000000000000400000000440400010000000000002000000010000000080000400001000800000000000000000000020000010040000000000000000040000802000000000018000000000000000000800",
      "type": "0x0",
      "transactionHash": "0x0b0650f0c1f559e16a5ba5ee50ea215f2caee45c1b1e658b1473a0c6c840e90d",
      "transactionIndex": "0x1",
      "blockHash": "0xa3355b7439e6693b64cefb9e676d0f2e00f2153bd011bd652f0a64deaee17100",
      "blockNumber": "0xc593728",
      "gasUsed": "0x934dc",
      "effectiveGasPrice": "0xcce416600",
      "from": "0x45dce8e4f2dc005a5f28206a46cb034697eeda8e",
      "to": "0x3a6f28e8ddd232b02c72c491bd1626f69d2fb329",
      "contractAddress": null
    },
    {
      "status": "0x1",
      "cumulativeGasUsed": "0x19cdb",
      "logs": [
        {
          "address": "0x43edd7f3831b08fe70b7555ddd373c8bf65a9050",
          "topics": [
            "0x8c5be1e5ebec7d5bd14f71427d1e84f3dd0314c0f7b2291e5b200ac8c7c3b925",
            "0x00000000000000000000000045dce8e4f2dc005a5f28206a46cb034697eeda8e",
            "0x0000000000000000000000003a6f28e8ddd232b02c72c491bd1626f69d2fb329"
          ],
          "data": "0x000000000000000000000000000000000000000000000000000009184e72a000",
          "blockHash": "0x3e675212c785ce61bd97fcecce71818f0880faf89ce873bfa8650e38559fc210",
          "blockNumber": "0xc59372c",
          "transactionHash": "0xb7c4c6281c48e1111a35d46b6e7ca368682cbbe7a64d854d3d2559a3cb5a47f6",
          "transactionIndex": "0x0",
          "logIndex": "0x0",
          "removed": false
        }
      ],
      "logsBloom": "0x00000000000000000000000200000000000000000000000000000000000000000000000000000000000000000000000040000000000000000000000000200000000000000000000000000200000000000000000000000000000000000000000000000000000000000000000000000000000000000000000000000000000000000000000000000000000000000000000000000800000000000000000000000000020000000000000002000000000000000000000000000000000000000000000000000000000000000000000000000000001000000000000000000000000000000010000000000000000000040000800000000000000000000000000000080000",
      "type": "0x0",
      "transactionHash": "0xb7c4c6281c48e1111a35d46b6e7ca368682cbbe7a64d854d3d2559a3cb5a47f6",
      "transactionIndex": "0x0",
      "blockHash": "0x3e675212c785ce61bd97fcecce71818f0880faf89ce873bfa8650e38559fc210",
      "blockNumber": "0xc59372c",
      "gasUsed": "0x19cdb",
      "effectiveGasPrice": "0xcce416600",
      "from": "0x45dce8e4f2dc005a5f28206a46cb034697eeda8e",
      "to": "0x43edd7f3831b08fe70b7555ddd373c8bf65a9050",
      "contractAddress": null
    },
    {
      "status": "0x1",
      "cumulativeGasUsed": "0x934f2",
      "logs": [
        {
          "address": "0x43edd7f3831b08fe70b7555ddd373c8bf65a9050",
          "topics": [
            "0x8c5be1e5ebec7d5bd14f71427d1e84f3dd0314c0f7b2291e5b200ac8c7c3b925",
            "0x00000000000000000000000045dce8e4f2dc005a5f28206a46cb034697eeda8e",
            "0x0000000000000000000000003a6f28e8ddd232b02c72c491bd1626f69d2fb329"
          ],
          "data": "0x0000000000000000000000000000000000000000000000000000000000000000",
          "blockHash": "0xf1d74f9adc9af255d8152c89e3b6ac88e553bd47cdb6dccf0c6694f4e5460c68",
          "blockNumber": "0xc593731",
          "transactionHash": "0x27cb55b3d081fd5f66629b99ce42c99af548953ce0bed374737d7943b996fd64",
          "transactionIndex": "0x0",
          "logIndex": "0x0",
          "removed": false
        },
        {
          "address": "0x43edd7f3831b08fe70b7555ddd373c8bf65a9050",
          "topics": [
            "0xddf252ad1be2c89b69c2b068fc378daa952ba7f163c4a11628f55a4df523b3ef",
            "0x00000000000000000000000045dce8e4f2dc005a5f28206a46cb034697eeda8e",
            "0x0000000000000000000000003a6f28e8ddd232b02c72c491bd1626f69d2fb329"
          ],
          "data": "0x000000000000000000000000000000000000000000000000000009184e72a000",
          "blockHash": "0xf1d74f9adc9af255d8152c89e3b6ac88e553bd47cdb6dccf0c6694f4e5460c68",
          "blockNumber": "0xc593731",
          "transactionHash": "0x27cb55b3d081fd5f66629b99ce42c99af548953ce0bed374737d7943b996fd64",
          "transactionIndex": "0x0",
          "logIndex": "0x1",
          "removed": false
        },
        {
          "address": "0x43edd7f3831b08fe70b7555ddd373c8bf65a9050",
          "topics": [
            "0x8c5be1e5ebec7d5bd14f71427d1e84f3dd0314c0f7b2291e5b200ac8c7c3b925",
            "0x0000000000000000000000003a6f28e8ddd232b02c72c491bd1626f69d2fb329",
            "0x00000000000000000000000043edd7f3831b08fe70b7555ddd373c8bf65a9050"
          ],
          "data": "0x000000000000000000000000000000000000000000000000000009184e72a000",
          "blockHash": "0xf1d74f9adc9af255d8152c89e3b6ac88e553bd47cdb6dccf0c6694f4e5460c68",
          "blockNumber": "0xc593731",
          "transactionHash": "0x27cb55b3d081fd5f66629b99ce42c99af548953ce0bed374737d7943b996fd64",
          "transactionIndex": "0x0",
          "logIndex": "0x2",
          "removed": false
        },
        {
          "address": "0x43edd7f3831b08fe70b7555ddd373c8bf65a9050",
          "topics": [
            "0xddf252ad1be2c89b69c2b068fc378daa952ba7f163c4a11628f55a4df523b3ef",
            "0x0000000000000000000000003a6f28e8ddd232b02c72c491bd1626f69d2fb329",
            "0x0000000000000000000000000000000000000000000000000000000000000000"
          ],
          "data": "0x000000000000000000000000000000000000000000000000000009184e72a000",
          "blockHash": "0xf1d74f9adc9af255d8152c89e3b6ac88e553bd47cdb6dccf0c6694f4e5460c68",
          "blockNumber": "0xc593731",
          "transactionHash": "0x27cb55b3d081fd5f66629b99ce42c99af548953ce0bed374737d7943b996fd64",
          "transactionIndex": "0x0",
          "logIndex": "0x3",
          "removed": false
        },
        {
          "address": "0xc39161c743d0307eb9bcc9fef03eeb9dc4802de7",
          "topics": [
            "0x61ed099e74a97a1d7f8bb0952a88ca8b7b8ebd00c126ea04671f92a81213318a"
          ],
          "data": "0x000000000000000000000000c097ab8cd7b053326dfe9fb3e3a31a0cce3b526f0000000000000000000000000000000000000000000000000439fe6930c7362e",
          "blockHash": "0xf1d74f9adc9af255d8152c89e3b6ac88e553bd47cdb6dccf0c6694f4e5460c68",
          "blockNumber": "0xc593731",
          "transactionHash": "0x27cb55b3d081fd5f66629b99ce42c99af548953ce0bed374737d7943b996fd64",
          "transactionIndex": "0x0",
          "logIndex": "0x4",
          "removed": false
        },
        {
          "address": "0xc39161c743d0307eb9bcc9fef03eeb9dc4802de7",
          "topics": [
            "0x07ea52d82345d6e838192107d8fd7123d9c2ec8e916cd0aad13fd2b60db24644"
          ],
          "data": "0x000000000000000000000000000000000000000000000000000000000000006000000000000000000000000000000000000000000000000000000000000001200000000000000000000000000000000000000000000000000000000000000140000000000000000000000000000000000000000000000000000000000000000500000000000000000000000033051ad47157a50bb49a646256b854c60f707c860000000000000000000000006788f52439aca6bff597d3eec2dc9a44b8fee84200000000000000000000000087048402c32632b7c4d0a892d82bc1160e8b2393000000000000000000000000d24972c11f91c1bb9eaee97ec96bb9c33cf7af24000000000000000000000000e016f0f39fb7dcf14e9412d92f2049668d4d261200000000000000000000000000000000000000000000000000000000000000000000000000000000000000000000000000000000000000000000000000000005000000000000000000000000000000000000000000000000009e1e37a6670ca800000000000000000000000000000000000000000000000000834096aa8e843800000000000000000000000000000000000000000000000000834096aa8e8438000000000000000000000000000000000000000000000000007881897904b40b00000000000000000000000000000000000000000000000000a8dd44d7f0dcd5",
          "blockHash": "0xf1d74f9adc9af255d8152c89e3b6ac88e553bd47cdb6dccf0c6694f4e5460c68",
          "blockNumber": "0xc593731",
          "transactionHash": "0x27cb55b3d081fd5f66629b99ce42c99af548953ce0bed374737d7943b996fd64",
          "transactionIndex": "0x0",
          "logIndex": "0x5",
          "removed": false
        },
        {
          "address": "0x1a44076050125825900e736c501f859c50fe728c",
          "topics": [
            "0x1ab700d4ced0c005b164c0f789fd09fcbb0156d4c2041b8a3bfbcd961cd1567f"
          ],
          "data": "0x00000000000000000000000000000000000000000000000000000000000000600000000000000000000000000000000000000000000000000000000000000180000000000000000000000000c39161c743d0307eb9bcc9fef03eeb9dc4802de700000000000000000000000000000000000000000000000000000000000000f90100000000000000400000764800000000000000000000000043edd7f3831b08fe70b7555ddd373c8bf65a90500000762f0000000000000000000000009abfe1f8a999b0011ecd6116649aee8d575f560418e3b9c351e0c15817116ccab4fd0f3a65411a4cef5c1d431e28745205e040d40000000000000000000000002a2019b30c157db6c1c01306b8025167dbe1803b000000000000000a0000000000000000000000003a6f28e8ddd232b02c72c491bd1626f69d2fb32900000000000000000000000045dce8e4f2dc005a5f28206a46cb034697eeda8e000000000000000000000000000000000000000000000000000000000000760300000000000000000000000000000000000000000000000000000000000000000000000000002c0003010011010000000000000000000000000003d090010013030000000000000000000000000000000f42400000000000000000000000000000000000000000",
          "blockHash": "0xf1d74f9adc9af255d8152c89e3b6ac88e553bd47cdb6dccf0c6694f4e5460c68",
          "blockNumber": "0xc593731",
          "transactionHash": "0x27cb55b3d081fd5f66629b99ce42c99af548953ce0bed374737d7943b996fd64",
          "transactionIndex": "0x0",
          "logIndex": "0x6",
          "removed": false
        },
        {
          "address": "0x43edd7f3831b08fe70b7555ddd373c8bf65a9050",
          "topics": [
            "0x85496b760a4b7f8d66384b9df21b381f5d1b1e79f229a47aaf4c232edc2fe59a",
            "0x18e3b9c351e0c15817116ccab4fd0f3a65411a4cef5c1d431e28745205e040d4",
            "0x0000000000000000000000003a6f28e8ddd232b02c72c491bd1626f69d2fb329"
          ],
          "data": "0x000000000000000000000000000000000000000000000000000000000000762f000000000000000000000000000000000000000000000000000009184e72a000000000000000000000000000000000000000000000000000000009184e72a000",
          "blockHash": "0xf1d74f9adc9af255d8152c89e3b6ac88e553bd47cdb6dccf0c6694f4e5460c68",
          "blockNumber": "0xc593731",
          "transactionHash": "0x27cb55b3d081fd5f66629b99ce42c99af548953ce0bed374737d7943b996fd64",
          "transactionIndex": "0x0",
          "logIndex": "0x7",
          "removed": false
        },
        {
          "address": "0x3a6f28e8ddd232b02c72c491bd1626f69d2fb329",
          "topics": [
            "0xbc9ee36b6ca0bdd5b3840e6d329dd19a2490d880c7ce24d9818aa593adfb35be",
            "0x00000000000000000000000045dce8e4f2dc005a5f28206a46cb034697eeda8e",
            "0x0000000000000000000000000000000000000000000000000000000000007603",
            "0x00000000000000000000000045dce8e4f2dc005a5f28206a46cb034697eeda8e"
          ],
          "data": "0x00000000000000000000000043edd7f3831b08fe70b7555ddd373c8bf65a9050000000000000000000000000000000000000000000000000000009184e72a000",
          "blockHash": "0xf1d74f9adc9af255d8152c89e3b6ac88e553bd47cdb6dccf0c6694f4e5460c68",
          "blockNumber": "0xc593731",
          "transactionHash": "0x27cb55b3d081fd5f66629b99ce42c99af548953ce0bed374737d7943b996fd64",
          "transactionIndex": "0x0",
          "logIndex": "0x8",
          "removed": false
        }
      ],
      "logsBloom": "0x00100000000400000000000200000000000000000000000000000000001002010000000000000000000000000000000040000000000000000000000000200000000002000000000000000208000000000000000200000000000000000000000000000008020000008020000000000800000000000010100000000018000000000000000000800080040000080000000000000800000000000000000100000000020000108000000022100000000000000000000000400000000440400000020000000002000000000000000080000400001000000000000000000000000020000010040000000000000000040000802000000000018000000000000000080000",
      "type": "0x0",
      "transactionHash": "0x27cb55b3d081fd5f66629b99ce42c99af548953ce0bed374737d7943b996fd64",
      "transactionIndex": "0x0",
      "blockHash": "0xf1d74f9adc9af255d8152c89e3b6ac88e553bd47cdb6dccf0c6694f4e5460c68",
      "blockNumber": "0xc593731",
      "gasUsed": "0x934f2",
      "effectiveGasPrice": "0xcce416600",
      "from": "0x45dce8e4f2dc005a5f28206a46cb034697eeda8e",
      "to": "0x3a6f28e8ddd232b02c72c491bd1626f69d2fb329",
      "contractAddress": null
    },
    {
      "status": "0x1",
      "cumulativeGasUsed": "0x19cdb",
      "logs": [
        {
          "address": "0x3ec3849c33291a9ef4c5db86de593eb4a37fde45",
          "topics": [
            "0x8c5be1e5ebec7d5bd14f71427d1e84f3dd0314c0f7b2291e5b200ac8c7c3b925",
            "0x00000000000000000000000045dce8e4f2dc005a5f28206a46cb034697eeda8e",
            "0x0000000000000000000000003a6f28e8ddd232b02c72c491bd1626f69d2fb329"
          ],
          "data": "0x000000000000000000000000000000000000000000000000000009184e72a000",
          "blockHash": "0x4695821ba0f54a6ae4a684a2e902e72afcec00526b67a9524b00e7fde15a7479",
          "blockNumber": "0xc593735",
          "transactionHash": "0xea3bffa955faea712f0490874e3a2375b1bcb6c7bcfc2cc2d175a67d8fd2c0c4",
          "transactionIndex": "0x0",
          "logIndex": "0x0",
          "removed": false
        }
      ],
      "logsBloom": "0x00000000000000000000000200002000000000000000000000000000000000000000000000000000000000000000000040000000000000000000000000200000000000000000000000000200000000000000000000000000000000000000000000000000000000000000000000000000000000000000000000000000000000000000000000000000000000000000000000000800000020000040000000000000020000000000000000000000000000000000000000000000000000000000000000000000000000000000000000000000001000000000000000000000000000000010000000000000000000000000800000000000000000000000000000000000",
      "type": "0x0",
      "transactionHash": "0xea3bffa955faea712f0490874e3a2375b1bcb6c7bcfc2cc2d175a67d8fd2c0c4",
      "transactionIndex": "0x0",
      "blockHash": "0x4695821ba0f54a6ae4a684a2e902e72afcec00526b67a9524b00e7fde15a7479",
      "blockNumber": "0xc593735",
      "gasUsed": "0x19cdb",
      "effectiveGasPrice": "0xcce416600",
      "from": "0x45dce8e4f2dc005a5f28206a46cb034697eeda8e",
      "to": "0x3ec3849c33291a9ef4c5db86de593eb4a37fde45",
      "contractAddress": null
    },
    {
      "status": "0x1",
      "cumulativeGasUsed": "0x98731",
      "logs": [
        {
          "address": "0x3ec3849c33291a9ef4c5db86de593eb4a37fde45",
          "topics": [
            "0x8c5be1e5ebec7d5bd14f71427d1e84f3dd0314c0f7b2291e5b200ac8c7c3b925",
            "0x00000000000000000000000045dce8e4f2dc005a5f28206a46cb034697eeda8e",
            "0x0000000000000000000000003a6f28e8ddd232b02c72c491bd1626f69d2fb329"
          ],
          "data": "0x0000000000000000000000000000000000000000000000000000000000000000",
          "blockHash": "0xa8ad78d8042d483ef100a7a68ea064b5956749599f864867877a4b378eabcdf0",
          "blockNumber": "0xc59373a",
          "transactionHash": "0x967d460d3c6ed407ed4dbaa5102ec9f693f8210f27422b8f443cd62782ccca07",
          "transactionIndex": "0x1",
          "logIndex": "0x0",
          "removed": false
        },
        {
          "address": "0x3ec3849c33291a9ef4c5db86de593eb4a37fde45",
          "topics": [
            "0xddf252ad1be2c89b69c2b068fc378daa952ba7f163c4a11628f55a4df523b3ef",
            "0x00000000000000000000000045dce8e4f2dc005a5f28206a46cb034697eeda8e",
            "0x0000000000000000000000003a6f28e8ddd232b02c72c491bd1626f69d2fb329"
          ],
          "data": "0x000000000000000000000000000000000000000000000000000009184e72a000",
          "blockHash": "0xa8ad78d8042d483ef100a7a68ea064b5956749599f864867877a4b378eabcdf0",
          "blockNumber": "0xc59373a",
          "transactionHash": "0x967d460d3c6ed407ed4dbaa5102ec9f693f8210f27422b8f443cd62782ccca07",
          "transactionIndex": "0x1",
          "logIndex": "0x1",
          "removed": false
        },
        {
          "address": "0x3ec3849c33291a9ef4c5db86de593eb4a37fde45",
          "topics": [
            "0x8c5be1e5ebec7d5bd14f71427d1e84f3dd0314c0f7b2291e5b200ac8c7c3b925",
            "0x0000000000000000000000003a6f28e8ddd232b02c72c491bd1626f69d2fb329",
            "0x0000000000000000000000003ec3849c33291a9ef4c5db86de593eb4a37fde45"
          ],
          "data": "0x000000000000000000000000000000000000000000000000000009184e72a000",
          "blockHash": "0xa8ad78d8042d483ef100a7a68ea064b5956749599f864867877a4b378eabcdf0",
          "blockNumber": "0xc59373a",
          "transactionHash": "0x967d460d3c6ed407ed4dbaa5102ec9f693f8210f27422b8f443cd62782ccca07",
          "transactionIndex": "0x1",
          "logIndex": "0x2",
          "removed": false
        },
        {
          "address": "0x3ec3849c33291a9ef4c5db86de593eb4a37fde45",
          "topics": [
            "0xddf252ad1be2c89b69c2b068fc378daa952ba7f163c4a11628f55a4df523b3ef",
            "0x0000000000000000000000003a6f28e8ddd232b02c72c491bd1626f69d2fb329",
            "0x0000000000000000000000000000000000000000000000000000000000000000"
          ],
          "data": "0x000000000000000000000000000000000000000000000000000009184e72a000",
          "blockHash": "0xa8ad78d8042d483ef100a7a68ea064b5956749599f864867877a4b378eabcdf0",
          "blockNumber": "0xc59373a",
          "transactionHash": "0x967d460d3c6ed407ed4dbaa5102ec9f693f8210f27422b8f443cd62782ccca07",
          "transactionIndex": "0x1",
          "logIndex": "0x3",
          "removed": false
        },
        {
          "address": "0xc39161c743d0307eb9bcc9fef03eeb9dc4802de7",
          "topics": [
            "0x61ed099e74a97a1d7f8bb0952a88ca8b7b8ebd00c126ea04671f92a81213318a"
          ],
          "data": "0x000000000000000000000000c097ab8cd7b053326dfe9fb3e3a31a0cce3b526f0000000000000000000000000000000000000000000000000439fe6930c7362e",
          "blockHash": "0xa8ad78d8042d483ef100a7a68ea064b5956749599f864867877a4b378eabcdf0",
          "blockNumber": "0xc59373a",
          "transactionHash": "0x967d460d3c6ed407ed4dbaa5102ec9f693f8210f27422b8f443cd62782ccca07",
          "transactionIndex": "0x1",
          "logIndex": "0x4",
          "removed": false
        },
        {
          "address": "0xc39161c743d0307eb9bcc9fef03eeb9dc4802de7",
          "topics": [
            "0x07ea52d82345d6e838192107d8fd7123d9c2ec8e916cd0aad13fd2b60db24644"
          ],
          "data": "0x000000000000000000000000000000000000000000000000000000000000006000000000000000000000000000000000000000000000000000000000000001200000000000000000000000000000000000000000000000000000000000000140000000000000000000000000000000000000000000000000000000000000000500000000000000000000000033051ad47157a50bb49a646256b854c60f707c860000000000000000000000006788f52439aca6bff597d3eec2dc9a44b8fee84200000000000000000000000087048402c32632b7c4d0a892d82bc1160e8b2393000000000000000000000000d24972c11f91c1bb9eaee97ec96bb9c33cf7af24000000000000000000000000e016f0f39fb7dcf14e9412d92f2049668d4d261200000000000000000000000000000000000000000000000000000000000000000000000000000000000000000000000000000000000000000000000000000005000000000000000000000000000000000000000000000000009e1e37a6670ca800000000000000000000000000000000000000000000000000834096aa8e843800000000000000000000000000000000000000000000000000834096aa8e8438000000000000000000000000000000000000000000000000007881897904b40b00000000000000000000000000000000000000000000000000a8dd44d7f0dcd5",
          "blockHash": "0xa8ad78d8042d483ef100a7a68ea064b5956749599f864867877a4b378eabcdf0",
          "blockNumber": "0xc59373a",
          "transactionHash": "0x967d460d3c6ed407ed4dbaa5102ec9f693f8210f27422b8f443cd62782ccca07",
          "transactionIndex": "0x1",
          "logIndex": "0x5",
          "removed": false
        },
        {
          "address": "0x1a44076050125825900e736c501f859c50fe728c",
          "topics": [
            "0x1ab700d4ced0c005b164c0f789fd09fcbb0156d4c2041b8a3bfbcd961cd1567f"
          ],
          "data": "0x00000000000000000000000000000000000000000000000000000000000000600000000000000000000000000000000000000000000000000000000000000180000000000000000000000000c39161c743d0307eb9bcc9fef03eeb9dc4802de700000000000000000000000000000000000000000000000000000000000000f901000000000000003c000076480000000000000000000000003ec3849c33291a9ef4c5db86de593eb4a37fde450000762f000000000000000000000000999dfabe3b1cc2ef66eb032eea42fea329bba168dcfff72831e798fc53055ce267ad3e87307f0f064604c9f574dafe9dae05c1af0000000000000000000000002a2019b30c157db6c1c01306b8025167dbe1803b000000000000000a0000000000000000000000003a6f28e8ddd232b02c72c491bd1626f69d2fb32900000000000000000000000045dce8e4f2dc005a5f28206a46cb034697eeda8e000000000000000000000000000000000000000000000000000000000000760300000000000000000000000000000000000000000000000000000000000000000000000000002c0003010011010000000000000000000000000003d090010013030000000000000000000000000000000f42400000000000000000000000000000000000000000",
          "blockHash": "0xa8ad78d8042d483ef100a7a68ea064b5956749599f864867877a4b378eabcdf0",
          "blockNumber": "0xc59373a",
          "transactionHash": "0x967d460d3c6ed407ed4dbaa5102ec9f693f8210f27422b8f443cd62782ccca07",
          "transactionIndex": "0x1",
          "logIndex": "0x6",
          "removed": false
        },
        {
          "address": "0x3ec3849c33291a9ef4c5db86de593eb4a37fde45",
          "topics": [
            "0x85496b760a4b7f8d66384b9df21b381f5d1b1e79f229a47aaf4c232edc2fe59a",
            "0xdcfff72831e798fc53055ce267ad3e87307f0f064604c9f574dafe9dae05c1af",
            "0x0000000000000000000000003a6f28e8ddd232b02c72c491bd1626f69d2fb329"
          ],
          "data": "0x000000000000000000000000000000000000000000000000000000000000762f000000000000000000000000000000000000000000000000000009184e72a000000000000000000000000000000000000000000000000000000009184e72a000",
          "blockHash": "0xa8ad78d8042d483ef100a7a68ea064b5956749599f864867877a4b378eabcdf0",
          "blockNumber": "0xc59373a",
          "transactionHash": "0x967d460d3c6ed407ed4dbaa5102ec9f693f8210f27422b8f443cd62782ccca07",
          "transactionIndex": "0x1",
          "logIndex": "0x7",
          "removed": false
        },
        {
          "address": "0x3a6f28e8ddd232b02c72c491bd1626f69d2fb329",
          "topics": [
            "0xbc9ee36b6ca0bdd5b3840e6d329dd19a2490d880c7ce24d9818aa593adfb35be",
            "0x00000000000000000000000045dce8e4f2dc005a5f28206a46cb034697eeda8e",
            "0x0000000000000000000000000000000000000000000000000000000000007603",
            "0x00000000000000000000000045dce8e4f2dc005a5f28206a46cb034697eeda8e"
          ],
          "data": "0x0000000000000000000000003ec3849c33291a9ef4c5db86de593eb4a37fde45000000000000000000000000000000000000000000000000000009184e72a000",
          "blockHash": "0xa8ad78d8042d483ef100a7a68ea064b5956749599f864867877a4b378eabcdf0",
          "blockNumber": "0xc59373a",
          "transactionHash": "0x967d460d3c6ed407ed4dbaa5102ec9f693f8210f27422b8f443cd62782ccca07",
          "transactionIndex": "0x1",
          "logIndex": "0x8",
          "removed": false
        }
      ],
      "logsBloom": "0x00100000000400000000000200002000000000000000000000000000081000000000000000000000000000000000000040000000000000000000000000200020000002800000000000000208000000000000000200000000000000200000000000000008020000008020000000000800000000000010100000000010000000000000000000800080000000080000000000000800000020000040004000000000020000108000000020100000400000000000000000400000000440400000000000000002000000000000000080000400001000000000000000000000000020000010040000000000000000000000802000000000018000000000000000000000",
      "type": "0x0",
      "transactionHash": "0x967d460d3c6ed407ed4dbaa5102ec9f693f8210f27422b8f443cd62782ccca07",
      "transactionIndex": "0x1",
      "blockHash": "0xa8ad78d8042d483ef100a7a68ea064b5956749599f864867877a4b378eabcdf0",
      "blockNumber": "0xc59373a",
      "gasUsed": "0x934f2",
      "effectiveGasPrice": "0xcce416600",
      "from": "0x45dce8e4f2dc005a5f28206a46cb034697eeda8e",
      "to": "0x3a6f28e8ddd232b02c72c491bd1626f69d2fb329",
      "contractAddress": null
    },
    {
      "status": "0x1",
      "cumulativeGasUsed": "0x19cc5",
      "logs": [
        {
          "address": "0x64445f0aecc51e94ad52d8ac56b7190e764e561a",
          "topics": [
            "0x8c5be1e5ebec7d5bd14f71427d1e84f3dd0314c0f7b2291e5b200ac8c7c3b925",
            "0x00000000000000000000000045dce8e4f2dc005a5f28206a46cb034697eeda8e",
            "0x0000000000000000000000003a6f28e8ddd232b02c72c491bd1626f69d2fb329"
          ],
          "data": "0x000000000000000000000000000000000000000000000000000009184e72a000",
          "blockHash": "0x5f17c370fea30a861655c9210828f78c7f097323b06bc16ab9ec4870458f2f58",
          "blockNumber": "0xc59373e",
          "transactionHash": "0xcfde0fcbf44ec64265d401607d3f80102db79ea85655f9b4005bb5efdaab3b41",
          "transactionIndex": "0x0",
          "logIndex": "0x0",
          "removed": false
        }
      ],
      "logsBloom": "0x00000000000000000000000200000000000000000000000000000000000000000000000000000000000000000000000040000000000000000000000000200000002000000000000000000200000000000000000000000000000000000000000000000000000000000000000000000000000000000000000000000000000000000000000000000000000000000000000000000800000000000000000000000000020000000000000000000008000000000000000000000000000000000000000000000000000000000000000000000000001000000000000000000000000000000010000000000000000000000000800000000008000000000000000000000000",
      "type": "0x0",
      "transactionHash": "0xcfde0fcbf44ec64265d401607d3f80102db79ea85655f9b4005bb5efdaab3b41",
      "transactionIndex": "0x0",
      "blockHash": "0x5f17c370fea30a861655c9210828f78c7f097323b06bc16ab9ec4870458f2f58",
      "blockNumber": "0xc59373e",
      "gasUsed": "0x19cc5",
      "effectiveGasPrice": "0xcce416600",
      "from": "0x45dce8e4f2dc005a5f28206a46cb034697eeda8e",
      "to": "0x64445f0aecc51e94ad52d8ac56b7190e764e561a",
      "contractAddress": null
    },
    {
      "status": "0x1",
      "cumulativeGasUsed": "0x934dc",
      "logs": [
        {
          "address": "0x64445f0aecc51e94ad52d8ac56b7190e764e561a",
          "topics": [
            "0x8c5be1e5ebec7d5bd14f71427d1e84f3dd0314c0f7b2291e5b200ac8c7c3b925",
            "0x00000000000000000000000045dce8e4f2dc005a5f28206a46cb034697eeda8e",
            "0x0000000000000000000000003a6f28e8ddd232b02c72c491bd1626f69d2fb329"
          ],
          "data": "0x0000000000000000000000000000000000000000000000000000000000000000",
          "blockHash": "0x1c79dca285c9107382bfdf22047be3908ee2e24bbd9c42e87ef53efc386faf91",
          "blockNumber": "0xc593743",
          "transactionHash": "0x61c302aa80715de350a74fb19cd11235b4f7da592955e40fb35703730da1f40c",
          "transactionIndex": "0x0",
          "logIndex": "0x0",
          "removed": false
        },
        {
          "address": "0x64445f0aecc51e94ad52d8ac56b7190e764e561a",
          "topics": [
            "0xddf252ad1be2c89b69c2b068fc378daa952ba7f163c4a11628f55a4df523b3ef",
            "0x00000000000000000000000045dce8e4f2dc005a5f28206a46cb034697eeda8e",
            "0x0000000000000000000000003a6f28e8ddd232b02c72c491bd1626f69d2fb329"
          ],
          "data": "0x000000000000000000000000000000000000000000000000000009184e72a000",
          "blockHash": "0x1c79dca285c9107382bfdf22047be3908ee2e24bbd9c42e87ef53efc386faf91",
          "blockNumber": "0xc593743",
          "transactionHash": "0x61c302aa80715de350a74fb19cd11235b4f7da592955e40fb35703730da1f40c",
          "transactionIndex": "0x0",
          "logIndex": "0x1",
          "removed": false
        },
        {
          "address": "0x64445f0aecc51e94ad52d8ac56b7190e764e561a",
          "topics": [
            "0x8c5be1e5ebec7d5bd14f71427d1e84f3dd0314c0f7b2291e5b200ac8c7c3b925",
            "0x0000000000000000000000003a6f28e8ddd232b02c72c491bd1626f69d2fb329",
            "0x00000000000000000000000064445f0aecc51e94ad52d8ac56b7190e764e561a"
          ],
          "data": "0x000000000000000000000000000000000000000000000000000009184e72a000",
          "blockHash": "0x1c79dca285c9107382bfdf22047be3908ee2e24bbd9c42e87ef53efc386faf91",
          "blockNumber": "0xc593743",
          "transactionHash": "0x61c302aa80715de350a74fb19cd11235b4f7da592955e40fb35703730da1f40c",
          "transactionIndex": "0x0",
          "logIndex": "0x2",
          "removed": false
        },
        {
          "address": "0x64445f0aecc51e94ad52d8ac56b7190e764e561a",
          "topics": [
            "0xddf252ad1be2c89b69c2b068fc378daa952ba7f163c4a11628f55a4df523b3ef",
            "0x0000000000000000000000003a6f28e8ddd232b02c72c491bd1626f69d2fb329",
            "0x0000000000000000000000000000000000000000000000000000000000000000"
          ],
          "data": "0x000000000000000000000000000000000000000000000000000009184e72a000",
          "blockHash": "0x1c79dca285c9107382bfdf22047be3908ee2e24bbd9c42e87ef53efc386faf91",
          "blockNumber": "0xc593743",
          "transactionHash": "0x61c302aa80715de350a74fb19cd11235b4f7da592955e40fb35703730da1f40c",
          "transactionIndex": "0x0",
          "logIndex": "0x3",
          "removed": false
        },
        {
          "address": "0xc39161c743d0307eb9bcc9fef03eeb9dc4802de7",
          "topics": [
            "0x61ed099e74a97a1d7f8bb0952a88ca8b7b8ebd00c126ea04671f92a81213318a"
          ],
          "data": "0x000000000000000000000000c097ab8cd7b053326dfe9fb3e3a31a0cce3b526f0000000000000000000000000000000000000000000000000439fe6930c7362e",
          "blockHash": "0x1c79dca285c9107382bfdf22047be3908ee2e24bbd9c42e87ef53efc386faf91",
          "blockNumber": "0xc593743",
          "transactionHash": "0x61c302aa80715de350a74fb19cd11235b4f7da592955e40fb35703730da1f40c",
          "transactionIndex": "0x0",
          "logIndex": "0x4",
          "removed": false
        },
        {
          "address": "0xc39161c743d0307eb9bcc9fef03eeb9dc4802de7",
          "topics": [
            "0x07ea52d82345d6e838192107d8fd7123d9c2ec8e916cd0aad13fd2b60db24644"
          ],
          "data": "0x000000000000000000000000000000000000000000000000000000000000006000000000000000000000000000000000000000000000000000000000000001200000000000000000000000000000000000000000000000000000000000000140000000000000000000000000000000000000000000000000000000000000000500000000000000000000000033051ad47157a50bb49a646256b854c60f707c860000000000000000000000006788f52439aca6bff597d3eec2dc9a44b8fee84200000000000000000000000087048402c32632b7c4d0a892d82bc1160e8b2393000000000000000000000000d24972c11f91c1bb9eaee97ec96bb9c33cf7af24000000000000000000000000e016f0f39fb7dcf14e9412d92f2049668d4d261200000000000000000000000000000000000000000000000000000000000000000000000000000000000000000000000000000000000000000000000000000005000000000000000000000000000000000000000000000000009e1e37a6670ca800000000000000000000000000000000000000000000000000834096aa8e843800000000000000000000000000000000000000000000000000834096aa8e8438000000000000000000000000000000000000000000000000007881897904b40b00000000000000000000000000000000000000000000000000a8dd44d7f0dcd5",
          "blockHash": "0x1c79dca285c9107382bfdf22047be3908ee2e24bbd9c42e87ef53efc386faf91",
          "blockNumber": "0xc593743",
          "transactionHash": "0x61c302aa80715de350a74fb19cd11235b4f7da592955e40fb35703730da1f40c",
          "transactionIndex": "0x0",
          "logIndex": "0x5",
          "removed": false
        },
        {
          "address": "0x1a44076050125825900e736c501f859c50fe728c",
          "topics": [
            "0x1ab700d4ced0c005b164c0f789fd09fcbb0156d4c2041b8a3bfbcd961cd1567f"
          ],
          "data": "0x00000000000000000000000000000000000000000000000000000000000000600000000000000000000000000000000000000000000000000000000000000180000000000000000000000000c39161c743d0307eb9bcc9fef03eeb9dc4802de700000000000000000000000000000000000000000000000000000000000000f90100000000000001c70000764800000000000000000000000064445f0aecc51e94ad52d8ac56b7190e764e561a0000762f000000000000000000000000d86fbbd0c8715d2c1f40e451e5c3514e65e7576af636e2e9f9715b58246cb58d44fe528f1fbe90bfd4c1639d347af40431e2d3bb0000000000000000000000002a2019b30c157db6c1c01306b8025167dbe1803b000000000000000a0000000000000000000000003a6f28e8ddd232b02c72c491bd1626f69d2fb32900000000000000000000000045dce8e4f2dc005a5f28206a46cb034697eeda8e000000000000000000000000000000000000000000000000000000000000760300000000000000000000000000000000000000000000000000000000000000000000000000002c0003010011010000000000000000000000000003d090010013030000000000000000000000000000000f42400000000000000000000000000000000000000000",
          "blockHash": "0x1c79dca285c9107382bfdf22047be3908ee2e24bbd9c42e87ef53efc386faf91",
          "blockNumber": "0xc593743",
          "transactionHash": "0x61c302aa80715de350a74fb19cd11235b4f7da592955e40fb35703730da1f40c",
          "transactionIndex": "0x0",
          "logIndex": "0x6",
          "removed": false
        },
        {
          "address": "0x64445f0aecc51e94ad52d8ac56b7190e764e561a",
          "topics": [
            "0x85496b760a4b7f8d66384b9df21b381f5d1b1e79f229a47aaf4c232edc2fe59a",
            "0xf636e2e9f9715b58246cb58d44fe528f1fbe90bfd4c1639d347af40431e2d3bb",
            "0x0000000000000000000000003a6f28e8ddd232b02c72c491bd1626f69d2fb329"
          ],
          "data": "0x000000000000000000000000000000000000000000000000000000000000762f000000000000000000000000000000000000000000000000000009184e72a000000000000000000000000000000000000000000000000000000009184e72a000",
          "blockHash": "0x1c79dca285c9107382bfdf22047be3908ee2e24bbd9c42e87ef53efc386faf91",
          "blockNumber": "0xc593743",
          "transactionHash": "0x61c302aa80715de350a74fb19cd11235b4f7da592955e40fb35703730da1f40c",
          "transactionIndex": "0x0",
          "logIndex": "0x7",
          "removed": false
        },
        {
          "address": "0x3a6f28e8ddd232b02c72c491bd1626f69d2fb329",
          "topics": [
            "0xbc9ee36b6ca0bdd5b3840e6d329dd19a2490d880c7ce24d9818aa593adfb35be",
            "0x00000000000000000000000045dce8e4f2dc005a5f28206a46cb034697eeda8e",
            "0x0000000000000000000000000000000000000000000000000000000000007603",
            "0x00000000000000000000000045dce8e4f2dc005a5f28206a46cb034697eeda8e"
          ],
          "data": "0x00000000000000000000000064445f0aecc51e94ad52d8ac56b7190e764e561a000000000000000000000000000000000000000000000000000009184e72a000",
          "blockHash": "0x1c79dca285c9107382bfdf22047be3908ee2e24bbd9c42e87ef53efc386faf91",
          "blockNumber": "0xc593743",
          "transactionHash": "0x61c302aa80715de350a74fb19cd11235b4f7da592955e40fb35703730da1f40c",
          "transactionIndex": "0x0",
          "logIndex": "0x8",
          "removed": false
        }
      ],
      "logsBloom": "0x0010000000040000000000020000000000000000000000000000000000100000000000000000000000000000000000004000000000000000000000000020000000200200000000000000020800000000000000020000000000000000000000000000000802000000802000000000080000000000001010000000001000000000000000000080008000000008000000000000080000000000004000000000000002000010800000002010000c800000000000000000400000000440400000000000200002000000000000000080000400001000000000000000000000000020000010040000000000000000000000802800000008018000000000000000000002",
      "type": "0x0",
      "transactionHash": "0x61c302aa80715de350a74fb19cd11235b4f7da592955e40fb35703730da1f40c",
      "transactionIndex": "0x0",
      "blockHash": "0x1c79dca285c9107382bfdf22047be3908ee2e24bbd9c42e87ef53efc386faf91",
      "blockNumber": "0xc593743",
      "gasUsed": "0x934dc",
      "effectiveGasPrice": "0xcce416600",
      "from": "0x45dce8e4f2dc005a5f28206a46cb034697eeda8e",
      "to": "0x3a6f28e8ddd232b02c72c491bd1626f69d2fb329",
      "contractAddress": null
    },
    {
      "status": "0x1",
      "cumulativeGasUsed": "0x19cdb",
      "logs": [
        {
          "address": "0x90581eca9469d8d7f5d3b60f4715027adfcf7927",
          "topics": [
            "0x8c5be1e5ebec7d5bd14f71427d1e84f3dd0314c0f7b2291e5b200ac8c7c3b925",
            "0x00000000000000000000000045dce8e4f2dc005a5f28206a46cb034697eeda8e",
            "0x0000000000000000000000003a6f28e8ddd232b02c72c491bd1626f69d2fb329"
          ],
          "data": "0x000000000000000000000000000000000000000000000000000009184e72a000",
          "blockHash": "0xc87476a711acf3be38c06e791b44d5c699d511b9838b9baac1a55eada739a775",
          "blockNumber": "0xc593747",
          "transactionHash": "0x8a025a246287df8ae4e0cfb5cea5ab491086b15ab7f2b78110e3d9119e67d63c",
          "transactionIndex": "0x0",
          "logIndex": "0x0",
          "removed": false
        }
      ],
      "logsBloom": "0x00000000000000000000000200000000000000000000000000000000000000000000000000000000000000000000000040000000000000000000000000200000000000000000000000000200000000000000000000000000000000000000000000000000000000000000000000000000000000000000000000000000000000000000000000000004000010000000000000000800000000000000000000000000020000000000000000000000000000000000000000000000000000000000000000000000000000000000000000000000001000000000000000000000000000000010000000000000000000000000800000400000000000000000000000000000",
      "type": "0x0",
      "transactionHash": "0x8a025a246287df8ae4e0cfb5cea5ab491086b15ab7f2b78110e3d9119e67d63c",
      "transactionIndex": "0x0",
      "blockHash": "0xc87476a711acf3be38c06e791b44d5c699d511b9838b9baac1a55eada739a775",
      "blockNumber": "0xc593747",
      "gasUsed": "0x19cdb",
      "effectiveGasPrice": "0xcce416600",
      "from": "0x45dce8e4f2dc005a5f28206a46cb034697eeda8e",
      "to": "0x90581eca9469d8d7f5d3b60f4715027adfcf7927",
      "contractAddress": null
    },
    {
      "status": "0x1",
      "cumulativeGasUsed": "0xa42de",
      "logs": [
        {
          "address": "0x90581eca9469d8d7f5d3b60f4715027adfcf7927",
          "topics": [
            "0x8c5be1e5ebec7d5bd14f71427d1e84f3dd0314c0f7b2291e5b200ac8c7c3b925",
            "0x00000000000000000000000045dce8e4f2dc005a5f28206a46cb034697eeda8e",
            "0x0000000000000000000000003a6f28e8ddd232b02c72c491bd1626f69d2fb329"
          ],
          "data": "0x0000000000000000000000000000000000000000000000000000000000000000",
          "blockHash": "0x829b540491ff3e5a11414929b1bfba71f6f2fb73a005876956017a022b5b7c6e",
          "blockNumber": "0xc593749",
          "transactionHash": "0x12f119257b28107dca6409e595c6ea1204a01604ae12a5939f8ec11d79fc5292",
          "transactionIndex": "0x0",
          "logIndex": "0x0",
          "removed": false
        },
        {
          "address": "0x90581eca9469d8d7f5d3b60f4715027adfcf7927",
          "topics": [
            "0xddf252ad1be2c89b69c2b068fc378daa952ba7f163c4a11628f55a4df523b3ef",
            "0x00000000000000000000000045dce8e4f2dc005a5f28206a46cb034697eeda8e",
            "0x0000000000000000000000003a6f28e8ddd232b02c72c491bd1626f69d2fb329"
          ],
          "data": "0x000000000000000000000000000000000000000000000000000009184e72a000",
          "blockHash": "0x829b540491ff3e5a11414929b1bfba71f6f2fb73a005876956017a022b5b7c6e",
          "blockNumber": "0xc593749",
          "transactionHash": "0x12f119257b28107dca6409e595c6ea1204a01604ae12a5939f8ec11d79fc5292",
          "transactionIndex": "0x0",
          "logIndex": "0x1",
          "removed": false
        },
        {
          "address": "0x90581eca9469d8d7f5d3b60f4715027adfcf7927",
          "topics": [
            "0x8c5be1e5ebec7d5bd14f71427d1e84f3dd0314c0f7b2291e5b200ac8c7c3b925",
            "0x0000000000000000000000003a6f28e8ddd232b02c72c491bd1626f69d2fb329",
            "0x00000000000000000000000090581eca9469d8d7f5d3b60f4715027adfcf7927"
          ],
          "data": "0x000000000000000000000000000000000000000000000000000009184e72a000",
          "blockHash": "0x829b540491ff3e5a11414929b1bfba71f6f2fb73a005876956017a022b5b7c6e",
          "blockNumber": "0xc593749",
          "transactionHash": "0x12f119257b28107dca6409e595c6ea1204a01604ae12a5939f8ec11d79fc5292",
          "transactionIndex": "0x0",
          "logIndex": "0x2",
          "removed": false
        },
        {
          "address": "0x90581eca9469d8d7f5d3b60f4715027adfcf7927",
          "topics": [
            "0xddf252ad1be2c89b69c2b068fc378daa952ba7f163c4a11628f55a4df523b3ef",
            "0x0000000000000000000000003a6f28e8ddd232b02c72c491bd1626f69d2fb329",
            "0x0000000000000000000000000000000000000000000000000000000000000000"
          ],
          "data": "0x000000000000000000000000000000000000000000000000000009184e72a000",
          "blockHash": "0x829b540491ff3e5a11414929b1bfba71f6f2fb73a005876956017a022b5b7c6e",
          "blockNumber": "0xc593749",
          "transactionHash": "0x12f119257b28107dca6409e595c6ea1204a01604ae12a5939f8ec11d79fc5292",
          "transactionIndex": "0x0",
          "logIndex": "0x3",
          "removed": false
        },
        {
          "address": "0xc39161c743d0307eb9bcc9fef03eeb9dc4802de7",
          "topics": [
            "0x61ed099e74a97a1d7f8bb0952a88ca8b7b8ebd00c126ea04671f92a81213318a"
          ],
          "data": "0x000000000000000000000000c097ab8cd7b053326dfe9fb3e3a31a0cce3b526f0000000000000000000000000000000000000000000000000439fe6930c7362e",
          "blockHash": "0x829b540491ff3e5a11414929b1bfba71f6f2fb73a005876956017a022b5b7c6e",
          "blockNumber": "0xc593749",
          "transactionHash": "0x12f119257b28107dca6409e595c6ea1204a01604ae12a5939f8ec11d79fc5292",
          "transactionIndex": "0x0",
          "logIndex": "0x4",
          "removed": false
        },
        {
          "address": "0xc39161c743d0307eb9bcc9fef03eeb9dc4802de7",
          "topics": [
            "0x07ea52d82345d6e838192107d8fd7123d9c2ec8e916cd0aad13fd2b60db24644"
          ],
          "data": "0x000000000000000000000000000000000000000000000000000000000000006000000000000000000000000000000000000000000000000000000000000001200000000000000000000000000000000000000000000000000000000000000140000000000000000000000000000000000000000000000000000000000000000500000000000000000000000033051ad47157a50bb49a646256b854c60f707c860000000000000000000000006788f52439aca6bff597d3eec2dc9a44b8fee84200000000000000000000000087048402c32632b7c4d0a892d82bc1160e8b2393000000000000000000000000d24972c11f91c1bb9eaee97ec96bb9c33cf7af24000000000000000000000000e016f0f39fb7dcf14e9412d92f2049668d4d261200000000000000000000000000000000000000000000000000000000000000000000000000000000000000000000000000000000000000000000000000000005000000000000000000000000000000000000000000000000009e1e37a6670ca800000000000000000000000000000000000000000000000000834096aa8e843800000000000000000000000000000000000000000000000000834096aa8e8438000000000000000000000000000000000000000000000000007881897904b40b00000000000000000000000000000000000000000000000000a8dd44d7f0dcd5",
          "blockHash": "0x829b540491ff3e5a11414929b1bfba71f6f2fb73a005876956017a022b5b7c6e",
          "blockNumber": "0xc593749",
          "transactionHash": "0x12f119257b28107dca6409e595c6ea1204a01604ae12a5939f8ec11d79fc5292",
          "transactionIndex": "0x0",
          "logIndex": "0x5",
          "removed": false
        },
        {
          "address": "0x1a44076050125825900e736c501f859c50fe728c",
          "topics": [
            "0x1ab700d4ced0c005b164c0f789fd09fcbb0156d4c2041b8a3bfbcd961cd1567f"
          ],
          "data": "0x00000000000000000000000000000000000000000000000000000000000000600000000000000000000000000000000000000000000000000000000000000180000000000000000000000000c39161c743d0307eb9bcc9fef03eeb9dc4802de700000000000000000000000000000000000000000000000000000000000000f90100000000000000040000764800000000000000000000000090581eca9469d8d7f5d3b60f4715027adfcf79270000762f00000000000000000000000075c38d46001b0f8108c4136216bd2694982c20fc340e489b4c52257f0c76ed1de7a6cd5b3ee2ded818d063255c85ec5d2b7d8c750000000000000000000000002a2019b30c157db6c1c01306b8025167dbe1803b000000000000000a0000000000000000000000003a6f28e8ddd232b02c72c491bd1626f69d2fb32900000000000000000000000045dce8e4f2dc005a5f28206a46cb034697eeda8e000000000000000000000000000000000000000000000000000000000000760300000000000000000000000000000000000000000000000000000000000000000000000000002c0003010011010000000000000000000000000003d090010013030000000000000000000000000000000f42400000000000000000000000000000000000000000",
          "blockHash": "0x829b540491ff3e5a11414929b1bfba71f6f2fb73a005876956017a022b5b7c6e",
          "blockNumber": "0xc593749",
          "transactionHash": "0x12f119257b28107dca6409e595c6ea1204a01604ae12a5939f8ec11d79fc5292",
          "transactionIndex": "0x0",
          "logIndex": "0x6",
          "removed": false
        },
        {
          "address": "0x90581eca9469d8d7f5d3b60f4715027adfcf7927",
          "topics": [
            "0x85496b760a4b7f8d66384b9df21b381f5d1b1e79f229a47aaf4c232edc2fe59a",
            "0x340e489b4c52257f0c76ed1de7a6cd5b3ee2ded818d063255c85ec5d2b7d8c75",
            "0x0000000000000000000000003a6f28e8ddd232b02c72c491bd1626f69d2fb329"
          ],
          "data": "0x000000000000000000000000000000000000000000000000000000000000762f000000000000000000000000000000000000000000000000000009184e72a000000000000000000000000000000000000000000000000000000009184e72a000",
          "blockHash": "0x829b540491ff3e5a11414929b1bfba71f6f2fb73a005876956017a022b5b7c6e",
          "blockNumber": "0xc593749",
          "transactionHash": "0x12f119257b28107dca6409e595c6ea1204a01604ae12a5939f8ec11d79fc5292",
          "transactionIndex": "0x0",
          "logIndex": "0x7",
          "removed": false
        },
        {
          "address": "0x3a6f28e8ddd232b02c72c491bd1626f69d2fb329",
          "topics": [
            "0xbc9ee36b6ca0bdd5b3840e6d329dd19a2490d880c7ce24d9818aa593adfb35be",
            "0x00000000000000000000000045dce8e4f2dc005a5f28206a46cb034697eeda8e",
            "0x0000000000000000000000000000000000000000000000000000000000007603",
            "0x00000000000000000000000045dce8e4f2dc005a5f28206a46cb034697eeda8e"
          ],
          "data": "0x00000000000000000000000090581eca9469d8d7f5d3b60f4715027adfcf7927000000000000000000000000000000000000000000000000000009184e72a000",
          "blockHash": "0x829b540491ff3e5a11414929b1bfba71f6f2fb73a005876956017a022b5b7c6e",
          "blockNumber": "0xc593749",
          "transactionHash": "0x12f119257b28107dca6409e595c6ea1204a01604ae12a5939f8ec11d79fc5292",
          "transactionIndex": "0x0",
          "logIndex": "0x8",
          "removed": false
        }
      ],
      "logsBloom": "0x00100000000400000000000200000000000000000000000000000000001000080000000000000000000000000000000040000000000000000000000000200001000002000000000000000208000000000000000200000000000000000000000000000008020000008020000000000800000000010010100000000010000000000000000000800084000010080008000000000800000000000000000000000000020000108000000020100000000000000000000000400000000440400000000000000002000000000000000088000500001000000000000000000000000020000010040000000000000000000000802000400000018000000000000000000000",
      "type": "0x0",
      "transactionHash": "0x12f119257b28107dca6409e595c6ea1204a01604ae12a5939f8ec11d79fc5292",
      "transactionIndex": "0x0",
      "blockHash": "0x829b540491ff3e5a11414929b1bfba71f6f2fb73a005876956017a022b5b7c6e",
      "blockNumber": "0xc593749",
      "gasUsed": "0xa42de",
      "effectiveGasPrice": "0xcce416600",
      "from": "0x45dce8e4f2dc005a5f28206a46cb034697eeda8e",
      "to": "0x3a6f28e8ddd232b02c72c491bd1626f69d2fb329",
      "contractAddress": null
    }
  ],
  "libraries": [],
  "pending": [],
  "returns": {},
  "timestamp": 1778652430260,
  "chain": 1329,
  "commit": "3c1e5d2a"
}