{
  "transactions": [
    {
      "hash": "0xacaf70fb8c90c143520547d6ca606c8c103323a3a17f266cefc765d3b9031e54",
      "transactionType": "CALL",
      "contractName": null,
      "contractAddress": "0xfc00000000000000000000000000000000000002",
      "function": "approve(address,uint256)",
      "arguments": [
        "0xd86fBBd0c8715d2C1f40e451e5C3514e65E7576A",
        "10000000000000"
      ],
      "transaction": {
        "from": "0x45dce8e4f2dc005a5f28206a46cb034697eeda8e",
        "to": "0xfc00000000000000000000000000000000000002",
        "gas": "0x12142",
        "value": "0x0",
        "input": "0x095ea7b3000000000000000000000000d86fbbd0c8715d2c1f40e451e5c3514e65e7576a000000000000000000000000000000000000000000000000000009184e72a000",
        "nonce": "0x157",
        "chainId": "0xfc"
      },
      "additionalContracts": [],
      "isFixedGasLimit": false
    },
    {
      "hash": "0x14818dff031a5b95284501763e75d9e25c84c49ee2a3a84f55bc8efbd572fe7a",
      "transactionType": "CALL",
      "contractName": null,
      "contractAddress": "0xd86fbbd0c8715d2c1f40e451e5c3514e65e7576a",
      "function": "send((uint32,bytes32,uint256,uint256,bytes,bytes,bytes),(uint256,uint256),address)",
      "arguments": [
        "(30106, 0x00000000000000000000000045dce8e4f2dc005a5f28206a46cb034697eeda8e, 10000000000000, 0, 0x, 0x, 0x)",
        "(99281871798257366, 0)",
        "0x45DCE8e4F2Dc005A5F28206A46cb034697eEDA8e"
      ],
      "transaction": {
        "from": "0x45dce8e4f2dc005a5f28206a46cb034697eeda8e",
        "to": "0xd86fbbd0c8715d2c1f40e451e5c3514e65e7576a",
        "gas": "0x8443b",
        "value": "0x160b8561d2bc6d6",
        "input": "0xc7c7f5b300000000000000000000000000000000000000000000000000000000000000800000000000000000000000000000000000000000000000000160b8561d2bc6d6000000000000000000000000000000000000000000000000000000000000000000000000000000000000000045dce8e4f2dc005a5f28206a46cb034697eeda8e000000000000000000000000000000000000000000000000000000000000759a00000000000000000000000045dce8e4f2dc005a5f28206a46cb034697eeda8e000000000000000000000000000000000000000000000000000009184e72a000000000000000000000000000000000000000000000000000000000000000000000000000000000000000000000000000000000000000000000000000000000e000000000000000000000000000000000000000000000000000000000000001000000000000000000000000000000000000000000000000000000000000000120000000000000000000000000000000000000000000000000000000000000000000000000000000000000000000000000000000000000000000000000000000000000000000000000000000000000000000000000000000000000000000000000",
        "nonce": "0x158",
        "chainId": "0xfc"
      },
      "additionalContracts": [],
      "isFixedGasLimit": false
    },
    {
      "hash": "0xaa944b2db689f97985c85f8c1ee225bf86259cc5f37c42471aa1a2e867caf0ee",
      "transactionType": "CALL",
      "contractName": null,
      "contractAddress": "0xfc00000000000000000000000000000000000008",
      "function": "approve(address,uint256)",
      "arguments": [
        "0x88Aa7854D3b2dAA5e37E7Ce73A1F39669623a361",
        "10000000000000"
      ],
      "transaction": {
        "from": "0x45dce8e4f2dc005a5f28206a46cb034697eeda8e",
        "to": "0xfc00000000000000000000000000000000000008",
        "gas": "0x121f3",
        "value": "0x0",
        "input": "0x095ea7b300000000000000000000000088aa7854d3b2daa5e37e7ce73a1f39669623a361000000000000000000000000000000000000000000000000000009184e72a000",
        "nonce": "0x159",
        "chainId": "0xfc"
      },
      "additionalContracts": [],
      "isFixedGasLimit": false
    },
    {
      "hash": "0xc15cc8bd79f3b33ce54124aad6a531d4575d2a3bc48dd989db126fcd38b54f2a",
      "transactionType": "CALL",
      "contractName": null,
      "contractAddress": "0x88aa7854d3b2daa5e37e7ce73a1f39669623a361",
      "function": "send((uint32,bytes32,uint256,uint256,bytes,bytes,bytes),(uint256,uint256),address)",
      "arguments": [
        "(30106, 0x00000000000000000000000045dce8e4f2dc005a5f28206a46cb034697eeda8e, 10000000000000, 0, 0x, 0x, 0x)",
        "(99281871798257366, 0)",
        "0x45DCE8e4F2Dc005A5F28206A46cb034697eEDA8e"
      ],
      "transaction": {
        "from": "0x45dce8e4f2dc005a5f28206a46cb034697eeda8e",
        "to": "0x88aa7854d3b2daa5e37e7ce73a1f39669623a361",
        "gas": "0x9238d",
        "value": "0x160b8561d2bc6d6",
        "input": "0xc7c7f5b300000000000000000000000000000000000000000000000000000000000000800000000000000000000000000000000000000000000000000160b8561d2bc6d6000000000000000000000000000000000000000000000000000000000000000000000000000000000000000045dce8e4f2dc005a5f28206a46cb034697eeda8e000000000000000000000000000000000000000000000000000000000000759a00000000000000000000000045dce8e4f2dc005a5f28206a46cb034697eeda8e000000000000000000000000000000000000000000000000000009184e72a000000000000000000000000000000000000000000000000000000000000000000000000000000000000000000000000000000000000000000000000000000000e000000000000000000000000000000000000000000000000000000000000001000000000000000000000000000000000000000000000000000000000000000120000000000000000000000000000000000000000000000000000000000000000000000000000000000000000000000000000000000000000000000000000000000000000000000000000000000000000000000000000000000000000000000000",
        "nonce": "0x15a",
        "chainId": "0xfc"
      },
      "additionalContracts": [],
      "isFixedGasLimit": false
    },
    {
      "hash": "0xe1c8bd25f880004cdbf0f6bb1a74fd9a57d127b38fdbaddf6d3d9ee5911acaa8",
      "transactionType": "CALL",
      "contractName": null,
      "contractAddress": "0xfc00000000000000000000000000000000000006",
      "function": "approve(address,uint256)",
      "arguments": [
        "0x9aBFE1F8a999B0011ecD6116649AEe8D575F5604",
        "10000000000000"
      ],
      "transaction": {
        "from": "0x45dce8e4f2dc005a5f28206a46cb034697eeda8e",
        "to": "0xfc00000000000000000000000000000000000006",
        "gas": "0x12171",
        "value": "0x0",
        "input": "0x095ea7b30000000000000000000000009abfe1f8a999b0011ecd6116649aee8d575f5604000000000000000000000000000000000000000000000000000009184e72a000",
        "nonce": "0x15b",
        "chainId": "0xfc"
      },
      "additionalContracts": [],
      "isFixedGasLimit": false
    },
    {
      "hash": "0x6593578c475d266b518ffeb719caa3fcb68214e26d600135c9f0a6b3d052e6a7",
      "transactionType": "CALL",
      "contractName": null,
      "contractAddress": "0x9abfe1f8a999b0011ecd6116649aee8d575f5604",
      "function": "send((uint32,bytes32,uint256,uint256,bytes,bytes,bytes),(uint256,uint256),address)",
      "arguments": [
        "(30106, 0x00000000000000000000000045dce8e4f2dc005a5f28206a46cb034697eeda8e, 10000000000000, 0, 0x, 0x, 0x)",
        "(99281871798257366, 0)",
        "0x45DCE8e4F2Dc005A5F28206A46cb034697eEDA8e"
      ],
      "transaction": {
        "from": "0x45dce8e4f2dc005a5f28206a46cb034697eeda8e",
        "to": "0x9abfe1f8a999b0011ecd6116649aee8d575f5604",
        "gas": "0x8c076",
        "value": "0x160b8561d2bc6d6",
        "input": "0xc7c7f5b300000000000000000000000000000000000000000000000000000000000000800000000000000000000000000000000000000000000000000160b8561d2bc6d6000000000000000000000000000000000000000000000000000000000000000000000000000000000000000045dce8e4f2dc005a5f28206a46cb034697eeda8e000000000000000000000000000000000000000000000000000000000000759a00000000000000000000000045dce8e4f2dc005a5f28206a46cb034697eeda8e000000000000000000000000000000000000000000000000000009184e72a000000000000000000000000000000000000000000000000000000000000000000000000000000000000000000000000000000000000000000000000000000000e000000000000000000000000000000000000000000000000000000000000001000000000000000000000000000000000000000000000000000000000000000120000000000000000000000000000000000000000000000000000000000000000000000000000000000000000000000000000000000000000000000000000000000000000000000000000000000000000000000000000000000000000000000000",
        "nonce": "0x15c",
        "chainId": "0xfc"
      },
      "additionalContracts": [],
      "isFixedGasLimit": false
    },
    {
      "hash": "0x37e069a88e9586a1d9c6614f9cb46273ba00fb3c216a43e653517f20157d4569",
      "transactionType": "CALL",
      "contractName": null,
      "contractAddress": "0xfc00000000000000000000000000000000000003",
      "function": "approve(address,uint256)",
      "arguments": [
        "0x75c38D46001b0F8108c4136216bd2694982C20FC",
        "10000000000000"
      ],
      "transaction": {
        "from": "0x45dce8e4f2dc005a5f28206a46cb034697eeda8e",
        "to": "0xfc00000000000000000000000000000000000003",
        "gas": "0x1251c",
        "value": "0x0",
        "input": "0x095ea7b300000000000000000000000075c38d46001b0f8108c4136216bd2694982c20fc000000000000000000000000000000000000000000000000000009184e72a000",
        "nonce": "0x15d",
        "chainId": "0xfc"
      },
      "additionalContracts": [],
      "isFixedGasLimit": false
    },
    {
      "hash": "0x25e7645c71855f87a35b539073270d56f51aa731d06824ca109223843e93b0a2",
      "transactionType": "CALL",
      "contractName": null,
      "contractAddress": "0x75c38d46001b0f8108c4136216bd2694982c20fc",
      "function": "send((uint32,bytes32,uint256,uint256,bytes,bytes,bytes),(uint256,uint256),address)",
      "arguments": [
        "(30106, 0x00000000000000000000000045dce8e4f2dc005a5f28206a46cb034697eeda8e, 10000000000000, 0, 0x, 0x, 0x)",
        "(99281871798257366, 0)",
        "0x45DCE8e4F2Dc005A5F28206A46cb034697eEDA8e"
      ],
      "transaction": {
        "from": "0x45dce8e4f2dc005a5f28206a46cb034697eeda8e",
        "to": "0x75c38d46001b0f8108c4136216bd2694982c20fc",
        "gas": "0x8a4f8",
        "value": "0x160b8561d2bc6d6",
        "input": "0xc7c7f5b300000000000000000000000000000000000000000000000000000000000000800000000000000000000000000000000000000000000000000160b8561d2bc6d6000000000000000000000000000000000000000000000000000000000000000000000000000000000000000045dce8e4f2dc005a5f28206a46cb034697eeda8e000000000000000000000000000000000000000000000000000000000000759a00000000000000000000000045dce8e4f2dc005a5f28206a46cb034697eeda8e000000000000000000000000000000000000000000000000000009184e72a000000000000000000000000000000000000000000000000000000000000000000000000000000000000000000000000000000000000000000000000000000000e000000000000000000000000000000000000000000000000000000000000001000000000000000000000000000000000000000000000000000000000000000120000000000000000000000000000000000000000000000000000000000000000000000000000000000000000000000000000000000000000000000000000000000000000000000000000000000000000000000000000000000000000000000000",
        "nonce": "0x15e",
        "chainId": "0xfc"
      },
      "additionalContracts": [],
      "isFixedGasLimit": false
    },
    {
      "hash": "0x939341141d1b6c20665251075281542df447766904a806b2cf0e93a77cf65bba",
      "transactionType": "CALL",
      "contractName": null,
      "contractAddress": "0xfc00000000000000000000000000000000000005",
      "function": "approve(address,uint256)",
      "arguments": [
        "0x999dfAbe3b1cc2EF66eB032Eea42FeA329bBa168",
        "10000000000000"
      ],
      "transaction": {
        "from": "0x45dce8e4f2dc005a5f28206a46cb034697eeda8e",
        "to": "0xfc00000000000000000000000000000000000005",
        "gas": "0x1366b",
        "value": "0x0",
        "input": "0x095ea7b3000000000000000000000000999dfabe3b1cc2ef66eb032eea42fea329bba168000000000000000000000000000000000000000000000000000009184e72a000",
        "nonce": "0x15f",
        "chainId": "0xfc"
      },
      "additionalContracts": [],
      "isFixedGasLimit": false
    },
    {
      "hash": "0x140650888da69210b7e2f494c34851acbc6df949a4946ce6509ca3bb742e28f9",
      "transactionType": "CALL",
      "contractName": null,
      "contractAddress": "0x999dfabe3b1cc2ef66eb032eea42fea329bba168",
      "function": "send((uint32,bytes32,uint256,uint256,bytes,bytes,bytes),(uint256,uint256),address)",
      "arguments": [
        "(30106, 0x00000000000000000000000045dce8e4f2dc005a5f28206a46cb034697eeda8e, 10000000000000, 0, 0x, 0x, 0x)",
        "(99281871798257366, 0)",
        "0x45DCE8e4F2Dc005A5F28206A46cb034697eEDA8e"
      ],
      "transaction": {
        "from": "0x45dce8e4f2dc005a5f28206a46cb034697eeda8e",
        "to": "0x999dfabe3b1cc2ef66eb032eea42fea329bba168",
        "gas": "0x8498d",
        "value": "0x160b8561d2bc6d6",
        "input": "0xc7c7f5b300000000000000000000000000000000000000000000000000000000000000800000000000000000000000000000000000000000000000000160b8561d2bc6d6000000000000000000000000000000000000000000000000000000000000000000000000000000000000000045dce8e4f2dc005a5f28206a46cb034697eeda8e000000000000000000000000000000000000000000000000000000000000759a00000000000000000000000045dce8e4f2dc005a5f28206a46cb034697eeda8e000000000000000000000000000000000000000000000000000009184e72a000000000000000000000000000000000000000000000000000000000000000000000000000000000000000000000000000000000000000000000000000000000e000000000000000000000000000000000000000000000000000000000000001000000000000000000000000000000000000000000000000000000000000000120000000000000000000000000000000000000000000000000000000000000000000000000000000000000000000000000000000000000000000000000000000000000000000000000000000000000000000000000000000000000000000000000",
        "nonce": "0x160",
        "chainId": "0xfc"
      },
      "additionalContracts": [],
      "isFixedGasLimit": false
    },
    {
      "hash": "0x94486eb9b26d19c91e26280e0c86febe02972048008e00bdfd863af22749f138",
      "transactionType": "CALL",
      "contractName": null,
      "contractAddress": "0xfc00000000000000000000000000000000000001",
      "function": "approve(address,uint256)",
      "arguments": [
        "0x96A394058E2b84A89bac9667B19661Ed003cF5D4",
        "10000000000000"
      ],
      "transaction": {
        "from": "0x45dce8e4f2dc005a5f28206a46cb034697eeda8e",
        "to": "0xfc00000000000000000000000000000000000001",
        "gas": "0x121a6",
        "value": "0x0",
        "input": "0x095ea7b300000000000000000000000096a394058e2b84a89bac9667b19661ed003cf5d4000000000000000000000000000000000000000000000000000009184e72a000",
        "nonce": "0x161",
        "chainId": "0xfc"
      },
      "additionalContracts": [],
      "isFixedGasLimit": false
    },
    {
      "hash": "0x1210e1558bc061386ba46ad9a19a77ac9580a32007b3527fbd3072c790b62b24",
      "transactionType": "CALL",
      "contractName": null,
      "contractAddress": "0x96a394058e2b84a89bac9667b19661ed003cf5d4",
      "function": "send((uint32,bytes32,uint256,uint256,bytes,bytes,bytes),(uint256,uint256),address)",
      "arguments": [
        "(30106, 0x00000000000000000000000045dce8e4f2dc005a5f28206a46cb034697eeda8e, 10000000000000, 0, 0x, 0x, 0x)",
        "(99281871798257366, 0)",
        "0x45DCE8e4F2Dc005A5F28206A46cb034697eEDA8e"
      ],
      "transaction": {
        "from": "0x45dce8e4f2dc005a5f28206a46cb034697eeda8e",
        "to": "0x96a394058e2b84a89bac9667b19661ed003cf5d4",
        "gas": "0x8dcc3",
        "value": "0x160b8561d2bc6d6",
        "input": "0xc7c7f5b300000000000000000000000000000000000000000000000000000000000000800000000000000000000000000000000000000000000000000160b8561d2bc6d6000000000000000000000000000000000000000000000000000000000000000000000000000000000000000045dce8e4f2dc005a5f28206a46cb034697eeda8e000000000000000000000000000000000000000000000000000000000000759a00000000000000000000000045dce8e4f2dc005a5f28206a46cb034697eeda8e000000000000000000000000000000000000000000000000000009184e72a000000000000000000000000000000000000000000000000000000000000000000000000000000000000000000000000000000000000000000000000000000000e000000000000000000000000000000000000000000000000000000000000001000000000000000000000000000000000000000000000000000000000000000120000000000000000000000000000000000000000000000000000000000000000000000000000000000000000000000000000000000000000000000000000000000000000000000000000000000000000000000000000000000000000000000000",
        "nonce": "0x162",
        "chainId": "0xfc"
      },
      "additionalContracts": [],
      "isFixedGasLimit": false
    }
  ],
  "receipts": [
    {
      "status": "0x1",
      "cumulativeGasUsed": "0x18e5b",
      "logs": [
        {
          "address": "0xfc00000000000000000000000000000000000002",
          "topics": [
            "0x8c5be1e5ebec7d5bd14f71427d1e84f3dd0314c0f7b2291e5b200ac8c7c3b925",
            "0x00000000000000000000000045dce8e4f2dc005a5f28206a46cb034697eeda8e",
            "0x000000000000000000000000d86fbbd0c8715d2c1f40e451e5c3514e65e7576a"
          ],
          "data": "0x000000000000000000000000000000000000000000000000000009184e72a000",
          "blockHash": "0xe2c4b3d82fdd8a0541a7c29ca2f7550228785cd9ca767bca095460c4a3583899",
          "blockNumber": "0x22415c3",
          "blockTimestamp": "0x6a0408dd",
          "transactionHash": "0x37e069a88e9586a1d9c6614f9cb46273ba00fb3c216a43e653517f20157d4569",
          "transactionIndex": "0x1",
          "logIndex": "0x0",
          "removed": false
        }
      ],
      "logsBloom": "0x00000000000000000000000200000100000000000000000000000000000000000200000000000000000000000000400000000000000000000000000000200000000000000000000000000000000000000000000000000000000800000000000000000000000000000000000000000000000000000000000000000000000000000000000000000000000000000000000000000000000000000000000000100000020000000000000000000100000000000000000000000000000000000000000000000000000000000000000000000000001000000000000000000000000000000010000000000000000000000000800000000000000000000000000000000000",
      "type": "0x2",
      "transactionHash": "0x37e069a88e9586a1d9c6614f9cb46273ba00fb3c216a43e653517f20157d4569",
      "transactionIndex": "0x1",
      "blockHash": "0xe2c4b3d82fdd8a0541a7c29ca2f7550228785cd9ca767bca095460c4a3583899",
      "blockNumber": "0x22415c3",
      "gasUsed": "0xd16c",
      "effectiveGasPrice": "0xff",
      "from": "0x45dce8e4f2dc005a5f28206a46cb034697eeda8e",
      "to": "0xfc00000000000000000000000000000000000002",
      "contractAddress": null,
      "l1BaseFeeScalar": "0x2faf080",
      "l1BlobBaseFee": "0x59f137",
      "l1BlobBaseFeeScalar": "0x0",
      "l1Fee": "0x71d6f8f7a80",
      "l1GasPrice": "0x5d41ec5",
      "l1GasUsed": "0x640"
    },
    {
      "status": "0x1",
      "cumulativeGasUsed": "0x78a79",
      "logs": [
        {
          "address": "0xfc00000000000000000000000000000000000002",
          "topics": [
            "0xddf252ad1be2c89b69c2b068fc378daa952ba7f163c4a11628f55a4df523b3ef",
            "0x00000000000000000000000045dce8e4f2dc005a5f28206a46cb034697eeda8e",
            "0x000000000000000000000000d86fbbd0c8715d2c1f40e451e5c3514e65e7576a"
          ],
          "data": "0x000000000000000000000000000000000000000000000000000009184e72a000",
          "blockHash": "0xe2c4b3d82fdd8a0541a7c29ca2f7550228785cd9ca767bca095460c4a3583899",
          "blockNumber": "0x22415c3",
          "blockTimestamp": "0x6a0408dd",
          "transactionHash": "0x939341141d1b6c20665251075281542df447766904a806b2cf0e93a77cf65bba",
          "transactionIndex": "0x2",
          "logIndex": "0x1",
          "removed": false
        },
        {
          "address": "0x377530cda84dfb2673bf4d145dcf0c4d7fdcb5b6",
          "topics": [
            "0x61ed099e74a97a1d7f8bb0952a88ca8b7b8ebd00c126ea04671f92a81213318a"
          ],
          "data": "0x00000000000000000000000041bdb4aa4a63a5b2efc531858d3118392b1a1c3d0000000000000000000000000000000000000000000000000160697ba11e9208",
          "blockHash": "0xe2c4b3d82fdd8a0541a7c29ca2f7550228785cd9ca767bca095460c4a3583899",
          "blockNumber": "0x22415c3",
          "blockTimestamp": "0x6a0408dd",
          "transactionHash": "0x939341141d1b6c20665251075281542df447766904a806b2cf0e93a77cf65bba",
          "transactionIndex": "0x2",
          "logIndex": "0x2",
          "removed": false
        },
        {
          "address": "0x377530cda84dfb2673bf4d145dcf0c4d7fdcb5b6",
          "topics": [
            "0x07ea52d82345d6e838192107d8fd7123d9c2ec8e916cd0aad13fd2b60db24644"
          ],
          "data": "0x000000000000000000000000000000000000000000000000000000000000006000000000000000000000000000000000000000000000000000000000000001200000000000000000000000000000000000000000000000000000000000000140000000000000000000000000000000000000000000000000000000000000000500000000000000000000000026cd5abadf7ec3f0f02b48314bfca6b2342cddd40000000000000000000000006398e91001cc1682bba103e6b2489fa5675a5a64000000000000000000000000a7b5189bca84cd304d8553977c7c614329750d99000000000000000000000000cce466a522984415bc91338c232d98869193d46e000000000000000000000000dd7b5e1db4aafd5c8ec3b764efb8ed265aa5445b000000000000000000000000000000000000000000000000000000000000000000000000000000000000000000000000000000000000000000000000000000050000000000000000000000000000000000000000000000000000103d163f3f860000000000000000000000000000000000000000000000000000100d2bc09afa00000000000000000000000000000000000000000000000000000f6577055b1200000000000000000000000000000000000000000000000000000f956183ff9e00000000000000000000000000000000000000000000000000000f956183ff9e",
          "blockHash": "0xe2c4b3d82fdd8a0541a7c29ca2f7550228785cd9ca767bca095460c4a3583899",
          "blockNumber": "0x22415c3",
          "blockTimestamp": "0x6a0408dd",
          "transactionHash": "0x939341141d1b6c20665251075281542df447766904a806b2cf0e93a77cf65bba",
          "transactionIndex": "0x2",
          "logIndex": "0x3",
          "removed": false
        },
        {
          "address": "0x1a44076050125825900e736c501f859c50fe728c",
          "topics": [
            "0x1ab700d4ced0c005b164c0f789fd09fcbb0156d4c2041b8a3bfbcd961cd1567f"
          ],
          "data": "0x00000000000000000000000000000000000000000000000000000000000000600000000000000000000000000000000000000000000000000000000000000120000000000000000000000000377530cda84dfb2673bf4d145dcf0c4d7fdcb5b600000000000000000000000000000000000000000000000000000000000000990100000000000000110000762f000000000000000000000000d86fbbd0c8715d2c1f40e451e5c3514e65e7576a0000759a00000000000000000000000064445f0aecc51e94ad52d8ac56b7190e764e561af3856f2dde09a135cf0869761864cf6e6b82c5710658bd2bd52b5cc435d9f18700000000000000000000000045dce8e4f2dc005a5f28206a46cb034697eeda8e000000000000000a00000000000000000000000000000000000000000000000000000000000000000000000000001600030100110100000000000000000000000000030d4000000000000000000000",
          "blockHash": "0xe2c4b3d82fdd8a0541a7c29ca2f7550228785cd9ca767bca095460c4a3583899",
          "blockNumber": "0x22415c3",
          "blockTimestamp": "0x6a0408dd",
          "transactionHash": "0x939341141d1b6c20665251075281542df447766904a806b2cf0e93a77cf65bba",
          "transactionIndex": "0x2",
          "logIndex": "0x4",
          "removed": false
        },
        {
          "address": "0xd86fbbd0c8715d2c1f40e451e5c3514e65e7576a",
          "topics": [
            "0x85496b760a4b7f8d66384b9df21b381f5d1b1e79f229a47aaf4c232edc2fe59a",
            "0xf3856f2dde09a135cf0869761864cf6e6b82c5710658bd2bd52b5cc435d9f187",
            "0x00000000000000000000000045dce8e4f2dc005a5f28206a46cb034697eeda8e"
          ],
          "data": "0x000000000000000000000000000000000000000000000000000000000000759a000000000000000000000000000000000000000000000000000009184e72a000000000000000000000000000000000000000000000000000000009184e72a000",
          "blockHash": "0xe2c4b3d82fdd8a0541a7c29ca2f7550228785cd9ca767bca095460c4a3583899",
          "blockNumber": "0x22415c3",
          "blockTimestamp": "0x6a0408dd",
          "transactionHash": "0x939341141d1b6c20665251075281542df447766904a806b2cf0e93a77cf65bba",
          "transactionIndex": "0x2",
          "logIndex": "0x5",
          "removed": false
        }
      ],
      "logsBloom": "0x00000000000000000000000200000100000000000000000000000000001000000200000000000000000000000000400000040000000004000000000000000000000002006000000000000008000000000000000000000000000800000000000000000000000000008000000000000000000000000010000000000410000000000000000000000000000000080000000000000000000000000000000000100000000000008000001000100100000000000000000000400000000440000000000000000002000000000000000080000000001000000000000000000000000000000801040004000000000000000000802000000000018000000000000000000000",
      "type": "0x2",
      "transactionHash": "0x939341141d1b6c20665251075281542df447766904a806b2cf0e93a77cf65bba",
      "transactionIndex": "0x2",
      "blockHash": "0xe2c4b3d82fdd8a0541a7c29ca2f7550228785cd9ca767bca095460c4a3583899",
      "blockNumber": "0x22415c3",
      "gasUsed": "0x5fc1e",
      "effectiveGasPrice": "0xff",
      "from": "0x45dce8e4f2dc005a5f28206a46cb034697eeda8e",
      "to": "0xd86fbbd0c8715d2c1f40e451e5c3514e65e7576a",
      "contractAddress": null,
      "l1BaseFeeScalar": "0x2faf080",
      "l1BlobBaseFee": "0x59f137",
      "l1BlobBaseFeeScalar": "0x0",
      "l1Fee": "0x977f4b00fa5",
      "l1GasPrice": "0x5d41ec5",
      "l1GasUsed": "0x851"
    },
    {
      "status": "0x1",
      "cumulativeGasUsed": "0x85c65",
      "logs": [
        {
          "address": "0xfc00000000000000000000000000000000000008",
          "topics": [
            "0x8c5be1e5ebec7d5bd14f71427d1e84f3dd0314c0f7b2291e5b200ac8c7c3b925",
            "0x00000000000000000000000045dce8e4f2dc005a5f28206a46cb034697eeda8e",
            "0x00000000000000000000000088aa7854d3b2daa5e37e7ce73a1f39669623a361"
          ],
          "data": "0x000000000000000000000000000000000000000000000000000009184e72a000",
          "blockHash": "0xe2c4b3d82fdd8a0541a7c29ca2f7550228785cd9ca767bca095460c4a3583899",
          "blockNumber": "0x22415c3",
          "blockTimestamp": "0x6a0408dd",
          "transactionHash": "0x6593578c475d266b518ffeb719caa3fcb68214e26d600135c9f0a6b3d052e6a7",
          "transactionIndex": "0x3",
          "logIndex": "0x6",
          "removed": false
        }
      ],
      "logsBloom": "0x00000000000000000000000200000000100000000000000000002000004000000000000000100000000000000000000000000000000000000000000000200000000000000000000000000000000000000000000000000000000000000000000000000000000400000000000000000000000000000000000000000000000000000000000000000000000000000000000000000000000000000000000000000000020000000000000000000000000000000000000000000000000000000000000000000000000000000000000000000000001000000000000000000000000000000010000000000000000000000100800000000000000000000000000000000000",
      "type": "0x2",
      "transactionHash": "0x6593578c475d266b518ffeb719caa3fcb68214e26d600135c9f0a6b3d052e6a7",
      "transactionIndex": "0x3",
      "blockHash": "0xe2c4b3d82fdd8a0541a7c29ca2f7550228785cd9ca767bca095460c4a3583899",
      "blockNumber": "0x22415c3",
      "gasUsed": "0xd1ec",
      "effectiveGasPrice": "0xff",
      "from": "0x45dce8e4f2dc005a5f28206a46cb034697eeda8e",
      "to": "0xfc00000000000000000000000000000000000008",
      "contractAddress": null,
      "l1BaseFeeScalar": "0x2faf080",
      "l1BlobBaseFee": "0x59f137",
      "l1BlobBaseFeeScalar": "0x0",
      "l1Fee": "0x71d6f8f7a80",
      "l1GasPrice": "0x5d41ec5",
      "l1GasUsed": "0x640"
    },
    {
      "status": "0x1",
      "cumulativeGasUsed": "0xe9c17",
      "logs": [
        {
          "address": "0x88aa7854d3b2daa5e37e7ce73a1f39669623a361",
          "topics": [
            "0x603e191ccb1fad1c0004c9c1f37101358f84c3cf059031e9ec9b0c17cad34188",
            "0x000000000000000000000000000000000000000000000000000000000000759a"
          ],
          "data": "0x000000000000000000000000000000000000000000000000ebec21ee1da40000000000000000000000000000000000000000000000000000000009184e72a000",
          "blockHash": "0xe2c4b3d82fdd8a0541a7c29ca2f7550228785cd9ca767bca095460c4a3583899",
          "blockNumber": "0x22415c3",
          "blockTimestamp": "0x6a0408dd",
          "transactionHash": "0x25e7645c71855f87a35b539073270d56f51aa731d06824ca109223843e93b0a2",
          "transactionIndex": "0x4",
          "logIndex": "0x7",
          "removed": false
        },
        {
          "address": "0x88aa7854d3b2daa5e37e7ce73a1f39669623a361",
          "topics": [
            "0xd2ff7607bbad14e866630d67da40c9a9cedd964cce5ce4c3dc4176133954ef98"
          ],
          "data": "0x000000000000000000000000000000000000000000240f0f0531934c2a8c5000000000000000000000000000000000000000000000000000000009184e72a000",
          "blockHash": "0xe2c4b3d82fdd8a0541a7c29ca2f7550228785cd9ca767bca095460c4a3583899",
          "blockNumber": "0x22415c3",
          "blockTimestamp": "0x6a0408dd",
          "transactionHash": "0x25e7645c71855f87a35b539073270d56f51aa731d06824ca109223843e93b0a2",
          "transactionIndex": "0x4",
          "logIndex": "0x8",
          "removed": false
        },
        {
          "address": "0xfc00000000000000000000000000000000000008",
          "topics": [
            "0xddf252ad1be2c89b69c2b068fc378daa952ba7f163c4a11628f55a4df523b3ef",
            "0x00000000000000000000000045dce8e4f2dc005a5f28206a46cb034697eeda8e",
            "0x0000000000000000000000000000000000000000000000000000000000000000"
          ],
          "data": "0x000000000000000000000000000000000000000000000000000009184e72a000",
          "blockHash": "0xe2c4b3d82fdd8a0541a7c29ca2f7550228785cd9ca767bca095460c4a3583899",
          "blockNumber": "0x22415c3",
          "blockTimestamp": "0x6a0408dd",
          "transactionHash": "0x25e7645c71855f87a35b539073270d56f51aa731d06824ca109223843e93b0a2",
          "transactionIndex": "0x4",
          "logIndex": "0x9",
          "removed": false
        },
        {
          "address": "0xfc00000000000000000000000000000000000008",
          "topics": [
            "0xdc7fd22bc401e7c6b9be2c2736286a2a42ea0c6307bc97ff0fb12bd0abd2c747",
            "0x00000000000000000000000045dce8e4f2dc005a5f28206a46cb034697eeda8e",
            "0x00000000000000000000000088aa7854d3b2daa5e37e7ce73a1f39669623a361"
          ],
          "data": "0x000000000000000000000000000000000000000000000000000009184e72a000",
          "blockHash": "0xe2c4b3d82fdd8a0541a7c29ca2f7550228785cd9ca767bca095460c4a3583899",
          "blockNumber": "0x22415c3",
          "blockTimestamp": "0x6a0408dd",
          "transactionHash": "0x25e7645c71855f87a35b539073270d56f51aa731d06824ca109223843e93b0a2",
          "transactionIndex": "0x4",
          "logIndex": "0xa",
          "removed": false
        },
        {
          "address": "0x377530cda84dfb2673bf4d145dcf0c4d7fdcb5b6",
          "topics": [
            "0x61ed099e74a97a1d7f8bb0952a88ca8b7b8ebd00c126ea04671f92a81213318a"
          ],
          "data": "0x00000000000000000000000041bdb4aa4a63a5b2efc531858d3118392b1a1c3d0000000000000000000000000000000000000000000000000160697ba11e9208",
          "blockHash": "0xe2c4b3d82fdd8a0541a7c29ca2f7550228785cd9ca767bca095460c4a3583899",
          "blockNumber": "0x22415c3",
          "blockTimestamp": "0x6a0408dd",
          "transactionHash": "0x25e7645c71855f87a35b539073270d56f51aa731d06824ca109223843e93b0a2",
          "transactionIndex": "0x4",
          "logIndex": "0xb",
          "removed": false
        },
        {
          "address": "0x377530cda84dfb2673bf4d145dcf0c4d7fdcb5b6",
          "topics": [
            "0x07ea52d82345d6e838192107d8fd7123d9c2ec8e916cd0aad13fd2b60db24644"
          ],
          "data": "0x000000000000000000000000000000000000000000000000000000000000006000000000000000000000000000000000000000000000000000000000000001200000000000000000000000000000000000000000000000000000000000000140000000000000000000000000000000000000000000000000000000000000000500000000000000000000000026cd5abadf7ec3f0f02b48314bfca6b2342cddd40000000000000000000000006398e91001cc1682bba103e6b2489fa5675a5a64000000000000000000000000a7b5189bca84cd304d8553977c7c614329750d99000000000000000000000000cce466a522984415bc91338c232d98869193d46e000000000000000000000000dd7b5e1db4aafd5c8ec3b764efb8ed265aa5445b000000000000000000000000000000000000000000000000000000000000000000000000000000000000000000000000000000000000000000000000000000050000000000000000000000000000000000000000000000000000103d163f3f860000000000000000000000000000000000000000000000000000100d2bc09afa00000000000000000000000000000000000000000000000000000f6577055b1200000000000000000000000000000000000000000000000000000f956183ff9e00000000000000000000000000000000000000000000000000000f956183ff9e",
          "blockHash": "0xe2c4b3d82fdd8a0541a7c29ca2f7550228785cd9ca767bca095460c4a3583899",
          "blockNumber": "0x22415c3",
          "blockTimestamp": "0x6a0408dd",
          "transactionHash": "0x25e7645c71855f87a35b539073270d56f51aa731d06824ca109223843e93b0a2",
          "transactionIndex": "0x4",
          "logIndex": "0xc",
          "removed": false
        },
        {
          "address": "0x1a44076050125825900e736c501f859c50fe728c",
          "topics": [
            "0x1ab700d4ced0c005b164c0f789fd09fcbb0156d4c2041b8a3bfbcd961cd1567f"
          ],
          "data": "0x00000000000000000000000000000000000000000000000000000000000000600000000000000000000000000000000000000000000000000000000000000120000000000000000000000000377530cda84dfb2673bf4d145dcf0c4d7fdcb5b600000000000000000000000000000000000000000000000000000000000000990100000000000000050000762f00000000000000000000000088aa7854d3b2daa5e37e7ce73a1f39669623a3610000759a0000000000000000000000005bff88ca1442c2496f7e475e9e7786383bc070c0bf8115fd589673b930f2557d470990a8a49e0003bdb8f21176a9b0ffa2af59e300000000000000000000000045dce8e4f2dc005a5f28206a46cb034697eeda8e000000000000000a00000000000000000000000000000000000000000000000000000000000000000000000000001600030100110100000000000000000000000000030d4000000000000000000000",
          "blockHash": "0xe2c4b3d82fdd8a0541a7c29ca2f7550228785cd9ca767bca095460c4a3583899",
          "blockNumber": "0x22415c3",
          "blockTimestamp": "0x6a0408dd",
          "transactionHash": "0x25e7645c71855f87a35b539073270d56f51aa731d06824ca109223843e93b0a2",
          "transactionIndex": "0x4",
          "logIndex": "0xd",
          "removed": false
        },
        {
          "address": "0x88aa7854d3b2daa5e37e7ce73a1f39669623a361",
          "topics": [
            "0x85496b760a4b7f8d66384b9df21b381f5d1b1e79f229a47aaf4c232edc2fe59a",
            "0xbf8115fd589673b930f2557d470990a8a49e0003bdb8f21176a9b0ffa2af59e3",
            "0x00000000000000000000000045dce8e4f2dc005a5f28206a46cb034697eeda8e"
          ],
          "data": "0x000000000000000000000000000000000000000000000000000000000000759a000000000000000000000000000000000000000000000000000009184e72a000000000000000000000000000000000000000000000000000000009184e72a000",
          "blockHash": "0xe2c4b3d82fdd8a0541a7c29ca2f7550228785cd9ca767bca095460c4a3583899",
          "blockNumber": "0x22415c3",
          "blockTimestamp": "0x6a0408dd",
          "transactionHash": "0x25e7645c71855f87a35b539073270d56f51aa731d06824ca109223843e93b0a2",
          "transactionIndex": "0x4",
          "logIndex": "0xe",
          "removed": false
        }
      ],
      "logsBloom": "0x00000000000000000000000200000000100000000000000010002000005000000000000020100000000000000000000000040200000000000000000000000000008002000000000000000008001000000000000000000000000000008000000000000000020400008000000000000800000000000010000000000410000000000000010000000800000004080000002000000000000000200000000000000000000000008004000000100000000000000000000000400000004440000000000000000002000000000000000080000000001000000000080000000000000020000001040000000001000000000100802010000000018800000000000000000000",
      "type": "0x2",
      "transactionHash": "0x25e7645c71855f87a35b539073270d56f51aa731d06824ca109223843e93b0a2",
      "transactionIndex": "0x4",
      "blockHash": "0xe2c4b3d82fdd8a0541a7c29ca2f7550228785cd9ca767bca095460c4a3583899",
      "blockNumber": "0x22415c3",
      "gasUsed": "0x63fb2",
      "effectiveGasPrice": "0xff",
      "from": "0x45dce8e4f2dc005a5f28206a46cb034697eeda8e",
      "to": "0x88aa7854d3b2daa5e37e7ce73a1f39669623a361",
      "contractAddress": null,
      "l1BaseFeeScalar": "0x2faf080",
      "l1BlobBaseFee": "0x59f137",
      "l1BlobBaseFeeScalar": "0x0",
      "l1Fee": "0x977f4b00fa5",
      "l1GasPrice": "0x5d41ec5",
      "l1GasUsed": "0x851"
    },
    {
      "status": "0x1",
      "cumulativeGasUsed": "0xf6da5",
      "logs": [
        {
          "address": "0xfc00000000000000000000000000000000000006",
          "topics": [
            "0x8c5be1e5ebec7d5bd14f71427d1e84f3dd0314c0f7b2291e5b200ac8c7c3b925",
            "0x00000000000000000000000045dce8e4f2dc005a5f28206a46cb034697eeda8e",
            "0x0000000000000000000000009abfe1f8a999b0011ecd6116649aee8d575f5604"
          ],
          "data": "0x000000000000000000000000000000000000000000000000000009184e72a000",
          "blockHash": "0xe2c4b3d82fdd8a0541a7c29ca2f7550228785cd9ca767bca095460c4a3583899",
          "blockNumber": "0x22415c3",
          "blockTimestamp": "0x6a0408dd",
          "transactionHash": "0xe1c8bd25f880004cdbf0f6bb1a74fd9a57d127b38fdbaddf6d3d9ee5911acaa8",
          "transactionIndex": "0x5",
          "logIndex": "0xf",
          "removed": false
        }
      ],
      "logsBloom": "0x00000000000000000000000200000000000000000040000000000000000000000000000000000000000000000000000000000000000080000000000000200000000000000000000000000000400000000000000000000000000000000000000000000000000000000000000000000000000000000000000000000000000000000000000000000000010000000000000000000000000000008000000000000000020000000000000000000000000000000000000000000000000000000000000000000000000000000000000000000000001000000000000000000000000000000010000000000000000000000000800000000000000000400000000000000000",
      "type": "0x2",
      "transactionHash": "0xe1c8bd25f880004cdbf0f6bb1a74fd9a57d127b38fdbaddf6d3d9ee5911acaa8",
      "transactionIndex": "0x5",
      "blockHash": "0xe2c4b3d82fdd8a0541a7c29ca2f7550228785cd9ca767bca095460c4a3583899",
      "blockNumber": "0x22415c3",
      "gasUsed": "0xd18e",
      "effectiveGasPrice": "0xff",
      "from": "0x45dce8e4f2dc005a5f28206a46cb034697eeda8e",
      "to": "0xfc00000000000000000000000000000000000006",
      "contractAddress": null,
      "l1BaseFeeScalar": "0x2faf080",
      "l1BlobBaseFee": "0x59f137",
      "l1BlobBaseFeeScalar": "0x0",
      "l1Fee": "0x71d6f8f7a80",
      "l1GasPrice": "0x5d41ec5",
      "l1GasUsed": "0x640"
    },
    {
      "status": "0x1",
      "cumulativeGasUsed": "0x156996",
      "logs": [
        {
          "address": "0xfc00000000000000000000000000000000000006",
          "topics": [
            "0xddf252ad1be2c89b69c2b068fc378daa952ba7f163c4a11628f55a4df523b3ef",
            "0x00000000000000000000000045dce8e4f2dc005a5f28206a46cb034697eeda8e",
            "0x0000000000000000000000009abfe1f8a999b0011ecd6116649aee8d575f5604"
          ],
          "data": "0x000000000000000000000000000000000000000000000000000009184e72a000",
          "blockHash": "0xe2c4b3d82fdd8a0541a7c29ca2f7550228785cd9ca767bca095460c4a3583899",
          "blockNumber": "0x22415c3",
          "blockTimestamp": "0x6a0408dd",
          "transactionHash": "0x14818dff031a5b95284501763e75d9e25c84c49ee2a3a84f55bc8efbd572fe7a",
          "transactionIndex": "0x6",
          "logIndex": "0x10",
          "removed": false
        },
        {
          "address": "0x377530cda84dfb2673bf4d145dcf0c4d7fdcb5b6",
          "topics": [
            "0x61ed099e74a97a1d7f8bb0952a88ca8b7b8ebd00c126ea04671f92a81213318a"
          ],
          "data": "0x00000000000000000000000041bdb4aa4a63a5b2efc531858d3118392b1a1c3d0000000000000000000000000000000000000000000000000160697ba11e9208",
          "blockHash": "0xe2c4b3d82fdd8a0541a7c29ca2f7550228785cd9ca767bca095460c4a3583899",
          "blockNumber": "0x22415c3",
          "blockTimestamp": "0x6a0408dd",
          "transactionHash": "0x14818dff031a5b95284501763e75d9e25c84c49ee2a3a84f55bc8efbd572fe7a",
          "transactionIndex": "0x6",
          "logIndex": "0x11",
          "removed": false
        },
        {
          "address": "0x377530cda84dfb2673bf4d145dcf0c4d7fdcb5b6",
          "topics": [
            "0x07ea52d82345d6e838192107d8fd7123d9c2ec8e916cd0aad13fd2b60db24644"
          ],
          "data": "0x000000000000000000000000000000000000000000000000000000000000006000000000000000000000000000000000000000000000000000000000000001200000000000000000000000000000000000000000000000000000000000000140000000000000000000000000000000000000000000000000000000000000000500000000000000000000000026cd5abadf7ec3f0f02b48314bfca6b2342cddd40000000000000000000000006398e91001cc1682bba103e6b2489fa5675a5a64000000000000000000000000a7b5189bca84cd304d8553977c7c614329750d99000000000000000000000000cce466a522984415bc91338c232d98869193d46e000000000000000000000000dd7b5e1db4aafd5c8ec3b764efb8ed265aa5445b000000000000000000000000000000000000000000000000000000000000000000000000000000000000000000000000000000000000000000000000000000050000000000000000000000000000000000000000000000000000103d163f3f860000000000000000000000000000000000000000000000000000100d2bc09afa00000000000000000000000000000000000000000000000000000f6577055b1200000000000000000000000000000000000000000000000000000f956183ff9e00000000000000000000000000000000000000000000000000000f956183ff9e",
          "blockHash": "0xe2c4b3d82fdd8a0541a7c29ca2f7550228785cd9ca767bca095460c4a3583899",
          "blockNumber": "0x22415c3",
          "blockTimestamp": "0x6a0408dd",
          "transactionHash": "0x14818dff031a5b95284501763e75d9e25c84c49ee2a3a84f55bc8efbd572fe7a",
          "transactionIndex": "0x6",
          "logIndex": "0x12",
          "removed": false
        },
        {
          "address": "0x1a44076050125825900e736c501f859c50fe728c",
          "topics": [
            "0x1ab700d4ced0c005b164c0f789fd09fcbb0156d4c2041b8a3bfbcd961cd1567f"
          ],
          "data": "0x00000000000000000000000000000000000000000000000000000000000000600000000000000000000000000000000000000000000000000000000000000120000000000000000000000000377530cda84dfb2673bf4d145dcf0c4d7fdcb5b600000000000000000000000000000000000000000000000000000000000000990100000000000000050000762f0000000000000000000000009abfe1f8a999b0011ecd6116649aee8d575f56040000759a00000000000000000000000043edd7f3831b08fe70b7555ddd373c8bf65a9050ad5276379252ec4522f0dd9f9a4797f8bfc7ce12a7b1a5971df1a2d40a8bdd6600000000000000000000000045dce8e4f2dc005a5f28206a46cb034697eeda8e000000000000000a00000000000000000000000000000000000000000000000000000000000000000000000000001600030100110100000000000000000000000000030d4000000000000000000000",
          "blockHash": "0xe2c4b3d82fdd8a0541a7c29ca2f7550228785cd9ca767bca095460c4a3583899",
          "blockNumber": "0x22415c3",
          "blockTimestamp": "0x6a0408dd",
          "transactionHash": "0x14818dff031a5b95284501763e75d9e25c84c49ee2a3a84f55bc8efbd572fe7a",
          "transactionIndex": "0x6",
          "logIndex": "0x13",
          "removed": false
        },
        {
          "address": "0x9abfe1f8a999b0011ecd6116649aee8d575f5604",
          "topics": [
            "0x85496b760a4b7f8d66384b9df21b381f5d1b1e79f229a47aaf4c232edc2fe59a",
            "0xad5276379252ec4522f0dd9f9a4797f8bfc7ce12a7b1a5971df1a2d40a8bdd66",
            "0x00000000000000000000000045dce8e4f2dc005a5f28206a46cb034697eeda8e"
          ],
          "data": "0x000000000000000000000000000000000000000000000000000000000000759a000000000000000000000000000000000000000000000000000009184e72a000000000000000000000000000000000000000000000000000000009184e72a000",
          "blockHash": "0xe2c4b3d82fdd8a0541a7c29ca2f7550228785cd9ca767bca095460c4a3583899",
          "blockNumber": "0x22415c3",
          "blockTimestamp": "0x6a0408dd",
          "transactionHash": "0x14818dff031a5b95284501763e75d9e25c84c49ee2a3a84f55bc8efbd572fe7a",
          "transactionIndex": "0x6",
          "logIndex": "0x14",
          "removed": false
        }
      ],
      "logsBloom": "0x00000000000000000000000200000000000100000040000000000000001000000000000000000000000000000000000000040000000080000000000000000000000002000000000000000008400000000000000000000000000000000000000000000000000000008000000000000000000800000010000000000410008000000000000000000000010000080080000000000000000000008000000000000000000000008000000000100000000000000000000000400000100440000000000000000002000000000000000080020000001000000000000000000000000000000001040000000000000000000000802000000000018000400000000000000000",
      "type": "0x2",
      "transactionHash": "0x14818dff031a5b95284501763e75d9e25c84c49ee2a3a84f55bc8efbd572fe7a",
      "transactionIndex": "0x6",
      "blockHash": "0xe2c4b3d82fdd8a0541a7c29ca2f7550228785cd9ca767bca095460c4a3583899",
      "blockNumber": "0x22415c3",
      "gasUsed": "0x5fbf1",
      "effectiveGasPrice": "0xff",
      "from": "0x45dce8e4f2dc005a5f28206a46cb034697eeda8e",
      "to": "0x9abfe1f8a999b0011ecd6116649aee8d575f5604",
      "contractAddress": null,
      "l1BaseFeeScalar": "0x2faf080",
      "l1BlobBaseFee": "0x59f137",
      "l1BlobBaseFeeScalar": "0x0",
      "l1Fee": "0x977f4b00fa5",
      "l1GasPrice": "0x5d41ec5",
      "l1GasUsed": "0x851"
    },
    {
      "status": "0x1",
      "cumulativeGasUsed": "0x163dcb",
      "logs": [
        {
          "address": "0xfc00000000000000000000000000000000000003",
          "topics": [
            "0x8c5be1e5ebec7d5bd14f71427d1e84f3dd0314c0f7b2291e5b200ac8c7c3b925",
            "0x00000000000000000000000045dce8e4f2dc005a5f28206a46cb034697eeda8e",
            "0x00000000000000000000000075c38d46001b0f8108c4136216bd2694982c20fc"
          ],
          "data": "0x000000000000000000000000000000000000000000000000000009184e72a000",
          "blockHash": "0xe2c4b3d82fdd8a0541a7c29ca2f7550228785cd9ca767bca095460c4a3583899",
          "blockNumber": "0x22415c3",
          "blockTimestamp": "0x6a0408dd",
          "transactionHash": "0x1210e1558bc061386ba46ad9a19a77ac9580a32007b3527fbd3072c790b62b24",
          "transactionIndex": "0x7",
          "logIndex": "0x15",
          "removed": false
        }
      ],
      "logsBloom": "0x00004000000000000000000200000000000000000000000020000000000000000000000000000000000000000000000000000000000000000000000000200000000000000000000000000000000000000000000000000000080000000000000000000000000000000000000000000000000000000000000000000000000000000000000000000000000000000000000000000000000000200000000000000000020000000000000000000000000000000000000000000000000000000000000000000000000000000000000000000000001000000000000000000000000000002010000000000000000000000020800000000000000000000000000000000000",
      "type": "0x2",
      "transactionHash": "0x1210e1558bc061386ba46ad9a19a77ac9580a32007b3527fbd3072c790b62b24",
      "transactionIndex": "0x7",
      "blockHash": "0xe2c4b3d82fdd8a0541a7c29ca2f7550228785cd9ca767bca095460c4a3583899",
      "blockNumber": "0x22415c3",
      "gasUsed": "0xd435",
      "effectiveGasPrice": "0xff",
      "from": "0x45dce8e4f2dc005a5f28206a46cb034697eeda8e",
      "to": "0xfc00000000000000000000000000000000000003",
      "contractAddress": null,
      "l1BaseFeeScalar": "0x2faf080",
      "l1BlobBaseFee": "0x59f137",
      "l1BlobBaseFeeScalar": "0x0",
      "l1Fee": "0x71d6f8f7a80",
      "l1GasPrice": "0x5d41ec5",
      "l1GasUsed": "0x640"
    },
    {
      "status": "0x1",
      "cumulativeGasUsed": "0x1c7ff2",
      "logs": [
        {
          "address": "0x75c38d46001b0f8108c4136216bd2694982c20fc",
          "topics": [
            "0x603e191ccb1fad1c0004c9c1f37101358f84c3cf059031e9ec9b0c17cad34188",
            "0x000000000000000000000000000000000000000000000000000000000000759a"
          ],
          "data": "0x000000000000000000000000000000000000000000000000f9ccd8a1c5080000000000000000000000000000000000000000000000000000000009184e72a000",
          "blockHash": "0xe2c4b3d82fdd8a0541a7c29ca2f7550228785cd9ca767bca095460c4a3583899",
          "blockNumber": "0x22415c3",
          "blockTimestamp": "0x6a0408dd",
          "transactionHash": "0xacaf70fb8c90c143520547d6ca606c8c103323a3a17f266cefc765d3b9031e54",
          "transactionIndex": "0x8",
          "logIndex": "0x16",
          "removed": false
        },
        {
          "address": "0x75c38d46001b0f8108c4136216bd2694982c20fc",
          "topics": [
            "0xd2ff7607bbad14e866630d67da40c9a9cedd964cce5ce4c3dc4176133954ef98"
          ],
          "data": "0x00000000000000000000000000000000000000000000096e4fcac1e55cea7000000000000000000000000000000000000000000000000000000009184e72a000",
          "blockHash": "0xe2c4b3d82fdd8a0541a7c29ca2f7550228785cd9ca767bca095460c4a3583899",
          "blockNumber": "0x22415c3",
          "blockTimestamp": "0x6a0408dd",
          "transactionHash": "0xacaf70fb8c90c143520547d6ca606c8c103323a3a17f266cefc765d3b9031e54",
          "transactionIndex": "0x8",
          "logIndex": "0x17",
          "removed": false
        },
        {
          "address": "0xfc00000000000000000000000000000000000003",
          "topics": [
            "0xddf252ad1be2c89b69c2b068fc378daa952ba7f163c4a11628f55a4df523b3ef",
            "0x00000000000000000000000045dce8e4f2dc005a5f28206a46cb034697eeda8e",
            "0x0000000000000000000000000000000000000000000000000000000000000000"
          ],
          "data": "0x000000000000000000000000000000000000000000000000000009184e72a000",
          "blockHash": "0xe2c4b3d82fdd8a0541a7c29ca2f7550228785cd9ca767bca095460c4a3583899",
          "blockNumber": "0x22415c3",
          "blockTimestamp": "0x6a0408dd",
          "transactionHash": "0xacaf70fb8c90c143520547d6ca606c8c103323a3a17f266cefc765d3b9031e54",
          "transactionIndex": "0x8",
          "logIndex": "0x18",
          "removed": false
        },
        {
          "address": "0xfc00000000000000000000000000000000000003",
          "topics": [
            "0xdc7fd22bc401e7c6b9be2c2736286a2a42ea0c6307bc97ff0fb12bd0abd2c747",
            "0x00000000000000000000000045dce8e4f2dc005a5f28206a46cb034697eeda8e",
            "0x00000000000000000000000075c38d46001b0f8108c4136216bd2694982c20fc"
          ],
          "data": "0x000000000000000000000000000000000000000000000000000009184e72a000",
          "blockHash": "0xe2c4b3d82fdd8a0541a7c29ca2f7550228785cd9ca767bca095460c4a3583899",
          "blockNumber": "0x22415c3",
          "blockTimestamp": "0x6a0408dd",
          "transactionHash": "0xacaf70fb8c90c143520547d6ca606c8c103323a3a17f266cefc765d3b9031e54",
          "transactionIndex": "0x8",
          "logIndex": "0x19",
          "removed": false
        },
        {
          "address": "0x377530cda84dfb2673bf4d145dcf0c4d7fdcb5b6",
          "topics": [
            "0x61ed099e74a97a1d7f8bb0952a88ca8b7b8ebd00c126ea04671f92a81213318a"
          ],
          "data": "0x00000000000000000000000041bdb4aa4a63a5b2efc531858d3118392b1a1c3d0000000000000000000000000000000000000000000000000160697ba11e9208",
          "blockHash": "0xe2c4b3d82fdd8a0541a7c29ca2f7550228785cd9ca767bca095460c4a3583899",
          "blockNumber": "0x22415c3",
          "blockTimestamp": "0x6a0408dd",
          "transactionHash": "0xacaf70fb8c90c143520547d6ca606c8c103323a3a17f266cefc765d3b9031e54",
          "transactionIndex": "0x8",
          "logIndex": "0x1a",
          "removed": false
        },
        {
          "address": "0x377530cda84dfb2673bf4d145dcf0c4d7fdcb5b6",
          "topics": [
            "0x07ea52d82345d6e838192107d8fd7123d9c2ec8e916cd0aad13fd2b60db24644"
          ],
          "data": "0x000000000000000000000000000000000000000000000000000000000000006000000000000000000000000000000000000000000000000000000000000001200000000000000000000000000000000000000000000000000000000000000140000000000000000000000000000000000000000000000000000000000000000500000000000000000000000026cd5abadf7ec3f0f02b48314bfca6b2342cddd40000000000000000000000006398e91001cc1682bba103e6b2489fa5675a5a64000000000000000000000000a7b5189bca84cd304d8553977c7c614329750d99000000000000000000000000cce466a522984415bc91338c232d98869193d46e000000000000000000000000dd7b5e1db4aafd5c8ec3b764efb8ed265aa5445b000000000000000000000000000000000000000000000000000000000000000000000000000000000000000000000000000000000000000000000000000000050000000000000000000000000000000000000000000000000000103d163f3f860000000000000000000000000000000000000000000000000000100d2bc09afa00000000000000000000000000000000000000000000000000000f6577055b1200000000000000000000000000000000000000000000000000000f956183ff9e00000000000000000000000000000000000000000000000000000f956183ff9e",
          "blockHash": "0xe2c4b3d82fdd8a0541a7c29ca2f7550228785cd9ca767bca095460c4a3583899",
          "blockNumber": "0x22415c3",
          "blockTimestamp": "0x6a0408dd",
          "transactionHash": "0xacaf70fb8c90c143520547d6ca606c8c103323a3a17f266cefc765d3b9031e54",
          "transactionIndex": "0x8",
          "logIndex": "0x1b",
          "removed": false
        },
        {
          "address": "0x1a44076050125825900e736c501f859c50fe728c",
          "topics": [
            "0x1ab700d4ced0c005b164c0f789fd09fcbb0156d4c2041b8a3bfbcd961cd1567f"
          ],
          "data": "0x00000000000000000000000000000000000000000000000000000000000000600000000000000000000000000000000000000000000000000000000000000120000000000000000000000000377530cda84dfb2673bf4d145dcf0c4d7fdcb5b600000000000000000000000000000000000000000000000000000000000000990100000000000000040000762f00000000000000000000000075c38d46001b0f8108c4136216bd2694982c20fc0000759a00000000000000000000000090581eca9469d8d7f5d3b60f4715027adfcf79278ed0f1268c7b6a5c225bbad631ef6734c550a4e7caad09eb23f9f138090dcdc600000000000000000000000045dce8e4f2dc005a5f28206a46cb034697eeda8e000000000000000a00000000000000000000000000000000000000000000000000000000000000000000000000001600030100110100000000000000000000000000030d4000000000000000000000",
          "blockHash": "0xe2c4b3d82fdd8a0541a7c29ca2f7550228785cd9ca767bca095460c4a3583899",
          "blockNumber": "0x22415c3",
          "blockTimestamp": "0x6a0408dd",
          "transactionHash": "0xacaf70fb8c90c143520547d6ca606c8c103323a3a17f266cefc765d3b9031e54",
          "transactionIndex": "0x8",
          "logIndex": "0x1c",
          "removed": false
        },
        {
          "address": "0x75c38d46001b0f8108c4136216bd2694982c20fc",
          "topics": [
            "0x85496b760a4b7f8d66384b9df21b381f5d1b1e79f229a47aaf4c232edc2fe59a",
            "0x8ed0f1268c7b6a5c225bbad631ef6734c550a4e7caad09eb23f9f138090dcdc6",
            "0x00000000000000000000000045dce8e4f2dc005a5f28206a46cb034697eeda8e"
          ],
          "data": "0x000000000000000000000000000000000000000000000000000000000000759a000000000000000000000000000000000000000000000000000009184e72a000000000000000000000000000000000000000000000000000000009184e72a000",
          "blockHash": "0xe2c4b3d82fdd8a0541a7c29ca2f7550228785cd9ca767bca095460c4a3583899",
          "blockNumber": "0x22415c3",
          "blockTimestamp": "0x6a0408dd",
          "transactionHash": "0xacaf70fb8c90c143520547d6ca606c8c103323a3a17f266cefc765d3b9031e54",
          "transactionIndex": "0x8",
          "logIndex": "0x1d",
          "removed": false
        }
      ],
      "logsBloom": "0x00004000000000000000000200000000000000000000000030000000001000000000000020000000000000000000000000040200000000000000000000000000008002000000000000000008001000000000000000000000080000000000000000040000020000008000000000200800000000000010000000000410000000000000000000000800000000080000000000000000000000200000000000010000000000008000000000100000000000000000000000400000004440000000000000000002000000000000000080000000001010000000080000000000000020002801040000000001000000000020802010000000018800000000000000000000",
      "type": "0x2",
      "transactionHash": "0xacaf70fb8c90c143520547d6ca606c8c103323a3a17f266cefc765d3b9031e54",
      "transactionIndex": "0x8",
      "blockHash": "0xe2c4b3d82fdd8a0541a7c29ca2f7550228785cd9ca767bca095460c4a3583899",
      "blockNumber": "0x22415c3",
      "gasUsed": "0x64227",
      "effectiveGasPrice": "0xff",
      "from": "0x45dce8e4f2dc005a5f28206a46cb034697eeda8e",
      "to": "0x75c38d46001b0f8108c4136216bd2694982c20fc",
      "contractAddress": null,
      "l1BaseFeeScalar": "0x2faf080",
      "l1BlobBaseFee": "0x59f137",
      "l1BlobBaseFeeScalar": "0x0",
      "l1Fee": "0x977f4b00fa5",
      "l1GasPrice": "0x5d41ec5",
      "l1GasUsed": "0x851"
    },
    {
      "status": "0x1",
      "cumulativeGasUsed": "0x1d5433",
      "logs": [
        {
          "address": "0xfc00000000000000000000000000000000000005",
          "topics": [
            "0x8c5be1e5ebec7d5bd14f71427d1e84f3dd0314c0f7b2291e5b200ac8c7c3b925",
            "0x00000000000000000000000045dce8e4f2dc005a5f28206a46cb034697eeda8e",
            "0x000000000000000000000000999dfabe3b1cc2ef66eb032eea42fea329bba168"
          ],
          "data": "0x000000000000000000000000000000000000000000000000000009184e72a000",
          "blockHash": "0xe2c4b3d82fdd8a0541a7c29ca2f7550228785cd9ca767bca095460c4a3583899",
          "blockNumber": "0x22415c3",
          "blockTimestamp": "0x6a0408dd",
          "transactionHash": "0x140650888da69210b7e2f494c34851acbc6df949a4946ce6509ca3bb742e28f9",
          "transactionIndex": "0x9",
          "logIndex": "0x1e",
          "removed": false
        }
      ],
      "logsBloom": "0x00000000000000200000000200000000000000000000000000000000000000000000000000000000000000000080000000000000000000000000000000200000000000000000000000000000000000000000000000000000000000000000000000000000000000000000000000080000000000000000000000000000000000000000000000000000000000000000000000000008000000000000000000000000020000000000000000000000000000000000000000000000000000040000000000000000000000000040000000000000001000000000000000000000000000000010000000000000000000000000800000000000000000000000000000000000",
      "type": "0x2",
      "transactionHash": "0x140650888da69210b7e2f494c34851acbc6df949a4946ce6509ca3bb742e28f9",
      "transactionIndex": "0x9",
      "blockHash": "0xe2c4b3d82fdd8a0541a7c29ca2f7550228785cd9ca767bca095460c4a3583899",
      "blockNumber": "0x22415c3",
      "gasUsed": "0xd441",
      "effectiveGasPrice": "0xff",
      "from": "0x45dce8e4f2dc005a5f28206a46cb034697eeda8e",
      "to": "0xfc00000000000000000000000000000000000005",
      "contractAddress": null,
      "l1BaseFeeScalar": "0x2faf080",
      "l1BlobBaseFee": "0x59f137",
      "l1BlobBaseFeeScalar": "0x0",
      "l1Fee": "0x71d6f8f7a80",
      "l1GasPrice": "0x5d41ec5",
      "l1GasUsed": "0x640"
    },
    {
      "status": "0x1",
      "cumulativeGasUsed": "0x23542b",
      "logs": [
        {
          "address": "0xfc00000000000000000000000000000000000005",
          "topics": [
            "0xddf252ad1be2c89b69c2b068fc378daa952ba7f163c4a11628f55a4df523b3ef",
            "0x00000000000000000000000045dce8e4f2dc005a5f28206a46cb034697eeda8e",
            "0x000000000000000000000000999dfabe3b1cc2ef66eb032eea42fea329bba168"
          ],
          "data": "0x000000000000000000000000000000000000000000000000000009184e72a000",
          "blockHash": "0xe2c4b3d82fdd8a0541a7c29ca2f7550228785cd9ca767bca095460c4a3583899",
          "blockNumber": "0x22415c3",
          "blockTimestamp": "0x6a0408dd",
          "transactionHash": "0xaa944b2db689f97985c85f8c1ee225bf86259cc5f37c42471aa1a2e867caf0ee",
          "transactionIndex": "0xa",
          "logIndex": "0x1f",
          "removed": false
        },
        {
          "address": "0x377530cda84dfb2673bf4d145dcf0c4d7fdcb5b6",
          "topics": [
            "0x61ed099e74a97a1d7f8bb0952a88ca8b7b8ebd00c126ea04671f92a81213318a"
          ],
          "data": "0x00000000000000000000000041bdb4aa4a63a5b2efc531858d3118392b1a1c3d0000000000000000000000000000000000000000000000000160697ba11e9208",
          "blockHash": "0xe2c4b3d82fdd8a0541a7c29ca2f7550228785cd9ca767bca095460c4a3583899",
          "blockNumber": "0x22415c3",
          "blockTimestamp": "0x6a0408dd",
          "transactionHash": "0xaa944b2db689f97985c85f8c1ee225bf86259cc5f37c42471aa1a2e867caf0ee",
          "transactionIndex": "0xa",
          "logIndex": "0x20",
          "removed": false
        },
        {
          "address": "0x377530cda84dfb2673bf4d145dcf0c4d7fdcb5b6",
          "topics": [
            "0x07ea52d82345d6e838192107d8fd7123d9c2ec8e916cd0aad13fd2b60db24644"
          ],
          "data": "0x000000000000000000000000000000000000000000000000000000000000006000000000000000000000000000000000000000000000000000000000000001200000000000000000000000000000000000000000000000000000000000000140000000000000000000000000000000000000000000000000000000000000000500000000000000000000000026cd5abadf7ec3f0f02b48314bfca6b2342cddd40000000000000000000000006398e91001cc1682bba103e6b2489fa5675a5a64000000000000000000000000a7b5189bca84cd304d8553977c7c614329750d99000000000000000000000000cce466a522984415bc91338c232d98869193d46e000000000000000000000000dd7b5e1db4aafd5c8ec3b764efb8ed265aa5445b000000000000000000000000000000000000000000000000000000000000000000000000000000000000000000000000000000000000000000000000000000050000000000000000000000000000000000000000000000000000103d163f3f860000000000000000000000000000000000000000000000000000100d2bc09afa00000000000000000000000000000000000000000000000000000f6577055b1200000000000000000000000000000000000000000000000000000f956183ff9e00000000000000000000000000000000000000000000000000000f956183ff9e",
          "blockHash": "0xe2c4b3d82fdd8a0541a7c29ca2f7550228785cd9ca767bca095460c4a3583899",
          "blockNumber": "0x22415c3",
          "blockTimestamp": "0x6a0408dd",
          "transactionHash": "0xaa944b2db689f97985c85f8c1ee225bf86259cc5f37c42471aa1a2e867caf0ee",
          "transactionIndex": "0xa",
          "logIndex": "0x21",
          "removed": false
        },
        {
          "address": "0x1a44076050125825900e736c501f859c50fe728c",
          "topics": [
            "0x1ab700d4ced0c005b164c0f789fd09fcbb0156d4c2041b8a3bfbcd961cd1567f"
          ],
          "data": "0x00000000000000000000000000000000000000000000000000000000000000600000000000000000000000000000000000000000000000000000000000000120000000000000000000000000377530cda84dfb2673bf4d145dcf0c4d7fdcb5b600000000000000000000000000000000000000000000000000000000000000990100000000000000030000762f000000000000000000000000999dfabe3b1cc2ef66eb032eea42fea329bba1680000759a0000000000000000000000003ec3849c33291a9ef4c5db86de593eb4a37fde45ef3ddab4d5296151d7ffba1d6fa26a2f18870c9555324ec19ee3e236a8127c0d00000000000000000000000045dce8e4f2dc005a5f28206a46cb034697eeda8e000000000000000a00000000000000000000000000000000000000000000000000000000000000000000000000001600030100110100000000000000000000000000030d4000000000000000000000",
          "blockHash": "0xe2c4b3d82fdd8a0541a7c29ca2f7550228785cd9ca767bca095460c4a3583899",
          "blockNumber": "0x22415c3",
          "blockTimestamp": "0x6a0408dd",
          "transactionHash": "0xaa944b2db689f97985c85f8c1ee225bf86259cc5f37c42471aa1a2e867caf0ee",
          "transactionIndex": "0xa",
          "logIndex": "0x22",
          "removed": false
        },
        {
          "address": "0x999dfabe3b1cc2ef66eb032eea42fea329bba168",
          "topics": [
            "0x85496b760a4b7f8d66384b9df21b381f5d1b1e79f229a47aaf4c232edc2fe59a",
            "0xef3ddab4d5296151d7ffba1d6fa26a2f18870c9555324ec19ee3e236a8127c0d",
            "0x00000000000000000000000045dce8e4f2dc005a5f28206a46cb034697eeda8e"
          ],
          "data": "0x000000000000000000000000000000000000000000000000000000000000759a000000000000000000000000000000000000000000000000000009184e72a000000000000000000000000000000000000000000000000000000009184e72a000",
          "blockHash": "0xe2c4b3d82fdd8a0541a7c29ca2f7550228785cd9ca767bca095460c4a3583899",
          "blockNumber": "0x22415c3",
          "blockTimestamp": "0x6a0408dd",
          "transactionHash": "0xaa944b2db689f97985c85f8c1ee225bf86259cc5f37c42471aa1a2e867caf0ee",
          "transactionIndex": "0xa",
          "logIndex": "0x23",
          "removed": false
        }
      ],
      "logsBloom": "0x00000000000000200000000200000000000000000000000000000000001000000000000000000000000000000080000000040000000000000000000000000000000002000000000000000008000000000000000000000000000000000000040000000000000000008000000000080000000000000010000000000410000000000000000000000000040000280000000000000008000000040000000000000000000000008010000000100000000000000000000000400000000440040000000000001002000000000040000080000000001000000000000000000000000000000001040000000000000000000000802000000000018000000000000000000000",
      "type": "0x2",
      "transactionHash": "0xaa944b2db689f97985c85f8c1ee225bf86259cc5f37c42471aa1a2e867caf0ee",
      "transactionIndex": "0xa",
      "blockHash": "0xe2c4b3d82fdd8a0541a7c29ca2f7550228785cd9ca767bca095460c4a3583899",
      "blockNumber": "0x22415c3",
      "gasUsed": "0x5fff8",
      "effectiveGasPrice": "0xff",
      "from": "0x45dce8e4f2dc005a5f28206a46cb034697eeda8e",
      "to": "0x999dfabe3b1cc2ef66eb032eea42fea329bba168",
      "contractAddress": null,
      "l1BaseFeeScalar": "0x2faf080",
      "l1BlobBaseFee": "0x59f137",
      "l1BlobBaseFeeScalar": "0x0",
      "l1Fee": "0x977f4b00fa5",
      "l1GasPrice": "0x5d41ec5",
      "l1GasUsed": "0x851"
    },
    {
      "status": "0x1",
      "cumulativeGasUsed": "0x2425df",
      "logs": [
        {
          "address": "0xfc00000000000000000000000000000000000001",
          "topics": [
            "0x8c5be1e5ebec7d5bd14f71427d1e84f3dd0314c0f7b2291e5b200ac8c7c3b925",
            "0x00000000000000000000000045dce8e4f2dc005a5f28206a46cb034697eeda8e",
            "0x00000000000000000000000096a394058e2b84a89bac9667b19661ed003cf5d4"
          ],
          "data": "0x000000000000000000000000000000000000000000000000000009184e72a000",
          "blockHash": "0xe2c4b3d82fdd8a0541a7c29ca2f7550228785cd9ca767bca095460c4a3583899",
          "blockNumber": "0x22415c3",
          "blockTimestamp": "0x6a0408dd",
          "transactionHash": "0xc15cc8bd79f3b33ce54124aad6a531d4575d2a3bc48dd989db126fcd38b54f2a",
          "transactionIndex": "0xb",
          "logIndex": "0x24",
          "removed": false
        }
      ],
      "logsBloom": "0x04000000000000000000000200000000000000000000000000000000000000000000000000000000000000000000000000000000000000000000000000200000000000000000000000000000000000000000000000000000010000000000000000000000000000000000100000800000000000000000000000000000000000000000000000000000000000000000000000004000000000000000000000000000020000000000000000000000000000000000000000000000000000000000000000000000000000000000000000000000001000000000000000000000000000000010000000000000000000000001800000000000000000000000000000000000",
      "type": "0x2",
      "transactionHash": "0xc15cc8bd79f3b33ce54124aad6a531d4575d2a3bc48dd989db126fcd38b54f2a",
      "transactionIndex": "0xb",
      "blockHash": "0xe2c4b3d82fdd8a0541a7c29ca2f7550228785cd9ca767bca095460c4a3583899",
      "blockNumber": "0x22415c3",
      "gasUsed": "0xd1b4",
      "effectiveGasPrice": "0xff",
      "from": "0x45dce8e4f2dc005a5f28206a46cb034697eeda8e",
      "to": "0xfc00000000000000000000000000000000000001",
      "contractAddress": null,
      "l1BaseFeeScalar": "0x2faf080",
      "l1BlobBaseFee": "0x59f137",
      "l1BlobBaseFeeScalar": "0x0",
      "l1Fee": "0x71d6f8f7a80",
      "l1GasPrice": "0x5d41ec5",
      "l1GasUsed": "0x640"
    },
    {
      "status": "0x1",
      "cumulativeGasUsed": "0x2a906b",
      "logs": [
        {
          "address": "0x96a394058e2b84a89bac9667b19661ed003cf5d4",
          "topics": [
            "0x603e191ccb1fad1c0004c9c1f37101358f84c3cf059031e9ec9b0c17cad34188",
            "0x000000000000000000000000000000000000000000000000000000000000759a"
          ],
          "data": "0x000000000000000000000000000000000000000000009c8e1e07c9a7d1bca000000000000000000000000000000000000000000000000000000009184e72a000",
          "blockHash": "0xe2c4b3d82fdd8a0541a7c29ca2f7550228785cd9ca767bca095460c4a3583899",
          "blockNumber": "0x22415c3",
          "blockTimestamp": "0x6a0408dd",
          "transactionHash": "0x94486eb9b26d19c91e26280e0c86febe02972048008e00bdfd863af22749f138",
          "transactionIndex": "0xc",
          "logIndex": "0x25",
          "removed": false
        },
        {
          "address": "0x96a394058e2b84a89bac9667b19661ed003cf5d4",
          "topics": [
            "0xd2ff7607bbad14e866630d67da40c9a9cedd964cce5ce4c3dc4176133954ef98"
          ],
          "data": "0x000000000000000000000000000000000000000000ae16760998aa367599b000000000000000000000000000000000000000000000000000000009184e72a000",
          "blockHash": "0xe2c4b3d82fdd8a0541a7c29ca2f7550228785cd9ca767bca095460c4a3583899",
          "blockNumber": "0x22415c3",
          "blockTimestamp": "0x6a0408dd",
          "transactionHash": "0x94486eb9b26d19c91e26280e0c86febe02972048008e00bdfd863af22749f138",
          "transactionIndex": "0xc",
          "logIndex": "0x26",
          "removed": false
        },
        {
          "address": "0xfc00000000000000000000000000000000000001",
          "topics": [
            "0xddf252ad1be2c89b69c2b068fc378daa952ba7f163c4a11628f55a4df523b3ef",
            "0x00000000000000000000000045dce8e4f2dc005a5f28206a46cb034697eeda8e",
            "0x0000000000000000000000000000000000000000000000000000000000000000"
          ],
          "data": "0x000000000000000000000000000000000000000000000000000009184e72a000",
          "blockHash": "0xe2c4b3d82fdd8a0541a7c29ca2f7550228785cd9ca767bca095460c4a3583899",
          "blockNumber": "0x22415c3",
          "blockTimestamp": "0x6a0408dd",
          "transactionHash": "0x94486eb9b26d19c91e26280e0c86febe02972048008e00bdfd863af22749f138",
          "transactionIndex": "0xc",
          "logIndex": "0x27",
          "removed": false
        },
        {
          "address": "0xfc00000000000000000000000000000000000001",
          "topics": [
            "0xdc7fd22bc401e7c6b9be2c2736286a2a42ea0c6307bc97ff0fb12bd0abd2c747",
            "0x00000000000000000000000045dce8e4f2dc005a5f28206a46cb034697eeda8e",
            "0x00000000000000000000000096a394058e2b84a89bac9667b19661ed003cf5d4"
          ],
          "data": "0x000000000000000000000000000000000000000000000000000009184e72a000",
          "blockHash": "0xe2c4b3d82fdd8a0541a7c29ca2f7550228785cd9ca767bca095460c4a3583899",
          "blockNumber": "0x22415c3",
          "blockTimestamp": "0x6a0408dd",
          "transactionHash": "0x94486eb9b26d19c91e26280e0c86febe02972048008e00bdfd863af22749f138",
          "transactionIndex": "0xc",
          "logIndex": "0x28",
          "removed": false
        },
        {
          "address": "0x377530cda84dfb2673bf4d145dcf0c4d7fdcb5b6",
          "topics": [
            "0x61ed099e74a97a1d7f8bb0952a88ca8b7b8ebd00c126ea04671f92a81213318a"
          ],
          "data": "0x00000000000000000000000041bdb4aa4a63a5b2efc531858d3118392b1a1c3d0000000000000000000000000000000000000000000000000160697ba11e9208",
          "blockHash": "0xe2c4b3d82fdd8a0541a7c29ca2f7550228785cd9ca767bca095460c4a3583899",
          "blockNumber": "0x22415c3",
          "blockTimestamp": "0x6a0408dd",
          "transactionHash": "0x94486eb9b26d19c91e26280e0c86febe02972048008e00bdfd863af22749f138",
          "transactionIndex": "0xc",
          "logIndex": "0x29",
          "removed": false
        },
        {
          "address": "0x377530cda84dfb2673bf4d145dcf0c4d7fdcb5b6",
          "topics": [
            "0x07ea52d82345d6e838192107d8fd7123d9c2ec8e916cd0aad13fd2b60db24644"
          ],
          "data": "0x000000000000000000000000000000000000000000000000000000000000006000000000000000000000000000000000000000000000000000000000000001200000000000000000000000000000000000000000000000000000000000000140000000000000000000000000000000000000000000000000000000000000000500000000000000000000000026cd5abadf7ec3f0f02b48314bfca6b2342cddd40000000000000000000000006398e91001cc1682bba103e6b2489fa5675a5a64000000000000000000000000a7b5189bca84cd304d8553977c7c614329750d99000000000000000000000000cce466a522984415bc91338c232d98869193d46e000000000000000000000000dd7b5e1db4aafd5c8ec3b764efb8ed265aa5445b000000000000000000000000000000000000000000000000000000000000000000000000000000000000000000000000000000000000000000000000000000050000000000000000000000000000000000000000000000000000103d163f3f860000000000000000000000000000000000000000000000000000100d2bc09afa00000000000000000000000000000000000000000000000000000f6577055b1200000000000000000000000000000000000000000000000000000f956183ff9e00000000000000000000000000000000000000000000000000000f956183ff9e",
          "blockHash": "0xe2c4b3d82fdd8a0541a7c29ca2f7550228785cd9ca767bca095460c4a3583899",
          "blockNumber": "0x22415c3",
          "blockTimestamp": "0x6a0408dd",
          "transactionHash": "0x94486eb9b26d19c91e26280e0c86febe02972048008e00bdfd863af22749f138",
          "transactionIndex": "0xc",
          "logIndex": "0x2a",
          "removed": false
        },
        {
          "address": "0x1a44076050125825900e736c501f859c50fe728c",
          "topics": [
            "0x1ab700d4ced0c005b164c0f789fd09fcbb0156d4c2041b8a3bfbcd961cd1567f"
          ],
          "data": "0x00000000000000000000000000000000000000000000000000000000000000600000000000000000000000000000000000000000000000000000000000000120000000000000000000000000377530cda84dfb2673bf4d145dcf0c4d7fdcb5b6000000000000000000000000000000000000000000000000000000000000009901000000000000005f0000762f00000000000000000000000096a394058e2b84a89bac9667b19661ed003cf5d40000759a00000000000000000000000080eede496655fb9047dd39d9f418d5483ed600dfdeb29fc3e21eb47cb0f93677226dcfea43d3ffc6a821008c7b7dcdd4e0dd8aff00000000000000000000000045dce8e4f2dc005a5f28206a46cb034697eeda8e000000000000000a00000000000000000000000000000000000000000000000000000000000000000000000000001600030100110100000000000000000000000000030d4000000000000000000000",
          "blockHash": "0xe2c4b3d82fdd8a0541a7c29ca2f7550228785cd9ca767bca095460c4a3583899",
          "blockNumber": "0x22415c3",
          "blockTimestamp": "0x6a0408dd",
          "transactionHash": "0x94486eb9b26d19c91e26280e0c86febe02972048008e00bdfd863af22749f138",
          "transactionIndex": "0xc",
          "logIndex": "0x2b",
          "removed": false
        },
        {
          "address": "0x96a394058e2b84a89bac9667b19661ed003cf5d4",
          "topics": [
            "0x85496b760a4b7f8d66384b9df21b381f5d1b1e79f229a47aaf4c232edc2fe59a",
            "0xdeb29fc3e21eb47cb0f93677226dcfea43d3ffc6a821008c7b7dcdd4e0dd8aff",
            "0x00000000000000000000000045dce8e4f2dc005a5f28206a46cb034697eeda8e"
          ],
          "data": "0x000000000000000000000000000000000000000000000000000000000000759a000000000000000000000000000000000000000000000000000009184e72a000000000000000000000000000000000000000000000000000000009184e72a000",
          "blockHash": "0xe2c4b3d82fdd8a0541a7c29ca2f7550228785cd9ca767bca095460c4a3583899",
          "blockNumber": "0x22415c3",
          "blockTimestamp": "0x6a0408dd",
          "transactionHash": "0x94486eb9b26d19c91e26280e0c86febe02972048008e00bdfd863af22749f138",
          "transactionIndex": "0xc",
          "logIndex": "0x2c",
          "removed": false
        }
      ],
      "logsBloom": "0x04000000000000000000000200000000000000000000000010000000001000000000000020000000000000000000000000040200000000000000000000000000008002200000000000000008001000000000200000000000010000000000000000000000020000008000100000800800000000000010000000000412000000000000000000000800000000080000000000004000000000200000000000000000000000008000000000100000000000000000000000400000004440000000000000000002000000000800000080000000001010000000180000000000000020000001040000000001000000000001802010000000018800000000000000000000",
      "type": "0x2",
      "transactionHash": "0x94486eb9b26d19c91e26280e0c86febe02972048008e00bdfd863af22749f138",
      "transactionIndex": "0xc",
      "blockHash": "0xe2c4b3d82fdd8a0541a7c29ca2f7550228785cd9ca767bca095460c4a3583899",
      "blockNumber": "0x22415c3",
      "gasUsed": "0x66a8c",
      "effectiveGasPrice": "0xff",
      "from": "0x45dce8e4f2dc005a5f28206a46cb034697eeda8e",
      "to": "0x96a394058e2b84a89bac9667b19661ed003cf5d4",
      "contractAddress": null,
      "l1BaseFeeScalar": "0x2faf080",
      "l1BlobBaseFee": "0x59f137",
      "l1BlobBaseFeeScalar": "0x0",
      "l1Fee": "0x977f4b00fa5",
      "l1GasPrice": "0x5d41ec5",
      "l1GasUsed": "0x851"
    }
  ],
  "libraries": [],
  "pending": [],
  "returns": {},
  "timestamp": 1778649309308,
  "chain": 252,
  "commit": "3c1e5d2a"
}