{
  "transactions": [
    {
      "hash": "0x57b664b830d8b6c390ccddfa43493cee884d3e96a3e3406a44517c779934261f",
      "transactionType": "CALL",
      "contractName": null,
      "contractAddress": "0xfc00000000000000000000000000000000000002",
      "function": "approve(address,uint256)",
      "arguments": [
        "0xd86fBBd0c8715d2C1f40e451e5C3514e65E7576A",
        "10000000000000"
      ],
      "transaction": {
        "from": "0x45dce8e4f2dc005a5f28206a46cb034697eeda8e",
        "to": "0xfc00000000000000000000000000000000000002",
        "gas": "0xc500",
        "value": "0x0",
        "input": "0x095ea7b3000000000000000000000000d86fbbd0c8715d2c1f40e451e5c3514e65e7576a000000000000000000000000000000000000000000000000000009184e72a000",
        "nonce": "0x14b",
        "chainId": "0xfc"
      },
      "additionalContracts": [],
      "isFixedGasLimit": false
    },
    {
      "hash": "0xcb2ea3bacc50fa342501c4a6a7753c0edb91bc61b8bb0117c0fd63d08450f551",
      "transactionType": "CALL",
      "contractName": null,
      "contractAddress": "0xd86fbbd0c8715d2c1f40e451e5c3514e65e7576a",
      "function": "send((uint32,bytes32,uint256,uint256,bytes,bytes,bytes),(uint256,uint256),address)",
      "arguments": [
        "(30110, 0x00000000000000000000000045dce8e4f2dc005a5f28206a46cb034697eeda8e, 10000000000000, 0, 0x, 0x, 0x)",
        "(224606017169483307, 0)",
        "0x45DCE8e4F2Dc005A5F28206A46cb034697eEDA8e"
      ],
      "transaction": {
        "from": "0x45dce8e4f2dc005a5f28206a46cb034697eeda8e",
        "to": "0xd86fbbd0c8715d2c1f40e451e5c3514e65e7576a",
        "gas": "0x8a4b7",
        "value": "0x31df5fb8bcd662b",
        "input": "0xc7c7f5b30000000000000000000000000000000000000000000000000000000000000080000000000000000000000000000000000000000000000000031df5fb8bcd662b000000000000000000000000000000000000000000000000000000000000000000000000000000000000000045dce8e4f2dc005a5f28206a46cb034697eeda8e000000000000000000000000000000000000000000000000000000000000759e00000000000000000000000045dce8e4f2dc005a5f28206a46cb034697eeda8e000000000000000000000000000000000000000000000000000009184e72a000000000000000000000000000000000000000000000000000000000000000000000000000000000000000000000000000000000000000000000000000000000e000000000000000000000000000000000000000000000000000000000000001000000000000000000000000000000000000000000000000000000000000000120000000000000000000000000000000000000000000000000000000000000000000000000000000000000000000000000000000000000000000000000000000000000000000000000000000000000000000000000000000000000000000000000",
        "nonce": "0x14c",
        "chainId": "0xfc"
      },
      "additionalContracts": [],
      "isFixedGasLimit": false
    },
    {
      "hash": "0x2184ebbb4575b91c562895a2e02e2724d57a253cfe6959ca623c7adf912aa0ab",
      "transactionType": "CALL",
      "contractName": null,
      "contractAddress": "0xfc00000000000000000000000000000000000008",
      "function": "approve(address,uint256)",
      "arguments": [
        "0x88Aa7854D3b2dAA5e37E7Ce73A1F39669623a361",
        "10000000000000"
      ],
      "transaction": {
        "from": "0x45dce8e4f2dc005a5f28206a46cb034697eeda8e",
        "to": "0xfc00000000000000000000000000000000000008",
        "gas": "0xc5b1",
        "value": "0x0",
        "input": "0x095ea7b300000000000000000000000088aa7854d3b2daa5e37e7ce73a1f39669623a361000000000000000000000000000000000000000000000000000009184e72a000",
        "nonce": "0x14d",
        "chainId": "0xfc"
      },
      "additionalContracts": [],
      "isFixedGasLimit": false
    },
    {
      "hash": "0xdc09e2c9506a840c568b58f66b38ebeda0a8d086a2392b292de33ec70001760f",
      "transactionType": "CALL",
      "contractName": null,
      "contractAddress": "0x88aa7854d3b2daa5e37e7ce73a1f39669623a361",
      "function": "send((uint32,bytes32,uint256,uint256,bytes,bytes,bytes),(uint256,uint256),address)",
      "arguments": [
        "(30110, 0x00000000000000000000000045dce8e4f2dc005a5f28206a46cb034697eeda8e, 10000000000000, 0, 0x, 0x, 0x)",
        "(224606017169483307, 0)",
        "0x45DCE8e4F2Dc005A5F28206A46cb034697eEDA8e"
      ],
      "transaction": {
        "from": "0x45dce8e4f2dc005a5f28206a46cb034697eeda8e",
        "to": "0x88aa7854d3b2daa5e37e7ce73a1f39669623a361",
        "gas": "0x9020e",
        "value": "0x31df5fb8bcd662b",
        "input": "0xc7c7f5b30000000000000000000000000000000000000000000000000000000000000080000000000000000000000000000000000000000000000000031df5fb8bcd662b000000000000000000000000000000000000000000000000000000000000000000000000000000000000000045dce8e4f2dc005a5f28206a46cb034697eeda8e000000000000000000000000000000000000000000000000000000000000759e00000000000000000000000045dce8e4f2dc005a5f28206a46cb034697eeda8e000000000000000000000000000000000000000000000000000009184e72a000000000000000000000000000000000000000000000000000000000000000000000000000000000000000000000000000000000000000000000000000000000e000000000000000000000000000000000000000000000000000000000000001000000000000000000000000000000000000000000000000000000000000000120000000000000000000000000000000000000000000000000000000000000000000000000000000000000000000000000000000000000000000000000000000000000000000000000000000000000000000000000000000000000000000000000",
        "nonce": "0x14e",
        "chainId": "0xfc"
      },
      "additionalContracts": [],
      "isFixedGasLimit": false
    },
    {
      "hash": "0x99f8091876d1a46dae22d259706c5ba2b4a6e5d58f18c9dfa0f4861c26ff1bc6",
      "transactionType": "CALL",
      "contractName": null,
      "contractAddress": "0xfc00000000000000000000000000000000000006",
      "function": "approve(address,uint256)",
      "arguments": [
        "0x9aBFE1F8a999B0011ecD6116649AEe8D575F5604",
        "10000000000000"
      ],
      "transaction": {
        "from": "0x45dce8e4f2dc005a5f28206a46cb034697eeda8e",
        "to": "0xfc00000000000000000000000000000000000006",
        "gas": "0xd0c8",
        "value": "0x0",
        "input": "0x095ea7b30000000000000000000000009abfe1f8a999b0011ecd6116649aee8d575f5604000000000000000000000000000000000000000000000000000009184e72a000",
        "nonce": "0x14f",
        "chainId": "0xfc"
      },
      "additionalContracts": [],
      "isFixedGasLimit": false
    },
    {
      "hash": "0xc9004f16bed8c9ab61ee904933710b6ee2277b2d8e48a50f2aee380cb6c4be8f",
      "transactionType": "CALL",
      "contractName": null,
      "contractAddress": "0x9abfe1f8a999b0011ecd6116649aee8d575f5604",
      "function": "send((uint32,bytes32,uint256,uint256,bytes,bytes,bytes),(uint256,uint256),address)",
      "arguments": [
        "(30110, 0x00000000000000000000000045dce8e4f2dc005a5f28206a46cb034697eeda8e, 10000000000000, 0, 0x, 0x, 0x)",
        "(224606017169483307, 0)",
        "0x45DCE8e4F2Dc005A5F28206A46cb034697eEDA8e"
      ],
      "transaction": {
        "from": "0x45dce8e4f2dc005a5f28206a46cb034697eeda8e",
        "to": "0x9abfe1f8a999b0011ecd6116649aee8d575f5604",
        "gas": "0x9269e",
        "value": "0x31df5fb8bcd662b",
        "input": "0xc7c7f5b30000000000000000000000000000000000000000000000000000000000000080000000000000000000000000000000000000000000000000031df5fb8bcd662b000000000000000000000000000000000000000000000000000000000000000000000000000000000000000045dce8e4f2dc005a5f28206a46cb034697eeda8e000000000000000000000000000000000000000000000000000000000000759e00000000000000000000000045dce8e4f2dc005a5f28206a46cb034697eeda8e000000000000000000000000000000000000000000000000000009184e72a000000000000000000000000000000000000000000000000000000000000000000000000000000000000000000000000000000000000000000000000000000000e000000000000000000000000000000000000000000000000000000000000001000000000000000000000000000000000000000000000000000000000000000120000000000000000000000000000000000000000000000000000000000000000000000000000000000000000000000000000000000000000000000000000000000000000000000000000000000000000000000000000000000000000000000000",
        "nonce": "0x150",
        "chainId": "0xfc"
      },
      "additionalContracts": [],
      "isFixedGasLimit": false
    },
    {
      "hash": "0xbcdd44be90d247bc76f8a1b45ac97000dea47457b755759efe85df5b472eaa98",
      "transactionType": "CALL",
      "contractName": null,
      "contractAddress": "0xfc00000000000000000000000000000000000003",
      "function": "approve(address,uint256)",
      "arguments": [
        "0x75c38D46001b0F8108c4136216bd2694982C20FC",
        "10000000000000"
      ],
      "transaction": {
        "from": "0x45dce8e4f2dc005a5f28206a46cb034697eeda8e",
        "to": "0xfc00000000000000000000000000000000000003",
        "gas": "0xd4a9",
        "value": "0x0",
        "input": "0x095ea7b300000000000000000000000075c38d46001b0f8108c4136216bd2694982c20fc000000000000000000000000000000000000000000000000000009184e72a000",
        "nonce": "0x151",
        "chainId": "0xfc"
      },
      "additionalContracts": [],
      "isFixedGasLimit": false
    },
    {
      "hash": "0x36518dcf80fd2955d0a1e34516b8687a770b0cfa34efae2837d99d57cdf3c728",
      "transactionType": "CALL",
      "contractName": null,
      "contractAddress": "0x75c38d46001b0f8108c4136216bd2694982c20fc",
      "function": "send((uint32,bytes32,uint256,uint256,bytes,bytes,bytes),(uint256,uint256),address)",
      "arguments": [
        "(30110, 0x00000000000000000000000045dce8e4f2dc005a5f28206a46cb034697eeda8e, 10000000000000, 0, 0x, 0x, 0x)",
        "(224606017169483307, 0)",
        "0x45DCE8e4F2Dc005A5F28206A46cb034697eEDA8e"
      ],
      "transaction": {
        "from": "0x45dce8e4f2dc005a5f28206a46cb034697eeda8e",
        "to": "0x75c38d46001b0f8108c4136216bd2694982c20fc",
        "gas": "0x98d4e",
        "value": "0x31df5fb8bcd662b",
        "input": "0xc7c7f5b30000000000000000000000000000000000000000000000000000000000000080000000000000000000000000000000000000000000000000031df5fb8bcd662b000000000000000000000000000000000000000000000000000000000000000000000000000000000000000045dce8e4f2dc005a5f28206a46cb034697eeda8e000000000000000000000000000000000000000000000000000000000000759e00000000000000000000000045dce8e4f2dc005a5f28206a46cb034697eeda8e000000000000000000000000000000000000000000000000000009184e72a000000000000000000000000000000000000000000000000000000000000000000000000000000000000000000000000000000000000000000000000000000000e000000000000000000000000000000000000000000000000000000000000001000000000000000000000000000000000000000000000000000000000000000120000000000000000000000000000000000000000000000000000000000000000000000000000000000000000000000000000000000000000000000000000000000000000000000000000000000000000000000000000000000000000000000000",
        "nonce": "0x152",
        "chainId": "0xfc"
      },
      "additionalContracts": [],
      "isFixedGasLimit": false
    },
    {
      "hash": "0x435541e1756eff896546e41c2e2c50d44af62f61047f5a9325689f8ef89f4e52",
      "transactionType": "CALL",
      "contractName": null,
      "contractAddress": "0xfc00000000000000000000000000000000000005",
      "function": "approve(address,uint256)",
      "arguments": [
        "0x999dfAbe3b1cc2EF66eB032Eea42FeA329bBa168",
        "10000000000000"
      ],
      "transaction": {
        "from": "0x45dce8e4f2dc005a5f28206a46cb034697eeda8e",
        "to": "0xfc00000000000000000000000000000000000005",
        "gas": "0xc8e9",
        "value": "0x0",
        "input": "0x095ea7b3000000000000000000000000999dfabe3b1cc2ef66eb032eea42fea329bba168000000000000000000000000000000000000000000000000000009184e72a000",
        "nonce": "0x153",
        "chainId": "0xfc"
      },
      "additionalContracts": [],
      "isFixedGasLimit": false
    },
    {
      "hash": "0x3e5b460fea702bc2ceb056343c299eaf1458f1ac1226c26756f846c6545f5f4a",
      "transactionType": "CALL",
      "contractName": null,
      "contractAddress": "0x999dfabe3b1cc2ef66eb032eea42fea329bba168",
      "function": "send((uint32,bytes32,uint256,uint256,bytes,bytes,bytes),(uint256,uint256),address)",
      "arguments": [
        "(30110, 0x00000000000000000000000045dce8e4f2dc005a5f28206a46cb034697eeda8e, 10000000000000, 0, 0x, 0x, 0x)",
        "(224606017169483307, 0)",
        "0x45DCE8e4F2Dc005A5F28206A46cb034697eEDA8e"
      ],
      "transaction": {
        "from": "0x45dce8e4f2dc005a5f28206a46cb034697eeda8e",
        "to": "0x999dfabe3b1cc2ef66eb032eea42fea329bba168",
        "gas": "0x92c82",
        "value": "0x31df5fb8bcd662b",
        "input": "0xc7c7f5b30000000000000000000000000000000000000000000000000000000000000080000000000000000000000000000000000000000000000000031df5fb8bcd662b000000000000000000000000000000000000000000000000000000000000000000000000000000000000000045dce8e4f2dc005a5f28206a46cb034697eeda8e000000000000000000000000000000000000000000000000000000000000759e00000000000000000000000045dce8e4f2dc005a5f28206a46cb034697eeda8e000000000000000000000000000000000000000000000000000009184e72a000000000000000000000000000000000000000000000000000000000000000000000000000000000000000000000000000000000000000000000000000000000e000000000000000000000000000000000000000000000000000000000000001000000000000000000000000000000000000000000000000000000000000000120000000000000000000000000000000000000000000000000000000000000000000000000000000000000000000000000000000000000000000000000000000000000000000000000000000000000000000000000000000000000000000000000",
        "nonce": "0x154",
        "chainId": "0xfc"
      },
      "additionalContracts": [],
      "isFixedGasLimit": false
    },
    {
      "hash": "0xd31be46cbbe345be906f0a2de2293d29d9211f44bc1d93245229826dc91c3292",
      "transactionType": "CALL",
      "contractName": null,
      "contractAddress": "0xfc00000000000000000000000000000000000001",
      "function": "approve(address,uint256)",
      "arguments": [
        "0x96A394058E2b84A89bac9667B19661Ed003cF5D4",
        "10000000000000"
      ],
      "transaction": {
        "from": "0x45dce8e4f2dc005a5f28206a46cb034697eeda8e",
        "to": "0xfc00000000000000000000000000000000000001",
        "gas": "0xc563",
        "value": "0x0",
        "input": "0x095ea7b300000000000000000000000096a394058e2b84a89bac9667b19661ed003cf5d4000000000000000000000000000000000000000000000000000009184e72a000",
        "nonce": "0x155",
        "chainId": "0xfc"
      },
      "additionalContracts": [],
      "isFixedGasLimit": false
    },
    {
      "hash": "0x378fbc4677cf5f820e017f4f93325df3e72b33c72e90a486a324b0c11bfadbde",
      "transactionType": "CALL",
      "contractName": null,
      "contractAddress": "0x96a394058e2b84a89bac9667b19661ed003cf5d4",
      "function": "send((uint32,bytes32,uint256,uint256,bytes,bytes,bytes),(uint256,uint256),address)",
      "arguments": [
        "(30110, 0x00000000000000000000000045dce8e4f2dc005a5f28206a46cb034697eeda8e, 10000000000000, 0, 0x, 0x, 0x)",
        "(224606017169483307, 0)",
        "0x45DCE8e4F2Dc005A5F28206A46cb034697eEDA8e"
      ],
      "transaction": {
        "from": "0x45dce8e4f2dc005a5f28206a46cb034697eeda8e",
        "to": "0x96a394058e2b84a89bac9667b19661ed003cf5d4",
        "gas": "0x93d3f",
        "value": "0x31df5fb8bcd662b",
        "input": "0xc7c7f5b30000000000000000000000000000000000000000000000000000000000000080000000000000000000000000000000000000000000000000031df5fb8bcd662b000000000000000000000000000000000000000000000000000000000000000000000000000000000000000045dce8e4f2dc005a5f28206a46cb034697eeda8e000000000000000000000000000000000000000000000000000000000000759e00000000000000000000000045dce8e4f2dc005a5f28206a46cb034697eeda8e000000000000000000000000000000000000000000000000000009184e72a000000000000000000000000000000000000000000000000000000000000000000000000000000000000000000000000000000000000000000000000000000000e000000000000000000000000000000000000000000000000000000000000001000000000000000000000000000000000000000000000000000000000000000120000000000000000000000000000000000000000000000000000000000000000000000000000000000000000000000000000000000000000000000000000000000000000000000000000000000000000000000000000000000000000000000000",
        "nonce": "0x156",
        "chainId": "0xfc"
      },
      "additionalContracts": [],
      "isFixedGasLimit": false
    }
  ],
  "receipts": [
    {
      "status": "0x1",
      "cumulativeGasUsed": "0x1be70",
      "logs": [
        {
          "address": "0xfc00000000000000000000000000000000000002",
          "topics": [
            "0x8c5be1e5ebec7d5bd14f71427d1e84f3dd0314c0f7b2291e5b200ac8c7c3b925",
            "0x00000000000000000000000045dce8e4f2dc005a5f28206a46cb034697eeda8e",
            "0x000000000000000000000000d86fbbd0c8715d2c1f40e451e5c3514e65e7576a"
          ],
          "data": "0x000000000000000000000000000000000000000000000000000009184e72a000",
          "blockHash": "0x730c2863b6d1cc6abfbcaefe895c82dcedf5fc1ddc6002c41dff53c2d1616c31",
          "blockNumber": "0x223f8e4",
          "blockTimestamp": "0x6a03cf1f",
          "transactionHash": "0x57b664b830d8b6c390ccddfa43493cee884d3e96a3e3406a44517c779934261f",
          "transactionIndex": "0x1",
          "logIndex": "0x1",
          "removed": false
        }
      ],
      "logsBloom": "0x00000000000000000000000200000100000000000000000000000000000000000200000000000000000000000000400000000000000000000000000000200000000000000000000000000000000000000000000000000000000800000000000000000000000000000000000000000000000000000000000000000000000000000000000000000000000000000000000000000000000000000000000000100000020000000000000000000100000000000000000000000000000000000000000000000000000000000000000000000000001000000000000000000000000000000010000000000000000000000000800000000000000000000000000000000000",
      "type": "0x2",
      "transactionHash": "0x57b664b830d8b6c390ccddfa43493cee884d3e96a3e3406a44517c779934261f",
      "transactionIndex": "0x1",
      "blockHash": "0x730c2863b6d1cc6abfbcaefe895c82dcedf5fc1ddc6002c41dff53c2d1616c31",
      "blockNumber": "0x223f8e4",
      "gasUsed": "0x8ea0",
      "effectiveGasPrice": "0xff",
      "from": "0x45dce8e4f2dc005a5f28206a46cb034697eeda8e",
      "to": "0xfc00000000000000000000000000000000000002",
      "contractAddress": null,
      "l1BaseFeeScalar": "0x2faf080",
      "l1BlobBaseFee": "0x61a7fb",
      "l1BlobBaseFeeScalar": "0x0",
      "l1Fee": "0x8842eed2a00",
      "l1GasPrice": "0x6fa0194",
      "l1GasUsed": "0x640"
    },
    {
      "status": "0x1",
      "cumulativeGasUsed": "0x80068",
      "logs": [
        {
          "address": "0xfc00000000000000000000000000000000000002",
          "topics": [
            "0xddf252ad1be2c89b69c2b068fc378daa952ba7f163c4a11628f55a4df523b3ef",
            "0x00000000000000000000000045dce8e4f2dc005a5f28206a46cb034697eeda8e",
            "0x000000000000000000000000d86fbbd0c8715d2c1f40e451e5c3514e65e7576a"
          ],
          "data": "0x000000000000000000000000000000000000000000000000000009184e72a000",
          "blockHash": "0x730c2863b6d1cc6abfbcaefe895c82dcedf5fc1ddc6002c41dff53c2d1616c31",
          "blockNumber": "0x223f8e4",
          "blockTimestamp": "0x6a03cf1f",
          "transactionHash": "0xcb2ea3bacc50fa342501c4a6a7753c0edb91bc61b8bb0117c0fd63d08450f551",
          "transactionIndex": "0x2",
          "logIndex": "0x2",
          "removed": false
        },
        {
          "address": "0x377530cda84dfb2673bf4d145dcf0c4d7fdcb5b6",
          "topics": [
            "0x61ed099e74a97a1d7f8bb0952a88ca8b7b8ebd00c126ea04671f92a81213318a"
          ],
          "data": "0x00000000000000000000000041bdb4aa4a63a5b2efc531858d3118392b1a1c3d00000000000000000000000000000000000000000000000001a301b925d206a7",
          "blockHash": "0x730c2863b6d1cc6abfbcaefe895c82dcedf5fc1ddc6002c41dff53c2d1616c31",
          "blockNumber": "0x223f8e4",
          "blockTimestamp": "0x6a03cf1f",
          "transactionHash": "0xcb2ea3bacc50fa342501c4a6a7753c0edb91bc61b8bb0117c0fd63d08450f551",
          "transactionIndex": "0x2",
          "logIndex": "0x3",
          "removed": false
        },
        {
          "address": "0x377530cda84dfb2673bf4d145dcf0c4d7fdcb5b6",
          "topics": [
            "0x07ea52d82345d6e838192107d8fd7123d9c2ec8e916cd0aad13fd2b60db24644"
          ],
          "data": "0x000000000000000000000000000000000000000000000000000000000000006000000000000000000000000000000000000000000000000000000000000001200000000000000000000000000000000000000000000000000000000000000140000000000000000000000000000000000000000000000000000000000000000500000000000000000000000026cd5abadf7ec3f0f02b48314bfca6b2342cddd40000000000000000000000006398e91001cc1682bba103e6b2489fa5675a5a64000000000000000000000000a7b5189bca84cd304d8553977c7c614329750d99000000000000000000000000cce466a522984415bc91338c232d98869193d46e000000000000000000000000dd7b5e1db4aafd5c8ec3b764efb8ed265aa5445b00000000000000000000000000000000000000000000000000000000000000000000000000000000000000000000000000000000000000000000000000000005000000000000000000000000000000000000000000000000004cdf083009fee8000000000000000000000000000000000000000000000000004c7066626c06fc000000000000000000000000000000000000000000000000004aed3012c32344000000000000000000000000000000000000000000000000004b5bd1e0611b2e000000000000000000000000000000000000000000000000004b5bd1e0611b2e",
          "blockHash": "0x730c2863b6d1cc6abfbcaefe895c82dcedf5fc1ddc6002c41dff53c2d1616c31",
          "blockNumber": "0x223f8e4",
          "blockTimestamp": "0x6a03cf1f",
          "transactionHash": "0xcb2ea3bacc50fa342501c4a6a7753c0edb91bc61b8bb0117c0fd63d08450f551",
          "transactionIndex": "0x2",
          "logIndex": "0x4",
          "removed": false
        },
        {
          "address": "0x1a44076050125825900e736c501f859c50fe728c",
          "topics": [
            "0x1ab700d4ced0c005b164c0f789fd09fcbb0156d4c2041b8a3bfbcd961cd1567f"
          ],
          "data": "0x00000000000000000000000000000000000000000000000000000000000000600000000000000000000000000000000000000000000000000000000000000120000000000000000000000000377530cda84dfb2673bf4d145dcf0c4d7fdcb5b600000000000000000000000000000000000000000000000000000000000000990100000000000000570000762f000000000000000000000000d86fbbd0c8715d2c1f40e451e5c3514e65e7576a0000759e00000000000000000000000064445f0aecc51e94ad52d8ac56b7190e764e561a8ae5fb0b9dd8ed4decc996be80298399c978498e96bfffff8e2ea4f269087c2b00000000000000000000000045dce8e4f2dc005a5f28206a46cb034697eeda8e000000000000000a00000000000000000000000000000000000000000000000000000000000000000000000000001600030100110100000000000000000000000000030d4000000000000000000000",
          "blockHash": "0x730c2863b6d1cc6abfbcaefe895c82dcedf5fc1ddc6002c41dff53c2d1616c31",
          "blockNumber": "0x223f8e4",
          "blockTimestamp": "0x6a03cf1f",
          "transactionHash": "0xcb2ea3bacc50fa342501c4a6a7753c0edb91bc61b8bb0117c0fd63d08450f551",
          "transactionIndex": "0x2",
          "logIndex": "0x5",
          "removed": false
        },
        {
          "address": "0xd86fbbd0c8715d2c1f40e451e5c3514e65e7576a",
          "topics": [
            "0x85496b760a4b7f8d66384b9df21b381f5d1b1e79f229a47aaf4c232edc2fe59a",
            "0x8ae5fb0b9dd8ed4decc996be80298399c978498e96bfffff8e2ea4f269087c2b",
            "0x00000000000000000000000045dce8e4f2dc005a5f28206a46cb034697eeda8e"
          ],
          "data": "0x000000000000000000000000000000000000000000000000000000000000759e000000000000000000000000000000000000000000000000000009184e72a000000000000000000000000000000000000000000000000000000009184e72a000",
          "blockHash": "0x730c2863b6d1cc6abfbcaefe895c82dcedf5fc1ddc6002c41dff53c2d1616c31",
          "blockNumber": "0x223f8e4",
          "blockTimestamp": "0x6a03cf1f",
          "transactionHash": "0xcb2ea3bacc50fa342501c4a6a7753c0edb91bc61b8bb0117c0fd63d08450f551",
          "transactionIndex": "0x2",
          "logIndex": "0x6",
          "removed": false
        }
      ],
      "logsBloom": "0x00000000000000000000000200000100000000000000000000000000001000000200000000000000000000000000400000040000000000000000000000000000000002004000000000000008000000000000000000000000000800000000000000000000000000008000000000000000000000000010000000000410000000000000000000000000000002080000000000000000000000000000000000100000000000008000001000100104000000000000000004400000000440000000000000000002000000000000000080000000001000000000000000000000000000000801040000000000000000000000802000000000018000000000000000000000",
      "type": "0x2",
      "transactionHash": "0xcb2ea3bacc50fa342501c4a6a7753c0edb91bc61b8bb0117c0fd63d08450f551",
      "transactionIndex": "0x2",
      "blockHash": "0x730c2863b6d1cc6abfbcaefe895c82dcedf5fc1ddc6002c41dff53c2d1616c31",
      "blockNumber": "0x223f8e4",
      "gasUsed": "0x641f8",
      "effectiveGasPrice": "0xff",
      "from": "0x45dce8e4f2dc005a5f28206a46cb034697eeda8e",
      "to": "0xd86fbbd0c8715d2c1f40e451e5c3514e65e7576a",
      "contractAddress": null,
      "l1BaseFeeScalar": "0x2faf080",
      "l1BlobBaseFee": "0x61a7fb",
      "l1BlobBaseFeeScalar": "0x0",
      "l1Fee": "0xb555ff70510",
      "l1GasPrice": "0x6fa0194",
      "l1GasUsed": "0x851"
    },
    {
      "status": "0x1",
      "cumulativeGasUsed": "0x88f88",
      "logs": [
        {
          "address": "0xfc00000000000000000000000000000000000008",
          "topics": [
            "0x8c5be1e5ebec7d5bd14f71427d1e84f3dd0314c0f7b2291e5b200ac8c7c3b925",
            "0x00000000000000000000000045dce8e4f2dc005a5f28206a46cb034697eeda8e",
            "0x00000000000000000000000088aa7854d3b2daa5e37e7ce73a1f39669623a361"
          ],
          "data": "0x000000000000000000000000000000000000000000000000000009184e72a000",
          "blockHash": "0x730c2863b6d1cc6abfbcaefe895c82dcedf5fc1ddc6002c41dff53c2d1616c31",
          "blockNumber": "0x223f8e4",
          "blockTimestamp": "0x6a03cf1f",
          "transactionHash": "0x2184ebbb4575b91c562895a2e02e2724d57a253cfe6959ca623c7adf912aa0ab",
          "transactionIndex": "0x3",
          "logIndex": "0x7",
          "removed": false
        }
      ],
      "logsBloom": "0x00000000000000000000000200000000100000000000000000002000004000000000000000100000000000000000000000000000000000000000000000200000000000000000000000000000000000000000000000000000000000000000000000000000000400000000000000000000000000000000000000000000000000000000000000000000000000000000000000000000000000000000000000000000020000000000000000000000000000000000000000000000000000000000000000000000000000000000000000000000001000000000000000000000000000000010000000000000000000000100800000000000000000000000000000000000",
      "type": "0x2",
      "transactionHash": "0x2184ebbb4575b91c562895a2e02e2724d57a253cfe6959ca623c7adf912aa0ab",
      "transactionIndex": "0x3",
      "blockHash": "0x730c2863b6d1cc6abfbcaefe895c82dcedf5fc1ddc6002c41dff53c2d1616c31",
      "blockNumber": "0x223f8e4",
      "gasUsed": "0x8f20",
      "effectiveGasPrice": "0xff",
      "from": "0x45dce8e4f2dc005a5f28206a46cb034697eeda8e",
      "to": "0xfc00000000000000000000000000000000000008",
      "contractAddress": null,
      "l1BaseFeeScalar": "0x2faf080",
      "l1BlobBaseFee": "0x61a7fb",
      "l1BlobBaseFeeScalar": "0x0",
      "l1Fee": "0x8842eed2a00",
      "l1GasPrice": "0x6fa0194",
      "l1GasUsed": "0x640"
    },
    {
      "status": "0x1",
      "cumulativeGasUsed": "0xf1514",
      "logs": [
        {
          "address": "0x88aa7854d3b2daa5e37e7ce73a1f39669623a361",
          "topics": [
            "0x603e191ccb1fad1c0004c9c1f37101358f84c3cf059031e9ec9b0c17cad34188",
            "0x000000000000000000000000000000000000000000000000000000000000759e"
          ],
          "data": "0x0000000000000000000000000000000000000000000003076658f346c4ff1000000000000000000000000000000000000000000000000000000009184e72a000",
          "blockHash": "0x730c2863b6d1cc6abfbcaefe895c82dcedf5fc1ddc6002c41dff53c2d1616c31",
          "blockNumber": "0x223f8e4",
          "blockTimestamp": "0x6a03cf1f",
          "transactionHash": "0xdc09e2c9506a840c568b58f66b38ebeda0a8d086a2392b292de33ec70001760f",
          "transactionIndex": "0x4",
          "logIndex": "0x8",
          "removed": false
        },
        {
          "address": "0x88aa7854d3b2daa5e37e7ce73a1f39669623a361",
          "topics": [
            "0xd2ff7607bbad14e866630d67da40c9a9cedd964cce5ce4c3dc4176133954ef98"
          ],
          "data": "0x000000000000000000000000000000000000000000240f0f053113f7e0479000000000000000000000000000000000000000000000000000000009184e72a000",
          "blockHash": "0x730c2863b6d1cc6abfbcaefe895c82dcedf5fc1ddc6002c41dff53c2d1616c31",
          "blockNumber": "0x223f8e4",
          "blockTimestamp": "0x6a03cf1f",
          "transactionHash": "0xdc09e2c9506a840c568b58f66b38ebeda0a8d086a2392b292de33ec70001760f",
          "transactionIndex": "0x4",
          "logIndex": "0x9",
          "removed": false
        },
        {
          "address": "0xfc00000000000000000000000000000000000008",
          "topics": [
            "0xddf252ad1be2c89b69c2b068fc378daa952ba7f163c4a11628f55a4df523b3ef",
            "0x00000000000000000000000045dce8e4f2dc005a5f28206a46cb034697eeda8e",
            "0x0000000000000000000000000000000000000000000000000000000000000000"
          ],
          "data": "0x000000000000000000000000000000000000000000000000000009184e72a000",
          "blockHash": "0x730c2863b6d1cc6abfbcaefe895c82dcedf5fc1ddc6002c41dff53c2d1616c31",
          "blockNumber": "0x223f8e4",
          "blockTimestamp": "0x6a03cf1f",
          "transactionHash": "0xdc09e2c9506a840c568b58f66b38ebeda0a8d086a2392b292de33ec70001760f",
          "transactionIndex": "0x4",
          "logIndex": "0xa",
          "removed": false
        },
        {
          "address": "0xfc00000000000000000000000000000000000008",
          "topics": [
            "0xdc7fd22bc401e7c6b9be2c2736286a2a42ea0c6307bc97ff0fb12bd0abd2c747",
            "0x00000000000000000000000045dce8e4f2dc005a5f28206a46cb034697eeda8e",
            "0x00000000000000000000000088aa7854d3b2daa5e37e7ce73a1f39669623a361"
          ],
          "data": "0x000000000000000000000000000000000000000000000000000009184e72a000",
          "blockHash": "0x730c2863b6d1cc6abfbcaefe895c82dcedf5fc1ddc6002c41dff53c2d1616c31",
          "blockNumber": "0x223f8e4",
          "blockTimestamp": "0x6a03cf1f",
          "transactionHash": "0xdc09e2c9506a840c568b58f66b38ebeda0a8d086a2392b292de33ec70001760f",
          "transactionIndex": "0x4",
          "logIndex": "0xb",
          "removed": false
        },
        {
          "address": "0x377530cda84dfb2673bf4d145dcf0c4d7fdcb5b6",
          "topics": [
            "0x61ed099e74a97a1d7f8bb0952a88ca8b7b8ebd00c126ea04671f92a81213318a"
          ],
          "data": "0x00000000000000000000000041bdb4aa4a63a5b2efc531858d3118392b1a1c3d00000000000000000000000000000000000000000000000001a301b925d206a7",
          "blockHash": "0x730c2863b6d1cc6abfbcaefe895c82dcedf5fc1ddc6002c41dff53c2d1616c31",
          "blockNumber": "0x223f8e4",
          "blockTimestamp": "0x6a03cf1f",
          "transactionHash": "0xdc09e2c9506a840c568b58f66b38ebeda0a8d086a2392b292de33ec70001760f",
          "transactionIndex": "0x4",
          "logIndex": "0xc",
          "removed": false
        },
        {
          "address": "0x377530cda84dfb2673bf4d145dcf0c4d7fdcb5b6",
          "topics": [
            "0x07ea52d82345d6e838192107d8fd7123d9c2ec8e916cd0aad13fd2b60db24644"
          ],
          "data": "0x000000000000000000000000000000000000000000000000000000000000006000000000000000000000000000000000000000000000000000000000000001200000000000000000000000000000000000000000000000000000000000000140000000000000000000000000000000000000000000000000000000000000000500000000000000000000000026cd5abadf7ec3f0f02b48314bfca6b2342cddd40000000000000000000000006398e91001cc1682bba103e6b2489fa5675a5a64000000000000000000000000a7b5189bca84cd304d8553977c7c614329750d99000000000000000000000000cce466a522984415bc91338c232d98869193d46e000000000000000000000000dd7b5e1db4aafd5c8ec3b764efb8ed265aa5445b00000000000000000000000000000000000000000000000000000000000000000000000000000000000000000000000000000000000000000000000000000005000000000000000000000000000000000000000000000000004cdf083009fee8000000000000000000000000000000000000000000000000004c7066626c06fc000000000000000000000000000000000000000000000000004aed3012c32344000000000000000000000000000000000000000000000000004b5bd1e0611b2e000000000000000000000000000000000000000000000000004b5bd1e0611b2e",
          "blockHash": "0x730c2863b6d1cc6abfbcaefe895c82dcedf5fc1ddc6002c41dff53c2d1616c31",
          "blockNumber": "0x223f8e4",
          "blockTimestamp": "0x6a03cf1f",
          "transactionHash": "0xdc09e2c9506a840c568b58f66b38ebeda0a8d086a2392b292de33ec70001760f",
          "transactionIndex": "0x4",
          "logIndex": "0xd",
          "removed": false
        },
        {
          "address": "0x1a44076050125825900e736c501f859c50fe728c",
          "topics": [
            "0x1ab700d4ced0c005b164c0f789fd09fcbb0156d4c2041b8a3bfbcd961cd1567f"
          ],
          "data": "0x00000000000000000000000000000000000000000000000000000000000000600000000000000000000000000000000000000000000000000000000000000120000000000000000000000000377530cda84dfb2673bf4d145dcf0c4d7fdcb5b600000000000000000000000000000000000000000000000000000000000000990100000000000000230000762f00000000000000000000000088aa7854d3b2daa5e37e7ce73a1f39669623a3610000759e0000000000000000000000005bff88ca1442c2496f7e475e9e7786383bc070c0c9809bfc2921d6f7e2b47c6d99f511535d958bae297337d808f60e16fd861bd300000000000000000000000045dce8e4f2dc005a5f28206a46cb034697eeda8e000000000000000a00000000000000000000000000000000000000000000000000000000000000000000000000001600030100110100000000000000000000000000030d4000000000000000000000",
          "blockHash": "0x730c2863b6d1cc6abfbcaefe895c82dcedf5fc1ddc6002c41dff53c2d1616c31",
          "blockNumber": "0x223f8e4",
          "blockTimestamp": "0x6a03cf1f",
          "transactionHash": "0xdc09e2c9506a840c568b58f66b38ebeda0a8d086a2392b292de33ec70001760f",
          "transactionIndex": "0x4",
          "logIndex": "0xe",
          "removed": false
        },
        {
          "address": "0x88aa7854d3b2daa5e37e7ce73a1f39669623a361",
          "topics": [
            "0x85496b760a4b7f8d66384b9df21b381f5d1b1e79f229a47aaf4c232edc2fe59a",
            "0xc9809bfc2921d6f7e2b47c6d99f511535d958bae297337d808f60e16fd861bd3",
            "0x00000000000000000000000045dce8e4f2dc005a5f28206a46cb034697eeda8e"
          ],
          "data": "0x000000000000000000000000000000000000000000000000000000000000759e000000000000000000000000000000000000000000000000000009184e72a000000000000000000000000000000000000000000000000000000009184e72a000",
          "blockHash": "0x730c2863b6d1cc6abfbcaefe895c82dcedf5fc1ddc6002c41dff53c2d1616c31",
          "blockNumber": "0x223f8e4",
          "blockTimestamp": "0x6a03cf1f",
          "transactionHash": "0xdc09e2c9506a840c568b58f66b38ebeda0a8d086a2392b292de33ec70001760f",
          "transactionIndex": "0x4",
          "logIndex": "0xf",
          "removed": false
        }
      ],
      "logsBloom": "0x0000000000000000000000020000000010000000000000001000300000500000000000002010000000000000000000000004020000000000000000000000000000000200000000000000000800100000000000000000000000000000000000000000000002040000800000000000088000000000001000000000041000000000000000000000080000000008000000200000000000000020000000000000000000000000800400040010000000000000000000000040000002444000000000000000000200000000000000008000000000140000000008000000000000002000000104000000000000000000010080200000000001a800000000000000000000",
      "type": "0x2",
      "transactionHash": "0xdc09e2c9506a840c568b58f66b38ebeda0a8d086a2392b292de33ec70001760f",
      "transactionIndex": "0x4",
      "blockHash": "0x730c2863b6d1cc6abfbcaefe895c82dcedf5fc1ddc6002c41dff53c2d1616c31",
      "blockNumber": "0x223f8e4",
      "gasUsed": "0x6858c",
      "effectiveGasPrice": "0xff",
      "from": "0x45dce8e4f2dc005a5f28206a46cb034697eeda8e",
      "to": "0x88aa7854d3b2daa5e37e7ce73a1f39669623a361",
      "contractAddress": null,
      "l1BaseFeeScalar": "0x2faf080",
      "l1BlobBaseFee": "0x61a7fb",
      "l1BlobBaseFeeScalar": "0x0",
      "l1Fee": "0xb555ff70510",
      "l1GasPrice": "0x6fa0194",
      "l1GasUsed": "0x851"
    },
    {
      "status": "0x1",
      "cumulativeGasUsed": "0xfa3d6",
      "logs": [
        {
          "address": "0xfc00000000000000000000000000000000000006",
          "topics": [
            "0x8c5be1e5ebec7d5bd14f71427d1e84f3dd0314c0f7b2291e5b200ac8c7c3b925",
            "0x00000000000000000000000045dce8e4f2dc005a5f28206a46cb034697eeda8e",
            "0x0000000000000000000000009abfe1f8a999b0011ecd6116649aee8d575f5604"
          ],
          "data": "0x000000000000000000000000000000000000000000000000000009184e72a000",
          "blockHash": "0x730c2863b6d1cc6abfbcaefe895c82dcedf5fc1ddc6002c41dff53c2d1616c31",
          "blockNumber": "0x223f8e4",
          "blockTimestamp": "0x6a03cf1f",
          "transactionHash": "0x3e5b460fea702bc2ceb056343c299eaf1458f1ac1226c26756f846c6545f5f4a",
          "transactionIndex": "0x5",
          "logIndex": "0x10",
          "removed": false
        }
      ],
      "logsBloom": "0x00000000000000000000000200000000000000000040000000000000000000000000000000000000000000000000000000000000000080000000000000200000000000000000000000000000400000000000000000000000000000000000000000000000000000000000000000000000000000000000000000000000000000000000000000000000010000000000000000000000000000008000000000000000020000000000000000000000000000000000000000000000000000000000000000000000000000000000000000000000001000000000000000000000000000000010000000000000000000000000800000000000000000400000000000000000",
      "type": "0x2",
      "transactionHash": "0x3e5b460fea702bc2ceb056343c299eaf1458f1ac1226c26756f846c6545f5f4a",
      "transactionIndex": "0x5",
      "blockHash": "0x730c2863b6d1cc6abfbcaefe895c82dcedf5fc1ddc6002c41dff53c2d1616c31",
      "blockNumber": "0x223f8e4",
      "gasUsed": "0x8ec2",
      "effectiveGasPrice": "0xff",
      "from": "0x45dce8e4f2dc005a5f28206a46cb034697eeda8e",
      "to": "0xfc00000000000000000000000000000000000006",
      "contractAddress": null,
      "l1BaseFeeScalar": "0x2faf080",
      "l1BlobBaseFee": "0x61a7fb",
      "l1BlobBaseFeeScalar": "0x0",
      "l1Fee": "0x8842eed2a00",
      "l1GasPrice": "0x6fa0194",
      "l1GasUsed": "0x640"
    },
    {
      "status": "0x1",
      "cumulativeGasUsed": "0x15e5a1",
      "logs": [
        {
          "address": "0xfc00000000000000000000000000000000000006",
          "topics": [
            "0xddf252ad1be2c89b69c2b068fc378daa952ba7f163c4a11628f55a4df523b3ef",
            "0x00000000000000000000000045dce8e4f2dc005a5f28206a46cb034697eeda8e",
            "0x0000000000000000000000009abfe1f8a999b0011ecd6116649aee8d575f5604"
          ],
          "data": "0x000000000000000000000000000000000000000000000000000009184e72a000",
          "blockHash": "0x730c2863b6d1cc6abfbcaefe895c82dcedf5fc1ddc6002c41dff53c2d1616c31",
          "blockNumber": "0x223f8e4",
          "blockTimestamp": "0x6a03cf1f",
          "transactionHash": "0xc9004f16bed8c9ab61ee904933710b6ee2277b2d8e48a50f2aee380cb6c4be8f",
          "transactionIndex": "0x6",
          "logIndex": "0x11",
          "removed": false
        },
        {
          "address": "0x377530cda84dfb2673bf4d145dcf0c4d7fdcb5b6",
          "topics": [
            "0x61ed099e74a97a1d7f8bb0952a88ca8b7b8ebd00c126ea04671f92a81213318a"
          ],
          "data": "0x00000000000000000000000041bdb4aa4a63a5b2efc531858d3118392b1a1c3d00000000000000000000000000000000000000000000000001a301b925d206a7",
          "blockHash": "0x730c2863b6d1cc6abfbcaefe895c82dcedf5fc1ddc6002c41dff53c2d1616c31",
          "blockNumber": "0x223f8e4",
          "blockTimestamp": "0x6a03cf1f",
          "transactionHash": "0xc9004f16bed8c9ab61ee904933710b6ee2277b2d8e48a50f2aee380cb6c4be8f",
          "transactionIndex": "0x6",
          "logIndex": "0x12",
          "removed": false
        },
        {
          "address": "0x377530cda84dfb2673bf4d145dcf0c4d7fdcb5b6",
          "topics": [
            "0x07ea52d82345d6e838192107d8fd7123d9c2ec8e916cd0aad13fd2b60db24644"
          ],
          "data": "0x000000000000000000000000000000000000000000000000000000000000006000000000000000000000000000000000000000000000000000000000000001200000000000000000000000000000000000000000000000000000000000000140000000000000000000000000000000000000000000000000000000000000000500000000000000000000000026cd5abadf7ec3f0f02b48314bfca6b2342cddd40000000000000000000000006398e91001cc1682bba103e6b2489fa5675a5a64000000000000000000000000a7b5189bca84cd304d8553977c7c614329750d99000000000000000000000000cce466a522984415bc91338c232d98869193d46e000000000000000000000000dd7b5e1db4aafd5c8ec3b764efb8ed265aa5445b00000000000000000000000000000000000000000000000000000000000000000000000000000000000000000000000000000000000000000000000000000005000000000000000000000000000000000000000000000000004cdf083009fee8000000000000000000000000000000000000000000000000004c7066626c06fc000000000000000000000000000000000000000000000000004aed3012c32344000000000000000000000000000000000000000000000000004b5bd1e0611b2e000000000000000000000000000000000000000000000000004b5bd1e0611b2e",
          "blockHash": "0x730c2863b6d1cc6abfbcaefe895c82dcedf5fc1ddc6002c41dff53c2d1616c31",
          "blockNumber": "0x223f8e4",
          "blockTimestamp": "0x6a03cf1f",
          "transactionHash": "0xc9004f16bed8c9ab61ee904933710b6ee2277b2d8e48a50f2aee380cb6c4be8f",
          "transactionIndex": "0x6",
          "logIndex": "0x13",
          "removed": false
        },
        {
          "address": "0x1a44076050125825900e736c501f859c50fe728c",
          "topics": [
            "0x1ab700d4ced0c005b164c0f789fd09fcbb0156d4c2041b8a3bfbcd961cd1567f"
          ],
          "data": "0x00000000000000000000000000000000000000000000000000000000000000600000000000000000000000000000000000000000000000000000000000000120000000000000000000000000377530cda84dfb2673bf4d145dcf0c4d7fdcb5b600000000000000000000000000000000000000000000000000000000000000990100000000000000d00000762f0000000000000000000000009abfe1f8a999b0011ecd6116649aee8d575f56040000759e00000000000000000000000043edd7f3831b08fe70b7555ddd373c8bf65a905068648eadc0c4378f66ddfeef1b817038953c90a6a1370f6c1b07f3ae46f3952200000000000000000000000045dce8e4f2dc005a5f28206a46cb034697eeda8e000000000000000a00000000000000000000000000000000000000000000000000000000000000000000000000001600030100110100000000000000000000000000030d4000000000000000000000",
          "blockHash": "0x730c2863b6d1cc6abfbcaefe895c82dcedf5fc1ddc6002c41dff53c2d1616c31",
          "blockNumber": "0x223f8e4",
          "blockTimestamp": "0x6a03cf1f",
          "transactionHash": "0xc9004f16bed8c9ab61ee904933710b6ee2277b2d8e48a50f2aee380cb6c4be8f",
          "transactionIndex": "0x6",
          "logIndex": "0x14",
          "removed": false
        },
        {
          "address": "0x9abfe1f8a999b0011ecd6116649aee8d575f5604",
          "topics": [
            "0x85496b760a4b7f8d66384b9df21b381f5d1b1e79f229a47aaf4c232edc2fe59a",
            "0x68648eadc0c4378f66ddfeef1b817038953c90a6a1370f6c1b07f3ae46f39522",
            "0x00000000000000000000000045dce8e4f2dc005a5f28206a46cb034697eeda8e"
          ],
          "data": "0x000000000000000000000000000000000000000000000000000000000000759e000000000000000000000000000000000000000000000000000009184e72a000000000000000000000000000000000000000000000000000000009184e72a000",
          "blockHash": "0x730c2863b6d1cc6abfbcaefe895c82dcedf5fc1ddc6002c41dff53c2d1616c31",
          "blockNumber": "0x223f8e4",
          "blockTimestamp": "0x6a03cf1f",
          "transactionHash": "0xc9004f16bed8c9ab61ee904933710b6ee2277b2d8e48a50f2aee380cb6c4be8f",
          "transactionIndex": "0x6",
          "logIndex": "0x15",
          "removed": false
        }
      ],
      "logsBloom": "0x000000400000000000000002000000000000000000400000000000000010000000000000000000000000000000000000000400000000800000000000000000000000020000000000000000084000000000000000000000000000000000000000000000000000000080000000000000000000000000100000000004100080000000000000000000000100000800800000000000000000000080000000000000000000000080000000001000000000000000000000004000001004400000000000000000020000000000000000a0000000001400000000000000000000000000000001040000000000000000000000802000000000018000400000000000000000",
      "type": "0x2",
      "transactionHash": "0xc9004f16bed8c9ab61ee904933710b6ee2277b2d8e48a50f2aee380cb6c4be8f",
      "transactionIndex": "0x6",
      "blockHash": "0x730c2863b6d1cc6abfbcaefe895c82dcedf5fc1ddc6002c41dff53c2d1616c31",
      "blockNumber": "0x223f8e4",
      "gasUsed": "0x641cb",
      "effectiveGasPrice": "0xff",
      "from": "0x45dce8e4f2dc005a5f28206a46cb034697eeda8e",
      "to": "0x9abfe1f8a999b0011ecd6116649aee8d575f5604",
      "contractAddress": null,
      "l1BaseFeeScalar": "0x2faf080",
      "l1BlobBaseFee": "0x61a7fb",
      "l1BlobBaseFeeScalar": "0x0",
      "l1Fee": "0xb555ff70510",
      "l1GasPrice": "0x6fa0194",
      "l1GasUsed": "0x851"
    },
    {
      "status": "0x1",
      "cumulativeGasUsed": "0x16770a",
      "logs": [
        {
          "address": "0xfc00000000000000000000000000000000000003",
          "topics": [
            "0x8c5be1e5ebec7d5bd14f71427d1e84f3dd0314c0f7b2291e5b200ac8c7c3b925",
            "0x00000000000000000000000045dce8e4f2dc005a5f28206a46cb034697eeda8e",
            "0x00000000000000000000000075c38d46001b0f8108c4136216bd2694982c20fc"
          ],
          "data": "0x000000000000000000000000000000000000000000000000000009184e72a000",
          "blockHash": "0x730c2863b6d1cc6abfbcaefe895c82dcedf5fc1ddc6002c41dff53c2d1616c31",
          "blockNumber": "0x223f8e4",
          "blockTimestamp": "0x6a03cf1f",
          "transactionHash": "0x99f8091876d1a46dae22d259706c5ba2b4a6e5d58f18c9dfa0f4861c26ff1bc6",
          "transactionIndex": "0x7",
          "logIndex": "0x16",
          "removed": false
        }
      ],
      "logsBloom": "0x00004000000000000000000200000000000000000000000020000000000000000000000000000000000000000000000000000000000000000000000000200000000000000000000000000000000000000000000000000000080000000000000000000000000000000000000000000000000000000000000000000000000000000000000000000000000000000000000000000000000000200000000000000000020000000000000000000000000000000000000000000000000000000000000000000000000000000000000000000000001000000000000000000000000000002010000000000000000000000020800000000000000000000000000000000000",
      "type": "0x2",
      "transactionHash": "0x99f8091876d1a46dae22d259706c5ba2b4a6e5d58f18c9dfa0f4861c26ff1bc6",
      "transactionIndex": "0x7",
      "blockHash": "0x730c2863b6d1cc6abfbcaefe895c82dcedf5fc1ddc6002c41dff53c2d1616c31",
      "blockNumber": "0x223f8e4",
      "gasUsed": "0x9169",
      "effectiveGasPrice": "0xff",
      "from": "0x45dce8e4f2dc005a5f28206a46cb034697eeda8e",
      "to": "0xfc00000000000000000000000000000000000003",
      "contractAddress": null,
      "l1BaseFeeScalar": "0x2faf080",
      "l1BlobBaseFee": "0x61a7fb",
      "l1BlobBaseFeeScalar": "0x0",
      "l1Fee": "0x8842eed2a00",
      "l1GasPrice": "0x6fa0194",
      "l1GasUsed": "0x640"
    },
    {
      "status": "0x1",
      "cumulativeGasUsed": "0x1cff0b",
      "logs": [
        {
          "address": "0x75c38d46001b0f8108c4136216bd2694982c20fc",
          "topics": [
            "0x603e191ccb1fad1c0004c9c1f37101358f84c3cf059031e9ec9b0c17cad34188",
            "0x000000000000000000000000000000000000000000000000000000000000759e"
          ],
          "data": "0x000000000000000000000000000000000000000000000000f9ccd8a1c5080000000000000000000000000000000000000000000000000000000009184e72a000",
          "blockHash": "0x730c2863b6d1cc6abfbcaefe895c82dcedf5fc1ddc6002c41dff53c2d1616c31",
          "blockNumber": "0x223f8e4",
          "blockTimestamp": "0x6a03cf1f",
          "transactionHash": "0x378fbc4677cf5f820e017f4f93325df3e72b33c72e90a486a324b0c11bfadbde",
          "transactionIndex": "0x8",
          "logIndex": "0x17",
          "removed": false
        },
        {
          "address": "0x75c38d46001b0f8108c4136216bd2694982c20fc",
          "topics": [
            "0xd2ff7607bbad14e866630d67da40c9a9cedd964cce5ce4c3dc4176133954ef98"
          ],
          "data": "0x00000000000000000000000000000000000000000000096e4fca429112a5b000000000000000000000000000000000000000000000000000000009184e72a000",
          "blockHash": "0x730c2863b6d1cc6abfbcaefe895c82dcedf5fc1ddc6002c41dff53c2d1616c31",
          "blockNumber": "0x223f8e4",
          "blockTimestamp": "0x6a03cf1f",
          "transactionHash": "0x378fbc4677cf5f820e017f4f93325df3e72b33c72e90a486a324b0c11bfadbde",
          "transactionIndex": "0x8",
          "logIndex": "0x18",
          "removed": false
        },
        {
          "address": "0xfc00000000000000000000000000000000000003",
          "topics": [
            "0xddf252ad1be2c89b69c2b068fc378daa952ba7f163c4a11628f55a4df523b3ef",
            "0x00000000000000000000000045dce8e4f2dc005a5f28206a46cb034697eeda8e",
            "0x0000000000000000000000000000000000000000000000000000000000000000"
          ],
          "data": "0x000000000000000000000000000000000000000000000000000009184e72a000",
          "blockHash": "0x730c2863b6d1cc6abfbcaefe895c82dcedf5fc1ddc6002c41dff53c2d1616c31",
          "blockNumber": "0x223f8e4",
          "blockTimestamp": "0x6a03cf1f",
          "transactionHash": "0x378fbc4677cf5f820e017f4f93325df3e72b33c72e90a486a324b0c11bfadbde",
          "transactionIndex": "0x8",
          "logIndex": "0x19",
          "removed": false
        },
        {
          "address": "0xfc00000000000000000000000000000000000003",
          "topics": [
            "0xdc7fd22bc401e7c6b9be2c2736286a2a42ea0c6307bc97ff0fb12bd0abd2c747",
            "0x00000000000000000000000045dce8e4f2dc005a5f28206a46cb034697eeda8e",
            "0x00000000000000000000000075c38d46001b0f8108c4136216bd2694982c20fc"
          ],
          "data": "0x000000000000000000000000000000000000000000000000000009184e72a000",
          "blockHash": "0x730c2863b6d1cc6abfbcaefe895c82dcedf5fc1ddc6002c41dff53c2d1616c31",
          "blockNumber": "0x223f8e4",
          "blockTimestamp": "0x6a03cf1f",
          "transactionHash": "0x378fbc4677cf5f820e017f4f93325df3e72b33c72e90a486a324b0c11bfadbde",
          "transactionIndex": "0x8",
          "logIndex": "0x1a",
          "removed": false
        },
        {
          "address": "0x377530cda84dfb2673bf4d145dcf0c4d7fdcb5b6",
          "topics": [
            "0x61ed099e74a97a1d7f8bb0952a88ca8b7b8ebd00c126ea04671f92a81213318a"
          ],
          "data": "0x00000000000000000000000041bdb4aa4a63a5b2efc531858d3118392b1a1c3d00000000000000000000000000000000000000000000000001a301b925d206a7",
          "blockHash": "0x730c2863b6d1cc6abfbcaefe895c82dcedf5fc1ddc6002c41dff53c2d1616c31",
          "blockNumber": "0x223f8e4",
          "blockTimestamp": "0x6a03cf1f",
          "transactionHash": "0x378fbc4677cf5f820e017f4f93325df3e72b33c72e90a486a324b0c11bfadbde",
          "transactionIndex": "0x8",
          "logIndex": "0x1b",
          "removed": false
        },
        {
          "address": "0x377530cda84dfb2673bf4d145dcf0c4d7fdcb5b6",
          "topics": [
            "0x07ea52d82345d6e838192107d8fd7123d9c2ec8e916cd0aad13fd2b60db24644"
          ],
          "data": "0x000000000000000000000000000000000000000000000000000000000000006000000000000000000000000000000000000000000000000000000000000001200000000000000000000000000000000000000000000000000000000000000140000000000000000000000000000000000000000000000000000000000000000500000000000000000000000026cd5abadf7ec3f0f02b48314bfca6b2342cddd40000000000000000000000006398e91001cc1682bba103e6b2489fa5675a5a64000000000000000000000000a7b5189bca84cd304d8553977c7c614329750d99000000000000000000000000cce466a522984415bc91338c232d98869193d46e000000000000000000000000dd7b5e1db4aafd5c8ec3b764efb8ed265aa5445b00000000000000000000000000000000000000000000000000000000000000000000000000000000000000000000000000000000000000000000000000000005000000000000000000000000000000000000000000000000004cdf083009fee8000000000000000000000000000000000000000000000000004c7066626c06fc000000000000000000000000000000000000000000000000004aed3012c32344000000000000000000000000000000000000000000000000004b5bd1e0611b2e000000000000000000000000000000000000000000000000004b5bd1e0611b2e",
          "blockHash": "0x730c2863b6d1cc6abfbcaefe895c82dcedf5fc1ddc6002c41dff53c2d1616c31",
          "blockNumber": "0x223f8e4",
          "blockTimestamp": "0x6a03cf1f",
          "transactionHash": "0x378fbc4677cf5f820e017f4f93325df3e72b33c72e90a486a324b0c11bfadbde",
          "transactionIndex": "0x8",
          "logIndex": "0x1c",
          "removed": false
        },
        {
          "address": "0x1a44076050125825900e736c501f859c50fe728c",
          "topics": [
            "0x1ab700d4ced0c005b164c0f789fd09fcbb0156d4c2041b8a3bfbcd961cd1567f"
          ],
          "data": "0x00000000000000000000000000000000000000000000000000000000000000600000000000000000000000000000000000000000000000000000000000000120000000000000000000000000377530cda84dfb2673bf4d145dcf0c4d7fdcb5b600000000000000000000000000000000000000000000000000000000000000990100000000000000050000762f00000000000000000000000075c38d46001b0f8108c4136216bd2694982c20fc0000759e00000000000000000000000090581eca9469d8d7f5d3b60f4715027adfcf79270e824475c3d05cd524304d72b5d6f99586a2da52cc1fdaf1b156d4e8008a9b9c00000000000000000000000045dce8e4f2dc005a5f28206a46cb034697eeda8e000000000000000a00000000000000000000000000000000000000000000000000000000000000000000000000001600030100110100000000000000000000000000030d4000000000000000000000",
          "blockHash": "0x730c2863b6d1cc6abfbcaefe895c82dcedf5fc1ddc6002c41dff53c2d1616c31",
          "blockNumber": "0x223f8e4",
          "blockTimestamp": "0x6a03cf1f",
          "transactionHash": "0x378fbc4677cf5f820e017f4f93325df3e72b33c72e90a486a324b0c11bfadbde",
          "transactionIndex": "0x8",
          "logIndex": "0x1d",
          "removed": false
        },
        {
          "address": "0x75c38d46001b0f8108c4136216bd2694982c20fc",
          "topics": [
            "0x85496b760a4b7f8d66384b9df21b381f5d1b1e79f229a47aaf4c232edc2fe59a",
            "0x0e824475c3d05cd524304d72b5d6f99586a2da52cc1fdaf1b156d4e8008a9b9c",
            "0x00000000000000000000000045dce8e4f2dc005a5f28206a46cb034697eeda8e"
          ],
          "data": "0x000000000000000000000000000000000000000000000000000000000000759e000000000000000000000000000000000000000000000000000009184e72a000000000000000000000000000000000000000000000000000000009184e72a000",
          "blockHash": "0x730c2863b6d1cc6abfbcaefe895c82dcedf5fc1ddc6002c41dff53c2d1616c31",
          "blockNumber": "0x223f8e4",
          "blockTimestamp": "0x6a03cf1f",
          "transactionHash": "0x378fbc4677cf5f820e017f4f93325df3e72b33c72e90a486a324b0c11bfadbde",
          "transactionIndex": "0x8",
          "logIndex": "0x1e",
          "removed": false
        }
      ],
      "logsBloom": "0x00004000000000000000000200000000000000000000000030001000001000000000000020000000000000000000000000040200000000008000000000000000000002000000000000000008001000000000000000000000080000000000000000000000820000008000000000200800000000000010000000000410000000000000000000000800000000080000000000000000000000200000000000000000000000008000000400100000000000000000000000400000004440000000000000000002000000000000000080000000101400000000080000000000000020002801040000000000000000000020802000000000018800000000000000000000",
      "type": "0x2",
      "transactionHash": "0x378fbc4677cf5f820e017f4f93325df3e72b33c72e90a486a324b0c11bfadbde",
      "transactionIndex": "0x8",
      "blockHash": "0x730c2863b6d1cc6abfbcaefe895c82dcedf5fc1ddc6002c41dff53c2d1616c31",
      "blockNumber": "0x223f8e4",
      "gasUsed": "0x68801",
      "effectiveGasPrice": "0xff",
      "from": "0x45dce8e4f2dc005a5f28206a46cb034697eeda8e",
      "to": "0x75c38d46001b0f8108c4136216bd2694982c20fc",
      "contractAddress": null,
      "l1BaseFeeScalar": "0x2faf080",
      "l1BlobBaseFee": "0x61a7fb",
      "l1BlobBaseFeeScalar": "0x0",
      "l1Fee": "0xb555ff70510",
      "l1GasPrice": "0x6fa0194",
      "l1GasUsed": "0x851"
    },
    {
      "status": "0x1",
      "cumulativeGasUsed": "0x1d9080",
      "logs": [
        {
          "address": "0xfc00000000000000000000000000000000000005",
          "topics": [
            "0x8c5be1e5ebec7d5bd14f71427d1e84f3dd0314c0f7b2291e5b200ac8c7c3b925",
            "0x00000000000000000000000045dce8e4f2dc005a5f28206a46cb034697eeda8e",
            "0x000000000000000000000000999dfabe3b1cc2ef66eb032eea42fea329bba168"
          ],
          "data": "0x000000000000000000000000000000000000000000000000000009184e72a000",
          "blockHash": "0x730c2863b6d1cc6abfbcaefe895c82dcedf5fc1ddc6002c41dff53c2d1616c31",
          "blockNumber": "0x223f8e4",
          "blockTimestamp": "0x6a03cf1f",
          "transactionHash": "0x36518dcf80fd2955d0a1e34516b8687a770b0cfa34efae2837d99d57cdf3c728",
          "transactionIndex": "0x9",
          "logIndex": "0x1f",
          "removed": false
        }
      ],
      "logsBloom": "0x00000000000000200000000200000000000000000000000000000000000000000000000000000000000000000080000000000000000000000000000000200000000000000000000000000000000000000000000000000000000000000000000000000000000000000000000000080000000000000000000000000000000000000000000000000000000000000000000000000008000000000000000000000000020000000000000000000000000000000000000000000000000000040000000000000000000000000040000000000000001000000000000000000000000000000010000000000000000000000000800000000000000000000000000000000000",
      "type": "0x2",
      "transactionHash": "0x36518dcf80fd2955d0a1e34516b8687a770b0cfa34efae2837d99d57cdf3c728",
      "transactionIndex": "0x9",
      "blockHash": "0x730c2863b6d1cc6abfbcaefe895c82dcedf5fc1ddc6002c41dff53c2d1616c31",
      "blockNumber": "0x223f8e4",
      "gasUsed": "0x9175",
      "effectiveGasPrice": "0xff",
      "from": "0x45dce8e4f2dc005a5f28206a46cb034697eeda8e",
      "to": "0xfc00000000000000000000000000000000000005",
      "contractAddress": null,
      "l1BaseFeeScalar": "0x2faf080",
      "l1BlobBaseFee": "0x61a7fb",
      "l1BlobBaseFeeScalar": "0x0",
      "l1Fee": "0x8842eed2a00",
      "l1GasPrice": "0x6fa0194",
      "l1GasUsed": "0x640"
    },
    {
      "status": "0x1",
      "cumulativeGasUsed": "0x23d652",
      "logs": [
        {
          "address": "0xfc00000000000000000000000000000000000005",
          "topics": [
            "0xddf252ad1be2c89b69c2b068fc378daa952ba7f163c4a11628f55a4df523b3ef",
            "0x00000000000000000000000045dce8e4f2dc005a5f28206a46cb034697eeda8e",
            "0x000000000000000000000000999dfabe3b1cc2ef66eb032eea42fea329bba168"
          ],
          "data": "0x000000000000000000000000000000000000000000000000000009184e72a000",
          "blockHash": "0x730c2863b6d1cc6abfbcaefe895c82dcedf5fc1ddc6002c41dff53c2d1616c31",
          "blockNumber": "0x223f8e4",
          "blockTimestamp": "0x6a03cf1f",
          "transactionHash": "0xd31be46cbbe345be906f0a2de2293d29d9211f44bc1d93245229826dc91c3292",
          "transactionIndex": "0xa",
          "logIndex": "0x20",
          "removed": false
        },
        {
          "address": "0x377530cda84dfb2673bf4d145dcf0c4d7fdcb5b6",
          "topics": [
            "0x61ed099e74a97a1d7f8bb0952a88ca8b7b8ebd00c126ea04671f92a81213318a"
          ],
          "data": "0x00000000000000000000000041bdb4aa4a63a5b2efc531858d3118392b1a1c3d00000000000000000000000000000000000000000000000001a301b925d206a7",
          "blockHash": "0x730c2863b6d1cc6abfbcaefe895c82dcedf5fc1ddc6002c41dff53c2d1616c31",
          "blockNumber": "0x223f8e4",
          "blockTimestamp": "0x6a03cf1f",
          "transactionHash": "0xd31be46cbbe345be906f0a2de2293d29d9211f44bc1d93245229826dc91c3292",
          "transactionIndex": "0xa",
          "logIndex": "0x21",
          "removed": false
        },
        {
          "address": "0x377530cda84dfb2673bf4d145dcf0c4d7fdcb5b6",
          "topics": [
            "0x07ea52d82345d6e838192107d8fd7123d9c2ec8e916cd0aad13fd2b60db24644"
          ],
          "data": "0x000000000000000000000000000000000000000000000000000000000000006000000000000000000000000000000000000000000000000000000000000001200000000000000000000000000000000000000000000000000000000000000140000000000000000000000000000000000000000000000000000000000000000500000000000000000000000026cd5abadf7ec3f0f02b48314bfca6b2342cddd40000000000000000000000006398e91001cc1682bba103e6b2489fa5675a5a64000000000000000000000000a7b5189bca84cd304d8553977c7c614329750d99000000000000000000000000cce466a522984415bc91338c232d98869193d46e000000000000000000000000dd7b5e1db4aafd5c8ec3b764efb8ed265aa5445b00000000000000000000000000000000000000000000000000000000000000000000000000000000000000000000000000000000000000000000000000000005000000000000000000000000000000000000000000000000004cdf083009fee8000000000000000000000000000000000000000000000000004c7066626c06fc000000000000000000000000000000000000000000000000004aed3012c32344000000000000000000000000000000000000000000000000004b5bd1e0611b2e000000000000000000000000000000000000000000000000004b5bd1e0611b2e",
          "blockHash": "0x730c2863b6d1cc6abfbcaefe895c82dcedf5fc1ddc6002c41dff53c2d1616c31",
          "blockNumber": "0x223f8e4",
          "blockTimestamp": "0x6a03cf1f",
          "transactionHash": "0xd31be46cbbe345be906f0a2de2293d29d9211f44bc1d93245229826dc91c3292",
          "transactionIndex": "0xa",
          "logIndex": "0x22",
          "removed": false
        },
        {
          "address": "0x1a44076050125825900e736c501f859c50fe728c",
          "topics": [
            "0x1ab700d4ced0c005b164c0f789fd09fcbb0156d4c2041b8a3bfbcd961cd1567f"
          ],
          "data": "0x00000000000000000000000000000000000000000000000000000000000000600000000000000000000000000000000000000000000000000000000000000120000000000000000000000000377530cda84dfb2673bf4d145dcf0c4d7fdcb5b600000000000000000000000000000000000000000000000000000000000000990100000000000000180000762f000000000000000000000000999dfabe3b1cc2ef66eb032eea42fea329bba1680000759e0000000000000000000000003ec3849c33291a9ef4c5db86de593eb4a37fde457bfd250007d6567ea3df5ff437256cdb89c59b4e9603aae4fcb3813d430e1b0f00000000000000000000000045dce8e4f2dc005a5f28206a46cb034697eeda8e000000000000000a00000000000000000000000000000000000000000000000000000000000000000000000000001600030100110100000000000000000000000000030d4000000000000000000000",
          "blockHash": "0x730c2863b6d1cc6abfbcaefe895c82dcedf5fc1ddc6002c41dff53c2d1616c31",
          "blockNumber": "0x223f8e4",
          "blockTimestamp": "0x6a03cf1f",
          "transactionHash": "0xd31be46cbbe345be906f0a2de2293d29d9211f44bc1d93245229826dc91c3292",
          "transactionIndex": "0xa",
          "logIndex": "0x23",
          "removed": false
        },
        {
          "address": "0x999dfabe3b1cc2ef66eb032eea42fea329bba168",
          "topics": [
            "0x85496b760a4b7f8d66384b9df21b381f5d1b1e79f229a47aaf4c232edc2fe59a",
            "0x7bfd250007d6567ea3df5ff437256cdb89c59b4e9603aae4fcb3813d430e1b0f",
            "0x00000000000000000000000045dce8e4f2dc005a5f28206a46cb034697eeda8e"
          ],
          "data": "0x000000000000000000000000000000000000000000000000000000000000759e000000000000000000000000000000000000000000000000000009184e72a000000000000000000000000000000000000000000000000000000009184e72a000",
          "blockHash": "0x730c2863b6d1cc6abfbcaefe895c82dcedf5fc1ddc6002c41dff53c2d1616c31",
          "blockNumber": "0x223f8e4",
          "blockTimestamp": "0x6a03cf1f",
          "transactionHash": "0xd31be46cbbe345be906f0a2de2293d29d9211f44bc1d93245229826dc91c3292",
          "transactionIndex": "0xa",
          "logIndex": "0x24",
          "removed": false
        }
      ],
      "logsBloom": "0x00000000000000200000000200000000000000000000000000000000001000000000000000000000000000000080000000040000000000000000000000000000000002000000000000000008000000000000000000000000000000000000000000000000000000008000000000080000000000000010000000000410000000000000000000000000040000080000000000000008000000040000000000000000000000008010000000100000000000000000000000400000000440040000000000000002000001000040000080000000001000000000000000000000000000000001040000000008004000000000802000000000018000000000000000000000",
      "type": "0x2",
      "transactionHash": "0xd31be46cbbe345be906f0a2de2293d29d9211f44bc1d93245229826dc91c3292",
      "transactionIndex": "0xa",
      "blockHash": "0x730c2863b6d1cc6abfbcaefe895c82dcedf5fc1ddc6002c41dff53c2d1616c31",
      "blockNumber": "0x223f8e4",
      "gasUsed": "0x645d2",
      "effectiveGasPrice": "0xff",
      "from": "0x45dce8e4f2dc005a5f28206a46cb034697eeda8e",
      "to": "0x999dfabe3b1cc2ef66eb032eea42fea329bba168",
      "contractAddress": null,
      "l1BaseFeeScalar": "0x2faf080",
      "l1BlobBaseFee": "0x61a7fb",
      "l1BlobBaseFeeScalar": "0x0",
      "l1Fee": "0xb555ff70510",
      "l1GasPrice": "0x6fa0194",
      "l1GasUsed": "0x851"
    },
    {
      "status": "0x1",
      "cumulativeGasUsed": "0x24653a",
      "logs": [
        {
          "address": "0xfc00000000000000000000000000000000000001",
          "topics": [
            "0x8c5be1e5ebec7d5bd14f71427d1e84f3dd0314c0f7b2291e5b200ac8c7c3b925",
            "0x00000000000000000000000045dce8e4f2dc005a5f28206a46cb034697eeda8e",
            "0x00000000000000000000000096a394058e2b84a89bac9667b19661ed003cf5d4"
          ],
          "data": "0x000000000000000000000000000000000000000000000000000009184e72a000",
          "blockHash": "0x730c2863b6d1cc6abfbcaefe895c82dcedf5fc1ddc6002c41dff53c2d1616c31",
          "blockNumber": "0x223f8e4",
          "blockTimestamp": "0x6a03cf1f",
          "transactionHash": "0x435541e1756eff896546e41c2e2c50d44af62f61047f5a9325689f8ef89f4e52",
          "transactionIndex": "0xb",
          "logIndex": "0x25",
          "removed": false
        }
      ],
      "logsBloom": "0x04000000000000000000000200000000000000000000000000000000000000000000000000000000000000000000000000000000000000000000000000200000000000000000000000000000000000000000000000000000010000000000000000000000000000000000100000800000000000000000000000000000000000000000000000000000000000000000000000004000000000000000000000000000020000000000000000000000000000000000000000000000000000000000000000000000000000000000000000000000001000000000000000000000000000000010000000000000000000000001800000000000000000000000000000000000",
      "type": "0x2",
      "transactionHash": "0x435541e1756eff896546e41c2e2c50d44af62f61047f5a9325689f8ef89f4e52",
      "transactionIndex": "0xb",
      "blockHash": "0x730c2863b6d1cc6abfbcaefe895c82dcedf5fc1ddc6002c41dff53c2d1616c31",
      "blockNumber": "0x223f8e4",
      "gasUsed": "0x8ee8",
      "effectiveGasPrice": "0xff",
      "from": "0x45dce8e4f2dc005a5f28206a46cb034697eeda8e",
      "to": "0xfc00000000000000000000000000000000000001",
      "contractAddress": null,
      "l1BaseFeeScalar": "0x2faf080",
      "l1BlobBaseFee": "0x61a7fb",
      "l1BlobBaseFeeScalar": "0x0",
      "l1Fee": "0x8842eed2a00",
      "l1GasPrice": "0x6fa0194",
      "l1GasUsed": "0x640"
    },
    {
      "status": "0x1",
      "cumulativeGasUsed": "0x2b15a0",
      "logs": [
        {
          "address": "0x96a394058e2b84a89bac9667b19661ed003cf5d4",
          "topics": [
            "0x603e191ccb1fad1c0004c9c1f37101358f84c3cf059031e9ec9b0c17cad34188",
            "0x000000000000000000000000000000000000000000000000000000000000759e"
          ],
          "data": "0x00000000000000000000000000000000000000000000456fa438d015be353000000000000000000000000000000000000000000000000000000009184e72a000",
          "blockHash": "0x730c2863b6d1cc6abfbcaefe895c82dcedf5fc1ddc6002c41dff53c2d1616c31",
          "blockNumber": "0x223f8e4",
          "blockTimestamp": "0x6a03cf1f",
          "transactionHash": "0xbcdd44be90d247bc76f8a1b45ac97000dea47457b755759efe85df5b472eaa98",
          "transactionIndex": "0xc",
          "logIndex": "0x26",
          "removed": false
        },
        {
          "address": "0x96a394058e2b84a89bac9667b19661ed003cf5d4",
          "topics": [
            "0xd2ff7607bbad14e866630d67da40c9a9cedd964cce5ce4c3dc4176133954ef98"
          ],
          "data": "0x000000000000000000000000000000000000000000ae164b5c2f564cc954d000000000000000000000000000000000000000000000000000000009184e72a000",
          "blockHash": "0x730c2863b6d1cc6abfbcaefe895c82dcedf5fc1ddc6002c41dff53c2d1616c31",
          "blockNumber": "0x223f8e4",
          "blockTimestamp": "0x6a03cf1f",
          "transactionHash": "0xbcdd44be90d247bc76f8a1b45ac97000dea47457b755759efe85df5b472eaa98",
          "transactionIndex": "0xc",
          "logIndex": "0x27",
          "removed": false
        },
        {
          "address": "0xfc00000000000000000000000000000000000001",
          "topics": [
            "0xddf252ad1be2c89b69c2b068fc378daa952ba7f163c4a11628f55a4df523b3ef",
            "0x00000000000000000000000045dce8e4f2dc005a5f28206a46cb034697eeda8e",
            "0x0000000000000000000000000000000000000000000000000000000000000000"
          ],
          "data": "0x000000000000000000000000000000000000000000000000000009184e72a000",
          "blockHash": "0x730c2863b6d1cc6abfbcaefe895c82dcedf5fc1ddc6002c41dff53c2d1616c31",
          "blockNumber": "0x223f8e4",
          "blockTimestamp": "0x6a03cf1f",
          "transactionHash": "0xbcdd44be90d247bc76f8a1b45ac97000dea47457b755759efe85df5b472eaa98",
          "transactionIndex": "0xc",
          "logIndex": "0x28",
          "removed": false
        },
        {
          "address": "0xfc00000000000000000000000000000000000001",
          "topics": [
            "0xdc7fd22bc401e7c6b9be2c2736286a2a42ea0c6307bc97ff0fb12bd0abd2c747",
            "0x00000000000000000000000045dce8e4f2dc005a5f28206a46cb034697eeda8e",
            "0x00000000000000000000000096a394058e2b84a89bac9667b19661ed003cf5d4"
          ],
          "data": "0x000000000000000000000000000000000000000000000000000009184e72a000",
          "blockHash": "0x730c2863b6d1cc6abfbcaefe895c82dcedf5fc1ddc6002c41dff53c2d1616c31",
          "blockNumber": "0x223f8e4",
          "blockTimestamp": "0x6a03cf1f",
          "transactionHash": "0xbcdd44be90d247bc76f8a1b45ac97000dea47457b755759efe85df5b472eaa98",
          "transactionIndex": "0xc",
          "logIndex": "0x29",
          "removed": false
        },
        {
          "address": "0x377530cda84dfb2673bf4d145dcf0c4d7fdcb5b6",
          "topics": [
            "0x61ed099e74a97a1d7f8bb0952a88ca8b7b8ebd00c126ea04671f92a81213318a"
          ],
          "data": "0x00000000000000000000000041bdb4aa4a63a5b2efc531858d3118392b1a1c3d00000000000000000000000000000000000000000000000001a301b925d206a7",
          "blockHash": "0x730c2863b6d1cc6abfbcaefe895c82dcedf5fc1ddc6002c41dff53c2d1616c31",
          "blockNumber": "0x223f8e4",
          "blockTimestamp": "0x6a03cf1f",
          "transactionHash": "0xbcdd44be90d247bc76f8a1b45ac97000dea47457b755759efe85df5b472eaa98",
          "transactionIndex": "0xc",
          "logIndex": "0x2a",
          "removed": false
        },
        {
          "address": "0x377530cda84dfb2673bf4d145dcf0c4d7fdcb5b6",
          "topics": [
            "0x07ea52d82345d6e838192107d8fd7123d9c2ec8e916cd0aad13fd2b60db24644"
          ],
          "data": "0x000000000000000000000000000000000000000000000000000000000000006000000000000000000000000000000000000000000000000000000000000001200000000000000000000000000000000000000000000000000000000000000140000000000000000000000000000000000000000000000000000000000000000500000000000000000000000026cd5abadf7ec3f0f02b48314bfca6b2342cddd40000000000000000000000006398e91001cc1682bba103e6b2489fa5675a5a64000000000000000000000000a7b5189bca84cd304d8553977c7c614329750d99000000000000000000000000cce466a522984415bc91338c232d98869193d46e000000000000000000000000dd7b5e1db4aafd5c8ec3b764efb8ed265aa5445b00000000000000000000000000000000000000000000000000000000000000000000000000000000000000000000000000000000000000000000000000000005000000000000000000000000000000000000000000000000004cdf083009fee8000000000000000000000000000000000000000000000000004c7066626c06fc000000000000000000000000000000000000000000000000004aed3012c32344000000000000000000000000000000000000000000000000004b5bd1e0611b2e000000000000000000000000000000000000000000000000004b5bd1e0611b2e",
          "blockHash": "0x730c2863b6d1cc6abfbcaefe895c82dcedf5fc1ddc6002c41dff53c2d1616c31",
          "blockNumber": "0x223f8e4",
          "blockTimestamp": "0x6a03cf1f",
          "transactionHash": "0xbcdd44be90d247bc76f8a1b45ac97000dea47457b755759efe85df5b472eaa98",
          "transactionIndex": "0xc",
          "logIndex": "0x2b",
          "removed": false
        },
        {
          "address": "0x1a44076050125825900e736c501f859c50fe728c",
          "topics": [
            "0x1ab700d4ced0c005b164c0f789fd09fcbb0156d4c2041b8a3bfbcd961cd1567f"
          ],
          "data": "0x00000000000000000000000000000000000000000000000000000000000000600000000000000000000000000000000000000000000000000000000000000120000000000000000000000000377530cda84dfb2673bf4d145dcf0c4d7fdcb5b600000000000000000000000000000000000000000000000000000000000000990100000000000001e90000762f00000000000000000000000096a394058e2b84a89bac9667b19661ed003cf5d40000759e00000000000000000000000080eede496655fb9047dd39d9f418d5483ed600df30dc498da9409560d94089a091f848a00c999d4d02bb5493bde9b46f64a6377900000000000000000000000045dce8e4f2dc005a5f28206a46cb034697eeda8e000000000000000a00000000000000000000000000000000000000000000000000000000000000000000000000001600030100110100000000000000000000000000030d4000000000000000000000",
          "blockHash": "0x730c2863b6d1cc6abfbcaefe895c82dcedf5fc1ddc6002c41dff53c2d1616c31",
          "blockNumber": "0x223f8e4",
          "blockTimestamp": "0x6a03cf1f",
          "transactionHash": "0xbcdd44be90d247bc76f8a1b45ac97000dea47457b755759efe85df5b472eaa98",
          "transactionIndex": "0xc",
          "logIndex": "0x2c",
          "removed": false
        },
        {
          "address": "0x96a394058e2b84a89bac9667b19661ed003cf5d4",
          "topics": [
            "0x85496b760a4b7f8d66384b9df21b381f5d1b1e79f229a47aaf4c232edc2fe59a",
            "0x30dc498da9409560d94089a091f848a00c999d4d02bb5493bde9b46f64a63779",
            "0x00000000000000000000000045dce8e4f2dc005a5f28206a46cb034697eeda8e"
          ],
          "data": "0x000000000000000000000000000000000000000000000000000000000000759e000000000000000000000000000000000000000000000000000009184e72a000000000000000000000000000000000000000000000000000000009184e72a000",
          "blockHash": "0x730c2863b6d1cc6abfbcaefe895c82dcedf5fc1ddc6002c41dff53c2d1616c31",
          "blockNumber": "0x223f8e4",
          "blockTimestamp": "0x6a03cf1f",
          "transactionHash": "0xbcdd44be90d247bc76f8a1b45ac97000dea47457b755759efe85df5b472eaa98",
          "transactionIndex": "0xc",
          "logIndex": "0x2d",
          "removed": false
        }
      ],
      "logsBloom": "0x04000000000000000000000200000000000000000000000010001000001000000000000020000000000000000400000000040200000000000000000000000000000002200000000000000008001000000000000000000000010000000000000000000000020000008000100000800800000000000010000000000410000000000000000000000800000000080000000000004000000008200000000000000000000000008000000400100000000000000000000000400000004440000000000000002002000000000800000080000000001410000000080000000000000020000001040000000000000000000001802000000000018800000000000000000000",
      "type": "0x2",
      "transactionHash": "0xbcdd44be90d247bc76f8a1b45ac97000dea47457b755759efe85df5b472eaa98",
      "transactionIndex": "0xc",
      "blockHash": "0x730c2863b6d1cc6abfbcaefe895c82dcedf5fc1ddc6002c41dff53c2d1616c31",
      "blockNumber": "0x223f8e4",
      "gasUsed": "0x6b066",
      "effectiveGasPrice": "0xff",
      "from": "0x45dce8e4f2dc005a5f28206a46cb034697eeda8e",
      "to": "0x96a394058e2b84a89bac9667b19661ed003cf5d4",
      "contractAddress": null,
      "l1BaseFeeScalar": "0x2faf080",
      "l1BlobBaseFee": "0x61a7fb",
      "l1BlobBaseFeeScalar": "0x0",
      "l1Fee": "0xb555ff70510",
      "l1GasPrice": "0x6fa0194",
      "l1GasUsed": "0x851"
    }
  ],
  "libraries": [],
  "pending": [],
  "returns": {},
  "timestamp": 1778634527745,
  "chain": 252,
  "commit": "3c1e5d2a"
}