{
  "transactions": [
    {
      "hash": "0x2ad0b8d5de4b1deea9e0cebd1d703b7c3b7cb372a6df030564ade937bafcdd08",
      "transactionType": "CALL",
      "contractName": null,
      "contractAddress": "0x80eede496655fb9047dd39d9f418d5483ed600df",
      "function": "approve(address,uint256)",
      "arguments": [
        "0x29F5DBD0FE72d8f11271FCBE79Cb87E18a83C70A",
        "10000000000000"
      ],
      "transaction": {
        "from": "0x45dce8e4f2dc005a5f28206a46cb034697eeda8e",
        "to": "0x80eede496655fb9047dd39d9f418d5483ed600df",
        "gas": "0x11779",
        "value": "0x0",
        "input": "0x095ea7b300000000000000000000000029f5dbd0fe72d8f11271fcbe79cb87e18a83c70a000000000000000000000000000000000000000000000000000009184e72a000",
        "nonce": "0xb6",
        "chainId": "0xa4b1"
      },
      "additionalContracts": [],
      "isFixedGasLimit": false
    },
    {
      "hash": "0x47eb8ad6a60fc0a6576579d78793fdb09d23c0f1d5c267c888cd6c5a9bbc2572",
      "transactionType": "CALL",
      "contractName": null,
      "contractAddress": "0x29f5dbd0fe72d8f11271fcbe79cb87e18a83c70a",
      "function": "sendOFT(address,uint32,bytes32,uint256)",
      "arguments": [
        "0x80Eede496655FB9047dd39d9f418d5483ED600df",
        "30184",
        "0x00000000000000000000000045dce8e4f2dc005a5f28206a46cb034697eeda8e",
        "10000000000000"
      ],
      "transaction": {
        "from": "0x45dce8e4f2dc005a5f28206a46cb034697eeda8e",
        "to": "0x29f5dbd0fe72d8f11271fcbe79cb87e18a83c70a",
        "gas": "0xcfd21",
        "value": "0x269242992430",
        "input": "0x3e832c9000000000000000000000000080eede496655fb9047dd39d9f418d5483ed600df00000000000000000000000000000000000000000000000000000000000075e800000000000000000000000045dce8e4f2dc005a5f28206a46cb034697eeda8e000000000000000000000000000000000000000000000000000009184e72a000",
        "nonce": "0xb7",
        "chainId": "0xa4b1"
      },
      "additionalContracts": [],
      "isFixedGasLimit": false
    },
    {
      "hash": "0xf9bc1486a60142ce2a95fe40df108490cbece8d1026a14087a27c812b927b1b9",
      "transactionType": "CALL",
      "contractName": null,
      "contractAddress": "0x5bff88ca1442c2496f7e475e9e7786383bc070c0",
      "function": "approve(address,uint256)",
      "arguments": [
        "0x29F5DBD0FE72d8f11271FCBE79Cb87E18a83C70A",
        "10000000000000"
      ],
      "transaction": {
        "from": "0x45dce8e4f2dc005a5f28206a46cb034697eeda8e",
        "to": "0x5bff88ca1442c2496f7e475e9e7786383bc070c0",
        "gas": "0x1175c",
        "value": "0x0",
        "input": "0x095ea7b300000000000000000000000029f5dbd0fe72d8f11271fcbe79cb87e18a83c70a000000000000000000000000000000000000000000000000000009184e72a000",
        "nonce": "0xb8",
        "chainId": "0xa4b1"
      },
      "additionalContracts": [],
      "isFixedGasLimit": false
    },
    {
      "hash": "0xeb9d8207e071c3ded9e3e0d2d1c162892320dcefe576fea41418f157e228e612",
      "transactionType": "CALL",
      "contractName": null,
      "contractAddress": "0x29f5dbd0fe72d8f11271fcbe79cb87e18a83c70a",
      "function": "sendOFT(address,uint32,bytes32,uint256)",
      "arguments": [
        "0x5Bff88cA1442c2496f7E475E9e7786383Bc070c0",
        "30184",
        "0x00000000000000000000000045dce8e4f2dc005a5f28206a46cb034697eeda8e",
        "10000000000000"
      ],
      "transaction": {
        "from": "0x45dce8e4f2dc005a5f28206a46cb034697eeda8e",
        "to": "0x29f5dbd0fe72d8f11271fcbe79cb87e18a83c70a",
        "gas": "0xd7688",
        "value": "0x269242992430",
        "input": "0x3e832c900000000000000000000000005bff88ca1442c2496f7e475e9e7786383bc070c000000000000000000000000000000000000000000000000000000000000075e800000000000000000000000045dce8e4f2dc005a5f28206a46cb034697eeda8e000000000000000000000000000000000000000000000000000009184e72a000",
        "nonce": "0xb9",
        "chainId": "0xa4b1"
      },
      "additionalContracts": [],
      "isFixedGasLimit": false
    },
    {
      "hash": "0x78dd021f2b0c7249fb732a15b37cb222d71857da5721d7fb5700298cb73b2168",
      "transactionType": "CALL",
      "contractName": null,
      "contractAddress": "0x43edd7f3831b08fe70b7555ddd373c8bf65a9050",
      "function": "approve(address,uint256)",
      "arguments": [
        "0x29F5DBD0FE72d8f11271FCBE79Cb87E18a83C70A",
        "10000000000000"
      ],
      "transaction": {
        "from": "0x45dce8e4f2dc005a5f28206a46cb034697eeda8e",
        "to": "0x43edd7f3831b08fe70b7555ddd373c8bf65a9050",
        "gas": "0x11779",
        "value": "0x0",
        "input": "0x095ea7b300000000000000000000000029f5dbd0fe72d8f11271fcbe79cb87e18a83c70a000000000000000000000000000000000000000000000000000009184e72a000",
        "nonce": "0xba",
        "chainId": "0xa4b1"
      },
      "additionalContracts": [],
      "isFixedGasLimit": false
    },
    {
      "hash": "0x9da663bbdb071e98fb953c5f5c9471a9895e9c567480b89e9fe7934ea6b81b14",
      "transactionType": "CALL",
      "contractName": null,
      "contractAddress": "0x29f5dbd0fe72d8f11271fcbe79cb87e18a83c70a",
      "function": "sendOFT(address,uint32,bytes32,uint256)",
      "arguments": [
        "0x43eDD7f3831b08FE70B7555ddD373C8bF65a9050",
        "30184",
        "0x00000000000000000000000045dce8e4f2dc005a5f28206a46cb034697eeda8e",
        "10000000000000"
      ],
      "transaction": {
        "from": "0x45dce8e4f2dc005a5f28206a46cb034697eeda8e",
        "to": "0x29f5dbd0fe72d8f11271fcbe79cb87e18a83c70a",
        "gas": "0xd76a9",
        "value": "0x269242992430",
        "input": "0x3e832c9000000000000000000000000043edd7f3831b08fe70b7555ddd373c8bf65a905000000000000000000000000000000000000000000000000000000000000075e800000000000000000000000045dce8e4f2dc005a5f28206a46cb034697eeda8e000000000000000000000000000000000000000000000000000009184e72a000",
        "nonce": "0xbb",
        "chainId": "0xa4b1"
      },
      "additionalContracts": [],
      "isFixedGasLimit": false
    },
    {
      "hash": "0xfd997a195ce9e2635c2ae15f2e155fafb76130de569a3f10c1e46f58aa1f19a3",
      "transactionType": "CALL",
      "contractName": null,
      "contractAddress": "0x3ec3849c33291a9ef4c5db86de593eb4a37fde45",
      "function": "approve(address,uint256)",
      "arguments": [
        "0x29F5DBD0FE72d8f11271FCBE79Cb87E18a83C70A",
        "10000000000000"
      ],
      "transaction": {
        "from": "0x45dce8e4f2dc005a5f28206a46cb034697eeda8e",
        "to": "0x3ec3849c33291a9ef4c5db86de593eb4a37fde45",
        "gas": "0x11779",
        "value": "0x0",
        "input": "0x095ea7b300000000000000000000000029f5dbd0fe72d8f11271fcbe79cb87e18a83c70a000000000000000000000000000000000000000000000000000009184e72a000",
        "nonce": "0xbc",
        "chainId": "0xa4b1"
      },
      "additionalContracts": [],
      "isFixedGasLimit": false
    },
    {
      "hash": "0x3bb5c694cff36c9082333fb836bd884da7f3aa45b94a1eb7674f48286d074d33",
      "transactionType": "CALL",
      "contractName": null,
      "contractAddress": "0x29f5dbd0fe72d8f11271fcbe79cb87e18a83c70a",
      "function": "sendOFT(address,uint32,bytes32,uint256)",
      "arguments": [
        "0x3Ec3849C33291a9eF4c5dB86De593EB4A37fDe45",
        "30184",
        "0x00000000000000000000000045dce8e4f2dc005a5f28206a46cb034697eeda8e",
        "10000000000000"
      ],
      "transaction": {
        "from": "0x45dce8e4f2dc005a5f28206a46cb034697eeda8e",
        "to": "0x29f5dbd0fe72d8f11271fcbe79cb87e18a83c70a",
        "gas": "0xd76a9",
        "value": "0x269242992430",
        "input": "0x3e832c900000000000000000000000003ec3849c33291a9ef4c5db86de593eb4a37fde4500000000000000000000000000000000000000000000000000000000000075e800000000000000000000000045dce8e4f2dc005a5f28206a46cb034697eeda8e000000000000000000000000000000000000000000000000000009184e72a000",
        "nonce": "0xbd",
        "chainId": "0xa4b1"
      },
      "additionalContracts": [],
      "isFixedGasLimit": false
    },
    {
      "hash": "0x3ad87a0386c711dac34b2da0bfc7c65103e5b289e0c26ec16e282b40d2a1667a",
      "transactionType": "CALL",
      "contractName": null,
      "contractAddress": "0x64445f0aecc51e94ad52d8ac56b7190e764e561a",
      "function": "approve(address,uint256)",
      "arguments": [
        "0x29F5DBD0FE72d8f11271FCBE79Cb87E18a83C70A",
        "10000000000000"
      ],
      "transaction": {
        "from": "0x45dce8e4f2dc005a5f28206a46cb034697eeda8e",
        "to": "0x64445f0aecc51e94ad52d8ac56b7190e764e561a",
        "gas": "0x1175c",
        "value": "0x0",
        "input": "0x095ea7b300000000000000000000000029f5dbd0fe72d8f11271fcbe79cb87e18a83c70a000000000000000000000000000000000000000000000000000009184e72a000",
        "nonce": "0xbe",
        "chainId": "0xa4b1"
      },
      "additionalContracts": [],
      "isFixedGasLimit": false
    },
    {
      "hash": "0x29f9e8c9f7a31eb570aff7ce7f56586b02b0d6347ba908baa70c77654a761a76",
      "transactionType": "CALL",
      "contractName": null,
      "contractAddress": "0x29f5dbd0fe72d8f11271fcbe79cb87e18a83c70a",
      "function": "sendOFT(address,uint32,bytes32,uint256)",
      "arguments": [
        "0x64445f0aecC51E94aD52d8AC56b7190e764E561a",
        "30184",
        "0x00000000000000000000000045dce8e4f2dc005a5f28206a46cb034697eeda8e",
        "10000000000000"
      ],
      "transaction": {
        "from": "0x45dce8e4f2dc005a5f28206a46cb034697eeda8e",
        "to": "0x29f5dbd0fe72d8f11271fcbe79cb87e18a83c70a",
        "gas": "0xd7688",
        "value": "0x269242992430",
        "input": "0x3e832c9000000000000000000000000064445f0aecc51e94ad52d8ac56b7190e764e561a00000000000000000000000000000000000000000000000000000000000075e800000000000000000000000045dce8e4f2dc005a5f28206a46cb034697eeda8e000000000000000000000000000000000000000000000000000009184e72a000",
        "nonce": "0xbf",
        "chainId": "0xa4b1"
      },
      "additionalContracts": [],
      "isFixedGasLimit": false
    },
    {
      "hash": "0x07abe5249226dcc215ae382fd614cf480f00c2deca989ea10e0a8eaaadfc519e",
      "transactionType": "CALL",
      "contractName": null,
      "contractAddress": "0x90581eca9469d8d7f5d3b60f4715027adfcf7927",
      "function": "approve(address,uint256)",
      "arguments": [
        "0x29F5DBD0FE72d8f11271FCBE79Cb87E18a83C70A",
        "10000000000000"
      ],
      "transaction": {
        "from": "0x45dce8e4f2dc005a5f28206a46cb034697eeda8e",
        "to": "0x90581eca9469d8d7f5d3b60f4715027adfcf7927",
        "gas": "0x11779",
        "value": "0x0",
        "input": "0x095ea7b300000000000000000000000029f5dbd0fe72d8f11271fcbe79cb87e18a83c70a000000000000000000000000000000000000000000000000000009184e72a000",
        "nonce": "0xc0",
        "chainId": "0xa4b1"
      },
      "additionalContracts": [],
      "isFixedGasLimit": false
    },
    {
      "hash": "0x3b16197d0369fb285fd9df65c8a7ffe45ef94738b05044aec2e9568b2b8405c5",
      "transactionType": "CALL",
      "contractName": null,
      "contractAddress": "0x29f5dbd0fe72d8f11271fcbe79cb87e18a83c70a",
      "function": "sendOFT(address,uint32,bytes32,uint256)",
      "arguments": [
        "0x90581eCa9469D8D7F5D3B60f4715027aDFCf7927",
        "30184",
        "0x00000000000000000000000045dce8e4f2dc005a5f28206a46cb034697eeda8e",
        "10000000000000"
      ],
      "transaction": {
        "from": "0x45dce8e4f2dc005a5f28206a46cb034697eeda8e",
        "to": "0x29f5dbd0fe72d8f11271fcbe79cb87e18a83c70a",
        "gas": "0xe3a0a",
        "value": "0x269242992430",
        "input": "0x3e832c9000000000000000000000000090581eca9469d8d7f5d3b60f4715027adfcf792700000000000000000000000000000000000000000000000000000000000075e800000000000000000000000045dce8e4f2dc005a5f28206a46cb034697eeda8e000000000000000000000000000000000000000000000000000009184e72a000",
        "nonce": "0xc1",
        "chainId": "0xa4b1"
      },
      "additionalContracts": [],
      "isFixedGasLimit": false
    }
  ],
  "receipts": [
    {
      "status": "0x1",
      "cumulativeGasUsed": "0x3436b",
      "logs": [
        {
          "address": "0x80eede496655fb9047dd39d9f418d5483ed600df",
          "topics": [
            "0x8c5be1e5ebec7d5bd14f71427d1e84f3dd0314c0f7b2291e5b200ac8c7c3b925",
            "0x00000000000000000000000045dce8e4f2dc005a5f28206a46cb034697eeda8e",
            "0x00000000000000000000000029f5dbd0fe72d8f11271fcbe79cb87e18a83c70a"
          ],
          "data": "0x000000000000000000000000000000000000000000000000000009184e72a000",
          "blockHash": "0x5df33ef87b444c01ad941eda84e4d8c067e32018c2c92d7422f15969c7e89be3",
          "blockNumber": "0x1b8d226f",
          "blockTimestamp": "0x6a03d24f",
          "transactionHash": "0x2ad0b8d5de4b1deea9e0cebd1d703b7c3b7cb372a6df030564ade937bafcdd08",
          "transactionIndex": "0x3",
          "logIndex": "0x4",
          "removed": false
        }
      ],
      "logsBloom": "0x00000000010000000000000200000020000000000000000000000000000000000000000000000000000000000800000000000000000000000000000200200000000000000000000000000000000000000000000000000000000000000000000000000000000000000000000000000000000000000000000000000000010000000000000000000000000000000000000000000000000000000000000000000000020000000000000000800000000000000000000000000000000000000000000000000000000000000000000000000000001000000000000000000000000000000010000000000000000000000000800000000000000000000000000000000000",
      "type": "0x2",
      "transactionHash": "0x2ad0b8d5de4b1deea9e0cebd1d703b7c3b7cb372a6df030564ade937bafcdd08",
      "transactionIndex": "0x3",
      "blockHash": "0x5df33ef87b444c01ad941eda84e4d8c067e32018c2c92d7422f15969c7e89be3",
      "blockNumber": "0x1b8d226f",
      "gasUsed": "0xd36d",
      "effectiveGasPrice": "0x1317b20",
      "from": "0x45dce8e4f2dc005a5f28206a46cb034697eeda8e",
      "to": "0x80eede496655fb9047dd39d9f418d5483ed600df",
      "contractAddress": null,
      "gasUsedForL1": "0x1bb",
      "l1BlockNumber": "0x17ebc0f",
      "timeboosted": false
    },
    {
      "status": "0x1",
      "cumulativeGasUsed": "0x104f5c",
      "logs": [
        {
          "address": "0x80eede496655fb9047dd39d9f418d5483ed600df",
          "topics": [
            "0x8c5be1e5ebec7d5bd14f71427d1e84f3dd0314c0f7b2291e5b200ac8c7c3b925",
            "0x00000000000000000000000045dce8e4f2dc005a5f28206a46cb034697eeda8e",
            "0x00000000000000000000000029f5dbd0fe72d8f11271fcbe79cb87e18a83c70a"
          ],
          "data": "0x0000000000000000000000000000000000000000000000000000000000000000",
          "blockHash": "0x86a9190f658a10fe1a62490ea17936c4314c576af8b4a2ee19cc38238a0abd5e",
          "blockNumber": "0x1b8d2279",
          "blockTimestamp": "0x6a03d252",
          "transactionHash": "0x47eb8ad6a60fc0a6576579d78793fdb09d23c0f1d5c267c888cd6c5a9bbc2572",
          "transactionIndex": "0x4",
          "logIndex": "0x6",
          "removed": false
        },
        {
          "address": "0x80eede496655fb9047dd39d9f418d5483ed600df",
          "topics": [
            "0xddf252ad1be2c89b69c2b068fc378daa952ba7f163c4a11628f55a4df523b3ef",
            "0x00000000000000000000000045dce8e4f2dc005a5f28206a46cb034697eeda8e",
            "0x00000000000000000000000029f5dbd0fe72d8f11271fcbe79cb87e18a83c70a"
          ],
          "data": "0x000000000000000000000000000000000000000000000000000009184e72a000",
          "blockHash": "0x86a9190f658a10fe1a62490ea17936c4314c576af8b4a2ee19cc38238a0abd5e",
          "blockNumber": "0x1b8d2279",
          "blockTimestamp": "0x6a03d252",
          "transactionHash": "0x47eb8ad6a60fc0a6576579d78793fdb09d23c0f1d5c267c888cd6c5a9bbc2572",
          "transactionIndex": "0x4",
          "logIndex": "0x7",
          "removed": false
        },
        {
          "address": "0x80eede496655fb9047dd39d9f418d5483ed600df",
          "topics": [
            "0x8c5be1e5ebec7d5bd14f71427d1e84f3dd0314c0f7b2291e5b200ac8c7c3b925",
            "0x00000000000000000000000029f5dbd0fe72d8f11271fcbe79cb87e18a83c70a",
            "0x00000000000000000000000080eede496655fb9047dd39d9f418d5483ed600df"
          ],
          "data": "0x000000000000000000000000000000000000000000000000000009184e72a000",
          "blockHash": "0x86a9190f658a10fe1a62490ea17936c4314c576af8b4a2ee19cc38238a0abd5e",
          "blockNumber": "0x1b8d2279",
          "blockTimestamp": "0x6a03d252",
          "transactionHash": "0x47eb8ad6a60fc0a6576579d78793fdb09d23c0f1d5c267c888cd6c5a9bbc2572",
          "transactionIndex": "0x4",
          "logIndex": "0x8",
          "removed": false
        },
        {
          "address": "0x80eede496655fb9047dd39d9f418d5483ed600df",
          "topics": [
            "0xddf252ad1be2c89b69c2b068fc378daa952ba7f163c4a11628f55a4df523b3ef",
            "0x00000000000000000000000029f5dbd0fe72d8f11271fcbe79cb87e18a83c70a",
            "0x0000000000000000000000000000000000000000000000000000000000000000"
          ],
          "data": "0x000000000000000000000000000000000000000000000000000009184e72a000",
          "blockHash": "0x86a9190f658a10fe1a62490ea17936c4314c576af8b4a2ee19cc38238a0abd5e",
          "blockNumber": "0x1b8d2279",
          "blockTimestamp": "0x6a03d252",
          "transactionHash": "0x47eb8ad6a60fc0a6576579d78793fdb09d23c0f1d5c267c888cd6c5a9bbc2572",
          "transactionIndex": "0x4",
          "logIndex": "0x9",
          "removed": false
        },
        {
          "address": "0x975bcd720be66659e3eb3c0e4f1866a3020e493a",
          "topics": [
            "0x61ed099e74a97a1d7f8bb0952a88ca8b7b8ebd00c126ea04671f92a81213318a"
          ],
          "data": "0x00000000000000000000000031cae3b7fb82d847621859fb1585353c5720660d0000000000000000000000000000000000000000000000000000084d9f153325",
          "blockHash": "0x86a9190f658a10fe1a62490ea17936c4314c576af8b4a2ee19cc38238a0abd5e",
          "blockNumber": "0x1b8d2279",
          "blockTimestamp": "0x6a03d252",
          "transactionHash": "0x47eb8ad6a60fc0a6576579d78793fdb09d23c0f1d5c267c888cd6c5a9bbc2572",
          "transactionIndex": "0x4",
          "logIndex": "0xa",
          "removed": false
        },
        {
          "address": "0x975bcd720be66659e3eb3c0e4f1866a3020e493a",
          "topics": [
            "0x07ea52d82345d6e838192107d8fd7123d9c2ec8e916cd0aad13fd2b60db24644"
          ],
          "data": "0x000000000000000000000000000000000000000000000000000000000000006000000000000000000000000000000000000000000000000000000000000001200000000000000000000000000000000000000000000000000000000000000140000000000000000000000000000000000000000000000000000000000000000500000000000000000000000019670df5e16bea2ba9b9e68b48c054c5baea06b80000000000000000000000002f55c492897526677c5b68fb199ea31e2c126416000000000000000000000000a7b5189bca84cd304d8553977c7c614329750d99000000000000000000000000b42726e41dbe96fc4ea6d73cd792167608353698000000000000000000000000f2e380c90e6c09721297526dbc74f870e114dfcb0000000000000000000000000000000000000000000000000000000000000000000000000000000000000000000000000000000000000000000000000000000500000000000000000000000000000000000000000000000000000110299296490000000000000000000000000000000000000000000000000000011029929649000000000000000000000000000000000000000000000000000000f9e10aa5ed0000000000000000000000000000000000000000000000000000015e276e5f8800000000000000000000000000000000000000000000000000000147dee66f2c",
          "blockHash": "0x86a9190f658a10fe1a62490ea17936c4314c576af8b4a2ee19cc38238a0abd5e",
          "blockNumber": "0x1b8d2279",
          "blockTimestamp": "0x6a03d252",
          "transactionHash": "0x47eb8ad6a60fc0a6576579d78793fdb09d23c0f1d5c267c888cd6c5a9bbc2572",
          "transactionIndex": "0x4",
          "logIndex": "0xb",
          "removed": false
        },
        {
          "address": "0x1a44076050125825900e736c501f859c50fe728c",
          "topics": [
            "0x1ab700d4ced0c005b164c0f789fd09fcbb0156d4c2041b8a3bfbcd961cd1567f"
          ],
          "data": "0x00000000000000000000000000000000000000000000000000000000000000600000000000000000000000000000000000000000000000000000000000000180000000000000000000000000975bcd720be66659e3eb3c0e4f1866a3020e493a00000000000000000000000000000000000000000000000000000000000000f90100000000000001920000759e00000000000000000000000080eede496655fb9047dd39d9f418d5483ed600df0000762f00000000000000000000000096a394058e2b84a89bac9667b19661ed003cf5d49fea61ee8ac0612f3eb5ba3097db412b4f5024b0d79d53884c63ca382de5d4f50000000000000000000000002a2019b30c157db6c1c01306b8025167dbe1803b000000000000000a00000000000000000000000029f5dbd0fe72d8f11271fcbe79cb87e18a83c70a00000000000000000000000045dce8e4f2dc005a5f28206a46cb034697eeda8e00000000000000000000000000000000000000000000000000000000000075e800000000000000000000000000000000000000000000000000000000000000000000000000002c0003010011010000000000000000000000000003d090010013030000000000000000000000000000000f42400000000000000000000000000000000000000000",
          "blockHash": "0x86a9190f658a10fe1a62490ea17936c4314c576af8b4a2ee19cc38238a0abd5e",
          "blockNumber": "0x1b8d2279",
          "blockTimestamp": "0x6a03d252",
          "transactionHash": "0x47eb8ad6a60fc0a6576579d78793fdb09d23c0f1d5c267c888cd6c5a9bbc2572",
          "transactionIndex": "0x4",
          "logIndex": "0xc",
          "removed": false
        },
        {
          "address": "0x80eede496655fb9047dd39d9f418d5483ed600df",
          "topics": [
            "0x85496b760a4b7f8d66384b9df21b381f5d1b1e79f229a47aaf4c232edc2fe59a",
            "0x9fea61ee8ac0612f3eb5ba3097db412b4f5024b0d79d53884c63ca382de5d4f5",
            "0x00000000000000000000000029f5dbd0fe72d8f11271fcbe79cb87e18a83c70a"
          ],
          "data": "0x000000000000000000000000000000000000000000000000000000000000762f000000000000000000000000000000000000000000000000000009184e72a000000000000000000000000000000000000000000000000000000009184e72a000",
          "blockHash": "0x86a9190f658a10fe1a62490ea17936c4314c576af8b4a2ee19cc38238a0abd5e",
          "blockNumber": "0x1b8d2279",
          "blockTimestamp": "0x6a03d252",
          "transactionHash": "0x47eb8ad6a60fc0a6576579d78793fdb09d23c0f1d5c267c888cd6c5a9bbc2572",
          "transactionIndex": "0x4",
          "logIndex": "0xd",
          "removed": false
        },
        {
          "address": "0x29f5dbd0fe72d8f11271fcbe79cb87e18a83c70a",
          "topics": [
            "0xbc9ee36b6ca0bdd5b3840e6d329dd19a2490d880c7ce24d9818aa593adfb35be",
            "0x00000000000000000000000045dce8e4f2dc005a5f28206a46cb034697eeda8e",
            "0x00000000000000000000000000000000000000000000000000000000000075e8",
            "0x00000000000000000000000045dce8e4f2dc005a5f28206a46cb034697eeda8e"
          ],
          "data": "0x00000000000000000000000080eede496655fb9047dd39d9f418d5483ed600df000000000000000000000000000000000000000000000000000009184e72a000",
          "blockHash": "0x86a9190f658a10fe1a62490ea17936c4314c576af8b4a2ee19cc38238a0abd5e",
          "blockNumber": "0x1b8d2279",
          "blockTimestamp": "0x6a03d252",
          "transactionHash": "0x47eb8ad6a60fc0a6576579d78793fdb09d23c0f1d5c267c888cd6c5a9bbc2572",
          "transactionIndex": "0x4",
          "logIndex": "0xe",
          "removed": false
        }
      ],
      "logsBloom": "0x00000000010040000000000200000020000000000000000000000000001000000000080000000400000000000800000400000000000400000000000210200000000002000000000000000008000000000000000000002000000000000000000000000000020800008000008000000800000020000010100000000010010000000000000000004000000000080000000000000000000000000000000000000000020000108040000020900000000000000000000000400000000440000000008000000002000000000000000080000000001000000000000000000000000022000010040020000000000000000000802000000000018000000000000000000000",
      "type": "0x2",
      "transactionHash": "0x47eb8ad6a60fc0a6576579d78793fdb09d23c0f1d5c267c888cd6c5a9bbc2572",
      "transactionIndex": "0x4",
      "blockHash": "0x86a9190f658a10fe1a62490ea17936c4314c576af8b4a2ee19cc38238a0abd5e",
      "blockNumber": "0x1b8d2279",
      "gasUsed": "0x969bf",
      "effectiveGasPrice": "0x1312d00",
      "from": "0x45dce8e4f2dc005a5f28206a46cb034697eeda8e",
      "to": "0x29f5dbd0fe72d8f11271fcbe79cb87e18a83c70a",
      "contractAddress": null,
      "gasUsedForL1": "0x269",
      "l1BlockNumber": "0x17ebc0f",
      "timeboosted": false
    },
    {
      "status": "0x1",
      "cumulativeGasUsed": "0xd35a",
      "logs": [
        {
          "address": "0x5bff88ca1442c2496f7e475e9e7786383bc070c0",
          "topics": [
            "0x8c5be1e5ebec7d5bd14f71427d1e84f3dd0314c0f7b2291e5b200ac8c7c3b925",
            "0x00000000000000000000000045dce8e4f2dc005a5f28206a46cb034697eeda8e",
            "0x00000000000000000000000029f5dbd0fe72d8f11271fcbe79cb87e18a83c70a"
          ],
          "data": "0x000000000000000000000000000000000000000000000000000009184e72a000",
          "blockHash": "0xc0a8a4f205b17d7cf2cc2fb1c26b90ef3c246b1155603620480f190d8c26bd1d",
          "blockNumber": "0x1b8d2281",
          "blockTimestamp": "0x6a03d254",
          "transactionHash": "0xf9bc1486a60142ce2a95fe40df108490cbece8d1026a14087a27c812b927b1b9",
          "transactionIndex": "0x1",
          "logIndex": "0x0",
          "removed": false
        }
      ],
      "logsBloom": "0x00000000010000000000000200000020000000000000000000000000000000000000000000000000000000000000000000000000000000000000000000200000000000000000000000000000000000000000000000000000000000000000000000000000000000000000000000000000000000000000000000000000000000000000000000000000000000000000000000000000000000000000000000000000020000000000000000800000000000000000000000000000000000000010000000000000000000000000000000000000001000800000000000000000000000000010000000000000000000000000800000000000000000000000000000000800",
      "type": "0x2",
      "transactionHash": "0xf9bc1486a60142ce2a95fe40df108490cbece8d1026a14087a27c812b927b1b9",
      "transactionIndex": "0x1",
      "blockHash": "0xc0a8a4f205b17d7cf2cc2fb1c26b90ef3c246b1155603620480f190d8c26bd1d",
      "blockNumber": "0x1b8d2281",
      "gasUsed": "0xd35a",
      "effectiveGasPrice": "0x1312d00",
      "from": "0x45dce8e4f2dc005a5f28206a46cb034697eeda8e",
      "to": "0x5bff88ca1442c2496f7e475e9e7786383bc070c0",
      "contractAddress": null,
      "gasUsedForL1": "0x1be",
      "l1BlockNumber": "0x17ebc0f",
      "timeboosted": false
    },
    {
      "status": "0x1",
      "cumulativeGasUsed": "0x93702",
      "logs": [
        {
          "address": "0x5bff88ca1442c2496f7e475e9e7786383bc070c0",
          "topics": [
            "0x8c5be1e5ebec7d5bd14f71427d1e84f3dd0314c0f7b2291e5b200ac8c7c3b925",
            "0x00000000000000000000000045dce8e4f2dc005a5f28206a46cb034697eeda8e",
            "0x00000000000000000000000029f5dbd0fe72d8f11271fcbe79cb87e18a83c70a"
          ],
          "data": "0x0000000000000000000000000000000000000000000000000000000000000000",
          "blockHash": "0xcd9632eba88709a35dfd21d4090905a40ae52c1aaf1d17687ec23687ed4285e5",
          "blockNumber": "0x1b8d2288",
          "blockTimestamp": "0x6a03d256",
          "transactionHash": "0xeb9d8207e071c3ded9e3e0d2d1c162892320dcefe576fea41418f157e228e612",
          "transactionIndex": "0x1",
          "logIndex": "0x0",
          "removed": false
        },
        {
          "address": "0x5bff88ca1442c2496f7e475e9e7786383bc070c0",
          "topics": [
            "0xddf252ad1be2c89b69c2b068fc378daa952ba7f163c4a11628f55a4df523b3ef",
            "0x00000000000000000000000045dce8e4f2dc005a5f28206a46cb034697eeda8e",
            "0x00000000000000000000000029f5dbd0fe72d8f11271fcbe79cb87e18a83c70a"
          ],
          "data": "0x000000000000000000000000000000000000000000000000000009184e72a000",
          "blockHash": "0xcd9632eba88709a35dfd21d4090905a40ae52c1aaf1d17687ec23687ed4285e5",
          "blockNumber": "0x1b8d2288",
          "blockTimestamp": "0x6a03d256",
          "transactionHash": "0xeb9d8207e071c3ded9e3e0d2d1c162892320dcefe576fea41418f157e228e612",
          "transactionIndex": "0x1",
          "logIndex": "0x1",
          "removed": false
        },
        {
          "address": "0x5bff88ca1442c2496f7e475e9e7786383bc070c0",
          "topics": [
            "0x8c5be1e5ebec7d5bd14f71427d1e84f3dd0314c0f7b2291e5b200ac8c7c3b925",
            "0x00000000000000000000000029f5dbd0fe72d8f11271fcbe79cb87e18a83c70a",
            "0x0000000000000000000000005bff88ca1442c2496f7e475e9e7786383bc070c0"
          ],
          "data": "0x000000000000000000000000000000000000000000000000000009184e72a000",
          "blockHash": "0xcd9632eba88709a35dfd21d4090905a40ae52c1aaf1d17687ec23687ed4285e5",
          "blockNumber": "0x1b8d2288",
          "blockTimestamp": "0x6a03d256",
          "transactionHash": "0xeb9d8207e071c3ded9e3e0d2d1c162892320dcefe576fea41418f157e228e612",
          "transactionIndex": "0x1",
          "logIndex": "0x2",
          "removed": false
        },
        {
          "address": "0x5bff88ca1442c2496f7e475e9e7786383bc070c0",
          "topics": [
            "0xddf252ad1be2c89b69c2b068fc378daa952ba7f163c4a11628f55a4df523b3ef",
            "0x00000000000000000000000029f5dbd0fe72d8f11271fcbe79cb87e18a83c70a",
            "0x0000000000000000000000000000000000000000000000000000000000000000"
          ],
          "data": "0x000000000000000000000000000000000000000000000000000009184e72a000",
          "blockHash": "0xcd9632eba88709a35dfd21d4090905a40ae52c1aaf1d17687ec23687ed4285e5",
          "blockNumber": "0x1b8d2288",
          "blockTimestamp": "0x6a03d256",
          "transactionHash": "0xeb9d8207e071c3ded9e3e0d2d1c162892320dcefe576fea41418f157e228e612",
          "transactionIndex": "0x1",
          "logIndex": "0x3",
          "removed": false
        },
        {
          "address": "0x975bcd720be66659e3eb3c0e4f1866a3020e493a",
          "topics": [
            "0x61ed099e74a97a1d7f8bb0952a88ca8b7b8ebd00c126ea04671f92a81213318a"
          ],
          "data": "0x00000000000000000000000031cae3b7fb82d847621859fb1585353c5720660d0000000000000000000000000000000000000000000000000000084d9f153325",
          "blockHash": "0xcd9632eba88709a35dfd21d4090905a40ae52c1aaf1d17687ec23687ed4285e5",
          "blockNumber": "0x1b8d2288",
          "blockTimestamp": "0x6a03d256",
          "transactionHash": "0xeb9d8207e071c3ded9e3e0d2d1c162892320dcefe576fea41418f157e228e612",
          "transactionIndex": "0x1",
          "logIndex": "0x4",
          "removed": false
        },
        {
          "address": "0x975bcd720be66659e3eb3c0e4f1866a3020e493a",
          "topics": [
            "0x07ea52d82345d6e838192107d8fd7123d9c2ec8e916cd0aad13fd2b60db24644"
          ],
          "data": "0x000000000000000000000000000000000000000000000000000000000000006000000000000000000000000000000000000000000000000000000000000001200000000000000000000000000000000000000000000000000000000000000140000000000000000000000000000000000000000000000000000000000000000500000000000000000000000019670df5e16bea2ba9b9e68b48c054c5baea06b80000000000000000000000002f55c492897526677c5b68fb199ea31e2c126416000000000000000000000000a7b5189bca84cd304d8553977c7c614329750d99000000000000000000000000b42726e41dbe96fc4ea6d73cd792167608353698000000000000000000000000f2e380c90e6c09721297526dbc74f870e114dfcb0000000000000000000000000000000000000000000000000000000000000000000000000000000000000000000000000000000000000000000000000000000500000000000000000000000000000000000000000000000000000110299296490000000000000000000000000000000000000000000000000000011029929649000000000000000000000000000000000000000000000000000000f9e10aa5ed0000000000000000000000000000000000000000000000000000015e276e5f8800000000000000000000000000000000000000000000000000000147dee66f2c",
          "blockHash": "0xcd9632eba88709a35dfd21d4090905a40ae52c1aaf1d17687ec23687ed4285e5",
          "blockNumber": "0x1b8d2288",
          "blockTimestamp": "0x6a03d256",
          "transactionHash": "0xeb9d8207e071c3ded9e3e0d2d1c162892320dcefe576fea41418f157e228e612",
          "transactionIndex": "0x1",
          "logIndex": "0x5",
          "removed": false
        },
        {
          "address": "0x1a44076050125825900e736c501f859c50fe728c",
          "topics": [
            "0x1ab700d4ced0c005b164c0f789fd09fcbb0156d4c2041b8a3bfbcd961cd1567f"
          ],
          "data": "0x00000000000000000000000000000000000000000000000000000000000000600000000000000000000000000000000000000000000000000000000000000180000000000000000000000000975bcd720be66659e3eb3c0e4f1866a3020e493a00000000000000000000000000000000000000000000000000000000000000f90100000000000000150000759e0000000000000000000000005bff88ca1442c2496f7e475e9e7786383bc070c00000762f00000000000000000000000088aa7854d3b2daa5e37e7ce73a1f39669623a361662d173b14796a0be5e749d6a2dbb6ecbbe158bcbecce176b20d742cf0e671b40000000000000000000000002a2019b30c157db6c1c01306b8025167dbe1803b000000000000000a00000000000000000000000029f5dbd0fe72d8f11271fcbe79cb87e18a83c70a00000000000000000000000045dce8e4f2dc005a5f28206a46cb034697eeda8e00000000000000000000000000000000000000000000000000000000000075e800000000000000000000000000000000000000000000000000000000000000000000000000002c0003010011010000000000000000000000000003d090010013030000000000000000000000000000000f42400000000000000000000000000000000000000000",
          "blockHash": "0xcd9632eba88709a35dfd21d4090905a40ae52c1aaf1d17687ec23687ed4285e5",
          "blockNumber": "0x1b8d2288",
          "blockTimestamp": "0x6a03d256",
          "transactionHash": "0xeb9d8207e071c3ded9e3e0d2d1c162892320dcefe576fea41418f157e228e612",
          "transactionIndex": "0x1",
          "logIndex": "0x6",
          "removed": false
        },
        {
          "address": "0x5bff88ca1442c2496f7e475e9e7786383bc070c0",
          "topics": [
            "0x85496b760a4b7f8d66384b9df21b381f5d1b1e79f229a47aaf4c232edc2fe59a",
            "0x662d173b14796a0be5e749d6a2dbb6ecbbe158bcbecce176b20d742cf0e671b4",
            "0x00000000000000000000000029f5dbd0fe72d8f11271fcbe79cb87e18a83c70a"
          ],
          "data": "0x000000000000000000000000000000000000000000000000000000000000762f000000000000000000000000000000000000000000000000000009184e72a000000000000000000000000000000000000000000000000000000009184e72a000",
          "blockHash": "0xcd9632eba88709a35dfd21d4090905a40ae52c1aaf1d17687ec23687ed4285e5",
          "blockNumber": "0x1b8d2288",
          "blockTimestamp": "0x6a03d256",
          "transactionHash": "0xeb9d8207e071c3ded9e3e0d2d1c162892320dcefe576fea41418f157e228e612",
          "transactionIndex": "0x1",
          "logIndex": "0x7",
          "removed": false
        },
        {
          "address": "0x29f5dbd0fe72d8f11271fcbe79cb87e18a83c70a",
          "topics": [
            "0xbc9ee36b6ca0bdd5b3840e6d329dd19a2490d880c7ce24d9818aa593adfb35be",
            "0x00000000000000000000000045dce8e4f2dc005a5f28206a46cb034697eeda8e",
            "0x00000000000000000000000000000000000000000000000000000000000075e8",
            "0x00000000000000000000000045dce8e4f2dc005a5f28206a46cb034697eeda8e"
          ],
          "data": "0x0000000000000000000000005bff88ca1442c2496f7e475e9e7786383bc070c0000000000000000000000000000000000000000000000000000009184e72a000",
          "blockHash": "0xcd9632eba88709a35dfd21d4090905a40ae52c1aaf1d17687ec23687ed4285e5",
          "blockNumber": "0x1b8d2288",
          "blockTimestamp": "0x6a03d256",
          "transactionHash": "0xeb9d8207e071c3ded9e3e0d2d1c162892320dcefe576fea41418f157e228e612",
          "transactionIndex": "0x1",
          "logIndex": "0x8",
          "removed": false
        }
      ],
      "logsBloom": "0x00000000010040000000000200000020000000000000000000000000001000000001000000000000000000000000000400000020000400000000000010200000000002000000000000000008000000000000000000000000000000000000000000000000020800008000008000000800000000000010100000000810000000000000001000004000000000080000000000000000000000000000000000000000020000108000000020900000000000000000000008400000000440000010008000000002000000000000000080000000001000800000000000000000000022000010040000000000000000040000802000000000018000000000000000000800",
      "type": "0x2",
      "transactionHash": "0xeb9d8207e071c3ded9e3e0d2d1c162892320dcefe576fea41418f157e228e612",
      "transactionIndex": "0x1",
      "blockHash": "0xcd9632eba88709a35dfd21d4090905a40ae52c1aaf1d17687ec23687ed4285e5",
      "blockNumber": "0x1b8d2288",
      "gasUsed": "0x93702",
      "effectiveGasPrice": "0x131fff0",
      "from": "0x45dce8e4f2dc005a5f28206a46cb034697eeda8e",
      "to": "0x29f5dbd0fe72d8f11271fcbe79cb87e18a83c70a",
      "contractAddress": null,
      "gasUsedForL1": "0x267",
      "l1BlockNumber": "0x17ebc0f",
      "timeboosted": false
    },
    {
      "status": "0x1",
      "cumulativeGasUsed": "0x4e279",
      "logs": [
        {
          "address": "0x43edd7f3831b08fe70b7555ddd373c8bf65a9050",
          "topics": [
            "0x8c5be1e5ebec7d5bd14f71427d1e84f3dd0314c0f7b2291e5b200ac8c7c3b925",
            "0x00000000000000000000000045dce8e4f2dc005a5f28206a46cb034697eeda8e",
            "0x00000000000000000000000029f5dbd0fe72d8f11271fcbe79cb87e18a83c70a"
          ],
          "data": "0x000000000000000000000000000000000000000000000000000009184e72a000",
          "blockHash": "0x9abdc7f05b52362b554b4d47d8141b956da8f590ebdac02063a62cf18bdfaa9b",
          "blockNumber": "0x1b8d2291",
          "blockTimestamp": "0x6a03d258",
          "transactionHash": "0x78dd021f2b0c7249fb732a15b37cb222d71857da5721d7fb5700298cb73b2168",
          "transactionIndex": "0x5",
          "logIndex": "0x2",
          "removed": false
        }
      ],
      "logsBloom": "0x00000000010000000000000200000020000000000000000000000000000000000000000000000000000000000000000000000000000000000000000000200000000000000000000000000000000000000000000000000000000000000000000000000000000000000000000000000000000000000000000000000000000000000000000000000000000000000000000000000000000000000000000000000000020000000000000002800000000000000000000000000000000000000000000000000000000000000000000000000000001000000000000000000000000000000010000000000000000000040000800000000000000000000000000000080000",
      "type": "0x2",
      "transactionHash": "0x78dd021f2b0c7249fb732a15b37cb222d71857da5721d7fb5700298cb73b2168",
      "transactionIndex": "0x5",
      "blockHash": "0x9abdc7f05b52362b554b4d47d8141b956da8f590ebdac02063a62cf18bdfaa9b",
      "blockNumber": "0x1b8d2291",
      "gasUsed": "0xd36d",
      "effectiveGasPrice": "0x1313ca0",
      "from": "0x45dce8e4f2dc005a5f28206a46cb034697eeda8e",
      "to": "0x43edd7f3831b08fe70b7555ddd373c8bf65a9050",
      "contractAddress": null,
      "gasUsedForL1": "0x1bb",
      "l1BlockNumber": "0x17ebc0f",
      "timeboosted": false
    },
    {
      "status": "0x1",
      "cumulativeGasUsed": "0x9371a",
      "logs": [
        {
          "address": "0x43edd7f3831b08fe70b7555ddd373c8bf65a9050",
          "topics": [
            "0x8c5be1e5ebec7d5bd14f71427d1e84f3dd0314c0f7b2291e5b200ac8c7c3b925",
            "0x00000000000000000000000045dce8e4f2dc005a5f28206a46cb034697eeda8e",
            "0x00000000000000000000000029f5dbd0fe72d8f11271fcbe79cb87e18a83c70a"
          ],
          "data": "0x0000000000000000000000000000000000000000000000000000000000000000",
          "blockHash": "0xc7f66c85deb3867d137686e1a2f835bd339d3c75c26fe20665636ac585234b98",
          "blockNumber": "0x1b8d2299",
          "blockTimestamp": "0x6a03d25a",
          "transactionHash": "0x9da663bbdb071e98fb953c5f5c9471a9895e9c567480b89e9fe7934ea6b81b14",
          "transactionIndex": "0x1",
          "logIndex": "0x0",
          "removed": false
        },
        {
          "address": "0x43edd7f3831b08fe70b7555ddd373c8bf65a9050",
          "topics": [
            "0xddf252ad1be2c89b69c2b068fc378daa952ba7f163c4a11628f55a4df523b3ef",
            "0x00000000000000000000000045dce8e4f2dc005a5f28206a46cb034697eeda8e",
            "0x00000000000000000000000029f5dbd0fe72d8f11271fcbe79cb87e18a83c70a"
          ],
          "data": "0x000000000000000000000000000000000000000000000000000009184e72a000",
          "blockHash": "0xc7f66c85deb3867d137686e1a2f835bd339d3c75c26fe20665636ac585234b98",
          "blockNumber": "0x1b8d2299",
          "blockTimestamp": "0x6a03d25a",
          "transactionHash": "0x9da663bbdb071e98fb953c5f5c9471a9895e9c567480b89e9fe7934ea6b81b14",
          "transactionIndex": "0x1",
          "logIndex": "0x1",
          "removed": false
        },
        {
          "address": "0x43edd7f3831b08fe70b7555ddd373c8bf65a9050",
          "topics": [
            "0x8c5be1e5ebec7d5bd14f71427d1e84f3dd0314c0f7b2291e5b200ac8c7c3b925",
            "0x00000000000000000000000029f5dbd0fe72d8f11271fcbe79cb87e18a83c70a",
            "0x00000000000000000000000043edd7f3831b08fe70b7555ddd373c8bf65a9050"
          ],
          "data": "0x000000000000000000000000000000000000000000000000000009184e72a000",
          "blockHash": "0xc7f66c85deb3867d137686e1a2f835bd339d3c75c26fe20665636ac585234b98",
          "blockNumber": "0x1b8d2299",
          "blockTimestamp": "0x6a03d25a",
          "transactionHash": "0x9da663bbdb071e98fb953c5f5c9471a9895e9c567480b89e9fe7934ea6b81b14",
          "transactionIndex": "0x1",
          "logIndex": "0x2",
          "removed": false
        },
        {
          "address": "0x43edd7f3831b08fe70b7555ddd373c8bf65a9050",
          "topics": [
            "0xddf252ad1be2c89b69c2b068fc378daa952ba7f163c4a11628f55a4df523b3ef",
            "0x00000000000000000000000029f5dbd0fe72d8f11271fcbe79cb87e18a83c70a",
            "0x0000000000000000000000000000000000000000000000000000000000000000"
          ],
          "data": "0x000000000000000000000000000000000000000000000000000009184e72a000",
          "blockHash": "0xc7f66c85deb3867d137686e1a2f835bd339d3c75c26fe20665636ac585234b98",
          "blockNumber": "0x1b8d2299",
          "blockTimestamp": "0x6a03d25a",
          "transactionHash": "0x9da663bbdb071e98fb953c5f5c9471a9895e9c567480b89e9fe7934ea6b81b14",
          "transactionIndex": "0x1",
          "logIndex": "0x3",
          "removed": false
        },
        {
          "address": "0x975bcd720be66659e3eb3c0e4f1866a3020e493a",
          "topics": [
            "0x61ed099e74a97a1d7f8bb0952a88ca8b7b8ebd00c126ea04671f92a81213318a"
          ],
          "data": "0x00000000000000000000000031cae3b7fb82d847621859fb1585353c5720660d0000000000000000000000000000000000000000000000000000084d9f153325",
          "blockHash": "0xc7f66c85deb3867d137686e1a2f835bd339d3c75c26fe20665636ac585234b98",
          "blockNumber": "0x1b8d2299",
          "blockTimestamp": "0x6a03d25a",
          "transactionHash": "0x9da663bbdb071e98fb953c5f5c9471a9895e9c567480b89e9fe7934ea6b81b14",
          "transactionIndex": "0x1",
          "logIndex": "0x4",
          "removed": false
        },
        {
          "address": "0x975bcd720be66659e3eb3c0e4f1866a3020e493a",
          "topics": [
            "0x07ea52d82345d6e838192107d8fd7123d9c2ec8e916cd0aad13fd2b60db24644"
          ],
          "data": "0x000000000000000000000000000000000000000000000000000000000000006000000000000000000000000000000000000000000000000000000000000001200000000000000000000000000000000000000000000000000000000000000140000000000000000000000000000000000000000000000000000000000000000500000000000000000000000019670df5e16bea2ba9b9e68b48c054c5baea06b80000000000000000000000002f55c492897526677c5b68fb199ea31e2c126416000000000000000000000000a7b5189bca84cd304d8553977c7c614329750d99000000000000000000000000b42726e41dbe96fc4ea6d73cd792167608353698000000000000000000000000f2e380c90e6c09721297526dbc74f870e114dfcb0000000000000000000000000000000000000000000000000000000000000000000000000000000000000000000000000000000000000000000000000000000500000000000000000000000000000000000000000000000000000110299296490000000000000000000000000000000000000000000000000000011029929649000000000000000000000000000000000000000000000000000000f9e10aa5ed0000000000000000000000000000000000000000000000000000015e276e5f8800000000000000000000000000000000000000000000000000000147dee66f2c",
          "blockHash": "0xc7f66c85deb3867d137686e1a2f835bd339d3c75c26fe20665636ac585234b98",
          "blockNumber": "0x1b8d2299",
          "blockTimestamp": "0x6a03d25a",
          "transactionHash": "0x9da663bbdb071e98fb953c5f5c9471a9895e9c567480b89e9fe7934ea6b81b14",
          "transactionIndex": "0x1",
          "logIndex": "0x5",
          "removed": false
        },
        {
          "address": "0x1a44076050125825900e736c501f859c50fe728c",
          "topics": [
            "0x1ab700d4ced0c005b164c0f789fd09fcbb0156d4c2041b8a3bfbcd961cd1567f"
          ],
          "data": "0x00000000000000000000000000000000000000000000000000000000000000600000000000000000000000000000000000000000000000000000000000000180000000000000000000000000975bcd720be66659e3eb3c0e4f1866a3020e493a00000000000000000000000000000000000000000000000000000000000000f90100000000000000cb0000759e00000000000000000000000043edd7f3831b08fe70b7555ddd373c8bf65a90500000762f0000000000000000000000009abfe1f8a999b0011ecd6116649aee8d575f5604b2f6d113e7f3aea8d71597dc665f2de4b2392d2d93280c0a920ce8035eada7e70000000000000000000000002a2019b30c157db6c1c01306b8025167dbe1803b000000000000000a00000000000000000000000029f5dbd0fe72d8f11271fcbe79cb87e18a83c70a00000000000000000000000045dce8e4f2dc005a5f28206a46cb034697eeda8e00000000000000000000000000000000000000000000000000000000000075e800000000000000000000000000000000000000000000000000000000000000000000000000002c0003010011010000000000000000000000000003d090010013030000000000000000000000000000000f42400000000000000000000000000000000000000000",
          "blockHash": "0xc7f66c85deb3867d137686e1a2f835bd339d3c75c26fe20665636ac585234b98",
          "blockNumber": "0x1b8d2299",
          "blockTimestamp": "0x6a03d25a",
          "transactionHash": "0x9da663bbdb071e98fb953c5f5c9471a9895e9c567480b89e9fe7934ea6b81b14",
          "transactionIndex": "0x1",
          "logIndex": "0x6",
          "removed": false
        },
        {
          "address": "0x43edd7f3831b08fe70b7555ddd373c8bf65a9050",
          "topics": [
            "0x85496b760a4b7f8d66384b9df21b381f5d1b1e79f229a47aaf4c232edc2fe59a",
            "0xb2f6d113e7f3aea8d71597dc665f2de4b2392d2d93280c0a920ce8035eada7e7",
            "0x00000000000000000000000029f5dbd0fe72d8f11271fcbe79cb87e18a83c70a"
          ],
          "data": "0x000000000000000000000000000000000000000000000000000000000000762f000000000000000000000000000000000000000000000000000009184e72a000000000000000000000000000000000000000000000000000000009184e72a000",
          "blockHash": "0xc7f66c85deb3867d137686e1a2f835bd339d3c75c26fe20665636ac585234b98",
          "blockNumber": "0x1b8d2299",
          "blockTimestamp": "0x6a03d25a",
          "transactionHash": "0x9da663bbdb071e98fb953c5f5c9471a9895e9c567480b89e9fe7934ea6b81b14",
          "transactionIndex": "0x1",
          "logIndex": "0x7",
          "removed": false
        },
        {
          "address": "0x29f5dbd0fe72d8f11271fcbe79cb87e18a83c70a",
          "topics": [
            "0xbc9ee36b6ca0bdd5b3840e6d329dd19a2490d880c7ce24d9818aa593adfb35be",
            "0x00000000000000000000000045dce8e4f2dc005a5f28206a46cb034697eeda8e",
            "0x00000000000000000000000000000000000000000000000000000000000075e8",
            "0x00000000000000000000000045dce8e4f2dc005a5f28206a46cb034697eeda8e"
          ],
          "data": "0x00000000000000000000000043edd7f3831b08fe70b7555ddd373c8bf65a9050000000000000000000000000000000000000000000000000000009184e72a000",
          "blockHash": "0xc7f66c85deb3867d137686e1a2f835bd339d3c75c26fe20665636ac585234b98",
          "blockNumber": "0x1b8d2299",
          "blockTimestamp": "0x6a03d25a",
          "transactionHash": "0x9da663bbdb071e98fb953c5f5c9471a9895e9c567480b89e9fe7934ea6b81b14",
          "transactionIndex": "0x1",
          "logIndex": "0x8",
          "removed": false
        }
      ],
      "logsBloom": "0x00000000010040000000000200000020000000000000000000000000001000010000000000000000000000000000000400000000000400000000000010200000000002000000000000000008000000000000000000000000000000000000000000000000020800008000008000000800000000000010100000000010000000000000000000004000000000080000000000000000000000000000000100000000020000108000000022900000000000000000000000400000000440000000028000000002000000000000000080000000001000000000000000000000000022000810040000000000000000040000802000000000018000000000001000080010",
      "type": "0x2",
      "transactionHash": "0x9da663bbdb071e98fb953c5f5c9471a9895e9c567480b89e9fe7934ea6b81b14",
      "transactionIndex": "0x1",
      "blockHash": "0xc7f66c85deb3867d137686e1a2f835bd339d3c75c26fe20665636ac585234b98",
      "blockNumber": "0x1b8d2299",
      "gasUsed": "0x9371a",
      "effectiveGasPrice": "0x1315410",
      "from": "0x45dce8e4f2dc005a5f28206a46cb034697eeda8e",
      "to": "0x29f5dbd0fe72d8f11271fcbe79cb87e18a83c70a",
      "contractAddress": null,
      "gasUsedForL1": "0x269",
      "l1BlockNumber": "0x17ebc0f",
      "timeboosted": false
    },
    {
      "status": "0x1",
      "cumulativeGasUsed": "0xd36c",
      "logs": [
        {
          "address": "0x3ec3849c33291a9ef4c5db86de593eb4a37fde45",
          "topics": [
            "0x8c5be1e5ebec7d5bd14f71427d1e84f3dd0314c0f7b2291e5b200ac8c7c3b925",
            "0x00000000000000000000000045dce8e4f2dc005a5f28206a46cb034697eeda8e",
            "0x00000000000000000000000029f5dbd0fe72d8f11271fcbe79cb87e18a83c70a"
          ],
          "data": "0x000000000000000000000000000000000000000000000000000009184e72a000",
          "blockHash": "0xc34aff491448c0943ea6e28d282da0e7f14f1ef3bf67853c70d55dbe2154b00d",
          "blockNumber": "0x1b8d22a3",
          "blockTimestamp": "0x6a03d25d",
          "transactionHash": "0xfd997a195ce9e2635c2ae15f2e155fafb76130de569a3f10c1e46f58aa1f19a3",
          "transactionIndex": "0x1",
          "logIndex": "0x0",
          "removed": false
        }
      ],
      "logsBloom": "0x00000000010000000000000200002020000000000000000000000000000000000000000000000000000000000000000000000000000000000000000000200000000000000000000000000000000000000000000000000000000000000000000000000000000000000000000000000000000000000000000000000000000000000000000000000000000000000000000000000000000020000040000000000000020000000000000000800000000000000000000000000000000000000000000000000000000000000000000000000000001000000000000000000000000000000010000000000000000000000000800000000000000000000000000000000000",
      "type": "0x2",
      "transactionHash": "0xfd997a195ce9e2635c2ae15f2e155fafb76130de569a3f10c1e46f58aa1f19a3",
      "transactionIndex": "0x1",
      "blockHash": "0xc34aff491448c0943ea6e28d282da0e7f14f1ef3bf67853c70d55dbe2154b00d",
      "blockNumber": "0x1b8d22a3",
      "gasUsed": "0xd36c",
      "effectiveGasPrice": "0x1336f20",
      "from": "0x45dce8e4f2dc005a5f28206a46cb034697eeda8e",
      "to": "0x3ec3849c33291a9ef4c5db86de593eb4a37fde45",
      "contractAddress": null,
      "gasUsedForL1": "0x1ba",
      "l1BlockNumber": "0x17ebc10",
      "timeboosted": false
    },
    {
      "status": "0x1",
      "cumulativeGasUsed": "0x9371a",
      "logs": [
        {
          "address": "0x3ec3849c33291a9ef4c5db86de593eb4a37fde45",
          "topics": [
            "0x8c5be1e5ebec7d5bd14f71427d1e84f3dd0314c0f7b2291e5b200ac8c7c3b925",
            "0x00000000000000000000000045dce8e4f2dc005a5f28206a46cb034697eeda8e",
            "0x00000000000000000000000029f5dbd0fe72d8f11271fcbe79cb87e18a83c70a"
          ],
          "data": "0x0000000000000000000000000000000000000000000000000000000000000000",
          "blockHash": "0x18b6095fe7dd7485c44a060ee11f79c724e485fc8324c666446427313090ebdb",
          "blockNumber": "0x1b8d22ad",
          "blockTimestamp": "0x6a03d25f",
          "transactionHash": "0x3bb5c694cff36c9082333fb836bd884da7f3aa45b94a1eb7674f48286d074d33",
          "transactionIndex": "0x1",
          "logIndex": "0x0",
          "removed": false
        },
        {
          "address": "0x3ec3849c33291a9ef4c5db86de593eb4a37fde45",
          "topics": [
            "0xddf252ad1be2c89b69c2b068fc378daa952ba7f163c4a11628f55a4df523b3ef",
            "0x00000000000000000000000045dce8e4f2dc005a5f28206a46cb034697eeda8e",
            "0x00000000000000000000000029f5dbd0fe72d8f11271fcbe79cb87e18a83c70a"
          ],
          "data": "0x000000000000000000000000000000000000000000000000000009184e72a000",
          "blockHash": "0x18b6095fe7dd7485c44a060ee11f79c724e485fc8324c666446427313090ebdb",
          "blockNumber": "0x1b8d22ad",
          "blockTimestamp": "0x6a03d25f",
          "transactionHash": "0x3bb5c694cff36c9082333fb836bd884da7f3aa45b94a1eb7674f48286d074d33",
          "transactionIndex": "0x1",
          "logIndex": "0x1",
          "removed": false
        },
        {
          "address": "0x3ec3849c33291a9ef4c5db86de593eb4a37fde45",
          "topics": [
            "0x8c5be1e5ebec7d5bd14f71427d1e84f3dd0314c0f7b2291e5b200ac8c7c3b925",
            "0x00000000000000000000000029f5dbd0fe72d8f11271fcbe79cb87e18a83c70a",
            "0x0000000000000000000000003ec3849c33291a9ef4c5db86de593eb4a37fde45"
          ],
          "data": "0x000000000000000000000000000000000000000000000000000009184e72a000",
          "blockHash": "0x18b6095fe7dd7485c44a060ee11f79c724e485fc8324c666446427313090ebdb",
          "blockNumber": "0x1b8d22ad",
          "blockTimestamp": "0x6a03d25f",
          "transactionHash": "0x3bb5c694cff36c9082333fb836bd884da7f3aa45b94a1eb7674f48286d074d33",
          "transactionIndex": "0x1",
          "logIndex": "0x2",
          "removed": false
        },
        {
          "address": "0x3ec3849c33291a9ef4c5db86de593eb4a37fde45",
          "topics": [
            "0xddf252ad1be2c89b69c2b068fc378daa952ba7f163c4a11628f55a4df523b3ef",
            "0x00000000000000000000000029f5dbd0fe72d8f11271fcbe79cb87e18a83c70a",
            "0x0000000000000000000000000000000000000000000000000000000000000000"
          ],
          "data": "0x000000000000000000000000000000000000000000000000000009184e72a000",
          "blockHash": "0x18b6095fe7dd7485c44a060ee11f79c724e485fc8324c666446427313090ebdb",
          "blockNumber": "0x1b8d22ad",
          "blockTimestamp": "0x6a03d25f",
          "transactionHash": "0x3bb5c694cff36c9082333fb836bd884da7f3aa45b94a1eb7674f48286d074d33",
          "transactionIndex": "0x1",
          "logIndex": "0x3",
          "removed": false
        },
        {
          "address": "0x975bcd720be66659e3eb3c0e4f1866a3020e493a",
          "topics": [
            "0x61ed099e74a97a1d7f8bb0952a88ca8b7b8ebd00c126ea04671f92a81213318a"
          ],
          "data": "0x00000000000000000000000031cae3b7fb82d847621859fb1585353c5720660d0000000000000000000000000000000000000000000000000000084d9f153325",
          "blockHash": "0x18b6095fe7dd7485c44a060ee11f79c724e485fc8324c666446427313090ebdb",
          "blockNumber": "0x1b8d22ad",
          "blockTimestamp": "0x6a03d25f",
          "transactionHash": "0x3bb5c694cff36c9082333fb836bd884da7f3aa45b94a1eb7674f48286d074d33",
          "transactionIndex": "0x1",
          "logIndex": "0x4",
          "removed": false
        },
        {
          "address": "0x975bcd720be66659e3eb3c0e4f1866a3020e493a",
          "topics": [
            "0x07ea52d82345d6e838192107d8fd7123d9c2ec8e916cd0aad13fd2b60db24644"
          ],
          "data": "0x000000000000000000000000000000000000000000000000000000000000006000000000000000000000000000000000000000000000000000000000000001200000000000000000000000000000000000000000000000000000000000000140000000000000000000000000000000000000000000000000000000000000000500000000000000000000000019670df5e16bea2ba9b9e68b48c054c5baea06b80000000000000000000000002f55c492897526677c5b68fb199ea31e2c126416000000000000000000000000a7b5189bca84cd304d8553977c7c614329750d99000000000000000000000000b42726e41dbe96fc4ea6d73cd792167608353698000000000000000000000000f2e380c90e6c09721297526dbc74f870e114dfcb0000000000000000000000000000000000000000000000000000000000000000000000000000000000000000000000000000000000000000000000000000000500000000000000000000000000000000000000000000000000000110299296490000000000000000000000000000000000000000000000000000011029929649000000000000000000000000000000000000000000000000000000f9e10aa5ed0000000000000000000000000000000000000000000000000000015e276e5f8800000000000000000000000000000000000000000000000000000147dee66f2c",
          "blockHash": "0x18b6095fe7dd7485c44a060ee11f79c724e485fc8324c666446427313090ebdb",
          "blockNumber": "0x1b8d22ad",
          "blockTimestamp": "0x6a03d25f",
          "transactionHash": "0x3bb5c694cff36c9082333fb836bd884da7f3aa45b94a1eb7674f48286d074d33",
          "transactionIndex": "0x1",
          "logIndex": "0x5",
          "removed": false
        },
        {
          "address": "0x1a44076050125825900e736c501f859c50fe728c",
          "topics": [
            "0x1ab700d4ced0c005b164c0f789fd09fcbb0156d4c2041b8a3bfbcd961cd1567f"
          ],
          "data": "0x00000000000000000000000000000000000000000000000000000000000000600000000000000000000000000000000000000000000000000000000000000180000000000000000000000000975bcd720be66659e3eb3c0e4f1866a3020e493a00000000000000000000000000000000000000000000000000000000000000f90100000000000000120000759e0000000000000000000000003ec3849c33291a9ef4c5db86de593eb4a37fde450000762f000000000000000000000000999dfabe3b1cc2ef66eb032eea42fea329bba168fc0949f37719c4736d0430bbed27a73df816f5a438970fa52c702c65ce3058280000000000000000000000002a2019b30c157db6c1c01306b8025167dbe1803b000000000000000a00000000000000000000000029f5dbd0fe72d8f11271fcbe79cb87e18a83c70a00000000000000000000000045dce8e4f2dc005a5f28206a46cb034697eeda8e00000000000000000000000000000000000000000000000000000000000075e800000000000000000000000000000000000000000000000000000000000000000000000000002c0003010011010000000000000000000000000003d090010013030000000000000000000000000000000f42400000000000000000000000000000000000000000",
          "blockHash": "0x18b6095fe7dd7485c44a060ee11f79c724e485fc8324c666446427313090ebdb",
          "blockNumber": "0x1b8d22ad",
          "blockTimestamp": "0x6a03d25f",
          "transactionHash": "0x3bb5c694cff36c9082333fb836bd884da7f3aa45b94a1eb7674f48286d074d33",
          "transactionIndex": "0x1",
          "logIndex": "0x6",
          "removed": false
        },
        {
          "address": "0x3ec3849c33291a9ef4c5db86de593eb4a37fde45",
          "topics": [
            "0x85496b760a4b7f8d66384b9df21b381f5d1b1e79f229a47aaf4c232edc2fe59a",
            "0xfc0949f37719c4736d0430bbed27a73df816f5a438970fa52c702c65ce305828",
            "0x00000000000000000000000029f5dbd0fe72d8f11271fcbe79cb87e18a83c70a"
          ],
          "data": "0x000000000000000000000000000000000000000000000000000000000000762f000000000000000000000000000000000000000000000000000009184e72a000000000000000000000000000000000000000000000000000000009184e72a000",
          "blockHash": "0x18b6095fe7dd7485c44a060ee11f79c724e485fc8324c666446427313090ebdb",
          "blockNumber": "0x1b8d22ad",
          "blockTimestamp": "0x6a03d25f",
          "transactionHash": "0x3bb5c694cff36c9082333fb836bd884da7f3aa45b94a1eb7674f48286d074d33",
          "transactionIndex": "0x1",
          "logIndex": "0x7",
          "removed": false
        },
        {
          "address": "0x29f5dbd0fe72d8f11271fcbe79cb87e18a83c70a",
          "topics": [
            "0xbc9ee36b6ca0bdd5b3840e6d329dd19a2490d880c7ce24d9818aa593adfb35be",
            "0x00000000000000000000000045dce8e4f2dc005a5f28206a46cb034697eeda8e",
            "0x00000000000000000000000000000000000000000000000000000000000075e8",
            "0x00000000000000000000000045dce8e4f2dc005a5f28206a46cb034697eeda8e"
          ],
          "data": "0x0000000000000000000000003ec3849c33291a9ef4c5db86de593eb4a37fde45000000000000000000000000000000000000000000000000000009184e72a000",
          "blockHash": "0x18b6095fe7dd7485c44a060ee11f79c724e485fc8324c666446427313090ebdb",
          "blockNumber": "0x1b8d22ad",
          "blockTimestamp": "0x6a03d25f",
          "transactionHash": "0x3bb5c694cff36c9082333fb836bd884da7f3aa45b94a1eb7674f48286d074d33",
          "transactionIndex": "0x1",
          "logIndex": "0x8",
          "removed": false
        }
      ],
      "logsBloom": "0x0000000001004000000000020000202000000000000000000004000000100000000000000000000000000000000000040000000000040000000000001020002000000200000000000000000800000000000000000000000000000000000000000000000002080000800000800000080000000000001010000000001000000000000000000000400000000008000000000000000000002000004000400000000002000010800000002090000040000000000000000040000000044000000000800000000200000000000000008000000000100000000000000000000000002200001004000000000000000000000082a000000000018000000000000000000000",
      "type": "0x2",
      "transactionHash": "0x3bb5c694cff36c9082333fb836bd884da7f3aa45b94a1eb7674f48286d074d33",
      "transactionIndex": "0x1",
      "blockHash": "0x18b6095fe7dd7485c44a060ee11f79c724e485fc8324c666446427313090ebdb",
      "blockNumber": "0x1b8d22ad",
      "gasUsed": "0x9371a",
      "effectiveGasPrice": "0x1312d00",
      "from": "0x45dce8e4f2dc005a5f28206a46cb034697eeda8e",
      "to": "0x29f5dbd0fe72d8f11271fcbe79cb87e18a83c70a",
      "contractAddress": null,
      "gasUsedForL1": "0x269",
      "l1BlockNumber": "0x17ebc10",
      "timeboosted": false
    },
    {
      "status": "0x1",
      "cumulativeGasUsed": "0xd35a",
      "logs": [
        {
          "address": "0x64445f0aecc51e94ad52d8ac56b7190e764e561a",
          "topics": [
            "0x8c5be1e5ebec7d5bd14f71427d1e84f3dd0314c0f7b2291e5b200ac8c7c3b925",
            "0x00000000000000000000000045dce8e4f2dc005a5f28206a46cb034697eeda8e",
            "0x00000000000000000000000029f5dbd0fe72d8f11271fcbe79cb87e18a83c70a"
          ],
          "data": "0x000000000000000000000000000000000000000000000000000009184e72a000",
          "blockHash": "0x70c7c370e9059c001ba307991ea1e6332b36d06f626471c854622c56ee0d67cd",
          "blockNumber": "0x1b8d22b5",
          "blockTimestamp": "0x6a03d261",
          "transactionHash": "0x3ad87a0386c711dac34b2da0bfc7c65103e5b289e0c26ec16e282b40d2a1667a",
          "transactionIndex": "0x1",
          "logIndex": "0x0",
          "removed": false
        }
      ],
      "logsBloom": "0x00000000010000000000000200000020000000000000000000000000000000000000000000000000000000000000000000000000000000000000000000200000002000000000000000000000000000000000000000000000000000000000000000000000000000000000000000000000000000000000000000000000000000000000000000000000000000000000000000000000000000000000000000000000020000000000000000800008000000000000000000000000000000000000000000000000000000000000000000000000001000000000000000000000000000000010000000000000000000000000800000000008000000000000000000000000",
      "type": "0x2",
      "transactionHash": "0x3ad87a0386c711dac34b2da0bfc7c65103e5b289e0c26ec16e282b40d2a1667a",
      "transactionIndex": "0x1",
      "blockHash": "0x70c7c370e9059c001ba307991ea1e6332b36d06f626471c854622c56ee0d67cd",
      "blockNumber": "0x1b8d22b5",
      "gasUsed": "0xd35a",
      "effectiveGasPrice": "0x1312d00",
      "from": "0x45dce8e4f2dc005a5f28206a46cb034697eeda8e",
      "to": "0x64445f0aecc51e94ad52d8ac56b7190e764e561a",
      "contractAddress": null,
      "gasUsedForL1": "0x1be",
      "l1BlockNumber": "0x17ebc10",
      "timeboosted": false
    },
    {
      "status": "0x1",
      "cumulativeGasUsed": "0xaa91f",
      "logs": [
        {
          "address": "0x64445f0aecc51e94ad52d8ac56b7190e764e561a",
          "topics": [
            "0x8c5be1e5ebec7d5bd14f71427d1e84f3dd0314c0f7b2291e5b200ac8c7c3b925",
            "0x00000000000000000000000045dce8e4f2dc005a5f28206a46cb034697eeda8e",
            "0x00000000000000000000000029f5dbd0fe72d8f11271fcbe79cb87e18a83c70a"
          ],
          "data": "0x0000000000000000000000000000000000000000000000000000000000000000",
          "blockHash": "0x7f0a2916f35f2817f3267424236c402e14a4d529c7eb5a1f460eba616db56882",
          "blockNumber": "0x1b8d22be",
          "blockTimestamp": "0x6a03d263",
          "transactionHash": "0x29f9e8c9f7a31eb570aff7ce7f56586b02b0d6347ba908baa70c77654a761a76",
          "transactionIndex": "0x3",
          "logIndex": "0x2",
          "removed": false
        },
        {
          "address": "0x64445f0aecc51e94ad52d8ac56b7190e764e561a",
          "topics": [
            "0xddf252ad1be2c89b69c2b068fc378daa952ba7f163c4a11628f55a4df523b3ef",
            "0x00000000000000000000000045dce8e4f2dc005a5f28206a46cb034697eeda8e",
            "0x00000000000000000000000029f5dbd0fe72d8f11271fcbe79cb87e18a83c70a"
          ],
          "data": "0x000000000000000000000000000000000000000000000000000009184e72a000",
          "blockHash": "0x7f0a2916f35f2817f3267424236c402e14a4d529c7eb5a1f460eba616db56882",
          "blockNumber": "0x1b8d22be",
          "blockTimestamp": "0x6a03d263",
          "transactionHash": "0x29f9e8c9f7a31eb570aff7ce7f56586b02b0d6347ba908baa70c77654a761a76",
          "transactionIndex": "0x3",
          "logIndex": "0x3",
          "removed": false
        },
        {
          "address": "0x64445f0aecc51e94ad52d8ac56b7190e764e561a",
          "topics": [
            "0x8c5be1e5ebec7d5bd14f71427d1e84f3dd0314c0f7b2291e5b200ac8c7c3b925",
            "0x00000000000000000000000029f5dbd0fe72d8f11271fcbe79cb87e18a83c70a",
            "0x00000000000000000000000064445f0aecc51e94ad52d8ac56b7190e764e561a"
          ],
          "data": "0x000000000000000000000000000000000000000000000000000009184e72a000",
          "blockHash": "0x7f0a2916f35f2817f3267424236c402e14a4d529c7eb5a1f460eba616db56882",
          "blockNumber": "0x1b8d22be",
          "blockTimestamp": "0x6a03d263",
          "transactionHash": "0x29f9e8c9f7a31eb570aff7ce7f56586b02b0d6347ba908baa70c77654a761a76",
          "transactionIndex": "0x3",
          "logIndex": "0x4",
          "removed": false
        },
        {
          "address": "0x64445f0aecc51e94ad52d8ac56b7190e764e561a",
          "topics": [
            "0xddf252ad1be2c89b69c2b068fc378daa952ba7f163c4a11628f55a4df523b3ef",
            "0x00000000000000000000000029f5dbd0fe72d8f11271fcbe79cb87e18a83c70a",
            "0x0000000000000000000000000000000000000000000000000000000000000000"
          ],
          "data": "0x000000000000000000000000000000000000000000000000000009184e72a000",
          "blockHash": "0x7f0a2916f35f2817f3267424236c402e14a4d529c7eb5a1f460eba616db56882",
          "blockNumber": "0x1b8d22be",
          "blockTimestamp": "0x6a03d263",
          "transactionHash": "0x29f9e8c9f7a31eb570aff7ce7f56586b02b0d6347ba908baa70c77654a761a76",
          "transactionIndex": "0x3",
          "logIndex": "0x5",
          "removed": false
        },
        {
          "address": "0x975bcd720be66659e3eb3c0e4f1866a3020e493a",
          "topics": [
            "0x61ed099e74a97a1d7f8bb0952a88ca8b7b8ebd00c126ea04671f92a81213318a"
          ],
          "data": "0x00000000000000000000000031cae3b7fb82d847621859fb1585353c5720660d0000000000000000000000000000000000000000000000000000084d9f153325",
          "blockHash": "0x7f0a2916f35f2817f3267424236c402e14a4d529c7eb5a1f460eba616db56882",
          "blockNumber": "0x1b8d22be",
          "blockTimestamp": "0x6a03d263",
          "transactionHash": "0x29f9e8c9f7a31eb570aff7ce7f56586b02b0d6347ba908baa70c77654a761a76",
          "transactionIndex": "0x3",
          "logIndex": "0x6",
          "removed": false
        },
        {
          "address": "0x975bcd720be66659e3eb3c0e4f1866a3020e493a",
          "topics": [
            "0x07ea52d82345d6e838192107d8fd7123d9c2ec8e916cd0aad13fd2b60db24644"
          ],
          "data": "0x000000000000000000000000000000000000000000000000000000000000006000000000000000000000000000000000000000000000000000000000000001200000000000000000000000000000000000000000000000000000000000000140000000000000000000000000000000000000000000000000000000000000000500000000000000000000000019670df5e16bea2ba9b9e68b48c054c5baea06b80000000000000000000000002f55c492897526677c5b68fb199ea31e2c126416000000000000000000000000a7b5189bca84cd304d8553977c7c614329750d99000000000000000000000000b42726e41dbe96fc4ea6d73cd792167608353698000000000000000000000000f2e380c90e6c09721297526dbc74f870e114dfcb0000000000000000000000000000000000000000000000000000000000000000000000000000000000000000000000000000000000000000000000000000000500000000000000000000000000000000000000000000000000000110299296490000000000000000000000000000000000000000000000000000011029929649000000000000000000000000000000000000000000000000000000f9e10aa5ed0000000000000000000000000000000000000000000000000000015e276e5f8800000000000000000000000000000000000000000000000000000147dee66f2c",
          "blockHash": "0x7f0a2916f35f2817f3267424236c402e14a4d529c7eb5a1f460eba616db56882",
          "blockNumber": "0x1b8d22be",
          "blockTimestamp": "0x6a03d263",
          "transactionHash": "0x29f9e8c9f7a31eb570aff7ce7f56586b02b0d6347ba908baa70c77654a761a76",
          "transactionIndex": "0x3",
          "logIndex": "0x7",
          "removed": false
        },
        {
          "address": "0x1a44076050125825900e736c501f859c50fe728c",
          "topics": [
            "0x1ab700d4ced0c005b164c0f789fd09fcbb0156d4c2041b8a3bfbcd961cd1567f"
          ],
          "data": "0x00000000000000000000000000000000000000000000000000000000000000600000000000000000000000000000000000000000000000000000000000000180000000000000000000000000975bcd720be66659e3eb3c0e4f1866a3020e493a00000000000000000000000000000000000000000000000000000000000000f90100000000000000440000759e00000000000000000000000064445f0aecc51e94ad52d8ac56b7190e764e561a0000762f000000000000000000000000d86fbbd0c8715d2c1f40e451e5c3514e65e7576a96b6c1ba842f35b03be16f71c7ae97cd132f4e10c539c4c24c737dcb7da685710000000000000000000000002a2019b30c157db6c1c01306b8025167dbe1803b000000000000000a00000000000000000000000029f5dbd0fe72d8f11271fcbe79cb87e18a83c70a00000000000000000000000045dce8e4f2dc005a5f28206a46cb034697eeda8e00000000000000000000000000000000000000000000000000000000000075e800000000000000000000000000000000000000000000000000000000000000000000000000002c0003010011010000000000000000000000000003d090010013030000000000000000000000000000000f42400000000000000000000000000000000000000000",
          "blockHash": "0x7f0a2916f35f2817f3267424236c402e14a4d529c7eb5a1f460eba616db56882",
          "blockNumber": "0x1b8d22be",
          "blockTimestamp": "0x6a03d263",
          "transactionHash": "0x29f9e8c9f7a31eb570aff7ce7f56586b02b0d6347ba908baa70c77654a761a76",
          "transactionIndex": "0x3",
          "logIndex": "0x8",
          "removed": false
        },
        {
          "address": "0x64445f0aecc51e94ad52d8ac56b7190e764e561a",
          "topics": [
            "0x85496b760a4b7f8d66384b9df21b381f5d1b1e79f229a47aaf4c232edc2fe59a",
            "0x96b6c1ba842f35b03be16f71c7ae97cd132f4e10c539c4c24c737dcb7da68571",
            "0x00000000000000000000000029f5dbd0fe72d8f11271fcbe79cb87e18a83c70a"
          ],
          "data": "0x000000000000000000000000000000000000000000000000000000000000762f000000000000000000000000000000000000000000000000000009184e72a000000000000000000000000000000000000000000000000000000009184e72a000",
          "blockHash": "0x7f0a2916f35f2817f3267424236c402e14a4d529c7eb5a1f460eba616db56882",
          "blockNumber": "0x1b8d22be",
          "blockTimestamp": "0x6a03d263",
          "transactionHash": "0x29f9e8c9f7a31eb570aff7ce7f56586b02b0d6347ba908baa70c77654a761a76",
          "transactionIndex": "0x3",
          "logIndex": "0x9",
          "removed": false
        },
        {
          "address": "0x29f5dbd0fe72d8f11271fcbe79cb87e18a83c70a",
          "topics": [
            "0xbc9ee36b6ca0bdd5b3840e6d329dd19a2490d880c7ce24d9818aa593adfb35be",
            "0x00000000000000000000000045dce8e4f2dc005a5f28206a46cb034697eeda8e",
            "0x00000000000000000000000000000000000000000000000000000000000075e8",
            "0x00000000000000000000000045dce8e4f2dc005a5f28206a46cb034697eeda8e"
          ],
          "data": "0x00000000000000000000000064445f0aecc51e94ad52d8ac56b7190e764e561a000000000000000000000000000000000000000000000000000009184e72a000",
          "blockHash": "0x7f0a2916f35f2817f3267424236c402e14a4d529c7eb5a1f460eba616db56882",
          "blockNumber": "0x1b8d22be",
          "blockTimestamp": "0x6a03d263",
          "transactionHash": "0x29f9e8c9f7a31eb570aff7ce7f56586b02b0d6347ba908baa70c77654a761a76",
          "transactionIndex": "0x3",
          "logIndex": "0xa",
          "removed": false
        }
      ],
      "logsBloom": "0x0000000001004000000000020000002000000000000000000000000000100000000000000000000000000000000000040000020000040000000000001020000000200200000000000000000800000000000000000000000000000000000000000000000002080000800000800000080000000000001010000000001000000000000000000000400000000008000000000000000000000000008000000000000002000010800000002090000c000000000000000000400000000440000000008000200002000000000000000080000000001000000000000000000000000022000010040000000000000000000000802800000008018000000000000000000002",
      "type": "0x2",
      "transactionHash": "0x29f9e8c9f7a31eb570aff7ce7f56586b02b0d6347ba908baa70c77654a761a76",
      "transactionIndex": "0x3",
      "blockHash": "0x7f0a2916f35f2817f3267424236c402e14a4d529c7eb5a1f460eba616db56882",
      "blockNumber": "0x1b8d22be",
      "gasUsed": "0x93704",
      "effectiveGasPrice": "0x13134d0",
      "from": "0x45dce8e4f2dc005a5f28206a46cb034697eeda8e",
      "to": "0x29f5dbd0fe72d8f11271fcbe79cb87e18a83c70a",
      "contractAddress": null,
      "gasUsedForL1": "0x269",
      "l1BlockNumber": "0x17ebc10",
      "timeboosted": false
    },
    {
      "status": "0x1",
      "cumulativeGasUsed": "0x4fcd0",
      "logs": [
        {
          "address": "0x90581eca9469d8d7f5d3b60f4715027adfcf7927",
          "topics": [
            "0x8c5be1e5ebec7d5bd14f71427d1e84f3dd0314c0f7b2291e5b200ac8c7c3b925",
            "0x00000000000000000000000045dce8e4f2dc005a5f28206a46cb034697eeda8e",
            "0x00000000000000000000000029f5dbd0fe72d8f11271fcbe79cb87e18a83c70a"
          ],
          "data": "0x000000000000000000000000000000000000000000000000000009184e72a000",
          "blockHash": "0xebfec25858efa8218458131cd2293c422a06bee6b67be9a1a016da7ee44f11f2",
          "blockNumber": "0x1b8d22c5",
          "blockTimestamp": "0x6a03d265",
          "transactionHash": "0x07abe5249226dcc215ae382fd614cf480f00c2deca989ea10e0a8eaaadfc519e",
          "transactionIndex": "0x4",
          "logIndex": "0x8",
          "removed": false
        }
      ],
      "logsBloom": "0x00000000010000000000000200000020000000000000000000000000000000000000000000000000000000000000000000000000000000000000000000200000000000000000000000000000000000000000000000000000000000000000000000000000000000000000000000000000000000000000000000000000000000000000000000000004000010000000000000000000000000000000000000000000020000000000000000800000000000000000000000000000000000000000000000000000000000000000000000000000001000000000000000000000000000000010000000000000000000000000800000400000000000000000000000000000",
      "type": "0x2",
      "transactionHash": "0x07abe5249226dcc215ae382fd614cf480f00c2deca989ea10e0a8eaaadfc519e",
      "transactionIndex": "0x4",
      "blockHash": "0xebfec25858efa8218458131cd2293c422a06bee6b67be9a1a016da7ee44f11f2",
      "blockNumber": "0x1b8d22c5",
      "gasUsed": "0xd370",
      "effectiveGasPrice": "0x1312d00",
      "from": "0x45dce8e4f2dc005a5f28206a46cb034697eeda8e",
      "to": "0x90581eca9469d8d7f5d3b60f4715027adfcf7927",
      "contractAddress": null,
      "gasUsedForL1": "0x1be",
      "l1BlockNumber": "0x17ebc10",
      "timeboosted": false
    },
    {
      "status": "0x1",
      "cumulativeGasUsed": "0xad6f1",
      "logs": [
        {
          "address": "0x90581eca9469d8d7f5d3b60f4715027adfcf7927",
          "topics": [
            "0x8c5be1e5ebec7d5bd14f71427d1e84f3dd0314c0f7b2291e5b200ac8c7c3b925",
            "0x00000000000000000000000045dce8e4f2dc005a5f28206a46cb034697eeda8e",
            "0x00000000000000000000000029f5dbd0fe72d8f11271fcbe79cb87e18a83c70a"
          ],
          "data": "0x0000000000000000000000000000000000000000000000000000000000000000",
          "blockHash": "0x6a63f23d612338415188296419115b89a89c363dd4d70ee4e27372a600541f79",
          "blockNumber": "0x1b8d22cc",
          "blockTimestamp": "0x6a03d267",
          "transactionHash": "0x3b16197d0369fb285fd9df65c8a7ffe45ef94738b05044aec2e9568b2b8405c5",
          "transactionIndex": "0x2",
          "logIndex": "0x0",
          "removed": false
        },
        {
          "address": "0x90581eca9469d8d7f5d3b60f4715027adfcf7927",
          "topics": [
            "0xddf252ad1be2c89b69c2b068fc378daa952ba7f163c4a11628f55a4df523b3ef",
            "0x00000000000000000000000045dce8e4f2dc005a5f28206a46cb034697eeda8e",
            "0x00000000000000000000000029f5dbd0fe72d8f11271fcbe79cb87e18a83c70a"
          ],
          "data": "0x000000000000000000000000000000000000000000000000000009184e72a000",
          "blockHash": "0x6a63f23d612338415188296419115b89a89c363dd4d70ee4e27372a600541f79",
          "blockNumber": "0x1b8d22cc",
          "blockTimestamp": "0x6a03d267",
          "transactionHash": "0x3b16197d0369fb285fd9df65c8a7ffe45ef94738b05044aec2e9568b2b8405c5",
          "transactionIndex": "0x2",
          "logIndex": "0x1",
          "removed": false
        },
        {
          "address": "0x90581eca9469d8d7f5d3b60f4715027adfcf7927",
          "topics": [
            "0x8c5be1e5ebec7d5bd14f71427d1e84f3dd0314c0f7b2291e5b200ac8c7c3b925",
            "0x00000000000000000000000029f5dbd0fe72d8f11271fcbe79cb87e18a83c70a",
            "0x00000000000000000000000090581eca9469d8d7f5d3b60f4715027adfcf7927"
          ],
          "data": "0x000000000000000000000000000000000000000000000000000009184e72a000",
          "blockHash": "0x6a63f23d612338415188296419115b89a89c363dd4d70ee4e27372a600541f79",
          "blockNumber": "0x1b8d22cc",
          "blockTimestamp": "0x6a03d267",
          "transactionHash": "0x3b16197d0369fb285fd9df65c8a7ffe45ef94738b05044aec2e9568b2b8405c5",
          "transactionIndex": "0x2",
          "logIndex": "0x2",
          "removed": false
        },
        {
          "address": "0x90581eca9469d8d7f5d3b60f4715027adfcf7927",
          "topics": [
            "0xddf252ad1be2c89b69c2b068fc378daa952ba7f163c4a11628f55a4df523b3ef",
            "0x00000000000000000000000029f5dbd0fe72d8f11271fcbe79cb87e18a83c70a",
            "0x0000000000000000000000000000000000000000000000000000000000000000"
          ],
          "data": "0x000000000000000000000000000000000000000000000000000009184e72a000",
          "blockHash": "0x6a63f23d612338415188296419115b89a89c363dd4d70ee4e27372a600541f79",
          "blockNumber": "0x1b8d22cc",
          "blockTimestamp": "0x6a03d267",
          "transactionHash": "0x3b16197d0369fb285fd9df65c8a7ffe45ef94738b05044aec2e9568b2b8405c5",
          "transactionIndex": "0x2",
          "logIndex": "0x3",
          "removed": false
        },
        {
          "address": "0x975bcd720be66659e3eb3c0e4f1866a3020e493a",
          "topics": [
            "0x61ed099e74a97a1d7f8bb0952a88ca8b7b8ebd00c126ea04671f92a81213318a"
          ],
          "data": "0x00000000000000000000000031cae3b7fb82d847621859fb1585353c5720660d0000000000000000000000000000000000000000000000000000084d9f153325",
          "blockHash": "0x6a63f23d612338415188296419115b89a89c363dd4d70ee4e27372a600541f79",
          "blockNumber": "0x1b8d22cc",
          "blockTimestamp": "0x6a03d267",
          "transactionHash": "0x3b16197d0369fb285fd9df65c8a7ffe45ef94738b05044aec2e9568b2b8405c5",
          "transactionIndex": "0x2",
          "logIndex": "0x4",
          "removed": false
        },
        {
          "address": "0x975bcd720be66659e3eb3c0e4f1866a3020e493a",
          "topics": [
            "0x07ea52d82345d6e838192107d8fd7123d9c2ec8e916cd0aad13fd2b60db24644"
          ],
          "data": "0x000000000000000000000000000000000000000000000000000000000000006000000000000000000000000000000000000000000000000000000000000001200000000000000000000000000000000000000000000000000000000000000140000000000000000000000000000000000000000000000000000000000000000500000000000000000000000019670df5e16bea2ba9b9e68b48c054c5baea06b80000000000000000000000002f55c492897526677c5b68fb199ea31e2c126416000000000000000000000000a7b5189bca84cd304d8553977c7c614329750d99000000000000000000000000b42726e41dbe96fc4ea6d73cd792167608353698000000000000000000000000f2e380c90e6c09721297526dbc74f870e114dfcb0000000000000000000000000000000000000000000000000000000000000000000000000000000000000000000000000000000000000000000000000000000500000000000000000000000000000000000000000000000000000110299296490000000000000000000000000000000000000000000000000000011029929649000000000000000000000000000000000000000000000000000000f9e10aa5ed0000000000000000000000000000000000000000000000000000015e276e5f8800000000000000000000000000000000000000000000000000000147dee66f2c",
          "blockHash": "0x6a63f23d612338415188296419115b89a89c363dd4d70ee4e27372a600541f79",
          "blockNumber": "0x1b8d22cc",
          "blockTimestamp": "0x6a03d267",
          "transactionHash": "0x3b16197d0369fb285fd9df65c8a7ffe45ef94738b05044aec2e9568b2b8405c5",
          "transactionIndex": "0x2",
          "logIndex": "0x5",
          "removed": false
        },
        {
          "address": "0x1a44076050125825900e736c501f859c50fe728c",
          "topics": [
            "0x1ab700d4ced0c005b164c0f789fd09fcbb0156d4c2041b8a3bfbcd961cd1567f"
          ],
          "data": "0x00000000000000000000000000000000000000000000000000000000000000600000000000000000000000000000000000000000000000000000000000000180000000000000000000000000975bcd720be66659e3eb3c0e4f1866a3020e493a00000000000000000000000000000000000000000000000000000000000000f90100000000000000010000759e00000000000000000000000090581eca9469d8d7f5d3b60f4715027adfcf79270000762f00000000000000000000000075c38d46001b0f8108c4136216bd2694982c20fcc77f9d260ef64aea44b67eb3b81259c66a0f78ec09f532f40ab57c12bf1b5cff0000000000000000000000002a2019b30c157db6c1c01306b8025167dbe1803b000000000000000a00000000000000000000000029f5dbd0fe72d8f11271fcbe79cb87e18a83c70a00000000000000000000000045dce8e4f2dc005a5f28206a46cb034697eeda8e00000000000000000000000000000000000000000000000000000000000075e800000000000000000000000000000000000000000000000000000000000000000000000000002c0003010011010000000000000000000000000003d090010013030000000000000000000000000000000f42400000000000000000000000000000000000000000",
          "blockHash": "0x6a63f23d612338415188296419115b89a89c363dd4d70ee4e27372a600541f79",
          "blockNumber": "0x1b8d22cc",
          "blockTimestamp": "0x6a03d267",
          "transactionHash": "0x3b16197d0369fb285fd9df65c8a7ffe45ef94738b05044aec2e9568b2b8405c5",
          "transactionIndex": "0x2",
          "logIndex": "0x6",
          "removed": false
        },
        {
          "address": "0x90581eca9469d8d7f5d3b60f4715027adfcf7927",
          "topics": [
            "0x85496b760a4b7f8d66384b9df21b381f5d1b1e79f229a47aaf4c232edc2fe59a",
            "0xc77f9d260ef64aea44b67eb3b81259c66a0f78ec09f532f40ab57c12bf1b5cff",
            "0x00000000000000000000000029f5dbd0fe72d8f11271fcbe79cb87e18a83c70a"
          ],
          "data": "0x000000000000000000000000000000000000000000000000000000000000762f000000000000000000000000000000000000000000000000000009184e72a000000000000000000000000000000000000000000000000000000009184e72a000",
          "blockHash": "0x6a63f23d612338415188296419115b89a89c363dd4d70ee4e27372a600541f79",
          "blockNumber": "0x1b8d22cc",
          "blockTimestamp": "0x6a03d267",
          "transactionHash": "0x3b16197d0369fb285fd9df65c8a7ffe45ef94738b05044aec2e9568b2b8405c5",
          "transactionIndex": "0x2",
          "logIndex": "0x7",
          "removed": false
        },
        {
          "address": "0x29f5dbd0fe72d8f11271fcbe79cb87e18a83c70a",
          "topics": [
            "0xbc9ee36b6ca0bdd5b3840e6d329dd19a2490d880c7ce24d9818aa593adfb35be",
            "0x00000000000000000000000045dce8e4f2dc005a5f28206a46cb034697eeda8e",
            "0x00000000000000000000000000000000000000000000000000000000000075e8",
            "0x00000000000000000000000045dce8e4f2dc005a5f28206a46cb034697eeda8e"
          ],
          "data": "0x00000000000000000000000090581eca9469d8d7f5d3b60f4715027adfcf7927000000000000000000000000000000000000000000000000000009184e72a000",
          "blockHash": "0x6a63f23d612338415188296419115b89a89c363dd4d70ee4e27372a600541f79",
          "blockNumber": "0x1b8d22cc",
          "blockTimestamp": "0x6a03d267",
          "transactionHash": "0x3b16197d0369fb285fd9df65c8a7ffe45ef94738b05044aec2e9568b2b8405c5",
          "transactionIndex": "0x2",
          "logIndex": "0x8",
          "removed": false
        }
      ],
      "logsBloom": "0x00000000010040400000800200000020000000000000000000000000001000000000000000000000000000000000000400000000000400000000000010200000000002000000000000000008000000000000000000000000000000000000000000000000020800008000008000000800000000010010100000000010000000000000000000004004000010080008000000000000000000000000000000000000020000108000000020900000000000000000000000400000000440000000008000000002000000000000000080000100001000000000000000000000000022000010040000000000000000000000802000400000018000000000000000000000",
      "type": "0x2",
      "transactionHash": "0x3b16197d0369fb285fd9df65c8a7ffe45ef94738b05044aec2e9568b2b8405c5",
      "transactionIndex": "0x2",
      "blockHash": "0x6a63f23d612338415188296419115b89a89c363dd4d70ee4e27372a600541f79",
      "blockNumber": "0x1b8d22cc",
      "gasUsed": "0x9bcb2",
      "effectiveGasPrice": "0x1312d00",
      "from": "0x45dce8e4f2dc005a5f28206a46cb034697eeda8e",
      "to": "0x29f5dbd0fe72d8f11271fcbe79cb87e18a83c70a",
      "contractAddress": null,
      "gasUsedForL1": "0x269",
      "l1BlockNumber": "0x17ebc10",
      "timeboosted": false
    }
  ],
  "libraries": [],
  "pending": [],
  "returns": {},
  "timestamp": 1778635368681,
  "chain": 42161,
  "commit": "3c1e5d2a"
}