{
  "transactions": [
    {
      "hash": "0xd44be0ba53ef4c0cac41e64d44a9a1f6624db6e2d5946c01470ca1d35ae3ca40",
      "transactionType": "CALL",
      "contractName": null,
      "contractAddress": "0x80eede496655fb9047dd39d9f418d5483ed600df",
      "function": "approve(address,uint256)",
      "arguments": [
        "0x5d8EB59A12Bc98708702305A7b032f4b69Dd5b5c",
        "10000000000000"
      ],
      "transaction": {
        "from": "0x45dce8e4f2dc005a5f28206a46cb034697eeda8e",
        "to": "0x80eede496655fb9047dd39d9f418d5483ed600df",
        "gas": "0x132ad",
        "value": "0x0",
        "input": "0x095ea7b30000000000000000000000005d8eb59a12bc98708702305a7b032f4b69dd5b5c000000000000000000000000000000000000000000000000000009184e72a000",
        "nonce": "0x9a",
        "chainId": "0xb67d2"
      },
      "additionalContracts": [],
      "isFixedGasLimit": false
    },
    {
      "hash": "0xeb09e84148a08bdac4d69aee0a6fbe7cd6c2af5a972d8a13cc92b7663f3e926e",
      "transactionType": "CALL",
      "contractName": null,
      "contractAddress": "0x5d8eb59a12bc98708702305a7b032f4b69dd5b5c",
      "function": "sendOFT(address,uint32,bytes32,uint256)",
      "arguments": [
        "0x80Eede496655FB9047dd39d9f418d5483ED600df",
        "30367",
        "0x00000000000000000000000045dce8e4f2dc005a5f28206a46cb034697eeda8e",
        "10000000000000"
      ],
      "transaction": {
        "from": "0x45dce8e4f2dc005a5f28206a46cb034697eeda8e",
        "to": "0x5d8eb59a12bc98708702305a7b032f4b69dd5b5c",
        "gas": "0xca612",
        "value": "0x18a56b289a72",
        "input": "0x3e832c9000000000000000000000000080eede496655fb9047dd39d9f418d5483ed600df000000000000000000000000000000000000000000000000000000000000769f00000000000000000000000045dce8e4f2dc005a5f28206a46cb034697eeda8e000000000000000000000000000000000000000000000000000009184e72a000",
        "nonce": "0x9b",
        "chainId": "0xb67d2"
      },
      "additionalContracts": [],
      "isFixedGasLimit": false
    },
    {
      "hash": "0x96612aceb2fab85499252bc4e124fd82d2e62d05d9387168f93f2c1ed2020641",
      "transactionType": "CALL",
      "contractName": null,
      "contractAddress": "0x5bff88ca1442c2496f7e475e9e7786383bc070c0",
      "function": "approve(address,uint256)",
      "arguments": [
        "0x5d8EB59A12Bc98708702305A7b032f4b69Dd5b5c",
        "10000000000000"
      ],
      "transaction": {
        "from": "0x45dce8e4f2dc005a5f28206a46cb034697eeda8e",
        "to": "0x5bff88ca1442c2496f7e475e9e7786383bc070c0",
        "gas": "0x12184",
        "value": "0x0",
        "input": "0x095ea7b30000000000000000000000005d8eb59a12bc98708702305a7b032f4b69dd5b5c000000000000000000000000000000000000000000000000000009184e72a000",
        "nonce": "0x9c",
        "chainId": "0xb67d2"
      },
      "additionalContracts": [],
      "isFixedGasLimit": false
    },
    {
      "hash": "0xd90cd11baa836eeaf8632929cb09ea1fde85b20e8f35aa5f60e2260696214199",
      "transactionType": "CALL",
      "contractName": null,
      "contractAddress": "0x5d8eb59a12bc98708702305a7b032f4b69dd5b5c",
      "function": "sendOFT(address,uint32,bytes32,uint256)",
      "arguments": [
        "0x5Bff88cA1442c2496f7E475E9e7786383Bc070c0",
        "30367",
        "0x00000000000000000000000045dce8e4f2dc005a5f28206a46cb034697eeda8e",
        "10000000000000"
      ],
      "transaction": {
        "from": "0x45dce8e4f2dc005a5f28206a46cb034697eeda8e",
        "to": "0x5d8eb59a12bc98708702305a7b032f4b69dd5b5c",
        "gas": "0xbac1b",
        "value": "0x18a56b289a72",
        "input": "0x3e832c900000000000000000000000005bff88ca1442c2496f7e475e9e7786383bc070c0000000000000000000000000000000000000000000000000000000000000769f00000000000000000000000045dce8e4f2dc005a5f28206a46cb034697eeda8e000000000000000000000000000000000000000000000000000009184e72a000",
        "nonce": "0x9d",
        "chainId": "0xb67d2"
      },
      "additionalContracts": [],
      "isFixedGasLimit": false
    },
    {
      "hash": "0xae24f2bcca61aa584f27f7b5e7bbdb3bd39bc3aecb81abc24d02971a30703001",
      "transactionType": "CALL",
      "contractName": null,
      "contractAddress": "0x43edd7f3831b08fe70b7555ddd373c8bf65a9050",
      "function": "approve(address,uint256)",
      "arguments": [
        "0x5d8EB59A12Bc98708702305A7b032f4b69Dd5b5c",
        "10000000000000"
      ],
      "transaction": {
        "from": "0x45dce8e4f2dc005a5f28206a46cb034697eeda8e",
        "to": "0x43edd7f3831b08fe70b7555ddd373c8bf65a9050",
        "gas": "0x132ad",
        "value": "0x0",
        "input": "0x095ea7b30000000000000000000000005d8eb59a12bc98708702305a7b032f4b69dd5b5c000000000000000000000000000000000000000000000000000009184e72a000",
        "nonce": "0x9e",
        "chainId": "0xb67d2"
      },
      "additionalContracts": [],
      "isFixedGasLimit": false
    },
    {
      "hash": "0xf8376c31ed60994ae2cfad46ba91ea4b15b3029dea0e9e9c059520ea40d5a8c8",
      "transactionType": "CALL",
      "contractName": null,
      "contractAddress": "0x5d8eb59a12bc98708702305a7b032f4b69dd5b5c",
      "function": "sendOFT(address,uint32,bytes32,uint256)",
      "arguments": [
        "0x43eDD7f3831b08FE70B7555ddD373C8bF65a9050",
        "30367",
        "0x00000000000000000000000045dce8e4f2dc005a5f28206a46cb034697eeda8e",
        "10000000000000"
      ],
      "transaction": {
        "from": "0x45dce8e4f2dc005a5f28206a46cb034697eeda8e",
        "to": "0x5d8eb59a12bc98708702305a7b032f4b69dd5b5c",
        "gas": "0xbac39",
        "value": "0x18a56b289a72",
        "input": "0x3e832c9000000000000000000000000043edd7f3831b08fe70b7555ddd373c8bf65a9050000000000000000000000000000000000000000000000000000000000000769f00000000000000000000000045dce8e4f2dc005a5f28206a46cb034697eeda8e000000000000000000000000000000000000000000000000000009184e72a000",
        "nonce": "0x9f",
        "chainId": "0xb67d2"
      },
      "additionalContracts": [],
      "isFixedGasLimit": false
    },
    {
      "hash": "0xd214dfc0b6ad72b5c4900b6259f0d15edc145616bc3c1151a8ccd0bcaa55eda7",
      "transactionType": "CALL",
      "contractName": null,
      "contractAddress": "0x3ec3849c33291a9ef4c5db86de593eb4a37fde45",
      "function": "approve(address,uint256)",
      "arguments": [
        "0x5d8EB59A12Bc98708702305A7b032f4b69Dd5b5c",
        "10000000000000"
      ],
      "transaction": {
        "from": "0x45dce8e4f2dc005a5f28206a46cb034697eeda8e",
        "to": "0x3ec3849c33291a9ef4c5db86de593eb4a37fde45",
        "gas": "0x132ad",
        "value": "0x0",
        "input": "0x095ea7b30000000000000000000000005d8eb59a12bc98708702305a7b032f4b69dd5b5c000000000000000000000000000000000000000000000000000009184e72a000",
        "nonce": "0xa0",
        "chainId": "0xb67d2"
      },
      "additionalContracts": [],
      "isFixedGasLimit": false
    },
    {
      "hash": "0xda6a0269491df188539f4d6dfc9a15697d29da53ea2c0f7901212aa89d2095b7",
      "transactionType": "CALL",
      "contractName": null,
      "contractAddress": "0x5d8eb59a12bc98708702305a7b032f4b69dd5b5c",
      "function": "sendOFT(address,uint32,bytes32,uint256)",
      "arguments": [
        "0x3Ec3849C33291a9eF4c5dB86De593EB4A37fDe45",
        "30367",
        "0x00000000000000000000000045dce8e4f2dc005a5f28206a46cb034697eeda8e",
        "10000000000000"
      ],
      "transaction": {
        "from": "0x45dce8e4f2dc005a5f28206a46cb034697eeda8e",
        "to": "0x5d8eb59a12bc98708702305a7b032f4b69dd5b5c",
        "gas": "0xbee96",
        "value": "0x18a56b289a72",
        "input": "0x3e832c900000000000000000000000003ec3849c33291a9ef4c5db86de593eb4a37fde45000000000000000000000000000000000000000000000000000000000000769f00000000000000000000000045dce8e4f2dc005a5f28206a46cb034697eeda8e000000000000000000000000000000000000000000000000000009184e72a000",
        "nonce": "0xa1",
        "chainId": "0xb67d2"
      },
      "additionalContracts": [],
      "isFixedGasLimit": false
    },
    {
      "hash": "0xfce4a4e4327fa36a425db5b40d8e85979081afbd65a2a1df272c35dc307f3e21",
      "transactionType": "CALL",
      "contractName": null,
      "contractAddress": "0x64445f0aecc51e94ad52d8ac56b7190e764e561a",
      "function": "approve(address,uint256)",
      "arguments": [
        "0x5d8EB59A12Bc98708702305A7b032f4b69Dd5b5c",
        "10000000000000"
      ],
      "transaction": {
        "from": "0x45dce8e4f2dc005a5f28206a46cb034697eeda8e",
        "to": "0x64445f0aecc51e94ad52d8ac56b7190e764e561a",
        "gas": "0x12184",
        "value": "0x0",
        "input": "0x095ea7b30000000000000000000000005d8eb59a12bc98708702305a7b032f4b69dd5b5c000000000000000000000000000000000000000000000000000009184e72a000",
        "nonce": "0xa2",
        "chainId": "0xb67d2"
      },
      "additionalContracts": [],
      "isFixedGasLimit": false
    },
    {
      "hash": "0x2254b53989013984dc0b0bfc441dc50c315f55344dffdf53e7ecbd1a46049df1",
      "transactionType": "CALL",
      "contractName": null,
      "contractAddress": "0x5d8eb59a12bc98708702305a7b032f4b69dd5b5c",
      "function": "sendOFT(address,uint32,bytes32,uint256)",
      "arguments": [
        "0x64445f0aecC51E94aD52d8AC56b7190e764E561a",
        "30367",
        "0x00000000000000000000000045dce8e4f2dc005a5f28206a46cb034697eeda8e",
        "10000000000000"
      ],
      "transaction": {
        "from": "0x45dce8e4f2dc005a5f28206a46cb034697eeda8e",
        "to": "0x5d8eb59a12bc98708702305a7b032f4b69dd5b5c",
        "gas": "0xbac1b",
        "value": "0x18a56b289a72",
        "input": "0x3e832c9000000000000000000000000064445f0aecc51e94ad52d8ac56b7190e764e561a000000000000000000000000000000000000000000000000000000000000769f00000000000000000000000045dce8e4f2dc005a5f28206a46cb034697eeda8e000000000000000000000000000000000000000000000000000009184e72a000",
        "nonce": "0xa3",
        "chainId": "0xb67d2"
      },
      "additionalContracts": [],
      "isFixedGasLimit": false
    },
    {
      "hash": "0x71ce2c48b3d65590bb92786e1ce8bc33c818db2c9a1c84827272795181fdf593",
      "transactionType": "CALL",
      "contractName": null,
      "contractAddress": "0x90581eca9469d8d7f5d3b60f4715027adfcf7927",
      "function": "approve(address,uint256)",
      "arguments": [
        "0x5d8EB59A12Bc98708702305A7b032f4b69Dd5b5c",
        "10000000000000"
      ],
      "transaction": {
        "from": "0x45dce8e4f2dc005a5f28206a46cb034697eeda8e",
        "to": "0x90581eca9469d8d7f5d3b60f4715027adfcf7927",
        "gas": "0x132ad",
        "value": "0x0",
        "input": "0x095ea7b30000000000000000000000005d8eb59a12bc98708702305a7b032f4b69dd5b5c000000000000000000000000000000000000000000000000000009184e72a000",
        "nonce": "0xa4",
        "chainId": "0xb67d2"
      },
      "additionalContracts": [],
      "isFixedGasLimit": false
    },
    {
      "hash": "0x4a6ce03730a160d3daab8e91f01290b652b62554733835a02b3dcae4563d17e7",
      "transactionType": "CALL",
      "contractName": null,
      "contractAddress": "0x5d8eb59a12bc98708702305a7b032f4b69dd5b5c",
      "function": "sendOFT(address,uint32,bytes32,uint256)",
      "arguments": [
        "0x90581eCa9469D8D7F5D3B60f4715027aDFCf7927",
        "30367",
        "0x00000000000000000000000045dce8e4f2dc005a5f28206a46cb034697eeda8e",
        "10000000000000"
      ],
      "transaction": {
        "from": "0x45dce8e4f2dc005a5f28206a46cb034697eeda8e",
        "to": "0x5d8eb59a12bc98708702305a7b032f4b69dd5b5c",
        "gas": "0xbee96",
        "value": "0x18a56b289a72",
        "input": "0x3e832c9000000000000000000000000090581eca9469d8d7f5d3b60f4715027adfcf7927000000000000000000000000000000000000000000000000000000000000769f00000000000000000000000045dce8e4f2dc005a5f28206a46cb034697eeda8e000000000000000000000000000000000000000000000000000009184e72a000",
        "nonce": "0xa5",
        "chainId": "0xb67d2"
      },
      "additionalContracts": [],
      "isFixedGasLimit": false
    }
  ],
  "receipts": [
    {
      "status": "0x1",
      "cumulativeGasUsed": "0x18660",
      "logs": [
        {
          "address": "0x80eede496655fb9047dd39d9f418d5483ed600df",
          "topics": [
            "0x8c5be1e5ebec7d5bd14f71427d1e84f3dd0314c0f7b2291e5b200ac8c7c3b925",
            "0x00000000000000000000000045dce8e4f2dc005a5f28206a46cb034697eeda8e",
            "0x0000000000000000000000005d8eb59a12bc98708702305a7b032f4b69dd5b5c"
          ],
          "data": "0x000000000000000000000000000000000000000000000000000009184e72a000",
          "blockHash": "0x9278137c693e2f007be77aa6ac7e3c8d67bfff09d302daf6b5bc7aadc314d765",
          "blockNumber": "0x1e6f9a8",
          "blockTimestamp": "0x6a0427c3",
          "transactionHash": "0xd44be0ba53ef4c0cac41e64d44a9a1f6624db6e2d5946c01470ca1d35ae3ca40",
          "transactionIndex": "0x1",
          "logIndex": "0x0",
          "removed": false
        }
      ],
      "logsBloom": "0x00000000000000000000000200000000000000000000000000000000000000000000000000000000000000000800000000000000000000000000000200200000000000000000000000000000000400000000000000000000000000000000000000000000000000000000000000000000000000000000000000000000010000000000000000000000000000000000000000000000000000000000000000000000020000000000000000000000000000000000000000000400000000000000000000000000000000000000000000020000001000000000000000000000000000000010000000000000000000000000800000000000000000000000000000000000",
      "type": "0x2",
      "transactionHash": "0xd44be0ba53ef4c0cac41e64d44a9a1f6624db6e2d5946c01470ca1d35ae3ca40",
      "transactionIndex": "0x1",
      "blockHash": "0x9278137c693e2f007be77aa6ac7e3c8d67bfff09d302daf6b5bc7aadc314d765",
      "blockNumber": "0x1e6f9a8",
      "gasUsed": "0xd1b2",
      "effectiveGasPrice": "0xf4241",
      "blobGasUsed": "0x9c40",
      "from": "0x45dce8e4f2dc005a5f28206a46cb034697eeda8e",
      "to": "0x80eede496655fb9047dd39d9f418d5483ed600df",
      "contractAddress": null,
      "daFootprintGasScalar": "0x190",
      "l1BaseFeeScalar": "0x558",
      "l1BlobBaseFee": "0x637ed5",
      "l1BlobBaseFeeScalar": "0xc5fc5",
      "l1Fee": "0x2ecd6c0d",
      "l1GasPrice": "0x6fbab38",
      "l1GasUsed": "0x640",
      "operatorFeeConstant": "0x0",
      "operatorFeeScalar": "0x186a0"
    },
    {
      "status": "0x1",
      "cumulativeGasUsed": "0xa2c71",
      "logs": [
        {
          "address": "0x80eede496655fb9047dd39d9f418d5483ed600df",
          "topics": [
            "0x8c5be1e5ebec7d5bd14f71427d1e84f3dd0314c0f7b2291e5b200ac8c7c3b925",
            "0x00000000000000000000000045dce8e4f2dc005a5f28206a46cb034697eeda8e",
            "0x0000000000000000000000005d8eb59a12bc98708702305a7b032f4b69dd5b5c"
          ],
          "data": "0x0000000000000000000000000000000000000000000000000000000000000000",
          "blockHash": "0x9278137c693e2f007be77aa6ac7e3c8d67bfff09d302daf6b5bc7aadc314d765",
          "blockNumber": "0x1e6f9a8",
          "blockTimestamp": "0x6a0427c3",
          "transactionHash": "0x96612aceb2fab85499252bc4e124fd82d2e62d05d9387168f93f2c1ed2020641",
          "transactionIndex": "0x2",
          "logIndex": "0x1",
          "removed": false
        },
        {
          "address": "0x80eede496655fb9047dd39d9f418d5483ed600df",
          "topics": [
            "0xddf252ad1be2c89b69c2b068fc378daa952ba7f163c4a11628f55a4df523b3ef",
            "0x00000000000000000000000045dce8e4f2dc005a5f28206a46cb034697eeda8e",
            "0x0000000000000000000000005d8eb59a12bc98708702305a7b032f4b69dd5b5c"
          ],
          "data": "0x000000000000000000000000000000000000000000000000000009184e72a000",
          "blockHash": "0x9278137c693e2f007be77aa6ac7e3c8d67bfff09d302daf6b5bc7aadc314d765",
          "blockNumber": "0x1e6f9a8",
          "blockTimestamp": "0x6a0427c3",
          "transactionHash": "0x96612aceb2fab85499252bc4e124fd82d2e62d05d9387168f93f2c1ed2020641",
          "transactionIndex": "0x2",
          "logIndex": "0x2",
          "removed": false
        },
        {
          "address": "0x80eede496655fb9047dd39d9f418d5483ed600df",
          "topics": [
            "0x8c5be1e5ebec7d5bd14f71427d1e84f3dd0314c0f7b2291e5b200ac8c7c3b925",
            "0x0000000000000000000000005d8eb59a12bc98708702305a7b032f4b69dd5b5c",
            "0x00000000000000000000000080eede496655fb9047dd39d9f418d5483ed600df"
          ],
          "data": "0x000000000000000000000000000000000000000000000000000009184e72a000",
          "blockHash": "0x9278137c693e2f007be77aa6ac7e3c8d67bfff09d302daf6b5bc7aadc314d765",
          "blockNumber": "0x1e6f9a8",
          "blockTimestamp": "0x6a0427c3",
          "transactionHash": "0x96612aceb2fab85499252bc4e124fd82d2e62d05d9387168f93f2c1ed2020641",
          "transactionIndex": "0x2",
          "logIndex": "0x3",
          "removed": false
        },
        {
          "address": "0x80eede496655fb9047dd39d9f418d5483ed600df",
          "topics": [
            "0xddf252ad1be2c89b69c2b068fc378daa952ba7f163c4a11628f55a4df523b3ef",
            "0x0000000000000000000000005d8eb59a12bc98708702305a7b032f4b69dd5b5c",
            "0x0000000000000000000000000000000000000000000000000000000000000000"
          ],
          "data": "0x000000000000000000000000000000000000000000000000000009184e72a000",
          "blockHash": "0x9278137c693e2f007be77aa6ac7e3c8d67bfff09d302daf6b5bc7aadc314d765",
          "blockNumber": "0x1e6f9a8",
          "blockTimestamp": "0x6a0427c3",
          "transactionHash": "0x96612aceb2fab85499252bc4e124fd82d2e62d05d9387168f93f2c1ed2020641",
          "transactionIndex": "0x2",
          "logIndex": "0x4",
          "removed": false
        },
        {
          "address": "0xc39161c743d0307eb9bcc9fef03eeb9dc4802de7",
          "topics": [
            "0x61ed099e74a97a1d7f8bb0952a88ca8b7b8ebd00c126ea04671f92a81213318a"
          ],
          "data": "0x0000000000000000000000004208d6e27538189bb48e603d6123a94b8abe0a0b00000000000000000000000000000000000000000000000000000835ddec513c",
          "blockHash": "0x9278137c693e2f007be77aa6ac7e3c8d67bfff09d302daf6b5bc7aadc314d765",
          "blockNumber": "0x1e6f9a8",
          "blockTimestamp": "0x6a0427c3",
          "transactionHash": "0x96612aceb2fab85499252bc4e124fd82d2e62d05d9387168f93f2c1ed2020641",
          "transactionIndex": "0x2",
          "logIndex": "0x5",
          "removed": false
        },
        {
          "address": "0xc39161c743d0307eb9bcc9fef03eeb9dc4802de7",
          "topics": [
            "0x07ea52d82345d6e838192107d8fd7123d9c2ec8e916cd0aad13fd2b60db24644"
          ],
          "data": "0x0000000000000000000000000000000000000000000000000000000000000060000000000000000000000000000000000000000000000000000000000000010000000000000000000000000000000000000000000000000000000000000001200000000000000000000000000000000000000000000000000000000000000004000000000000000000000000282b3386571f7f794450d5789911a9804fa346b400000000000000000000000053ff818a1c492e667e2cd0b5afe0fc82c66d33c70000000000000000000000005fa12ebc08e183c1f5d44678cf897edefe68738b000000000000000000000000acde1f22eeab249d3ca6ba8805c8fee9f52a16e700000000000000000000000000000000000000000000000000000000000000000000000000000000000000000000000000000000000000000000000000000004000000000000000000000000000000000000000000000000000001a0f2e643cf000000000000000000000000000000000000000000000000000001866a2b12c1000000000000000000000000000000000000000000000000000001a0f2e643cf000000000000000000000000000000000000000000000000000001866a2b12c1",
          "blockHash": "0x9278137c693e2f007be77aa6ac7e3c8d67bfff09d302daf6b5bc7aadc314d765",
          "blockNumber": "0x1e6f9a8",
          "blockTimestamp": "0x6a0427c3",
          "transactionHash": "0x96612aceb2fab85499252bc4e124fd82d2e62d05d9387168f93f2c1ed2020641",
          "transactionIndex": "0x2",
          "logIndex": "0x6",
          "removed": false
        },
        {
          "address": "0x6f475642a6e85809b1c36fa62763669b1b48dd5b",
          "topics": [
            "0x1ab700d4ced0c005b164c0f789fd09fcbb0156d4c2041b8a3bfbcd961cd1567f"
          ],
          "data": "0x00000000000000000000000000000000000000000000000000000000000000600000000000000000000000000000000000000000000000000000000000000180000000000000000000000000c39161c743d0307eb9bcc9fef03eeb9dc4802de700000000000000000000000000000000000000000000000000000000000000f9010000000000000208000076a700000000000000000000000080eede496655fb9047dd39d9f418d5483ed600df0000762f00000000000000000000000096a394058e2b84a89bac9667b19661ed003cf5d4e16bbff9cf3d855983a3acef50a2aafe46bbc172cf38dbaf430a6e7ceb561df00000000000000000000000002a2019b30c157db6c1c01306b8025167dbe1803b000000000000000a0000000000000000000000005d8eb59a12bc98708702305a7b032f4b69dd5b5c00000000000000000000000045dce8e4f2dc005a5f28206a46cb034697eeda8e000000000000000000000000000000000000000000000000000000000000769f00000000000000000000000000000000000000000000000000000000000000000000000000002c0003010011010000000000000000000000000003d090010013030000000000000000000000000000000f42400000000000000000000000000000000000000000",
          "blockHash": "0x9278137c693e2f007be77aa6ac7e3c8d67bfff09d302daf6b5bc7aadc314d765",
          "blockNumber": "0x1e6f9a8",
          "blockTimestamp": "0x6a0427c3",
          "transactionHash": "0x96612aceb2fab85499252bc4e124fd82d2e62d05d9387168f93f2c1ed2020641",
          "transactionIndex": "0x2",
          "logIndex": "0x7",
          "removed": false
        },
        {
          "address": "0x80eede496655fb9047dd39d9f418d5483ed600df",
          "topics": [
            "0x85496b760a4b7f8d66384b9df21b381f5d1b1e79f229a47aaf4c232edc2fe59a",
            "0xe16bbff9cf3d855983a3acef50a2aafe46bbc172cf38dbaf430a6e7ceb561df0",
            "0x0000000000000000000000005d8eb59a12bc98708702305a7b032f4b69dd5b5c"
          ],
          "data": "0x000000000000000000000000000000000000000000000000000000000000762f000000000000000000000000000000000000000000000000000009184e72a000000000000000000000000000000000000000000000000000000009184e72a000",
          "blockHash": "0x9278137c693e2f007be77aa6ac7e3c8d67bfff09d302daf6b5bc7aadc314d765",
          "blockNumber": "0x1e6f9a8",
          "blockTimestamp": "0x6a0427c3",
          "transactionHash": "0x96612aceb2fab85499252bc4e124fd82d2e62d05d9387168f93f2c1ed2020641",
          "transactionIndex": "0x2",
          "logIndex": "0x8",
          "removed": false
        },
        {
          "address": "0x5d8eb59a12bc98708702305a7b032f4b69dd5b5c",
          "topics": [
            "0xbc9ee36b6ca0bdd5b3840e6d329dd19a2490d880c7ce24d9818aa593adfb35be",
            "0x00000000000000000000000045dce8e4f2dc005a5f28206a46cb034697eeda8e",
            "0x000000000000000000000000000000000000000000000000000000000000769f",
            "0x00000000000000000000000045dce8e4f2dc005a5f28206a46cb034697eeda8e"
          ],
          "data": "0x00000000000000000000000080eede496655fb9047dd39d9f418d5483ed600df000000000000000000000000000000000000000000000000000009184e72a000",
          "blockHash": "0x9278137c693e2f007be77aa6ac7e3c8d67bfff09d302daf6b5bc7aadc314d765",
          "blockNumber": "0x1e6f9a8",
          "blockTimestamp": "0x6a0427c3",
          "transactionHash": "0x96612aceb2fab85499252bc4e124fd82d2e62d05d9387168f93f2c1ed2020641",
          "transactionIndex": "0x2",
          "logIndex": "0x9",
          "removed": false
        }
      ],
      "logsBloom": "0x00100000000000000000000200000000000000000000000000000000000000000000080000000400000000000800000000000000000000000000000200200000000002000000220000000008000400000140800000000000000000000080000000000000020000008020000000000800000000000000100000000010010000000000000040800000000000080000000000000000000000000000000000000000020000108000000020100000000000080000000000400400020440000000000000000002000000000000000080020000001000000000000000002000000020004010040020000000000000000000802000000000008000000000000000000000",
      "type": "0x2",
      "transactionHash": "0x96612aceb2fab85499252bc4e124fd82d2e62d05d9387168f93f2c1ed2020641",
      "transactionIndex": "0x2",
      "blockHash": "0x9278137c693e2f007be77aa6ac7e3c8d67bfff09d302daf6b5bc7aadc314d765",
      "blockNumber": "0x1e6f9a8",
      "gasUsed": "0x8a611",
      "effectiveGasPrice": "0xf4241",
      "blobGasUsed": "0xbb80",
      "from": "0x45dce8e4f2dc005a5f28206a46cb034697eeda8e",
      "to": "0x5d8eb59a12bc98708702305a7b032f4b69dd5b5c",
      "contractAddress": null,
      "daFootprintGasScalar": "0x190",
      "l1BaseFeeScalar": "0x558",
      "l1BlobBaseFee": "0x637ed5",
      "l1BlobBaseFeeScalar": "0xc5fc5",
      "l1Fee": "0x38696f89",
      "l1GasPrice": "0x6fbab38",
      "l1GasUsed": "0x788",
      "operatorFeeConstant": "0x0",
      "operatorFeeScalar": "0x186a0"
    },
    {
      "status": "0x1",
      "cumulativeGasUsed": "0x1864a",
      "logs": [
        {
          "address": "0x5bff88ca1442c2496f7e475e9e7786383bc070c0",
          "topics": [
            "0x8c5be1e5ebec7d5bd14f71427d1e84f3dd0314c0f7b2291e5b200ac8c7c3b925",
            "0x00000000000000000000000045dce8e4f2dc005a5f28206a46cb034697eeda8e",
            "0x0000000000000000000000005d8eb59a12bc98708702305a7b032f4b69dd5b5c"
          ],
          "data": "0x000000000000000000000000000000000000000000000000000009184e72a000",
          "blockHash": "0x9a9de47a1c884c97c069a19d79d090c2138ddfda5388b33096dfda94da3437d5",
          "blockNumber": "0x1e6f9a9",
          "blockTimestamp": "0x6a0427c4",
          "transactionHash": "0xd90cd11baa836eeaf8632929cb09ea1fde85b20e8f35aa5f60e2260696214199",
          "transactionIndex": "0x1",
          "logIndex": "0x0",
          "removed": false
        }
      ],
      "logsBloom": "0x00000000000000000000000200000000000000000000000000000000000000000000000000000000000000000000000000000000000000000000000000200000000000000000000000000000000400000000000000000000000000000000000000000000000000000000000000000000000000000000000000000000000000000000000000000000000000000000000000000000000000000000000000000000020000000000000000000000000000000000000000000400000000000010000000000000000000000000000000020000001000800000000000000000000000000010000000000000000000000000800000000000000000000000000000000800",
      "type": "0x2",
      "transactionHash": "0xd90cd11baa836eeaf8632929cb09ea1fde85b20e8f35aa5f60e2260696214199",
      "transactionIndex": "0x1",
      "blockHash": "0x9a9de47a1c884c97c069a19d79d090c2138ddfda5388b33096dfda94da3437d5",
      "blockNumber": "0x1e6f9a9",
      "gasUsed": "0xd19c",
      "effectiveGasPrice": "0xf4241",
      "blobGasUsed": "0x9c40",
      "from": "0x45dce8e4f2dc005a5f28206a46cb034697eeda8e",
      "to": "0x5bff88ca1442c2496f7e475e9e7786383bc070c0",
      "contractAddress": null,
      "daFootprintGasScalar": "0x190",
      "l1BaseFeeScalar": "0x558",
      "l1BlobBaseFee": "0x637ed5",
      "l1BlobBaseFeeScalar": "0xc5fc5",
      "l1Fee": "0x2ecd6c0d",
      "l1GasPrice": "0x6fbab38",
      "l1GasUsed": "0x640",
      "operatorFeeConstant": "0x0",
      "operatorFeeScalar": "0x186a0"
    },
    {
      "status": "0x1",
      "cumulativeGasUsed": "0x9f9a0",
      "logs": [
        {
          "address": "0x5bff88ca1442c2496f7e475e9e7786383bc070c0",
          "topics": [
            "0x8c5be1e5ebec7d5bd14f71427d1e84f3dd0314c0f7b2291e5b200ac8c7c3b925",
            "0x00000000000000000000000045dce8e4f2dc005a5f28206a46cb034697eeda8e",
            "0x0000000000000000000000005d8eb59a12bc98708702305a7b032f4b69dd5b5c"
          ],
          "data": "0x0000000000000000000000000000000000000000000000000000000000000000",
          "blockHash": "0x9a9de47a1c884c97c069a19d79d090c2138ddfda5388b33096dfda94da3437d5",
          "blockNumber": "0x1e6f9a9",
          "blockTimestamp": "0x6a0427c4",
          "transactionHash": "0xeb09e84148a08bdac4d69aee0a6fbe7cd6c2af5a972d8a13cc92b7663f3e926e",
          "transactionIndex": "0x2",
          "logIndex": "0x1",
          "removed": false
        },
        {
          "address": "0x5bff88ca1442c2496f7e475e9e7786383bc070c0",
          "topics": [
            "0xddf252ad1be2c89b69c2b068fc378daa952ba7f163c4a11628f55a4df523b3ef",
            "0x00000000000000000000000045dce8e4f2dc005a5f28206a46cb034697eeda8e",
            "0x0000000000000000000000005d8eb59a12bc98708702305a7b032f4b69dd5b5c"
          ],
          "data": "0x000000000000000000000000000000000000000000000000000009184e72a000",
          "blockHash": "0x9a9de47a1c884c97c069a19d79d090c2138ddfda5388b33096dfda94da3437d5",
          "blockNumber": "0x1e6f9a9",
          "blockTimestamp": "0x6a0427c4",
          "transactionHash": "0xeb09e84148a08bdac4d69aee0a6fbe7cd6c2af5a972d8a13cc92b7663f3e926e",
          "transactionIndex": "0x2",
          "logIndex": "0x2",
          "removed": false
        },
        {
          "address": "0x5bff88ca1442c2496f7e475e9e7786383bc070c0",
          "topics": [
            "0x8c5be1e5ebec7d5bd14f71427d1e84f3dd0314c0f7b2291e5b200ac8c7c3b925",
            "0x0000000000000000000000005d8eb59a12bc98708702305a7b032f4b69dd5b5c",
            "0x0000000000000000000000005bff88ca1442c2496f7e475e9e7786383bc070c0"
          ],
          "data": "0x000000000000000000000000000000000000000000000000000009184e72a000",
          "blockHash": "0x9a9de47a1c884c97c069a19d79d090c2138ddfda5388b33096dfda94da3437d5",
          "blockNumber": "0x1e6f9a9",
          "blockTimestamp": "0x6a0427c4",
          "transactionHash": "0xeb09e84148a08bdac4d69aee0a6fbe7cd6c2af5a972d8a13cc92b7663f3e926e",
          "transactionIndex": "0x2",
          "logIndex": "0x3",
          "removed": false
        },
        {
          "address": "0x5bff88ca1442c2496f7e475e9e7786383bc070c0",
          "topics": [
            "0xddf252ad1be2c89b69c2b068fc378daa952ba7f163c4a11628f55a4df523b3ef",
            "0x0000000000000000000000005d8eb59a12bc98708702305a7b032f4b69dd5b5c",
            "0x0000000000000000000000000000000000000000000000000000000000000000"
          ],
          "data": "0x000000000000000000000000000000000000000000000000000009184e72a000",
          "blockHash": "0x9a9de47a1c884c97c069a19d79d090c2138ddfda5388b33096dfda94da3437d5",
          "blockNumber": "0x1e6f9a9",
          "blockTimestamp": "0x6a0427c4",
          "transactionHash": "0xeb09e84148a08bdac4d69aee0a6fbe7cd6c2af5a972d8a13cc92b7663f3e926e",
          "transactionIndex": "0x2",
          "logIndex": "0x4",
          "removed": false
        },
        {
          "address": "0xc39161c743d0307eb9bcc9fef03eeb9dc4802de7",
          "topics": [
            "0x61ed099e74a97a1d7f8bb0952a88ca8b7b8ebd00c126ea04671f92a81213318a"
          ],
          "data": "0x0000000000000000000000004208d6e27538189bb48e603d6123a94b8abe0a0b00000000000000000000000000000000000000000000000000000835ddec513c",
          "blockHash": "0x9a9de47a1c884c97c069a19d79d090c2138ddfda5388b33096dfda94da3437d5",
          "blockNumber": "0x1e6f9a9",
          "blockTimestamp": "0x6a0427c4",
          "transactionHash": "0xeb09e84148a08bdac4d69aee0a6fbe7cd6c2af5a972d8a13cc92b7663f3e926e",
          "transactionIndex": "0x2",
          "logIndex": "0x5",
          "removed": false
        },
        {
          "address": "0xc39161c743d0307eb9bcc9fef03eeb9dc4802de7",
          "topics": [
            "0x07ea52d82345d6e838192107d8fd7123d9c2ec8e916cd0aad13fd2b60db24644"
          ],
          "data": "0x0000000000000000000000000000000000000000000000000000000000000060000000000000000000000000000000000000000000000000000000000000010000000000000000000000000000000000000000000000000000000000000001200000000000000000000000000000000000000000000000000000000000000004000000000000000000000000282b3386571f7f794450d5789911a9804fa346b400000000000000000000000053ff818a1c492e667e2cd0b5afe0fc82c66d33c70000000000000000000000005fa12ebc08e183c1f5d44678cf897edefe68738b000000000000000000000000acde1f22eeab249d3ca6ba8805c8fee9f52a16e700000000000000000000000000000000000000000000000000000000000000000000000000000000000000000000000000000000000000000000000000000004000000000000000000000000000000000000000000000000000001a0f2e643cf000000000000000000000000000000000000000000000000000001866a2b12c1000000000000000000000000000000000000000000000000000001a0f2e643cf000000000000000000000000000000000000000000000000000001866a2b12c1",
          "blockHash": "0x9a9de47a1c884c97c069a19d79d090c2138ddfda5388b33096dfda94da3437d5",
          "blockNumber": "0x1e6f9a9",
          "blockTimestamp": "0x6a0427c4",
          "transactionHash": "0xeb09e84148a08bdac4d69aee0a6fbe7cd6c2af5a972d8a13cc92b7663f3e926e",
          "transactionIndex": "0x2",
          "logIndex": "0x6",
          "removed": false
        },
        {
          "address": "0x6f475642a6e85809b1c36fa62763669b1b48dd5b",
          "topics": [
            "0x1ab700d4ced0c005b164c0f789fd09fcbb0156d4c2041b8a3bfbcd961cd1567f"
          ],
          "data": "0x00000000000000000000000000000000000000000000000000000000000000600000000000000000000000000000000000000000000000000000000000000180000000000000000000000000c39161c743d0307eb9bcc9fef03eeb9dc4802de700000000000000000000000000000000000000000000000000000000000000f90100000000000001ca000076a70000000000000000000000005bff88ca1442c2496f7e475e9e7786383bc070c00000762f00000000000000000000000088aa7854d3b2daa5e37e7ce73a1f39669623a361d4f874c84d5720df8a1f524039380d1c24ead119a29c01d056f1680765e3e1200000000000000000000000002a2019b30c157db6c1c01306b8025167dbe1803b000000000000000a0000000000000000000000005d8eb59a12bc98708702305a7b032f4b69dd5b5c00000000000000000000000045dce8e4f2dc005a5f28206a46cb034697eeda8e000000000000000000000000000000000000000000000000000000000000769f00000000000000000000000000000000000000000000000000000000000000000000000000002c0003010011010000000000000000000000000003d090010013030000000000000000000000000000000f42400000000000000000000000000000000000000000",
          "blockHash": "0x9a9de47a1c884c97c069a19d79d090c2138ddfda5388b33096dfda94da3437d5",
          "blockNumber": "0x1e6f9a9",
          "blockTimestamp": "0x6a0427c4",
          "transactionHash": "0xeb09e84148a08bdac4d69aee0a6fbe7cd6c2af5a972d8a13cc92b7663f3e926e",
          "transactionIndex": "0x2",
          "logIndex": "0x7",
          "removed": false
        },
        {
          "address": "0x5bff88ca1442c2496f7e475e9e7786383bc070c0",
          "topics": [
            "0x85496b760a4b7f8d66384b9df21b381f5d1b1e79f229a47aaf4c232edc2fe59a",
            "0xd4f874c84d5720df8a1f524039380d1c24ead119a29c01d056f1680765e3e120",
            "0x0000000000000000000000005d8eb59a12bc98708702305a7b032f4b69dd5b5c"
          ],
          "data": "0x000000000000000000000000000000000000000000000000000000000000762f000000000000000000000000000000000000000000000000000009184e72a000000000000000000000000000000000000000000000000000000009184e72a000",
          "blockHash": "0x9a9de47a1c884c97c069a19d79d090c2138ddfda5388b33096dfda94da3437d5",
          "blockNumber": "0x1e6f9a9",
          "blockTimestamp": "0x6a0427c4",
          "transactionHash": "0xeb09e84148a08bdac4d69aee0a6fbe7cd6c2af5a972d8a13cc92b7663f3e926e",
          "transactionIndex": "0x2",
          "logIndex": "0x8",
          "removed": false
        },
        {
          "address": "0x5d8eb59a12bc98708702305a7b032f4b69dd5b5c",
          "topics": [
            "0xbc9ee36b6ca0bdd5b3840e6d329dd19a2490d880c7ce24d9818aa593adfb35be",
            "0x00000000000000000000000045dce8e4f2dc005a5f28206a46cb034697eeda8e",
            "0x000000000000000000000000000000000000000000000000000000000000769f",
            "0x00000000000000000000000045dce8e4f2dc005a5f28206a46cb034697eeda8e"
          ],
          "data": "0x0000000000000000000000005bff88ca1442c2496f7e475e9e7786383bc070c0000000000000000000000000000000000000000000000000000009184e72a000",
          "blockHash": "0x9a9de47a1c884c97c069a19d79d090c2138ddfda5388b33096dfda94da3437d5",
          "blockNumber": "0x1e6f9a9",
          "blockTimestamp": "0x6a0427c4",
          "transactionHash": "0xeb09e84148a08bdac4d69aee0a6fbe7cd6c2af5a972d8a13cc92b7663f3e926e",
          "transactionIndex": "0x2",
          "logIndex": "0x9",
          "removed": false
        }
      ],
      "logsBloom": "0x00100000000080000000000200000000000200000000000000000000000000000001000000000000000000000000000000000000000000000000000000200000000002000000220000000008000400000140000000000000000000000080000000000000020000008020000000000800000000000000100000000010000000000000001040800000000000080000000000000000000000000000000800000000020000108000000020100000000000080000000000400400020440000010000000000002000000000000000080020000001000800000000000000000000020004010040000000000000000040000802000000000008000000000000000000800",
      "type": "0x2",
      "transactionHash": "0xeb09e84148a08bdac4d69aee0a6fbe7cd6c2af5a972d8a13cc92b7663f3e926e",
      "transactionIndex": "0x2",
      "blockHash": "0x9a9de47a1c884c97c069a19d79d090c2138ddfda5388b33096dfda94da3437d5",
      "blockNumber": "0x1e6f9a9",
      "gasUsed": "0x87356",
      "effectiveGasPrice": "0xf4241",
      "blobGasUsed": "0xbb80",
      "from": "0x45dce8e4f2dc005a5f28206a46cb034697eeda8e",
      "to": "0x5d8eb59a12bc98708702305a7b032f4b69dd5b5c",
      "contractAddress": null,
      "daFootprintGasScalar": "0x190",
      "l1BaseFeeScalar": "0x558",
      "l1BlobBaseFee": "0x637ed5",
      "l1BlobBaseFeeScalar": "0xc5fc5",
      "l1Fee": "0x38696f89",
      "l1GasPrice": "0x6fbab38",
      "l1GasUsed": "0x788",
      "operatorFeeConstant": "0x0",
      "operatorFeeScalar": "0x186a0"
    },
    {
      "status": "0x1",
      "cumulativeGasUsed": "0xacb52",
      "logs": [
        {
          "address": "0x43edd7f3831b08fe70b7555ddd373c8bf65a9050",
          "topics": [
            "0x8c5be1e5ebec7d5bd14f71427d1e84f3dd0314c0f7b2291e5b200ac8c7c3b925",
            "0x00000000000000000000000045dce8e4f2dc005a5f28206a46cb034697eeda8e",
            "0x0000000000000000000000005d8eb59a12bc98708702305a7b032f4b69dd5b5c"
          ],
          "data": "0x000000000000000000000000000000000000000000000000000009184e72a000",
          "blockHash": "0x9a9de47a1c884c97c069a19d79d090c2138ddfda5388b33096dfda94da3437d5",
          "blockNumber": "0x1e6f9a9",
          "blockTimestamp": "0x6a0427c4",
          "transactionHash": "0xf8376c31ed60994ae2cfad46ba91ea4b15b3029dea0e9e9c059520ea40d5a8c8",
          "transactionIndex": "0x3",
          "logIndex": "0xa",
          "removed": false
        }
      ],
      "logsBloom": "0x00000000000000000000000200000000000000000000000000000000000000000000000000000000000000000000000000000000000000000000000000200000000000000000000000000000000400000000000000000000000000000000000000000000000000000000000000000000000000000000000000000000000000000000000000000000000000000000000000000000000000000000000000000000020000000000000002000000000000000000000000000400000000000000000000000000000000000000000000020000001000000000000000000000000000000010000000000000000000040000800000000000000000000000000000080000",
      "type": "0x2",
      "transactionHash": "0xf8376c31ed60994ae2cfad46ba91ea4b15b3029dea0e9e9c059520ea40d5a8c8",
      "transactionIndex": "0x3",
      "blockHash": "0x9a9de47a1c884c97c069a19d79d090c2138ddfda5388b33096dfda94da3437d5",
      "blockNumber": "0x1e6f9a9",
      "gasUsed": "0xd1b2",
      "effectiveGasPrice": "0xf4241",
      "blobGasUsed": "0x9c40",
      "from": "0x45dce8e4f2dc005a5f28206a46cb034697eeda8e",
      "to": "0x43edd7f3831b08fe70b7555ddd373c8bf65a9050",
      "contractAddress": null,
      "daFootprintGasScalar": "0x190",
      "l1BaseFeeScalar": "0x558",
      "l1BlobBaseFee": "0x637ed5",
      "l1BlobBaseFeeScalar": "0xc5fc5",
      "l1Fee": "0x2ecd6c0d",
      "l1GasPrice": "0x6fbab38",
      "l1GasUsed": "0x640",
      "operatorFeeConstant": "0x0",
      "operatorFeeScalar": "0x186a0"
    },
    {
      "status": "0x1",
      "cumulativeGasUsed": "0x133ebe",
      "logs": [
        {
          "address": "0x43edd7f3831b08fe70b7555ddd373c8bf65a9050",
          "topics": [
            "0x8c5be1e5ebec7d5bd14f71427d1e84f3dd0314c0f7b2291e5b200ac8c7c3b925",
            "0x00000000000000000000000045dce8e4f2dc005a5f28206a46cb034697eeda8e",
            "0x0000000000000000000000005d8eb59a12bc98708702305a7b032f4b69dd5b5c"
          ],
          "data": "0x0000000000000000000000000000000000000000000000000000000000000000",
          "blockHash": "0x9a9de47a1c884c97c069a19d79d090c2138ddfda5388b33096dfda94da3437d5",
          "blockNumber": "0x1e6f9a9",
          "blockTimestamp": "0x6a0427c4",
          "transactionHash": "0xfce4a4e4327fa36a425db5b40d8e85979081afbd65a2a1df272c35dc307f3e21",
          "transactionIndex": "0x4",
          "logIndex": "0xb",
          "removed": false
        },
        {
          "address": "0x43edd7f3831b08fe70b7555ddd373c8bf65a9050",
          "topics": [
            "0xddf252ad1be2c89b69c2b068fc378daa952ba7f163c4a11628f55a4df523b3ef",
            "0x00000000000000000000000045dce8e4f2dc005a5f28206a46cb034697eeda8e",
            "0x0000000000000000000000005d8eb59a12bc98708702305a7b032f4b69dd5b5c"
          ],
          "data": "0x000000000000000000000000000000000000000000000000000009184e72a000",
          "blockHash": "0x9a9de47a1c884c97c069a19d79d090c2138ddfda5388b33096dfda94da3437d5",
          "blockNumber": "0x1e6f9a9",
          "blockTimestamp": "0x6a0427c4",
          "transactionHash": "0xfce4a4e4327fa36a425db5b40d8e85979081afbd65a2a1df272c35dc307f3e21",
          "transactionIndex": "0x4",
          "logIndex": "0xc",
          "removed": false
        },
        {
          "address": "0x43edd7f3831b08fe70b7555ddd373c8bf65a9050",
          "topics": [
            "0x8c5be1e5ebec7d5bd14f71427d1e84f3dd0314c0f7b2291e5b200ac8c7c3b925",
            "0x0000000000000000000000005d8eb59a12bc98708702305a7b032f4b69dd5b5c",
            "0x00000000000000000000000043edd7f3831b08fe70b7555ddd373c8bf65a9050"
          ],
          "data": "0x000000000000000000000000000000000000000000000000000009184e72a000",
          "blockHash": "0x9a9de47a1c884c97c069a19d79d090c2138ddfda5388b33096dfda94da3437d5",
          "blockNumber": "0x1e6f9a9",
          "blockTimestamp": "0x6a0427c4",
          "transactionHash": "0xfce4a4e4327fa36a425db5b40d8e85979081afbd65a2a1df272c35dc307f3e21",
          "transactionIndex": "0x4",
          "logIndex": "0xd",
          "removed": false
        },
        {
          "address": "0x43edd7f3831b08fe70b7555ddd373c8bf65a9050",
          "topics": [
            "0xddf252ad1be2c89b69c2b068fc378daa952ba7f163c4a11628f55a4df523b3ef",
            "0x0000000000000000000000005d8eb59a12bc98708702305a7b032f4b69dd5b5c",
            "0x0000000000000000000000000000000000000000000000000000000000000000"
          ],
          "data": "0x000000000000000000000000000000000000000000000000000009184e72a000",
          "blockHash": "0x9a9de47a1c884c97c069a19d79d090c2138ddfda5388b33096dfda94da3437d5",
          "blockNumber": "0x1e6f9a9",
          "blockTimestamp": "0x6a0427c4",
          "transactionHash": "0xfce4a4e4327fa36a425db5b40d8e85979081afbd65a2a1df272c35dc307f3e21",
          "transactionIndex": "0x4",
          "logIndex": "0xe",
          "removed": false
        },
        {
          "address": "0xc39161c743d0307eb9bcc9fef03eeb9dc4802de7",
          "topics": [
            "0x61ed099e74a97a1d7f8bb0952a88ca8b7b8ebd00c126ea04671f92a81213318a"
          ],
          "data": "0x0000000000000000000000004208d6e27538189bb48e603d6123a94b8abe0a0b00000000000000000000000000000000000000000000000000000835ddec513c",
          "blockHash": "0x9a9de47a1c884c97c069a19d79d090c2138ddfda5388b33096dfda94da3437d5",
          "blockNumber": "0x1e6f9a9",
          "blockTimestamp": "0x6a0427c4",
          "transactionHash": "0xfce4a4e4327fa36a425db5b40d8e85979081afbd65a2a1df272c35dc307f3e21",
          "transactionIndex": "0x4",
          "logIndex": "0xf",
          "removed": false
        },
        {
          "address": "0xc39161c743d0307eb9bcc9fef03eeb9dc4802de7",
          "topics": [
            "0x07ea52d82345d6e838192107d8fd7123d9c2ec8e916cd0aad13fd2b60db24644"
          ],
          "data": "0x0000000000000000000000000000000000000000000000000000000000000060000000000000000000000000000000000000000000000000000000000000010000000000000000000000000000000000000000000000000000000000000001200000000000000000000000000000000000000000000000000000000000000004000000000000000000000000282b3386571f7f794450d5789911a9804fa346b400000000000000000000000053ff818a1c492e667e2cd0b5afe0fc82c66d33c70000000000000000000000005fa12ebc08e183c1f5d44678cf897edefe68738b000000000000000000000000acde1f22eeab249d3ca6ba8805c8fee9f52a16e700000000000000000000000000000000000000000000000000000000000000000000000000000000000000000000000000000000000000000000000000000004000000000000000000000000000000000000000000000000000001a0f2e643cf000000000000000000000000000000000000000000000000000001866a2b12c1000000000000000000000000000000000000000000000000000001a0f2e643cf000000000000000000000000000000000000000000000000000001866a2b12c1",
          "blockHash": "0x9a9de47a1c884c97c069a19d79d090c2138ddfda5388b33096dfda94da3437d5",
          "blockNumber": "0x1e6f9a9",
          "blockTimestamp": "0x6a0427c4",
          "transactionHash": "0xfce4a4e4327fa36a425db5b40d8e85979081afbd65a2a1df272c35dc307f3e21",
          "transactionIndex": "0x4",
          "logIndex": "0x10",
          "removed": false
        },
        {
          "address": "0x6f475642a6e85809b1c36fa62763669b1b48dd5b",
          "topics": [
            "0x1ab700d4ced0c005b164c0f789fd09fcbb0156d4c2041b8a3bfbcd961cd1567f"
          ],
          "data": "0x00000000000000000000000000000000000000000000000000000000000000600000000000000000000000000000000000000000000000000000000000000180000000000000000000000000c39161c743d0307eb9bcc9fef03eeb9dc4802de700000000000000000000000000000000000000000000000000000000000000f9010000000000000003000076a700000000000000000000000043edd7f3831b08fe70b7555ddd373c8bf65a90500000762f0000000000000000000000009abfe1f8a999b0011ecd6116649aee8d575f56044f74c21d7db18280d6f4bcbc499947d4e63f6f2e89f3a7d3d63028d560d27b430000000000000000000000002a2019b30c157db6c1c01306b8025167dbe1803b000000000000000a0000000000000000000000005d8eb59a12bc98708702305a7b032f4b69dd5b5c00000000000000000000000045dce8e4f2dc005a5f28206a46cb034697eeda8e000000000000000000000000000000000000000000000000000000000000769f00000000000000000000000000000000000000000000000000000000000000000000000000002c0003010011010000000000000000000000000003d090010013030000000000000000000000000000000f42400000000000000000000000000000000000000000",
          "blockHash": "0x9a9de47a1c884c97c069a19d79d090c2138ddfda5388b33096dfda94da3437d5",
          "blockNumber": "0x1e6f9a9",
          "blockTimestamp": "0x6a0427c4",
          "transactionHash": "0xfce4a4e4327fa36a425db5b40d8e85979081afbd65a2a1df272c35dc307f3e21",
          "transactionIndex": "0x4",
          "logIndex": "0x11",
          "removed": false
        },
        {
          "address": "0x43edd7f3831b08fe70b7555ddd373c8bf65a9050",
          "topics": [
            "0x85496b760a4b7f8d66384b9df21b381f5d1b1e79f229a47aaf4c232edc2fe59a",
            "0x4f74c21d7db18280d6f4bcbc499947d4e63f6f2e89f3a7d3d63028d560d27b43",
            "0x0000000000000000000000005d8eb59a12bc98708702305a7b032f4b69dd5b5c"
          ],
          "data": "0x000000000000000000000000000000000000000000000000000000000000762f000000000000000000000000000000000000000000000000000009184e72a000000000000000000000000000000000000000000000000000000009184e72a000",
          "blockHash": "0x9a9de47a1c884c97c069a19d79d090c2138ddfda5388b33096dfda94da3437d5",
          "blockNumber": "0x1e6f9a9",
          "blockTimestamp": "0x6a0427c4",
          "transactionHash": "0xfce4a4e4327fa36a425db5b40d8e85979081afbd65a2a1df272c35dc307f3e21",
          "transactionIndex": "0x4",
          "logIndex": "0x12",
          "removed": false
        },
        {
          "address": "0x5d8eb59a12bc98708702305a7b032f4b69dd5b5c",
          "topics": [
            "0xbc9ee36b6ca0bdd5b3840e6d329dd19a2490d880c7ce24d9818aa593adfb35be",
            "0x00000000000000000000000045dce8e4f2dc005a5f28206a46cb034697eeda8e",
            "0x000000000000000000000000000000000000000000000000000000000000769f",
            "0x00000000000000000000000045dce8e4f2dc005a5f28206a46cb034697eeda8e"
          ],
          "data": "0x00000000000000000000000043edd7f3831b08fe70b7555ddd373c8bf65a9050000000000000000000000000000000000000000000000000000009184e72a000",
          "blockHash": "0x9a9de47a1c884c97c069a19d79d090c2138ddfda5388b33096dfda94da3437d5",
          "blockNumber": "0x1e6f9a9",
          "blockTimestamp": "0x6a0427c4",
          "transactionHash": "0xfce4a4e4327fa36a425db5b40d8e85979081afbd65a2a1df272c35dc307f3e21",
          "transactionIndex": "0x4",
          "logIndex": "0x13",
          "removed": false
        }
      ],
      "logsBloom": "0x00100000000000000000000200000000000000000000000000000000000000010000000000000000000000000000000000000000000000000000000000200000000002000000220000000008000400000140000000000000000000000080000000000000020000008020000000000800000000000000100000000010000000000000000040800000000000080000000000000000000000000000000100000000020000108000000022100000000000080000000000400400020440000000020000000002000000000000000080020000001000000000000000000000000020004010040000000000000000040000802000000000008080000000000040080000",
      "type": "0x2",
      "transactionHash": "0xfce4a4e4327fa36a425db5b40d8e85979081afbd65a2a1df272c35dc307f3e21",
      "transactionIndex": "0x4",
      "blockHash": "0x9a9de47a1c884c97c069a19d79d090c2138ddfda5388b33096dfda94da3437d5",
      "blockNumber": "0x1e6f9a9",
      "gasUsed": "0x8736c",
      "effectiveGasPrice": "0xf4241",
      "blobGasUsed": "0xbb80",
      "from": "0x45dce8e4f2dc005a5f28206a46cb034697eeda8e",
      "to": "0x5d8eb59a12bc98708702305a7b032f4b69dd5b5c",
      "contractAddress": null,
      "daFootprintGasScalar": "0x190",
      "l1BaseFeeScalar": "0x558",
      "l1BlobBaseFee": "0x637ed5",
      "l1BlobBaseFeeScalar": "0xc5fc5",
      "l1Fee": "0x38696f89",
      "l1GasPrice": "0x6fbab38",
      "l1GasUsed": "0x788",
      "operatorFeeConstant": "0x0",
      "operatorFeeScalar": "0x186a0"
    },
    {
      "status": "0x1",
      "cumulativeGasUsed": "0x141070",
      "logs": [
        {
          "address": "0x3ec3849c33291a9ef4c5db86de593eb4a37fde45",
          "topics": [
            "0x8c5be1e5ebec7d5bd14f71427d1e84f3dd0314c0f7b2291e5b200ac8c7c3b925",
            "0x00000000000000000000000045dce8e4f2dc005a5f28206a46cb034697eeda8e",
            "0x0000000000000000000000005d8eb59a12bc98708702305a7b032f4b69dd5b5c"
          ],
          "data": "0x000000000000000000000000000000000000000000000000000009184e72a000",
          "blockHash": "0x9a9de47a1c884c97c069a19d79d090c2138ddfda5388b33096dfda94da3437d5",
          "blockNumber": "0x1e6f9a9",
          "blockTimestamp": "0x6a0427c4",
          "transactionHash": "0x2254b53989013984dc0b0bfc441dc50c315f55344dffdf53e7ecbd1a46049df1",
          "transactionIndex": "0x5",
          "logIndex": "0x14",
          "removed": false
        }
      ],
      "logsBloom": "0x00000000000000000000000200002000000000000000000000000000000000000000000000000000000000000000000000000000000000000000000000200000000000000000000000000000000400000000000000000000000000000000000000000000000000000000000000000000000000000000000000000000000000000000000000000000000000000000000000000000000020000040000000000000020000000000000000000000000000000000000000000400000000000000000000000000000000000000000000020000001000000000000000000000000000000010000000000000000000000000800000000000000000000000000000000000",
      "type": "0x2",
      "transactionHash": "0x2254b53989013984dc0b0bfc441dc50c315f55344dffdf53e7ecbd1a46049df1",
      "transactionIndex": "0x5",
      "blockHash": "0x9a9de47a1c884c97c069a19d79d090c2138ddfda5388b33096dfda94da3437d5",
      "blockNumber": "0x1e6f9a9",
      "gasUsed": "0xd1b2",
      "effectiveGasPrice": "0xf4241",
      "blobGasUsed": "0x9c40",
      "from": "0x45dce8e4f2dc005a5f28206a46cb034697eeda8e",
      "to": "0x3ec3849c33291a9ef4c5db86de593eb4a37fde45",
      "contractAddress": null,
      "daFootprintGasScalar": "0x190",
      "l1BaseFeeScalar": "0x558",
      "l1BlobBaseFee": "0x637ed5",
      "l1BlobBaseFeeScalar": "0xc5fc5",
      "l1Fee": "0x2ecd6c0d",
      "l1GasPrice": "0x6fbab38",
      "l1GasUsed": "0x640",
      "operatorFeeConstant": "0x0",
      "operatorFeeScalar": "0x186a0"
    },
    {
      "status": "0x1",
      "cumulativeGasUsed": "0x1cb3e8",
      "logs": [
        {
          "address": "0x3ec3849c33291a9ef4c5db86de593eb4a37fde45",
          "topics": [
            "0x8c5be1e5ebec7d5bd14f71427d1e84f3dd0314c0f7b2291e5b200ac8c7c3b925",
            "0x00000000000000000000000045dce8e4f2dc005a5f28206a46cb034697eeda8e",
            "0x0000000000000000000000005d8eb59a12bc98708702305a7b032f4b69dd5b5c"
          ],
          "data": "0x0000000000000000000000000000000000000000000000000000000000000000",
          "blockHash": "0x9a9de47a1c884c97c069a19d79d090c2138ddfda5388b33096dfda94da3437d5",
          "blockNumber": "0x1e6f9a9",
          "blockTimestamp": "0x6a0427c4",
          "transactionHash": "0xae24f2bcca61aa584f27f7b5e7bbdb3bd39bc3aecb81abc24d02971a30703001",
          "transactionIndex": "0x6",
          "logIndex": "0x15",
          "removed": false
        },
        {
          "address": "0x3ec3849c33291a9ef4c5db86de593eb4a37fde45",
          "topics": [
            "0xddf252ad1be2c89b69c2b068fc378daa952ba7f163c4a11628f55a4df523b3ef",
            "0x00000000000000000000000045dce8e4f2dc005a5f28206a46cb034697eeda8e",
            "0x0000000000000000000000005d8eb59a12bc98708702305a7b032f4b69dd5b5c"
          ],
          "data": "0x000000000000000000000000000000000000000000000000000009184e72a000",
          "blockHash": "0x9a9de47a1c884c97c069a19d79d090c2138ddfda5388b33096dfda94da3437d5",
          "blockNumber": "0x1e6f9a9",
          "blockTimestamp": "0x6a0427c4",
          "transactionHash": "0xae24f2bcca61aa584f27f7b5e7bbdb3bd39bc3aecb81abc24d02971a30703001",
          "transactionIndex": "0x6",
          "logIndex": "0x16",
          "removed": false
        },
        {
          "address": "0x3ec3849c33291a9ef4c5db86de593eb4a37fde45",
          "topics": [
            "0x8c5be1e5ebec7d5bd14f71427d1e84f3dd0314c0f7b2291e5b200ac8c7c3b925",
            "0x0000000000000000000000005d8eb59a12bc98708702305a7b032f4b69dd5b5c",
            "0x0000000000000000000000003ec3849c33291a9ef4c5db86de593eb4a37fde45"
          ],
          "data": "0x000000000000000000000000000000000000000000000000000009184e72a000",
          "blockHash": "0x9a9de47a1c884c97c069a19d79d090c2138ddfda5388b33096dfda94da3437d5",
          "blockNumber": "0x1e6f9a9",
          "blockTimestamp": "0x6a0427c4",
          "transactionHash": "0xae24f2bcca61aa584f27f7b5e7bbdb3bd39bc3aecb81abc24d02971a30703001",
          "transactionIndex": "0x6",
          "logIndex": "0x17",
          "removed": false
        },
        {
          "address": "0x3ec3849c33291a9ef4c5db86de593eb4a37fde45",
          "topics": [
            "0xddf252ad1be2c89b69c2b068fc378daa952ba7f163c4a11628f55a4df523b3ef",
            "0x0000000000000000000000005d8eb59a12bc98708702305a7b032f4b69dd5b5c",
            "0x0000000000000000000000000000000000000000000000000000000000000000"
          ],
          "data": "0x000000000000000000000000000000000000000000000000000009184e72a000",
          "blockHash": "0x9a9de47a1c884c97c069a19d79d090c2138ddfda5388b33096dfda94da3437d5",
          "blockNumber": "0x1e6f9a9",
          "blockTimestamp": "0x6a0427c4",
          "transactionHash": "0xae24f2bcca61aa584f27f7b5e7bbdb3bd39bc3aecb81abc24d02971a30703001",
          "transactionIndex": "0x6",
          "logIndex": "0x18",
          "removed": false
        },
        {
          "address": "0xc39161c743d0307eb9bcc9fef03eeb9dc4802de7",
          "topics": [
            "0x61ed099e74a97a1d7f8bb0952a88ca8b7b8ebd00c126ea04671f92a81213318a"
          ],
          "data": "0x0000000000000000000000004208d6e27538189bb48e603d6123a94b8abe0a0b00000000000000000000000000000000000000000000000000000835ddec513c",
          "blockHash": "0x9a9de47a1c884c97c069a19d79d090c2138ddfda5388b33096dfda94da3437d5",
          "blockNumber": "0x1e6f9a9",
          "blockTimestamp": "0x6a0427c4",
          "transactionHash": "0xae24f2bcca61aa584f27f7b5e7bbdb3bd39bc3aecb81abc24d02971a30703001",
          "transactionIndex": "0x6",
          "logIndex": "0x19",
          "removed": false
        },
        {
          "address": "0xc39161c743d0307eb9bcc9fef03eeb9dc4802de7",
          "topics": [
            "0x07ea52d82345d6e838192107d8fd7123d9c2ec8e916cd0aad13fd2b60db24644"
          ],
          "data": "0x0000000000000000000000000000000000000000000000000000000000000060000000000000000000000000000000000000000000000000000000000000010000000000000000000000000000000000000000000000000000000000000001200000000000000000000000000000000000000000000000000000000000000004000000000000000000000000282b3386571f7f794450d5789911a9804fa346b400000000000000000000000053ff818a1c492e667e2cd0b5afe0fc82c66d33c70000000000000000000000005fa12ebc08e183c1f5d44678cf897edefe68738b000000000000000000000000acde1f22eeab249d3ca6ba8805c8fee9f52a16e700000000000000000000000000000000000000000000000000000000000000000000000000000000000000000000000000000000000000000000000000000004000000000000000000000000000000000000000000000000000001a0f2e643cf000000000000000000000000000000000000000000000000000001866a2b12c1000000000000000000000000000000000000000000000000000001a0f2e643cf000000000000000000000000000000000000000000000000000001866a2b12c1",
          "blockHash": "0x9a9de47a1c884c97c069a19d79d090c2138ddfda5388b33096dfda94da3437d5",
          "blockNumber": "0x1e6f9a9",
          "blockTimestamp": "0x6a0427c4",
          "transactionHash": "0xae24f2bcca61aa584f27f7b5e7bbdb3bd39bc3aecb81abc24d02971a30703001",
          "transactionIndex": "0x6",
          "logIndex": "0x1a",
          "removed": false
        },
        {
          "address": "0x6f475642a6e85809b1c36fa62763669b1b48dd5b",
          "topics": [
            "0x1ab700d4ced0c005b164c0f789fd09fcbb0156d4c2041b8a3bfbcd961cd1567f"
          ],
          "data": "0x00000000000000000000000000000000000000000000000000000000000000600000000000000000000000000000000000000000000000000000000000000180000000000000000000000000c39161c743d0307eb9bcc9fef03eeb9dc4802de700000000000000000000000000000000000000000000000000000000000000f9010000000000000002000076a70000000000000000000000003ec3849c33291a9ef4c5db86de593eb4a37fde450000762f000000000000000000000000999dfabe3b1cc2ef66eb032eea42fea329bba168defae4cbcd33a27b2ffaf0200c2ffed5e21fea56d7959a2838c871b4a442cdd70000000000000000000000002a2019b30c157db6c1c01306b8025167dbe1803b000000000000000a0000000000000000000000005d8eb59a12bc98708702305a7b032f4b69dd5b5c00000000000000000000000045dce8e4f2dc005a5f28206a46cb034697eeda8e000000000000000000000000000000000000000000000000000000000000769f00000000000000000000000000000000000000000000000000000000000000000000000000002c0003010011010000000000000000000000000003d090010013030000000000000000000000000000000f42400000000000000000000000000000000000000000",
          "blockHash": "0x9a9de47a1c884c97c069a19d79d090c2138ddfda5388b33096dfda94da3437d5",
          "blockNumber": "0x1e6f9a9",
          "blockTimestamp": "0x6a0427c4",
          "transactionHash": "0xae24f2bcca61aa584f27f7b5e7bbdb3bd39bc3aecb81abc24d02971a30703001",
          "transactionIndex": "0x6",
          "logIndex": "0x1b",
          "removed": false
        },
        {
          "address": "0x3ec3849c33291a9ef4c5db86de593eb4a37fde45",
          "topics": [
            "0x85496b760a4b7f8d66384b9df21b381f5d1b1e79f229a47aaf4c232edc2fe59a",
            "0xdefae4cbcd33a27b2ffaf0200c2ffed5e21fea56d7959a2838c871b4a442cdd7",
            "0x0000000000000000000000005d8eb59a12bc98708702305a7b032f4b69dd5b5c"
          ],
          "data": "0x000000000000000000000000000000000000000000000000000000000000762f000000000000000000000000000000000000000000000000000009184e72a000000000000000000000000000000000000000000000000000000009184e72a000",
          "blockHash": "0x9a9de47a1c884c97c069a19d79d090c2138ddfda5388b33096dfda94da3437d5",
          "blockNumber": "0x1e6f9a9",
          "blockTimestamp": "0x6a0427c4",
          "transactionHash": "0xae24f2bcca61aa584f27f7b5e7bbdb3bd39bc3aecb81abc24d02971a30703001",
          "transactionIndex": "0x6",
          "logIndex": "0x1c",
          "removed": false
        },
        {
          "address": "0x5d8eb59a12bc98708702305a7b032f4b69dd5b5c",
          "topics": [
            "0xbc9ee36b6ca0bdd5b3840e6d329dd19a2490d880c7ce24d9818aa593adfb35be",
            "0x00000000000000000000000045dce8e4f2dc005a5f28206a46cb034697eeda8e",
            "0x000000000000000000000000000000000000000000000000000000000000769f",
            "0x00000000000000000000000045dce8e4f2dc005a5f28206a46cb034697eeda8e"
          ],
          "data": "0x0000000000000000000000003ec3849c33291a9ef4c5db86de593eb4a37fde45000000000000000000000000000000000000000000000000000009184e72a000",
          "blockHash": "0x9a9de47a1c884c97c069a19d79d090c2138ddfda5388b33096dfda94da3437d5",
          "blockNumber": "0x1e6f9a9",
          "blockTimestamp": "0x6a0427c4",
          "transactionHash": "0xae24f2bcca61aa584f27f7b5e7bbdb3bd39bc3aecb81abc24d02971a30703001",
          "transactionIndex": "0x6",
          "logIndex": "0x1d",
          "removed": false
        }
      ],
      "logsBloom": "0x00100000000000000000000201002000000000000000000000000000000000000000000000000000000000010000000000000000000000000000000000200020000002000000220000000008000400000140000000000000000000000080000000000000020000008020000000000800000000000000100000000010000000000000000040800000000000080000002000000000000020000040004000000000020000108000000020100000400000080000000000400400020440000000000000000002000000000000000080020000001000000000000000000000000020004010040000000000000000000000802000000000008000000000000000000000",
      "type": "0x2",
      "transactionHash": "0xae24f2bcca61aa584f27f7b5e7bbdb3bd39bc3aecb81abc24d02971a30703001",
      "transactionIndex": "0x6",
      "blockHash": "0x9a9de47a1c884c97c069a19d79d090c2138ddfda5388b33096dfda94da3437d5",
      "blockNumber": "0x1e6f9a9",
      "gasUsed": "0x8a378",
      "effectiveGasPrice": "0xf4241",
      "blobGasUsed": "0xbb80",
      "from": "0x45dce8e4f2dc005a5f28206a46cb034697eeda8e",
      "to": "0x5d8eb59a12bc98708702305a7b032f4b69dd5b5c",
      "contractAddress": null,
      "daFootprintGasScalar": "0x190",
      "l1BaseFeeScalar": "0x558",
      "l1BlobBaseFee": "0x637ed5",
      "l1BlobBaseFeeScalar": "0xc5fc5",
      "l1Fee": "0x38696f89",
      "l1GasPrice": "0x6fbab38",
      "l1GasUsed": "0x788",
      "operatorFeeConstant": "0x0",
      "operatorFeeScalar": "0x186a0"
    },
    {
      "status": "0x1",
      "cumulativeGasUsed": "0x1d8584",
      "logs": [
        {
          "address": "0x64445f0aecc51e94ad52d8ac56b7190e764e561a",
          "topics": [
            "0x8c5be1e5ebec7d5bd14f71427d1e84f3dd0314c0f7b2291e5b200ac8c7c3b925",
            "0x00000000000000000000000045dce8e4f2dc005a5f28206a46cb034697eeda8e",
            "0x0000000000000000000000005d8eb59a12bc98708702305a7b032f4b69dd5b5c"
          ],
          "data": "0x000000000000000000000000000000000000000000000000000009184e72a000",
          "blockHash": "0x9a9de47a1c884c97c069a19d79d090c2138ddfda5388b33096dfda94da3437d5",
          "blockNumber": "0x1e6f9a9",
          "blockTimestamp": "0x6a0427c4",
          "transactionHash": "0x4a6ce03730a160d3daab8e91f01290b652b62554733835a02b3dcae4563d17e7",
          "transactionIndex": "0x7",
          "logIndex": "0x1e",
          "removed": false
        }
      ],
      "logsBloom": "0x00000000000000000000000200000000000000000000000000000000000000000000000000000000000000000000000000000000000000000000000000200000002000000000000000000000000400000000000000000000000000000000000000000000000000000000000000000000000000000000000000000000000000000000000000000000000000000000000000000000000000000000000000000000020000000000000000000008000000000000000000000400000000000000000000000000000000000000000000020000001000000000000000000000000000000010000000000000000000000000800000000008000000000000000000000000",
      "type": "0x2",
      "transactionHash": "0x4a6ce03730a160d3daab8e91f01290b652b62554733835a02b3dcae4563d17e7",
      "transactionIndex": "0x7",
      "blockHash": "0x9a9de47a1c884c97c069a19d79d090c2138ddfda5388b33096dfda94da3437d5",
      "blockNumber": "0x1e6f9a9",
      "gasUsed": "0xd19c",
      "effectiveGasPrice": "0xf4241",
      "blobGasUsed": "0x9c40",
      "from": "0x45dce8e4f2dc005a5f28206a46cb034697eeda8e",
      "to": "0x64445f0aecc51e94ad52d8ac56b7190e764e561a",
      "contractAddress": null,
      "daFootprintGasScalar": "0x190",
      "l1BaseFeeScalar": "0x558",
      "l1BlobBaseFee": "0x637ed5",
      "l1BlobBaseFeeScalar": "0xc5fc5",
      "l1Fee": "0x2ecd6c0d",
      "l1GasPrice": "0x6fbab38",
      "l1GasUsed": "0x640",
      "operatorFeeConstant": "0x0",
      "operatorFeeScalar": "0x186a0"
    },
    {
      "status": "0x1",
      "cumulativeGasUsed": "0x25f8da",
      "logs": [
        {
          "address": "0x64445f0aecc51e94ad52d8ac56b7190e764e561a",
          "topics": [
            "0x8c5be1e5ebec7d5bd14f71427d1e84f3dd0314c0f7b2291e5b200ac8c7c3b925",
            "0x00000000000000000000000045dce8e4f2dc005a5f28206a46cb034697eeda8e",
            "0x0000000000000000000000005d8eb59a12bc98708702305a7b032f4b69dd5b5c"
          ],
          "data": "0x0000000000000000000000000000000000000000000000000000000000000000",
          "blockHash": "0x9a9de47a1c884c97c069a19d79d090c2138ddfda5388b33096dfda94da3437d5",
          "blockNumber": "0x1e6f9a9",
          "blockTimestamp": "0x6a0427c4",
          "transactionHash": "0xd214dfc0b6ad72b5c4900b6259f0d15edc145616bc3c1151a8ccd0bcaa55eda7",
          "transactionIndex": "0x8",
          "logIndex": "0x1f",
          "removed": false
        },
        {
          "address": "0x64445f0aecc51e94ad52d8ac56b7190e764e561a",
          "topics": [
            "0xddf252ad1be2c89b69c2b068fc378daa952ba7f163c4a11628f55a4df523b3ef",
            "0x00000000000000000000000045dce8e4f2dc005a5f28206a46cb034697eeda8e",
            "0x0000000000000000000000005d8eb59a12bc98708702305a7b032f4b69dd5b5c"
          ],
          "data": "0x000000000000000000000000000000000000000000000000000009184e72a000",
          "blockHash": "0x9a9de47a1c884c97c069a19d79d090c2138ddfda5388b33096dfda94da3437d5",
          "blockNumber": "0x1e6f9a9",
          "blockTimestamp": "0x6a0427c4",
          "transactionHash": "0xd214dfc0b6ad72b5c4900b6259f0d15edc145616bc3c1151a8ccd0bcaa55eda7",
          "transactionIndex": "0x8",
          "logIndex": "0x20",
          "removed": false
        },
        {
          "address": "0x64445f0aecc51e94ad52d8ac56b7190e764e561a",
          "topics": [
            "0x8c5be1e5ebec7d5bd14f71427d1e84f3dd0314c0f7b2291e5b200ac8c7c3b925",
            "0x0000000000000000000000005d8eb59a12bc98708702305a7b032f4b69dd5b5c",
            "0x00000000000000000000000064445f0aecc51e94ad52d8ac56b7190e764e561a"
          ],
          "data": "0x000000000000000000000000000000000000000000000000000009184e72a000",
          "blockHash": "0x9a9de47a1c884c97c069a19d79d090c2138ddfda5388b33096dfda94da3437d5",
          "blockNumber": "0x1e6f9a9",
          "blockTimestamp": "0x6a0427c4",
          "transactionHash": "0xd214dfc0b6ad72b5c4900b6259f0d15edc145616bc3c1151a8ccd0bcaa55eda7",
          "transactionIndex": "0x8",
          "logIndex": "0x21",
          "removed": false
        },
        {
          "address": "0x64445f0aecc51e94ad52d8ac56b7190e764e561a",
          "topics": [
            "0xddf252ad1be2c89b69c2b068fc378daa952ba7f163c4a11628f55a4df523b3ef",
            "0x0000000000000000000000005d8eb59a12bc98708702305a7b032f4b69dd5b5c",
            "0x0000000000000000000000000000000000000000000000000000000000000000"
          ],
          "data": "0x000000000000000000000000000000000000000000000000000009184e72a000",
          "blockHash": "0x9a9de47a1c884c97c069a19d79d090c2138ddfda5388b33096dfda94da3437d5",
          "blockNumber": "0x1e6f9a9",
          "blockTimestamp": "0x6a0427c4",
          "transactionHash": "0xd214dfc0b6ad72b5c4900b6259f0d15edc145616bc3c1151a8ccd0bcaa55eda7",
          "transactionIndex": "0x8",
          "logIndex": "0x22",
          "removed": false
        },
        {
          "address": "0xc39161c743d0307eb9bcc9fef03eeb9dc4802de7",
          "topics": [
            "0x61ed099e74a97a1d7f8bb0952a88ca8b7b8ebd00c126ea04671f92a81213318a"
          ],
          "data": "0x0000000000000000000000004208d6e27538189bb48e603d6123a94b8abe0a0b00000000000000000000000000000000000000000000000000000835ddec513c",
          "blockHash": "0x9a9de47a1c884c97c069a19d79d090c2138ddfda5388b33096dfda94da3437d5",
          "blockNumber": "0x1e6f9a9",
          "blockTimestamp": "0x6a0427c4",
          "transactionHash": "0xd214dfc0b6ad72b5c4900b6259f0d15edc145616bc3c1151a8ccd0bcaa55eda7",
          "transactionIndex": "0x8",
          "logIndex": "0x23",
          "removed": false
        },
        {
          "address": "0xc39161c743d0307eb9bcc9fef03eeb9dc4802de7",
          "topics": [
            "0x07ea52d82345d6e838192107d8fd7123d9c2ec8e916cd0aad13fd2b60db24644"
          ],
          "data": "0x0000000000000000000000000000000000000000000000000000000000000060000000000000000000000000000000000000000000000000000000000000010000000000000000000000000000000000000000000000000000000000000001200000000000000000000000000000000000000000000000000000000000000004000000000000000000000000282b3386571f7f794450d5789911a9804fa346b400000000000000000000000053ff818a1c492e667e2cd0b5afe0fc82c66d33c70000000000000000000000005fa12ebc08e183c1f5d44678cf897edefe68738b000000000000000000000000acde1f22eeab249d3ca6ba8805c8fee9f52a16e700000000000000000000000000000000000000000000000000000000000000000000000000000000000000000000000000000000000000000000000000000004000000000000000000000000000000000000000000000000000001a0f2e643cf000000000000000000000000000000000000000000000000000001866a2b12c1000000000000000000000000000000000000000000000000000001a0f2e643cf000000000000000000000000000000000000000000000000000001866a2b12c1",
          "blockHash": "0x9a9de47a1c884c97c069a19d79d090c2138ddfda5388b33096dfda94da3437d5",
          "blockNumber": "0x1e6f9a9",
          "blockTimestamp": "0x6a0427c4",
          "transactionHash": "0xd214dfc0b6ad72b5c4900b6259f0d15edc145616bc3c1151a8ccd0bcaa55eda7",
          "transactionIndex": "0x8",
          "logIndex": "0x24",
          "removed": false
        },
        {
          "address": "0x6f475642a6e85809b1c36fa62763669b1b48dd5b",
          "topics": [
            "0x1ab700d4ced0c005b164c0f789fd09fcbb0156d4c2041b8a3bfbcd961cd1567f"
          ],
          "data": "0x00000000000000000000000000000000000000000000000000000000000000600000000000000000000000000000000000000000000000000000000000000180000000000000000000000000c39161c743d0307eb9bcc9fef03eeb9dc4802de700000000000000000000000000000000000000000000000000000000000000f90100000000000000bb000076a700000000000000000000000064445f0aecc51e94ad52d8ac56b7190e764e561a0000762f000000000000000000000000d86fbbd0c8715d2c1f40e451e5c3514e65e7576a5e8564f1ab49ed169f39709ecc9b81c1f234f648b42857d7f1a7aaebc673df560000000000000000000000002a2019b30c157db6c1c01306b8025167dbe1803b000000000000000a0000000000000000000000005d8eb59a12bc98708702305a7b032f4b69dd5b5c00000000000000000000000045dce8e4f2dc005a5f28206a46cb034697eeda8e000000000000000000000000000000000000000000000000000000000000769f00000000000000000000000000000000000000000000000000000000000000000000000000002c0003010011010000000000000000000000000003d090010013030000000000000000000000000000000f42400000000000000000000000000000000000000000",
          "blockHash": "0x9a9de47a1c884c97c069a19d79d090c2138ddfda5388b33096dfda94da3437d5",
          "blockNumber": "0x1e6f9a9",
          "blockTimestamp": "0x6a0427c4",
          "transactionHash": "0xd214dfc0b6ad72b5c4900b6259f0d15edc145616bc3c1151a8ccd0bcaa55eda7",
          "transactionIndex": "0x8",
          "logIndex": "0x25",
          "removed": false
        },
        {
          "address": "0x64445f0aecc51e94ad52d8ac56b7190e764e561a",
          "topics": [
            "0x85496b760a4b7f8d66384b9df21b381f5d1b1e79f229a47aaf4c232edc2fe59a",
            "0x5e8564f1ab49ed169f39709ecc9b81c1f234f648b42857d7f1a7aaebc673df56",
            "0x0000000000000000000000005d8eb59a12bc98708702305a7b032f4b69dd5b5c"
          ],
          "data": "0x000000000000000000000000000000000000000000000000000000000000762f000000000000000000000000000000000000000000000000000009184e72a000000000000000000000000000000000000000000000000000000009184e72a000",
          "blockHash": "0x9a9de47a1c884c97c069a19d79d090c2138ddfda5388b33096dfda94da3437d5",
          "blockNumber": "0x1e6f9a9",
          "blockTimestamp": "0x6a0427c4",
          "transactionHash": "0xd214dfc0b6ad72b5c4900b6259f0d15edc145616bc3c1151a8ccd0bcaa55eda7",
          "transactionIndex": "0x8",
          "logIndex": "0x26",
          "removed": false
        },
        {
          "address": "0x5d8eb59a12bc98708702305a7b032f4b69dd5b5c",
          "topics": [
            "0xbc9ee36b6ca0bdd5b3840e6d329dd19a2490d880c7ce24d9818aa593adfb35be",
            "0x00000000000000000000000045dce8e4f2dc005a5f28206a46cb034697eeda8e",
            "0x000000000000000000000000000000000000000000000000000000000000769f",
            "0x00000000000000000000000045dce8e4f2dc005a5f28206a46cb034697eeda8e"
          ],
          "data": "0x00000000000000000000000064445f0aecc51e94ad52d8ac56b7190e764e561a000000000000000000000000000000000000000000000000000009184e72a000",
          "blockHash": "0x9a9de47a1c884c97c069a19d79d090c2138ddfda5388b33096dfda94da3437d5",
          "blockNumber": "0x1e6f9a9",
          "blockTimestamp": "0x6a0427c4",
          "transactionHash": "0xd214dfc0b6ad72b5c4900b6259f0d15edc145616bc3c1151a8ccd0bcaa55eda7",
          "transactionIndex": "0x8",
          "logIndex": "0x27",
          "removed": false
        }
      ],
      "logsBloom": "0x0010000000000200000000020000000000000000000000000000000000000000100000000000000000000000000000000000000000000000000000000020000000200200000022000000000800040000014000000000000000000000008000000000000002000000802000000000080000000000000010000000001000000000000000004080000000000008000000000000000000000000000000000000000002000010800000002010000c000000080000000000400400020440000000000000000002000000000000000080020000001000000000200000000000000020004010040000000000000000000000802800000008008000000000000000000002",
      "type": "0x2",
      "transactionHash": "0xd214dfc0b6ad72b5c4900b6259f0d15edc145616bc3c1151a8ccd0bcaa55eda7",
      "transactionIndex": "0x8",
      "blockHash": "0x9a9de47a1c884c97c069a19d79d090c2138ddfda5388b33096dfda94da3437d5",
      "blockNumber": "0x1e6f9a9",
      "gasUsed": "0x87356",
      "effectiveGasPrice": "0xf4241",
      "blobGasUsed": "0xbb80",
      "from": "0x45dce8e4f2dc005a5f28206a46cb034697eeda8e",
      "to": "0x5d8eb59a12bc98708702305a7b032f4b69dd5b5c",
      "contractAddress": null,
      "daFootprintGasScalar": "0x190",
      "l1BaseFeeScalar": "0x558",
      "l1BlobBaseFee": "0x637ed5",
      "l1BlobBaseFeeScalar": "0xc5fc5",
      "l1Fee": "0x38696f89",
      "l1GasPrice": "0x6fbab38",
      "l1GasUsed": "0x788",
      "operatorFeeConstant": "0x0",
      "operatorFeeScalar": "0x186a0"
    },
    {
      "status": "0x1",
      "cumulativeGasUsed": "0x26ca8c",
      "logs": [
        {
          "address": "0x90581eca9469d8d7f5d3b60f4715027adfcf7927",
          "topics": [
            "0x8c5be1e5ebec7d5bd14f71427d1e84f3dd0314c0f7b2291e5b200ac8c7c3b925",
            "0x00000000000000000000000045dce8e4f2dc005a5f28206a46cb034697eeda8e",
            "0x0000000000000000000000005d8eb59a12bc98708702305a7b032f4b69dd5b5c"
          ],
          "data": "0x000000000000000000000000000000000000000000000000000009184e72a000",
          "blockHash": "0x9a9de47a1c884c97c069a19d79d090c2138ddfda5388b33096dfda94da3437d5",
          "blockNumber": "0x1e6f9a9",
          "blockTimestamp": "0x6a0427c4",
          "transactionHash": "0x71ce2c48b3d65590bb92786e1ce8bc33c818db2c9a1c84827272795181fdf593",
          "transactionIndex": "0x9",
          "logIndex": "0x28",
          "removed": false
        }
      ],
      "logsBloom": "0x00000000000000000000000200000000000000000000000000000000000000000000000000000000000000000000000000000000000000000000000000200000000000000000000000000000000400000000000000000000000000000000000000000000000000000000000000000000000000000000000000000000000000000000000000000004000010000000000000000000000000000000000000000000020000000000000000000000000000000000000000000400000000000000000000000000000000000000000000020000001000000000000000000000000000000010000000000000000000000000800000400000000000000000000000000000",
      "type": "0x2",
      "transactionHash": "0x71ce2c48b3d65590bb92786e1ce8bc33c818db2c9a1c84827272795181fdf593",
      "transactionIndex": "0x9",
      "blockHash": "0x9a9de47a1c884c97c069a19d79d090c2138ddfda5388b33096dfda94da3437d5",
      "blockNumber": "0x1e6f9a9",
      "gasUsed": "0xd1b2",
      "effectiveGasPrice": "0xf4241",
      "blobGasUsed": "0x9c40",
      "from": "0x45dce8e4f2dc005a5f28206a46cb034697eeda8e",
      "to": "0x90581eca9469d8d7f5d3b60f4715027adfcf7927",
      "contractAddress": null,
      "daFootprintGasScalar": "0x190",
      "l1BaseFeeScalar": "0x558",
      "l1BlobBaseFee": "0x637ed5",
      "l1BlobBaseFeeScalar": "0xc5fc5",
      "l1Fee": "0x2ecd6c0d",
      "l1GasPrice": "0x6fbab38",
      "l1GasUsed": "0x640",
      "operatorFeeConstant": "0x0",
      "operatorFeeScalar": "0x186a0"
    },
    {
      "status": "0x1",
      "cumulativeGasUsed": "0x2f6e04",
      "logs": [
        {
          "address": "0x90581eca9469d8d7f5d3b60f4715027adfcf7927",
          "topics": [
            "0x8c5be1e5ebec7d5bd14f71427d1e84f3dd0314c0f7b2291e5b200ac8c7c3b925",
            "0x00000000000000000000000045dce8e4f2dc005a5f28206a46cb034697eeda8e",
            "0x0000000000000000000000005d8eb59a12bc98708702305a7b032f4b69dd5b5c"
          ],
          "data": "0x0000000000000000000000000000000000000000000000000000000000000000",
          "blockHash": "0x9a9de47a1c884c97c069a19d79d090c2138ddfda5388b33096dfda94da3437d5",
          "blockNumber": "0x1e6f9a9",
          "blockTimestamp": "0x6a0427c4",
          "transactionHash": "0xda6a0269491df188539f4d6dfc9a15697d29da53ea2c0f7901212aa89d2095b7",
          "transactionIndex": "0xa",
          "logIndex": "0x29",
          "removed": false
        },
        {
          "address": "0x90581eca9469d8d7f5d3b60f4715027adfcf7927",
          "topics": [
            "0xddf252ad1be2c89b69c2b068fc378daa952ba7f163c4a11628f55a4df523b3ef",
            "0x00000000000000000000000045dce8e4f2dc005a5f28206a46cb034697eeda8e",
            "0x0000000000000000000000005d8eb59a12bc98708702305a7b032f4b69dd5b5c"
          ],
          "data": "0x000000000000000000000000000000000000000000000000000009184e72a000",
          "blockHash": "0x9a9de47a1c884c97c069a19d79d090c2138ddfda5388b33096dfda94da3437d5",
          "blockNumber": "0x1e6f9a9",
          "blockTimestamp": "0x6a0427c4",
          "transactionHash": "0xda6a0269491df188539f4d6dfc9a15697d29da53ea2c0f7901212aa89d2095b7",
          "transactionIndex": "0xa",
          "logIndex": "0x2a",
          "removed": false
        },
        {
          "address": "0x90581eca9469d8d7f5d3b60f4715027adfcf7927",
          "topics": [
            "0x8c5be1e5ebec7d5bd14f71427d1e84f3dd0314c0f7b2291e5b200ac8c7c3b925",
            "0x0000000000000000000000005d8eb59a12bc98708702305a7b032f4b69dd5b5c",
            "0x00000000000000000000000090581eca9469d8d7f5d3b60f4715027adfcf7927"
          ],
          "data": "0x000000000000000000000000000000000000000000000000000009184e72a000",
          "blockHash": "0x9a9de47a1c884c97c069a19d79d090c2138ddfda5388b33096dfda94da3437d5",
          "blockNumber": "0x1e6f9a9",
          "blockTimestamp": "0x6a0427c4",
          "transactionHash": "0xda6a0269491df188539f4d6dfc9a15697d29da53ea2c0f7901212aa89d2095b7",
          "transactionIndex": "0xa",
          "logIndex": "0x2b",
          "removed": false
        },
        {
          "address": "0x90581eca9469d8d7f5d3b60f4715027adfcf7927",
          "topics": [
            "0xddf252ad1be2c89b69c2b068fc378daa952ba7f163c4a11628f55a4df523b3ef",
            "0x0000000000000000000000005d8eb59a12bc98708702305a7b032f4b69dd5b5c",
            "0x0000000000000000000000000000000000000000000000000000000000000000"
          ],
          "data": "0x000000000000000000000000000000000000000000000000000009184e72a000",
          "blockHash": "0x9a9de47a1c884c97c069a19d79d090c2138ddfda5388b33096dfda94da3437d5",
          "blockNumber": "0x1e6f9a9",
          "blockTimestamp": "0x6a0427c4",
          "transactionHash": "0xda6a0269491df188539f4d6dfc9a15697d29da53ea2c0f7901212aa89d2095b7",
          "transactionIndex": "0xa",
          "logIndex": "0x2c",
          "removed": false
        },
        {
          "address": "0xc39161c743d0307eb9bcc9fef03eeb9dc4802de7",
          "topics": [
            "0x61ed099e74a97a1d7f8bb0952a88ca8b7b8ebd00c126ea04671f92a81213318a"
          ],
          "data": "0x0000000000000000000000004208d6e27538189bb48e603d6123a94b8abe0a0b00000000000000000000000000000000000000000000000000000835ddec513c",
          "blockHash": "0x9a9de47a1c884c97c069a19d79d090c2138ddfda5388b33096dfda94da3437d5",
          "blockNumber": "0x1e6f9a9",
          "blockTimestamp": "0x6a0427c4",
          "transactionHash": "0xda6a0269491df188539f4d6dfc9a15697d29da53ea2c0f7901212aa89d2095b7",
          "transactionIndex": "0xa",
          "logIndex": "0x2d",
          "removed": false
        },
        {
          "address": "0xc39161c743d0307eb9bcc9fef03eeb9dc4802de7",
          "topics": [
            "0x07ea52d82345d6e838192107d8fd7123d9c2ec8e916cd0aad13fd2b60db24644"
          ],
          "data": "0x0000000000000000000000000000000000000000000000000000000000000060000000000000000000000000000000000000000000000000000000000000010000000000000000000000000000000000000000000000000000000000000001200000000000000000000000000000000000000000000000000000000000000004000000000000000000000000282b3386571f7f794450d5789911a9804fa346b400000000000000000000000053ff818a1c492e667e2cd0b5afe0fc82c66d33c70000000000000000000000005fa12ebc08e183c1f5d44678cf897edefe68738b000000000000000000000000acde1f22eeab249d3ca6ba8805c8fee9f52a16e700000000000000000000000000000000000000000000000000000000000000000000000000000000000000000000000000000000000000000000000000000004000000000000000000000000000000000000000000000000000001a0f2e643cf000000000000000000000000000000000000000000000000000001866a2b12c1000000000000000000000000000000000000000000000000000001a0f2e643cf000000000000000000000000000000000000000000000000000001866a2b12c1",
          "blockHash": "0x9a9de47a1c884c97c069a19d79d090c2138ddfda5388b33096dfda94da3437d5",
          "blockNumber": "0x1e6f9a9",
          "blockTimestamp": "0x6a0427c4",
          "transactionHash": "0xda6a0269491df188539f4d6dfc9a15697d29da53ea2c0f7901212aa89d2095b7",
          "transactionIndex": "0xa",
          "logIndex": "0x2e",
          "removed": false
        },
        {
          "address": "0x6f475642a6e85809b1c36fa62763669b1b48dd5b",
          "topics": [
            "0x1ab700d4ced0c005b164c0f789fd09fcbb0156d4c2041b8a3bfbcd961cd1567f"
          ],
          "data": "0x00000000000000000000000000000000000000000000000000000000000000600000000000000000000000000000000000000000000000000000000000000180000000000000000000000000c39161c743d0307eb9bcc9fef03eeb9dc4802de700000000000000000000000000000000000000000000000000000000000000f9010000000000000002000076a700000000000000000000000090581eca9469d8d7f5d3b60f4715027adfcf79270000762f00000000000000000000000075c38d46001b0f8108c4136216bd2694982c20fc62541829a587a408ea959555cfe7ac8bac5bca49d604ef4a89e906716f579a720000000000000000000000002a2019b30c157db6c1c01306b8025167dbe1803b000000000000000a0000000000000000000000005d8eb59a12bc98708702305a7b032f4b69dd5b5c00000000000000000000000045dce8e4f2dc005a5f28206a46cb034697eeda8e000000000000000000000000000000000000000000000000000000000000769f00000000000000000000000000000000000000000000000000000000000000000000000000002c0003010011010000000000000000000000000003d090010013030000000000000000000000000000000f42400000000000000000000000000000000000000000",
          "blockHash": "0x9a9de47a1c884c97c069a19d79d090c2138ddfda5388b33096dfda94da3437d5",
          "blockNumber": "0x1e6f9a9",
          "blockTimestamp": "0x6a0427c4",
          "transactionHash": "0xda6a0269491df188539f4d6dfc9a15697d29da53ea2c0f7901212aa89d2095b7",
          "transactionIndex": "0xa",
          "logIndex": "0x2f",
          "removed": false
        },
        {
          "address": "0x90581eca9469d8d7f5d3b60f4715027adfcf7927",
          "topics": [
            "0x85496b760a4b7f8d66384b9df21b381f5d1b1e79f229a47aaf4c232edc2fe59a",
            "0x62541829a587a408ea959555cfe7ac8bac5bca49d604ef4a89e906716f579a72",
            "0x0000000000000000000000005d8eb59a12bc98708702305a7b032f4b69dd5b5c"
          ],
          "data": "0x000000000000000000000000000000000000000000000000000000000000762f000000000000000000000000000000000000000000000000000009184e72a000000000000000000000000000000000000000000000000000000009184e72a000",
          "blockHash": "0x9a9de47a1c884c97c069a19d79d090c2138ddfda5388b33096dfda94da3437d5",
          "blockNumber": "0x1e6f9a9",
          "blockTimestamp": "0x6a0427c4",
          "transactionHash": "0xda6a0269491df188539f4d6dfc9a15697d29da53ea2c0f7901212aa89d2095b7",
          "transactionIndex": "0xa",
          "logIndex": "0x30",
          "removed": false
        },
        {
          "address": "0x5d8eb59a12bc98708702305a7b032f4b69dd5b5c",
          "topics": [
            "0xbc9ee36b6ca0bdd5b3840e6d329dd19a2490d880c7ce24d9818aa593adfb35be",
            "0x00000000000000000000000045dce8e4f2dc005a5f28206a46cb034697eeda8e",
            "0x000000000000000000000000000000000000000000000000000000000000769f",
            "0x00000000000000000000000045dce8e4f2dc005a5f28206a46cb034697eeda8e"
          ],
          "data": "0x00000000000000000000000090581eca9469d8d7f5d3b60f4715027adfcf7927000000000000000000000000000000000000000000000000000009184e72a000",
          "blockHash": "0x9a9de47a1c884c97c069a19d79d090c2138ddfda5388b33096dfda94da3437d5",
          "blockNumber": "0x1e6f9a9",
          "blockTimestamp": "0x6a0427c4",
          "transactionHash": "0xda6a0269491df188539f4d6dfc9a15697d29da53ea2c0f7901212aa89d2095b7",
          "transactionIndex": "0xa",
          "logIndex": "0x31",
          "removed": false
        }
      ],
      "logsBloom": "0x00100000000000000000000200000000000000000000000000000000000000008000000000000000000000000000000000000000000000000000000000200000000002000000220000000008000400000140000000000000000000000080000000000000020000008020000000000800000000010000100000000010000000000000000040800004000010080008000000000400000000000000040000000000020000108000000020100000000000080000000000400400020440000000000000000002000000000000000080020100001000000000000000000000000020004010040000000000000000000000802000400000008000000000000000000000",
      "type": "0x2",
      "transactionHash": "0xda6a0269491df188539f4d6dfc9a15697d29da53ea2c0f7901212aa89d2095b7",
      "transactionIndex": "0xa",
      "blockHash": "0x9a9de47a1c884c97c069a19d79d090c2138ddfda5388b33096dfda94da3437d5",
      "blockNumber": "0x1e6f9a9",
      "gasUsed": "0x8a378",
      "effectiveGasPrice": "0xf4241",
      "blobGasUsed": "0xbb80",
      "from": "0x45dce8e4f2dc005a5f28206a46cb034697eeda8e",
      "to": "0x5d8eb59a12bc98708702305a7b032f4b69dd5b5c",
      "contractAddress": null,
      "daFootprintGasScalar": "0x190",
      "l1BaseFeeScalar": "0x558",
      "l1BlobBaseFee": "0x637ed5",
      "l1BlobBaseFeeScalar": "0xc5fc5",
      "l1Fee": "0x38696f89",
      "l1GasPrice": "0x6fbab38",
      "l1GasUsed": "0x788",
      "operatorFeeConstant": "0x0",
      "operatorFeeScalar": "0x186a0"
    }
  ],
  "libraries": [],
  "pending": [],
  "returns": {},
  "timestamp": 1778657220962,
  "chain": 747474,
  "commit": "3c1e5d2a"
}