{
  "transactions": [
    {
      "hash": "0x6b6be4632ba1cba330a735d2cfe99fbda66fa8daa40b1ac8b496e3f39fc7ac96",
      "transactionType": "CALL",
      "contractName": null,
      "contractAddress": "0x80eede496655fb9047dd39d9f418d5483ed600df",
      "function": "approve(address,uint256)",
      "arguments": [
        "0x7a07D606c87b7251c2953A30Fa445d8c5F856C7A",
        "10000000000000"
      ],
      "transaction": {
        "from": "0x45dce8e4f2dc005a5f28206a46cb034697eeda8e",
        "to": "0x80eede496655fb9047dd39d9f418d5483ed600df",
        "gas": "0x132ad",
        "value": "0x0",
        "input": "0x095ea7b30000000000000000000000007a07d606c87b7251c2953a30fa445d8c5f856c7a000000000000000000000000000000000000000000000000000009184e72a000",
        "nonce": "0xb2",
        "chainId": "0xa86a"
      },
      "additionalContracts": [],
      "isFixedGasLimit": false
    },
    {
      "hash": "0x26d8cd35e7bd6c5c6e5942619558fb492bebe3e210d0e9524b2c5a232e9737ce",
      "transactionType": "CALL",
      "contractName": null,
      "contractAddress": "0x7a07d606c87b7251c2953a30fa445d8c5f856c7a",
      "function": "sendOFT(address,uint32,bytes32,uint256)",
      "arguments": [
        "0x80Eede496655FB9047dd39d9f418d5483ED600df",
        "30362",
        "0x00000000000000000000000045dce8e4f2dc005a5f28206a46cb034697eeda8e",
        "10000000000000"
      ],
      "transaction": {
        "from": "0x45dce8e4f2dc005a5f28206a46cb034697eeda8e",
        "to": "0x7a07d606c87b7251c2953a30fa445d8c5f856c7a",
        "gas": "0xcfd21",
        "value": "0x136bfb5c0d25b6",
        "input": "0x3e832c9000000000000000000000000080eede496655fb9047dd39d9f418d5483ed600df000000000000000000000000000000000000000000000000000000000000769a00000000000000000000000045dce8e4f2dc005a5f28206a46cb034697eeda8e000000000000000000000000000000000000000000000000000009184e72a000",
        "nonce": "0xb3",
        "chainId": "0xa86a"
      },
      "additionalContracts": [],
      "isFixedGasLimit": false
    },
    {
      "hash": "0x0c0342e198a37f9aa4d56e2e286025d0743d6c2a1eb8c4dc1b3ba0767200a3ba",
      "transactionType": "CALL",
      "contractName": null,
      "contractAddress": "0x5bff88ca1442c2496f7e475e9e7786383bc070c0",
      "function": "approve(address,uint256)",
      "arguments": [
        "0x7a07D606c87b7251c2953A30Fa445d8c5F856C7A",
        "10000000000000"
      ],
      "transaction": {
        "from": "0x45dce8e4f2dc005a5f28206a46cb034697eeda8e",
        "to": "0x5bff88ca1442c2496f7e475e9e7786383bc070c0",
        "gas": "0x12184",
        "value": "0x0",
        "input": "0x095ea7b30000000000000000000000007a07d606c87b7251c2953a30fa445d8c5f856c7a000000000000000000000000000000000000000000000000000009184e72a000",
        "nonce": "0xb4",
        "chainId": "0xa86a"
      },
      "additionalContracts": [],
      "isFixedGasLimit": false
    },
    {
      "hash": "0x44694b54002e207df5a0c71524557960bd5306c00c4b646f62a73cb9bde83fd8",
      "transactionType": "CALL",
      "contractName": null,
      "contractAddress": "0x7a07d606c87b7251c2953a30fa445d8c5f856c7a",
      "function": "sendOFT(address,uint32,bytes32,uint256)",
      "arguments": [
        "0x5Bff88cA1442c2496f7E475E9e7786383Bc070c0",
        "30362",
        "0x00000000000000000000000045dce8e4f2dc005a5f28206a46cb034697eeda8e",
        "10000000000000"
      ],
      "transaction": {
        "from": "0x45dce8e4f2dc005a5f28206a46cb034697eeda8e",
        "to": "0x7a07d606c87b7251c2953a30fa445d8c5f856c7a",
        "gas": "0xd7688",
        "value": "0x136bfb5c0d25b6",
        "input": "0x3e832c900000000000000000000000005bff88ca1442c2496f7e475e9e7786383bc070c0000000000000000000000000000000000000000000000000000000000000769a00000000000000000000000045dce8e4f2dc005a5f28206a46cb034697eeda8e000000000000000000000000000000000000000000000000000009184e72a000",
        "nonce": "0xb5",
        "chainId": "0xa86a"
      },
      "additionalContracts": [],
      "isFixedGasLimit": false
    },
    {
      "hash": "0xef8d5cc9a5619ce47cd311ec19928ede8d937637759ef3ec842e3d56e61a5fc7",
      "transactionType": "CALL",
      "contractName": null,
      "contractAddress": "0x43edd7f3831b08fe70b7555ddd373c8bf65a9050",
      "function": "approve(address,uint256)",
      "arguments": [
        "0x7a07D606c87b7251c2953A30Fa445d8c5F856C7A",
        "10000000000000"
      ],
      "transaction": {
        "from": "0x45dce8e4f2dc005a5f28206a46cb034697eeda8e",
        "to": "0x43edd7f3831b08fe70b7555ddd373c8bf65a9050",
        "gas": "0x132ad",
        "value": "0x0",
        "input": "0x095ea7b30000000000000000000000007a07d606c87b7251c2953a30fa445d8c5f856c7a000000000000000000000000000000000000000000000000000009184e72a000",
        "nonce": "0xb6",
        "chainId": "0xa86a"
      },
      "additionalContracts": [],
      "isFixedGasLimit": false
    },
    {
      "hash": "0x720d651127806b456ae22c2d7b5b1b538b0643873e768a1b5a78f21de1736425",
      "transactionType": "CALL",
      "contractName": null,
      "contractAddress": "0x7a07d606c87b7251c2953a30fa445d8c5f856c7a",
      "function": "sendOFT(address,uint32,bytes32,uint256)",
      "arguments": [
        "0x43eDD7f3831b08FE70B7555ddD373C8bF65a9050",
        "30362",
        "0x00000000000000000000000045dce8e4f2dc005a5f28206a46cb034697eeda8e",
        "10000000000000"
      ],
      "transaction": {
        "from": "0x45dce8e4f2dc005a5f28206a46cb034697eeda8e",
        "to": "0x7a07d606c87b7251c2953a30fa445d8c5f856c7a",
        "gas": "0xd1370",
        "value": "0x136bfb5c0d25b6",
        "input": "0x3e832c9000000000000000000000000043edd7f3831b08fe70b7555ddd373c8bf65a9050000000000000000000000000000000000000000000000000000000000000769a00000000000000000000000045dce8e4f2dc005a5f28206a46cb034697eeda8e000000000000000000000000000000000000000000000000000009184e72a000",
        "nonce": "0xb7",
        "chainId": "0xa86a"
      },
      "additionalContracts": [],
      "isFixedGasLimit": false
    },
    {
      "hash": "0x755a1a878b57183989e5ff9e523ecc2d234bb31629d21e7b979135be4361fe42",
      "transactionType": "CALL",
      "contractName": null,
      "contractAddress": "0x3ec3849c33291a9ef4c5db86de593eb4a37fde45",
      "function": "approve(address,uint256)",
      "arguments": [
        "0x7a07D606c87b7251c2953A30Fa445d8c5F856C7A",
        "10000000000000"
      ],
      "transaction": {
        "from": "0x45dce8e4f2dc005a5f28206a46cb034697eeda8e",
        "to": "0x3ec3849c33291a9ef4c5db86de593eb4a37fde45",
        "gas": "0x132ad",
        "value": "0x0",
        "input": "0x095ea7b30000000000000000000000007a07d606c87b7251c2953a30fa445d8c5f856c7a000000000000000000000000000000000000000000000000000009184e72a000",
        "nonce": "0xb8",
        "chainId": "0xa86a"
      },
      "additionalContracts": [],
      "isFixedGasLimit": false
    },
    {
      "hash": "0x9b13061edd651fb47d284770069b672b5370023d091362f75181c4624151ab6e",
      "transactionType": "CALL",
      "contractName": null,
      "contractAddress": "0x7a07d606c87b7251c2953a30fa445d8c5f856c7a",
      "function": "sendOFT(address,uint32,bytes32,uint256)",
      "arguments": [
        "0x3Ec3849C33291a9eF4c5dB86De593EB4A37fDe45",
        "30362",
        "0x00000000000000000000000045dce8e4f2dc005a5f28206a46cb034697eeda8e",
        "10000000000000"
      ],
      "transaction": {
        "from": "0x45dce8e4f2dc005a5f28206a46cb034697eeda8e",
        "to": "0x7a07d606c87b7251c2953a30fa445d8c5f856c7a",
        "gas": "0xe3a0a",
        "value": "0x136bfb5c0d25b6",
        "input": "0x3e832c900000000000000000000000003ec3849c33291a9ef4c5db86de593eb4a37fde45000000000000000000000000000000000000000000000000000000000000769a00000000000000000000000045dce8e4f2dc005a5f28206a46cb034697eeda8e000000000000000000000000000000000000000000000000000009184e72a000",
        "nonce": "0xb9",
        "chainId": "0xa86a"
      },
      "additionalContracts": [],
      "isFixedGasLimit": false
    },
    {
      "hash": "0x6fdaed788d52e8a77bf3cf02a7958a1c23ea074f273f67bb74ff49e7157bd0ce",
      "transactionType": "CALL",
      "contractName": null,
      "contractAddress": "0x64445f0aecc51e94ad52d8ac56b7190e764e561a",
      "function": "approve(address,uint256)",
      "arguments": [
        "0x7a07D606c87b7251c2953A30Fa445d8c5F856C7A",
        "10000000000000"
      ],
      "transaction": {
        "from": "0x45dce8e4f2dc005a5f28206a46cb034697eeda8e",
        "to": "0x64445f0aecc51e94ad52d8ac56b7190e764e561a",
        "gas": "0x12184",
        "value": "0x0",
        "input": "0x095ea7b30000000000000000000000007a07d606c87b7251c2953a30fa445d8c5f856c7a000000000000000000000000000000000000000000000000000009184e72a000",
        "nonce": "0xba",
        "chainId": "0xa86a"
      },
      "additionalContracts": [],
      "isFixedGasLimit": false
    },
    {
      "hash": "0x25dbae7a2974cea07920134e155e564872da67879999f55cb74930cc3ecfe31b",
      "transactionType": "CALL",
      "contractName": null,
      "contractAddress": "0x7a07d606c87b7251c2953a30fa445d8c5f856c7a",
      "function": "sendOFT(address,uint32,bytes32,uint256)",
      "arguments": [
        "0x64445f0aecC51E94aD52d8AC56b7190e764E561a",
        "30362",
        "0x00000000000000000000000045dce8e4f2dc005a5f28206a46cb034697eeda8e",
        "10000000000000"
      ],
      "transaction": {
        "from": "0x45dce8e4f2dc005a5f28206a46cb034697eeda8e",
        "to": "0x7a07d606c87b7251c2953a30fa445d8c5f856c7a",
        "gas": "0xd7688",
        "value": "0x136bfb5c0d25b6",
        "input": "0x3e832c9000000000000000000000000064445f0aecc51e94ad52d8ac56b7190e764e561a000000000000000000000000000000000000000000000000000000000000769a00000000000000000000000045dce8e4f2dc005a5f28206a46cb034697eeda8e000000000000000000000000000000000000000000000000000009184e72a000",
        "nonce": "0xbb",
        "chainId": "0xa86a"
      },
      "additionalContracts": [],
      "isFixedGasLimit": false
    },
    {
      "hash": "0x37c988c88c0e106833e015fb4ee81efa0dd63a338c272e07117e7fe91424d03e",
      "transactionType": "CALL",
      "contractName": null,
      "contractAddress": "0x90581eca9469d8d7f5d3b60f4715027adfcf7927",
      "function": "approve(address,uint256)",
      "arguments": [
        "0x7a07D606c87b7251c2953A30Fa445d8c5F856C7A",
        "10000000000000"
      ],
      "transaction": {
        "from": "0x45dce8e4f2dc005a5f28206a46cb034697eeda8e",
        "to": "0x90581eca9469d8d7f5d3b60f4715027adfcf7927",
        "gas": "0x132ad",
        "value": "0x0",
        "input": "0x095ea7b30000000000000000000000007a07d606c87b7251c2953a30fa445d8c5f856c7a000000000000000000000000000000000000000000000000000009184e72a000",
        "nonce": "0xbc",
        "chainId": "0xa86a"
      },
      "additionalContracts": [],
      "isFixedGasLimit": false
    },
    {
      "hash": "0x787d125aa9496717e608636fd376be597b9481ced023ea54f2753549eb907e69",
      "transactionType": "CALL",
      "contractName": null,
      "contractAddress": "0x7a07d606c87b7251c2953a30fa445d8c5f856c7a",
      "function": "sendOFT(address,uint32,bytes32,uint256)",
      "arguments": [
        "0x90581eCa9469D8D7F5D3B60f4715027aDFCf7927",
        "30362",
        "0x00000000000000000000000045dce8e4f2dc005a5f28206a46cb034697eeda8e",
        "10000000000000"
      ],
      "transaction": {
        "from": "0x45dce8e4f2dc005a5f28206a46cb034697eeda8e",
        "to": "0x7a07d606c87b7251c2953a30fa445d8c5f856c7a",
        "gas": "0xe3a0a",
        "value": "0x136bfb5c0d25b6",
        "input": "0x3e832c9000000000000000000000000090581eca9469d8d7f5d3b60f4715027adfcf7927000000000000000000000000000000000000000000000000000000000000769a00000000000000000000000045dce8e4f2dc005a5f28206a46cb034697eeda8e000000000000000000000000000000000000000000000000000009184e72a000",
        "nonce": "0xbd",
        "chainId": "0xa86a"
      },
      "additionalContracts": [],
      "isFixedGasLimit": false
    }
  ],
  "receipts": [
    {
      "status": "0x1",
      "cumulativeGasUsed": "0x1bfc33",
      "logs": [
        {
          "address": "0x80eede496655fb9047dd39d9f418d5483ed600df",
          "topics": [
            "0x8c5be1e5ebec7d5bd14f71427d1e84f3dd0314c0f7b2291e5b200ac8c7c3b925",
            "0x00000000000000000000000045dce8e4f2dc005a5f28206a46cb034697eeda8e",
            "0x0000000000000000000000007a07d606c87b7251c2953a30fa445d8c5f856c7a"
          ],
          "data": "0x000000000000000000000000000000000000000000000000000009184e72a000",
          "blockHash": "0xa37d173a4c7f544042b58f998b8f9241a09d38181fadd2b17d4d9a7dc39d6587",
          "blockNumber": "0x515a07c",
          "transactionHash": "0x26d8cd35e7bd6c5c6e5942619558fb492bebe3e210d0e9524b2c5a232e9737ce",
          "transactionIndex": "0x14",
          "logIndex": "0xf",
          "removed": false
        }
      ],
      "logsBloom": "0x00000000002000000000002200000000000000000000000000000000000000000000000000000000000000000800000000000000000000000000000200200000000000000000000000000000000000000000000000000000000000000000000000000000000000000000000000000000000000000000000000000000010000000000000000000000000000000000000000000000000000000000000000000000020010000000000000000000000000000000000000000000000000000000000000000000000000000000000000000000001000000000000000000000000000000010000000000000000000000000800000000000000000000000000000000000",
      "type": "0x2",
      "transactionHash": "0x26d8cd35e7bd6c5c6e5942619558fb492bebe3e210d0e9524b2c5a232e9737ce",
      "transactionIndex": "0x14",
      "blockHash": "0xa37d173a4c7f544042b58f998b8f9241a09d38181fadd2b17d4d9a7dc39d6587",
      "blockNumber": "0x515a07c",
      "gasUsed": "0xd1b2",
      "effectiveGasPrice": "0x75fedc",
      "from": "0x45dce8e4f2dc005a5f28206a46cb034697eeda8e",
      "to": "0x80eede496655fb9047dd39d9f418d5483ed600df",
      "contractAddress": null
    },
    {
      "status": "0x1",
      "cumulativeGasUsed": "0x25e1b5",
      "logs": [
        {
          "address": "0x80eede496655fb9047dd39d9f418d5483ed600df",
          "topics": [
            "0x8c5be1e5ebec7d5bd14f71427d1e84f3dd0314c0f7b2291e5b200ac8c7c3b925",
            "0x00000000000000000000000045dce8e4f2dc005a5f28206a46cb034697eeda8e",
            "0x0000000000000000000000007a07d606c87b7251c2953a30fa445d8c5f856c7a"
          ],
          "data": "0x0000000000000000000000000000000000000000000000000000000000000000",
          "blockHash": "0xa37d173a4c7f544042b58f998b8f9241a09d38181fadd2b17d4d9a7dc39d6587",
          "blockNumber": "0x515a07c",
          "transactionHash": "0x0c0342e198a37f9aa4d56e2e286025d0743d6c2a1eb8c4dc1b3ba0767200a3ba",
          "transactionIndex": "0x15",
          "logIndex": "0x10",
          "removed": false
        },
        {
          "address": "0x80eede496655fb9047dd39d9f418d5483ed600df",
          "topics": [
            "0xddf252ad1be2c89b69c2b068fc378daa952ba7f163c4a11628f55a4df523b3ef",
            "0x00000000000000000000000045dce8e4f2dc005a5f28206a46cb034697eeda8e",
            "0x0000000000000000000000007a07d606c87b7251c2953a30fa445d8c5f856c7a"
          ],
          "data": "0x000000000000000000000000000000000000000000000000000009184e72a000",
          "blockHash": "0xa37d173a4c7f544042b58f998b8f9241a09d38181fadd2b17d4d9a7dc39d6587",
          "blockNumber": "0x515a07c",
          "transactionHash": "0x0c0342e198a37f9aa4d56e2e286025d0743d6c2a1eb8c4dc1b3ba0767200a3ba",
          "transactionIndex": "0x15",
          "logIndex": "0x11",
          "removed": false
        },
        {
          "address": "0x80eede496655fb9047dd39d9f418d5483ed600df",
          "topics": [
            "0x8c5be1e5ebec7d5bd14f71427d1e84f3dd0314c0f7b2291e5b200ac8c7c3b925",
            "0x0000000000000000000000007a07d606c87b7251c2953a30fa445d8c5f856c7a",
            "0x00000000000000000000000080eede496655fb9047dd39d9f418d5483ed600df"
          ],
          "data": "0x000000000000000000000000000000000000000000000000000009184e72a000",
          "blockHash": "0xa37d173a4c7f544042b58f998b8f9241a09d38181fadd2b17d4d9a7dc39d6587",
          "blockNumber": "0x515a07c",
          "transactionHash": "0x0c0342e198a37f9aa4d56e2e286025d0743d6c2a1eb8c4dc1b3ba0767200a3ba",
          "transactionIndex": "0x15",
          "logIndex": "0x12",
          "removed": false
        },
        {
          "address": "0x80eede496655fb9047dd39d9f418d5483ed600df",
          "topics": [
            "0xddf252ad1be2c89b69c2b068fc378daa952ba7f163c4a11628f55a4df523b3ef",
            "0x0000000000000000000000007a07d606c87b7251c2953a30fa445d8c5f856c7a",
            "0x0000000000000000000000000000000000000000000000000000000000000000"
          ],
          "data": "0x000000000000000000000000000000000000000000000000000009184e72a000",
          "blockHash": "0xa37d173a4c7f544042b58f998b8f9241a09d38181fadd2b17d4d9a7dc39d6587",
          "blockNumber": "0x515a07c",
          "transactionHash": "0x0c0342e198a37f9aa4d56e2e286025d0743d6c2a1eb8c4dc1b3ba0767200a3ba",
          "transactionIndex": "0x15",
          "logIndex": "0x13",
          "removed": false
        },
        {
          "address": "0x197d1333dea5fe0d6600e9b396c7f1b1cfcc558a",
          "topics": [
            "0x61ed099e74a97a1d7f8bb0952a88ca8b7b8ebd00c126ea04671f92a81213318a"
          ],
          "data": "0x00000000000000000000000090e595783e43eb89ff07f63d27b8430e6b44bd9c00000000000000000000000000000000000000000000000000078e1982ca438b",
          "blockHash": "0xa37d173a4c7f544042b58f998b8f9241a09d38181fadd2b17d4d9a7dc39d6587",
          "blockNumber": "0x515a07c",
          "transactionHash": "0x0c0342e198a37f9aa4d56e2e286025d0743d6c2a1eb8c4dc1b3ba0767200a3ba",
          "transactionIndex": "0x15",
          "logIndex": "0x14",
          "removed": false
        },
        {
          "address": "0x197d1333dea5fe0d6600e9b396c7f1b1cfcc558a",
          "topics": [
            "0x07ea52d82345d6e838192107d8fd7123d9c2ec8e916cd0aad13fd2b60db24644"
          ],
          "data": "0x000000000000000000000000000000000000000000000000000000000000006000000000000000000000000000000000000000000000000000000000000001200000000000000000000000000000000000000000000000000000000000000140000000000000000000000000000000000000000000000000000000000000000500000000000000000000000007c05eab7716acb6f83ebf6268f8eecda8892ba1000000000000000000000000962f502a63f5fbeb44dc9ab932122648e8352959000000000000000000000000a59ba433ac34d2927232918ef5b2eaafcf130ba5000000000000000000000000cc49e6fca014c77e1eb604351cc1e08c84511760000000000000000000000000fe4c37cd401f58ee0bf4d214447bf306c2bbd41b000000000000000000000000000000000000000000000000000000000000000000000000000000000000000000000000000000000000000000000000000000050000000000000000000000000000000000000000000000000000dd910b627c770000000000000000000000000000000000000000000000000000dd910b627c770000000000000000000000000000000000000000000000000000cb6d0351a19500000000000000000000000000000000000000000000000000010aeb1f8c9fac00000000000000000000000000000000000000000000000000011d0f279d7a8e",
          "blockHash": "0xa37d173a4c7f544042b58f998b8f9241a09d38181fadd2b17d4d9a7dc39d6587",
          "blockNumber": "0x515a07c",
          "transactionHash": "0x0c0342e198a37f9aa4d56e2e286025d0743d6c2a1eb8c4dc1b3ba0767200a3ba",
          "transactionIndex": "0x15",
          "logIndex": "0x15",
          "removed": false
        },
        {
          "address": "0x1a44076050125825900e736c501f859c50fe728c",
          "topics": [
            "0x1ab700d4ced0c005b164c0f789fd09fcbb0156d4c2041b8a3bfbcd961cd1567f"
          ],
          "data": "0x00000000000000000000000000000000000000000000000000000000000000600000000000000000000000000000000000000000000000000000000000000180000000000000000000000000197d1333dea5fe0d6600e9b396c7f1b1cfcc558a00000000000000000000000000000000000000000000000000000000000000f901000000000000004a0000759a00000000000000000000000080eede496655fb9047dd39d9f418d5483ed600df0000762f00000000000000000000000096a394058e2b84a89bac9667b19661ed003cf5d4dd0b89c5ad7352ee06ee0e9cadf008cf74e38069afe0f4dcd22c579cac6d91cb0000000000000000000000002a2019b30c157db6c1c01306b8025167dbe1803b000000000000000a0000000000000000000000007a07d606c87b7251c2953a30fa445d8c5f856c7a00000000000000000000000045dce8e4f2dc005a5f28206a46cb034697eeda8e000000000000000000000000000000000000000000000000000000000000769a00000000000000000000000000000000000000000000000000000000000000000000000000002c0003010011010000000000000000000000000003d090010013030000000000000000000000000000000f42400000000000000000000000000000000000000000",
          "blockHash": "0xa37d173a4c7f544042b58f998b8f9241a09d38181fadd2b17d4d9a7dc39d6587",
          "blockNumber": "0x515a07c",
          "transactionHash": "0x0c0342e198a37f9aa4d56e2e286025d0743d6c2a1eb8c4dc1b3ba0767200a3ba",
          "transactionIndex": "0x15",
          "logIndex": "0x16",
          "removed": false
        },
        {
          "address": "0x80eede496655fb9047dd39d9f418d5483ed600df",
          "topics": [
            "0x85496b760a4b7f8d66384b9df21b381f5d1b1e79f229a47aaf4c232edc2fe59a",
            "0xdd0b89c5ad7352ee06ee0e9cadf008cf74e38069afe0f4dcd22c579cac6d91cb",
            "0x0000000000000000000000007a07d606c87b7251c2953a30fa445d8c5f856c7a"
          ],
          "data": "0x000000000000000000000000000000000000000000000000000000000000762f000000000000000000000000000000000000000000000000000009184e72a000000000000000000000000000000000000000000000000000000009184e72a000",
          "blockHash": "0xa37d173a4c7f544042b58f998b8f9241a09d38181fadd2b17d4d9a7dc39d6587",
          "blockNumber": "0x515a07c",
          "transactionHash": "0x0c0342e198a37f9aa4d56e2e286025d0743d6c2a1eb8c4dc1b3ba0767200a3ba",
          "transactionIndex": "0x15",
          "logIndex": "0x17",
          "removed": false
        },
        {
          "address": "0x7a07d606c87b7251c2953a30fa445d8c5f856c7a",
          "topics": [
            "0xbc9ee36b6ca0bdd5b3840e6d329dd19a2490d880c7ce24d9818aa593adfb35be",
            "0x00000000000000000000000045dce8e4f2dc005a5f28206a46cb034697eeda8e",
            "0x000000000000000000000000000000000000000000000000000000000000769a",
            "0x00000000000000000000000045dce8e4f2dc005a5f28206a46cb034697eeda8e"
          ],
          "data": "0x00000000000000000000000080eede496655fb9047dd39d9f418d5483ed600df000000000000000000000000000000000000000000000000000009184e72a000",
          "blockHash": "0xa37d173a4c7f544042b58f998b8f9241a09d38181fadd2b17d4d9a7dc39d6587",
          "blockNumber": "0x515a07c",
          "transactionHash": "0x0c0342e198a37f9aa4d56e2e286025d0743d6c2a1eb8c4dc1b3ba0767200a3ba",
          "transactionIndex": "0x15",
          "logIndex": "0x18",
          "removed": false
        }
      ],
      "logsBloom": "0x00000000002000000000002200000000000000000000000000000000001000000000080000000400000000000800000000000000100000002000000200280000000002000000000000000008000000000000000000000000000004000008008000000000020000008000000000000800000000000010100002000010010000000000020000000000000000080000000000000000000000000000000000000000020011108000000020100000000000000000002000400000000440000000000000000002000008000000000080000000001002000000000000000000000020000010040020000000000000000000802000000000018000000000000000000000",
      "type": "0x2",
      "transactionHash": "0x0c0342e198a37f9aa4d56e2e286025d0743d6c2a1eb8c4dc1b3ba0767200a3ba",
      "transactionIndex": "0x15",
      "blockHash": "0xa37d173a4c7f544042b58f998b8f9241a09d38181fadd2b17d4d9a7dc39d6587",
      "blockNumber": "0x515a07c",
      "gasUsed": "0x9e582",
      "effectiveGasPrice": "0x75fedc",
      "from": "0x45dce8e4f2dc005a5f28206a46cb034697eeda8e",
      "to": "0x7a07d606c87b7251c2953a30fa445d8c5f856c7a",
      "contractAddress": null
    },
    {
      "status": "0x1",
      "cumulativeGasUsed": "0x26b351",
      "logs": [
        {
          "address": "0x5bff88ca1442c2496f7e475e9e7786383bc070c0",
          "topics": [
            "0x8c5be1e5ebec7d5bd14f71427d1e84f3dd0314c0f7b2291e5b200ac8c7c3b925",
            "0x00000000000000000000000045dce8e4f2dc005a5f28206a46cb034697eeda8e",
            "0x0000000000000000000000007a07d606c87b7251c2953a30fa445d8c5f856c7a"
          ],
          "data": "0x000000000000000000000000000000000000000000000000000009184e72a000",
          "blockHash": "0xa37d173a4c7f544042b58f998b8f9241a09d38181fadd2b17d4d9a7dc39d6587",
          "blockNumber": "0x515a07c",
          "transactionHash": "0x37c988c88c0e106833e015fb4ee81efa0dd63a338c272e07117e7fe91424d03e",
          "transactionIndex": "0x16",
          "logIndex": "0x19",
          "removed": false
        }
      ],
      "logsBloom": "0x00000000002000000000002200000000000000000000000000000000000000000000000000000000000000000000000000000000000000000000000000200000000000000000000000000000000000000000000000000000000000000000000000000000000000000000000000000000000000000000000000000000000000000000000000000000000000000000000000000000000000000000000000000000020010000000000000000000000000000000000000000000000000000010000000000000000000000000000000000000001000800000000000000000000000000010000000000000000000000000800000000000000000000000000000000800",
      "type": "0x2",
      "transactionHash": "0x37c988c88c0e106833e015fb4ee81efa0dd63a338c272e07117e7fe91424d03e",
      "transactionIndex": "0x16",
      "blockHash": "0xa37d173a4c7f544042b58f998b8f9241a09d38181fadd2b17d4d9a7dc39d6587",
      "blockNumber": "0x515a07c",
      "gasUsed": "0xd19c",
      "effectiveGasPrice": "0x75fedc",
      "from": "0x45dce8e4f2dc005a5f28206a46cb034697eeda8e",
      "to": "0x5bff88ca1442c2496f7e475e9e7786383bc070c0",
      "contractAddress": null
    },
    {
      "status": "0x1",
      "cumulativeGasUsed": "0x306618",
      "logs": [
        {
          "address": "0x5bff88ca1442c2496f7e475e9e7786383bc070c0",
          "topics": [
            "0x8c5be1e5ebec7d5bd14f71427d1e84f3dd0314c0f7b2291e5b200ac8c7c3b925",
            "0x00000000000000000000000045dce8e4f2dc005a5f28206a46cb034697eeda8e",
            "0x0000000000000000000000007a07d606c87b7251c2953a30fa445d8c5f856c7a"
          ],
          "data": "0x0000000000000000000000000000000000000000000000000000000000000000",
          "blockHash": "0xa37d173a4c7f544042b58f998b8f9241a09d38181fadd2b17d4d9a7dc39d6587",
          "blockNumber": "0x515a07c",
          "transactionHash": "0x6b6be4632ba1cba330a735d2cfe99fbda66fa8daa40b1ac8b496e3f39fc7ac96",
          "transactionIndex": "0x17",
          "logIndex": "0x1a",
          "removed": false
        },
        {
          "address": "0x5bff88ca1442c2496f7e475e9e7786383bc070c0",
          "topics": [
            "0xddf252ad1be2c89b69c2b068fc378daa952ba7f163c4a11628f55a4df523b3ef",
            "0x00000000000000000000000045dce8e4f2dc005a5f28206a46cb034697eeda8e",
            "0x0000000000000000000000007a07d606c87b7251c2953a30fa445d8c5f856c7a"
          ],
          "data": "0x000000000000000000000000000000000000000000000000000009184e72a000",
          "blockHash": "0xa37d173a4c7f544042b58f998b8f9241a09d38181fadd2b17d4d9a7dc39d6587",
          "blockNumber": "0x515a07c",
          "transactionHash": "0x6b6be4632ba1cba330a735d2cfe99fbda66fa8daa40b1ac8b496e3f39fc7ac96",
          "transactionIndex": "0x17",
          "logIndex": "0x1b",
          "removed": false
        },
        {
          "address": "0x5bff88ca1442c2496f7e475e9e7786383bc070c0",
          "topics": [
            "0x8c5be1e5ebec7d5bd14f71427d1e84f3dd0314c0f7b2291e5b200ac8c7c3b925",
            "0x0000000000000000000000007a07d606c87b7251c2953a30fa445d8c5f856c7a",
            "0x0000000000000000000000005bff88ca1442c2496f7e475e9e7786383bc070c0"
          ],
          "data": "0x000000000000000000000000000000000000000000000000000009184e72a000",
          "blockHash": "0xa37d173a4c7f544042b58f998b8f9241a09d38181fadd2b17d4d9a7dc39d6587",
          "blockNumber": "0x515a07c",
          "transactionHash": "0x6b6be4632ba1cba330a735d2cfe99fbda66fa8daa40b1ac8b496e3f39fc7ac96",
          "transactionIndex": "0x17",
          "logIndex": "0x1c",
          "removed": false
        },
        {
          "address": "0x5bff88ca1442c2496f7e475e9e7786383bc070c0",
          "topics": [
            "0xddf252ad1be2c89b69c2b068fc378daa952ba7f163c4a11628f55a4df523b3ef",
            "0x0000000000000000000000007a07d606c87b7251c2953a30fa445d8c5f856c7a",
            "0x0000000000000000000000000000000000000000000000000000000000000000"
          ],
          "data": "0x000000000000000000000000000000000000000000000000000009184e72a000",
          "blockHash": "0xa37d173a4c7f544042b58f998b8f9241a09d38181fadd2b17d4d9a7dc39d6587",
          "blockNumber": "0x515a07c",
          "transactionHash": "0x6b6be4632ba1cba330a735d2cfe99fbda66fa8daa40b1ac8b496e3f39fc7ac96",
          "transactionIndex": "0x17",
          "logIndex": "0x1d",
          "removed": false
        },
        {
          "address": "0x197d1333dea5fe0d6600e9b396c7f1b1cfcc558a",
          "topics": [
            "0x61ed099e74a97a1d7f8bb0952a88ca8b7b8ebd00c126ea04671f92a81213318a"
          ],
          "data": "0x00000000000000000000000090e595783e43eb89ff07f63d27b8430e6b44bd9c00000000000000000000000000000000000000000000000000078e1982ca438b",
          "blockHash": "0xa37d173a4c7f544042b58f998b8f9241a09d38181fadd2b17d4d9a7dc39d6587",
          "blockNumber": "0x515a07c",
          "transactionHash": "0x6b6be4632ba1cba330a735d2cfe99fbda66fa8daa40b1ac8b496e3f39fc7ac96",
          "transactionIndex": "0x17",
          "logIndex": "0x1e",
          "removed": false
        },
        {
          "address": "0x197d1333dea5fe0d6600e9b396c7f1b1cfcc558a",
          "topics": [
            "0x07ea52d82345d6e838192107d8fd7123d9c2ec8e916cd0aad13fd2b60db24644"
          ],
          "data": "0x000000000000000000000000000000000000000000000000000000000000006000000000000000000000000000000000000000000000000000000000000001200000000000000000000000000000000000000000000000000000000000000140000000000000000000000000000000000000000000000000000000000000000500000000000000000000000007c05eab7716acb6f83ebf6268f8eecda8892ba1000000000000000000000000962f502a63f5fbeb44dc9ab932122648e8352959000000000000000000000000a59ba433ac34d2927232918ef5b2eaafcf130ba5000000000000000000000000cc49e6fca014c77e1eb604351cc1e08c84511760000000000000000000000000fe4c37cd401f58ee0bf4d214447bf306c2bbd41b000000000000000000000000000000000000000000000000000000000000000000000000000000000000000000000000000000000000000000000000000000050000000000000000000000000000000000000000000000000000dd910b627c770000000000000000000000000000000000000000000000000000dd910b627c770000000000000000000000000000000000000000000000000000cb6d0351a19500000000000000000000000000000000000000000000000000010aeb1f8c9fac00000000000000000000000000000000000000000000000000011d0f279d7a8e",
          "blockHash": "0xa37d173a4c7f544042b58f998b8f9241a09d38181fadd2b17d4d9a7dc39d6587",
          "blockNumber": "0x515a07c",
          "transactionHash": "0x6b6be4632ba1cba330a735d2cfe99fbda66fa8daa40b1ac8b496e3f39fc7ac96",
          "transactionIndex": "0x17",
          "logIndex": "0x1f",
          "removed": false
        },
        {
          "address": "0x1a44076050125825900e736c501f859c50fe728c",
          "topics": [
            "0x1ab700d4ced0c005b164c0f789fd09fcbb0156d4c2041b8a3bfbcd961cd1567f"
          ],
          "data": "0x00000000000000000000000000000000000000000000000000000000000000600000000000000000000000000000000000000000000000000000000000000180000000000000000000000000197d1333dea5fe0d6600e9b396c7f1b1cfcc558a00000000000000000000000000000000000000000000000000000000000000f90100000000000000020000759a0000000000000000000000005bff88ca1442c2496f7e475e9e7786383bc070c00000762f00000000000000000000000088aa7854d3b2daa5e37e7ce73a1f39669623a36159936e5067d0b78d06423b37201026dd946ab1de49cd3b2e38a56882f33838270000000000000000000000002a2019b30c157db6c1c01306b8025167dbe1803b000000000000000a0000000000000000000000007a07d606c87b7251c2953a30fa445d8c5f856c7a00000000000000000000000045dce8e4f2dc005a5f28206a46cb034697eeda8e000000000000000000000000000000000000000000000000000000000000769a00000000000000000000000000000000000000000000000000000000000000000000000000002c0003010011010000000000000000000000000003d090010013030000000000000000000000000000000f42400000000000000000000000000000000000000000",
          "blockHash": "0xa37d173a4c7f544042b58f998b8f9241a09d38181fadd2b17d4d9a7dc39d6587",
          "blockNumber": "0x515a07c",
          "transactionHash": "0x6b6be4632ba1cba330a735d2cfe99fbda66fa8daa40b1ac8b496e3f39fc7ac96",
          "transactionIndex": "0x17",
          "logIndex": "0x20",
          "removed": false
        },
        {
          "address": "0x5bff88ca1442c2496f7e475e9e7786383bc070c0",
          "topics": [
            "0x85496b760a4b7f8d66384b9df21b381f5d1b1e79f229a47aaf4c232edc2fe59a",
            "0x59936e5067d0b78d06423b37201026dd946ab1de49cd3b2e38a56882f3383827",
            "0x0000000000000000000000007a07d606c87b7251c2953a30fa445d8c5f856c7a"
          ],
          "data": "0x000000000000000000000000000000000000000000000000000000000000762f000000000000000000000000000000000000000000000000000009184e72a000000000000000000000000000000000000000000000000000000009184e72a000",
          "blockHash": "0xa37d173a4c7f544042b58f998b8f9241a09d38181fadd2b17d4d9a7dc39d6587",
          "blockNumber": "0x515a07c",
          "transactionHash": "0x6b6be4632ba1cba330a735d2cfe99fbda66fa8daa40b1ac8b496e3f39fc7ac96",
          "transactionIndex": "0x17",
          "logIndex": "0x21",
          "removed": false
        },
        {
          "address": "0x7a07d606c87b7251c2953a30fa445d8c5f856c7a",
          "topics": [
            "0xbc9ee36b6ca0bdd5b3840e6d329dd19a2490d880c7ce24d9818aa593adfb35be",
            "0x00000000000000000000000045dce8e4f2dc005a5f28206a46cb034697eeda8e",
            "0x000000000000000000000000000000000000000000000000000000000000769a",
            "0x00000000000000000000000045dce8e4f2dc005a5f28206a46cb034697eeda8e"
          ],
          "data": "0x0000000000000000000000005bff88ca1442c2496f7e475e9e7786383bc070c0000000000000000000000000000000000000000000000000000009184e72a000",
          "blockHash": "0xa37d173a4c7f544042b58f998b8f9241a09d38181fadd2b17d4d9a7dc39d6587",
          "blockNumber": "0x515a07c",
          "transactionHash": "0x6b6be4632ba1cba330a735d2cfe99fbda66fa8daa40b1ac8b496e3f39fc7ac96",
          "transactionIndex": "0x17",
          "logIndex": "0x22",
          "removed": false
        }
      ],
      "logsBloom": "0x00000000002000000000002200000000000000000000000000000000001000000001000000000000000000000000000000000000100000002000000000280000000002000000000000000008000000000008000000000000000000000000008000000000020000008000000000000800000000000010100002000010000000000000021000000000000000080000000000000000000000000000000000000000020011108000000020100000000000000000002000480000000440000010000000000002000000000000000080000000001002800000000000000000000020000010040000000000000000040000802000000000018000000000000000000a00",
      "type": "0x2",
      "transactionHash": "0x6b6be4632ba1cba330a735d2cfe99fbda66fa8daa40b1ac8b496e3f39fc7ac96",
      "transactionIndex": "0x17",
      "blockHash": "0xa37d173a4c7f544042b58f998b8f9241a09d38181fadd2b17d4d9a7dc39d6587",
      "blockNumber": "0x515a07c",
      "gasUsed": "0x9b2c7",
      "effectiveGasPrice": "0x75fedc",
      "from": "0x45dce8e4f2dc005a5f28206a46cb034697eeda8e",
      "to": "0x7a07d606c87b7251c2953a30fa445d8c5f856c7a",
      "contractAddress": null
    },
    {
      "status": "0x1",
      "cumulativeGasUsed": "0x3137ca",
      "logs": [
        {
          "address": "0x43edd7f3831b08fe70b7555ddd373c8bf65a9050",
          "topics": [
            "0x8c5be1e5ebec7d5bd14f71427d1e84f3dd0314c0f7b2291e5b200ac8c7c3b925",
            "0x00000000000000000000000045dce8e4f2dc005a5f28206a46cb034697eeda8e",
            "0x0000000000000000000000007a07d606c87b7251c2953a30fa445d8c5f856c7a"
          ],
          "data": "0x000000000000000000000000000000000000000000000000000009184e72a000",
          "blockHash": "0xa37d173a4c7f544042b58f998b8f9241a09d38181fadd2b17d4d9a7dc39d6587",
          "blockNumber": "0x515a07c",
          "transactionHash": "0xef8d5cc9a5619ce47cd311ec19928ede8d937637759ef3ec842e3d56e61a5fc7",
          "transactionIndex": "0x18",
          "logIndex": "0x23",
          "removed": false
        }
      ],
      "logsBloom": "0x00000000002000000000002200000000000000000000000000000000000000000000000000000000000000000000000000000000000000000000000000200000000000000000000000000000000000000000000000000000000000000000000000000000000000000000000000000000000000000000000000000000000000000000000000000000000000000000000000000000000000000000000000000000020010000000000002000000000000000000000000000000000000000000000000000000000000000000000000000000001000000000000000000000000000000010000000000000000000040000800000000000000000000000000000080000",
      "type": "0x2",
      "transactionHash": "0xef8d5cc9a5619ce47cd311ec19928ede8d937637759ef3ec842e3d56e61a5fc7",
      "transactionIndex": "0x18",
      "blockHash": "0xa37d173a4c7f544042b58f998b8f9241a09d38181fadd2b17d4d9a7dc39d6587",
      "blockNumber": "0x515a07c",
      "gasUsed": "0xd1b2",
      "effectiveGasPrice": "0x75fedc",
      "from": "0x45dce8e4f2dc005a5f28206a46cb034697eeda8e",
      "to": "0x43edd7f3831b08fe70b7555ddd373c8bf65a9050",
      "contractAddress": null
    },
    {
      "status": "0x1",
      "cumulativeGasUsed": "0x3b2d73",
      "logs": [
        {
          "address": "0x43edd7f3831b08fe70b7555ddd373c8bf65a9050",
          "topics": [
            "0x8c5be1e5ebec7d5bd14f71427d1e84f3dd0314c0f7b2291e5b200ac8c7c3b925",
            "0x00000000000000000000000045dce8e4f2dc005a5f28206a46cb034697eeda8e",
            "0x0000000000000000000000007a07d606c87b7251c2953a30fa445d8c5f856c7a"
          ],
          "data": "0x0000000000000000000000000000000000000000000000000000000000000000",
          "blockHash": "0xa37d173a4c7f544042b58f998b8f9241a09d38181fadd2b17d4d9a7dc39d6587",
          "blockNumber": "0x515a07c",
          "transactionHash": "0x720d651127806b456ae22c2d7b5b1b538b0643873e768a1b5a78f21de1736425",
          "transactionIndex": "0x19",
          "logIndex": "0x24",
          "removed": false
        },
        {
          "address": "0x43edd7f3831b08fe70b7555ddd373c8bf65a9050",
          "topics": [
            "0xddf252ad1be2c89b69c2b068fc378daa952ba7f163c4a11628f55a4df523b3ef",
            "0x00000000000000000000000045dce8e4f2dc005a5f28206a46cb034697eeda8e",
            "0x0000000000000000000000007a07d606c87b7251c2953a30fa445d8c5f856c7a"
          ],
          "data": "0x000000000000000000000000000000000000000000000000000009184e72a000",
          "blockHash": "0xa37d173a4c7f544042b58f998b8f9241a09d38181fadd2b17d4d9a7dc39d6587",
          "blockNumber": "0x515a07c",
          "transactionHash": "0x720d651127806b456ae22c2d7b5b1b538b0643873e768a1b5a78f21de1736425",
          "transactionIndex": "0x19",
          "logIndex": "0x25",
          "removed": false
        },
        {
          "address": "0x43edd7f3831b08fe70b7555ddd373c8bf65a9050",
          "topics": [
            "0x8c5be1e5ebec7d5bd14f71427d1e84f3dd0314c0f7b2291e5b200ac8c7c3b925",
            "0x0000000000000000000000007a07d606c87b7251c2953a30fa445d8c5f856c7a",
            "0x00000000000000000000000043edd7f3831b08fe70b7555ddd373c8bf65a9050"
          ],
          "data": "0x000000000000000000000000000000000000000000000000000009184e72a000",
          "blockHash": "0xa37d173a4c7f544042b58f998b8f9241a09d38181fadd2b17d4d9a7dc39d6587",
          "blockNumber": "0x515a07c",
          "transactionHash": "0x720d651127806b456ae22c2d7b5b1b538b0643873e768a1b5a78f21de1736425",
          "transactionIndex": "0x19",
          "logIndex": "0x26",
          "removed": false
        },
        {
          "address": "0x43edd7f3831b08fe70b7555ddd373c8bf65a9050",
          "topics": [
            "0xddf252ad1be2c89b69c2b068fc378daa952ba7f163c4a11628f55a4df523b3ef",
            "0x0000000000000000000000007a07d606c87b7251c2953a30fa445d8c5f856c7a",
            "0x0000000000000000000000000000000000000000000000000000000000000000"
          ],
          "data": "0x000000000000000000000000000000000000000000000000000009184e72a000",
          "blockHash": "0xa37d173a4c7f544042b58f998b8f9241a09d38181fadd2b17d4d9a7dc39d6587",
          "blockNumber": "0x515a07c",
          "transactionHash": "0x720d651127806b456ae22c2d7b5b1b538b0643873e768a1b5a78f21de1736425",
          "transactionIndex": "0x19",
          "logIndex": "0x27",
          "removed": false
        },
        {
          "address": "0x197d1333dea5fe0d6600e9b396c7f1b1cfcc558a",
          "topics": [
            "0x61ed099e74a97a1d7f8bb0952a88ca8b7b8ebd00c126ea04671f92a81213318a"
          ],
          "data": "0x00000000000000000000000090e595783e43eb89ff07f63d27b8430e6b44bd9c00000000000000000000000000000000000000000000000000078e1982ca438b",
          "blockHash": "0xa37d173a4c7f544042b58f998b8f9241a09d38181fadd2b17d4d9a7dc39d6587",
          "blockNumber": "0x515a07c",
          "transactionHash": "0x720d651127806b456ae22c2d7b5b1b538b0643873e768a1b5a78f21de1736425",
          "transactionIndex": "0x19",
          "logIndex": "0x28",
          "removed": false
        },
        {
          "address": "0x197d1333dea5fe0d6600e9b396c7f1b1cfcc558a",
          "topics": [
            "0x07ea52d82345d6e838192107d8fd7123d9c2ec8e916cd0aad13fd2b60db24644"
          ],
          "data": "0x000000000000000000000000000000000000000000000000000000000000006000000000000000000000000000000000000000000000000000000000000001200000000000000000000000000000000000000000000000000000000000000140000000000000000000000000000000000000000000000000000000000000000500000000000000000000000007c05eab7716acb6f83ebf6268f8eecda8892ba1000000000000000000000000962f502a63f5fbeb44dc9ab932122648e8352959000000000000000000000000a59ba433ac34d2927232918ef5b2eaafcf130ba5000000000000000000000000cc49e6fca014c77e1eb604351cc1e08c84511760000000000000000000000000fe4c37cd401f58ee0bf4d214447bf306c2bbd41b000000000000000000000000000000000000000000000000000000000000000000000000000000000000000000000000000000000000000000000000000000050000000000000000000000000000000000000000000000000000dd910b627c770000000000000000000000000000000000000000000000000000dd910b627c770000000000000000000000000000000000000000000000000000cb6d0351a19500000000000000000000000000000000000000000000000000010aeb1f8c9fac00000000000000000000000000000000000000000000000000011d0f279d7a8e",
          "blockHash": "0xa37d173a4c7f544042b58f998b8f9241a09d38181fadd2b17d4d9a7dc39d6587",
          "blockNumber": "0x515a07c",
          "transactionHash": "0x720d651127806b456ae22c2d7b5b1b538b0643873e768a1b5a78f21de1736425",
          "transactionIndex": "0x19",
          "logIndex": "0x29",
          "removed": false
        },
        {
          "address": "0x1a44076050125825900e736c501f859c50fe728c",
          "topics": [
            "0x1ab700d4ced0c005b164c0f789fd09fcbb0156d4c2041b8a3bfbcd961cd1567f"
          ],
          "data": "0x00000000000000000000000000000000000000000000000000000000000000600000000000000000000000000000000000000000000000000000000000000180000000000000000000000000197d1333dea5fe0d6600e9b396c7f1b1cfcc558a00000000000000000000000000000000000000000000000000000000000000f90100000000000000020000759a00000000000000000000000043edd7f3831b08fe70b7555ddd373c8bf65a90500000762f0000000000000000000000009abfe1f8a999b0011ecd6116649aee8d575f5604054dbeaf9118940419c77b0e3aaf2865c095c45c7533579686157b404d557cf20000000000000000000000002a2019b30c157db6c1c01306b8025167dbe1803b000000000000000a0000000000000000000000007a07d606c87b7251c2953a30fa445d8c5f856c7a00000000000000000000000045dce8e4f2dc005a5f28206a46cb034697eeda8e000000000000000000000000000000000000000000000000000000000000769a00000000000000000000000000000000000000000000000000000000000000000000000000002c0003010011010000000000000000000000000003d090010013030000000000000000000000000000000f42400000000000000000000000000000000000000000",
          "blockHash": "0xa37d173a4c7f544042b58f998b8f9241a09d38181fadd2b17d4d9a7dc39d6587",
          "blockNumber": "0x515a07c",
          "transactionHash": "0x720d651127806b456ae22c2d7b5b1b538b0643873e768a1b5a78f21de1736425",
          "transactionIndex": "0x19",
          "logIndex": "0x2a",
          "removed": false
        },
        {
          "address": "0x43edd7f3831b08fe70b7555ddd373c8bf65a9050",
          "topics": [
            "0x85496b760a4b7f8d66384b9df21b381f5d1b1e79f229a47aaf4c232edc2fe59a",
            "0x054dbeaf9118940419c77b0e3aaf2865c095c45c7533579686157b404d557cf2",
            "0x0000000000000000000000007a07d606c87b7251c2953a30fa445d8c5f856c7a"
          ],
          "data": "0x000000000000000000000000000000000000000000000000000000000000762f000000000000000000000000000000000000000000000000000009184e72a000000000000000000000000000000000000000000000000000000009184e72a000",
          "blockHash": "0xa37d173a4c7f544042b58f998b8f9241a09d38181fadd2b17d4d9a7dc39d6587",
          "blockNumber": "0x515a07c",
          "transactionHash": "0x720d651127806b456ae22c2d7b5b1b538b0643873e768a1b5a78f21de1736425",
          "transactionIndex": "0x19",
          "logIndex": "0x2b",
          "removed": false
        },
        {
          "address": "0x7a07d606c87b7251c2953a30fa445d8c5f856c7a",
          "topics": [
            "0xbc9ee36b6ca0bdd5b3840e6d329dd19a2490d880c7ce24d9818aa593adfb35be",
            "0x00000000000000000000000045dce8e4f2dc005a5f28206a46cb034697eeda8e",
            "0x000000000000000000000000000000000000000000000000000000000000769a",
            "0x00000000000000000000000045dce8e4f2dc005a5f28206a46cb034697eeda8e"
          ],
          "data": "0x00000000000000000000000043edd7f3831b08fe70b7555ddd373c8bf65a9050000000000000000000000000000000000000000000000000000009184e72a000",
          "blockHash": "0xa37d173a4c7f544042b58f998b8f9241a09d38181fadd2b17d4d9a7dc39d6587",
          "blockNumber": "0x515a07c",
          "transactionHash": "0x720d651127806b456ae22c2d7b5b1b538b0643873e768a1b5a78f21de1736425",
          "transactionIndex": "0x19",
          "logIndex": "0x2c",
          "removed": false
        }
      ],
      "logsBloom": "0x00000000002000000000002200000000000000000000000000000000001000010000000000000000000000000000000000000020100000002000000000280000000002000000000000000008000000020000000000000000000000000000008000000000020000008000000000000800000000000010100002000010000000000000020000000000000000080000000000000000000000000000000100000000020011108000000022100000000000000000002000400000000440000000020000000002000000000000000080000000001002000000000000000000000020000010040000000000000000040000802100000000018000000000000000080000",
      "type": "0x2",
      "transactionHash": "0x720d651127806b456ae22c2d7b5b1b538b0643873e768a1b5a78f21de1736425",
      "transactionIndex": "0x19",
      "blockHash": "0xa37d173a4c7f544042b58f998b8f9241a09d38181fadd2b17d4d9a7dc39d6587",
      "blockNumber": "0x515a07c",
      "gasUsed": "0x9f5a9",
      "effectiveGasPrice": "0x75fedc",
      "from": "0x45dce8e4f2dc005a5f28206a46cb034697eeda8e",
      "to": "0x7a07d606c87b7251c2953a30fa445d8c5f856c7a",
      "contractAddress": null
    },
    {
      "status": "0x1",
      "cumulativeGasUsed": "0x3bff25",
      "logs": [
        {
          "address": "0x3ec3849c33291a9ef4c5db86de593eb4a37fde45",
          "topics": [
            "0x8c5be1e5ebec7d5bd14f71427d1e84f3dd0314c0f7b2291e5b200ac8c7c3b925",
            "0x00000000000000000000000045dce8e4f2dc005a5f28206a46cb034697eeda8e",
            "0x0000000000000000000000007a07d606c87b7251c2953a30fa445d8c5f856c7a"
          ],
          "data": "0x000000000000000000000000000000000000000000000000000009184e72a000",
          "blockHash": "0xa37d173a4c7f544042b58f998b8f9241a09d38181fadd2b17d4d9a7dc39d6587",
          "blockNumber": "0x515a07c",
          "transactionHash": "0x44694b54002e207df5a0c71524557960bd5306c00c4b646f62a73cb9bde83fd8",
          "transactionIndex": "0x1a",
          "logIndex": "0x2d",
          "removed": false
        }
      ],
      "logsBloom": "0x00000000002000000000002200002000000000000000000000000000000000000000000000000000000000000000000000000000000000000000000000200000000000000000000000000000000000000000000000000000000000000000000000000000000000000000000000000000000000000000000000000000000000000000000000000000000000000000000000000000000020000040000000000000020010000000000000000000000000000000000000000000000000000000000000000000000000000000000000000000001000000000000000000000000000000010000000000000000000000000800000000000000000000000000000000000",
      "type": "0x2",
      "transactionHash": "0x44694b54002e207df5a0c71524557960bd5306c00c4b646f62a73cb9bde83fd8",
      "transactionIndex": "0x1a",
      "blockHash": "0xa37d173a4c7f544042b58f998b8f9241a09d38181fadd2b17d4d9a7dc39d6587",
      "blockNumber": "0x515a07c",
      "gasUsed": "0xd1b2",
      "effectiveGasPrice": "0x75fedc",
      "from": "0x45dce8e4f2dc005a5f28206a46cb034697eeda8e",
      "to": "0x3ec3849c33291a9ef4c5db86de593eb4a37fde45",
      "contractAddress": null
    },
    {
      "status": "0x1",
      "cumulativeGasUsed": "0x46379a",
      "logs": [
        {
          "address": "0x3ec3849c33291a9ef4c5db86de593eb4a37fde45",
          "topics": [
            "0x8c5be1e5ebec7d5bd14f71427d1e84f3dd0314c0f7b2291e5b200ac8c7c3b925",
            "0x00000000000000000000000045dce8e4f2dc005a5f28206a46cb034697eeda8e",
            "0x0000000000000000000000007a07d606c87b7251c2953a30fa445d8c5f856c7a"
          ],
          "data": "0x0000000000000000000000000000000000000000000000000000000000000000",
          "blockHash": "0xa37d173a4c7f544042b58f998b8f9241a09d38181fadd2b17d4d9a7dc39d6587",
          "blockNumber": "0x515a07c",
          "transactionHash": "0x787d125aa9496717e608636fd376be597b9481ced023ea54f2753549eb907e69",
          "transactionIndex": "0x1b",
          "logIndex": "0x2e",
          "removed": false
        },
        {
          "address": "0x3ec3849c33291a9ef4c5db86de593eb4a37fde45",
          "topics": [
            "0xddf252ad1be2c89b69c2b068fc378daa952ba7f163c4a11628f55a4df523b3ef",
            "0x00000000000000000000000045dce8e4f2dc005a5f28206a46cb034697eeda8e",
            "0x0000000000000000000000007a07d606c87b7251c2953a30fa445d8c5f856c7a"
          ],
          "data": "0x000000000000000000000000000000000000000000000000000009184e72a000",
          "blockHash": "0xa37d173a4c7f544042b58f998b8f9241a09d38181fadd2b17d4d9a7dc39d6587",
          "blockNumber": "0x515a07c",
          "transactionHash": "0x787d125aa9496717e608636fd376be597b9481ced023ea54f2753549eb907e69",
          "transactionIndex": "0x1b",
          "logIndex": "0x2f",
          "removed": false
        },
        {
          "address": "0x3ec3849c33291a9ef4c5db86de593eb4a37fde45",
          "topics": [
            "0x8c5be1e5ebec7d5bd14f71427d1e84f3dd0314c0f7b2291e5b200ac8c7c3b925",
            "0x0000000000000000000000007a07d606c87b7251c2953a30fa445d8c5f856c7a",
            "0x0000000000000000000000003ec3849c33291a9ef4c5db86de593eb4a37fde45"
          ],
          "data": "0x000000000000000000000000000000000000000000000000000009184e72a000",
          "blockHash": "0xa37d173a4c7f544042b58f998b8f9241a09d38181fadd2b17d4d9a7dc39d6587",
          "blockNumber": "0x515a07c",
          "transactionHash": "0x787d125aa9496717e608636fd376be597b9481ced023ea54f2753549eb907e69",
          "transactionIndex": "0x1b",
          "logIndex": "0x30",
          "removed": false
        },
        {
          "address": "0x3ec3849c33291a9ef4c5db86de593eb4a37fde45",
          "topics": [
            "0xddf252ad1be2c89b69c2b068fc378daa952ba7f163c4a11628f55a4df523b3ef",
            "0x0000000000000000000000007a07d606c87b7251c2953a30fa445d8c5f856c7a",
            "0x0000000000000000000000000000000000000000000000000000000000000000"
          ],
          "data": "0x000000000000000000000000000000000000000000000000000009184e72a000",
          "blockHash": "0xa37d173a4c7f544042b58f998b8f9241a09d38181fadd2b17d4d9a7dc39d6587",
          "blockNumber": "0x515a07c",
          "transactionHash": "0x787d125aa9496717e608636fd376be597b9481ced023ea54f2753549eb907e69",
          "transactionIndex": "0x1b",
          "logIndex": "0x31",
          "removed": false
        },
        {
          "address": "0x197d1333dea5fe0d6600e9b396c7f1b1cfcc558a",
          "topics": [
            "0x61ed099e74a97a1d7f8bb0952a88ca8b7b8ebd00c126ea04671f92a81213318a"
          ],
          "data": "0x00000000000000000000000090e595783e43eb89ff07f63d27b8430e6b44bd9c00000000000000000000000000000000000000000000000000078e1982ca438b",
          "blockHash": "0xa37d173a4c7f544042b58f998b8f9241a09d38181fadd2b17d4d9a7dc39d6587",
          "blockNumber": "0x515a07c",
          "transactionHash": "0x787d125aa9496717e608636fd376be597b9481ced023ea54f2753549eb907e69",
          "transactionIndex": "0x1b",
          "logIndex": "0x32",
          "removed": false
        },
        {
          "address": "0x197d1333dea5fe0d6600e9b396c7f1b1cfcc558a",
          "topics": [
            "0x07ea52d82345d6e838192107d8fd7123d9c2ec8e916cd0aad13fd2b60db24644"
          ],
          "data": "0x000000000000000000000000000000000000000000000000000000000000006000000000000000000000000000000000000000000000000000000000000001200000000000000000000000000000000000000000000000000000000000000140000000000000000000000000000000000000000000000000000000000000000500000000000000000000000007c05eab7716acb6f83ebf6268f8eecda8892ba1000000000000000000000000962f502a63f5fbeb44dc9ab932122648e8352959000000000000000000000000a59ba433ac34d2927232918ef5b2eaafcf130ba5000000000000000000000000cc49e6fca014c77e1eb604351cc1e08c84511760000000000000000000000000fe4c37cd401f58ee0bf4d214447bf306c2bbd41b000000000000000000000000000000000000000000000000000000000000000000000000000000000000000000000000000000000000000000000000000000050000000000000000000000000000000000000000000000000000dd910b627c770000000000000000000000000000000000000000000000000000dd910b627c770000000000000000000000000000000000000000000000000000cb6d0351a19500000000000000000000000000000000000000000000000000010aeb1f8c9fac00000000000000000000000000000000000000000000000000011d0f279d7a8e",
          "blockHash": "0xa37d173a4c7f544042b58f998b8f9241a09d38181fadd2b17d4d9a7dc39d6587",
          "blockNumber": "0x515a07c",
          "transactionHash": "0x787d125aa9496717e608636fd376be597b9481ced023ea54f2753549eb907e69",
          "transactionIndex": "0x1b",
          "logIndex": "0x33",
          "removed": false
        },
        {
          "address": "0x1a44076050125825900e736c501f859c50fe728c",
          "topics": [
            "0x1ab700d4ced0c005b164c0f789fd09fcbb0156d4c2041b8a3bfbcd961cd1567f"
          ],
          "data": "0x00000000000000000000000000000000000000000000000000000000000000600000000000000000000000000000000000000000000000000000000000000180000000000000000000000000197d1333dea5fe0d6600e9b396c7f1b1cfcc558a00000000000000000000000000000000000000000000000000000000000000f90100000000000000010000759a0000000000000000000000003ec3849c33291a9ef4c5db86de593eb4a37fde450000762f000000000000000000000000999dfabe3b1cc2ef66eb032eea42fea329bba168649ca83c45d7eb650553b1b344bdd3b21ec0cdaa6d34bb8dc3353f39cb1d4b690000000000000000000000002a2019b30c157db6c1c01306b8025167dbe1803b000000000000000a0000000000000000000000007a07d606c87b7251c2953a30fa445d8c5f856c7a00000000000000000000000045dce8e4f2dc005a5f28206a46cb034697eeda8e000000000000000000000000000000000000000000000000000000000000769a00000000000000000000000000000000000000000000000000000000000000000000000000002c0003010011010000000000000000000000000003d090010013030000000000000000000000000000000f42400000000000000000000000000000000000000000",
          "blockHash": "0xa37d173a4c7f544042b58f998b8f9241a09d38181fadd2b17d4d9a7dc39d6587",
          "blockNumber": "0x515a07c",
          "transactionHash": "0x787d125aa9496717e608636fd376be597b9481ced023ea54f2753549eb907e69",
          "transactionIndex": "0x1b",
          "logIndex": "0x34",
          "removed": false
        },
        {
          "address": "0x3ec3849c33291a9ef4c5db86de593eb4a37fde45",
          "topics": [
            "0x85496b760a4b7f8d66384b9df21b381f5d1b1e79f229a47aaf4c232edc2fe59a",
            "0x649ca83c45d7eb650553b1b344bdd3b21ec0cdaa6d34bb8dc3353f39cb1d4b69",
            "0x0000000000000000000000007a07d606c87b7251c2953a30fa445d8c5f856c7a"
          ],
          "data": "0x000000000000000000000000000000000000000000000000000000000000762f000000000000000000000000000000000000000000000000000009184e72a000000000000000000000000000000000000000000000000000000009184e72a000",
          "blockHash": "0xa37d173a4c7f544042b58f998b8f9241a09d38181fadd2b17d4d9a7dc39d6587",
          "blockNumber": "0x515a07c",
          "transactionHash": "0x787d125aa9496717e608636fd376be597b9481ced023ea54f2753549eb907e69",
          "transactionIndex": "0x1b",
          "logIndex": "0x35",
          "removed": false
        },
        {
          "address": "0x7a07d606c87b7251c2953a30fa445d8c5f856c7a",
          "topics": [
            "0xbc9ee36b6ca0bdd5b3840e6d329dd19a2490d880c7ce24d9818aa593adfb35be",
            "0x00000000000000000000000045dce8e4f2dc005a5f28206a46cb034697eeda8e",
            "0x000000000000000000000000000000000000000000000000000000000000769a",
            "0x00000000000000000000000045dce8e4f2dc005a5f28206a46cb034697eeda8e"
          ],
          "data": "0x0000000000000000000000003ec3849c33291a9ef4c5db86de593eb4a37fde45000000000000000000000000000000000000000000000000000009184e72a000",
          "blockHash": "0xa37d173a4c7f544042b58f998b8f9241a09d38181fadd2b17d4d9a7dc39d6587",
          "blockNumber": "0x515a07c",
          "transactionHash": "0x787d125aa9496717e608636fd376be597b9481ced023ea54f2753549eb907e69",
          "transactionIndex": "0x1b",
          "logIndex": "0x36",
          "removed": false
        }
      ],
      "logsBloom": "0x00000000002000000000002200002000000000000000100000000000001000000000000000000000000000000000000000000000100000002000000000280020000002000000000000000008000000000000000000000000000000000000008000000000020000008000000000200800000000000010100002000010000000000000020000000000000000080000000000000000000020000040004000000000020011108000000020100000400000000000002000400000000440000000000000000002008000000000000080000000001002000000000000000000000020000010040000000000000000000000802000000000018000000000000000000000",
      "type": "0x2",
      "transactionHash": "0x787d125aa9496717e608636fd376be597b9481ced023ea54f2753549eb907e69",
      "transactionIndex": "0x1b",
      "blockHash": "0xa37d173a4c7f544042b58f998b8f9241a09d38181fadd2b17d4d9a7dc39d6587",
      "blockNumber": "0x515a07c",
      "gasUsed": "0xa3875",
      "effectiveGasPrice": "0x75fedc",
      "from": "0x45dce8e4f2dc005a5f28206a46cb034697eeda8e",
      "to": "0x7a07d606c87b7251c2953a30fa445d8c5f856c7a",
      "contractAddress": null
    },
    {
      "status": "0x1",
      "cumulativeGasUsed": "0x470936",
      "logs": [
        {
          "address": "0x64445f0aecc51e94ad52d8ac56b7190e764e561a",
          "topics": [
            "0x8c5be1e5ebec7d5bd14f71427d1e84f3dd0314c0f7b2291e5b200ac8c7c3b925",
            "0x00000000000000000000000045dce8e4f2dc005a5f28206a46cb034697eeda8e",
            "0x0000000000000000000000007a07d606c87b7251c2953a30fa445d8c5f856c7a"
          ],
          "data": "0x000000000000000000000000000000000000000000000000000009184e72a000",
          "blockHash": "0xa37d173a4c7f544042b58f998b8f9241a09d38181fadd2b17d4d9a7dc39d6587",
          "blockNumber": "0x515a07c",
          "transactionHash": "0x755a1a878b57183989e5ff9e523ecc2d234bb31629d21e7b979135be4361fe42",
          "transactionIndex": "0x1c",
          "logIndex": "0x37",
          "removed": false
        }
      ],
      "logsBloom": "0x00000000002000000000002200000000000000000000000000000000000000000000000000000000000000000000000000000000000000000000000000200000002000000000000000000000000000000000000000000000000000000000000000000000000000000000000000000000000000000000000000000000000000000000000000000000000000000000000000000000000000000000000000000000020010000000000000000008000000000000000000000000000000000000000000000000000000000000000000000000001000000000000000000000000000000010000000000000000000000000800000000008000000000000000000000000",
      "type": "0x2",
      "transactionHash": "0x755a1a878b57183989e5ff9e523ecc2d234bb31629d21e7b979135be4361fe42",
      "transactionIndex": "0x1c",
      "blockHash": "0xa37d173a4c7f544042b58f998b8f9241a09d38181fadd2b17d4d9a7dc39d6587",
      "blockNumber": "0x515a07c",
      "gasUsed": "0xd19c",
      "effectiveGasPrice": "0x75fedc",
      "from": "0x45dce8e4f2dc005a5f28206a46cb034697eeda8e",
      "to": "0x64445f0aecc51e94ad52d8ac56b7190e764e561a",
      "contractAddress": null
    },
    {
      "status": "0x1",
      "cumulativeGasUsed": "0x50bbfd",
      "logs": [
        {
          "address": "0x64445f0aecc51e94ad52d8ac56b7190e764e561a",
          "topics": [
            "0x8c5be1e5ebec7d5bd14f71427d1e84f3dd0314c0f7b2291e5b200ac8c7c3b925",
            "0x00000000000000000000000045dce8e4f2dc005a5f28206a46cb034697eeda8e",
            "0x0000000000000000000000007a07d606c87b7251c2953a30fa445d8c5f856c7a"
          ],
          "data": "0x0000000000000000000000000000000000000000000000000000000000000000",
          "blockHash": "0xa37d173a4c7f544042b58f998b8f9241a09d38181fadd2b17d4d9a7dc39d6587",
          "blockNumber": "0x515a07c",
          "transactionHash": "0x9b13061edd651fb47d284770069b672b5370023d091362f75181c4624151ab6e",
          "transactionIndex": "0x1d",
          "logIndex": "0x38",
          "removed": false
        },
        {
          "address": "0x64445f0aecc51e94ad52d8ac56b7190e764e561a",
          "topics": [
            "0xddf252ad1be2c89b69c2b068fc378daa952ba7f163c4a11628f55a4df523b3ef",
            "0x00000000000000000000000045dce8e4f2dc005a5f28206a46cb034697eeda8e",
            "0x0000000000000000000000007a07d606c87b7251c2953a30fa445d8c5f856c7a"
          ],
          "data": "0x000000000000000000000000000000000000000000000000000009184e72a000",
          "blockHash": "0xa37d173a4c7f544042b58f998b8f9241a09d38181fadd2b17d4d9a7dc39d6587",
          "blockNumber": "0x515a07c",
          "transactionHash": "0x9b13061edd651fb47d284770069b672b5370023d091362f75181c4624151ab6e",
          "transactionIndex": "0x1d",
          "logIndex": "0x39",
          "removed": false
        },
        {
          "address": "0x64445f0aecc51e94ad52d8ac56b7190e764e561a",
          "topics": [
            "0x8c5be1e5ebec7d5bd14f71427d1e84f3dd0314c0f7b2291e5b200ac8c7c3b925",
            "0x0000000000000000000000007a07d606c87b7251c2953a30fa445d8c5f856c7a",
            "0x00000000000000000000000064445f0aecc51e94ad52d8ac56b7190e764e561a"
          ],
          "data": "0x000000000000000000000000000000000000000000000000000009184e72a000",
          "blockHash": "0xa37d173a4c7f544042b58f998b8f9241a09d38181fadd2b17d4d9a7dc39d6587",
          "blockNumber": "0x515a07c",
          "transactionHash": "0x9b13061edd651fb47d284770069b672b5370023d091362f75181c4624151ab6e",
          "transactionIndex": "0x1d",
          "logIndex": "0x3a",
          "removed": false
        },
        {
          "address": "0x64445f0aecc51e94ad52d8ac56b7190e764e561a",
          "topics": [
            "0xddf252ad1be2c89b69c2b068fc378daa952ba7f163c4a11628f55a4df523b3ef",
            "0x0000000000000000000000007a07d606c87b7251c2953a30fa445d8c5f856c7a",
            "0x0000000000000000000000000000000000000000000000000000000000000000"
          ],
          "data": "0x000000000000000000000000000000000000000000000000000009184e72a000",
          "blockHash": "0xa37d173a4c7f544042b58f998b8f9241a09d38181fadd2b17d4d9a7dc39d6587",
          "blockNumber": "0x515a07c",
          "transactionHash": "0x9b13061edd651fb47d284770069b672b5370023d091362f75181c4624151ab6e",
          "transactionIndex": "0x1d",
          "logIndex": "0x3b",
          "removed": false
        },
        {
          "address": "0x197d1333dea5fe0d6600e9b396c7f1b1cfcc558a",
          "topics": [
            "0x61ed099e74a97a1d7f8bb0952a88ca8b7b8ebd00c126ea04671f92a81213318a"
          ],
          "data": "0x00000000000000000000000090e595783e43eb89ff07f63d27b8430e6b44bd9c00000000000000000000000000000000000000000000000000078e1982ca438b",
          "blockHash": "0xa37d173a4c7f544042b58f998b8f9241a09d38181fadd2b17d4d9a7dc39d6587",
          "blockNumber": "0x515a07c",
          "transactionHash": "0x9b13061edd651fb47d284770069b672b5370023d091362f75181c4624151ab6e",
          "transactionIndex": "0x1d",
          "logIndex": "0x3c",
          "removed": false
        },
        {
          "address": "0x197d1333dea5fe0d6600e9b396c7f1b1cfcc558a",
          "topics": [
            "0x07ea52d82345d6e838192107d8fd7123d9c2ec8e916cd0aad13fd2b60db24644"
          ],
          "data": "0x000000000000000000000000000000000000000000000000000000000000006000000000000000000000000000000000000000000000000000000000000001200000000000000000000000000000000000000000000000000000000000000140000000000000000000000000000000000000000000000000000000000000000500000000000000000000000007c05eab7716acb6f83ebf6268f8eecda8892ba1000000000000000000000000962f502a63f5fbeb44dc9ab932122648e8352959000000000000000000000000a59ba433ac34d2927232918ef5b2eaafcf130ba5000000000000000000000000cc49e6fca014c77e1eb604351cc1e08c84511760000000000000000000000000fe4c37cd401f58ee0bf4d214447bf306c2bbd41b000000000000000000000000000000000000000000000000000000000000000000000000000000000000000000000000000000000000000000000000000000050000000000000000000000000000000000000000000000000000dd910b627c770000000000000000000000000000000000000000000000000000dd910b627c770000000000000000000000000000000000000000000000000000cb6d0351a19500000000000000000000000000000000000000000000000000010aeb1f8c9fac00000000000000000000000000000000000000000000000000011d0f279d7a8e",
          "blockHash": "0xa37d173a4c7f544042b58f998b8f9241a09d38181fadd2b17d4d9a7dc39d6587",
          "blockNumber": "0x515a07c",
          "transactionHash": "0x9b13061edd651fb47d284770069b672b5370023d091362f75181c4624151ab6e",
          "transactionIndex": "0x1d",
          "logIndex": "0x3d",
          "removed": false
        },
        {
          "address": "0x1a44076050125825900e736c501f859c50fe728c",
          "topics": [
            "0x1ab700d4ced0c005b164c0f789fd09fcbb0156d4c2041b8a3bfbcd961cd1567f"
          ],
          "data": "0x00000000000000000000000000000000000000000000000000000000000000600000000000000000000000000000000000000000000000000000000000000180000000000000000000000000197d1333dea5fe0d6600e9b396c7f1b1cfcc558a00000000000000000000000000000000000000000000000000000000000000f901000000000000000b0000759a00000000000000000000000064445f0aecc51e94ad52d8ac56b7190e764e561a0000762f000000000000000000000000d86fbbd0c8715d2c1f40e451e5c3514e65e7576a3fbedc3df766fe66cb2503355fcd1a9bf7de597b464790cc24bdb032f33fbd280000000000000000000000002a2019b30c157db6c1c01306b8025167dbe1803b000000000000000a0000000000000000000000007a07d606c87b7251c2953a30fa445d8c5f856c7a00000000000000000000000045dce8e4f2dc005a5f28206a46cb034697eeda8e000000000000000000000000000000000000000000000000000000000000769a00000000000000000000000000000000000000000000000000000000000000000000000000002c0003010011010000000000000000000000000003d090010013030000000000000000000000000000000f42400000000000000000000000000000000000000000",
          "blockHash": "0xa37d173a4c7f544042b58f998b8f9241a09d38181fadd2b17d4d9a7dc39d6587",
          "blockNumber": "0x515a07c",
          "transactionHash": "0x9b13061edd651fb47d284770069b672b5370023d091362f75181c4624151ab6e",
          "transactionIndex": "0x1d",
          "logIndex": "0x3e",
          "removed": false
        },
        {
          "address": "0x64445f0aecc51e94ad52d8ac56b7190e764e561a",
          "topics": [
            "0x85496b760a4b7f8d66384b9df21b381f5d1b1e79f229a47aaf4c232edc2fe59a",
            "0x3fbedc3df766fe66cb2503355fcd1a9bf7de597b464790cc24bdb032f33fbd28",
            "0x0000000000000000000000007a07d606c87b7251c2953a30fa445d8c5f856c7a"
          ],
          "data": "0x000000000000000000000000000000000000000000000000000000000000762f000000000000000000000000000000000000000000000000000009184e72a000000000000000000000000000000000000000000000000000000009184e72a000",
          "blockHash": "0xa37d173a4c7f544042b58f998b8f9241a09d38181fadd2b17d4d9a7dc39d6587",
          "blockNumber": "0x515a07c",
          "transactionHash": "0x9b13061edd651fb47d284770069b672b5370023d091362f75181c4624151ab6e",
          "transactionIndex": "0x1d",
          "logIndex": "0x3f",
          "removed": false
        },
        {
          "address": "0x7a07d606c87b7251c2953a30fa445d8c5f856c7a",
          "topics": [
            "0xbc9ee36b6ca0bdd5b3840e6d329dd19a2490d880c7ce24d9818aa593adfb35be",
            "0x00000000000000000000000045dce8e4f2dc005a5f28206a46cb034697eeda8e",
            "0x000000000000000000000000000000000000000000000000000000000000769a",
            "0x00000000000000000000000045dce8e4f2dc005a5f28206a46cb034697eeda8e"
          ],
          "data": "0x00000000000000000000000064445f0aecc51e94ad52d8ac56b7190e764e561a000000000000000000000000000000000000000000000000000009184e72a000",
          "blockHash": "0xa37d173a4c7f544042b58f998b8f9241a09d38181fadd2b17d4d9a7dc39d6587",
          "blockNumber": "0x515a07c",
          "transactionHash": "0x9b13061edd651fb47d284770069b672b5370023d091362f75181c4624151ab6e",
          "transactionIndex": "0x1d",
          "logIndex": "0x40",
          "removed": false
        }
      ],
      "logsBloom": "0x0000000000200000000000220000000000000000000000000000000000100000000000000000000000000000000000000000000010000000200040000028000000200200000000000000000800000000000000000000000000000000000000800000000002000000800000000000080000000000001010000200001000000000000002000100000000000008000000000000000000000000000000000000000002001110800000002010000c000000000000002000400000000440000000000000000002000000000000000080000000001002000000200000000000000020000010040000000000000000000000802800000008018000000000000000000002",
      "type": "0x2",
      "transactionHash": "0x9b13061edd651fb47d284770069b672b5370023d091362f75181c4624151ab6e",
      "transactionIndex": "0x1d",
      "blockHash": "0xa37d173a4c7f544042b58f998b8f9241a09d38181fadd2b17d4d9a7dc39d6587",
      "blockNumber": "0x515a07c",
      "gasUsed": "0x9b2c7",
      "effectiveGasPrice": "0x75fedc",
      "from": "0x45dce8e4f2dc005a5f28206a46cb034697eeda8e",
      "to": "0x7a07d606c87b7251c2953a30fa445d8c5f856c7a",
      "contractAddress": null
    },
    {
      "status": "0x1",
      "cumulativeGasUsed": "0x518daf",
      "logs": [
        {
          "address": "0x90581eca9469d8d7f5d3b60f4715027adfcf7927",
          "topics": [
            "0x8c5be1e5ebec7d5bd14f71427d1e84f3dd0314c0f7b2291e5b200ac8c7c3b925",
            "0x00000000000000000000000045dce8e4f2dc005a5f28206a46cb034697eeda8e",
            "0x0000000000000000000000007a07d606c87b7251c2953a30fa445d8c5f856c7a"
          ],
          "data": "0x000000000000000000000000000000000000000000000000000009184e72a000",
          "blockHash": "0xa37d173a4c7f544042b58f998b8f9241a09d38181fadd2b17d4d9a7dc39d6587",
          "blockNumber": "0x515a07c",
          "transactionHash": "0x6fdaed788d52e8a77bf3cf02a7958a1c23ea074f273f67bb74ff49e7157bd0ce",
          "transactionIndex": "0x1e",
          "logIndex": "0x41",
          "removed": false
        }
      ],
      "logsBloom": "0x00000000002000000000002200000000000000000000000000000000000000000000000000000000000000000000000000000000000000000000000000200000000000000000000000000000000000000000000000000000000000000000000000000000000000000000000000000000000000000000000000000000000000000000000000000004000010000000000000000000000000000000000000000000020010000000000000000000000000000000000000000000000000000000000000000000000000000000000000000000001000000000000000000000000000000010000000000000000000000000800000400000000000000000000000000000",
      "type": "0x2",
      "transactionHash": "0x6fdaed788d52e8a77bf3cf02a7958a1c23ea074f273f67bb74ff49e7157bd0ce",
      "transactionIndex": "0x1e",
      "blockHash": "0xa37d173a4c7f544042b58f998b8f9241a09d38181fadd2b17d4d9a7dc39d6587",
      "blockNumber": "0x515a07c",
      "gasUsed": "0xd1b2",
      "effectiveGasPrice": "0x75fedc",
      "from": "0x45dce8e4f2dc005a5f28206a46cb034697eeda8e",
      "to": "0x90581eca9469d8d7f5d3b60f4715027adfcf7927",
      "contractAddress": null
    },
    {
      "status": "0x1",
      "cumulativeGasUsed": "0x5bc624",
      "logs": [
        {
          "address": "0x90581eca9469d8d7f5d3b60f4715027adfcf7927",
          "topics": [
            "0x8c5be1e5ebec7d5bd14f71427d1e84f3dd0314c0f7b2291e5b200ac8c7c3b925",
            "0x00000000000000000000000045dce8e4f2dc005a5f28206a46cb034697eeda8e",
            "0x0000000000000000000000007a07d606c87b7251c2953a30fa445d8c5f856c7a"
          ],
          "data": "0x0000000000000000000000000000000000000000000000000000000000000000",
          "blockHash": "0xa37d173a4c7f544042b58f998b8f9241a09d38181fadd2b17d4d9a7dc39d6587",
          "blockNumber": "0x515a07c",
          "transactionHash": "0x25dbae7a2974cea07920134e155e564872da67879999f55cb74930cc3ecfe31b",
          "transactionIndex": "0x1f",
          "logIndex": "0x42",
          "removed": false
        },
        {
          "address": "0x90581eca9469d8d7f5d3b60f4715027adfcf7927",
          "topics": [
            "0xddf252ad1be2c89b69c2b068fc378daa952ba7f163c4a11628f55a4df523b3ef",
            "0x00000000000000000000000045dce8e4f2dc005a5f28206a46cb034697eeda8e",
            "0x0000000000000000000000007a07d606c87b7251c2953a30fa445d8c5f856c7a"
          ],
          "data": "0x000000000000000000000000000000000000000000000000000009184e72a000",
          "blockHash": "0xa37d173a4c7f544042b58f998b8f9241a09d38181fadd2b17d4d9a7dc39d6587",
          "blockNumber": "0x515a07c",
          "transactionHash": "0x25dbae7a2974cea07920134e155e564872da67879999f55cb74930cc3ecfe31b",
          "transactionIndex": "0x1f",
          "logIndex": "0x43",
          "removed": false
        },
        {
          "address": "0x90581eca9469d8d7f5d3b60f4715027adfcf7927",
          "topics": [
            "0x8c5be1e5ebec7d5bd14f71427d1e84f3dd0314c0f7b2291e5b200ac8c7c3b925",
            "0x0000000000000000000000007a07d606c87b7251c2953a30fa445d8c5f856c7a",
            "0x00000000000000000000000090581eca9469d8d7f5d3b60f4715027adfcf7927"
          ],
          "data": "0x000000000000000000000000000000000000000000000000000009184e72a000",
          "blockHash": "0xa37d173a4c7f544042b58f998b8f9241a09d38181fadd2b17d4d9a7dc39d6587",
          "blockNumber": "0x515a07c",
          "transactionHash": "0x25dbae7a2974cea07920134e155e564872da67879999f55cb74930cc3ecfe31b",
          "transactionIndex": "0x1f",
          "logIndex": "0x44",
          "removed": false
        },
        {
          "address": "0x90581eca9469d8d7f5d3b60f4715027adfcf7927",
          "topics": [
            "0xddf252ad1be2c89b69c2b068fc378daa952ba7f163c4a11628f55a4df523b3ef",
            "0x0000000000000000000000007a07d606c87b7251c2953a30fa445d8c5f856c7a",
            "0x0000000000000000000000000000000000000000000000000000000000000000"
          ],
          "data": "0x000000000000000000000000000000000000000000000000000009184e72a000",
          "blockHash": "0xa37d173a4c7f544042b58f998b8f9241a09d38181fadd2b17d4d9a7dc39d6587",
          "blockNumber": "0x515a07c",
          "transactionHash": "0x25dbae7a2974cea07920134e155e564872da67879999f55cb74930cc3ecfe31b",
          "transactionIndex": "0x1f",
          "logIndex": "0x45",
          "removed": false
        },
        {
          "address": "0x197d1333dea5fe0d6600e9b396c7f1b1cfcc558a",
          "topics": [
            "0x61ed099e74a97a1d7f8bb0952a88ca8b7b8ebd00c126ea04671f92a81213318a"
          ],
          "data": "0x00000000000000000000000090e595783e43eb89ff07f63d27b8430e6b44bd9c00000000000000000000000000000000000000000000000000078e1982ca438b",
          "blockHash": "0xa37d173a4c7f544042b58f998b8f9241a09d38181fadd2b17d4d9a7dc39d6587",
          "blockNumber": "0x515a07c",
          "transactionHash": "0x25dbae7a2974cea07920134e155e564872da67879999f55cb74930cc3ecfe31b",
          "transactionIndex": "0x1f",
          "logIndex": "0x46",
          "removed": false
        },
        {
          "address": "0x197d1333dea5fe0d6600e9b396c7f1b1cfcc558a",
          "topics": [
            "0x07ea52d82345d6e838192107d8fd7123d9c2ec8e916cd0aad13fd2b60db24644"
          ],
          "data": "0x000000000000000000000000000000000000000000000000000000000000006000000000000000000000000000000000000000000000000000000000000001200000000000000000000000000000000000000000000000000000000000000140000000000000000000000000000000000000000000000000000000000000000500000000000000000000000007c05eab7716acb6f83ebf6268f8eecda8892ba1000000000000000000000000962f502a63f5fbeb44dc9ab932122648e8352959000000000000000000000000a59ba433ac34d2927232918ef5b2eaafcf130ba5000000000000000000000000cc49e6fca014c77e1eb604351cc1e08c84511760000000000000000000000000fe4c37cd401f58ee0bf4d214447bf306c2bbd41b000000000000000000000000000000000000000000000000000000000000000000000000000000000000000000000000000000000000000000000000000000050000000000000000000000000000000000000000000000000000dd910b627c770000000000000000000000000000000000000000000000000000dd910b627c770000000000000000000000000000000000000000000000000000cb6d0351a19500000000000000000000000000000000000000000000000000010aeb1f8c9fac00000000000000000000000000000000000000000000000000011d0f279d7a8e",
          "blockHash": "0xa37d173a4c7f544042b58f998b8f9241a09d38181fadd2b17d4d9a7dc39d6587",
          "blockNumber": "0x515a07c",
          "transactionHash": "0x25dbae7a2974cea07920134e155e564872da67879999f55cb74930cc3ecfe31b",
          "transactionIndex": "0x1f",
          "logIndex": "0x47",
          "removed": false
        },
        {
          "address": "0x1a44076050125825900e736c501f859c50fe728c",
          "topics": [
            "0x1ab700d4ced0c005b164c0f789fd09fcbb0156d4c2041b8a3bfbcd961cd1567f"
          ],
          "data": "0x00000000000000000000000000000000000000000000000000000000000000600000000000000000000000000000000000000000000000000000000000000180000000000000000000000000197d1333dea5fe0d6600e9b396c7f1b1cfcc558a00000000000000000000000000000000000000000000000000000000000000f90100000000000000010000759a00000000000000000000000090581eca9469d8d7f5d3b60f4715027adfcf79270000762f00000000000000000000000075c38d46001b0f8108c4136216bd2694982c20fc8aabce09d238c5d447ad35e7a06fdfed30a4b84771decaa0706255118b2ff0300000000000000000000000002a2019b30c157db6c1c01306b8025167dbe1803b000000000000000a0000000000000000000000007a07d606c87b7251c2953a30fa445d8c5f856c7a00000000000000000000000045dce8e4f2dc005a5f28206a46cb034697eeda8e000000000000000000000000000000000000000000000000000000000000769a00000000000000000000000000000000000000000000000000000000000000000000000000002c0003010011010000000000000000000000000003d090010013030000000000000000000000000000000f42400000000000000000000000000000000000000000",
          "blockHash": "0xa37d173a4c7f544042b58f998b8f9241a09d38181fadd2b17d4d9a7dc39d6587",
          "blockNumber": "0x515a07c",
          "transactionHash": "0x25dbae7a2974cea07920134e155e564872da67879999f55cb74930cc3ecfe31b",
          "transactionIndex": "0x1f",
          "logIndex": "0x48",
          "removed": false
        },
        {
          "address": "0x90581eca9469d8d7f5d3b60f4715027adfcf7927",
          "topics": [
            "0x85496b760a4b7f8d66384b9df21b381f5d1b1e79f229a47aaf4c232edc2fe59a",
            "0x8aabce09d238c5d447ad35e7a06fdfed30a4b84771decaa0706255118b2ff030",
            "0x0000000000000000000000007a07d606c87b7251c2953a30fa445d8c5f856c7a"
          ],
          "data": "0x000000000000000000000000000000000000000000000000000000000000762f000000000000000000000000000000000000000000000000000009184e72a000000000000000000000000000000000000000000000000000000009184e72a000",
          "blockHash": "0xa37d173a4c7f544042b58f998b8f9241a09d38181fadd2b17d4d9a7dc39d6587",
          "blockNumber": "0x515a07c",
          "transactionHash": "0x25dbae7a2974cea07920134e155e564872da67879999f55cb74930cc3ecfe31b",
          "transactionIndex": "0x1f",
          "logIndex": "0x49",
          "removed": false
        },
        {
          "address": "0x7a07d606c87b7251c2953a30fa445d8c5f856c7a",
          "topics": [
            "0xbc9ee36b6ca0bdd5b3840e6d329dd19a2490d880c7ce24d9818aa593adfb35be",
            "0x00000000000000000000000045dce8e4f2dc005a5f28206a46cb034697eeda8e",
            "0x000000000000000000000000000000000000000000000000000000000000769a",
            "0x00000000000000000000000045dce8e4f2dc005a5f28206a46cb034697eeda8e"
          ],
          "data": "0x00000000000000000000000090581eca9469d8d7f5d3b60f4715027adfcf7927000000000000000000000000000000000000000000000000000009184e72a000",
          "blockHash": "0xa37d173a4c7f544042b58f998b8f9241a09d38181fadd2b17d4d9a7dc39d6587",
          "blockNumber": "0x515a07c",
          "transactionHash": "0x25dbae7a2974cea07920134e155e564872da67879999f55cb74930cc3ecfe31b",
          "transactionIndex": "0x1f",
          "logIndex": "0x4a",
          "removed": false
        }
      ],
      "logsBloom": "0x00000000002000000000002200000000000000000000000000000000001000000000000000000000000000000000000000000000100000002000000000280000000002000000000000000008000000000000000000000000000000000000008000000100020000008000000000000800000000010010100002000010000000000000020000000004000010080008000000000000000000000000000000000000020011108000000020100000000000000000082000400000000440000000000000000022000000000000000080000100001002000000000000000000000020000010040000000000000000000000802000400000018000000000000000000000",
      "type": "0x2",
      "transactionHash": "0x25dbae7a2974cea07920134e155e564872da67879999f55cb74930cc3ecfe31b",
      "transactionIndex": "0x1f",
      "blockHash": "0xa37d173a4c7f544042b58f998b8f9241a09d38181fadd2b17d4d9a7dc39d6587",
      "blockNumber": "0x515a07c",
      "gasUsed": "0xa3875",
      "effectiveGasPrice": "0x75fedc",
      "from": "0x45dce8e4f2dc005a5f28206a46cb034697eeda8e",
      "to": "0x7a07d606c87b7251c2953a30fa445d8c5f856c7a",
      "contractAddress": null
    }
  ],
  "libraries": [],
  "pending": [],
  "returns": {},
  "timestamp": 1778649648559,
  "chain": 43114,
  "commit": "3c1e5d2a"
}