{
  "transactions": [
    {
      "hash": "0x1c1bb587145e3ade5e10c8a6b39fef9bb73809bd8d82aca798fc5f8871d086ca",
      "transactionType": "CALL",
      "contractName": null,
      "contractAddress": "0x80eede496655fb9047dd39d9f418d5483ed600df",
      "function": "approve(address,uint256)",
      "arguments": [
        "0xc71BF5Ee4740405030eF521F18A96eA14fec802D",
        "10000000000000"
      ],
      "transaction": {
        "from": "0x45dce8e4f2dc005a5f28206a46cb034697eeda8e",
        "to": "0x80eede496655fb9047dd39d9f418d5483ed600df",
        "gas": "0x132ad",
        "value": "0x0",
        "input": "0x095ea7b3000000000000000000000000c71bf5ee4740405030ef521f18a96ea14fec802d000000000000000000000000000000000000000000000000000009184e72a000",
        "nonce": "0xe1",
        "chainId": "0x82"
      },
      "additionalContracts": [],
      "isFixedGasLimit": false
    },
    {
      "hash": "0xba680987f14e5ca0f83f5c5f7d4ac1c04da88bd454e3efd77734a5a078ef3898",
      "transactionType": "CALL",
      "contractName": null,
      "contractAddress": "0xc71bf5ee4740405030ef521f18a96ea14fec802d",
      "function": "sendOFT(address,uint32,bytes32,uint256)",
      "arguments": [
        "0x80Eede496655FB9047dd39d9f418d5483ED600df",
        "30332",
        "0x00000000000000000000000045dce8e4f2dc005a5f28206a46cb034697eeda8e",
        "10000000000000"
      ],
      "transaction": {
        "from": "0x45dce8e4f2dc005a5f28206a46cb034697eeda8e",
        "to": "0xc71bf5ee4740405030ef521f18a96ea14fec802d",
        "gas": "0xd0d12",
        "value": "0x3605746dbd0e",
        "input": "0x3e832c9000000000000000000000000080eede496655fb9047dd39d9f418d5483ed600df000000000000000000000000000000000000000000000000000000000000767c00000000000000000000000045dce8e4f2dc005a5f28206a46cb034697eeda8e000000000000000000000000000000000000000000000000000009184e72a000",
        "nonce": "0xe2",
        "chainId": "0x82"
      },
      "additionalContracts": [],
      "isFixedGasLimit": false
    },
    {
      "hash": "0xf5520c2dc495b0b4f98e9867604f521f25c87306092a0beac8b4bac88eea9b17",
      "transactionType": "CALL",
      "contractName": null,
      "contractAddress": "0x5bff88ca1442c2496f7e475e9e7786383bc070c0",
      "function": "approve(address,uint256)",
      "arguments": [
        "0xc71BF5Ee4740405030eF521F18A96eA14fec802D",
        "10000000000000"
      ],
      "transaction": {
        "from": "0x45dce8e4f2dc005a5f28206a46cb034697eeda8e",
        "to": "0x5bff88ca1442c2496f7e475e9e7786383bc070c0",
        "gas": "0x12184",
        "value": "0x0",
        "input": "0x095ea7b3000000000000000000000000c71bf5ee4740405030ef521f18a96ea14fec802d000000000000000000000000000000000000000000000000000009184e72a000",
        "nonce": "0xe3",
        "chainId": "0x82"
      },
      "additionalContracts": [],
      "isFixedGasLimit": false
    },
    {
      "hash": "0x37ea61b3852042673a599cb80ae3d8c76894d187f50170566b140606916710ea",
      "transactionType": "CALL",
      "contractName": null,
      "contractAddress": "0xc71bf5ee4740405030ef521f18a96ea14fec802d",
      "function": "sendOFT(address,uint32,bytes32,uint256)",
      "arguments": [
        "0x5Bff88cA1442c2496f7E475E9e7786383Bc070c0",
        "30332",
        "0x00000000000000000000000045dce8e4f2dc005a5f28206a46cb034697eeda8e",
        "10000000000000"
      ],
      "transaction": {
        "from": "0x45dce8e4f2dc005a5f28206a46cb034697eeda8e",
        "to": "0xc71bf5ee4740405030ef521f18a96ea14fec802d",
        "gas": "0xcc6ff",
        "value": "0x3605746dbd0e",
        "input": "0x3e832c900000000000000000000000005bff88ca1442c2496f7e475e9e7786383bc070c0000000000000000000000000000000000000000000000000000000000000767c00000000000000000000000045dce8e4f2dc005a5f28206a46cb034697eeda8e000000000000000000000000000000000000000000000000000009184e72a000",
        "nonce": "0xe4",
        "chainId": "0x82"
      },
      "additionalContracts": [],
      "isFixedGasLimit": false
    },
    {
      "hash": "0xdf1173ea9f681a758b15b33eaab847fcbc874431c1a01c9688b4682c3e2d9d20",
      "transactionType": "CALL",
      "contractName": null,
      "contractAddress": "0x43edd7f3831b08fe70b7555ddd373c8bf65a9050",
      "function": "approve(address,uint256)",
      "arguments": [
        "0xc71BF5Ee4740405030eF521F18A96eA14fec802D",
        "10000000000000"
      ],
      "transaction": {
        "from": "0x45dce8e4f2dc005a5f28206a46cb034697eeda8e",
        "to": "0x43edd7f3831b08fe70b7555ddd373c8bf65a9050",
        "gas": "0x132ad",
        "value": "0x0",
        "input": "0x095ea7b3000000000000000000000000c71bf5ee4740405030ef521f18a96ea14fec802d000000000000000000000000000000000000000000000000000009184e72a000",
        "nonce": "0xe5",
        "chainId": "0x82"
      },
      "additionalContracts": [],
      "isFixedGasLimit": false
    },
    {
      "hash": "0x59a0fdcf6c9e06616eb0c3210539be8867293d9464308ecf6158e4ce0fc24497",
      "transactionType": "CALL",
      "contractName": null,
      "contractAddress": "0xc71bf5ee4740405030ef521f18a96ea14fec802d",
      "function": "sendOFT(address,uint32,bytes32,uint256)",
      "arguments": [
        "0x43eDD7f3831b08FE70B7555ddD373C8bF65a9050",
        "30332",
        "0x00000000000000000000000045dce8e4f2dc005a5f28206a46cb034697eeda8e",
        "10000000000000"
      ],
      "transaction": {
        "from": "0x45dce8e4f2dc005a5f28206a46cb034697eeda8e",
        "to": "0xc71bf5ee4740405030ef521f18a96ea14fec802d",
        "gas": "0xd8789",
        "value": "0x3605746dbd0e",
        "input": "0x3e832c9000000000000000000000000043edd7f3831b08fe70b7555ddd373c8bf65a9050000000000000000000000000000000000000000000000000000000000000767c00000000000000000000000045dce8e4f2dc005a5f28206a46cb034697eeda8e000000000000000000000000000000000000000000000000000009184e72a000",
        "nonce": "0xe6",
        "chainId": "0x82"
      },
      "additionalContracts": [],
      "isFixedGasLimit": false
    },
    {
      "hash": "0xd346345072c9d7cdae8df69e10fab487dbe1caab7d190a11c1838898ca7fa86d",
      "transactionType": "CALL",
      "contractName": null,
      "contractAddress": "0x3ec3849c33291a9ef4c5db86de593eb4a37fde45",
      "function": "approve(address,uint256)",
      "arguments": [
        "0xc71BF5Ee4740405030eF521F18A96eA14fec802D",
        "10000000000000"
      ],
      "transaction": {
        "from": "0x45dce8e4f2dc005a5f28206a46cb034697eeda8e",
        "to": "0x3ec3849c33291a9ef4c5db86de593eb4a37fde45",
        "gas": "0x132ad",
        "value": "0x0",
        "input": "0x095ea7b3000000000000000000000000c71bf5ee4740405030ef521f18a96ea14fec802d000000000000000000000000000000000000000000000000000009184e72a000",
        "nonce": "0xe7",
        "chainId": "0x82"
      },
      "additionalContracts": [],
      "isFixedGasLimit": false
    },
    {
      "hash": "0x4190cfb85f49752663dbb5c218840ec08c375ccb83d317ab68d15b9c9bee3223",
      "transactionType": "CALL",
      "contractName": null,
      "contractAddress": "0xc71bf5ee4740405030ef521f18a96ea14fec802d",
      "function": "sendOFT(address,uint32,bytes32,uint256)",
      "arguments": [
        "0x3Ec3849C33291a9eF4c5dB86De593EB4A37fDe45",
        "30332",
        "0x00000000000000000000000045dce8e4f2dc005a5f28206a46cb034697eeda8e",
        "10000000000000"
      ],
      "transaction": {
        "from": "0x45dce8e4f2dc005a5f28206a46cb034697eeda8e",
        "to": "0xc71bf5ee4740405030ef521f18a96ea14fec802d",
        "gas": "0xe4aea",
        "value": "0x3605746dbd0e",
        "input": "0x3e832c900000000000000000000000003ec3849c33291a9ef4c5db86de593eb4a37fde45000000000000000000000000000000000000000000000000000000000000767c00000000000000000000000045dce8e4f2dc005a5f28206a46cb034697eeda8e000000000000000000000000000000000000000000000000000009184e72a000",
        "nonce": "0xe8",
        "chainId": "0x82"
      },
      "additionalContracts": [],
      "isFixedGasLimit": false
    },
    {
      "hash": "0xd677ed441c6eb866d05f0f3b3c8700a8aa0a57a1d5e4262661a065152e6bcffd",
      "transactionType": "CALL",
      "contractName": null,
      "contractAddress": "0x64445f0aecc51e94ad52d8ac56b7190e764e561a",
      "function": "approve(address,uint256)",
      "arguments": [
        "0xc71BF5Ee4740405030eF521F18A96eA14fec802D",
        "10000000000000"
      ],
      "transaction": {
        "from": "0x45dce8e4f2dc005a5f28206a46cb034697eeda8e",
        "to": "0x64445f0aecc51e94ad52d8ac56b7190e764e561a",
        "gas": "0x12184",
        "value": "0x0",
        "input": "0x095ea7b3000000000000000000000000c71bf5ee4740405030ef521f18a96ea14fec802d000000000000000000000000000000000000000000000000000009184e72a000",
        "nonce": "0xe9",
        "chainId": "0x82"
      },
      "additionalContracts": [],
      "isFixedGasLimit": false
    },
    {
      "hash": "0xfdaec4417e0405f0d3dc26506fb62eb8d26fb6a5c31ce274e3b441250e0de322",
      "transactionType": "CALL",
      "contractName": null,
      "contractAddress": "0xc71bf5ee4740405030ef521f18a96ea14fec802d",
      "function": "sendOFT(address,uint32,bytes32,uint256)",
      "arguments": [
        "0x64445f0aecC51E94aD52d8AC56b7190e764E561a",
        "30332",
        "0x00000000000000000000000045dce8e4f2dc005a5f28206a46cb034697eeda8e",
        "10000000000000"
      ],
      "transaction": {
        "from": "0x45dce8e4f2dc005a5f28206a46cb034697eeda8e",
        "to": "0xc71bf5ee4740405030ef521f18a96ea14fec802d",
        "gas": "0xcc6ff",
        "value": "0x3605746dbd0e",
        "input": "0x3e832c9000000000000000000000000064445f0aecc51e94ad52d8ac56b7190e764e561a000000000000000000000000000000000000000000000000000000000000767c00000000000000000000000045dce8e4f2dc005a5f28206a46cb034697eeda8e000000000000000000000000000000000000000000000000000009184e72a000",
        "nonce": "0xea",
        "chainId": "0x82"
      },
      "additionalContracts": [],
      "isFixedGasLimit": false
    },
    {
      "hash": "0x55b6e316e93cbca4572ba3cd1309220493e05716235206ae769aa75528699d59",
      "transactionType": "CALL",
      "contractName": null,
      "contractAddress": "0x90581eca9469d8d7f5d3b60f4715027adfcf7927",
      "function": "approve(address,uint256)",
      "arguments": [
        "0xc71BF5Ee4740405030eF521F18A96eA14fec802D",
        "10000000000000"
      ],
      "transaction": {
        "from": "0x45dce8e4f2dc005a5f28206a46cb034697eeda8e",
        "to": "0x90581eca9469d8d7f5d3b60f4715027adfcf7927",
        "gas": "0x132ad",
        "value": "0x0",
        "input": "0x095ea7b3000000000000000000000000c71bf5ee4740405030ef521f18a96ea14fec802d000000000000000000000000000000000000000000000000000009184e72a000",
        "nonce": "0xeb",
        "chainId": "0x82"
      },
      "additionalContracts": [],
      "isFixedGasLimit": false
    },
    {
      "hash": "0xff3552e6ab23a660e3f3f56c8707bf84156e46d17d667d21efb853410f9bd1a2",
      "transactionType": "CALL",
      "contractName": null,
      "contractAddress": "0xc71bf5ee4740405030ef521f18a96ea14fec802d",
      "function": "sendOFT(address,uint32,bytes32,uint256)",
      "arguments": [
        "0x90581eCa9469D8D7F5D3B60f4715027aDFCf7927",
        "30332",
        "0x00000000000000000000000045dce8e4f2dc005a5f28206a46cb034697eeda8e",
        "10000000000000"
      ],
      "transaction": {
        "from": "0x45dce8e4f2dc005a5f28206a46cb034697eeda8e",
        "to": "0xc71bf5ee4740405030ef521f18a96ea14fec802d",
        "gas": "0xd2361",
        "value": "0x3605746dbd0e",
        "input": "0x3e832c9000000000000000000000000090581eca9469d8d7f5d3b60f4715027adfcf7927000000000000000000000000000000000000000000000000000000000000767c00000000000000000000000045dce8e4f2dc005a5f28206a46cb034697eeda8e000000000000000000000000000000000000000000000000000009184e72a000",
        "nonce": "0xec",
        "chainId": "0x82"
      },
      "additionalContracts": [],
      "isFixedGasLimit": false
    }
  ],
  "receipts": [
    {
      "status": "0x1",
      "cumulativeGasUsed": "0x90cba",
      "logs": [
        {
          "address": "0x80eede496655fb9047dd39d9f418d5483ed600df",
          "topics": [
            "0x8c5be1e5ebec7d5bd14f71427d1e84f3dd0314c0f7b2291e5b200ac8c7c3b925",
            "0x00000000000000000000000045dce8e4f2dc005a5f28206a46cb034697eeda8e",
            "0x000000000000000000000000c71bf5ee4740405030ef521f18a96ea14fec802d"
          ],
          "data": "0x000000000000000000000000000000000000000000000000000009184e72a000",
          "blockHash": "0x91b7ed2136bc4324958caad6816019e229326597269353ce84764e52d750f848",
          "blockNumber": "0x2dac02b",
          "blockTimestamp": "0x6a03dff2",
          "transactionHash": "0xba680987f14e5ca0f83f5c5f7d4ac1c04da88bd454e3efd77734a5a078ef3898",
          "transactionIndex": "0x7",
          "logIndex": "0x5",
          "removed": false
        }
      ],
      "logsBloom": "0x00000000000000000000000200000000000000000000000000000000000000000000000000000000000000000800000000000000000000000000000200200000000000000000000000000000000000000000000000000000000000000000000000000000000000000000000000000000000000000000000000000000010000000000000000000000000000000000000000000000000000000000000000000000020000000000000000000000000000000000000000000000000000000000000000000000000000000000000000000002001000000000000000000000000000000010000000000000000000000000800002008000000000000000000000000000",
      "type": "0x2",
      "transactionHash": "0xba680987f14e5ca0f83f5c5f7d4ac1c04da88bd454e3efd77734a5a078ef3898",
      "transactionIndex": "0x7",
      "blockHash": "0x91b7ed2136bc4324958caad6816019e229326597269353ce84764e52d750f848",
      "blockNumber": "0x2dac02b",
      "gasUsed": "0xd1b2",
      "effectiveGasPrice": "0x7a121",
      "blobGasUsed": "0x9c40",
      "from": "0x45dce8e4f2dc005a5f28206a46cb034697eeda8e",
      "to": "0x80eede496655fb9047dd39d9f418d5483ed600df",
      "contractAddress": null,
      "daFootprintGasScalar": "0x190",
      "l1BaseFeeScalar": "0x7d0",
      "l1BlobBaseFee": "0x514e82",
      "l1BlobBaseFeeScalar": "0xdbba0",
      "l1Fee": "0x2ec1111a",
      "l1GasPrice": "0x5ad9550",
      "l1GasUsed": "0x640"
    },
    {
      "status": "0x1",
      "cumulativeGasUsed": "0x127f9a",
      "logs": [
        {
          "address": "0x80eede496655fb9047dd39d9f418d5483ed600df",
          "topics": [
            "0x8c5be1e5ebec7d5bd14f71427d1e84f3dd0314c0f7b2291e5b200ac8c7c3b925",
            "0x00000000000000000000000045dce8e4f2dc005a5f28206a46cb034697eeda8e",
            "0x000000000000000000000000c71bf5ee4740405030ef521f18a96ea14fec802d"
          ],
          "data": "0x0000000000000000000000000000000000000000000000000000000000000000",
          "blockHash": "0x91b7ed2136bc4324958caad6816019e229326597269353ce84764e52d750f848",
          "blockNumber": "0x2dac02b",
          "blockTimestamp": "0x6a03dff2",
          "transactionHash": "0xdf1173ea9f681a758b15b33eaab847fcbc874431c1a01c9688b4682c3e2d9d20",
          "transactionIndex": "0x8",
          "logIndex": "0x6",
          "removed": false
        },
        {
          "address": "0x80eede496655fb9047dd39d9f418d5483ed600df",
          "topics": [
            "0xddf252ad1be2c89b69c2b068fc378daa952ba7f163c4a11628f55a4df523b3ef",
            "0x00000000000000000000000045dce8e4f2dc005a5f28206a46cb034697eeda8e",
            "0x000000000000000000000000c71bf5ee4740405030ef521f18a96ea14fec802d"
          ],
          "data": "0x000000000000000000000000000000000000000000000000000009184e72a000",
          "blockHash": "0x91b7ed2136bc4324958caad6816019e229326597269353ce84764e52d750f848",
          "blockNumber": "0x2dac02b",
          "blockTimestamp": "0x6a03dff2",
          "transactionHash": "0xdf1173ea9f681a758b15b33eaab847fcbc874431c1a01c9688b4682c3e2d9d20",
          "transactionIndex": "0x8",
          "logIndex": "0x7",
          "removed": false
        },
        {
          "address": "0x80eede496655fb9047dd39d9f418d5483ed600df",
          "topics": [
            "0x8c5be1e5ebec7d5bd14f71427d1e84f3dd0314c0f7b2291e5b200ac8c7c3b925",
            "0x000000000000000000000000c71bf5ee4740405030ef521f18a96ea14fec802d",
            "0x00000000000000000000000080eede496655fb9047dd39d9f418d5483ed600df"
          ],
          "data": "0x000000000000000000000000000000000000000000000000000009184e72a000",
          "blockHash": "0x91b7ed2136bc4324958caad6816019e229326597269353ce84764e52d750f848",
          "blockNumber": "0x2dac02b",
          "blockTimestamp": "0x6a03dff2",
          "transactionHash": "0xdf1173ea9f681a758b15b33eaab847fcbc874431c1a01c9688b4682c3e2d9d20",
          "transactionIndex": "0x8",
          "logIndex": "0x8",
          "removed": false
        },
        {
          "address": "0x80eede496655fb9047dd39d9f418d5483ed600df",
          "topics": [
            "0xddf252ad1be2c89b69c2b068fc378daa952ba7f163c4a11628f55a4df523b3ef",
            "0x000000000000000000000000c71bf5ee4740405030ef521f18a96ea14fec802d",
            "0x0000000000000000000000000000000000000000000000000000000000000000"
          ],
          "data": "0x000000000000000000000000000000000000000000000000000009184e72a000",
          "blockHash": "0x91b7ed2136bc4324958caad6816019e229326597269353ce84764e52d750f848",
          "blockNumber": "0x2dac02b",
          "blockTimestamp": "0x6a03dff2",
          "transactionHash": "0xdf1173ea9f681a758b15b33eaab847fcbc874431c1a01c9688b4682c3e2d9d20",
          "transactionIndex": "0x8",
          "logIndex": "0x9",
          "removed": false
        },
        {
          "address": "0xc39161c743d0307eb9bcc9fef03eeb9dc4802de7",
          "topics": [
            "0x61ed099e74a97a1d7f8bb0952a88ca8b7b8ebd00c126ea04671f92a81213318a"
          ],
          "data": "0x0000000000000000000000004208d6e27538189bb48e603d6123a94b8abe0a0b0000000000000000000000000000000000000000000000000000081ccfcfe9e5",
          "blockHash": "0x91b7ed2136bc4324958caad6816019e229326597269353ce84764e52d750f848",
          "blockNumber": "0x2dac02b",
          "blockTimestamp": "0x6a03dff2",
          "transactionHash": "0xdf1173ea9f681a758b15b33eaab847fcbc874431c1a01c9688b4682c3e2d9d20",
          "transactionIndex": "0x8",
          "logIndex": "0xa",
          "removed": false
        },
        {
          "address": "0xc39161c743d0307eb9bcc9fef03eeb9dc4802de7",
          "topics": [
            "0x07ea52d82345d6e838192107d8fd7123d9c2ec8e916cd0aad13fd2b60db24644"
          ],
          "data": "0x000000000000000000000000000000000000000000000000000000000000006000000000000000000000000000000000000000000000000000000000000001200000000000000000000000000000000000000000000000000000000000000140000000000000000000000000000000000000000000000000000000000000000500000000000000000000000000a979a5d306e9c5f8cf473659e75f8002e06fc800000000000000000000000025e0e650a78e6304a3983fc4b7ffc6544b1beea6000000000000000000000000282b3386571f7f794450d5789911a9804fa346b400000000000000000000000097faa2a9c9bf8b4082b175a5b894ce6bac6697a8000000000000000000000000c6a6324932b399d6a673b7ed0af671f28033e046000000000000000000000000000000000000000000000000000000000000000000000000000000000000000000000000000000000000000000000000000000050000000000000000000000000000000000000000000000000000013fed00966c0000000000000000000000000000000000000000000000000000013fed00966c00000000000000000000000000000000000000000000000000000155ab4cdd2f00000000000000000000000000000000000000000000000000000155ab4cdd2f00000000000000000000000000000000000000000000000000000155ab4cdd2f",
          "blockHash": "0x91b7ed2136bc4324958caad6816019e229326597269353ce84764e52d750f848",
          "blockNumber": "0x2dac02b",
          "blockTimestamp": "0x6a03dff2",
          "transactionHash": "0xdf1173ea9f681a758b15b33eaab847fcbc874431c1a01c9688b4682c3e2d9d20",
          "transactionIndex": "0x8",
          "logIndex": "0xb",
          "removed": false
        },
        {
          "address": "0x6f475642a6e85809b1c36fa62763669b1b48dd5b",
          "topics": [
            "0x1ab700d4ced0c005b164c0f789fd09fcbb0156d4c2041b8a3bfbcd961cd1567f"
          ],
          "data": "0x00000000000000000000000000000000000000000000000000000000000000600000000000000000000000000000000000000000000000000000000000000180000000000000000000000000c39161c743d0307eb9bcc9fef03eeb9dc4802de700000000000000000000000000000000000000000000000000000000000000f901000000000000020f0000767000000000000000000000000080eede496655fb9047dd39d9f418d5483ed600df0000762f00000000000000000000000096a394058e2b84a89bac9667b19661ed003cf5d4c3a26580c044fd1b16384ae7dc640137ec1cf3631cb5a4475d6bce5d2b9374490000000000000000000000002a2019b30c157db6c1c01306b8025167dbe1803b000000000000000a000000000000000000000000c71bf5ee4740405030ef521f18a96ea14fec802d00000000000000000000000045dce8e4f2dc005a5f28206a46cb034697eeda8e000000000000000000000000000000000000000000000000000000000000767c00000000000000000000000000000000000000000000000000000000000000000000000000002c0003010011010000000000000000000000000003d090010013030000000000000000000000000000000f42400000000000000000000000000000000000000000",
          "blockHash": "0x91b7ed2136bc4324958caad6816019e229326597269353ce84764e52d750f848",
          "blockNumber": "0x2dac02b",
          "blockTimestamp": "0x6a03dff2",
          "transactionHash": "0xdf1173ea9f681a758b15b33eaab847fcbc874431c1a01c9688b4682c3e2d9d20",
          "transactionIndex": "0x8",
          "logIndex": "0xc",
          "removed": false
        },
        {
          "address": "0x80eede496655fb9047dd39d9f418d5483ed600df",
          "topics": [
            "0x85496b760a4b7f8d66384b9df21b381f5d1b1e79f229a47aaf4c232edc2fe59a",
            "0xc3a26580c044fd1b16384ae7dc640137ec1cf3631cb5a4475d6bce5d2b937449",
            "0x000000000000000000000000c71bf5ee4740405030ef521f18a96ea14fec802d"
          ],
          "data": "0x000000000000000000000000000000000000000000000000000000000000762f000000000000000000000000000000000000000000000000000009184e72a000000000000000000000000000000000000000000000000000000009184e72a000",
          "blockHash": "0x91b7ed2136bc4324958caad6816019e229326597269353ce84764e52d750f848",
          "blockNumber": "0x2dac02b",
          "blockTimestamp": "0x6a03dff2",
          "transactionHash": "0xdf1173ea9f681a758b15b33eaab847fcbc874431c1a01c9688b4682c3e2d9d20",
          "transactionIndex": "0x8",
          "logIndex": "0xd",
          "removed": false
        },
        {
          "address": "0xc71bf5ee4740405030ef521f18a96ea14fec802d",
          "topics": [
            "0xbc9ee36b6ca0bdd5b3840e6d329dd19a2490d880c7ce24d9818aa593adfb35be",
            "0x00000000000000000000000045dce8e4f2dc005a5f28206a46cb034697eeda8e",
            "0x000000000000000000000000000000000000000000000000000000000000767c",
            "0x00000000000000000000000045dce8e4f2dc005a5f28206a46cb034697eeda8e"
          ],
          "data": "0x00000000000000000000000080eede496655fb9047dd39d9f418d5483ed600df000000000000000000000000000000000000000000000000000009184e72a000",
          "blockHash": "0x91b7ed2136bc4324958caad6816019e229326597269353ce84764e52d750f848",
          "blockNumber": "0x2dac02b",
          "blockTimestamp": "0x6a03dff2",
          "transactionHash": "0xdf1173ea9f681a758b15b33eaab847fcbc874431c1a01c9688b4682c3e2d9d20",
          "transactionIndex": "0x8",
          "logIndex": "0xe",
          "removed": false
        }
      ],
      "logsBloom": "0x0010000000000000000000020000000000000000100000000000000000000000000008000000040000000000080000000000000000000000000000020020000000000200000000000000000a000000000140000000000000040000000000000000000000020000008020000000000800000000000000100000100010010000000000000000808000000000081000000000000000002000000000000000000000028000108000000020100000000000000000000000400000000440000000000000000002000000000000000080000002001000000000000000000000000020004010040020000000000080000000802002008000008000000000000000000000",
      "type": "0x2",
      "transactionHash": "0xdf1173ea9f681a758b15b33eaab847fcbc874431c1a01c9688b4682c3e2d9d20",
      "transactionIndex": "0x8",
      "blockHash": "0x91b7ed2136bc4324958caad6816019e229326597269353ce84764e52d750f848",
      "blockNumber": "0x2dac02b",
      "gasUsed": "0x972e0",
      "effectiveGasPrice": "0x7a121",
      "blobGasUsed": "0xb860",
      "from": "0x45dce8e4f2dc005a5f28206a46cb034697eeda8e",
      "to": "0xc71bf5ee4740405030ef521f18a96ea14fec802d",
      "contractAddress": null,
      "daFootprintGasScalar": "0x190",
      "l1BaseFeeScalar": "0x7d0",
      "l1BlobBaseFee": "0x514e82",
      "l1BlobBaseFeeScalar": "0xdbba0",
      "l1Fee": "0x37924d18",
      "l1GasPrice": "0x5ad9550",
      "l1GasUsed": "0x76d"
    },
    {
      "status": "0x1",
      "cumulativeGasUsed": "0x135136",
      "logs": [
        {
          "address": "0x5bff88ca1442c2496f7e475e9e7786383bc070c0",
          "topics": [
            "0x8c5be1e5ebec7d5bd14f71427d1e84f3dd0314c0f7b2291e5b200ac8c7c3b925",
            "0x00000000000000000000000045dce8e4f2dc005a5f28206a46cb034697eeda8e",
            "0x000000000000000000000000c71bf5ee4740405030ef521f18a96ea14fec802d"
          ],
          "data": "0x000000000000000000000000000000000000000000000000000009184e72a000",
          "blockHash": "0x91b7ed2136bc4324958caad6816019e229326597269353ce84764e52d750f848",
          "blockNumber": "0x2dac02b",
          "blockTimestamp": "0x6a03dff2",
          "transactionHash": "0x1c1bb587145e3ade5e10c8a6b39fef9bb73809bd8d82aca798fc5f8871d086ca",
          "transactionIndex": "0x9",
          "logIndex": "0xf",
          "removed": false
        }
      ],
      "logsBloom": "0x00000000000000000000000200000000000000000000000000000000000000000000000000000000000000000000000000000000000000000000000000200000000000000000000000000000000000000000000000000000000000000000000000000000000000000000000000000000000000000000000000000000000000000000000000000000000000000000000000000000000000000000000000000000020000000000000000000000000000000000000000000000000000000010000000000000000000000000000000000002001000800000000000000000000000000010000000000000000000000000800002008000000000000000000000000800",
      "type": "0x2",
      "transactionHash": "0x1c1bb587145e3ade5e10c8a6b39fef9bb73809bd8d82aca798fc5f8871d086ca",
      "transactionIndex": "0x9",
      "blockHash": "0x91b7ed2136bc4324958caad6816019e229326597269353ce84764e52d750f848",
      "blockNumber": "0x2dac02b",
      "gasUsed": "0xd19c",
      "effectiveGasPrice": "0x7a121",
      "blobGasUsed": "0x9c40",
      "from": "0x45dce8e4f2dc005a5f28206a46cb034697eeda8e",
      "to": "0x5bff88ca1442c2496f7e475e9e7786383bc070c0",
      "contractAddress": null,
      "daFootprintGasScalar": "0x190",
      "l1BaseFeeScalar": "0x7d0",
      "l1BlobBaseFee": "0x514e82",
      "l1BlobBaseFeeScalar": "0xdbba0",
      "l1Fee": "0x2ec1111a",
      "l1GasPrice": "0x5ad9550",
      "l1GasUsed": "0x640"
    },
    {
      "status": "0x1",
      "cumulativeGasUsed": "0x1c915b",
      "logs": [
        {
          "address": "0x5bff88ca1442c2496f7e475e9e7786383bc070c0",
          "topics": [
            "0x8c5be1e5ebec7d5bd14f71427d1e84f3dd0314c0f7b2291e5b200ac8c7c3b925",
            "0x00000000000000000000000045dce8e4f2dc005a5f28206a46cb034697eeda8e",
            "0x000000000000000000000000c71bf5ee4740405030ef521f18a96ea14fec802d"
          ],
          "data": "0x0000000000000000000000000000000000000000000000000000000000000000",
          "blockHash": "0x91b7ed2136bc4324958caad6816019e229326597269353ce84764e52d750f848",
          "blockNumber": "0x2dac02b",
          "blockTimestamp": "0x6a03dff2",
          "transactionHash": "0xf5520c2dc495b0b4f98e9867604f521f25c87306092a0beac8b4bac88eea9b17",
          "transactionIndex": "0xa",
          "logIndex": "0x10",
          "removed": false
        },
        {
          "address": "0x5bff88ca1442c2496f7e475e9e7786383bc070c0",
          "topics": [
            "0xddf252ad1be2c89b69c2b068fc378daa952ba7f163c4a11628f55a4df523b3ef",
            "0x00000000000000000000000045dce8e4f2dc005a5f28206a46cb034697eeda8e",
            "0x000000000000000000000000c71bf5ee4740405030ef521f18a96ea14fec802d"
          ],
          "data": "0x000000000000000000000000000000000000000000000000000009184e72a000",
          "blockHash": "0x91b7ed2136bc4324958caad6816019e229326597269353ce84764e52d750f848",
          "blockNumber": "0x2dac02b",
          "blockTimestamp": "0x6a03dff2",
          "transactionHash": "0xf5520c2dc495b0b4f98e9867604f521f25c87306092a0beac8b4bac88eea9b17",
          "transactionIndex": "0xa",
          "logIndex": "0x11",
          "removed": false
        },
        {
          "address": "0x5bff88ca1442c2496f7e475e9e7786383bc070c0",
          "topics": [
            "0x8c5be1e5ebec7d5bd14f71427d1e84f3dd0314c0f7b2291e5b200ac8c7c3b925",
            "0x000000000000000000000000c71bf5ee4740405030ef521f18a96ea14fec802d",
            "0x0000000000000000000000005bff88ca1442c2496f7e475e9e7786383bc070c0"
          ],
          "data": "0x000000000000000000000000000000000000000000000000000009184e72a000",
          "blockHash": "0x91b7ed2136bc4324958caad6816019e229326597269353ce84764e52d750f848",
          "blockNumber": "0x2dac02b",
          "blockTimestamp": "0x6a03dff2",
          "transactionHash": "0xf5520c2dc495b0b4f98e9867604f521f25c87306092a0beac8b4bac88eea9b17",
          "transactionIndex": "0xa",
          "logIndex": "0x12",
          "removed": false
        },
        {
          "address": "0x5bff88ca1442c2496f7e475e9e7786383bc070c0",
          "topics": [
            "0xddf252ad1be2c89b69c2b068fc378daa952ba7f163c4a11628f55a4df523b3ef",
            "0x000000000000000000000000c71bf5ee4740405030ef521f18a96ea14fec802d",
            "0x0000000000000000000000000000000000000000000000000000000000000000"
          ],
          "data": "0x000000000000000000000000000000000000000000000000000009184e72a000",
          "blockHash": "0x91b7ed2136bc4324958caad6816019e229326597269353ce84764e52d750f848",
          "blockNumber": "0x2dac02b",
          "blockTimestamp": "0x6a03dff2",
          "transactionHash": "0xf5520c2dc495b0b4f98e9867604f521f25c87306092a0beac8b4bac88eea9b17",
          "transactionIndex": "0xa",
          "logIndex": "0x13",
          "removed": false
        },
        {
          "address": "0xc39161c743d0307eb9bcc9fef03eeb9dc4802de7",
          "topics": [
            "0x61ed099e74a97a1d7f8bb0952a88ca8b7b8ebd00c126ea04671f92a81213318a"
          ],
          "data": "0x0000000000000000000000004208d6e27538189bb48e603d6123a94b8abe0a0b0000000000000000000000000000000000000000000000000000081ccfcfe9e5",
          "blockHash": "0x91b7ed2136bc4324958caad6816019e229326597269353ce84764e52d750f848",
          "blockNumber": "0x2dac02b",
          "blockTimestamp": "0x6a03dff2",
          "transactionHash": "0xf5520c2dc495b0b4f98e9867604f521f25c87306092a0beac8b4bac88eea9b17",
          "transactionIndex": "0xa",
          "logIndex": "0x14",
          "removed": false
        },
        {
          "address": "0xc39161c743d0307eb9bcc9fef03eeb9dc4802de7",
          "topics": [
            "0x07ea52d82345d6e838192107d8fd7123d9c2ec8e916cd0aad13fd2b60db24644"
          ],
          "data": "0x000000000000000000000000000000000000000000000000000000000000006000000000000000000000000000000000000000000000000000000000000001200000000000000000000000000000000000000000000000000000000000000140000000000000000000000000000000000000000000000000000000000000000500000000000000000000000000a979a5d306e9c5f8cf473659e75f8002e06fc800000000000000000000000025e0e650a78e6304a3983fc4b7ffc6544b1beea6000000000000000000000000282b3386571f7f794450d5789911a9804fa346b400000000000000000000000097faa2a9c9bf8b4082b175a5b894ce6bac6697a8000000000000000000000000c6a6324932b399d6a673b7ed0af671f28033e046000000000000000000000000000000000000000000000000000000000000000000000000000000000000000000000000000000000000000000000000000000050000000000000000000000000000000000000000000000000000013fed00966c0000000000000000000000000000000000000000000000000000013fed00966c00000000000000000000000000000000000000000000000000000155ab4cdd2f00000000000000000000000000000000000000000000000000000155ab4cdd2f00000000000000000000000000000000000000000000000000000155ab4cdd2f",
          "blockHash": "0x91b7ed2136bc4324958caad6816019e229326597269353ce84764e52d750f848",
          "blockNumber": "0x2dac02b",
          "blockTimestamp": "0x6a03dff2",
          "transactionHash": "0xf5520c2dc495b0b4f98e9867604f521f25c87306092a0beac8b4bac88eea9b17",
          "transactionIndex": "0xa",
          "logIndex": "0x15",
          "removed": false
        },
        {
          "address": "0x6f475642a6e85809b1c36fa62763669b1b48dd5b",
          "topics": [
            "0x1ab700d4ced0c005b164c0f789fd09fcbb0156d4c2041b8a3bfbcd961cd1567f"
          ],
          "data": "0x00000000000000000000000000000000000000000000000000000000000000600000000000000000000000000000000000000000000000000000000000000180000000000000000000000000c39161c743d0307eb9bcc9fef03eeb9dc4802de700000000000000000000000000000000000000000000000000000000000000f9010000000000000004000076700000000000000000000000005bff88ca1442c2496f7e475e9e7786383bc070c00000762f00000000000000000000000088aa7854d3b2daa5e37e7ce73a1f39669623a361769c47d9e2a6624b551689eca1e521ea1567b4d665790c3e3685aa3306ce7d3d0000000000000000000000002a2019b30c157db6c1c01306b8025167dbe1803b000000000000000a000000000000000000000000c71bf5ee4740405030ef521f18a96ea14fec802d00000000000000000000000045dce8e4f2dc005a5f28206a46cb034697eeda8e000000000000000000000000000000000000000000000000000000000000767c00000000000000000000000000000000000000000000000000000000000000000000000000002c0003010011010000000000000000000000000003d090010013030000000000000000000000000000000f42400000000000000000000000000000000000000000",
          "blockHash": "0x91b7ed2136bc4324958caad6816019e229326597269353ce84764e52d750f848",
          "blockNumber": "0x2dac02b",
          "blockTimestamp": "0x6a03dff2",
          "transactionHash": "0xf5520c2dc495b0b4f98e9867604f521f25c87306092a0beac8b4bac88eea9b17",
          "transactionIndex": "0xa",
          "logIndex": "0x16",
          "removed": false
        },
        {
          "address": "0x5bff88ca1442c2496f7e475e9e7786383bc070c0",
          "topics": [
            "0x85496b760a4b7f8d66384b9df21b381f5d1b1e79f229a47aaf4c232edc2fe59a",
            "0x769c47d9e2a6624b551689eca1e521ea1567b4d665790c3e3685aa3306ce7d3d",
            "0x000000000000000000000000c71bf5ee4740405030ef521f18a96ea14fec802d"
          ],
          "data": "0x000000000000000000000000000000000000000000000000000000000000762f000000000000000000000000000000000000000000000000000009184e72a000000000000000000000000000000000000000000000000000000009184e72a000",
          "blockHash": "0x91b7ed2136bc4324958caad6816019e229326597269353ce84764e52d750f848",
          "blockNumber": "0x2dac02b",
          "blockTimestamp": "0x6a03dff2",
          "transactionHash": "0xf5520c2dc495b0b4f98e9867604f521f25c87306092a0beac8b4bac88eea9b17",
          "transactionIndex": "0xa",
          "logIndex": "0x17",
          "removed": false
        },
        {
          "address": "0xc71bf5ee4740405030ef521f18a96ea14fec802d",
          "topics": [
            "0xbc9ee36b6ca0bdd5b3840e6d329dd19a2490d880c7ce24d9818aa593adfb35be",
            "0x00000000000000000000000045dce8e4f2dc005a5f28206a46cb034697eeda8e",
            "0x000000000000000000000000000000000000000000000000000000000000767c",
            "0x00000000000000000000000045dce8e4f2dc005a5f28206a46cb034697eeda8e"
          ],
          "data": "0x0000000000000000000000005bff88ca1442c2496f7e475e9e7786383bc070c0000000000000000000000000000000000000000000000000000009184e72a000",
          "blockHash": "0x91b7ed2136bc4324958caad6816019e229326597269353ce84764e52d750f848",
          "blockNumber": "0x2dac02b",
          "blockTimestamp": "0x6a03dff2",
          "transactionHash": "0xf5520c2dc495b0b4f98e9867604f521f25c87306092a0beac8b4bac88eea9b17",
          "transactionIndex": "0xa",
          "logIndex": "0x18",
          "removed": false
        }
      ],
      "logsBloom": "0x0010000000000000000000020000000000000000100000000000000000000000000100000000000000000000000000000000000000000000000000000020000000000208000000000000000a000000000140000000000000000000000000000000000000020004008020000000000800000000000000100000000010000000000000001000808000000000081000000000000000000000000000000000000000028000108000000020100000000000000400000000400000000440000010000000000002000000000000000080000002001000800000000000000000000020004010040000000000000080040000802002008000008000000000000000000800",
      "type": "0x2",
      "transactionHash": "0xf5520c2dc495b0b4f98e9867604f521f25c87306092a0beac8b4bac88eea9b17",
      "transactionIndex": "0xa",
      "blockHash": "0x91b7ed2136bc4324958caad6816019e229326597269353ce84764e52d750f848",
      "blockNumber": "0x2dac02b",
      "gasUsed": "0x94025",
      "effectiveGasPrice": "0x7a121",
      "blobGasUsed": "0xb860",
      "from": "0x45dce8e4f2dc005a5f28206a46cb034697eeda8e",
      "to": "0xc71bf5ee4740405030ef521f18a96ea14fec802d",
      "contractAddress": null,
      "daFootprintGasScalar": "0x190",
      "l1BaseFeeScalar": "0x7d0",
      "l1BlobBaseFee": "0x514e82",
      "l1BlobBaseFeeScalar": "0xdbba0",
      "l1Fee": "0x37924d18",
      "l1GasPrice": "0x5ad9550",
      "l1GasUsed": "0x76d"
    },
    {
      "status": "0x1",
      "cumulativeGasUsed": "0x1d630d",
      "logs": [
        {
          "address": "0x43edd7f3831b08fe70b7555ddd373c8bf65a9050",
          "topics": [
            "0x8c5be1e5ebec7d5bd14f71427d1e84f3dd0314c0f7b2291e5b200ac8c7c3b925",
            "0x00000000000000000000000045dce8e4f2dc005a5f28206a46cb034697eeda8e",
            "0x000000000000000000000000c71bf5ee4740405030ef521f18a96ea14fec802d"
          ],
          "data": "0x000000000000000000000000000000000000000000000000000009184e72a000",
          "blockHash": "0x91b7ed2136bc4324958caad6816019e229326597269353ce84764e52d750f848",
          "blockNumber": "0x2dac02b",
          "blockTimestamp": "0x6a03dff2",
          "transactionHash": "0x4190cfb85f49752663dbb5c218840ec08c375ccb83d317ab68d15b9c9bee3223",
          "transactionIndex": "0xb",
          "logIndex": "0x19",
          "removed": false
        }
      ],
      "logsBloom": "0x00000000000000000000000200000000000000000000000000000000000000000000000000000000000000000000000000000000000000000000000000200000000000000000000000000000000000000000000000000000000000000000000000000000000000000000000000000000000000000000000000000000000000000000000000000000000000000000000000000000000000000000000000000000020000000000000002000000000000000000000000000000000000000000000000000000000000000000000000000002001000000000000000000000000000000010000000000000000000040000800002008000000000000000000000080000",
      "type": "0x2",
      "transactionHash": "0x4190cfb85f49752663dbb5c218840ec08c375ccb83d317ab68d15b9c9bee3223",
      "transactionIndex": "0xb",
      "blockHash": "0x91b7ed2136bc4324958caad6816019e229326597269353ce84764e52d750f848",
      "blockNumber": "0x2dac02b",
      "gasUsed": "0xd1b2",
      "effectiveGasPrice": "0x7a121",
      "blobGasUsed": "0x9c40",
      "from": "0x45dce8e4f2dc005a5f28206a46cb034697eeda8e",
      "to": "0x43edd7f3831b08fe70b7555ddd373c8bf65a9050",
      "contractAddress": null,
      "daFootprintGasScalar": "0x190",
      "l1BaseFeeScalar": "0x7d0",
      "l1BlobBaseFee": "0x514e82",
      "l1BlobBaseFeeScalar": "0xdbba0",
      "l1Fee": "0x2ec1111a",
      "l1GasPrice": "0x5ad9550",
      "l1GasUsed": "0x640"
    },
    {
      "status": "0x1",
      "cumulativeGasUsed": "0x26a348",
      "logs": [
        {
          "address": "0x43edd7f3831b08fe70b7555ddd373c8bf65a9050",
          "topics": [
            "0x8c5be1e5ebec7d5bd14f71427d1e84f3dd0314c0f7b2291e5b200ac8c7c3b925",
            "0x00000000000000000000000045dce8e4f2dc005a5f28206a46cb034697eeda8e",
            "0x000000000000000000000000c71bf5ee4740405030ef521f18a96ea14fec802d"
          ],
          "data": "0x0000000000000000000000000000000000000000000000000000000000000000",
          "blockHash": "0x91b7ed2136bc4324958caad6816019e229326597269353ce84764e52d750f848",
          "blockNumber": "0x2dac02b",
          "blockTimestamp": "0x6a03dff2",
          "transactionHash": "0x37ea61b3852042673a599cb80ae3d8c76894d187f50170566b140606916710ea",
          "transactionIndex": "0xc",
          "logIndex": "0x1a",
          "removed": false
        },
        {
          "address": "0x43edd7f3831b08fe70b7555ddd373c8bf65a9050",
          "topics": [
            "0xddf252ad1be2c89b69c2b068fc378daa952ba7f163c4a11628f55a4df523b3ef",
            "0x00000000000000000000000045dce8e4f2dc005a5f28206a46cb034697eeda8e",
            "0x000000000000000000000000c71bf5ee4740405030ef521f18a96ea14fec802d"
          ],
          "data": "0x000000000000000000000000000000000000000000000000000009184e72a000",
          "blockHash": "0x91b7ed2136bc4324958caad6816019e229326597269353ce84764e52d750f848",
          "blockNumber": "0x2dac02b",
          "blockTimestamp": "0x6a03dff2",
          "transactionHash": "0x37ea61b3852042673a599cb80ae3d8c76894d187f50170566b140606916710ea",
          "transactionIndex": "0xc",
          "logIndex": "0x1b",
          "removed": false
        },
        {
          "address": "0x43edd7f3831b08fe70b7555ddd373c8bf65a9050",
          "topics": [
            "0x8c5be1e5ebec7d5bd14f71427d1e84f3dd0314c0f7b2291e5b200ac8c7c3b925",
            "0x000000000000000000000000c71bf5ee4740405030ef521f18a96ea14fec802d",
            "0x00000000000000000000000043edd7f3831b08fe70b7555ddd373c8bf65a9050"
          ],
          "data": "0x000000000000000000000000000000000000000000000000000009184e72a000",
          "blockHash": "0x91b7ed2136bc4324958caad6816019e229326597269353ce84764e52d750f848",
          "blockNumber": "0x2dac02b",
          "blockTimestamp": "0x6a03dff2",
          "transactionHash": "0x37ea61b3852042673a599cb80ae3d8c76894d187f50170566b140606916710ea",
          "transactionIndex": "0xc",
          "logIndex": "0x1c",
          "removed": false
        },
        {
          "address": "0x43edd7f3831b08fe70b7555ddd373c8bf65a9050",
          "topics": [
            "0xddf252ad1be2c89b69c2b068fc378daa952ba7f163c4a11628f55a4df523b3ef",
            "0x000000000000000000000000c71bf5ee4740405030ef521f18a96ea14fec802d",
            "0x0000000000000000000000000000000000000000000000000000000000000000"
          ],
          "data": "0x000000000000000000000000000000000000000000000000000009184e72a000",
          "blockHash": "0x91b7ed2136bc4324958caad6816019e229326597269353ce84764e52d750f848",
          "blockNumber": "0x2dac02b",
          "blockTimestamp": "0x6a03dff2",
          "transactionHash": "0x37ea61b3852042673a599cb80ae3d8c76894d187f50170566b140606916710ea",
          "transactionIndex": "0xc",
          "logIndex": "0x1d",
          "removed": false
        },
        {
          "address": "0xc39161c743d0307eb9bcc9fef03eeb9dc4802de7",
          "topics": [
            "0x61ed099e74a97a1d7f8bb0952a88ca8b7b8ebd00c126ea04671f92a81213318a"
          ],
          "data": "0x0000000000000000000000004208d6e27538189bb48e603d6123a94b8abe0a0b0000000000000000000000000000000000000000000000000000081ccfcfe9e5",
          "blockHash": "0x91b7ed2136bc4324958caad6816019e229326597269353ce84764e52d750f848",
          "blockNumber": "0x2dac02b",
          "blockTimestamp": "0x6a03dff2",
          "transactionHash": "0x37ea61b3852042673a599cb80ae3d8c76894d187f50170566b140606916710ea",
          "transactionIndex": "0xc",
          "logIndex": "0x1e",
          "removed": false
        },
        {
          "address": "0xc39161c743d0307eb9bcc9fef03eeb9dc4802de7",
          "topics": [
            "0x07ea52d82345d6e838192107d8fd7123d9c2ec8e916cd0aad13fd2b60db24644"
          ],
          "data": "0x000000000000000000000000000000000000000000000000000000000000006000000000000000000000000000000000000000000000000000000000000001200000000000000000000000000000000000000000000000000000000000000140000000000000000000000000000000000000000000000000000000000000000500000000000000000000000000a979a5d306e9c5f8cf473659e75f8002e06fc800000000000000000000000025e0e650a78e6304a3983fc4b7ffc6544b1beea6000000000000000000000000282b3386571f7f794450d5789911a9804fa346b400000000000000000000000097faa2a9c9bf8b4082b175a5b894ce6bac6697a8000000000000000000000000c6a6324932b399d6a673b7ed0af671f28033e046000000000000000000000000000000000000000000000000000000000000000000000000000000000000000000000000000000000000000000000000000000050000000000000000000000000000000000000000000000000000013fed00966c0000000000000000000000000000000000000000000000000000013fed00966c00000000000000000000000000000000000000000000000000000155ab4cdd2f00000000000000000000000000000000000000000000000000000155ab4cdd2f00000000000000000000000000000000000000000000000000000155ab4cdd2f",
          "blockHash": "0x91b7ed2136bc4324958caad6816019e229326597269353ce84764e52d750f848",
          "blockNumber": "0x2dac02b",
          "blockTimestamp": "0x6a03dff2",
          "transactionHash": "0x37ea61b3852042673a599cb80ae3d8c76894d187f50170566b140606916710ea",
          "transactionIndex": "0xc",
          "logIndex": "0x1f",
          "removed": false
        },
        {
          "address": "0x6f475642a6e85809b1c36fa62763669b1b48dd5b",
          "topics": [
            "0x1ab700d4ced0c005b164c0f789fd09fcbb0156d4c2041b8a3bfbcd961cd1567f"
          ],
          "data": "0x00000000000000000000000000000000000000000000000000000000000000600000000000000000000000000000000000000000000000000000000000000180000000000000000000000000c39161c743d0307eb9bcc9fef03eeb9dc4802de700000000000000000000000000000000000000000000000000000000000000f901000000000000000a0000767000000000000000000000000043edd7f3831b08fe70b7555ddd373c8bf65a90500000762f0000000000000000000000009abfe1f8a999b0011ecd6116649aee8d575f5604a82a6f126ce37ad2745dccace2afae41265a4cca84e92fa8b28287b7fc3d4eb00000000000000000000000002a2019b30c157db6c1c01306b8025167dbe1803b000000000000000a000000000000000000000000c71bf5ee4740405030ef521f18a96ea14fec802d00000000000000000000000045dce8e4f2dc005a5f28206a46cb034697eeda8e000000000000000000000000000000000000000000000000000000000000767c00000000000000000000000000000000000000000000000000000000000000000000000000002c0003010011010000000000000000000000000003d090010013030000000000000000000000000000000f42400000000000000000000000000000000000000000",
          "blockHash": "0x91b7ed2136bc4324958caad6816019e229326597269353ce84764e52d750f848",
          "blockNumber": "0x2dac02b",
          "blockTimestamp": "0x6a03dff2",
          "transactionHash": "0x37ea61b3852042673a599cb80ae3d8c76894d187f50170566b140606916710ea",
          "transactionIndex": "0xc",
          "logIndex": "0x20",
          "removed": false
        },
        {
          "address": "0x43edd7f3831b08fe70b7555ddd373c8bf65a9050",
          "topics": [
            "0x85496b760a4b7f8d66384b9df21b381f5d1b1e79f229a47aaf4c232edc2fe59a",
            "0xa82a6f126ce37ad2745dccace2afae41265a4cca84e92fa8b28287b7fc3d4eb0",
            "0x000000000000000000000000c71bf5ee4740405030ef521f18a96ea14fec802d"
          ],
          "data": "0x000000000000000000000000000000000000000000000000000000000000762f000000000000000000000000000000000000000000000000000009184e72a000000000000000000000000000000000000000000000000000000009184e72a000",
          "blockHash": "0x91b7ed2136bc4324958caad6816019e229326597269353ce84764e52d750f848",
          "blockNumber": "0x2dac02b",
          "blockTimestamp": "0x6a03dff2",
          "transactionHash": "0x37ea61b3852042673a599cb80ae3d8c76894d187f50170566b140606916710ea",
          "transactionIndex": "0xc",
          "logIndex": "0x21",
          "removed": false
        },
        {
          "address": "0xc71bf5ee4740405030ef521f18a96ea14fec802d",
          "topics": [
            "0xbc9ee36b6ca0bdd5b3840e6d329dd19a2490d880c7ce24d9818aa593adfb35be",
            "0x00000000000000000000000045dce8e4f2dc005a5f28206a46cb034697eeda8e",
            "0x000000000000000000000000000000000000000000000000000000000000767c",
            "0x00000000000000000000000045dce8e4f2dc005a5f28206a46cb034697eeda8e"
          ],
          "data": "0x00000000000000000000000043edd7f3831b08fe70b7555ddd373c8bf65a9050000000000000000000000000000000000000000000000000000009184e72a000",
          "blockHash": "0x91b7ed2136bc4324958caad6816019e229326597269353ce84764e52d750f848",
          "blockNumber": "0x2dac02b",
          "blockTimestamp": "0x6a03dff2",
          "transactionHash": "0x37ea61b3852042673a599cb80ae3d8c76894d187f50170566b140606916710ea",
          "transactionIndex": "0xc",
          "logIndex": "0x22",
          "removed": false
        }
      ],
      "logsBloom": "0x0010000000000000000000020000000000000080100000000000000000000001000000000000000000000000000000000000000000000000000800000020000000000200000000000000000a000000000140000000002000000000000000000000000000020000008020000000000800000000000000100000000010000000000000000000808000000000081000000000000000000000000000000100000000028000108000000022100000000000000000000000400000000440000000020000000002000000000000000080000002001000000000000000000000000020004010040000000000000080040000802002008000008000000000000000080000",
      "type": "0x2",
      "transactionHash": "0x37ea61b3852042673a599cb80ae3d8c76894d187f50170566b140606916710ea",
      "transactionIndex": "0xc",
      "blockHash": "0x91b7ed2136bc4324958caad6816019e229326597269353ce84764e52d750f848",
      "blockNumber": "0x2dac02b",
      "gasUsed": "0x9403b",
      "effectiveGasPrice": "0x7a121",
      "blobGasUsed": "0xb860",
      "from": "0x45dce8e4f2dc005a5f28206a46cb034697eeda8e",
      "to": "0xc71bf5ee4740405030ef521f18a96ea14fec802d",
      "contractAddress": null,
      "daFootprintGasScalar": "0x190",
      "l1BaseFeeScalar": "0x7d0",
      "l1BlobBaseFee": "0x514e82",
      "l1BlobBaseFeeScalar": "0xdbba0",
      "l1Fee": "0x37924d18",
      "l1GasPrice": "0x5ad9550",
      "l1GasUsed": "0x76d"
    },
    {
      "status": "0x1",
      "cumulativeGasUsed": "0x2774fa",
      "logs": [
        {
          "address": "0x3ec3849c33291a9ef4c5db86de593eb4a37fde45",
          "topics": [
            "0x8c5be1e5ebec7d5bd14f71427d1e84f3dd0314c0f7b2291e5b200ac8c7c3b925",
            "0x00000000000000000000000045dce8e4f2dc005a5f28206a46cb034697eeda8e",
            "0x000000000000000000000000c71bf5ee4740405030ef521f18a96ea14fec802d"
          ],
          "data": "0x000000000000000000000000000000000000000000000000000009184e72a000",
          "blockHash": "0x91b7ed2136bc4324958caad6816019e229326597269353ce84764e52d750f848",
          "blockNumber": "0x2dac02b",
          "blockTimestamp": "0x6a03dff2",
          "transactionHash": "0x59a0fdcf6c9e06616eb0c3210539be8867293d9464308ecf6158e4ce0fc24497",
          "transactionIndex": "0xd",
          "logIndex": "0x23",
          "removed": false
        }
      ],
      "logsBloom": "0x00000000000000000000000200002000000000000000000000000000000000000000000000000000000000000000000000000000000000000000000000200000000000000000000000000000000000000000000000000000000000000000000000000000000000000000000000000000000000000000000000000000000000000000000000000000000000000000000000000000000020000040000000000000020000000000000000000000000000000000000000000000000000000000000000000000000000000000000000000002001000000000000000000000000000000010000000000000000000000000800002008000000000000000000000000000",
      "type": "0x2",
      "transactionHash": "0x59a0fdcf6c9e06616eb0c3210539be8867293d9464308ecf6158e4ce0fc24497",
      "transactionIndex": "0xd",
      "blockHash": "0x91b7ed2136bc4324958caad6816019e229326597269353ce84764e52d750f848",
      "blockNumber": "0x2dac02b",
      "gasUsed": "0xd1b2",
      "effectiveGasPrice": "0x7a121",
      "blobGasUsed": "0x9c40",
      "from": "0x45dce8e4f2dc005a5f28206a46cb034697eeda8e",
      "to": "0x3ec3849c33291a9ef4c5db86de593eb4a37fde45",
      "contractAddress": null,
      "daFootprintGasScalar": "0x190",
      "l1BaseFeeScalar": "0x7d0",
      "l1BlobBaseFee": "0x514e82",
      "l1BlobBaseFeeScalar": "0xdbba0",
      "l1Fee": "0x2ec1111a",
      "l1GasPrice": "0x5ad9550",
      "l1GasUsed": "0x640"
    },
    {
      "status": "0x1",
      "cumulativeGasUsed": "0x313acd",
      "logs": [
        {
          "address": "0x3ec3849c33291a9ef4c5db86de593eb4a37fde45",
          "topics": [
            "0x8c5be1e5ebec7d5bd14f71427d1e84f3dd0314c0f7b2291e5b200ac8c7c3b925",
            "0x00000000000000000000000045dce8e4f2dc005a5f28206a46cb034697eeda8e",
            "0x000000000000000000000000c71bf5ee4740405030ef521f18a96ea14fec802d"
          ],
          "data": "0x0000000000000000000000000000000000000000000000000000000000000000",
          "blockHash": "0x91b7ed2136bc4324958caad6816019e229326597269353ce84764e52d750f848",
          "blockNumber": "0x2dac02b",
          "blockTimestamp": "0x6a03dff2",
          "transactionHash": "0xd677ed441c6eb866d05f0f3b3c8700a8aa0a57a1d5e4262661a065152e6bcffd",
          "transactionIndex": "0xe",
          "logIndex": "0x24",
          "removed": false
        },
        {
          "address": "0x3ec3849c33291a9ef4c5db86de593eb4a37fde45",
          "topics": [
            "0xddf252ad1be2c89b69c2b068fc378daa952ba7f163c4a11628f55a4df523b3ef",
            "0x00000000000000000000000045dce8e4f2dc005a5f28206a46cb034697eeda8e",
            "0x000000000000000000000000c71bf5ee4740405030ef521f18a96ea14fec802d"
          ],
          "data": "0x000000000000000000000000000000000000000000000000000009184e72a000",
          "blockHash": "0x91b7ed2136bc4324958caad6816019e229326597269353ce84764e52d750f848",
          "blockNumber": "0x2dac02b",
          "blockTimestamp": "0x6a03dff2",
          "transactionHash": "0xd677ed441c6eb866d05f0f3b3c8700a8aa0a57a1d5e4262661a065152e6bcffd",
          "transactionIndex": "0xe",
          "logIndex": "0x25",
          "removed": false
        },
        {
          "address": "0x3ec3849c33291a9ef4c5db86de593eb4a37fde45",
          "topics": [
            "0x8c5be1e5ebec7d5bd14f71427d1e84f3dd0314c0f7b2291e5b200ac8c7c3b925",
            "0x000000000000000000000000c71bf5ee4740405030ef521f18a96ea14fec802d",
            "0x0000000000000000000000003ec3849c33291a9ef4c5db86de593eb4a37fde45"
          ],
          "data": "0x000000000000000000000000000000000000000000000000000009184e72a000",
          "blockHash": "0x91b7ed2136bc4324958caad6816019e229326597269353ce84764e52d750f848",
          "blockNumber": "0x2dac02b",
          "blockTimestamp": "0x6a03dff2",
          "transactionHash": "0xd677ed441c6eb866d05f0f3b3c8700a8aa0a57a1d5e4262661a065152e6bcffd",
          "transactionIndex": "0xe",
          "logIndex": "0x26",
          "removed": false
        },
        {
          "address": "0x3ec3849c33291a9ef4c5db86de593eb4a37fde45",
          "topics": [
            "0xddf252ad1be2c89b69c2b068fc378daa952ba7f163c4a11628f55a4df523b3ef",
            "0x000000000000000000000000c71bf5ee4740405030ef521f18a96ea14fec802d",
            "0x0000000000000000000000000000000000000000000000000000000000000000"
          ],
          "data": "0x000000000000000000000000000000000000000000000000000009184e72a000",
          "blockHash": "0x91b7ed2136bc4324958caad6816019e229326597269353ce84764e52d750f848",
          "blockNumber": "0x2dac02b",
          "blockTimestamp": "0x6a03dff2",
          "transactionHash": "0xd677ed441c6eb866d05f0f3b3c8700a8aa0a57a1d5e4262661a065152e6bcffd",
          "transactionIndex": "0xe",
          "logIndex": "0x27",
          "removed": false
        },
        {
          "address": "0xc39161c743d0307eb9bcc9fef03eeb9dc4802de7",
          "topics": [
            "0x61ed099e74a97a1d7f8bb0952a88ca8b7b8ebd00c126ea04671f92a81213318a"
          ],
          "data": "0x0000000000000000000000004208d6e27538189bb48e603d6123a94b8abe0a0b0000000000000000000000000000000000000000000000000000081ccfcfe9e5",
          "blockHash": "0x91b7ed2136bc4324958caad6816019e229326597269353ce84764e52d750f848",
          "blockNumber": "0x2dac02b",
          "blockTimestamp": "0x6a03dff2",
          "transactionHash": "0xd677ed441c6eb866d05f0f3b3c8700a8aa0a57a1d5e4262661a065152e6bcffd",
          "transactionIndex": "0xe",
          "logIndex": "0x28",
          "removed": false
        },
        {
          "address": "0xc39161c743d0307eb9bcc9fef03eeb9dc4802de7",
          "topics": [
            "0x07ea52d82345d6e838192107d8fd7123d9c2ec8e916cd0aad13fd2b60db24644"
          ],
          "data": "0x000000000000000000000000000000000000000000000000000000000000006000000000000000000000000000000000000000000000000000000000000001200000000000000000000000000000000000000000000000000000000000000140000000000000000000000000000000000000000000000000000000000000000500000000000000000000000000a979a5d306e9c5f8cf473659e75f8002e06fc800000000000000000000000025e0e650a78e6304a3983fc4b7ffc6544b1beea6000000000000000000000000282b3386571f7f794450d5789911a9804fa346b400000000000000000000000097faa2a9c9bf8b4082b175a5b894ce6bac6697a8000000000000000000000000c6a6324932b399d6a673b7ed0af671f28033e046000000000000000000000000000000000000000000000000000000000000000000000000000000000000000000000000000000000000000000000000000000050000000000000000000000000000000000000000000000000000013fed00966c0000000000000000000000000000000000000000000000000000013fed00966c00000000000000000000000000000000000000000000000000000155ab4cdd2f00000000000000000000000000000000000000000000000000000155ab4cdd2f00000000000000000000000000000000000000000000000000000155ab4cdd2f",
          "blockHash": "0x91b7ed2136bc4324958caad6816019e229326597269353ce84764e52d750f848",
          "blockNumber": "0x2dac02b",
          "blockTimestamp": "0x6a03dff2",
          "transactionHash": "0xd677ed441c6eb866d05f0f3b3c8700a8aa0a57a1d5e4262661a065152e6bcffd",
          "transactionIndex": "0xe",
          "logIndex": "0x29",
          "removed": false
        },
        {
          "address": "0x6f475642a6e85809b1c36fa62763669b1b48dd5b",
          "topics": [
            "0x1ab700d4ced0c005b164c0f789fd09fcbb0156d4c2041b8a3bfbcd961cd1567f"
          ],
          "data": "0x00000000000000000000000000000000000000000000000000000000000000600000000000000000000000000000000000000000000000000000000000000180000000000000000000000000c39161c743d0307eb9bcc9fef03eeb9dc4802de700000000000000000000000000000000000000000000000000000000000000f9010000000000000001000076700000000000000000000000003ec3849c33291a9ef4c5db86de593eb4a37fde450000762f000000000000000000000000999dfabe3b1cc2ef66eb032eea42fea329bba1684909456b9827a8bdf0e2e614cb721f800484b0d4ac5aa4453bdd4ba6f3553c490000000000000000000000002a2019b30c157db6c1c01306b8025167dbe1803b000000000000000a000000000000000000000000c71bf5ee4740405030ef521f18a96ea14fec802d00000000000000000000000045dce8e4f2dc005a5f28206a46cb034697eeda8e000000000000000000000000000000000000000000000000000000000000767c00000000000000000000000000000000000000000000000000000000000000000000000000002c0003010011010000000000000000000000000003d090010013030000000000000000000000000000000f42400000000000000000000000000000000000000000",
          "blockHash": "0x91b7ed2136bc4324958caad6816019e229326597269353ce84764e52d750f848",
          "blockNumber": "0x2dac02b",
          "blockTimestamp": "0x6a03dff2",
          "transactionHash": "0xd677ed441c6eb866d05f0f3b3c8700a8aa0a57a1d5e4262661a065152e6bcffd",
          "transactionIndex": "0xe",
          "logIndex": "0x2a",
          "removed": false
        },
        {
          "address": "0x3ec3849c33291a9ef4c5db86de593eb4a37fde45",
          "topics": [
            "0x85496b760a4b7f8d66384b9df21b381f5d1b1e79f229a47aaf4c232edc2fe59a",
            "0x4909456b9827a8bdf0e2e614cb721f800484b0d4ac5aa4453bdd4ba6f3553c49",
            "0x000000000000000000000000c71bf5ee4740405030ef521f18a96ea14fec802d"
          ],
          "data": "0x000000000000000000000000000000000000000000000000000000000000762f000000000000000000000000000000000000000000000000000009184e72a000000000000000000000000000000000000000000000000000000009184e72a000",
          "blockHash": "0x91b7ed2136bc4324958caad6816019e229326597269353ce84764e52d750f848",
          "blockNumber": "0x2dac02b",
          "blockTimestamp": "0x6a03dff2",
          "transactionHash": "0xd677ed441c6eb866d05f0f3b3c8700a8aa0a57a1d5e4262661a065152e6bcffd",
          "transactionIndex": "0xe",
          "logIndex": "0x2b",
          "removed": false
        },
        {
          "address": "0xc71bf5ee4740405030ef521f18a96ea14fec802d",
          "topics": [
            "0xbc9ee36b6ca0bdd5b3840e6d329dd19a2490d880c7ce24d9818aa593adfb35be",
            "0x00000000000000000000000045dce8e4f2dc005a5f28206a46cb034697eeda8e",
            "0x000000000000000000000000000000000000000000000000000000000000767c",
            "0x00000000000000000000000045dce8e4f2dc005a5f28206a46cb034697eeda8e"
          ],
          "data": "0x0000000000000000000000003ec3849c33291a9ef4c5db86de593eb4a37fde45000000000000000000000000000000000000000000000000000009184e72a000",
          "blockHash": "0x91b7ed2136bc4324958caad6816019e229326597269353ce84764e52d750f848",
          "blockNumber": "0x2dac02b",
          "blockTimestamp": "0x6a03dff2",
          "transactionHash": "0xd677ed441c6eb866d05f0f3b3c8700a8aa0a57a1d5e4262661a065152e6bcffd",
          "transactionIndex": "0xe",
          "logIndex": "0x2c",
          "removed": false
        }
      ],
      "logsBloom": "0x0010000000000000010000020000200000000000100000000000000000000000000000000000000000000000000000000000000000000000000000000020002000000200000000000000000a000000000140000000000000000000000000000000000000020000008020000000000800000000000000100000000010000000000000000200808000000000081000000000000000000020000040004000000000028000108000000020100000400000000000000000400000000440000000000000000002000000000000000080000002001000000000000000000000000020004010040000004000000080000000802002008000008000000000000000000000",
      "type": "0x2",
      "transactionHash": "0xd677ed441c6eb866d05f0f3b3c8700a8aa0a57a1d5e4262661a065152e6bcffd",
      "transactionIndex": "0xe",
      "blockHash": "0x91b7ed2136bc4324958caad6816019e229326597269353ce84764e52d750f848",
      "blockNumber": "0x2dac02b",
      "gasUsed": "0x9c5d3",
      "effectiveGasPrice": "0x7a121",
      "blobGasUsed": "0xb860",
      "from": "0x45dce8e4f2dc005a5f28206a46cb034697eeda8e",
      "to": "0xc71bf5ee4740405030ef521f18a96ea14fec802d",
      "contractAddress": null,
      "daFootprintGasScalar": "0x190",
      "l1BaseFeeScalar": "0x7d0",
      "l1BlobBaseFee": "0x514e82",
      "l1BlobBaseFeeScalar": "0xdbba0",
      "l1Fee": "0x37924d18",
      "l1GasPrice": "0x5ad9550",
      "l1GasUsed": "0x76d"
    },
    {
      "status": "0x1",
      "cumulativeGasUsed": "0x320c69",
      "logs": [
        {
          "address": "0x64445f0aecc51e94ad52d8ac56b7190e764e561a",
          "topics": [
            "0x8c5be1e5ebec7d5bd14f71427d1e84f3dd0314c0f7b2291e5b200ac8c7c3b925",
            "0x00000000000000000000000045dce8e4f2dc005a5f28206a46cb034697eeda8e",
            "0x000000000000000000000000c71bf5ee4740405030ef521f18a96ea14fec802d"
          ],
          "data": "0x000000000000000000000000000000000000000000000000000009184e72a000",
          "blockHash": "0x91b7ed2136bc4324958caad6816019e229326597269353ce84764e52d750f848",
          "blockNumber": "0x2dac02b",
          "blockTimestamp": "0x6a03dff2",
          "transactionHash": "0xd346345072c9d7cdae8df69e10fab487dbe1caab7d190a11c1838898ca7fa86d",
          "transactionIndex": "0xf",
          "logIndex": "0x2d",
          "removed": false
        }
      ],
      "logsBloom": "0x00000000000000000000000200000000000000000000000000000000000000000000000000000000000000000000000000000000000000000000000000200000002000000000000000000000000000000000000000000000000000000000000000000000000000000000000000000000000000000000000000000000000000000000000000000000000000000000000000000000000000000000000000000000020000000000000000000008000000000000000000000000000000000000000000000000000000000000000000000002001000000000000000000000000000000010000000000000000000000000800002008008000000000000000000000000",
      "type": "0x2",
      "transactionHash": "0xd346345072c9d7cdae8df69e10fab487dbe1caab7d190a11c1838898ca7fa86d",
      "transactionIndex": "0xf",
      "blockHash": "0x91b7ed2136bc4324958caad6816019e229326597269353ce84764e52d750f848",
      "blockNumber": "0x2dac02b",
      "gasUsed": "0xd19c",
      "effectiveGasPrice": "0x7a121",
      "blobGasUsed": "0x9c40",
      "from": "0x45dce8e4f2dc005a5f28206a46cb034697eeda8e",
      "to": "0x64445f0aecc51e94ad52d8ac56b7190e764e561a",
      "contractAddress": null,
      "daFootprintGasScalar": "0x190",
      "l1BaseFeeScalar": "0x7d0",
      "l1BlobBaseFee": "0x514e82",
      "l1BlobBaseFeeScalar": "0xdbba0",
      "l1Fee": "0x2ec1111a",
      "l1GasPrice": "0x5ad9550",
      "l1GasUsed": "0x640"
    },
    {
      "status": "0x1",
      "cumulativeGasUsed": "0x3b4c8e",
      "logs": [
        {
          "address": "0x64445f0aecc51e94ad52d8ac56b7190e764e561a",
          "topics": [
            "0x8c5be1e5ebec7d5bd14f71427d1e84f3dd0314c0f7b2291e5b200ac8c7c3b925",
            "0x00000000000000000000000045dce8e4f2dc005a5f28206a46cb034697eeda8e",
            "0x000000000000000000000000c71bf5ee4740405030ef521f18a96ea14fec802d"
          ],
          "data": "0x0000000000000000000000000000000000000000000000000000000000000000",
          "blockHash": "0x91b7ed2136bc4324958caad6816019e229326597269353ce84764e52d750f848",
          "blockNumber": "0x2dac02b",
          "blockTimestamp": "0x6a03dff2",
          "transactionHash": "0x55b6e316e93cbca4572ba3cd1309220493e05716235206ae769aa75528699d59",
          "transactionIndex": "0x10",
          "logIndex": "0x2e",
          "removed": false
        },
        {
          "address": "0x64445f0aecc51e94ad52d8ac56b7190e764e561a",
          "topics": [
            "0xddf252ad1be2c89b69c2b068fc378daa952ba7f163c4a11628f55a4df523b3ef",
            "0x00000000000000000000000045dce8e4f2dc005a5f28206a46cb034697eeda8e",
            "0x000000000000000000000000c71bf5ee4740405030ef521f18a96ea14fec802d"
          ],
          "data": "0x000000000000000000000000000000000000000000000000000009184e72a000",
          "blockHash": "0x91b7ed2136bc4324958caad6816019e229326597269353ce84764e52d750f848",
          "blockNumber": "0x2dac02b",
          "blockTimestamp": "0x6a03dff2",
          "transactionHash": "0x55b6e316e93cbca4572ba3cd1309220493e05716235206ae769aa75528699d59",
          "transactionIndex": "0x10",
          "logIndex": "0x2f",
          "removed": false
        },
        {
          "address": "0x64445f0aecc51e94ad52d8ac56b7190e764e561a",
          "topics": [
            "0x8c5be1e5ebec7d5bd14f71427d1e84f3dd0314c0f7b2291e5b200ac8c7c3b925",
            "0x000000000000000000000000c71bf5ee4740405030ef521f18a96ea14fec802d",
            "0x00000000000000000000000064445f0aecc51e94ad52d8ac56b7190e764e561a"
          ],
          "data": "0x000000000000000000000000000000000000000000000000000009184e72a000",
          "blockHash": "0x91b7ed2136bc4324958caad6816019e229326597269353ce84764e52d750f848",
          "blockNumber": "0x2dac02b",
          "blockTimestamp": "0x6a03dff2",
          "transactionHash": "0x55b6e316e93cbca4572ba3cd1309220493e05716235206ae769aa75528699d59",
          "transactionIndex": "0x10",
          "logIndex": "0x30",
          "removed": false
        },
        {
          "address": "0x64445f0aecc51e94ad52d8ac56b7190e764e561a",
          "topics": [
            "0xddf252ad1be2c89b69c2b068fc378daa952ba7f163c4a11628f55a4df523b3ef",
            "0x000000000000000000000000c71bf5ee4740405030ef521f18a96ea14fec802d",
            "0x0000000000000000000000000000000000000000000000000000000000000000"
          ],
          "data": "0x000000000000000000000000000000000000000000000000000009184e72a000",
          "blockHash": "0x91b7ed2136bc4324958caad6816019e229326597269353ce84764e52d750f848",
          "blockNumber": "0x2dac02b",
          "blockTimestamp": "0x6a03dff2",
          "transactionHash": "0x55b6e316e93cbca4572ba3cd1309220493e05716235206ae769aa75528699d59",
          "transactionIndex": "0x10",
          "logIndex": "0x31",
          "removed": false
        },
        {
          "address": "0xc39161c743d0307eb9bcc9fef03eeb9dc4802de7",
          "topics": [
            "0x61ed099e74a97a1d7f8bb0952a88ca8b7b8ebd00c126ea04671f92a81213318a"
          ],
          "data": "0x0000000000000000000000004208d6e27538189bb48e603d6123a94b8abe0a0b0000000000000000000000000000000000000000000000000000081ccfcfe9e5",
          "blockHash": "0x91b7ed2136bc4324958caad6816019e229326597269353ce84764e52d750f848",
          "blockNumber": "0x2dac02b",
          "blockTimestamp": "0x6a03dff2",
          "transactionHash": "0x55b6e316e93cbca4572ba3cd1309220493e05716235206ae769aa75528699d59",
          "transactionIndex": "0x10",
          "logIndex": "0x32",
          "removed": false
        },
        {
          "address": "0xc39161c743d0307eb9bcc9fef03eeb9dc4802de7",
          "topics": [
            "0x07ea52d82345d6e838192107d8fd7123d9c2ec8e916cd0aad13fd2b60db24644"
          ],
          "data": "0x000000000000000000000000000000000000000000000000000000000000006000000000000000000000000000000000000000000000000000000000000001200000000000000000000000000000000000000000000000000000000000000140000000000000000000000000000000000000000000000000000000000000000500000000000000000000000000a979a5d306e9c5f8cf473659e75f8002e06fc800000000000000000000000025e0e650a78e6304a3983fc4b7ffc6544b1beea6000000000000000000000000282b3386571f7f794450d5789911a9804fa346b400000000000000000000000097faa2a9c9bf8b4082b175a5b894ce6bac6697a8000000000000000000000000c6a6324932b399d6a673b7ed0af671f28033e046000000000000000000000000000000000000000000000000000000000000000000000000000000000000000000000000000000000000000000000000000000050000000000000000000000000000000000000000000000000000013fed00966c0000000000000000000000000000000000000000000000000000013fed00966c00000000000000000000000000000000000000000000000000000155ab4cdd2f00000000000000000000000000000000000000000000000000000155ab4cdd2f00000000000000000000000000000000000000000000000000000155ab4cdd2f",
          "blockHash": "0x91b7ed2136bc4324958caad6816019e229326597269353ce84764e52d750f848",
          "blockNumber": "0x2dac02b",
          "blockTimestamp": "0x6a03dff2",
          "transactionHash": "0x55b6e316e93cbca4572ba3cd1309220493e05716235206ae769aa75528699d59",
          "transactionIndex": "0x10",
          "logIndex": "0x33",
          "removed": false
        },
        {
          "address": "0x6f475642a6e85809b1c36fa62763669b1b48dd5b",
          "topics": [
            "0x1ab700d4ced0c005b164c0f789fd09fcbb0156d4c2041b8a3bfbcd961cd1567f"
          ],
          "data": "0x00000000000000000000000000000000000000000000000000000000000000600000000000000000000000000000000000000000000000000000000000000180000000000000000000000000c39161c743d0307eb9bcc9fef03eeb9dc4802de700000000000000000000000000000000000000000000000000000000000000f90100000000000002e70000767000000000000000000000000064445f0aecc51e94ad52d8ac56b7190e764e561a0000762f000000000000000000000000d86fbbd0c8715d2c1f40e451e5c3514e65e7576adb3e488cfde2633b766e19abce91cb37b2d4c637b114970602831dd47d32b0460000000000000000000000002a2019b30c157db6c1c01306b8025167dbe1803b000000000000000a000000000000000000000000c71bf5ee4740405030ef521f18a96ea14fec802d00000000000000000000000045dce8e4f2dc005a5f28206a46cb034697eeda8e000000000000000000000000000000000000000000000000000000000000767c00000000000000000000000000000000000000000000000000000000000000000000000000002c0003010011010000000000000000000000000003d090010013030000000000000000000000000000000f42400000000000000000000000000000000000000000",
          "blockHash": "0x91b7ed2136bc4324958caad6816019e229326597269353ce84764e52d750f848",
          "blockNumber": "0x2dac02b",
          "blockTimestamp": "0x6a03dff2",
          "transactionHash": "0x55b6e316e93cbca4572ba3cd1309220493e05716235206ae769aa75528699d59",
          "transactionIndex": "0x10",
          "logIndex": "0x34",
          "removed": false
        },
        {
          "address": "0x64445f0aecc51e94ad52d8ac56b7190e764e561a",
          "topics": [
            "0x85496b760a4b7f8d66384b9df21b381f5d1b1e79f229a47aaf4c232edc2fe59a",
            "0xdb3e488cfde2633b766e19abce91cb37b2d4c637b114970602831dd47d32b046",
            "0x000000000000000000000000c71bf5ee4740405030ef521f18a96ea14fec802d"
          ],
          "data": "0x000000000000000000000000000000000000000000000000000000000000762f000000000000000000000000000000000000000000000000000009184e72a000000000000000000000000000000000000000000000000000000009184e72a000",
          "blockHash": "0x91b7ed2136bc4324958caad6816019e229326597269353ce84764e52d750f848",
          "blockNumber": "0x2dac02b",
          "blockTimestamp": "0x6a03dff2",
          "transactionHash": "0x55b6e316e93cbca4572ba3cd1309220493e05716235206ae769aa75528699d59",
          "transactionIndex": "0x10",
          "logIndex": "0x35",
          "removed": false
        },
        {
          "address": "0xc71bf5ee4740405030ef521f18a96ea14fec802d",
          "topics": [
            "0xbc9ee36b6ca0bdd5b3840e6d329dd19a2490d880c7ce24d9818aa593adfb35be",
            "0x00000000000000000000000045dce8e4f2dc005a5f28206a46cb034697eeda8e",
            "0x000000000000000000000000000000000000000000000000000000000000767c",
            "0x00000000000000000000000045dce8e4f2dc005a5f28206a46cb034697eeda8e"
          ],
          "data": "0x00000000000000000000000064445f0aecc51e94ad52d8ac56b7190e764e561a000000000000000000000000000000000000000000000000000009184e72a000",
          "blockHash": "0x91b7ed2136bc4324958caad6816019e229326597269353ce84764e52d750f848",
          "blockNumber": "0x2dac02b",
          "blockTimestamp": "0x6a03dff2",
          "transactionHash": "0x55b6e316e93cbca4572ba3cd1309220493e05716235206ae769aa75528699d59",
          "transactionIndex": "0x10",
          "logIndex": "0x36",
          "removed": false
        }
      ],
      "logsBloom": "0x0010000000000000000000020000000000000008100000000000000000000000000000000000000000000000000000000000000000000000000000000020000000200200000000000000000a00000000014000000000000000000000000000000000000002000000802000000000080000000000000010000000001000000000000000000080800000000008100000000000000000000000000000000000000002800010800008002010000c000000000000000000400000000440000000000000000002000000000000000080000002001000000000000000000000000020004010440000000000000080000000802802008008008000000000000000000002",
      "type": "0x2",
      "transactionHash": "0x55b6e316e93cbca4572ba3cd1309220493e05716235206ae769aa75528699d59",
      "transactionIndex": "0x10",
      "blockHash": "0x91b7ed2136bc4324958caad6816019e229326597269353ce84764e52d750f848",
      "blockNumber": "0x2dac02b",
      "gasUsed": "0x94025",
      "effectiveGasPrice": "0x7a121",
      "blobGasUsed": "0xb860",
      "from": "0x45dce8e4f2dc005a5f28206a46cb034697eeda8e",
      "to": "0xc71bf5ee4740405030ef521f18a96ea14fec802d",
      "contractAddress": null,
      "daFootprintGasScalar": "0x190",
      "l1BaseFeeScalar": "0x7d0",
      "l1BlobBaseFee": "0x514e82",
      "l1BlobBaseFeeScalar": "0xdbba0",
      "l1Fee": "0x37924d18",
      "l1GasPrice": "0x5ad9550",
      "l1GasUsed": "0x76d"
    },
    {
      "status": "0x1",
      "cumulativeGasUsed": "0x3c1e40",
      "logs": [
        {
          "address": "0x90581eca9469d8d7f5d3b60f4715027adfcf7927",
          "topics": [
            "0x8c5be1e5ebec7d5bd14f71427d1e84f3dd0314c0f7b2291e5b200ac8c7c3b925",
            "0x00000000000000000000000045dce8e4f2dc005a5f28206a46cb034697eeda8e",
            "0x000000000000000000000000c71bf5ee4740405030ef521f18a96ea14fec802d"
          ],
          "data": "0x000000000000000000000000000000000000000000000000000009184e72a000",
          "blockHash": "0x91b7ed2136bc4324958caad6816019e229326597269353ce84764e52d750f848",
          "blockNumber": "0x2dac02b",
          "blockTimestamp": "0x6a03dff2",
          "transactionHash": "0xff3552e6ab23a660e3f3f56c8707bf84156e46d17d667d21efb853410f9bd1a2",
          "transactionIndex": "0x11",
          "logIndex": "0x37",
          "removed": false
        }
      ],
      "logsBloom": "0x00000000000000000000000200000000000000000000000000000000000000000000000000000000000000000000000000000000000000000000000000200000000000000000000000000000000000000000000000000000000000000000000000000000000000000000000000000000000000000000000000000000000000000000000000000004000010000000000000000000000000000000000000000000020000000000000000000000000000000000000000000000000000000000000000000000000000000000000000000002001000000000000000000000000000000010000000000000000000000000800002408000000000000000000000000000",
      "type": "0x2",
      "transactionHash": "0xff3552e6ab23a660e3f3f56c8707bf84156e46d17d667d21efb853410f9bd1a2",
      "transactionIndex": "0x11",
      "blockHash": "0x91b7ed2136bc4324958caad6816019e229326597269353ce84764e52d750f848",
      "blockNumber": "0x2dac02b",
      "gasUsed": "0xd1b2",
      "effectiveGasPrice": "0x7a121",
      "blobGasUsed": "0x9c40",
      "from": "0x45dce8e4f2dc005a5f28206a46cb034697eeda8e",
      "to": "0x90581eca9469d8d7f5d3b60f4715027adfcf7927",
      "contractAddress": null,
      "daFootprintGasScalar": "0x190",
      "l1BaseFeeScalar": "0x7d0",
      "l1BlobBaseFee": "0x514e82",
      "l1BlobBaseFeeScalar": "0xdbba0",
      "l1Fee": "0x2ec1111a",
      "l1GasPrice": "0x5ad9550",
      "l1GasUsed": "0x640"
    },
    {
      "status": "0x1",
      "cumulativeGasUsed": "0x45a147",
      "logs": [
        {
          "address": "0x90581eca9469d8d7f5d3b60f4715027adfcf7927",
          "topics": [
            "0x8c5be1e5ebec7d5bd14f71427d1e84f3dd0314c0f7b2291e5b200ac8c7c3b925",
            "0x00000000000000000000000045dce8e4f2dc005a5f28206a46cb034697eeda8e",
            "0x000000000000000000000000c71bf5ee4740405030ef521f18a96ea14fec802d"
          ],
          "data": "0x0000000000000000000000000000000000000000000000000000000000000000",
          "blockHash": "0x91b7ed2136bc4324958caad6816019e229326597269353ce84764e52d750f848",
          "blockNumber": "0x2dac02b",
          "blockTimestamp": "0x6a03dff2",
          "transactionHash": "0xfdaec4417e0405f0d3dc26506fb62eb8d26fb6a5c31ce274e3b441250e0de322",
          "transactionIndex": "0x12",
          "logIndex": "0x38",
          "removed": false
        },
        {
          "address": "0x90581eca9469d8d7f5d3b60f4715027adfcf7927",
          "topics": [
            "0xddf252ad1be2c89b69c2b068fc378daa952ba7f163c4a11628f55a4df523b3ef",
            "0x00000000000000000000000045dce8e4f2dc005a5f28206a46cb034697eeda8e",
            "0x000000000000000000000000c71bf5ee4740405030ef521f18a96ea14fec802d"
          ],
          "data": "0x000000000000000000000000000000000000000000000000000009184e72a000",
          "blockHash": "0x91b7ed2136bc4324958caad6816019e229326597269353ce84764e52d750f848",
          "blockNumber": "0x2dac02b",
          "blockTimestamp": "0x6a03dff2",
          "transactionHash": "0xfdaec4417e0405f0d3dc26506fb62eb8d26fb6a5c31ce274e3b441250e0de322",
          "transactionIndex": "0x12",
          "logIndex": "0x39",
          "removed": false
        },
        {
          "address": "0x90581eca9469d8d7f5d3b60f4715027adfcf7927",
          "topics": [
            "0x8c5be1e5ebec7d5bd14f71427d1e84f3dd0314c0f7b2291e5b200ac8c7c3b925",
            "0x000000000000000000000000c71bf5ee4740405030ef521f18a96ea14fec802d",
            "0x00000000000000000000000090581eca9469d8d7f5d3b60f4715027adfcf7927"
          ],
          "data": "0x000000000000000000000000000000000000000000000000000009184e72a000",
          "blockHash": "0x91b7ed2136bc4324958caad6816019e229326597269353ce84764e52d750f848",
          "blockNumber": "0x2dac02b",
          "blockTimestamp": "0x6a03dff2",
          "transactionHash": "0xfdaec4417e0405f0d3dc26506fb62eb8d26fb6a5c31ce274e3b441250e0de322",
          "transactionIndex": "0x12",
          "logIndex": "0x3a",
          "removed": false
        },
        {
          "address": "0x90581eca9469d8d7f5d3b60f4715027adfcf7927",
          "topics": [
            "0xddf252ad1be2c89b69c2b068fc378daa952ba7f163c4a11628f55a4df523b3ef",
            "0x000000000000000000000000c71bf5ee4740405030ef521f18a96ea14fec802d",
            "0x0000000000000000000000000000000000000000000000000000000000000000"
          ],
          "data": "0x000000000000000000000000000000000000000000000000000009184e72a000",
          "blockHash": "0x91b7ed2136bc4324958caad6816019e229326597269353ce84764e52d750f848",
          "blockNumber": "0x2dac02b",
          "blockTimestamp": "0x6a03dff2",
          "transactionHash": "0xfdaec4417e0405f0d3dc26506fb62eb8d26fb6a5c31ce274e3b441250e0de322",
          "transactionIndex": "0x12",
          "logIndex": "0x3b",
          "removed": false
        },
        {
          "address": "0xc39161c743d0307eb9bcc9fef03eeb9dc4802de7",
          "topics": [
            "0x61ed099e74a97a1d7f8bb0952a88ca8b7b8ebd00c126ea04671f92a81213318a"
          ],
          "data": "0x0000000000000000000000004208d6e27538189bb48e603d6123a94b8abe0a0b0000000000000000000000000000000000000000000000000000081ccfcfe9e5",
          "blockHash": "0x91b7ed2136bc4324958caad6816019e229326597269353ce84764e52d750f848",
          "blockNumber": "0x2dac02b",
          "blockTimestamp": "0x6a03dff2",
          "transactionHash": "0xfdaec4417e0405f0d3dc26506fb62eb8d26fb6a5c31ce274e3b441250e0de322",
          "transactionIndex": "0x12",
          "logIndex": "0x3c",
          "removed": false
        },
        {
          "address": "0xc39161c743d0307eb9bcc9fef03eeb9dc4802de7",
          "topics": [
            "0x07ea52d82345d6e838192107d8fd7123d9c2ec8e916cd0aad13fd2b60db24644"
          ],
          "data": "0x000000000000000000000000000000000000000000000000000000000000006000000000000000000000000000000000000000000000000000000000000001200000000000000000000000000000000000000000000000000000000000000140000000000000000000000000000000000000000000000000000000000000000500000000000000000000000000a979a5d306e9c5f8cf473659e75f8002e06fc800000000000000000000000025e0e650a78e6304a3983fc4b7ffc6544b1beea6000000000000000000000000282b3386571f7f794450d5789911a9804fa346b400000000000000000000000097faa2a9c9bf8b4082b175a5b894ce6bac6697a8000000000000000000000000c6a6324932b399d6a673b7ed0af671f28033e046000000000000000000000000000000000000000000000000000000000000000000000000000000000000000000000000000000000000000000000000000000050000000000000000000000000000000000000000000000000000013fed00966c0000000000000000000000000000000000000000000000000000013fed00966c00000000000000000000000000000000000000000000000000000155ab4cdd2f00000000000000000000000000000000000000000000000000000155ab4cdd2f00000000000000000000000000000000000000000000000000000155ab4cdd2f",
          "blockHash": "0x91b7ed2136bc4324958caad6816019e229326597269353ce84764e52d750f848",
          "blockNumber": "0x2dac02b",
          "blockTimestamp": "0x6a03dff2",
          "transactionHash": "0xfdaec4417e0405f0d3dc26506fb62eb8d26fb6a5c31ce274e3b441250e0de322",
          "transactionIndex": "0x12",
          "logIndex": "0x3d",
          "removed": false
        },
        {
          "address": "0x6f475642a6e85809b1c36fa62763669b1b48dd5b",
          "topics": [
            "0x1ab700d4ced0c005b164c0f789fd09fcbb0156d4c2041b8a3bfbcd961cd1567f"
          ],
          "data": "0x00000000000000000000000000000000000000000000000000000000000000600000000000000000000000000000000000000000000000000000000000000180000000000000000000000000c39161c743d0307eb9bcc9fef03eeb9dc4802de700000000000000000000000000000000000000000000000000000000000000f90100000000000000020000767000000000000000000000000090581eca9469d8d7f5d3b60f4715027adfcf79270000762f00000000000000000000000075c38d46001b0f8108c4136216bd2694982c20fc20503adcb1236d984127f7700b320db52634b766fda53a89974aef679129ef700000000000000000000000002a2019b30c157db6c1c01306b8025167dbe1803b000000000000000a000000000000000000000000c71bf5ee4740405030ef521f18a96ea14fec802d00000000000000000000000045dce8e4f2dc005a5f28206a46cb034697eeda8e000000000000000000000000000000000000000000000000000000000000767c00000000000000000000000000000000000000000000000000000000000000000000000000002c0003010011010000000000000000000000000003d090010013030000000000000000000000000000000f42400000000000000000000000000000000000000000",
          "blockHash": "0x91b7ed2136bc4324958caad6816019e229326597269353ce84764e52d750f848",
          "blockNumber": "0x2dac02b",
          "blockTimestamp": "0x6a03dff2",
          "transactionHash": "0xfdaec4417e0405f0d3dc26506fb62eb8d26fb6a5c31ce274e3b441250e0de322",
          "transactionIndex": "0x12",
          "logIndex": "0x3e",
          "removed": false
        },
        {
          "address": "0x90581eca9469d8d7f5d3b60f4715027adfcf7927",
          "topics": [
            "0x85496b760a4b7f8d66384b9df21b381f5d1b1e79f229a47aaf4c232edc2fe59a",
            "0x20503adcb1236d984127f7700b320db52634b766fda53a89974aef679129ef70",
            "0x000000000000000000000000c71bf5ee4740405030ef521f18a96ea14fec802d"
          ],
          "data": "0x000000000000000000000000000000000000000000000000000000000000762f000000000000000000000000000000000000000000000000000009184e72a000000000000000000000000000000000000000000000000000000009184e72a000",
          "blockHash": "0x91b7ed2136bc4324958caad6816019e229326597269353ce84764e52d750f848",
          "blockNumber": "0x2dac02b",
          "blockTimestamp": "0x6a03dff2",
          "transactionHash": "0xfdaec4417e0405f0d3dc26506fb62eb8d26fb6a5c31ce274e3b441250e0de322",
          "transactionIndex": "0x12",
          "logIndex": "0x3f",
          "removed": false
        },
        {
          "address": "0xc71bf5ee4740405030ef521f18a96ea14fec802d",
          "topics": [
            "0xbc9ee36b6ca0bdd5b3840e6d329dd19a2490d880c7ce24d9818aa593adfb35be",
            "0x00000000000000000000000045dce8e4f2dc005a5f28206a46cb034697eeda8e",
            "0x000000000000000000000000000000000000000000000000000000000000767c",
            "0x00000000000000000000000045dce8e4f2dc005a5f28206a46cb034697eeda8e"
          ],
          "data": "0x00000000000000000000000090581eca9469d8d7f5d3b60f4715027adfcf7927000000000000000000000000000000000000000000000000000009184e72a000",
          "blockHash": "0x91b7ed2136bc4324958caad6816019e229326597269353ce84764e52d750f848",
          "blockNumber": "0x2dac02b",
          "blockTimestamp": "0x6a03dff2",
          "transactionHash": "0xfdaec4417e0405f0d3dc26506fb62eb8d26fb6a5c31ce274e3b441250e0de322",
          "transactionIndex": "0x12",
          "logIndex": "0x40",
          "removed": false
        }
      ],
      "logsBloom": "0x0010000000000000000000020000000000000000100000000000000000000000000000000200000000000000000000000000000000000000000000000020000000000200000000000000000a000000000140000000000000000000000000000000000000020000008020000000000800000000010000100000000010000000000000000000808004000010081008000000000000000000002000000000000000028008108000000020100000000000000000000000400000000440000000000000000002000000000000000080000102001000000000000000000000000020004010040000000000000080000000802002408000008000000000000000000000",
      "type": "0x2",
      "transactionHash": "0xfdaec4417e0405f0d3dc26506fb62eb8d26fb6a5c31ce274e3b441250e0de322",
      "transactionIndex": "0x12",
      "blockHash": "0x91b7ed2136bc4324958caad6816019e229326597269353ce84764e52d750f848",
      "blockNumber": "0x2dac02b",
      "gasUsed": "0x98307",
      "effectiveGasPrice": "0x7a121",
      "blobGasUsed": "0xb860",
      "from": "0x45dce8e4f2dc005a5f28206a46cb034697eeda8e",
      "to": "0xc71bf5ee4740405030ef521f18a96ea14fec802d",
      "contractAddress": null,
      "daFootprintGasScalar": "0x190",
      "l1BaseFeeScalar": "0x7d0",
      "l1BlobBaseFee": "0x514e82",
      "l1BlobBaseFeeScalar": "0xdbba0",
      "l1Fee": "0x37924d18",
      "l1GasPrice": "0x5ad9550",
      "l1GasUsed": "0x76d"
    }
  ],
  "libraries": [],
  "pending": [],
  "returns": {},
  "timestamp": 1778638835677,
  "chain": 130,
  "commit": "3c1e5d2a"
}