{
  "transactions": [
    {
      "hash": "0xb47454e6a614439139e95e916715848812f21583b7483170aaed85a649c7dc5a",
      "transactionType": "CALL",
      "contractName": null,
      "contractAddress": "0x80eede496655fb9047dd39d9f418d5483ed600df",
      "function": "approve(address,uint256)",
      "arguments": [
        "0x53e36C8380Ff62D7964BFa4868A0045E58A52344",
        "10000000000000"
      ],
      "transaction": {
        "from": "0x45dce8e4f2dc005a5f28206a46cb034697eeda8e",
        "to": "0x80eede496655fb9047dd39d9f418d5483ed600df",
        "gas": "0x132ad",
        "value": "0x0",
        "input": "0x095ea7b300000000000000000000000053e36c8380ff62d7964bfa4868a0045e58a52344000000000000000000000000000000000000000000000000000009184e72a000",
        "nonce": "0xbd",
        "chainId": "0x4e454152"
      },
      "additionalContracts": [],
      "isFixedGasLimit": false
    },
    {
      "hash": "0xddb86488538db391c482616904bbd3b96025f8d7b450daca891043fa109d4254",
      "transactionType": "CALL",
      "contractName": null,
      "contractAddress": "0x53e36c8380ff62d7964bfa4868a0045e58a52344",
      "function": "sendOFT(address,uint32,bytes32,uint256)",
      "arguments": [
        "0x80Eede496655FB9047dd39d9f418d5483ED600df",
        "30109",
        "0x00000000000000000000000045dce8e4f2dc005a5f28206a46cb034697eeda8e",
        "10000000000000"
      ],
      "transaction": {
        "from": "0x45dce8e4f2dc005a5f28206a46cb034697eeda8e",
        "to": "0x53e36c8380ff62d7964bfa4868a0045e58a52344",
        "gas": "0xdf7a2",
        "value": "0x2af78aeb313d",
        "input": "0x3e832c9000000000000000000000000080eede496655fb9047dd39d9f418d5483ed600df000000000000000000000000000000000000000000000000000000000000759d00000000000000000000000045dce8e4f2dc005a5f28206a46cb034697eeda8e000000000000000000000000000000000000000000000000000009184e72a000",
        "nonce": "0xbe",
        "chainId": "0x4e454152"
      },
      "additionalContracts": [],
      "isFixedGasLimit": false
    },
    {
      "hash": "0xf5b54420a8988bbba916f484194eece5ff60fe9232665e436b5e15731140e4f4",
      "transactionType": "CALL",
      "contractName": null,
      "contractAddress": "0x5bff88ca1442c2496f7e475e9e7786383bc070c0",
      "function": "approve(address,uint256)",
      "arguments": [
        "0x53e36C8380Ff62D7964BFa4868A0045E58A52344",
        "10000000000000"
      ],
      "transaction": {
        "from": "0x45dce8e4f2dc005a5f28206a46cb034697eeda8e",
        "to": "0x5bff88ca1442c2496f7e475e9e7786383bc070c0",
        "gas": "0x12184",
        "value": "0x0",
        "input": "0x095ea7b300000000000000000000000053e36c8380ff62d7964bfa4868a0045e58a52344000000000000000000000000000000000000000000000000000009184e72a000",
        "nonce": "0xbf",
        "chainId": "0x4e454152"
      },
      "additionalContracts": [],
      "isFixedGasLimit": false
    },
    {
      "hash": "0xd1904962ddf1248e881e388e477172f73510f75f5c5429540d94252bc557f42a",
      "transactionType": "CALL",
      "contractName": null,
      "contractAddress": "0x53e36c8380ff62d7964bfa4868a0045e58a52344",
      "function": "sendOFT(address,uint32,bytes32,uint256)",
      "arguments": [
        "0x5Bff88cA1442c2496f7E475E9e7786383Bc070c0",
        "30109",
        "0x00000000000000000000000045dce8e4f2dc005a5f28206a46cb034697eeda8e",
        "10000000000000"
      ],
      "transaction": {
        "from": "0x45dce8e4f2dc005a5f28206a46cb034697eeda8e",
        "to": "0x53e36c8380ff62d7964bfa4868a0045e58a52344",
        "gas": "0xceaea",
        "value": "0x2af78aeb313d",
        "input": "0x3e832c900000000000000000000000005bff88ca1442c2496f7e475e9e7786383bc070c0000000000000000000000000000000000000000000000000000000000000759d00000000000000000000000045dce8e4f2dc005a5f28206a46cb034697eeda8e000000000000000000000000000000000000000000000000000009184e72a000",
        "nonce": "0xc0",
        "chainId": "0x4e454152"
      },
      "additionalContracts": [],
      "isFixedGasLimit": false
    },
    {
      "hash": "0x5bb1dbe0338d57b9434b3f2bbaeae560b7c56adc6d0f2027f55ce415172c2e84",
      "transactionType": "CALL",
      "contractName": null,
      "contractAddress": "0x43edd7f3831b08fe70b7555ddd373c8bf65a9050",
      "function": "approve(address,uint256)",
      "arguments": [
        "0x53e36C8380Ff62D7964BFa4868A0045E58A52344",
        "10000000000000"
      ],
      "transaction": {
        "from": "0x45dce8e4f2dc005a5f28206a46cb034697eeda8e",
        "to": "0x43edd7f3831b08fe70b7555ddd373c8bf65a9050",
        "gas": "0x132ad",
        "value": "0x0",
        "input": "0x095ea7b300000000000000000000000053e36c8380ff62d7964bfa4868a0045e58a52344000000000000000000000000000000000000000000000000000009184e72a000",
        "nonce": "0xc1",
        "chainId": "0x4e454152"
      },
      "additionalContracts": [],
      "isFixedGasLimit": false
    },
    {
      "hash": "0xe4bf5396682d557452189cb588c140f483d8e3dd8db9d80aff5d758b4a7d4f19",
      "transactionType": "CALL",
      "contractName": null,
      "contractAddress": "0x53e36c8380ff62d7964bfa4868a0045e58a52344",
      "function": "sendOFT(address,uint32,bytes32,uint256)",
      "arguments": [
        "0x43eDD7f3831b08FE70B7555ddD373C8bF65a9050",
        "30109",
        "0x00000000000000000000000045dce8e4f2dc005a5f28206a46cb034697eeda8e",
        "10000000000000"
      ],
      "transaction": {
        "from": "0x45dce8e4f2dc005a5f28206a46cb034697eeda8e",
        "to": "0x53e36c8380ff62d7964bfa4868a0045e58a52344",
        "gas": "0xceb08",
        "value": "0x2af78aeb313d",
        "input": "0x3e832c9000000000000000000000000043edd7f3831b08fe70b7555ddd373c8bf65a9050000000000000000000000000000000000000000000000000000000000000759d00000000000000000000000045dce8e4f2dc005a5f28206a46cb034697eeda8e000000000000000000000000000000000000000000000000000009184e72a000",
        "nonce": "0xc2",
        "chainId": "0x4e454152"
      },
      "additionalContracts": [],
      "isFixedGasLimit": false
    },
    {
      "hash": "0xefc5edae04f51c627556b100104dd17674164658c21438ef80996f5fe92ba564",
      "transactionType": "CALL",
      "contractName": null,
      "contractAddress": "0x3ec3849c33291a9ef4c5db86de593eb4a37fde45",
      "function": "approve(address,uint256)",
      "arguments": [
        "0x53e36C8380Ff62D7964BFa4868A0045E58A52344",
        "10000000000000"
      ],
      "transaction": {
        "from": "0x45dce8e4f2dc005a5f28206a46cb034697eeda8e",
        "to": "0x3ec3849c33291a9ef4c5db86de593eb4a37fde45",
        "gas": "0x132ad",
        "value": "0x0",
        "input": "0x095ea7b300000000000000000000000053e36c8380ff62d7964bfa4868a0045e58a52344000000000000000000000000000000000000000000000000000009184e72a000",
        "nonce": "0xc3",
        "chainId": "0x4e454152"
      },
      "additionalContracts": [],
      "isFixedGasLimit": false
    },
    {
      "hash": "0x01fd11ee6d71535a206f77e20cf4e743978c3b152ec52da3cb90034545e11b5f",
      "transactionType": "CALL",
      "contractName": null,
      "contractAddress": "0x53e36c8380ff62d7964bfa4868a0045e58a52344",
      "function": "sendOFT(address,uint32,bytes32,uint256)",
      "arguments": [
        "0x3Ec3849C33291a9eF4c5dB86De593EB4A37fDe45",
        "30109",
        "0x00000000000000000000000045dce8e4f2dc005a5f28206a46cb034697eeda8e",
        "10000000000000"
      ],
      "transaction": {
        "from": "0x45dce8e4f2dc005a5f28206a46cb034697eeda8e",
        "to": "0x53e36c8380ff62d7964bfa4868a0045e58a52344",
        "gas": "0xceb08",
        "value": "0x2af78aeb313d",
        "input": "0x3e832c900000000000000000000000003ec3849c33291a9ef4c5db86de593eb4a37fde45000000000000000000000000000000000000000000000000000000000000759d00000000000000000000000045dce8e4f2dc005a5f28206a46cb034697eeda8e000000000000000000000000000000000000000000000000000009184e72a000",
        "nonce": "0xc4",
        "chainId": "0x4e454152"
      },
      "additionalContracts": [],
      "isFixedGasLimit": false
    },
    {
      "hash": null,
      "transactionType": "CALL",
      "contractName": null,
      "contractAddress": "0x64445f0aecc51e94ad52d8ac56b7190e764e561a",
      "function": "approve(address,uint256)",
      "arguments": [
        "0x53e36C8380Ff62D7964BFa4868A0045E58A52344",
        "10000000000000"
      ],
      "transaction": {
        "from": "0x45dce8e4f2dc005a5f28206a46cb034697eeda8e",
        "to": "0x64445f0aecc51e94ad52d8ac56b7190e764e561a",
        "gas": "0x12184",
        "value": "0x0",
        "input": "0x095ea7b300000000000000000000000053e36c8380ff62d7964bfa4868a0045e58a52344000000000000000000000000000000000000000000000000000009184e72a000",
        "nonce": "0xc5",
        "chainId": "0x4e454152"
      },
      "additionalContracts": [],
      "isFixedGasLimit": false
    },
    {
      "hash": null,
      "transactionType": "CALL",
      "contractName": null,
      "contractAddress": "0x53e36c8380ff62d7964bfa4868a0045e58a52344",
      "function": "sendOFT(address,uint32,bytes32,uint256)",
      "arguments": [
        "0x64445f0aecC51E94aD52d8AC56b7190e764E561a",
        "30109",
        "0x00000000000000000000000045dce8e4f2dc005a5f28206a46cb034697eeda8e",
        "10000000000000"
      ],
      "transaction": {
        "from": "0x45dce8e4f2dc005a5f28206a46cb034697eeda8e",
        "to": "0x53e36c8380ff62d7964bfa4868a0045e58a52344",
        "gas": "0xceaea",
        "value": "0x2af78aeb313d",
        "input": "0x3e832c9000000000000000000000000064445f0aecc51e94ad52d8ac56b7190e764e561a000000000000000000000000000000000000000000000000000000000000759d00000000000000000000000045dce8e4f2dc005a5f28206a46cb034697eeda8e000000000000000000000000000000000000000000000000000009184e72a000",
        "nonce": "0xc6",
        "chainId": "0x4e454152"
      },
      "additionalContracts": [],
      "isFixedGasLimit": false
    },
    {
      "hash": null,
      "transactionType": "CALL",
      "contractName": null,
      "contractAddress": "0x90581eca9469d8d7f5d3b60f4715027adfcf7927",
      "function": "approve(address,uint256)",
      "arguments": [
        "0x53e36C8380Ff62D7964BFa4868A0045E58A52344",
        "10000000000000"
      ],
      "transaction": {
        "from": "0x45dce8e4f2dc005a5f28206a46cb034697eeda8e",
        "to": "0x90581eca9469d8d7f5d3b60f4715027adfcf7927",
        "gas": "0x132ad",
        "value": "0x0",
        "input": "0x095ea7b300000000000000000000000053e36c8380ff62d7964bfa4868a0045e58a52344000000000000000000000000000000000000000000000000000009184e72a000",
        "nonce": "0xc7",
        "chainId": "0x4e454152"
      },
      "additionalContracts": [],
      "isFixedGasLimit": false
    },
    {
      "hash": null,
      "transactionType": "CALL",
      "contractName": null,
      "contractAddress": "0x53e36c8380ff62d7964bfa4868a0045e58a52344",
      "function": "sendOFT(address,uint32,bytes32,uint256)",
      "arguments": [
        "0x90581eCa9469D8D7F5D3B60f4715027aDFCf7927",
        "30109",
        "0x00000000000000000000000045dce8e4f2dc005a5f28206a46cb034697eeda8e",
        "10000000000000"
      ],
      "transaction": {
        "from": "0x45dce8e4f2dc005a5f28206a46cb034697eeda8e",
        "to": "0x53e36c8380ff62d7964bfa4868a0045e58a52344",
        "gas": "0xceb08",
        "value": "0x2af78aeb313d",
        "input": "0x3e832c9000000000000000000000000090581eca9469d8d7f5d3b60f4715027adfcf7927000000000000000000000000000000000000000000000000000000000000759d00000000000000000000000045dce8e4f2dc005a5f28206a46cb034697eeda8e000000000000000000000000000000000000000000000000000009184e72a000",
        "nonce": "0xc8",
        "chainId": "0x4e454152"
      },
      "additionalContracts": [],
      "isFixedGasLimit": false
    }
  ],
  "receipts": [],
  "libraries": [],
  "pending": [
    "0xb47454e6a614439139e95e916715848812f21583b7483170aaed85a649c7dc5a",
    "0xddb86488538db391c482616904bbd3b96025f8d7b450daca891043fa109d4254",
    "0xf5b54420a8988bbba916f484194eece5ff60fe9232665e436b5e15731140e4f4",
    "0xd1904962ddf1248e881e388e477172f73510f75f5c5429540d94252bc557f42a",
    "0x5bb1dbe0338d57b9434b3f2bbaeae560b7c56adc6d0f2027f55ce415172c2e84",
    "0xe4bf5396682d557452189cb588c140f483d8e3dd8db9d80aff5d758b4a7d4f19",
    "0xefc5edae04f51c627556b100104dd17674164658c21438ef80996f5fe92ba564",
    "0x01fd11ee6d71535a206f77e20cf4e743978c3b152ec52da3cb90034545e11b5f"
  ],
  "returns": {},
  "timestamp": 1778653219785,
  "chain": 1313161554,
  "commit": "3c1e5d2a"
}