{
  "transactions": [
    {
      "hash": "0x4767360b723e87380fae042c3028bb5a0d59957f266865b9ec576f4f61abf1dd",
      "transactionType": "CALL",
      "contractName": null,
      "contractAddress": "0x3ec3849c33291a9ef4c5db86de593eb4a37fde45",
      "function": "approve(address,uint256)",
      "arguments": [
        "0x53e36C8380Ff62D7964BFa4868A0045E58A52344",
        "10000000000000"
      ],
      "transaction": {
        "from": "0x45dce8e4f2dc005a5f28206a46cb034697eeda8e",
        "to": "0x3ec3849c33291a9ef4c5db86de593eb4a37fde45",
        "gas": "0xb644",
        "value": "0x0",
        "input": "0x095ea7b300000000000000000000000053e36c8380ff62d7964bfa4868a0045e58a52344000000000000000000000000000000000000000000000000000009184e72a000",
        "nonce": "0xc4",
        "chainId": "0x4e454152"
      },
      "additionalContracts": [],
      "isFixedGasLimit": false
    },
    {
      "hash": "0x07dea256d9ce5351edf977e86ece308965da8a33f806c5c12dd941972403fca8",
      "transactionType": "CALL",
      "contractName": null,
      "contractAddress": "0x53e36c8380ff62d7964bfa4868a0045e58a52344",
      "function": "sendOFT(address,uint32,bytes32,uint256)",
      "arguments": [
        "0x3Ec3849C33291a9eF4c5dB86De593EB4A37fDe45",
        "30109",
        "0x00000000000000000000000045dce8e4f2dc005a5f28206a46cb034697eeda8e",
        "10000000000000"
      ],
      "transaction": {
        "from": "0x45dce8e4f2dc005a5f28206a46cb034697eeda8e",
        "to": "0x53e36c8380ff62d7964bfa4868a0045e58a52344",
        "gas": "0xceb08",
        "value": "0x2af36e85c9da",
        "input": "0x3e832c900000000000000000000000003ec3849c33291a9ef4c5db86de593eb4a37fde45000000000000000000000000000000000000000000000000000000000000759d00000000000000000000000045dce8e4f2dc005a5f28206a46cb034697eeda8e000000000000000000000000000000000000000000000000000009184e72a000",
        "nonce": "0xc5",
        "chainId": "0x4e454152"
      },
      "additionalContracts": [],
      "isFixedGasLimit": false
    },
    {
      "hash": "0xdc7f7fa537f0a5fe25c494f9323ebd8014d4d7c38f7ed32421aaf22cf2095559",
      "transactionType": "CALL",
      "contractName": null,
      "contractAddress": "0x64445f0aecc51e94ad52d8ac56b7190e764e561a",
      "function": "approve(address,uint256)",
      "arguments": [
        "0x53e36C8380Ff62D7964BFa4868A0045E58A52344",
        "10000000000000"
      ],
      "transaction": {
        "from": "0x45dce8e4f2dc005a5f28206a46cb034697eeda8e",
        "to": "0x64445f0aecc51e94ad52d8ac56b7190e764e561a",
        "gas": "0x12184",
        "value": "0x0",
        "input": "0x095ea7b300000000000000000000000053e36c8380ff62d7964bfa4868a0045e58a52344000000000000000000000000000000000000000000000000000009184e72a000",
        "nonce": "0xc6",
        "chainId": "0x4e454152"
      },
      "additionalContracts": [],
      "isFixedGasLimit": false
    },
    {
      "hash": "0xd17fa2ed6442329c8e7bfdb674fa2644bc49b2f02ab60021f27426e02ec0f180",
      "transactionType": "CALL",
      "contractName": null,
      "contractAddress": "0x53e36c8380ff62d7964bfa4868a0045e58a52344",
      "function": "sendOFT(address,uint32,bytes32,uint256)",
      "arguments": [
        "0x64445f0aecC51E94aD52d8AC56b7190e764E561a",
        "30109",
        "0x00000000000000000000000045dce8e4f2dc005a5f28206a46cb034697eeda8e",
        "10000000000000"
      ],
      "transaction": {
        "from": "0x45dce8e4f2dc005a5f28206a46cb034697eeda8e",
        "to": "0x53e36c8380ff62d7964bfa4868a0045e58a52344",
        "gas": "0xceaea",
        "value": "0x2af36e85c9da",
        "input": "0x3e832c9000000000000000000000000064445f0aecc51e94ad52d8ac56b7190e764e561a000000000000000000000000000000000000000000000000000000000000759d00000000000000000000000045dce8e4f2dc005a5f28206a46cb034697eeda8e000000000000000000000000000000000000000000000000000009184e72a000",
        "nonce": "0xc7",
        "chainId": "0x4e454152"
      },
      "additionalContracts": [],
      "isFixedGasLimit": false
    },
    {
      "hash": "0x80ad6819a23f487e9c82e3e4e79dc87580864b0653c479c84d4fceddbbf1e76c",
      "transactionType": "CALL",
      "contractName": null,
      "contractAddress": "0x90581eca9469d8d7f5d3b60f4715027adfcf7927",
      "function": "approve(address,uint256)",
      "arguments": [
        "0x53e36C8380Ff62D7964BFa4868A0045E58A52344",
        "10000000000000"
      ],
      "transaction": {
        "from": "0x45dce8e4f2dc005a5f28206a46cb034697eeda8e",
        "to": "0x90581eca9469d8d7f5d3b60f4715027adfcf7927",
        "gas": "0x132ad",
        "value": "0x0",
        "input": "0x095ea7b300000000000000000000000053e36c8380ff62d7964bfa4868a0045e58a52344000000000000000000000000000000000000000000000000000009184e72a000",
        "nonce": "0xc8",
        "chainId": "0x4e454152"
      },
      "additionalContracts": [],
      "isFixedGasLimit": false
    },
    {
      "hash": "0x875e15a6839be04e239e5a70da02fc188f85a049030b5b22c1b8db763fb56f37",
      "transactionType": "CALL",
      "contractName": null,
      "contractAddress": "0x53e36c8380ff62d7964bfa4868a0045e58a52344",
      "function": "sendOFT(address,uint32,bytes32,uint256)",
      "arguments": [
        "0x90581eCa9469D8D7F5D3B60f4715027aDFCf7927",
        "30109",
        "0x00000000000000000000000045dce8e4f2dc005a5f28206a46cb034697eeda8e",
        "10000000000000"
      ],
      "transaction": {
        "from": "0x45dce8e4f2dc005a5f28206a46cb034697eeda8e",
        "to": "0x53e36c8380ff62d7964bfa4868a0045e58a52344",
        "gas": "0xceb08",
        "value": "0x2af36e85c9da",
        "input": "0x3e832c9000000000000000000000000090581eca9469d8d7f5d3b60f4715027adfcf7927000000000000000000000000000000000000000000000000000000000000759d00000000000000000000000045dce8e4f2dc005a5f28206a46cb034697eeda8e000000000000000000000000000000000000000000000000000009184e72a000",
        "nonce": "0xc9",
        "chainId": "0x4e454152"
      },
      "additionalContracts": [],
      "isFixedGasLimit": false
    }
  ],
  "receipts": [
    {
      "status": "0x1",
      "cumulativeGasUsed": "0x0",
      "logs": [
        {
          "address": "0x3ec3849c33291a9ef4c5db86de593eb4a37fde45",
          "topics": [
            "0x8c5be1e5ebec7d5bd14f71427d1e84f3dd0314c0f7b2291e5b200ac8c7c3b925",
            "0x00000000000000000000000045dce8e4f2dc005a5f28206a46cb034697eeda8e",
            "0x00000000000000000000000053e36c8380ff62d7964bfa4868a0045e58a52344"
          ],
          "data": "0x000000000000000000000000000000000000000000000000000009184e72a000",
          "blockHash": "0x00dd676ce9e77cf187103ea16dd8e3f3920a4fdf62063419a81c657a638539e1",
          "blockNumber": "0xbceef57",
          "transactionHash": "0x4767360b723e87380fae042c3028bb5a0d59957f266865b9ec576f4f61abf1dd",
          "transactionIndex": "0x0",
          "logIndex": "0x0",
          "removed": false
        }
      ],
      "logsBloom": "0x00000000000000000000000200002000000000000000000000000000000000000000000000000000000000000000000000000000000000000000000000200200000000000000000000000000000000000000000000000000000000000000000000000000000000000000000000020000000000000000000000000000000000000000000000000000000000000000000000000000000020000040000000000000020000000000000000000000000000000000000000000000000000000000000000000000000000000000000000000000001100000000000000000000000000000010000000000000000000000000800000000000000000000000000000000000",
      "type": "0x0",
      "transactionHash": "0x4767360b723e87380fae042c3028bb5a0d59957f266865b9ec576f4f61abf1dd",
      "transactionIndex": "0x0",
      "blockHash": "0x00dd676ce9e77cf187103ea16dd8e3f3920a4fdf62063419a81c657a638539e1",
      "blockNumber": "0xbceef57",
      "gasUsed": "0x83f6",
      "effectiveGasPrice": "0x42c1d80",
      "from": "0x45dce8e4f2dc005a5f28206a46cb034697eeda8e",
      "to": "0x3ec3849c33291a9ef4c5db86de593eb4a37fde45",
      "contractAddress": null,
      "nearReceiptHash": "0x01bbf53098c1f006bd2bb7f4da596b622bc0b96897a23174d54a5e188dc7a432",
      "nearTransactionHash": "0x8ac1ed12ea3a8dc4fc5126e8b419b7855e4d49571807f4a42b22e2ace95de3de"
    },
    {
      "status": "0x1",
      "cumulativeGasUsed": "0x0",
      "logs": [
        {
          "address": "0x3ec3849c33291a9ef4c5db86de593eb4a37fde45",
          "topics": [
            "0x8c5be1e5ebec7d5bd14f71427d1e84f3dd0314c0f7b2291e5b200ac8c7c3b925",
            "0x00000000000000000000000045dce8e4f2dc005a5f28206a46cb034697eeda8e",
            "0x00000000000000000000000053e36c8380ff62d7964bfa4868a0045e58a52344"
          ],
          "data": "0x0000000000000000000000000000000000000000000000000000000000000000",
          "blockHash": "0x00dd676ce9e77cf187103ea16dd8e3f3920a4fdf62063419a81c657a638539e1",
          "blockNumber": "0xbceef57",
          "transactionHash": "0xd17fa2ed6442329c8e7bfdb674fa2644bc49b2f02ab60021f27426e02ec0f180",
          "transactionIndex": "0x1",
          "logIndex": "0x0",
          "removed": false
        },
        {
          "address": "0x3ec3849c33291a9ef4c5db86de593eb4a37fde45",
          "topics": [
            "0xddf252ad1be2c89b69c2b068fc378daa952ba7f163c4a11628f55a4df523b3ef",
            "0x00000000000000000000000045dce8e4f2dc005a5f28206a46cb034697eeda8e",
            "0x00000000000000000000000053e36c8380ff62d7964bfa4868a0045e58a52344"
          ],
          "data": "0x000000000000000000000000000000000000000000000000000009184e72a000",
          "blockHash": "0x00dd676ce9e77cf187103ea16dd8e3f3920a4fdf62063419a81c657a638539e1",
          "blockNumber": "0xbceef57",
          "transactionHash": "0xd17fa2ed6442329c8e7bfdb674fa2644bc49b2f02ab60021f27426e02ec0f180",
          "transactionIndex": "0x1",
          "logIndex": "0x1",
          "removed": false
        },
        {
          "address": "0x3ec3849c33291a9ef4c5db86de593eb4a37fde45",
          "topics": [
            "0x8c5be1e5ebec7d5bd14f71427d1e84f3dd0314c0f7b2291e5b200ac8c7c3b925",
            "0x00000000000000000000000053e36c8380ff62d7964bfa4868a0045e58a52344",
            "0x0000000000000000000000003ec3849c33291a9ef4c5db86de593eb4a37fde45"
          ],
          "data": "0x000000000000000000000000000000000000000000000000000009184e72a000",
          "blockHash": "0x00dd676ce9e77cf187103ea16dd8e3f3920a4fdf62063419a81c657a638539e1",
          "blockNumber": "0xbceef57",
          "transactionHash": "0xd17fa2ed6442329c8e7bfdb674fa2644bc49b2f02ab60021f27426e02ec0f180",
          "transactionIndex": "0x1",
          "logIndex": "0x2",
          "removed": false
        },
        {
          "address": "0x3ec3849c33291a9ef4c5db86de593eb4a37fde45",
          "topics": [
            "0xddf252ad1be2c89b69c2b068fc378daa952ba7f163c4a11628f55a4df523b3ef",
            "0x00000000000000000000000053e36c8380ff62d7964bfa4868a0045e58a52344",
            "0x0000000000000000000000000000000000000000000000000000000000000000"
          ],
          "data": "0x000000000000000000000000000000000000000000000000000009184e72a000",
          "blockHash": "0x00dd676ce9e77cf187103ea16dd8e3f3920a4fdf62063419a81c657a638539e1",
          "blockNumber": "0xbceef57",
          "transactionHash": "0xd17fa2ed6442329c8e7bfdb674fa2644bc49b2f02ab60021f27426e02ec0f180",
          "transactionIndex": "0x1",
          "logIndex": "0x3",
          "removed": false
        },
        {
          "address": "0x1ace9dd1bc743ad036ef2d92af42ca70a1159df5",
          "topics": [
            "0x61ed099e74a97a1d7f8bb0952a88ca8b7b8ebd00c126ea04671f92a81213318a"
          ],
          "data": "0x000000000000000000000000a2b402ffe8dd7460a8b425644b6b9f50667f0a6100000000000000000000000000000000000000000000000000000821fcc2618c",
          "blockHash": "0x00dd676ce9e77cf187103ea16dd8e3f3920a4fdf62063419a81c657a638539e1",
          "blockNumber": "0xbceef57",
          "transactionHash": "0xd17fa2ed6442329c8e7bfdb674fa2644bc49b2f02ab60021f27426e02ec0f180",
          "transactionIndex": "0x1",
          "logIndex": "0x4",
          "removed": false
        },
        {
          "address": "0x1ace9dd1bc743ad036ef2d92af42ca70a1159df5",
          "topics": [
            "0x07ea52d82345d6e838192107d8fd7123d9c2ec8e916cd0aad13fd2b60db24644"
          ],
          "data": "0x0000000000000000000000000000000000000000000000000000000000000060000000000000000000000000000000000000000000000000000000000000012000000000000000000000000000000000000000000000000000000000000001400000000000000000000000000000000000000000000000000000000000000005000000000000000000000000045d70bf1939af0489cb44533750a2e15c92d7d400000000000000000000000034730f2570e6cff8b1c91faabf37d0dd917c4367000000000000000000000000b4caa217dd195b3b40eee24b82c8093c2ea659cd000000000000000000000000d4a903930f2c9085586cda0b11d9681eecb20d2f000000000000000000000000dd7b5e1db4aafd5c8ec3b764efb8ed265aa5445b0000000000000000000000000000000000000000000000000000000000000000000000000000000000000000000000000000000000000000000000000000000500000000000000000000000000000000000000000000000000000165389a10e2000000000000000000000000000000000000000000000000000000feec1a99bd0000000000000000000000000000000000000000000000000000014e7cef84a100000000000000000000000000000000000000000000000000000115a7c525fe00000000000000000000000000000000000000000000000000000115a7c525fe",
          "blockHash": "0x00dd676ce9e77cf187103ea16dd8e3f3920a4fdf62063419a81c657a638539e1",
          "blockNumber": "0xbceef57",
          "transactionHash": "0xd17fa2ed6442329c8e7bfdb674fa2644bc49b2f02ab60021f27426e02ec0f180",
          "transactionIndex": "0x1",
          "logIndex": "0x5",
          "removed": false
        },
        {
          "address": "0x1a44076050125825900e736c501f859c50fe728c",
          "topics": [
            "0x1ab700d4ced0c005b164c0f789fd09fcbb0156d4c2041b8a3bfbcd961cd1567f"
          ],
          "data": "0x000000000000000000000000000000000000000000000000000000000000006000000000000000000000000000000000000000000000000000000000000001800000000000000000000000001ace9dd1bc743ad036ef2d92af42ca70a1159df500000000000000000000000000000000000000000000000000000000000000f9010000000000000002000076030000000000000000000000003ec3849c33291a9ef4c5db86de593eb4a37fde450000762f000000000000000000000000999dfabe3b1cc2ef66eb032eea42fea329bba1689b2aa434d1466b6cf23c3547d12b925c181622bb0139941474a503040e43d90e0000000000000000000000002a2019b30c157db6c1c01306b8025167dbe1803b000000000000000a00000000000000000000000053e36c8380ff62d7964bfa4868a0045e58a5234400000000000000000000000045dce8e4f2dc005a5f28206a46cb034697eeda8e000000000000000000000000000000000000000000000000000000000000759d00000000000000000000000000000000000000000000000000000000000000000000000000002c0003010011010000000000000000000000000003d090010013030000000000000000000000000000000f42400000000000000000000000000000000000000000",
          "blockHash": "0x00dd676ce9e77cf187103ea16dd8e3f3920a4fdf62063419a81c657a638539e1",
          "blockNumber": "0xbceef57",
          "transactionHash": "0xd17fa2ed6442329c8e7bfdb674fa2644bc49b2f02ab60021f27426e02ec0f180",
          "transactionIndex": "0x1",
          "logIndex": "0x6",
          "removed": false
        },
        {
          "address": "0x3ec3849c33291a9ef4c5db86de593eb4a37fde45",
          "topics": [
            "0x85496b760a4b7f8d66384b9df21b381f5d1b1e79f229a47aaf4c232edc2fe59a",
            "0x9b2aa434d1466b6cf23c3547d12b925c181622bb0139941474a503040e43d90e",
            "0x00000000000000000000000053e36c8380ff62d7964bfa4868a0045e58a52344"
          ],
          "data": "0x000000000000000000000000000000000000000000000000000000000000762f000000000000000000000000000000000000000000000000000009184e72a000000000000000000000000000000000000000000000000000000009184e72a000",
          "blockHash": "0x00dd676ce9e77cf187103ea16dd8e3f3920a4fdf62063419a81c657a638539e1",
          "blockNumber": "0xbceef57",
          "transactionHash": "0xd17fa2ed6442329c8e7bfdb674fa2644bc49b2f02ab60021f27426e02ec0f180",
          "transactionIndex": "0x1",
          "logIndex": "0x7",
          "removed": false
        },
        {
          "address": "0x53e36c8380ff62d7964bfa4868a0045e58a52344",
          "topics": [
            "0xbc9ee36b6ca0bdd5b3840e6d329dd19a2490d880c7ce24d9818aa593adfb35be",
            "0x00000000000000000000000045dce8e4f2dc005a5f28206a46cb034697eeda8e",
            "0x000000000000000000000000000000000000000000000000000000000000759d",
            "0x00000000000000000000000045dce8e4f2dc005a5f28206a46cb034697eeda8e"
          ],
          "data": "0x0000000000000000000000003ec3849c33291a9ef4c5db86de593eb4a37fde45000000000000000000000000000000000000000000000000000009184e72a000",
          "blockHash": "0x00dd676ce9e77cf187103ea16dd8e3f3920a4fdf62063419a81c657a638539e1",
          "blockNumber": "0xbceef57",
          "transactionHash": "0xd17fa2ed6442329c8e7bfdb674fa2644bc49b2f02ab60021f27426e02ec0f180",
          "transactionIndex": "0x1",
          "logIndex": "0x8",
          "removed": false
        }
      ],
      "logsBloom": "0x00000000000001000000000208002000000000000000000000000000001000000000000008000000000000000000000004000000000000000000100000200220000002000000000000000008000000010000000000000000000000000000000000000000020000008000000000020800000080000010100000000010000000000000000000000000000000088000000000000000000020000040004000000000020000108000000020100000400000000000000000400000000440000000080000000002000000008000000080000000001100000000004000000000000020000010040000000002000000000000802000000000018000000000000000000000",
      "type": "0x0",
      "transactionHash": "0xd17fa2ed6442329c8e7bfdb674fa2644bc49b2f02ab60021f27426e02ec0f180",
      "transactionIndex": "0x1",
      "blockHash": "0x00dd676ce9e77cf187103ea16dd8e3f3920a4fdf62063419a81c657a638539e1",
      "blockNumber": "0xbceef57",
      "gasUsed": "0x95a3c",
      "effectiveGasPrice": "0x42c1d80",
      "from": "0x45dce8e4f2dc005a5f28206a46cb034697eeda8e",
      "to": "0x53e36c8380ff62d7964bfa4868a0045e58a52344",
      "contractAddress": null,
      "nearReceiptHash": "0xdf5c643e22276cc455bacacdc6f9b7f4430fcea6ad1de3438895eb1bf19f7732",
      "nearTransactionHash": "0x301a2298c7f16bd7d82af4c6c954b66765d2bf0c2e49adb6c88619c1872d071e"
    },
    {
      "status": "0x1",
      "cumulativeGasUsed": "0x0",
      "logs": [
        {
          "address": "0x64445f0aecc51e94ad52d8ac56b7190e764e561a",
          "topics": [
            "0x8c5be1e5ebec7d5bd14f71427d1e84f3dd0314c0f7b2291e5b200ac8c7c3b925",
            "0x00000000000000000000000045dce8e4f2dc005a5f28206a46cb034697eeda8e",
            "0x00000000000000000000000053e36c8380ff62d7964bfa4868a0045e58a52344"
          ],
          "data": "0x000000000000000000000000000000000000000000000000000009184e72a000",
          "blockHash": "0xdd80882a1eee3bbffbe6d7931e78a5be4726bb0a9fee05d735153d7c865fe147",
          "blockNumber": "0xbceef58",
          "transactionHash": "0xdc7f7fa537f0a5fe25c494f9323ebd8014d4d7c38f7ed32421aaf22cf2095559",
          "transactionIndex": "0x0",
          "logIndex": "0x0",
          "removed": false
        }
      ],
      "logsBloom": "0x00000000000000000000000200000000000000000000000000000000000000000000000000000000000000000000000000000000000000000000000000200200002000000000000000000000000000000000000000000000000000000000000000000000000000000000000000020000000000000000000000000000000000000000000000000000000000000000000000000000000000000000000000000000020000000000000000000008000000000000000000000000000000000000000000000000000000000000000000000000001100000000000000000000000000000010000000000000000000000000800000000008000000000000000000000000",
      "type": "0x0",
      "transactionHash": "0xdc7f7fa537f0a5fe25c494f9323ebd8014d4d7c38f7ed32421aaf22cf2095559",
      "transactionIndex": "0x0",
      "blockHash": "0xdd80882a1eee3bbffbe6d7931e78a5be4726bb0a9fee05d735153d7c865fe147",
      "blockNumber": "0xbceef58",
      "gasUsed": "0xd19c",
      "effectiveGasPrice": "0x42c1d80",
      "from": "0x45dce8e4f2dc005a5f28206a46cb034697eeda8e",
      "to": "0x64445f0aecc51e94ad52d8ac56b7190e764e561a",
      "contractAddress": null,
      "nearReceiptHash": "0x208ee4e76a05248a66c1662ce76f662ffc26f46787bec9632efb53fed94fbec8",
      "nearTransactionHash": "0xbf0666fb5b889b609b15e6c4ff3aca2ea780fc510592e8744c1812a5e1e43c75"
    },
    {
      "status": "0x1",
      "cumulativeGasUsed": "0x0",
      "logs": [
        {
          "address": "0x64445f0aecc51e94ad52d8ac56b7190e764e561a",
          "topics": [
            "0x8c5be1e5ebec7d5bd14f71427d1e84f3dd0314c0f7b2291e5b200ac8c7c3b925",
            "0x00000000000000000000000045dce8e4f2dc005a5f28206a46cb034697eeda8e",
            "0x00000000000000000000000053e36c8380ff62d7964bfa4868a0045e58a52344"
          ],
          "data": "0x0000000000000000000000000000000000000000000000000000000000000000",
          "blockHash": "0xdc3b6a50c1058dcf0c77f6eb53c6dbb86bb9aaf8169c8b9c2859a39a64ecb652",
          "blockNumber": "0xbceef63",
          "transactionHash": "0x80ad6819a23f487e9c82e3e4e79dc87580864b0653c479c84d4fceddbbf1e76c",
          "transactionIndex": "0x0",
          "logIndex": "0x0",
          "removed": false
        },
        {
          "address": "0x64445f0aecc51e94ad52d8ac56b7190e764e561a",
          "topics": [
            "0xddf252ad1be2c89b69c2b068fc378daa952ba7f163c4a11628f55a4df523b3ef",
            "0x00000000000000000000000045dce8e4f2dc005a5f28206a46cb034697eeda8e",
            "0x00000000000000000000000053e36c8380ff62d7964bfa4868a0045e58a52344"
          ],
          "data": "0x000000000000000000000000000000000000000000000000000009184e72a000",
          "blockHash": "0xdc3b6a50c1058dcf0c77f6eb53c6dbb86bb9aaf8169c8b9c2859a39a64ecb652",
          "blockNumber": "0xbceef63",
          "transactionHash": "0x80ad6819a23f487e9c82e3e4e79dc87580864b0653c479c84d4fceddbbf1e76c",
          "transactionIndex": "0x0",
          "logIndex": "0x1",
          "removed": false
        },
        {
          "address": "0x64445f0aecc51e94ad52d8ac56b7190e764e561a",
          "topics": [
            "0x8c5be1e5ebec7d5bd14f71427d1e84f3dd0314c0f7b2291e5b200ac8c7c3b925",
            "0x00000000000000000000000053e36c8380ff62d7964bfa4868a0045e58a52344",
            "0x00000000000000000000000064445f0aecc51e94ad52d8ac56b7190e764e561a"
          ],
          "data": "0x000000000000000000000000000000000000000000000000000009184e72a000",
          "blockHash": "0xdc3b6a50c1058dcf0c77f6eb53c6dbb86bb9aaf8169c8b9c2859a39a64ecb652",
          "blockNumber": "0xbceef63",
          "transactionHash": "0x80ad6819a23f487e9c82e3e4e79dc87580864b0653c479c84d4fceddbbf1e76c",
          "transactionIndex": "0x0",
          "logIndex": "0x2",
          "removed": false
        },
        {
          "address": "0x64445f0aecc51e94ad52d8ac56b7190e764e561a",
          "topics": [
            "0xddf252ad1be2c89b69c2b068fc378daa952ba7f163c4a11628f55a4df523b3ef",
            "0x00000000000000000000000053e36c8380ff62d7964bfa4868a0045e58a52344",
            "0x0000000000000000000000000000000000000000000000000000000000000000"
          ],
          "data": "0x000000000000000000000000000000000000000000000000000009184e72a000",
          "blockHash": "0xdc3b6a50c1058dcf0c77f6eb53c6dbb86bb9aaf8169c8b9c2859a39a64ecb652",
          "blockNumber": "0xbceef63",
          "transactionHash": "0x80ad6819a23f487e9c82e3e4e79dc87580864b0653c479c84d4fceddbbf1e76c",
          "transactionIndex": "0x0",
          "logIndex": "0x3",
          "removed": false
        },
        {
          "address": "0x1ace9dd1bc743ad036ef2d92af42ca70a1159df5",
          "topics": [
            "0x61ed099e74a97a1d7f8bb0952a88ca8b7b8ebd00c126ea04671f92a81213318a"
          ],
          "data": "0x000000000000000000000000a2b402ffe8dd7460a8b425644b6b9f50667f0a6100000000000000000000000000000000000000000000000000000821fcc2618c",
          "blockHash": "0xdc3b6a50c1058dcf0c77f6eb53c6dbb86bb9aaf8169c8b9c2859a39a64ecb652",
          "blockNumber": "0xbceef63",
          "transactionHash": "0x80ad6819a23f487e9c82e3e4e79dc87580864b0653c479c84d4fceddbbf1e76c",
          "transactionIndex": "0x0",
          "logIndex": "0x4",
          "removed": false
        },
        {
          "address": "0x1ace9dd1bc743ad036ef2d92af42ca70a1159df5",
          "topics": [
            "0x07ea52d82345d6e838192107d8fd7123d9c2ec8e916cd0aad13fd2b60db24644"
          ],
          "data": "0x0000000000000000000000000000000000000000000000000000000000000060000000000000000000000000000000000000000000000000000000000000012000000000000000000000000000000000000000000000000000000000000001400000000000000000000000000000000000000000000000000000000000000005000000000000000000000000045d70bf1939af0489cb44533750a2e15c92d7d400000000000000000000000034730f2570e6cff8b1c91faabf37d0dd917c4367000000000000000000000000b4caa217dd195b3b40eee24b82c8093c2ea659cd000000000000000000000000d4a903930f2c9085586cda0b11d9681eecb20d2f000000000000000000000000dd7b5e1db4aafd5c8ec3b764efb8ed265aa5445b0000000000000000000000000000000000000000000000000000000000000000000000000000000000000000000000000000000000000000000000000000000500000000000000000000000000000000000000000000000000000165389a10e2000000000000000000000000000000000000000000000000000000feec1a99bd0000000000000000000000000000000000000000000000000000014e7cef84a100000000000000000000000000000000000000000000000000000115a7c525fe00000000000000000000000000000000000000000000000000000115a7c525fe",
          "blockHash": "0xdc3b6a50c1058dcf0c77f6eb53c6dbb86bb9aaf8169c8b9c2859a39a64ecb652",
          "blockNumber": "0xbceef63",
          "transactionHash": "0x80ad6819a23f487e9c82e3e4e79dc87580864b0653c479c84d4fceddbbf1e76c",
          "transactionIndex": "0x0",
          "logIndex": "0x5",
          "removed": false
        },
        {
          "address": "0x1a44076050125825900e736c501f859c50fe728c",
          "topics": [
            "0x1ab700d4ced0c005b164c0f789fd09fcbb0156d4c2041b8a3bfbcd961cd1567f"
          ],
          "data": "0x000000000000000000000000000000000000000000000000000000000000006000000000000000000000000000000000000000000000000000000000000001800000000000000000000000001ace9dd1bc743ad036ef2d92af42ca70a1159df500000000000000000000000000000000000000000000000000000000000000f90100000000000000020000760300000000000000000000000064445f0aecc51e94ad52d8ac56b7190e764e561a0000762f000000000000000000000000d86fbbd0c8715d2c1f40e451e5c3514e65e7576affc4dab7a4e5a053f40dfbf0c3c0469e3df4d74bd8d2e632af433fcb943627d90000000000000000000000002a2019b30c157db6c1c01306b8025167dbe1803b000000000000000a00000000000000000000000053e36c8380ff62d7964bfa4868a0045e58a5234400000000000000000000000045dce8e4f2dc005a5f28206a46cb034697eeda8e000000000000000000000000000000000000000000000000000000000000759d00000000000000000000000000000000000000000000000000000000000000000000000000002c0003010011010000000000000000000000000003d090010013030000000000000000000000000000000f42400000000000000000000000000000000000000000",
          "blockHash": "0xdc3b6a50c1058dcf0c77f6eb53c6dbb86bb9aaf8169c8b9c2859a39a64ecb652",
          "blockNumber": "0xbceef63",
          "transactionHash": "0x80ad6819a23f487e9c82e3e4e79dc87580864b0653c479c84d4fceddbbf1e76c",
          "transactionIndex": "0x0",
          "logIndex": "0x6",
          "removed": false
        },
        {
          "address": "0x64445f0aecc51e94ad52d8ac56b7190e764e561a",
          "topics": [
            "0x85496b760a4b7f8d66384b9df21b381f5d1b1e79f229a47aaf4c232edc2fe59a",
            "0xffc4dab7a4e5a053f40dfbf0c3c0469e3df4d74bd8d2e632af433fcb943627d9",
            "0x00000000000000000000000053e36c8380ff62d7964bfa4868a0045e58a52344"
          ],
          "data": "0x000000000000000000000000000000000000000000000000000000000000762f000000000000000000000000000000000000000000000000000009184e72a000000000000000000000000000000000000000000000000000000009184e72a000",
          "blockHash": "0xdc3b6a50c1058dcf0c77f6eb53c6dbb86bb9aaf8169c8b9c2859a39a64ecb652",
          "blockNumber": "0xbceef63",
          "transactionHash": "0x80ad6819a23f487e9c82e3e4e79dc87580864b0653c479c84d4fceddbbf1e76c",
          "transactionIndex": "0x0",
          "logIndex": "0x7",
          "removed": false
        },
        {
          "address": "0x53e36c8380ff62d7964bfa4868a0045e58a52344",
          "topics": [
            "0xbc9ee36b6ca0bdd5b3840e6d329dd19a2490d880c7ce24d9818aa593adfb35be",
            "0x00000000000000000000000045dce8e4f2dc005a5f28206a46cb034697eeda8e",
            "0x000000000000000000000000000000000000000000000000000000000000759d",
            "0x00000000000000000000000045dce8e4f2dc005a5f28206a46cb034697eeda8e"
          ],
          "data": "0x00000000000000000000000064445f0aecc51e94ad52d8ac56b7190e764e561a000000000000000000000000000000000000000000000000000009184e72a000",
          "blockHash": "0xdc3b6a50c1058dcf0c77f6eb53c6dbb86bb9aaf8169c8b9c2859a39a64ecb652",
          "blockNumber": "0xbceef63",
          "transactionHash": "0x80ad6819a23f487e9c82e3e4e79dc87580864b0653c479c84d4fceddbbf1e76c",
          "transactionIndex": "0x0",
          "logIndex": "0x8",
          "removed": false
        }
      ],
      "logsBloom": "0x0000000000000100000000020800000000000000000000000000000000100000000000000800000000000000000000000000000000000000000010080020020000200200000000000000000800000001000000000000000000000000000040000000000002000000800000000002080000008000001010000000001000000000000000000000000000000008000000000000000000000000000000000000000002000010800000002010000c000000000000000000400000000440000000080000000002000000000000000080000000001100000100004000000000000020000010040000000002000000000000802800000008018000000000000000000002",
      "type": "0x0",
      "transactionHash": "0x80ad6819a23f487e9c82e3e4e79dc87580864b0653c479c84d4fceddbbf1e76c",
      "transactionIndex": "0x0",
      "blockHash": "0xdc3b6a50c1058dcf0c77f6eb53c6dbb86bb9aaf8169c8b9c2859a39a64ecb652",
      "blockNumber": "0xbceef63",
      "gasUsed": "0x95a26",
      "effectiveGasPrice": "0x42c1d80",
      "from": "0x45dce8e4f2dc005a5f28206a46cb034697eeda8e",
      "to": "0x53e36c8380ff62d7964bfa4868a0045e58a52344",
      "contractAddress": null,
      "nearReceiptHash": "0x54199c0422e820782ee120b4e2584e381c20fa32ce006b7fd36dd2bd888d2075",
      "nearTransactionHash": "0x4dc67b6d2d3af025dc2d8494055c27fa28954098fd0c7d486a88f13de063f435"
    },
    {
      "status": "0x1",
      "cumulativeGasUsed": "0x0",
      "logs": [
        {
          "address": "0x90581eca9469d8d7f5d3b60f4715027adfcf7927",
          "topics": [
            "0x8c5be1e5ebec7d5bd14f71427d1e84f3dd0314c0f7b2291e5b200ac8c7c3b925",
            "0x00000000000000000000000045dce8e4f2dc005a5f28206a46cb034697eeda8e",
            "0x00000000000000000000000053e36c8380ff62d7964bfa4868a0045e58a52344"
          ],
          "data": "0x000000000000000000000000000000000000000000000000000009184e72a000",
          "blockHash": "0xdc3b6a50c1058dcf0c77f6eb53c6dbb86bb9aaf8169c8b9c2859a39a64ecb652",
          "blockNumber": "0xbceef63",
          "transactionHash": "0x07dea256d9ce5351edf977e86ece308965da8a33f806c5c12dd941972403fca8",
          "transactionIndex": "0x1",
          "logIndex": "0x0",
          "removed": false
        }
      ],
      "logsBloom": "0x00000000000000000000000200000000000000000000000000000000000000000000000000000000000000000000000000000000000000000000000000200200000000000000000000000000000000000000000000000000000000000000000000000000000000000000000000020000000000000000000000000000000000000000000000000004000010000000000000000000000000000000000000000000020000000000000000000000000000000000000000000000000000000000000000000000000000000000000000000000001100000000000000000000000000000010000000000000000000000000800000400000000000000000000000000000",
      "type": "0x0",
      "transactionHash": "0x07dea256d9ce5351edf977e86ece308965da8a33f806c5c12dd941972403fca8",
      "transactionIndex": "0x1",
      "blockHash": "0xdc3b6a50c1058dcf0c77f6eb53c6dbb86bb9aaf8169c8b9c2859a39a64ecb652",
      "blockNumber": "0xbceef63",
      "gasUsed": "0xd1b2",
      "effectiveGasPrice": "0x42c1d80",
      "from": "0x45dce8e4f2dc005a5f28206a46cb034697eeda8e",
      "to": "0x90581eca9469d8d7f5d3b60f4715027adfcf7927",
      "contractAddress": null,
      "nearReceiptHash": "0xd4f50caf1cc85f263b02f87f5c64342a3c4cca509a851d2cc1647ebde38d8de4",
      "nearTransactionHash": "0xc2db8aeeab293e156cb9bd74aeceba16ff5447de55cbcf84f9ad1159a37705f8"
    },
    {
      "status": "0x1",
      "cumulativeGasUsed": "0x0",
      "logs": [
        {
          "address": "0x90581eca9469d8d7f5d3b60f4715027adfcf7927",
          "topics": [
            "0x8c5be1e5ebec7d5bd14f71427d1e84f3dd0314c0f7b2291e5b200ac8c7c3b925",
            "0x00000000000000000000000045dce8e4f2dc005a5f28206a46cb034697eeda8e",
            "0x00000000000000000000000053e36c8380ff62d7964bfa4868a0045e58a52344"
          ],
          "data": "0x0000000000000000000000000000000000000000000000000000000000000000",
          "blockHash": "0x95c0dd6f118992b4f592bf40b364ef74b66c35ea23b2c4fd939848529e590505",
          "blockNumber": "0xbceef6a",
          "transactionHash": "0x875e15a6839be04e239e5a70da02fc188f85a049030b5b22c1b8db763fb56f37",
          "transactionIndex": "0x0",
          "logIndex": "0x0",
          "removed": false
        },
        {
          "address": "0x90581eca9469d8d7f5d3b60f4715027adfcf7927",
          "topics": [
            "0xddf252ad1be2c89b69c2b068fc378daa952ba7f163c4a11628f55a4df523b3ef",
            "0x00000000000000000000000045dce8e4f2dc005a5f28206a46cb034697eeda8e",
            "0x00000000000000000000000053e36c8380ff62d7964bfa4868a0045e58a52344"
          ],
          "data": "0x000000000000000000000000000000000000000000000000000009184e72a000",
          "blockHash": "0x95c0dd6f118992b4f592bf40b364ef74b66c35ea23b2c4fd939848529e590505",
          "blockNumber": "0xbceef6a",
          "transactionHash": "0x875e15a6839be04e239e5a70da02fc188f85a049030b5b22c1b8db763fb56f37",
          "transactionIndex": "0x0",
          "logIndex": "0x1",
          "removed": false
        },
        {
          "address": "0x90581eca9469d8d7f5d3b60f4715027adfcf7927",
          "topics": [
            "0x8c5be1e5ebec7d5bd14f71427d1e84f3dd0314c0f7b2291e5b200ac8c7c3b925",
            "0x00000000000000000000000053e36c8380ff62d7964bfa4868a0045e58a52344",
            "0x00000000000000000000000090581eca9469d8d7f5d3b60f4715027adfcf7927"
          ],
          "data": "0x000000000000000000000000000000000000000000000000000009184e72a000",
          "blockHash": "0x95c0dd6f118992b4f592bf40b364ef74b66c35ea23b2c4fd939848529e590505",
          "blockNumber": "0xbceef6a",
          "transactionHash": "0x875e15a6839be04e239e5a70da02fc188f85a049030b5b22c1b8db763fb56f37",
          "transactionIndex": "0x0",
          "logIndex": "0x2",
          "removed": false
        },
        {
          "address": "0x90581eca9469d8d7f5d3b60f4715027adfcf7927",
          "topics": [
            "0xddf252ad1be2c89b69c2b068fc378daa952ba7f163c4a11628f55a4df523b3ef",
            "0x00000000000000000000000053e36c8380ff62d7964bfa4868a0045e58a52344",
            "0x0000000000000000000000000000000000000000000000000000000000000000"
          ],
          "data": "0x000000000000000000000000000000000000000000000000000009184e72a000",
          "blockHash": "0x95c0dd6f118992b4f592bf40b364ef74b66c35ea23b2c4fd939848529e590505",
          "blockNumber": "0xbceef6a",
          "transactionHash": "0x875e15a6839be04e239e5a70da02fc188f85a049030b5b22c1b8db763fb56f37",
          "transactionIndex": "0x0",
          "logIndex": "0x3",
          "removed": false
        },
        {
          "address": "0x1ace9dd1bc743ad036ef2d92af42ca70a1159df5",
          "topics": [
            "0x61ed099e74a97a1d7f8bb0952a88ca8b7b8ebd00c126ea04671f92a81213318a"
          ],
          "data": "0x000000000000000000000000a2b402ffe8dd7460a8b425644b6b9f50667f0a6100000000000000000000000000000000000000000000000000000821fcc2618c",
          "blockHash": "0x95c0dd6f118992b4f592bf40b364ef74b66c35ea23b2c4fd939848529e590505",
          "blockNumber": "0xbceef6a",
          "transactionHash": "0x875e15a6839be04e239e5a70da02fc188f85a049030b5b22c1b8db763fb56f37",
          "transactionIndex": "0x0",
          "logIndex": "0x4",
          "removed": false
        },
        {
          "address": "0x1ace9dd1bc743ad036ef2d92af42ca70a1159df5",
          "topics": [
            "0x07ea52d82345d6e838192107d8fd7123d9c2ec8e916cd0aad13fd2b60db24644"
          ],
          "data": "0x0000000000000000000000000000000000000000000000000000000000000060000000000000000000000000000000000000000000000000000000000000012000000000000000000000000000000000000000000000000000000000000001400000000000000000000000000000000000000000000000000000000000000005000000000000000000000000045d70bf1939af0489cb44533750a2e15c92d7d400000000000000000000000034730f2570e6cff8b1c91faabf37d0dd917c4367000000000000000000000000b4caa217dd195b3b40eee24b82c8093c2ea659cd000000000000000000000000d4a903930f2c9085586cda0b11d9681eecb20d2f000000000000000000000000dd7b5e1db4aafd5c8ec3b764efb8ed265aa5445b0000000000000000000000000000000000000000000000000000000000000000000000000000000000000000000000000000000000000000000000000000000500000000000000000000000000000000000000000000000000000165389a10e2000000000000000000000000000000000000000000000000000000feec1a99bd0000000000000000000000000000000000000000000000000000014e7cef84a100000000000000000000000000000000000000000000000000000115a7c525fe00000000000000000000000000000000000000000000000000000115a7c525fe",
          "blockHash": "0x95c0dd6f118992b4f592bf40b364ef74b66c35ea23b2c4fd939848529e590505",
          "blockNumber": "0xbceef6a",
          "transactionHash": "0x875e15a6839be04e239e5a70da02fc188f85a049030b5b22c1b8db763fb56f37",
          "transactionIndex": "0x0",
          "logIndex": "0x5",
          "removed": false
        },
        {
          "address": "0x1a44076050125825900e736c501f859c50fe728c",
          "topics": [
            "0x1ab700d4ced0c005b164c0f789fd09fcbb0156d4c2041b8a3bfbcd961cd1567f"
          ],
          "data": "0x000000000000000000000000000000000000000000000000000000000000006000000000000000000000000000000000000000000000000000000000000001800000000000000000000000001ace9dd1bc743ad036ef2d92af42ca70a1159df500000000000000000000000000000000000000000000000000000000000000f90100000000000000020000760300000000000000000000000090581eca9469d8d7f5d3b60f4715027adfcf79270000762f00000000000000000000000075c38d46001b0f8108c4136216bd2694982c20fca3d5fa88b45c05f51009d207179f7ef02fc1e952bc4af5e961993d28e2245ec40000000000000000000000002a2019b30c157db6c1c01306b8025167dbe1803b000000000000000a00000000000000000000000053e36c8380ff62d7964bfa4868a0045e58a5234400000000000000000000000045dce8e4f2dc005a5f28206a46cb034697eeda8e000000000000000000000000000000000000000000000000000000000000759d00000000000000000000000000000000000000000000000000000000000000000000000000002c0003010011010000000000000000000000000003d090010013030000000000000000000000000000000f42400000000000000000000000000000000000000000",
          "blockHash": "0x95c0dd6f118992b4f592bf40b364ef74b66c35ea23b2c4fd939848529e590505",
          "blockNumber": "0xbceef6a",
          "transactionHash": "0x875e15a6839be04e239e5a70da02fc188f85a049030b5b22c1b8db763fb56f37",
          "transactionIndex": "0x0",
          "logIndex": "0x6",
          "removed": false
        },
        {
          "address": "0x90581eca9469d8d7f5d3b60f4715027adfcf7927",
          "topics": [
            "0x85496b760a4b7f8d66384b9df21b381f5d1b1e79f229a47aaf4c232edc2fe59a",
            "0xa3d5fa88b45c05f51009d207179f7ef02fc1e952bc4af5e961993d28e2245ec4",
            "0x00000000000000000000000053e36c8380ff62d7964bfa4868a0045e58a52344"
          ],
          "data": "0x000000000000000000000000000000000000000000000000000000000000762f000000000000000000000000000000000000000000000000000009184e72a000000000000000000000000000000000000000000000000000000009184e72a000",
          "blockHash": "0x95c0dd6f118992b4f592bf40b364ef74b66c35ea23b2c4fd939848529e590505",
          "blockNumber": "0xbceef6a",
          "transactionHash": "0x875e15a6839be04e239e5a70da02fc188f85a049030b5b22c1b8db763fb56f37",
          "transactionIndex": "0x0",
          "logIndex": "0x7",
          "removed": false
        },
        {
          "address": "0x53e36c8380ff62d7964bfa4868a0045e58a52344",
          "topics": [
            "0xbc9ee36b6ca0bdd5b3840e6d329dd19a2490d880c7ce24d9818aa593adfb35be",
            "0x00000000000000000000000045dce8e4f2dc005a5f28206a46cb034697eeda8e",
            "0x000000000000000000000000000000000000000000000000000000000000759d",
            "0x00000000000000000000000045dce8e4f2dc005a5f28206a46cb034697eeda8e"
          ],
          "data": "0x00000000000000000000000090581eca9469d8d7f5d3b60f4715027adfcf7927000000000000000000000000000000000000000000000000000009184e72a000",
          "blockHash": "0x95c0dd6f118992b4f592bf40b364ef74b66c35ea23b2c4fd939848529e590505",
          "blockNumber": "0xbceef6a",
          "transactionHash": "0x875e15a6839be04e239e5a70da02fc188f85a049030b5b22c1b8db763fb56f37",
          "transactionIndex": "0x0",
          "logIndex": "0x8",
          "removed": false
        }
      ],
      "logsBloom": "0x80000000000001000000000208000000000000000000000000000000001000000000000008000000000000000000000000000000000000000000100000200200000002000000000000000008000000010000000000000000000000000000000000000000020000008000000000020800000080010010100000000010000000000000000000000004000010080008000000000000000000000000000000000000220000108000000020100000000000000000000000400000000440000000080000000002000000000000000080100100001100000000004000000000000020000010040000000002000000000000802000400000018000000000000000000000",
      "type": "0x0",
      "transactionHash": "0x875e15a6839be04e239e5a70da02fc188f85a049030b5b22c1b8db763fb56f37",
      "transactionIndex": "0x0",
      "blockHash": "0x95c0dd6f118992b4f592bf40b364ef74b66c35ea23b2c4fd939848529e590505",
      "blockNumber": "0xbceef6a",
      "gasUsed": "0x95a3c",
      "effectiveGasPrice": "0x42c1d80",
      "from": "0x45dce8e4f2dc005a5f28206a46cb034697eeda8e",
      "to": "0x53e36c8380ff62d7964bfa4868a0045e58a52344",
      "contractAddress": null,
      "nearReceiptHash": "0x241953a6878327a8b6aad3d25d2428b11efd2515f7d33661442a596658de65a8",
      "nearTransactionHash": "0x13bbbe546d65bce31e1fb1b97e4363b029e39611027d546524b90612f47d70af"
    }
  ],
  "libraries": [],
  "pending": [],
  "returns": {},
  "timestamp": 1778654595677,
  "chain": 1313161554,
  "commit": "3c1e5d2a"
}