{
  "transactions": [
    {
      "hash": "0xe0667e43d03e25c5fbf4f7790b059a52dfa4c177da98ce1c6ef9e4d746402578",
      "transactionType": "CALL",
      "contractName": null,
      "contractAddress": "0xc7346783f5e645aa998b106ef9e7f499528673d8",
      "function": "approve(address,uint256)",
      "arguments": [
        "0x6cA98f43719231d38F6426DB64C7F3D5C7CE7876",
        "10000000000000"
      ],
      "transaction": {
        "from": "0x45dce8e4f2dc005a5f28206a46cb034697eeda8e",
        "to": "0xc7346783f5e645aa998b106ef9e7f499528673d8",
        "gas": "0x121b5",
        "value": "0x0",
        "input": "0x095ea7b30000000000000000000000006ca98f43719231d38f6426db64c7f3d5c7ce7876000000000000000000000000000000000000000000000000000009184e72a000",
        "nonce": "0xe2",
        "chainId": "0xe708"
      },
      "additionalContracts": [],
      "isFixedGasLimit": false
    },
    {
      "hash": "0x0b00a1cf2c979464d0ea5675540bcd16894379b9b468dd4f419d5a257c96674b",
      "transactionType": "CALL",
      "contractName": null,
      "contractAddress": "0x6ca98f43719231d38f6426db64c7f3d5c7ce7876",
      "function": "sendOFT(address,uint32,bytes32,uint256)",
      "arguments": [
        "0xC7346783f5e645aa998B106Ef9E7f499528673D8",
        "30214",
        "0x00000000000000000000000045dce8e4f2dc005a5f28206a46cb034697eeda8e",
        "10000000000000"
      ],
      "transaction": {
        "from": "0x45dce8e4f2dc005a5f28206a46cb034697eeda8e",
        "to": "0x6ca98f43719231d38f6426db64c7f3d5c7ce7876",
        "gas": "0xcf1b4",
        "value": "0xa72255395a31",
        "input": "0x3e832c90000000000000000000000000c7346783f5e645aa998b106ef9e7f499528673d8000000000000000000000000000000000000000000000000000000000000760600000000000000000000000045dce8e4f2dc005a5f28206a46cb034697eeda8e000000000000000000000000000000000000000000000000000009184e72a000",
        "nonce": "0xe3",
        "chainId": "0xe708"
      },
      "additionalContracts": [],
      "isFixedGasLimit": false
    },
    {
      "hash": "0x5c17a9587986f879a760b337a168f39b43ff6c5a1299e9407d504e127f344137",
      "transactionType": "CALL",
      "contractName": null,
      "contractAddress": "0x592a48c0fb9c7f8bf1701cb0136b90dea2a5b7b6",
      "function": "approve(address,uint256)",
      "arguments": [
        "0x6cA98f43719231d38F6426DB64C7F3D5C7CE7876",
        "10000000000000"
      ],
      "transaction": {
        "from": "0x45dce8e4f2dc005a5f28206a46cb034697eeda8e",
        "to": "0x592a48c0fb9c7f8bf1701cb0136b90dea2a5b7b6",
        "gas": "0x132a0",
        "value": "0x0",
        "input": "0x095ea7b30000000000000000000000006ca98f43719231d38f6426db64c7f3d5c7ce7876000000000000000000000000000000000000000000000000000009184e72a000",
        "nonce": "0xe4",
        "chainId": "0xe708"
      },
      "additionalContracts": [],
      "isFixedGasLimit": false
    },
    {
      "hash": "0xbb3940de1e1fcd7c9866585433e627f924fdc2673f429263f15418cf039f7c5a",
      "transactionType": "CALL",
      "contractName": null,
      "contractAddress": "0x6ca98f43719231d38f6426db64c7f3d5c7ce7876",
      "function": "sendOFT(address,uint32,bytes32,uint256)",
      "arguments": [
        "0x592a48c0FB9c7f8BF1701cB0136b90DEa2A5B7B6",
        "30214",
        "0x00000000000000000000000045dce8e4f2dc005a5f28206a46cb034697eeda8e",
        "10000000000000"
      ],
      "transaction": {
        "from": "0x45dce8e4f2dc005a5f28206a46cb034697eeda8e",
        "to": "0x6ca98f43719231d38f6426db64c7f3d5c7ce7876",
        "gas": "0xcab6b",
        "value": "0xa72255395a31",
        "input": "0x3e832c90000000000000000000000000592a48c0fb9c7f8bf1701cb0136b90dea2a5b7b6000000000000000000000000000000000000000000000000000000000000760600000000000000000000000045dce8e4f2dc005a5f28206a46cb034697eeda8e000000000000000000000000000000000000000000000000000009184e72a000",
        "nonce": "0xe5",
        "chainId": "0xe708"
      },
      "additionalContracts": [],
      "isFixedGasLimit": false
    },
    {
      "hash": "0x7e268388bbc8fa9a874a950dd37d5c477dae679cbe62598fb0a1af3c552724a7",
      "transactionType": "CALL",
      "contractName": null,
      "contractAddress": "0xb1afd04774c02ae84692619448b08ba79f19b1ff",
      "function": "approve(address,uint256)",
      "arguments": [
        "0x6cA98f43719231d38F6426DB64C7F3D5C7CE7876",
        "10000000000000"
      ],
      "transaction": {
        "from": "0x45dce8e4f2dc005a5f28206a46cb034697eeda8e",
        "to": "0xb1afd04774c02ae84692619448b08ba79f19b1ff",
        "gas": "0x121b5",
        "value": "0x0",
        "input": "0x095ea7b30000000000000000000000006ca98f43719231d38f6426db64c7f3d5c7ce7876000000000000000000000000000000000000000000000000000009184e72a000",
        "nonce": "0xe6",
        "chainId": "0xe708"
      },
      "additionalContracts": [],
      "isFixedGasLimit": false
    },
    {
      "hash": "0xb27825105f1e1b55d176af86932502b75716743385240c9f3483e23bac78443b",
      "transactionType": "CALL",
      "contractName": null,
      "contractAddress": "0x6ca98f43719231d38f6426db64c7f3d5c7ce7876",
      "function": "sendOFT(address,uint32,bytes32,uint256)",
      "arguments": [
        "0xB1aFD04774c02AE84692619448B08BA79F19b1ff",
        "30214",
        "0x00000000000000000000000045dce8e4f2dc005a5f28206a46cb034697eeda8e",
        "10000000000000"
      ],
      "transaction": {
        "from": "0x45dce8e4f2dc005a5f28206a46cb034697eeda8e",
        "to": "0x6ca98f43719231d38f6426db64c7f3d5c7ce7876",
        "gas": "0xcab8a",
        "value": "0xa72255395a31",
        "input": "0x3e832c90000000000000000000000000b1afd04774c02ae84692619448b08ba79f19b1ff000000000000000000000000000000000000000000000000000000000000760600000000000000000000000045dce8e4f2dc005a5f28206a46cb034697eeda8e000000000000000000000000000000000000000000000000000009184e72a000",
        "nonce": "0xe7",
        "chainId": "0xe708"
      },
      "additionalContracts": [],
      "isFixedGasLimit": false
    },
    {
      "hash": "0x0ffc6e5383d851dacba238bdfaa4a7fa66a1da4c2d34faa75ca7dd696fc0f2fe",
      "transactionType": "CALL",
      "contractName": null,
      "contractAddress": "0x383eac7ccaa89684b8277cbabc25bca8b13b7aa2",
      "function": "approve(address,uint256)",
      "arguments": [
        "0x6cA98f43719231d38F6426DB64C7F3D5C7CE7876",
        "10000000000000"
      ],
      "transaction": {
        "from": "0x45dce8e4f2dc005a5f28206a46cb034697eeda8e",
        "to": "0x383eac7ccaa89684b8277cbabc25bca8b13b7aa2",
        "gas": "0x121b5",
        "value": "0x0",
        "input": "0x095ea7b30000000000000000000000006ca98f43719231d38f6426db64c7f3d5c7ce7876000000000000000000000000000000000000000000000000000009184e72a000",
        "nonce": "0xe8",
        "chainId": "0xe708"
      },
      "additionalContracts": [],
      "isFixedGasLimit": false
    },
    {
      "hash": "0x4517648997dfd3aa91b5f86e937873b516ccad3ccb3c72309067829e4afb947a",
      "transactionType": "CALL",
      "contractName": null,
      "contractAddress": "0x6ca98f43719231d38f6426db64c7f3d5c7ce7876",
      "function": "sendOFT(address,uint32,bytes32,uint256)",
      "arguments": [
        "0x383Eac7CcaA89684b8277cBabC25BCa8b13B7Aa2",
        "30214",
        "0x00000000000000000000000045dce8e4f2dc005a5f28206a46cb034697eeda8e",
        "10000000000000"
      ],
      "transaction": {
        "from": "0x45dce8e4f2dc005a5f28206a46cb034697eeda8e",
        "to": "0x6ca98f43719231d38f6426db64c7f3d5c7ce7876",
        "gas": "0xd6410",
        "value": "0xa72255395a31",
        "input": "0x3e832c90000000000000000000000000383eac7ccaa89684b8277cbabc25bca8b13b7aa2000000000000000000000000000000000000000000000000000000000000760600000000000000000000000045dce8e4f2dc005a5f28206a46cb034697eeda8e000000000000000000000000000000000000000000000000000009184e72a000",
        "nonce": "0xe9",
        "chainId": "0xe708"
      },
      "additionalContracts": [],
      "isFixedGasLimit": false
    },
    {
      "hash": "0x8d9c2af5b1f466153ea81744e695045e97b2f134ca7e2d99543576b6d9e7973d",
      "transactionType": "CALL",
      "contractName": null,
      "contractAddress": "0x5217ab28ece654aab2c68efedb6a22739df6c3d5",
      "function": "approve(address,uint256)",
      "arguments": [
        "0x6cA98f43719231d38F6426DB64C7F3D5C7CE7876",
        "10000000000000"
      ],
      "transaction": {
        "from": "0x45dce8e4f2dc005a5f28206a46cb034697eeda8e",
        "to": "0x5217ab28ece654aab2c68efedb6a22739df6c3d5",
        "gas": "0x132a0",
        "value": "0x0",
        "input": "0x095ea7b30000000000000000000000006ca98f43719231d38f6426db64c7f3d5c7ce7876000000000000000000000000000000000000000000000000000009184e72a000",
        "nonce": "0xea",
        "chainId": "0xe708"
      },
      "additionalContracts": [],
      "isFixedGasLimit": false
    },
    {
      "hash": "0xd786bc8529e02c1584d543d876941447c477dffbb1281f468318e62ff9656f05",
      "transactionType": "CALL",
      "contractName": null,
      "contractAddress": "0x6ca98f43719231d38f6426db64c7f3d5c7ce7876",
      "function": "sendOFT(address,uint32,bytes32,uint256)",
      "arguments": [
        "0x5217Ab28ECE654Aab2C68efedb6A22739df6C3D5",
        "30214",
        "0x00000000000000000000000045dce8e4f2dc005a5f28206a46cb034697eeda8e",
        "10000000000000"
      ],
      "transaction": {
        "from": "0x45dce8e4f2dc005a5f28206a46cb034697eeda8e",
        "to": "0x6ca98f43719231d38f6426db64c7f3d5c7ce7876",
        "gas": "0xcab6b",
        "value": "0xa72255395a31",
        "input": "0x3e832c900000000000000000000000005217ab28ece654aab2c68efedb6a22739df6c3d5000000000000000000000000000000000000000000000000000000000000760600000000000000000000000045dce8e4f2dc005a5f28206a46cb034697eeda8e000000000000000000000000000000000000000000000000000009184e72a000",
        "nonce": "0xeb",
        "chainId": "0xe708"
      },
      "additionalContracts": [],
      "isFixedGasLimit": false
    },
    {
      "hash": "0x45acac1286438d04336923d44cb02aa119ea786f6575f1124d52d5ce4fed03fb",
      "transactionType": "CALL",
      "contractName": null,
      "contractAddress": "0xdaf72aa849d3c4faa8a9c8c99f240cf33da02fc4",
      "function": "approve(address,uint256)",
      "arguments": [
        "0x6cA98f43719231d38F6426DB64C7F3D5C7CE7876",
        "10000000000000"
      ],
      "transaction": {
        "from": "0x45dce8e4f2dc005a5f28206a46cb034697eeda8e",
        "to": "0xdaf72aa849d3c4faa8a9c8c99f240cf33da02fc4",
        "gas": "0x121b5",
        "value": "0x0",
        "input": "0x095ea7b30000000000000000000000006ca98f43719231d38f6426db64c7f3d5c7ce7876000000000000000000000000000000000000000000000000000009184e72a000",
        "nonce": "0xec",
        "chainId": "0xe708"
      },
      "additionalContracts": [],
      "isFixedGasLimit": false
    },
    {
      "hash": "0x2c03e607ab31a03690803373a542019361670b63278f5b9aa81817e389705945",
      "transactionType": "CALL",
      "contractName": null,
      "contractAddress": "0x6ca98f43719231d38f6426db64c7f3d5c7ce7876",
      "function": "sendOFT(address,uint32,bytes32,uint256)",
      "arguments": [
        "0xDaF72Aa849d3C4FAA8A9c8c99f240Cf33dA02fc4",
        "30214",
        "0x00000000000000000000000045dce8e4f2dc005a5f28206a46cb034697eeda8e",
        "10000000000000"
      ],
      "transaction": {
        "from": "0x45dce8e4f2dc005a5f28206a46cb034697eeda8e",
        "to": "0x6ca98f43719231d38f6426db64c7f3d5c7ce7876",
        "gas": "0xd6410",
        "value": "0xa72255395a31",
        "input": "0x3e832c90000000000000000000000000daf72aa849d3c4faa8a9c8c99f240cf33da02fc4000000000000000000000000000000000000000000000000000000000000760600000000000000000000000045dce8e4f2dc005a5f28206a46cb034697eeda8e000000000000000000000000000000000000000000000000000009184e72a000",
        "nonce": "0xed",
        "chainId": "0xe708"
      },
      "additionalContracts": [],
      "isFixedGasLimit": false
    }
  ],
  "receipts": [
    {
      "status": "0x1",
      "cumulativeGasUsed": "0xd1bf",
      "logs": [
        {
          "address": "0xc7346783f5e645aa998b106ef9e7f499528673d8",
          "topics": [
            "0x8c5be1e5ebec7d5bd14f71427d1e84f3dd0314c0f7b2291e5b200ac8c7c3b925",
            "0x00000000000000000000000045dce8e4f2dc005a5f28206a46cb034697eeda8e",
            "0x0000000000000000000000006ca98f43719231d38f6426db64c7f3d5c7ce7876"
          ],
          "data": "0x000000000000000000000000000000000000000000000000000009184e72a000",
          "blockHash": "0x7e682e8b6c06ed71b11f370a646fe4d440f87e44e2cc555789685c19cc9016c3",
          "blockNumber": "0x1d34ccd",
          "blockTimestamp": "0x6a03fe25",
          "transactionHash": "0xe0667e43d03e25c5fbf4f7790b059a52dfa4c177da98ce1c6ef9e4d746402578",
          "transactionIndex": "0x0",
          "logIndex": "0x0",
          "removed": false
        }
      ],
      "logsBloom": "0x00000000000000000000000200000000000000000000000000000000000000000000000000000000000000000000000000000000000000000000000000200000000000000008000000000000000000000000000000000000000000000000000000000000000000000000000000000000000000000000000000000000080000000000000080000000000000000000000000002000000000000000000000000000020000000000000000000000000000000000000000000000000000000000000000000000000000800001000000000000001000000000000000000000000000000010000000000000000000000000800000000000000000000000000000000000",
      "type": "0x2",
      "transactionHash": "0xe0667e43d03e25c5fbf4f7790b059a52dfa4c177da98ce1c6ef9e4d746402578",
      "transactionIndex": "0x0",
      "blockHash": "0x7e682e8b6c06ed71b11f370a646fe4d440f87e44e2cc555789685c19cc9016c3",
      "blockNumber": "0x1d34ccd",
      "gasUsed": "0xd1bf",
      "effectiveGasPrice": "0x27f6780",
      "from": "0x45dce8e4f2dc005a5f28206a46cb034697eeda8e",
      "to": "0xc7346783f5e645aa998b106ef9e7f499528673d8",
      "contractAddress": null
    },
    {
      "status": "0x1",
      "cumulativeGasUsed": "0xa30cf",
      "logs": [
        {
          "address": "0xc7346783f5e645aa998b106ef9e7f499528673d8",
          "topics": [
            "0x8c5be1e5ebec7d5bd14f71427d1e84f3dd0314c0f7b2291e5b200ac8c7c3b925",
            "0x00000000000000000000000045dce8e4f2dc005a5f28206a46cb034697eeda8e",
            "0x0000000000000000000000006ca98f43719231d38f6426db64c7f3d5c7ce7876"
          ],
          "data": "0x0000000000000000000000000000000000000000000000000000000000000000",
          "blockHash": "0x7e682e8b6c06ed71b11f370a646fe4d440f87e44e2cc555789685c19cc9016c3",
          "blockNumber": "0x1d34ccd",
          "blockTimestamp": "0x6a03fe25",
          "transactionHash": "0x5c17a9587986f879a760b337a168f39b43ff6c5a1299e9407d504e127f344137",
          "transactionIndex": "0x1",
          "logIndex": "0x1",
          "removed": false
        },
        {
          "address": "0xc7346783f5e645aa998b106ef9e7f499528673d8",
          "topics": [
            "0xddf252ad1be2c89b69c2b068fc378daa952ba7f163c4a11628f55a4df523b3ef",
            "0x00000000000000000000000045dce8e4f2dc005a5f28206a46cb034697eeda8e",
            "0x0000000000000000000000006ca98f43719231d38f6426db64c7f3d5c7ce7876"
          ],
          "data": "0x000000000000000000000000000000000000000000000000000009184e72a000",
          "blockHash": "0x7e682e8b6c06ed71b11f370a646fe4d440f87e44e2cc555789685c19cc9016c3",
          "blockNumber": "0x1d34ccd",
          "blockTimestamp": "0x6a03fe25",
          "transactionHash": "0x5c17a9587986f879a760b337a168f39b43ff6c5a1299e9407d504e127f344137",
          "transactionIndex": "0x1",
          "logIndex": "0x2",
          "removed": false
        },
        {
          "address": "0xc7346783f5e645aa998b106ef9e7f499528673d8",
          "topics": [
            "0x8c5be1e5ebec7d5bd14f71427d1e84f3dd0314c0f7b2291e5b200ac8c7c3b925",
            "0x0000000000000000000000006ca98f43719231d38f6426db64c7f3d5c7ce7876",
            "0x000000000000000000000000c7346783f5e645aa998b106ef9e7f499528673d8"
          ],
          "data": "0x000000000000000000000000000000000000000000000000000009184e72a000",
          "blockHash": "0x7e682e8b6c06ed71b11f370a646fe4d440f87e44e2cc555789685c19cc9016c3",
          "blockNumber": "0x1d34ccd",
          "blockTimestamp": "0x6a03fe25",
          "transactionHash": "0x5c17a9587986f879a760b337a168f39b43ff6c5a1299e9407d504e127f344137",
          "transactionIndex": "0x1",
          "logIndex": "0x3",
          "removed": false
        },
        {
          "address": "0xc7346783f5e645aa998b106ef9e7f499528673d8",
          "topics": [
            "0xddf252ad1be2c89b69c2b068fc378daa952ba7f163c4a11628f55a4df523b3ef",
            "0x0000000000000000000000006ca98f43719231d38f6426db64c7f3d5c7ce7876",
            "0x0000000000000000000000000000000000000000000000000000000000000000"
          ],
          "data": "0x000000000000000000000000000000000000000000000000000009184e72a000",
          "blockHash": "0x7e682e8b6c06ed71b11f370a646fe4d440f87e44e2cc555789685c19cc9016c3",
          "blockNumber": "0x1d34ccd",
          "blockTimestamp": "0x6a03fe25",
          "transactionHash": "0x5c17a9587986f879a760b337a168f39b43ff6c5a1299e9407d504e127f344137",
          "transactionIndex": "0x1",
          "logIndex": "0x4",
          "removed": false
        },
        {
          "address": "0x32042142dd551b4ebe17b6fed53131dd4b4eea06",
          "topics": [
            "0x61ed099e74a97a1d7f8bb0952a88ca8b7b8ebd00c126ea04671f92a81213318a"
          ],
          "data": "0x0000000000000000000000000408804c5dcd9796f22558464e6fe5bddf16a7c700000000000000000000000000000000000000000000000000000825f1d68764",
          "blockHash": "0x7e682e8b6c06ed71b11f370a646fe4d440f87e44e2cc555789685c19cc9016c3",
          "blockNumber": "0x1d34ccd",
          "blockTimestamp": "0x6a03fe25",
          "transactionHash": "0x5c17a9587986f879a760b337a168f39b43ff6c5a1299e9407d504e127f344137",
          "transactionIndex": "0x1",
          "logIndex": "0x5",
          "removed": false
        },
        {
          "address": "0x32042142dd551b4ebe17b6fed53131dd4b4eea06",
          "topics": [
            "0x07ea52d82345d6e838192107d8fd7123d9c2ec8e916cd0aad13fd2b60db24644"
          ],
          "data": "0x0000000000000000000000000000000000000000000000000000000000000060000000000000000000000000000000000000000000000000000000000000012000000000000000000000000000000000000000000000000000000000000001400000000000000000000000000000000000000000000000000000000000000005000000000000000000000000129ee430cb2ff2708ccaddbdb408a88fe4ffd4800000000000000000000000007fe673201724925b5c477d4e1a4bd3e954688cf5000000000000000000000000da63525a0fc42bcc2cad1dd28708d5ed11849347000000000000000000000000dd7b5e1db4aafd5c8ec3b764efb8ed265aa5445b000000000000000000000000f4064220871e3b94ca6ab3b0cee8e29178bf47de00000000000000000000000000000000000000000000000000000000000000000000000000000000000000000000000000000000000000000000000000000005000000000000000000000000000000000000000000000000000000b38211fc4e000000000000000000000000000000000000000000000000000000b38211fc4e000000000000000000000000000000000000000000000000000000d8403c40f1000000000000000000000000000000000000000000000000000000a4cf9aada7000000000000000000000000000000000000000000000000000000e6f2b38f98",
          "blockHash": "0x7e682e8b6c06ed71b11f370a646fe4d440f87e44e2cc555789685c19cc9016c3",
          "blockNumber": "0x1d34ccd",
          "blockTimestamp": "0x6a03fe25",
          "transactionHash": "0x5c17a9587986f879a760b337a168f39b43ff6c5a1299e9407d504e127f344137",
          "transactionIndex": "0x1",
          "logIndex": "0x6",
          "removed": false
        },
        {
          "address": "0x1a44076050125825900e736c501f859c50fe728c",
          "topics": [
            "0x1ab700d4ced0c005b164c0f789fd09fcbb0156d4c2041b8a3bfbcd961cd1567f"
          ],
          "data": "0x0000000000000000000000000000000000000000000000000000000000000060000000000000000000000000000000000000000000000000000000000000018000000000000000000000000032042142dd551b4ebe17b6fed53131dd4b4eea0600000000000000000000000000000000000000000000000000000000000000f901000000000000039e000075e7000000000000000000000000c7346783f5e645aa998b106ef9e7f499528673d80000762f00000000000000000000000096a394058e2b84a89bac9667b19661ed003cf5d42811472a62b46e180dde18b2da3560224e2545d5bd990dd4c5769ff511346bac0000000000000000000000002a2019b30c157db6c1c01306b8025167dbe1803b000000000000000a0000000000000000000000006ca98f43719231d38f6426db64c7f3d5c7ce787600000000000000000000000045dce8e4f2dc005a5f28206a46cb034697eeda8e000000000000000000000000000000000000000000000000000000000000760600000000000000000000000000000000000000000000000000000000000000000000000000002c0003010011010000000000000000000000000003d090010013030000000000000000000000000000000f42400000000000000000000000000000000000000000",
          "blockHash": "0x7e682e8b6c06ed71b11f370a646fe4d440f87e44e2cc555789685c19cc9016c3",
          "blockNumber": "0x1d34ccd",
          "blockTimestamp": "0x6a03fe25",
          "transactionHash": "0x5c17a9587986f879a760b337a168f39b43ff6c5a1299e9407d504e127f344137",
          "transactionIndex": "0x1",
          "logIndex": "0x7",
          "removed": false
        },
        {
          "address": "0xc7346783f5e645aa998b106ef9e7f499528673d8",
          "topics": [
            "0x85496b760a4b7f8d66384b9df21b381f5d1b1e79f229a47aaf4c232edc2fe59a",
            "0x2811472a62b46e180dde18b2da3560224e2545d5bd990dd4c5769ff511346bac",
            "0x0000000000000000000000006ca98f43719231d38f6426db64c7f3d5c7ce7876"
          ],
          "data": "0x000000000000000000000000000000000000000000000000000000000000762f000000000000000000000000000000000000000000000000000009184e72a000000000000000000000000000000000000000000000000000000009184e72a000",
          "blockHash": "0x7e682e8b6c06ed71b11f370a646fe4d440f87e44e2cc555789685c19cc9016c3",
          "blockNumber": "0x1d34ccd",
          "blockTimestamp": "0x6a03fe25",
          "transactionHash": "0x5c17a9587986f879a760b337a168f39b43ff6c5a1299e9407d504e127f344137",
          "transactionIndex": "0x1",
          "logIndex": "0x8",
          "removed": false
        },
        {
          "address": "0x6ca98f43719231d38f6426db64c7f3d5c7ce7876",
          "topics": [
            "0xbc9ee36b6ca0bdd5b3840e6d329dd19a2490d880c7ce24d9818aa593adfb35be",
            "0x00000000000000000000000045dce8e4f2dc005a5f28206a46cb034697eeda8e",
            "0x0000000000000000000000000000000000000000000000000000000000007606",
            "0x00000000000000000000000045dce8e4f2dc005a5f28206a46cb034697eeda8e"
          ],
          "data": "0x000000000000000000000000c7346783f5e645aa998b106ef9e7f499528673d8000000000000000000000000000000000000000000000000000009184e72a000",
          "blockHash": "0x7e682e8b6c06ed71b11f370a646fe4d440f87e44e2cc555789685c19cc9016c3",
          "blockNumber": "0x1d34ccd",
          "blockTimestamp": "0x6a03fe25",
          "transactionHash": "0x5c17a9587986f879a760b337a168f39b43ff6c5a1299e9407d504e127f344137",
          "transactionIndex": "0x1",
          "logIndex": "0x9",
          "removed": false
        }
      ],
      "logsBloom": "0x00000000000000000000000200000002000000000000010000200000001000000000002000000000000200000000000000000000000008000000000000200000000002000008010000000008000000000000000000000000000000000000020400000000020000008000000000000800110000000010100000000010080000020000000080000000000000080000000000002000000000000000000000000000020000108000000020100000000000000000000000400000000440000000000000400002000000800001000080000000001000000000000000000000000020000010040000000000000000000000802000000000018000200000000000000000",
      "type": "0x2",
      "transactionHash": "0x5c17a9587986f879a760b337a168f39b43ff6c5a1299e9407d504e127f344137",
      "transactionIndex": "0x1",
      "blockHash": "0x7e682e8b6c06ed71b11f370a646fe4d440f87e44e2cc555789685c19cc9016c3",
      "blockNumber": "0x1d34ccd",
      "gasUsed": "0x95f10",
      "effectiveGasPrice": "0x27f6780",
      "from": "0x45dce8e4f2dc005a5f28206a46cb034697eeda8e",
      "to": "0x6ca98f43719231d38f6426db64c7f3d5c7ce7876",
      "contractAddress": null
    },
    {
      "status": "0x1",
      "cumulativeGasUsed": "0xb0278",
      "logs": [
        {
          "address": "0x592a48c0fb9c7f8bf1701cb0136b90dea2a5b7b6",
          "topics": [
            "0x8c5be1e5ebec7d5bd14f71427d1e84f3dd0314c0f7b2291e5b200ac8c7c3b925",
            "0x00000000000000000000000045dce8e4f2dc005a5f28206a46cb034697eeda8e",
            "0x0000000000000000000000006ca98f43719231d38f6426db64c7f3d5c7ce7876"
          ],
          "data": "0x000000000000000000000000000000000000000000000000000009184e72a000",
          "blockHash": "0x7e682e8b6c06ed71b11f370a646fe4d440f87e44e2cc555789685c19cc9016c3",
          "blockNumber": "0x1d34ccd",
          "blockTimestamp": "0x6a03fe25",
          "transactionHash": "0xbb3940de1e1fcd7c9866585433e627f924fdc2673f429263f15418cf039f7c5a",
          "transactionIndex": "0x2",
          "logIndex": "0xa",
          "removed": false
        }
      ],
      "logsBloom": "0x00000000000002000000000200000000000000000000000000000000000000000000000000000000000000000000000000000000000000000000000010200000000000000000000000000000000000000000000000000000000000000000000000004000000000000000000000000000000000000000000000000000080000000000000080000000000000000000000000000000000000000000000000000000020000000000000000000000000000000000000000000000000000000000000000000000000000800000000000000000001000000000000000000000000000000010000000000000000000000000800000000000000000000000000000000000",
      "type": "0x2",
      "transactionHash": "0xbb3940de1e1fcd7c9866585433e627f924fdc2673f429263f15418cf039f7c5a",
      "transactionIndex": "0x2",
      "blockHash": "0x7e682e8b6c06ed71b11f370a646fe4d440f87e44e2cc555789685c19cc9016c3",
      "blockNumber": "0x1d34ccd",
      "gasUsed": "0xd1a9",
      "effectiveGasPrice": "0x27f6780",
      "from": "0x45dce8e4f2dc005a5f28206a46cb034697eeda8e",
      "to": "0x592a48c0fb9c7f8bf1701cb0136b90dea2a5b7b6",
      "contractAddress": null
    },
    {
      "status": "0x1",
      "cumulativeGasUsed": "0x142ea6",
      "logs": [
        {
          "address": "0x592a48c0fb9c7f8bf1701cb0136b90dea2a5b7b6",
          "topics": [
            "0x8c5be1e5ebec7d5bd14f71427d1e84f3dd0314c0f7b2291e5b200ac8c7c3b925",
            "0x00000000000000000000000045dce8e4f2dc005a5f28206a46cb034697eeda8e",
            "0x0000000000000000000000006ca98f43719231d38f6426db64c7f3d5c7ce7876"
          ],
          "data": "0x0000000000000000000000000000000000000000000000000000000000000000",
          "blockHash": "0x7e682e8b6c06ed71b11f370a646fe4d440f87e44e2cc555789685c19cc9016c3",
          "blockNumber": "0x1d34ccd",
          "blockTimestamp": "0x6a03fe25",
          "transactionHash": "0x0b00a1cf2c979464d0ea5675540bcd16894379b9b468dd4f419d5a257c96674b",
          "transactionIndex": "0x3",
          "logIndex": "0xb",
          "removed": false
        },
        {
          "address": "0x592a48c0fb9c7f8bf1701cb0136b90dea2a5b7b6",
          "topics": [
            "0xddf252ad1be2c89b69c2b068fc378daa952ba7f163c4a11628f55a4df523b3ef",
            "0x00000000000000000000000045dce8e4f2dc005a5f28206a46cb034697eeda8e",
            "0x0000000000000000000000006ca98f43719231d38f6426db64c7f3d5c7ce7876"
          ],
          "data": "0x000000000000000000000000000000000000000000000000000009184e72a000",
          "blockHash": "0x7e682e8b6c06ed71b11f370a646fe4d440f87e44e2cc555789685c19cc9016c3",
          "blockNumber": "0x1d34ccd",
          "blockTimestamp": "0x6a03fe25",
          "transactionHash": "0x0b00a1cf2c979464d0ea5675540bcd16894379b9b468dd4f419d5a257c96674b",
          "transactionIndex": "0x3",
          "logIndex": "0xc",
          "removed": false
        },
        {
          "address": "0x592a48c0fb9c7f8bf1701cb0136b90dea2a5b7b6",
          "topics": [
            "0x8c5be1e5ebec7d5bd14f71427d1e84f3dd0314c0f7b2291e5b200ac8c7c3b925",
            "0x0000000000000000000000006ca98f43719231d38f6426db64c7f3d5c7ce7876",
            "0x000000000000000000000000592a48c0fb9c7f8bf1701cb0136b90dea2a5b7b6"
          ],
          "data": "0x000000000000000000000000000000000000000000000000000009184e72a000",
          "blockHash": "0x7e682e8b6c06ed71b11f370a646fe4d440f87e44e2cc555789685c19cc9016c3",
          "blockNumber": "0x1d34ccd",
          "blockTimestamp": "0x6a03fe25",
          "transactionHash": "0x0b00a1cf2c979464d0ea5675540bcd16894379b9b468dd4f419d5a257c96674b",
          "transactionIndex": "0x3",
          "logIndex": "0xd",
          "removed": false
        },
        {
          "address": "0x592a48c0fb9c7f8bf1701cb0136b90dea2a5b7b6",
          "topics": [
            "0xddf252ad1be2c89b69c2b068fc378daa952ba7f163c4a11628f55a4df523b3ef",
            "0x0000000000000000000000006ca98f43719231d38f6426db64c7f3d5c7ce7876",
            "0x0000000000000000000000000000000000000000000000000000000000000000"
          ],
          "data": "0x000000000000000000000000000000000000000000000000000009184e72a000",
          "blockHash": "0x7e682e8b6c06ed71b11f370a646fe4d440f87e44e2cc555789685c19cc9016c3",
          "blockNumber": "0x1d34ccd",
          "blockTimestamp": "0x6a03fe25",
          "transactionHash": "0x0b00a1cf2c979464d0ea5675540bcd16894379b9b468dd4f419d5a257c96674b",
          "transactionIndex": "0x3",
          "logIndex": "0xe",
          "removed": false
        },
        {
          "address": "0x32042142dd551b4ebe17b6fed53131dd4b4eea06",
          "topics": [
            "0x61ed099e74a97a1d7f8bb0952a88ca8b7b8ebd00c126ea04671f92a81213318a"
          ],
          "data": "0x0000000000000000000000000408804c5dcd9796f22558464e6fe5bddf16a7c700000000000000000000000000000000000000000000000000000825f1d68764",
          "blockHash": "0x7e682e8b6c06ed71b11f370a646fe4d440f87e44e2cc555789685c19cc9016c3",
          "blockNumber": "0x1d34ccd",
          "blockTimestamp": "0x6a03fe25",
          "transactionHash": "0x0b00a1cf2c979464d0ea5675540bcd16894379b9b468dd4f419d5a257c96674b",
          "transactionIndex": "0x3",
          "logIndex": "0xf",
          "removed": false
        },
        {
          "address": "0x32042142dd551b4ebe17b6fed53131dd4b4eea06",
          "topics": [
            "0x07ea52d82345d6e838192107d8fd7123d9c2ec8e916cd0aad13fd2b60db24644"
          ],
          "data": "0x0000000000000000000000000000000000000000000000000000000000000060000000000000000000000000000000000000000000000000000000000000012000000000000000000000000000000000000000000000000000000000000001400000000000000000000000000000000000000000000000000000000000000005000000000000000000000000129ee430cb2ff2708ccaddbdb408a88fe4ffd4800000000000000000000000007fe673201724925b5c477d4e1a4bd3e954688cf5000000000000000000000000da63525a0fc42bcc2cad1dd28708d5ed11849347000000000000000000000000dd7b5e1db4aafd5c8ec3b764efb8ed265aa5445b000000000000000000000000f4064220871e3b94ca6ab3b0cee8e29178bf47de00000000000000000000000000000000000000000000000000000000000000000000000000000000000000000000000000000000000000000000000000000005000000000000000000000000000000000000000000000000000000b38211fc4e000000000000000000000000000000000000000000000000000000b38211fc4e000000000000000000000000000000000000000000000000000000d8403c40f1000000000000000000000000000000000000000000000000000000a4cf9aada7000000000000000000000000000000000000000000000000000000e6f2b38f98",
          "blockHash": "0x7e682e8b6c06ed71b11f370a646fe4d440f87e44e2cc555789685c19cc9016c3",
          "blockNumber": "0x1d34ccd",
          "blockTimestamp": "0x6a03fe25",
          "transactionHash": "0x0b00a1cf2c979464d0ea5675540bcd16894379b9b468dd4f419d5a257c96674b",
          "transactionIndex": "0x3",
          "logIndex": "0x10",
          "removed": false
        },
        {
          "address": "0x1a44076050125825900e736c501f859c50fe728c",
          "topics": [
            "0x1ab700d4ced0c005b164c0f789fd09fcbb0156d4c2041b8a3bfbcd961cd1567f"
          ],
          "data": "0x0000000000000000000000000000000000000000000000000000000000000060000000000000000000000000000000000000000000000000000000000000018000000000000000000000000032042142dd551b4ebe17b6fed53131dd4b4eea0600000000000000000000000000000000000000000000000000000000000000f9010000000000000005000075e7000000000000000000000000592a48c0fb9c7f8bf1701cb0136b90dea2a5b7b60000762f00000000000000000000000088aa7854d3b2daa5e37e7ce73a1f39669623a361d87497d1de0df48b07dca19c9a0c6f23e4ac564665b4aaeae5310678e817efde0000000000000000000000002a2019b30c157db6c1c01306b8025167dbe1803b000000000000000a0000000000000000000000006ca98f43719231d38f6426db64c7f3d5c7ce787600000000000000000000000045dce8e4f2dc005a5f28206a46cb034697eeda8e000000000000000000000000000000000000000000000000000000000000760600000000000000000000000000000000000000000000000000000000000000000000000000002c0003010011010000000000000000000000000003d090010013030000000000000000000000000000000f42400000000000000000000000000000000000000000",
          "blockHash": "0x7e682e8b6c06ed71b11f370a646fe4d440f87e44e2cc555789685c19cc9016c3",
          "blockNumber": "0x1d34ccd",
          "blockTimestamp": "0x6a03fe25",
          "transactionHash": "0x0b00a1cf2c979464d0ea5675540bcd16894379b9b468dd4f419d5a257c96674b",
          "transactionIndex": "0x3",
          "logIndex": "0x11",
          "removed": false
        },
        {
          "address": "0x592a48c0fb9c7f8bf1701cb0136b90dea2a5b7b6",
          "topics": [
            "0x85496b760a4b7f8d66384b9df21b381f5d1b1e79f229a47aaf4c232edc2fe59a",
            "0xd87497d1de0df48b07dca19c9a0c6f23e4ac564665b4aaeae5310678e817efde",
            "0x0000000000000000000000006ca98f43719231d38f6426db64c7f3d5c7ce7876"
          ],
          "data": "0x000000000000000000000000000000000000000000000000000000000000762f000000000000000000000000000000000000000000000000000009184e72a000000000000000000000000000000000000000000000000000000009184e72a000",
          "blockHash": "0x7e682e8b6c06ed71b11f370a646fe4d440f87e44e2cc555789685c19cc9016c3",
          "blockNumber": "0x1d34ccd",
          "blockTimestamp": "0x6a03fe25",
          "transactionHash": "0x0b00a1cf2c979464d0ea5675540bcd16894379b9b468dd4f419d5a257c96674b",
          "transactionIndex": "0x3",
          "logIndex": "0x12",
          "removed": false
        },
        {
          "address": "0x6ca98f43719231d38f6426db64c7f3d5c7ce7876",
          "topics": [
            "0xbc9ee36b6ca0bdd5b3840e6d329dd19a2490d880c7ce24d9818aa593adfb35be",
            "0x00000000000000000000000045dce8e4f2dc005a5f28206a46cb034697eeda8e",
            "0x0000000000000000000000000000000000000000000000000000000000007606",
            "0x00000000000000000000000045dce8e4f2dc005a5f28206a46cb034697eeda8e"
          ],
          "data": "0x000000000000000000000000592a48c0fb9c7f8bf1701cb0136b90dea2a5b7b6000000000000000000000000000000000000000000000000000009184e72a000",
          "blockHash": "0x7e682e8b6c06ed71b11f370a646fe4d440f87e44e2cc555789685c19cc9016c3",
          "blockNumber": "0x1d34ccd",
          "blockTimestamp": "0x6a03fe25",
          "transactionHash": "0x0b00a1cf2c979464d0ea5675540bcd16894379b9b468dd4f419d5a257c96674b",
          "transactionIndex": "0x3",
          "logIndex": "0x13",
          "removed": false
        }
      ],
      "logsBloom": "0x00000000000002000000000200000002000000000000011000200000001000000000002000000000000000080000000000000000000008000000000010200000000002000000010000000008000000000000000000000000000000000000020000004000020000008000000000000800010000000010100000000010080000020000000080000000000000080080000000000000000001000000000000000000020000108000000020100000000000000000000020400000000440000000000000000002000000800000000080000000001000008000000000000000000020000010040000000000000000000000802000000000018000000000000000000000",
      "type": "0x2",
      "transactionHash": "0x0b00a1cf2c979464d0ea5675540bcd16894379b9b468dd4f419d5a257c96674b",
      "transactionIndex": "0x3",
      "blockHash": "0x7e682e8b6c06ed71b11f370a646fe4d440f87e44e2cc555789685c19cc9016c3",
      "blockNumber": "0x1d34ccd",
      "gasUsed": "0x92c2e",
      "effectiveGasPrice": "0x27f6780",
      "from": "0x45dce8e4f2dc005a5f28206a46cb034697eeda8e",
      "to": "0x6ca98f43719231d38f6426db64c7f3d5c7ce7876",
      "contractAddress": null
    },
    {
      "status": "0x1",
      "cumulativeGasUsed": "0x150065",
      "logs": [
        {
          "address": "0xb1afd04774c02ae84692619448b08ba79f19b1ff",
          "topics": [
            "0x8c5be1e5ebec7d5bd14f71427d1e84f3dd0314c0f7b2291e5b200ac8c7c3b925",
            "0x00000000000000000000000045dce8e4f2dc005a5f28206a46cb034697eeda8e",
            "0x0000000000000000000000006ca98f43719231d38f6426db64c7f3d5c7ce7876"
          ],
          "data": "0x000000000000000000000000000000000000000000000000000009184e72a000",
          "blockHash": "0x7e682e8b6c06ed71b11f370a646fe4d440f87e44e2cc555789685c19cc9016c3",
          "blockNumber": "0x1d34ccd",
          "blockTimestamp": "0x6a03fe25",
          "transactionHash": "0x7e268388bbc8fa9a874a950dd37d5c477dae679cbe62598fb0a1af3c552724a7",
          "transactionIndex": "0x4",
          "logIndex": "0x14",
          "removed": false
        }
      ],
      "logsBloom": "0x00000000000000000000000200000000000000000000000000000000000000000000000000000000000000000000000000000000000000000000000000200000000000000000000000000000000000000000000000000000000000000000000000000000000000000000000000000000008000000000000200000000080000000000000080000000000000000000000000000000000000000000000000000000020000000000000000000000000000000000000000000000000000040000000000000000000000800000000000000000001000000000000000000000000000000010000000000000000000000000800000000000000000000000000000000000",
      "type": "0x2",
      "transactionHash": "0x7e268388bbc8fa9a874a950dd37d5c477dae679cbe62598fb0a1af3c552724a7",
      "transactionIndex": "0x4",
      "blockHash": "0x7e682e8b6c06ed71b11f370a646fe4d440f87e44e2cc555789685c19cc9016c3",
      "blockNumber": "0x1d34ccd",
      "gasUsed": "0xd1bf",
      "effectiveGasPrice": "0x27f6780",
      "from": "0x45dce8e4f2dc005a5f28206a46cb034697eeda8e",
      "to": "0xb1afd04774c02ae84692619448b08ba79f19b1ff",
      "contractAddress": null
    },
    {
      "status": "0x1",
      "cumulativeGasUsed": "0x1e2ca9",
      "logs": [
        {
          "address": "0xb1afd04774c02ae84692619448b08ba79f19b1ff",
          "topics": [
            "0x8c5be1e5ebec7d5bd14f71427d1e84f3dd0314c0f7b2291e5b200ac8c7c3b925",
            "0x00000000000000000000000045dce8e4f2dc005a5f28206a46cb034697eeda8e",
            "0x0000000000000000000000006ca98f43719231d38f6426db64c7f3d5c7ce7876"
          ],
          "data": "0x0000000000000000000000000000000000000000000000000000000000000000",
          "blockHash": "0x7e682e8b6c06ed71b11f370a646fe4d440f87e44e2cc555789685c19cc9016c3",
          "blockNumber": "0x1d34ccd",
          "blockTimestamp": "0x6a03fe25",
          "transactionHash": "0x8d9c2af5b1f466153ea81744e695045e97b2f134ca7e2d99543576b6d9e7973d",
          "transactionIndex": "0x5",
          "logIndex": "0x15",
          "removed": false
        },
        {
          "address": "0xb1afd04774c02ae84692619448b08ba79f19b1ff",
          "topics": [
            "0xddf252ad1be2c89b69c2b068fc378daa952ba7f163c4a11628f55a4df523b3ef",
            "0x00000000000000000000000045dce8e4f2dc005a5f28206a46cb034697eeda8e",
            "0x0000000000000000000000006ca98f43719231d38f6426db64c7f3d5c7ce7876"
          ],
          "data": "0x000000000000000000000000000000000000000000000000000009184e72a000",
          "blockHash": "0x7e682e8b6c06ed71b11f370a646fe4d440f87e44e2cc555789685c19cc9016c3",
          "blockNumber": "0x1d34ccd",
          "blockTimestamp": "0x6a03fe25",
          "transactionHash": "0x8d9c2af5b1f466153ea81744e695045e97b2f134ca7e2d99543576b6d9e7973d",
          "transactionIndex": "0x5",
          "logIndex": "0x16",
          "removed": false
        },
        {
          "address": "0xb1afd04774c02ae84692619448b08ba79f19b1ff",
          "topics": [
            "0x8c5be1e5ebec7d5bd14f71427d1e84f3dd0314c0f7b2291e5b200ac8c7c3b925",
            "0x0000000000000000000000006ca98f43719231d38f6426db64c7f3d5c7ce7876",
            "0x000000000000000000000000b1afd04774c02ae84692619448b08ba79f19b1ff"
          ],
          "data": "0x000000000000000000000000000000000000000000000000000009184e72a000",
          "blockHash": "0x7e682e8b6c06ed71b11f370a646fe4d440f87e44e2cc555789685c19cc9016c3",
          "blockNumber": "0x1d34ccd",
          "blockTimestamp": "0x6a03fe25",
          "transactionHash": "0x8d9c2af5b1f466153ea81744e695045e97b2f134ca7e2d99543576b6d9e7973d",
          "transactionIndex": "0x5",
          "logIndex": "0x17",
          "removed": false
        },
        {
          "address": "0xb1afd04774c02ae84692619448b08ba79f19b1ff",
          "topics": [
            "0xddf252ad1be2c89b69c2b068fc378daa952ba7f163c4a11628f55a4df523b3ef",
            "0x0000000000000000000000006ca98f43719231d38f6426db64c7f3d5c7ce7876",
            "0x0000000000000000000000000000000000000000000000000000000000000000"
          ],
          "data": "0x000000000000000000000000000000000000000000000000000009184e72a000",
          "blockHash": "0x7e682e8b6c06ed71b11f370a646fe4d440f87e44e2cc555789685c19cc9016c3",
          "blockNumber": "0x1d34ccd",
          "blockTimestamp": "0x6a03fe25",
          "transactionHash": "0x8d9c2af5b1f466153ea81744e695045e97b2f134ca7e2d99543576b6d9e7973d",
          "transactionIndex": "0x5",
          "logIndex": "0x18",
          "removed": false
        },
        {
          "address": "0x32042142dd551b4ebe17b6fed53131dd4b4eea06",
          "topics": [
            "0x61ed099e74a97a1d7f8bb0952a88ca8b7b8ebd00c126ea04671f92a81213318a"
          ],
          "data": "0x0000000000000000000000000408804c5dcd9796f22558464e6fe5bddf16a7c700000000000000000000000000000000000000000000000000000825f1d68764",
          "blockHash": "0x7e682e8b6c06ed71b11f370a646fe4d440f87e44e2cc555789685c19cc9016c3",
          "blockNumber": "0x1d34ccd",
          "blockTimestamp": "0x6a03fe25",
          "transactionHash": "0x8d9c2af5b1f466153ea81744e695045e97b2f134ca7e2d99543576b6d9e7973d",
          "transactionIndex": "0x5",
          "logIndex": "0x19",
          "removed": false
        },
        {
          "address": "0x32042142dd551b4ebe17b6fed53131dd4b4eea06",
          "topics": [
            "0x07ea52d82345d6e838192107d8fd7123d9c2ec8e916cd0aad13fd2b60db24644"
          ],
          "data": "0x0000000000000000000000000000000000000000000000000000000000000060000000000000000000000000000000000000000000000000000000000000012000000000000000000000000000000000000000000000000000000000000001400000000000000000000000000000000000000000000000000000000000000005000000000000000000000000129ee430cb2ff2708ccaddbdb408a88fe4ffd4800000000000000000000000007fe673201724925b5c477d4e1a4bd3e954688cf5000000000000000000000000da63525a0fc42bcc2cad1dd28708d5ed11849347000000000000000000000000dd7b5e1db4aafd5c8ec3b764efb8ed265aa5445b000000000000000000000000f4064220871e3b94ca6ab3b0cee8e29178bf47de00000000000000000000000000000000000000000000000000000000000000000000000000000000000000000000000000000000000000000000000000000005000000000000000000000000000000000000000000000000000000b38211fc4e000000000000000000000000000000000000000000000000000000b38211fc4e000000000000000000000000000000000000000000000000000000d8403c40f1000000000000000000000000000000000000000000000000000000a4cf9aada7000000000000000000000000000000000000000000000000000000e6f2b38f98",
          "blockHash": "0x7e682e8b6c06ed71b11f370a646fe4d440f87e44e2cc555789685c19cc9016c3",
          "blockNumber": "0x1d34ccd",
          "blockTimestamp": "0x6a03fe25",
          "transactionHash": "0x8d9c2af5b1f466153ea81744e695045e97b2f134ca7e2d99543576b6d9e7973d",
          "transactionIndex": "0x5",
          "logIndex": "0x1a",
          "removed": false
        },
        {
          "address": "0x1a44076050125825900e736c501f859c50fe728c",
          "topics": [
            "0x1ab700d4ced0c005b164c0f789fd09fcbb0156d4c2041b8a3bfbcd961cd1567f"
          ],
          "data": "0x0000000000000000000000000000000000000000000000000000000000000060000000000000000000000000000000000000000000000000000000000000018000000000000000000000000032042142dd551b4ebe17b6fed53131dd4b4eea0600000000000000000000000000000000000000000000000000000000000000f90100000000000002f3000075e7000000000000000000000000b1afd04774c02ae84692619448b08ba79f19b1ff0000762f0000000000000000000000009abfe1f8a999b0011ecd6116649aee8d575f560499a19dfa187567f4c5c4ca246d83f565ecf722d32de252acd58c6cd4b59d65e00000000000000000000000002a2019b30c157db6c1c01306b8025167dbe1803b000000000000000a0000000000000000000000006ca98f43719231d38f6426db64c7f3d5c7ce787600000000000000000000000045dce8e4f2dc005a5f28206a46cb034697eeda8e000000000000000000000000000000000000000000000000000000000000760600000000000000000000000000000000000000000000000000000000000000000000000000002c0003010011010000000000000000000000000003d090010013030000000000000000000000000000000f42400000000000000000000000000000000000000000",
          "blockHash": "0x7e682e8b6c06ed71b11f370a646fe4d440f87e44e2cc555789685c19cc9016c3",
          "blockNumber": "0x1d34ccd",
          "blockTimestamp": "0x6a03fe25",
          "transactionHash": "0x8d9c2af5b1f466153ea81744e695045e97b2f134ca7e2d99543576b6d9e7973d",
          "transactionIndex": "0x5",
          "logIndex": "0x1b",
          "removed": false
        },
        {
          "address": "0xb1afd04774c02ae84692619448b08ba79f19b1ff",
          "topics": [
            "0x85496b760a4b7f8d66384b9df21b381f5d1b1e79f229a47aaf4c232edc2fe59a",
            "0x99a19dfa187567f4c5c4ca246d83f565ecf722d32de252acd58c6cd4b59d65e0",
            "0x0000000000000000000000006ca98f43719231d38f6426db64c7f3d5c7ce7876"
          ],
          "data": "0x000000000000000000000000000000000000000000000000000000000000762f000000000000000000000000000000000000000000000000000009184e72a000000000000000000000000000000000000000000000000000000009184e72a000",
          "blockHash": "0x7e682e8b6c06ed71b11f370a646fe4d440f87e44e2cc555789685c19cc9016c3",
          "blockNumber": "0x1d34ccd",
          "blockTimestamp": "0x6a03fe25",
          "transactionHash": "0x8d9c2af5b1f466153ea81744e695045e97b2f134ca7e2d99543576b6d9e7973d",
          "transactionIndex": "0x5",
          "logIndex": "0x1c",
          "removed": false
        },
        {
          "address": "0x6ca98f43719231d38f6426db64c7f3d5c7ce7876",
          "topics": [
            "0xbc9ee36b6ca0bdd5b3840e6d329dd19a2490d880c7ce24d9818aa593adfb35be",
            "0x00000000000000000000000045dce8e4f2dc005a5f28206a46cb034697eeda8e",
            "0x0000000000000000000000000000000000000000000000000000000000007606",
            "0x00000000000000000000000045dce8e4f2dc005a5f28206a46cb034697eeda8e"
          ],
          "data": "0x000000000000000000000000b1afd04774c02ae84692619448b08ba79f19b1ff000000000000000000000000000000000000000000000000000009184e72a000",
          "blockHash": "0x7e682e8b6c06ed71b11f370a646fe4d440f87e44e2cc555789685c19cc9016c3",
          "blockNumber": "0x1d34ccd",
          "blockTimestamp": "0x6a03fe25",
          "transactionHash": "0x8d9c2af5b1f466153ea81744e695045e97b2f134ca7e2d99543576b6d9e7973d",
          "transactionIndex": "0x5",
          "logIndex": "0x1d",
          "removed": false
        }
      ],
      "logsBloom": "0x00000000000000000000000200000002000000000000012000200000001000000000002000000000000000000001000000000000000008000000000000200000000002000000010000000008000000000000000000000000000000000000020000000000020000008000000000000800018000000010100200000010080000020000000080000000000000080000020000000000000000000000000000000000020000148000000020100000000000000000000000400000000440040000000000000002000000800000000080000000001000000000000000000000000020000010040020000000000000000000802000000000018001000000000000000000",
      "type": "0x2",
      "transactionHash": "0x8d9c2af5b1f466153ea81744e695045e97b2f134ca7e2d99543576b6d9e7973d",
      "transactionIndex": "0x5",
      "blockHash": "0x7e682e8b6c06ed71b11f370a646fe4d440f87e44e2cc555789685c19cc9016c3",
      "blockNumber": "0x1d34ccd",
      "gasUsed": "0x92c44",
      "effectiveGasPrice": "0x27f6780",
      "from": "0x45dce8e4f2dc005a5f28206a46cb034697eeda8e",
      "to": "0x6ca98f43719231d38f6426db64c7f3d5c7ce7876",
      "contractAddress": null
    },
    {
      "status": "0x1",
      "cumulativeGasUsed": "0x1efe68",
      "logs": [
        {
          "address": "0x383eac7ccaa89684b8277cbabc25bca8b13b7aa2",
          "topics": [
            "0x8c5be1e5ebec7d5bd14f71427d1e84f3dd0314c0f7b2291e5b200ac8c7c3b925",
            "0x00000000000000000000000045dce8e4f2dc005a5f28206a46cb034697eeda8e",
            "0x0000000000000000000000006ca98f43719231d38f6426db64c7f3d5c7ce7876"
          ],
          "data": "0x000000000000000000000000000000000000000000000000000009184e72a000",
          "blockHash": "0x7e682e8b6c06ed71b11f370a646fe4d440f87e44e2cc555789685c19cc9016c3",
          "blockNumber": "0x1d34ccd",
          "blockTimestamp": "0x6a03fe25",
          "transactionHash": "0x2c03e607ab31a03690803373a542019361670b63278f5b9aa81817e389705945",
          "transactionIndex": "0x6",
          "logIndex": "0x1e",
          "removed": false
        }
      ],
      "logsBloom": "0x00000000000000000000000200000000000000000000000000000000000000000000000000000000000100000000000000000000000000000000000000200000000000000000000000000000000000000000000000000000000000000000000000000000000000000000010000000000000000000000000000000000080000000000000080000000000000000000000000000000000000000000000000000000020000000000000000000000000000000000000000000000000000000000000000000000000010800000000000000000001000000000000000000000000000000010000000000000000000000000800000000000000000000000000000000000",
      "type": "0x2",
      "transactionHash": "0x2c03e607ab31a03690803373a542019361670b63278f5b9aa81817e389705945",
      "transactionIndex": "0x6",
      "blockHash": "0x7e682e8b6c06ed71b11f370a646fe4d440f87e44e2cc555789685c19cc9016c3",
      "blockNumber": "0x1d34ccd",
      "gasUsed": "0xd1bf",
      "effectiveGasPrice": "0x27f6780",
      "from": "0x45dce8e4f2dc005a5f28206a46cb034697eeda8e",
      "to": "0x383eac7ccaa89684b8277cbabc25bca8b13b7aa2",
      "contractAddress": null
    },
    {
      "status": "0x1",
      "cumulativeGasUsed": "0x28b044",
      "logs": [
        {
          "address": "0x383eac7ccaa89684b8277cbabc25bca8b13b7aa2",
          "topics": [
            "0x8c5be1e5ebec7d5bd14f71427d1e84f3dd0314c0f7b2291e5b200ac8c7c3b925",
            "0x00000000000000000000000045dce8e4f2dc005a5f28206a46cb034697eeda8e",
            "0x0000000000000000000000006ca98f43719231d38f6426db64c7f3d5c7ce7876"
          ],
          "data": "0x0000000000000000000000000000000000000000000000000000000000000000",
          "blockHash": "0x7e682e8b6c06ed71b11f370a646fe4d440f87e44e2cc555789685c19cc9016c3",
          "blockNumber": "0x1d34ccd",
          "blockTimestamp": "0x6a03fe25",
          "transactionHash": "0xd786bc8529e02c1584d543d876941447c477dffbb1281f468318e62ff9656f05",
          "transactionIndex": "0x7",
          "logIndex": "0x1f",
          "removed": false
        },
        {
          "address": "0x383eac7ccaa89684b8277cbabc25bca8b13b7aa2",
          "topics": [
            "0xddf252ad1be2c89b69c2b068fc378daa952ba7f163c4a11628f55a4df523b3ef",
            "0x00000000000000000000000045dce8e4f2dc005a5f28206a46cb034697eeda8e",
            "0x0000000000000000000000006ca98f43719231d38f6426db64c7f3d5c7ce7876"
          ],
          "data": "0x000000000000000000000000000000000000000000000000000009184e72a000",
          "blockHash": "0x7e682e8b6c06ed71b11f370a646fe4d440f87e44e2cc555789685c19cc9016c3",
          "blockNumber": "0x1d34ccd",
          "blockTimestamp": "0x6a03fe25",
          "transactionHash": "0xd786bc8529e02c1584d543d876941447c477dffbb1281f468318e62ff9656f05",
          "transactionIndex": "0x7",
          "logIndex": "0x20",
          "removed": false
        },
        {
          "address": "0x383eac7ccaa89684b8277cbabc25bca8b13b7aa2",
          "topics": [
            "0x8c5be1e5ebec7d5bd14f71427d1e84f3dd0314c0f7b2291e5b200ac8c7c3b925",
            "0x0000000000000000000000006ca98f43719231d38f6426db64c7f3d5c7ce7876",
            "0x000000000000000000000000383eac7ccaa89684b8277cbabc25bca8b13b7aa2"
          ],
          "data": "0x000000000000000000000000000000000000000000000000000009184e72a000",
          "blockHash": "0x7e682e8b6c06ed71b11f370a646fe4d440f87e44e2cc555789685c19cc9016c3",
          "blockNumber": "0x1d34ccd",
          "blockTimestamp": "0x6a03fe25",
          "transactionHash": "0xd786bc8529e02c1584d543d876941447c477dffbb1281f468318e62ff9656f05",
          "transactionIndex": "0x7",
          "logIndex": "0x21",
          "removed": false
        },
        {
          "address": "0x383eac7ccaa89684b8277cbabc25bca8b13b7aa2",
          "topics": [
            "0xddf252ad1be2c89b69c2b068fc378daa952ba7f163c4a11628f55a4df523b3ef",
            "0x0000000000000000000000006ca98f43719231d38f6426db64c7f3d5c7ce7876",
            "0x0000000000000000000000000000000000000000000000000000000000000000"
          ],
          "data": "0x000000000000000000000000000000000000000000000000000009184e72a000",
          "blockHash": "0x7e682e8b6c06ed71b11f370a646fe4d440f87e44e2cc555789685c19cc9016c3",
          "blockNumber": "0x1d34ccd",
          "blockTimestamp": "0x6a03fe25",
          "transactionHash": "0xd786bc8529e02c1584d543d876941447c477dffbb1281f468318e62ff9656f05",
          "transactionIndex": "0x7",
          "logIndex": "0x22",
          "removed": false
        },
        {
          "address": "0x32042142dd551b4ebe17b6fed53131dd4b4eea06",
          "topics": [
            "0x61ed099e74a97a1d7f8bb0952a88ca8b7b8ebd00c126ea04671f92a81213318a"
          ],
          "data": "0x0000000000000000000000000408804c5dcd9796f22558464e6fe5bddf16a7c700000000000000000000000000000000000000000000000000000825f1d68764",
          "blockHash": "0x7e682e8b6c06ed71b11f370a646fe4d440f87e44e2cc555789685c19cc9016c3",
          "blockNumber": "0x1d34ccd",
          "blockTimestamp": "0x6a03fe25",
          "transactionHash": "0xd786bc8529e02c1584d543d876941447c477dffbb1281f468318e62ff9656f05",
          "transactionIndex": "0x7",
          "logIndex": "0x23",
          "removed": false
        },
        {
          "address": "0x32042142dd551b4ebe17b6fed53131dd4b4eea06",
          "topics": [
            "0x07ea52d82345d6e838192107d8fd7123d9c2ec8e916cd0aad13fd2b60db24644"
          ],
          "data": "0x0000000000000000000000000000000000000000000000000000000000000060000000000000000000000000000000000000000000000000000000000000012000000000000000000000000000000000000000000000000000000000000001400000000000000000000000000000000000000000000000000000000000000005000000000000000000000000129ee430cb2ff2708ccaddbdb408a88fe4ffd4800000000000000000000000007fe673201724925b5c477d4e1a4bd3e954688cf5000000000000000000000000da63525a0fc42bcc2cad1dd28708d5ed11849347000000000000000000000000dd7b5e1db4aafd5c8ec3b764efb8ed265aa5445b000000000000000000000000f4064220871e3b94ca6ab3b0cee8e29178bf47de00000000000000000000000000000000000000000000000000000000000000000000000000000000000000000000000000000000000000000000000000000005000000000000000000000000000000000000000000000000000000b38211fc4e000000000000000000000000000000000000000000000000000000b38211fc4e000000000000000000000000000000000000000000000000000000d8403c40f1000000000000000000000000000000000000000000000000000000a4cf9aada7000000000000000000000000000000000000000000000000000000e6f2b38f98",
          "blockHash": "0x7e682e8b6c06ed71b11f370a646fe4d440f87e44e2cc555789685c19cc9016c3",
          "blockNumber": "0x1d34ccd",
          "blockTimestamp": "0x6a03fe25",
          "transactionHash": "0xd786bc8529e02c1584d543d876941447c477dffbb1281f468318e62ff9656f05",
          "transactionIndex": "0x7",
          "logIndex": "0x24",
          "removed": false
        },
        {
          "address": "0x1a44076050125825900e736c501f859c50fe728c",
          "topics": [
            "0x1ab700d4ced0c005b164c0f789fd09fcbb0156d4c2041b8a3bfbcd961cd1567f"
          ],
          "data": "0x0000000000000000000000000000000000000000000000000000000000000060000000000000000000000000000000000000000000000000000000000000018000000000000000000000000032042142dd551b4ebe17b6fed53131dd4b4eea0600000000000000000000000000000000000000000000000000000000000000f9010000000000000001000075e7000000000000000000000000383eac7ccaa89684b8277cbabc25bca8b13b7aa20000762f000000000000000000000000999dfabe3b1cc2ef66eb032eea42fea329bba1687da90976ec96c0a2a7967eed212305fda3a15d058f99cc383f010fdc4e8b7df30000000000000000000000002a2019b30c157db6c1c01306b8025167dbe1803b000000000000000a0000000000000000000000006ca98f43719231d38f6426db64c7f3d5c7ce787600000000000000000000000045dce8e4f2dc005a5f28206a46cb034697eeda8e000000000000000000000000000000000000000000000000000000000000760600000000000000000000000000000000000000000000000000000000000000000000000000002c0003010011010000000000000000000000000003d090010013030000000000000000000000000000000f42400000000000000000000000000000000000000000",
          "blockHash": "0x7e682e8b6c06ed71b11f370a646fe4d440f87e44e2cc555789685c19cc9016c3",
          "blockNumber": "0x1d34ccd",
          "blockTimestamp": "0x6a03fe25",
          "transactionHash": "0xd786bc8529e02c1584d543d876941447c477dffbb1281f468318e62ff9656f05",
          "transactionIndex": "0x7",
          "logIndex": "0x25",
          "removed": false
        },
        {
          "address": "0x383eac7ccaa89684b8277cbabc25bca8b13b7aa2",
          "topics": [
            "0x85496b760a4b7f8d66384b9df21b381f5d1b1e79f229a47aaf4c232edc2fe59a",
            "0x7da90976ec96c0a2a7967eed212305fda3a15d058f99cc383f010fdc4e8b7df3",
            "0x0000000000000000000000006ca98f43719231d38f6426db64c7f3d5c7ce7876"
          ],
          "data": "0x000000000000000000000000000000000000000000000000000000000000762f000000000000000000000000000000000000000000000000000009184e72a000000000000000000000000000000000000000000000000000000009184e72a000",
          "blockHash": "0x7e682e8b6c06ed71b11f370a646fe4d440f87e44e2cc555789685c19cc9016c3",
          "blockNumber": "0x1d34ccd",
          "blockTimestamp": "0x6a03fe25",
          "transactionHash": "0xd786bc8529e02c1584d543d876941447c477dffbb1281f468318e62ff9656f05",
          "transactionIndex": "0x7",
          "logIndex": "0x26",
          "removed": false
        },
        {
          "address": "0x6ca98f43719231d38f6426db64c7f3d5c7ce7876",
          "topics": [
            "0xbc9ee36b6ca0bdd5b3840e6d329dd19a2490d880c7ce24d9818aa593adfb35be",
            "0x00000000000000000000000045dce8e4f2dc005a5f28206a46cb034697eeda8e",
            "0x0000000000000000000000000000000000000000000000000000000000007606",
            "0x00000000000000000000000045dce8e4f2dc005a5f28206a46cb034697eeda8e"
          ],
          "data": "0x000000000000000000000000383eac7ccaa89684b8277cbabc25bca8b13b7aa2000000000000000000000000000000000000000000000000000009184e72a000",
          "blockHash": "0x7e682e8b6c06ed71b11f370a646fe4d440f87e44e2cc555789685c19cc9016c3",
          "blockNumber": "0x1d34ccd",
          "blockTimestamp": "0x6a03fe25",
          "transactionHash": "0xd786bc8529e02c1584d543d876941447c477dffbb1281f468318e62ff9656f05",
          "transactionIndex": "0x7",
          "logIndex": "0x27",
          "removed": false
        }
      ],
      "logsBloom": "0x00000000000000000000000200000002000000000000011000200000001000000000002000000000000100000000000000000000000008000001000000200000002002000000010000000008000000000000000000000000000000000000020000000000020000008000010000000800010000000010100000000010080000020000000080000200000000080000000000000000000000000000000200000000020040108000000020100000000000000000000000400000000440000000000000000002000010800000000080000000001000000000000000000000000020000010040000000000000000000000802000000000018000000000000000000000",
      "type": "0x2",
      "transactionHash": "0xd786bc8529e02c1584d543d876941447c477dffbb1281f468318e62ff9656f05",
      "transactionIndex": "0x7",
      "blockHash": "0x7e682e8b6c06ed71b11f370a646fe4d440f87e44e2cc555789685c19cc9016c3",
      "blockNumber": "0x1d34ccd",
      "gasUsed": "0x9b1dc",
      "effectiveGasPrice": "0x27f6780",
      "from": "0x45dce8e4f2dc005a5f28206a46cb034697eeda8e",
      "to": "0x6ca98f43719231d38f6426db64c7f3d5c7ce7876",
      "contractAddress": null
    },
    {
      "status": "0x1",
      "cumulativeGasUsed": "0x2981ed",
      "logs": [
        {
          "address": "0x5217ab28ece654aab2c68efedb6a22739df6c3d5",
          "topics": [
            "0x8c5be1e5ebec7d5bd14f71427d1e84f3dd0314c0f7b2291e5b200ac8c7c3b925",
            "0x00000000000000000000000045dce8e4f2dc005a5f28206a46cb034697eeda8e",
            "0x0000000000000000000000006ca98f43719231d38f6426db64c7f3d5c7ce7876"
          ],
          "data": "0x000000000000000000000000000000000000000000000000000009184e72a000",
          "blockHash": "0x7e682e8b6c06ed71b11f370a646fe4d440f87e44e2cc555789685c19cc9016c3",
          "blockNumber": "0x1d34ccd",
          "blockTimestamp": "0x6a03fe25",
          "transactionHash": "0x45acac1286438d04336923d44cb02aa119ea786f6575f1124d52d5ce4fed03fb",
          "transactionIndex": "0x8",
          "logIndex": "0x28",
          "removed": false
        }
      ],
      "logsBloom": "0x00000000000000000000000200100000000000000000000000000000000000000000000000000000000000000000000000000000000000000000000000200000000000000000000000000000000000000000000000000800000000000000000000000000000000000000000000000000000000000000000000000000080000000000000080000000000000000000000000000000000000000000000000000000020000000000000000000000000000000000000000000000000000000000000000000000000000800000000000000000001000000000000000000000000000000010000000000000000000000000800000000000000000000000000020000000",
      "type": "0x2",
      "transactionHash": "0x45acac1286438d04336923d44cb02aa119ea786f6575f1124d52d5ce4fed03fb",
      "transactionIndex": "0x8",
      "blockHash": "0x7e682e8b6c06ed71b11f370a646fe4d440f87e44e2cc555789685c19cc9016c3",
      "blockNumber": "0x1d34ccd",
      "gasUsed": "0xd1a9",
      "effectiveGasPrice": "0x27f6780",
      "from": "0x45dce8e4f2dc005a5f28206a46cb034697eeda8e",
      "to": "0x5217ab28ece654aab2c68efedb6a22739df6c3d5",
      "contractAddress": null
    },
    {
      "status": "0x1",
      "cumulativeGasUsed": "0x32ae1b",
      "logs": [
        {
          "address": "0x5217ab28ece654aab2c68efedb6a22739df6c3d5",
          "topics": [
            "0x8c5be1e5ebec7d5bd14f71427d1e84f3dd0314c0f7b2291e5b200ac8c7c3b925",
            "0x00000000000000000000000045dce8e4f2dc005a5f28206a46cb034697eeda8e",
            "0x0000000000000000000000006ca98f43719231d38f6426db64c7f3d5c7ce7876"
          ],
          "data": "0x0000000000000000000000000000000000000000000000000000000000000000",
          "blockHash": "0x7e682e8b6c06ed71b11f370a646fe4d440f87e44e2cc555789685c19cc9016c3",
          "blockNumber": "0x1d34ccd",
          "blockTimestamp": "0x6a03fe25",
          "transactionHash": "0xb27825105f1e1b55d176af86932502b75716743385240c9f3483e23bac78443b",
          "transactionIndex": "0x9",
          "logIndex": "0x29",
          "removed": false
        },
        {
          "address": "0x5217ab28ece654aab2c68efedb6a22739df6c3d5",
          "topics": [
            "0xddf252ad1be2c89b69c2b068fc378daa952ba7f163c4a11628f55a4df523b3ef",
            "0x00000000000000000000000045dce8e4f2dc005a5f28206a46cb034697eeda8e",
            "0x0000000000000000000000006ca98f43719231d38f6426db64c7f3d5c7ce7876"
          ],
          "data": "0x000000000000000000000000000000000000000000000000000009184e72a000",
          "blockHash": "0x7e682e8b6c06ed71b11f370a646fe4d440f87e44e2cc555789685c19cc9016c3",
          "blockNumber": "0x1d34ccd",
          "blockTimestamp": "0x6a03fe25",
          "transactionHash": "0xb27825105f1e1b55d176af86932502b75716743385240c9f3483e23bac78443b",
          "transactionIndex": "0x9",
          "logIndex": "0x2a",
          "removed": false
        },
        {
          "address": "0x5217ab28ece654aab2c68efedb6a22739df6c3d5",
          "topics": [
            "0x8c5be1e5ebec7d5bd14f71427d1e84f3dd0314c0f7b2291e5b200ac8c7c3b925",
            "0x0000000000000000000000006ca98f43719231d38f6426db64c7f3d5c7ce7876",
            "0x0000000000000000000000005217ab28ece654aab2c68efedb6a22739df6c3d5"
          ],
          "data": "0x000000000000000000000000000000000000000000000000000009184e72a000",
          "blockHash": "0x7e682e8b6c06ed71b11f370a646fe4d440f87e44e2cc555789685c19cc9016c3",
          "blockNumber": "0x1d34ccd",
          "blockTimestamp": "0x6a03fe25",
          "transactionHash": "0xb27825105f1e1b55d176af86932502b75716743385240c9f3483e23bac78443b",
          "transactionIndex": "0x9",
          "logIndex": "0x2b",
          "removed": false
        },
        {
          "address": "0x5217ab28ece654aab2c68efedb6a22739df6c3d5",
          "topics": [
            "0xddf252ad1be2c89b69c2b068fc378daa952ba7f163c4a11628f55a4df523b3ef",
            "0x0000000000000000000000006ca98f43719231d38f6426db64c7f3d5c7ce7876",
            "0x0000000000000000000000000000000000000000000000000000000000000000"
          ],
          "data": "0x000000000000000000000000000000000000000000000000000009184e72a000",
          "blockHash": "0x7e682e8b6c06ed71b11f370a646fe4d440f87e44e2cc555789685c19cc9016c3",
          "blockNumber": "0x1d34ccd",
          "blockTimestamp": "0x6a03fe25",
          "transactionHash": "0xb27825105f1e1b55d176af86932502b75716743385240c9f3483e23bac78443b",
          "transactionIndex": "0x9",
          "logIndex": "0x2c",
          "removed": false
        },
        {
          "address": "0x32042142dd551b4ebe17b6fed53131dd4b4eea06",
          "topics": [
            "0x61ed099e74a97a1d7f8bb0952a88ca8b7b8ebd00c126ea04671f92a81213318a"
          ],
          "data": "0x0000000000000000000000000408804c5dcd9796f22558464e6fe5bddf16a7c700000000000000000000000000000000000000000000000000000825f1d68764",
          "blockHash": "0x7e682e8b6c06ed71b11f370a646fe4d440f87e44e2cc555789685c19cc9016c3",
          "blockNumber": "0x1d34ccd",
          "blockTimestamp": "0x6a03fe25",
          "transactionHash": "0xb27825105f1e1b55d176af86932502b75716743385240c9f3483e23bac78443b",
          "transactionIndex": "0x9",
          "logIndex": "0x2d",
          "removed": false
        },
        {
          "address": "0x32042142dd551b4ebe17b6fed53131dd4b4eea06",
          "topics": [
            "0x07ea52d82345d6e838192107d8fd7123d9c2ec8e916cd0aad13fd2b60db24644"
          ],
          "data": "0x0000000000000000000000000000000000000000000000000000000000000060000000000000000000000000000000000000000000000000000000000000012000000000000000000000000000000000000000000000000000000000000001400000000000000000000000000000000000000000000000000000000000000005000000000000000000000000129ee430cb2ff2708ccaddbdb408a88fe4ffd4800000000000000000000000007fe673201724925b5c477d4e1a4bd3e954688cf5000000000000000000000000da63525a0fc42bcc2cad1dd28708d5ed11849347000000000000000000000000dd7b5e1db4aafd5c8ec3b764efb8ed265aa5445b000000000000000000000000f4064220871e3b94ca6ab3b0cee8e29178bf47de00000000000000000000000000000000000000000000000000000000000000000000000000000000000000000000000000000000000000000000000000000005000000000000000000000000000000000000000000000000000000b38211fc4e000000000000000000000000000000000000000000000000000000b38211fc4e000000000000000000000000000000000000000000000000000000d8403c40f1000000000000000000000000000000000000000000000000000000a4cf9aada7000000000000000000000000000000000000000000000000000000e6f2b38f98",
          "blockHash": "0x7e682e8b6c06ed71b11f370a646fe4d440f87e44e2cc555789685c19cc9016c3",
          "blockNumber": "0x1d34ccd",
          "blockTimestamp": "0x6a03fe25",
          "transactionHash": "0xb27825105f1e1b55d176af86932502b75716743385240c9f3483e23bac78443b",
          "transactionIndex": "0x9",
          "logIndex": "0x2e",
          "removed": false
        },
        {
          "address": "0x1a44076050125825900e736c501f859c50fe728c",
          "topics": [
            "0x1ab700d4ced0c005b164c0f789fd09fcbb0156d4c2041b8a3bfbcd961cd1567f"
          ],
          "data": "0x0000000000000000000000000000000000000000000000000000000000000060000000000000000000000000000000000000000000000000000000000000018000000000000000000000000032042142dd551b4ebe17b6fed53131dd4b4eea0600000000000000000000000000000000000000000000000000000000000000f9010000000000000343000075e70000000000000000000000005217ab28ece654aab2c68efedb6a22739df6c3d50000762f000000000000000000000000d86fbbd0c8715d2c1f40e451e5c3514e65e7576a8810846a291ce5681c495b397c7a75ec62cd2d02f81369c4eb64439d087c29880000000000000000000000002a2019b30c157db6c1c01306b8025167dbe1803b000000000000000a0000000000000000000000006ca98f43719231d38f6426db64c7f3d5c7ce787600000000000000000000000045dce8e4f2dc005a5f28206a46cb034697eeda8e000000000000000000000000000000000000000000000000000000000000760600000000000000000000000000000000000000000000000000000000000000000000000000002c0003010011010000000000000000000000000003d090010013030000000000000000000000000000000f42400000000000000000000000000000000000000000",
          "blockHash": "0x7e682e8b6c06ed71b11f370a646fe4d440f87e44e2cc555789685c19cc9016c3",
          "blockNumber": "0x1d34ccd",
          "blockTimestamp": "0x6a03fe25",
          "transactionHash": "0xb27825105f1e1b55d176af86932502b75716743385240c9f3483e23bac78443b",
          "transactionIndex": "0x9",
          "logIndex": "0x2f",
          "removed": false
        },
        {
          "address": "0x5217ab28ece654aab2c68efedb6a22739df6c3d5",
          "topics": [
            "0x85496b760a4b7f8d66384b9df21b381f5d1b1e79f229a47aaf4c232edc2fe59a",
            "0x8810846a291ce5681c495b397c7a75ec62cd2d02f81369c4eb64439d087c2988",
            "0x0000000000000000000000006ca98f43719231d38f6426db64c7f3d5c7ce7876"
          ],
          "data": "0x000000000000000000000000000000000000000000000000000000000000762f000000000000000000000000000000000000000000000000000009184e72a000000000000000000000000000000000000000000000000000000009184e72a000",
          "blockHash": "0x7e682e8b6c06ed71b11f370a646fe4d440f87e44e2cc555789685c19cc9016c3",
          "blockNumber": "0x1d34ccd",
          "blockTimestamp": "0x6a03fe25",
          "transactionHash": "0xb27825105f1e1b55d176af86932502b75716743385240c9f3483e23bac78443b",
          "transactionIndex": "0x9",
          "logIndex": "0x30",
          "removed": false
        },
        {
          "address": "0x6ca98f43719231d38f6426db64c7f3d5c7ce7876",
          "topics": [
            "0xbc9ee36b6ca0bdd5b3840e6d329dd19a2490d880c7ce24d9818aa593adfb35be",
            "0x00000000000000000000000045dce8e4f2dc005a5f28206a46cb034697eeda8e",
            "0x0000000000000000000000000000000000000000000000000000000000007606",
            "0x00000000000000000000000045dce8e4f2dc005a5f28206a46cb034697eeda8e"
          ],
          "data": "0x0000000000000000000000005217ab28ece654aab2c68efedb6a22739df6c3d5000000000000000000000000000000000000000000000000000009184e72a000",
          "blockHash": "0x7e682e8b6c06ed71b11f370a646fe4d440f87e44e2cc555789685c19cc9016c3",
          "blockNumber": "0x1d34ccd",
          "blockTimestamp": "0x6a03fe25",
          "transactionHash": "0xb27825105f1e1b55d176af86932502b75716743385240c9f3483e23bac78443b",
          "transactionIndex": "0x9",
          "logIndex": "0x31",
          "removed": false
        }
      ],
      "logsBloom": "0x00000000400000000000000200100002000000000000010000200000001000000000002000000000000000000000000000000000000008000000000000200000000002000000010000000008000000000000000000000800040000000000020000000000020000008000000000000800010000000010100000000010080000020000000080000000000000080000000000000000000000000000000000000000020000108000000020100000000000000000000000400200000440000000000000000002000000800000000080000000001000040000000000000000400020000010040000000000000000000000802000000000018000000000000020000000",
      "type": "0x2",
      "transactionHash": "0xb27825105f1e1b55d176af86932502b75716743385240c9f3483e23bac78443b",
      "transactionIndex": "0x9",
      "blockHash": "0x7e682e8b6c06ed71b11f370a646fe4d440f87e44e2cc555789685c19cc9016c3",
      "blockNumber": "0x1d34ccd",
      "gasUsed": "0x92c2e",
      "effectiveGasPrice": "0x27f6780",
      "from": "0x45dce8e4f2dc005a5f28206a46cb034697eeda8e",
      "to": "0x6ca98f43719231d38f6426db64c7f3d5c7ce7876",
      "contractAddress": null
    },
    {
      "status": "0x1",
      "cumulativeGasUsed": "0x337fda",
      "logs": [
        {
          "address": "0xdaf72aa849d3c4faa8a9c8c99f240cf33da02fc4",
          "topics": [
            "0x8c5be1e5ebec7d5bd14f71427d1e84f3dd0314c0f7b2291e5b200ac8c7c3b925",
            "0x00000000000000000000000045dce8e4f2dc005a5f28206a46cb034697eeda8e",
            "0x0000000000000000000000006ca98f43719231d38f6426db64c7f3d5c7ce7876"
          ],
          "data": "0x000000000000000000000000000000000000000000000000000009184e72a000",
          "blockHash": "0x7e682e8b6c06ed71b11f370a646fe4d440f87e44e2cc555789685c19cc9016c3",
          "blockNumber": "0x1d34ccd",
          "blockTimestamp": "0x6a03fe25",
          "transactionHash": "0x4517648997dfd3aa91b5f86e937873b516ccad3ccb3c72309067829e4afb947a",
          "transactionIndex": "0xa",
          "logIndex": "0x32",
          "removed": false
        }
      ],
      "logsBloom": "0x00000000000100000000000200000000000000000000000000000000000100000000000000000000000000000000000000000000000000000000000000200000000000000000000000000000000000000000000000000000000000000000000000000000000000000000000000000000000000000000000000000000080000000000000080000000000000000000000000000000000000000000000000000000020000000000000000000000000000000000000000000000000000000000000000000000000000800000000000000000001000000000000000000000000000000010000000000000000000000000800200000000000000000000000000000000",
      "type": "0x2",
      "transactionHash": "0x4517648997dfd3aa91b5f86e937873b516ccad3ccb3c72309067829e4afb947a",
      "transactionIndex": "0xa",
      "blockHash": "0x7e682e8b6c06ed71b11f370a646fe4d440f87e44e2cc555789685c19cc9016c3",
      "blockNumber": "0x1d34ccd",
      "gasUsed": "0xd1bf",
      "effectiveGasPrice": "0x27f6780",
      "from": "0x45dce8e4f2dc005a5f28206a46cb034697eeda8e",
      "to": "0xdaf72aa849d3c4faa8a9c8c99f240cf33da02fc4",
      "contractAddress": null
    },
    {
      "status": "0x1",
      "cumulativeGasUsed": "0x3d31b6",
      "logs": [
        {
          "address": "0xdaf72aa849d3c4faa8a9c8c99f240cf33da02fc4",
          "topics": [
            "0x8c5be1e5ebec7d5bd14f71427d1e84f3dd0314c0f7b2291e5b200ac8c7c3b925",
            "0x00000000000000000000000045dce8e4f2dc005a5f28206a46cb034697eeda8e",
            "0x0000000000000000000000006ca98f43719231d38f6426db64c7f3d5c7ce7876"
          ],
          "data": "0x0000000000000000000000000000000000000000000000000000000000000000",
          "blockHash": "0x7e682e8b6c06ed71b11f370a646fe4d440f87e44e2cc555789685c19cc9016c3",
          "blockNumber": "0x1d34ccd",
          "blockTimestamp": "0x6a03fe25",
          "transactionHash": "0x0ffc6e5383d851dacba238bdfaa4a7fa66a1da4c2d34faa75ca7dd696fc0f2fe",
          "transactionIndex": "0xb",
          "logIndex": "0x33",
          "removed": false
        },
        {
          "address": "0xdaf72aa849d3c4faa8a9c8c99f240cf33da02fc4",
          "topics": [
            "0xddf252ad1be2c89b69c2b068fc378daa952ba7f163c4a11628f55a4df523b3ef",
            "0x00000000000000000000000045dce8e4f2dc005a5f28206a46cb034697eeda8e",
            "0x0000000000000000000000006ca98f43719231d38f6426db64c7f3d5c7ce7876"
          ],
          "data": "0x000000000000000000000000000000000000000000000000000009184e72a000",
          "blockHash": "0x7e682e8b6c06ed71b11f370a646fe4d440f87e44e2cc555789685c19cc9016c3",
          "blockNumber": "0x1d34ccd",
          "blockTimestamp": "0x6a03fe25",
          "transactionHash": "0x0ffc6e5383d851dacba238bdfaa4a7fa66a1da4c2d34faa75ca7dd696fc0f2fe",
          "transactionIndex": "0xb",
          "logIndex": "0x34",
          "removed": false
        },
        {
          "address": "0xdaf72aa849d3c4faa8a9c8c99f240cf33da02fc4",
          "topics": [
            "0x8c5be1e5ebec7d5bd14f71427d1e84f3dd0314c0f7b2291e5b200ac8c7c3b925",
            "0x0000000000000000000000006ca98f43719231d38f6426db64c7f3d5c7ce7876",
            "0x000000000000000000000000daf72aa849d3c4faa8a9c8c99f240cf33da02fc4"
          ],
          "data": "0x000000000000000000000000000000000000000000000000000009184e72a000",
          "blockHash": "0x7e682e8b6c06ed71b11f370a646fe4d440f87e44e2cc555789685c19cc9016c3",
          "blockNumber": "0x1d34ccd",
          "blockTimestamp": "0x6a03fe25",
          "transactionHash": "0x0ffc6e5383d851dacba238bdfaa4a7fa66a1da4c2d34faa75ca7dd696fc0f2fe",
          "transactionIndex": "0xb",
          "logIndex": "0x35",
          "removed": false
        },
        {
          "address": "0xdaf72aa849d3c4faa8a9c8c99f240cf33da02fc4",
          "topics": [
            "0xddf252ad1be2c89b69c2b068fc378daa952ba7f163c4a11628f55a4df523b3ef",
            "0x0000000000000000000000006ca98f43719231d38f6426db64c7f3d5c7ce7876",
            "0x0000000000000000000000000000000000000000000000000000000000000000"
          ],
          "data": "0x000000000000000000000000000000000000000000000000000009184e72a000",
          "blockHash": "0x7e682e8b6c06ed71b11f370a646fe4d440f87e44e2cc555789685c19cc9016c3",
          "blockNumber": "0x1d34ccd",
          "blockTimestamp": "0x6a03fe25",
          "transactionHash": "0x0ffc6e5383d851dacba238bdfaa4a7fa66a1da4c2d34faa75ca7dd696fc0f2fe",
          "transactionIndex": "0xb",
          "logIndex": "0x36",
          "removed": false
        },
        {
          "address": "0x32042142dd551b4ebe17b6fed53131dd4b4eea06",
          "topics": [
            "0x61ed099e74a97a1d7f8bb0952a88ca8b7b8ebd00c126ea04671f92a81213318a"
          ],
          "data": "0x0000000000000000000000000408804c5dcd9796f22558464e6fe5bddf16a7c700000000000000000000000000000000000000000000000000000825f1d68764",
          "blockHash": "0x7e682e8b6c06ed71b11f370a646fe4d440f87e44e2cc555789685c19cc9016c3",
          "blockNumber": "0x1d34ccd",
          "blockTimestamp": "0x6a03fe25",
          "transactionHash": "0x0ffc6e5383d851dacba238bdfaa4a7fa66a1da4c2d34faa75ca7dd696fc0f2fe",
          "transactionIndex": "0xb",
          "logIndex": "0x37",
          "removed": false
        },
        {
          "address": "0x32042142dd551b4ebe17b6fed53131dd4b4eea06",
          "topics": [
            "0x07ea52d82345d6e838192107d8fd7123d9c2ec8e916cd0aad13fd2b60db24644"
          ],
          "data": "0x0000000000000000000000000000000000000000000000000000000000000060000000000000000000000000000000000000000000000000000000000000012000000000000000000000000000000000000000000000000000000000000001400000000000000000000000000000000000000000000000000000000000000005000000000000000000000000129ee430cb2ff2708ccaddbdb408a88fe4ffd4800000000000000000000000007fe673201724925b5c477d4e1a4bd3e954688cf5000000000000000000000000da63525a0fc42bcc2cad1dd28708d5ed11849347000000000000000000000000dd7b5e1db4aafd5c8ec3b764efb8ed265aa5445b000000000000000000000000f4064220871e3b94ca6ab3b0cee8e29178bf47de00000000000000000000000000000000000000000000000000000000000000000000000000000000000000000000000000000000000000000000000000000005000000000000000000000000000000000000000000000000000000b38211fc4e000000000000000000000000000000000000000000000000000000b38211fc4e000000000000000000000000000000000000000000000000000000d8403c40f1000000000000000000000000000000000000000000000000000000a4cf9aada7000000000000000000000000000000000000000000000000000000e6f2b38f98",
          "blockHash": "0x7e682e8b6c06ed71b11f370a646fe4d440f87e44e2cc555789685c19cc9016c3",
          "blockNumber": "0x1d34ccd",
          "blockTimestamp": "0x6a03fe25",
          "transactionHash": "0x0ffc6e5383d851dacba238bdfaa4a7fa66a1da4c2d34faa75ca7dd696fc0f2fe",
          "transactionIndex": "0xb",
          "logIndex": "0x38",
          "removed": false
        },
        {
          "address": "0x1a44076050125825900e736c501f859c50fe728c",
          "topics": [
            "0x1ab700d4ced0c005b164c0f789fd09fcbb0156d4c2041b8a3bfbcd961cd1567f"
          ],
          "data": "0x0000000000000000000000000000000000000000000000000000000000000060000000000000000000000000000000000000000000000000000000000000018000000000000000000000000032042142dd551b4ebe17b6fed53131dd4b4eea0600000000000000000000000000000000000000000000000000000000000000f9010000000000000001000075e7000000000000000000000000daf72aa849d3c4faa8a9c8c99f240cf33da02fc40000762f00000000000000000000000075c38d46001b0f8108c4136216bd2694982c20fcc4eea959d69dbd25486f59a7f927099e4679d69142d02607225d2ef73330bbbf0000000000000000000000002a2019b30c157db6c1c01306b8025167dbe1803b000000000000000a0000000000000000000000006ca98f43719231d38f6426db64c7f3d5c7ce787600000000000000000000000045dce8e4f2dc005a5f28206a46cb034697eeda8e000000000000000000000000000000000000000000000000000000000000760600000000000000000000000000000000000000000000000000000000000000000000000000002c0003010011010000000000000000000000000003d090010013030000000000000000000000000000000f42400000000000000000000000000000000000000000",
          "blockHash": "0x7e682e8b6c06ed71b11f370a646fe4d440f87e44e2cc555789685c19cc9016c3",
          "blockNumber": "0x1d34ccd",
          "blockTimestamp": "0x6a03fe25",
          "transactionHash": "0x0ffc6e5383d851dacba238bdfaa4a7fa66a1da4c2d34faa75ca7dd696fc0f2fe",
          "transactionIndex": "0xb",
          "logIndex": "0x39",
          "removed": false
        },
        {
          "address": "0xdaf72aa849d3c4faa8a9c8c99f240cf33da02fc4",
          "topics": [
            "0x85496b760a4b7f8d66384b9df21b381f5d1b1e79f229a47aaf4c232edc2fe59a",
            "0xc4eea959d69dbd25486f59a7f927099e4679d69142d02607225d2ef73330bbbf",
            "0x0000000000000000000000006ca98f43719231d38f6426db64c7f3d5c7ce7876"
          ],
          "data": "0x000000000000000000000000000000000000000000000000000000000000762f000000000000000000000000000000000000000000000000000009184e72a000000000000000000000000000000000000000000000000000000009184e72a000",
          "blockHash": "0x7e682e8b6c06ed71b11f370a646fe4d440f87e44e2cc555789685c19cc9016c3",
          "blockNumber": "0x1d34ccd",
          "blockTimestamp": "0x6a03fe25",
          "transactionHash": "0x0ffc6e5383d851dacba238bdfaa4a7fa66a1da4c2d34faa75ca7dd696fc0f2fe",
          "transactionIndex": "0xb",
          "logIndex": "0x3a",
          "removed": false
        },
        {
          "address": "0x6ca98f43719231d38f6426db64c7f3d5c7ce7876",
          "topics": [
            "0xbc9ee36b6ca0bdd5b3840e6d329dd19a2490d880c7ce24d9818aa593adfb35be",
            "0x00000000000000000000000045dce8e4f2dc005a5f28206a46cb034697eeda8e",
            "0x0000000000000000000000000000000000000000000000000000000000007606",
            "0x00000000000000000000000045dce8e4f2dc005a5f28206a46cb034697eeda8e"
          ],
          "data": "0x000000000000000000000000daf72aa849d3c4faa8a9c8c99f240cf33da02fc4000000000000000000000000000000000000000000000000000009184e72a000",
          "blockHash": "0x7e682e8b6c06ed71b11f370a646fe4d440f87e44e2cc555789685c19cc9016c3",
          "blockNumber": "0x1d34ccd",
          "blockTimestamp": "0x6a03fe25",
          "transactionHash": "0x0ffc6e5383d851dacba238bdfaa4a7fa66a1da4c2d34faa75ca7dd696fc0f2fe",
          "transactionIndex": "0xb",
          "logIndex": "0x3b",
          "removed": false
        }
      ],
      "logsBloom": "0x00000000000101000000000200000002004000000000010000200000001100000000002000000000000000000000000000000000000008000000000000200004000002000000010000000008000000000000000000000000000000000000022000000000020000008000000000000800010000000010100000000010080000020000000084000000000000080000000000000000000000000000000000000000020000108000000020100000000000000000000000400000000440000000000000000002000000800000000080000000001000000010000000000000000020000010040000000000000000000000802200000000018000000000000000000000",
      "type": "0x2",
      "transactionHash": "0x0ffc6e5383d851dacba238bdfaa4a7fa66a1da4c2d34faa75ca7dd696fc0f2fe",
      "transactionIndex": "0xb",
      "blockHash": "0x7e682e8b6c06ed71b11f370a646fe4d440f87e44e2cc555789685c19cc9016c3",
      "blockNumber": "0x1d34ccd",
      "gasUsed": "0x9b1dc",
      "effectiveGasPrice": "0x27f6780",
      "from": "0x45dce8e4f2dc005a5f28206a46cb034697eeda8e",
      "to": "0x6ca98f43719231d38f6426db64c7f3d5c7ce7876",
      "contractAddress": null
    }
  ],
  "libraries": [],
  "pending": [],
  "returns": {},
  "timestamp": 1778646567913,
  "chain": 59144,
  "commit": "3c1e5d2a"
}