{
  "transactions": [
    {
      "hash": "0xc5f779e9b1eb7694c9eb7377e30a00c357b7a36fe941c1e400d3d4a7665ebe12",
      "transactionType": "CALL",
      "contractName": null,
      "contractAddress": "0x80eede496655fb9047dd39d9f418d5483ed600df",
      "function": "approve(address,uint256)",
      "arguments": [
        "0x452420df4AC1e3db5429b5FD629f3047482C543C",
        "10000000000000"
      ],
      "transaction": {
        "from": "0x45dce8e4f2dc005a5f28206a46cb034697eeda8e",
        "to": "0x80eede496655fb9047dd39d9f418d5483ed600df",
        "gas": "0x132ad",
        "value": "0x0",
        "input": "0x095ea7b3000000000000000000000000452420df4ac1e3db5429b5fd629f3047482c543c000000000000000000000000000000000000000000000000000009184e72a000",
        "nonce": "0xb6",
        "chainId": "0x38"
      },
      "additionalContracts": [],
      "isFixedGasLimit": false
    },
    {
      "hash": "0x9a7edd80483eb995743e97a54d685848ed826e4d7ce4a2d725f4de58e42bac64",
      "transactionType": "CALL",
      "contractName": null,
      "contractAddress": "0x452420df4ac1e3db5429b5fd629f3047482c543c",
      "function": "sendOFT(address,uint32,bytes32,uint256)",
      "arguments": [
        "0x80Eede496655FB9047dd39d9f418d5483ED600df",
        "30320",
        "0x00000000000000000000000045dce8e4f2dc005a5f28206a46cb034697eeda8e",
        "10000000000000"
      ],
      "transaction": {
        "from": "0x45dce8e4f2dc005a5f28206a46cb034697eeda8e",
        "to": "0x452420df4ac1e3db5429b5fd629f3047482c543c",
        "gas": "0xcfd21",
        "value": "0x55e5182b264c",
        "input": "0x3e832c9000000000000000000000000080eede496655fb9047dd39d9f418d5483ed600df000000000000000000000000000000000000000000000000000000000000767000000000000000000000000045dce8e4f2dc005a5f28206a46cb034697eeda8e000000000000000000000000000000000000000000000000000009184e72a000",
        "nonce": "0xb7",
        "chainId": "0x38"
      },
      "additionalContracts": [],
      "isFixedGasLimit": false
    },
    {
      "hash": "0x51698181dc3ef3cd9f068c7bbd89eaa0c148ce53c33caa99d4e8b05f14e0b552",
      "transactionType": "CALL",
      "contractName": null,
      "contractAddress": "0x5bff88ca1442c2496f7e475e9e7786383bc070c0",
      "function": "approve(address,uint256)",
      "arguments": [
        "0x452420df4AC1e3db5429b5FD629f3047482C543C",
        "10000000000000"
      ],
      "transaction": {
        "from": "0x45dce8e4f2dc005a5f28206a46cb034697eeda8e",
        "to": "0x5bff88ca1442c2496f7e475e9e7786383bc070c0",
        "gas": "0x12184",
        "value": "0x0",
        "input": "0x095ea7b3000000000000000000000000452420df4ac1e3db5429b5fd629f3047482c543c000000000000000000000000000000000000000000000000000009184e72a000",
        "nonce": "0xb8",
        "chainId": "0x38"
      },
      "additionalContracts": [],
      "isFixedGasLimit": false
    },
    {
      "hash": "0x60ab299b0fe8e4ab6c54a8f815bc7a76fdfaf820b94992f515791f440d64df4b",
      "transactionType": "CALL",
      "contractName": null,
      "contractAddress": "0x452420df4ac1e3db5429b5fd629f3047482c543c",
      "function": "sendOFT(address,uint32,bytes32,uint256)",
      "arguments": [
        "0x5Bff88cA1442c2496f7E475E9e7786383Bc070c0",
        "30320",
        "0x00000000000000000000000045dce8e4f2dc005a5f28206a46cb034697eeda8e",
        "10000000000000"
      ],
      "transaction": {
        "from": "0x45dce8e4f2dc005a5f28206a46cb034697eeda8e",
        "to": "0x452420df4ac1e3db5429b5fd629f3047482c543c",
        "gas": "0xd7688",
        "value": "0x55e5182b264c",
        "input": "0x3e832c900000000000000000000000005bff88ca1442c2496f7e475e9e7786383bc070c0000000000000000000000000000000000000000000000000000000000000767000000000000000000000000045dce8e4f2dc005a5f28206a46cb034697eeda8e000000000000000000000000000000000000000000000000000009184e72a000",
        "nonce": "0xb9",
        "chainId": "0x38"
      },
      "additionalContracts": [],
      "isFixedGasLimit": false
    },
    {
      "hash": "0xa9ed154f8d3842995d3be1c36e365c1693a308c3f924aba2ab903f34a4631a4b",
      "transactionType": "CALL",
      "contractName": null,
      "contractAddress": "0x43edd7f3831b08fe70b7555ddd373c8bf65a9050",
      "function": "approve(address,uint256)",
      "arguments": [
        "0x452420df4AC1e3db5429b5FD629f3047482C543C",
        "10000000000000"
      ],
      "transaction": {
        "from": "0x45dce8e4f2dc005a5f28206a46cb034697eeda8e",
        "to": "0x43edd7f3831b08fe70b7555ddd373c8bf65a9050",
        "gas": "0x132ad",
        "value": "0x0",
        "input": "0x095ea7b3000000000000000000000000452420df4ac1e3db5429b5fd629f3047482c543c000000000000000000000000000000000000000000000000000009184e72a000",
        "nonce": "0xba",
        "chainId": "0x38"
      },
      "additionalContracts": [],
      "isFixedGasLimit": false
    },
    {
      "hash": "0x336adc483778b4de4b7cbb8b5c0a6fb67bb53ae2405b9b24feba484644df000d",
      "transactionType": "CALL",
      "contractName": null,
      "contractAddress": "0x452420df4ac1e3db5429b5fd629f3047482c543c",
      "function": "sendOFT(address,uint32,bytes32,uint256)",
      "arguments": [
        "0x43eDD7f3831b08FE70B7555ddD373C8bF65a9050",
        "30320",
        "0x00000000000000000000000045dce8e4f2dc005a5f28206a46cb034697eeda8e",
        "10000000000000"
      ],
      "transaction": {
        "from": "0x45dce8e4f2dc005a5f28206a46cb034697eeda8e",
        "to": "0x452420df4ac1e3db5429b5fd629f3047482c543c",
        "gas": "0xd76a9",
        "value": "0x55e5182b264c",
        "input": "0x3e832c9000000000000000000000000043edd7f3831b08fe70b7555ddd373c8bf65a9050000000000000000000000000000000000000000000000000000000000000767000000000000000000000000045dce8e4f2dc005a5f28206a46cb034697eeda8e000000000000000000000000000000000000000000000000000009184e72a000",
        "nonce": "0xbb",
        "chainId": "0x38"
      },
      "additionalContracts": [],
      "isFixedGasLimit": false
    },
    {
      "hash": "0x4bfe07ea92daf97d022c956b0ea174860d5fdc70f4b39c72f1975cc0113913e2",
      "transactionType": "CALL",
      "contractName": null,
      "contractAddress": "0x3ec3849c33291a9ef4c5db86de593eb4a37fde45",
      "function": "approve(address,uint256)",
      "arguments": [
        "0x452420df4AC1e3db5429b5FD629f3047482C543C",
        "10000000000000"
      ],
      "transaction": {
        "from": "0x45dce8e4f2dc005a5f28206a46cb034697eeda8e",
        "to": "0x3ec3849c33291a9ef4c5db86de593eb4a37fde45",
        "gas": "0x132ad",
        "value": "0x0",
        "input": "0x095ea7b3000000000000000000000000452420df4ac1e3db5429b5fd629f3047482c543c000000000000000000000000000000000000000000000000000009184e72a000",
        "nonce": "0xbc",
        "chainId": "0x38"
      },
      "additionalContracts": [],
      "isFixedGasLimit": false
    },
    {
      "hash": "0x82fc0fe329a585cea8d0785830e80e9b43633a942a1811bed9605d0ddedde00a",
      "transactionType": "CALL",
      "contractName": null,
      "contractAddress": "0x452420df4ac1e3db5429b5fd629f3047482c543c",
      "function": "sendOFT(address,uint32,bytes32,uint256)",
      "arguments": [
        "0x3Ec3849C33291a9eF4c5dB86De593EB4A37fDe45",
        "30320",
        "0x00000000000000000000000045dce8e4f2dc005a5f28206a46cb034697eeda8e",
        "10000000000000"
      ],
      "transaction": {
        "from": "0x45dce8e4f2dc005a5f28206a46cb034697eeda8e",
        "to": "0x452420df4ac1e3db5429b5fd629f3047482c543c",
        "gas": "0xe3a0a",
        "value": "0x55e5182b264c",
        "input": "0x3e832c900000000000000000000000003ec3849c33291a9ef4c5db86de593eb4a37fde45000000000000000000000000000000000000000000000000000000000000767000000000000000000000000045dce8e4f2dc005a5f28206a46cb034697eeda8e000000000000000000000000000000000000000000000000000009184e72a000",
        "nonce": "0xbd",
        "chainId": "0x38"
      },
      "additionalContracts": [],
      "isFixedGasLimit": false
    },
    {
      "hash": "0x80fb41e8e39af014553e00675e05f8a54b2add638bb26895a1a35856e9df9375",
      "transactionType": "CALL",
      "contractName": null,
      "contractAddress": "0x64445f0aecc51e94ad52d8ac56b7190e764e561a",
      "function": "approve(address,uint256)",
      "arguments": [
        "0x452420df4AC1e3db5429b5FD629f3047482C543C",
        "10000000000000"
      ],
      "transaction": {
        "from": "0x45dce8e4f2dc005a5f28206a46cb034697eeda8e",
        "to": "0x64445f0aecc51e94ad52d8ac56b7190e764e561a",
        "gas": "0x12184",
        "value": "0x0",
        "input": "0x095ea7b3000000000000000000000000452420df4ac1e3db5429b5fd629f3047482c543c000000000000000000000000000000000000000000000000000009184e72a000",
        "nonce": "0xbe",
        "chainId": "0x38"
      },
      "additionalContracts": [],
      "isFixedGasLimit": false
    },
    {
      "hash": "0x026a93c3bdabcf4cf179f50fca151e9cf7c10d3f0853d049598a5b901702fe36",
      "transactionType": "CALL",
      "contractName": null,
      "contractAddress": "0x452420df4ac1e3db5429b5fd629f3047482c543c",
      "function": "sendOFT(address,uint32,bytes32,uint256)",
      "arguments": [
        "0x64445f0aecC51E94aD52d8AC56b7190e764E561a",
        "30320",
        "0x00000000000000000000000045dce8e4f2dc005a5f28206a46cb034697eeda8e",
        "10000000000000"
      ],
      "transaction": {
        "from": "0x45dce8e4f2dc005a5f28206a46cb034697eeda8e",
        "to": "0x452420df4ac1e3db5429b5fd629f3047482c543c",
        "gas": "0xd7688",
        "value": "0x55e5182b264c",
        "input": "0x3e832c9000000000000000000000000064445f0aecc51e94ad52d8ac56b7190e764e561a000000000000000000000000000000000000000000000000000000000000767000000000000000000000000045dce8e4f2dc005a5f28206a46cb034697eeda8e000000000000000000000000000000000000000000000000000009184e72a000",
        "nonce": "0xbf",
        "chainId": "0x38"
      },
      "additionalContracts": [],
      "isFixedGasLimit": false
    },
    {
      "hash": "0xa63d371ecdfd2bcfe0ecc76d05954dd692a95586f75456a4bc2bb896a408f4f7",
      "transactionType": "CALL",
      "contractName": null,
      "contractAddress": "0x90581eca9469d8d7f5d3b60f4715027adfcf7927",
      "function": "approve(address,uint256)",
      "arguments": [
        "0x452420df4AC1e3db5429b5FD629f3047482C543C",
        "10000000000000"
      ],
      "transaction": {
        "from": "0x45dce8e4f2dc005a5f28206a46cb034697eeda8e",
        "to": "0x90581eca9469d8d7f5d3b60f4715027adfcf7927",
        "gas": "0x132ad",
        "value": "0x0",
        "input": "0x095ea7b3000000000000000000000000452420df4ac1e3db5429b5fd629f3047482c543c000000000000000000000000000000000000000000000000000009184e72a000",
        "nonce": "0xc0",
        "chainId": "0x38"
      },
      "additionalContracts": [],
      "isFixedGasLimit": false
    },
    {
      "hash": "0x1bbc77543f5a681c62775bfcff3d5dbd76ac5c7d8b05d00d8880f369b488cc4d",
      "transactionType": "CALL",
      "contractName": null,
      "contractAddress": "0x452420df4ac1e3db5429b5fd629f3047482c543c",
      "function": "sendOFT(address,uint32,bytes32,uint256)",
      "arguments": [
        "0x90581eCa9469D8D7F5D3B60f4715027aDFCf7927",
        "30320",
        "0x00000000000000000000000045dce8e4f2dc005a5f28206a46cb034697eeda8e",
        "10000000000000"
      ],
      "transaction": {
        "from": "0x45dce8e4f2dc005a5f28206a46cb034697eeda8e",
        "to": "0x452420df4ac1e3db5429b5fd629f3047482c543c",
        "gas": "0xe3a0a",
        "value": "0x55e5182b264c",
        "input": "0x3e832c9000000000000000000000000090581eca9469d8d7f5d3b60f4715027adfcf7927000000000000000000000000000000000000000000000000000000000000767000000000000000000000000045dce8e4f2dc005a5f28206a46cb034697eeda8e000000000000000000000000000000000000000000000000000009184e72a000",
        "nonce": "0xc1",
        "chainId": "0x38"
      },
      "additionalContracts": [],
      "isFixedGasLimit": false
    }
  ],
  "receipts": [
    {
      "status": "0x1",
      "cumulativeGasUsed": "0x611783",
      "logs": [
        {
          "address": "0x80eede496655fb9047dd39d9f418d5483ed600df",
          "topics": [
            "0x8c5be1e5ebec7d5bd14f71427d1e84f3dd0314c0f7b2291e5b200ac8c7c3b925",
            "0x00000000000000000000000045dce8e4f2dc005a5f28206a46cb034697eeda8e",
            "0x000000000000000000000000452420df4ac1e3db5429b5fd629f3047482c543c"
          ],
          "data": "0x000000000000000000000000000000000000000000000000000009184e72a000",
          "blockHash": "0xd69703088d17b9ec1d14f08225b29f421cf3ae5a8cd11ee46019e10178535dc4",
          "blockNumber": "0x5d6d354",
          "blockTimestamp": "0x6a03dde2",
          "transactionHash": "0x51698181dc3ef3cd9f068c7bbd89eaa0c148ce53c33caa99d4e8b05f14e0b552",
          "transactionIndex": "0x2f",
          "logIndex": "0xbc",
          "removed": false
        }
      ],
      "logsBloom": "0x00000000000000000000000200000000000000000000000000000000000000000000000000000000000000000800000000000000000000000000000200200000000000000000000000000000000000000000000200000000000000000000000000000000000000000000000008000000000000000000000000000000010000000000000000000000000000000000000000000000000000000000000000000000020000000000000000000000000000000000000000000000000000000000000000000000000000000000008000000000001000000000000000000000000000000010000000000000000000000000800000000000000000000000000000000000",
      "type": "0x2",
      "transactionHash": "0x51698181dc3ef3cd9f068c7bbd89eaa0c148ce53c33caa99d4e8b05f14e0b552",
      "transactionIndex": "0x2f",
      "blockHash": "0xd69703088d17b9ec1d14f08225b29f421cf3ae5a8cd11ee46019e10178535dc4",
      "blockNumber": "0x5d6d354",
      "gasUsed": "0xd1b2",
      "effectiveGasPrice": "0x2faf080",
      "from": "0x45dce8e4f2dc005a5f28206a46cb034697eeda8e",
      "to": "0x80eede496655fb9047dd39d9f418d5483ed600df",
      "contractAddress": null
    },
    {
      "status": "0x1",
      "cumulativeGasUsed": "0x6a7ed9",
      "logs": [
        {
          "address": "0x80eede496655fb9047dd39d9f418d5483ed600df",
          "topics": [
            "0x8c5be1e5ebec7d5bd14f71427d1e84f3dd0314c0f7b2291e5b200ac8c7c3b925",
            "0x00000000000000000000000045dce8e4f2dc005a5f28206a46cb034697eeda8e",
            "0x000000000000000000000000452420df4ac1e3db5429b5fd629f3047482c543c"
          ],
          "data": "0x0000000000000000000000000000000000000000000000000000000000000000",
          "blockHash": "0xd69703088d17b9ec1d14f08225b29f421cf3ae5a8cd11ee46019e10178535dc4",
          "blockNumber": "0x5d6d354",
          "blockTimestamp": "0x6a03dde2",
          "transactionHash": "0x336adc483778b4de4b7cbb8b5c0a6fb67bb53ae2405b9b24feba484644df000d",
          "transactionIndex": "0x30",
          "logIndex": "0xbd",
          "removed": false
        },
        {
          "address": "0x80eede496655fb9047dd39d9f418d5483ed600df",
          "topics": [
            "0xddf252ad1be2c89b69c2b068fc378daa952ba7f163c4a11628f55a4df523b3ef",
            "0x00000000000000000000000045dce8e4f2dc005a5f28206a46cb034697eeda8e",
            "0x000000000000000000000000452420df4ac1e3db5429b5fd629f3047482c543c"
          ],
          "data": "0x000000000000000000000000000000000000000000000000000009184e72a000",
          "blockHash": "0xd69703088d17b9ec1d14f08225b29f421cf3ae5a8cd11ee46019e10178535dc4",
          "blockNumber": "0x5d6d354",
          "blockTimestamp": "0x6a03dde2",
          "transactionHash": "0x336adc483778b4de4b7cbb8b5c0a6fb67bb53ae2405b9b24feba484644df000d",
          "transactionIndex": "0x30",
          "logIndex": "0xbe",
          "removed": false
        },
        {
          "address": "0x80eede496655fb9047dd39d9f418d5483ed600df",
          "topics": [
            "0x8c5be1e5ebec7d5bd14f71427d1e84f3dd0314c0f7b2291e5b200ac8c7c3b925",
            "0x000000000000000000000000452420df4ac1e3db5429b5fd629f3047482c543c",
            "0x00000000000000000000000080eede496655fb9047dd39d9f418d5483ed600df"
          ],
          "data": "0x000000000000000000000000000000000000000000000000000009184e72a000",
          "blockHash": "0xd69703088d17b9ec1d14f08225b29f421cf3ae5a8cd11ee46019e10178535dc4",
          "blockNumber": "0x5d6d354",
          "blockTimestamp": "0x6a03dde2",
          "transactionHash": "0x336adc483778b4de4b7cbb8b5c0a6fb67bb53ae2405b9b24feba484644df000d",
          "transactionIndex": "0x30",
          "logIndex": "0xbf",
          "removed": false
        },
        {
          "address": "0x80eede496655fb9047dd39d9f418d5483ed600df",
          "topics": [
            "0xddf252ad1be2c89b69c2b068fc378daa952ba7f163c4a11628f55a4df523b3ef",
            "0x000000000000000000000000452420df4ac1e3db5429b5fd629f3047482c543c",
            "0x0000000000000000000000000000000000000000000000000000000000000000"
          ],
          "data": "0x000000000000000000000000000000000000000000000000000009184e72a000",
          "blockHash": "0xd69703088d17b9ec1d14f08225b29f421cf3ae5a8cd11ee46019e10178535dc4",
          "blockNumber": "0x5d6d354",
          "blockTimestamp": "0x6a03dde2",
          "transactionHash": "0x336adc483778b4de4b7cbb8b5c0a6fb67bb53ae2405b9b24feba484644df000d",
          "transactionIndex": "0x30",
          "logIndex": "0xc0",
          "removed": false
        },
        {
          "address": "0x9f8c645f2d0b2159767bd6e0839de4be49e823de",
          "topics": [
            "0x61ed099e74a97a1d7f8bb0952a88ca8b7b8ebd00c126ea04671f92a81213318a"
          ],
          "data": "0x0000000000000000000000003ebd570ed38b1b3b4bc886999fcf507e9d58485900000000000000000000000000000000000000000000000000001f565c3204c5",
          "blockHash": "0xd69703088d17b9ec1d14f08225b29f421cf3ae5a8cd11ee46019e10178535dc4",
          "blockNumber": "0x5d6d354",
          "blockTimestamp": "0x6a03dde2",
          "transactionHash": "0x336adc483778b4de4b7cbb8b5c0a6fb67bb53ae2405b9b24feba484644df000d",
          "transactionIndex": "0x30",
          "logIndex": "0xc1",
          "removed": false
        },
        {
          "address": "0x9f8c645f2d0b2159767bd6e0839de4be49e823de",
          "topics": [
            "0x07ea52d82345d6e838192107d8fd7123d9c2ec8e916cd0aad13fd2b60db24644"
          ],
          "data": "0x0000000000000000000000000000000000000000000000000000000000000060000000000000000000000000000000000000000000000000000000000000012000000000000000000000000000000000000000000000000000000000000001400000000000000000000000000000000000000000000000000000000000000005000000000000000000000000247624e2143504730aec22912ed41f092498bef200000000000000000000000031f748a368a893bdb5abb67ec95f232507601a73000000000000000000000000d4bf35ce3bfc7f7d7dfc0694a7d4aa8b8c60a38c000000000000000000000000fa9ba83c102283958b997adc8b44ed3a3cdb5dda000000000000000000000000fd6865c841c2d64565562fcc7e05e619a30615f000000000000000000000000000000000000000000000000000000000000000000000000000000000000000000000000000000000000000000000000000000005000000000000000000000000000000000000000000000000000003d3d6110e09000000000000000000000000000000000000000000000000000003839cad2e0c000000000000000000000000000000000000000000000000000004ec9eee9e000000000000000000000000000000000000000000000000000000049c658abe03000000000000000000000000000000000000000000000000000003d3d6110e09",
          "blockHash": "0xd69703088d17b9ec1d14f08225b29f421cf3ae5a8cd11ee46019e10178535dc4",
          "blockNumber": "0x5d6d354",
          "blockTimestamp": "0x6a03dde2",
          "transactionHash": "0x336adc483778b4de4b7cbb8b5c0a6fb67bb53ae2405b9b24feba484644df000d",
          "transactionIndex": "0x30",
          "logIndex": "0xc2",
          "removed": false
        },
        {
          "address": "0x1a44076050125825900e736c501f859c50fe728c",
          "topics": [
            "0x1ab700d4ced0c005b164c0f789fd09fcbb0156d4c2041b8a3bfbcd961cd1567f"
          ],
          "data": "0x000000000000000000000000000000000000000000000000000000000000006000000000000000000000000000000000000000000000000000000000000001800000000000000000000000009f8c645f2d0b2159767bd6e0839de4be49e823de00000000000000000000000000000000000000000000000000000000000000f90100000000000001db0000759600000000000000000000000080eede496655fb9047dd39d9f418d5483ed600df0000762f00000000000000000000000096a394058e2b84a89bac9667b19661ed003cf5d4b484e94b9f9370a83c8df5b033dd830998fce1cdeedee06ea739937976fc7ed50000000000000000000000002a2019b30c157db6c1c01306b8025167dbe1803b000000000000000a000000000000000000000000452420df4ac1e3db5429b5fd629f3047482c543c00000000000000000000000045dce8e4f2dc005a5f28206a46cb034697eeda8e000000000000000000000000000000000000000000000000000000000000767000000000000000000000000000000000000000000000000000000000000000000000000000002c0003010011010000000000000000000000000003d090010013030000000000000000000000000000000f42400000000000000000000000000000000000000000",
          "blockHash": "0xd69703088d17b9ec1d14f08225b29f421cf3ae5a8cd11ee46019e10178535dc4",
          "blockNumber": "0x5d6d354",
          "blockTimestamp": "0x6a03dde2",
          "transactionHash": "0x336adc483778b4de4b7cbb8b5c0a6fb67bb53ae2405b9b24feba484644df000d",
          "transactionIndex": "0x30",
          "logIndex": "0xc3",
          "removed": false
        },
        {
          "address": "0x80eede496655fb9047dd39d9f418d5483ed600df",
          "topics": [
            "0x85496b760a4b7f8d66384b9df21b381f5d1b1e79f229a47aaf4c232edc2fe59a",
            "0xb484e94b9f9370a83c8df5b033dd830998fce1cdeedee06ea739937976fc7ed5",
            "0x000000000000000000000000452420df4ac1e3db5429b5fd629f3047482c543c"
          ],
          "data": "0x000000000000000000000000000000000000000000000000000000000000762f000000000000000000000000000000000000000000000000000009184e72a000000000000000000000000000000000000000000000000000000009184e72a000",
          "blockHash": "0xd69703088d17b9ec1d14f08225b29f421cf3ae5a8cd11ee46019e10178535dc4",
          "blockNumber": "0x5d6d354",
          "blockTimestamp": "0x6a03dde2",
          "transactionHash": "0x336adc483778b4de4b7cbb8b5c0a6fb67bb53ae2405b9b24feba484644df000d",
          "transactionIndex": "0x30",
          "logIndex": "0xc4",
          "removed": false
        },
        {
          "address": "0x452420df4ac1e3db5429b5fd629f3047482c543c",
          "topics": [
            "0xbc9ee36b6ca0bdd5b3840e6d329dd19a2490d880c7ce24d9818aa593adfb35be",
            "0x00000000000000000000000045dce8e4f2dc005a5f28206a46cb034697eeda8e",
            "0x0000000000000000000000000000000000000000000000000000000000007670",
            "0x00000000000000000000000045dce8e4f2dc005a5f28206a46cb034697eeda8e"
          ],
          "data": "0x00000000000000000000000080eede496655fb9047dd39d9f418d5483ed600df000000000000000000000000000000000000000000000000000009184e72a000",
          "blockHash": "0xd69703088d17b9ec1d14f08225b29f421cf3ae5a8cd11ee46019e10178535dc4",
          "blockNumber": "0x5d6d354",
          "blockTimestamp": "0x6a03dde2",
          "transactionHash": "0x336adc483778b4de4b7cbb8b5c0a6fb67bb53ae2405b9b24feba484644df000d",
          "transactionIndex": "0x30",
          "logIndex": "0xc5",
          "removed": false
        }
      ],
      "logsBloom": "0x00000000000000100000000200000040000000000000000000000000001000000000081000000400000000000800000000000000000000000000040200200000000002000000000000000008000000000000200200000000000000000400000000000000020000008400000008000800000000000010100000000010010001000000000000000040000000080000000000000004000000000000000000000000020000108000000020100000000000000000000000400000000444000000000000000002020000000000008080000000001000000000000000000000000020000010040020000000000000000000802000000000018000000000000000000000",
      "type": "0x2",
      "transactionHash": "0x336adc483778b4de4b7cbb8b5c0a6fb67bb53ae2405b9b24feba484644df000d",
      "transactionIndex": "0x30",
      "blockHash": "0xd69703088d17b9ec1d14f08225b29f421cf3ae5a8cd11ee46019e10178535dc4",
      "blockNumber": "0x5d6d354",
      "gasUsed": "0x96756",
      "effectiveGasPrice": "0x2faf080",
      "from": "0x45dce8e4f2dc005a5f28206a46cb034697eeda8e",
      "to": "0x452420df4ac1e3db5429b5fd629f3047482c543c",
      "contractAddress": null
    },
    {
      "status": "0x1",
      "cumulativeGasUsed": "0x6b5075",
      "logs": [
        {
          "address": "0x5bff88ca1442c2496f7e475e9e7786383bc070c0",
          "topics": [
            "0x8c5be1e5ebec7d5bd14f71427d1e84f3dd0314c0f7b2291e5b200ac8c7c3b925",
            "0x00000000000000000000000045dce8e4f2dc005a5f28206a46cb034697eeda8e",
            "0x000000000000000000000000452420df4ac1e3db5429b5fd629f3047482c543c"
          ],
          "data": "0x000000000000000000000000000000000000000000000000000009184e72a000",
          "blockHash": "0xd69703088d17b9ec1d14f08225b29f421cf3ae5a8cd11ee46019e10178535dc4",
          "blockNumber": "0x5d6d354",
          "blockTimestamp": "0x6a03dde2",
          "transactionHash": "0x80fb41e8e39af014553e00675e05f8a54b2add638bb26895a1a35856e9df9375",
          "transactionIndex": "0x31",
          "logIndex": "0xc6",
          "removed": false
        }
      ],
      "logsBloom": "0x00000000000000000000000200000000000000000000000000000000000000000000000000000000000000000000000000000000000000000000000000200000000000000000000000000000000000000000000200000000000000000000000000000000000000000000000008000000000000000000000000000000000000000000000000000000000000000000000000000000000000000000000000000000020000000000000000000000000000000000000000000000000000000010000000000000000000000000008000000000001000800000000000000000000000000010000000000000000000000000800000000000000000000000000000000800",
      "type": "0x2",
      "transactionHash": "0x80fb41e8e39af014553e00675e05f8a54b2add638bb26895a1a35856e9df9375",
      "transactionIndex": "0x31",
      "blockHash": "0xd69703088d17b9ec1d14f08225b29f421cf3ae5a8cd11ee46019e10178535dc4",
      "blockNumber": "0x5d6d354",
      "gasUsed": "0xd19c",
      "effectiveGasPrice": "0x2faf080",
      "from": "0x45dce8e4f2dc005a5f28206a46cb034697eeda8e",
      "to": "0x5bff88ca1442c2496f7e475e9e7786383bc070c0",
      "contractAddress": null
    },
    {
      "status": "0x1",
      "cumulativeGasUsed": "0x748510",
      "logs": [
        {
          "address": "0x5bff88ca1442c2496f7e475e9e7786383bc070c0",
          "topics": [
            "0x8c5be1e5ebec7d5bd14f71427d1e84f3dd0314c0f7b2291e5b200ac8c7c3b925",
            "0x00000000000000000000000045dce8e4f2dc005a5f28206a46cb034697eeda8e",
            "0x000000000000000000000000452420df4ac1e3db5429b5fd629f3047482c543c"
          ],
          "data": "0x0000000000000000000000000000000000000000000000000000000000000000",
          "blockHash": "0xd69703088d17b9ec1d14f08225b29f421cf3ae5a8cd11ee46019e10178535dc4",
          "blockNumber": "0x5d6d354",
          "blockTimestamp": "0x6a03dde2",
          "transactionHash": "0x60ab299b0fe8e4ab6c54a8f815bc7a76fdfaf820b94992f515791f440d64df4b",
          "transactionIndex": "0x32",
          "logIndex": "0xc7",
          "removed": false
        },
        {
          "address": "0x5bff88ca1442c2496f7e475e9e7786383bc070c0",
          "topics": [
            "0xddf252ad1be2c89b69c2b068fc378daa952ba7f163c4a11628f55a4df523b3ef",
            "0x00000000000000000000000045dce8e4f2dc005a5f28206a46cb034697eeda8e",
            "0x000000000000000000000000452420df4ac1e3db5429b5fd629f3047482c543c"
          ],
          "data": "0x000000000000000000000000000000000000000000000000000009184e72a000",
          "blockHash": "0xd69703088d17b9ec1d14f08225b29f421cf3ae5a8cd11ee46019e10178535dc4",
          "blockNumber": "0x5d6d354",
          "blockTimestamp": "0x6a03dde2",
          "transactionHash": "0x60ab299b0fe8e4ab6c54a8f815bc7a76fdfaf820b94992f515791f440d64df4b",
          "transactionIndex": "0x32",
          "logIndex": "0xc8",
          "removed": false
        },
        {
          "address": "0x5bff88ca1442c2496f7e475e9e7786383bc070c0",
          "topics": [
            "0x8c5be1e5ebec7d5bd14f71427d1e84f3dd0314c0f7b2291e5b200ac8c7c3b925",
            "0x000000000000000000000000452420df4ac1e3db5429b5fd629f3047482c543c",
            "0x0000000000000000000000005bff88ca1442c2496f7e475e9e7786383bc070c0"
          ],
          "data": "0x000000000000000000000000000000000000000000000000000009184e72a000",
          "blockHash": "0xd69703088d17b9ec1d14f08225b29f421cf3ae5a8cd11ee46019e10178535dc4",
          "blockNumber": "0x5d6d354",
          "blockTimestamp": "0x6a03dde2",
          "transactionHash": "0x60ab299b0fe8e4ab6c54a8f815bc7a76fdfaf820b94992f515791f440d64df4b",
          "transactionIndex": "0x32",
          "logIndex": "0xc9",
          "removed": false
        },
        {
          "address": "0x5bff88ca1442c2496f7e475e9e7786383bc070c0",
          "topics": [
            "0xddf252ad1be2c89b69c2b068fc378daa952ba7f163c4a11628f55a4df523b3ef",
            "0x000000000000000000000000452420df4ac1e3db5429b5fd629f3047482c543c",
            "0x0000000000000000000000000000000000000000000000000000000000000000"
          ],
          "data": "0x000000000000000000000000000000000000000000000000000009184e72a000",
          "blockHash": "0xd69703088d17b9ec1d14f08225b29f421cf3ae5a8cd11ee46019e10178535dc4",
          "blockNumber": "0x5d6d354",
          "blockTimestamp": "0x6a03dde2",
          "transactionHash": "0x60ab299b0fe8e4ab6c54a8f815bc7a76fdfaf820b94992f515791f440d64df4b",
          "transactionIndex": "0x32",
          "logIndex": "0xca",
          "removed": false
        },
        {
          "address": "0x9f8c645f2d0b2159767bd6e0839de4be49e823de",
          "topics": [
            "0x61ed099e74a97a1d7f8bb0952a88ca8b7b8ebd00c126ea04671f92a81213318a"
          ],
          "data": "0x0000000000000000000000003ebd570ed38b1b3b4bc886999fcf507e9d58485900000000000000000000000000000000000000000000000000001f565c3204c5",
          "blockHash": "0xd69703088d17b9ec1d14f08225b29f421cf3ae5a8cd11ee46019e10178535dc4",
          "blockNumber": "0x5d6d354",
          "blockTimestamp": "0x6a03dde2",
          "transactionHash": "0x60ab299b0fe8e4ab6c54a8f815bc7a76fdfaf820b94992f515791f440d64df4b",
          "transactionIndex": "0x32",
          "logIndex": "0xcb",
          "removed": false
        },
        {
          "address": "0x9f8c645f2d0b2159767bd6e0839de4be49e823de",
          "topics": [
            "0x07ea52d82345d6e838192107d8fd7123d9c2ec8e916cd0aad13fd2b60db24644"
          ],
          "data": "0x0000000000000000000000000000000000000000000000000000000000000060000000000000000000000000000000000000000000000000000000000000012000000000000000000000000000000000000000000000000000000000000001400000000000000000000000000000000000000000000000000000000000000005000000000000000000000000247624e2143504730aec22912ed41f092498bef200000000000000000000000031f748a368a893bdb5abb67ec95f232507601a73000000000000000000000000d4bf35ce3bfc7f7d7dfc0694a7d4aa8b8c60a38c000000000000000000000000fa9ba83c102283958b997adc8b44ed3a3cdb5dda000000000000000000000000fd6865c841c2d64565562fcc7e05e619a30615f000000000000000000000000000000000000000000000000000000000000000000000000000000000000000000000000000000000000000000000000000000005000000000000000000000000000000000000000000000000000003d3d6110e09000000000000000000000000000000000000000000000000000003839cad2e0c000000000000000000000000000000000000000000000000000004ec9eee9e000000000000000000000000000000000000000000000000000000049c658abe03000000000000000000000000000000000000000000000000000003d3d6110e09",
          "blockHash": "0xd69703088d17b9ec1d14f08225b29f421cf3ae5a8cd11ee46019e10178535dc4",
          "blockNumber": "0x5d6d354",
          "blockTimestamp": "0x6a03dde2",
          "transactionHash": "0x60ab299b0fe8e4ab6c54a8f815bc7a76fdfaf820b94992f515791f440d64df4b",
          "transactionIndex": "0x32",
          "logIndex": "0xcc",
          "removed": false
        },
        {
          "address": "0x1a44076050125825900e736c501f859c50fe728c",
          "topics": [
            "0x1ab700d4ced0c005b164c0f789fd09fcbb0156d4c2041b8a3bfbcd961cd1567f"
          ],
          "data": "0x000000000000000000000000000000000000000000000000000000000000006000000000000000000000000000000000000000000000000000000000000001800000000000000000000000009f8c645f2d0b2159767bd6e0839de4be49e823de00000000000000000000000000000000000000000000000000000000000000f9010000000000000003000075960000000000000000000000005bff88ca1442c2496f7e475e9e7786383bc070c00000762f00000000000000000000000088aa7854d3b2daa5e37e7ce73a1f39669623a3615389708d77671ffb344cdbd8d4fcfb16de79e1d1a01c4a769fe50dfeab0b0aa50000000000000000000000002a2019b30c157db6c1c01306b8025167dbe1803b000000000000000a000000000000000000000000452420df4ac1e3db5429b5fd629f3047482c543c00000000000000000000000045dce8e4f2dc005a5f28206a46cb034697eeda8e000000000000000000000000000000000000000000000000000000000000767000000000000000000000000000000000000000000000000000000000000000000000000000002c0003010011010000000000000000000000000003d090010013030000000000000000000000000000000f42400000000000000000000000000000000000000000",
          "blockHash": "0xd69703088d17b9ec1d14f08225b29f421cf3ae5a8cd11ee46019e10178535dc4",
          "blockNumber": "0x5d6d354",
          "blockTimestamp": "0x6a03dde2",
          "transactionHash": "0x60ab299b0fe8e4ab6c54a8f815bc7a76fdfaf820b94992f515791f440d64df4b",
          "transactionIndex": "0x32",
          "logIndex": "0xcd",
          "removed": false
        },
        {
          "address": "0x5bff88ca1442c2496f7e475e9e7786383bc070c0",
          "topics": [
            "0x85496b760a4b7f8d66384b9df21b381f5d1b1e79f229a47aaf4c232edc2fe59a",
            "0x5389708d77671ffb344cdbd8d4fcfb16de79e1d1a01c4a769fe50dfeab0b0aa5",
            "0x000000000000000000000000452420df4ac1e3db5429b5fd629f3047482c543c"
          ],
          "data": "0x000000000000000000000000000000000000000000000000000000000000762f000000000000000000000000000000000000000000000000000009184e72a000000000000000000000000000000000000000000000000000000009184e72a000",
          "blockHash": "0xd69703088d17b9ec1d14f08225b29f421cf3ae5a8cd11ee46019e10178535dc4",
          "blockNumber": "0x5d6d354",
          "blockTimestamp": "0x6a03dde2",
          "transactionHash": "0x60ab299b0fe8e4ab6c54a8f815bc7a76fdfaf820b94992f515791f440d64df4b",
          "transactionIndex": "0x32",
          "logIndex": "0xce",
          "removed": false
        },
        {
          "address": "0x452420df4ac1e3db5429b5fd629f3047482c543c",
          "topics": [
            "0xbc9ee36b6ca0bdd5b3840e6d329dd19a2490d880c7ce24d9818aa593adfb35be",
            "0x00000000000000000000000045dce8e4f2dc005a5f28206a46cb034697eeda8e",
            "0x0000000000000000000000000000000000000000000000000000000000007670",
            "0x00000000000000000000000045dce8e4f2dc005a5f28206a46cb034697eeda8e"
          ],
          "data": "0x0000000000000000000000005bff88ca1442c2496f7e475e9e7786383bc070c0000000000000000000000000000000000000000000000000000009184e72a000",
          "blockHash": "0xd69703088d17b9ec1d14f08225b29f421cf3ae5a8cd11ee46019e10178535dc4",
          "blockNumber": "0x5d6d354",
          "blockTimestamp": "0x6a03dde2",
          "transactionHash": "0x60ab299b0fe8e4ab6c54a8f815bc7a76fdfaf820b94992f515791f440d64df4b",
          "transactionIndex": "0x32",
          "logIndex": "0xcf",
          "removed": false
        }
      ],
      "logsBloom": "0x00000000000000100000000200000040000000000000000000000000001000000001001000000000000000000000000000000000000000000000040000200000000002000000000000000008000000000000000200000000000000000400000000000000020000008000000008000800000000000010100000000010000001000000001000000040000000080000000000000004000000010000000000000000020000108000000020100000000000000000000000400000000444000010000000000002000000000000008080000000001000800000000000000000000020000010040000000000000000040000802000000000018000020100000000000800",
      "type": "0x2",
      "transactionHash": "0x60ab299b0fe8e4ab6c54a8f815bc7a76fdfaf820b94992f515791f440d64df4b",
      "transactionIndex": "0x32",
      "blockHash": "0xd69703088d17b9ec1d14f08225b29f421cf3ae5a8cd11ee46019e10178535dc4",
      "blockNumber": "0x5d6d354",
      "gasUsed": "0x9349b",
      "effectiveGasPrice": "0x2faf080",
      "from": "0x45dce8e4f2dc005a5f28206a46cb034697eeda8e",
      "to": "0x452420df4ac1e3db5429b5fd629f3047482c543c",
      "contractAddress": null
    },
    {
      "status": "0x1",
      "cumulativeGasUsed": "0x7556c2",
      "logs": [
        {
          "address": "0x43edd7f3831b08fe70b7555ddd373c8bf65a9050",
          "topics": [
            "0x8c5be1e5ebec7d5bd14f71427d1e84f3dd0314c0f7b2291e5b200ac8c7c3b925",
            "0x00000000000000000000000045dce8e4f2dc005a5f28206a46cb034697eeda8e",
            "0x000000000000000000000000452420df4ac1e3db5429b5fd629f3047482c543c"
          ],
          "data": "0x000000000000000000000000000000000000000000000000000009184e72a000",
          "blockHash": "0xd69703088d17b9ec1d14f08225b29f421cf3ae5a8cd11ee46019e10178535dc4",
          "blockNumber": "0x5d6d354",
          "blockTimestamp": "0x6a03dde2",
          "transactionHash": "0xc5f779e9b1eb7694c9eb7377e30a00c357b7a36fe941c1e400d3d4a7665ebe12",
          "transactionIndex": "0x33",
          "logIndex": "0xd0",
          "removed": false
        }
      ],
      "logsBloom": "0x00000000000000000000000200000000000000000000000000000000000000000000000000000000000000000000000000000000000000000000000000200000000000000000000000000000000000000000000200000000000000000000000000000000000000000000000008000000000000000000000000000000000000000000000000000000000000000000000000000000000000000000000000000000020000000000000002000000000000000000000000000000000000000000000000000000000000000000008000000000001000000000000000000000000000000010000000000000000000040000800000000000000000000000000000080000",
      "type": "0x2",
      "transactionHash": "0xc5f779e9b1eb7694c9eb7377e30a00c357b7a36fe941c1e400d3d4a7665ebe12",
      "transactionIndex": "0x33",
      "blockHash": "0xd69703088d17b9ec1d14f08225b29f421cf3ae5a8cd11ee46019e10178535dc4",
      "blockNumber": "0x5d6d354",
      "gasUsed": "0xd1b2",
      "effectiveGasPrice": "0x2faf080",
      "from": "0x45dce8e4f2dc005a5f28206a46cb034697eeda8e",
      "to": "0x43edd7f3831b08fe70b7555ddd373c8bf65a9050",
      "contractAddress": null
    },
    {
      "status": "0x1",
      "cumulativeGasUsed": "0x989a78",
      "logs": [
        {
          "address": "0x43edd7f3831b08fe70b7555ddd373c8bf65a9050",
          "topics": [
            "0x8c5be1e5ebec7d5bd14f71427d1e84f3dd0314c0f7b2291e5b200ac8c7c3b925",
            "0x00000000000000000000000045dce8e4f2dc005a5f28206a46cb034697eeda8e",
            "0x000000000000000000000000452420df4ac1e3db5429b5fd629f3047482c543c"
          ],
          "data": "0x0000000000000000000000000000000000000000000000000000000000000000",
          "blockHash": "0xd69703088d17b9ec1d14f08225b29f421cf3ae5a8cd11ee46019e10178535dc4",
          "blockNumber": "0x5d6d354",
          "blockTimestamp": "0x6a03dde2",
          "transactionHash": "0x9a7edd80483eb995743e97a54d685848ed826e4d7ce4a2d725f4de58e42bac64",
          "transactionIndex": "0x39",
          "logIndex": "0x104",
          "removed": false
        },
        {
          "address": "0x43edd7f3831b08fe70b7555ddd373c8bf65a9050",
          "topics": [
            "0xddf252ad1be2c89b69c2b068fc378daa952ba7f163c4a11628f55a4df523b3ef",
            "0x00000000000000000000000045dce8e4f2dc005a5f28206a46cb034697eeda8e",
            "0x000000000000000000000000452420df4ac1e3db5429b5fd629f3047482c543c"
          ],
          "data": "0x000000000000000000000000000000000000000000000000000009184e72a000",
          "blockHash": "0xd69703088d17b9ec1d14f08225b29f421cf3ae5a8cd11ee46019e10178535dc4",
          "blockNumber": "0x5d6d354",
          "blockTimestamp": "0x6a03dde2",
          "transactionHash": "0x9a7edd80483eb995743e97a54d685848ed826e4d7ce4a2d725f4de58e42bac64",
          "transactionIndex": "0x39",
          "logIndex": "0x105",
          "removed": false
        },
        {
          "address": "0x43edd7f3831b08fe70b7555ddd373c8bf65a9050",
          "topics": [
            "0x8c5be1e5ebec7d5bd14f71427d1e84f3dd0314c0f7b2291e5b200ac8c7c3b925",
            "0x000000000000000000000000452420df4ac1e3db5429b5fd629f3047482c543c",
            "0x00000000000000000000000043edd7f3831b08fe70b7555ddd373c8bf65a9050"
          ],
          "data": "0x000000000000000000000000000000000000000000000000000009184e72a000",
          "blockHash": "0xd69703088d17b9ec1d14f08225b29f421cf3ae5a8cd11ee46019e10178535dc4",
          "blockNumber": "0x5d6d354",
          "blockTimestamp": "0x6a03dde2",
          "transactionHash": "0x9a7edd80483eb995743e97a54d685848ed826e4d7ce4a2d725f4de58e42bac64",
          "transactionIndex": "0x39",
          "logIndex": "0x106",
          "removed": false
        },
        {
          "address": "0x43edd7f3831b08fe70b7555ddd373c8bf65a9050",
          "topics": [
            "0xddf252ad1be2c89b69c2b068fc378daa952ba7f163c4a11628f55a4df523b3ef",
            "0x000000000000000000000000452420df4ac1e3db5429b5fd629f3047482c543c",
            "0x0000000000000000000000000000000000000000000000000000000000000000"
          ],
          "data": "0x000000000000000000000000000000000000000000000000000009184e72a000",
          "blockHash": "0xd69703088d17b9ec1d14f08225b29f421cf3ae5a8cd11ee46019e10178535dc4",
          "blockNumber": "0x5d6d354",
          "blockTimestamp": "0x6a03dde2",
          "transactionHash": "0x9a7edd80483eb995743e97a54d685848ed826e4d7ce4a2d725f4de58e42bac64",
          "transactionIndex": "0x39",
          "logIndex": "0x107",
          "removed": false
        },
        {
          "address": "0x9f8c645f2d0b2159767bd6e0839de4be49e823de",
          "topics": [
            "0x61ed099e74a97a1d7f8bb0952a88ca8b7b8ebd00c126ea04671f92a81213318a"
          ],
          "data": "0x0000000000000000000000003ebd570ed38b1b3b4bc886999fcf507e9d58485900000000000000000000000000000000000000000000000000001f565c3204c5",
          "blockHash": "0xd69703088d17b9ec1d14f08225b29f421cf3ae5a8cd11ee46019e10178535dc4",
          "blockNumber": "0x5d6d354",
          "blockTimestamp": "0x6a03dde2",
          "transactionHash": "0x9a7edd80483eb995743e97a54d685848ed826e4d7ce4a2d725f4de58e42bac64",
          "transactionIndex": "0x39",
          "logIndex": "0x108",
          "removed": false
        },
        {
          "address": "0x9f8c645f2d0b2159767bd6e0839de4be49e823de",
          "topics": [
            "0x07ea52d82345d6e838192107d8fd7123d9c2ec8e916cd0aad13fd2b60db24644"
          ],
          "data": "0x0000000000000000000000000000000000000000000000000000000000000060000000000000000000000000000000000000000000000000000000000000012000000000000000000000000000000000000000000000000000000000000001400000000000000000000000000000000000000000000000000000000000000005000000000000000000000000247624e2143504730aec22912ed41f092498bef200000000000000000000000031f748a368a893bdb5abb67ec95f232507601a73000000000000000000000000d4bf35ce3bfc7f7d7dfc0694a7d4aa8b8c60a38c000000000000000000000000fa9ba83c102283958b997adc8b44ed3a3cdb5dda000000000000000000000000fd6865c841c2d64565562fcc7e05e619a30615f000000000000000000000000000000000000000000000000000000000000000000000000000000000000000000000000000000000000000000000000000000005000000000000000000000000000000000000000000000000000003d3d6110e09000000000000000000000000000000000000000000000000000003839cad2e0c000000000000000000000000000000000000000000000000000004ec9eee9e000000000000000000000000000000000000000000000000000000049c658abe03000000000000000000000000000000000000000000000000000003d3d6110e09",
          "blockHash": "0xd69703088d17b9ec1d14f08225b29f421cf3ae5a8cd11ee46019e10178535dc4",
          "blockNumber": "0x5d6d354",
          "blockTimestamp": "0x6a03dde2",
          "transactionHash": "0x9a7edd80483eb995743e97a54d685848ed826e4d7ce4a2d725f4de58e42bac64",
          "transactionIndex": "0x39",
          "logIndex": "0x109",
          "removed": false
        },
        {
          "address": "0x1a44076050125825900e736c501f859c50fe728c",
          "topics": [
            "0x1ab700d4ced0c005b164c0f789fd09fcbb0156d4c2041b8a3bfbcd961cd1567f"
          ],
          "data": "0x000000000000000000000000000000000000000000000000000000000000006000000000000000000000000000000000000000000000000000000000000001800000000000000000000000009f8c645f2d0b2159767bd6e0839de4be49e823de00000000000000000000000000000000000000000000000000000000000000f901000000000000004d0000759600000000000000000000000043edd7f3831b08fe70b7555ddd373c8bf65a90500000762f0000000000000000000000009abfe1f8a999b0011ecd6116649aee8d575f560464fe213c9d23362ea98ca610bfdfe9616c185c9a304c385e424e7b57df66d7f40000000000000000000000002a2019b30c157db6c1c01306b8025167dbe1803b000000000000000a000000000000000000000000452420df4ac1e3db5429b5fd629f3047482c543c00000000000000000000000045dce8e4f2dc005a5f28206a46cb034697eeda8e000000000000000000000000000000000000000000000000000000000000767000000000000000000000000000000000000000000000000000000000000000000000000000002c0003010011010000000000000000000000000003d090010013030000000000000000000000000000000f42400000000000000000000000000000000000000000",
          "blockHash": "0xd69703088d17b9ec1d14f08225b29f421cf3ae5a8cd11ee46019e10178535dc4",
          "blockNumber": "0x5d6d354",
          "blockTimestamp": "0x6a03dde2",
          "transactionHash": "0x9a7edd80483eb995743e97a54d685848ed826e4d7ce4a2d725f4de58e42bac64",
          "transactionIndex": "0x39",
          "logIndex": "0x10a",
          "removed": false
        },
        {
          "address": "0x43edd7f3831b08fe70b7555ddd373c8bf65a9050",
          "topics": [
            "0x85496b760a4b7f8d66384b9df21b381f5d1b1e79f229a47aaf4c232edc2fe59a",
            "0x64fe213c9d23362ea98ca610bfdfe9616c185c9a304c385e424e7b57df66d7f4",
            "0x000000000000000000000000452420df4ac1e3db5429b5fd629f3047482c543c"
          ],
          "data": "0x000000000000000000000000000000000000000000000000000000000000762f000000000000000000000000000000000000000000000000000009184e72a000000000000000000000000000000000000000000000000000000009184e72a000",
          "blockHash": "0xd69703088d17b9ec1d14f08225b29f421cf3ae5a8cd11ee46019e10178535dc4",
          "blockNumber": "0x5d6d354",
          "blockTimestamp": "0x6a03dde2",
          "transactionHash": "0x9a7edd80483eb995743e97a54d685848ed826e4d7ce4a2d725f4de58e42bac64",
          "transactionIndex": "0x39",
          "logIndex": "0x10b",
          "removed": false
        },
        {
          "address": "0x452420df4ac1e3db5429b5fd629f3047482c543c",
          "topics": [
            "0xbc9ee36b6ca0bdd5b3840e6d329dd19a2490d880c7ce24d9818aa593adfb35be",
            "0x00000000000000000000000045dce8e4f2dc005a5f28206a46cb034697eeda8e",
            "0x0000000000000000000000000000000000000000000000000000000000007670",
            "0x00000000000000000000000045dce8e4f2dc005a5f28206a46cb034697eeda8e"
          ],
          "data": "0x00000000000000000000000043edd7f3831b08fe70b7555ddd373c8bf65a9050000000000000000000000000000000000000000000000000000009184e72a000",
          "blockHash": "0xd69703088d17b9ec1d14f08225b29f421cf3ae5a8cd11ee46019e10178535dc4",
          "blockNumber": "0x5d6d354",
          "blockTimestamp": "0x6a03dde2",
          "transactionHash": "0x9a7edd80483eb995743e97a54d685848ed826e4d7ce4a2d725f4de58e42bac64",
          "transactionIndex": "0x39",
          "logIndex": "0x10c",
          "removed": false
        }
      ],
      "logsBloom": "0x00000000000000100000000200000040000000000000000000000000001000010000001000000000000000000000000000000000000000000000040000200000000002000000000000000008000000000000000200000000000000000400000000000000020000008000000008000800000000000010100200000010000001000800000000000040000000080000000000000004000000000000000500000000020000108000000022100000000000000000000000400000000444000000020000000002000000000000008080000000001000000000000000000000000020000010040000000000000000040000802000000000018000000000000000080000",
      "type": "0x2",
      "transactionHash": "0x9a7edd80483eb995743e97a54d685848ed826e4d7ce4a2d725f4de58e42bac64",
      "transactionIndex": "0x39",
      "blockHash": "0xd69703088d17b9ec1d14f08225b29f421cf3ae5a8cd11ee46019e10178535dc4",
      "blockNumber": "0x5d6d354",
      "gasUsed": "0x934b1",
      "effectiveGasPrice": "0x2faf080",
      "from": "0x45dce8e4f2dc005a5f28206a46cb034697eeda8e",
      "to": "0x452420df4ac1e3db5429b5fd629f3047482c543c",
      "contractAddress": null
    },
    {
      "status": "0x1",
      "cumulativeGasUsed": "0x996c2a",
      "logs": [
        {
          "address": "0x3ec3849c33291a9ef4c5db86de593eb4a37fde45",
          "topics": [
            "0x8c5be1e5ebec7d5bd14f71427d1e84f3dd0314c0f7b2291e5b200ac8c7c3b925",
            "0x00000000000000000000000045dce8e4f2dc005a5f28206a46cb034697eeda8e",
            "0x000000000000000000000000452420df4ac1e3db5429b5fd629f3047482c543c"
          ],
          "data": "0x000000000000000000000000000000000000000000000000000009184e72a000",
          "blockHash": "0xd69703088d17b9ec1d14f08225b29f421cf3ae5a8cd11ee46019e10178535dc4",
          "blockNumber": "0x5d6d354",
          "blockTimestamp": "0x6a03dde2",
          "transactionHash": "0x4bfe07ea92daf97d022c956b0ea174860d5fdc70f4b39c72f1975cc0113913e2",
          "transactionIndex": "0x3a",
          "logIndex": "0x10d",
          "removed": false
        }
      ],
      "logsBloom": "0x00000000000000000000000200002000000000000000000000000000000000000000000000000000000000000000000000000000000000000000000000200000000000000000000000000000000000000000000200000000000000000000000000000000000000000000000008000000000000000000000000000000000000000000000000000000000000000000000000000000000020000040000000000000020000000000000000000000000000000000000000000000000000000000000000000000000000000000008000000000001000000000000000000000000000000010000000000000000000000000800000000000000000000000000000000000",
      "type": "0x2",
      "transactionHash": "0x4bfe07ea92daf97d022c956b0ea174860d5fdc70f4b39c72f1975cc0113913e2",
      "transactionIndex": "0x3a",
      "blockHash": "0xd69703088d17b9ec1d14f08225b29f421cf3ae5a8cd11ee46019e10178535dc4",
      "blockNumber": "0x5d6d354",
      "gasUsed": "0xd1b2",
      "effectiveGasPrice": "0x2faf080",
      "from": "0x45dce8e4f2dc005a5f28206a46cb034697eeda8e",
      "to": "0x3ec3849c33291a9ef4c5db86de593eb4a37fde45",
      "contractAddress": null
    },
    {
      "status": "0x1",
      "cumulativeGasUsed": "0xa476e5",
      "logs": [
        {
          "address": "0x3ec3849c33291a9ef4c5db86de593eb4a37fde45",
          "topics": [
            "0x8c5be1e5ebec7d5bd14f71427d1e84f3dd0314c0f7b2291e5b200ac8c7c3b925",
            "0x00000000000000000000000045dce8e4f2dc005a5f28206a46cb034697eeda8e",
            "0x000000000000000000000000452420df4ac1e3db5429b5fd629f3047482c543c"
          ],
          "data": "0x0000000000000000000000000000000000000000000000000000000000000000",
          "blockHash": "0xd69703088d17b9ec1d14f08225b29f421cf3ae5a8cd11ee46019e10178535dc4",
          "blockNumber": "0x5d6d354",
          "blockTimestamp": "0x6a03dde2",
          "transactionHash": "0xa9ed154f8d3842995d3be1c36e365c1693a308c3f924aba2ab903f34a4631a4b",
          "transactionIndex": "0x3d",
          "logIndex": "0x110",
          "removed": false
        },
        {
          "address": "0x3ec3849c33291a9ef4c5db86de593eb4a37fde45",
          "topics": [
            "0xddf252ad1be2c89b69c2b068fc378daa952ba7f163c4a11628f55a4df523b3ef",
            "0x00000000000000000000000045dce8e4f2dc005a5f28206a46cb034697eeda8e",
            "0x000000000000000000000000452420df4ac1e3db5429b5fd629f3047482c543c"
          ],
          "data": "0x000000000000000000000000000000000000000000000000000009184e72a000",
          "blockHash": "0xd69703088d17b9ec1d14f08225b29f421cf3ae5a8cd11ee46019e10178535dc4",
          "blockNumber": "0x5d6d354",
          "blockTimestamp": "0x6a03dde2",
          "transactionHash": "0xa9ed154f8d3842995d3be1c36e365c1693a308c3f924aba2ab903f34a4631a4b",
          "transactionIndex": "0x3d",
          "logIndex": "0x111",
          "removed": false
        },
        {
          "address": "0x3ec3849c33291a9ef4c5db86de593eb4a37fde45",
          "topics": [
            "0x8c5be1e5ebec7d5bd14f71427d1e84f3dd0314c0f7b2291e5b200ac8c7c3b925",
            "0x000000000000000000000000452420df4ac1e3db5429b5fd629f3047482c543c",
            "0x0000000000000000000000003ec3849c33291a9ef4c5db86de593eb4a37fde45"
          ],
          "data": "0x000000000000000000000000000000000000000000000000000009184e72a000",
          "blockHash": "0xd69703088d17b9ec1d14f08225b29f421cf3ae5a8cd11ee46019e10178535dc4",
          "blockNumber": "0x5d6d354",
          "blockTimestamp": "0x6a03dde2",
          "transactionHash": "0xa9ed154f8d3842995d3be1c36e365c1693a308c3f924aba2ab903f34a4631a4b",
          "transactionIndex": "0x3d",
          "logIndex": "0x112",
          "removed": false
        },
        {
          "address": "0x3ec3849c33291a9ef4c5db86de593eb4a37fde45",
          "topics": [
            "0xddf252ad1be2c89b69c2b068fc378daa952ba7f163c4a11628f55a4df523b3ef",
            "0x000000000000000000000000452420df4ac1e3db5429b5fd629f3047482c543c",
            "0x0000000000000000000000000000000000000000000000000000000000000000"
          ],
          "data": "0x000000000000000000000000000000000000000000000000000009184e72a000",
          "blockHash": "0xd69703088d17b9ec1d14f08225b29f421cf3ae5a8cd11ee46019e10178535dc4",
          "blockNumber": "0x5d6d354",
          "blockTimestamp": "0x6a03dde2",
          "transactionHash": "0xa9ed154f8d3842995d3be1c36e365c1693a308c3f924aba2ab903f34a4631a4b",
          "transactionIndex": "0x3d",
          "logIndex": "0x113",
          "removed": false
        },
        {
          "address": "0x9f8c645f2d0b2159767bd6e0839de4be49e823de",
          "topics": [
            "0x61ed099e74a97a1d7f8bb0952a88ca8b7b8ebd00c126ea04671f92a81213318a"
          ],
          "data": "0x0000000000000000000000003ebd570ed38b1b3b4bc886999fcf507e9d58485900000000000000000000000000000000000000000000000000001f565c3204c5",
          "blockHash": "0xd69703088d17b9ec1d14f08225b29f421cf3ae5a8cd11ee46019e10178535dc4",
          "blockNumber": "0x5d6d354",
          "blockTimestamp": "0x6a03dde2",
          "transactionHash": "0xa9ed154f8d3842995d3be1c36e365c1693a308c3f924aba2ab903f34a4631a4b",
          "transactionIndex": "0x3d",
          "logIndex": "0x114",
          "removed": false
        },
        {
          "address": "0x9f8c645f2d0b2159767bd6e0839de4be49e823de",
          "topics": [
            "0x07ea52d82345d6e838192107d8fd7123d9c2ec8e916cd0aad13fd2b60db24644"
          ],
          "data": "0x0000000000000000000000000000000000000000000000000000000000000060000000000000000000000000000000000000000000000000000000000000012000000000000000000000000000000000000000000000000000000000000001400000000000000000000000000000000000000000000000000000000000000005000000000000000000000000247624e2143504730aec22912ed41f092498bef200000000000000000000000031f748a368a893bdb5abb67ec95f232507601a73000000000000000000000000d4bf35ce3bfc7f7d7dfc0694a7d4aa8b8c60a38c000000000000000000000000fa9ba83c102283958b997adc8b44ed3a3cdb5dda000000000000000000000000fd6865c841c2d64565562fcc7e05e619a30615f000000000000000000000000000000000000000000000000000000000000000000000000000000000000000000000000000000000000000000000000000000005000000000000000000000000000000000000000000000000000003d3d6110e09000000000000000000000000000000000000000000000000000003839cad2e0c000000000000000000000000000000000000000000000000000004ec9eee9e000000000000000000000000000000000000000000000000000000049c658abe03000000000000000000000000000000000000000000000000000003d3d6110e09",
          "blockHash": "0xd69703088d17b9ec1d14f08225b29f421cf3ae5a8cd11ee46019e10178535dc4",
          "blockNumber": "0x5d6d354",
          "blockTimestamp": "0x6a03dde2",
          "transactionHash": "0xa9ed154f8d3842995d3be1c36e365c1693a308c3f924aba2ab903f34a4631a4b",
          "transactionIndex": "0x3d",
          "logIndex": "0x115",
          "removed": false
        },
        {
          "address": "0x1a44076050125825900e736c501f859c50fe728c",
          "topics": [
            "0x1ab700d4ced0c005b164c0f789fd09fcbb0156d4c2041b8a3bfbcd961cd1567f"
          ],
          "data": "0x000000000000000000000000000000000000000000000000000000000000006000000000000000000000000000000000000000000000000000000000000001800000000000000000000000009f8c645f2d0b2159767bd6e0839de4be49e823de00000000000000000000000000000000000000000000000000000000000000f9010000000000000001000075960000000000000000000000003ec3849c33291a9ef4c5db86de593eb4a37fde450000762f000000000000000000000000999dfabe3b1cc2ef66eb032eea42fea329bba168e61d5c81c72b6e9e87d735f29941deca83527a0da849b826a9866b7adbb3018c0000000000000000000000002a2019b30c157db6c1c01306b8025167dbe1803b000000000000000a000000000000000000000000452420df4ac1e3db5429b5fd629f3047482c543c00000000000000000000000045dce8e4f2dc005a5f28206a46cb034697eeda8e000000000000000000000000000000000000000000000000000000000000767000000000000000000000000000000000000000000000000000000000000000000000000000002c0003010011010000000000000000000000000003d090010013030000000000000000000000000000000f42400000000000000000000000000000000000000000",
          "blockHash": "0xd69703088d17b9ec1d14f08225b29f421cf3ae5a8cd11ee46019e10178535dc4",
          "blockNumber": "0x5d6d354",
          "blockTimestamp": "0x6a03dde2",
          "transactionHash": "0xa9ed154f8d3842995d3be1c36e365c1693a308c3f924aba2ab903f34a4631a4b",
          "transactionIndex": "0x3d",
          "logIndex": "0x116",
          "removed": false
        },
        {
          "address": "0x3ec3849c33291a9ef4c5db86de593eb4a37fde45",
          "topics": [
            "0x85496b760a4b7f8d66384b9df21b381f5d1b1e79f229a47aaf4c232edc2fe59a",
            "0xe61d5c81c72b6e9e87d735f29941deca83527a0da849b826a9866b7adbb3018c",
            "0x000000000000000000000000452420df4ac1e3db5429b5fd629f3047482c543c"
          ],
          "data": "0x000000000000000000000000000000000000000000000000000000000000762f000000000000000000000000000000000000000000000000000009184e72a000000000000000000000000000000000000000000000000000000009184e72a000",
          "blockHash": "0xd69703088d17b9ec1d14f08225b29f421cf3ae5a8cd11ee46019e10178535dc4",
          "blockNumber": "0x5d6d354",
          "blockTimestamp": "0x6a03dde2",
          "transactionHash": "0xa9ed154f8d3842995d3be1c36e365c1693a308c3f924aba2ab903f34a4631a4b",
          "transactionIndex": "0x3d",
          "logIndex": "0x117",
          "removed": false
        },
        {
          "address": "0x452420df4ac1e3db5429b5fd629f3047482c543c",
          "topics": [
            "0xbc9ee36b6ca0bdd5b3840e6d329dd19a2490d880c7ce24d9818aa593adfb35be",
            "0x00000000000000000000000045dce8e4f2dc005a5f28206a46cb034697eeda8e",
            "0x0000000000000000000000000000000000000000000000000000000000007670",
            "0x00000000000000000000000045dce8e4f2dc005a5f28206a46cb034697eeda8e"
          ],
          "data": "0x0000000000000000000000003ec3849c33291a9ef4c5db86de593eb4a37fde45000000000000000000000000000000000000000000000000000009184e72a000",
          "blockHash": "0xd69703088d17b9ec1d14f08225b29f421cf3ae5a8cd11ee46019e10178535dc4",
          "blockNumber": "0x5d6d354",
          "blockTimestamp": "0x6a03dde2",
          "transactionHash": "0xa9ed154f8d3842995d3be1c36e365c1693a308c3f924aba2ab903f34a4631a4b",
          "transactionIndex": "0x3d",
          "logIndex": "0x118",
          "removed": false
        }
      ],
      "logsBloom": "0x00000000000000100000000200002040000000000000000000000000001000000000001000000000000000000000000000000000000000000000040000200020000002000000000000000008000000000000000200000000000000000400000000000000020000008000000008000800000000000010100000000010000001000000000004000040000100080000000000000004000020000040004000000000020000108000000020100000400000000000000000400000000444000000000000000002000000000000008080000000001000000100000000000000000020000010040000000000000000000000802000000000018000000000000000000000",
      "type": "0x2",
      "transactionHash": "0xa9ed154f8d3842995d3be1c36e365c1693a308c3f924aba2ab903f34a4631a4b",
      "transactionIndex": "0x3d",
      "blockHash": "0xd69703088d17b9ec1d14f08225b29f421cf3ae5a8cd11ee46019e10178535dc4",
      "blockNumber": "0x5d6d354",
      "gasUsed": "0x9ba49",
      "effectiveGasPrice": "0x2faf080",
      "from": "0x45dce8e4f2dc005a5f28206a46cb034697eeda8e",
      "to": "0x452420df4ac1e3db5429b5fd629f3047482c543c",
      "contractAddress": null
    },
    {
      "status": "0x1",
      "cumulativeGasUsed": "0xa54881",
      "logs": [
        {
          "address": "0x64445f0aecc51e94ad52d8ac56b7190e764e561a",
          "topics": [
            "0x8c5be1e5ebec7d5bd14f71427d1e84f3dd0314c0f7b2291e5b200ac8c7c3b925",
            "0x00000000000000000000000045dce8e4f2dc005a5f28206a46cb034697eeda8e",
            "0x000000000000000000000000452420df4ac1e3db5429b5fd629f3047482c543c"
          ],
          "data": "0x000000000000000000000000000000000000000000000000000009184e72a000",
          "blockHash": "0xd69703088d17b9ec1d14f08225b29f421cf3ae5a8cd11ee46019e10178535dc4",
          "blockNumber": "0x5d6d354",
          "blockTimestamp": "0x6a03dde2",
          "transactionHash": "0x82fc0fe329a585cea8d0785830e80e9b43633a942a1811bed9605d0ddedde00a",
          "transactionIndex": "0x3e",
          "logIndex": "0x119",
          "removed": false
        }
      ],
      "logsBloom": "0x00000000000000000000000200000000000000000000000000000000000000000000000000000000000000000000000000000000000000000000000000200000002000000000000000000000000000000000000200000000000000000000000000000000000000000000000008000000000000000000000000000000000000000000000000000000000000000000000000000000000000000000000000000000020000000000000000000008000000000000000000000000000000000000000000000000000000000000008000000000001000000000000000000000000000000010000000000000000000000000800000000008000000000000000000000000",
      "type": "0x2",
      "transactionHash": "0x82fc0fe329a585cea8d0785830e80e9b43633a942a1811bed9605d0ddedde00a",
      "transactionIndex": "0x3e",
      "blockHash": "0xd69703088d17b9ec1d14f08225b29f421cf3ae5a8cd11ee46019e10178535dc4",
      "blockNumber": "0x5d6d354",
      "gasUsed": "0xd19c",
      "effectiveGasPrice": "0x2faf080",
      "from": "0x45dce8e4f2dc005a5f28206a46cb034697eeda8e",
      "to": "0x64445f0aecc51e94ad52d8ac56b7190e764e561a",
      "contractAddress": null
    },
    {
      "status": "0x1",
      "cumulativeGasUsed": "0xb20231",
      "logs": [
        {
          "address": "0x64445f0aecc51e94ad52d8ac56b7190e764e561a",
          "topics": [
            "0x8c5be1e5ebec7d5bd14f71427d1e84f3dd0314c0f7b2291e5b200ac8c7c3b925",
            "0x00000000000000000000000045dce8e4f2dc005a5f28206a46cb034697eeda8e",
            "0x000000000000000000000000452420df4ac1e3db5429b5fd629f3047482c543c"
          ],
          "data": "0x0000000000000000000000000000000000000000000000000000000000000000",
          "blockHash": "0xd69703088d17b9ec1d14f08225b29f421cf3ae5a8cd11ee46019e10178535dc4",
          "blockNumber": "0x5d6d354",
          "blockTimestamp": "0x6a03dde2",
          "transactionHash": "0x1bbc77543f5a681c62775bfcff3d5dbd76ac5c7d8b05d00d8880f369b488cc4d",
          "transactionIndex": "0x40",
          "logIndex": "0x11f",
          "removed": false
        },
        {
          "address": "0x64445f0aecc51e94ad52d8ac56b7190e764e561a",
          "topics": [
            "0xddf252ad1be2c89b69c2b068fc378daa952ba7f163c4a11628f55a4df523b3ef",
            "0x00000000000000000000000045dce8e4f2dc005a5f28206a46cb034697eeda8e",
            "0x000000000000000000000000452420df4ac1e3db5429b5fd629f3047482c543c"
          ],
          "data": "0x000000000000000000000000000000000000000000000000000009184e72a000",
          "blockHash": "0xd69703088d17b9ec1d14f08225b29f421cf3ae5a8cd11ee46019e10178535dc4",
          "blockNumber": "0x5d6d354",
          "blockTimestamp": "0x6a03dde2",
          "transactionHash": "0x1bbc77543f5a681c62775bfcff3d5dbd76ac5c7d8b05d00d8880f369b488cc4d",
          "transactionIndex": "0x40",
          "logIndex": "0x120",
          "removed": false
        },
        {
          "address": "0x64445f0aecc51e94ad52d8ac56b7190e764e561a",
          "topics": [
            "0x8c5be1e5ebec7d5bd14f71427d1e84f3dd0314c0f7b2291e5b200ac8c7c3b925",
            "0x000000000000000000000000452420df4ac1e3db5429b5fd629f3047482c543c",
            "0x00000000000000000000000064445f0aecc51e94ad52d8ac56b7190e764e561a"
          ],
          "data": "0x000000000000000000000000000000000000000000000000000009184e72a000",
          "blockHash": "0xd69703088d17b9ec1d14f08225b29f421cf3ae5a8cd11ee46019e10178535dc4",
          "blockNumber": "0x5d6d354",
          "blockTimestamp": "0x6a03dde2",
          "transactionHash": "0x1bbc77543f5a681c62775bfcff3d5dbd76ac5c7d8b05d00d8880f369b488cc4d",
          "transactionIndex": "0x40",
          "logIndex": "0x121",
          "removed": false
        },
        {
          "address": "0x64445f0aecc51e94ad52d8ac56b7190e764e561a",
          "topics": [
            "0xddf252ad1be2c89b69c2b068fc378daa952ba7f163c4a11628f55a4df523b3ef",
            "0x000000000000000000000000452420df4ac1e3db5429b5fd629f3047482c543c",
            "0x0000000000000000000000000000000000000000000000000000000000000000"
          ],
          "data": "0x000000000000000000000000000000000000000000000000000009184e72a000",
          "blockHash": "0xd69703088d17b9ec1d14f08225b29f421cf3ae5a8cd11ee46019e10178535dc4",
          "blockNumber": "0x5d6d354",
          "blockTimestamp": "0x6a03dde2",
          "transactionHash": "0x1bbc77543f5a681c62775bfcff3d5dbd76ac5c7d8b05d00d8880f369b488cc4d",
          "transactionIndex": "0x40",
          "logIndex": "0x122",
          "removed": false
        },
        {
          "address": "0x9f8c645f2d0b2159767bd6e0839de4be49e823de",
          "topics": [
            "0x61ed099e74a97a1d7f8bb0952a88ca8b7b8ebd00c126ea04671f92a81213318a"
          ],
          "data": "0x0000000000000000000000003ebd570ed38b1b3b4bc886999fcf507e9d58485900000000000000000000000000000000000000000000000000001f565c3204c5",
          "blockHash": "0xd69703088d17b9ec1d14f08225b29f421cf3ae5a8cd11ee46019e10178535dc4",
          "blockNumber": "0x5d6d354",
          "blockTimestamp": "0x6a03dde2",
          "transactionHash": "0x1bbc77543f5a681c62775bfcff3d5dbd76ac5c7d8b05d00d8880f369b488cc4d",
          "transactionIndex": "0x40",
          "logIndex": "0x123",
          "removed": false
        },
        {
          "address": "0x9f8c645f2d0b2159767bd6e0839de4be49e823de",
          "topics": [
            "0x07ea52d82345d6e838192107d8fd7123d9c2ec8e916cd0aad13fd2b60db24644"
          ],
          "data": "0x0000000000000000000000000000000000000000000000000000000000000060000000000000000000000000000000000000000000000000000000000000012000000000000000000000000000000000000000000000000000000000000001400000000000000000000000000000000000000000000000000000000000000005000000000000000000000000247624e2143504730aec22912ed41f092498bef200000000000000000000000031f748a368a893bdb5abb67ec95f232507601a73000000000000000000000000d4bf35ce3bfc7f7d7dfc0694a7d4aa8b8c60a38c000000000000000000000000fa9ba83c102283958b997adc8b44ed3a3cdb5dda000000000000000000000000fd6865c841c2d64565562fcc7e05e619a30615f000000000000000000000000000000000000000000000000000000000000000000000000000000000000000000000000000000000000000000000000000000005000000000000000000000000000000000000000000000000000003d3d6110e09000000000000000000000000000000000000000000000000000003839cad2e0c000000000000000000000000000000000000000000000000000004ec9eee9e000000000000000000000000000000000000000000000000000000049c658abe03000000000000000000000000000000000000000000000000000003d3d6110e09",
          "blockHash": "0xd69703088d17b9ec1d14f08225b29f421cf3ae5a8cd11ee46019e10178535dc4",
          "blockNumber": "0x5d6d354",
          "blockTimestamp": "0x6a03dde2",
          "transactionHash": "0x1bbc77543f5a681c62775bfcff3d5dbd76ac5c7d8b05d00d8880f369b488cc4d",
          "transactionIndex": "0x40",
          "logIndex": "0x124",
          "removed": false
        },
        {
          "address": "0x1a44076050125825900e736c501f859c50fe728c",
          "topics": [
            "0x1ab700d4ced0c005b164c0f789fd09fcbb0156d4c2041b8a3bfbcd961cd1567f"
          ],
          "data": "0x000000000000000000000000000000000000000000000000000000000000006000000000000000000000000000000000000000000000000000000000000001800000000000000000000000009f8c645f2d0b2159767bd6e0839de4be49e823de00000000000000000000000000000000000000000000000000000000000000f90100000000000002830000759600000000000000000000000064445f0aecc51e94ad52d8ac56b7190e764e561a0000762f000000000000000000000000d86fbbd0c8715d2c1f40e451e5c3514e65e7576a1e8e481aaccaff1db7ebaa9d865881d85f5e99c3d890fe08351825865645b5710000000000000000000000002a2019b30c157db6c1c01306b8025167dbe1803b000000000000000a000000000000000000000000452420df4ac1e3db5429b5fd629f3047482c543c00000000000000000000000045dce8e4f2dc005a5f28206a46cb034697eeda8e000000000000000000000000000000000000000000000000000000000000767000000000000000000000000000000000000000000000000000000000000000000000000000002c0003010011010000000000000000000000000003d090010013030000000000000000000000000000000f42400000000000000000000000000000000000000000",
          "blockHash": "0xd69703088d17b9ec1d14f08225b29f421cf3ae5a8cd11ee46019e10178535dc4",
          "blockNumber": "0x5d6d354",
          "blockTimestamp": "0x6a03dde2",
          "transactionHash": "0x1bbc77543f5a681c62775bfcff3d5dbd76ac5c7d8b05d00d8880f369b488cc4d",
          "transactionIndex": "0x40",
          "logIndex": "0x125",
          "removed": false
        },
        {
          "address": "0x64445f0aecc51e94ad52d8ac56b7190e764e561a",
          "topics": [
            "0x85496b760a4b7f8d66384b9df21b381f5d1b1e79f229a47aaf4c232edc2fe59a",
            "0x1e8e481aaccaff1db7ebaa9d865881d85f5e99c3d890fe08351825865645b571",
            "0x000000000000000000000000452420df4ac1e3db5429b5fd629f3047482c543c"
          ],
          "data": "0x000000000000000000000000000000000000000000000000000000000000762f000000000000000000000000000000000000000000000000000009184e72a000000000000000000000000000000000000000000000000000000009184e72a000",
          "blockHash": "0xd69703088d17b9ec1d14f08225b29f421cf3ae5a8cd11ee46019e10178535dc4",
          "blockNumber": "0x5d6d354",
          "blockTimestamp": "0x6a03dde2",
          "transactionHash": "0x1bbc77543f5a681c62775bfcff3d5dbd76ac5c7d8b05d00d8880f369b488cc4d",
          "transactionIndex": "0x40",
          "logIndex": "0x126",
          "removed": false
        },
        {
          "address": "0x452420df4ac1e3db5429b5fd629f3047482c543c",
          "topics": [
            "0xbc9ee36b6ca0bdd5b3840e6d329dd19a2490d880c7ce24d9818aa593adfb35be",
            "0x00000000000000000000000045dce8e4f2dc005a5f28206a46cb034697eeda8e",
            "0x0000000000000000000000000000000000000000000000000000000000007670",
            "0x00000000000000000000000045dce8e4f2dc005a5f28206a46cb034697eeda8e"
          ],
          "data": "0x00000000000000000000000064445f0aecc51e94ad52d8ac56b7190e764e561a000000000000000000000000000000000000000000000000000009184e72a000",
          "blockHash": "0xd69703088d17b9ec1d14f08225b29f421cf3ae5a8cd11ee46019e10178535dc4",
          "blockNumber": "0x5d6d354",
          "blockTimestamp": "0x6a03dde2",
          "transactionHash": "0x1bbc77543f5a681c62775bfcff3d5dbd76ac5c7d8b05d00d8880f369b488cc4d",
          "transactionIndex": "0x40",
          "logIndex": "0x127",
          "removed": false
        }
      ],
      "logsBloom": "0x0000000000000010000000020000004000000000000000000000000000100000000000100000000000000000000000000000000000000000000004000020000040200200000000000000000800000000000000020000000000000000040000000000000002000000800000000800080000000000001010000000001000000100000000000000004000000008000000000000000400000000000000000000000002000010800000002010000c000000000000000000400000000444000000000000080002000000000000008080000000001000000000000000000000000020000010040000000000000000000000806800000008018000000000000000000002",
      "type": "0x2",
      "transactionHash": "0x1bbc77543f5a681c62775bfcff3d5dbd76ac5c7d8b05d00d8880f369b488cc4d",
      "transactionIndex": "0x40",
      "blockHash": "0xd69703088d17b9ec1d14f08225b29f421cf3ae5a8cd11ee46019e10178535dc4",
      "blockNumber": "0x5d6d354",
      "gasUsed": "0x9349b",
      "effectiveGasPrice": "0x2faf080",
      "from": "0x45dce8e4f2dc005a5f28206a46cb034697eeda8e",
      "to": "0x452420df4ac1e3db5429b5fd629f3047482c543c",
      "contractAddress": null
    },
    {
      "status": "0x1",
      "cumulativeGasUsed": "0xb2d3e3",
      "logs": [
        {
          "address": "0x90581eca9469d8d7f5d3b60f4715027adfcf7927",
          "topics": [
            "0x8c5be1e5ebec7d5bd14f71427d1e84f3dd0314c0f7b2291e5b200ac8c7c3b925",
            "0x00000000000000000000000045dce8e4f2dc005a5f28206a46cb034697eeda8e",
            "0x000000000000000000000000452420df4ac1e3db5429b5fd629f3047482c543c"
          ],
          "data": "0x000000000000000000000000000000000000000000000000000009184e72a000",
          "blockHash": "0xd69703088d17b9ec1d14f08225b29f421cf3ae5a8cd11ee46019e10178535dc4",
          "blockNumber": "0x5d6d354",
          "blockTimestamp": "0x6a03dde2",
          "transactionHash": "0x026a93c3bdabcf4cf179f50fca151e9cf7c10d3f0853d049598a5b901702fe36",
          "transactionIndex": "0x41",
          "logIndex": "0x128",
          "removed": false
        }
      ],
      "logsBloom": "0x00000000000000000000000200000000000000000000000000000000000000000000000000000000000000000000000000000000000000000000000000200000000000000000000000000000000000000000000200000000000000000000000000000000000000000000000008000000000000000000000000000000000000000000000000000004000010000000000000000000000000000000000000000000020000000000000000000000000000000000000000000000000000000000000000000000000000000000008000000000001000000000000000000000000000000010000000000000000000000000800000400000000000000000000000000000",
      "type": "0x2",
      "transactionHash": "0x026a93c3bdabcf4cf179f50fca151e9cf7c10d3f0853d049598a5b901702fe36",
      "transactionIndex": "0x41",
      "blockHash": "0xd69703088d17b9ec1d14f08225b29f421cf3ae5a8cd11ee46019e10178535dc4",
      "blockNumber": "0x5d6d354",
      "gasUsed": "0xd1b2",
      "effectiveGasPrice": "0x2faf080",
      "from": "0x45dce8e4f2dc005a5f28206a46cb034697eeda8e",
      "to": "0x90581eca9469d8d7f5d3b60f4715027adfcf7927",
      "contractAddress": null
    },
    {
      "status": "0x1",
      "cumulativeGasUsed": "0xbc8e2c",
      "logs": [
        {
          "address": "0x90581eca9469d8d7f5d3b60f4715027adfcf7927",
          "topics": [
            "0x8c5be1e5ebec7d5bd14f71427d1e84f3dd0314c0f7b2291e5b200ac8c7c3b925",
            "0x00000000000000000000000045dce8e4f2dc005a5f28206a46cb034697eeda8e",
            "0x000000000000000000000000452420df4ac1e3db5429b5fd629f3047482c543c"
          ],
          "data": "0x0000000000000000000000000000000000000000000000000000000000000000",
          "blockHash": "0xd69703088d17b9ec1d14f08225b29f421cf3ae5a8cd11ee46019e10178535dc4",
          "blockNumber": "0x5d6d354",
          "blockTimestamp": "0x6a03dde2",
          "transactionHash": "0xa63d371ecdfd2bcfe0ecc76d05954dd692a95586f75456a4bc2bb896a408f4f7",
          "transactionIndex": "0x42",
          "logIndex": "0x129",
          "removed": false
        },
        {
          "address": "0x90581eca9469d8d7f5d3b60f4715027adfcf7927",
          "topics": [
            "0xddf252ad1be2c89b69c2b068fc378daa952ba7f163c4a11628f55a4df523b3ef",
            "0x00000000000000000000000045dce8e4f2dc005a5f28206a46cb034697eeda8e",
            "0x000000000000000000000000452420df4ac1e3db5429b5fd629f3047482c543c"
          ],
          "data": "0x000000000000000000000000000000000000000000000000000009184e72a000",
          "blockHash": "0xd69703088d17b9ec1d14f08225b29f421cf3ae5a8cd11ee46019e10178535dc4",
          "blockNumber": "0x5d6d354",
          "blockTimestamp": "0x6a03dde2",
          "transactionHash": "0xa63d371ecdfd2bcfe0ecc76d05954dd692a95586f75456a4bc2bb896a408f4f7",
          "transactionIndex": "0x42",
          "logIndex": "0x12a",
          "removed": false
        },
        {
          "address": "0x90581eca9469d8d7f5d3b60f4715027adfcf7927",
          "topics": [
            "0x8c5be1e5ebec7d5bd14f71427d1e84f3dd0314c0f7b2291e5b200ac8c7c3b925",
            "0x000000000000000000000000452420df4ac1e3db5429b5fd629f3047482c543c",
            "0x00000000000000000000000090581eca9469d8d7f5d3b60f4715027adfcf7927"
          ],
          "data": "0x000000000000000000000000000000000000000000000000000009184e72a000",
          "blockHash": "0xd69703088d17b9ec1d14f08225b29f421cf3ae5a8cd11ee46019e10178535dc4",
          "blockNumber": "0x5d6d354",
          "blockTimestamp": "0x6a03dde2",
          "transactionHash": "0xa63d371ecdfd2bcfe0ecc76d05954dd692a95586f75456a4bc2bb896a408f4f7",
          "transactionIndex": "0x42",
          "logIndex": "0x12b",
          "removed": false
        },
        {
          "address": "0x90581eca9469d8d7f5d3b60f4715027adfcf7927",
          "topics": [
            "0xddf252ad1be2c89b69c2b068fc378daa952ba7f163c4a11628f55a4df523b3ef",
            "0x000000000000000000000000452420df4ac1e3db5429b5fd629f3047482c543c",
            "0x0000000000000000000000000000000000000000000000000000000000000000"
          ],
          "data": "0x000000000000000000000000000000000000000000000000000009184e72a000",
          "blockHash": "0xd69703088d17b9ec1d14f08225b29f421cf3ae5a8cd11ee46019e10178535dc4",
          "blockNumber": "0x5d6d354",
          "blockTimestamp": "0x6a03dde2",
          "transactionHash": "0xa63d371ecdfd2bcfe0ecc76d05954dd692a95586f75456a4bc2bb896a408f4f7",
          "transactionIndex": "0x42",
          "logIndex": "0x12c",
          "removed": false
        },
        {
          "address": "0x9f8c645f2d0b2159767bd6e0839de4be49e823de",
          "topics": [
            "0x61ed099e74a97a1d7f8bb0952a88ca8b7b8ebd00c126ea04671f92a81213318a"
          ],
          "data": "0x0000000000000000000000003ebd570ed38b1b3b4bc886999fcf507e9d58485900000000000000000000000000000000000000000000000000001f565c3204c5",
          "blockHash": "0xd69703088d17b9ec1d14f08225b29f421cf3ae5a8cd11ee46019e10178535dc4",
          "blockNumber": "0x5d6d354",
          "blockTimestamp": "0x6a03dde2",
          "transactionHash": "0xa63d371ecdfd2bcfe0ecc76d05954dd692a95586f75456a4bc2bb896a408f4f7",
          "transactionIndex": "0x42",
          "logIndex": "0x12d",
          "removed": false
        },
        {
          "address": "0x9f8c645f2d0b2159767bd6e0839de4be49e823de",
          "topics": [
            "0x07ea52d82345d6e838192107d8fd7123d9c2ec8e916cd0aad13fd2b60db24644"
          ],
          "data": "0x0000000000000000000000000000000000000000000000000000000000000060000000000000000000000000000000000000000000000000000000000000012000000000000000000000000000000000000000000000000000000000000001400000000000000000000000000000000000000000000000000000000000000005000000000000000000000000247624e2143504730aec22912ed41f092498bef200000000000000000000000031f748a368a893bdb5abb67ec95f232507601a73000000000000000000000000d4bf35ce3bfc7f7d7dfc0694a7d4aa8b8c60a38c000000000000000000000000fa9ba83c102283958b997adc8b44ed3a3cdb5dda000000000000000000000000fd6865c841c2d64565562fcc7e05e619a30615f000000000000000000000000000000000000000000000000000000000000000000000000000000000000000000000000000000000000000000000000000000005000000000000000000000000000000000000000000000000000003d3d6110e09000000000000000000000000000000000000000000000000000003839cad2e0c000000000000000000000000000000000000000000000000000004ec9eee9e000000000000000000000000000000000000000000000000000000049c658abe03000000000000000000000000000000000000000000000000000003d3d6110e09",
          "blockHash": "0xd69703088d17b9ec1d14f08225b29f421cf3ae5a8cd11ee46019e10178535dc4",
          "blockNumber": "0x5d6d354",
          "blockTimestamp": "0x6a03dde2",
          "transactionHash": "0xa63d371ecdfd2bcfe0ecc76d05954dd692a95586f75456a4bc2bb896a408f4f7",
          "transactionIndex": "0x42",
          "logIndex": "0x12e",
          "removed": false
        },
        {
          "address": "0x1a44076050125825900e736c501f859c50fe728c",
          "topics": [
            "0x1ab700d4ced0c005b164c0f789fd09fcbb0156d4c2041b8a3bfbcd961cd1567f"
          ],
          "data": "0x000000000000000000000000000000000000000000000000000000000000006000000000000000000000000000000000000000000000000000000000000001800000000000000000000000009f8c645f2d0b2159767bd6e0839de4be49e823de00000000000000000000000000000000000000000000000000000000000000f90100000000000000010000759600000000000000000000000090581eca9469d8d7f5d3b60f4715027adfcf79270000762f00000000000000000000000075c38d46001b0f8108c4136216bd2694982c20fcff949132b44c8c1f1823b7f3008ff50495ddd9f879c47cc847f46f534386ce730000000000000000000000002a2019b30c157db6c1c01306b8025167dbe1803b000000000000000a000000000000000000000000452420df4ac1e3db5429b5fd629f3047482c543c00000000000000000000000045dce8e4f2dc005a5f28206a46cb034697eeda8e000000000000000000000000000000000000000000000000000000000000767000000000000000000000000000000000000000000000000000000000000000000000000000002c0003010011010000000000000000000000000003d090010013030000000000000000000000000000000f42400000000000000000000000000000000000000000",
          "blockHash": "0xd69703088d17b9ec1d14f08225b29f421cf3ae5a8cd11ee46019e10178535dc4",
          "blockNumber": "0x5d6d354",
          "blockTimestamp": "0x6a03dde2",
          "transactionHash": "0xa63d371ecdfd2bcfe0ecc76d05954dd692a95586f75456a4bc2bb896a408f4f7",
          "transactionIndex": "0x42",
          "logIndex": "0x12f",
          "removed": false
        },
        {
          "address": "0x90581eca9469d8d7f5d3b60f4715027adfcf7927",
          "topics": [
            "0x85496b760a4b7f8d66384b9df21b381f5d1b1e79f229a47aaf4c232edc2fe59a",
            "0xff949132b44c8c1f1823b7f3008ff50495ddd9f879c47cc847f46f534386ce73",
            "0x000000000000000000000000452420df4ac1e3db5429b5fd629f3047482c543c"
          ],
          "data": "0x000000000000000000000000000000000000000000000000000000000000762f000000000000000000000000000000000000000000000000000009184e72a000000000000000000000000000000000000000000000000000000009184e72a000",
          "blockHash": "0xd69703088d17b9ec1d14f08225b29f421cf3ae5a8cd11ee46019e10178535dc4",
          "blockNumber": "0x5d6d354",
          "blockTimestamp": "0x6a03dde2",
          "transactionHash": "0xa63d371ecdfd2bcfe0ecc76d05954dd692a95586f75456a4bc2bb896a408f4f7",
          "transactionIndex": "0x42",
          "logIndex": "0x130",
          "removed": false
        },
        {
          "address": "0x452420df4ac1e3db5429b5fd629f3047482c543c",
          "topics": [
            "0xbc9ee36b6ca0bdd5b3840e6d329dd19a2490d880c7ce24d9818aa593adfb35be",
            "0x00000000000000000000000045dce8e4f2dc005a5f28206a46cb034697eeda8e",
            "0x0000000000000000000000000000000000000000000000000000000000007670",
            "0x00000000000000000000000045dce8e4f2dc005a5f28206a46cb034697eeda8e"
          ],
          "data": "0x00000000000000000000000090581eca9469d8d7f5d3b60f4715027adfcf7927000000000000000000000000000000000000000000000000000009184e72a000",
          "blockHash": "0xd69703088d17b9ec1d14f08225b29f421cf3ae5a8cd11ee46019e10178535dc4",
          "blockNumber": "0x5d6d354",
          "blockTimestamp": "0x6a03dde2",
          "transactionHash": "0xa63d371ecdfd2bcfe0ecc76d05954dd692a95586f75456a4bc2bb896a408f4f7",
          "transactionIndex": "0x42",
          "logIndex": "0x131",
          "removed": false
        }
      ],
      "logsBloom": "0x00000000000000100000000200000040000000000000000000000000001000000000001000000000000000000000000000000400000000000000040000200000000002000000000000000008000000000000000200000000000000000408000000000000020000008000000008000800008000010010100000000010000001000000000000000044000010080008000000000004000000000000000000000000020000108000000020100000000000000000000000400000000444000000000000000002000000000000008080000100001000000000000000000000000020000010040000000000000000000000802000400000018000000000000000000000",
      "type": "0x2",
      "transactionHash": "0xa63d371ecdfd2bcfe0ecc76d05954dd692a95586f75456a4bc2bb896a408f4f7",
      "transactionIndex": "0x42",
      "blockHash": "0xd69703088d17b9ec1d14f08225b29f421cf3ae5a8cd11ee46019e10178535dc4",
      "blockNumber": "0x5d6d354",
      "gasUsed": "0x9ba49",
      "effectiveGasPrice": "0x2faf080",
      "from": "0x45dce8e4f2dc005a5f28206a46cb034697eeda8e",
      "to": "0x452420df4ac1e3db5429b5fd629f3047482c543c",
      "contractAddress": null
    }
  ],
  "libraries": [],
  "pending": [],
  "returns": {},
  "timestamp": 1778638308347,
  "chain": 56,
  "commit": "3c1e5d2a"
}