{
  "transactions": [
    {
      "hash": "0x822fc29afe76fb31ca9713bc91d05bdefef0c8cb70375119f47eaef622c46adf",
      "transactionType": "CALL",
      "contractName": null,
      "contractAddress": "0xcacd6fd266af91b8aed52accc382b4e165586e29",
      "function": "approve(address,uint256)",
      "arguments": [
        "0x3ad4dC2319394bB4BE99A0e4aE2AbF7bCEbD648E",
        "10000000000000"
      ],
      "transaction": {
        "from": "0x45dce8e4f2dc005a5f28206a46cb034697eeda8e",
        "to": "0xcacd6fd266af91b8aed52accc382b4e165586e29",
        "gas": "0x114ee",
        "value": "0x0",
        "input": "0x095ea7b30000000000000000000000003ad4dc2319394bb4be99a0e4ae2abf7bcebd648e000000000000000000000000000000000000000000000000000009184e72a000",
        "nonce": "0xdc",
        "chainId": "0x1"
      },
      "additionalContracts": [],
      "isFixedGasLimit": false
    },
    {
      "hash": "0x97821c3e6467b04b630998a5108ce9634fb6e7ddd78f1e262c48645d5b97c39e",
      "transactionType": "CALL",
      "contractName": null,
      "contractAddress": "0x3ad4dc2319394bb4be99a0e4ae2abf7bcebd648e",
      "function": "sendOFT(address,uint32,bytes32,uint256)",
      "arguments": [
        "0x566a6442A5A6e9895B9dCA97cC7879D632c6e4B0",
        "30255",
        "0x00000000000000000000000045dce8e4f2dc005a5f28206a46cb034697eeda8e",
        "10000000000000"
      ],
      "transaction": {
        "from": "0x45dce8e4f2dc005a5f28206a46cb034697eeda8e",
        "to": "0x3ad4dc2319394bb4be99a0e4ae2abf7bcebd648e",
        "gas": "0xc27dc",
        "value": "0xbde8c16a40c",
        "input": "0x3e832c90000000000000000000000000566a6442a5a6e9895b9dca97cc7879d632c6e4b0000000000000000000000000000000000000000000000000000000000000762f00000000000000000000000045dce8e4f2dc005a5f28206a46cb034697eeda8e000000000000000000000000000000000000000000000000000009184e72a000",
        "nonce": "0xdd",
        "chainId": "0x1"
      },
      "additionalContracts": [],
      "isFixedGasLimit": false
    },
    {
      "hash": "0x9e54c68939296ca6be26170aefed414db4a148658741475c9db190ae1861221a",
      "transactionType": "CALL",
      "contractName": null,
      "contractAddress": "0xcf62f905562626cfcdd2261162a51fd02fc9c5b6",
      "function": "approve(address,uint256)",
      "arguments": [
        "0x3ad4dC2319394bB4BE99A0e4aE2AbF7bCEbD648E",
        "10000000000000"
      ],
      "transaction": {
        "from": "0x45dce8e4f2dc005a5f28206a46cb034697eeda8e",
        "to": "0xcf62f905562626cfcdd2261162a51fd02fc9c5b6",
        "gas": "0x12481",
        "value": "0x0",
        "input": "0x095ea7b30000000000000000000000003ad4dc2319394bb4be99a0e4ae2abf7bcebd648e000000000000000000000000000000000000000000000000000009184e72a000",
        "nonce": "0xde",
        "chainId": "0x1"
      },
      "additionalContracts": [],
      "isFixedGasLimit": false
    },
    {
      "hash": "0xbed8c2fb8d5a1c40b18a08e0d03c9d8d72eed0eb5451ca9a35fd42bbf073a989",
      "transactionType": "CALL",
      "contractName": null,
      "contractAddress": "0x3ad4dc2319394bb4be99a0e4ae2abf7bcebd648e",
      "function": "sendOFT(address,uint32,bytes32,uint256)",
      "arguments": [
        "0x7311CEA93ccf5f4F7b789eE31eBA5D9B9290E126",
        "30255",
        "0x00000000000000000000000045dce8e4f2dc005a5f28206a46cb034697eeda8e",
        "10000000000000"
      ],
      "transaction": {
        "from": "0x45dce8e4f2dc005a5f28206a46cb034697eeda8e",
        "to": "0x3ad4dc2319394bb4be99a0e4ae2abf7bcebd648e",
        "gas": "0xbca70",
        "value": "0xbde8c16a40c",
        "input": "0x3e832c900000000000000000000000007311cea93ccf5f4f7b789ee31eba5d9b9290e126000000000000000000000000000000000000000000000000000000000000762f00000000000000000000000045dce8e4f2dc005a5f28206a46cb034697eeda8e000000000000000000000000000000000000000000000000000009184e72a000",
        "nonce": "0xdf",
        "chainId": "0x1"
      },
      "additionalContracts": [],
      "isFixedGasLimit": false
    },
    {
      "hash": "0xbb63093f8dc5414a16e9fb2799821f2967ac7d0d52492ff7fcbc9ae9dbbba295",
      "transactionType": "CALL",
      "contractName": null,
      "contractAddress": "0x5e8422345238f34275888049021821e8e08caa1f",
      "function": "approve(address,uint256)",
      "arguments": [
        "0x3ad4dC2319394bB4BE99A0e4aE2AbF7bCEbD648E",
        "10000000000000"
      ],
      "transaction": {
        "from": "0x45dce8e4f2dc005a5f28206a46cb034697eeda8e",
        "to": "0x5e8422345238f34275888049021821e8e08caa1f",
        "gas": "0xf9c8",
        "value": "0x0",
        "input": "0x095ea7b30000000000000000000000003ad4dc2319394bb4be99a0e4ae2abf7bcebd648e000000000000000000000000000000000000000000000000000009184e72a000",
        "nonce": "0xe0",
        "chainId": "0x1"
      },
      "additionalContracts": [],
      "isFixedGasLimit": false
    },
    {
      "hash": "0x4f4098c06c73569aa854ad8d2ca1bccda8b7ee0782c8b8dca9eb9ad185fc9932",
      "transactionType": "CALL",
      "contractName": null,
      "contractAddress": "0x3ad4dc2319394bb4be99a0e4ae2abf7bcebd648e",
      "function": "sendOFT(address,uint32,bytes32,uint256)",
      "arguments": [
        "0x1c1649A38f4A3c5A0c4a24070f688C525AB7D6E6",
        "30255",
        "0x00000000000000000000000045dce8e4f2dc005a5f28206a46cb034697eeda8e",
        "10000000000000"
      ],
      "transaction": {
        "from": "0x45dce8e4f2dc005a5f28206a46cb034697eeda8e",
        "to": "0x3ad4dc2319394bb4be99a0e4ae2abf7bcebd648e",
        "gas": "0xb5df2",
        "value": "0xbde8c16a40c",
        "input": "0x3e832c900000000000000000000000001c1649a38f4a3c5a0c4a24070f688c525ab7d6e6000000000000000000000000000000000000000000000000000000000000762f00000000000000000000000045dce8e4f2dc005a5f28206a46cb034697eeda8e000000000000000000000000000000000000000000000000000009184e72a000",
        "nonce": "0xe1",
        "chainId": "0x1"
      },
      "additionalContracts": [],
      "isFixedGasLimit": false
    },
    {
      "hash": "0x798e9ae0d98d60d0b34af56de5968658b89b957843e8ee81cc7aacef38bdf5bc",
      "transactionType": "CALL",
      "contractName": null,
      "contractAddress": "0xac3e018457b222d93114458476f3e3416abbe38f",
      "function": "approve(address,uint256)",
      "arguments": [
        "0x3ad4dC2319394bB4BE99A0e4aE2AbF7bCEbD648E",
        "10000000000000"
      ],
      "transaction": {
        "from": "0x45dce8e4f2dc005a5f28206a46cb034697eeda8e",
        "to": "0xac3e018457b222d93114458476f3e3416abbe38f",
        "gas": "0x1081f",
        "value": "0x0",
        "input": "0x095ea7b30000000000000000000000003ad4dc2319394bb4be99a0e4ae2abf7bcebd648e000000000000000000000000000000000000000000000000000009184e72a000",
        "nonce": "0xe2",
        "chainId": "0x1"
      },
      "additionalContracts": [],
      "isFixedGasLimit": false
    },
    {
      "hash": "0x3d7ffb0fd6fa37fa6b344bfb9fb2005df4e962163c7fbb124889cbed4ad9e582",
      "transactionType": "CALL",
      "contractName": null,
      "contractAddress": "0x3ad4dc2319394bb4be99a0e4ae2abf7bcebd648e",
      "function": "sendOFT(address,uint32,bytes32,uint256)",
      "arguments": [
        "0xbBc424e58ED38dd911309611ae2d7A23014Bd960",
        "30255",
        "0x00000000000000000000000045dce8e4f2dc005a5f28206a46cb034697eeda8e",
        "10000000000000"
      ],
      "transaction": {
        "from": "0x45dce8e4f2dc005a5f28206a46cb034697eeda8e",
        "to": "0x3ad4dc2319394bb4be99a0e4ae2abf7bcebd648e",
        "gas": "0xbf175",
        "value": "0xbde8c16a40c",
        "input": "0x3e832c90000000000000000000000000bbc424e58ed38dd911309611ae2d7a23014bd960000000000000000000000000000000000000000000000000000000000000762f00000000000000000000000045dce8e4f2dc005a5f28206a46cb034697eeda8e000000000000000000000000000000000000000000000000000009184e72a000",
        "nonce": "0xe3",
        "chainId": "0x1"
      },
      "additionalContracts": [],
      "isFixedGasLimit": false
    },
    {
      "hash": "0xeea6ed7d09bd10084d209eaa8c70611aec488d5751463c75361f2ee063260cbb",
      "transactionType": "CALL",
      "contractName": null,
      "contractAddress": "0x04acaf8d2865c0714f79da09645c13fd2888977f",
      "function": "approve(address,uint256)",
      "arguments": [
        "0x3ad4dC2319394bB4BE99A0e4aE2AbF7bCEbD648E",
        "10000000000000"
      ],
      "transaction": {
        "from": "0x45dce8e4f2dc005a5f28206a46cb034697eeda8e",
        "to": "0x04acaf8d2865c0714f79da09645c13fd2888977f",
        "gas": "0x12184",
        "value": "0x0",
        "input": "0x095ea7b30000000000000000000000003ad4dc2319394bb4be99a0e4ae2abf7bcebd648e000000000000000000000000000000000000000000000000000009184e72a000",
        "nonce": "0xe4",
        "chainId": "0x1"
      },
      "additionalContracts": [],
      "isFixedGasLimit": false
    },
    {
      "hash": "0x882f6ddc06fbdb9a25fd9906563e2ea285c0ea98edcbe757ee3b0971f2d8fae1",
      "transactionType": "CALL",
      "contractName": null,
      "contractAddress": "0x3ad4dc2319394bb4be99a0e4ae2abf7bcebd648e",
      "function": "sendOFT(address,uint32,bytes32,uint256)",
      "arguments": [
        "0x04ACaF8D2865c0714F79da09645C13FD2888977f",
        "30255",
        "0x00000000000000000000000045dce8e4f2dc005a5f28206a46cb034697eeda8e",
        "10000000000000"
      ],
      "transaction": {
        "from": "0x45dce8e4f2dc005a5f28206a46cb034697eeda8e",
        "to": "0x3ad4dc2319394bb4be99a0e4ae2abf7bcebd648e",
        "gas": "0xbf9a2",
        "value": "0xbde8c16a40c",
        "input": "0x3e832c9000000000000000000000000004acaf8d2865c0714f79da09645c13fd2888977f000000000000000000000000000000000000000000000000000000000000762f00000000000000000000000045dce8e4f2dc005a5f28206a46cb034697eeda8e000000000000000000000000000000000000000000000000000009184e72a000",
        "nonce": "0xe5",
        "chainId": "0x1"
      },
      "additionalContracts": [],
      "isFixedGasLimit": false
    },
    {
      "hash": "0x022078a941a8ac56ed665f8e7d227920c294f9c2eb7952011087f57a66a94390",
      "transactionType": "CALL",
      "contractName": null,
      "contractAddress": "0x5ca135cb8527d76e932f34b5145575f9d8cbe08e",
      "function": "approve(address,uint256)",
      "arguments": [
        "0x3ad4dC2319394bB4BE99A0e4aE2AbF7bCEbD648E",
        "10000000000000"
      ],
      "transaction": {
        "from": "0x45dce8e4f2dc005a5f28206a46cb034697eeda8e",
        "to": "0x5ca135cb8527d76e932f34b5145575f9d8cbe08e",
        "gas": "0x1082d",
        "value": "0x0",
        "input": "0x095ea7b30000000000000000000000003ad4dc2319394bb4be99a0e4ae2abf7bcebd648e000000000000000000000000000000000000000000000000000009184e72a000",
        "nonce": "0xe6",
        "chainId": "0x1"
      },
      "additionalContracts": [],
      "isFixedGasLimit": false
    },
    {
      "hash": "0xd1c857c2fae081e478a8947574944133fd57dfab3020704b931676070b85062a",
      "transactionType": "CALL",
      "contractName": null,
      "contractAddress": "0x3ad4dc2319394bb4be99a0e4ae2abf7bcebd648e",
      "function": "sendOFT(address,uint32,bytes32,uint256)",
      "arguments": [
        "0x9033BAD7aA130a2466060A2dA71fAe2219781B4b",
        "30255",
        "0x00000000000000000000000045dce8e4f2dc005a5f28206a46cb034697eeda8e",
        "10000000000000"
      ],
      "transaction": {
        "from": "0x45dce8e4f2dc005a5f28206a46cb034697eeda8e",
        "to": "0x3ad4dc2319394bb4be99a0e4ae2abf7bcebd648e",
        "gas": "0xc648b",
        "value": "0xbde8c16a40c",
        "input": "0x3e832c900000000000000000000000009033bad7aa130a2466060a2da71fae2219781b4b000000000000000000000000000000000000000000000000000000000000762f00000000000000000000000045dce8e4f2dc005a5f28206a46cb034697eeda8e000000000000000000000000000000000000000000000000000009184e72a000",
        "nonce": "0xe7",
        "chainId": "0x1"
      },
      "additionalContracts": [],
      "isFixedGasLimit": false
    }
  ],
  "receipts": [
    {
      "status": "0x1",
      "cumulativeGasUsed": "0x259e12e",
      "logs": [
        {
          "address": "0xcacd6fd266af91b8aed52accc382b4e165586e29",
          "topics": [
            "0x8c5be1e5ebec7d5bd14f71427d1e84f3dd0314c0f7b2291e5b200ac8c7c3b925",
            "0x00000000000000000000000045dce8e4f2dc005a5f28206a46cb034697eeda8e",
            "0x0000000000000000000000003ad4dc2319394bb4be99a0e4ae2abf7bcebd648e"
          ],
          "data": "0x000000000000000000000000000000000000000000000000000009184e72a000",
          "blockHash": "0x2de570d4a6353bd7c11b364548e1c42360b52692ea394dcc1ac73baa4e2e1dd8",
          "blockNumber": "0x17ec412",
          "blockTimestamp": "0x6a043297",
          "transactionHash": "0x97821c3e6467b04b630998a5108ce9634fb6e7ddd78f1e262c48645d5b97c39e",
          "transactionIndex": "0x121",
          "logIndex": "0x264",
          "removed": false
        }
      ],
      "logsBloom": "0x00000000000000000004100200000000000000000000000000000000000000000000000000000000000000000000000000000000000000000000000000200000000000000000000000000000000000000000000000000000000000000000000000000000000000000000000000000000000000000000000000000000000000000000000000000000000000000000000000000000000000000000000000000000020000000000000000000000000000000000000000000000000008000000020000000000000000000000000000000000001000000000000000000000001000008010000000000000000000000000800000000000000000000000000000000000",
      "type": "0x2",
      "transactionHash": "0x97821c3e6467b04b630998a5108ce9634fb6e7ddd78f1e262c48645d5b97c39e",
      "transactionIndex": "0x121",
      "blockHash": "0x2de570d4a6353bd7c11b364548e1c42360b52692ea394dcc1ac73baa4e2e1dd8",
      "blockNumber": "0x17ec412",
      "gasUsed": "0xc87f",
      "effectiveGasPrice": "0x5fb1e5d",
      "from": "0x45dce8e4f2dc005a5f28206a46cb034697eeda8e",
      "to": "0xcacd6fd266af91b8aed52accc382b4e165586e29",
      "contractAddress": null
    },
    {
      "status": "0x1",
      "cumulativeGasUsed": "0xc1ba47",
      "logs": [
        {
          "address": "0xcacd6fd266af91b8aed52accc382b4e165586e29",
          "topics": [
            "0xddf252ad1be2c89b69c2b068fc378daa952ba7f163c4a11628f55a4df523b3ef",
            "0x00000000000000000000000045dce8e4f2dc005a5f28206a46cb034697eeda8e",
            "0x0000000000000000000000003ad4dc2319394bb4be99a0e4ae2abf7bcebd648e"
          ],
          "data": "0x000000000000000000000000000000000000000000000000000009184e72a000",
          "blockHash": "0x3302a1f590f31dee2e0ec3dfc29fd8da9ab20fb838a28908fd46a3a6d2b41ea5",
          "blockNumber": "0x17ec413",
          "blockTimestamp": "0x6a0432a3",
          "transactionHash": "0xbb63093f8dc5414a16e9fb2799821f2967ac7d0d52492ff7fcbc9ae9dbbba295",
          "transactionIndex": "0xa5",
          "logIndex": "0x115",
          "removed": false
        },
        {
          "address": "0xcacd6fd266af91b8aed52accc382b4e165586e29",
          "topics": [
            "0x8c5be1e5ebec7d5bd14f71427d1e84f3dd0314c0f7b2291e5b200ac8c7c3b925",
            "0x0000000000000000000000003ad4dc2319394bb4be99a0e4ae2abf7bcebd648e",
            "0x000000000000000000000000566a6442a5a6e9895b9dca97cc7879d632c6e4b0"
          ],
          "data": "0x000000000000000000000000000000000000000000000000000009184e72a000",
          "blockHash": "0x3302a1f590f31dee2e0ec3dfc29fd8da9ab20fb838a28908fd46a3a6d2b41ea5",
          "blockNumber": "0x17ec413",
          "blockTimestamp": "0x6a0432a3",
          "transactionHash": "0xbb63093f8dc5414a16e9fb2799821f2967ac7d0d52492ff7fcbc9ae9dbbba295",
          "transactionIndex": "0xa5",
          "logIndex": "0x116",
          "removed": false
        },
        {
          "address": "0x566a6442a5a6e9895b9dca97cc7879d632c6e4b0",
          "topics": [
            "0x603e191ccb1fad1c0004c9c1f37101358f84c3cf059031e9ec9b0c17cad34188",
            "0x000000000000000000000000000000000000000000000000000000000000762f"
          ],
          "data": "0x000000000000000000000000000000000000000000641d8118d188445f9c4000000000000000000000000000000000000000000000000000000009184e72a000",
          "blockHash": "0x3302a1f590f31dee2e0ec3dfc29fd8da9ab20fb838a28908fd46a3a6d2b41ea5",
          "blockNumber": "0x17ec413",
          "blockTimestamp": "0x6a0432a3",
          "transactionHash": "0xbb63093f8dc5414a16e9fb2799821f2967ac7d0d52492ff7fcbc9ae9dbbba295",
          "transactionIndex": "0xa5",
          "logIndex": "0x117",
          "removed": false
        },
        {
          "address": "0x566a6442a5a6e9895b9dca97cc7879d632c6e4b0",
          "topics": [
            "0xd2ff7607bbad14e866630d67da40c9a9cedd964cce5ce4c3dc4176133954ef98"
          ],
          "data": "0x000000000000000000000000000000000000000000642f2a73f2950663d89000000000000000000000000000000000000000000000000000000009184e72a000",
          "blockHash": "0x3302a1f590f31dee2e0ec3dfc29fd8da9ab20fb838a28908fd46a3a6d2b41ea5",
          "blockNumber": "0x17ec413",
          "blockTimestamp": "0x6a0432a3",
          "transactionHash": "0xbb63093f8dc5414a16e9fb2799821f2967ac7d0d52492ff7fcbc9ae9dbbba295",
          "transactionIndex": "0xa5",
          "logIndex": "0x118",
          "removed": false
        },
        {
          "address": "0xcacd6fd266af91b8aed52accc382b4e165586e29",
          "topics": [
            "0xddf252ad1be2c89b69c2b068fc378daa952ba7f163c4a11628f55a4df523b3ef",
            "0x0000000000000000000000003ad4dc2319394bb4be99a0e4ae2abf7bcebd648e",
            "0x0000000000000000000000000000000000000000000000000000000000000000"
          ],
          "data": "0x000000000000000000000000000000000000000000000000000009184e72a000",
          "blockHash": "0x3302a1f590f31dee2e0ec3dfc29fd8da9ab20fb838a28908fd46a3a6d2b41ea5",
          "blockNumber": "0x17ec413",
          "blockTimestamp": "0x6a0432a3",
          "transactionHash": "0xbb63093f8dc5414a16e9fb2799821f2967ac7d0d52492ff7fcbc9ae9dbbba295",
          "transactionIndex": "0xa5",
          "logIndex": "0x119",
          "removed": false
        },
        {
          "address": "0xcacd6fd266af91b8aed52accc382b4e165586e29",
          "topics": [
            "0xdc7fd22bc401e7c6b9be2c2736286a2a42ea0c6307bc97ff0fb12bd0abd2c747",
            "0x0000000000000000000000003ad4dc2319394bb4be99a0e4ae2abf7bcebd648e",
            "0x000000000000000000000000566a6442a5a6e9895b9dca97cc7879d632c6e4b0"
          ],
          "data": "0x000000000000000000000000000000000000000000000000000009184e72a000",
          "blockHash": "0x3302a1f590f31dee2e0ec3dfc29fd8da9ab20fb838a28908fd46a3a6d2b41ea5",
          "blockNumber": "0x17ec413",
          "blockTimestamp": "0x6a0432a3",
          "transactionHash": "0xbb63093f8dc5414a16e9fb2799821f2967ac7d0d52492ff7fcbc9ae9dbbba295",
          "transactionIndex": "0xa5",
          "logIndex": "0x11a",
          "removed": false
        },
        {
          "address": "0xbb2ea70c9e858123480642cf96acbcce1372dce1",
          "topics": [
            "0x61ed099e74a97a1d7f8bb0952a88ca8b7b8ebd00c126ea04671f92a81213318a"
          ],
          "data": "0x000000000000000000000000173272739bd7aa6e4e214714048a9fe6994530590000000000000000000000000000000000000000000000000000081385578d61",
          "blockHash": "0x3302a1f590f31dee2e0ec3dfc29fd8da9ab20fb838a28908fd46a3a6d2b41ea5",
          "blockNumber": "0x17ec413",
          "blockTimestamp": "0x6a0432a3",
          "transactionHash": "0xbb63093f8dc5414a16e9fb2799821f2967ac7d0d52492ff7fcbc9ae9dbbba295",
          "transactionIndex": "0xa5",
          "logIndex": "0x11b",
          "removed": false
        },
        {
          "address": "0xbb2ea70c9e858123480642cf96acbcce1372dce1",
          "topics": [
            "0x07ea52d82345d6e838192107d8fd7123d9c2ec8e916cd0aad13fd2b60db24644"
          ],
          "data": "0x0000000000000000000000000000000000000000000000000000000000000060000000000000000000000000000000000000000000000000000000000000012000000000000000000000000000000000000000000000000000000000000001400000000000000000000000000000000000000000000000000000000000000005000000000000000000000000380275805876ff19055ea900cdb2b46a94ecf20d00000000000000000000000038654142f5e672ae86a1b21523aafc765e6a1e08000000000000000000000000589dedbd617e0cbcb916a9223f4d1300c294236b000000000000000000000000a4fe5a5b9a846458a70cd0748228aed3bf65c2cd000000000000000000000000a59ba433ac34d2927232918ef5b2eaafcf130ba500000000000000000000000000000000000000000000000000000000000000000000000000000000000000000000000000000000000000000000000000000005000000000000000000000000000000000000000000000000000000b382154561000000000000000000000000000000000000000000000000000000e6f2b6fc07000000000000000000000000000000000000000000000000000000b382154561000000000000000000000000000000000000000000000000000000d8403fa344000000000000000000000000000000000000000000000000000000a4cf9dec9e",
          "blockHash": "0x3302a1f590f31dee2e0ec3dfc29fd8da9ab20fb838a28908fd46a3a6d2b41ea5",
          "blockNumber": "0x17ec413",
          "blockTimestamp": "0x6a0432a3",
          "transactionHash": "0xbb63093f8dc5414a16e9fb2799821f2967ac7d0d52492ff7fcbc9ae9dbbba295",
          "transactionIndex": "0xa5",
          "logIndex": "0x11c",
          "removed": false
        },
        {
          "address": "0x1a44076050125825900e736c501f859c50fe728c",
          "topics": [
            "0x1ab700d4ced0c005b164c0f789fd09fcbb0156d4c2041b8a3bfbcd961cd1567f"
          ],
          "data": "0x00000000000000000000000000000000000000000000000000000000000000600000000000000000000000000000000000000000000000000000000000000120000000000000000000000000bb2ea70c9e858123480642cf96acbcce1372dce10000000000000000000000000000000000000000000000000000000000000099010000000000000fce00007595000000000000000000000000566a6442a5a6e9895b9dca97cc7879d632c6e4b00000762f00000000000000000000000096a394058e2b84a89bac9667b19661ed003cf5d4f3dd36cd271d750ac996e51d0c4027d8616b8ed6f899ed3e7f3eeb988a66497c00000000000000000000000045dce8e4f2dc005a5f28206a46cb034697eeda8e000000000000000a00000000000000000000000000000000000000000000000000000000000000000000000000001600030100110100000000000000000000000000030d4000000000000000000000",
          "blockHash": "0x3302a1f590f31dee2e0ec3dfc29fd8da9ab20fb838a28908fd46a3a6d2b41ea5",
          "blockNumber": "0x17ec413",
          "blockTimestamp": "0x6a0432a3",
          "transactionHash": "0xbb63093f8dc5414a16e9fb2799821f2967ac7d0d52492ff7fcbc9ae9dbbba295",
          "transactionIndex": "0xa5",
          "logIndex": "0x11d",
          "removed": false
        },
        {
          "address": "0x566a6442a5a6e9895b9dca97cc7879d632c6e4b0",
          "topics": [
            "0x85496b760a4b7f8d66384b9df21b381f5d1b1e79f229a47aaf4c232edc2fe59a",
            "0xf3dd36cd271d750ac996e51d0c4027d8616b8ed6f899ed3e7f3eeb988a66497c",
            "0x0000000000000000000000003ad4dc2319394bb4be99a0e4ae2abf7bcebd648e"
          ],
          "data": "0x000000000000000000000000000000000000000000000000000000000000762f000000000000000000000000000000000000000000000000000009184e72a000000000000000000000000000000000000000000000000000000009184e72a000",
          "blockHash": "0x3302a1f590f31dee2e0ec3dfc29fd8da9ab20fb838a28908fd46a3a6d2b41ea5",
          "blockNumber": "0x17ec413",
          "blockTimestamp": "0x6a0432a3",
          "transactionHash": "0xbb63093f8dc5414a16e9fb2799821f2967ac7d0d52492ff7fcbc9ae9dbbba295",
          "transactionIndex": "0xa5",
          "logIndex": "0x11e",
          "removed": false
        },
        {
          "address": "0x3ad4dc2319394bb4be99a0e4ae2abf7bcebd648e",
          "topics": [
            "0xbc9ee36b6ca0bdd5b3840e6d329dd19a2490d880c7ce24d9818aa593adfb35be",
            "0x00000000000000000000000045dce8e4f2dc005a5f28206a46cb034697eeda8e",
            "0x000000000000000000000000000000000000000000000000000000000000762f",
            "0x00000000000000000000000045dce8e4f2dc005a5f28206a46cb034697eeda8e"
          ],
          "data": "0x000000000000000000000000566a6442a5a6e9895b9dca97cc7879d632c6e4b0000000000000000000000000000000000000000000000000000009184e72a000",
          "blockHash": "0x3302a1f590f31dee2e0ec3dfc29fd8da9ab20fb838a28908fd46a3a6d2b41ea5",
          "blockNumber": "0x17ec413",
          "blockTimestamp": "0x6a0432a3",
          "transactionHash": "0xbb63093f8dc5414a16e9fb2799821f2967ac7d0d52492ff7fcbc9ae9dbbba295",
          "transactionIndex": "0xa5",
          "logIndex": "0x11f",
          "removed": false
        }
      ],
      "logsBloom": "0x0000400000000400002410020000000000000000000000001200000000100000040000002000000000000000000000000000020000000000008000000020000080000200000000000000000800100000000020000000000000000000000000000000000002000000c0000000000008000000000000101000000000100000000000000000000108000030000800000000000002000000002000000000000000000200001080000000201000000000000000000004004000000044480000000200000000020000000000000000800000100010000000000c0000000000001020008010040000000000000000000000802000000000018800000000000040000000",
      "type": "0x2",
      "transactionHash": "0xbb63093f8dc5414a16e9fb2799821f2967ac7d0d52492ff7fcbc9ae9dbbba295",
      "transactionIndex": "0xa5",
      "blockHash": "0x3302a1f590f31dee2e0ec3dfc29fd8da9ab20fb838a28908fd46a3a6d2b41ea5",
      "blockNumber": "0x17ec413",
      "gasUsed": "0x8ccef",
      "effectiveGasPrice": "0x639b24a",
      "from": "0x45dce8e4f2dc005a5f28206a46cb034697eeda8e",
      "to": "0x3ad4dc2319394bb4be99a0e4ae2abf7bcebd648e",
      "contractAddress": null
    },
    {
      "status": "0x1",
      "cumulativeGasUsed": "0xc28248",
      "logs": [
        {
          "address": "0xcf62f905562626cfcdd2261162a51fd02fc9c5b6",
          "topics": [
            "0x8c5be1e5ebec7d5bd14f71427d1e84f3dd0314c0f7b2291e5b200ac8c7c3b925",
            "0x00000000000000000000000045dce8e4f2dc005a5f28206a46cb034697eeda8e",
            "0x0000000000000000000000003ad4dc2319394bb4be99a0e4ae2abf7bcebd648e"
          ],
          "data": "0x000000000000000000000000000000000000000000000000000009184e72a000",
          "blockHash": "0x3302a1f590f31dee2e0ec3dfc29fd8da9ab20fb838a28908fd46a3a6d2b41ea5",
          "blockNumber": "0x17ec413",
          "blockTimestamp": "0x6a0432a3",
          "transactionHash": "0x4f4098c06c73569aa854ad8d2ca1bccda8b7ee0782c8b8dca9eb9ad185fc9932",
          "transactionIndex": "0xa6",
          "logIndex": "0x120",
          "removed": false
        }
      ],
      "logsBloom": "0x00000000000000000000100200000000000000000000000000000000000000000000000000000000000000000000000000000000000000000000000000200000000000000000000000000000000000000000000000000000000000000000000000000000000000000000000400000000000000000000000000000000000000000000000000000000000000000000000000000000000000000000000000000100020000000000000000000400000000000000000000000000000000000000000000000000000000000000000000000000001000000000000000000000001000008010000000000000000000000000800000000000000000000000000000000000",
      "type": "0x2",
      "transactionHash": "0x4f4098c06c73569aa854ad8d2ca1bccda8b7ee0782c8b8dca9eb9ad185fc9932",
      "transactionIndex": "0xa6",
      "blockHash": "0x3302a1f590f31dee2e0ec3dfc29fd8da9ab20fb838a28908fd46a3a6d2b41ea5",
      "blockNumber": "0x17ec413",
      "gasUsed": "0xc801",
      "effectiveGasPrice": "0x639b24a",
      "from": "0x45dce8e4f2dc005a5f28206a46cb034697eeda8e",
      "to": "0xcf62f905562626cfcdd2261162a51fd02fc9c5b6",
      "contractAddress": null
    },
    {
      "status": "0x1",
      "cumulativeGasUsed": "0xcb0b94",
      "logs": [
        {
          "address": "0xcf62f905562626cfcdd2261162a51fd02fc9c5b6",
          "topics": [
            "0xddf252ad1be2c89b69c2b068fc378daa952ba7f163c4a11628f55a4df523b3ef",
            "0x00000000000000000000000045dce8e4f2dc005a5f28206a46cb034697eeda8e",
            "0x0000000000000000000000003ad4dc2319394bb4be99a0e4ae2abf7bcebd648e"
          ],
          "data": "0x000000000000000000000000000000000000000000000000000009184e72a000",
          "blockHash": "0x3302a1f590f31dee2e0ec3dfc29fd8da9ab20fb838a28908fd46a3a6d2b41ea5",
          "blockNumber": "0x17ec413",
          "blockTimestamp": "0x6a0432a3",
          "transactionHash": "0x9e54c68939296ca6be26170aefed414db4a148658741475c9db190ae1861221a",
          "transactionIndex": "0xa7",
          "logIndex": "0x121",
          "removed": false
        },
        {
          "address": "0xcf62f905562626cfcdd2261162a51fd02fc9c5b6",
          "topics": [
            "0x8c5be1e5ebec7d5bd14f71427d1e84f3dd0314c0f7b2291e5b200ac8c7c3b925",
            "0x0000000000000000000000003ad4dc2319394bb4be99a0e4ae2abf7bcebd648e",
            "0x0000000000000000000000007311cea93ccf5f4f7b789ee31eba5d9b9290e126"
          ],
          "data": "0x000000000000000000000000000000000000000000000000000009184e72a000",
          "blockHash": "0x3302a1f590f31dee2e0ec3dfc29fd8da9ab20fb838a28908fd46a3a6d2b41ea5",
          "blockNumber": "0x17ec413",
          "blockTimestamp": "0x6a0432a3",
          "transactionHash": "0x9e54c68939296ca6be26170aefed414db4a148658741475c9db190ae1861221a",
          "transactionIndex": "0xa7",
          "logIndex": "0x122",
          "removed": false
        },
        {
          "address": "0x7311cea93ccf5f4f7b789ee31eba5d9b9290e126",
          "topics": [
            "0x603e191ccb1fad1c0004c9c1f37101358f84c3cf059031e9ec9b0c17cad34188",
            "0x000000000000000000000000000000000000000000000000000000000000762f"
          ],
          "data": "0x000000000000000000000000000000000000000000149ac9b4f44159e6b74000000000000000000000000000000000000000000000000000000009184e72a000",
          "blockHash": "0x3302a1f590f31dee2e0ec3dfc29fd8da9ab20fb838a28908fd46a3a6d2b41ea5",
          "blockNumber": "0x17ec413",
          "blockTimestamp": "0x6a0432a3",
          "transactionHash": "0x9e54c68939296ca6be26170aefed414db4a148658741475c9db190ae1861221a",
          "transactionIndex": "0xa7",
          "logIndex": "0x123",
          "removed": false
        },
        {
          "address": "0x7311cea93ccf5f4f7b789ee31eba5d9b9290e126",
          "topics": [
            "0xd2ff7607bbad14e866630d67da40c9a9cedd964cce5ce4c3dc4176133954ef98"
          ],
          "data": "0x00000000000000000000000000000000000000000014b1b4a6d9e5af5cf3b000000000000000000000000000000000000000000000000000000009184e72a000",
          "blockHash": "0x3302a1f590f31dee2e0ec3dfc29fd8da9ab20fb838a28908fd46a3a6d2b41ea5",
          "blockNumber": "0x17ec413",
          "blockTimestamp": "0x6a0432a3",
          "transactionHash": "0x9e54c68939296ca6be26170aefed414db4a148658741475c9db190ae1861221a",
          "transactionIndex": "0xa7",
          "logIndex": "0x124",
          "removed": false
        },
        {
          "address": "0xcf62f905562626cfcdd2261162a51fd02fc9c5b6",
          "topics": [
            "0xddf252ad1be2c89b69c2b068fc378daa952ba7f163c4a11628f55a4df523b3ef",
            "0x0000000000000000000000003ad4dc2319394bb4be99a0e4ae2abf7bcebd648e",
            "0x0000000000000000000000000000000000000000000000000000000000000000"
          ],
          "data": "0x000000000000000000000000000000000000000000000000000009184e72a000",
          "blockHash": "0x3302a1f590f31dee2e0ec3dfc29fd8da9ab20fb838a28908fd46a3a6d2b41ea5",
          "blockNumber": "0x17ec413",
          "blockTimestamp": "0x6a0432a3",
          "transactionHash": "0x9e54c68939296ca6be26170aefed414db4a148658741475c9db190ae1861221a",
          "transactionIndex": "0xa7",
          "logIndex": "0x125",
          "removed": false
        },
        {
          "address": "0xcf62f905562626cfcdd2261162a51fd02fc9c5b6",
          "topics": [
            "0xdc7fd22bc401e7c6b9be2c2736286a2a42ea0c6307bc97ff0fb12bd0abd2c747",
            "0x0000000000000000000000003ad4dc2319394bb4be99a0e4ae2abf7bcebd648e",
            "0x0000000000000000000000007311cea93ccf5f4f7b789ee31eba5d9b9290e126"
          ],
          "data": "0x000000000000000000000000000000000000000000000000000009184e72a000",
          "blockHash": "0x3302a1f590f31dee2e0ec3dfc29fd8da9ab20fb838a28908fd46a3a6d2b41ea5",
          "blockNumber": "0x17ec413",
          "blockTimestamp": "0x6a0432a3",
          "transactionHash": "0x9e54c68939296ca6be26170aefed414db4a148658741475c9db190ae1861221a",
          "transactionIndex": "0xa7",
          "logIndex": "0x126",
          "removed": false
        },
        {
          "address": "0xbb2ea70c9e858123480642cf96acbcce1372dce1",
          "topics": [
            "0x61ed099e74a97a1d7f8bb0952a88ca8b7b8ebd00c126ea04671f92a81213318a"
          ],
          "data": "0x000000000000000000000000173272739bd7aa6e4e214714048a9fe6994530590000000000000000000000000000000000000000000000000000081385578d61",
          "blockHash": "0x3302a1f590f31dee2e0ec3dfc29fd8da9ab20fb838a28908fd46a3a6d2b41ea5",
          "blockNumber": "0x17ec413",
          "blockTimestamp": "0x6a0432a3",
          "transactionHash": "0x9e54c68939296ca6be26170aefed414db4a148658741475c9db190ae1861221a",
          "transactionIndex": "0xa7",
          "logIndex": "0x127",
          "removed": false
        },
        {
          "address": "0xbb2ea70c9e858123480642cf96acbcce1372dce1",
          "topics": [
            "0x07ea52d82345d6e838192107d8fd7123d9c2ec8e916cd0aad13fd2b60db24644"
          ],
          "data": "0x0000000000000000000000000000000000000000000000000000000000000060000000000000000000000000000000000000000000000000000000000000012000000000000000000000000000000000000000000000000000000000000001400000000000000000000000000000000000000000000000000000000000000005000000000000000000000000380275805876ff19055ea900cdb2b46a94ecf20d00000000000000000000000038654142f5e672ae86a1b21523aafc765e6a1e08000000000000000000000000589dedbd617e0cbcb916a9223f4d1300c294236b000000000000000000000000a4fe5a5b9a846458a70cd0748228aed3bf65c2cd000000000000000000000000a59ba433ac34d2927232918ef5b2eaafcf130ba500000000000000000000000000000000000000000000000000000000000000000000000000000000000000000000000000000000000000000000000000000005000000000000000000000000000000000000000000000000000000b382154561000000000000000000000000000000000000000000000000000000e6f2b6fc07000000000000000000000000000000000000000000000000000000b382154561000000000000000000000000000000000000000000000000000000d8403fa344000000000000000000000000000000000000000000000000000000a4cf9dec9e",
          "blockHash": "0x3302a1f590f31dee2e0ec3dfc29fd8da9ab20fb838a28908fd46a3a6d2b41ea5",
          "blockNumber": "0x17ec413",
          "blockTimestamp": "0x6a0432a3",
          "transactionHash": "0x9e54c68939296ca6be26170aefed414db4a148658741475c9db190ae1861221a",
          "transactionIndex": "0xa7",
          "logIndex": "0x128",
          "removed": false
        },
        {
          "address": "0x1a44076050125825900e736c501f859c50fe728c",
          "topics": [
            "0x1ab700d4ced0c005b164c0f789fd09fcbb0156d4c2041b8a3bfbcd961cd1567f"
          ],
          "data": "0x00000000000000000000000000000000000000000000000000000000000000600000000000000000000000000000000000000000000000000000000000000120000000000000000000000000bb2ea70c9e858123480642cf96acbcce1372dce10000000000000000000000000000000000000000000000000000000000000099010000000000000270000075950000000000000000000000007311cea93ccf5f4f7b789ee31eba5d9b9290e1260000762f00000000000000000000000088aa7854d3b2daa5e37e7ce73a1f39669623a3610a285ead87c19b2ad7c54f9d37e8f3bfd4879be18a1206a1ccfa12a9c1d7afb700000000000000000000000045dce8e4f2dc005a5f28206a46cb034697eeda8e000000000000000a00000000000000000000000000000000000000000000000000000000000000000000000000001600030100110100000000000000000000000000030d4000000000000000000000",
          "blockHash": "0x3302a1f590f31dee2e0ec3dfc29fd8da9ab20fb838a28908fd46a3a6d2b41ea5",
          "blockNumber": "0x17ec413",
          "blockTimestamp": "0x6a0432a3",
          "transactionHash": "0x9e54c68939296ca6be26170aefed414db4a148658741475c9db190ae1861221a",
          "transactionIndex": "0xa7",
          "logIndex": "0x129",
          "removed": false
        },
        {
          "address": "0x7311cea93ccf5f4f7b789ee31eba5d9b9290e126",
          "topics": [
            "0x85496b760a4b7f8d66384b9df21b381f5d1b1e79f229a47aaf4c232edc2fe59a",
            "0x0a285ead87c19b2ad7c54f9d37e8f3bfd4879be18a1206a1ccfa12a9c1d7afb7",
            "0x0000000000000000000000003ad4dc2319394bb4be99a0e4ae2abf7bcebd648e"
          ],
          "data": "0x000000000000000000000000000000000000000000000000000000000000762f000000000000000000000000000000000000000000000000000009184e72a000000000000000000000000000000000000000000000000000000009184e72a000",
          "blockHash": "0x3302a1f590f31dee2e0ec3dfc29fd8da9ab20fb838a28908fd46a3a6d2b41ea5",
          "blockNumber": "0x17ec413",
          "blockTimestamp": "0x6a0432a3",
          "transactionHash": "0x9e54c68939296ca6be26170aefed414db4a148658741475c9db190ae1861221a",
          "transactionIndex": "0xa7",
          "logIndex": "0x12a",
          "removed": false
        },
        {
          "address": "0x3ad4dc2319394bb4be99a0e4ae2abf7bcebd648e",
          "topics": [
            "0xbc9ee36b6ca0bdd5b3840e6d329dd19a2490d880c7ce24d9818aa593adfb35be",
            "0x00000000000000000000000045dce8e4f2dc005a5f28206a46cb034697eeda8e",
            "0x000000000000000000000000000000000000000000000000000000000000762f",
            "0x00000000000000000000000045dce8e4f2dc005a5f28206a46cb034697eeda8e"
          ],
          "data": "0x0000000000000000000000007311cea93ccf5f4f7b789ee31eba5d9b9290e126000000000000000000000000000000000000000000000000000009184e72a000",
          "blockHash": "0x3302a1f590f31dee2e0ec3dfc29fd8da9ab20fb838a28908fd46a3a6d2b41ea5",
          "blockNumber": "0x17ec413",
          "blockTimestamp": "0x6a0432a3",
          "transactionHash": "0x9e54c68939296ca6be26170aefed414db4a148658741475c9db190ae1861221a",
          "transactionIndex": "0xa7",
          "logIndex": "0x12b",
          "removed": false
        }
      ],
      "logsBloom": "0x0000400000000000002010020000000000000000020000001000000000100000040000002000400020000000000000000000020000000000000000000020000080000200000000000000000800100000000020000080000000000000000000000000000002000000c000000400000800000000000010100000000010000000000000000000000800003020080000000000000000000000200000000000000100020000108000000020100400000000000000000000402000004440004000010000000002000000000000000080000010001000000000080000000000001020008010040000000000000000000000802000000000018800000000080000000000",
      "type": "0x2",
      "transactionHash": "0x9e54c68939296ca6be26170aefed414db4a148658741475c9db190ae1861221a",
      "transactionIndex": "0xa7",
      "blockHash": "0x3302a1f590f31dee2e0ec3dfc29fd8da9ab20fb838a28908fd46a3a6d2b41ea5",
      "blockNumber": "0x17ec413",
      "gasUsed": "0x8894c",
      "effectiveGasPrice": "0x639b24a",
      "from": "0x45dce8e4f2dc005a5f28206a46cb034697eeda8e",
      "to": "0x3ad4dc2319394bb4be99a0e4ae2abf7bcebd648e",
      "contractAddress": null
    },
    {
      "status": "0x1",
      "cumulativeGasUsed": "0x1c93628",
      "logs": [
        {
          "address": "0x5e8422345238f34275888049021821e8e08caa1f",
          "topics": [
            "0x8c5be1e5ebec7d5bd14f71427d1e84f3dd0314c0f7b2291e5b200ac8c7c3b925",
            "0x00000000000000000000000045dce8e4f2dc005a5f28206a46cb034697eeda8e",
            "0x0000000000000000000000003ad4dc2319394bb4be99a0e4ae2abf7bcebd648e"
          ],
          "data": "0x000000000000000000000000000000000000000000000000000009184e72a000",
          "blockHash": "0x38ca140419f94a7b0881ff117a57da103eb31cd635ec6659b63d55ffbf6c57f2",
          "blockNumber": "0x17ec414",
          "blockTimestamp": "0x6a0432af",
          "transactionHash": "0xbed8c2fb8d5a1c40b18a08e0d03c9d8d72eed0eb5451ca9a35fd42bbf073a989",
          "transactionIndex": "0x172",
          "logIndex": "0x221",
          "removed": false
        }
      ],
      "logsBloom": "0x00000000000000000000100200000000000000000000000040000000000000000000000000000000000000000000000000000000000000000000000000200000000000000000000000000000000000000000000000000000000000000000000000000000000000000000000000000000000000000000000000000000000000000000000000000000000000000000000000000000000000000000000000000000020000000000000000000000000000000000000000000000040000000000000000000000000000000000000000000000001000000000000000000000001000008010000000000000000000000200800000000000000000000000000000000000",
      "type": "0x2",
      "transactionHash": "0xbed8c2fb8d5a1c40b18a08e0d03c9d8d72eed0eb5451ca9a35fd42bbf073a989",
      "transactionIndex": "0x172",
      "blockHash": "0x38ca140419f94a7b0881ff117a57da103eb31cd635ec6659b63d55ffbf6c57f2",
      "blockNumber": "0x17ec414",
      "gasUsed": "0xb4d7",
      "effectiveGasPrice": "0x5fa0e6d",
      "from": "0x45dce8e4f2dc005a5f28206a46cb034697eeda8e",
      "to": "0x5e8422345238f34275888049021821e8e08caa1f",
      "contractAddress": null
    },
    {
      "status": "0x1",
      "cumulativeGasUsed": "0x1d170e8",
      "logs": [
        {
          "address": "0x5e8422345238f34275888049021821e8e08caa1f",
          "topics": [
            "0x8c5be1e5ebec7d5bd14f71427d1e84f3dd0314c0f7b2291e5b200ac8c7c3b925",
            "0x00000000000000000000000045dce8e4f2dc005a5f28206a46cb034697eeda8e",
            "0x0000000000000000000000003ad4dc2319394bb4be99a0e4ae2abf7bcebd648e"
          ],
          "data": "0x0000000000000000000000000000000000000000000000000000000000000000",
          "blockHash": "0x38ca140419f94a7b0881ff117a57da103eb31cd635ec6659b63d55ffbf6c57f2",
          "blockNumber": "0x17ec414",
          "blockTimestamp": "0x6a0432af",
          "transactionHash": "0x822fc29afe76fb31ca9713bc91d05bdefef0c8cb70375119f47eaef622c46adf",
          "transactionIndex": "0x173",
          "logIndex": "0x222",
          "removed": false
        },
        {
          "address": "0x5e8422345238f34275888049021821e8e08caa1f",
          "topics": [
            "0xddf252ad1be2c89b69c2b068fc378daa952ba7f163c4a11628f55a4df523b3ef",
            "0x00000000000000000000000045dce8e4f2dc005a5f28206a46cb034697eeda8e",
            "0x0000000000000000000000003ad4dc2319394bb4be99a0e4ae2abf7bcebd648e"
          ],
          "data": "0x000000000000000000000000000000000000000000000000000009184e72a000",
          "blockHash": "0x38ca140419f94a7b0881ff117a57da103eb31cd635ec6659b63d55ffbf6c57f2",
          "blockNumber": "0x17ec414",
          "blockTimestamp": "0x6a0432af",
          "transactionHash": "0x822fc29afe76fb31ca9713bc91d05bdefef0c8cb70375119f47eaef622c46adf",
          "transactionIndex": "0x173",
          "logIndex": "0x223",
          "removed": false
        },
        {
          "address": "0x5e8422345238f34275888049021821e8e08caa1f",
          "topics": [
            "0x8c5be1e5ebec7d5bd14f71427d1e84f3dd0314c0f7b2291e5b200ac8c7c3b925",
            "0x0000000000000000000000003ad4dc2319394bb4be99a0e4ae2abf7bcebd648e",
            "0x0000000000000000000000001c1649a38f4a3c5a0c4a24070f688c525ab7d6e6"
          ],
          "data": "0x000000000000000000000000000000000000000000000000000009184e72a000",
          "blockHash": "0x38ca140419f94a7b0881ff117a57da103eb31cd635ec6659b63d55ffbf6c57f2",
          "blockNumber": "0x17ec414",
          "blockTimestamp": "0x6a0432af",
          "transactionHash": "0x822fc29afe76fb31ca9713bc91d05bdefef0c8cb70375119f47eaef622c46adf",
          "transactionIndex": "0x173",
          "logIndex": "0x224",
          "removed": false
        },
        {
          "address": "0x5e8422345238f34275888049021821e8e08caa1f",
          "topics": [
            "0x8c5be1e5ebec7d5bd14f71427d1e84f3dd0314c0f7b2291e5b200ac8c7c3b925",
            "0x0000000000000000000000003ad4dc2319394bb4be99a0e4ae2abf7bcebd648e",
            "0x0000000000000000000000001c1649a38f4a3c5a0c4a24070f688c525ab7d6e6"
          ],
          "data": "0x0000000000000000000000000000000000000000000000000000000000000000",
          "blockHash": "0x38ca140419f94a7b0881ff117a57da103eb31cd635ec6659b63d55ffbf6c57f2",
          "blockNumber": "0x17ec414",
          "blockTimestamp": "0x6a0432af",
          "transactionHash": "0x822fc29afe76fb31ca9713bc91d05bdefef0c8cb70375119f47eaef622c46adf",
          "transactionIndex": "0x173",
          "logIndex": "0x225",
          "removed": false
        },
        {
          "address": "0x5e8422345238f34275888049021821e8e08caa1f",
          "topics": [
            "0xddf252ad1be2c89b69c2b068fc378daa952ba7f163c4a11628f55a4df523b3ef",
            "0x0000000000000000000000003ad4dc2319394bb4be99a0e4ae2abf7bcebd648e",
            "0x0000000000000000000000001c1649a38f4a3c5a0c4a24070f688c525ab7d6e6"
          ],
          "data": "0x000000000000000000000000000000000000000000000000000009184e72a000",
          "blockHash": "0x38ca140419f94a7b0881ff117a57da103eb31cd635ec6659b63d55ffbf6c57f2",
          "blockNumber": "0x17ec414",
          "blockTimestamp": "0x6a0432af",
          "transactionHash": "0x822fc29afe76fb31ca9713bc91d05bdefef0c8cb70375119f47eaef622c46adf",
          "transactionIndex": "0x173",
          "logIndex": "0x226",
          "removed": false
        },
        {
          "address": "0xbb2ea70c9e858123480642cf96acbcce1372dce1",
          "topics": [
            "0x61ed099e74a97a1d7f8bb0952a88ca8b7b8ebd00c126ea04671f92a81213318a"
          ],
          "data": "0x000000000000000000000000173272739bd7aa6e4e214714048a9fe6994530590000000000000000000000000000000000000000000000000000081385578d61",
          "blockHash": "0x38ca140419f94a7b0881ff117a57da103eb31cd635ec6659b63d55ffbf6c57f2",
          "blockNumber": "0x17ec414",
          "blockTimestamp": "0x6a0432af",
          "transactionHash": "0x822fc29afe76fb31ca9713bc91d05bdefef0c8cb70375119f47eaef622c46adf",
          "transactionIndex": "0x173",
          "logIndex": "0x227",
          "removed": false
        },
        {
          "address": "0xbb2ea70c9e858123480642cf96acbcce1372dce1",
          "topics": [
            "0x07ea52d82345d6e838192107d8fd7123d9c2ec8e916cd0aad13fd2b60db24644"
          ],
          "data": "0x0000000000000000000000000000000000000000000000000000000000000060000000000000000000000000000000000000000000000000000000000000012000000000000000000000000000000000000000000000000000000000000001400000000000000000000000000000000000000000000000000000000000000005000000000000000000000000380275805876ff19055ea900cdb2b46a94ecf20d00000000000000000000000038654142f5e672ae86a1b21523aafc765e6a1e08000000000000000000000000589dedbd617e0cbcb916a9223f4d1300c294236b000000000000000000000000a4fe5a5b9a846458a70cd0748228aed3bf65c2cd000000000000000000000000a59ba433ac34d2927232918ef5b2eaafcf130ba500000000000000000000000000000000000000000000000000000000000000000000000000000000000000000000000000000000000000000000000000000005000000000000000000000000000000000000000000000000000000b382154561000000000000000000000000000000000000000000000000000000e6f2b6fc07000000000000000000000000000000000000000000000000000000b382154561000000000000000000000000000000000000000000000000000000d8403fa344000000000000000000000000000000000000000000000000000000a4cf9dec9e",
          "blockHash": "0x38ca140419f94a7b0881ff117a57da103eb31cd635ec6659b63d55ffbf6c57f2",
          "blockNumber": "0x17ec414",
          "blockTimestamp": "0x6a0432af",
          "transactionHash": "0x822fc29afe76fb31ca9713bc91d05bdefef0c8cb70375119f47eaef622c46adf",
          "transactionIndex": "0x173",
          "logIndex": "0x228",
          "removed": false
        },
        {
          "address": "0x1a44076050125825900e736c501f859c50fe728c",
          "topics": [
            "0x1ab700d4ced0c005b164c0f789fd09fcbb0156d4c2041b8a3bfbcd961cd1567f"
          ],
          "data": "0x00000000000000000000000000000000000000000000000000000000000000600000000000000000000000000000000000000000000000000000000000000120000000000000000000000000bb2ea70c9e858123480642cf96acbcce1372dce100000000000000000000000000000000000000000000000000000000000000990100000000000003fa000075950000000000000000000000001c1649a38f4a3c5a0c4a24070f688c525ab7d6e60000762f0000000000000000000000009abfe1f8a999b0011ecd6116649aee8d575f560473a6d584eeac31e053ddd89839401545c1945733419853ae5972293ee8dee67800000000000000000000000045dce8e4f2dc005a5f28206a46cb034697eeda8e000000000000000a00000000000000000000000000000000000000000000000000000000000000000000000000001600030100110100000000000000000000000000030d4000000000000000000000",
          "blockHash": "0x38ca140419f94a7b0881ff117a57da103eb31cd635ec6659b63d55ffbf6c57f2",
          "blockNumber": "0x17ec414",
          "blockTimestamp": "0x6a0432af",
          "transactionHash": "0x822fc29afe76fb31ca9713bc91d05bdefef0c8cb70375119f47eaef622c46adf",
          "transactionIndex": "0x173",
          "logIndex": "0x229",
          "removed": false
        },
        {
          "address": "0x1c1649a38f4a3c5a0c4a24070f688c525ab7d6e6",
          "topics": [
            "0x85496b760a4b7f8d66384b9df21b381f5d1b1e79f229a47aaf4c232edc2fe59a",
            "0x73a6d584eeac31e053ddd89839401545c1945733419853ae5972293ee8dee678",
            "0x0000000000000000000000003ad4dc2319394bb4be99a0e4ae2abf7bcebd648e"
          ],
          "data": "0x000000000000000000000000000000000000000000000000000000000000762f000000000000000000000000000000000000000000000000000009184e72a000000000000000000000000000000000000000000000000000000009184e72a000",
          "blockHash": "0x38ca140419f94a7b0881ff117a57da103eb31cd635ec6659b63d55ffbf6c57f2",
          "blockNumber": "0x17ec414",
          "blockTimestamp": "0x6a0432af",
          "transactionHash": "0x822fc29afe76fb31ca9713bc91d05bdefef0c8cb70375119f47eaef622c46adf",
          "transactionIndex": "0x173",
          "logIndex": "0x22a",
          "removed": false
        },
        {
          "address": "0x3ad4dc2319394bb4be99a0e4ae2abf7bcebd648e",
          "topics": [
            "0xbc9ee36b6ca0bdd5b3840e6d329dd19a2490d880c7ce24d9818aa593adfb35be",
            "0x00000000000000000000000045dce8e4f2dc005a5f28206a46cb034697eeda8e",
            "0x000000000000000000000000000000000000000000000000000000000000762f",
            "0x00000000000000000000000045dce8e4f2dc005a5f28206a46cb034697eeda8e"
          ],
          "data": "0x0000000000000000000000001c1649a38f4a3c5a0c4a24070f688c525ab7d6e6000000000000000000000000000000000000000000000000000009184e72a000",
          "blockHash": "0x38ca140419f94a7b0881ff117a57da103eb31cd635ec6659b63d55ffbf6c57f2",
          "blockNumber": "0x17ec414",
          "blockTimestamp": "0x6a0432af",
          "transactionHash": "0x822fc29afe76fb31ca9713bc91d05bdefef0c8cb70375119f47eaef622c46adf",
          "transactionIndex": "0x173",
          "logIndex": "0x22b",
          "removed": false
        }
      ],
      "logsBloom": "0x0000400000000000002010020000000000000000000000004000020000100000040000000000000000000000000000000000000000000000000000000020000080000200000000000000000800010000000020000000000000000000008000000000000000000000c000000000000000000000000010100000000010000400000000000000000000003000080000000000000000000000000000040000000000020000108020000020100000000000000000040800400000040440000000000000000002000002000000000080000010001000000000000000000000001000008010040000000000000000000200802000000000018000000000000000000000",
      "type": "0x2",
      "transactionHash": "0x822fc29afe76fb31ca9713bc91d05bdefef0c8cb70375119f47eaef622c46adf",
      "transactionIndex": "0x173",
      "blockHash": "0x38ca140419f94a7b0881ff117a57da103eb31cd635ec6659b63d55ffbf6c57f2",
      "blockNumber": "0x17ec414",
      "gasUsed": "0x83ac0",
      "effectiveGasPrice": "0x5fa0e6d",
      "from": "0x45dce8e4f2dc005a5f28206a46cb034697eeda8e",
      "to": "0x3ad4dc2319394bb4be99a0e4ae2abf7bcebd648e",
      "contractAddress": null
    },
    {
      "status": "0x1",
      "cumulativeGasUsed": "0xb970a1",
      "logs": [
        {
          "address": "0xac3e018457b222d93114458476f3e3416abbe38f",
          "topics": [
            "0x8c5be1e5ebec7d5bd14f71427d1e84f3dd0314c0f7b2291e5b200ac8c7c3b925",
            "0x00000000000000000000000045dce8e4f2dc005a5f28206a46cb034697eeda8e",
            "0x0000000000000000000000003ad4dc2319394bb4be99a0e4ae2abf7bcebd648e"
          ],
          "data": "0x000000000000000000000000000000000000000000000000000009184e72a000",
          "blockHash": "0x7177e604033fc54f300e78e3ab8dfd2137fee4caa8f340b8cec8c6372c022304",
          "blockNumber": "0x17ec415",
          "blockTimestamp": "0x6a0432bb",
          "transactionHash": "0xeea6ed7d09bd10084d209eaa8c70611aec488d5751463c75361f2ee063260cbb",
          "transactionIndex": "0x94",
          "logIndex": "0x132",
          "removed": false
        }
      ],
      "logsBloom": "0x00000000000000000000100200000000000000000000000000000000000000000000000000000000200000000000000000000000000000000000000000200000000000000000000000000000000000000000000000000000000000000000000000000000000008000000000000000000000000000000000000000000000000000000000000000000000000000000000000000000000000000000000000000000020000000000000000000000000000000000000000000000000000000000000000000000000000000000000000000000001000000000000000000000001000008010000010000000000000000000800000000000000000000000000000000000",
      "type": "0x2",
      "transactionHash": "0xeea6ed7d09bd10084d209eaa8c70611aec488d5751463c75361f2ee063260cbb",
      "transactionIndex": "0x94",
      "blockHash": "0x7177e604033fc54f300e78e3ab8dfd2137fee4caa8f340b8cec8c6372c022304",
      "blockNumber": "0x17ec415",
      "gasUsed": "0xb499",
      "effectiveGasPrice": "0x6304333",
      "from": "0x45dce8e4f2dc005a5f28206a46cb034697eeda8e",
      "to": "0xac3e018457b222d93114458476f3e3416abbe38f",
      "contractAddress": null
    },
    {
      "status": "0x1",
      "cumulativeGasUsed": "0x14978c9",
      "logs": [
        {
          "address": "0xac3e018457b222d93114458476f3e3416abbe38f",
          "topics": [
            "0xddf252ad1be2c89b69c2b068fc378daa952ba7f163c4a11628f55a4df523b3ef",
            "0x00000000000000000000000045dce8e4f2dc005a5f28206a46cb034697eeda8e",
            "0x0000000000000000000000003ad4dc2319394bb4be99a0e4ae2abf7bcebd648e"
          ],
          "data": "0x000000000000000000000000000000000000000000000000000009184e72a000",
          "blockHash": "0x3f2f21834c71f64f67bc8ba3508c6a08942e2b07e0a90e3acb0b8f57fd0907c4",
          "blockNumber": "0x17ec416",
          "blockTimestamp": "0x6a0432c7",
          "transactionHash": "0x022078a941a8ac56ed665f8e7d227920c294f9c2eb7952011087f57a66a94390",
          "transactionIndex": "0xcd",
          "logIndex": "0x1bd",
          "removed": false
        },
        {
          "address": "0xac3e018457b222d93114458476f3e3416abbe38f",
          "topics": [
            "0x8c5be1e5ebec7d5bd14f71427d1e84f3dd0314c0f7b2291e5b200ac8c7c3b925",
            "0x0000000000000000000000003ad4dc2319394bb4be99a0e4ae2abf7bcebd648e",
            "0x000000000000000000000000bbc424e58ed38dd911309611ae2d7a23014bd960"
          ],
          "data": "0x000000000000000000000000000000000000000000000000000009184e72a000",
          "blockHash": "0x3f2f21834c71f64f67bc8ba3508c6a08942e2b07e0a90e3acb0b8f57fd0907c4",
          "blockNumber": "0x17ec416",
          "blockTimestamp": "0x6a0432c7",
          "transactionHash": "0x022078a941a8ac56ed665f8e7d227920c294f9c2eb7952011087f57a66a94390",
          "transactionIndex": "0xcd",
          "logIndex": "0x1be",
          "removed": false
        },
        {
          "address": "0xac3e018457b222d93114458476f3e3416abbe38f",
          "topics": [
            "0xddf252ad1be2c89b69c2b068fc378daa952ba7f163c4a11628f55a4df523b3ef",
            "0x0000000000000000000000003ad4dc2319394bb4be99a0e4ae2abf7bcebd648e",
            "0x000000000000000000000000bbc424e58ed38dd911309611ae2d7a23014bd960"
          ],
          "data": "0x000000000000000000000000000000000000000000000000000009184e72a000",
          "blockHash": "0x3f2f21834c71f64f67bc8ba3508c6a08942e2b07e0a90e3acb0b8f57fd0907c4",
          "blockNumber": "0x17ec416",
          "blockTimestamp": "0x6a0432c7",
          "transactionHash": "0x022078a941a8ac56ed665f8e7d227920c294f9c2eb7952011087f57a66a94390",
          "transactionIndex": "0xcd",
          "logIndex": "0x1bf",
          "removed": false
        },
        {
          "address": "0xbb2ea70c9e858123480642cf96acbcce1372dce1",
          "topics": [
            "0x61ed099e74a97a1d7f8bb0952a88ca8b7b8ebd00c126ea04671f92a81213318a"
          ],
          "data": "0x000000000000000000000000173272739bd7aa6e4e214714048a9fe6994530590000000000000000000000000000000000000000000000000000081385578d61",
          "blockHash": "0x3f2f21834c71f64f67bc8ba3508c6a08942e2b07e0a90e3acb0b8f57fd0907c4",
          "blockNumber": "0x17ec416",
          "blockTimestamp": "0x6a0432c7",
          "transactionHash": "0x022078a941a8ac56ed665f8e7d227920c294f9c2eb7952011087f57a66a94390",
          "transactionIndex": "0xcd",
          "logIndex": "0x1c0",
          "removed": false
        },
        {
          "address": "0xbb2ea70c9e858123480642cf96acbcce1372dce1",
          "topics": [
            "0x07ea52d82345d6e838192107d8fd7123d9c2ec8e916cd0aad13fd2b60db24644"
          ],
          "data": "0x0000000000000000000000000000000000000000000000000000000000000060000000000000000000000000000000000000000000000000000000000000012000000000000000000000000000000000000000000000000000000000000001400000000000000000000000000000000000000000000000000000000000000005000000000000000000000000380275805876ff19055ea900cdb2b46a94ecf20d00000000000000000000000038654142f5e672ae86a1b21523aafc765e6a1e08000000000000000000000000589dedbd617e0cbcb916a9223f4d1300c294236b000000000000000000000000a4fe5a5b9a846458a70cd0748228aed3bf65c2cd000000000000000000000000a59ba433ac34d2927232918ef5b2eaafcf130ba500000000000000000000000000000000000000000000000000000000000000000000000000000000000000000000000000000000000000000000000000000005000000000000000000000000000000000000000000000000000000b382154561000000000000000000000000000000000000000000000000000000e6f2b6fc07000000000000000000000000000000000000000000000000000000b382154561000000000000000000000000000000000000000000000000000000d8403fa344000000000000000000000000000000000000000000000000000000a4cf9dec9e",
          "blockHash": "0x3f2f21834c71f64f67bc8ba3508c6a08942e2b07e0a90e3acb0b8f57fd0907c4",
          "blockNumber": "0x17ec416",
          "blockTimestamp": "0x6a0432c7",
          "transactionHash": "0x022078a941a8ac56ed665f8e7d227920c294f9c2eb7952011087f57a66a94390",
          "transactionIndex": "0xcd",
          "logIndex": "0x1c1",
          "removed": false
        },
        {
          "address": "0x1a44076050125825900e736c501f859c50fe728c",
          "topics": [
            "0x1ab700d4ced0c005b164c0f789fd09fcbb0156d4c2041b8a3bfbcd961cd1567f"
          ],
          "data": "0x00000000000000000000000000000000000000000000000000000000000000600000000000000000000000000000000000000000000000000000000000000120000000000000000000000000bb2ea70c9e858123480642cf96acbcce1372dce100000000000000000000000000000000000000000000000000000000000000990100000000000000da00007595000000000000000000000000bbc424e58ed38dd911309611ae2d7a23014bd9600000762f000000000000000000000000999dfabe3b1cc2ef66eb032eea42fea329bba16821860dc194f5bf5d7f3c0385510e52ef4084eb18d9da32d6fdf5211455c788e100000000000000000000000045dce8e4f2dc005a5f28206a46cb034697eeda8e000000000000000a00000000000000000000000000000000000000000000000000000000000000000000000000001600030100110100000000000000000000000000030d4000000000000000000000",
          "blockHash": "0x3f2f21834c71f64f67bc8ba3508c6a08942e2b07e0a90e3acb0b8f57fd0907c4",
          "blockNumber": "0x17ec416",
          "blockTimestamp": "0x6a0432c7",
          "transactionHash": "0x022078a941a8ac56ed665f8e7d227920c294f9c2eb7952011087f57a66a94390",
          "transactionIndex": "0xcd",
          "logIndex": "0x1c2",
          "removed": false
        },
        {
          "address": "0xbbc424e58ed38dd911309611ae2d7a23014bd960",
          "topics": [
            "0x85496b760a4b7f8d66384b9df21b381f5d1b1e79f229a47aaf4c232edc2fe59a",
            "0x21860dc194f5bf5d7f3c0385510e52ef4084eb18d9da32d6fdf5211455c788e1",
            "0x0000000000000000000000003ad4dc2319394bb4be99a0e4ae2abf7bcebd648e"
          ],
          "data": "0x000000000000000000000000000000000000000000000000000000000000762f000000000000000000000000000000000000000000000000000009184e72a000000000000000000000000000000000000000000000000000000009184e72a000",
          "blockHash": "0x3f2f21834c71f64f67bc8ba3508c6a08942e2b07e0a90e3acb0b8f57fd0907c4",
          "blockNumber": "0x17ec416",
          "blockTimestamp": "0x6a0432c7",
          "transactionHash": "0x022078a941a8ac56ed665f8e7d227920c294f9c2eb7952011087f57a66a94390",
          "transactionIndex": "0xcd",
          "logIndex": "0x1c3",
          "removed": false
        },
        {
          "address": "0x3ad4dc2319394bb4be99a0e4ae2abf7bcebd648e",
          "topics": [
            "0xbc9ee36b6ca0bdd5b3840e6d329dd19a2490d880c7ce24d9818aa593adfb35be",
            "0x00000000000000000000000045dce8e4f2dc005a5f28206a46cb034697eeda8e",
            "0x000000000000000000000000000000000000000000000000000000000000762f",
            "0x00000000000000000000000045dce8e4f2dc005a5f28206a46cb034697eeda8e"
          ],
          "data": "0x000000000000000000000000bbc424e58ed38dd911309611ae2d7a23014bd960000000000000000000000000000000000000000000000000000009184e72a000",
          "blockHash": "0x3f2f21834c71f64f67bc8ba3508c6a08942e2b07e0a90e3acb0b8f57fd0907c4",
          "blockNumber": "0x17ec416",
          "blockTimestamp": "0x6a0432c7",
          "transactionHash": "0x022078a941a8ac56ed665f8e7d227920c294f9c2eb7952011087f57a66a94390",
          "transactionIndex": "0xcd",
          "logIndex": "0x1c4",
          "removed": false
        }
      ],
      "logsBloom": "0x0000400000000000002010020000000000000000000000000000000000100000040000000000000020000000000000000000000000000000000000000020000080000200000000000000000800000000000020000000000000000000000000000000000000000800c000000000000000400020000010100000000010000004000000000000000000003000080000000000000000000000000000000000000020020000108000000420100000000000080000000000400000000440000000000000000002000000000000000080000010001000000000000000000010201000008010040010000000000000000000802000000000018000000000000000000000",
      "type": "0x2",
      "transactionHash": "0x022078a941a8ac56ed665f8e7d227920c294f9c2eb7952011087f57a66a94390",
      "transactionIndex": "0xcd",
      "blockHash": "0x3f2f21834c71f64f67bc8ba3508c6a08942e2b07e0a90e3acb0b8f57fd0907c4",
      "blockNumber": "0x17ec416",
      "gasUsed": "0x82a92",
      "effectiveGasPrice": "0x5d0add7",
      "from": "0x45dce8e4f2dc005a5f28206a46cb034697eeda8e",
      "to": "0x3ad4dc2319394bb4be99a0e4ae2abf7bcebd648e",
      "contractAddress": null
    },
    {
      "status": "0x1",
      "cumulativeGasUsed": "0x16b998f",
      "logs": [
        {
          "address": "0x04acaf8d2865c0714f79da09645c13fd2888977f",
          "topics": [
            "0x8c5be1e5ebec7d5bd14f71427d1e84f3dd0314c0f7b2291e5b200ac8c7c3b925",
            "0x00000000000000000000000045dce8e4f2dc005a5f28206a46cb034697eeda8e",
            "0x0000000000000000000000003ad4dc2319394bb4be99a0e4ae2abf7bcebd648e"
          ],
          "data": "0x000000000000000000000000000000000000000000000000000009184e72a000",
          "blockHash": "0x3f2f21834c71f64f67bc8ba3508c6a08942e2b07e0a90e3acb0b8f57fd0907c4",
          "blockNumber": "0x17ec416",
          "blockTimestamp": "0x6a0432c7",
          "transactionHash": "0x798e9ae0d98d60d0b34af56de5968658b89b957843e8ee81cc7aacef38bdf5bc",
          "transactionIndex": "0xee",
          "logIndex": "0x1eb",
          "removed": false
        }
      ],
      "logsBloom": "0x00000000004000000000100200000000000000000000000000000000000000000000000000000000000000000000000000000000000000000000000000200000000000000000000000000000000000000000000000000000000000000000000000000000000000000000000000000000000000000000000000000000000000000000000000000000000000000000000000000000000000000000000002008000020000000000000000000000000000000000000000000000000000000000000000000000000000000000000000000000001000000000000000000000001000008010000000000000000000000000800000000000000000000000000000000000",
      "type": "0x2",
      "transactionHash": "0x798e9ae0d98d60d0b34af56de5968658b89b957843e8ee81cc7aacef38bdf5bc",
      "transactionIndex": "0xee",
      "blockHash": "0x3f2f21834c71f64f67bc8ba3508c6a08942e2b07e0a90e3acb0b8f57fd0907c4",
      "blockNumber": "0x17ec416",
      "gasUsed": "0xd19c",
      "effectiveGasPrice": "0x5d0add7",
      "from": "0x45dce8e4f2dc005a5f28206a46cb034697eeda8e",
      "to": "0x04acaf8d2865c0714f79da09645c13fd2888977f",
      "contractAddress": null
    },
    {
      "status": "0x1",
      "cumulativeGasUsed": "0x173c9b8",
      "logs": [
        {
          "address": "0x04acaf8d2865c0714f79da09645c13fd2888977f",
          "topics": [
            "0x8c5be1e5ebec7d5bd14f71427d1e84f3dd0314c0f7b2291e5b200ac8c7c3b925",
            "0x00000000000000000000000045dce8e4f2dc005a5f28206a46cb034697eeda8e",
            "0x0000000000000000000000003ad4dc2319394bb4be99a0e4ae2abf7bcebd648e"
          ],
          "data": "0x0000000000000000000000000000000000000000000000000000000000000000",
          "blockHash": "0x3f2f21834c71f64f67bc8ba3508c6a08942e2b07e0a90e3acb0b8f57fd0907c4",
          "blockNumber": "0x17ec416",
          "blockTimestamp": "0x6a0432c7",
          "transactionHash": "0x882f6ddc06fbdb9a25fd9906563e2ea285c0ea98edcbe757ee3b0971f2d8fae1",
          "transactionIndex": "0xef",
          "logIndex": "0x1ec",
          "removed": false
        },
        {
          "address": "0x04acaf8d2865c0714f79da09645c13fd2888977f",
          "topics": [
            "0xddf252ad1be2c89b69c2b068fc378daa952ba7f163c4a11628f55a4df523b3ef",
            "0x00000000000000000000000045dce8e4f2dc005a5f28206a46cb034697eeda8e",
            "0x0000000000000000000000003ad4dc2319394bb4be99a0e4ae2abf7bcebd648e"
          ],
          "data": "0x000000000000000000000000000000000000000000000000000009184e72a000",
          "blockHash": "0x3f2f21834c71f64f67bc8ba3508c6a08942e2b07e0a90e3acb0b8f57fd0907c4",
          "blockNumber": "0x17ec416",
          "blockTimestamp": "0x6a0432c7",
          "transactionHash": "0x882f6ddc06fbdb9a25fd9906563e2ea285c0ea98edcbe757ee3b0971f2d8fae1",
          "transactionIndex": "0xef",
          "logIndex": "0x1ed",
          "removed": false
        },
        {
          "address": "0x04acaf8d2865c0714f79da09645c13fd2888977f",
          "topics": [
            "0x8c5be1e5ebec7d5bd14f71427d1e84f3dd0314c0f7b2291e5b200ac8c7c3b925",
            "0x0000000000000000000000003ad4dc2319394bb4be99a0e4ae2abf7bcebd648e",
            "0x00000000000000000000000004acaf8d2865c0714f79da09645c13fd2888977f"
          ],
          "data": "0x000000000000000000000000000000000000000000000000000009184e72a000",
          "blockHash": "0x3f2f21834c71f64f67bc8ba3508c6a08942e2b07e0a90e3acb0b8f57fd0907c4",
          "blockNumber": "0x17ec416",
          "blockTimestamp": "0x6a0432c7",
          "transactionHash": "0x882f6ddc06fbdb9a25fd9906563e2ea285c0ea98edcbe757ee3b0971f2d8fae1",
          "transactionIndex": "0xef",
          "logIndex": "0x1ee",
          "removed": false
        },
        {
          "address": "0x04acaf8d2865c0714f79da09645c13fd2888977f",
          "topics": [
            "0xddf252ad1be2c89b69c2b068fc378daa952ba7f163c4a11628f55a4df523b3ef",
            "0x0000000000000000000000003ad4dc2319394bb4be99a0e4ae2abf7bcebd648e",
            "0x0000000000000000000000000000000000000000000000000000000000000000"
          ],
          "data": "0x000000000000000000000000000000000000000000000000000009184e72a000",
          "blockHash": "0x3f2f21834c71f64f67bc8ba3508c6a08942e2b07e0a90e3acb0b8f57fd0907c4",
          "blockNumber": "0x17ec416",
          "blockTimestamp": "0x6a0432c7",
          "transactionHash": "0x882f6ddc06fbdb9a25fd9906563e2ea285c0ea98edcbe757ee3b0971f2d8fae1",
          "transactionIndex": "0xef",
          "logIndex": "0x1ef",
          "removed": false
        },
        {
          "address": "0xbb2ea70c9e858123480642cf96acbcce1372dce1",
          "topics": [
            "0x61ed099e74a97a1d7f8bb0952a88ca8b7b8ebd00c126ea04671f92a81213318a"
          ],
          "data": "0x000000000000000000000000173272739bd7aa6e4e214714048a9fe6994530590000000000000000000000000000000000000000000000000000081385578d61",
          "blockHash": "0x3f2f21834c71f64f67bc8ba3508c6a08942e2b07e0a90e3acb0b8f57fd0907c4",
          "blockNumber": "0x17ec416",
          "blockTimestamp": "0x6a0432c7",
          "transactionHash": "0x882f6ddc06fbdb9a25fd9906563e2ea285c0ea98edcbe757ee3b0971f2d8fae1",
          "transactionIndex": "0xef",
          "logIndex": "0x1f0",
          "removed": false
        },
        {
          "address": "0xbb2ea70c9e858123480642cf96acbcce1372dce1",
          "topics": [
            "0x07ea52d82345d6e838192107d8fd7123d9c2ec8e916cd0aad13fd2b60db24644"
          ],
          "data": "0x0000000000000000000000000000000000000000000000000000000000000060000000000000000000000000000000000000000000000000000000000000012000000000000000000000000000000000000000000000000000000000000001400000000000000000000000000000000000000000000000000000000000000005000000000000000000000000380275805876ff19055ea900cdb2b46a94ecf20d00000000000000000000000038654142f5e672ae86a1b21523aafc765e6a1e08000000000000000000000000589dedbd617e0cbcb916a9223f4d1300c294236b000000000000000000000000a4fe5a5b9a846458a70cd0748228aed3bf65c2cd000000000000000000000000a59ba433ac34d2927232918ef5b2eaafcf130ba500000000000000000000000000000000000000000000000000000000000000000000000000000000000000000000000000000000000000000000000000000005000000000000000000000000000000000000000000000000000000b382154561000000000000000000000000000000000000000000000000000000e6f2b6fc07000000000000000000000000000000000000000000000000000000b382154561000000000000000000000000000000000000000000000000000000d8403fa344000000000000000000000000000000000000000000000000000000a4cf9dec9e",
          "blockHash": "0x3f2f21834c71f64f67bc8ba3508c6a08942e2b07e0a90e3acb0b8f57fd0907c4",
          "blockNumber": "0x17ec416",
          "blockTimestamp": "0x6a0432c7",
          "transactionHash": "0x882f6ddc06fbdb9a25fd9906563e2ea285c0ea98edcbe757ee3b0971f2d8fae1",
          "transactionIndex": "0xef",
          "logIndex": "0x1f1",
          "removed": false
        },
        {
          "address": "0x1a44076050125825900e736c501f859c50fe728c",
          "topics": [
            "0x1ab700d4ced0c005b164c0f789fd09fcbb0156d4c2041b8a3bfbcd961cd1567f"
          ],
          "data": "0x00000000000000000000000000000000000000000000000000000000000000600000000000000000000000000000000000000000000000000000000000000120000000000000000000000000bb2ea70c9e858123480642cf96acbcce1372dce10000000000000000000000000000000000000000000000000000000000000099010000000000000b7d0000759500000000000000000000000004acaf8d2865c0714f79da09645c13fd2888977f0000762f000000000000000000000000d86fbbd0c8715d2c1f40e451e5c3514e65e7576a37ba19132df03722622c0219e5707cfd196d3a3c90e97176dcca8290337e5fda00000000000000000000000045dce8e4f2dc005a5f28206a46cb034697eeda8e000000000000000a00000000000000000000000000000000000000000000000000000000000000000000000000001600030100110100000000000000000000000000030d4000000000000000000000",
          "blockHash": "0x3f2f21834c71f64f67bc8ba3508c6a08942e2b07e0a90e3acb0b8f57fd0907c4",
          "blockNumber": "0x17ec416",
          "blockTimestamp": "0x6a0432c7",
          "transactionHash": "0x882f6ddc06fbdb9a25fd9906563e2ea285c0ea98edcbe757ee3b0971f2d8fae1",
          "transactionIndex": "0xef",
          "logIndex": "0x1f2",
          "removed": false
        },
        {
          "address": "0x04acaf8d2865c0714f79da09645c13fd2888977f",
          "topics": [
            "0x85496b760a4b7f8d66384b9df21b381f5d1b1e79f229a47aaf4c232edc2fe59a",
            "0x37ba19132df03722622c0219e5707cfd196d3a3c90e97176dcca8290337e5fda",
            "0x0000000000000000000000003ad4dc2319394bb4be99a0e4ae2abf7bcebd648e"
          ],
          "data": "0x000000000000000000000000000000000000000000000000000000000000762f000000000000000000000000000000000000000000000000000009184e72a000000000000000000000000000000000000000000000000000000009184e72a000",
          "blockHash": "0x3f2f21834c71f64f67bc8ba3508c6a08942e2b07e0a90e3acb0b8f57fd0907c4",
          "blockNumber": "0x17ec416",
          "blockTimestamp": "0x6a0432c7",
          "transactionHash": "0x882f6ddc06fbdb9a25fd9906563e2ea285c0ea98edcbe757ee3b0971f2d8fae1",
          "transactionIndex": "0xef",
          "logIndex": "0x1f3",
          "removed": false
        },
        {
          "address": "0x3ad4dc2319394bb4be99a0e4ae2abf7bcebd648e",
          "topics": [
            "0xbc9ee36b6ca0bdd5b3840e6d329dd19a2490d880c7ce24d9818aa593adfb35be",
            "0x00000000000000000000000045dce8e4f2dc005a5f28206a46cb034697eeda8e",
            "0x000000000000000000000000000000000000000000000000000000000000762f",
            "0x00000000000000000000000045dce8e4f2dc005a5f28206a46cb034697eeda8e"
          ],
          "data": "0x00000000000000000000000004acaf8d2865c0714f79da09645c13fd2888977f000000000000000000000000000000000000000000000000000009184e72a000",
          "blockHash": "0x3f2f21834c71f64f67bc8ba3508c6a08942e2b07e0a90e3acb0b8f57fd0907c4",
          "blockNumber": "0x17ec416",
          "blockTimestamp": "0x6a0432c7",
          "transactionHash": "0x882f6ddc06fbdb9a25fd9906563e2ea285c0ea98edcbe757ee3b0971f2d8fae1",
          "transactionIndex": "0xef",
          "logIndex": "0x1f4",
          "removed": false
        }
      ],
      "logsBloom": "0x0000400000400000002010020000000000000000000000000000100000100000040000000000000000000001000000000000000000000000000000100020000080000200000000000000000800000000000020000000000000000000000000000000000002000000c000000000000800000000000010100000000810000000000000000000000000003000080000000000000000000000000000000002008000020000108000008020100000000000000000008000400000000440000000000000000002000000000000000080000010001000000000000000000000001020008010040000000000000000000000802000000000018000000000000000000000",
      "type": "0x2",
      "transactionHash": "0x882f6ddc06fbdb9a25fd9906563e2ea285c0ea98edcbe757ee3b0971f2d8fae1",
      "transactionIndex": "0xef",
      "blockHash": "0x3f2f21834c71f64f67bc8ba3508c6a08942e2b07e0a90e3acb0b8f57fd0907c4",
      "blockNumber": "0x17ec416",
      "gasUsed": "0x83029",
      "effectiveGasPrice": "0x5d0add7",
      "from": "0x45dce8e4f2dc005a5f28206a46cb034697eeda8e",
      "to": "0x3ad4dc2319394bb4be99a0e4ae2abf7bcebd648e",
      "contractAddress": null
    },
    {
      "status": "0x1",
      "cumulativeGasUsed": "0x1747e5b",
      "logs": [
        {
          "address": "0x5ca135cb8527d76e932f34b5145575f9d8cbe08e",
          "topics": [
            "0x8c5be1e5ebec7d5bd14f71427d1e84f3dd0314c0f7b2291e5b200ac8c7c3b925",
            "0x00000000000000000000000045dce8e4f2dc005a5f28206a46cb034697eeda8e",
            "0x0000000000000000000000003ad4dc2319394bb4be99a0e4ae2abf7bcebd648e"
          ],
          "data": "0x000000000000000000000000000000000000000000000000000009184e72a000",
          "blockHash": "0x3f2f21834c71f64f67bc8ba3508c6a08942e2b07e0a90e3acb0b8f57fd0907c4",
          "blockNumber": "0x17ec416",
          "blockTimestamp": "0x6a0432c7",
          "transactionHash": "0x3d7ffb0fd6fa37fa6b344bfb9fb2005df4e962163c7fbb124889cbed4ad9e582",
          "transactionIndex": "0xf0",
          "logIndex": "0x1f5",
          "removed": false
        }
      ],
      "logsBloom": "0x00000000000000000000100200000000000000000000000000000000000000000000000000000000000000000000000000000002000000000000000000200000000000000000000000000000000000000000000000000000000000000000000000000000000000000000000000000000000000000000000000000000000000000000000000000000000000000000000000000000000000000000000000000000020000000000000000000000000000000000000000000000000000000000000000000000000000010000000000000000001000000000000000000000001000008010000080000000000000000000800000000000000000000000000000000000",
      "type": "0x2",
      "transactionHash": "0x3d7ffb0fd6fa37fa6b344bfb9fb2005df4e962163c7fbb124889cbed4ad9e582",
      "transactionIndex": "0xf0",
      "blockHash": "0x3f2f21834c71f64f67bc8ba3508c6a08942e2b07e0a90e3acb0b8f57fd0907c4",
      "blockNumber": "0x17ec416",
      "gasUsed": "0xb4a3",
      "effectiveGasPrice": "0x5d0add7",
      "from": "0x45dce8e4f2dc005a5f28206a46cb034697eeda8e",
      "to": "0x5ca135cb8527d76e932f34b5145575f9d8cbe08e",
      "contractAddress": null
    },
    {
      "status": "0x1",
      "cumulativeGasUsed": "0x17cf79e",
      "logs": [
        {
          "address": "0x5ca135cb8527d76e932f34b5145575f9d8cbe08e",
          "topics": [
            "0x8c5be1e5ebec7d5bd14f71427d1e84f3dd0314c0f7b2291e5b200ac8c7c3b925",
            "0x00000000000000000000000045dce8e4f2dc005a5f28206a46cb034697eeda8e",
            "0x0000000000000000000000003ad4dc2319394bb4be99a0e4ae2abf7bcebd648e"
          ],
          "data": "0x0000000000000000000000000000000000000000000000000000000000000000",
          "blockHash": "0x3f2f21834c71f64f67bc8ba3508c6a08942e2b07e0a90e3acb0b8f57fd0907c4",
          "blockNumber": "0x17ec416",
          "blockTimestamp": "0x6a0432c7",
          "transactionHash": "0xd1c857c2fae081e478a8947574944133fd57dfab3020704b931676070b85062a",
          "transactionIndex": "0xf1",
          "logIndex": "0x1f6",
          "removed": false
        },
        {
          "address": "0x5ca135cb8527d76e932f34b5145575f9d8cbe08e",
          "topics": [
            "0xddf252ad1be2c89b69c2b068fc378daa952ba7f163c4a11628f55a4df523b3ef",
            "0x00000000000000000000000045dce8e4f2dc005a5f28206a46cb034697eeda8e",
            "0x0000000000000000000000003ad4dc2319394bb4be99a0e4ae2abf7bcebd648e"
          ],
          "data": "0x000000000000000000000000000000000000000000000000000009184e72a000",
          "blockHash": "0x3f2f21834c71f64f67bc8ba3508c6a08942e2b07e0a90e3acb0b8f57fd0907c4",
          "blockNumber": "0x17ec416",
          "blockTimestamp": "0x6a0432c7",
          "transactionHash": "0xd1c857c2fae081e478a8947574944133fd57dfab3020704b931676070b85062a",
          "transactionIndex": "0xf1",
          "logIndex": "0x1f7",
          "removed": false
        },
        {
          "address": "0x5ca135cb8527d76e932f34b5145575f9d8cbe08e",
          "topics": [
            "0x8c5be1e5ebec7d5bd14f71427d1e84f3dd0314c0f7b2291e5b200ac8c7c3b925",
            "0x0000000000000000000000003ad4dc2319394bb4be99a0e4ae2abf7bcebd648e",
            "0x0000000000000000000000009033bad7aa130a2466060a2da71fae2219781b4b"
          ],
          "data": "0x000000000000000000000000000000000000000000000000000009184e72a000",
          "blockHash": "0x3f2f21834c71f64f67bc8ba3508c6a08942e2b07e0a90e3acb0b8f57fd0907c4",
          "blockNumber": "0x17ec416",
          "blockTimestamp": "0x6a0432c7",
          "transactionHash": "0xd1c857c2fae081e478a8947574944133fd57dfab3020704b931676070b85062a",
          "transactionIndex": "0xf1",
          "logIndex": "0x1f8",
          "removed": false
        },
        {
          "address": "0x9033bad7aa130a2466060a2da71fae2219781b4b",
          "topics": [
            "0x603e191ccb1fad1c0004c9c1f37101358f84c3cf059031e9ec9b0c17cad34188",
            "0x000000000000000000000000000000000000000000000000000000000000762f"
          ],
          "data": "0x0000000000000000000000000000000000000000000002c664e897f282951000000000000000000000000000000000000000000000000000000009184e72a000",
          "blockHash": "0x3f2f21834c71f64f67bc8ba3508c6a08942e2b07e0a90e3acb0b8f57fd0907c4",
          "blockNumber": "0x17ec416",
          "blockTimestamp": "0x6a0432c7",
          "transactionHash": "0xd1c857c2fae081e478a8947574944133fd57dfab3020704b931676070b85062a",
          "transactionIndex": "0xf1",
          "logIndex": "0x1f9",
          "removed": false
        },
        {
          "address": "0x9033bad7aa130a2466060a2da71fae2219781b4b",
          "topics": [
            "0xd2ff7607bbad14e866630d67da40c9a9cedd964cce5ce4c3dc4176133954ef98"
          ],
          "data": "0x0000000000000000000000000000000000000000000002c664e897f282951000000000000000000000000000000000000000000000000000000009184e72a000",
          "blockHash": "0x3f2f21834c71f64f67bc8ba3508c6a08942e2b07e0a90e3acb0b8f57fd0907c4",
          "blockNumber": "0x17ec416",
          "blockTimestamp": "0x6a0432c7",
          "transactionHash": "0xd1c857c2fae081e478a8947574944133fd57dfab3020704b931676070b85062a",
          "transactionIndex": "0xf1",
          "logIndex": "0x1fa",
          "removed": false
        },
        {
          "address": "0x5ca135cb8527d76e932f34b5145575f9d8cbe08e",
          "topics": [
            "0x8c5be1e5ebec7d5bd14f71427d1e84f3dd0314c0f7b2291e5b200ac8c7c3b925",
            "0x0000000000000000000000003ad4dc2319394bb4be99a0e4ae2abf7bcebd648e",
            "0x0000000000000000000000009033bad7aa130a2466060a2da71fae2219781b4b"
          ],
          "data": "0x0000000000000000000000000000000000000000000000000000000000000000",
          "blockHash": "0x3f2f21834c71f64f67bc8ba3508c6a08942e2b07e0a90e3acb0b8f57fd0907c4",
          "blockNumber": "0x17ec416",
          "blockTimestamp": "0x6a0432c7",
          "transactionHash": "0xd1c857c2fae081e478a8947574944133fd57dfab3020704b931676070b85062a",
          "transactionIndex": "0xf1",
          "logIndex": "0x1fb",
          "removed": false
        },
        {
          "address": "0x5ca135cb8527d76e932f34b5145575f9d8cbe08e",
          "topics": [
            "0xddf252ad1be2c89b69c2b068fc378daa952ba7f163c4a11628f55a4df523b3ef",
            "0x0000000000000000000000003ad4dc2319394bb4be99a0e4ae2abf7bcebd648e",
            "0x0000000000000000000000000000000000000000000000000000000000000000"
          ],
          "data": "0x000000000000000000000000000000000000000000000000000009184e72a000",
          "blockHash": "0x3f2f21834c71f64f67bc8ba3508c6a08942e2b07e0a90e3acb0b8f57fd0907c4",
          "blockNumber": "0x17ec416",
          "blockTimestamp": "0x6a0432c7",
          "transactionHash": "0xd1c857c2fae081e478a8947574944133fd57dfab3020704b931676070b85062a",
          "transactionIndex": "0xf1",
          "logIndex": "0x1fc",
          "removed": false
        },
        {
          "address": "0x5ca135cb8527d76e932f34b5145575f9d8cbe08e",
          "topics": [
            "0xdc7fd22bc401e7c6b9be2c2736286a2a42ea0c6307bc97ff0fb12bd0abd2c747",
            "0x0000000000000000000000003ad4dc2319394bb4be99a0e4ae2abf7bcebd648e",
            "0x0000000000000000000000009033bad7aa130a2466060a2da71fae2219781b4b"
          ],
          "data": "0x000000000000000000000000000000000000000000000000000009184e72a000",
          "blockHash": "0x3f2f21834c71f64f67bc8ba3508c6a08942e2b07e0a90e3acb0b8f57fd0907c4",
          "blockNumber": "0x17ec416",
          "blockTimestamp": "0x6a0432c7",
          "transactionHash": "0xd1c857c2fae081e478a8947574944133fd57dfab3020704b931676070b85062a",
          "transactionIndex": "0xf1",
          "logIndex": "0x1fd",
          "removed": false
        },
        {
          "address": "0xbb2ea70c9e858123480642cf96acbcce1372dce1",
          "topics": [
            "0x61ed099e74a97a1d7f8bb0952a88ca8b7b8ebd00c126ea04671f92a81213318a"
          ],
          "data": "0x000000000000000000000000173272739bd7aa6e4e214714048a9fe6994530590000000000000000000000000000000000000000000000000000081385578d61",
          "blockHash": "0x3f2f21834c71f64f67bc8ba3508c6a08942e2b07e0a90e3acb0b8f57fd0907c4",
          "blockNumber": "0x17ec416",
          "blockTimestamp": "0x6a0432c7",
          "transactionHash": "0xd1c857c2fae081e478a8947574944133fd57dfab3020704b931676070b85062a",
          "transactionIndex": "0xf1",
          "logIndex": "0x1fe",
          "removed": false
        },
        {
          "address": "0xbb2ea70c9e858123480642cf96acbcce1372dce1",
          "topics": [
            "0x07ea52d82345d6e838192107d8fd7123d9c2ec8e916cd0aad13fd2b60db24644"
          ],
          "data": "0x0000000000000000000000000000000000000000000000000000000000000060000000000000000000000000000000000000000000000000000000000000012000000000000000000000000000000000000000000000000000000000000001400000000000000000000000000000000000000000000000000000000000000005000000000000000000000000380275805876ff19055ea900cdb2b46a94ecf20d00000000000000000000000038654142f5e672ae86a1b21523aafc765e6a1e08000000000000000000000000589dedbd617e0cbcb916a9223f4d1300c294236b000000000000000000000000a4fe5a5b9a846458a70cd0748228aed3bf65c2cd000000000000000000000000a59ba433ac34d2927232918ef5b2eaafcf130ba500000000000000000000000000000000000000000000000000000000000000000000000000000000000000000000000000000000000000000000000000000005000000000000000000000000000000000000000000000000000000b382154561000000000000000000000000000000000000000000000000000000e6f2b6fc07000000000000000000000000000000000000000000000000000000b382154561000000000000000000000000000000000000000000000000000000d8403fa344000000000000000000000000000000000000000000000000000000a4cf9dec9e",
          "blockHash": "0x3f2f21834c71f64f67bc8ba3508c6a08942e2b07e0a90e3acb0b8f57fd0907c4",
          "blockNumber": "0x17ec416",
          "blockTimestamp": "0x6a0432c7",
          "transactionHash": "0xd1c857c2fae081e478a8947574944133fd57dfab3020704b931676070b85062a",
          "transactionIndex": "0xf1",
          "logIndex": "0x1ff",
          "removed": false
        },
        {
          "address": "0x1a44076050125825900e736c501f859c50fe728c",
          "topics": [
            "0x1ab700d4ced0c005b164c0f789fd09fcbb0156d4c2041b8a3bfbcd961cd1567f"
          ],
          "data": "0x00000000000000000000000000000000000000000000000000000000000000600000000000000000000000000000000000000000000000000000000000000120000000000000000000000000bb2ea70c9e858123480642cf96acbcce1372dce10000000000000000000000000000000000000000000000000000000000000099010000000000000018000075950000000000000000000000009033bad7aa130a2466060a2da71fae2219781b4b0000762f00000000000000000000000075c38d46001b0f8108c4136216bd2694982c20fc0ba3335322225cc046f9eeb5feeb701dba59248a3d3ffc4840036d715d97aeb300000000000000000000000045dce8e4f2dc005a5f28206a46cb034697eeda8e000000000000000a00000000000000000000000000000000000000000000000000000000000000000000000000001600030100110100000000000000000000000000030d4000000000000000000000",
          "blockHash": "0x3f2f21834c71f64f67bc8ba3508c6a08942e2b07e0a90e3acb0b8f57fd0907c4",
          "blockNumber": "0x17ec416",
          "blockTimestamp": "0x6a0432c7",
          "transactionHash": "0xd1c857c2fae081e478a8947574944133fd57dfab3020704b931676070b85062a",
          "transactionIndex": "0xf1",
          "logIndex": "0x200",
          "removed": false
        },
        {
          "address": "0x9033bad7aa130a2466060a2da71fae2219781b4b",
          "topics": [
            "0x85496b760a4b7f8d66384b9df21b381f5d1b1e79f229a47aaf4c232edc2fe59a",
            "0x0ba3335322225cc046f9eeb5feeb701dba59248a3d3ffc4840036d715d97aeb3",
            "0x0000000000000000000000003ad4dc2319394bb4be99a0e4ae2abf7bcebd648e"
          ],
          "data": "0x000000000000000000000000000000000000000000000000000000000000762f000000000000000000000000000000000000000000000000000009184e72a000000000000000000000000000000000000000000000000000000009184e72a000",
          "blockHash": "0x3f2f21834c71f64f67bc8ba3508c6a08942e2b07e0a90e3acb0b8f57fd0907c4",
          "blockNumber": "0x17ec416",
          "blockTimestamp": "0x6a0432c7",
          "transactionHash": "0xd1c857c2fae081e478a8947574944133fd57dfab3020704b931676070b85062a",
          "transactionIndex": "0xf1",
          "logIndex": "0x201",
          "removed": false
        },
        {
          "address": "0x3ad4dc2319394bb4be99a0e4ae2abf7bcebd648e",
          "topics": [
            "0xbc9ee36b6ca0bdd5b3840e6d329dd19a2490d880c7ce24d9818aa593adfb35be",
            "0x00000000000000000000000045dce8e4f2dc005a5f28206a46cb034697eeda8e",
            "0x000000000000000000000000000000000000000000000000000000000000762f",
            "0x00000000000000000000000045dce8e4f2dc005a5f28206a46cb034697eeda8e"
          ],
          "data": "0x0000000000000000000000009033bad7aa130a2466060a2da71fae2219781b4b000000000000000000000000000000000000000000000000000009184e72a000",
          "blockHash": "0x3f2f21834c71f64f67bc8ba3508c6a08942e2b07e0a90e3acb0b8f57fd0907c4",
          "blockNumber": "0x17ec416",
          "blockTimestamp": "0x6a0432c7",
          "transactionHash": "0xd1c857c2fae081e478a8947574944133fd57dfab3020704b931676070b85062a",
          "transactionIndex": "0xf1",
          "logIndex": "0x202",
          "removed": false
        }
      ],
      "logsBloom": "0x0000400000000000002010020000000000000000000000001000000000300000040000102000000000000000000000000000420200000000000000000020000080040200000000000000000800100000000020000400000000000000000000000000040002000000c000000000000800000000000010100000000010000000000000000000000800003000080000000000000000000000200000000000000000020000108000000020100000000000008010000000400000004440000000000000000002000000010000000080000010001000020000080000000000001020008010040080000000000000000000802000000000018800000000000000000000",
      "type": "0x2",
      "transactionHash": "0xd1c857c2fae081e478a8947574944133fd57dfab3020704b931676070b85062a",
      "transactionIndex": "0xf1",
      "blockHash": "0x3f2f21834c71f64f67bc8ba3508c6a08942e2b07e0a90e3acb0b8f57fd0907c4",
      "blockNumber": "0x17ec416",
      "gasUsed": "0x87943",
      "effectiveGasPrice": "0x5d0add7",
      "from": "0x45dce8e4f2dc005a5f28206a46cb034697eeda8e",
      "to": "0x3ad4dc2319394bb4be99a0e4ae2abf7bcebd648e",
      "contractAddress": null
    }
  ],
  "libraries": [],
  "pending": [],
  "returns": {},
  "timestamp": 1778660041735,
  "chain": 1,
  "commit": "3c1e5d2a"
}