{
  "transactions": [
    {
      "hash": "0x51fa9eb88f01bd6c0877d50658a0c04414e71404ca8e6fd775f5949a1f2bdafd",
      "transactionType": "CALL",
      "contractName": null,
      "contractAddress": "0x80eede496655fb9047dd39d9f418d5483ed600df",
      "function": "approve(address,uint256)",
      "arguments": [
        "0x31D982ebd82Ad900358984bd049207A4c2468640",
        "10000000000000"
      ],
      "transaction": {
        "from": "0x45dce8e4f2dc005a5f28206a46cb034697eeda8e",
        "to": "0x80eede496655fb9047dd39d9f418d5483ed600df",
        "gas": "0x12193",
        "value": "0x0",
        "input": "0x095ea7b300000000000000000000000031d982ebd82ad900358984bd049207a4c2468640000000000000000000000000000000000000000000000000000009184e72a000",
        "nonce": "0xb5",
        "chainId": "0xa"
      },
      "additionalContracts": [],
      "isFixedGasLimit": false
    },
    {
      "hash": "0x6829221d8001d7d8a01b047da26ec1946fb48ee8a9a7afcb9c468f200e1ad54d",
      "transactionType": "CALL",
      "contractName": null,
      "contractAddress": "0x31d982ebd82ad900358984bd049207a4c2468640",
      "function": "sendOFT(address,uint32,bytes32,uint256)",
      "arguments": [
        "0x80Eede496655FB9047dd39d9f418d5483ED600df",
        "30102",
        "0x00000000000000000000000045dce8e4f2dc005a5f28206a46cb034697eeda8e",
        "10000000000000"
      ],
      "transaction": {
        "from": "0x45dce8e4f2dc005a5f28206a46cb034697eeda8e",
        "to": "0x31d982ebd82ad900358984bd049207a4c2468640",
        "gas": "0xcfd21",
        "value": "0x2d3399342acb",
        "input": "0x3e832c9000000000000000000000000080eede496655fb9047dd39d9f418d5483ed600df000000000000000000000000000000000000000000000000000000000000759600000000000000000000000045dce8e4f2dc005a5f28206a46cb034697eeda8e000000000000000000000000000000000000000000000000000009184e72a000",
        "nonce": "0xb6",
        "chainId": "0xa"
      },
      "additionalContracts": [],
      "isFixedGasLimit": false
    },
    {
      "hash": "0x55b09b448f404871af89f37c2f4c106912f18a739fdab50b160fc2abbc7a8793",
      "transactionType": "CALL",
      "contractName": null,
      "contractAddress": "0x5bff88ca1442c2496f7e475e9e7786383bc070c0",
      "function": "approve(address,uint256)",
      "arguments": [
        "0x31D982ebd82Ad900358984bd049207A4c2468640",
        "10000000000000"
      ],
      "transaction": {
        "from": "0x45dce8e4f2dc005a5f28206a46cb034697eeda8e",
        "to": "0x5bff88ca1442c2496f7e475e9e7786383bc070c0",
        "gas": "0x12175",
        "value": "0x0",
        "input": "0x095ea7b300000000000000000000000031d982ebd82ad900358984bd049207a4c2468640000000000000000000000000000000000000000000000000000009184e72a000",
        "nonce": "0xb7",
        "chainId": "0xa"
      },
      "additionalContracts": [],
      "isFixedGasLimit": false
    },
    {
      "hash": "0xc3c76352c5828b218e75fa2201d7a9496d7bffbeb1d025cdc2367fbd728cc5ad",
      "transactionType": "CALL",
      "contractName": null,
      "contractAddress": "0x31d982ebd82ad900358984bd049207a4c2468640",
      "function": "sendOFT(address,uint32,bytes32,uint256)",
      "arguments": [
        "0x5Bff88cA1442c2496f7E475E9e7786383Bc070c0",
        "30102",
        "0x00000000000000000000000045dce8e4f2dc005a5f28206a46cb034697eeda8e",
        "10000000000000"
      ],
      "transaction": {
        "from": "0x45dce8e4f2dc005a5f28206a46cb034697eeda8e",
        "to": "0x31d982ebd82ad900358984bd049207a4c2468640",
        "gas": "0xd7688",
        "value": "0x2d3399342acb",
        "input": "0x3e832c900000000000000000000000005bff88ca1442c2496f7e475e9e7786383bc070c0000000000000000000000000000000000000000000000000000000000000759600000000000000000000000045dce8e4f2dc005a5f28206a46cb034697eeda8e000000000000000000000000000000000000000000000000000009184e72a000",
        "nonce": "0xb8",
        "chainId": "0xa"
      },
      "additionalContracts": [],
      "isFixedGasLimit": false
    },
    {
      "hash": "0x173b57eb86d37bf9f70e5c2fa04b11c050f24229e86f23411d090a9a3978619c",
      "transactionType": "CALL",
      "contractName": null,
      "contractAddress": "0x43edd7f3831b08fe70b7555ddd373c8bf65a9050",
      "function": "approve(address,uint256)",
      "arguments": [
        "0x31D982ebd82Ad900358984bd049207A4c2468640",
        "10000000000000"
      ],
      "transaction": {
        "from": "0x45dce8e4f2dc005a5f28206a46cb034697eeda8e",
        "to": "0x43edd7f3831b08fe70b7555ddd373c8bf65a9050",
        "gas": "0x12193",
        "value": "0x0",
        "input": "0x095ea7b300000000000000000000000031d982ebd82ad900358984bd049207a4c2468640000000000000000000000000000000000000000000000000000009184e72a000",
        "nonce": "0xb9",
        "chainId": "0xa"
      },
      "additionalContracts": [],
      "isFixedGasLimit": false
    },
    {
      "hash": "0xc3b275da89e789f48454183f56955aa3a383521626feccee7966f33406941868",
      "transactionType": "CALL",
      "contractName": null,
      "contractAddress": "0x31d982ebd82ad900358984bd049207a4c2468640",
      "function": "sendOFT(address,uint32,bytes32,uint256)",
      "arguments": [
        "0x43eDD7f3831b08FE70B7555ddD373C8bF65a9050",
        "30102",
        "0x00000000000000000000000045dce8e4f2dc005a5f28206a46cb034697eeda8e",
        "10000000000000"
      ],
      "transaction": {
        "from": "0x45dce8e4f2dc005a5f28206a46cb034697eeda8e",
        "to": "0x31d982ebd82ad900358984bd049207a4c2468640",
        "gas": "0xd76a9",
        "value": "0x2d3399342acb",
        "input": "0x3e832c9000000000000000000000000043edd7f3831b08fe70b7555ddd373c8bf65a9050000000000000000000000000000000000000000000000000000000000000759600000000000000000000000045dce8e4f2dc005a5f28206a46cb034697eeda8e000000000000000000000000000000000000000000000000000009184e72a000",
        "nonce": "0xba",
        "chainId": "0xa"
      },
      "additionalContracts": [],
      "isFixedGasLimit": false
    },
    {
      "hash": "0xbe75c9e2625d6a9e7d8a3592a1a2d0ca4728b4f5064d76a676e70e8a5b5d8743",
      "transactionType": "CALL",
      "contractName": null,
      "contractAddress": "0x3ec3849c33291a9ef4c5db86de593eb4a37fde45",
      "function": "approve(address,uint256)",
      "arguments": [
        "0x31D982ebd82Ad900358984bd049207A4c2468640",
        "10000000000000"
      ],
      "transaction": {
        "from": "0x45dce8e4f2dc005a5f28206a46cb034697eeda8e",
        "to": "0x3ec3849c33291a9ef4c5db86de593eb4a37fde45",
        "gas": "0x12193",
        "value": "0x0",
        "input": "0x095ea7b300000000000000000000000031d982ebd82ad900358984bd049207a4c2468640000000000000000000000000000000000000000000000000000009184e72a000",
        "nonce": "0xbb",
        "chainId": "0xa"
      },
      "additionalContracts": [],
      "isFixedGasLimit": false
    },
    {
      "hash": "0x780ad1616d73afa8023ad7303ea6bfce79ccfdf86d5a3f7a3cb4fa174a1b6914",
      "transactionType": "CALL",
      "contractName": null,
      "contractAddress": "0x31d982ebd82ad900358984bd049207a4c2468640",
      "function": "sendOFT(address,uint32,bytes32,uint256)",
      "arguments": [
        "0x3Ec3849C33291a9eF4c5dB86De593EB4A37fDe45",
        "30102",
        "0x00000000000000000000000045dce8e4f2dc005a5f28206a46cb034697eeda8e",
        "10000000000000"
      ],
      "transaction": {
        "from": "0x45dce8e4f2dc005a5f28206a46cb034697eeda8e",
        "to": "0x31d982ebd82ad900358984bd049207a4c2468640",
        "gas": "0xd76a9",
        "value": "0x2d3399342acb",
        "input": "0x3e832c900000000000000000000000003ec3849c33291a9ef4c5db86de593eb4a37fde45000000000000000000000000000000000000000000000000000000000000759600000000000000000000000045dce8e4f2dc005a5f28206a46cb034697eeda8e000000000000000000000000000000000000000000000000000009184e72a000",
        "nonce": "0xbc",
        "chainId": "0xa"
      },
      "additionalContracts": [],
      "isFixedGasLimit": false
    },
    {
      "hash": "0x61104f9f704a90c937cab0951744996b9875df07de08da40b62a4d4c6b23941c",
      "transactionType": "CALL",
      "contractName": null,
      "contractAddress": "0x64445f0aecc51e94ad52d8ac56b7190e764e561a",
      "function": "approve(address,uint256)",
      "arguments": [
        "0x31D982ebd82Ad900358984bd049207A4c2468640",
        "10000000000000"
      ],
      "transaction": {
        "from": "0x45dce8e4f2dc005a5f28206a46cb034697eeda8e",
        "to": "0x64445f0aecc51e94ad52d8ac56b7190e764e561a",
        "gas": "0x12175",
        "value": "0x0",
        "input": "0x095ea7b300000000000000000000000031d982ebd82ad900358984bd049207a4c2468640000000000000000000000000000000000000000000000000000009184e72a000",
        "nonce": "0xbd",
        "chainId": "0xa"
      },
      "additionalContracts": [],
      "isFixedGasLimit": false
    },
    {
      "hash": "0xf47795bb6c9b1c2e29d2e9c57d9adcccd622648a4398760bb1b0a1e9a7432a51",
      "transactionType": "CALL",
      "contractName": null,
      "contractAddress": "0x31d982ebd82ad900358984bd049207a4c2468640",
      "function": "sendOFT(address,uint32,bytes32,uint256)",
      "arguments": [
        "0x64445f0aecC51E94aD52d8AC56b7190e764E561a",
        "30102",
        "0x00000000000000000000000045dce8e4f2dc005a5f28206a46cb034697eeda8e",
        "10000000000000"
      ],
      "transaction": {
        "from": "0x45dce8e4f2dc005a5f28206a46cb034697eeda8e",
        "to": "0x31d982ebd82ad900358984bd049207a4c2468640",
        "gas": "0xd7688",
        "value": "0x2d3399342acb",
        "input": "0x3e832c9000000000000000000000000064445f0aecc51e94ad52d8ac56b7190e764e561a000000000000000000000000000000000000000000000000000000000000759600000000000000000000000045dce8e4f2dc005a5f28206a46cb034697eeda8e000000000000000000000000000000000000000000000000000009184e72a000",
        "nonce": "0xbe",
        "chainId": "0xa"
      },
      "additionalContracts": [],
      "isFixedGasLimit": false
    },
    {
      "hash": "0x6e52a1a9f2a1782defc21d8a1a42ef5c849c30a50524fc11de6aa5afa49ca69d",
      "transactionType": "CALL",
      "contractName": null,
      "contractAddress": "0x90581eca9469d8d7f5d3b60f4715027adfcf7927",
      "function": "approve(address,uint256)",
      "arguments": [
        "0x31D982ebd82Ad900358984bd049207A4c2468640",
        "10000000000000"
      ],
      "transaction": {
        "from": "0x45dce8e4f2dc005a5f28206a46cb034697eeda8e",
        "to": "0x90581eca9469d8d7f5d3b60f4715027adfcf7927",
        "gas": "0x12193",
        "value": "0x0",
        "input": "0x095ea7b300000000000000000000000031d982ebd82ad900358984bd049207a4c2468640000000000000000000000000000000000000000000000000000009184e72a000",
        "nonce": "0xbf",
        "chainId": "0xa"
      },
      "additionalContracts": [],
      "isFixedGasLimit": false
    },
    {
      "hash": "0xb7870fe7c5fa93ae12148fbc289438a9433185d78a6c015f8cb0db89aefa4591",
      "transactionType": "CALL",
      "contractName": null,
      "contractAddress": "0x31d982ebd82ad900358984bd049207a4c2468640",
      "function": "sendOFT(address,uint32,bytes32,uint256)",
      "arguments": [
        "0x90581eCa9469D8D7F5D3B60f4715027aDFCf7927",
        "30102",
        "0x00000000000000000000000045dce8e4f2dc005a5f28206a46cb034697eeda8e",
        "10000000000000"
      ],
      "transaction": {
        "from": "0x45dce8e4f2dc005a5f28206a46cb034697eeda8e",
        "to": "0x31d982ebd82ad900358984bd049207a4c2468640",
        "gas": "0xd1370",
        "value": "0x2d3399342acb",
        "input": "0x3e832c9000000000000000000000000090581eca9469d8d7f5d3b60f4715027adfcf7927000000000000000000000000000000000000000000000000000000000000759600000000000000000000000045dce8e4f2dc005a5f28206a46cb034697eeda8e000000000000000000000000000000000000000000000000000009184e72a000",
        "nonce": "0xc0",
        "chainId": "0xa"
      },
      "additionalContracts": [],
      "isFixedGasLimit": false
    }
  ],
  "receipts": [
    {
      "status": "0x1",
      "cumulativeGasUsed": "0x2dd784",
      "logs": [
        {
          "address": "0x80eede496655fb9047dd39d9f418d5483ed600df",
          "topics": [
            "0x8c5be1e5ebec7d5bd14f71427d1e84f3dd0314c0f7b2291e5b200ac8c7c3b925",
            "0x00000000000000000000000045dce8e4f2dc005a5f28206a46cb034697eeda8e",
            "0x00000000000000000000000031d982ebd82ad900358984bd049207a4c2468640"
          ],
          "data": "0x000000000000000000000000000000000000000000000000000009184e72a000",
          "blockHash": "0x315fe06580f3f6fa2cb317d180cb20fbece141d952ff2642cbdd243e9701a25d",
          "blockNumber": "0x90800a8",
          "blockTimestamp": "0x6a03db09",
          "transactionHash": "0x780ad1616d73afa8023ad7303ea6bfce79ccfdf86d5a3f7a3cb4fa174a1b6914",
          "transactionIndex": "0x10",
          "logIndex": "0x45",
          "removed": false
        }
      ],
      "logsBloom": "0x00000000000000000000000200000000000000000000000000000000000000000000000000000000000000000800000000000000000000000000000200200000000000000000000000000000000000000000000000000000000000000000000000000000000000000000000000000000000000000000000000000000010000000000000000000000000000000000000000000000000000000000000000000000020000000000000000000080000000000000000000000000000000000000000000000000000000000000000000000000001000000000000000080000000000000010400000000000000000000000800000000000000000000000000000000000",
      "type": "0x2",
      "transactionHash": "0x780ad1616d73afa8023ad7303ea6bfce79ccfdf86d5a3f7a3cb4fa174a1b6914",
      "transactionIndex": "0x10",
      "blockHash": "0x315fe06580f3f6fa2cb317d180cb20fbece141d952ff2642cbdd243e9701a25d",
      "blockNumber": "0x90800a8",
      "gasUsed": "0xd1a6",
      "effectiveGasPrice": "0x152",
      "blobGasUsed": "0x9c40",
      "from": "0x45dce8e4f2dc005a5f28206a46cb034697eeda8e",
      "to": "0x80eede496655fb9047dd39d9f418d5483ed600df",
      "contractAddress": null,
      "daFootprintGasScalar": "0x190",
      "l1BaseFeeScalar": "0x146b",
      "l1BlobBaseFee": "0x574b15",
      "l1BlobBaseFeeScalar": "0xf79c5",
      "l1Fee": "0x666a4262",
      "l1GasPrice": "0x81c5776",
      "l1GasUsed": "0x640"
    },
    {
      "status": "0x1",
      "cumulativeGasUsed": "0x373eda",
      "logs": [
        {
          "address": "0x80eede496655fb9047dd39d9f418d5483ed600df",
          "topics": [
            "0x8c5be1e5ebec7d5bd14f71427d1e84f3dd0314c0f7b2291e5b200ac8c7c3b925",
            "0x00000000000000000000000045dce8e4f2dc005a5f28206a46cb034697eeda8e",
            "0x00000000000000000000000031d982ebd82ad900358984bd049207a4c2468640"
          ],
          "data": "0x0000000000000000000000000000000000000000000000000000000000000000",
          "blockHash": "0x0000000000000000000000000000000000000000000000000000000000000000",
          "blockNumber": "0x90800a8",
          "blockTimestamp": "0x6a03db09",
          "transactionHash": "0xbe75c9e2625d6a9e7d8a3592a1a2d0ca4728b4f5064d76a676e70e8a5b5d8743",
          "transactionIndex": "0x11",
          "logIndex": "0x46",
          "removed": false
        },
        {
          "address": "0x80eede496655fb9047dd39d9f418d5483ed600df",
          "topics": [
            "0xddf252ad1be2c89b69c2b068fc378daa952ba7f163c4a11628f55a4df523b3ef",
            "0x00000000000000000000000045dce8e4f2dc005a5f28206a46cb034697eeda8e",
            "0x00000000000000000000000031d982ebd82ad900358984bd049207a4c2468640"
          ],
          "data": "0x000000000000000000000000000000000000000000000000000009184e72a000",
          "blockHash": "0x0000000000000000000000000000000000000000000000000000000000000000",
          "blockNumber": "0x90800a8",
          "blockTimestamp": "0x6a03db09",
          "transactionHash": "0xbe75c9e2625d6a9e7d8a3592a1a2d0ca4728b4f5064d76a676e70e8a5b5d8743",
          "transactionIndex": "0x11",
          "logIndex": "0x47",
          "removed": false
        },
        {
          "address": "0x80eede496655fb9047dd39d9f418d5483ed600df",
          "topics": [
            "0x8c5be1e5ebec7d5bd14f71427d1e84f3dd0314c0f7b2291e5b200ac8c7c3b925",
            "0x00000000000000000000000031d982ebd82ad900358984bd049207a4c2468640",
            "0x00000000000000000000000080eede496655fb9047dd39d9f418d5483ed600df"
          ],
          "data": "0x000000000000000000000000000000000000000000000000000009184e72a000",
          "blockHash": "0x0000000000000000000000000000000000000000000000000000000000000000",
          "blockNumber": "0x90800a8",
          "blockTimestamp": "0x6a03db09",
          "transactionHash": "0xbe75c9e2625d6a9e7d8a3592a1a2d0ca4728b4f5064d76a676e70e8a5b5d8743",
          "transactionIndex": "0x11",
          "logIndex": "0x48",
          "removed": false
        },
        {
          "address": "0x80eede496655fb9047dd39d9f418d5483ed600df",
          "topics": [
            "0xddf252ad1be2c89b69c2b068fc378daa952ba7f163c4a11628f55a4df523b3ef",
            "0x00000000000000000000000031d982ebd82ad900358984bd049207a4c2468640",
            "0x0000000000000000000000000000000000000000000000000000000000000000"
          ],
          "data": "0x000000000000000000000000000000000000000000000000000009184e72a000",
          "blockHash": "0x0000000000000000000000000000000000000000000000000000000000000000",
          "blockNumber": "0x90800a8",
          "blockTimestamp": "0x6a03db09",
          "transactionHash": "0xbe75c9e2625d6a9e7d8a3592a1a2d0ca4728b4f5064d76a676e70e8a5b5d8743",
          "transactionIndex": "0x11",
          "logIndex": "0x49",
          "removed": false
        },
        {
          "address": "0x1322871e4ab09bc7f5717189434f97bbd9546e95",
          "topics": [
            "0x61ed099e74a97a1d7f8bb0952a88ca8b7b8ebd00c126ea04671f92a81213318a"
          ],
          "data": "0x0000000000000000000000002d2ea0697bdbede3f01553d2ae4b8d0c486b666e000000000000000000000000000000000000000000000000000008494a05760c",
          "blockHash": "0x0000000000000000000000000000000000000000000000000000000000000000",
          "blockNumber": "0x90800a8",
          "blockTimestamp": "0x6a03db09",
          "transactionHash": "0xbe75c9e2625d6a9e7d8a3592a1a2d0ca4728b4f5064d76a676e70e8a5b5d8743",
          "transactionIndex": "0x11",
          "logIndex": "0x4a",
          "removed": false
        },
        {
          "address": "0x1322871e4ab09bc7f5717189434f97bbd9546e95",
          "topics": [
            "0x07ea52d82345d6e838192107d8fd7123d9c2ec8e916cd0aad13fd2b60db24644"
          ],
          "data": "0x00000000000000000000000000000000000000000000000000000000000000600000000000000000000000000000000000000000000000000000000000000120000000000000000000000000000000000000000000000000000000000000014000000000000000000000000000000000000000000000000000000000000000050000000000000000000000005b6735c66d97479ccd18294fc96b3084ecb2fa3f0000000000000000000000006a02d83e8d433304bba74ef1c4279139581871420000000000000000000000007240264781aa2f97cb994c6231297a86064832420000000000000000000000009e930731cb4a6bf7ecc11f695a295c60bdd212eb000000000000000000000000a7b5189bca84cd304d8553977c7c614329750d99000000000000000000000000000000000000000000000000000000000000000000000000000000000000000000000000000000000000000000000000000000050000000000000000000000000000000000000000000000000000013baf4a60e1000000000000000000000000000000000000000000000000000001060c04ca3e0000000000000000000000000000000000000000000000000000015123cc9d22000000000000000000000000000000000000000000000000000001060c04ca3e000000000000000000000000000000000000000000000000000000f097828dfd",
          "blockHash": "0x0000000000000000000000000000000000000000000000000000000000000000",
          "blockNumber": "0x90800a8",
          "blockTimestamp": "0x6a03db09",
          "transactionHash": "0xbe75c9e2625d6a9e7d8a3592a1a2d0ca4728b4f5064d76a676e70e8a5b5d8743",
          "transactionIndex": "0x11",
          "logIndex": "0x4b",
          "removed": false
        },
        {
          "address": "0x1a44076050125825900e736c501f859c50fe728c",
          "topics": [
            "0x1ab700d4ced0c005b164c0f789fd09fcbb0156d4c2041b8a3bfbcd961cd1567f"
          ],
          "data": "0x000000000000000000000000000000000000000000000000000000000000006000000000000000000000000000000000000000000000000000000000000001800000000000000000000000001322871e4ab09bc7f5717189434f97bbd9546e9500000000000000000000000000000000000000000000000000000000000000f901000000000000004d0000759f00000000000000000000000080eede496655fb9047dd39d9f418d5483ed600df0000762f00000000000000000000000096a394058e2b84a89bac9667b19661ed003cf5d420fbc3721cf971a17a570b1f7594ef4fa8e432c944bf09d060e3177ead9cca400000000000000000000000002a2019b30c157db6c1c01306b8025167dbe1803b000000000000000a00000000000000000000000031d982ebd82ad900358984bd049207a4c246864000000000000000000000000045dce8e4f2dc005a5f28206a46cb034697eeda8e000000000000000000000000000000000000000000000000000000000000759600000000000000000000000000000000000000000000000000000000000000000000000000002c0003010011010000000000000000000000000003d090010013030000000000000000000000000000000f42400000000000000000000000000000000000000000",
          "blockHash": "0x0000000000000000000000000000000000000000000000000000000000000000",
          "blockNumber": "0x90800a8",
          "blockTimestamp": "0x6a03db09",
          "transactionHash": "0xbe75c9e2625d6a9e7d8a3592a1a2d0ca4728b4f5064d76a676e70e8a5b5d8743",
          "transactionIndex": "0x11",
          "logIndex": "0x4c",
          "removed": false
        },
        {
          "address": "0x80eede496655fb9047dd39d9f418d5483ed600df",
          "topics": [
            "0x85496b760a4b7f8d66384b9df21b381f5d1b1e79f229a47aaf4c232edc2fe59a",
            "0x20fbc3721cf971a17a570b1f7594ef4fa8e432c944bf09d060e3177ead9cca40",
            "0x00000000000000000000000031d982ebd82ad900358984bd049207a4c2468640"
          ],
          "data": "0x000000000000000000000000000000000000000000000000000000000000762f000000000000000000000000000000000000000000000000000009184e72a000000000000000000000000000000000000000000000000000000009184e72a000",
          "blockHash": "0x0000000000000000000000000000000000000000000000000000000000000000",
          "blockNumber": "0x90800a8",
          "blockTimestamp": "0x6a03db09",
          "transactionHash": "0xbe75c9e2625d6a9e7d8a3592a1a2d0ca4728b4f5064d76a676e70e8a5b5d8743",
          "transactionIndex": "0x11",
          "logIndex": "0x4d",
          "removed": false
        },
        {
          "address": "0x31d982ebd82ad900358984bd049207a4c2468640",
          "topics": [
            "0xbc9ee36b6ca0bdd5b3840e6d329dd19a2490d880c7ce24d9818aa593adfb35be",
            "0x00000000000000000000000045dce8e4f2dc005a5f28206a46cb034697eeda8e",
            "0x0000000000000000000000000000000000000000000000000000000000007596",
            "0x00000000000000000000000045dce8e4f2dc005a5f28206a46cb034697eeda8e"
          ],
          "data": "0x00000000000000000000000080eede496655fb9047dd39d9f418d5483ed600df000000000000000000000000000000000000000000000000000009184e72a000",
          "blockHash": "0x0000000000000000000000000000000000000000000000000000000000000000",
          "blockNumber": "0x90800a8",
          "blockTimestamp": "0x6a03db09",
          "transactionHash": "0xbe75c9e2625d6a9e7d8a3592a1a2d0ca4728b4f5064d76a676e70e8a5b5d8743",
          "transactionIndex": "0x11",
          "logIndex": "0x4e",
          "removed": false
        }
      ],
      "logsBloom": "0x00000000000000000000000200000000000000000000000000000000001000000000080000000400000000000804000000000000000000000000000200200000000002000000000000000008000000000000000000000000000000000000000000000000020000008000000000000800000000000010108000000010050000000000000000000000000000080000800000000000000000010000000000000000020000108000000020100080000000000000804000400000000440001000000002000002000000000000000080040000001000000000000000080000000020000010440020000000000000000000802000000000018000000400000000000000",
      "type": "0x2",
      "transactionHash": "0xbe75c9e2625d6a9e7d8a3592a1a2d0ca4728b4f5064d76a676e70e8a5b5d8743",
      "transactionIndex": "0x11",
      "blockHash": "0x0000000000000000000000000000000000000000000000000000000000000000",
      "blockNumber": "0x90800a8",
      "gasUsed": "0x96756",
      "effectiveGasPrice": "0x152",
      "blobGasUsed": "0xb540",
      "from": "0x45dce8e4f2dc005a5f28206a46cb034697eeda8e",
      "to": "0x31d982ebd82ad900358984bd049207a4c2468640",
      "contractAddress": null,
      "daFootprintGasScalar": "0x190",
      "l1BaseFeeScalar": "0x146b",
      "l1BlobBaseFee": "0x574b15",
      "l1BlobBaseFeeScalar": "0xf79c5",
      "l1Fee": "0x78041a67",
      "l1GasPrice": "0x81c5776",
      "l1GasUsed": "0x745"
    },
    {
      "status": "0x1",
      "cumulativeGasUsed": "0x38106a",
      "logs": [
        {
          "address": "0x5bff88ca1442c2496f7e475e9e7786383bc070c0",
          "topics": [
            "0x8c5be1e5ebec7d5bd14f71427d1e84f3dd0314c0f7b2291e5b200ac8c7c3b925",
            "0x00000000000000000000000045dce8e4f2dc005a5f28206a46cb034697eeda8e",
            "0x00000000000000000000000031d982ebd82ad900358984bd049207a4c2468640"
          ],
          "data": "0x000000000000000000000000000000000000000000000000000009184e72a000",
          "blockHash": "0x315fe06580f3f6fa2cb317d180cb20fbece141d952ff2642cbdd243e9701a25d",
          "blockNumber": "0x90800a8",
          "blockTimestamp": "0x6a03db09",
          "transactionHash": "0xc3b275da89e789f48454183f56955aa3a383521626feccee7966f33406941868",
          "transactionIndex": "0x12",
          "logIndex": "0x4f",
          "removed": false
        }
      ],
      "logsBloom": "0x00000000000000000000000200000000000000000000000000000000000000000000000000000000000000000000000000000000000000000000000000200000000000000000000000000000000000000000000000000000000000000000000000000000000000000000000000000000000000000000000000000000000000000000000000000000000000000000000000000000000000000000000000000000020000000000000000000080000000000000000000000000000000000010000000000000000000000000000000000000001000800000000000080000000000000010400000000000000000000000800000000000000000000000000000000800",
      "type": "0x2",
      "transactionHash": "0xc3b275da89e789f48454183f56955aa3a383521626feccee7966f33406941868",
      "transactionIndex": "0x12",
      "blockHash": "0x315fe06580f3f6fa2cb317d180cb20fbece141d952ff2642cbdd243e9701a25d",
      "blockNumber": "0x90800a8",
      "gasUsed": "0xd190",
      "effectiveGasPrice": "0x152",
      "blobGasUsed": "0x9c40",
      "from": "0x45dce8e4f2dc005a5f28206a46cb034697eeda8e",
      "to": "0x5bff88ca1442c2496f7e475e9e7786383bc070c0",
      "contractAddress": null,
      "daFootprintGasScalar": "0x190",
      "l1BaseFeeScalar": "0x146b",
      "l1BlobBaseFee": "0x574b15",
      "l1BlobBaseFeeScalar": "0xf79c5",
      "l1Fee": "0x666a4262",
      "l1GasPrice": "0x81c5776",
      "l1GasUsed": "0x640"
    },
    {
      "status": "0x1",
      "cumulativeGasUsed": "0x414505",
      "logs": [
        {
          "address": "0x5bff88ca1442c2496f7e475e9e7786383bc070c0",
          "topics": [
            "0x8c5be1e5ebec7d5bd14f71427d1e84f3dd0314c0f7b2291e5b200ac8c7c3b925",
            "0x00000000000000000000000045dce8e4f2dc005a5f28206a46cb034697eeda8e",
            "0x00000000000000000000000031d982ebd82ad900358984bd049207a4c2468640"
          ],
          "data": "0x0000000000000000000000000000000000000000000000000000000000000000",
          "blockHash": "0x0000000000000000000000000000000000000000000000000000000000000000",
          "blockNumber": "0x90800a8",
          "blockTimestamp": "0x6a03db09",
          "transactionHash": "0x55b09b448f404871af89f37c2f4c106912f18a739fdab50b160fc2abbc7a8793",
          "transactionIndex": "0x13",
          "logIndex": "0x50",
          "removed": false
        },
        {
          "address": "0x5bff88ca1442c2496f7e475e9e7786383bc070c0",
          "topics": [
            "0xddf252ad1be2c89b69c2b068fc378daa952ba7f163c4a11628f55a4df523b3ef",
            "0x00000000000000000000000045dce8e4f2dc005a5f28206a46cb034697eeda8e",
            "0x00000000000000000000000031d982ebd82ad900358984bd049207a4c2468640"
          ],
          "data": "0x000000000000000000000000000000000000000000000000000009184e72a000",
          "blockHash": "0x0000000000000000000000000000000000000000000000000000000000000000",
          "blockNumber": "0x90800a8",
          "blockTimestamp": "0x6a03db09",
          "transactionHash": "0x55b09b448f404871af89f37c2f4c106912f18a739fdab50b160fc2abbc7a8793",
          "transactionIndex": "0x13",
          "logIndex": "0x51",
          "removed": false
        },
        {
          "address": "0x5bff88ca1442c2496f7e475e9e7786383bc070c0",
          "topics": [
            "0x8c5be1e5ebec7d5bd14f71427d1e84f3dd0314c0f7b2291e5b200ac8c7c3b925",
            "0x00000000000000000000000031d982ebd82ad900358984bd049207a4c2468640",
            "0x0000000000000000000000005bff88ca1442c2496f7e475e9e7786383bc070c0"
          ],
          "data": "0x000000000000000000000000000000000000000000000000000009184e72a000",
          "blockHash": "0x0000000000000000000000000000000000000000000000000000000000000000",
          "blockNumber": "0x90800a8",
          "blockTimestamp": "0x6a03db09",
          "transactionHash": "0x55b09b448f404871af89f37c2f4c106912f18a739fdab50b160fc2abbc7a8793",
          "transactionIndex": "0x13",
          "logIndex": "0x52",
          "removed": false
        },
        {
          "address": "0x5bff88ca1442c2496f7e475e9e7786383bc070c0",
          "topics": [
            "0xddf252ad1be2c89b69c2b068fc378daa952ba7f163c4a11628f55a4df523b3ef",
            "0x00000000000000000000000031d982ebd82ad900358984bd049207a4c2468640",
            "0x0000000000000000000000000000000000000000000000000000000000000000"
          ],
          "data": "0x000000000000000000000000000000000000000000000000000009184e72a000",
          "blockHash": "0x0000000000000000000000000000000000000000000000000000000000000000",
          "blockNumber": "0x90800a8",
          "blockTimestamp": "0x6a03db09",
          "transactionHash": "0x55b09b448f404871af89f37c2f4c106912f18a739fdab50b160fc2abbc7a8793",
          "transactionIndex": "0x13",
          "logIndex": "0x53",
          "removed": false
        },
        {
          "address": "0x1322871e4ab09bc7f5717189434f97bbd9546e95",
          "topics": [
            "0x61ed099e74a97a1d7f8bb0952a88ca8b7b8ebd00c126ea04671f92a81213318a"
          ],
          "data": "0x0000000000000000000000002d2ea0697bdbede3f01553d2ae4b8d0c486b666e000000000000000000000000000000000000000000000000000008494a05760c",
          "blockHash": "0x0000000000000000000000000000000000000000000000000000000000000000",
          "blockNumber": "0x90800a8",
          "blockTimestamp": "0x6a03db09",
          "transactionHash": "0x55b09b448f404871af89f37c2f4c106912f18a739fdab50b160fc2abbc7a8793",
          "transactionIndex": "0x13",
          "logIndex": "0x54",
          "removed": false
        },
        {
          "address": "0x1322871e4ab09bc7f5717189434f97bbd9546e95",
          "topics": [
            "0x07ea52d82345d6e838192107d8fd7123d9c2ec8e916cd0aad13fd2b60db24644"
          ],
          "data": "0x00000000000000000000000000000000000000000000000000000000000000600000000000000000000000000000000000000000000000000000000000000120000000000000000000000000000000000000000000000000000000000000014000000000000000000000000000000000000000000000000000000000000000050000000000000000000000005b6735c66d97479ccd18294fc96b3084ecb2fa3f0000000000000000000000006a02d83e8d433304bba74ef1c4279139581871420000000000000000000000007240264781aa2f97cb994c6231297a86064832420000000000000000000000009e930731cb4a6bf7ecc11f695a295c60bdd212eb000000000000000000000000a7b5189bca84cd304d8553977c7c614329750d99000000000000000000000000000000000000000000000000000000000000000000000000000000000000000000000000000000000000000000000000000000050000000000000000000000000000000000000000000000000000013baf4a60e1000000000000000000000000000000000000000000000000000001060c04ca3e0000000000000000000000000000000000000000000000000000015123cc9d22000000000000000000000000000000000000000000000000000001060c04ca3e000000000000000000000000000000000000000000000000000000f097828dfd",
          "blockHash": "0x0000000000000000000000000000000000000000000000000000000000000000",
          "blockNumber": "0x90800a8",
          "blockTimestamp": "0x6a03db09",
          "transactionHash": "0x55b09b448f404871af89f37c2f4c106912f18a739fdab50b160fc2abbc7a8793",
          "transactionIndex": "0x13",
          "logIndex": "0x55",
          "removed": false
        },
        {
          "address": "0x1a44076050125825900e736c501f859c50fe728c",
          "topics": [
            "0x1ab700d4ced0c005b164c0f789fd09fcbb0156d4c2041b8a3bfbcd961cd1567f"
          ],
          "data": "0x000000000000000000000000000000000000000000000000000000000000006000000000000000000000000000000000000000000000000000000000000001800000000000000000000000001322871e4ab09bc7f5717189434f97bbd9546e9500000000000000000000000000000000000000000000000000000000000000f90100000000000000620000759f0000000000000000000000005bff88ca1442c2496f7e475e9e7786383bc070c00000762f00000000000000000000000088aa7854d3b2daa5e37e7ce73a1f39669623a361693a0f6cff8833c3d9b02e1c195fb76f216a86813b3dfcd8684bd0c7a11bb38e0000000000000000000000002a2019b30c157db6c1c01306b8025167dbe1803b000000000000000a00000000000000000000000031d982ebd82ad900358984bd049207a4c246864000000000000000000000000045dce8e4f2dc005a5f28206a46cb034697eeda8e000000000000000000000000000000000000000000000000000000000000759600000000000000000000000000000000000000000000000000000000000000000000000000002c0003010011010000000000000000000000000003d090010013030000000000000000000000000000000f42400000000000000000000000000000000000000000",
          "blockHash": "0x0000000000000000000000000000000000000000000000000000000000000000",
          "blockNumber": "0x90800a8",
          "blockTimestamp": "0x6a03db09",
          "transactionHash": "0x55b09b448f404871af89f37c2f4c106912f18a739fdab50b160fc2abbc7a8793",
          "transactionIndex": "0x13",
          "logIndex": "0x56",
          "removed": false
        },
        {
          "address": "0x5bff88ca1442c2496f7e475e9e7786383bc070c0",
          "topics": [
            "0x85496b760a4b7f8d66384b9df21b381f5d1b1e79f229a47aaf4c232edc2fe59a",
            "0x693a0f6cff8833c3d9b02e1c195fb76f216a86813b3dfcd8684bd0c7a11bb38e",
            "0x00000000000000000000000031d982ebd82ad900358984bd049207a4c2468640"
          ],
          "data": "0x000000000000000000000000000000000000000000000000000000000000762f000000000000000000000000000000000000000000000000000009184e72a000000000000000000000000000000000000000000000000000000009184e72a000",
          "blockHash": "0x0000000000000000000000000000000000000000000000000000000000000000",
          "blockNumber": "0x90800a8",
          "blockTimestamp": "0x6a03db09",
          "transactionHash": "0x55b09b448f404871af89f37c2f4c106912f18a739fdab50b160fc2abbc7a8793",
          "transactionIndex": "0x13",
          "logIndex": "0x57",
          "removed": false
        },
        {
          "address": "0x31d982ebd82ad900358984bd049207a4c2468640",
          "topics": [
            "0xbc9ee36b6ca0bdd5b3840e6d329dd19a2490d880c7ce24d9818aa593adfb35be",
            "0x00000000000000000000000045dce8e4f2dc005a5f28206a46cb034697eeda8e",
            "0x0000000000000000000000000000000000000000000000000000000000007596",
            "0x00000000000000000000000045dce8e4f2dc005a5f28206a46cb034697eeda8e"
          ],
          "data": "0x0000000000000000000000005bff88ca1442c2496f7e475e9e7786383bc070c0000000000000000000000000000000000000000000000000000009184e72a000",
          "blockHash": "0x0000000000000000000000000000000000000000000000000000000000000000",
          "blockNumber": "0x90800a8",
          "blockTimestamp": "0x6a03db09",
          "transactionHash": "0x55b09b448f404871af89f37c2f4c106912f18a739fdab50b160fc2abbc7a8793",
          "transactionIndex": "0x13",
          "logIndex": "0x58",
          "removed": false
        }
      ],
      "logsBloom": "0x00000000000000000000000200000000000000000000000000000000001000000001000000000000000000000004000000000000000000000000000000200000000002000000000000000008000000000000000000000000000000000000000000000000020000008000000000000800000000000010108000000010040000000000001000000000000000080000800000000000008000010000040000000000020000108000000020100080000000000000004000400000000440001010000000000002000000000000000080000000001000800000000000080000000020000010440000000000000000040000802800000000018000000400000000000800",
      "type": "0x2",
      "transactionHash": "0x55b09b448f404871af89f37c2f4c106912f18a739fdab50b160fc2abbc7a8793",
      "transactionIndex": "0x13",
      "blockHash": "0x0000000000000000000000000000000000000000000000000000000000000000",
      "blockNumber": "0x90800a8",
      "gasUsed": "0x9349b",
      "effectiveGasPrice": "0x152",
      "blobGasUsed": "0xb6d0",
      "from": "0x45dce8e4f2dc005a5f28206a46cb034697eeda8e",
      "to": "0x31d982ebd82ad900358984bd049207a4c2468640",
      "contractAddress": null,
      "daFootprintGasScalar": "0x190",
      "l1BaseFeeScalar": "0x146b",
      "l1BlobBaseFee": "0x574b15",
      "l1BlobBaseFeeScalar": "0xf79c5",
      "l1Fee": "0x78041a67",
      "l1GasPrice": "0x81c5776",
      "l1GasUsed": "0x752"
    },
    {
      "status": "0x1",
      "cumulativeGasUsed": "0x4216ab",
      "logs": [
        {
          "address": "0x43edd7f3831b08fe70b7555ddd373c8bf65a9050",
          "topics": [
            "0x8c5be1e5ebec7d5bd14f71427d1e84f3dd0314c0f7b2291e5b200ac8c7c3b925",
            "0x00000000000000000000000045dce8e4f2dc005a5f28206a46cb034697eeda8e",
            "0x00000000000000000000000031d982ebd82ad900358984bd049207a4c2468640"
          ],
          "data": "0x000000000000000000000000000000000000000000000000000009184e72a000",
          "blockHash": "0x315fe06580f3f6fa2cb317d180cb20fbece141d952ff2642cbdd243e9701a25d",
          "blockNumber": "0x90800a8",
          "blockTimestamp": "0x6a03db09",
          "transactionHash": "0x173b57eb86d37bf9f70e5c2fa04b11c050f24229e86f23411d090a9a3978619c",
          "transactionIndex": "0x14",
          "logIndex": "0x59",
          "removed": false
        }
      ],
      "logsBloom": "0x00000000000000000000000200000000000000000000000000000000000000000000000000000000000000000000000000000000000000000000000000200000000000000000000000000000000000000000000000000000000000000000000000000000000000000000000000000000000000000000000000000000000000000000000000000000000000000000000000000000000000000000000000000000020000000000000002000080000000000000000000000000000000000000000000000000000000000000000000000000001000000000000000080000000000000010400000000000000000040000800000000000000000000000000000080000",
      "type": "0x2",
      "transactionHash": "0x173b57eb86d37bf9f70e5c2fa04b11c050f24229e86f23411d090a9a3978619c",
      "transactionIndex": "0x14",
      "blockHash": "0x315fe06580f3f6fa2cb317d180cb20fbece141d952ff2642cbdd243e9701a25d",
      "blockNumber": "0x90800a8",
      "gasUsed": "0xd1a6",
      "effectiveGasPrice": "0x152",
      "blobGasUsed": "0x9c40",
      "from": "0x45dce8e4f2dc005a5f28206a46cb034697eeda8e",
      "to": "0x43edd7f3831b08fe70b7555ddd373c8bf65a9050",
      "contractAddress": null,
      "daFootprintGasScalar": "0x190",
      "l1BaseFeeScalar": "0x146b",
      "l1BlobBaseFee": "0x574b15",
      "l1BlobBaseFeeScalar": "0xf79c5",
      "l1Fee": "0x666a4262",
      "l1GasPrice": "0x81c5776",
      "l1GasUsed": "0x640"
    },
    {
      "status": "0x1",
      "cumulativeGasUsed": "0x4b4b5c",
      "logs": [
        {
          "address": "0x43edd7f3831b08fe70b7555ddd373c8bf65a9050",
          "topics": [
            "0x8c5be1e5ebec7d5bd14f71427d1e84f3dd0314c0f7b2291e5b200ac8c7c3b925",
            "0x00000000000000000000000045dce8e4f2dc005a5f28206a46cb034697eeda8e",
            "0x00000000000000000000000031d982ebd82ad900358984bd049207a4c2468640"
          ],
          "data": "0x0000000000000000000000000000000000000000000000000000000000000000",
          "blockHash": "0x315fe06580f3f6fa2cb317d180cb20fbece141d952ff2642cbdd243e9701a25d",
          "blockNumber": "0x90800a8",
          "blockTimestamp": "0x6a03db09",
          "transactionHash": "0xc3c76352c5828b218e75fa2201d7a9496d7bffbeb1d025cdc2367fbd728cc5ad",
          "transactionIndex": "0x15",
          "logIndex": "0x5a",
          "removed": false
        },
        {
          "address": "0x43edd7f3831b08fe70b7555ddd373c8bf65a9050",
          "topics": [
            "0xddf252ad1be2c89b69c2b068fc378daa952ba7f163c4a11628f55a4df523b3ef",
            "0x00000000000000000000000045dce8e4f2dc005a5f28206a46cb034697eeda8e",
            "0x00000000000000000000000031d982ebd82ad900358984bd049207a4c2468640"
          ],
          "data": "0x000000000000000000000000000000000000000000000000000009184e72a000",
          "blockHash": "0x315fe06580f3f6fa2cb317d180cb20fbece141d952ff2642cbdd243e9701a25d",
          "blockNumber": "0x90800a8",
          "blockTimestamp": "0x6a03db09",
          "transactionHash": "0xc3c76352c5828b218e75fa2201d7a9496d7bffbeb1d025cdc2367fbd728cc5ad",
          "transactionIndex": "0x15",
          "logIndex": "0x5b",
          "removed": false
        },
        {
          "address": "0x43edd7f3831b08fe70b7555ddd373c8bf65a9050",
          "topics": [
            "0x8c5be1e5ebec7d5bd14f71427d1e84f3dd0314c0f7b2291e5b200ac8c7c3b925",
            "0x00000000000000000000000031d982ebd82ad900358984bd049207a4c2468640",
            "0x00000000000000000000000043edd7f3831b08fe70b7555ddd373c8bf65a9050"
          ],
          "data": "0x000000000000000000000000000000000000000000000000000009184e72a000",
          "blockHash": "0x315fe06580f3f6fa2cb317d180cb20fbece141d952ff2642cbdd243e9701a25d",
          "blockNumber": "0x90800a8",
          "blockTimestamp": "0x6a03db09",
          "transactionHash": "0xc3c76352c5828b218e75fa2201d7a9496d7bffbeb1d025cdc2367fbd728cc5ad",
          "transactionIndex": "0x15",
          "logIndex": "0x5c",
          "removed": false
        },
        {
          "address": "0x43edd7f3831b08fe70b7555ddd373c8bf65a9050",
          "topics": [
            "0xddf252ad1be2c89b69c2b068fc378daa952ba7f163c4a11628f55a4df523b3ef",
            "0x00000000000000000000000031d982ebd82ad900358984bd049207a4c2468640",
            "0x0000000000000000000000000000000000000000000000000000000000000000"
          ],
          "data": "0x000000000000000000000000000000000000000000000000000009184e72a000",
          "blockHash": "0x315fe06580f3f6fa2cb317d180cb20fbece141d952ff2642cbdd243e9701a25d",
          "blockNumber": "0x90800a8",
          "blockTimestamp": "0x6a03db09",
          "transactionHash": "0xc3c76352c5828b218e75fa2201d7a9496d7bffbeb1d025cdc2367fbd728cc5ad",
          "transactionIndex": "0x15",
          "logIndex": "0x5d",
          "removed": false
        },
        {
          "address": "0x1322871e4ab09bc7f5717189434f97bbd9546e95",
          "topics": [
            "0x61ed099e74a97a1d7f8bb0952a88ca8b7b8ebd00c126ea04671f92a81213318a"
          ],
          "data": "0x0000000000000000000000002d2ea0697bdbede3f01553d2ae4b8d0c486b666e000000000000000000000000000000000000000000000000000008494a05760c",
          "blockHash": "0x315fe06580f3f6fa2cb317d180cb20fbece141d952ff2642cbdd243e9701a25d",
          "blockNumber": "0x90800a8",
          "blockTimestamp": "0x6a03db09",
          "transactionHash": "0xc3c76352c5828b218e75fa2201d7a9496d7bffbeb1d025cdc2367fbd728cc5ad",
          "transactionIndex": "0x15",
          "logIndex": "0x5e",
          "removed": false
        },
        {
          "address": "0x1322871e4ab09bc7f5717189434f97bbd9546e95",
          "topics": [
            "0x07ea52d82345d6e838192107d8fd7123d9c2ec8e916cd0aad13fd2b60db24644"
          ],
          "data": "0x00000000000000000000000000000000000000000000000000000000000000600000000000000000000000000000000000000000000000000000000000000120000000000000000000000000000000000000000000000000000000000000014000000000000000000000000000000000000000000000000000000000000000050000000000000000000000005b6735c66d97479ccd18294fc96b3084ecb2fa3f0000000000000000000000006a02d83e8d433304bba74ef1c4279139581871420000000000000000000000007240264781aa2f97cb994c6231297a86064832420000000000000000000000009e930731cb4a6bf7ecc11f695a295c60bdd212eb000000000000000000000000a7b5189bca84cd304d8553977c7c614329750d99000000000000000000000000000000000000000000000000000000000000000000000000000000000000000000000000000000000000000000000000000000050000000000000000000000000000000000000000000000000000013baf4a60e1000000000000000000000000000000000000000000000000000001060c04ca3e0000000000000000000000000000000000000000000000000000015123cc9d22000000000000000000000000000000000000000000000000000001060c04ca3e000000000000000000000000000000000000000000000000000000f097828dfd",
          "blockHash": "0x315fe06580f3f6fa2cb317d180cb20fbece141d952ff2642cbdd243e9701a25d",
          "blockNumber": "0x90800a8",
          "blockTimestamp": "0x6a03db09",
          "transactionHash": "0xc3c76352c5828b218e75fa2201d7a9496d7bffbeb1d025cdc2367fbd728cc5ad",
          "transactionIndex": "0x15",
          "logIndex": "0x5f",
          "removed": false
        },
        {
          "address": "0x1a44076050125825900e736c501f859c50fe728c",
          "topics": [
            "0x1ab700d4ced0c005b164c0f789fd09fcbb0156d4c2041b8a3bfbcd961cd1567f"
          ],
          "data": "0x000000000000000000000000000000000000000000000000000000000000006000000000000000000000000000000000000000000000000000000000000001800000000000000000000000001322871e4ab09bc7f5717189434f97bbd9546e9500000000000000000000000000000000000000000000000000000000000000f90100000000000000470000759f00000000000000000000000043edd7f3831b08fe70b7555ddd373c8bf65a90500000762f0000000000000000000000009abfe1f8a999b0011ecd6116649aee8d575f56045fb66b9e162e54685f3db2f5f28b280022c682dc9f09ea5921d23250e7cb6b980000000000000000000000002a2019b30c157db6c1c01306b8025167dbe1803b000000000000000a00000000000000000000000031d982ebd82ad900358984bd049207a4c246864000000000000000000000000045dce8e4f2dc005a5f28206a46cb034697eeda8e000000000000000000000000000000000000000000000000000000000000759600000000000000000000000000000000000000000000000000000000000000000000000000002c0003010011010000000000000000000000000003d090010013030000000000000000000000000000000f42400000000000000000000000000000000000000000",
          "blockHash": "0x315fe06580f3f6fa2cb317d180cb20fbece141d952ff2642cbdd243e9701a25d",
          "blockNumber": "0x90800a8",
          "blockTimestamp": "0x6a03db09",
          "transactionHash": "0xc3c76352c5828b218e75fa2201d7a9496d7bffbeb1d025cdc2367fbd728cc5ad",
          "transactionIndex": "0x15",
          "logIndex": "0x60",
          "removed": false
        },
        {
          "address": "0x43edd7f3831b08fe70b7555ddd373c8bf65a9050",
          "topics": [
            "0x85496b760a4b7f8d66384b9df21b381f5d1b1e79f229a47aaf4c232edc2fe59a",
            "0x5fb66b9e162e54685f3db2f5f28b280022c682dc9f09ea5921d23250e7cb6b98",
            "0x00000000000000000000000031d982ebd82ad900358984bd049207a4c2468640"
          ],
          "data": "0x000000000000000000000000000000000000000000000000000000000000762f000000000000000000000000000000000000000000000000000009184e72a000000000000000000000000000000000000000000000000000000009184e72a000",
          "blockHash": "0x315fe06580f3f6fa2cb317d180cb20fbece141d952ff2642cbdd243e9701a25d",
          "blockNumber": "0x90800a8",
          "blockTimestamp": "0x6a03db09",
          "transactionHash": "0xc3c76352c5828b218e75fa2201d7a9496d7bffbeb1d025cdc2367fbd728cc5ad",
          "transactionIndex": "0x15",
          "logIndex": "0x61",
          "removed": false
        },
        {
          "address": "0x31d982ebd82ad900358984bd049207a4c2468640",
          "topics": [
            "0xbc9ee36b6ca0bdd5b3840e6d329dd19a2490d880c7ce24d9818aa593adfb35be",
            "0x00000000000000000000000045dce8e4f2dc005a5f28206a46cb034697eeda8e",
            "0x0000000000000000000000000000000000000000000000000000000000007596",
            "0x00000000000000000000000045dce8e4f2dc005a5f28206a46cb034697eeda8e"
          ],
          "data": "0x00000000000000000000000043edd7f3831b08fe70b7555ddd373c8bf65a9050000000000000000000000000000000000000000000000000000009184e72a000",
          "blockHash": "0x315fe06580f3f6fa2cb317d180cb20fbece141d952ff2642cbdd243e9701a25d",
          "blockNumber": "0x90800a8",
          "blockTimestamp": "0x6a03db09",
          "transactionHash": "0xc3c76352c5828b218e75fa2201d7a9496d7bffbeb1d025cdc2367fbd728cc5ad",
          "transactionIndex": "0x15",
          "logIndex": "0x62",
          "removed": false
        }
      ],
      "logsBloom": "0x00000000000000000000000200000000000000000000000000000000001000010000000000000000000000000004000000000000000000000000000000200000000002000000000000000008000000000000000000000000000000000000000000000004020000008000000000000800000000000010108000000010040000000000000000004000000000080000800000000000000000010000000100000000020000108000000022100080000000000000004000400000000440001004020000000002000000000000000080000000001000000000000000080000000020000010440000000000000000040000802000000000018000000400000000080000",
      "type": "0x2",
      "transactionHash": "0xc3c76352c5828b218e75fa2201d7a9496d7bffbeb1d025cdc2367fbd728cc5ad",
      "transactionIndex": "0x15",
      "blockHash": "0x315fe06580f3f6fa2cb317d180cb20fbece141d952ff2642cbdd243e9701a25d",
      "blockNumber": "0x90800a8",
      "gasUsed": "0x934b1",
      "effectiveGasPrice": "0x152",
      "blobGasUsed": "0xb6d0",
      "from": "0x45dce8e4f2dc005a5f28206a46cb034697eeda8e",
      "to": "0x31d982ebd82ad900358984bd049207a4c2468640",
      "contractAddress": null,
      "daFootprintGasScalar": "0x190",
      "l1BaseFeeScalar": "0x146b",
      "l1BlobBaseFee": "0x574b15",
      "l1BlobBaseFeeScalar": "0xf79c5",
      "l1Fee": "0x78041a67",
      "l1GasPrice": "0x81c5776",
      "l1GasUsed": "0x752"
    },
    {
      "status": "0x1",
      "cumulativeGasUsed": "0x4c1d02",
      "logs": [
        {
          "address": "0x3ec3849c33291a9ef4c5db86de593eb4a37fde45",
          "topics": [
            "0x8c5be1e5ebec7d5bd14f71427d1e84f3dd0314c0f7b2291e5b200ac8c7c3b925",
            "0x00000000000000000000000045dce8e4f2dc005a5f28206a46cb034697eeda8e",
            "0x00000000000000000000000031d982ebd82ad900358984bd049207a4c2468640"
          ],
          "data": "0x000000000000000000000000000000000000000000000000000009184e72a000",
          "blockHash": "0x0000000000000000000000000000000000000000000000000000000000000000",
          "blockNumber": "0x90800a8",
          "blockTimestamp": "0x6a03db09",
          "transactionHash": "0x61104f9f704a90c937cab0951744996b9875df07de08da40b62a4d4c6b23941c",
          "transactionIndex": "0x16",
          "logIndex": "0x63",
          "removed": false
        }
      ],
      "logsBloom": "0x00000000000000000000000200002000000000000000000000000000000000000000000000000000000000000000000000000000000000000000000000200000000000000000000000000000000000000000000000000000000000000000000000000000000000000000000000000000000000000000000000000000000000000000000000000000000000000000000000000000000020000040000000000000020000000000000000000080000000000000000000000000000000000000000000000000000000000000000000000000001000000000000000080000000000000010400000000000000000000000800000000000000000000000000000000000",
      "type": "0x2",
      "transactionHash": "0x61104f9f704a90c937cab0951744996b9875df07de08da40b62a4d4c6b23941c",
      "transactionIndex": "0x16",
      "blockHash": "0x0000000000000000000000000000000000000000000000000000000000000000",
      "blockNumber": "0x90800a8",
      "gasUsed": "0xd1a6",
      "effectiveGasPrice": "0x152",
      "blobGasUsed": "0x9c40",
      "from": "0x45dce8e4f2dc005a5f28206a46cb034697eeda8e",
      "to": "0x3ec3849c33291a9ef4c5db86de593eb4a37fde45",
      "contractAddress": null,
      "daFootprintGasScalar": "0x190",
      "l1BaseFeeScalar": "0x146b",
      "l1BlobBaseFee": "0x574b15",
      "l1BlobBaseFeeScalar": "0xf79c5",
      "l1Fee": "0x78041a67",
      "l1GasPrice": "0x81c5776",
      "l1GasUsed": "0x640"
    },
    {
      "status": "0x1",
      "cumulativeGasUsed": "0x5551b3",
      "logs": [
        {
          "address": "0x3ec3849c33291a9ef4c5db86de593eb4a37fde45",
          "topics": [
            "0x8c5be1e5ebec7d5bd14f71427d1e84f3dd0314c0f7b2291e5b200ac8c7c3b925",
            "0x00000000000000000000000045dce8e4f2dc005a5f28206a46cb034697eeda8e",
            "0x00000000000000000000000031d982ebd82ad900358984bd049207a4c2468640"
          ],
          "data": "0x0000000000000000000000000000000000000000000000000000000000000000",
          "blockHash": "0x315fe06580f3f6fa2cb317d180cb20fbece141d952ff2642cbdd243e9701a25d",
          "blockNumber": "0x90800a8",
          "blockTimestamp": "0x6a03db09",
          "transactionHash": "0x51fa9eb88f01bd6c0877d50658a0c04414e71404ca8e6fd775f5949a1f2bdafd",
          "transactionIndex": "0x17",
          "logIndex": "0x64",
          "removed": false
        },
        {
          "address": "0x3ec3849c33291a9ef4c5db86de593eb4a37fde45",
          "topics": [
            "0xddf252ad1be2c89b69c2b068fc378daa952ba7f163c4a11628f55a4df523b3ef",
            "0x00000000000000000000000045dce8e4f2dc005a5f28206a46cb034697eeda8e",
            "0x00000000000000000000000031d982ebd82ad900358984bd049207a4c2468640"
          ],
          "data": "0x000000000000000000000000000000000000000000000000000009184e72a000",
          "blockHash": "0x315fe06580f3f6fa2cb317d180cb20fbece141d952ff2642cbdd243e9701a25d",
          "blockNumber": "0x90800a8",
          "blockTimestamp": "0x6a03db09",
          "transactionHash": "0x51fa9eb88f01bd6c0877d50658a0c04414e71404ca8e6fd775f5949a1f2bdafd",
          "transactionIndex": "0x17",
          "logIndex": "0x65",
          "removed": false
        },
        {
          "address": "0x3ec3849c33291a9ef4c5db86de593eb4a37fde45",
          "topics": [
            "0x8c5be1e5ebec7d5bd14f71427d1e84f3dd0314c0f7b2291e5b200ac8c7c3b925",
            "0x00000000000000000000000031d982ebd82ad900358984bd049207a4c2468640",
            "0x0000000000000000000000003ec3849c33291a9ef4c5db86de593eb4a37fde45"
          ],
          "data": "0x000000000000000000000000000000000000000000000000000009184e72a000",
          "blockHash": "0x315fe06580f3f6fa2cb317d180cb20fbece141d952ff2642cbdd243e9701a25d",
          "blockNumber": "0x90800a8",
          "blockTimestamp": "0x6a03db09",
          "transactionHash": "0x51fa9eb88f01bd6c0877d50658a0c04414e71404ca8e6fd775f5949a1f2bdafd",
          "transactionIndex": "0x17",
          "logIndex": "0x66",
          "removed": false
        },
        {
          "address": "0x3ec3849c33291a9ef4c5db86de593eb4a37fde45",
          "topics": [
            "0xddf252ad1be2c89b69c2b068fc378daa952ba7f163c4a11628f55a4df523b3ef",
            "0x00000000000000000000000031d982ebd82ad900358984bd049207a4c2468640",
            "0x0000000000000000000000000000000000000000000000000000000000000000"
          ],
          "data": "0x000000000000000000000000000000000000000000000000000009184e72a000",
          "blockHash": "0x315fe06580f3f6fa2cb317d180cb20fbece141d952ff2642cbdd243e9701a25d",
          "blockNumber": "0x90800a8",
          "blockTimestamp": "0x6a03db09",
          "transactionHash": "0x51fa9eb88f01bd6c0877d50658a0c04414e71404ca8e6fd775f5949a1f2bdafd",
          "transactionIndex": "0x17",
          "logIndex": "0x67",
          "removed": false
        },
        {
          "address": "0x1322871e4ab09bc7f5717189434f97bbd9546e95",
          "topics": [
            "0x61ed099e74a97a1d7f8bb0952a88ca8b7b8ebd00c126ea04671f92a81213318a"
          ],
          "data": "0x0000000000000000000000002d2ea0697bdbede3f01553d2ae4b8d0c486b666e000000000000000000000000000000000000000000000000000008494a05760c",
          "blockHash": "0x315fe06580f3f6fa2cb317d180cb20fbece141d952ff2642cbdd243e9701a25d",
          "blockNumber": "0x90800a8",
          "blockTimestamp": "0x6a03db09",
          "transactionHash": "0x51fa9eb88f01bd6c0877d50658a0c04414e71404ca8e6fd775f5949a1f2bdafd",
          "transactionIndex": "0x17",
          "logIndex": "0x68",
          "removed": false
        },
        {
          "address": "0x1322871e4ab09bc7f5717189434f97bbd9546e95",
          "topics": [
            "0x07ea52d82345d6e838192107d8fd7123d9c2ec8e916cd0aad13fd2b60db24644"
          ],
          "data": "0x00000000000000000000000000000000000000000000000000000000000000600000000000000000000000000000000000000000000000000000000000000120000000000000000000000000000000000000000000000000000000000000014000000000000000000000000000000000000000000000000000000000000000050000000000000000000000005b6735c66d97479ccd18294fc96b3084ecb2fa3f0000000000000000000000006a02d83e8d433304bba74ef1c4279139581871420000000000000000000000007240264781aa2f97cb994c6231297a86064832420000000000000000000000009e930731cb4a6bf7ecc11f695a295c60bdd212eb000000000000000000000000a7b5189bca84cd304d8553977c7c614329750d99000000000000000000000000000000000000000000000000000000000000000000000000000000000000000000000000000000000000000000000000000000050000000000000000000000000000000000000000000000000000013baf4a60e1000000000000000000000000000000000000000000000000000001060c04ca3e0000000000000000000000000000000000000000000000000000015123cc9d22000000000000000000000000000000000000000000000000000001060c04ca3e000000000000000000000000000000000000000000000000000000f097828dfd",
          "blockHash": "0x315fe06580f3f6fa2cb317d180cb20fbece141d952ff2642cbdd243e9701a25d",
          "blockNumber": "0x90800a8",
          "blockTimestamp": "0x6a03db09",
          "transactionHash": "0x51fa9eb88f01bd6c0877d50658a0c04414e71404ca8e6fd775f5949a1f2bdafd",
          "transactionIndex": "0x17",
          "logIndex": "0x69",
          "removed": false
        },
        {
          "address": "0x1a44076050125825900e736c501f859c50fe728c",
          "topics": [
            "0x1ab700d4ced0c005b164c0f789fd09fcbb0156d4c2041b8a3bfbcd961cd1567f"
          ],
          "data": "0x000000000000000000000000000000000000000000000000000000000000006000000000000000000000000000000000000000000000000000000000000001800000000000000000000000001322871e4ab09bc7f5717189434f97bbd9546e9500000000000000000000000000000000000000000000000000000000000000f90100000000000000730000759f0000000000000000000000003ec3849c33291a9ef4c5db86de593eb4a37fde450000762f000000000000000000000000999dfabe3b1cc2ef66eb032eea42fea329bba168006a290f63f59c90752024abf8ce78c327b0b9b401e041ae5f1580ddfbad641a0000000000000000000000002a2019b30c157db6c1c01306b8025167dbe1803b000000000000000a00000000000000000000000031d982ebd82ad900358984bd049207a4c246864000000000000000000000000045dce8e4f2dc005a5f28206a46cb034697eeda8e000000000000000000000000000000000000000000000000000000000000759600000000000000000000000000000000000000000000000000000000000000000000000000002c0003010011010000000000000000000000000003d090010013030000000000000000000000000000000f42400000000000000000000000000000000000000000",
          "blockHash": "0x315fe06580f3f6fa2cb317d180cb20fbece141d952ff2642cbdd243e9701a25d",
          "blockNumber": "0x90800a8",
          "blockTimestamp": "0x6a03db09",
          "transactionHash": "0x51fa9eb88f01bd6c0877d50658a0c04414e71404ca8e6fd775f5949a1f2bdafd",
          "transactionIndex": "0x17",
          "logIndex": "0x6a",
          "removed": false
        },
        {
          "address": "0x3ec3849c33291a9ef4c5db86de593eb4a37fde45",
          "topics": [
            "0x85496b760a4b7f8d66384b9df21b381f5d1b1e79f229a47aaf4c232edc2fe59a",
            "0x006a290f63f59c90752024abf8ce78c327b0b9b401e041ae5f1580ddfbad641a",
            "0x00000000000000000000000031d982ebd82ad900358984bd049207a4c2468640"
          ],
          "data": "0x000000000000000000000000000000000000000000000000000000000000762f000000000000000000000000000000000000000000000000000009184e72a000000000000000000000000000000000000000000000000000000009184e72a000",
          "blockHash": "0x315fe06580f3f6fa2cb317d180cb20fbece141d952ff2642cbdd243e9701a25d",
          "blockNumber": "0x90800a8",
          "blockTimestamp": "0x6a03db09",
          "transactionHash": "0x51fa9eb88f01bd6c0877d50658a0c04414e71404ca8e6fd775f5949a1f2bdafd",
          "transactionIndex": "0x17",
          "logIndex": "0x6b",
          "removed": false
        },
        {
          "address": "0x31d982ebd82ad900358984bd049207a4c2468640",
          "topics": [
            "0xbc9ee36b6ca0bdd5b3840e6d329dd19a2490d880c7ce24d9818aa593adfb35be",
            "0x00000000000000000000000045dce8e4f2dc005a5f28206a46cb034697eeda8e",
            "0x0000000000000000000000000000000000000000000000000000000000007596",
            "0x00000000000000000000000045dce8e4f2dc005a5f28206a46cb034697eeda8e"
          ],
          "data": "0x0000000000000000000000003ec3849c33291a9ef4c5db86de593eb4a37fde45000000000000000000000000000000000000000000000000000009184e72a000",
          "blockHash": "0x315fe06580f3f6fa2cb317d180cb20fbece141d952ff2642cbdd243e9701a25d",
          "blockNumber": "0x90800a8",
          "blockTimestamp": "0x6a03db09",
          "transactionHash": "0x51fa9eb88f01bd6c0877d50658a0c04414e71404ca8e6fd775f5949a1f2bdafd",
          "transactionIndex": "0x17",
          "logIndex": "0x6c",
          "removed": false
        }
      ],
      "logsBloom": "0x00000000000000000000000200002000000000000000000000000000001000000000000000000000000000000004000000000000000000000000000000200020000002000000000000000008000000000000000000000000000000000000000000000000420000008000000000000800020000000010108000000010040000000000000000000000000000080000800000000000000020010040004000000000020000108001000020100080400000000000004000400000000440001000000000000002000000000000000080000000001000000000000000080000000020000010440000000000000000000000802000000000018000000400000000000000",
      "type": "0x2",
      "transactionHash": "0x51fa9eb88f01bd6c0877d50658a0c04414e71404ca8e6fd775f5949a1f2bdafd",
      "transactionIndex": "0x17",
      "blockHash": "0x315fe06580f3f6fa2cb317d180cb20fbece141d952ff2642cbdd243e9701a25d",
      "blockNumber": "0x90800a8",
      "gasUsed": "0x934b1",
      "effectiveGasPrice": "0x152",
      "blobGasUsed": "0xb6d0",
      "from": "0x45dce8e4f2dc005a5f28206a46cb034697eeda8e",
      "to": "0x31d982ebd82ad900358984bd049207a4c2468640",
      "contractAddress": null,
      "daFootprintGasScalar": "0x190",
      "l1BaseFeeScalar": "0x146b",
      "l1BlobBaseFee": "0x574b15",
      "l1BlobBaseFeeScalar": "0xf79c5",
      "l1Fee": "0x78041a67",
      "l1GasPrice": "0x81c5776",
      "l1GasUsed": "0x752"
    },
    {
      "status": "0x1",
      "cumulativeGasUsed": "0x562343",
      "logs": [
        {
          "address": "0x64445f0aecc51e94ad52d8ac56b7190e764e561a",
          "topics": [
            "0x8c5be1e5ebec7d5bd14f71427d1e84f3dd0314c0f7b2291e5b200ac8c7c3b925",
            "0x00000000000000000000000045dce8e4f2dc005a5f28206a46cb034697eeda8e",
            "0x00000000000000000000000031d982ebd82ad900358984bd049207a4c2468640"
          ],
          "data": "0x000000000000000000000000000000000000000000000000000009184e72a000",
          "blockHash": "0x315fe06580f3f6fa2cb317d180cb20fbece141d952ff2642cbdd243e9701a25d",
          "blockNumber": "0x90800a8",
          "blockTimestamp": "0x6a03db09",
          "transactionHash": "0xb7870fe7c5fa93ae12148fbc289438a9433185d78a6c015f8cb0db89aefa4591",
          "transactionIndex": "0x18",
          "logIndex": "0x6d",
          "removed": false
        }
      ],
      "logsBloom": "0x00000000000000000000000200000000000000000000000000000000000000000000000000000000000000000000000000000000000000000000000000200000002000000000000000000000000000000000000000000000000000000000000000000000000000000000000000000000000000000000000000000000000000000000000000000000000000000000000000000000000000000000000000000000020000000000000000000088000000000000000000000000000000000000000000000000000000000000000000000000001000000000000000080000000000000010400000000000000000000000800000000008000000000000000000000000",
      "type": "0x2",
      "transactionHash": "0xb7870fe7c5fa93ae12148fbc289438a9433185d78a6c015f8cb0db89aefa4591",
      "transactionIndex": "0x18",
      "blockHash": "0x315fe06580f3f6fa2cb317d180cb20fbece141d952ff2642cbdd243e9701a25d",
      "blockNumber": "0x90800a8",
      "gasUsed": "0xd190",
      "effectiveGasPrice": "0x152",
      "blobGasUsed": "0x9c40",
      "from": "0x45dce8e4f2dc005a5f28206a46cb034697eeda8e",
      "to": "0x64445f0aecc51e94ad52d8ac56b7190e764e561a",
      "contractAddress": null,
      "daFootprintGasScalar": "0x190",
      "l1BaseFeeScalar": "0x146b",
      "l1BlobBaseFee": "0x574b15",
      "l1BlobBaseFeeScalar": "0xf79c5",
      "l1Fee": "0x666a4262",
      "l1GasPrice": "0x81c5776",
      "l1GasUsed": "0x640"
    },
    {
      "status": "0x1",
      "cumulativeGasUsed": "0x5f57de",
      "logs": [
        {
          "address": "0x64445f0aecc51e94ad52d8ac56b7190e764e561a",
          "topics": [
            "0x8c5be1e5ebec7d5bd14f71427d1e84f3dd0314c0f7b2291e5b200ac8c7c3b925",
            "0x00000000000000000000000045dce8e4f2dc005a5f28206a46cb034697eeda8e",
            "0x00000000000000000000000031d982ebd82ad900358984bd049207a4c2468640"
          ],
          "data": "0x0000000000000000000000000000000000000000000000000000000000000000",
          "blockHash": "0x0000000000000000000000000000000000000000000000000000000000000000",
          "blockNumber": "0x90800a8",
          "blockTimestamp": "0x6a03db09",
          "transactionHash": "0x6829221d8001d7d8a01b047da26ec1946fb48ee8a9a7afcb9c468f200e1ad54d",
          "transactionIndex": "0x19",
          "logIndex": "0x6e",
          "removed": false
        },
        {
          "address": "0x64445f0aecc51e94ad52d8ac56b7190e764e561a",
          "topics": [
            "0xddf252ad1be2c89b69c2b068fc378daa952ba7f163c4a11628f55a4df523b3ef",
            "0x00000000000000000000000045dce8e4f2dc005a5f28206a46cb034697eeda8e",
            "0x00000000000000000000000031d982ebd82ad900358984bd049207a4c2468640"
          ],
          "data": "0x000000000000000000000000000000000000000000000000000009184e72a000",
          "blockHash": "0x0000000000000000000000000000000000000000000000000000000000000000",
          "blockNumber": "0x90800a8",
          "blockTimestamp": "0x6a03db09",
          "transactionHash": "0x6829221d8001d7d8a01b047da26ec1946fb48ee8a9a7afcb9c468f200e1ad54d",
          "transactionIndex": "0x19",
          "logIndex": "0x6f",
          "removed": false
        },
        {
          "address": "0x64445f0aecc51e94ad52d8ac56b7190e764e561a",
          "topics": [
            "0x8c5be1e5ebec7d5bd14f71427d1e84f3dd0314c0f7b2291e5b200ac8c7c3b925",
            "0x00000000000000000000000031d982ebd82ad900358984bd049207a4c2468640",
            "0x00000000000000000000000064445f0aecc51e94ad52d8ac56b7190e764e561a"
          ],
          "data": "0x000000000000000000000000000000000000000000000000000009184e72a000",
          "blockHash": "0x0000000000000000000000000000000000000000000000000000000000000000",
          "blockNumber": "0x90800a8",
          "blockTimestamp": "0x6a03db09",
          "transactionHash": "0x6829221d8001d7d8a01b047da26ec1946fb48ee8a9a7afcb9c468f200e1ad54d",
          "transactionIndex": "0x19",
          "logIndex": "0x70",
          "removed": false
        },
        {
          "address": "0x64445f0aecc51e94ad52d8ac56b7190e764e561a",
          "topics": [
            "0xddf252ad1be2c89b69c2b068fc378daa952ba7f163c4a11628f55a4df523b3ef",
            "0x00000000000000000000000031d982ebd82ad900358984bd049207a4c2468640",
            "0x0000000000000000000000000000000000000000000000000000000000000000"
          ],
          "data": "0x000000000000000000000000000000000000000000000000000009184e72a000",
          "blockHash": "0x0000000000000000000000000000000000000000000000000000000000000000",
          "blockNumber": "0x90800a8",
          "blockTimestamp": "0x6a03db09",
          "transactionHash": "0x6829221d8001d7d8a01b047da26ec1946fb48ee8a9a7afcb9c468f200e1ad54d",
          "transactionIndex": "0x19",
          "logIndex": "0x71",
          "removed": false
        },
        {
          "address": "0x1322871e4ab09bc7f5717189434f97bbd9546e95",
          "topics": [
            "0x61ed099e74a97a1d7f8bb0952a88ca8b7b8ebd00c126ea04671f92a81213318a"
          ],
          "data": "0x0000000000000000000000002d2ea0697bdbede3f01553d2ae4b8d0c486b666e000000000000000000000000000000000000000000000000000008494a05760c",
          "blockHash": "0x0000000000000000000000000000000000000000000000000000000000000000",
          "blockNumber": "0x90800a8",
          "blockTimestamp": "0x6a03db09",
          "transactionHash": "0x6829221d8001d7d8a01b047da26ec1946fb48ee8a9a7afcb9c468f200e1ad54d",
          "transactionIndex": "0x19",
          "logIndex": "0x72",
          "removed": false
        },
        {
          "address": "0x1322871e4ab09bc7f5717189434f97bbd9546e95",
          "topics": [
            "0x07ea52d82345d6e838192107d8fd7123d9c2ec8e916cd0aad13fd2b60db24644"
          ],
          "data": "0x00000000000000000000000000000000000000000000000000000000000000600000000000000000000000000000000000000000000000000000000000000120000000000000000000000000000000000000000000000000000000000000014000000000000000000000000000000000000000000000000000000000000000050000000000000000000000005b6735c66d97479ccd18294fc96b3084ecb2fa3f0000000000000000000000006a02d83e8d433304bba74ef1c4279139581871420000000000000000000000007240264781aa2f97cb994c6231297a86064832420000000000000000000000009e930731cb4a6bf7ecc11f695a295c60bdd212eb000000000000000000000000a7b5189bca84cd304d8553977c7c614329750d99000000000000000000000000000000000000000000000000000000000000000000000000000000000000000000000000000000000000000000000000000000050000000000000000000000000000000000000000000000000000013baf4a60e1000000000000000000000000000000000000000000000000000001060c04ca3e0000000000000000000000000000000000000000000000000000015123cc9d22000000000000000000000000000000000000000000000000000001060c04ca3e000000000000000000000000000000000000000000000000000000f097828dfd",
          "blockHash": "0x0000000000000000000000000000000000000000000000000000000000000000",
          "blockNumber": "0x90800a8",
          "blockTimestamp": "0x6a03db09",
          "transactionHash": "0x6829221d8001d7d8a01b047da26ec1946fb48ee8a9a7afcb9c468f200e1ad54d",
          "transactionIndex": "0x19",
          "logIndex": "0x73",
          "removed": false
        },
        {
          "address": "0x1a44076050125825900e736c501f859c50fe728c",
          "topics": [
            "0x1ab700d4ced0c005b164c0f789fd09fcbb0156d4c2041b8a3bfbcd961cd1567f"
          ],
          "data": "0x000000000000000000000000000000000000000000000000000000000000006000000000000000000000000000000000000000000000000000000000000001800000000000000000000000001322871e4ab09bc7f5717189434f97bbd9546e9500000000000000000000000000000000000000000000000000000000000000f901000000000000009d0000759f00000000000000000000000064445f0aecc51e94ad52d8ac56b7190e764e561a0000762f000000000000000000000000d86fbbd0c8715d2c1f40e451e5c3514e65e7576a30040fbf669b38997c35002d9a57441c936e62abcbe7c2efba215d7332b1b9a30000000000000000000000002a2019b30c157db6c1c01306b8025167dbe1803b000000000000000a00000000000000000000000031d982ebd82ad900358984bd049207a4c246864000000000000000000000000045dce8e4f2dc005a5f28206a46cb034697eeda8e000000000000000000000000000000000000000000000000000000000000759600000000000000000000000000000000000000000000000000000000000000000000000000002c0003010011010000000000000000000000000003d090010013030000000000000000000000000000000f42400000000000000000000000000000000000000000",
          "blockHash": "0x0000000000000000000000000000000000000000000000000000000000000000",
          "blockNumber": "0x90800a8",
          "blockTimestamp": "0x6a03db09",
          "transactionHash": "0x6829221d8001d7d8a01b047da26ec1946fb48ee8a9a7afcb9c468f200e1ad54d",
          "transactionIndex": "0x19",
          "logIndex": "0x74",
          "removed": false
        },
        {
          "address": "0x64445f0aecc51e94ad52d8ac56b7190e764e561a",
          "topics": [
            "0x85496b760a4b7f8d66384b9df21b381f5d1b1e79f229a47aaf4c232edc2fe59a",
            "0x30040fbf669b38997c35002d9a57441c936e62abcbe7c2efba215d7332b1b9a3",
            "0x00000000000000000000000031d982ebd82ad900358984bd049207a4c2468640"
          ],
          "data": "0x000000000000000000000000000000000000000000000000000000000000762f000000000000000000000000000000000000000000000000000009184e72a000000000000000000000000000000000000000000000000000000009184e72a000",
          "blockHash": "0x0000000000000000000000000000000000000000000000000000000000000000",
          "blockNumber": "0x90800a8",
          "blockTimestamp": "0x6a03db09",
          "transactionHash": "0x6829221d8001d7d8a01b047da26ec1946fb48ee8a9a7afcb9c468f200e1ad54d",
          "transactionIndex": "0x19",
          "logIndex": "0x75",
          "removed": false
        },
        {
          "address": "0x31d982ebd82ad900358984bd049207a4c2468640",
          "topics": [
            "0xbc9ee36b6ca0bdd5b3840e6d329dd19a2490d880c7ce24d9818aa593adfb35be",
            "0x00000000000000000000000045dce8e4f2dc005a5f28206a46cb034697eeda8e",
            "0x0000000000000000000000000000000000000000000000000000000000007596",
            "0x00000000000000000000000045dce8e4f2dc005a5f28206a46cb034697eeda8e"
          ],
          "data": "0x00000000000000000000000064445f0aecc51e94ad52d8ac56b7190e764e561a000000000000000000000000000000000000000000000000000009184e72a000",
          "blockHash": "0x0000000000000000000000000000000000000000000000000000000000000000",
          "blockNumber": "0x90800a8",
          "blockTimestamp": "0x6a03db09",
          "transactionHash": "0x6829221d8001d7d8a01b047da26ec1946fb48ee8a9a7afcb9c468f200e1ad54d",
          "transactionIndex": "0x19",
          "logIndex": "0x76",
          "removed": false
        }
      ],
      "logsBloom": "0x0000000000000000000000020000000000000000000000000000000000100000000000000000000000000000000400000000000000000000000000000020000000200200000000000000000800000000000000200000000000000000080000000000000002000000800000000000080000000000001010800000001004000000000000000000000000000008000080000000000000000001000000000000000002000010800000002010008c000000000000004000400000000440001000000000000002000000000000000080000000001000800000000000080000000020000010440000000000000000000000802800000008018000000400000000000002",
      "type": "0x2",
      "transactionHash": "0x6829221d8001d7d8a01b047da26ec1946fb48ee8a9a7afcb9c468f200e1ad54d",
      "transactionIndex": "0x19",
      "blockHash": "0x0000000000000000000000000000000000000000000000000000000000000000",
      "blockNumber": "0x90800a8",
      "gasUsed": "0x9349b",
      "effectiveGasPrice": "0x152",
      "blobGasUsed": "0xb6d0",
      "from": "0x45dce8e4f2dc005a5f28206a46cb034697eeda8e",
      "to": "0x31d982ebd82ad900358984bd049207a4c2468640",
      "contractAddress": null,
      "daFootprintGasScalar": "0x190",
      "l1BaseFeeScalar": "0x146b",
      "l1BlobBaseFee": "0x574b15",
      "l1BlobBaseFeeScalar": "0xf79c5",
      "l1Fee": "0x78041a67",
      "l1GasPrice": "0x81c5776",
      "l1GasUsed": "0x752"
    },
    {
      "status": "0x1",
      "cumulativeGasUsed": "0x602984",
      "logs": [
        {
          "address": "0x90581eca9469d8d7f5d3b60f4715027adfcf7927",
          "topics": [
            "0x8c5be1e5ebec7d5bd14f71427d1e84f3dd0314c0f7b2291e5b200ac8c7c3b925",
            "0x00000000000000000000000045dce8e4f2dc005a5f28206a46cb034697eeda8e",
            "0x00000000000000000000000031d982ebd82ad900358984bd049207a4c2468640"
          ],
          "data": "0x000000000000000000000000000000000000000000000000000009184e72a000",
          "blockHash": "0x315fe06580f3f6fa2cb317d180cb20fbece141d952ff2642cbdd243e9701a25d",
          "blockNumber": "0x90800a8",
          "blockTimestamp": "0x6a03db09",
          "transactionHash": "0xf47795bb6c9b1c2e29d2e9c57d9adcccd622648a4398760bb1b0a1e9a7432a51",
          "transactionIndex": "0x1a",
          "logIndex": "0x77",
          "removed": false
        }
      ],
      "logsBloom": "0x00000000000000000000000200000000000000000000000000000000000000000000000000000000000000000000000000000000000000000000000000200000000000000000000000000000000000000000000000000000000000000000000000000000000000000000000000000000000000000000000000000000000000000000000000000004000010000000000000000000000000000000000000000000020000000000000000000080000000000000000000000000000000000000000000000000000000000000000000000000001000000000000000080000000000000010400000000000000000000000800000400000000000000000000000000000",
      "type": "0x2",
      "transactionHash": "0xf47795bb6c9b1c2e29d2e9c57d9adcccd622648a4398760bb1b0a1e9a7432a51",
      "transactionIndex": "0x1a",
      "blockHash": "0x315fe06580f3f6fa2cb317d180cb20fbece141d952ff2642cbdd243e9701a25d",
      "blockNumber": "0x90800a8",
      "gasUsed": "0xd1a6",
      "effectiveGasPrice": "0x152",
      "blobGasUsed": "0x9c40",
      "from": "0x45dce8e4f2dc005a5f28206a46cb034697eeda8e",
      "to": "0x90581eca9469d8d7f5d3b60f4715027adfcf7927",
      "contractAddress": null,
      "daFootprintGasScalar": "0x190",
      "l1BaseFeeScalar": "0x146b",
      "l1BlobBaseFee": "0x574b15",
      "l1BlobBaseFeeScalar": "0xf79c5",
      "l1Fee": "0x666a4262",
      "l1GasPrice": "0x81c5776",
      "l1GasUsed": "0x640"
    },
    {
      "status": "0x1",
      "cumulativeGasUsed": "0x69a101",
      "logs": [
        {
          "address": "0x90581eca9469d8d7f5d3b60f4715027adfcf7927",
          "topics": [
            "0x8c5be1e5ebec7d5bd14f71427d1e84f3dd0314c0f7b2291e5b200ac8c7c3b925",
            "0x00000000000000000000000045dce8e4f2dc005a5f28206a46cb034697eeda8e",
            "0x00000000000000000000000031d982ebd82ad900358984bd049207a4c2468640"
          ],
          "data": "0x0000000000000000000000000000000000000000000000000000000000000000",
          "blockHash": "0x315fe06580f3f6fa2cb317d180cb20fbece141d952ff2642cbdd243e9701a25d",
          "blockNumber": "0x90800a8",
          "blockTimestamp": "0x6a03db09",
          "transactionHash": "0x6e52a1a9f2a1782defc21d8a1a42ef5c849c30a50524fc11de6aa5afa49ca69d",
          "transactionIndex": "0x1b",
          "logIndex": "0x78",
          "removed": false
        },
        {
          "address": "0x90581eca9469d8d7f5d3b60f4715027adfcf7927",
          "topics": [
            "0xddf252ad1be2c89b69c2b068fc378daa952ba7f163c4a11628f55a4df523b3ef",
            "0x00000000000000000000000045dce8e4f2dc005a5f28206a46cb034697eeda8e",
            "0x00000000000000000000000031d982ebd82ad900358984bd049207a4c2468640"
          ],
          "data": "0x000000000000000000000000000000000000000000000000000009184e72a000",
          "blockHash": "0x315fe06580f3f6fa2cb317d180cb20fbece141d952ff2642cbdd243e9701a25d",
          "blockNumber": "0x90800a8",
          "blockTimestamp": "0x6a03db09",
          "transactionHash": "0x6e52a1a9f2a1782defc21d8a1a42ef5c849c30a50524fc11de6aa5afa49ca69d",
          "transactionIndex": "0x1b",
          "logIndex": "0x79",
          "removed": false
        },
        {
          "address": "0x90581eca9469d8d7f5d3b60f4715027adfcf7927",
          "topics": [
            "0x8c5be1e5ebec7d5bd14f71427d1e84f3dd0314c0f7b2291e5b200ac8c7c3b925",
            "0x00000000000000000000000031d982ebd82ad900358984bd049207a4c2468640",
            "0x00000000000000000000000090581eca9469d8d7f5d3b60f4715027adfcf7927"
          ],
          "data": "0x000000000000000000000000000000000000000000000000000009184e72a000",
          "blockHash": "0x315fe06580f3f6fa2cb317d180cb20fbece141d952ff2642cbdd243e9701a25d",
          "blockNumber": "0x90800a8",
          "blockTimestamp": "0x6a03db09",
          "transactionHash": "0x6e52a1a9f2a1782defc21d8a1a42ef5c849c30a50524fc11de6aa5afa49ca69d",
          "transactionIndex": "0x1b",
          "logIndex": "0x7a",
          "removed": false
        },
        {
          "address": "0x90581eca9469d8d7f5d3b60f4715027adfcf7927",
          "topics": [
            "0xddf252ad1be2c89b69c2b068fc378daa952ba7f163c4a11628f55a4df523b3ef",
            "0x00000000000000000000000031d982ebd82ad900358984bd049207a4c2468640",
            "0x0000000000000000000000000000000000000000000000000000000000000000"
          ],
          "data": "0x000000000000000000000000000000000000000000000000000009184e72a000",
          "blockHash": "0x315fe06580f3f6fa2cb317d180cb20fbece141d952ff2642cbdd243e9701a25d",
          "blockNumber": "0x90800a8",
          "blockTimestamp": "0x6a03db09",
          "transactionHash": "0x6e52a1a9f2a1782defc21d8a1a42ef5c849c30a50524fc11de6aa5afa49ca69d",
          "transactionIndex": "0x1b",
          "logIndex": "0x7b",
          "removed": false
        },
        {
          "address": "0x1322871e4ab09bc7f5717189434f97bbd9546e95",
          "topics": [
            "0x61ed099e74a97a1d7f8bb0952a88ca8b7b8ebd00c126ea04671f92a81213318a"
          ],
          "data": "0x0000000000000000000000002d2ea0697bdbede3f01553d2ae4b8d0c486b666e000000000000000000000000000000000000000000000000000008494a05760c",
          "blockHash": "0x315fe06580f3f6fa2cb317d180cb20fbece141d952ff2642cbdd243e9701a25d",
          "blockNumber": "0x90800a8",
          "blockTimestamp": "0x6a03db09",
          "transactionHash": "0x6e52a1a9f2a1782defc21d8a1a42ef5c849c30a50524fc11de6aa5afa49ca69d",
          "transactionIndex": "0x1b",
          "logIndex": "0x7c",
          "removed": false
        },
        {
          "address": "0x1322871e4ab09bc7f5717189434f97bbd9546e95",
          "topics": [
            "0x07ea52d82345d6e838192107d8fd7123d9c2ec8e916cd0aad13fd2b60db24644"
          ],
          "data": "0x00000000000000000000000000000000000000000000000000000000000000600000000000000000000000000000000000000000000000000000000000000120000000000000000000000000000000000000000000000000000000000000014000000000000000000000000000000000000000000000000000000000000000050000000000000000000000005b6735c66d97479ccd18294fc96b3084ecb2fa3f0000000000000000000000006a02d83e8d433304bba74ef1c4279139581871420000000000000000000000007240264781aa2f97cb994c6231297a86064832420000000000000000000000009e930731cb4a6bf7ecc11f695a295c60bdd212eb000000000000000000000000a7b5189bca84cd304d8553977c7c614329750d99000000000000000000000000000000000000000000000000000000000000000000000000000000000000000000000000000000000000000000000000000000050000000000000000000000000000000000000000000000000000013baf4a60e1000000000000000000000000000000000000000000000000000001060c04ca3e0000000000000000000000000000000000000000000000000000015123cc9d22000000000000000000000000000000000000000000000000000001060c04ca3e000000000000000000000000000000000000000000000000000000f097828dfd",
          "blockHash": "0x315fe06580f3f6fa2cb317d180cb20fbece141d952ff2642cbdd243e9701a25d",
          "blockNumber": "0x90800a8",
          "blockTimestamp": "0x6a03db09",
          "transactionHash": "0x6e52a1a9f2a1782defc21d8a1a42ef5c849c30a50524fc11de6aa5afa49ca69d",
          "transactionIndex": "0x1b",
          "logIndex": "0x7d",
          "removed": false
        },
        {
          "address": "0x1a44076050125825900e736c501f859c50fe728c",
          "topics": [
            "0x1ab700d4ced0c005b164c0f789fd09fcbb0156d4c2041b8a3bfbcd961cd1567f"
          ],
          "data": "0x000000000000000000000000000000000000000000000000000000000000006000000000000000000000000000000000000000000000000000000000000001800000000000000000000000001322871e4ab09bc7f5717189434f97bbd9546e9500000000000000000000000000000000000000000000000000000000000000f90100000000000000020000759f00000000000000000000000090581eca9469d8d7f5d3b60f4715027adfcf79270000762f00000000000000000000000075c38d46001b0f8108c4136216bd2694982c20fcc78fdf556dd00116da0a05f0572ed6df81bead829cfbea6b4fc660e584a3344a0000000000000000000000002a2019b30c157db6c1c01306b8025167dbe1803b000000000000000a00000000000000000000000031d982ebd82ad900358984bd049207a4c246864000000000000000000000000045dce8e4f2dc005a5f28206a46cb034697eeda8e000000000000000000000000000000000000000000000000000000000000759600000000000000000000000000000000000000000000000000000000000000000000000000002c0003010011010000000000000000000000000003d090010013030000000000000000000000000000000f42400000000000000000000000000000000000000000",
          "blockHash": "0x315fe06580f3f6fa2cb317d180cb20fbece141d952ff2642cbdd243e9701a25d",
          "blockNumber": "0x90800a8",
          "blockTimestamp": "0x6a03db09",
          "transactionHash": "0x6e52a1a9f2a1782defc21d8a1a42ef5c849c30a50524fc11de6aa5afa49ca69d",
          "transactionIndex": "0x1b",
          "logIndex": "0x7e",
          "removed": false
        },
        {
          "address": "0x90581eca9469d8d7f5d3b60f4715027adfcf7927",
          "topics": [
            "0x85496b760a4b7f8d66384b9df21b381f5d1b1e79f229a47aaf4c232edc2fe59a",
            "0xc78fdf556dd00116da0a05f0572ed6df81bead829cfbea6b4fc660e584a3344a",
            "0x00000000000000000000000031d982ebd82ad900358984bd049207a4c2468640"
          ],
          "data": "0x000000000000000000000000000000000000000000000000000000000000762f000000000000000000000000000000000000000000000000000009184e72a000000000000000000000000000000000000000000000000000000009184e72a000",
          "blockHash": "0x315fe06580f3f6fa2cb317d180cb20fbece141d952ff2642cbdd243e9701a25d",
          "blockNumber": "0x90800a8",
          "blockTimestamp": "0x6a03db09",
          "transactionHash": "0x6e52a1a9f2a1782defc21d8a1a42ef5c849c30a50524fc11de6aa5afa49ca69d",
          "transactionIndex": "0x1b",
          "logIndex": "0x7f",
          "removed": false
        },
        {
          "address": "0x31d982ebd82ad900358984bd049207a4c2468640",
          "topics": [
            "0xbc9ee36b6ca0bdd5b3840e6d329dd19a2490d880c7ce24d9818aa593adfb35be",
            "0x00000000000000000000000045dce8e4f2dc005a5f28206a46cb034697eeda8e",
            "0x0000000000000000000000000000000000000000000000000000000000007596",
            "0x00000000000000000000000045dce8e4f2dc005a5f28206a46cb034697eeda8e"
          ],
          "data": "0x00000000000000000000000090581eca9469d8d7f5d3b60f4715027adfcf7927000000000000000000000000000000000000000000000000000009184e72a000",
          "blockHash": "0x315fe06580f3f6fa2cb317d180cb20fbece141d952ff2642cbdd243e9701a25d",
          "blockNumber": "0x90800a8",
          "blockTimestamp": "0x6a03db09",
          "transactionHash": "0x6e52a1a9f2a1782defc21d8a1a42ef5c849c30a50524fc11de6aa5afa49ca69d",
          "transactionIndex": "0x1b",
          "logIndex": "0x80",
          "removed": false
        }
      ],
      "logsBloom": "0x00000000000000000000000200000000000000000000000000000000001000000000000000000000000000002004000000000000000000000000000000200000000002000000000000000008000000000000000000000000000000000000000000000000020004008000000000000800000000010010108000000010040000000000000000000004000010080008800000000000000000010000000000000000020000108000000020100080000000020000004000400000000440001000000000000002000000000000000080000100001000000000000000080000000020000010440000000000000000000000802000400000018000000400000000000000",
      "type": "0x2",
      "transactionHash": "0x6e52a1a9f2a1782defc21d8a1a42ef5c849c30a50524fc11de6aa5afa49ca69d",
      "transactionIndex": "0x1b",
      "blockHash": "0x315fe06580f3f6fa2cb317d180cb20fbece141d952ff2642cbdd243e9701a25d",
      "blockNumber": "0x90800a8",
      "gasUsed": "0x9777d",
      "effectiveGasPrice": "0x152",
      "blobGasUsed": "0xb6d0",
      "from": "0x45dce8e4f2dc005a5f28206a46cb034697eeda8e",
      "to": "0x31d982ebd82ad900358984bd049207a4c2468640",
      "contractAddress": null,
      "daFootprintGasScalar": "0x190",
      "l1BaseFeeScalar": "0x146b",
      "l1BlobBaseFee": "0x574b15",
      "l1BlobBaseFeeScalar": "0xf79c5",
      "l1Fee": "0x78041a67",
      "l1GasPrice": "0x81c5776",
      "l1GasUsed": "0x752"
    }
  ],
  "libraries": [],
  "pending": [],
  "returns": {},
  "timestamp": 1778637578220,
  "chain": 10,
  "commit": "3c1e5d2a"
}