{
  "transactions": [
    {
      "hash": "0x6667725b78b87c746ba45c6b6871c44ab4ee6754ba5f98a51603f36da4ac5561",
      "transactionType": "CALL",
      "contractName": null,
      "contractAddress": "0x90581eca9469d8d7f5d3b60f4715027adfcf7927",
      "function": "approve(address,uint256)",
      "arguments": [
        "0x6cA98f43719231d38F6426DB64C7F3D5C7CE7876",
        "10000000000000"
      ],
      "transaction": {
        "from": "0x45dce8e4f2dc005a5f28206a46cb034697eeda8e",
        "to": "0x90581eca9469d8d7f5d3b60f4715027adfcf7927",
        "gas": "0xb644",
        "value": "0x0",
        "input": "0x095ea7b30000000000000000000000006ca98f43719231d38f6426db64c7f3d5c7ce7876000000000000000000000000000000000000000000000000000009184e72a000",
        "nonce": "0x96",
        "chainId": "0x18232"
      },
      "additionalContracts": [],
      "isFixedGasLimit": false
    },
    {
      "hash": "0xeec5be3ffa6fac655cf33b2f2771d434dc9e84c246924e53ca44a2ba86a5c830",
      "transactionType": "CALL",
      "contractName": null,
      "contractAddress": "0x6ca98f43719231d38f6426db64c7f3d5c7ce7876",
      "function": "sendOFT(address,uint32,bytes32,uint256)",
      "arguments": [
        "0x90581eCa9469D8D7F5D3B60f4715027aDFCf7927",
        "30375",
        "0x00000000000000000000000045dce8e4f2dc005a5f28206a46cb034697eeda8e",
        "10000000000000"
      ],
      "transaction": {
        "from": "0x45dce8e4f2dc005a5f28206a46cb034697eeda8e",
        "to": "0x6ca98f43719231d38f6426db64c7f3d5c7ce7876",
        "gas": "0xdbe8d",
        "value": "0x3ddf287d5fc9f6d7",
        "input": "0x3e832c9000000000000000000000000090581eca9469d8d7f5d3b60f4715027adfcf792700000000000000000000000000000000000000000000000000000000000076a700000000000000000000000045dce8e4f2dc005a5f28206a46cb034697eeda8e000000000000000000000000000000000000000000000000000009184e72a000",
        "nonce": "0x97",
        "chainId": "0x18232"
      },
      "additionalContracts": [],
      "isFixedGasLimit": false
    }
  ],
  "receipts": [
    {
      "status": "0x1",
      "cumulativeGasUsed": "0x83f6",
      "logs": [
        {
          "address": "0x90581eca9469d8d7f5d3b60f4715027adfcf7927",
          "topics": [
            "0x8c5be1e5ebec7d5bd14f71427d1e84f3dd0314c0f7b2291e5b200ac8c7c3b925",
            "0x00000000000000000000000045dce8e4f2dc005a5f28206a46cb034697eeda8e",
            "0x0000000000000000000000006ca98f43719231d38f6426db64c7f3d5c7ce7876"
          ],
          "data": "0x000000000000000000000000000000000000000000000000000009184e72a000",
          "blockHash": "0xf270fd3cf0e5263efae8681400152ba98bf664a0e8b5e0953e181f8ded570e35",
          "blockNumber": "0x40b2528",
          "blockTimestamp": "0x6a042615",
          "transactionHash": "0x6667725b78b87c746ba45c6b6871c44ab4ee6754ba5f98a51603f36da4ac5561",
          "transactionIndex": "0x1",
          "logIndex": "0x0",
          "removed": false
        }
      ],
      "logsBloom": "0x00000000000000000000000200000000000000000000000000000000000000000000000000000000000000000000000000000000000000000000000000200000000000000000000000000000000000000000000000000000000000000000000000000000000000000000000000000000000000000000000000000000080000000000000080000004000010000000000000000000000000000000000000000000020000000000000000000000000000000000000000000000000000000000000000000000000000800000000000000000001000000000000000000000000000000010000000000000000000000000800000400000000000000000000000000000",
      "type": "0x2",
      "transactionHash": "0x6667725b78b87c746ba45c6b6871c44ab4ee6754ba5f98a51603f36da4ac5561",
      "transactionIndex": "0x1",
      "blockHash": "0xf270fd3cf0e5263efae8681400152ba98bf664a0e8b5e0953e181f8ded570e35",
      "blockNumber": "0x40b2528",
      "gasUsed": "0x83f6",
      "effectiveGasPrice": "0xe8d4a51000",
      "from": "0x45dce8e4f2dc005a5f28206a46cb034697eeda8e",
      "to": "0x90581eca9469d8d7f5d3b60f4715027adfcf7927",
      "contractAddress": null,
      "gasUsedForL1": "0x0",
      "l1BlockNumber": "0x17ec307"
    },
    {
      "status": "0x1",
      "cumulativeGasUsed": "0x965d9",
      "logs": [
        {
          "address": "0x90581eca9469d8d7f5d3b60f4715027adfcf7927",
          "topics": [
            "0x8c5be1e5ebec7d5bd14f71427d1e84f3dd0314c0f7b2291e5b200ac8c7c3b925",
            "0x00000000000000000000000045dce8e4f2dc005a5f28206a46cb034697eeda8e",
            "0x0000000000000000000000006ca98f43719231d38f6426db64c7f3d5c7ce7876"
          ],
          "data": "0x0000000000000000000000000000000000000000000000000000000000000000",
          "blockHash": "0xae808b6b8827617149a7e990f2eeea51673986c3c50e933332743656caaaafe9",
          "blockNumber": "0x40b2529",
          "blockTimestamp": "0x6a042615",
          "transactionHash": "0xeec5be3ffa6fac655cf33b2f2771d434dc9e84c246924e53ca44a2ba86a5c830",
          "transactionIndex": "0x1",
          "logIndex": "0x0",
          "removed": false
        },
        {
          "address": "0x90581eca9469d8d7f5d3b60f4715027adfcf7927",
          "topics": [
            "0xddf252ad1be2c89b69c2b068fc378daa952ba7f163c4a11628f55a4df523b3ef",
            "0x00000000000000000000000045dce8e4f2dc005a5f28206a46cb034697eeda8e",
            "0x0000000000000000000000006ca98f43719231d38f6426db64c7f3d5c7ce7876"
          ],
          "data": "0x000000000000000000000000000000000000000000000000000009184e72a000",
          "blockHash": "0xae808b6b8827617149a7e990f2eeea51673986c3c50e933332743656caaaafe9",
          "blockNumber": "0x40b2529",
          "blockTimestamp": "0x6a042615",
          "transactionHash": "0xeec5be3ffa6fac655cf33b2f2771d434dc9e84c246924e53ca44a2ba86a5c830",
          "transactionIndex": "0x1",
          "logIndex": "0x1",
          "removed": false
        },
        {
          "address": "0x90581eca9469d8d7f5d3b60f4715027adfcf7927",
          "topics": [
            "0x8c5be1e5ebec7d5bd14f71427d1e84f3dd0314c0f7b2291e5b200ac8c7c3b925",
            "0x0000000000000000000000006ca98f43719231d38f6426db64c7f3d5c7ce7876",
            "0x00000000000000000000000090581eca9469d8d7f5d3b60f4715027adfcf7927"
          ],
          "data": "0x000000000000000000000000000000000000000000000000000009184e72a000",
          "blockHash": "0xae808b6b8827617149a7e990f2eeea51673986c3c50e933332743656caaaafe9",
          "blockNumber": "0x40b2529",
          "blockTimestamp": "0x6a042615",
          "transactionHash": "0xeec5be3ffa6fac655cf33b2f2771d434dc9e84c246924e53ca44a2ba86a5c830",
          "transactionIndex": "0x1",
          "logIndex": "0x2",
          "removed": false
        },
        {
          "address": "0x90581eca9469d8d7f5d3b60f4715027adfcf7927",
          "topics": [
            "0xddf252ad1be2c89b69c2b068fc378daa952ba7f163c4a11628f55a4df523b3ef",
            "0x0000000000000000000000006ca98f43719231d38f6426db64c7f3d5c7ce7876",
            "0x0000000000000000000000000000000000000000000000000000000000000000"
          ],
          "data": "0x000000000000000000000000000000000000000000000000000009184e72a000",
          "blockHash": "0xae808b6b8827617149a7e990f2eeea51673986c3c50e933332743656caaaafe9",
          "blockNumber": "0x40b2529",
          "blockTimestamp": "0x6a042615",
          "transactionHash": "0xeec5be3ffa6fac655cf33b2f2771d434dc9e84c246924e53ca44a2ba86a5c830",
          "transactionIndex": "0x1",
          "logIndex": "0x3",
          "removed": false
        },
        {
          "address": "0xfe7c30860d01e28371d40434806f4a8fcdd3a098",
          "topics": [
            "0x61ed099e74a97a1d7f8bb0952a88ca8b7b8ebd00c126ea04671f92a81213318a"
          ],
          "data": "0x00000000000000000000000041bdb4aa4a63a5b2efc531858d3118392b1a1c3d0000000000000000000000000000000000000000000000001466a89b57f105b0",
          "blockHash": "0xae808b6b8827617149a7e990f2eeea51673986c3c50e933332743656caaaafe9",
          "blockNumber": "0x40b2529",
          "blockTimestamp": "0x6a042615",
          "transactionHash": "0xeec5be3ffa6fac655cf33b2f2771d434dc9e84c246924e53ca44a2ba86a5c830",
          "transactionIndex": "0x1",
          "logIndex": "0x4",
          "removed": false
        },
        {
          "address": "0xfe7c30860d01e28371d40434806f4a8fcdd3a098",
          "topics": [
            "0x07ea52d82345d6e838192107d8fd7123d9c2ec8e916cd0aad13fd2b60db24644"
          ],
          "data": "0x00000000000000000000000000000000000000000000000000000000000000600000000000000000000000000000000000000000000000000000000000000120000000000000000000000000000000000000000000000000000000000000014000000000000000000000000000000000000000000000000000000000000000050000000000000000000000001e4ce74ccf5498b19900649d9196e64bab592451000000000000000000000000395b14700812cccc38b8e64f0a06ce2045fe9ba30000000000000000000000004208d6e27538189bb48e603d6123a94b8abe0a0b0000000000000000000000005e0744f8fbf26446c683bcf4cd405ad56ba76f8a000000000000000000000000882a1ee8891c7d22310dedf032ef9653785532b80000000000000000000000000000000000000000000000000000000000000000000000000000000000000000000000000000000000000000000000000000000500000000000000000000000000000000000000000000000003bde5deb787bfdb0000000000000000000000000000000000000000000000000380f0441be2924100000000000000000000000000000000000000000000000003bde5deb787bfdb00000000000000000000000000000000000000000000000003bde5deb787bfdb0000000000000000000000000000000000000000000000000380f0441be29241",
          "blockHash": "0xae808b6b8827617149a7e990f2eeea51673986c3c50e933332743656caaaafe9",
          "blockNumber": "0x40b2529",
          "blockTimestamp": "0x6a042615",
          "transactionHash": "0xeec5be3ffa6fac655cf33b2f2771d434dc9e84c246924e53ca44a2ba86a5c830",
          "transactionIndex": "0x1",
          "logIndex": "0x5",
          "removed": false
        },
        {
          "address": "0xc1b15d3b262beec0e3565c11c9e0f6134bdacb36",
          "topics": [
            "0x1ab700d4ced0c005b164c0f789fd09fcbb0156d4c2041b8a3bfbcd961cd1567f"
          ],
          "data": "0x00000000000000000000000000000000000000000000000000000000000000600000000000000000000000000000000000000000000000000000000000000180000000000000000000000000fe7c30860d01e28371d40434806f4a8fcdd3a09800000000000000000000000000000000000000000000000000000000000000f9010000000000000003000076a200000000000000000000000090581eca9469d8d7f5d3b60f4715027adfcf79270000762f00000000000000000000000075c38d46001b0f8108c4136216bd2694982c20fcc3e20e795a0d5072fad263182ec99bf7c381a5a64d4bc2769bf6a49f34d89eab0000000000000000000000002a2019b30c157db6c1c01306b8025167dbe1803b000000000000000a0000000000000000000000006ca98f43719231d38f6426db64c7f3d5c7ce787600000000000000000000000045dce8e4f2dc005a5f28206a46cb034697eeda8e00000000000000000000000000000000000000000000000000000000000076a700000000000000000000000000000000000000000000000000000000000000000000000000002c0003010011010000000000000000000000000003d090010013030000000000000000000000000000000f42400000000000000000000000000000000000000000",
          "blockHash": "0xae808b6b8827617149a7e990f2eeea51673986c3c50e933332743656caaaafe9",
          "blockNumber": "0x40b2529",
          "blockTimestamp": "0x6a042615",
          "transactionHash": "0xeec5be3ffa6fac655cf33b2f2771d434dc9e84c246924e53ca44a2ba86a5c830",
          "transactionIndex": "0x1",
          "logIndex": "0x6",
          "removed": false
        },
        {
          "address": "0x90581eca9469d8d7f5d3b60f4715027adfcf7927",
          "topics": [
            "0x85496b760a4b7f8d66384b9df21b381f5d1b1e79f229a47aaf4c232edc2fe59a",
            "0xc3e20e795a0d5072fad263182ec99bf7c381a5a64d4bc2769bf6a49f34d89eab",
            "0x0000000000000000000000006ca98f43719231d38f6426db64c7f3d5c7ce7876"
          ],
          "data": "0x000000000000000000000000000000000000000000000000000000000000762f000000000000000000000000000000000000000000000000000009184e72a000000000000000000000000000000000000000000000000000000009184e72a000",
          "blockHash": "0xae808b6b8827617149a7e990f2eeea51673986c3c50e933332743656caaaafe9",
          "blockNumber": "0x40b2529",
          "blockTimestamp": "0x6a042615",
          "transactionHash": "0xeec5be3ffa6fac655cf33b2f2771d434dc9e84c246924e53ca44a2ba86a5c830",
          "transactionIndex": "0x1",
          "logIndex": "0x7",
          "removed": false
        },
        {
          "address": "0x6ca98f43719231d38f6426db64c7f3d5c7ce7876",
          "topics": [
            "0xbc9ee36b6ca0bdd5b3840e6d329dd19a2490d880c7ce24d9818aa593adfb35be",
            "0x00000000000000000000000045dce8e4f2dc005a5f28206a46cb034697eeda8e",
            "0x00000000000000000000000000000000000000000000000000000000000076a7",
            "0x00000000000000000000000045dce8e4f2dc005a5f28206a46cb034697eeda8e"
          ],
          "data": "0x00000000000000000000000090581eca9469d8d7f5d3b60f4715027adfcf7927000000000000000000000000000000000000000000000000000009184e72a000",
          "blockHash": "0xae808b6b8827617149a7e990f2eeea51673986c3c50e933332743656caaaafe9",
          "blockNumber": "0x40b2529",
          "blockTimestamp": "0x6a042615",
          "transactionHash": "0xeec5be3ffa6fac655cf33b2f2771d434dc9e84c246924e53ca44a2ba86a5c830",
          "transactionIndex": "0x1",
          "logIndex": "0x8",
          "removed": false
        }
      ],
      "logsBloom": "0x000000000000000000000002000000020000004000000000002000000000000000000020000200000000020000000000000000000000000400000000002000000000028000000000000000080000000000000000000000000000000000000000000000000200000080000000000808000000000100001000000000100800000000000000800000040000100800080000000000000000000000000000000000000200001880000000201000000000000000000000004000000004400000000000000000424000008000000000c0000100001000000000000000000001000020000010040000000000000000000000802000400000008000000000000000000000",
      "type": "0x2",
      "transactionHash": "0xeec5be3ffa6fac655cf33b2f2771d434dc9e84c246924e53ca44a2ba86a5c830",
      "transactionIndex": "0x1",
      "blockHash": "0xae808b6b8827617149a7e990f2eeea51673986c3c50e933332743656caaaafe9",
      "blockNumber": "0x40b2529",
      "gasUsed": "0x965d9",
      "effectiveGasPrice": "0xe8d4a51000",
      "from": "0x45dce8e4f2dc005a5f28206a46cb034697eeda8e",
      "to": "0x6ca98f43719231d38f6426db64c7f3d5c7ce7876",
      "contractAddress": null,
      "gasUsedForL1": "0x0",
      "l1BlockNumber": "0x17ec307"
    }
  ],
  "libraries": [],
  "pending": [],
  "returns": {},
  "timestamp": 1778656790061,
  "chain": 98866,
  "commit": "3c1e5d2a"
}