{
  "transactions": [
    {
      "hash": "0x04ee87d386ce56c0be8249c58d3022b361b711b5590e2e9212d3b69e8a5a7d44",
      "transactionType": "CALL",
      "contractName": null,
      "contractAddress": "0x80eede496655fb9047dd39d9f418d5483ed600df",
      "function": "approve(address,uint256)",
      "arguments": [
        "0x6cA98f43719231d38F6426DB64C7F3D5C7CE7876",
        "10000000000000"
      ],
      "transaction": {
        "from": "0x45dce8e4f2dc005a5f28206a46cb034697eeda8e",
        "to": "0x80eede496655fb9047dd39d9f418d5483ed600df",
        "gas": "0x132ad",
        "value": "0x0",
        "input": "0x095ea7b30000000000000000000000006ca98f43719231d38f6426db64c7f3d5c7ce7876000000000000000000000000000000000000000000000000000009184e72a000",
        "nonce": "0x8b",
        "chainId": "0x18232"
      },
      "additionalContracts": [],
      "isFixedGasLimit": false
    },
    {
      "hash": "0x7b089b244d4e5fd4920b4f607ccdb78a0cc3a99a3145ab3c5cfbf0c71fcb9f7d",
      "transactionType": "CALL",
      "contractName": null,
      "contractAddress": "0x6ca98f43719231d38f6426db64c7f3d5c7ce7876",
      "function": "sendOFT(address,uint32,bytes32,uint256)",
      "arguments": [
        "0x80Eede496655FB9047dd39d9f418d5483ED600df",
        "30375",
        "0x00000000000000000000000045dce8e4f2dc005a5f28206a46cb034697eeda8e",
        "10000000000000"
      ],
      "transaction": {
        "from": "0x45dce8e4f2dc005a5f28206a46cb034697eeda8e",
        "to": "0x6ca98f43719231d38f6426db64c7f3d5c7ce7876",
        "gas": "0xd5aec",
        "value": "0x3ddf287d5fc9f6d7",
        "input": "0x3e832c9000000000000000000000000080eede496655fb9047dd39d9f418d5483ed600df00000000000000000000000000000000000000000000000000000000000076a700000000000000000000000045dce8e4f2dc005a5f28206a46cb034697eeda8e000000000000000000000000000000000000000000000000000009184e72a000",
        "nonce": "0x8c",
        "chainId": "0x18232"
      },
      "additionalContracts": [],
      "isFixedGasLimit": false
    },
    {
      "hash": "0x78b830eb9964314201b1a2d0f5eae1c39348f6fc243d441f3d8ebe09396fcc17",
      "transactionType": "CALL",
      "contractName": null,
      "contractAddress": "0x5bff88ca1442c2496f7e475e9e7786383bc070c0",
      "function": "approve(address,uint256)",
      "arguments": [
        "0x6cA98f43719231d38F6426DB64C7F3D5C7CE7876",
        "10000000000000"
      ],
      "transaction": {
        "from": "0x45dce8e4f2dc005a5f28206a46cb034697eeda8e",
        "to": "0x5bff88ca1442c2496f7e475e9e7786383bc070c0",
        "gas": "0x12184",
        "value": "0x0",
        "input": "0x095ea7b30000000000000000000000006ca98f43719231d38f6426db64c7f3d5c7ce7876000000000000000000000000000000000000000000000000000009184e72a000",
        "nonce": "0x8d",
        "chainId": "0x18232"
      },
      "additionalContracts": [],
      "isFixedGasLimit": false
    },
    {
      "hash": "0x06e150dedab0dea4e8bb9f8382099425328d2a7648f33e2e8a98ddf5ce12baaa",
      "transactionType": "CALL",
      "contractName": null,
      "contractAddress": "0x6ca98f43719231d38f6426db64c7f3d5c7ce7876",
      "function": "sendOFT(address,uint32,bytes32,uint256)",
      "arguments": [
        "0x5Bff88cA1442c2496f7E475E9e7786383Bc070c0",
        "30375",
        "0x00000000000000000000000045dce8e4f2dc005a5f28206a46cb034697eeda8e",
        "10000000000000"
      ],
      "transaction": {
        "from": "0x45dce8e4f2dc005a5f28206a46cb034697eeda8e",
        "to": "0x6ca98f43719231d38f6426db64c7f3d5c7ce7876",
        "gas": "0xdbe6c",
        "value": "0x3ddf287d5fc9f6d7",
        "input": "0x3e832c900000000000000000000000005bff88ca1442c2496f7e475e9e7786383bc070c000000000000000000000000000000000000000000000000000000000000076a700000000000000000000000045dce8e4f2dc005a5f28206a46cb034697eeda8e000000000000000000000000000000000000000000000000000009184e72a000",
        "nonce": "0x8e",
        "chainId": "0x18232"
      },
      "additionalContracts": [],
      "isFixedGasLimit": false
    },
    {
      "hash": "0xa77f5994214a6513f079eb540322dfc55198b165e0de8e7b10cee285dab70e00",
      "transactionType": "CALL",
      "contractName": null,
      "contractAddress": "0x43edd7f3831b08fe70b7555ddd373c8bf65a9050",
      "function": "approve(address,uint256)",
      "arguments": [
        "0x6cA98f43719231d38F6426DB64C7F3D5C7CE7876",
        "10000000000000"
      ],
      "transaction": {
        "from": "0x45dce8e4f2dc005a5f28206a46cb034697eeda8e",
        "to": "0x43edd7f3831b08fe70b7555ddd373c8bf65a9050",
        "gas": "0x132ad",
        "value": "0x0",
        "input": "0x095ea7b30000000000000000000000006ca98f43719231d38f6426db64c7f3d5c7ce7876000000000000000000000000000000000000000000000000000009184e72a000",
        "nonce": "0x8f",
        "chainId": "0x18232"
      },
      "additionalContracts": [],
      "isFixedGasLimit": false
    },
    {
      "hash": "0xe7f160cb013015c2241b94cba6e81e3ec1f4359da3fb72bf5982cee5db2d060e",
      "transactionType": "CALL",
      "contractName": null,
      "contractAddress": "0x6ca98f43719231d38f6426db64c7f3d5c7ce7876",
      "function": "sendOFT(address,uint32,bytes32,uint256)",
      "arguments": [
        "0x43eDD7f3831b08FE70B7555ddD373C8bF65a9050",
        "30375",
        "0x00000000000000000000000045dce8e4f2dc005a5f28206a46cb034697eeda8e",
        "10000000000000"
      ],
      "transaction": {
        "from": "0x45dce8e4f2dc005a5f28206a46cb034697eeda8e",
        "to": "0x6ca98f43719231d38f6426db64c7f3d5c7ce7876",
        "gas": "0xdbe8d",
        "value": "0x3ddf287d5fc9f6d7",
        "input": "0x3e832c9000000000000000000000000043edd7f3831b08fe70b7555ddd373c8bf65a905000000000000000000000000000000000000000000000000000000000000076a700000000000000000000000045dce8e4f2dc005a5f28206a46cb034697eeda8e000000000000000000000000000000000000000000000000000009184e72a000",
        "nonce": "0x90",
        "chainId": "0x18232"
      },
      "additionalContracts": [],
      "isFixedGasLimit": false
    },
    {
      "hash": "0x53419d0499e7ea763983a8c62cf90f4c6bd2fec9563c38995d25e9bd83251248",
      "transactionType": "CALL",
      "contractName": null,
      "contractAddress": "0x3ec3849c33291a9ef4c5db86de593eb4a37fde45",
      "function": "approve(address,uint256)",
      "arguments": [
        "0x6cA98f43719231d38F6426DB64C7F3D5C7CE7876",
        "10000000000000"
      ],
      "transaction": {
        "from": "0x45dce8e4f2dc005a5f28206a46cb034697eeda8e",
        "to": "0x3ec3849c33291a9ef4c5db86de593eb4a37fde45",
        "gas": "0x132ad",
        "value": "0x0",
        "input": "0x095ea7b30000000000000000000000006ca98f43719231d38f6426db64c7f3d5c7ce7876000000000000000000000000000000000000000000000000000009184e72a000",
        "nonce": "0x91",
        "chainId": "0x18232"
      },
      "additionalContracts": [],
      "isFixedGasLimit": false
    },
    {
      "hash": "0x94f57b30d22cf0bc00df0da52f8a92b275c4a0d4d3e176a4864f9ef242a405b5",
      "transactionType": "CALL",
      "contractName": null,
      "contractAddress": "0x6ca98f43719231d38f6426db64c7f3d5c7ce7876",
      "function": "sendOFT(address,uint32,bytes32,uint256)",
      "arguments": [
        "0x3Ec3849C33291a9eF4c5dB86De593EB4A37fDe45",
        "30375",
        "0x00000000000000000000000045dce8e4f2dc005a5f28206a46cb034697eeda8e",
        "10000000000000"
      ],
      "transaction": {
        "from": "0x45dce8e4f2dc005a5f28206a46cb034697eeda8e",
        "to": "0x6ca98f43719231d38f6426db64c7f3d5c7ce7876",
        "gas": "0xdbe8d",
        "value": "0x3ddf287d5fc9f6d7",
        "input": "0x3e832c900000000000000000000000003ec3849c33291a9ef4c5db86de593eb4a37fde4500000000000000000000000000000000000000000000000000000000000076a700000000000000000000000045dce8e4f2dc005a5f28206a46cb034697eeda8e000000000000000000000000000000000000000000000000000009184e72a000",
        "nonce": "0x92",
        "chainId": "0x18232"
      },
      "additionalContracts": [],
      "isFixedGasLimit": false
    },
    {
      "hash": "0x65e9fa1c155ec54517b32ec694dae8dffb537c55ff13fa7539d85341ec0b7c69",
      "transactionType": "CALL",
      "contractName": null,
      "contractAddress": "0x64445f0aecc51e94ad52d8ac56b7190e764e561a",
      "function": "approve(address,uint256)",
      "arguments": [
        "0x6cA98f43719231d38F6426DB64C7F3D5C7CE7876",
        "10000000000000"
      ],
      "transaction": {
        "from": "0x45dce8e4f2dc005a5f28206a46cb034697eeda8e",
        "to": "0x64445f0aecc51e94ad52d8ac56b7190e764e561a",
        "gas": "0x12184",
        "value": "0x0",
        "input": "0x095ea7b30000000000000000000000006ca98f43719231d38f6426db64c7f3d5c7ce7876000000000000000000000000000000000000000000000000000009184e72a000",
        "nonce": "0x93",
        "chainId": "0x18232"
      },
      "additionalContracts": [],
      "isFixedGasLimit": false
    },
    {
      "hash": "0xf3478a97fd74d587d7fef52dc1fb81082126ceb8911b754c6ad7031750522aa7",
      "transactionType": "CALL",
      "contractName": null,
      "contractAddress": "0x6ca98f43719231d38f6426db64c7f3d5c7ce7876",
      "function": "sendOFT(address,uint32,bytes32,uint256)",
      "arguments": [
        "0x64445f0aecC51E94aD52d8AC56b7190e764E561a",
        "30375",
        "0x00000000000000000000000045dce8e4f2dc005a5f28206a46cb034697eeda8e",
        "10000000000000"
      ],
      "transaction": {
        "from": "0x45dce8e4f2dc005a5f28206a46cb034697eeda8e",
        "to": "0x6ca98f43719231d38f6426db64c7f3d5c7ce7876",
        "gas": "0xdbe6c",
        "value": "0x3ddf287d5fc9f6d7",
        "input": "0x3e832c9000000000000000000000000064445f0aecc51e94ad52d8ac56b7190e764e561a00000000000000000000000000000000000000000000000000000000000076a700000000000000000000000045dce8e4f2dc005a5f28206a46cb034697eeda8e000000000000000000000000000000000000000000000000000009184e72a000",
        "nonce": "0x94",
        "chainId": "0x18232"
      },
      "additionalContracts": [],
      "isFixedGasLimit": false
    },
    {
      "hash": "0xf99558a2974d1131babcbbff6c442ed0e72ae86cd8eea871c64f5dcd4fa88b0d",
      "transactionType": "CALL",
      "contractName": null,
      "contractAddress": "0x90581eca9469d8d7f5d3b60f4715027adfcf7927",
      "function": "approve(address,uint256)",
      "arguments": [
        "0x6cA98f43719231d38F6426DB64C7F3D5C7CE7876",
        "10000000000000"
      ],
      "transaction": {
        "from": "0x45dce8e4f2dc005a5f28206a46cb034697eeda8e",
        "to": "0x90581eca9469d8d7f5d3b60f4715027adfcf7927",
        "gas": "0x132ad",
        "value": "0x0",
        "input": "0x095ea7b30000000000000000000000006ca98f43719231d38f6426db64c7f3d5c7ce7876000000000000000000000000000000000000000000000000000009184e72a000",
        "nonce": "0x95",
        "chainId": "0x18232"
      },
      "additionalContracts": [],
      "isFixedGasLimit": false
    },
    {
      "hash": null,
      "transactionType": "CALL",
      "contractName": null,
      "contractAddress": "0x6ca98f43719231d38f6426db64c7f3d5c7ce7876",
      "function": "sendOFT(address,uint32,bytes32,uint256)",
      "arguments": [
        "0x90581eCa9469D8D7F5D3B60f4715027aDFCf7927",
        "30375",
        "0x00000000000000000000000045dce8e4f2dc005a5f28206a46cb034697eeda8e",
        "10000000000000"
      ],
      "transaction": {
        "from": "0x45dce8e4f2dc005a5f28206a46cb034697eeda8e",
        "to": "0x6ca98f43719231d38f6426db64c7f3d5c7ce7876",
        "gas": "0xdbe8d",
        "value": "0x3ddf287d5fc9f6d7",
        "input": "0x3e832c9000000000000000000000000090581eca9469d8d7f5d3b60f4715027adfcf792700000000000000000000000000000000000000000000000000000000000076a700000000000000000000000045dce8e4f2dc005a5f28206a46cb034697eeda8e000000000000000000000000000000000000000000000000000009184e72a000",
        "nonce": "0x96",
        "chainId": "0x18232"
      },
      "additionalContracts": [],
      "isFixedGasLimit": false
    }
  ],
  "receipts": [],
  "libraries": [],
  "pending": [
    "0x04ee87d386ce56c0be8249c58d3022b361b711b5590e2e9212d3b69e8a5a7d44",
    "0x7b089b244d4e5fd4920b4f607ccdb78a0cc3a99a3145ab3c5cfbf0c71fcb9f7d",
    "0x78b830eb9964314201b1a2d0f5eae1c39348f6fc243d441f3d8ebe09396fcc17",
    "0x06e150dedab0dea4e8bb9f8382099425328d2a7648f33e2e8a98ddf5ce12baaa",
    "0xa77f5994214a6513f079eb540322dfc55198b165e0de8e7b10cee285dab70e00",
    "0xe7f160cb013015c2241b94cba6e81e3ec1f4359da3fb72bf5982cee5db2d060e",
    "0x53419d0499e7ea763983a8c62cf90f4c6bd2fec9563c38995d25e9bd83251248",
    "0x94f57b30d22cf0bc00df0da52f8a92b275c4a0d4d3e176a4864f9ef242a405b5",
    "0x65e9fa1c155ec54517b32ec694dae8dffb537c55ff13fa7539d85341ec0b7c69",
    "0xf3478a97fd74d587d7fef52dc1fb81082126ceb8911b754c6ad7031750522aa7",
    "0xf99558a2974d1131babcbbff6c442ed0e72ae86cd8eea871c64f5dcd4fa88b0d"
  ],
  "returns": {},
  "timestamp": 1778656598816,
  "chain": 98866,
  "commit": "3c1e5d2a"
}