{
  "transactions": [
    {
      "hash": "0x3e156e2e274333452a00a6dfa09d2d862c9e84f3e905aaa89429da0f5b4b4ee8",
      "transactionType": "CALL",
      "contractName": null,
      "contractAddress": "0x80eede496655fb9047dd39d9f418d5483ed600df",
      "function": "approve(address,uint256)",
      "arguments": [
        "0xc71BF5Ee4740405030eF521F18A96eA14fec802D",
        "10000000000000"
      ],
      "transaction": {
        "from": "0x45dce8e4f2dc005a5f28206a46cb034697eeda8e",
        "to": "0x80eede496655fb9047dd39d9f418d5483ed600df",
        "gas": "0x132ad",
        "value": "0x0",
        "input": "0x095ea7b3000000000000000000000000c71bf5ee4740405030ef521f18a96ea14fec802d000000000000000000000000000000000000000000000000000009184e72a000",
        "nonce": "0xca",
        "chainId": "0x138de"
      },
      "additionalContracts": [],
      "isFixedGasLimit": false
    },
    {
      "hash": "0x773b00ad4e709f974949842489bc1497a3e59836f2b1cf2d6d80268aa4ba7e21",
      "transactionType": "CALL",
      "contractName": null,
      "contractAddress": "0xc71bf5ee4740405030ef521f18a96ea14fec802d",
      "function": "sendOFT(address,uint32,bytes32,uint256)",
      "arguments": [
        "0x80Eede496655FB9047dd39d9f418d5483ED600df",
        "30280",
        "0x00000000000000000000000045dce8e4f2dc005a5f28206a46cb034697eeda8e",
        "10000000000000"
      ],
      "transaction": {
        "from": "0x45dce8e4f2dc005a5f28206a46cb034697eeda8e",
        "to": "0xc71bf5ee4740405030ef521f18a96ea14fec802d",
        "gas": "0xd0be2",
        "value": "0x21077732e866dfc",
        "input": "0x3e832c9000000000000000000000000080eede496655fb9047dd39d9f418d5483ed600df000000000000000000000000000000000000000000000000000000000000764800000000000000000000000045dce8e4f2dc005a5f28206a46cb034697eeda8e000000000000000000000000000000000000000000000000000009184e72a000",
        "nonce": "0xcb",
        "chainId": "0x138de"
      },
      "additionalContracts": [],
      "isFixedGasLimit": false
    },
    {
      "hash": "0xf3bfd0e8a8239e668a2415cebc2186478f96d06b6dd65b8a3db13fd90312e33f",
      "transactionType": "CALL",
      "contractName": null,
      "contractAddress": "0x5bff88ca1442c2496f7e475e9e7786383bc070c0",
      "function": "approve(address,uint256)",
      "arguments": [
        "0xc71BF5Ee4740405030eF521F18A96eA14fec802D",
        "10000000000000"
      ],
      "transaction": {
        "from": "0x45dce8e4f2dc005a5f28206a46cb034697eeda8e",
        "to": "0x5bff88ca1442c2496f7e475e9e7786383bc070c0",
        "gas": "0x12184",
        "value": "0x0",
        "input": "0x095ea7b3000000000000000000000000c71bf5ee4740405030ef521f18a96ea14fec802d000000000000000000000000000000000000000000000000000009184e72a000",
        "nonce": "0xcc",
        "chainId": "0x138de"
      },
      "additionalContracts": [],
      "isFixedGasLimit": false
    },
    {
      "hash": "0x1946a028276d827e3ea0a2e41f4091061b269871b5cb5d39f8f00fdb0c85b661",
      "transactionType": "CALL",
      "contractName": null,
      "contractAddress": "0xc71bf5ee4740405030ef521f18a96ea14fec802d",
      "function": "sendOFT(address,uint32,bytes32,uint256)",
      "arguments": [
        "0x5Bff88cA1442c2496f7E475E9e7786383Bc070c0",
        "30280",
        "0x00000000000000000000000045dce8e4f2dc005a5f28206a46cb034697eeda8e",
        "10000000000000"
      ],
      "transaction": {
        "from": "0x45dce8e4f2dc005a5f28206a46cb034697eeda8e",
        "to": "0xc71bf5ee4740405030ef521f18a96ea14fec802d",
        "gas": "0xd8627",
        "value": "0x21077732e866dfc",
        "input": "0x3e832c900000000000000000000000005bff88ca1442c2496f7e475e9e7786383bc070c0000000000000000000000000000000000000000000000000000000000000764800000000000000000000000045dce8e4f2dc005a5f28206a46cb034697eeda8e000000000000000000000000000000000000000000000000000009184e72a000",
        "nonce": "0xcd",
        "chainId": "0x138de"
      },
      "additionalContracts": [],
      "isFixedGasLimit": false
    },
    {
      "hash": "0x010d7bcc7faadca0fd932604ed238ab575fa99646318b29d3d69807e14ae4969",
      "transactionType": "CALL",
      "contractName": null,
      "contractAddress": "0x43edd7f3831b08fe70b7555ddd373c8bf65a9050",
      "function": "approve(address,uint256)",
      "arguments": [
        "0xc71BF5Ee4740405030eF521F18A96eA14fec802D",
        "10000000000000"
      ],
      "transaction": {
        "from": "0x45dce8e4f2dc005a5f28206a46cb034697eeda8e",
        "to": "0x43edd7f3831b08fe70b7555ddd373c8bf65a9050",
        "gas": "0x132ad",
        "value": "0x0",
        "input": "0x095ea7b3000000000000000000000000c71bf5ee4740405030ef521f18a96ea14fec802d000000000000000000000000000000000000000000000000000009184e72a000",
        "nonce": "0xce",
        "chainId": "0x138de"
      },
      "additionalContracts": [],
      "isFixedGasLimit": false
    },
    {
      "hash": "0x11be14469ddf572f162428861d49dacea0ebd0543b490a3e7cee92cce784266e",
      "transactionType": "CALL",
      "contractName": null,
      "contractAddress": "0xc71bf5ee4740405030ef521f18a96ea14fec802d",
      "function": "sendOFT(address,uint32,bytes32,uint256)",
      "arguments": [
        "0x43eDD7f3831b08FE70B7555ddD373C8bF65a9050",
        "30280",
        "0x00000000000000000000000045dce8e4f2dc005a5f28206a46cb034697eeda8e",
        "10000000000000"
      ],
      "transaction": {
        "from": "0x45dce8e4f2dc005a5f28206a46cb034697eeda8e",
        "to": "0xc71bf5ee4740405030ef521f18a96ea14fec802d",
        "gas": "0xd7e74",
        "value": "0x21077732e866dfc",
        "input": "0x3e832c9000000000000000000000000043edd7f3831b08fe70b7555ddd373c8bf65a9050000000000000000000000000000000000000000000000000000000000000764800000000000000000000000045dce8e4f2dc005a5f28206a46cb034697eeda8e000000000000000000000000000000000000000000000000000009184e72a000",
        "nonce": "0xcf",
        "chainId": "0x138de"
      },
      "additionalContracts": [],
      "isFixedGasLimit": false
    },
    {
      "hash": "0x29af12b238c687016a075e2e166008e6e5ee90c89ee0e358d61e050fe68bdda2",
      "transactionType": "CALL",
      "contractName": null,
      "contractAddress": "0x3ec3849c33291a9ef4c5db86de593eb4a37fde45",
      "function": "approve(address,uint256)",
      "arguments": [
        "0xc71BF5Ee4740405030eF521F18A96eA14fec802D",
        "10000000000000"
      ],
      "transaction": {
        "from": "0x45dce8e4f2dc005a5f28206a46cb034697eeda8e",
        "to": "0x3ec3849c33291a9ef4c5db86de593eb4a37fde45",
        "gas": "0x132ad",
        "value": "0x0",
        "input": "0x095ea7b3000000000000000000000000c71bf5ee4740405030ef521f18a96ea14fec802d000000000000000000000000000000000000000000000000000009184e72a000",
        "nonce": "0xd0",
        "chainId": "0x138de"
      },
      "additionalContracts": [],
      "isFixedGasLimit": false
    },
    {
      "hash": "0x19372649f560182c9ca86cf49925f23a675400778ccd6db4ed896297c7ed2cb1",
      "transactionType": "CALL",
      "contractName": null,
      "contractAddress": "0xc71bf5ee4740405030ef521f18a96ea14fec802d",
      "function": "sendOFT(address,uint32,bytes32,uint256)",
      "arguments": [
        "0x3Ec3849C33291a9eF4c5dB86De593EB4A37fDe45",
        "30280",
        "0x00000000000000000000000045dce8e4f2dc005a5f28206a46cb034697eeda8e",
        "10000000000000"
      ],
      "transaction": {
        "from": "0x45dce8e4f2dc005a5f28206a46cb034697eeda8e",
        "to": "0xc71bf5ee4740405030ef521f18a96ea14fec802d",
        "gas": "0xd7e74",
        "value": "0x21077732e866dfc",
        "input": "0x3e832c900000000000000000000000003ec3849c33291a9ef4c5db86de593eb4a37fde45000000000000000000000000000000000000000000000000000000000000764800000000000000000000000045dce8e4f2dc005a5f28206a46cb034697eeda8e000000000000000000000000000000000000000000000000000009184e72a000",
        "nonce": "0xd1",
        "chainId": "0x138de"
      },
      "additionalContracts": [],
      "isFixedGasLimit": false
    },
    {
      "hash": "0x9992c4a866aaade19f51ef378fbefc795534364ca760377b82d075165a4e4af3",
      "transactionType": "CALL",
      "contractName": null,
      "contractAddress": "0x64445f0aecc51e94ad52d8ac56b7190e764e561a",
      "function": "approve(address,uint256)",
      "arguments": [
        "0xc71BF5Ee4740405030eF521F18A96eA14fec802D",
        "10000000000000"
      ],
      "transaction": {
        "from": "0x45dce8e4f2dc005a5f28206a46cb034697eeda8e",
        "to": "0x64445f0aecc51e94ad52d8ac56b7190e764e561a",
        "gas": "0x12184",
        "value": "0x0",
        "input": "0x095ea7b3000000000000000000000000c71bf5ee4740405030ef521f18a96ea14fec802d000000000000000000000000000000000000000000000000000009184e72a000",
        "nonce": "0xd2",
        "chainId": "0x138de"
      },
      "additionalContracts": [],
      "isFixedGasLimit": false
    },
    {
      "hash": "0x7eee44258bf3b356555c536f521cdd821ecf69a6508a1230dbc753f4d79d579a",
      "transactionType": "CALL",
      "contractName": null,
      "contractAddress": "0xc71bf5ee4740405030ef521f18a96ea14fec802d",
      "function": "sendOFT(address,uint32,bytes32,uint256)",
      "arguments": [
        "0x64445f0aecC51E94aD52d8AC56b7190e764E561a",
        "30280",
        "0x00000000000000000000000045dce8e4f2dc005a5f28206a46cb034697eeda8e",
        "10000000000000"
      ],
      "transaction": {
        "from": "0x45dce8e4f2dc005a5f28206a46cb034697eeda8e",
        "to": "0xc71bf5ee4740405030ef521f18a96ea14fec802d",
        "gas": "0xd2213",
        "value": "0x21077732e866dfc",
        "input": "0x3e832c9000000000000000000000000064445f0aecc51e94ad52d8ac56b7190e764e561a000000000000000000000000000000000000000000000000000000000000764800000000000000000000000045dce8e4f2dc005a5f28206a46cb034697eeda8e000000000000000000000000000000000000000000000000000009184e72a000",
        "nonce": "0xd3",
        "chainId": "0x138de"
      },
      "additionalContracts": [],
      "isFixedGasLimit": false
    },
    {
      "hash": "0xc75d43b10117e58bf22067500ce1dfdb608cbca6d15253cf8a6cebdb0711a2d7",
      "transactionType": "CALL",
      "contractName": null,
      "contractAddress": "0x90581eca9469d8d7f5d3b60f4715027adfcf7927",
      "function": "approve(address,uint256)",
      "arguments": [
        "0xc71BF5Ee4740405030eF521F18A96eA14fec802D",
        "10000000000000"
      ],
      "transaction": {
        "from": "0x45dce8e4f2dc005a5f28206a46cb034697eeda8e",
        "to": "0x90581eca9469d8d7f5d3b60f4715027adfcf7927",
        "gas": "0x132ad",
        "value": "0x0",
        "input": "0x095ea7b3000000000000000000000000c71bf5ee4740405030ef521f18a96ea14fec802d000000000000000000000000000000000000000000000000000009184e72a000",
        "nonce": "0xd4",
        "chainId": "0x138de"
      },
      "additionalContracts": [],
      "isFixedGasLimit": false
    },
    {
      "hash": "0xf2af1b6444b3c8a27b7a94a6bb4b7994481c3ede41fb0da70f48ea3629c9105b",
      "transactionType": "CALL",
      "contractName": null,
      "contractAddress": "0xc71bf5ee4740405030ef521f18a96ea14fec802d",
      "function": "sendOFT(address,uint32,bytes32,uint256)",
      "arguments": [
        "0x90581eCa9469D8D7F5D3B60f4715027aDFCf7927",
        "30280",
        "0x00000000000000000000000045dce8e4f2dc005a5f28206a46cb034697eeda8e",
        "10000000000000"
      ],
      "transaction": {
        "from": "0x45dce8e4f2dc005a5f28206a46cb034697eeda8e",
        "to": "0xc71bf5ee4740405030ef521f18a96ea14fec802d",
        "gas": "0xd7e74",
        "value": "0x21077732e866dfc",
        "input": "0x3e832c9000000000000000000000000090581eca9469d8d7f5d3b60f4715027adfcf7927000000000000000000000000000000000000000000000000000000000000764800000000000000000000000045dce8e4f2dc005a5f28206a46cb034697eeda8e000000000000000000000000000000000000000000000000000009184e72a000",
        "nonce": "0xd5",
        "chainId": "0x138de"
      },
      "additionalContracts": [],
      "isFixedGasLimit": false
    }
  ],
  "receipts": [
    {
      "status": "0x1",
      "cumulativeGasUsed": "0x15aed60",
      "logs": [
        {
          "address": "0x80eede496655fb9047dd39d9f418d5483ed600df",
          "topics": [
            "0x8c5be1e5ebec7d5bd14f71427d1e84f3dd0314c0f7b2291e5b200ac8c7c3b925",
            "0x00000000000000000000000045dce8e4f2dc005a5f28206a46cb034697eeda8e",
            "0x000000000000000000000000c71bf5ee4740405030ef521f18a96ea14fec802d"
          ],
          "data": "0x000000000000000000000000000000000000000000000000000009184e72a000",
          "blockHash": "0xe02832ef978b8e1c4d0f92aea1ec041656c24d420cdece0d13a693aa44db3682",
          "blockNumber": "0x13da7f6",
          "blockTimestamp": "0x6a040da8",
          "transactionHash": "0x773b00ad4e709f974949842489bc1497a3e59836f2b1cf2d6d80268aa4ba7e21",
          "transactionIndex": "0x4",
          "logIndex": "0x42",
          "removed": false
        }
      ],
      "logsBloom": "0x00000000000000000000000200000000000000000000000000000000000000000000000000000000000000000800000000000000000000000000000200200000000000000000000000000000000000000000000000000000000000000000000000000000000000000000000000000000000000000000000000000000010000000000000000000000000000000000000000000000000000000000000000000000020000000000000000000000000000000000000000000000000000000000000000000000000000000000000000000002001000000000000000000000000000000010000000000000000000000000800002008000000000000000000000000000",
      "type": "0x2",
      "transactionHash": "0x773b00ad4e709f974949842489bc1497a3e59836f2b1cf2d6d80268aa4ba7e21",
      "transactionIndex": "0x4",
      "blockHash": "0xe02832ef978b8e1c4d0f92aea1ec041656c24d420cdece0d13a693aa44db3682",
      "blockNumber": "0x13da7f6",
      "gasUsed": "0xd1b2",
      "effectiveGasPrice": "0x281f",
      "from": "0x45dce8e4f2dc005a5f28206a46cb034697eeda8e",
      "to": "0x80eede496655fb9047dd39d9f418d5483ed600df",
      "contractAddress": null
    },
    {
      "status": "0x1",
      "cumulativeGasUsed": "0x1647be6",
      "logs": [
        {
          "address": "0x80eede496655fb9047dd39d9f418d5483ed600df",
          "topics": [
            "0x8c5be1e5ebec7d5bd14f71427d1e84f3dd0314c0f7b2291e5b200ac8c7c3b925",
            "0x00000000000000000000000045dce8e4f2dc005a5f28206a46cb034697eeda8e",
            "0x000000000000000000000000c71bf5ee4740405030ef521f18a96ea14fec802d"
          ],
          "data": "0x0000000000000000000000000000000000000000000000000000000000000000",
          "blockHash": "0xe02832ef978b8e1c4d0f92aea1ec041656c24d420cdece0d13a693aa44db3682",
          "blockNumber": "0x13da7f6",
          "blockTimestamp": "0x6a040da8",
          "transactionHash": "0x3e156e2e274333452a00a6dfa09d2d862c9e84f3e905aaa89429da0f5b4b4ee8",
          "transactionIndex": "0x5",
          "logIndex": "0x43",
          "removed": false
        },
        {
          "address": "0x80eede496655fb9047dd39d9f418d5483ed600df",
          "topics": [
            "0xddf252ad1be2c89b69c2b068fc378daa952ba7f163c4a11628f55a4df523b3ef",
            "0x00000000000000000000000045dce8e4f2dc005a5f28206a46cb034697eeda8e",
            "0x000000000000000000000000c71bf5ee4740405030ef521f18a96ea14fec802d"
          ],
          "data": "0x000000000000000000000000000000000000000000000000000009184e72a000",
          "blockHash": "0xe02832ef978b8e1c4d0f92aea1ec041656c24d420cdece0d13a693aa44db3682",
          "blockNumber": "0x13da7f6",
          "blockTimestamp": "0x6a040da8",
          "transactionHash": "0x3e156e2e274333452a00a6dfa09d2d862c9e84f3e905aaa89429da0f5b4b4ee8",
          "transactionIndex": "0x5",
          "logIndex": "0x44",
          "removed": false
        },
        {
          "address": "0x80eede496655fb9047dd39d9f418d5483ed600df",
          "topics": [
            "0x8c5be1e5ebec7d5bd14f71427d1e84f3dd0314c0f7b2291e5b200ac8c7c3b925",
            "0x000000000000000000000000c71bf5ee4740405030ef521f18a96ea14fec802d",
            "0x00000000000000000000000080eede496655fb9047dd39d9f418d5483ed600df"
          ],
          "data": "0x000000000000000000000000000000000000000000000000000009184e72a000",
          "blockHash": "0xe02832ef978b8e1c4d0f92aea1ec041656c24d420cdece0d13a693aa44db3682",
          "blockNumber": "0x13da7f6",
          "blockTimestamp": "0x6a040da8",
          "transactionHash": "0x3e156e2e274333452a00a6dfa09d2d862c9e84f3e905aaa89429da0f5b4b4ee8",
          "transactionIndex": "0x5",
          "logIndex": "0x45",
          "removed": false
        },
        {
          "address": "0x80eede496655fb9047dd39d9f418d5483ed600df",
          "topics": [
            "0xddf252ad1be2c89b69c2b068fc378daa952ba7f163c4a11628f55a4df523b3ef",
            "0x000000000000000000000000c71bf5ee4740405030ef521f18a96ea14fec802d",
            "0x0000000000000000000000000000000000000000000000000000000000000000"
          ],
          "data": "0x000000000000000000000000000000000000000000000000000009184e72a000",
          "blockHash": "0xe02832ef978b8e1c4d0f92aea1ec041656c24d420cdece0d13a693aa44db3682",
          "blockNumber": "0x13da7f6",
          "blockTimestamp": "0x6a040da8",
          "transactionHash": "0x3e156e2e274333452a00a6dfa09d2d862c9e84f3e905aaa89429da0f5b4b4ee8",
          "transactionIndex": "0x5",
          "logIndex": "0x46",
          "removed": false
        },
        {
          "address": "0xc39161c743d0307eb9bcc9fef03eeb9dc4802de7",
          "topics": [
            "0x61ed099e74a97a1d7f8bb0952a88ca8b7b8ebd00c126ea04671f92a81213318a"
          ],
          "data": "0x0000000000000000000000004208d6e27538189bb48e603d6123a94b8abe0a0b00000000000000000000000000000000000000000000000000b71c680e1841a5",
          "blockHash": "0xe02832ef978b8e1c4d0f92aea1ec041656c24d420cdece0d13a693aa44db3682",
          "blockNumber": "0x13da7f6",
          "blockTimestamp": "0x6a040da8",
          "transactionHash": "0x3e156e2e274333452a00a6dfa09d2d862c9e84f3e905aaa89429da0f5b4b4ee8",
          "transactionIndex": "0x5",
          "logIndex": "0x47",
          "removed": false
        },
        {
          "address": "0xc39161c743d0307eb9bcc9fef03eeb9dc4802de7",
          "topics": [
            "0x07ea52d82345d6e838192107d8fd7123d9c2ec8e916cd0aad13fd2b60db24644"
          ],
          "data": "0x000000000000000000000000000000000000000000000000000000000000006000000000000000000000000000000000000000000000000000000000000001200000000000000000000000000000000000000000000000000000000000000140000000000000000000000000000000000000000000000000000000000000000500000000000000000000000006e8042729cef3ae6d6db5350f48f9d736c3675d000000000000000000000000282b3386571f7f794450d5789911a9804fa346b4000000000000000000000000559a194dae0508342e7ce1ad96e7e90a77f8bc4c000000000000000000000000dd7b5e1db4aafd5c8ec3b764efb8ed265aa5445b000000000000000000000000ecbaa45c33ce6fa284995e5f8314f5bc7f1c200800000000000000000000000000000000000000000000000000000000000000000000000000000000000000000000000000000000000000000000000000000005000000000000000000000000000000000000000000000000001785ebb3c7007a00000000000000000000000000000000000000000000000000191f3117d714e500000000000000000000000000000000000000000000000000191f3117d714e5000000000000000000000000000000000000000000000000001785ebb3c7007a00000000000000000000000000000000000000000000000000191f3117d714e5",
          "blockHash": "0xe02832ef978b8e1c4d0f92aea1ec041656c24d420cdece0d13a693aa44db3682",
          "blockNumber": "0x13da7f6",
          "blockTimestamp": "0x6a040da8",
          "transactionHash": "0x3e156e2e274333452a00a6dfa09d2d862c9e84f3e905aaa89429da0f5b4b4ee8",
          "transactionIndex": "0x5",
          "logIndex": "0x48",
          "removed": false
        },
        {
          "address": "0x6f475642a6e85809b1c36fa62763669b1b48dd5b",
          "topics": [
            "0x1ab700d4ced0c005b164c0f789fd09fcbb0156d4c2041b8a3bfbcd961cd1567f"
          ],
          "data": "0x00000000000000000000000000000000000000000000000000000000000000600000000000000000000000000000000000000000000000000000000000000180000000000000000000000000c39161c743d0307eb9bcc9fef03eeb9dc4802de700000000000000000000000000000000000000000000000000000000000000f90100000000000000160000769a00000000000000000000000080eede496655fb9047dd39d9f418d5483ed600df0000762f00000000000000000000000096a394058e2b84a89bac9667b19661ed003cf5d418d44c60399ba0f0684e95d7bd5be10d523eb153eb94e1eecc96d9b001fe82c20000000000000000000000002a2019b30c157db6c1c01306b8025167dbe1803b000000000000000a000000000000000000000000c71bf5ee4740405030ef521f18a96ea14fec802d00000000000000000000000045dce8e4f2dc005a5f28206a46cb034697eeda8e000000000000000000000000000000000000000000000000000000000000764800000000000000000000000000000000000000000000000000000000000000000000000000002c0003010011010000000000000000000000000003d090010013030000000000000000000000000000000f42400000000000000000000000000000000000000000",
          "blockHash": "0xe02832ef978b8e1c4d0f92aea1ec041656c24d420cdece0d13a693aa44db3682",
          "blockNumber": "0x13da7f6",
          "blockTimestamp": "0x6a040da8",
          "transactionHash": "0x3e156e2e274333452a00a6dfa09d2d862c9e84f3e905aaa89429da0f5b4b4ee8",
          "transactionIndex": "0x5",
          "logIndex": "0x49",
          "removed": false
        },
        {
          "address": "0x80eede496655fb9047dd39d9f418d5483ed600df",
          "topics": [
            "0x85496b760a4b7f8d66384b9df21b381f5d1b1e79f229a47aaf4c232edc2fe59a",
            "0x18d44c60399ba0f0684e95d7bd5be10d523eb153eb94e1eecc96d9b001fe82c2",
            "0x000000000000000000000000c71bf5ee4740405030ef521f18a96ea14fec802d"
          ],
          "data": "0x000000000000000000000000000000000000000000000000000000000000762f000000000000000000000000000000000000000000000000000009184e72a000000000000000000000000000000000000000000000000000000009184e72a000",
          "blockHash": "0xe02832ef978b8e1c4d0f92aea1ec041656c24d420cdece0d13a693aa44db3682",
          "blockNumber": "0x13da7f6",
          "blockTimestamp": "0x6a040da8",
          "transactionHash": "0x3e156e2e274333452a00a6dfa09d2d862c9e84f3e905aaa89429da0f5b4b4ee8",
          "transactionIndex": "0x5",
          "logIndex": "0x4a",
          "removed": false
        },
        {
          "address": "0xc71bf5ee4740405030ef521f18a96ea14fec802d",
          "topics": [
            "0xbc9ee36b6ca0bdd5b3840e6d329dd19a2490d880c7ce24d9818aa593adfb35be",
            "0x00000000000000000000000045dce8e4f2dc005a5f28206a46cb034697eeda8e",
            "0x0000000000000000000000000000000000000000000000000000000000007648",
            "0x00000000000000000000000045dce8e4f2dc005a5f28206a46cb034697eeda8e"
          ],
          "data": "0x00000000000000000000000080eede496655fb9047dd39d9f418d5483ed600df000000000000000000000000000000000000000000000000000009184e72a000",
          "blockHash": "0xe02832ef978b8e1c4d0f92aea1ec041656c24d420cdece0d13a693aa44db3682",
          "blockNumber": "0x13da7f6",
          "blockTimestamp": "0x6a040da8",
          "transactionHash": "0x3e156e2e274333452a00a6dfa09d2d862c9e84f3e905aaa89429da0f5b4b4ee8",
          "transactionIndex": "0x5",
          "logIndex": "0x4b",
          "removed": false
        }
      ],
      "logsBloom": "0x00100000000000000000000200000000000000001000000000000000000000000000080000000400000000000800000000000000000000000000000200200000000002000000000000000008040000000140000000000000000000000000000000000000020000008020000000000800000000000000100000000010010000000000000000808000000000081000000000000000000008000000000000000000020000108000000020100010000000000000000000400000000440000000000000000002000000000000000080000002001000000800000000000000000020004010040020000000000000000000802012008000008000200000000000000000",
      "type": "0x2",
      "transactionHash": "0x3e156e2e274333452a00a6dfa09d2d862c9e84f3e905aaa89429da0f5b4b4ee8",
      "transactionIndex": "0x5",
      "blockHash": "0xe02832ef978b8e1c4d0f92aea1ec041656c24d420cdece0d13a693aa44db3682",
      "blockNumber": "0x13da7f6",
      "gasUsed": "0x98e86",
      "effectiveGasPrice": "0x281f",
      "from": "0x45dce8e4f2dc005a5f28206a46cb034697eeda8e",
      "to": "0xc71bf5ee4740405030ef521f18a96ea14fec802d",
      "contractAddress": null
    },
    {
      "status": "0x1",
      "cumulativeGasUsed": "0x166be4f",
      "logs": [
        {
          "address": "0x5bff88ca1442c2496f7e475e9e7786383bc070c0",
          "topics": [
            "0x8c5be1e5ebec7d5bd14f71427d1e84f3dd0314c0f7b2291e5b200ac8c7c3b925",
            "0x00000000000000000000000045dce8e4f2dc005a5f28206a46cb034697eeda8e",
            "0x000000000000000000000000c71bf5ee4740405030ef521f18a96ea14fec802d"
          ],
          "data": "0x000000000000000000000000000000000000000000000000000009184e72a000",
          "blockHash": "0x3bc9618ecad007f914d946471104817d1ebb21e4bf04756a261fe133af3373ef",
          "blockNumber": "0x13da7f7",
          "blockTimestamp": "0x6a040daa",
          "transactionHash": "0x19372649f560182c9ca86cf49925f23a675400778ccd6db4ed896297c7ed2cb1",
          "transactionIndex": "0x5",
          "logIndex": "0x46",
          "removed": false
        }
      ],
      "logsBloom": "0x00000000000000000000000200000000000000000000000000000000000000000000000000000000000000000000000000000000000000000000000000200000000000000000000000000000000000000000000000000000000000000000000000000000000000000000000000000000000000000000000000000000000000000000000000000000000000000000000000000000000000000000000000000000020000000000000000000000000000000000000000000000000000000010000000000000000000000000000000000002001000800000000000000000000000000010000000000000000000000000800002008000000000000000000000000800",
      "type": "0x2",
      "transactionHash": "0x19372649f560182c9ca86cf49925f23a675400778ccd6db4ed896297c7ed2cb1",
      "transactionIndex": "0x5",
      "blockHash": "0x3bc9618ecad007f914d946471104817d1ebb21e4bf04756a261fe133af3373ef",
      "blockNumber": "0x13da7f7",
      "gasUsed": "0xd19c",
      "effectiveGasPrice": "0x2820",
      "from": "0x45dce8e4f2dc005a5f28206a46cb034697eeda8e",
      "to": "0x5bff88ca1442c2496f7e475e9e7786383bc070c0",
      "contractAddress": null
    },
    {
      "status": "0x1",
      "cumulativeGasUsed": "0x1701a1a",
      "logs": [
        {
          "address": "0x5bff88ca1442c2496f7e475e9e7786383bc070c0",
          "topics": [
            "0x8c5be1e5ebec7d5bd14f71427d1e84f3dd0314c0f7b2291e5b200ac8c7c3b925",
            "0x00000000000000000000000045dce8e4f2dc005a5f28206a46cb034697eeda8e",
            "0x000000000000000000000000c71bf5ee4740405030ef521f18a96ea14fec802d"
          ],
          "data": "0x0000000000000000000000000000000000000000000000000000000000000000",
          "blockHash": "0x3bc9618ecad007f914d946471104817d1ebb21e4bf04756a261fe133af3373ef",
          "blockNumber": "0x13da7f7",
          "blockTimestamp": "0x6a040daa",
          "transactionHash": "0x010d7bcc7faadca0fd932604ed238ab575fa99646318b29d3d69807e14ae4969",
          "transactionIndex": "0x6",
          "logIndex": "0x47",
          "removed": false
        },
        {
          "address": "0x5bff88ca1442c2496f7e475e9e7786383bc070c0",
          "topics": [
            "0xddf252ad1be2c89b69c2b068fc378daa952ba7f163c4a11628f55a4df523b3ef",
            "0x00000000000000000000000045dce8e4f2dc005a5f28206a46cb034697eeda8e",
            "0x000000000000000000000000c71bf5ee4740405030ef521f18a96ea14fec802d"
          ],
          "data": "0x000000000000000000000000000000000000000000000000000009184e72a000",
          "blockHash": "0x3bc9618ecad007f914d946471104817d1ebb21e4bf04756a261fe133af3373ef",
          "blockNumber": "0x13da7f7",
          "blockTimestamp": "0x6a040daa",
          "transactionHash": "0x010d7bcc7faadca0fd932604ed238ab575fa99646318b29d3d69807e14ae4969",
          "transactionIndex": "0x6",
          "logIndex": "0x48",
          "removed": false
        },
        {
          "address": "0x5bff88ca1442c2496f7e475e9e7786383bc070c0",
          "topics": [
            "0x8c5be1e5ebec7d5bd14f71427d1e84f3dd0314c0f7b2291e5b200ac8c7c3b925",
            "0x000000000000000000000000c71bf5ee4740405030ef521f18a96ea14fec802d",
            "0x0000000000000000000000005bff88ca1442c2496f7e475e9e7786383bc070c0"
          ],
          "data": "0x000000000000000000000000000000000000000000000000000009184e72a000",
          "blockHash": "0x3bc9618ecad007f914d946471104817d1ebb21e4bf04756a261fe133af3373ef",
          "blockNumber": "0x13da7f7",
          "blockTimestamp": "0x6a040daa",
          "transactionHash": "0x010d7bcc7faadca0fd932604ed238ab575fa99646318b29d3d69807e14ae4969",
          "transactionIndex": "0x6",
          "logIndex": "0x49",
          "removed": false
        },
        {
          "address": "0x5bff88ca1442c2496f7e475e9e7786383bc070c0",
          "topics": [
            "0xddf252ad1be2c89b69c2b068fc378daa952ba7f163c4a11628f55a4df523b3ef",
            "0x000000000000000000000000c71bf5ee4740405030ef521f18a96ea14fec802d",
            "0x0000000000000000000000000000000000000000000000000000000000000000"
          ],
          "data": "0x000000000000000000000000000000000000000000000000000009184e72a000",
          "blockHash": "0x3bc9618ecad007f914d946471104817d1ebb21e4bf04756a261fe133af3373ef",
          "blockNumber": "0x13da7f7",
          "blockTimestamp": "0x6a040daa",
          "transactionHash": "0x010d7bcc7faadca0fd932604ed238ab575fa99646318b29d3d69807e14ae4969",
          "transactionIndex": "0x6",
          "logIndex": "0x4a",
          "removed": false
        },
        {
          "address": "0xc39161c743d0307eb9bcc9fef03eeb9dc4802de7",
          "topics": [
            "0x61ed099e74a97a1d7f8bb0952a88ca8b7b8ebd00c126ea04671f92a81213318a"
          ],
          "data": "0x0000000000000000000000004208d6e27538189bb48e603d6123a94b8abe0a0b00000000000000000000000000000000000000000000000000b71c680e1841a5",
          "blockHash": "0x3bc9618ecad007f914d946471104817d1ebb21e4bf04756a261fe133af3373ef",
          "blockNumber": "0x13da7f7",
          "blockTimestamp": "0x6a040daa",
          "transactionHash": "0x010d7bcc7faadca0fd932604ed238ab575fa99646318b29d3d69807e14ae4969",
          "transactionIndex": "0x6",
          "logIndex": "0x4b",
          "removed": false
        },
        {
          "address": "0xc39161c743d0307eb9bcc9fef03eeb9dc4802de7",
          "topics": [
            "0x07ea52d82345d6e838192107d8fd7123d9c2ec8e916cd0aad13fd2b60db24644"
          ],
          "data": "0x000000000000000000000000000000000000000000000000000000000000006000000000000000000000000000000000000000000000000000000000000001200000000000000000000000000000000000000000000000000000000000000140000000000000000000000000000000000000000000000000000000000000000500000000000000000000000006e8042729cef3ae6d6db5350f48f9d736c3675d000000000000000000000000282b3386571f7f794450d5789911a9804fa346b4000000000000000000000000559a194dae0508342e7ce1ad96e7e90a77f8bc4c000000000000000000000000dd7b5e1db4aafd5c8ec3b764efb8ed265aa5445b000000000000000000000000ecbaa45c33ce6fa284995e5f8314f5bc7f1c200800000000000000000000000000000000000000000000000000000000000000000000000000000000000000000000000000000000000000000000000000000005000000000000000000000000000000000000000000000000001785ebb3c7007a00000000000000000000000000000000000000000000000000191f3117d714e500000000000000000000000000000000000000000000000000191f3117d714e5000000000000000000000000000000000000000000000000001785ebb3c7007a00000000000000000000000000000000000000000000000000191f3117d714e5",
          "blockHash": "0x3bc9618ecad007f914d946471104817d1ebb21e4bf04756a261fe133af3373ef",
          "blockNumber": "0x13da7f7",
          "blockTimestamp": "0x6a040daa",
          "transactionHash": "0x010d7bcc7faadca0fd932604ed238ab575fa99646318b29d3d69807e14ae4969",
          "transactionIndex": "0x6",
          "logIndex": "0x4c",
          "removed": false
        },
        {
          "address": "0x6f475642a6e85809b1c36fa62763669b1b48dd5b",
          "topics": [
            "0x1ab700d4ced0c005b164c0f789fd09fcbb0156d4c2041b8a3bfbcd961cd1567f"
          ],
          "data": "0x00000000000000000000000000000000000000000000000000000000000000600000000000000000000000000000000000000000000000000000000000000180000000000000000000000000c39161c743d0307eb9bcc9fef03eeb9dc4802de700000000000000000000000000000000000000000000000000000000000000f90100000000000000030000769a0000000000000000000000005bff88ca1442c2496f7e475e9e7786383bc070c00000762f00000000000000000000000088aa7854d3b2daa5e37e7ce73a1f39669623a361e6efea13674bef27ee7527057325d4854d7b7deaa18014e0ab97d83d8239a4d20000000000000000000000002a2019b30c157db6c1c01306b8025167dbe1803b000000000000000a000000000000000000000000c71bf5ee4740405030ef521f18a96ea14fec802d00000000000000000000000045dce8e4f2dc005a5f28206a46cb034697eeda8e000000000000000000000000000000000000000000000000000000000000764800000000000000000000000000000000000000000000000000000000000000000000000000002c0003010011010000000000000000000000000003d090010013030000000000000000000000000000000f42400000000000000000000000000000000000000000",
          "blockHash": "0x3bc9618ecad007f914d946471104817d1ebb21e4bf04756a261fe133af3373ef",
          "blockNumber": "0x13da7f7",
          "blockTimestamp": "0x6a040daa",
          "transactionHash": "0x010d7bcc7faadca0fd932604ed238ab575fa99646318b29d3d69807e14ae4969",
          "transactionIndex": "0x6",
          "logIndex": "0x4d",
          "removed": false
        },
        {
          "address": "0x5bff88ca1442c2496f7e475e9e7786383bc070c0",
          "topics": [
            "0x85496b760a4b7f8d66384b9df21b381f5d1b1e79f229a47aaf4c232edc2fe59a",
            "0xe6efea13674bef27ee7527057325d4854d7b7deaa18014e0ab97d83d8239a4d2",
            "0x000000000000000000000000c71bf5ee4740405030ef521f18a96ea14fec802d"
          ],
          "data": "0x000000000000000000000000000000000000000000000000000000000000762f000000000000000000000000000000000000000000000000000009184e72a000000000000000000000000000000000000000000000000000000009184e72a000",
          "blockHash": "0x3bc9618ecad007f914d946471104817d1ebb21e4bf04756a261fe133af3373ef",
          "blockNumber": "0x13da7f7",
          "blockTimestamp": "0x6a040daa",
          "transactionHash": "0x010d7bcc7faadca0fd932604ed238ab575fa99646318b29d3d69807e14ae4969",
          "transactionIndex": "0x6",
          "logIndex": "0x4e",
          "removed": false
        },
        {
          "address": "0xc71bf5ee4740405030ef521f18a96ea14fec802d",
          "topics": [
            "0xbc9ee36b6ca0bdd5b3840e6d329dd19a2490d880c7ce24d9818aa593adfb35be",
            "0x00000000000000000000000045dce8e4f2dc005a5f28206a46cb034697eeda8e",
            "0x0000000000000000000000000000000000000000000000000000000000007648",
            "0x00000000000000000000000045dce8e4f2dc005a5f28206a46cb034697eeda8e"
          ],
          "data": "0x0000000000000000000000005bff88ca1442c2496f7e475e9e7786383bc070c0000000000000000000000000000000000000000000000000000009184e72a000",
          "blockHash": "0x3bc9618ecad007f914d946471104817d1ebb21e4bf04756a261fe133af3373ef",
          "blockNumber": "0x13da7f7",
          "blockTimestamp": "0x6a040daa",
          "transactionHash": "0x010d7bcc7faadca0fd932604ed238ab575fa99646318b29d3d69807e14ae4969",
          "transactionIndex": "0x6",
          "logIndex": "0x4f",
          "removed": false
        }
      ],
      "logsBloom": "0x00100000000000000000000200000000000000001000000000000000000000000001000000000000000000000000000000000000000000000000000000200000000002000000000000000008000000000140000000000000000000000000000000000000020000008020000000000800000000000000100000000010000000000000001000808000000000081000000000000000000000000000000000000000020000108000000020100010001000000000000000400000000440000010000000000002000000000000000080000002001000800800000000000000000020004010040000000100000800040000802002008000008000200000000000000800",
      "type": "0x2",
      "transactionHash": "0x010d7bcc7faadca0fd932604ed238ab575fa99646318b29d3d69807e14ae4969",
      "transactionIndex": "0x6",
      "blockHash": "0x3bc9618ecad007f914d946471104817d1ebb21e4bf04756a261fe133af3373ef",
      "blockNumber": "0x13da7f7",
      "gasUsed": "0x95bcb",
      "effectiveGasPrice": "0x2820",
      "from": "0x45dce8e4f2dc005a5f28206a46cb034697eeda8e",
      "to": "0xc71bf5ee4740405030ef521f18a96ea14fec802d",
      "contractAddress": null
    },
    {
      "status": "0x1",
      "cumulativeGasUsed": "0x170ebcc",
      "logs": [
        {
          "address": "0x43edd7f3831b08fe70b7555ddd373c8bf65a9050",
          "topics": [
            "0x8c5be1e5ebec7d5bd14f71427d1e84f3dd0314c0f7b2291e5b200ac8c7c3b925",
            "0x00000000000000000000000045dce8e4f2dc005a5f28206a46cb034697eeda8e",
            "0x000000000000000000000000c71bf5ee4740405030ef521f18a96ea14fec802d"
          ],
          "data": "0x000000000000000000000000000000000000000000000000000009184e72a000",
          "blockHash": "0x3bc9618ecad007f914d946471104817d1ebb21e4bf04756a261fe133af3373ef",
          "blockNumber": "0x13da7f7",
          "blockTimestamp": "0x6a040daa",
          "transactionHash": "0x9992c4a866aaade19f51ef378fbefc795534364ca760377b82d075165a4e4af3",
          "transactionIndex": "0x7",
          "logIndex": "0x50",
          "removed": false
        }
      ],
      "logsBloom": "0x00000000000000000000000200000000000000000000000000000000000000000000000000000000000000000000000000000000000000000000000000200000000000000000000000000000000000000000000000000000000000000000000000000000000000000000000000000000000000000000000000000000000000000000000000000000000000000000000000000000000000000000000000000000020000000000000002000000000000000000000000000000000000000000000000000000000000000000000000000002001000000000000000000000000000000010000000000000000000040000800002008000000000000000000000080000",
      "type": "0x2",
      "transactionHash": "0x9992c4a866aaade19f51ef378fbefc795534364ca760377b82d075165a4e4af3",
      "transactionIndex": "0x7",
      "blockHash": "0x3bc9618ecad007f914d946471104817d1ebb21e4bf04756a261fe133af3373ef",
      "blockNumber": "0x13da7f7",
      "gasUsed": "0xd1b2",
      "effectiveGasPrice": "0x2820",
      "from": "0x45dce8e4f2dc005a5f28206a46cb034697eeda8e",
      "to": "0x43edd7f3831b08fe70b7555ddd373c8bf65a9050",
      "contractAddress": null
    },
    {
      "status": "0x1",
      "cumulativeGasUsed": "0x17acd45",
      "logs": [
        {
          "address": "0x43edd7f3831b08fe70b7555ddd373c8bf65a9050",
          "topics": [
            "0x8c5be1e5ebec7d5bd14f71427d1e84f3dd0314c0f7b2291e5b200ac8c7c3b925",
            "0x00000000000000000000000045dce8e4f2dc005a5f28206a46cb034697eeda8e",
            "0x000000000000000000000000c71bf5ee4740405030ef521f18a96ea14fec802d"
          ],
          "data": "0x0000000000000000000000000000000000000000000000000000000000000000",
          "blockHash": "0x3bc9618ecad007f914d946471104817d1ebb21e4bf04756a261fe133af3373ef",
          "blockNumber": "0x13da7f7",
          "blockTimestamp": "0x6a040daa",
          "transactionHash": "0x11be14469ddf572f162428861d49dacea0ebd0543b490a3e7cee92cce784266e",
          "transactionIndex": "0x8",
          "logIndex": "0x51",
          "removed": false
        },
        {
          "address": "0x43edd7f3831b08fe70b7555ddd373c8bf65a9050",
          "topics": [
            "0xddf252ad1be2c89b69c2b068fc378daa952ba7f163c4a11628f55a4df523b3ef",
            "0x00000000000000000000000045dce8e4f2dc005a5f28206a46cb034697eeda8e",
            "0x000000000000000000000000c71bf5ee4740405030ef521f18a96ea14fec802d"
          ],
          "data": "0x000000000000000000000000000000000000000000000000000009184e72a000",
          "blockHash": "0x3bc9618ecad007f914d946471104817d1ebb21e4bf04756a261fe133af3373ef",
          "blockNumber": "0x13da7f7",
          "blockTimestamp": "0x6a040daa",
          "transactionHash": "0x11be14469ddf572f162428861d49dacea0ebd0543b490a3e7cee92cce784266e",
          "transactionIndex": "0x8",
          "logIndex": "0x52",
          "removed": false
        },
        {
          "address": "0x43edd7f3831b08fe70b7555ddd373c8bf65a9050",
          "topics": [
            "0x8c5be1e5ebec7d5bd14f71427d1e84f3dd0314c0f7b2291e5b200ac8c7c3b925",
            "0x000000000000000000000000c71bf5ee4740405030ef521f18a96ea14fec802d",
            "0x00000000000000000000000043edd7f3831b08fe70b7555ddd373c8bf65a9050"
          ],
          "data": "0x000000000000000000000000000000000000000000000000000009184e72a000",
          "blockHash": "0x3bc9618ecad007f914d946471104817d1ebb21e4bf04756a261fe133af3373ef",
          "blockNumber": "0x13da7f7",
          "blockTimestamp": "0x6a040daa",
          "transactionHash": "0x11be14469ddf572f162428861d49dacea0ebd0543b490a3e7cee92cce784266e",
          "transactionIndex": "0x8",
          "logIndex": "0x53",
          "removed": false
        },
        {
          "address": "0x43edd7f3831b08fe70b7555ddd373c8bf65a9050",
          "topics": [
            "0xddf252ad1be2c89b69c2b068fc378daa952ba7f163c4a11628f55a4df523b3ef",
            "0x000000000000000000000000c71bf5ee4740405030ef521f18a96ea14fec802d",
            "0x0000000000000000000000000000000000000000000000000000000000000000"
          ],
          "data": "0x000000000000000000000000000000000000000000000000000009184e72a000",
          "blockHash": "0x3bc9618ecad007f914d946471104817d1ebb21e4bf04756a261fe133af3373ef",
          "blockNumber": "0x13da7f7",
          "blockTimestamp": "0x6a040daa",
          "transactionHash": "0x11be14469ddf572f162428861d49dacea0ebd0543b490a3e7cee92cce784266e",
          "transactionIndex": "0x8",
          "logIndex": "0x54",
          "removed": false
        },
        {
          "address": "0xc39161c743d0307eb9bcc9fef03eeb9dc4802de7",
          "topics": [
            "0x61ed099e74a97a1d7f8bb0952a88ca8b7b8ebd00c126ea04671f92a81213318a"
          ],
          "data": "0x0000000000000000000000004208d6e27538189bb48e603d6123a94b8abe0a0b00000000000000000000000000000000000000000000000000b71c680e1841a5",
          "blockHash": "0x3bc9618ecad007f914d946471104817d1ebb21e4bf04756a261fe133af3373ef",
          "blockNumber": "0x13da7f7",
          "blockTimestamp": "0x6a040daa",
          "transactionHash": "0x11be14469ddf572f162428861d49dacea0ebd0543b490a3e7cee92cce784266e",
          "transactionIndex": "0x8",
          "logIndex": "0x55",
          "removed": false
        },
        {
          "address": "0xc39161c743d0307eb9bcc9fef03eeb9dc4802de7",
          "topics": [
            "0x07ea52d82345d6e838192107d8fd7123d9c2ec8e916cd0aad13fd2b60db24644"
          ],
          "data": "0x000000000000000000000000000000000000000000000000000000000000006000000000000000000000000000000000000000000000000000000000000001200000000000000000000000000000000000000000000000000000000000000140000000000000000000000000000000000000000000000000000000000000000500000000000000000000000006e8042729cef3ae6d6db5350f48f9d736c3675d000000000000000000000000282b3386571f7f794450d5789911a9804fa346b4000000000000000000000000559a194dae0508342e7ce1ad96e7e90a77f8bc4c000000000000000000000000dd7b5e1db4aafd5c8ec3b764efb8ed265aa5445b000000000000000000000000ecbaa45c33ce6fa284995e5f8314f5bc7f1c200800000000000000000000000000000000000000000000000000000000000000000000000000000000000000000000000000000000000000000000000000000005000000000000000000000000000000000000000000000000001785ebb3c7007a00000000000000000000000000000000000000000000000000191f3117d714e500000000000000000000000000000000000000000000000000191f3117d714e5000000000000000000000000000000000000000000000000001785ebb3c7007a00000000000000000000000000000000000000000000000000191f3117d714e5",
          "blockHash": "0x3bc9618ecad007f914d946471104817d1ebb21e4bf04756a261fe133af3373ef",
          "blockNumber": "0x13da7f7",
          "blockTimestamp": "0x6a040daa",
          "transactionHash": "0x11be14469ddf572f162428861d49dacea0ebd0543b490a3e7cee92cce784266e",
          "transactionIndex": "0x8",
          "logIndex": "0x56",
          "removed": false
        },
        {
          "address": "0x6f475642a6e85809b1c36fa62763669b1b48dd5b",
          "topics": [
            "0x1ab700d4ced0c005b164c0f789fd09fcbb0156d4c2041b8a3bfbcd961cd1567f"
          ],
          "data": "0x00000000000000000000000000000000000000000000000000000000000000600000000000000000000000000000000000000000000000000000000000000180000000000000000000000000c39161c743d0307eb9bcc9fef03eeb9dc4802de700000000000000000000000000000000000000000000000000000000000000f90100000000000000010000769a00000000000000000000000043edd7f3831b08fe70b7555ddd373c8bf65a90500000762f0000000000000000000000009abfe1f8a999b0011ecd6116649aee8d575f560466258420b18d4bca0de712a3ab5afe0366aab045869d534c4db16c385600b3780000000000000000000000002a2019b30c157db6c1c01306b8025167dbe1803b000000000000000a000000000000000000000000c71bf5ee4740405030ef521f18a96ea14fec802d00000000000000000000000045dce8e4f2dc005a5f28206a46cb034697eeda8e000000000000000000000000000000000000000000000000000000000000764800000000000000000000000000000000000000000000000000000000000000000000000000002c0003010011010000000000000000000000000003d090010013030000000000000000000000000000000f42400000000000000000000000000000000000000000",
          "blockHash": "0x3bc9618ecad007f914d946471104817d1ebb21e4bf04756a261fe133af3373ef",
          "blockNumber": "0x13da7f7",
          "blockTimestamp": "0x6a040daa",
          "transactionHash": "0x11be14469ddf572f162428861d49dacea0ebd0543b490a3e7cee92cce784266e",
          "transactionIndex": "0x8",
          "logIndex": "0x57",
          "removed": false
        },
        {
          "address": "0x43edd7f3831b08fe70b7555ddd373c8bf65a9050",
          "topics": [
            "0x85496b760a4b7f8d66384b9df21b381f5d1b1e79f229a47aaf4c232edc2fe59a",
            "0x66258420b18d4bca0de712a3ab5afe0366aab045869d534c4db16c385600b378",
            "0x000000000000000000000000c71bf5ee4740405030ef521f18a96ea14fec802d"
          ],
          "data": "0x000000000000000000000000000000000000000000000000000000000000762f000000000000000000000000000000000000000000000000000009184e72a000000000000000000000000000000000000000000000000000000009184e72a000",
          "blockHash": "0x3bc9618ecad007f914d946471104817d1ebb21e4bf04756a261fe133af3373ef",
          "blockNumber": "0x13da7f7",
          "blockTimestamp": "0x6a040daa",
          "transactionHash": "0x11be14469ddf572f162428861d49dacea0ebd0543b490a3e7cee92cce784266e",
          "transactionIndex": "0x8",
          "logIndex": "0x58",
          "removed": false
        },
        {
          "address": "0xc71bf5ee4740405030ef521f18a96ea14fec802d",
          "topics": [
            "0xbc9ee36b6ca0bdd5b3840e6d329dd19a2490d880c7ce24d9818aa593adfb35be",
            "0x00000000000000000000000045dce8e4f2dc005a5f28206a46cb034697eeda8e",
            "0x0000000000000000000000000000000000000000000000000000000000007648",
            "0x00000000000000000000000045dce8e4f2dc005a5f28206a46cb034697eeda8e"
          ],
          "data": "0x00000000000000000000000043edd7f3831b08fe70b7555ddd373c8bf65a9050000000000000000000000000000000000000000000000000000009184e72a000",
          "blockHash": "0x3bc9618ecad007f914d946471104817d1ebb21e4bf04756a261fe133af3373ef",
          "blockNumber": "0x13da7f7",
          "blockTimestamp": "0x6a040daa",
          "transactionHash": "0x11be14469ddf572f162428861d49dacea0ebd0543b490a3e7cee92cce784266e",
          "transactionIndex": "0x8",
          "logIndex": "0x59",
          "removed": false
        }
      ],
      "logsBloom": "0x00100000000000000000000200000000000000001000000000000000000000010000000000000000000000000000000000000000020000000000000000200000000002000000000000000008000000000140000000000000000000000000000000000000020000008020000000000800000000000000100000000010000000000000000000808000000000081000000000000000000000000000000100000000020000108000000022100010000000000000000000400000000440008000020004000002000000000000000080000002001000000800000000000000000020004010040000000000000000040000802002008000008000200000000000080000",
      "type": "0x2",
      "transactionHash": "0x11be14469ddf572f162428861d49dacea0ebd0543b490a3e7cee92cce784266e",
      "transactionIndex": "0x8",
      "blockHash": "0x3bc9618ecad007f914d946471104817d1ebb21e4bf04756a261fe133af3373ef",
      "blockNumber": "0x13da7f7",
      "gasUsed": "0x9e179",
      "effectiveGasPrice": "0x2820",
      "from": "0x45dce8e4f2dc005a5f28206a46cb034697eeda8e",
      "to": "0xc71bf5ee4740405030ef521f18a96ea14fec802d",
      "contractAddress": null
    },
    {
      "status": "0x1",
      "cumulativeGasUsed": "0x17b9ef7",
      "logs": [
        {
          "address": "0x3ec3849c33291a9ef4c5db86de593eb4a37fde45",
          "topics": [
            "0x8c5be1e5ebec7d5bd14f71427d1e84f3dd0314c0f7b2291e5b200ac8c7c3b925",
            "0x00000000000000000000000045dce8e4f2dc005a5f28206a46cb034697eeda8e",
            "0x000000000000000000000000c71bf5ee4740405030ef521f18a96ea14fec802d"
          ],
          "data": "0x000000000000000000000000000000000000000000000000000009184e72a000",
          "blockHash": "0x3bc9618ecad007f914d946471104817d1ebb21e4bf04756a261fe133af3373ef",
          "blockNumber": "0x13da7f7",
          "blockTimestamp": "0x6a040daa",
          "transactionHash": "0xf3bfd0e8a8239e668a2415cebc2186478f96d06b6dd65b8a3db13fd90312e33f",
          "transactionIndex": "0x9",
          "logIndex": "0x5a",
          "removed": false
        }
      ],
      "logsBloom": "0x00000000000000000000000200002000000000000000000000000000000000000000000000000000000000000000000000000000000000000000000000200000000000000000000000000000000000000000000000000000000000000000000000000000000000000000000000000000000000000000000000000000000000000000000000000000000000000000000000000000000020000040000000000000020000000000000000000000000000000000000000000000000000000000000000000000000000000000000000000002001000000000000000000000000000000010000000000000000000000000800002008000000000000000000000000000",
      "type": "0x2",
      "transactionHash": "0xf3bfd0e8a8239e668a2415cebc2186478f96d06b6dd65b8a3db13fd90312e33f",
      "transactionIndex": "0x9",
      "blockHash": "0x3bc9618ecad007f914d946471104817d1ebb21e4bf04756a261fe133af3373ef",
      "blockNumber": "0x13da7f7",
      "gasUsed": "0xd1b2",
      "effectiveGasPrice": "0x2820",
      "from": "0x45dce8e4f2dc005a5f28206a46cb034697eeda8e",
      "to": "0x3ec3849c33291a9ef4c5db86de593eb4a37fde45",
      "contractAddress": null
    },
    {
      "status": "0x1",
      "cumulativeGasUsed": "0x1858070",
      "logs": [
        {
          "address": "0x3ec3849c33291a9ef4c5db86de593eb4a37fde45",
          "topics": [
            "0x8c5be1e5ebec7d5bd14f71427d1e84f3dd0314c0f7b2291e5b200ac8c7c3b925",
            "0x00000000000000000000000045dce8e4f2dc005a5f28206a46cb034697eeda8e",
            "0x000000000000000000000000c71bf5ee4740405030ef521f18a96ea14fec802d"
          ],
          "data": "0x0000000000000000000000000000000000000000000000000000000000000000",
          "blockHash": "0x3bc9618ecad007f914d946471104817d1ebb21e4bf04756a261fe133af3373ef",
          "blockNumber": "0x13da7f7",
          "blockTimestamp": "0x6a040daa",
          "transactionHash": "0x1946a028276d827e3ea0a2e41f4091061b269871b5cb5d39f8f00fdb0c85b661",
          "transactionIndex": "0xa",
          "logIndex": "0x5b",
          "removed": false
        },
        {
          "address": "0x3ec3849c33291a9ef4c5db86de593eb4a37fde45",
          "topics": [
            "0xddf252ad1be2c89b69c2b068fc378daa952ba7f163c4a11628f55a4df523b3ef",
            "0x00000000000000000000000045dce8e4f2dc005a5f28206a46cb034697eeda8e",
            "0x000000000000000000000000c71bf5ee4740405030ef521f18a96ea14fec802d"
          ],
          "data": "0x000000000000000000000000000000000000000000000000000009184e72a000",
          "blockHash": "0x3bc9618ecad007f914d946471104817d1ebb21e4bf04756a261fe133af3373ef",
          "blockNumber": "0x13da7f7",
          "blockTimestamp": "0x6a040daa",
          "transactionHash": "0x1946a028276d827e3ea0a2e41f4091061b269871b5cb5d39f8f00fdb0c85b661",
          "transactionIndex": "0xa",
          "logIndex": "0x5c",
          "removed": false
        },
        {
          "address": "0x3ec3849c33291a9ef4c5db86de593eb4a37fde45",
          "topics": [
            "0x8c5be1e5ebec7d5bd14f71427d1e84f3dd0314c0f7b2291e5b200ac8c7c3b925",
            "0x000000000000000000000000c71bf5ee4740405030ef521f18a96ea14fec802d",
            "0x0000000000000000000000003ec3849c33291a9ef4c5db86de593eb4a37fde45"
          ],
          "data": "0x000000000000000000000000000000000000000000000000000009184e72a000",
          "blockHash": "0x3bc9618ecad007f914d946471104817d1ebb21e4bf04756a261fe133af3373ef",
          "blockNumber": "0x13da7f7",
          "blockTimestamp": "0x6a040daa",
          "transactionHash": "0x1946a028276d827e3ea0a2e41f4091061b269871b5cb5d39f8f00fdb0c85b661",
          "transactionIndex": "0xa",
          "logIndex": "0x5d",
          "removed": false
        },
        {
          "address": "0x3ec3849c33291a9ef4c5db86de593eb4a37fde45",
          "topics": [
            "0xddf252ad1be2c89b69c2b068fc378daa952ba7f163c4a11628f55a4df523b3ef",
            "0x000000000000000000000000c71bf5ee4740405030ef521f18a96ea14fec802d",
            "0x0000000000000000000000000000000000000000000000000000000000000000"
          ],
          "data": "0x000000000000000000000000000000000000000000000000000009184e72a000",
          "blockHash": "0x3bc9618ecad007f914d946471104817d1ebb21e4bf04756a261fe133af3373ef",
          "blockNumber": "0x13da7f7",
          "blockTimestamp": "0x6a040daa",
          "transactionHash": "0x1946a028276d827e3ea0a2e41f4091061b269871b5cb5d39f8f00fdb0c85b661",
          "transactionIndex": "0xa",
          "logIndex": "0x5e",
          "removed": false
        },
        {
          "address": "0xc39161c743d0307eb9bcc9fef03eeb9dc4802de7",
          "topics": [
            "0x61ed099e74a97a1d7f8bb0952a88ca8b7b8ebd00c126ea04671f92a81213318a"
          ],
          "data": "0x0000000000000000000000004208d6e27538189bb48e603d6123a94b8abe0a0b00000000000000000000000000000000000000000000000000b71c680e1841a5",
          "blockHash": "0x3bc9618ecad007f914d946471104817d1ebb21e4bf04756a261fe133af3373ef",
          "blockNumber": "0x13da7f7",
          "blockTimestamp": "0x6a040daa",
          "transactionHash": "0x1946a028276d827e3ea0a2e41f4091061b269871b5cb5d39f8f00fdb0c85b661",
          "transactionIndex": "0xa",
          "logIndex": "0x5f",
          "removed": false
        },
        {
          "address": "0xc39161c743d0307eb9bcc9fef03eeb9dc4802de7",
          "topics": [
            "0x07ea52d82345d6e838192107d8fd7123d9c2ec8e916cd0aad13fd2b60db24644"
          ],
          "data": "0x000000000000000000000000000000000000000000000000000000000000006000000000000000000000000000000000000000000000000000000000000001200000000000000000000000000000000000000000000000000000000000000140000000000000000000000000000000000000000000000000000000000000000500000000000000000000000006e8042729cef3ae6d6db5350f48f9d736c3675d000000000000000000000000282b3386571f7f794450d5789911a9804fa346b4000000000000000000000000559a194dae0508342e7ce1ad96e7e90a77f8bc4c000000000000000000000000dd7b5e1db4aafd5c8ec3b764efb8ed265aa5445b000000000000000000000000ecbaa45c33ce6fa284995e5f8314f5bc7f1c200800000000000000000000000000000000000000000000000000000000000000000000000000000000000000000000000000000000000000000000000000000005000000000000000000000000000000000000000000000000001785ebb3c7007a00000000000000000000000000000000000000000000000000191f3117d714e500000000000000000000000000000000000000000000000000191f3117d714e5000000000000000000000000000000000000000000000000001785ebb3c7007a00000000000000000000000000000000000000000000000000191f3117d714e5",
          "blockHash": "0x3bc9618ecad007f914d946471104817d1ebb21e4bf04756a261fe133af3373ef",
          "blockNumber": "0x13da7f7",
          "blockTimestamp": "0x6a040daa",
          "transactionHash": "0x1946a028276d827e3ea0a2e41f4091061b269871b5cb5d39f8f00fdb0c85b661",
          "transactionIndex": "0xa",
          "logIndex": "0x60",
          "removed": false
        },
        {
          "address": "0x6f475642a6e85809b1c36fa62763669b1b48dd5b",
          "topics": [
            "0x1ab700d4ced0c005b164c0f789fd09fcbb0156d4c2041b8a3bfbcd961cd1567f"
          ],
          "data": "0x00000000000000000000000000000000000000000000000000000000000000600000000000000000000000000000000000000000000000000000000000000180000000000000000000000000c39161c743d0307eb9bcc9fef03eeb9dc4802de700000000000000000000000000000000000000000000000000000000000000f90100000000000000010000769a0000000000000000000000003ec3849c33291a9ef4c5db86de593eb4a37fde450000762f000000000000000000000000999dfabe3b1cc2ef66eb032eea42fea329bba1689af6682bfc9db8d897283038f7b80cf4ae859149e3f313920a2e532d4e4440aa0000000000000000000000002a2019b30c157db6c1c01306b8025167dbe1803b000000000000000a000000000000000000000000c71bf5ee4740405030ef521f18a96ea14fec802d00000000000000000000000045dce8e4f2dc005a5f28206a46cb034697eeda8e000000000000000000000000000000000000000000000000000000000000764800000000000000000000000000000000000000000000000000000000000000000000000000002c0003010011010000000000000000000000000003d090010013030000000000000000000000000000000f42400000000000000000000000000000000000000000",
          "blockHash": "0x3bc9618ecad007f914d946471104817d1ebb21e4bf04756a261fe133af3373ef",
          "blockNumber": "0x13da7f7",
          "blockTimestamp": "0x6a040daa",
          "transactionHash": "0x1946a028276d827e3ea0a2e41f4091061b269871b5cb5d39f8f00fdb0c85b661",
          "transactionIndex": "0xa",
          "logIndex": "0x61",
          "removed": false
        },
        {
          "address": "0x3ec3849c33291a9ef4c5db86de593eb4a37fde45",
          "topics": [
            "0x85496b760a4b7f8d66384b9df21b381f5d1b1e79f229a47aaf4c232edc2fe59a",
            "0x9af6682bfc9db8d897283038f7b80cf4ae859149e3f313920a2e532d4e4440aa",
            "0x000000000000000000000000c71bf5ee4740405030ef521f18a96ea14fec802d"
          ],
          "data": "0x000000000000000000000000000000000000000000000000000000000000762f000000000000000000000000000000000000000000000000000009184e72a000000000000000000000000000000000000000000000000000000009184e72a000",
          "blockHash": "0x3bc9618ecad007f914d946471104817d1ebb21e4bf04756a261fe133af3373ef",
          "blockNumber": "0x13da7f7",
          "blockTimestamp": "0x6a040daa",
          "transactionHash": "0x1946a028276d827e3ea0a2e41f4091061b269871b5cb5d39f8f00fdb0c85b661",
          "transactionIndex": "0xa",
          "logIndex": "0x62",
          "removed": false
        },
        {
          "address": "0xc71bf5ee4740405030ef521f18a96ea14fec802d",
          "topics": [
            "0xbc9ee36b6ca0bdd5b3840e6d329dd19a2490d880c7ce24d9818aa593adfb35be",
            "0x00000000000000000000000045dce8e4f2dc005a5f28206a46cb034697eeda8e",
            "0x0000000000000000000000000000000000000000000000000000000000007648",
            "0x00000000000000000000000045dce8e4f2dc005a5f28206a46cb034697eeda8e"
          ],
          "data": "0x0000000000000000000000003ec3849c33291a9ef4c5db86de593eb4a37fde45000000000000000000000000000000000000000000000000000009184e72a000",
          "blockHash": "0x3bc9618ecad007f914d946471104817d1ebb21e4bf04756a261fe133af3373ef",
          "blockNumber": "0x13da7f7",
          "blockTimestamp": "0x6a040daa",
          "transactionHash": "0x1946a028276d827e3ea0a2e41f4091061b269871b5cb5d39f8f00fdb0c85b661",
          "transactionIndex": "0xa",
          "logIndex": "0x63",
          "removed": false
        }
      ],
      "logsBloom": "0x00100000000000000000000200002000000000001000000000000000000000000000000000000000000000020000000000000000000000000000000000200020000002000000000000000008000000000140000000000000000000000000000000000000020000008020000000000800000000000000100000000010000000000000000000808000000000081000000000000000000020000040004000000000020000108000000020100010400000000000000000400000000440000000000000000002000000000000000080000002001000000800800000000000000020004010040000000000000000200000802002008000008000200000000000000000",
      "type": "0x2",
      "transactionHash": "0x1946a028276d827e3ea0a2e41f4091061b269871b5cb5d39f8f00fdb0c85b661",
      "transactionIndex": "0xa",
      "blockHash": "0x3bc9618ecad007f914d946471104817d1ebb21e4bf04756a261fe133af3373ef",
      "blockNumber": "0x13da7f7",
      "gasUsed": "0x9e179",
      "effectiveGasPrice": "0x2820",
      "from": "0x45dce8e4f2dc005a5f28206a46cb034697eeda8e",
      "to": "0xc71bf5ee4740405030ef521f18a96ea14fec802d",
      "contractAddress": null
    },
    {
      "status": "0x1",
      "cumulativeGasUsed": "0x16f2e21",
      "logs": [
        {
          "address": "0x64445f0aecc51e94ad52d8ac56b7190e764e561a",
          "topics": [
            "0x8c5be1e5ebec7d5bd14f71427d1e84f3dd0314c0f7b2291e5b200ac8c7c3b925",
            "0x00000000000000000000000045dce8e4f2dc005a5f28206a46cb034697eeda8e",
            "0x000000000000000000000000c71bf5ee4740405030ef521f18a96ea14fec802d"
          ],
          "data": "0x000000000000000000000000000000000000000000000000000009184e72a000",
          "blockHash": "0x1544ac558a6b47c769c1767d96394a1b3c6b9c494ce91d548520aef7440d3aa8",
          "blockNumber": "0x13da7f8",
          "blockTimestamp": "0x6a040dac",
          "transactionHash": "0xf2af1b6444b3c8a27b7a94a6bb4b7994481c3ede41fb0da70f48ea3629c9105b",
          "transactionIndex": "0x8",
          "logIndex": "0x89",
          "removed": false
        }
      ],
      "logsBloom": "0x00000000000000000000000200000000000000000000000000000000000000000000000000000000000000000000000000000000000000000000000000200000002000000000000000000000000000000000000000000000000000000000000000000000000000000000000000000000000000000000000000000000000000000000000000000000000000000000000000000000000000000000000000000000020000000000000000000008000000000000000000000000000000000000000000000000000000000000000000000002001000000000000000000000000000000010000000000000000000000000800002008008000000000000000000000000",
      "type": "0x2",
      "transactionHash": "0xf2af1b6444b3c8a27b7a94a6bb4b7994481c3ede41fb0da70f48ea3629c9105b",
      "transactionIndex": "0x8",
      "blockHash": "0x1544ac558a6b47c769c1767d96394a1b3c6b9c494ce91d548520aef7440d3aa8",
      "blockNumber": "0x13da7f8",
      "gasUsed": "0xd19c",
      "effectiveGasPrice": "0x2821",
      "from": "0x45dce8e4f2dc005a5f28206a46cb034697eeda8e",
      "to": "0x64445f0aecc51e94ad52d8ac56b7190e764e561a",
      "contractAddress": null
    },
    {
      "status": "0x1",
      "cumulativeGasUsed": "0x178ccb8",
      "logs": [
        {
          "address": "0x64445f0aecc51e94ad52d8ac56b7190e764e561a",
          "topics": [
            "0x8c5be1e5ebec7d5bd14f71427d1e84f3dd0314c0f7b2291e5b200ac8c7c3b925",
            "0x00000000000000000000000045dce8e4f2dc005a5f28206a46cb034697eeda8e",
            "0x000000000000000000000000c71bf5ee4740405030ef521f18a96ea14fec802d"
          ],
          "data": "0x0000000000000000000000000000000000000000000000000000000000000000",
          "blockHash": "0x1544ac558a6b47c769c1767d96394a1b3c6b9c494ce91d548520aef7440d3aa8",
          "blockNumber": "0x13da7f8",
          "blockTimestamp": "0x6a040dac",
          "transactionHash": "0x29af12b238c687016a075e2e166008e6e5ee90c89ee0e358d61e050fe68bdda2",
          "transactionIndex": "0x9",
          "logIndex": "0x8a",
          "removed": false
        },
        {
          "address": "0x64445f0aecc51e94ad52d8ac56b7190e764e561a",
          "topics": [
            "0xddf252ad1be2c89b69c2b068fc378daa952ba7f163c4a11628f55a4df523b3ef",
            "0x00000000000000000000000045dce8e4f2dc005a5f28206a46cb034697eeda8e",
            "0x000000000000000000000000c71bf5ee4740405030ef521f18a96ea14fec802d"
          ],
          "data": "0x000000000000000000000000000000000000000000000000000009184e72a000",
          "blockHash": "0x1544ac558a6b47c769c1767d96394a1b3c6b9c494ce91d548520aef7440d3aa8",
          "blockNumber": "0x13da7f8",
          "blockTimestamp": "0x6a040dac",
          "transactionHash": "0x29af12b238c687016a075e2e166008e6e5ee90c89ee0e358d61e050fe68bdda2",
          "transactionIndex": "0x9",
          "logIndex": "0x8b",
          "removed": false
        },
        {
          "address": "0x64445f0aecc51e94ad52d8ac56b7190e764e561a",
          "topics": [
            "0x8c5be1e5ebec7d5bd14f71427d1e84f3dd0314c0f7b2291e5b200ac8c7c3b925",
            "0x000000000000000000000000c71bf5ee4740405030ef521f18a96ea14fec802d",
            "0x00000000000000000000000064445f0aecc51e94ad52d8ac56b7190e764e561a"
          ],
          "data": "0x000000000000000000000000000000000000000000000000000009184e72a000",
          "blockHash": "0x1544ac558a6b47c769c1767d96394a1b3c6b9c494ce91d548520aef7440d3aa8",
          "blockNumber": "0x13da7f8",
          "blockTimestamp": "0x6a040dac",
          "transactionHash": "0x29af12b238c687016a075e2e166008e6e5ee90c89ee0e358d61e050fe68bdda2",
          "transactionIndex": "0x9",
          "logIndex": "0x8c",
          "removed": false
        },
        {
          "address": "0x64445f0aecc51e94ad52d8ac56b7190e764e561a",
          "topics": [
            "0xddf252ad1be2c89b69c2b068fc378daa952ba7f163c4a11628f55a4df523b3ef",
            "0x000000000000000000000000c71bf5ee4740405030ef521f18a96ea14fec802d",
            "0x0000000000000000000000000000000000000000000000000000000000000000"
          ],
          "data": "0x000000000000000000000000000000000000000000000000000009184e72a000",
          "blockHash": "0x1544ac558a6b47c769c1767d96394a1b3c6b9c494ce91d548520aef7440d3aa8",
          "blockNumber": "0x13da7f8",
          "blockTimestamp": "0x6a040dac",
          "transactionHash": "0x29af12b238c687016a075e2e166008e6e5ee90c89ee0e358d61e050fe68bdda2",
          "transactionIndex": "0x9",
          "logIndex": "0x8d",
          "removed": false
        },
        {
          "address": "0xc39161c743d0307eb9bcc9fef03eeb9dc4802de7",
          "topics": [
            "0x61ed099e74a97a1d7f8bb0952a88ca8b7b8ebd00c126ea04671f92a81213318a"
          ],
          "data": "0x0000000000000000000000004208d6e27538189bb48e603d6123a94b8abe0a0b00000000000000000000000000000000000000000000000000b71c680e1841a5",
          "blockHash": "0x1544ac558a6b47c769c1767d96394a1b3c6b9c494ce91d548520aef7440d3aa8",
          "blockNumber": "0x13da7f8",
          "blockTimestamp": "0x6a040dac",
          "transactionHash": "0x29af12b238c687016a075e2e166008e6e5ee90c89ee0e358d61e050fe68bdda2",
          "transactionIndex": "0x9",
          "logIndex": "0x8e",
          "removed": false
        },
        {
          "address": "0xc39161c743d0307eb9bcc9fef03eeb9dc4802de7",
          "topics": [
            "0x07ea52d82345d6e838192107d8fd7123d9c2ec8e916cd0aad13fd2b60db24644"
          ],
          "data": "0x000000000000000000000000000000000000000000000000000000000000006000000000000000000000000000000000000000000000000000000000000001200000000000000000000000000000000000000000000000000000000000000140000000000000000000000000000000000000000000000000000000000000000500000000000000000000000006e8042729cef3ae6d6db5350f48f9d736c3675d000000000000000000000000282b3386571f7f794450d5789911a9804fa346b4000000000000000000000000559a194dae0508342e7ce1ad96e7e90a77f8bc4c000000000000000000000000dd7b5e1db4aafd5c8ec3b764efb8ed265aa5445b000000000000000000000000ecbaa45c33ce6fa284995e5f8314f5bc7f1c200800000000000000000000000000000000000000000000000000000000000000000000000000000000000000000000000000000000000000000000000000000005000000000000000000000000000000000000000000000000001785ebb3c7007a00000000000000000000000000000000000000000000000000191f3117d714e500000000000000000000000000000000000000000000000000191f3117d714e5000000000000000000000000000000000000000000000000001785ebb3c7007a00000000000000000000000000000000000000000000000000191f3117d714e5",
          "blockHash": "0x1544ac558a6b47c769c1767d96394a1b3c6b9c494ce91d548520aef7440d3aa8",
          "blockNumber": "0x13da7f8",
          "blockTimestamp": "0x6a040dac",
          "transactionHash": "0x29af12b238c687016a075e2e166008e6e5ee90c89ee0e358d61e050fe68bdda2",
          "transactionIndex": "0x9",
          "logIndex": "0x8f",
          "removed": false
        },
        {
          "address": "0x6f475642a6e85809b1c36fa62763669b1b48dd5b",
          "topics": [
            "0x1ab700d4ced0c005b164c0f789fd09fcbb0156d4c2041b8a3bfbcd961cd1567f"
          ],
          "data": "0x00000000000000000000000000000000000000000000000000000000000000600000000000000000000000000000000000000000000000000000000000000180000000000000000000000000c39161c743d0307eb9bcc9fef03eeb9dc4802de700000000000000000000000000000000000000000000000000000000000000f90100000000000000020000769a00000000000000000000000064445f0aecc51e94ad52d8ac56b7190e764e561a0000762f000000000000000000000000d86fbbd0c8715d2c1f40e451e5c3514e65e7576a67df40a1a1cc4a9c80e2583c645e165ba5f4ad559e33f8ca6fdcb17ff7f2d3c30000000000000000000000002a2019b30c157db6c1c01306b8025167dbe1803b000000000000000a000000000000000000000000c71bf5ee4740405030ef521f18a96ea14fec802d00000000000000000000000045dce8e4f2dc005a5f28206a46cb034697eeda8e000000000000000000000000000000000000000000000000000000000000764800000000000000000000000000000000000000000000000000000000000000000000000000002c0003010011010000000000000000000000000003d090010013030000000000000000000000000000000f42400000000000000000000000000000000000000000",
          "blockHash": "0x1544ac558a6b47c769c1767d96394a1b3c6b9c494ce91d548520aef7440d3aa8",
          "blockNumber": "0x13da7f8",
          "blockTimestamp": "0x6a040dac",
          "transactionHash": "0x29af12b238c687016a075e2e166008e6e5ee90c89ee0e358d61e050fe68bdda2",
          "transactionIndex": "0x9",
          "logIndex": "0x90",
          "removed": false
        },
        {
          "address": "0x64445f0aecc51e94ad52d8ac56b7190e764e561a",
          "topics": [
            "0x85496b760a4b7f8d66384b9df21b381f5d1b1e79f229a47aaf4c232edc2fe59a",
            "0x67df40a1a1cc4a9c80e2583c645e165ba5f4ad559e33f8ca6fdcb17ff7f2d3c3",
            "0x000000000000000000000000c71bf5ee4740405030ef521f18a96ea14fec802d"
          ],
          "data": "0x000000000000000000000000000000000000000000000000000000000000762f000000000000000000000000000000000000000000000000000009184e72a000000000000000000000000000000000000000000000000000000009184e72a000",
          "blockHash": "0x1544ac558a6b47c769c1767d96394a1b3c6b9c494ce91d548520aef7440d3aa8",
          "blockNumber": "0x13da7f8",
          "blockTimestamp": "0x6a040dac",
          "transactionHash": "0x29af12b238c687016a075e2e166008e6e5ee90c89ee0e358d61e050fe68bdda2",
          "transactionIndex": "0x9",
          "logIndex": "0x91",
          "removed": false
        },
        {
          "address": "0xc71bf5ee4740405030ef521f18a96ea14fec802d",
          "topics": [
            "0xbc9ee36b6ca0bdd5b3840e6d329dd19a2490d880c7ce24d9818aa593adfb35be",
            "0x00000000000000000000000045dce8e4f2dc005a5f28206a46cb034697eeda8e",
            "0x0000000000000000000000000000000000000000000000000000000000007648",
            "0x00000000000000000000000045dce8e4f2dc005a5f28206a46cb034697eeda8e"
          ],
          "data": "0x00000000000000000000000064445f0aecc51e94ad52d8ac56b7190e764e561a000000000000000000000000000000000000000000000000000009184e72a000",
          "blockHash": "0x1544ac558a6b47c769c1767d96394a1b3c6b9c494ce91d548520aef7440d3aa8",
          "blockNumber": "0x13da7f8",
          "blockTimestamp": "0x6a040dac",
          "transactionHash": "0x29af12b238c687016a075e2e166008e6e5ee90c89ee0e358d61e050fe68bdda2",
          "transactionIndex": "0x9",
          "logIndex": "0x92",
          "removed": false
        }
      ],
      "logsBloom": "0x0010000000000000000000020000000000000000100000000000000000000000000000000000000000000000000000000000000000000000020000000020000000200200000000000000000800000000014000000000000000000000000000000000000002000000802000000000080000000000000010000000001000000000000000000080800000000008100000000000000000000000000000000000000002000010800000002010001c000000000000000000400000000440000000000000000002000000000000000080000002001000000800000000000000000028004010040000000000000000000000802802008008008400200000000000000002",
      "type": "0x2",
      "transactionHash": "0x29af12b238c687016a075e2e166008e6e5ee90c89ee0e358d61e050fe68bdda2",
      "transactionIndex": "0x9",
      "blockHash": "0x1544ac558a6b47c769c1767d96394a1b3c6b9c494ce91d548520aef7440d3aa8",
      "blockNumber": "0x13da7f8",
      "gasUsed": "0x99e97",
      "effectiveGasPrice": "0x2821",
      "from": "0x45dce8e4f2dc005a5f28206a46cb034697eeda8e",
      "to": "0xc71bf5ee4740405030ef521f18a96ea14fec802d",
      "contractAddress": null
    },
    {
      "status": "0x1",
      "cumulativeGasUsed": "0x1799e6a",
      "logs": [
        {
          "address": "0x90581eca9469d8d7f5d3b60f4715027adfcf7927",
          "topics": [
            "0x8c5be1e5ebec7d5bd14f71427d1e84f3dd0314c0f7b2291e5b200ac8c7c3b925",
            "0x00000000000000000000000045dce8e4f2dc005a5f28206a46cb034697eeda8e",
            "0x000000000000000000000000c71bf5ee4740405030ef521f18a96ea14fec802d"
          ],
          "data": "0x000000000000000000000000000000000000000000000000000009184e72a000",
          "blockHash": "0x1544ac558a6b47c769c1767d96394a1b3c6b9c494ce91d548520aef7440d3aa8",
          "blockNumber": "0x13da7f8",
          "blockTimestamp": "0x6a040dac",
          "transactionHash": "0xc75d43b10117e58bf22067500ce1dfdb608cbca6d15253cf8a6cebdb0711a2d7",
          "transactionIndex": "0xa",
          "logIndex": "0x93",
          "removed": false
        }
      ],
      "logsBloom": "0x00000000000000000000000200000000000000000000000000000000000000000000000000000000000000000000000000000000000000000000000000200000000000000000000000000000000000000000000000000000000000000000000000000000000000000000000000000000000000000000000000000000000000000000000000000004000010000000000000000000000000000000000000000000020000000000000000000000000000000000000000000000000000000000000000000000000000000000000000000002001000000000000000000000000000000010000000000000000000000000800002408000000000000000000000000000",
      "type": "0x2",
      "transactionHash": "0xc75d43b10117e58bf22067500ce1dfdb608cbca6d15253cf8a6cebdb0711a2d7",
      "transactionIndex": "0xa",
      "blockHash": "0x1544ac558a6b47c769c1767d96394a1b3c6b9c494ce91d548520aef7440d3aa8",
      "blockNumber": "0x13da7f8",
      "gasUsed": "0xd1b2",
      "effectiveGasPrice": "0x2821",
      "from": "0x45dce8e4f2dc005a5f28206a46cb034697eeda8e",
      "to": "0x90581eca9469d8d7f5d3b60f4715027adfcf7927",
      "contractAddress": null
    },
    {
      "status": "0x1",
      "cumulativeGasUsed": "0x1837fe3",
      "logs": [
        {
          "address": "0x90581eca9469d8d7f5d3b60f4715027adfcf7927",
          "topics": [
            "0x8c5be1e5ebec7d5bd14f71427d1e84f3dd0314c0f7b2291e5b200ac8c7c3b925",
            "0x00000000000000000000000045dce8e4f2dc005a5f28206a46cb034697eeda8e",
            "0x000000000000000000000000c71bf5ee4740405030ef521f18a96ea14fec802d"
          ],
          "data": "0x0000000000000000000000000000000000000000000000000000000000000000",
          "blockHash": "0x1544ac558a6b47c769c1767d96394a1b3c6b9c494ce91d548520aef7440d3aa8",
          "blockNumber": "0x13da7f8",
          "blockTimestamp": "0x6a040dac",
          "transactionHash": "0x7eee44258bf3b356555c536f521cdd821ecf69a6508a1230dbc753f4d79d579a",
          "transactionIndex": "0xb",
          "logIndex": "0x94",
          "removed": false
        },
        {
          "address": "0x90581eca9469d8d7f5d3b60f4715027adfcf7927",
          "topics": [
            "0xddf252ad1be2c89b69c2b068fc378daa952ba7f163c4a11628f55a4df523b3ef",
            "0x00000000000000000000000045dce8e4f2dc005a5f28206a46cb034697eeda8e",
            "0x000000000000000000000000c71bf5ee4740405030ef521f18a96ea14fec802d"
          ],
          "data": "0x000000000000000000000000000000000000000000000000000009184e72a000",
          "blockHash": "0x1544ac558a6b47c769c1767d96394a1b3c6b9c494ce91d548520aef7440d3aa8",
          "blockNumber": "0x13da7f8",
          "blockTimestamp": "0x6a040dac",
          "transactionHash": "0x7eee44258bf3b356555c536f521cdd821ecf69a6508a1230dbc753f4d79d579a",
          "transactionIndex": "0xb",
          "logIndex": "0x95",
          "removed": false
        },
        {
          "address": "0x90581eca9469d8d7f5d3b60f4715027adfcf7927",
          "topics": [
            "0x8c5be1e5ebec7d5bd14f71427d1e84f3dd0314c0f7b2291e5b200ac8c7c3b925",
            "0x000000000000000000000000c71bf5ee4740405030ef521f18a96ea14fec802d",
            "0x00000000000000000000000090581eca9469d8d7f5d3b60f4715027adfcf7927"
          ],
          "data": "0x000000000000000000000000000000000000000000000000000009184e72a000",
          "blockHash": "0x1544ac558a6b47c769c1767d96394a1b3c6b9c494ce91d548520aef7440d3aa8",
          "blockNumber": "0x13da7f8",
          "blockTimestamp": "0x6a040dac",
          "transactionHash": "0x7eee44258bf3b356555c536f521cdd821ecf69a6508a1230dbc753f4d79d579a",
          "transactionIndex": "0xb",
          "logIndex": "0x96",
          "removed": false
        },
        {
          "address": "0x90581eca9469d8d7f5d3b60f4715027adfcf7927",
          "topics": [
            "0xddf252ad1be2c89b69c2b068fc378daa952ba7f163c4a11628f55a4df523b3ef",
            "0x000000000000000000000000c71bf5ee4740405030ef521f18a96ea14fec802d",
            "0x0000000000000000000000000000000000000000000000000000000000000000"
          ],
          "data": "0x000000000000000000000000000000000000000000000000000009184e72a000",
          "blockHash": "0x1544ac558a6b47c769c1767d96394a1b3c6b9c494ce91d548520aef7440d3aa8",
          "blockNumber": "0x13da7f8",
          "blockTimestamp": "0x6a040dac",
          "transactionHash": "0x7eee44258bf3b356555c536f521cdd821ecf69a6508a1230dbc753f4d79d579a",
          "transactionIndex": "0xb",
          "logIndex": "0x97",
          "removed": false
        },
        {
          "address": "0xc39161c743d0307eb9bcc9fef03eeb9dc4802de7",
          "topics": [
            "0x61ed099e74a97a1d7f8bb0952a88ca8b7b8ebd00c126ea04671f92a81213318a"
          ],
          "data": "0x0000000000000000000000004208d6e27538189bb48e603d6123a94b8abe0a0b00000000000000000000000000000000000000000000000000b71c680e1841a5",
          "blockHash": "0x1544ac558a6b47c769c1767d96394a1b3c6b9c494ce91d548520aef7440d3aa8",
          "blockNumber": "0x13da7f8",
          "blockTimestamp": "0x6a040dac",
          "transactionHash": "0x7eee44258bf3b356555c536f521cdd821ecf69a6508a1230dbc753f4d79d579a",
          "transactionIndex": "0xb",
          "logIndex": "0x98",
          "removed": false
        },
        {
          "address": "0xc39161c743d0307eb9bcc9fef03eeb9dc4802de7",
          "topics": [
            "0x07ea52d82345d6e838192107d8fd7123d9c2ec8e916cd0aad13fd2b60db24644"
          ],
          "data": "0x000000000000000000000000000000000000000000000000000000000000006000000000000000000000000000000000000000000000000000000000000001200000000000000000000000000000000000000000000000000000000000000140000000000000000000000000000000000000000000000000000000000000000500000000000000000000000006e8042729cef3ae6d6db5350f48f9d736c3675d000000000000000000000000282b3386571f7f794450d5789911a9804fa346b4000000000000000000000000559a194dae0508342e7ce1ad96e7e90a77f8bc4c000000000000000000000000dd7b5e1db4aafd5c8ec3b764efb8ed265aa5445b000000000000000000000000ecbaa45c33ce6fa284995e5f8314f5bc7f1c200800000000000000000000000000000000000000000000000000000000000000000000000000000000000000000000000000000000000000000000000000000005000000000000000000000000000000000000000000000000001785ebb3c7007a00000000000000000000000000000000000000000000000000191f3117d714e500000000000000000000000000000000000000000000000000191f3117d714e5000000000000000000000000000000000000000000000000001785ebb3c7007a00000000000000000000000000000000000000000000000000191f3117d714e5",
          "blockHash": "0x1544ac558a6b47c769c1767d96394a1b3c6b9c494ce91d548520aef7440d3aa8",
          "blockNumber": "0x13da7f8",
          "blockTimestamp": "0x6a040dac",
          "transactionHash": "0x7eee44258bf3b356555c536f521cdd821ecf69a6508a1230dbc753f4d79d579a",
          "transactionIndex": "0xb",
          "logIndex": "0x99",
          "removed": false
        },
        {
          "address": "0x6f475642a6e85809b1c36fa62763669b1b48dd5b",
          "topics": [
            "0x1ab700d4ced0c005b164c0f789fd09fcbb0156d4c2041b8a3bfbcd961cd1567f"
          ],
          "data": "0x00000000000000000000000000000000000000000000000000000000000000600000000000000000000000000000000000000000000000000000000000000180000000000000000000000000c39161c743d0307eb9bcc9fef03eeb9dc4802de700000000000000000000000000000000000000000000000000000000000000f90100000000000000010000769a00000000000000000000000090581eca9469d8d7f5d3b60f4715027adfcf79270000762f00000000000000000000000075c38d46001b0f8108c4136216bd2694982c20fc66aeee7b891b381660c1567d198a38793de72891481729de1a5b3865a5e397720000000000000000000000002a2019b30c157db6c1c01306b8025167dbe1803b000000000000000a000000000000000000000000c71bf5ee4740405030ef521f18a96ea14fec802d00000000000000000000000045dce8e4f2dc005a5f28206a46cb034697eeda8e000000000000000000000000000000000000000000000000000000000000764800000000000000000000000000000000000000000000000000000000000000000000000000002c0003010011010000000000000000000000000003d090010013030000000000000000000000000000000f42400000000000000000000000000000000000000000",
          "blockHash": "0x1544ac558a6b47c769c1767d96394a1b3c6b9c494ce91d548520aef7440d3aa8",
          "blockNumber": "0x13da7f8",
          "blockTimestamp": "0x6a040dac",
          "transactionHash": "0x7eee44258bf3b356555c536f521cdd821ecf69a6508a1230dbc753f4d79d579a",
          "transactionIndex": "0xb",
          "logIndex": "0x9a",
          "removed": false
        },
        {
          "address": "0x90581eca9469d8d7f5d3b60f4715027adfcf7927",
          "topics": [
            "0x85496b760a4b7f8d66384b9df21b381f5d1b1e79f229a47aaf4c232edc2fe59a",
            "0x66aeee7b891b381660c1567d198a38793de72891481729de1a5b3865a5e39772",
            "0x000000000000000000000000c71bf5ee4740405030ef521f18a96ea14fec802d"
          ],
          "data": "0x000000000000000000000000000000000000000000000000000000000000762f000000000000000000000000000000000000000000000000000009184e72a000000000000000000000000000000000000000000000000000000009184e72a000",
          "blockHash": "0x1544ac558a6b47c769c1767d96394a1b3c6b9c494ce91d548520aef7440d3aa8",
          "blockNumber": "0x13da7f8",
          "blockTimestamp": "0x6a040dac",
          "transactionHash": "0x7eee44258bf3b356555c536f521cdd821ecf69a6508a1230dbc753f4d79d579a",
          "transactionIndex": "0xb",
          "logIndex": "0x9b",
          "removed": false
        },
        {
          "address": "0xc71bf5ee4740405030ef521f18a96ea14fec802d",
          "topics": [
            "0xbc9ee36b6ca0bdd5b3840e6d329dd19a2490d880c7ce24d9818aa593adfb35be",
            "0x00000000000000000000000045dce8e4f2dc005a5f28206a46cb034697eeda8e",
            "0x0000000000000000000000000000000000000000000000000000000000007648",
            "0x00000000000000000000000045dce8e4f2dc005a5f28206a46cb034697eeda8e"
          ],
          "data": "0x00000000000000000000000090581eca9469d8d7f5d3b60f4715027adfcf7927000000000000000000000000000000000000000000000000000009184e72a000",
          "blockHash": "0x1544ac558a6b47c769c1767d96394a1b3c6b9c494ce91d548520aef7440d3aa8",
          "blockNumber": "0x13da7f8",
          "blockTimestamp": "0x6a040dac",
          "transactionHash": "0x7eee44258bf3b356555c536f521cdd821ecf69a6508a1230dbc753f4d79d579a",
          "transactionIndex": "0xb",
          "logIndex": "0x9c",
          "removed": false
        }
      ],
      "logsBloom": "0x0010000000000000000000020000000000000000100000000000000000000000000000000000000000000000000000000000000000000000000000000020000000000200000000000000000800000000014000000000000000000000000020000000000002000000802000000000080000000001000010000000001000000000000000000080800400001008100a000000000000000000000000000000040000020000108000000020100010000000000000000000400000000440000000000000000002000000000000000080000102001000000800000000000000000020004010040000000000000000000000802002408000008000200000000000000000",
      "type": "0x2",
      "transactionHash": "0x7eee44258bf3b356555c536f521cdd821ecf69a6508a1230dbc753f4d79d579a",
      "transactionIndex": "0xb",
      "blockHash": "0x1544ac558a6b47c769c1767d96394a1b3c6b9c494ce91d548520aef7440d3aa8",
      "blockNumber": "0x13da7f8",
      "gasUsed": "0x9e179",
      "effectiveGasPrice": "0x2821",
      "from": "0x45dce8e4f2dc005a5f28206a46cb034697eeda8e",
      "to": "0xc71bf5ee4740405030ef521f18a96ea14fec802d",
      "contractAddress": null
    }
  ],
  "libraries": [],
  "pending": [],
  "returns": {},
  "timestamp": 1778650545684,
  "chain": 80094,
  "commit": "3c1e5d2a"
}