{
  "transactions": [
    {
      "hash": "0xc8746bdcf55879f0c9fdef83a0af3fad087b96f3740baf0d11565ed8f19f5fdd",
      "transactionType": "CALL",
      "contractName": null,
      "contractAddress": "0x80eede496655fb9047dd39d9f418d5483ed600df",
      "function": "approve(address,uint256)",
      "arguments": [
        "0x3A5cDA3Ac66Aa80573402610c94B74eD6cdb2F23",
        "10000000000000"
      ],
      "transaction": {
        "from": "0x45dce8e4f2dc005a5f28206a46cb034697eeda8e",
        "to": "0x80eede496655fb9047dd39d9f418d5483ed600df",
        "gas": "0x132ad",
        "value": "0x0",
        "input": "0x095ea7b30000000000000000000000003a5cda3ac66aa80573402610c94b74ed6cdb2f23000000000000000000000000000000000000000000000000000009184e72a000",
        "nonce": "0xb5",
        "chainId": "0x92"
      },
      "additionalContracts": [],
      "isFixedGasLimit": false
    },
    {
      "hash": "0x73603edf1ead593d5fb3681cc2e9b9d3eaefecb1ae116729a07cd235fe036155",
      "transactionType": "CALL",
      "contractName": null,
      "contractAddress": "0x3a5cda3ac66aa80573402610c94b74ed6cdb2f23",
      "function": "sendOFT(address,uint32,bytes32,uint256)",
      "arguments": [
        "0x80Eede496655FB9047dd39d9f418d5483ED600df",
        "30319",
        "0x00000000000000000000000045dce8e4f2dc005a5f28206a46cb034697eeda8e",
        "10000000000000"
      ],
      "transaction": {
        "from": "0x45dce8e4f2dc005a5f28206a46cb034697eeda8e",
        "to": "0x3a5cda3ac66aa80573402610c94b74ed6cdb2f23",
        "gas": "0xd833a",
        "value": "0xfa61d8944c054e7",
        "input": "0x3e832c9000000000000000000000000080eede496655fb9047dd39d9f418d5483ed600df000000000000000000000000000000000000000000000000000000000000766f00000000000000000000000045dce8e4f2dc005a5f28206a46cb034697eeda8e000000000000000000000000000000000000000000000000000009184e72a000",
        "nonce": "0xb6",
        "chainId": "0x92"
      },
      "additionalContracts": [],
      "isFixedGasLimit": false
    },
    {
      "hash": "0xc48aea10cb608777d7633bc19677c7fac0e4066a8b9286bc48750b9ecc5a574e",
      "transactionType": "CALL",
      "contractName": null,
      "contractAddress": "0x5bff88ca1442c2496f7e475e9e7786383bc070c0",
      "function": "approve(address,uint256)",
      "arguments": [
        "0x3A5cDA3Ac66Aa80573402610c94B74eD6cdb2F23",
        "10000000000000"
      ],
      "transaction": {
        "from": "0x45dce8e4f2dc005a5f28206a46cb034697eeda8e",
        "to": "0x5bff88ca1442c2496f7e475e9e7786383bc070c0",
        "gas": "0x12184",
        "value": "0x0",
        "input": "0x095ea7b30000000000000000000000003a5cda3ac66aa80573402610c94b74ed6cdb2f23000000000000000000000000000000000000000000000000000009184e72a000",
        "nonce": "0xb7",
        "chainId": "0x92"
      },
      "additionalContracts": [],
      "isFixedGasLimit": false
    },
    {
      "hash": "0x0afbfe25cb3f29a9c85447e3d8075f02d0ae736ab933dd68d2d9d04d355001bb",
      "transactionType": "CALL",
      "contractName": null,
      "contractAddress": "0x3a5cda3ac66aa80573402610c94b74ed6cdb2f23",
      "function": "sendOFT(address,uint32,bytes32,uint256)",
      "arguments": [
        "0x5Bff88cA1442c2496f7E475E9e7786383Bc070c0",
        "30319",
        "0x00000000000000000000000045dce8e4f2dc005a5f28206a46cb034697eeda8e",
        "10000000000000"
      ],
      "transaction": {
        "from": "0x45dce8e4f2dc005a5f28206a46cb034697eeda8e",
        "to": "0x3a5cda3ac66aa80573402610c94b74ed6cdb2f23",
        "gas": "0xcc6ff",
        "value": "0xfa61d8944c054e7",
        "input": "0x3e832c900000000000000000000000005bff88ca1442c2496f7e475e9e7786383bc070c0000000000000000000000000000000000000000000000000000000000000766f00000000000000000000000045dce8e4f2dc005a5f28206a46cb034697eeda8e000000000000000000000000000000000000000000000000000009184e72a000",
        "nonce": "0xb8",
        "chainId": "0x92"
      },
      "additionalContracts": [],
      "isFixedGasLimit": false
    },
    {
      "hash": "0x0a49c3a93b0f1b88ae989ee4c306ae29d753983f9c0ccfe7688f10c5d9bc1191",
      "transactionType": "CALL",
      "contractName": null,
      "contractAddress": "0x43edd7f3831b08fe70b7555ddd373c8bf65a9050",
      "function": "approve(address,uint256)",
      "arguments": [
        "0x3A5cDA3Ac66Aa80573402610c94B74eD6cdb2F23",
        "10000000000000"
      ],
      "transaction": {
        "from": "0x45dce8e4f2dc005a5f28206a46cb034697eeda8e",
        "to": "0x43edd7f3831b08fe70b7555ddd373c8bf65a9050",
        "gas": "0x132ad",
        "value": "0x0",
        "input": "0x095ea7b30000000000000000000000003a5cda3ac66aa80573402610c94b74ed6cdb2f23000000000000000000000000000000000000000000000000000009184e72a000",
        "nonce": "0xb9",
        "chainId": "0x92"
      },
      "additionalContracts": [],
      "isFixedGasLimit": false
    },
    {
      "hash": "0xac874e9832b8cca811bb5b1fc4a55c8f7f46a4f78ff1f3bb151d303c000eb053",
      "transactionType": "CALL",
      "contractName": null,
      "contractAddress": "0x3a5cda3ac66aa80573402610c94b74ed6cdb2f23",
      "function": "sendOFT(address,uint32,bytes32,uint256)",
      "arguments": [
        "0x43eDD7f3831b08FE70B7555ddD373C8bF65a9050",
        "30319",
        "0x00000000000000000000000045dce8e4f2dc005a5f28206a46cb034697eeda8e",
        "10000000000000"
      ],
      "transaction": {
        "from": "0x45dce8e4f2dc005a5f28206a46cb034697eeda8e",
        "to": "0x3a5cda3ac66aa80573402610c94b74ed6cdb2f23",
        "gas": "0xd8789",
        "value": "0xfa61d8944c054e7",
        "input": "0x3e832c9000000000000000000000000043edd7f3831b08fe70b7555ddd373c8bf65a9050000000000000000000000000000000000000000000000000000000000000766f00000000000000000000000045dce8e4f2dc005a5f28206a46cb034697eeda8e000000000000000000000000000000000000000000000000000009184e72a000",
        "nonce": "0xba",
        "chainId": "0x92"
      },
      "additionalContracts": [],
      "isFixedGasLimit": false
    },
    {
      "hash": "0xe0c437c5c32c1596e582f4d37ff32e2393356357f988cd9b30d94857904d7c1b",
      "transactionType": "CALL",
      "contractName": null,
      "contractAddress": "0x3ec3849c33291a9ef4c5db86de593eb4a37fde45",
      "function": "approve(address,uint256)",
      "arguments": [
        "0x3A5cDA3Ac66Aa80573402610c94B74eD6cdb2F23",
        "10000000000000"
      ],
      "transaction": {
        "from": "0x45dce8e4f2dc005a5f28206a46cb034697eeda8e",
        "to": "0x3ec3849c33291a9ef4c5db86de593eb4a37fde45",
        "gas": "0x132ad",
        "value": "0x0",
        "input": "0x095ea7b30000000000000000000000003a5cda3ac66aa80573402610c94b74ed6cdb2f23000000000000000000000000000000000000000000000000000009184e72a000",
        "nonce": "0xbb",
        "chainId": "0x92"
      },
      "additionalContracts": [],
      "isFixedGasLimit": false
    },
    {
      "hash": "0xdd3b26c4837ae5e874544a1274cc82dff8dbe4eb8113aa277efcdbe73a763767",
      "transactionType": "CALL",
      "contractName": null,
      "contractAddress": "0x3a5cda3ac66aa80573402610c94b74ed6cdb2f23",
      "function": "sendOFT(address,uint32,bytes32,uint256)",
      "arguments": [
        "0x3Ec3849C33291a9eF4c5dB86De593EB4A37fDe45",
        "30319",
        "0x00000000000000000000000045dce8e4f2dc005a5f28206a46cb034697eeda8e",
        "10000000000000"
      ],
      "transaction": {
        "from": "0x45dce8e4f2dc005a5f28206a46cb034697eeda8e",
        "to": "0x3a5cda3ac66aa80573402610c94b74ed6cdb2f23",
        "gas": "0xd8789",
        "value": "0xfa61d8944c054e7",
        "input": "0x3e832c900000000000000000000000003ec3849c33291a9ef4c5db86de593eb4a37fde45000000000000000000000000000000000000000000000000000000000000766f00000000000000000000000045dce8e4f2dc005a5f28206a46cb034697eeda8e000000000000000000000000000000000000000000000000000009184e72a000",
        "nonce": "0xbc",
        "chainId": "0x92"
      },
      "additionalContracts": [],
      "isFixedGasLimit": false
    },
    {
      "hash": "0x4421f890f99a6fbe85e824735c3eea3566e90212483062502b168cbf5a4ada8c",
      "transactionType": "CALL",
      "contractName": null,
      "contractAddress": "0x64445f0aecc51e94ad52d8ac56b7190e764e561a",
      "function": "approve(address,uint256)",
      "arguments": [
        "0x3A5cDA3Ac66Aa80573402610c94B74eD6cdb2F23",
        "10000000000000"
      ],
      "transaction": {
        "from": "0x45dce8e4f2dc005a5f28206a46cb034697eeda8e",
        "to": "0x64445f0aecc51e94ad52d8ac56b7190e764e561a",
        "gas": "0x12184",
        "value": "0x0",
        "input": "0x095ea7b30000000000000000000000003a5cda3ac66aa80573402610c94b74ed6cdb2f23000000000000000000000000000000000000000000000000000009184e72a000",
        "nonce": "0xbd",
        "chainId": "0x92"
      },
      "additionalContracts": [],
      "isFixedGasLimit": false
    },
    {
      "hash": "0x7555260a6cb2e6c3eb354b04c2083b0cf5853524a6e2b073acf52f21d5fceadd",
      "transactionType": "CALL",
      "contractName": null,
      "contractAddress": "0x3a5cda3ac66aa80573402610c94b74ed6cdb2f23",
      "function": "sendOFT(address,uint32,bytes32,uint256)",
      "arguments": [
        "0x64445f0aecC51E94aD52d8AC56b7190e764E561a",
        "30319",
        "0x00000000000000000000000045dce8e4f2dc005a5f28206a46cb034697eeda8e",
        "10000000000000"
      ],
      "transaction": {
        "from": "0x45dce8e4f2dc005a5f28206a46cb034697eeda8e",
        "to": "0x3a5cda3ac66aa80573402610c94b74ed6cdb2f23",
        "gas": "0xcc6ff",
        "value": "0xfa61d8944c054e7",
        "input": "0x3e832c9000000000000000000000000064445f0aecc51e94ad52d8ac56b7190e764e561a000000000000000000000000000000000000000000000000000000000000766f00000000000000000000000045dce8e4f2dc005a5f28206a46cb034697eeda8e000000000000000000000000000000000000000000000000000009184e72a000",
        "nonce": "0xbe",
        "chainId": "0x92"
      },
      "additionalContracts": [],
      "isFixedGasLimit": false
    },
    {
      "hash": "0x21f1edd13dd39f8c9c471d4c802c0126b1f425b7751c70ee945303a2fdda6024",
      "transactionType": "CALL",
      "contractName": null,
      "contractAddress": "0x90581eca9469d8d7f5d3b60f4715027adfcf7927",
      "function": "approve(address,uint256)",
      "arguments": [
        "0x3A5cDA3Ac66Aa80573402610c94B74eD6cdb2F23",
        "10000000000000"
      ],
      "transaction": {
        "from": "0x45dce8e4f2dc005a5f28206a46cb034697eeda8e",
        "to": "0x90581eca9469d8d7f5d3b60f4715027adfcf7927",
        "gas": "0x132ad",
        "value": "0x0",
        "input": "0x095ea7b30000000000000000000000003a5cda3ac66aa80573402610c94b74ed6cdb2f23000000000000000000000000000000000000000000000000000009184e72a000",
        "nonce": "0xbf",
        "chainId": "0x92"
      },
      "additionalContracts": [],
      "isFixedGasLimit": false
    },
    {
      "hash": "0x26045255fa276af1cabb17a0372622b894d7bb01238d0da955e4c4f9eb166738",
      "transactionType": "CALL",
      "contractName": null,
      "contractAddress": "0x3a5cda3ac66aa80573402610c94b74ed6cdb2f23",
      "function": "sendOFT(address,uint32,bytes32,uint256)",
      "arguments": [
        "0x90581eCa9469D8D7F5D3B60f4715027aDFCf7927",
        "30319",
        "0x00000000000000000000000045dce8e4f2dc005a5f28206a46cb034697eeda8e",
        "10000000000000"
      ],
      "transaction": {
        "from": "0x45dce8e4f2dc005a5f28206a46cb034697eeda8e",
        "to": "0x3a5cda3ac66aa80573402610c94b74ed6cdb2f23",
        "gas": "0xe4aea",
        "value": "0xfa61d8944c054e7",
        "input": "0x3e832c9000000000000000000000000090581eca9469d8d7f5d3b60f4715027adfcf7927000000000000000000000000000000000000000000000000000000000000766f00000000000000000000000045dce8e4f2dc005a5f28206a46cb034697eeda8e000000000000000000000000000000000000000000000000000009184e72a000",
        "nonce": "0xc0",
        "chainId": "0x92"
      },
      "additionalContracts": [],
      "isFixedGasLimit": false
    }
  ],
  "receipts": [
    {
      "status": "0x1",
      "cumulativeGasUsed": "0xdb64",
      "logs": [
        {
          "address": "0x80eede496655fb9047dd39d9f418d5483ed600df",
          "topics": [
            "0x8c5be1e5ebec7d5bd14f71427d1e84f3dd0314c0f7b2291e5b200ac8c7c3b925",
            "0x00000000000000000000000045dce8e4f2dc005a5f28206a46cb034697eeda8e",
            "0x0000000000000000000000003a5cda3ac66aa80573402610c94b74ed6cdb2f23"
          ],
          "data": "0x000000000000000000000000000000000000000000000000000009184e72a000",
          "blockHash": "0x1b3d59a0fb17d7e7e66affe433b55d41c3367ace67faca8ff1574e7c47879937",
          "blockNumber": "0x4318616",
          "blockTimestamp": "0x6a03e39f",
          "transactionHash": "0x0a49c3a93b0f1b88ae989ee4c306ae29d753983f9c0ccfe7688f10c5d9bc1191",
          "transactionIndex": "0x0",
          "logIndex": "0x0",
          "removed": false
        }
      ],
      "logsBloom": "0x00000000000000000000000200000000000000000000000000000000000000000000000000000000000000000800000000000000000000000000000200200000000000000000000000000000000000000000000000000000000010000000000000000000000000000000000000000000000000000000000000000000010000000000000000000000000000000000000000000000000000000000000000000000020000000000000000000000000000000000000000000000000000000000000000000000000000000000000000000000001000000000000000000000000000000010000000000000000000000000800000020800000000000000000000000000",
      "type": "0x2",
      "transactionHash": "0x0a49c3a93b0f1b88ae989ee4c306ae29d753983f9c0ccfe7688f10c5d9bc1191",
      "transactionIndex": "0x0",
      "blockHash": "0x1b3d59a0fb17d7e7e66affe433b55d41c3367ace67faca8ff1574e7c47879937",
      "blockNumber": "0x4318616",
      "gasUsed": "0xdb64",
      "effectiveGasPrice": "0xba43b7401",
      "from": "0x45dce8e4f2dc005a5f28206a46cb034697eeda8e",
      "to": "0x80eede496655fb9047dd39d9f418d5483ed600df",
      "contractAddress": null
    },
    {
      "status": "0x1",
      "cumulativeGasUsed": "0xb034b",
      "logs": [
        {
          "address": "0x80eede496655fb9047dd39d9f418d5483ed600df",
          "topics": [
            "0x8c5be1e5ebec7d5bd14f71427d1e84f3dd0314c0f7b2291e5b200ac8c7c3b925",
            "0x00000000000000000000000045dce8e4f2dc005a5f28206a46cb034697eeda8e",
            "0x0000000000000000000000003a5cda3ac66aa80573402610c94b74ed6cdb2f23"
          ],
          "data": "0x0000000000000000000000000000000000000000000000000000000000000000",
          "blockHash": "0x1b3d59a0fb17d7e7e66affe433b55d41c3367ace67faca8ff1574e7c47879937",
          "blockNumber": "0x4318616",
          "blockTimestamp": "0x6a03e39f",
          "transactionHash": "0x0afbfe25cb3f29a9c85447e3d8075f02d0ae736ab933dd68d2d9d04d355001bb",
          "transactionIndex": "0x1",
          "logIndex": "0x1",
          "removed": false
        },
        {
          "address": "0x80eede496655fb9047dd39d9f418d5483ed600df",
          "topics": [
            "0xddf252ad1be2c89b69c2b068fc378daa952ba7f163c4a11628f55a4df523b3ef",
            "0x00000000000000000000000045dce8e4f2dc005a5f28206a46cb034697eeda8e",
            "0x0000000000000000000000003a5cda3ac66aa80573402610c94b74ed6cdb2f23"
          ],
          "data": "0x000000000000000000000000000000000000000000000000000009184e72a000",
          "blockHash": "0x1b3d59a0fb17d7e7e66affe433b55d41c3367ace67faca8ff1574e7c47879937",
          "blockNumber": "0x4318616",
          "blockTimestamp": "0x6a03e39f",
          "transactionHash": "0x0afbfe25cb3f29a9c85447e3d8075f02d0ae736ab933dd68d2d9d04d355001bb",
          "transactionIndex": "0x1",
          "logIndex": "0x2",
          "removed": false
        },
        {
          "address": "0x80eede496655fb9047dd39d9f418d5483ed600df",
          "topics": [
            "0x8c5be1e5ebec7d5bd14f71427d1e84f3dd0314c0f7b2291e5b200ac8c7c3b925",
            "0x0000000000000000000000003a5cda3ac66aa80573402610c94b74ed6cdb2f23",
            "0x00000000000000000000000080eede496655fb9047dd39d9f418d5483ed600df"
          ],
          "data": "0x000000000000000000000000000000000000000000000000000009184e72a000",
          "blockHash": "0x1b3d59a0fb17d7e7e66affe433b55d41c3367ace67faca8ff1574e7c47879937",
          "blockNumber": "0x4318616",
          "blockTimestamp": "0x6a03e39f",
          "transactionHash": "0x0afbfe25cb3f29a9c85447e3d8075f02d0ae736ab933dd68d2d9d04d355001bb",
          "transactionIndex": "0x1",
          "logIndex": "0x3",
          "removed": false
        },
        {
          "address": "0x80eede496655fb9047dd39d9f418d5483ed600df",
          "topics": [
            "0xddf252ad1be2c89b69c2b068fc378daa952ba7f163c4a11628f55a4df523b3ef",
            "0x0000000000000000000000003a5cda3ac66aa80573402610c94b74ed6cdb2f23",
            "0x0000000000000000000000000000000000000000000000000000000000000000"
          ],
          "data": "0x000000000000000000000000000000000000000000000000000009184e72a000",
          "blockHash": "0x1b3d59a0fb17d7e7e66affe433b55d41c3367ace67faca8ff1574e7c47879937",
          "blockNumber": "0x4318616",
          "blockTimestamp": "0x6a03e39f",
          "transactionHash": "0x0afbfe25cb3f29a9c85447e3d8075f02d0ae736ab933dd68d2d9d04d355001bb",
          "transactionIndex": "0x1",
          "logIndex": "0x4",
          "removed": false
        },
        {
          "address": "0xc39161c743d0307eb9bcc9fef03eeb9dc4802de7",
          "topics": [
            "0x61ed099e74a97a1d7f8bb0952a88ca8b7b8ebd00c126ea04671f92a81213318a"
          ],
          "data": "0x0000000000000000000000004208d6e27538189bb48e603d6123a94b8abe0a0b0000000000000000000000000000000000000000000000000586ed1c256f604d",
          "blockHash": "0x1b3d59a0fb17d7e7e66affe433b55d41c3367ace67faca8ff1574e7c47879937",
          "blockNumber": "0x4318616",
          "blockTimestamp": "0x6a03e39f",
          "transactionHash": "0x0afbfe25cb3f29a9c85447e3d8075f02d0ae736ab933dd68d2d9d04d355001bb",
          "transactionIndex": "0x1",
          "logIndex": "0x5",
          "removed": false
        },
        {
          "address": "0xc39161c743d0307eb9bcc9fef03eeb9dc4802de7",
          "topics": [
            "0x07ea52d82345d6e838192107d8fd7123d9c2ec8e916cd0aad13fd2b60db24644"
          ],
          "data": "0x000000000000000000000000000000000000000000000000000000000000006000000000000000000000000000000000000000000000000000000000000001200000000000000000000000000000000000000000000000000000000000000140000000000000000000000000000000000000000000000000000000000000000500000000000000000000000005aaefdf9db6e0f7d27fa3b6ee099edb33da029e000000000000000000000000282b3386571f7f794450d5789911a9804fa346b400000000000000000000000054dd79f5ce72b51fcbbcb170dd01e32034323565000000000000000000000000805ed883fa3453e7ac588667785a4495c573cd13000000000000000000000000b2c7832aa8dda878de6f949485f927e9e532e92c0000000000000000000000000000000000000000000000000000000000000000000000000000000000000000000000000000000000000000000000000000000500000000000000000000000000000000000000000000000000c790d37724c33000000000000000000000000000000000000000000000000000d52101de7054ea00000000000000000000000000000000000000000000000000d52101de7054ea00000000000000000000000000000000000000000000000000d52101de7054ea00000000000000000000000000000000000000000000000000c790d37724c330",
          "blockHash": "0x1b3d59a0fb17d7e7e66affe433b55d41c3367ace67faca8ff1574e7c47879937",
          "blockNumber": "0x4318616",
          "blockTimestamp": "0x6a03e39f",
          "transactionHash": "0x0afbfe25cb3f29a9c85447e3d8075f02d0ae736ab933dd68d2d9d04d355001bb",
          "transactionIndex": "0x1",
          "logIndex": "0x6",
          "removed": false
        },
        {
          "address": "0x6f475642a6e85809b1c36fa62763669b1b48dd5b",
          "topics": [
            "0x1ab700d4ced0c005b164c0f789fd09fcbb0156d4c2041b8a3bfbcd961cd1567f"
          ],
          "data": "0x00000000000000000000000000000000000000000000000000000000000000600000000000000000000000000000000000000000000000000000000000000180000000000000000000000000c39161c743d0307eb9bcc9fef03eeb9dc4802de700000000000000000000000000000000000000000000000000000000000000f90100000000000008db0000767c00000000000000000000000080eede496655fb9047dd39d9f418d5483ed600df0000762f00000000000000000000000096a394058e2b84a89bac9667b19661ed003cf5d4699098ae06178623328ffc35029cbc826afbeb54b008ff1ce997aa93bde84a280000000000000000000000002a2019b30c157db6c1c01306b8025167dbe1803b000000000000000a0000000000000000000000003a5cda3ac66aa80573402610c94b74ed6cdb2f2300000000000000000000000045dce8e4f2dc005a5f28206a46cb034697eeda8e000000000000000000000000000000000000000000000000000000000000766f00000000000000000000000000000000000000000000000000000000000000000000000000002c0003010011010000000000000000000000000003d090010013030000000000000000000000000000000f42400000000000000000000000000000000000000000",
          "blockHash": "0x1b3d59a0fb17d7e7e66affe433b55d41c3367ace67faca8ff1574e7c47879937",
          "blockNumber": "0x4318616",
          "blockTimestamp": "0x6a03e39f",
          "transactionHash": "0x0afbfe25cb3f29a9c85447e3d8075f02d0ae736ab933dd68d2d9d04d355001bb",
          "transactionIndex": "0x1",
          "logIndex": "0x7",
          "removed": false
        },
        {
          "address": "0x80eede496655fb9047dd39d9f418d5483ed600df",
          "topics": [
            "0x85496b760a4b7f8d66384b9df21b381f5d1b1e79f229a47aaf4c232edc2fe59a",
            "0x699098ae06178623328ffc35029cbc826afbeb54b008ff1ce997aa93bde84a28",
            "0x0000000000000000000000003a5cda3ac66aa80573402610c94b74ed6cdb2f23"
          ],
          "data": "0x000000000000000000000000000000000000000000000000000000000000762f000000000000000000000000000000000000000000000000000009184e72a000000000000000000000000000000000000000000000000000000009184e72a000",
          "blockHash": "0x1b3d59a0fb17d7e7e66affe433b55d41c3367ace67faca8ff1574e7c47879937",
          "blockNumber": "0x4318616",
          "blockTimestamp": "0x6a03e39f",
          "transactionHash": "0x0afbfe25cb3f29a9c85447e3d8075f02d0ae736ab933dd68d2d9d04d355001bb",
          "transactionIndex": "0x1",
          "logIndex": "0x8",
          "removed": false
        },
        {
          "address": "0x3a5cda3ac66aa80573402610c94b74ed6cdb2f23",
          "topics": [
            "0xbc9ee36b6ca0bdd5b3840e6d329dd19a2490d880c7ce24d9818aa593adfb35be",
            "0x00000000000000000000000045dce8e4f2dc005a5f28206a46cb034697eeda8e",
            "0x000000000000000000000000000000000000000000000000000000000000766f",
            "0x00000000000000000000000045dce8e4f2dc005a5f28206a46cb034697eeda8e"
          ],
          "data": "0x00000000000000000000000080eede496655fb9047dd39d9f418d5483ed600df000000000000000000000000000000000000000000000000000009184e72a000",
          "blockHash": "0x1b3d59a0fb17d7e7e66affe433b55d41c3367ace67faca8ff1574e7c47879937",
          "blockNumber": "0x4318616",
          "blockTimestamp": "0x6a03e39f",
          "transactionHash": "0x0afbfe25cb3f29a9c85447e3d8075f02d0ae736ab933dd68d2d9d04d355001bb",
          "transactionIndex": "0x1",
          "logIndex": "0x9",
          "removed": false
        }
      ],
      "logsBloom": "0x00100000000002000000000200000000000000000000000000000000000000000000080000000400000000000800000000000000000000000000000200200000000002000000000001000008000000000140000000000000000010000000000000000000024200008020000000000800000000000000100000000010010000000000000000800000000000080000000000000000000000000000000000000000020000108000000420100000000000000000000040400000000440000000000000000002001000000000000080000000001000000000000000000000000022004010040020000000000000000000802000020800008000100000000000000000",
      "type": "0x2",
      "transactionHash": "0x0afbfe25cb3f29a9c85447e3d8075f02d0ae736ab933dd68d2d9d04d355001bb",
      "transactionIndex": "0x1",
      "blockHash": "0x1b3d59a0fb17d7e7e66affe433b55d41c3367ace67faca8ff1574e7c47879937",
      "blockNumber": "0x4318616",
      "gasUsed": "0xa27e7",
      "effectiveGasPrice": "0xba43b7401",
      "from": "0x45dce8e4f2dc005a5f28206a46cb034697eeda8e",
      "to": "0x3a5cda3ac66aa80573402610c94b74ed6cdb2f23",
      "contractAddress": null
    },
    {
      "status": "0x1",
      "cumulativeGasUsed": "0xbdce4",
      "logs": [
        {
          "address": "0x5bff88ca1442c2496f7e475e9e7786383bc070c0",
          "topics": [
            "0x8c5be1e5ebec7d5bd14f71427d1e84f3dd0314c0f7b2291e5b200ac8c7c3b925",
            "0x00000000000000000000000045dce8e4f2dc005a5f28206a46cb034697eeda8e",
            "0x0000000000000000000000003a5cda3ac66aa80573402610c94b74ed6cdb2f23"
          ],
          "data": "0x000000000000000000000000000000000000000000000000000009184e72a000",
          "blockHash": "0x1b3d59a0fb17d7e7e66affe433b55d41c3367ace67faca8ff1574e7c47879937",
          "blockNumber": "0x4318616",
          "blockTimestamp": "0x6a03e39f",
          "transactionHash": "0xc48aea10cb608777d7633bc19677c7fac0e4066a8b9286bc48750b9ecc5a574e",
          "transactionIndex": "0x2",
          "logIndex": "0xa",
          "removed": false
        }
      ],
      "logsBloom": "0x00000000000000000000000200000000000000000000000000000000000000000000000000000000000000000000000000000000000000000000000000200000000000000000000000000000000000000000000000000000000010000000000000000000000000000000000000000000000000000000000000000000000000000000000000000000000000000000000000000000000000000000000000000000020000000000000000000000000000000000000000000000000000000010000000000000000000000000000000000000001000800000000000000000000000000010000000000000000000000000800000020800000000000000000000000800",
      "type": "0x2",
      "transactionHash": "0xc48aea10cb608777d7633bc19677c7fac0e4066a8b9286bc48750b9ecc5a574e",
      "transactionIndex": "0x2",
      "blockHash": "0x1b3d59a0fb17d7e7e66affe433b55d41c3367ace67faca8ff1574e7c47879937",
      "blockNumber": "0x4318616",
      "gasUsed": "0xd999",
      "effectiveGasPrice": "0xba43b7401",
      "from": "0x45dce8e4f2dc005a5f28206a46cb034697eeda8e",
      "to": "0x5bff88ca1442c2496f7e475e9e7786383bc070c0",
      "contractAddress": null
    },
    {
      "status": "0x1",
      "cumulativeGasUsed": "0x157752",
      "logs": [
        {
          "address": "0x5bff88ca1442c2496f7e475e9e7786383bc070c0",
          "topics": [
            "0x8c5be1e5ebec7d5bd14f71427d1e84f3dd0314c0f7b2291e5b200ac8c7c3b925",
            "0x00000000000000000000000045dce8e4f2dc005a5f28206a46cb034697eeda8e",
            "0x0000000000000000000000003a5cda3ac66aa80573402610c94b74ed6cdb2f23"
          ],
          "data": "0x0000000000000000000000000000000000000000000000000000000000000000",
          "blockHash": "0x1b3d59a0fb17d7e7e66affe433b55d41c3367ace67faca8ff1574e7c47879937",
          "blockNumber": "0x4318616",
          "blockTimestamp": "0x6a03e39f",
          "transactionHash": "0xe0c437c5c32c1596e582f4d37ff32e2393356357f988cd9b30d94857904d7c1b",
          "transactionIndex": "0x3",
          "logIndex": "0xb",
          "removed": false
        },
        {
          "address": "0x5bff88ca1442c2496f7e475e9e7786383bc070c0",
          "topics": [
            "0xddf252ad1be2c89b69c2b068fc378daa952ba7f163c4a11628f55a4df523b3ef",
            "0x00000000000000000000000045dce8e4f2dc005a5f28206a46cb034697eeda8e",
            "0x0000000000000000000000003a5cda3ac66aa80573402610c94b74ed6cdb2f23"
          ],
          "data": "0x000000000000000000000000000000000000000000000000000009184e72a000",
          "blockHash": "0x1b3d59a0fb17d7e7e66affe433b55d41c3367ace67faca8ff1574e7c47879937",
          "blockNumber": "0x4318616",
          "blockTimestamp": "0x6a03e39f",
          "transactionHash": "0xe0c437c5c32c1596e582f4d37ff32e2393356357f988cd9b30d94857904d7c1b",
          "transactionIndex": "0x3",
          "logIndex": "0xc",
          "removed": false
        },
        {
          "address": "0x5bff88ca1442c2496f7e475e9e7786383bc070c0",
          "topics": [
            "0x8c5be1e5ebec7d5bd14f71427d1e84f3dd0314c0f7b2291e5b200ac8c7c3b925",
            "0x0000000000000000000000003a5cda3ac66aa80573402610c94b74ed6cdb2f23",
            "0x0000000000000000000000005bff88ca1442c2496f7e475e9e7786383bc070c0"
          ],
          "data": "0x000000000000000000000000000000000000000000000000000009184e72a000",
          "blockHash": "0x1b3d59a0fb17d7e7e66affe433b55d41c3367ace67faca8ff1574e7c47879937",
          "blockNumber": "0x4318616",
          "blockTimestamp": "0x6a03e39f",
          "transactionHash": "0xe0c437c5c32c1596e582f4d37ff32e2393356357f988cd9b30d94857904d7c1b",
          "transactionIndex": "0x3",
          "logIndex": "0xd",
          "removed": false
        },
        {
          "address": "0x5bff88ca1442c2496f7e475e9e7786383bc070c0",
          "topics": [
            "0xddf252ad1be2c89b69c2b068fc378daa952ba7f163c4a11628f55a4df523b3ef",
            "0x0000000000000000000000003a5cda3ac66aa80573402610c94b74ed6cdb2f23",
            "0x0000000000000000000000000000000000000000000000000000000000000000"
          ],
          "data": "0x000000000000000000000000000000000000000000000000000009184e72a000",
          "blockHash": "0x1b3d59a0fb17d7e7e66affe433b55d41c3367ace67faca8ff1574e7c47879937",
          "blockNumber": "0x4318616",
          "blockTimestamp": "0x6a03e39f",
          "transactionHash": "0xe0c437c5c32c1596e582f4d37ff32e2393356357f988cd9b30d94857904d7c1b",
          "transactionIndex": "0x3",
          "logIndex": "0xe",
          "removed": false
        },
        {
          "address": "0xc39161c743d0307eb9bcc9fef03eeb9dc4802de7",
          "topics": [
            "0x61ed099e74a97a1d7f8bb0952a88ca8b7b8ebd00c126ea04671f92a81213318a"
          ],
          "data": "0x0000000000000000000000004208d6e27538189bb48e603d6123a94b8abe0a0b0000000000000000000000000000000000000000000000000586ed1c256f604d",
          "blockHash": "0x1b3d59a0fb17d7e7e66affe433b55d41c3367ace67faca8ff1574e7c47879937",
          "blockNumber": "0x4318616",
          "blockTimestamp": "0x6a03e39f",
          "transactionHash": "0xe0c437c5c32c1596e582f4d37ff32e2393356357f988cd9b30d94857904d7c1b",
          "transactionIndex": "0x3",
          "logIndex": "0xf",
          "removed": false
        },
        {
          "address": "0xc39161c743d0307eb9bcc9fef03eeb9dc4802de7",
          "topics": [
            "0x07ea52d82345d6e838192107d8fd7123d9c2ec8e916cd0aad13fd2b60db24644"
          ],
          "data": "0x000000000000000000000000000000000000000000000000000000000000006000000000000000000000000000000000000000000000000000000000000001200000000000000000000000000000000000000000000000000000000000000140000000000000000000000000000000000000000000000000000000000000000500000000000000000000000005aaefdf9db6e0f7d27fa3b6ee099edb33da029e000000000000000000000000282b3386571f7f794450d5789911a9804fa346b400000000000000000000000054dd79f5ce72b51fcbbcb170dd01e32034323565000000000000000000000000805ed883fa3453e7ac588667785a4495c573cd13000000000000000000000000b2c7832aa8dda878de6f949485f927e9e532e92c0000000000000000000000000000000000000000000000000000000000000000000000000000000000000000000000000000000000000000000000000000000500000000000000000000000000000000000000000000000000c790d37724c33000000000000000000000000000000000000000000000000000d52101de7054ea00000000000000000000000000000000000000000000000000d52101de7054ea00000000000000000000000000000000000000000000000000d52101de7054ea00000000000000000000000000000000000000000000000000c790d37724c330",
          "blockHash": "0x1b3d59a0fb17d7e7e66affe433b55d41c3367ace67faca8ff1574e7c47879937",
          "blockNumber": "0x4318616",
          "blockTimestamp": "0x6a03e39f",
          "transactionHash": "0xe0c437c5c32c1596e582f4d37ff32e2393356357f988cd9b30d94857904d7c1b",
          "transactionIndex": "0x3",
          "logIndex": "0x10",
          "removed": false
        },
        {
          "address": "0x6f475642a6e85809b1c36fa62763669b1b48dd5b",
          "topics": [
            "0x1ab700d4ced0c005b164c0f789fd09fcbb0156d4c2041b8a3bfbcd961cd1567f"
          ],
          "data": "0x00000000000000000000000000000000000000000000000000000000000000600000000000000000000000000000000000000000000000000000000000000180000000000000000000000000c39161c743d0307eb9bcc9fef03eeb9dc4802de700000000000000000000000000000000000000000000000000000000000000f90100000000000002850000767c0000000000000000000000005bff88ca1442c2496f7e475e9e7786383bc070c00000762f00000000000000000000000088aa7854d3b2daa5e37e7ce73a1f39669623a361435015bc9b892c1ce35952e946440550103f7ed6cdc4311cd535bc7c8f9909790000000000000000000000002a2019b30c157db6c1c01306b8025167dbe1803b000000000000000a0000000000000000000000003a5cda3ac66aa80573402610c94b74ed6cdb2f2300000000000000000000000045dce8e4f2dc005a5f28206a46cb034697eeda8e000000000000000000000000000000000000000000000000000000000000766f00000000000000000000000000000000000000000000000000000000000000000000000000002c0003010011010000000000000000000000000003d090010013030000000000000000000000000000000f42400000000000000000000000000000000000000000",
          "blockHash": "0x1b3d59a0fb17d7e7e66affe433b55d41c3367ace67faca8ff1574e7c47879937",
          "blockNumber": "0x4318616",
          "blockTimestamp": "0x6a03e39f",
          "transactionHash": "0xe0c437c5c32c1596e582f4d37ff32e2393356357f988cd9b30d94857904d7c1b",
          "transactionIndex": "0x3",
          "logIndex": "0x11",
          "removed": false
        },
        {
          "address": "0x5bff88ca1442c2496f7e475e9e7786383bc070c0",
          "topics": [
            "0x85496b760a4b7f8d66384b9df21b381f5d1b1e79f229a47aaf4c232edc2fe59a",
            "0x435015bc9b892c1ce35952e946440550103f7ed6cdc4311cd535bc7c8f990979",
            "0x0000000000000000000000003a5cda3ac66aa80573402610c94b74ed6cdb2f23"
          ],
          "data": "0x000000000000000000000000000000000000000000000000000000000000762f000000000000000000000000000000000000000000000000000009184e72a000000000000000000000000000000000000000000000000000000009184e72a000",
          "blockHash": "0x1b3d59a0fb17d7e7e66affe433b55d41c3367ace67faca8ff1574e7c47879937",
          "blockNumber": "0x4318616",
          "blockTimestamp": "0x6a03e39f",
          "transactionHash": "0xe0c437c5c32c1596e582f4d37ff32e2393356357f988cd9b30d94857904d7c1b",
          "transactionIndex": "0x3",
          "logIndex": "0x12",
          "removed": false
        },
        {
          "address": "0x3a5cda3ac66aa80573402610c94b74ed6cdb2f23",
          "topics": [
            "0xbc9ee36b6ca0bdd5b3840e6d329dd19a2490d880c7ce24d9818aa593adfb35be",
            "0x00000000000000000000000045dce8e4f2dc005a5f28206a46cb034697eeda8e",
            "0x000000000000000000000000000000000000000000000000000000000000766f",
            "0x00000000000000000000000045dce8e4f2dc005a5f28206a46cb034697eeda8e"
          ],
          "data": "0x0000000000000000000000005bff88ca1442c2496f7e475e9e7786383bc070c0000000000000000000000000000000000000000000000000000009184e72a000",
          "blockHash": "0x1b3d59a0fb17d7e7e66affe433b55d41c3367ace67faca8ff1574e7c47879937",
          "blockNumber": "0x4318616",
          "blockTimestamp": "0x6a03e39f",
          "transactionHash": "0xe0c437c5c32c1596e582f4d37ff32e2393356357f988cd9b30d94857904d7c1b",
          "transactionIndex": "0x3",
          "logIndex": "0x13",
          "removed": false
        }
      ],
      "logsBloom": "0x00100010000002000000000200000000000000000000000000000000000000000001000000000000000000000000000000000000000000000000000000200000000002000004000001000008000000000140000000000000000010000000000000000000024200008020000000000800000000000000100000000010000000000000001000800000000000080000000000000000000000000000000000000000020000108000000020100400000000000000000040400000000440000010000000000002001000000000000080000000001000800000000000000000000020004010040000000000000000040000802000020800008000000000000000000800",
      "type": "0x2",
      "transactionHash": "0xe0c437c5c32c1596e582f4d37ff32e2393356357f988cd9b30d94857904d7c1b",
      "transactionIndex": "0x3",
      "blockHash": "0x1b3d59a0fb17d7e7e66affe433b55d41c3367ace67faca8ff1574e7c47879937",
      "blockNumber": "0x4318616",
      "gasUsed": "0x99a6e",
      "effectiveGasPrice": "0xba43b7401",
      "from": "0x45dce8e4f2dc005a5f28206a46cb034697eeda8e",
      "to": "0x3a5cda3ac66aa80573402610c94b74ed6cdb2f23",
      "contractAddress": null
    },
    {
      "status": "0x1",
      "cumulativeGasUsed": "0x1652b6",
      "logs": [
        {
          "address": "0x43edd7f3831b08fe70b7555ddd373c8bf65a9050",
          "topics": [
            "0x8c5be1e5ebec7d5bd14f71427d1e84f3dd0314c0f7b2291e5b200ac8c7c3b925",
            "0x00000000000000000000000045dce8e4f2dc005a5f28206a46cb034697eeda8e",
            "0x0000000000000000000000003a5cda3ac66aa80573402610c94b74ed6cdb2f23"
          ],
          "data": "0x000000000000000000000000000000000000000000000000000009184e72a000",
          "blockHash": "0x1b3d59a0fb17d7e7e66affe433b55d41c3367ace67faca8ff1574e7c47879937",
          "blockNumber": "0x4318616",
          "blockTimestamp": "0x6a03e39f",
          "transactionHash": "0xac874e9832b8cca811bb5b1fc4a55c8f7f46a4f78ff1f3bb151d303c000eb053",
          "transactionIndex": "0x4",
          "logIndex": "0x14",
          "removed": false
        }
      ],
      "logsBloom": "0x00000000000000000000000200000000000000000000000000000000000000000000000000000000000000000000000000000000000000000000000000200000000000000000000000000000000000000000000000000000000010000000000000000000000000000000000000000000000000000000000000000000000000000000000000000000000000000000000000000000000000000000000000000000020000000000000002000000000000000000000000000000000000000000000000000000000000000000000000000000001000000000000000000000000000000010000000000000000000040000800000020800000000000000000000080000",
      "type": "0x2",
      "transactionHash": "0xac874e9832b8cca811bb5b1fc4a55c8f7f46a4f78ff1f3bb151d303c000eb053",
      "transactionIndex": "0x4",
      "blockHash": "0x1b3d59a0fb17d7e7e66affe433b55d41c3367ace67faca8ff1574e7c47879937",
      "blockNumber": "0x4318616",
      "gasUsed": "0xdb64",
      "effectiveGasPrice": "0xba43b7401",
      "from": "0x45dce8e4f2dc005a5f28206a46cb034697eeda8e",
      "to": "0x43edd7f3831b08fe70b7555ddd373c8bf65a9050",
      "contractAddress": null
    },
    {
      "status": "0x1",
      "cumulativeGasUsed": "0x200078",
      "logs": [
        {
          "address": "0x43edd7f3831b08fe70b7555ddd373c8bf65a9050",
          "topics": [
            "0x8c5be1e5ebec7d5bd14f71427d1e84f3dd0314c0f7b2291e5b200ac8c7c3b925",
            "0x00000000000000000000000045dce8e4f2dc005a5f28206a46cb034697eeda8e",
            "0x0000000000000000000000003a5cda3ac66aa80573402610c94b74ed6cdb2f23"
          ],
          "data": "0x0000000000000000000000000000000000000000000000000000000000000000",
          "blockHash": "0x1b3d59a0fb17d7e7e66affe433b55d41c3367ace67faca8ff1574e7c47879937",
          "blockNumber": "0x4318616",
          "blockTimestamp": "0x6a03e39f",
          "transactionHash": "0x73603edf1ead593d5fb3681cc2e9b9d3eaefecb1ae116729a07cd235fe036155",
          "transactionIndex": "0x5",
          "logIndex": "0x15",
          "removed": false
        },
        {
          "address": "0x43edd7f3831b08fe70b7555ddd373c8bf65a9050",
          "topics": [
            "0xddf252ad1be2c89b69c2b068fc378daa952ba7f163c4a11628f55a4df523b3ef",
            "0x00000000000000000000000045dce8e4f2dc005a5f28206a46cb034697eeda8e",
            "0x0000000000000000000000003a5cda3ac66aa80573402610c94b74ed6cdb2f23"
          ],
          "data": "0x000000000000000000000000000000000000000000000000000009184e72a000",
          "blockHash": "0x1b3d59a0fb17d7e7e66affe433b55d41c3367ace67faca8ff1574e7c47879937",
          "blockNumber": "0x4318616",
          "blockTimestamp": "0x6a03e39f",
          "transactionHash": "0x73603edf1ead593d5fb3681cc2e9b9d3eaefecb1ae116729a07cd235fe036155",
          "transactionIndex": "0x5",
          "logIndex": "0x16",
          "removed": false
        },
        {
          "address": "0x43edd7f3831b08fe70b7555ddd373c8bf65a9050",
          "topics": [
            "0x8c5be1e5ebec7d5bd14f71427d1e84f3dd0314c0f7b2291e5b200ac8c7c3b925",
            "0x0000000000000000000000003a5cda3ac66aa80573402610c94b74ed6cdb2f23",
            "0x00000000000000000000000043edd7f3831b08fe70b7555ddd373c8bf65a9050"
          ],
          "data": "0x000000000000000000000000000000000000000000000000000009184e72a000",
          "blockHash": "0x1b3d59a0fb17d7e7e66affe433b55d41c3367ace67faca8ff1574e7c47879937",
          "blockNumber": "0x4318616",
          "blockTimestamp": "0x6a03e39f",
          "transactionHash": "0x73603edf1ead593d5fb3681cc2e9b9d3eaefecb1ae116729a07cd235fe036155",
          "transactionIndex": "0x5",
          "logIndex": "0x17",
          "removed": false
        },
        {
          "address": "0x43edd7f3831b08fe70b7555ddd373c8bf65a9050",
          "topics": [
            "0xddf252ad1be2c89b69c2b068fc378daa952ba7f163c4a11628f55a4df523b3ef",
            "0x0000000000000000000000003a5cda3ac66aa80573402610c94b74ed6cdb2f23",
            "0x0000000000000000000000000000000000000000000000000000000000000000"
          ],
          "data": "0x000000000000000000000000000000000000000000000000000009184e72a000",
          "blockHash": "0x1b3d59a0fb17d7e7e66affe433b55d41c3367ace67faca8ff1574e7c47879937",
          "blockNumber": "0x4318616",
          "blockTimestamp": "0x6a03e39f",
          "transactionHash": "0x73603edf1ead593d5fb3681cc2e9b9d3eaefecb1ae116729a07cd235fe036155",
          "transactionIndex": "0x5",
          "logIndex": "0x18",
          "removed": false
        },
        {
          "address": "0xc39161c743d0307eb9bcc9fef03eeb9dc4802de7",
          "topics": [
            "0x61ed099e74a97a1d7f8bb0952a88ca8b7b8ebd00c126ea04671f92a81213318a"
          ],
          "data": "0x0000000000000000000000004208d6e27538189bb48e603d6123a94b8abe0a0b0000000000000000000000000000000000000000000000000586ed1c256f604d",
          "blockHash": "0x1b3d59a0fb17d7e7e66affe433b55d41c3367ace67faca8ff1574e7c47879937",
          "blockNumber": "0x4318616",
          "blockTimestamp": "0x6a03e39f",
          "transactionHash": "0x73603edf1ead593d5fb3681cc2e9b9d3eaefecb1ae116729a07cd235fe036155",
          "transactionIndex": "0x5",
          "logIndex": "0x19",
          "removed": false
        },
        {
          "address": "0xc39161c743d0307eb9bcc9fef03eeb9dc4802de7",
          "topics": [
            "0x07ea52d82345d6e838192107d8fd7123d9c2ec8e916cd0aad13fd2b60db24644"
          ],
          "data": "0x000000000000000000000000000000000000000000000000000000000000006000000000000000000000000000000000000000000000000000000000000001200000000000000000000000000000000000000000000000000000000000000140000000000000000000000000000000000000000000000000000000000000000500000000000000000000000005aaefdf9db6e0f7d27fa3b6ee099edb33da029e000000000000000000000000282b3386571f7f794450d5789911a9804fa346b400000000000000000000000054dd79f5ce72b51fcbbcb170dd01e32034323565000000000000000000000000805ed883fa3453e7ac588667785a4495c573cd13000000000000000000000000b2c7832aa8dda878de6f949485f927e9e532e92c0000000000000000000000000000000000000000000000000000000000000000000000000000000000000000000000000000000000000000000000000000000500000000000000000000000000000000000000000000000000c790d37724c33000000000000000000000000000000000000000000000000000d52101de7054ea00000000000000000000000000000000000000000000000000d52101de7054ea00000000000000000000000000000000000000000000000000d52101de7054ea00000000000000000000000000000000000000000000000000c790d37724c330",
          "blockHash": "0x1b3d59a0fb17d7e7e66affe433b55d41c3367ace67faca8ff1574e7c47879937",
          "blockNumber": "0x4318616",
          "blockTimestamp": "0x6a03e39f",
          "transactionHash": "0x73603edf1ead593d5fb3681cc2e9b9d3eaefecb1ae116729a07cd235fe036155",
          "transactionIndex": "0x5",
          "logIndex": "0x1a",
          "removed": false
        },
        {
          "address": "0x6f475642a6e85809b1c36fa62763669b1b48dd5b",
          "topics": [
            "0x1ab700d4ced0c005b164c0f789fd09fcbb0156d4c2041b8a3bfbcd961cd1567f"
          ],
          "data": "0x00000000000000000000000000000000000000000000000000000000000000600000000000000000000000000000000000000000000000000000000000000180000000000000000000000000c39161c743d0307eb9bcc9fef03eeb9dc4802de700000000000000000000000000000000000000000000000000000000000000f90100000000000001990000767c00000000000000000000000043edd7f3831b08fe70b7555ddd373c8bf65a90500000762f0000000000000000000000009abfe1f8a999b0011ecd6116649aee8d575f56045f51371ceb5309593342adbf9e3168a3562ed2e250c07c1a3cd8bdbb127441ca0000000000000000000000002a2019b30c157db6c1c01306b8025167dbe1803b000000000000000a0000000000000000000000003a5cda3ac66aa80573402610c94b74ed6cdb2f2300000000000000000000000045dce8e4f2dc005a5f28206a46cb034697eeda8e000000000000000000000000000000000000000000000000000000000000766f00000000000000000000000000000000000000000000000000000000000000000000000000002c0003010011010000000000000000000000000003d090010013030000000000000000000000000000000f42400000000000000000000000000000000000000000",
          "blockHash": "0x1b3d59a0fb17d7e7e66affe433b55d41c3367ace67faca8ff1574e7c47879937",
          "blockNumber": "0x4318616",
          "blockTimestamp": "0x6a03e39f",
          "transactionHash": "0x73603edf1ead593d5fb3681cc2e9b9d3eaefecb1ae116729a07cd235fe036155",
          "transactionIndex": "0x5",
          "logIndex": "0x1b",
          "removed": false
        },
        {
          "address": "0x43edd7f3831b08fe70b7555ddd373c8bf65a9050",
          "topics": [
            "0x85496b760a4b7f8d66384b9df21b381f5d1b1e79f229a47aaf4c232edc2fe59a",
            "0x5f51371ceb5309593342adbf9e3168a3562ed2e250c07c1a3cd8bdbb127441ca",
            "0x0000000000000000000000003a5cda3ac66aa80573402610c94b74ed6cdb2f23"
          ],
          "data": "0x000000000000000000000000000000000000000000000000000000000000762f000000000000000000000000000000000000000000000000000009184e72a000000000000000000000000000000000000000000000000000000009184e72a000",
          "blockHash": "0x1b3d59a0fb17d7e7e66affe433b55d41c3367ace67faca8ff1574e7c47879937",
          "blockNumber": "0x4318616",
          "blockTimestamp": "0x6a03e39f",
          "transactionHash": "0x73603edf1ead593d5fb3681cc2e9b9d3eaefecb1ae116729a07cd235fe036155",
          "transactionIndex": "0x5",
          "logIndex": "0x1c",
          "removed": false
        },
        {
          "address": "0x3a5cda3ac66aa80573402610c94b74ed6cdb2f23",
          "topics": [
            "0xbc9ee36b6ca0bdd5b3840e6d329dd19a2490d880c7ce24d9818aa593adfb35be",
            "0x00000000000000000000000045dce8e4f2dc005a5f28206a46cb034697eeda8e",
            "0x000000000000000000000000000000000000000000000000000000000000766f",
            "0x00000000000000000000000045dce8e4f2dc005a5f28206a46cb034697eeda8e"
          ],
          "data": "0x00000000000000000000000043edd7f3831b08fe70b7555ddd373c8bf65a9050000000000000000000000000000000000000000000000000000009184e72a000",
          "blockHash": "0x1b3d59a0fb17d7e7e66affe433b55d41c3367ace67faca8ff1574e7c47879937",
          "blockNumber": "0x4318616",
          "blockTimestamp": "0x6a03e39f",
          "transactionHash": "0x73603edf1ead593d5fb3681cc2e9b9d3eaefecb1ae116729a07cd235fe036155",
          "transactionIndex": "0x5",
          "logIndex": "0x1d",
          "removed": false
        }
      ],
      "logsBloom": "0x00100000000002000000000200000000000000000000000000000400000000010000000000000000000000000000000000000000000000000000000000200000000002000000000001000008000000000140000000000000000010000000000000000000024200008020000000000800000000000000100000000010000000000000000000800000001000080000000000000000000000000000000100000000020000108000000022100000000000000000000040400000000440000000020000000002001000000000000880000000001000000000000000000000000020004010040000000000000000040000802000020800008000000000000000080000",
      "type": "0x2",
      "transactionHash": "0x73603edf1ead593d5fb3681cc2e9b9d3eaefecb1ae116729a07cd235fe036155",
      "transactionIndex": "0x5",
      "blockHash": "0x1b3d59a0fb17d7e7e66affe433b55d41c3367ace67faca8ff1574e7c47879937",
      "blockNumber": "0x4318616",
      "gasUsed": "0x9adc2",
      "effectiveGasPrice": "0xba43b7401",
      "from": "0x45dce8e4f2dc005a5f28206a46cb034697eeda8e",
      "to": "0x3a5cda3ac66aa80573402610c94b74ed6cdb2f23",
      "contractAddress": null
    },
    {
      "status": "0x1",
      "cumulativeGasUsed": "0x20dbdc",
      "logs": [
        {
          "address": "0x3ec3849c33291a9ef4c5db86de593eb4a37fde45",
          "topics": [
            "0x8c5be1e5ebec7d5bd14f71427d1e84f3dd0314c0f7b2291e5b200ac8c7c3b925",
            "0x00000000000000000000000045dce8e4f2dc005a5f28206a46cb034697eeda8e",
            "0x0000000000000000000000003a5cda3ac66aa80573402610c94b74ed6cdb2f23"
          ],
          "data": "0x000000000000000000000000000000000000000000000000000009184e72a000",
          "blockHash": "0x1b3d59a0fb17d7e7e66affe433b55d41c3367ace67faca8ff1574e7c47879937",
          "blockNumber": "0x4318616",
          "blockTimestamp": "0x6a03e39f",
          "transactionHash": "0xc8746bdcf55879f0c9fdef83a0af3fad087b96f3740baf0d11565ed8f19f5fdd",
          "transactionIndex": "0x6",
          "logIndex": "0x1e",
          "removed": false
        }
      ],
      "logsBloom": "0x00000000000000000000000200002000000000000000000000000000000000000000000000000000000000000000000000000000000000000000000000200000000000000000000000000000000000000000000000000000000010000000000000000000000000000000000000000000000000000000000000000000000000000000000000000000000000000000000000000000000020000040000000000000020000000000000000000000000000000000000000000000000000000000000000000000000000000000000000000000001000000000000000000000000000000010000000000000000000000000800000020800000000000000000000000000",
      "type": "0x2",
      "transactionHash": "0xc8746bdcf55879f0c9fdef83a0af3fad087b96f3740baf0d11565ed8f19f5fdd",
      "transactionIndex": "0x6",
      "blockHash": "0x1b3d59a0fb17d7e7e66affe433b55d41c3367ace67faca8ff1574e7c47879937",
      "blockNumber": "0x4318616",
      "gasUsed": "0xdb64",
      "effectiveGasPrice": "0xba43b7401",
      "from": "0x45dce8e4f2dc005a5f28206a46cb034697eeda8e",
      "to": "0x3ec3849c33291a9ef4c5db86de593eb4a37fde45",
      "contractAddress": null
    },
    {
      "status": "0x1",
      "cumulativeGasUsed": "0x2a899e",
      "logs": [
        {
          "address": "0x3ec3849c33291a9ef4c5db86de593eb4a37fde45",
          "topics": [
            "0x8c5be1e5ebec7d5bd14f71427d1e84f3dd0314c0f7b2291e5b200ac8c7c3b925",
            "0x00000000000000000000000045dce8e4f2dc005a5f28206a46cb034697eeda8e",
            "0x0000000000000000000000003a5cda3ac66aa80573402610c94b74ed6cdb2f23"
          ],
          "data": "0x0000000000000000000000000000000000000000000000000000000000000000",
          "blockHash": "0x1b3d59a0fb17d7e7e66affe433b55d41c3367ace67faca8ff1574e7c47879937",
          "blockNumber": "0x4318616",
          "blockTimestamp": "0x6a03e39f",
          "transactionHash": "0xdd3b26c4837ae5e874544a1274cc82dff8dbe4eb8113aa277efcdbe73a763767",
          "transactionIndex": "0x7",
          "logIndex": "0x1f",
          "removed": false
        },
        {
          "address": "0x3ec3849c33291a9ef4c5db86de593eb4a37fde45",
          "topics": [
            "0xddf252ad1be2c89b69c2b068fc378daa952ba7f163c4a11628f55a4df523b3ef",
            "0x00000000000000000000000045dce8e4f2dc005a5f28206a46cb034697eeda8e",
            "0x0000000000000000000000003a5cda3ac66aa80573402610c94b74ed6cdb2f23"
          ],
          "data": "0x000000000000000000000000000000000000000000000000000009184e72a000",
          "blockHash": "0x1b3d59a0fb17d7e7e66affe433b55d41c3367ace67faca8ff1574e7c47879937",
          "blockNumber": "0x4318616",
          "blockTimestamp": "0x6a03e39f",
          "transactionHash": "0xdd3b26c4837ae5e874544a1274cc82dff8dbe4eb8113aa277efcdbe73a763767",
          "transactionIndex": "0x7",
          "logIndex": "0x20",
          "removed": false
        },
        {
          "address": "0x3ec3849c33291a9ef4c5db86de593eb4a37fde45",
          "topics": [
            "0x8c5be1e5ebec7d5bd14f71427d1e84f3dd0314c0f7b2291e5b200ac8c7c3b925",
            "0x0000000000000000000000003a5cda3ac66aa80573402610c94b74ed6cdb2f23",
            "0x0000000000000000000000003ec3849c33291a9ef4c5db86de593eb4a37fde45"
          ],
          "data": "0x000000000000000000000000000000000000000000000000000009184e72a000",
          "blockHash": "0x1b3d59a0fb17d7e7e66affe433b55d41c3367ace67faca8ff1574e7c47879937",
          "blockNumber": "0x4318616",
          "blockTimestamp": "0x6a03e39f",
          "transactionHash": "0xdd3b26c4837ae5e874544a1274cc82dff8dbe4eb8113aa277efcdbe73a763767",
          "transactionIndex": "0x7",
          "logIndex": "0x21",
          "removed": false
        },
        {
          "address": "0x3ec3849c33291a9ef4c5db86de593eb4a37fde45",
          "topics": [
            "0xddf252ad1be2c89b69c2b068fc378daa952ba7f163c4a11628f55a4df523b3ef",
            "0x0000000000000000000000003a5cda3ac66aa80573402610c94b74ed6cdb2f23",
            "0x0000000000000000000000000000000000000000000000000000000000000000"
          ],
          "data": "0x000000000000000000000000000000000000000000000000000009184e72a000",
          "blockHash": "0x1b3d59a0fb17d7e7e66affe433b55d41c3367ace67faca8ff1574e7c47879937",
          "blockNumber": "0x4318616",
          "blockTimestamp": "0x6a03e39f",
          "transactionHash": "0xdd3b26c4837ae5e874544a1274cc82dff8dbe4eb8113aa277efcdbe73a763767",
          "transactionIndex": "0x7",
          "logIndex": "0x22",
          "removed": false
        },
        {
          "address": "0xc39161c743d0307eb9bcc9fef03eeb9dc4802de7",
          "topics": [
            "0x61ed099e74a97a1d7f8bb0952a88ca8b7b8ebd00c126ea04671f92a81213318a"
          ],
          "data": "0x0000000000000000000000004208d6e27538189bb48e603d6123a94b8abe0a0b0000000000000000000000000000000000000000000000000586ed1c256f604d",
          "blockHash": "0x1b3d59a0fb17d7e7e66affe433b55d41c3367ace67faca8ff1574e7c47879937",
          "blockNumber": "0x4318616",
          "blockTimestamp": "0x6a03e39f",
          "transactionHash": "0xdd3b26c4837ae5e874544a1274cc82dff8dbe4eb8113aa277efcdbe73a763767",
          "transactionIndex": "0x7",
          "logIndex": "0x23",
          "removed": false
        },
        {
          "address": "0xc39161c743d0307eb9bcc9fef03eeb9dc4802de7",
          "topics": [
            "0x07ea52d82345d6e838192107d8fd7123d9c2ec8e916cd0aad13fd2b60db24644"
          ],
          "data": "0x000000000000000000000000000000000000000000000000000000000000006000000000000000000000000000000000000000000000000000000000000001200000000000000000000000000000000000000000000000000000000000000140000000000000000000000000000000000000000000000000000000000000000500000000000000000000000005aaefdf9db6e0f7d27fa3b6ee099edb33da029e000000000000000000000000282b3386571f7f794450d5789911a9804fa346b400000000000000000000000054dd79f5ce72b51fcbbcb170dd01e32034323565000000000000000000000000805ed883fa3453e7ac588667785a4495c573cd13000000000000000000000000b2c7832aa8dda878de6f949485f927e9e532e92c0000000000000000000000000000000000000000000000000000000000000000000000000000000000000000000000000000000000000000000000000000000500000000000000000000000000000000000000000000000000c790d37724c33000000000000000000000000000000000000000000000000000d52101de7054ea00000000000000000000000000000000000000000000000000d52101de7054ea00000000000000000000000000000000000000000000000000d52101de7054ea00000000000000000000000000000000000000000000000000c790d37724c330",
          "blockHash": "0x1b3d59a0fb17d7e7e66affe433b55d41c3367ace67faca8ff1574e7c47879937",
          "blockNumber": "0x4318616",
          "blockTimestamp": "0x6a03e39f",
          "transactionHash": "0xdd3b26c4837ae5e874544a1274cc82dff8dbe4eb8113aa277efcdbe73a763767",
          "transactionIndex": "0x7",
          "logIndex": "0x24",
          "removed": false
        },
        {
          "address": "0x6f475642a6e85809b1c36fa62763669b1b48dd5b",
          "topics": [
            "0x1ab700d4ced0c005b164c0f789fd09fcbb0156d4c2041b8a3bfbcd961cd1567f"
          ],
          "data": "0x00000000000000000000000000000000000000000000000000000000000000600000000000000000000000000000000000000000000000000000000000000180000000000000000000000000c39161c743d0307eb9bcc9fef03eeb9dc4802de700000000000000000000000000000000000000000000000000000000000000f90100000000000000390000767c0000000000000000000000003ec3849c33291a9ef4c5db86de593eb4a37fde450000762f000000000000000000000000999dfabe3b1cc2ef66eb032eea42fea329bba168a759977138cecce93b6c58a6a4759cd14cc2b4842b79d9143fbc594a82d2aca70000000000000000000000002a2019b30c157db6c1c01306b8025167dbe1803b000000000000000a0000000000000000000000003a5cda3ac66aa80573402610c94b74ed6cdb2f2300000000000000000000000045dce8e4f2dc005a5f28206a46cb034697eeda8e000000000000000000000000000000000000000000000000000000000000766f00000000000000000000000000000000000000000000000000000000000000000000000000002c0003010011010000000000000000000000000003d090010013030000000000000000000000000000000f42400000000000000000000000000000000000000000",
          "blockHash": "0x1b3d59a0fb17d7e7e66affe433b55d41c3367ace67faca8ff1574e7c47879937",
          "blockNumber": "0x4318616",
          "blockTimestamp": "0x6a03e39f",
          "transactionHash": "0xdd3b26c4837ae5e874544a1274cc82dff8dbe4eb8113aa277efcdbe73a763767",
          "transactionIndex": "0x7",
          "logIndex": "0x25",
          "removed": false
        },
        {
          "address": "0x3ec3849c33291a9ef4c5db86de593eb4a37fde45",
          "topics": [
            "0x85496b760a4b7f8d66384b9df21b381f5d1b1e79f229a47aaf4c232edc2fe59a",
            "0xa759977138cecce93b6c58a6a4759cd14cc2b4842b79d9143fbc594a82d2aca7",
            "0x0000000000000000000000003a5cda3ac66aa80573402610c94b74ed6cdb2f23"
          ],
          "data": "0x000000000000000000000000000000000000000000000000000000000000762f000000000000000000000000000000000000000000000000000009184e72a000000000000000000000000000000000000000000000000000000009184e72a000",
          "blockHash": "0x1b3d59a0fb17d7e7e66affe433b55d41c3367ace67faca8ff1574e7c47879937",
          "blockNumber": "0x4318616",
          "blockTimestamp": "0x6a03e39f",
          "transactionHash": "0xdd3b26c4837ae5e874544a1274cc82dff8dbe4eb8113aa277efcdbe73a763767",
          "transactionIndex": "0x7",
          "logIndex": "0x26",
          "removed": false
        },
        {
          "address": "0x3a5cda3ac66aa80573402610c94b74ed6cdb2f23",
          "topics": [
            "0xbc9ee36b6ca0bdd5b3840e6d329dd19a2490d880c7ce24d9818aa593adfb35be",
            "0x00000000000000000000000045dce8e4f2dc005a5f28206a46cb034697eeda8e",
            "0x000000000000000000000000000000000000000000000000000000000000766f",
            "0x00000000000000000000000045dce8e4f2dc005a5f28206a46cb034697eeda8e"
          ],
          "data": "0x0000000000000000000000003ec3849c33291a9ef4c5db86de593eb4a37fde45000000000000000000000000000000000000000000000000000009184e72a000",
          "blockHash": "0x1b3d59a0fb17d7e7e66affe433b55d41c3367ace67faca8ff1574e7c47879937",
          "blockNumber": "0x4318616",
          "blockTimestamp": "0x6a03e39f",
          "transactionHash": "0xdd3b26c4837ae5e874544a1274cc82dff8dbe4eb8113aa277efcdbe73a763767",
          "transactionIndex": "0x7",
          "logIndex": "0x27",
          "removed": false
        }
      ],
      "logsBloom": "0x00100000000002000000000200002000000000000000000001000000000000000000000000000000000000000000000000000000000000000000000000200020000002000000000001000008000000000140000000000000000010000000000000000000024200008020000000000800000000000000100000000010000000000000000000800000000000080000000000000000000020000040204000000000020000108000000020100000400000000000000040400000000440000000000000000002001000000000000080000000001000000000000000000000000020004010040000000000000000000000802000020800008000000000000000000000",
      "type": "0x2",
      "transactionHash": "0xdd3b26c4837ae5e874544a1274cc82dff8dbe4eb8113aa277efcdbe73a763767",
      "transactionIndex": "0x7",
      "blockHash": "0x1b3d59a0fb17d7e7e66affe433b55d41c3367ace67faca8ff1574e7c47879937",
      "blockNumber": "0x4318616",
      "gasUsed": "0x9adc2",
      "effectiveGasPrice": "0xba43b7401",
      "from": "0x45dce8e4f2dc005a5f28206a46cb034697eeda8e",
      "to": "0x3a5cda3ac66aa80573402610c94b74ed6cdb2f23",
      "contractAddress": null
    },
    {
      "status": "0x1",
      "cumulativeGasUsed": "0x2b6337",
      "logs": [
        {
          "address": "0x64445f0aecc51e94ad52d8ac56b7190e764e561a",
          "topics": [
            "0x8c5be1e5ebec7d5bd14f71427d1e84f3dd0314c0f7b2291e5b200ac8c7c3b925",
            "0x00000000000000000000000045dce8e4f2dc005a5f28206a46cb034697eeda8e",
            "0x0000000000000000000000003a5cda3ac66aa80573402610c94b74ed6cdb2f23"
          ],
          "data": "0x000000000000000000000000000000000000000000000000000009184e72a000",
          "blockHash": "0x1b3d59a0fb17d7e7e66affe433b55d41c3367ace67faca8ff1574e7c47879937",
          "blockNumber": "0x4318616",
          "blockTimestamp": "0x6a03e39f",
          "transactionHash": "0x4421f890f99a6fbe85e824735c3eea3566e90212483062502b168cbf5a4ada8c",
          "transactionIndex": "0x8",
          "logIndex": "0x28",
          "removed": false
        }
      ],
      "logsBloom": "0x00000000000000000000000200000000000000000000000000000000000000000000000000000000000000000000000000000000000000000000000000200000002000000000000000000000000000000000000000000000000010000000000000000000000000000000000000000000000000000000000000000000000000000000000000000000000000000000000000000000000000000000000000000000020000000000000000000008000000000000000000000000000000000000000000000000000000000000000000000000001000000000000000000000000000000010000000000000000000000000800000020808000000000000000000000000",
      "type": "0x2",
      "transactionHash": "0x4421f890f99a6fbe85e824735c3eea3566e90212483062502b168cbf5a4ada8c",
      "transactionIndex": "0x8",
      "blockHash": "0x1b3d59a0fb17d7e7e66affe433b55d41c3367ace67faca8ff1574e7c47879937",
      "blockNumber": "0x4318616",
      "gasUsed": "0xd999",
      "effectiveGasPrice": "0xba43b7401",
      "from": "0x45dce8e4f2dc005a5f28206a46cb034697eeda8e",
      "to": "0x64445f0aecc51e94ad52d8ac56b7190e764e561a",
      "contractAddress": null
    },
    {
      "status": "0x1",
      "cumulativeGasUsed": "0x34fda5",
      "logs": [
        {
          "address": "0x64445f0aecc51e94ad52d8ac56b7190e764e561a",
          "topics": [
            "0x8c5be1e5ebec7d5bd14f71427d1e84f3dd0314c0f7b2291e5b200ac8c7c3b925",
            "0x00000000000000000000000045dce8e4f2dc005a5f28206a46cb034697eeda8e",
            "0x0000000000000000000000003a5cda3ac66aa80573402610c94b74ed6cdb2f23"
          ],
          "data": "0x0000000000000000000000000000000000000000000000000000000000000000",
          "blockHash": "0x1b3d59a0fb17d7e7e66affe433b55d41c3367ace67faca8ff1574e7c47879937",
          "blockNumber": "0x4318616",
          "blockTimestamp": "0x6a03e39f",
          "transactionHash": "0x26045255fa276af1cabb17a0372622b894d7bb01238d0da955e4c4f9eb166738",
          "transactionIndex": "0x9",
          "logIndex": "0x29",
          "removed": false
        },
        {
          "address": "0x64445f0aecc51e94ad52d8ac56b7190e764e561a",
          "topics": [
            "0xddf252ad1be2c89b69c2b068fc378daa952ba7f163c4a11628f55a4df523b3ef",
            "0x00000000000000000000000045dce8e4f2dc005a5f28206a46cb034697eeda8e",
            "0x0000000000000000000000003a5cda3ac66aa80573402610c94b74ed6cdb2f23"
          ],
          "data": "0x000000000000000000000000000000000000000000000000000009184e72a000",
          "blockHash": "0x1b3d59a0fb17d7e7e66affe433b55d41c3367ace67faca8ff1574e7c47879937",
          "blockNumber": "0x4318616",
          "blockTimestamp": "0x6a03e39f",
          "transactionHash": "0x26045255fa276af1cabb17a0372622b894d7bb01238d0da955e4c4f9eb166738",
          "transactionIndex": "0x9",
          "logIndex": "0x2a",
          "removed": false
        },
        {
          "address": "0x64445f0aecc51e94ad52d8ac56b7190e764e561a",
          "topics": [
            "0x8c5be1e5ebec7d5bd14f71427d1e84f3dd0314c0f7b2291e5b200ac8c7c3b925",
            "0x0000000000000000000000003a5cda3ac66aa80573402610c94b74ed6cdb2f23",
            "0x00000000000000000000000064445f0aecc51e94ad52d8ac56b7190e764e561a"
          ],
          "data": "0x000000000000000000000000000000000000000000000000000009184e72a000",
          "blockHash": "0x1b3d59a0fb17d7e7e66affe433b55d41c3367ace67faca8ff1574e7c47879937",
          "blockNumber": "0x4318616",
          "blockTimestamp": "0x6a03e39f",
          "transactionHash": "0x26045255fa276af1cabb17a0372622b894d7bb01238d0da955e4c4f9eb166738",
          "transactionIndex": "0x9",
          "logIndex": "0x2b",
          "removed": false
        },
        {
          "address": "0x64445f0aecc51e94ad52d8ac56b7190e764e561a",
          "topics": [
            "0xddf252ad1be2c89b69c2b068fc378daa952ba7f163c4a11628f55a4df523b3ef",
            "0x0000000000000000000000003a5cda3ac66aa80573402610c94b74ed6cdb2f23",
            "0x0000000000000000000000000000000000000000000000000000000000000000"
          ],
          "data": "0x000000000000000000000000000000000000000000000000000009184e72a000",
          "blockHash": "0x1b3d59a0fb17d7e7e66affe433b55d41c3367ace67faca8ff1574e7c47879937",
          "blockNumber": "0x4318616",
          "blockTimestamp": "0x6a03e39f",
          "transactionHash": "0x26045255fa276af1cabb17a0372622b894d7bb01238d0da955e4c4f9eb166738",
          "transactionIndex": "0x9",
          "logIndex": "0x2c",
          "removed": false
        },
        {
          "address": "0xc39161c743d0307eb9bcc9fef03eeb9dc4802de7",
          "topics": [
            "0x61ed099e74a97a1d7f8bb0952a88ca8b7b8ebd00c126ea04671f92a81213318a"
          ],
          "data": "0x0000000000000000000000004208d6e27538189bb48e603d6123a94b8abe0a0b0000000000000000000000000000000000000000000000000586ed1c256f604d",
          "blockHash": "0x1b3d59a0fb17d7e7e66affe433b55d41c3367ace67faca8ff1574e7c47879937",
          "blockNumber": "0x4318616",
          "blockTimestamp": "0x6a03e39f",
          "transactionHash": "0x26045255fa276af1cabb17a0372622b894d7bb01238d0da955e4c4f9eb166738",
          "transactionIndex": "0x9",
          "logIndex": "0x2d",
          "removed": false
        },
        {
          "address": "0xc39161c743d0307eb9bcc9fef03eeb9dc4802de7",
          "topics": [
            "0x07ea52d82345d6e838192107d8fd7123d9c2ec8e916cd0aad13fd2b60db24644"
          ],
          "data": "0x000000000000000000000000000000000000000000000000000000000000006000000000000000000000000000000000000000000000000000000000000001200000000000000000000000000000000000000000000000000000000000000140000000000000000000000000000000000000000000000000000000000000000500000000000000000000000005aaefdf9db6e0f7d27fa3b6ee099edb33da029e000000000000000000000000282b3386571f7f794450d5789911a9804fa346b400000000000000000000000054dd79f5ce72b51fcbbcb170dd01e32034323565000000000000000000000000805ed883fa3453e7ac588667785a4495c573cd13000000000000000000000000b2c7832aa8dda878de6f949485f927e9e532e92c0000000000000000000000000000000000000000000000000000000000000000000000000000000000000000000000000000000000000000000000000000000500000000000000000000000000000000000000000000000000c790d37724c33000000000000000000000000000000000000000000000000000d52101de7054ea00000000000000000000000000000000000000000000000000d52101de7054ea00000000000000000000000000000000000000000000000000d52101de7054ea00000000000000000000000000000000000000000000000000c790d37724c330",
          "blockHash": "0x1b3d59a0fb17d7e7e66affe433b55d41c3367ace67faca8ff1574e7c47879937",
          "blockNumber": "0x4318616",
          "blockTimestamp": "0x6a03e39f",
          "transactionHash": "0x26045255fa276af1cabb17a0372622b894d7bb01238d0da955e4c4f9eb166738",
          "transactionIndex": "0x9",
          "logIndex": "0x2e",
          "removed": false
        },
        {
          "address": "0x6f475642a6e85809b1c36fa62763669b1b48dd5b",
          "topics": [
            "0x1ab700d4ced0c005b164c0f789fd09fcbb0156d4c2041b8a3bfbcd961cd1567f"
          ],
          "data": "0x00000000000000000000000000000000000000000000000000000000000000600000000000000000000000000000000000000000000000000000000000000180000000000000000000000000c39161c743d0307eb9bcc9fef03eeb9dc4802de700000000000000000000000000000000000000000000000000000000000000f90100000000000007da0000767c00000000000000000000000064445f0aecc51e94ad52d8ac56b7190e764e561a0000762f000000000000000000000000d86fbbd0c8715d2c1f40e451e5c3514e65e7576a25dcc1a9756f4b1e75cb76af875b04295da9c8dcdf1702aa6ea835f4eea54a810000000000000000000000002a2019b30c157db6c1c01306b8025167dbe1803b000000000000000a0000000000000000000000003a5cda3ac66aa80573402610c94b74ed6cdb2f2300000000000000000000000045dce8e4f2dc005a5f28206a46cb034697eeda8e000000000000000000000000000000000000000000000000000000000000766f00000000000000000000000000000000000000000000000000000000000000000000000000002c0003010011010000000000000000000000000003d090010013030000000000000000000000000000000f42400000000000000000000000000000000000000000",
          "blockHash": "0x1b3d59a0fb17d7e7e66affe433b55d41c3367ace67faca8ff1574e7c47879937",
          "blockNumber": "0x4318616",
          "blockTimestamp": "0x6a03e39f",
          "transactionHash": "0x26045255fa276af1cabb17a0372622b894d7bb01238d0da955e4c4f9eb166738",
          "transactionIndex": "0x9",
          "logIndex": "0x2f",
          "removed": false
        },
        {
          "address": "0x64445f0aecc51e94ad52d8ac56b7190e764e561a",
          "topics": [
            "0x85496b760a4b7f8d66384b9df21b381f5d1b1e79f229a47aaf4c232edc2fe59a",
            "0x25dcc1a9756f4b1e75cb76af875b04295da9c8dcdf1702aa6ea835f4eea54a81",
            "0x0000000000000000000000003a5cda3ac66aa80573402610c94b74ed6cdb2f23"
          ],
          "data": "0x000000000000000000000000000000000000000000000000000000000000762f000000000000000000000000000000000000000000000000000009184e72a000000000000000000000000000000000000000000000000000000009184e72a000",
          "blockHash": "0x1b3d59a0fb17d7e7e66affe433b55d41c3367ace67faca8ff1574e7c47879937",
          "blockNumber": "0x4318616",
          "blockTimestamp": "0x6a03e39f",
          "transactionHash": "0x26045255fa276af1cabb17a0372622b894d7bb01238d0da955e4c4f9eb166738",
          "transactionIndex": "0x9",
          "logIndex": "0x30",
          "removed": false
        },
        {
          "address": "0x3a5cda3ac66aa80573402610c94b74ed6cdb2f23",
          "topics": [
            "0xbc9ee36b6ca0bdd5b3840e6d329dd19a2490d880c7ce24d9818aa593adfb35be",
            "0x00000000000000000000000045dce8e4f2dc005a5f28206a46cb034697eeda8e",
            "0x000000000000000000000000000000000000000000000000000000000000766f",
            "0x00000000000000000000000045dce8e4f2dc005a5f28206a46cb034697eeda8e"
          ],
          "data": "0x00000000000000000000000064445f0aecc51e94ad52d8ac56b7190e764e561a000000000000000000000000000000000000000000000000000009184e72a000",
          "blockHash": "0x1b3d59a0fb17d7e7e66affe433b55d41c3367ace67faca8ff1574e7c47879937",
          "blockNumber": "0x4318616",
          "blockTimestamp": "0x6a03e39f",
          "transactionHash": "0x26045255fa276af1cabb17a0372622b894d7bb01238d0da955e4c4f9eb166738",
          "transactionIndex": "0x9",
          "logIndex": "0x31",
          "removed": false
        }
      ],
      "logsBloom": "0x0010000000000200000000020000000000000000000000000000000000000000000000000000000000000000000000004000000000000000000000000020000000200200008000000100000800000000014000000000000000001000000000000000000002420000802000000000080000000000000010000000001000000000000000000080000000000008000000000000000000000000000000000000000002000010800000002010000c000000000000000040400000000440000000000000000002001000000000000080000000001000000000000000000000000020004010440000000000000000000000802800020808008000000000000000000002",
      "type": "0x2",
      "transactionHash": "0x26045255fa276af1cabb17a0372622b894d7bb01238d0da955e4c4f9eb166738",
      "transactionIndex": "0x9",
      "blockHash": "0x1b3d59a0fb17d7e7e66affe433b55d41c3367ace67faca8ff1574e7c47879937",
      "blockNumber": "0x4318616",
      "gasUsed": "0x99a6e",
      "effectiveGasPrice": "0xba43b7401",
      "from": "0x45dce8e4f2dc005a5f28206a46cb034697eeda8e",
      "to": "0x3a5cda3ac66aa80573402610c94b74ed6cdb2f23",
      "contractAddress": null
    },
    {
      "status": "0x1",
      "cumulativeGasUsed": "0x35d909",
      "logs": [
        {
          "address": "0x90581eca9469d8d7f5d3b60f4715027adfcf7927",
          "topics": [
            "0x8c5be1e5ebec7d5bd14f71427d1e84f3dd0314c0f7b2291e5b200ac8c7c3b925",
            "0x00000000000000000000000045dce8e4f2dc005a5f28206a46cb034697eeda8e",
            "0x0000000000000000000000003a5cda3ac66aa80573402610c94b74ed6cdb2f23"
          ],
          "data": "0x000000000000000000000000000000000000000000000000000009184e72a000",
          "blockHash": "0x1b3d59a0fb17d7e7e66affe433b55d41c3367ace67faca8ff1574e7c47879937",
          "blockNumber": "0x4318616",
          "blockTimestamp": "0x6a03e39f",
          "transactionHash": "0x7555260a6cb2e6c3eb354b04c2083b0cf5853524a6e2b073acf52f21d5fceadd",
          "transactionIndex": "0xa",
          "logIndex": "0x32",
          "removed": false
        }
      ],
      "logsBloom": "0x00000000000000000000000200000000000000000000000000000000000000000000000000000000000000000000000000000000000000000000000000200000000000000000000000000000000000000000000000000000000010000000000000000000000000000000000000000000000000000000000000000000000000000000000000000004000010000000000000000000000000000000000000000000020000000000000000000000000000000000000000000000000000000000000000000000000000000000000000000000001000000000000000000000000000000010000000000000000000000000800000420800000000000000000000000000",
      "type": "0x2",
      "transactionHash": "0x7555260a6cb2e6c3eb354b04c2083b0cf5853524a6e2b073acf52f21d5fceadd",
      "transactionIndex": "0xa",
      "blockHash": "0x1b3d59a0fb17d7e7e66affe433b55d41c3367ace67faca8ff1574e7c47879937",
      "blockNumber": "0x4318616",
      "gasUsed": "0xdb64",
      "effectiveGasPrice": "0xba43b7401",
      "from": "0x45dce8e4f2dc005a5f28206a46cb034697eeda8e",
      "to": "0x90581eca9469d8d7f5d3b60f4715027adfcf7927",
      "contractAddress": null
    },
    {
      "status": "0x1",
      "cumulativeGasUsed": "0xa3988",
      "logs": [
        {
          "address": "0x90581eca9469d8d7f5d3b60f4715027adfcf7927",
          "topics": [
            "0x8c5be1e5ebec7d5bd14f71427d1e84f3dd0314c0f7b2291e5b200ac8c7c3b925",
            "0x00000000000000000000000045dce8e4f2dc005a5f28206a46cb034697eeda8e",
            "0x0000000000000000000000003a5cda3ac66aa80573402610c94b74ed6cdb2f23"
          ],
          "data": "0x0000000000000000000000000000000000000000000000000000000000000000",
          "blockHash": "0xe1c4c354d17022e526967c31d1a829007fa4839ccbe2639990142ebeffd21ce2",
          "blockNumber": "0x4318618",
          "blockTimestamp": "0x6a03e3a0",
          "transactionHash": "0x21f1edd13dd39f8c9c471d4c802c0126b1f425b7751c70ee945303a2fdda6024",
          "transactionIndex": "0x0",
          "logIndex": "0x0",
          "removed": false
        },
        {
          "address": "0x90581eca9469d8d7f5d3b60f4715027adfcf7927",
          "topics": [
            "0xddf252ad1be2c89b69c2b068fc378daa952ba7f163c4a11628f55a4df523b3ef",
            "0x00000000000000000000000045dce8e4f2dc005a5f28206a46cb034697eeda8e",
            "0x0000000000000000000000003a5cda3ac66aa80573402610c94b74ed6cdb2f23"
          ],
          "data": "0x000000000000000000000000000000000000000000000000000009184e72a000",
          "blockHash": "0xe1c4c354d17022e526967c31d1a829007fa4839ccbe2639990142ebeffd21ce2",
          "blockNumber": "0x4318618",
          "blockTimestamp": "0x6a03e3a0",
          "transactionHash": "0x21f1edd13dd39f8c9c471d4c802c0126b1f425b7751c70ee945303a2fdda6024",
          "transactionIndex": "0x0",
          "logIndex": "0x1",
          "removed": false
        },
        {
          "address": "0x90581eca9469d8d7f5d3b60f4715027adfcf7927",
          "topics": [
            "0x8c5be1e5ebec7d5bd14f71427d1e84f3dd0314c0f7b2291e5b200ac8c7c3b925",
            "0x0000000000000000000000003a5cda3ac66aa80573402610c94b74ed6cdb2f23",
            "0x00000000000000000000000090581eca9469d8d7f5d3b60f4715027adfcf7927"
          ],
          "data": "0x000000000000000000000000000000000000000000000000000009184e72a000",
          "blockHash": "0xe1c4c354d17022e526967c31d1a829007fa4839ccbe2639990142ebeffd21ce2",
          "blockNumber": "0x4318618",
          "blockTimestamp": "0x6a03e3a0",
          "transactionHash": "0x21f1edd13dd39f8c9c471d4c802c0126b1f425b7751c70ee945303a2fdda6024",
          "transactionIndex": "0x0",
          "logIndex": "0x2",
          "removed": false
        },
        {
          "address": "0x90581eca9469d8d7f5d3b60f4715027adfcf7927",
          "topics": [
            "0xddf252ad1be2c89b69c2b068fc378daa952ba7f163c4a11628f55a4df523b3ef",
            "0x0000000000000000000000003a5cda3ac66aa80573402610c94b74ed6cdb2f23",
            "0x0000000000000000000000000000000000000000000000000000000000000000"
          ],
          "data": "0x000000000000000000000000000000000000000000000000000009184e72a000",
          "blockHash": "0xe1c4c354d17022e526967c31d1a829007fa4839ccbe2639990142ebeffd21ce2",
          "blockNumber": "0x4318618",
          "blockTimestamp": "0x6a03e3a0",
          "transactionHash": "0x21f1edd13dd39f8c9c471d4c802c0126b1f425b7751c70ee945303a2fdda6024",
          "transactionIndex": "0x0",
          "logIndex": "0x3",
          "removed": false
        },
        {
          "address": "0xc39161c743d0307eb9bcc9fef03eeb9dc4802de7",
          "topics": [
            "0x61ed099e74a97a1d7f8bb0952a88ca8b7b8ebd00c126ea04671f92a81213318a"
          ],
          "data": "0x0000000000000000000000004208d6e27538189bb48e603d6123a94b8abe0a0b0000000000000000000000000000000000000000000000000586ed1c256f604d",
          "blockHash": "0xe1c4c354d17022e526967c31d1a829007fa4839ccbe2639990142ebeffd21ce2",
          "blockNumber": "0x4318618",
          "blockTimestamp": "0x6a03e3a0",
          "transactionHash": "0x21f1edd13dd39f8c9c471d4c802c0126b1f425b7751c70ee945303a2fdda6024",
          "transactionIndex": "0x0",
          "logIndex": "0x4",
          "removed": false
        },
        {
          "address": "0xc39161c743d0307eb9bcc9fef03eeb9dc4802de7",
          "topics": [
            "0x07ea52d82345d6e838192107d8fd7123d9c2ec8e916cd0aad13fd2b60db24644"
          ],
          "data": "0x000000000000000000000000000000000000000000000000000000000000006000000000000000000000000000000000000000000000000000000000000001200000000000000000000000000000000000000000000000000000000000000140000000000000000000000000000000000000000000000000000000000000000500000000000000000000000005aaefdf9db6e0f7d27fa3b6ee099edb33da029e000000000000000000000000282b3386571f7f794450d5789911a9804fa346b400000000000000000000000054dd79f5ce72b51fcbbcb170dd01e32034323565000000000000000000000000805ed883fa3453e7ac588667785a4495c573cd13000000000000000000000000b2c7832aa8dda878de6f949485f927e9e532e92c0000000000000000000000000000000000000000000000000000000000000000000000000000000000000000000000000000000000000000000000000000000500000000000000000000000000000000000000000000000000c790d37724c33000000000000000000000000000000000000000000000000000d52101de7054ea00000000000000000000000000000000000000000000000000d52101de7054ea00000000000000000000000000000000000000000000000000d52101de7054ea00000000000000000000000000000000000000000000000000c790d37724c330",
          "blockHash": "0xe1c4c354d17022e526967c31d1a829007fa4839ccbe2639990142ebeffd21ce2",
          "blockNumber": "0x4318618",
          "blockTimestamp": "0x6a03e3a0",
          "transactionHash": "0x21f1edd13dd39f8c9c471d4c802c0126b1f425b7751c70ee945303a2fdda6024",
          "transactionIndex": "0x0",
          "logIndex": "0x5",
          "removed": false
        },
        {
          "address": "0x6f475642a6e85809b1c36fa62763669b1b48dd5b",
          "topics": [
            "0x1ab700d4ced0c005b164c0f789fd09fcbb0156d4c2041b8a3bfbcd961cd1567f"
          ],
          "data": "0x00000000000000000000000000000000000000000000000000000000000000600000000000000000000000000000000000000000000000000000000000000180000000000000000000000000c39161c743d0307eb9bcc9fef03eeb9dc4802de700000000000000000000000000000000000000000000000000000000000000f90100000000000000010000767c00000000000000000000000090581eca9469d8d7f5d3b60f4715027adfcf79270000762f00000000000000000000000075c38d46001b0f8108c4136216bd2694982c20fcbf5a5485571ca5145ead938e563e046219f673c569c722bbb076ee0302ea13470000000000000000000000002a2019b30c157db6c1c01306b8025167dbe1803b000000000000000a0000000000000000000000003a5cda3ac66aa80573402610c94b74ed6cdb2f2300000000000000000000000045dce8e4f2dc005a5f28206a46cb034697eeda8e000000000000000000000000000000000000000000000000000000000000766f00000000000000000000000000000000000000000000000000000000000000000000000000002c0003010011010000000000000000000000000003d090010013030000000000000000000000000000000f42400000000000000000000000000000000000000000",
          "blockHash": "0xe1c4c354d17022e526967c31d1a829007fa4839ccbe2639990142ebeffd21ce2",
          "blockNumber": "0x4318618",
          "blockTimestamp": "0x6a03e3a0",
          "transactionHash": "0x21f1edd13dd39f8c9c471d4c802c0126b1f425b7751c70ee945303a2fdda6024",
          "transactionIndex": "0x0",
          "logIndex": "0x6",
          "removed": false
        },
        {
          "address": "0x90581eca9469d8d7f5d3b60f4715027adfcf7927",
          "topics": [
            "0x85496b760a4b7f8d66384b9df21b381f5d1b1e79f229a47aaf4c232edc2fe59a",
            "0xbf5a5485571ca5145ead938e563e046219f673c569c722bbb076ee0302ea1347",
            "0x0000000000000000000000003a5cda3ac66aa80573402610c94b74ed6cdb2f23"
          ],
          "data": "0x000000000000000000000000000000000000000000000000000000000000762f000000000000000000000000000000000000000000000000000009184e72a000000000000000000000000000000000000000000000000000000009184e72a000",
          "blockHash": "0xe1c4c354d17022e526967c31d1a829007fa4839ccbe2639990142ebeffd21ce2",
          "blockNumber": "0x4318618",
          "blockTimestamp": "0x6a03e3a0",
          "transactionHash": "0x21f1edd13dd39f8c9c471d4c802c0126b1f425b7751c70ee945303a2fdda6024",
          "transactionIndex": "0x0",
          "logIndex": "0x7",
          "removed": false
        },
        {
          "address": "0x3a5cda3ac66aa80573402610c94b74ed6cdb2f23",
          "topics": [
            "0xbc9ee36b6ca0bdd5b3840e6d329dd19a2490d880c7ce24d9818aa593adfb35be",
            "0x00000000000000000000000045dce8e4f2dc005a5f28206a46cb034697eeda8e",
            "0x000000000000000000000000000000000000000000000000000000000000766f",
            "0x00000000000000000000000045dce8e4f2dc005a5f28206a46cb034697eeda8e"
          ],
          "data": "0x00000000000000000000000090581eca9469d8d7f5d3b60f4715027adfcf7927000000000000000000000000000000000000000000000000000009184e72a000",
          "blockHash": "0xe1c4c354d17022e526967c31d1a829007fa4839ccbe2639990142ebeffd21ce2",
          "blockNumber": "0x4318618",
          "blockTimestamp": "0x6a03e3a0",
          "transactionHash": "0x21f1edd13dd39f8c9c471d4c802c0126b1f425b7751c70ee945303a2fdda6024",
          "transactionIndex": "0x0",
          "logIndex": "0x8",
          "removed": false
        }
      ],
      "logsBloom": "0x00100000000002000000800200000000000000000000000000000000000000000000000000000000000000000000000000000100000000000000000000200000000002000000000001000008000000000140000000000000000010000000000000000000024200008020000000000800000000010000100000000010000000000000000000800004000010080008000000000000000000000000000000000000020000108000000020100000000000000000000040400000000440000000000000000002001000000000000080000100001000000000000000000000000020004010040000000000000000000040802000420800008000000000000000000000",
      "type": "0x2",
      "transactionHash": "0x21f1edd13dd39f8c9c471d4c802c0126b1f425b7751c70ee945303a2fdda6024",
      "transactionIndex": "0x0",
      "blockHash": "0xe1c4c354d17022e526967c31d1a829007fa4839ccbe2639990142ebeffd21ce2",
      "blockNumber": "0x4318618",
      "gasUsed": "0xa3988",
      "effectiveGasPrice": "0xba43b7401",
      "from": "0x45dce8e4f2dc005a5f28206a46cb034697eeda8e",
      "to": "0x3a5cda3ac66aa80573402610c94b74ed6cdb2f23",
      "contractAddress": null
    }
  ],
  "libraries": [],
  "pending": [],
  "returns": {},
  "timestamp": 1778639778498,
  "chain": 146,
  "commit": "3c1e5d2a"
}